{
  "_format": "hh-sol-artifact-1",
  "contractName": "LaunchNFTV2",
  "sourceName": "src/blockchain/evm/contracts/DirectMintNFTV2.sol",
  "abi": [
    {
      "inputs": [
        {
          "internalType": "address",
          "name": "initialOwner",
          "type": "address"
        },
        {
          "internalType": "string",
          "name": "name",
          "type": "string"
        },
        {
          "internalType": "string",
          "name": "symbol",
          "type": "string"
        },
        {
          "internalType": "uint96",
          "name": "_royaltyFee",
          "type": "uint96"
        },
        {
          "internalType": "uint96",
          "name": "_platformFee",
          "type": "uint96"
        },
        {
          "internalType": "address",
          "name": "_platformFeeRecipient",
          "type": "address"
        },
        {
          "internalType": "address",
          "name": "_backendSigner",
          "type": "address"
        }
      ],
      "stateMutability": "nonpayable",
      "type": "constructor"
    },
    {
      "inputs": [],
      "name": "ECDSAInvalidSignature",
      "type": "error"
    },
    {
      "inputs": [
        {
          "internalType": "uint256",
          "name": "length",
          "type": "uint256"
        }
      ],
      "name": "ECDSAInvalidSignatureLength",
      "type": "error"
    },
    {
      "inputs": [
        {
          "internalType": "bytes32",
          "name": "s",
          "type": "bytes32"
        }
      ],
      "name": "ECDSAInvalidSignatureS",
      "type": "error"
    },
    {
      "inputs": [
        {
          "internalType": "uint256",
          "name": "numerator",
          "type": "uint256"
        },
        {
          "internalType": "uint256",
          "name": "denominator",
          "type": "uint256"
        }
      ],
      "name": "ERC2981InvalidDefaultRoyalty",
      "type": "error"
    },
    {
      "inputs": [
        {
          "internalType": "address",
          "name": "receiver",
          "type": "address"
        }
      ],
      "name": "ERC2981InvalidDefaultRoyaltyReceiver",
      "type": "error"
    },
    {
      "inputs": [
        {
          "internalType": "uint256",
          "name": "tokenId",
          "type": "uint256"
        },
        {
          "internalType": "uint256",
          "name": "numerator",
          "type": "uint256"
        },
        {
          "internalType": "uint256",
          "name": "denominator",
          "type": "uint256"
        }
      ],
      "name": "ERC2981InvalidTokenRoyalty",
      "type": "error"
    },
    {
      "inputs": [
        {
          "internalType": "uint256",
          "name": "tokenId",
          "type": "uint256"
        },
        {
          "internalType": "address",
          "name": "receiver",
          "type": "address"
        }
      ],
      "name": "ERC2981InvalidTokenRoyaltyReceiver",
      "type": "error"
    },
    {
      "inputs": [],
      "name": "ERC721EnumerableForbiddenBatchMint",
      "type": "error"
    },
    {
      "inputs": [
        {
          "internalType": "address",
          "name": "sender",
          "type": "address"
        },
        {
          "internalType": "uint256",
          "name": "tokenId",
          "type": "uint256"
        },
        {
          "internalType": "address",
          "name": "owner",
          "type": "address"
        }
      ],
      "name": "ERC721IncorrectOwner",
      "type": "error"
    },
    {
      "inputs": [
        {
          "internalType": "address",
          "name": "operator",
          "type": "address"
        },
        {
          "internalType": "uint256",
          "name": "tokenId",
          "type": "uint256"
        }
      ],
      "name": "ERC721InsufficientApproval",
      "type": "error"
    },
    {
      "inputs": [
        {
          "internalType": "address",
          "name": "approver",
          "type": "address"
        }
      ],
      "name": "ERC721InvalidApprover",
      "type": "error"
    },
    {
      "inputs": [
        {
          "internalType": "address",
          "name": "operator",
          "type": "address"
        }
      ],
      "name": "ERC721InvalidOperator",
      "type": "error"
    },
    {
      "inputs": [
        {
          "internalType": "address",
          "name": "owner",
          "type": "address"
        }
      ],
      "name": "ERC721InvalidOwner",
      "type": "error"
    },
    {
      "inputs": [
        {
          "internalType": "address",
          "name": "receiver",
          "type": "address"
        }
      ],
      "name": "ERC721InvalidReceiver",
      "type": "error"
    },
    {
      "inputs": [
        {
          "internalType": "address",
          "name": "sender",
          "type": "address"
        }
      ],
      "name": "ERC721InvalidSender",
      "type": "error"
    },
    {
      "inputs": [
        {
          "internalType": "uint256",
          "name": "tokenId",
          "type": "uint256"
        }
      ],
      "name": "ERC721NonexistentToken",
      "type": "error"
    },
    {
      "inputs": [
        {
          "internalType": "address",
          "name": "owner",
          "type": "address"
        },
        {
          "internalType": "uint256",
          "name": "index",
          "type": "uint256"
        }
      ],
      "name": "ERC721OutOfBoundsIndex",
      "type": "error"
    },
    {
      "inputs": [],
      "name": "InvalidShortString",
      "type": "error"
    },
    {
      "inputs": [
        {
          "internalType": "address",
          "name": "owner",
          "type": "address"
        }
      ],
      "name": "OwnableInvalidOwner",
      "type": "error"
    },
    {
      "inputs": [
        {
          "internalType": "address",
          "name": "account",
          "type": "address"
        }
      ],
      "name": "OwnableUnauthorizedAccount",
      "type": "error"
    },
    {
      "inputs": [
        {
          "internalType": "string",
          "name": "str",
          "type": "string"
        }
      ],
      "name": "StringTooLong",
      "type": "error"
    },
    {
      "anonymous": false,
      "inputs": [
        {
          "indexed": true,
          "internalType": "address",
          "name": "owner",
          "type": "address"
        },
        {
          "indexed": true,
          "internalType": "address",
          "name": "approved",
          "type": "address"
        },
        {
          "indexed": true,
          "internalType": "uint256",
          "name": "tokenId",
          "type": "uint256"
        }
      ],
      "name": "Approval",
      "type": "event"
    },
    {
      "anonymous": false,
      "inputs": [
        {
          "indexed": true,
          "internalType": "address",
          "name": "owner",
          "type": "address"
        },
        {
          "indexed": true,
          "internalType": "address",
          "name": "operator",
          "type": "address"
        },
        {
          "indexed": false,
          "internalType": "bool",
          "name": "approved",
          "type": "bool"
        }
      ],
      "name": "ApprovalForAll",
      "type": "event"
    },
    {
      "anonymous": false,
      "inputs": [
        {
          "indexed": false,
          "internalType": "uint256",
          "name": "_fromTokenId",
          "type": "uint256"
        },
        {
          "indexed": false,
          "internalType": "uint256",
          "name": "_toTokenId",
          "type": "uint256"
        }
      ],
      "name": "BatchMetadataUpdate",
      "type": "event"
    },
    {
      "anonymous": false,
      "inputs": [],
      "name": "EIP712DomainChanged",
      "type": "event"
    },
    {
      "anonymous": false,
      "inputs": [
        {
          "indexed": false,
          "internalType": "uint256",
          "name": "_tokenId",
          "type": "uint256"
        }
      ],
      "name": "MetadataUpdate",
      "type": "event"
    },
    {
      "anonymous": false,
      "inputs": [
        {
          "indexed": true,
          "internalType": "address",
          "name": "previousOwner",
          "type": "address"
        },
        {
          "indexed": true,
          "internalType": "address",
          "name": "newOwner",
          "type": "address"
        }
      ],
      "name": "OwnershipTransferred",
      "type": "event"
    },
    {
      "anonymous": false,
      "inputs": [
        {
          "indexed": true,
          "internalType": "uint256",
          "name": "phaseIndex",
          "type": "uint256"
        },
        {
          "indexed": false,
          "internalType": "enum LaunchNFTV2.PhaseType",
          "name": "phaseType",
          "type": "uint8"
        },
        {
          "indexed": false,
          "internalType": "uint256",
          "name": "price",
          "type": "uint256"
        }
      ],
      "name": "PhaseAdded",
      "type": "event"
    },
    {
      "anonymous": false,
      "inputs": [
        {
          "indexed": true,
          "internalType": "uint256",
          "name": "phaseIndex",
          "type": "uint256"
        },
        {
          "indexed": false,
          "internalType": "enum LaunchNFTV2.PhaseType",
          "name": "phaseType",
          "type": "uint8"
        },
        {
          "indexed": false,
          "internalType": "uint256",
          "name": "price",
          "type": "uint256"
        }
      ],
      "name": "PhaseUpdated",
      "type": "event"
    },
    {
      "anonymous": false,
      "inputs": [
        {
          "indexed": false,
          "internalType": "uint96",
          "name": "newPercentage",
          "type": "uint96"
        },
        {
          "indexed": false,
          "internalType": "address",
          "name": "newRecipient",
          "type": "address"
        }
      ],
      "name": "PlatformFeeUpdated",
      "type": "event"
    },
    {
      "anonymous": false,
      "inputs": [
        {
          "indexed": true,
          "internalType": "uint256",
          "name": "tokenId",
          "type": "uint256"
        },
        {
          "indexed": true,
          "internalType": "address",
          "name": "recipient",
          "type": "address"
        },
        {
          "indexed": false,
          "internalType": "enum LaunchNFTV2.PhaseType",
          "name": "phaseType",
          "type": "uint8"
        }
      ],
      "name": "TokenMinted",
      "type": "event"
    },
    {
      "anonymous": false,
      "inputs": [
        {
          "indexed": true,
          "internalType": "address",
          "name": "from",
          "type": "address"
        },
        {
          "indexed": true,
          "internalType": "address",
          "name": "to",
          "type": "address"
        },
        {
          "indexed": true,
          "internalType": "uint256",
          "name": "tokenId",
          "type": "uint256"
        }
      ],
      "name": "Transfer",
      "type": "event"
    },
    {
      "anonymous": false,
      "inputs": [
        {
          "indexed": true,
          "internalType": "address",
          "name": "recipient",
          "type": "address"
        },
        {
          "indexed": false,
          "internalType": "uint256",
          "name": "amount",
          "type": "uint256"
        }
      ],
      "name": "WithdrawCompleted",
      "type": "event"
    },
    {
      "inputs": [
        {
          "internalType": "enum LaunchNFTV2.PhaseType",
          "name": "_phaseType",
          "type": "uint8"
        },
        {
          "internalType": "uint256",
          "name": "_price",
          "type": "uint256"
        },
        {
          "internalType": "uint256",
          "name": "_startTime",
          "type": "uint256"
        },
        {
          "internalType": "uint256",
          "name": "_endTime",
          "type": "uint256"
        },
        {
          "internalType": "uint256",
          "name": "_maxSupply",
          "type": "uint256"
        },
        {
          "internalType": "uint256",
          "name": "_maxPerWallet",
          "type": "uint256"
        },
        {
          "internalType": "bytes32",
          "name": "_merkleRoot",
          "type": "bytes32"
        }
      ],
      "name": "addPhase",
      "outputs": [],
      "stateMutability": "nonpayable",
      "type": "function"
    },
    {
      "inputs": [
        {
          "internalType": "address",
          "name": "to",
          "type": "address"
        },
        {
          "internalType": "uint256",
          "name": "tokenId",
          "type": "uint256"
        }
      ],
      "name": "approve",
      "outputs": [],
      "stateMutability": "nonpayable",
      "type": "function"
    },
    {
      "inputs": [],
      "name": "backendSigner",
      "outputs": [
        {
          "internalType": "address",
          "name": "",
          "type": "address"
        }
      ],
      "stateMutability": "view",
      "type": "function"
    },
    {
      "inputs": [
        {
          "internalType": "address",
          "name": "owner",
          "type": "address"
        }
      ],
      "name": "balanceOf",
      "outputs": [
        {
          "internalType": "uint256",
          "name": "",
          "type": "uint256"
        }
      ],
      "stateMutability": "view",
      "type": "function"
    },
    {
      "inputs": [],
      "name": "eip712Domain",
      "outputs": [
        {
          "internalType": "bytes1",
          "name": "fields",
          "type": "bytes1"
        },
        {
          "internalType": "string",
          "name": "name",
          "type": "string"
        },
        {
          "internalType": "string",
          "name": "version",
          "type": "string"
        },
        {
          "internalType": "uint256",
          "name": "chainId",
          "type": "uint256"
        },
        {
          "internalType": "address",
          "name": "verifyingContract",
          "type": "address"
        },
        {
          "internalType": "bytes32",
          "name": "salt",
          "type": "bytes32"
        },
        {
          "internalType": "uint256[]",
          "name": "extensions",
          "type": "uint256[]"
        }
      ],
      "stateMutability": "view",
      "type": "function"
    },
    {
      "inputs": [],
      "name": "getActivePhase",
      "outputs": [
        {
          "internalType": "uint256",
          "name": "phaseIndex",
          "type": "uint256"
        },
        {
          "components": [
            {
              "internalType": "enum LaunchNFTV2.PhaseType",
              "name": "phaseType",
              "type": "uint8"
            },
            {
              "internalType": "uint256",
              "name": "price",
              "type": "uint256"
            },
            {
              "internalType": "uint256",
              "name": "startTime",
              "type": "uint256"
            },
            {
              "internalType": "uint256",
              "name": "endTime",
              "type": "uint256"
            },
            {
              "internalType": "uint256",
              "name": "maxSupply",
              "type": "uint256"
            },
            {
              "internalType": "uint256",
              "name": "maxPerWallet",
              "type": "uint256"
            },
            {
              "internalType": "uint256",
              "name": "mintedInPhase",
              "type": "uint256"
            },
            {
              "internalType": "bytes32",
              "name": "merkleRoot",
              "type": "bytes32"
            }
          ],
          "internalType": "struct LaunchNFTV2.Phase",
          "name": "phase",
          "type": "tuple"
        }
      ],
      "stateMutability": "view",
      "type": "function"
    },
    {
      "inputs": [
        {
          "internalType": "uint256",
          "name": "tokenId",
          "type": "uint256"
        }
      ],
      "name": "getApproved",
      "outputs": [
        {
          "internalType": "address",
          "name": "",
          "type": "address"
        }
      ],
      "stateMutability": "view",
      "type": "function"
    },
    {
      "inputs": [
        {
          "internalType": "address",
          "name": "user",
          "type": "address"
        },
        {
          "internalType": "enum LaunchNFTV2.PhaseType",
          "name": "phaseType",
          "type": "uint8"
        }
      ],
      "name": "getMintedInPhase",
      "outputs": [
        {
          "internalType": "uint256",
          "name": "",
          "type": "uint256"
        }
      ],
      "stateMutability": "view",
      "type": "function"
    },
    {
      "inputs": [],
      "name": "getPhaseCount",
      "outputs": [
        {
          "internalType": "uint256",
          "name": "",
          "type": "uint256"
        }
      ],
      "stateMutability": "view",
      "type": "function"
    },
    {
      "inputs": [
        {
          "internalType": "address",
          "name": "owner",
          "type": "address"
        },
        {
          "internalType": "address",
          "name": "operator",
          "type": "address"
        }
      ],
      "name": "isApprovedForAll",
      "outputs": [
        {
          "internalType": "bool",
          "name": "",
          "type": "bool"
        }
      ],
      "stateMutability": "view",
      "type": "function"
    },
    {
      "inputs": [
        {
          "internalType": "uint256",
          "name": "tokenId",
          "type": "uint256"
        },
        {
          "internalType": "string",
          "name": "uri",
          "type": "string"
        },
        {
          "internalType": "bytes32",
          "name": "uniqueId",
          "type": "bytes32"
        },
        {
          "internalType": "uint256",
          "name": "timestamp",
          "type": "uint256"
        },
        {
          "internalType": "bytes",
          "name": "signature",
          "type": "bytes"
        },
        {
          "internalType": "bytes32[]",
          "name": "merkleProof",
          "type": "bytes32[]"
        }
      ],
      "name": "mint",
      "outputs": [],
      "stateMutability": "payable",
      "type": "function"
    },
    {
      "inputs": [],
      "name": "name",
      "outputs": [
        {
          "internalType": "string",
          "name": "",
          "type": "string"
        }
      ],
      "stateMutability": "view",
      "type": "function"
    },
    {
      "inputs": [],
      "name": "owner",
      "outputs": [
        {
          "internalType": "address",
          "name": "",
          "type": "address"
        }
      ],
      "stateMutability": "view",
      "type": "function"
    },
    {
      "inputs": [
        {
          "internalType": "uint256",
          "name": "tokenId",
          "type": "uint256"
        }
      ],
      "name": "ownerOf",
      "outputs": [
        {
          "internalType": "address",
          "name": "",
          "type": "address"
        }
      ],
      "stateMutability": "view",
      "type": "function"
    },
    {
      "inputs": [
        {
          "internalType": "uint256",
          "name": "",
          "type": "uint256"
        }
      ],
      "name": "phases",
      "outputs": [
        {
          "internalType": "enum LaunchNFTV2.PhaseType",
          "name": "phaseType",
          "type": "uint8"
        },
        {
          "internalType": "uint256",
          "name": "price",
          "type": "uint256"
        },
        {
          "internalType": "uint256",
          "name": "startTime",
          "type": "uint256"
        },
        {
          "internalType": "uint256",
          "name": "endTime",
          "type": "uint256"
        },
        {
          "internalType": "uint256",
          "name": "maxSupply",
          "type": "uint256"
        },
        {
          "internalType": "uint256",
          "name": "maxPerWallet",
          "type": "uint256"
        },
        {
          "internalType": "uint256",
          "name": "mintedInPhase",
          "type": "uint256"
        },
        {
          "internalType": "bytes32",
          "name": "merkleRoot",
          "type": "bytes32"
        }
      ],
      "stateMutability": "view",
      "type": "function"
    },
    {
      "inputs": [],
      "name": "platformFeePercentage",
      "outputs": [
        {
          "internalType": "uint96",
          "name": "",
          "type": "uint96"
        }
      ],
      "stateMutability": "view",
      "type": "function"
    },
    {
      "inputs": [],
      "name": "platformFeeRecipient",
      "outputs": [
        {
          "internalType": "address",
          "name": "",
          "type": "address"
        }
      ],
      "stateMutability": "view",
      "type": "function"
    },
    {
      "inputs": [],
      "name": "renounceOwnership",
      "outputs": [],
      "stateMutability": "nonpayable",
      "type": "function"
    },
    {
      "inputs": [
        {
          "internalType": "uint256",
          "name": "tokenId",
          "type": "uint256"
        },
        {
          "internalType": "uint256",
          "name": "salePrice",
          "type": "uint256"
        }
      ],
      "name": "royaltyInfo",
      "outputs": [
        {
          "internalType": "address",
          "name": "receiver",
          "type": "address"
        },
        {
          "internalType": "uint256",
          "name": "amount",
          "type": "uint256"
        }
      ],
      "stateMutability": "view",
      "type": "function"
    },
    {
      "inputs": [
        {
          "internalType": "address",
          "name": "from",
          "type": "address"
        },
        {
          "internalType": "address",
          "name": "to",
          "type": "address"
        },
        {
          "internalType": "uint256",
          "name": "tokenId",
          "type": "uint256"
        }
      ],
      "name": "safeTransferFrom",
      "outputs": [],
      "stateMutability": "nonpayable",
      "type": "function"
    },
    {
      "inputs": [
        {
          "internalType": "address",
          "name": "from",
          "type": "address"
        },
        {
          "internalType": "address",
          "name": "to",
          "type": "address"
        },
        {
          "internalType": "uint256",
          "name": "tokenId",
          "type": "uint256"
        },
        {
          "internalType": "bytes",
          "name": "data",
          "type": "bytes"
        }
      ],
      "name": "safeTransferFrom",
      "outputs": [],
      "stateMutability": "nonpayable",
      "type": "function"
    },
    {
      "inputs": [
        {
          "internalType": "address",
          "name": "operator",
          "type": "address"
        },
        {
          "internalType": "bool",
          "name": "approved",
          "type": "bool"
        }
      ],
      "name": "setApprovalForAll",
      "outputs": [],
      "stateMutability": "nonpayable",
      "type": "function"
    },
    {
      "inputs": [
        {
          "internalType": "bytes4",
          "name": "interfaceId",
          "type": "bytes4"
        }
      ],
      "name": "supportsInterface",
      "outputs": [
        {
          "internalType": "bool",
          "name": "",
          "type": "bool"
        }
      ],
      "stateMutability": "view",
      "type": "function"
    },
    {
      "inputs": [],
      "name": "symbol",
      "outputs": [
        {
          "internalType": "string",
          "name": "",
          "type": "string"
        }
      ],
      "stateMutability": "view",
      "type": "function"
    },
    {
      "inputs": [
        {
          "internalType": "uint256",
          "name": "index",
          "type": "uint256"
        }
      ],
      "name": "tokenByIndex",
      "outputs": [
        {
          "internalType": "uint256",
          "name": "",
          "type": "uint256"
        }
      ],
      "stateMutability": "view",
      "type": "function"
    },
    {
      "inputs": [
        {
          "internalType": "address",
          "name": "owner",
          "type": "address"
        },
        {
          "internalType": "uint256",
          "name": "index",
          "type": "uint256"
        }
      ],
      "name": "tokenOfOwnerByIndex",
      "outputs": [
        {
          "internalType": "uint256",
          "name": "",
          "type": "uint256"
        }
      ],
      "stateMutability": "view",
      "type": "function"
    },
    {
      "inputs": [
        {
          "internalType": "uint256",
          "name": "tokenId",
          "type": "uint256"
        }
      ],
      "name": "tokenURI",
      "outputs": [
        {
          "internalType": "string",
          "name": "",
          "type": "string"
        }
      ],
      "stateMutability": "view",
      "type": "function"
    },
    {
      "inputs": [],
      "name": "totalSupply",
      "outputs": [
        {
          "internalType": "uint256",
          "name": "",
          "type": "uint256"
        }
      ],
      "stateMutability": "view",
      "type": "function"
    },
    {
      "inputs": [
        {
          "internalType": "address",
          "name": "from",
          "type": "address"
        },
        {
          "internalType": "address",
          "name": "to",
          "type": "address"
        },
        {
          "internalType": "uint256",
          "name": "tokenId",
          "type": "uint256"
        }
      ],
      "name": "transferFrom",
      "outputs": [],
      "stateMutability": "nonpayable",
      "type": "function"
    },
    {
      "inputs": [
        {
          "internalType": "address",
          "name": "newOwner",
          "type": "address"
        }
      ],
      "name": "transferOwnership",
      "outputs": [],
      "stateMutability": "nonpayable",
      "type": "function"
    },
    {
      "inputs": [
        {
          "internalType": "uint256",
          "name": "phaseIndex",
          "type": "uint256"
        },
        {
          "internalType": "enum LaunchNFTV2.PhaseType",
          "name": "_phaseType",
          "type": "uint8"
        },
        {
          "internalType": "uint256",
          "name": "_price",
          "type": "uint256"
        },
        {
          "internalType": "uint256",
          "name": "_startTime",
          "type": "uint256"
        },
        {
          "internalType": "uint256",
          "name": "_endTime",
          "type": "uint256"
        },
        {
          "internalType": "uint256",
          "name": "_maxSupply",
          "type": "uint256"
        },
        {
          "internalType": "uint256",
          "name": "_maxPerWallet",
          "type": "uint256"
        },
        {
          "internalType": "bytes32",
          "name": "_merkleRoot",
          "type": "bytes32"
        }
      ],
      "name": "updatePhase",
      "outputs": [],
      "stateMutability": "nonpayable",
      "type": "function"
    }
  ],
  "bytecode": "0x6101a060405234801561001157600080fd5b50604051616e9e380380616e9e83398181016040528101906100339190610932565b6040518060400160405280600a81526020017f556e69666965644e4654000000000000000000000000000000000000000000008152506040518060400160405280600181526020017f310000000000000000000000000000000000000000000000000000000000000081525088888881600090816100b19190610c2d565b5080600190816100c19190610c2d565b505050600073ffffffffffffffffffffffffffffffffffffffff168173ffffffffffffffffffffffffffffffffffffffff16036101365760006040517f1e4fbdf700000000000000000000000000000000000000000000000000000000815260040161012d9190610d0e565b60405180910390fd5b6101458161038660201b60201c565b5061015a600e8361044c60201b90919060201c565b6101208181525050610176600f8261044c60201b90919060201c565b6101408181525050818051906020012060e08181525050808051906020012061010081815250504660a081815250506101b361049c60201b60201c565b608081815250503073ffffffffffffffffffffffffffffffffffffffff1660c08173ffffffffffffffffffffffffffffffffffffffff168152505050506103e8846bffffffffffffffffffffffff161115801561022057506103e8836bffffffffffffffffffffffff1611155b80156102595750600073ffffffffffffffffffffffffffffffffffffffff168273ffffffffffffffffffffffffffffffffffffffff1614155b80156102925750600073ffffffffffffffffffffffffffffffffffffffff168173ffffffffffffffffffffffffffffffffffffffff1614155b61029b57600080fd5b8073ffffffffffffffffffffffffffffffffffffffff166101608173ffffffffffffffffffffffffffffffffffffffff1681525050836bffffffffffffffffffffffff16610180816bffffffffffffffffffffffff168152505082601460006101000a8154816bffffffffffffffffffffffff02191690836bffffffffffffffffffffffff160217905550816014600c6101000a81548173ffffffffffffffffffffffffffffffffffffffff021916908373ffffffffffffffffffffffffffffffffffffffff16021790555061037a87610180516104f760201b60201c565b50505050505050610f01565b6000600d60009054906101000a900473ffffffffffffffffffffffffffffffffffffffff16905081600d60006101000a81548173ffffffffffffffffffffffffffffffffffffffff021916908373ffffffffffffffffffffffffffffffffffffffff1602179055508173ffffffffffffffffffffffffffffffffffffffff168173ffffffffffffffffffffffffffffffffffffffff167f8be0079c531659141344cd1fd0a4f28419497f9722a3daafe3b4186f6b6457e060405160405180910390a35050565b600060208351101561046e576104678361069f60201b60201c565b9050610496565b8261047e8361070760201b60201c565b600001908161048d9190610c2d565b5060ff60001b90505b92915050565b60007f8b73c3c69bb8fe3d512ecc4cf759cc79239f7b179b0ffacaa9a75d522b39400f60e0516101005146306040516020016104dc959493929190610d51565b60405160208183030381529060405280519060200120905090565b600061050761071160201b60201c565b6bffffffffffffffffffffffff16905080826bffffffffffffffffffffffff16111561056c5781816040517f6f483d09000000000000000000000000000000000000000000000000000000008152600401610563929190610dd5565b60405180910390fd5b600073ffffffffffffffffffffffffffffffffffffffff168373ffffffffffffffffffffffffffffffffffffffff16036105de5760006040517fb6d9900a0000000000000000000000000000000000000000000000000000000081526004016105d59190610d0e565b60405180910390fd5b60405180604001604052808473ffffffffffffffffffffffffffffffffffffffff168152602001836bffffffffffffffffffffffff16815250600b60008201518160000160006101000a81548173ffffffffffffffffffffffffffffffffffffffff021916908373ffffffffffffffffffffffffffffffffffffffff16021790555060208201518160000160146101000a8154816bffffffffffffffffffffffff02191690836bffffffffffffffffffffffff160217905550905050505050565b600080829050601f815111156106ec57826040517f305a27a90000000000000000000000000000000000000000000000000000000081526004016106e39190610e48565b60405180910390fd5b8051816106f890610e9a565b60001c1760001b915050919050565b6000819050919050565b6000612710905090565b6000604051905090565b600080fd5b600080fd5b600073ffffffffffffffffffffffffffffffffffffffff82169050919050565b600061075a8261072f565b9050919050565b61076a8161074f565b811461077557600080fd5b50565b60008151905061078781610761565b92915050565b600080fd5b600080fd5b6000601f19601f8301169050919050565b7f4e487b7100000000000000000000000000000000000000000000000000000000600052604160045260246000fd5b6107e082610797565b810181811067ffffffffffffffff821117156107ff576107fe6107a8565b5b80604052505050565b600061081261071b565b905061081e82826107d7565b919050565b600067ffffffffffffffff82111561083e5761083d6107a8565b5b61084782610797565b9050602081019050919050565b60005b83811015610872578082015181840152602081019050610857565b60008484015250505050565b600061089161088c84610823565b610808565b9050828152602081018484840111156108ad576108ac610792565b5b6108b8848285610854565b509392505050565b600082601f8301126108d5576108d461078d565b5b81516108e584826020860161087e565b91505092915050565b60006bffffffffffffffffffffffff82169050919050565b61090f816108ee565b811461091a57600080fd5b50565b60008151905061092c81610906565b92915050565b600080600080600080600060e0888a03121561095157610950610725565b5b600061095f8a828b01610778565b975050602088015167ffffffffffffffff8111156109805761097f61072a565b5b61098c8a828b016108c0565b965050604088015167ffffffffffffffff8111156109ad576109ac61072a565b5b6109b98a828b016108c0565b95505060606109ca8a828b0161091d565b94505060806109db8a828b0161091d565b93505060a06109ec8a828b01610778565b92505060c06109fd8a828b01610778565b91505092959891949750929550565b600081519050919050565b7f4e487b7100000000000000000000000000000000000000000000000000000000600052602260045260246000fd5b60006002820490506001821680610a5e57607f821691505b602082108103610a7157610a70610a17565b5b50919050565b60008190508160005260206000209050919050565b60006020601f8301049050919050565b600082821b905092915050565b600060088302610ad97fffffffffffffffffffffffffffffffffffffffffffffffffffffffffffffffff82610a9c565b610ae38683610a9c565b95508019841693508086168417925050509392505050565b6000819050919050565b6000819050919050565b6000610b2a610b25610b2084610afb565b610b05565b610afb565b9050919050565b6000819050919050565b610b4483610b0f565b610b58610b5082610b31565b848454610aa9565b825550505050565b600090565b610b6d610b60565b610b78818484610b3b565b505050565b5b81811015610b9c57610b91600082610b65565b600181019050610b7e565b5050565b601f821115610be157610bb281610a77565b610bbb84610a8c565b81016020851015610bca578190505b610bde610bd685610a8c565b830182610b7d565b50505b505050565b600082821c905092915050565b6000610c0460001984600802610be6565b1980831691505092915050565b6000610c1d8383610bf3565b9150826002028217905092915050565b610c3682610a0c565b67ffffffffffffffff811115610c4f57610c4e6107a8565b5b610c598254610a46565b610c64828285610ba0565b600060209050601f831160018114610c975760008415610c85578287015190505b610c8f8582610c11565b865550610cf7565b601f198416610ca586610a77565b60005b82811015610ccd57848901518255600182019150602085019450602081019050610ca8565b86831015610cea5784890151610ce6601f891682610bf3565b8355505b6001600288020188555050505b505050505050565b610d088161074f565b82525050565b6000602082019050610d236000830184610cff565b92915050565b6000819050919050565b610d3c81610d29565b82525050565b610d4b81610afb565b82525050565b600060a082019050610d666000830188610d33565b610d736020830187610d33565b610d806040830186610d33565b610d8d6060830185610d42565b610d9a6080830184610cff565b9695505050505050565b6000610dbf610dba610db5846108ee565b610b05565b610afb565b9050919050565b610dcf81610da4565b82525050565b6000604082019050610dea6000830185610dc6565b610df76020830184610d42565b9392505050565b600082825260208201905092915050565b6000610e1a82610a0c565b610e248185610dfe565b9350610e34818560208601610854565b610e3d81610797565b840191505092915050565b60006020820190508181036000830152610e628184610e0f565b905092915050565b600081519050919050565b6000819050602082019050919050565b6000610e918251610d29565b80915050919050565b6000610ea582610e6a565b82610eaf84610e75565b9050610eba81610e85565b92506020821015610efa57610ef57fffffffffffffffffffffffffffffffffffffffffffffffffffffffffffffffff83602003600802610a9c565b831692505b5050919050565b60805160a05160c05160e0516101005161012051610140516101605161018051615f29610f75600039600050506000818161109801526118c00152600061238a0152600061234f0152600061388c0152600061386b01526000612f2b01526000612f8101526000612faa0152615f296000f3fe6080604052600436106101d85760003560e01c806370a0823111610102578063b88d4fde11610095578063e985e9c511610064578063e985e9c5146106e6578063eb13554f14610723578063f2fde38b1461074e578063f7330c2d14610777576101d8565b8063b88d4fde1461062a578063c87b56dd14610653578063cdd78cfc14610690578063db5e0063146106bb576101d8565b80638da5cb5b116100d15780638da5cb5b1461058f5780638ff75e82146105ba57806395d89b41146105d6578063a22cb46514610601576101d8565b806370a08231146104e1578063715018a61461051e57806376826a671461053557806384b0196e1461055e576101d8565b80632a55205a1161017a5780634f6ccce7116101495780634f6ccce71461041357806357036078146104505780636352211e1461047957806365d65e86146104b6576101d8565b80632a55205a1461032b5780632e37eef6146103695780632f745c59146103ad57806342842e0e146103ea576101d8565b8063095ea7b3116101b6578063095ea7b31461028257806318160ddd146102ab5780631ce97fd1146102d657806323b872dd14610302576101d8565b806301ffc9a7146101dd57806306fdde031461021a578063081812fc14610245575b600080fd5b3480156101e957600080fd5b5061020460048036038101906101ff91906140e8565b6107b4565b6040516102119190614130565b60405180910390f35b34801561022657600080fd5b5061022f6107c6565b60405161023c91906141db565b60405180910390f35b34801561025157600080fd5b5061026c60048036038101906102679190614233565b610858565b60405161027991906142a1565b60405180910390f35b34801561028e57600080fd5b506102a960048036038101906102a491906142e8565b610874565b005b3480156102b757600080fd5b506102c061088a565b6040516102cd9190614337565b60405180910390f35b3480156102e257600080fd5b506102eb610897565b6040516102f9929190614493565b60405180910390f35b34801561030e57600080fd5b50610329600480360381019061032491906144bd565b610941565b005b34801561033757600080fd5b50610352600480360381019061034d9190614510565b610a43565b604051610360929190614550565b60405180910390f35b34801561037557600080fd5b50610390600480360381019061038b9190614233565b610b73565b6040516103a4989796959493929190614597565b60405180910390f35b3480156103b957600080fd5b506103d460048036038101906103cf91906142e8565b610bd8565b6040516103e19190614337565b60405180910390f35b3480156103f657600080fd5b50610411600480360381019061040c91906144bd565b610c81565b005b34801561041f57600080fd5b5061043a60048036038101906104359190614233565b610ca1565b6040516104479190614337565b60405180910390f35b34801561045c57600080fd5b5061047760048036038101906104729190614666565b610d17565b005b34801561048557600080fd5b506104a0600480360381019061049b9190614233565b611084565b6040516104ad91906142a1565b60405180910390f35b3480156104c257600080fd5b506104cb611096565b6040516104d891906142a1565b60405180910390f35b3480156104ed57600080fd5b5061050860048036038101906105039190614708565b6110ba565b6040516105159190614337565b60405180910390f35b34801561052a57600080fd5b50610533611174565b005b34801561054157600080fd5b5061055c60048036038101906105579190614735565b611188565b005b34801561056a57600080fd5b506105736115c3565b60405161058697969594939291906148d5565b60405180910390f35b34801561059b57600080fd5b506105a461166d565b6040516105b191906142a1565b60405180910390f35b6105d460048036038101906105cf9190614a6a565b611697565b005b3480156105e257600080fd5b506105eb611cc4565b6040516105f891906141db565b60405180910390f35b34801561060d57600080fd5b5061062860048036038101906106239190614b85565b611d56565b005b34801561063657600080fd5b50610651600480360381019061064c9190614cf5565b611d6c565b005b34801561065f57600080fd5b5061067a60048036038101906106759190614233565b611d91565b60405161068791906141db565b60405180910390f35b34801561069c57600080fd5b506106a5611da3565b6040516106b29190614d9f565b60405180910390f35b3480156106c757600080fd5b506106d0611dc1565b6040516106dd9190614337565b60405180910390f35b3480156106f257600080fd5b5061070d60048036038101906107089190614dba565b611dce565b60405161071a9190614130565b60405180910390f35b34801561072f57600080fd5b50610738611e62565b60405161074591906142a1565b60405180910390f35b34801561075a57600080fd5b5061077560048036038101906107709190614708565b611e88565b005b34801561078357600080fd5b5061079e60048036038101906107999190614dfa565b611f0e565b6040516107ab9190614337565b60405180910390f35b60006107bf82611f8d565b9050919050565b6060600080546107d590614e69565b80601f016020809104026020016040519081016040528092919081815260200182805461080190614e69565b801561084e5780601f106108235761010080835404028352916020019161084e565b820191906000526020600020905b81548152906001019060200180831161083157829003601f168201915b5050505050905090565b600061086382612007565b5061086d8261208f565b9050919050565b61088682826108816120cc565b6120d4565b5050565b6000600880549050905090565b60006108a1614022565b6108a96120e6565b80604051806101000160405290816000820160009054906101000a900460ff1660028111156108db576108da614352565b5b60028111156108ed576108ec614352565b5b81526020016001820154815260200160028201548152602001600382015481526020016004820154815260200160058201548152602001600682015481526020016007820154815250509050915091509091565b600073ffffffffffffffffffffffffffffffffffffffff168273ffffffffffffffffffffffffffffffffffffffff16036109b35760006040517f64a0ae920000000000000000000000000000000000000000000000000000000081526004016109aa91906142a1565b60405180910390fd5b60006109c783836109c26120cc565b6121d9565b90508373ffffffffffffffffffffffffffffffffffffffff168173ffffffffffffffffffffffffffffffffffffffff1614610a3d578382826040517f64283d7b000000000000000000000000000000000000000000000000000000008152600401610a3493929190614e9a565b60405180910390fd5b50505050565b6000806000600c6000868152602001908152602001600020905060008160000160009054906101000a900473ffffffffffffffffffffffffffffffffffffffff16905060008260000160149054906101000a90046bffffffffffffffffffffffff169050600073ffffffffffffffffffffffffffffffffffffffff168273ffffffffffffffffffffffffffffffffffffffff1603610b2457600b60000160009054906101000a900473ffffffffffffffffffffffffffffffffffffffff169150600b60000160149054906101000a90046bffffffffffffffffffffffff1690505b6000610b2e6121ef565b6bffffffffffffffffffffffff16826bffffffffffffffffffffffff1688610b569190614f00565b610b609190614f71565b9050828195509550505050509250929050565b60128181548110610b8357600080fd5b90600052602060002090600802016000915090508060000160009054906101000a900460ff16908060010154908060020154908060030154908060040154908060050154908060060154908060070154905088565b6000610be3836110ba565b8210610c285782826040517fa57d13dc000000000000000000000000000000000000000000000000000000008152600401610c1f929190614550565b60405180910390fd5b600660008473ffffffffffffffffffffffffffffffffffffffff1673ffffffffffffffffffffffffffffffffffffffff168152602001908152602001600020600083815260200190815260200160002054905092915050565b610c9c83838360405180602001604052806000815250611d6c565b505050565b6000610cab61088a565b8210610cf1576000826040517fa57d13dc000000000000000000000000000000000000000000000000000000008152600401610ce8929190614550565b60405180910390fd5b60088281548110610d0557610d04614fa2565b5b90600052602060002001549050919050565b610d1f6121f9565b838510610d61576040517f08c379a0000000000000000000000000000000000000000000000000000000008152600401610d589061501d565b60405180910390fd5b600280811115610d7457610d73614352565b5b876002811115610d8757610d86614352565b5b14610ddf57600082118015610d9f57506000801b8114155b610dde576040517f08c379a0000000000000000000000000000000000000000000000000000000008152600401610dd590615089565b60405180910390fd5b5b60005b601280549050811015610f3f57600060128281548110610e0557610e04614fa2565b5b9060005260206000209060080201604051806101000160405290816000820160009054906101000a900460ff166002811115610e4457610e43614352565b5b6002811115610e5657610e55614352565b5b8152602001600182015481526020016002820154815260200160038201548152602001600482015481526020016005820154815260200160068201548152602001600782015481525050905060006002811115610eb657610eb5614352565b5b81600001516002811115610ecd57610ecc614352565b5b03610ed85750610f32565b80606001518711158015610ef0575080604001518610155b15610f30576040517f08c379a0000000000000000000000000000000000000000000000000000000008152600401610f27906150f5565b60405180910390fd5b505b8080600101915050610de2565b506012604051806101000160405280896002811115610f6157610f60614352565b5b81526020018881526020018781526020018681526020018581526020018481526020016000815260200183815250908060018154018082558091505060019003906000526020600020906008020160009091909190915060008201518160000160006101000a81548160ff02191690836002811115610fe357610fe2614352565b5b02179055506020820151816001015560408201518160020155606082015181600301556080820151816004015560a0820151816005015560c0820151816006015560e08201518160070155505060016012805490506110429190615115565b7f7673e4939433531841b3ee155cfb41d74036f1741ed20ba7c3ed88d66a2895518888604051611073929190615149565b60405180910390a250505050505050565b600061108f82612007565b9050919050565b7f000000000000000000000000000000000000000000000000000000000000000081565b60008073ffffffffffffffffffffffffffffffffffffffff168273ffffffffffffffffffffffffffffffffffffffff160361112d5760006040517f89c62b6400000000000000000000000000000000000000000000000000000000815260040161112491906142a1565b60405180910390fd5b600360008373ffffffffffffffffffffffffffffffffffffffff1673ffffffffffffffffffffffffffffffffffffffff168152602001908152602001600020549050919050565b61117c6121f9565b6111866000612280565b565b6111906121f9565b60128054905088106111d7576040517f08c379a00000000000000000000000000000000000000000000000000000000081526004016111ce906151be565b60405180910390fd5b838510611219576040517f08c379a00000000000000000000000000000000000000000000000000000000081526004016112109061522a565b60405180910390fd5b60028081111561122c5761122b614352565b5b87600281111561123f5761123e614352565b5b146112cd5760008211611287576040517f08c379a000000000000000000000000000000000000000000000000000000000815260040161127e906152bc565b60405180910390fd5b6000801b81036112cc576040517f08c379a00000000000000000000000000000000000000000000000000000000081526004016112c39061534e565b60405180910390fd5b5b60005b6012805490508110156114355788810315611428576000601282815481106112fb576112fa614fa2565b5b9060005260206000209060080201604051806101000160405290816000820160009054906101000a900460ff16600281111561133a57611339614352565b5b600281111561134c5761134b614352565b5b81526020016001820154815260200160028201548152602001600382015481526020016004820154815260200160058201548152602001600682015481526020016007820154815250509050600060028111156113ac576113ab614352565b5b816000015160028111156113c3576113c2614352565b5b036113ce5750611428565b806060015187111580156113e6575080604001518610155b15611426576040517f08c379a000000000000000000000000000000000000000000000000000000000815260040161141d906153e0565b60405180910390fd5b505b80806001019150506112d0565b50866012898154811061144b5761144a614fa2565b5b906000526020600020906008020160000160006101000a81548160ff0219169083600281111561147e5761147d614352565b5b0217905550856012898154811061149857611497614fa2565b5b90600052602060002090600802016001018190555084601289815481106114c2576114c1614fa2565b5b90600052602060002090600802016002018190555083601289815481106114ec576114eb614fa2565b5b906000526020600020906008020160030181905550826012898154811061151657611515614fa2565b5b90600052602060002090600802016004018190555081601289815481106115405761153f614fa2565b5b906000526020600020906008020160050181905550806012898154811061156a57611569614fa2565b5b906000526020600020906008020160070181905550877ff4d9a8d86574696337b045a92468004b95e2cb5cff95ae009b645780626a50cc88886040516115b1929190615149565b60405180910390a25050505050505050565b6000606080600080600060606115d7612346565b6115df612381565b46306000801b600067ffffffffffffffff811115611600576115ff614bca565b5b60405190808252806020026020018201604052801561162e5781602001602082028036833780820191505090505b507f0f00000000000000000000000000000000000000000000000000000000000000959493929190965096509650965096509650965090919293949596565b6000600d60009054906101000a900473ffffffffffffffffffffffffffffffffffffffff16905090565b6000806116a26120e6565b91509150600160028111156116ba576116b9614352565b5b8160000160009054906101000a900460ff1660028111156116de576116dd614352565b5b0361179957611759848480806020026020016040519081016040528093929190818152602001838360200280828437600081840152601f19601f8201169050808301925050505050505082600701543360405160200161173e9190615448565b604051602081830303815290604052805190602001206123bc565b611798576040517f08c379a000000000000000000000000000000000000000000000000000000000815260040161178f906154af565b60405180910390fd5b5b42610e10886117a891906154cf565b10156117e9576040517f08c379a00000000000000000000000000000000000000000000000000000000081526004016117e09061554f565b60405180910390fd5b6011600089815260200190815260200160002060009054906101000a900460ff161561184a576040517f08c379a0000000000000000000000000000000000000000000000000000000008152600401611841906155bb565b60405180910390fd5b60007fbcd57119bf9b3f112b39ecfb926b57babf8ea759ef8fb8f953ec0103b2a187f3338d8d8d60405161187f92919061560b565b60405180910390208560010154878e8e6040516020016118a6989796959493929190615624565b6040516020818303038152906040528051906020012090507f000000000000000000000000000000000000000000000000000000000000000073ffffffffffffffffffffffffffffffffffffffff1661195488888080601f016020809104026020016040519081016040528093929190818152602001838380828437600081840152601f19601f82011690508083019250505050505050611946846123d3565b6123ed90919063ffffffff16565b73ffffffffffffffffffffffffffffffffffffffff16146119aa576040517f08c379a00000000000000000000000000000000000000000000000000000000081526004016119a1906156ee565b60405180910390fd5b816001015434146119f0576040517f08c379a00000000000000000000000000000000000000000000000000000000081526004016119e79061575a565b60405180910390fd5b816004015482600601541080611a0a575060008260040154145b611a49576040517f08c379a0000000000000000000000000000000000000000000000000000000008152600401611a40906157c6565b60405180910390fd5b8160050154601360003373ffffffffffffffffffffffffffffffffffffffff1673ffffffffffffffffffffffffffffffffffffffff16815260200190815260200160002060008460000160009054906101000a900460ff166002811115611ab357611ab2614352565b5b6002811115611ac557611ac4614352565b5b81526020019081526020016000205410611b14576040517f08c379a0000000000000000000000000000000000000000000000000000000008152600401611b0b90615832565b60405180910390fd5b6001601160008b815260200190815260200160002060006101000a81548160ff021916908315150217905550611b4934612419565b816006016000815480929190611b5e90615852565b9190505550601360003373ffffffffffffffffffffffffffffffffffffffff1673ffffffffffffffffffffffffffffffffffffffff16815260200190815260200160002060008360000160009054906101000a900460ff166002811115611bc857611bc7614352565b5b6002811115611bda57611bd9614352565b5b81526020019081526020016000206000815480929190611bf990615852565b9190505550611c08338d6125fa565b611c568c8c8c8080601f016020809104026020016040519081016040528093929190818152602001838380828437600081840152601f19601f82011690508083019250505050505050612618565b3373ffffffffffffffffffffffffffffffffffffffff168c7f99f38cf3feaad38e0a2e22ef51bdd4faba32b432520a951248d77057596a425a8460000160009054906101000a900460ff16604051611cae919061589a565b60405180910390a3505050505050505050505050565b606060018054611cd390614e69565b80601f0160208091040260200160405190810160405280929190818152602001828054611cff90614e69565b8015611d4c5780601f10611d2157610100808354040283529160200191611d4c565b820191906000526020600020905b815481529060010190602001808311611d2f57829003601f168201915b5050505050905090565b611d68611d616120cc565b8383612674565b5050565b611d77848484610941565b611d8b611d826120cc565b858585856127e3565b50505050565b6060611d9c82612994565b9050919050565b601460009054906101000a90046bffffffffffffffffffffffff1681565b6000601280549050905090565b6000600560008473ffffffffffffffffffffffffffffffffffffffff1673ffffffffffffffffffffffffffffffffffffffff16815260200190815260200160002060008373ffffffffffffffffffffffffffffffffffffffff1673ffffffffffffffffffffffffffffffffffffffff16815260200190815260200160002060009054906101000a900460ff16905092915050565b6014600c9054906101000a900473ffffffffffffffffffffffffffffffffffffffff1681565b611e906121f9565b600073ffffffffffffffffffffffffffffffffffffffff168173ffffffffffffffffffffffffffffffffffffffff1603611f025760006040517f1e4fbdf7000000000000000000000000000000000000000000000000000000008152600401611ef991906142a1565b60405180910390fd5b611f0b81612280565b50565b6000601360008473ffffffffffffffffffffffffffffffffffffffff1673ffffffffffffffffffffffffffffffffffffffff1681526020019081526020016000206000836002811115611f6457611f63614352565b5b6002811115611f7657611f75614352565b5b815260200190815260200160002054905092915050565b60007f2a55205a000000000000000000000000000000000000000000000000000000007bffffffffffffffffffffffffffffffffffffffffffffffffffffffff1916827bffffffffffffffffffffffffffffffffffffffffffffffffffffffff191614806120005750611fff82612aa7565b5b9050919050565b60008061201383612b08565b9050600073ffffffffffffffffffffffffffffffffffffffff168173ffffffffffffffffffffffffffffffffffffffff160361208657826040517f7e27328900000000000000000000000000000000000000000000000000000000815260040161207d9190614337565b60405180910390fd5b80915050919050565b60006004600083815260200190815260200160002060009054906101000a900473ffffffffffffffffffffffffffffffffffffffff169050919050565b600033905090565b6120e18383836001612b45565b505050565b60008060005b6012805490508110156121995760006012828154811061210f5761210e614fa2565b5b906000526020600020906008020190506000600281111561213357612132614352565b5b8160000160009054906101000a900460ff16600281111561215757612156614352565b5b14158015612169575080600201544210155b8015612179575080600301544211155b1561218b5781819350935050506121d5565b5080806001019150506120ec565b506040517f08c379a00000000000000000000000000000000000000000000000000000000081526004016121cc90615901565b60405180910390fd5b9091565b60006121e6848484612d0a565b90509392505050565b6000612710905090565b6122016120cc565b73ffffffffffffffffffffffffffffffffffffffff1661221f61166d565b73ffffffffffffffffffffffffffffffffffffffff161461227e576122426120cc565b6040517f118cdaa700000000000000000000000000000000000000000000000000000000815260040161227591906142a1565b60405180910390fd5b565b6000600d60009054906101000a900473ffffffffffffffffffffffffffffffffffffffff16905081600d60006101000a81548173ffffffffffffffffffffffffffffffffffffffff021916908373ffffffffffffffffffffffffffffffffffffffff1602179055508173ffffffffffffffffffffffffffffffffffffffff168173ffffffffffffffffffffffffffffffffffffffff167f8be0079c531659141344cd1fd0a4f28419497f9722a3daafe3b4186f6b6457e060405160405180910390a35050565b606061237c600e7f0000000000000000000000000000000000000000000000000000000000000000612e2790919063ffffffff16565b905090565b60606123b7600f7f0000000000000000000000000000000000000000000000000000000000000000612e2790919063ffffffff16565b905090565b6000826123c98584612ed7565b1490509392505050565b60006123e66123e0612f27565b83612fde565b9050919050565b6000806000806123fd868661301f565b92509250925061240d828261307b565b82935050505092915050565b6000612710601460009054906101000a90046bffffffffffffffffffffffff166bffffffffffffffffffffffff16836124529190614f00565b61245c9190614f71565b905060008111156125375760006014600c9054906101000a900473ffffffffffffffffffffffffffffffffffffffff1673ffffffffffffffffffffffffffffffffffffffff16826040516124af90615947565b60006040518083038185875af1925050503d80600081146124ec576040519150601f19603f3d011682016040523d82523d6000602084013e6124f1565b606091505b5050905080612535576040517f08c379a000000000000000000000000000000000000000000000000000000000815260040161252c906159a8565b60405180910390fd5b505b600061254161166d565b73ffffffffffffffffffffffffffffffffffffffff1682846125639190615115565b60405161256f90615947565b60006040518083038185875af1925050503d80600081146125ac576040519150601f19603f3d011682016040523d82523d6000602084013e6125b1565b606091505b50509050806125f5576040517f08c379a00000000000000000000000000000000000000000000000000000000081526004016125ec90615a14565b60405180910390fd5b505050565b6126148282604051806020016040528060008152506131df565b5050565b80600a600084815260200190815260200160002090816126389190615be0565b507ff8e1a15aba9398e019f0b49df1a4fde98ee17ae345cb5f6b5e2c27f5033e8ce7826040516126689190614337565b60405180910390a15050565b600073ffffffffffffffffffffffffffffffffffffffff168273ffffffffffffffffffffffffffffffffffffffff16036126e557816040517f5b08ba180000000000000000000000000000000000000000000000000000000081526004016126dc91906142a1565b60405180910390fd5b80600560008573ffffffffffffffffffffffffffffffffffffffff1673ffffffffffffffffffffffffffffffffffffffff16815260200190815260200160002060008473ffffffffffffffffffffffffffffffffffffffff1673ffffffffffffffffffffffffffffffffffffffff16815260200190815260200160002060006101000a81548160ff0219169083151502179055508173ffffffffffffffffffffffffffffffffffffffff168373ffffffffffffffffffffffffffffffffffffffff167f17307eab39ab6107e8899845ad3d59bd9653f200f220920489ca2b5937696c31836040516127d69190614130565b60405180910390a3505050565b60008373ffffffffffffffffffffffffffffffffffffffff163b111561298d578273ffffffffffffffffffffffffffffffffffffffff1663150b7a02868685856040518563ffffffff1660e01b81526004016128429493929190615d07565b6020604051808303816000875af192505050801561287e57506040513d601f19601f8201168201806040525081019061287b9190615d68565b60015b612902573d80600081146128ae576040519150601f19603f3d011682016040523d82523d6000602084013e6128b3565b606091505b5060008151036128fa57836040517f64a0ae920000000000000000000000000000000000000000000000000000000081526004016128f191906142a1565b60405180910390fd5b805181602001fd5b63150b7a0260e01b7bffffffffffffffffffffffffffffffffffffffffffffffffffffffff1916817bffffffffffffffffffffffffffffffffffffffffffffffffffffffff19161461298b57836040517f64a0ae9200000000000000000000000000000000000000000000000000000000815260040161298291906142a1565b60405180910390fd5b505b5050505050565b606061299f82612007565b506000600a600084815260200190815260200160002080546129c090614e69565b80601f01602080910402602001604051908101604052809291908181526020018280546129ec90614e69565b8015612a395780601f10612a0e57610100808354040283529160200191612a39565b820191906000526020600020905b815481529060010190602001808311612a1c57829003601f168201915b505050505090506000612a4a613203565b90506000815103612a5f578192505050612aa2565b600082511115612a94578082604051602001612a7c929190615dd1565b60405160208183030381529060405292505050612aa2565b612a9d8461321a565b925050505b919050565b6000634906490660e01b7bffffffffffffffffffffffffffffffffffffffffffffffffffffffff1916827bffffffffffffffffffffffffffffffffffffffffffffffffffffffff19161480612b015750612b0082613283565b5b9050919050565b60006002600083815260200190815260200160002060009054906101000a900473ffffffffffffffffffffffffffffffffffffffff169050919050565b8080612b7e5750600073ffffffffffffffffffffffffffffffffffffffff168273ffffffffffffffffffffffffffffffffffffffff1614155b15612cb2576000612b8e84612007565b9050600073ffffffffffffffffffffffffffffffffffffffff168373ffffffffffffffffffffffffffffffffffffffff1614158015612bf957508273ffffffffffffffffffffffffffffffffffffffff168173ffffffffffffffffffffffffffffffffffffffff1614155b8015612c0c5750612c0a8184611dce565b155b15612c4e57826040517fa9fbf51f000000000000000000000000000000000000000000000000000000008152600401612c4591906142a1565b60405180910390fd5b8115612cb057838573ffffffffffffffffffffffffffffffffffffffff168273ffffffffffffffffffffffffffffffffffffffff167f8c5be1e5ebec7d5bd14f71427d1e84f3dd0314c0f7b2291e5b200ac8c7c3b92560405160405180910390a45b505b836004600085815260200190815260200160002060006101000a81548173ffffffffffffffffffffffffffffffffffffffff021916908373ffffffffffffffffffffffffffffffffffffffff16021790555050505050565b600080612d188585856132fd565b9050600073ffffffffffffffffffffffffffffffffffffffff168173ffffffffffffffffffffffffffffffffffffffff1603612d5c57612d5784613517565b612d9b565b8473ffffffffffffffffffffffffffffffffffffffff168173ffffffffffffffffffffffffffffffffffffffff1614612d9a57612d998185613560565b5b5b600073ffffffffffffffffffffffffffffffffffffffff168573ffffffffffffffffffffffffffffffffffffffff1603612ddd57612dd88461364b565b612e1c565b8473ffffffffffffffffffffffffffffffffffffffff168173ffffffffffffffffffffffffffffffffffffffff1614612e1b57612e1a858561371c565b5b5b809150509392505050565b606060ff60001b8314612e4457612e3d836137a7565b9050612ed1565b818054612e5090614e69565b80601f0160208091040260200160405190810160405280929190818152602001828054612e7c90614e69565b8015612ec95780601f10612e9e57610100808354040283529160200191612ec9565b820191906000526020600020905b815481529060010190602001808311612eac57829003601f168201915b505050505090505b92915050565b60008082905060005b8451811015612f1c57612f0d82868381518110612f0057612eff614fa2565b5b602002602001015161381b565b91508080600101915050612ee0565b508091505092915050565b60007f000000000000000000000000000000000000000000000000000000000000000073ffffffffffffffffffffffffffffffffffffffff163073ffffffffffffffffffffffffffffffffffffffff16148015612fa357507f000000000000000000000000000000000000000000000000000000000000000046145b15612fd0577f00000000000000000000000000000000000000000000000000000000000000009050612fdb565b612fd8613846565b90505b90565b60006040517f190100000000000000000000000000000000000000000000000000000000000081528360028201528260228201526042812091505092915050565b600080600060418451036130645760008060006020870151925060408701519150606087015160001a9050613056888285856138dc565b955095509550505050613074565b60006002855160001b9250925092505b9250925092565b6000600381111561308f5761308e614352565b5b8260038111156130a2576130a1614352565b5b03156131db57600160038111156130bc576130bb614352565b5b8260038111156130cf576130ce614352565b5b03613106576040517ff645eedf00000000000000000000000000000000000000000000000000000000815260040160405180910390fd5b6002600381111561311a57613119614352565b5b82600381111561312d5761312c614352565b5b03613172578060001c6040517ffce698f70000000000000000000000000000000000000000000000000000000081526004016131699190614337565b60405180910390fd5b60038081111561318557613184614352565b5b82600381111561319857613197614352565b5b036131da57806040517fd78bce0c0000000000000000000000000000000000000000000000000000000081526004016131d19190615df5565b60405180910390fd5b5b5050565b6131e983836139d0565b6131fe6131f46120cc565b60008585856127e3565b505050565b606060405180602001604052806000815250905090565b606061322582612007565b506000613230613203565b90506000815111613250576040518060200160405280600081525061327b565b8061325a84613ac9565b60405160200161326b929190615dd1565b6040516020818303038152906040525b915050919050565b60007f780e9d63000000000000000000000000000000000000000000000000000000007bffffffffffffffffffffffffffffffffffffffffffffffffffffffff1916827bffffffffffffffffffffffffffffffffffffffffffffffffffffffff191614806132f657506132f582613b97565b5b9050919050565b60008061330984612b08565b9050600073ffffffffffffffffffffffffffffffffffffffff168373ffffffffffffffffffffffffffffffffffffffff161461334b5761334a818486613c79565b5b600073ffffffffffffffffffffffffffffffffffffffff168173ffffffffffffffffffffffffffffffffffffffff16146133dc5761338d600085600080612b45565b6001600360008373ffffffffffffffffffffffffffffffffffffffff1673ffffffffffffffffffffffffffffffffffffffff168152602001908152602001600020600082825403925050819055505b600073ffffffffffffffffffffffffffffffffffffffff168573ffffffffffffffffffffffffffffffffffffffff161461345f576001600360008773ffffffffffffffffffffffffffffffffffffffff1673ffffffffffffffffffffffffffffffffffffffff168152602001908152602001600020600082825401925050819055505b846002600086815260200190815260200160002060006101000a81548173ffffffffffffffffffffffffffffffffffffffff021916908373ffffffffffffffffffffffffffffffffffffffff160217905550838573ffffffffffffffffffffffffffffffffffffffff168273ffffffffffffffffffffffffffffffffffffffff167fddf252ad1be2c89b69c2b068fc378daa952ba7f163c4a11628f55a4df523b3ef60405160405180910390a4809150509392505050565b6008805490506009600083815260200190815260200160002081905550600881908060018154018082558091505060019003906000526020600020016000909190919091505550565b600061356b836110ba565b90506000600760008481526020019081526020016000205490506000600660008673ffffffffffffffffffffffffffffffffffffffff1673ffffffffffffffffffffffffffffffffffffffff16815260200190815260200160002090508282146136175760008160008581526020019081526020016000205490508082600085815260200190815260200160002081905550826007600083815260200190815260200160002081905550505b6007600085815260200190815260200160002060009055806000848152602001908152602001600020600090555050505050565b6000600160088054905061365f9190615115565b905060006009600084815260200190815260200160002054905060006008838154811061368f5761368e614fa2565b5b9060005260206000200154905080600883815481106136b1576136b0614fa2565b5b906000526020600020018190555081600960008381526020019081526020016000208190555060096000858152602001908152602001600020600090556008805480613700576136ff615e10565b5b6001900381819060005260206000200160009055905550505050565b60006001613729846110ba565b6137339190615115565b905081600660008573ffffffffffffffffffffffffffffffffffffffff1673ffffffffffffffffffffffffffffffffffffffff168152602001908152602001600020600083815260200190815260200160002081905550806007600084815260200190815260200160002081905550505050565b606060006137b483613d3d565b90506000602067ffffffffffffffff8111156137d3576137d2614bca565b5b6040519080825280601f01601f1916602001820160405280156138055781602001600182028036833780820191505090505b5090508181528360208201528092505050919050565b60008183106138335761382e8284613d8d565b61383e565b61383d8383613d8d565b5b905092915050565b60007f8b73c3c69bb8fe3d512ecc4cf759cc79239f7b179b0ffacaa9a75d522b39400f7f00000000000000000000000000000000000000000000000000000000000000007f000000000000000000000000000000000000000000000000000000000000000046306040516020016138c1959493929190615e3f565b60405160208183030381529060405280519060200120905090565b60008060007f7fffffffffffffffffffffffffffffff5d576e7357a4501ddfe92f46681b20a08460001c111561391c5760006003859250925092506139c6565b6000600188888888604051600081526020016040526040516139419493929190615eae565b6020604051602081039080840390855afa158015613963573d6000803e3d6000fd5b505050602060405103519050600073ffffffffffffffffffffffffffffffffffffffff168173ffffffffffffffffffffffffffffffffffffffff16036139b757600060016000801b935093509350506139c6565b8060008060001b935093509350505b9450945094915050565b600073ffffffffffffffffffffffffffffffffffffffff168273ffffffffffffffffffffffffffffffffffffffff1603613a425760006040517f64a0ae92000000000000000000000000000000000000000000000000000000008152600401613a3991906142a1565b60405180910390fd5b6000613a50838360006121d9565b9050600073ffffffffffffffffffffffffffffffffffffffff168173ffffffffffffffffffffffffffffffffffffffff1614613ac45760006040517f73c6ac6e000000000000000000000000000000000000000000000000000000008152600401613abb91906142a1565b60405180910390fd5b505050565b606060006001613ad884613da4565b01905060008167ffffffffffffffff811115613af757613af6614bca565b5b6040519080825280601f01601f191660200182016040528015613b295781602001600182028036833780820191505090505b509050600082602001820190505b600115613b8c578080600190039150507f3031323334353637383961626364656600000000000000000000000000000000600a86061a8153600a8581613b8057613b7f614f42565b5b04945060008503613b37575b819350505050919050565b60007f80ac58cd000000000000000000000000000000000000000000000000000000007bffffffffffffffffffffffffffffffffffffffffffffffffffffffff1916827bffffffffffffffffffffffffffffffffffffffffffffffffffffffff19161480613c6257507f5b5e139f000000000000000000000000000000000000000000000000000000007bffffffffffffffffffffffffffffffffffffffffffffffffffffffff1916827bffffffffffffffffffffffffffffffffffffffffffffffffffffffff1916145b80613c725750613c7182613ef7565b5b9050919050565b613c84838383613f61565b613d3857600073ffffffffffffffffffffffffffffffffffffffff168373ffffffffffffffffffffffffffffffffffffffff1603613cf957806040517f7e273289000000000000000000000000000000000000000000000000000000008152600401613cf09190614337565b60405180910390fd5b81816040517f177e802f000000000000000000000000000000000000000000000000000000008152600401613d2f929190614550565b60405180910390fd5b505050565b60008060ff8360001c169050601f811115613d84576040517fb3512b0c00000000000000000000000000000000000000000000000000000000815260040160405180910390fd5b80915050919050565b600082600052816020526040600020905092915050565b600080600090507a184f03e93ff9f4daa797ed6e38ed64bf6a1f0100000000000000008310613e02577a184f03e93ff9f4daa797ed6e38ed64bf6a1f0100000000000000008381613df857613df7614f42565b5b0492506040810190505b6d04ee2d6d415b85acef81000000008310613e3f576d04ee2d6d415b85acef81000000008381613e3557613e34614f42565b5b0492506020810190505b662386f26fc100008310613e6e57662386f26fc100008381613e6457613e63614f42565b5b0492506010810190505b6305f5e1008310613e97576305f5e1008381613e8d57613e8c614f42565b5b0492506008810190505b6127108310613ebc576127108381613eb257613eb1614f42565b5b0492506004810190505b60648310613edf5760648381613ed557613ed4614f42565b5b0492506002810190505b600a8310613eee576001810190505b80915050919050565b60007f01ffc9a7000000000000000000000000000000000000000000000000000000007bffffffffffffffffffffffffffffffffffffffffffffffffffffffff1916827bffffffffffffffffffffffffffffffffffffffffffffffffffffffff1916149050919050565b60008073ffffffffffffffffffffffffffffffffffffffff168373ffffffffffffffffffffffffffffffffffffffff161415801561401957508273ffffffffffffffffffffffffffffffffffffffff168473ffffffffffffffffffffffffffffffffffffffff161480613fda5750613fd98484611dce565b5b8061401857508273ffffffffffffffffffffffffffffffffffffffff166140008361208f565b73ffffffffffffffffffffffffffffffffffffffff16145b5b90509392505050565b6040518061010001604052806000600281111561404257614041614352565b5b8152602001600081526020016000815260200160008152602001600081526020016000815260200160008152602001600080191681525090565b6000604051905090565b600080fd5b600080fd5b60007fffffffff0000000000000000000000000000000000000000000000000000000082169050919050565b6140c581614090565b81146140d057600080fd5b50565b6000813590506140e2816140bc565b92915050565b6000602082840312156140fe576140fd614086565b5b600061410c848285016140d3565b91505092915050565b60008115159050919050565b61412a81614115565b82525050565b60006020820190506141456000830184614121565b92915050565b600081519050919050565b600082825260208201905092915050565b60005b8381101561418557808201518184015260208101905061416a565b60008484015250505050565b6000601f19601f8301169050919050565b60006141ad8261414b565b6141b78185614156565b93506141c7818560208601614167565b6141d081614191565b840191505092915050565b600060208201905081810360008301526141f581846141a2565b905092915050565b6000819050919050565b614210816141fd565b811461421b57600080fd5b50565b60008135905061422d81614207565b92915050565b60006020828403121561424957614248614086565b5b60006142578482850161421e565b91505092915050565b600073ffffffffffffffffffffffffffffffffffffffff82169050919050565b600061428b82614260565b9050919050565b61429b81614280565b82525050565b60006020820190506142b66000830184614292565b92915050565b6142c581614280565b81146142d057600080fd5b50565b6000813590506142e2816142bc565b92915050565b600080604083850312156142ff576142fe614086565b5b600061430d858286016142d3565b925050602061431e8582860161421e565b9150509250929050565b614331816141fd565b82525050565b600060208201905061434c6000830184614328565b92915050565b7f4e487b7100000000000000000000000000000000000000000000000000000000600052602160045260246000fd5b6003811061439257614391614352565b5b50565b60008190506143a382614381565b919050565b60006143b382614395565b9050919050565b6143c3816143a8565b82525050565b6143d2816141fd565b82525050565b6000819050919050565b6143eb816143d8565b82525050565b6101008201600082015161440860008501826143ba565b50602082015161441b60208501826143c9565b50604082015161442e60408501826143c9565b50606082015161444160608501826143c9565b50608082015161445460808501826143c9565b5060a082015161446760a08501826143c9565b5060c082015161447a60c08501826143c9565b5060e082015161448d60e08501826143e2565b50505050565b6000610120820190506144a96000830185614328565b6144b660208301846143f1565b9392505050565b6000806000606084860312156144d6576144d5614086565b5b60006144e4868287016142d3565b93505060206144f5868287016142d3565b92505060406145068682870161421e565b9150509250925092565b6000806040838503121561452757614526614086565b5b60006145358582860161421e565b92505060206145468582860161421e565b9150509250929050565b60006040820190506145656000830185614292565b6145726020830184614328565b9392505050565b614582816143a8565b82525050565b614591816143d8565b82525050565b6000610100820190506145ad600083018b614579565b6145ba602083018a614328565b6145c76040830189614328565b6145d46060830188614328565b6145e16080830187614328565b6145ee60a0830186614328565b6145fb60c0830185614328565b61460860e0830184614588565b9998505050505050505050565b6003811061462257600080fd5b50565b60008135905061463481614615565b92915050565b614643816143d8565b811461464e57600080fd5b50565b6000813590506146608161463a565b92915050565b600080600080600080600060e0888a03121561468557614684614086565b5b60006146938a828b01614625565b97505060206146a48a828b0161421e565b96505060406146b58a828b0161421e565b95505060606146c68a828b0161421e565b94505060806146d78a828b0161421e565b93505060a06146e88a828b0161421e565b92505060c06146f98a828b01614651565b91505092959891949750929550565b60006020828403121561471e5761471d614086565b5b600061472c848285016142d3565b91505092915050565b600080600080600080600080610100898b03121561475657614755614086565b5b60006147648b828c0161421e565b98505060206147758b828c01614625565b97505060406147868b828c0161421e565b96505060606147978b828c0161421e565b95505060806147a88b828c0161421e565b94505060a06147b98b828c0161421e565b93505060c06147ca8b828c0161421e565b92505060e06147db8b828c01614651565b9150509295985092959890939650565b60007fff0000000000000000000000000000000000000000000000000000000000000082169050919050565b614820816147eb565b82525050565b600081519050919050565b600082825260208201905092915050565b6000819050602082019050919050565b600061485e83836143c9565b60208301905092915050565b6000602082019050919050565b600061488282614826565b61488c8185614831565b935061489783614842565b8060005b838110156148c85781516148af8882614852565b97506148ba8361486a565b92505060018101905061489b565b5085935050505092915050565b600060e0820190506148ea600083018a614817565b81810360208301526148fc81896141a2565b9050818103604083015261491081886141a2565b905061491f6060830187614328565b61492c6080830186614292565b61493960a0830185614588565b81810360c083015261494b8184614877565b905098975050505050505050565b600080fd5b600080fd5b600080fd5b60008083601f84011261497e5761497d614959565b5b8235905067ffffffffffffffff81111561499b5761499a61495e565b5b6020830191508360018202830111156149b7576149b6614963565b5b9250929050565b60008083601f8401126149d4576149d3614959565b5b8235905067ffffffffffffffff8111156149f1576149f061495e565b5b602083019150836001820283011115614a0d57614a0c614963565b5b9250929050565b60008083601f840112614a2a57614a29614959565b5b8235905067ffffffffffffffff811115614a4757614a4661495e565b5b602083019150836020820283011115614a6357614a62614963565b5b9250929050565b600080600080600080600080600060c08a8c031215614a8c57614a8b614086565b5b6000614a9a8c828d0161421e565b99505060208a013567ffffffffffffffff811115614abb57614aba61408b565b5b614ac78c828d01614968565b98509850506040614ada8c828d01614651565b9650506060614aeb8c828d0161421e565b95505060808a013567ffffffffffffffff811115614b0c57614b0b61408b565b5b614b188c828d016149be565b945094505060a08a013567ffffffffffffffff811115614b3b57614b3a61408b565b5b614b478c828d01614a14565b92509250509295985092959850929598565b614b6281614115565b8114614b6d57600080fd5b50565b600081359050614b7f81614b59565b92915050565b60008060408385031215614b9c57614b9b614086565b5b6000614baa858286016142d3565b9250506020614bbb85828601614b70565b9150509250929050565b600080fd5b7f4e487b7100000000000000000000000000000000000000000000000000000000600052604160045260246000fd5b614c0282614191565b810181811067ffffffffffffffff82111715614c2157614c20614bca565b5b80604052505050565b6000614c3461407c565b9050614c408282614bf9565b919050565b600067ffffffffffffffff821115614c6057614c5f614bca565b5b614c6982614191565b9050602081019050919050565b82818337600083830152505050565b6000614c98614c9384614c45565b614c2a565b905082815260208101848484011115614cb457614cb3614bc5565b5b614cbf848285614c76565b509392505050565b600082601f830112614cdc57614cdb614959565b5b8135614cec848260208601614c85565b91505092915050565b60008060008060808587031215614d0f57614d0e614086565b5b6000614d1d878288016142d3565b9450506020614d2e878288016142d3565b9350506040614d3f8782880161421e565b925050606085013567ffffffffffffffff811115614d6057614d5f61408b565b5b614d6c87828801614cc7565b91505092959194509250565b60006bffffffffffffffffffffffff82169050919050565b614d9981614d78565b82525050565b6000602082019050614db46000830184614d90565b92915050565b60008060408385031215614dd157614dd0614086565b5b6000614ddf858286016142d3565b9250506020614df0858286016142d3565b9150509250929050565b60008060408385031215614e1157614e10614086565b5b6000614e1f858286016142d3565b9250506020614e3085828601614625565b9150509250929050565b7f4e487b7100000000000000000000000000000000000000000000000000000000600052602260045260246000fd5b60006002820490506001821680614e8157607f821691505b602082108103614e9457614e93614e3a565b5b50919050565b6000606082019050614eaf6000830186614292565b614ebc6020830185614328565b614ec96040830184614292565b949350505050565b7f4e487b7100000000000000000000000000000000000000000000000000000000600052601160045260246000fd5b6000614f0b826141fd565b9150614f16836141fd565b9250828202614f24816141fd565b91508282048414831517614f3b57614f3a614ed1565b5b5092915050565b7f4e487b7100000000000000000000000000000000000000000000000000000000600052601260045260246000fd5b6000614f7c826141fd565b9150614f87836141fd565b925082614f9757614f96614f42565b5b828204905092915050565b7f4e487b7100000000000000000000000000000000000000000000000000000000600052603260045260246000fd5b7f496e76616c69642074696d650000000000000000000000000000000000000000600082015250565b6000615007600c83614156565b915061501282614fd1565b602082019050919050565b6000602082019050818103600083015261503681614ffa565b9050919050565b7f496e76616c696420706172616d73000000000000000000000000000000000000600082015250565b6000615073600e83614156565b915061507e8261503d565b602082019050919050565b600060208201905081810360008301526150a281615066565b9050919050565b7f4f7665726c617000000000000000000000000000000000000000000000000000600082015250565b60006150df600783614156565b91506150ea826150a9565b602082019050919050565b6000602082019050818103600083015261510e816150d2565b9050919050565b6000615120826141fd565b915061512b836141fd565b925082820390508181111561514357615142614ed1565b5b92915050565b600060408201905061515e6000830185614579565b61516b6020830184614328565b9392505050565b7f496e76616c696420706861736520696e64657800000000000000000000000000600082015250565b60006151a8601383614156565b91506151b382615172565b602082019050919050565b600060208201905081810360008301526151d78161519b565b9050919050565b7f496e76616c69642074696d652072616e67650000000000000000000000000000600082015250565b6000615214601283614156565b915061521f826151de565b602082019050919050565b6000602082019050818103600083015261524381615207565b9050919050565b7f496e76616c6964206d6178207065722077616c6c657420666f72206e6f6e2d7060008201527f75626c6963207068617365000000000000000000000000000000000000000000602082015250565b60006152a6602b83614156565b91506152b18261524a565b604082019050919050565b600060208201905081810360008301526152d581615299565b9050919050565b7f4d65726b6c6520726f6f7420726571756972656420666f722077686974656c6960008201527f7374207068617365000000000000000000000000000000000000000000000000602082015250565b6000615338602883614156565b9150615343826152dc565b604082019050919050565b600060208201905081810360008301526153678161532b565b9050919050565b7f50686173652074696d65206f7665726c6170732077697468206578697374696e60008201527f6720706861736500000000000000000000000000000000000000000000000000602082015250565b60006153ca602783614156565b91506153d58261536e565b604082019050919050565b600060208201905081810360008301526153f9816153bd565b9050919050565b60008160601b9050919050565b600061541882615400565b9050919050565b600061542a8261540d565b9050919050565b61544261543d82614280565b61541f565b82525050565b60006154548284615431565b60148201915081905092915050565b7f4e6f742077686974656c69737465640000000000000000000000000000000000600082015250565b6000615499600f83614156565b91506154a482615463565b602082019050919050565b600060208201905081810360008301526154c88161548c565b9050919050565b60006154da826141fd565b91506154e5836141fd565b92508282019050808211156154fd576154fc614ed1565b5b92915050565b7f5369676e61747572652065787069726564000000000000000000000000000000600082015250565b6000615539601183614156565b915061554482615503565b602082019050919050565b600060208201905081810360008301526155688161552c565b9050919050565b7f556e697175654964207573656400000000000000000000000000000000000000600082015250565b60006155a5600d83614156565b91506155b08261556f565b602082019050919050565b600060208201905081810360008301526155d481615598565b9050919050565b600081905092915050565b60006155f283856155db565b93506155ff838584614c76565b82840190509392505050565b60006156188284866155e6565b91508190509392505050565b60006101008201905061563a600083018b614588565b615647602083018a614292565b6156546040830189614328565b6156616060830188614588565b61566e6080830187614328565b61567b60a0830186614328565b61568860c0830185614588565b61569560e0830184614328565b9998505050505050505050565b7f496e76616c6964207369676e6174757265000000000000000000000000000000600082015250565b60006156d8601183614156565b91506156e3826156a2565b602082019050919050565b60006020820190508181036000830152615707816156cb565b9050919050565b7f496e636f72726563742045544800000000000000000000000000000000000000600082015250565b6000615744600d83614156565b915061574f8261570e565b602082019050919050565b6000602082019050818103600083015261577381615737565b9050919050565b7f506861736520737570706c792065786365656465640000000000000000000000600082015250565b60006157b0601583614156565b91506157bb8261577a565b602082019050919050565b600060208201905081810360008301526157df816157a3565b9050919050565b7f57616c6c6574206c696d69740000000000000000000000000000000000000000600082015250565b600061581c600c83614156565b9150615827826157e6565b602082019050919050565b6000602082019050818103600083015261584b8161580f565b9050919050565b600061585d826141fd565b91507fffffffffffffffffffffffffffffffffffffffffffffffffffffffffffffffff820361588f5761588e614ed1565b5b600182019050919050565b60006020820190506158af6000830184614579565b92915050565b7f4e6f206163746976652070686173650000000000000000000000000000000000600082015250565b60006158eb600f83614156565b91506158f6826158b5565b602082019050919050565b6000602082019050818103600083015261591a816158de565b9050919050565b50565b60006159316000836155db565b915061593c82615921565b600082019050919050565b600061595282615924565b9150819050919050565b7f506c6174666f726d20666565206661696c656400000000000000000000000000600082015250565b6000615992601383614156565b915061599d8261595c565b602082019050919050565b600060208201905081810360008301526159c181615985565b9050919050565b7f4f776e6572207472616e73666572206661696c65640000000000000000000000600082015250565b60006159fe601583614156565b9150615a09826159c8565b602082019050919050565b60006020820190508181036000830152615a2d816159f1565b9050919050565b60008190508160005260206000209050919050565b60006020601f8301049050919050565b600082821b905092915050565b600060088302615a967fffffffffffffffffffffffffffffffffffffffffffffffffffffffffffffffff82615a59565b615aa08683615a59565b95508019841693508086168417925050509392505050565b6000819050919050565b6000615add615ad8615ad3846141fd565b615ab8565b6141fd565b9050919050565b6000819050919050565b615af783615ac2565b615b0b615b0382615ae4565b848454615a66565b825550505050565b600090565b615b20615b13565b615b2b818484615aee565b505050565b5b81811015615b4f57615b44600082615b18565b600181019050615b31565b5050565b601f821115615b9457615b6581615a34565b615b6e84615a49565b81016020851015615b7d578190505b615b91615b8985615a49565b830182615b30565b50505b505050565b600082821c905092915050565b6000615bb760001984600802615b99565b1980831691505092915050565b6000615bd08383615ba6565b9150826002028217905092915050565b615be98261414b565b67ffffffffffffffff811115615c0257615c01614bca565b5b615c0c8254614e69565b615c17828285615b53565b600060209050601f831160018114615c4a5760008415615c38578287015190505b615c428582615bc4565b865550615caa565b601f198416615c5886615a34565b60005b82811015615c8057848901518255600182019150602085019450602081019050615c5b565b86831015615c9d5784890151615c99601f891682615ba6565b8355505b6001600288020188555050505b505050505050565b600081519050919050565b600082825260208201905092915050565b6000615cd982615cb2565b615ce38185615cbd565b9350615cf3818560208601614167565b615cfc81614191565b840191505092915050565b6000608082019050615d1c6000830187614292565b615d296020830186614292565b615d366040830185614328565b8181036060830152615d488184615cce565b905095945050505050565b600081519050615d62816140bc565b92915050565b600060208284031215615d7e57615d7d614086565b5b6000615d8c84828501615d53565b91505092915050565b600081905092915050565b6000615dab8261414b565b615db58185615d95565b9350615dc5818560208601614167565b80840191505092915050565b6000615ddd8285615da0565b9150615de98284615da0565b91508190509392505050565b6000602082019050615e0a6000830184614588565b92915050565b7f4e487b7100000000000000000000000000000000000000000000000000000000600052603160045260246000fd5b600060a082019050615e546000830188614588565b615e616020830187614588565b615e6e6040830186614588565b615e7b6060830185614328565b615e886080830184614292565b9695505050505050565b600060ff82169050919050565b615ea881615e92565b82525050565b6000608082019050615ec36000830187614588565b615ed06020830186615e9f565b615edd6040830185614588565b615eea6060830184614588565b9594505050505056fea264697066735822122022d2ac9c4015773651995cdeec4757a21979c7d520ad04753468495735af7e9b64736f6c634300081b0033",
  "linkReferences": {},
  "deployedLinkReferences": {}
}