{
  "_format": "hh-sol-artifact-1",
  "contractName": "SignatureVerifier",
  "sourceName": "src/blockchain/evm/contracts/SignatureVerifier.sol",
  "abi": [
    {
      "inputs": [
        {
          "internalType": "address",
          "name": "initialOwner",
          "type": "address"
        },
        {
          "internalType": "address",
          "name": "_backendSigner",
          "type": "address"
        }
      ],
      "stateMutability": "nonpayable",
      "type": "constructor"
    },
    {
      "inputs": [],
      "name": "ECDSAInvalidSignature",
      "type": "error"
    },
    {
      "inputs": [
        {
          "internalType": "uint256",
          "name": "length",
          "type": "uint256"
        }
      ],
      "name": "ECDSAInvalidSignatureLength",
      "type": "error"
    },
    {
      "inputs": [
        {
          "internalType": "bytes32",
          "name": "s",
          "type": "bytes32"
        }
      ],
      "name": "ECDSAInvalidSignatureS",
      "type": "error"
    },
    {
      "inputs": [],
      "name": "InvalidShortString",
      "type": "error"
    },
    {
      "inputs": [
        {
          "internalType": "address",
          "name": "owner",
          "type": "address"
        }
      ],
      "name": "OwnableInvalidOwner",
      "type": "error"
    },
    {
      "inputs": [
        {
          "internalType": "address",
          "name": "account",
          "type": "address"
        }
      ],
      "name": "OwnableUnauthorizedAccount",
      "type": "error"
    },
    {
      "inputs": [
        {
          "internalType": "string",
          "name": "str",
          "type": "string"
        }
      ],
      "name": "StringTooLong",
      "type": "error"
    },
    {
      "anonymous": false,
      "inputs": [],
      "name": "EIP712DomainChanged",
      "type": "event"
    },
    {
      "anonymous": false,
      "inputs": [
        {
          "indexed": true,
          "internalType": "address",
          "name": "previousOwner",
          "type": "address"
        },
        {
          "indexed": true,
          "internalType": "address",
          "name": "newOwner",
          "type": "address"
        }
      ],
      "name": "OwnershipTransferred",
      "type": "event"
    },
    {
      "inputs": [],
      "name": "backendSigner",
      "outputs": [
        {
          "internalType": "address",
          "name": "",
          "type": "address"
        }
      ],
      "stateMutability": "view",
      "type": "function"
    },
    {
      "inputs": [],
      "name": "eip712Domain",
      "outputs": [
        {
          "internalType": "bytes1",
          "name": "fields",
          "type": "bytes1"
        },
        {
          "internalType": "string",
          "name": "name",
          "type": "string"
        },
        {
          "internalType": "string",
          "name": "version",
          "type": "string"
        },
        {
          "internalType": "uint256",
          "name": "chainId",
          "type": "uint256"
        },
        {
          "internalType": "address",
          "name": "verifyingContract",
          "type": "address"
        },
        {
          "internalType": "bytes32",
          "name": "salt",
          "type": "bytes32"
        },
        {
          "internalType": "uint256[]",
          "name": "extensions",
          "type": "uint256[]"
        }
      ],
      "stateMutability": "view",
      "type": "function"
    },
    {
      "inputs": [],
      "name": "getDomainSeparator",
      "outputs": [
        {
          "internalType": "bytes32",
          "name": "",
          "type": "bytes32"
        }
      ],
      "stateMutability": "view",
      "type": "function"
    },
    {
      "inputs": [
        {
          "internalType": "bytes32",
          "name": "uniqueId",
          "type": "bytes32"
        }
      ],
      "name": "isUniqueIdUsed",
      "outputs": [
        {
          "internalType": "bool",
          "name": "",
          "type": "bool"
        }
      ],
      "stateMutability": "view",
      "type": "function"
    },
    {
      "inputs": [
        {
          "internalType": "bytes32",
          "name": "uniqueId",
          "type": "bytes32"
        }
      ],
      "name": "markUniqueIdAsUsed",
      "outputs": [],
      "stateMutability": "nonpayable",
      "type": "function"
    },
    {
      "inputs": [],
      "name": "owner",
      "outputs": [
        {
          "internalType": "address",
          "name": "",
          "type": "address"
        }
      ],
      "stateMutability": "view",
      "type": "function"
    },
    {
      "inputs": [],
      "name": "renounceOwnership",
      "outputs": [],
      "stateMutability": "nonpayable",
      "type": "function"
    },
    {
      "inputs": [
        {
          "internalType": "address",
          "name": "newOwner",
          "type": "address"
        }
      ],
      "name": "transferOwnership",
      "outputs": [],
      "stateMutability": "nonpayable",
      "type": "function"
    },
    {
      "inputs": [
        {
          "internalType": "address",
          "name": "minter",
          "type": "address"
        },
        {
          "internalType": "uint256",
          "name": "tokenId",
          "type": "uint256"
        },
        {
          "internalType": "string",
          "name": "uri",
          "type": "string"
        },
        {
          "internalType": "uint256",
          "name": "price",
          "type": "uint256"
        },
        {
          "internalType": "uint256",
          "name": "phaseIndex",
          "type": "uint256"
        },
        {
          "internalType": "bytes32",
          "name": "uniqueId",
          "type": "bytes32"
        },
        {
          "internalType": "uint256",
          "name": "timestamp",
          "type": "uint256"
        },
        {
          "internalType": "bytes",
          "name": "signature",
          "type": "bytes"
        }
      ],
      "name": "verifySignature",
      "outputs": [
        {
          "internalType": "bool",
          "name": "",
          "type": "bool"
        }
      ],
      "stateMutability": "view",
      "type": "function"
    }
  ],
  "bytecode": "0x61018060405234801561001157600080fd5b5060405161219a38038061219a833981810160405281019061003391906104bd565b816040518060400160405280600a81526020017f556e69666965644e4654000000000000000000000000000000000000000000008152506040518060400160405280600181526020017f31000000000000000000000000000000000000000000000000000000000000008152506100b460008361027760201b90919060201c565b61012081815250506100d060018261027760201b90919060201c565b6101408181525050818051906020012060e08181525050808051906020012061010081815250504660a0818152505061010d6102c760201b60201c565b608081815250503073ffffffffffffffffffffffffffffffffffffffff1660c08173ffffffffffffffffffffffffffffffffffffffff16815250505050600073ffffffffffffffffffffffffffffffffffffffff168173ffffffffffffffffffffffffffffffffffffffff16036101bc5760006040517f1e4fbdf70000000000000000000000000000000000000000000000000000000081526004016101b3919061050c565b60405180910390fd5b6101cb8161032260201b60201c565b50600073ffffffffffffffffffffffffffffffffffffffff168173ffffffffffffffffffffffffffffffffffffffff160361023b576040517f08c379a000000000000000000000000000000000000000000000000000000000815260040161023290610584565b60405180910390fd5b8073ffffffffffffffffffffffffffffffffffffffff166101608173ffffffffffffffffffffffffffffffffffffffff16815250505050610a6e565b600060208351101561029957610292836103e860201b60201c565b90506102c1565b826102a98361045060201b60201c565b60000190816102b891906107f4565b5060ff60001b90505b92915050565b60007f8b73c3c69bb8fe3d512ecc4cf759cc79239f7b179b0ffacaa9a75d522b39400f60e0516101005146306040516020016103079594939291906108ee565b60405160208183030381529060405280519060200120905090565b6000600260009054906101000a900473ffffffffffffffffffffffffffffffffffffffff16905081600260006101000a81548173ffffffffffffffffffffffffffffffffffffffff021916908373ffffffffffffffffffffffffffffffffffffffff1602179055508173ffffffffffffffffffffffffffffffffffffffff168173ffffffffffffffffffffffffffffffffffffffff167f8be0079c531659141344cd1fd0a4f28419497f9722a3daafe3b4186f6b6457e060405160405180910390a35050565b600080829050601f8151111561043557826040517f305a27a900000000000000000000000000000000000000000000000000000000815260040161042c91906109b5565b60405180910390fd5b80518161044190610a07565b60001c1760001b915050919050565b6000819050919050565b600080fd5b600073ffffffffffffffffffffffffffffffffffffffff82169050919050565b600061048a8261045f565b9050919050565b61049a8161047f565b81146104a557600080fd5b50565b6000815190506104b781610491565b92915050565b600080604083850312156104d4576104d361045a565b5b60006104e2858286016104a8565b92505060206104f3858286016104a8565b9150509250929050565b6105068161047f565b82525050565b600060208201905061052160008301846104fd565b92915050565b600082825260208201905092915050565b7f496e76616c6964206261636b656e64207369676e657220616464726573730000600082015250565b600061056e601e83610527565b915061057982610538565b602082019050919050565b6000602082019050818103600083015261059d81610561565b9050919050565b600081519050919050565b7f4e487b7100000000000000000000000000000000000000000000000000000000600052604160045260246000fd5b7f4e487b7100000000000000000000000000000000000000000000000000000000600052602260045260246000fd5b6000600282049050600182168061062557607f821691505b602082108103610638576106376105de565b5b50919050565b60008190508160005260206000209050919050565b60006020601f8301049050919050565b600082821b905092915050565b6000600883026106a07fffffffffffffffffffffffffffffffffffffffffffffffffffffffffffffffff82610663565b6106aa8683610663565b95508019841693508086168417925050509392505050565b6000819050919050565b6000819050919050565b60006106f16106ec6106e7846106c2565b6106cc565b6106c2565b9050919050565b6000819050919050565b61070b836106d6565b61071f610717826106f8565b848454610670565b825550505050565b600090565b610734610727565b61073f818484610702565b505050565b5b818110156107635761075860008261072c565b600181019050610745565b5050565b601f8211156107a8576107798161063e565b61078284610653565b81016020851015610791578190505b6107a561079d85610653565b830182610744565b50505b505050565b600082821c905092915050565b60006107cb600019846008026107ad565b1980831691505092915050565b60006107e483836107ba565b9150826002028217905092915050565b6107fd826105a4565b67ffffffffffffffff811115610816576108156105af565b5b610820825461060d565b61082b828285610767565b600060209050601f83116001811461085e576000841561084c578287015190505b61085685826107d8565b8655506108be565b601f19841661086c8661063e565b60005b828110156108945784890151825560018201915060208501945060208101905061086f565b868310156108b157848901516108ad601f8916826107ba565b8355505b6001600288020188555050505b505050505050565b6000819050919050565b6108d9816108c6565b82525050565b6108e8816106c2565b82525050565b600060a08201905061090360008301886108d0565b61091060208301876108d0565b61091d60408301866108d0565b61092a60608301856108df565b61093760808301846104fd565b9695505050505050565b60005b8381101561095f578082015181840152602081019050610944565b60008484015250505050565b6000601f19601f8301169050919050565b6000610987826105a4565b6109918185610527565b93506109a1818560208601610941565b6109aa8161096b565b840191505092915050565b600060208201905081810360008301526109cf818461097c565b905092915050565b600081519050919050565b6000819050602082019050919050565b60006109fe82516108c6565b80915050919050565b6000610a12826109d7565b82610a1c846109e2565b9050610a27816109f2565b92506020821015610a6757610a627fffffffffffffffffffffffffffffffffffffffffffffffffffffffffffffffff83602003600802610663565b831692505b5050919050565b60805160a05160c05160e051610100516101205161014051610160516116c0610ada600039600081816101ba015261030d015260006107760152600061073b01526000610b5e01526000610b3d015260006107ac015260006108020152600061082b01526116c06000f3fe608060405234801561001057600080fd5b50600436106100935760003560e01c806384b0196e1161006657806384b0196e1461010c5780638da5cb5b14610130578063ed24911d1461014e578063f2fde38b1461016c578063ffe95a271461018857610093565b806365d65e861461009857806368b36b91146100b6578063715018a6146100e657806380a77be6146100f0575b600080fd5b6100a06101b8565b6040516100ad9190610da7565b60405180910390f35b6100d060048036038101906100cb9190610f1f565b6101dc565b6040516100dd9190611031565b60405180910390f35b6100ee6103c9565b005b61010a6004803603810190610105919061104c565b6103dd565b005b61011461040c565b6040516101279796959493929190611220565b60405180910390f35b6101386104b6565b6040516101459190610da7565b60405180910390f35b6101566104e0565b60405161016391906112a4565b60405180910390f35b610186600480360381019061018191906112bf565b6104ef565b005b6101a2600480360381019061019d919061104c565b610575565b6040516101af9190611031565b60405180910390f35b7f000000000000000000000000000000000000000000000000000000000000000081565b600042610e10856101ed919061131b565b101580156101fb5750428411155b61023a576040517f08c379a00000000000000000000000000000000000000000000000000000000081526004016102319061139b565b60405180910390fd5b6003600086815260200190815260200160002060009054906101000a900460ff161561029b576040517f08c379a000000000000000000000000000000000000000000000000000000000815260040161029290611407565b60405180910390fd5b60007fbcd57119bf9b3f112b39ecfb926b57babf8ea759ef8fb8f953ec0103b2a187f38c8c8c8c6040516102d0929190611466565b60405180910390208b8b8b8b6040516020016102f398979695949392919061147f565b6040516020818303038152906040528051906020012090507f000000000000000000000000000000000000000000000000000000000000000073ffffffffffffffffffffffffffffffffffffffff166103a185858080601f016020809104026020016040519081016040528093929190818152602001838380828437600081840152601f19601f820116905080830192505050505050506103938461059f565b6105b990919063ffffffff16565b73ffffffffffffffffffffffffffffffffffffffff16149150509a9950505050505050505050565b6103d16105e5565b6103db600061066c565b565b60016003600083815260200190815260200160002060006101000a81548160ff02191690831515021790555050565b600060608060008060006060610420610732565b61042861076d565b46306000801b600067ffffffffffffffff811115610449576104486114fd565b5b6040519080825280602002602001820160405280156104775781602001602082028036833780820191505090505b507f0f00000000000000000000000000000000000000000000000000000000000000959493929190965096509650965096509650965090919293949596565b6000600260009054906101000a900473ffffffffffffffffffffffffffffffffffffffff16905090565b60006104ea6107a8565b905090565b6104f76105e5565b600073ffffffffffffffffffffffffffffffffffffffff168173ffffffffffffffffffffffffffffffffffffffff16036105695760006040517f1e4fbdf70000000000000000000000000000000000000000000000000000000081526004016105609190610da7565b60405180910390fd5b6105728161066c565b50565b60006003600083815260200190815260200160002060009054906101000a900460ff169050919050565b60006105b26105ac6107a8565b8361085f565b9050919050565b6000806000806105c986866108a0565b9250925092506105d982826108fc565b82935050505092915050565b6105ed610a60565b73ffffffffffffffffffffffffffffffffffffffff1661060b6104b6565b73ffffffffffffffffffffffffffffffffffffffff161461066a5761062e610a60565b6040517f118cdaa70000000000000000000000000000000000000000000000000000000081526004016106619190610da7565b60405180910390fd5b565b6000600260009054906101000a900473ffffffffffffffffffffffffffffffffffffffff16905081600260006101000a81548173ffffffffffffffffffffffffffffffffffffffff021916908373ffffffffffffffffffffffffffffffffffffffff1602179055508173ffffffffffffffffffffffffffffffffffffffff168173ffffffffffffffffffffffffffffffffffffffff167f8be0079c531659141344cd1fd0a4f28419497f9722a3daafe3b4186f6b6457e060405160405180910390a35050565b606061076860007f0000000000000000000000000000000000000000000000000000000000000000610a6890919063ffffffff16565b905090565b60606107a360017f0000000000000000000000000000000000000000000000000000000000000000610a6890919063ffffffff16565b905090565b60007f000000000000000000000000000000000000000000000000000000000000000073ffffffffffffffffffffffffffffffffffffffff163073ffffffffffffffffffffffffffffffffffffffff1614801561082457507f000000000000000000000000000000000000000000000000000000000000000046145b15610851577f0000000000000000000000000000000000000000000000000000000000000000905061085c565b610859610b18565b90505b90565b60006040517f190100000000000000000000000000000000000000000000000000000000000081528360028201528260228201526042812091505092915050565b600080600060418451036108e55760008060006020870151925060408701519150606087015160001a90506108d788828585610bae565b9550955095505050506108f5565b60006002855160001b9250925092505b9250925092565b600060038111156109105761090f61152c565b5b8260038111156109235761092261152c565b5b0315610a5c576001600381111561093d5761093c61152c565b5b8260038111156109505761094f61152c565b5b03610987576040517ff645eedf00000000000000000000000000000000000000000000000000000000815260040160405180910390fd5b6002600381111561099b5761099a61152c565b5b8260038111156109ae576109ad61152c565b5b036109f3578060001c6040517ffce698f70000000000000000000000000000000000000000000000000000000081526004016109ea919061155b565b60405180910390fd5b600380811115610a0657610a0561152c565b5b826003811115610a1957610a1861152c565b5b03610a5b57806040517fd78bce0c000000000000000000000000000000000000000000000000000000008152600401610a5291906112a4565b60405180910390fd5b5b5050565b600033905090565b606060ff60001b8314610a8557610a7e83610ca2565b9050610b12565b818054610a91906115a5565b80601f0160208091040260200160405190810160405280929190818152602001828054610abd906115a5565b8015610b0a5780601f10610adf57610100808354040283529160200191610b0a565b820191906000526020600020905b815481529060010190602001808311610aed57829003601f168201915b505050505090505b92915050565b60007f8b73c3c69bb8fe3d512ecc4cf759cc79239f7b179b0ffacaa9a75d522b39400f7f00000000000000000000000000000000000000000000000000000000000000007f00000000000000000000000000000000000000000000000000000000000000004630604051602001610b939594939291906115d6565b60405160208183030381529060405280519060200120905090565b60008060007f7fffffffffffffffffffffffffffffff5d576e7357a4501ddfe92f46681b20a08460001c1115610bee576000600385925092509250610c98565b600060018888888860405160008152602001604052604051610c139493929190611645565b6020604051602081039080840390855afa158015610c35573d6000803e3d6000fd5b505050602060405103519050600073ffffffffffffffffffffffffffffffffffffffff168173ffffffffffffffffffffffffffffffffffffffff1603610c8957600060016000801b93509350935050610c98565b8060008060001b935093509350505b9450945094915050565b60606000610caf83610d16565b90506000602067ffffffffffffffff811115610cce57610ccd6114fd565b5b6040519080825280601f01601f191660200182016040528015610d005781602001600182028036833780820191505090505b5090508181528360208201528092505050919050565b60008060ff8360001c169050601f811115610d5d576040517fb3512b0c00000000000000000000000000000000000000000000000000000000815260040160405180910390fd5b80915050919050565b600073ffffffffffffffffffffffffffffffffffffffff82169050919050565b6000610d9182610d66565b9050919050565b610da181610d86565b82525050565b6000602082019050610dbc6000830184610d98565b92915050565b600080fd5b600080fd5b610dd581610d86565b8114610de057600080fd5b50565b600081359050610df281610dcc565b92915050565b6000819050919050565b610e0b81610df8565b8114610e1657600080fd5b50565b600081359050610e2881610e02565b92915050565b600080fd5b600080fd5b600080fd5b60008083601f840112610e5357610e52610e2e565b5b8235905067ffffffffffffffff811115610e7057610e6f610e33565b5b602083019150836001820283011115610e8c57610e8b610e38565b5b9250929050565b6000819050919050565b610ea681610e93565b8114610eb157600080fd5b50565b600081359050610ec381610e9d565b92915050565b60008083601f840112610edf57610ede610e2e565b5b8235905067ffffffffffffffff811115610efc57610efb610e33565b5b602083019150836001820283011115610f1857610f17610e38565b5b9250929050565b6000806000806000806000806000806101008b8d031215610f4357610f42610dc2565b5b6000610f518d828e01610de3565b9a50506020610f628d828e01610e19565b99505060408b013567ffffffffffffffff811115610f8357610f82610dc7565b5b610f8f8d828e01610e3d565b98509850506060610fa28d828e01610e19565b9650506080610fb38d828e01610e19565b95505060a0610fc48d828e01610eb4565b94505060c0610fd58d828e01610e19565b93505060e08b013567ffffffffffffffff811115610ff657610ff5610dc7565b5b6110028d828e01610ec9565b92509250509295989b9194979a5092959850565b60008115159050919050565b61102b81611016565b82525050565b60006020820190506110466000830184611022565b92915050565b60006020828403121561106257611061610dc2565b5b600061107084828501610eb4565b91505092915050565b60007fff0000000000000000000000000000000000000000000000000000000000000082169050919050565b6110ae81611079565b82525050565b600081519050919050565b600082825260208201905092915050565b60005b838110156110ee5780820151818401526020810190506110d3565b60008484015250505050565b6000601f19601f8301169050919050565b6000611116826110b4565b61112081856110bf565b93506111308185602086016110d0565b611139816110fa565b840191505092915050565b61114d81610df8565b82525050565b61115c81610e93565b82525050565b600081519050919050565b600082825260208201905092915050565b6000819050602082019050919050565b61119781610df8565b82525050565b60006111a9838361118e565b60208301905092915050565b6000602082019050919050565b60006111cd82611162565b6111d7818561116d565b93506111e28361117e565b8060005b838110156112135781516111fa888261119d565b9750611205836111b5565b9250506001810190506111e6565b5085935050505092915050565b600060e082019050611235600083018a6110a5565b8181036020830152611247818961110b565b9050818103604083015261125b818861110b565b905061126a6060830187611144565b6112776080830186610d98565b61128460a0830185611153565b81810360c083015261129681846111c2565b905098975050505050505050565b60006020820190506112b96000830184611153565b92915050565b6000602082840312156112d5576112d4610dc2565b5b60006112e384828501610de3565b91505092915050565b7f4e487b7100000000000000000000000000000000000000000000000000000000600052601160045260246000fd5b600061132682610df8565b915061133183610df8565b9250828201905080821115611349576113486112ec565b5b92915050565b7f5369676e61747572652065787069726564000000000000000000000000000000600082015250565b60006113856011836110bf565b91506113908261134f565b602082019050919050565b600060208201905081810360008301526113b481611378565b9050919050565b7f5369676e617475726520616c7265616479207573656400000000000000000000600082015250565b60006113f16016836110bf565b91506113fc826113bb565b602082019050919050565b60006020820190508181036000830152611420816113e4565b9050919050565b600081905092915050565b82818337600083830152505050565b600061144d8385611427565b935061145a838584611432565b82840190509392505050565b6000611473828486611441565b91508190509392505050565b600061010082019050611495600083018b611153565b6114a2602083018a610d98565b6114af6040830189611144565b6114bc6060830188611153565b6114c96080830187611144565b6114d660a0830186611144565b6114e360c0830185611153565b6114f060e0830184611144565b9998505050505050505050565b7f4e487b7100000000000000000000000000000000000000000000000000000000600052604160045260246000fd5b7f4e487b7100000000000000000000000000000000000000000000000000000000600052602160045260246000fd5b60006020820190506115706000830184611144565b92915050565b7f4e487b7100000000000000000000000000000000000000000000000000000000600052602260045260246000fd5b600060028204905060018216806115bd57607f821691505b6020821081036115d0576115cf611576565b5b50919050565b600060a0820190506115eb6000830188611153565b6115f86020830187611153565b6116056040830186611153565b6116126060830185611144565b61161f6080830184610d98565b9695505050505050565b600060ff82169050919050565b61163f81611629565b82525050565b600060808201905061165a6000830187611153565b6116676020830186611636565b6116746040830185611153565b6116816060830184611153565b9594505050505056fea2646970667358221220a5ead4f8d77c066b6160197e3feafd2daa7b7d9b03ac37b7d9684848bd141fd564736f6c634300081b0033",
  "linkReferences": {},
  "deployedLinkReferences": {}
}