{
  "data": {
    "bytecode": {
      "linkReferences": {},
      "object": "6101a0604052348015610010575f80fd5b50604051616998380380616998833981810160405281019061003291906109d3565b6040518060400160405280600a81526020017f556e69666965644e4654000000000000000000000000000000000000000000008152506040518060400160405280600181526020017f3100000000000000000000000000000000000000000000000000000000000000815250888888815f90816100af9190610cb5565b5080600190816100bf9190610cb5565b5050505f73ffffffffffffffffffffffffffffffffffffffff168173ffffffffffffffffffffffffffffffffffffffff1603610132575f6040517f1e4fbdf70000000000000000000000000000000000000000000000000000000081526004016101299190610d93565b60405180910390fd5b6101418161046960201b60201c565b50610156600e8361052c60201b90919060201c565b6101208181525050610172600f8261052c60201b90919060201c565b6101408181525050818051906020012060e08181525050808051906020012061010081815250504660a081815250506101af61057960201b60201c565b608081815250503073ffffffffffffffffffffffffffffffffffffffff1660c08173ffffffffffffffffffffffffffffffffffffffff168152505050506103e8846bffffffffffffffffffffffff161115801561021c57506103e8836bffffffffffffffffffffffff1611155b801561025457505f73ffffffffffffffffffffffffffffffffffffffff168273ffffffffffffffffffffffffffffffffffffffff1614155b801561028c57505f73ffffffffffffffffffffffffffffffffffffffff168173ffffffffffffffffffffffffffffffffffffffff1614155b610294575f80fd5b8073ffffffffffffffffffffffffffffffffffffffff166101608173ffffffffffffffffffffffffffffffffffffffff1681525050836bffffffffffffffffffffffff16610180816bffffffffffffffffffffffff16815250508260155f6101000a8154816bffffffffffffffffffffffff02191690836bffffffffffffffffffffffff160217905550816015600c6101000a81548173ffffffffffffffffffffffffffffffffffffffff021916908373ffffffffffffffffffffffffffffffffffffffff16021790555061037287610180516105d360201b60201c565b60126040518061010001604052805f600281111561039357610392610dac565b5b81526020015f81526020015f81526020015f81526020015f81526020015f81526020015f81526020015f801b815250908060018154018082558091505060019003905f5260205f2090600802015f909190919091505f820151815f015f6101000a81548160ff021916908360028111156104105761040f610dac565b5b02179055506020820151816001015560408201518160020155606082015181600301556080820151816004015560a0820151816005015560c0820151816006015560e08201518160070155505050505050505050610fa3565b5f600d5f9054906101000a900473ffffffffffffffffffffffffffffffffffffffff16905081600d5f6101000a81548173ffffffffffffffffffffffffffffffffffffffff021916908373ffffffffffffffffffffffffffffffffffffffff1602179055508173ffffffffffffffffffffffffffffffffffffffff168173ffffffffffffffffffffffffffffffffffffffff167f8be0079c531659141344cd1fd0a4f28419497f9722a3daafe3b4186f6b6457e060405160405180910390a35050565b5f60208351101561054d576105468361077460201b60201c565b9050610573565b8261055d836107d960201b60201c565b5f01908161056b9190610cb5565b5060ff5f1b90505b92915050565b5f7f8b73c3c69bb8fe3d512ecc4cf759cc79239f7b179b0ffacaa9a75d522b39400f60e0516101005146306040516020016105b8959493929190610e00565b60405160208183030381529060405280519060200120905090565b5f6105e26107e260201b60201c565b6bffffffffffffffffffffffff16905080826bffffffffffffffffffffffff1611156106475781816040517f6f483d0900000000000000000000000000000000000000000000000000000000815260040161063e929190610e81565b60405180910390fd5b5f73ffffffffffffffffffffffffffffffffffffffff168373ffffffffffffffffffffffffffffffffffffffff16036106b7575f6040517fb6d9900a0000000000000000000000000000000000000000000000000000000081526004016106ae9190610d93565b60405180910390fd5b60405180604001604052808473ffffffffffffffffffffffffffffffffffffffff168152602001836bffffffffffffffffffffffff16815250600b5f820151815f015f6101000a81548173ffffffffffffffffffffffffffffffffffffffff021916908373ffffffffffffffffffffffffffffffffffffffff1602179055506020820151815f0160146101000a8154816bffffffffffffffffffffffff02191690836bffffffffffffffffffffffff160217905550905050505050565b5f80829050601f815111156107c057826040517f305a27a90000000000000000000000000000000000000000000000000000000081526004016107b79190610ef0565b60405180910390fd5b8051816107cc90610f3d565b5f1c175f1b915050919050565b5f819050919050565b5f612710905090565b5f604051905090565b5f80fd5b5f80fd5b5f73ffffffffffffffffffffffffffffffffffffffff82169050919050565b5f610825826107fc565b9050919050565b6108358161081b565b811461083f575f80fd5b50565b5f815190506108508161082c565b92915050565b5f80fd5b5f80fd5b5f601f19601f8301169050919050565b7f4e487b71000000000000000000000000000000000000000000000000000000005f52604160045260245ffd5b6108a48261085e565b810181811067ffffffffffffffff821117156108c3576108c261086e565b5b80604052505050565b5f6108d56107eb565b90506108e1828261089b565b919050565b5f67ffffffffffffffff821115610900576108ff61086e565b5b6109098261085e565b9050602081019050919050565b8281835e5f83830152505050565b5f610936610931846108e6565b6108cc565b9050828152602081018484840111156109525761095161085a565b5b61095d848285610916565b509392505050565b5f82601f83011261097957610978610856565b5b8151610989848260208601610924565b91505092915050565b5f6bffffffffffffffffffffffff82169050919050565b6109b281610992565b81146109bc575f80fd5b50565b5f815190506109cd816109a9565b92915050565b5f805f805f805f60e0888a0312156109ee576109ed6107f4565b5b5f6109fb8a828b01610842565b975050602088015167ffffffffffffffff811115610a1c57610a1b6107f8565b5b610a288a828b01610965565b965050604088015167ffffffffffffffff811115610a4957610a486107f8565b5b610a558a828b01610965565b9550506060610a668a828b016109bf565b9450506080610a778a828b016109bf565b93505060a0610a888a828b01610842565b92505060c0610a998a828b01610842565b91505092959891949750929550565b5f81519050919050565b7f4e487b71000000000000000000000000000000000000000000000000000000005f52602260045260245ffd5b5f6002820490506001821680610af657607f821691505b602082108103610b0957610b08610ab2565b5b50919050565b5f819050815f5260205f209050919050565b5f6020601f8301049050919050565b5f82821b905092915050565b5f60088302610b6b7fffffffffffffffffffffffffffffffffffffffffffffffffffffffffffffffff82610b30565b610b758683610b30565b95508019841693508086168417925050509392505050565b5f819050919050565b5f819050919050565b5f610bb9610bb4610baf84610b8d565b610b96565b610b8d565b9050919050565b5f819050919050565b610bd283610b9f565b610be6610bde82610bc0565b848454610b3c565b825550505050565b5f90565b610bfa610bee565b610c05818484610bc9565b505050565b5b81811015610c2857610c1d5f82610bf2565b600181019050610c0b565b5050565b601f821115610c6d57610c3e81610b0f565b610c4784610b21565b81016020851015610c56578190505b610c6a610c6285610b21565b830182610c0a565b50505b505050565b5f82821c905092915050565b5f610c8d5f1984600802610c72565b1980831691505092915050565b5f610ca58383610c7e565b9150826002028217905092915050565b610cbe82610aa8565b67ffffffffffffffff811115610cd757610cd661086e565b5b610ce18254610adf565b610cec828285610c2c565b5f60209050601f831160018114610d1d575f8415610d0b578287015190505b610d158582610c9a565b865550610d7c565b601f198416610d2b86610b0f565b5f5b82811015610d5257848901518255600182019150602085019450602081019050610d2d565b86831015610d6f5784890151610d6b601f891682610c7e565b8355505b6001600288020188555050505b505050505050565b610d8d8161081b565b82525050565b5f602082019050610da65f830184610d84565b92915050565b7f4e487b71000000000000000000000000000000000000000000000000000000005f52602160045260245ffd5b5f819050919050565b610deb81610dd9565b82525050565b610dfa81610b8d565b82525050565b5f60a082019050610e135f830188610de2565b610e206020830187610de2565b610e2d6040830186610de2565b610e3a6060830185610df1565b610e476080830184610d84565b9695505050505050565b5f610e6b610e66610e6184610992565b610b96565b610b8d565b9050919050565b610e7b81610e51565b82525050565b5f604082019050610e945f830185610e72565b610ea16020830184610df1565b9392505050565b5f82825260208201905092915050565b5f610ec282610aa8565b610ecc8185610ea8565b9350610edc818560208601610916565b610ee58161085e565b840191505092915050565b5f6020820190508181035f830152610f088184610eb8565b905092915050565b5f81519050919050565b5f819050602082019050919050565b5f610f348251610dd9565b80915050919050565b5f610f4782610f10565b82610f5184610f1a565b9050610f5c81610f29565b92506020821015610f9c57610f977fffffffffffffffffffffffffffffffffffffffffffffffffffffffffffffffff83602003600802610b30565b831692505b5050919050565b60805160a05160c05160e051610100516101205161014051610160516101805161598c61100c5f395f50505f81816111dc015261165401525f6120a201525f61206701525f6130a301525f61308201525f61285401525f6128aa01525f6128d3015261598c5ff3fe6080604052600436106101ed575f3560e01c806370a082311161010c578063b88d4fde1161009f578063e985e9c51161006e578063e985e9c51461071e578063eb13554f1461075a578063ed24911d14610784578063f2fde38b146107ae578063f7330c2d146107d6576101ed565b8063b88d4fde14610666578063c87b56dd1461068e578063cdd78cfc146106ca578063db5e0063146106f4576101ed565b80638da5cb5b116100db5780638da5cb5b146105ce5780638ff75e82146105f857806395d89b4114610614578063a22cb4651461063e576101ed565b806370a0823114610510578063715018a61461054c5780638462151c1461056257806384b0196e1461059e576101ed565b80632a55205a116101845780634f6ccce7116101535780634f6ccce71461044657806357036078146104825780636352211e146104aa57806365d65e86146104e6576101ed565b80632a55205a146103625780632e37eef61461039f5780632f745c59146103e257806342842e0e1461041e576101ed565b8063095ea7b3116101c0578063095ea7b3146102bd57806318160ddd146102e55780631ce97fd11461030f57806323b872dd1461033a576101ed565b806301ffc9a7146101f157806306fdde031461022d578063072a131914610257578063081812fc14610281575b5f80fd5b3480156101fc575f80fd5b5061021760048036038101906102129190613e69565b610812565b6040516102249190613eae565b60405180910390f35b348015610238575f80fd5b50610241610823565b60405161024e9190613f37565b60405180910390f35b348015610262575f80fd5b5061026b6108b2565b6040516102789190613eae565b60405180910390f35b34801561028c575f80fd5b506102a760048036038101906102a29190613f8a565b6109a0565b6040516102b49190613ff4565b60405180910390f35b3480156102c8575f80fd5b506102e360048036038101906102de9190614037565b6109bb565b005b3480156102f0575f80fd5b506102f96109d1565b6040516103069190614084565b60405180910390f35b34801561031a575f80fd5b506103236109dd565b6040516103319291906141d7565b60405180910390f35b348015610345575f80fd5b50610360600480360381019061035b91906141ff565b610a84565b005b34801561036d575f80fd5b506103886004803603810190610383919061424f565b610b83565b60405161039692919061428d565b60405180910390f35b3480156103aa575f80fd5b506103c560048036038101906103c09190613f8a565b610ca5565b6040516103d99897969594939291906142d2565b60405180910390f35b3480156103ed575f80fd5b5061040860048036038101906104039190614037565b610d04565b6040516104159190614084565b60405180910390f35b348015610429575f80fd5b50610444600480360381019061043f91906141ff565b610da8565b005b348015610451575f80fd5b5061046c60048036038101906104679190613f8a565b610dc7565b6040516104799190614084565b60405180910390f35b34801561048d575f80fd5b506104a860048036038101906104a3919061439b565b610e39565b005b3480156104b5575f80fd5b506104d060048036038101906104cb9190613f8a565b6111c9565b6040516104dd9190613ff4565b60405180910390f35b3480156104f1575f80fd5b506104fa6111da565b6040516105079190613ff4565b60405180910390f35b34801561051b575f80fd5b5061053660048036038101906105319190614438565b6111fe565b6040516105439190614084565b60405180910390f35b348015610557575f80fd5b506105606112b4565b005b34801561056d575f80fd5b5061058860048036038101906105839190614438565b6112c7565b604051610595919061450b565b60405180910390f35b3480156105a9575f80fd5b506105b261135a565b6040516105c59796959493929190614565565b60405180910390f35b3480156105d9575f80fd5b506105e26113ff565b6040516105ef9190613ff4565b60405180910390f35b610612600480360381019061060d91906146f2565b611427565b005b34801561061f575f80fd5b506106286119a0565b6040516106359190613f37565b60405180910390f35b348015610649575f80fd5b50610664600480360381019061065f9190614805565b611a30565b005b348015610671575f80fd5b5061068c6004803603810190610687919061496b565b611a46565b005b348015610699575f80fd5b506106b460048036038101906106af9190613f8a565b611a63565b6040516106c19190613f37565b60405180910390f35b3480156106d5575f80fd5b506106de611a75565b6040516106eb9190614a11565b60405180910390f35b3480156106ff575f80fd5b50610708611a92565b6040516107159190614084565b60405180910390f35b348015610729575f80fd5b50610744600480360381019061073f9190614a2a565b611a9e565b6040516107519190613eae565b60405180910390f35b348015610765575f80fd5b5061076e611b2c565b60405161077b9190613ff4565b60405180910390f35b34801561078f575f80fd5b50610798611b52565b6040516107a59190614a68565b60405180910390f35b3480156107b9575f80fd5b506107d460048036038101906107cf9190614438565b611b60565b005b3480156107e1575f80fd5b506107fc60048036038101906107f79190614a81565b611be4565b6040516108099190614084565b60405180910390f35b5f61081c82611c5e565b9050919050565b60605f805461083190614aec565b80601f016020809104026020016040519081016040528092919081815260200182805461085d90614aec565b80156108a85780601f1061087f576101008083540402835291602001916108a8565b820191905f5260205f20905b81548152906001019060200180831161088b57829003601f168201915b5050505050905090565b5f804290505f5b601280549050811015610997575f60028111156108d9576108d861409d565b5b601282815481106108ed576108ec614b1c565b5b905f5260205f2090600802015f015f9054906101000a900460ff16600281111561091a5761091961409d565b5b1415801561094b57506012818154811061093757610936614b1c565b5b905f5260205f209060080201600201548210155b801561097a57506012818154811061096657610965614b1c565b5b905f5260205f209060080201600301548211155b1561098a5760019250505061099d565b80806001019150506108b9565b505f9150505b90565b5f6109aa82611cd7565b506109b482611d5d565b9050919050565b6109cd82826109c8611d96565b611d9d565b5050565b5f600880549050905090565b5f6109e6613db1565b6109ee611daf565b80604051806101000160405290815f82015f9054906101000a900460ff166002811115610a1e57610a1d61409d565b5b6002811115610a3057610a2f61409d565b5b81526020016001820154815260200160028201548152602001600382015481526020016004820154815260200160058201548152602001600682015481526020016007820154815250509050915091509091565b5f73ffffffffffffffffffffffffffffffffffffffff168273ffffffffffffffffffffffffffffffffffffffff1603610af4575f6040517f64a0ae92000000000000000000000000000000000000000000000000000000008152600401610aeb9190613ff4565b60405180910390fd5b5f610b078383610b02611d96565b611ef6565b90508373ffffffffffffffffffffffffffffffffffffffff168173ffffffffffffffffffffffffffffffffffffffff1614610b7d578382826040517f64283d7b000000000000000000000000000000000000000000000000000000008152600401610b7493929190614b49565b60405180910390fd5b50505050565b5f805f600c5f8681526020019081526020015f2090505f815f015f9054906101000a900473ffffffffffffffffffffffffffffffffffffffff1690505f825f0160149054906101000a90046bffffffffffffffffffffffff1690505f73ffffffffffffffffffffffffffffffffffffffff168273ffffffffffffffffffffffffffffffffffffffff1603610c5757600b5f015f9054906101000a900473ffffffffffffffffffffffffffffffffffffffff169150600b5f0160149054906101000a90046bffffffffffffffffffffffff1690505b5f610c60611f0b565b6bffffffffffffffffffffffff16826bffffffffffffffffffffffff1688610c889190614bab565b610c929190614c19565b9050828195509550505050509250929050565b60128181548110610cb4575f80fd5b905f5260205f2090600802015f91509050805f015f9054906101000a900460ff16908060010154908060020154908060030154908060040154908060050154908060060154908060070154905088565b5f610d0e836111fe565b8210610d535782826040517fa57d13dc000000000000000000000000000000000000000000000000000000008152600401610d4a92919061428d565b60405180910390fd5b60065f8473ffffffffffffffffffffffffffffffffffffffff1673ffffffffffffffffffffffffffffffffffffffff1681526020019081526020015f205f8381526020019081526020015f2054905092915050565b610dc283838360405180602001604052805f815250611a46565b505050565b5f610dd06109d1565b8210610e15575f826040517fa57d13dc000000000000000000000000000000000000000000000000000000008152600401610e0c92919061428d565b60405180910390fd5b60088281548110610e2957610e28614b1c565b5b905f5260205f2001549050919050565b610e41611f14565b838510610e83576040517f08c379a0000000000000000000000000000000000000000000000000000000008152600401610e7a90614c93565b60405180910390fd5b600280811115610e9657610e9561409d565b5b876002811115610ea957610ea861409d565b5b14610f35575f8211610ef0576040517f08c379a0000000000000000000000000000000000000000000000000000000008152600401610ee790614d21565b60405180910390fd5b5f801b8103610f34576040517f08c379a0000000000000000000000000000000000000000000000000000000008152600401610f2b90614daf565b60405180910390fd5b5b5f5b60128054905081101561108d575f60128281548110610f5957610f58614b1c565b5b905f5260205f209060080201604051806101000160405290815f82015f9054906101000a900460ff166002811115610f9457610f9361409d565b5b6002811115610fa657610fa561409d565b5b815260200160018201548152602001600282015481526020016003820154815260200160048201548152602001600582015481526020016006820154815260200160078201548152505090505f60028111156110055761100461409d565b5b815f0151600281111561101b5761101a61409d565b5b036110265750611080565b8060600151871115801561103e575080604001518610155b1561107e576040517f08c379a000000000000000000000000000000000000000000000000000000000815260040161107590614e3d565b60405180910390fd5b505b8080600101915050610f37565b505f6040518061010001604052808960028111156110ae576110ad61409d565b5b81526020018881526020018781526020018681526020018581526020018481526020015f81526020018381525090505f6012805490509050601282908060018154018082558091505060019003905f5260205f2090600802015f909190919091505f820151815f015f6101000a81548160ff021916908360028111156111375761113661409d565b5b02179055506020820151816001015560408201518160020155606082015181600301556080820151816004015560a0820151816005015560c0820151816006015560e082015181600701555050807f7673e4939433531841b3ee155cfb41d74036f1741ed20ba7c3ed88d66a2895518a8a6040516111b6929190614e5b565b60405180910390a2505050505050505050565b5f6111d382611cd7565b9050919050565b7f000000000000000000000000000000000000000000000000000000000000000081565b5f8073ffffffffffffffffffffffffffffffffffffffff168273ffffffffffffffffffffffffffffffffffffffff160361126f575f6040517f89c62b640000000000000000000000000000000000000000000000000000000081526004016112669190613ff4565b60405180910390fd5b60035f8373ffffffffffffffffffffffffffffffffffffffff1673ffffffffffffffffffffffffffffffffffffffff1681526020019081526020015f20549050919050565b6112bc611f14565b6112c55f611f9b565b565b606060145f8373ffffffffffffffffffffffffffffffffffffffff1673ffffffffffffffffffffffffffffffffffffffff1681526020019081526020015f2080548060200260200160405190810160405280929190818152602001828054801561134e57602002820191905f5260205f20905b81548152602001906001019080831161133a575b50505050509050919050565b5f6060805f805f606061136b61205e565b611373612099565b46305f801b5f67ffffffffffffffff81111561139257611391614847565b5b6040519080825280602002602001820160405280156113c05781602001602082028036833780820191505090505b507f0f00000000000000000000000000000000000000000000000000000000000000959493929190965096509650965096509650965090919293949596565b5f600d5f9054906101000a900473ffffffffffffffffffffffffffffffffffffffff16905090565b5f80611431611daf565b91509150600160028111156114495761144861409d565b5b815f015f9054906101000a900460ff16600281111561146b5761146a61409d565b5b03611525576114e58484808060200260200160405190810160405280939291908181526020018383602002808284375f81840152601f19601f820116905080830192505050505050508260070154336040516020016114ca9190614ec7565b604051602081830303815290604052805190602001206120d4565b611524576040517f08c379a000000000000000000000000000000000000000000000000000000000815260040161151b90614f2b565b60405180910390fd5b5b42610e10886115349190614f49565b101580156115425750428711155b611581576040517f08c379a000000000000000000000000000000000000000000000000000000000815260040161157890614fc6565b60405180910390fd5b60115f8981526020019081526020015f205f9054906101000a900460ff16156115df576040517f08c379a00000000000000000000000000000000000000000000000000000000081526004016115d69061502e565b60405180910390fd5b5f7fbcd57119bf9b3f112b39ecfb926b57babf8ea759ef8fb8f953ec0103b2a187f3338d8d8d60405161161392919061507a565b60405180910390208560010154878e8e60405160200161163a989796959493929190615092565b6040516020818303038152906040528051906020012090507f000000000000000000000000000000000000000000000000000000000000000073ffffffffffffffffffffffffffffffffffffffff166116e788888080601f0160208091040260200160405190810160405280939291908181526020018383808284375f81840152601f19601f820116905080830192505050505050506116d9846120ea565b61210390919063ffffffff16565b73ffffffffffffffffffffffffffffffffffffffff161461173d576040517f08c379a000000000000000000000000000000000000000000000000000000000815260040161173490615158565b60405180910390fd5b81600101543414611783576040517f08c379a000000000000000000000000000000000000000000000000000000000815260040161177a906151c0565b60405180910390fd5b5f8260040154148061179c575081600401548260060154105b6117db576040517f08c379a00000000000000000000000000000000000000000000000000000000081526004016117d290615228565b60405180910390fd5b6002808111156117ee576117ed61409d565b5b825f015f9054906101000a900460ff1660028111156118105761180f61409d565b5b14801561182057505f8260050154145b806118ad5750816005015460135f3373ffffffffffffffffffffffffffffffffffffffff1673ffffffffffffffffffffffffffffffffffffffff1681526020019081526020015f205f845f015f9054906101000a900460ff16600281111561188b5761188a61409d565b5b600281111561189d5761189c61409d565b5b81526020019081526020015f2054105b6118ec576040517f08c379a00000000000000000000000000000000000000000000000000000000081526004016118e3906152b6565b60405180910390fd5b600160115f8b81526020019081526020015f205f6101000a81548160ff02191690831515021790555061191e3461212d565b6119288233612311565b611934338d8d8d6123c2565b3373ffffffffffffffffffffffffffffffffffffffff168c7f99f38cf3feaad38e0a2e22ef51bdd4faba32b432520a951248d77057596a425a845f015f9054906101000a900460ff1660405161198a91906152d4565b60405180910390a3505050505050505050505050565b6060600180546119af90614aec565b80601f01602080910402602001604051908101604052809291908181526020018280546119db90614aec565b8015611a265780601f106119fd57610100808354040283529160200191611a26565b820191905f5260205f20905b815481529060010190602001808311611a0957829003601f168201915b5050505050905090565b611a42611a3b611d96565b838361242b565b5050565b611a51848484610a84565b611a5d84848484612594565b50505050565b6060611a6e82612746565b9050919050565b60155f9054906101000a90046bffffffffffffffffffffffff1681565b5f601280549050905090565b5f60055f8473ffffffffffffffffffffffffffffffffffffffff1673ffffffffffffffffffffffffffffffffffffffff1681526020019081526020015f205f8373ffffffffffffffffffffffffffffffffffffffff1673ffffffffffffffffffffffffffffffffffffffff1681526020019081526020015f205f9054906101000a900460ff16905092915050565b6015600c9054906101000a900473ffffffffffffffffffffffffffffffffffffffff1681565b5f611b5b612851565b905090565b611b68611f14565b5f73ffffffffffffffffffffffffffffffffffffffff168173ffffffffffffffffffffffffffffffffffffffff1603611bd8575f6040517f1e4fbdf7000000000000000000000000000000000000000000000000000000008152600401611bcf9190613ff4565b60405180910390fd5b611be181611f9b565b50565b5f60135f8473ffffffffffffffffffffffffffffffffffffffff1673ffffffffffffffffffffffffffffffffffffffff1681526020019081526020015f205f836002811115611c3657611c3561409d565b5b6002811115611c4857611c4761409d565b5b81526020019081526020015f2054905092915050565b5f7f2a55205a000000000000000000000000000000000000000000000000000000007bffffffffffffffffffffffffffffffffffffffffffffffffffffffff1916827bffffffffffffffffffffffffffffffffffffffffffffffffffffffff19161480611cd05750611ccf82612907565b5b9050919050565b5f80611ce283612967565b90505f73ffffffffffffffffffffffffffffffffffffffff168173ffffffffffffffffffffffffffffffffffffffff1603611d5457826040517f7e273289000000000000000000000000000000000000000000000000000000008152600401611d4b9190614084565b60405180910390fd5b80915050919050565b5f60045f8381526020019081526020015f205f9054906101000a900473ffffffffffffffffffffffffffffffffffffffff169050919050565b5f33905090565b611daa83838360016129a0565b505050565b5f805f4290505f5b601280549050811015611eb6575f6002811115611dd757611dd661409d565b5b60128281548110611deb57611dea614b1c565b5b905f5260205f2090600802015f015f9054906101000a900460ff166002811115611e1857611e1761409d565b5b14158015611e49575060128181548110611e3557611e34614b1c565b5b905f5260205f209060080201600201548210155b8015611e78575060128181548110611e6457611e63614b1c565b5b905f5260205f209060080201600301548211155b15611ea9578060128281548110611e9257611e91614b1c565b5b905f5260205f209060080201935093505050611ef2565b8080600101915050611db7565b506040517f08c379a0000000000000000000000000000000000000000000000000000000008152600401611ee990615337565b60405180910390fd5b9091565b5f611f02848484612b5f565b90509392505050565b5f612710905090565b611f1c611d96565b73ffffffffffffffffffffffffffffffffffffffff16611f3a6113ff565b73ffffffffffffffffffffffffffffffffffffffff1614611f9957611f5d611d96565b6040517f118cdaa7000000000000000000000000000000000000000000000000000000008152600401611f909190613ff4565b60405180910390fd5b565b5f600d5f9054906101000a900473ffffffffffffffffffffffffffffffffffffffff16905081600d5f6101000a81548173ffffffffffffffffffffffffffffffffffffffff021916908373ffffffffffffffffffffffffffffffffffffffff1602179055508173ffffffffffffffffffffffffffffffffffffffff168173ffffffffffffffffffffffffffffffffffffffff167f8be0079c531659141344cd1fd0a4f28419497f9722a3daafe3b4186f6b6457e060405160405180910390a35050565b6060612094600e7f0000000000000000000000000000000000000000000000000000000000000000612c7990919063ffffffff16565b905090565b60606120cf600f7f0000000000000000000000000000000000000000000000000000000000000000612c7990919063ffffffff16565b905090565b5f826120e08584612d26565b1490509392505050565b5f6120fc6120f6612851565b83612d74565b9050919050565b5f805f806121118686612db4565b9250925092506121218282612e09565b82935050505092915050565b5f61271060155f9054906101000a90046bffffffffffffffffffffffff166bffffffffffffffffffffffff16836121649190614bab565b61216e9190614c19565b90505f811115612244575f6015600c9054906101000a900473ffffffffffffffffffffffffffffffffffffffff1673ffffffffffffffffffffffffffffffffffffffff16826040516121bf90615378565b5f6040518083038185875af1925050503d805f81146121f9576040519150601f19603f3d011682016040523d82523d5f602084013e6121fe565b606091505b5050905080612242576040517f08c379a0000000000000000000000000000000000000000000000000000000008152600401612239906153d6565b60405180910390fd5b505b5f818361225191906153f4565b90505f81111561230c575f6122646113ff565b73ffffffffffffffffffffffffffffffffffffffff168260405161228790615378565b5f6040518083038185875af1925050503d805f81146122c1576040519150601f19603f3d011682016040523d82523d5f602084013e6122c6565b606091505b505090508061230a576040517f08c379a000000000000000000000000000000000000000000000000000000000815260040161230190615471565b60405180910390fd5b505b505050565b816006015f8154809291906123259061548f565b919050555060135f8273ffffffffffffffffffffffffffffffffffffffff1673ffffffffffffffffffffffffffffffffffffffff1681526020019081526020015f205f835f015f9054906101000a900460ff16600281111561238a5761238961409d565b5b600281111561239c5761239b61409d565b5b81526020019081526020015f205f8154809291906123b99061548f565b91905055505050565b6123cc8484612f6b565b5f828290501115612425576124248383838080601f0160208091040260200160405190810160405280939291908181526020018383808284375f81840152601f19601f82011690508083019250505050505050612f88565b5b50505050565b5f73ffffffffffffffffffffffffffffffffffffffff168273ffffffffffffffffffffffffffffffffffffffff160361249b57816040517f5b08ba180000000000000000000000000000000000000000000000000000000081526004016124929190613ff4565b60405180910390fd5b8060055f8573ffffffffffffffffffffffffffffffffffffffff1673ffffffffffffffffffffffffffffffffffffffff1681526020019081526020015f205f8473ffffffffffffffffffffffffffffffffffffffff1673ffffffffffffffffffffffffffffffffffffffff1681526020019081526020015f205f6101000a81548160ff0219169083151502179055508173ffffffffffffffffffffffffffffffffffffffff168373ffffffffffffffffffffffffffffffffffffffff167f17307eab39ab6107e8899845ad3d59bd9653f200f220920489ca2b5937696c31836040516125879190613eae565b60405180910390a3505050565b5f8373ffffffffffffffffffffffffffffffffffffffff163b1115612740578273ffffffffffffffffffffffffffffffffffffffff1663150b7a026125d7611d96565b8685856040518563ffffffff1660e01b81526004016125f99493929190615528565b6020604051808303815f875af192505050801561263457506040513d601f19601f820116820180604052508101906126319190615586565b60015b6126b5573d805f8114612662576040519150601f19603f3d011682016040523d82523d5f602084013e612667565b606091505b505f8151036126ad57836040517f64a0ae920000000000000000000000000000000000000000000000000000000081526004016126a49190613ff4565b60405180910390fd5b805181602001fd5b63150b7a0260e01b7bffffffffffffffffffffffffffffffffffffffffffffffffffffffff1916817bffffffffffffffffffffffffffffffffffffffffffffffffffffffff19161461273e57836040517f64a0ae920000000000000000000000000000000000000000000000000000000081526004016127359190613ff4565b60405180910390fd5b505b50505050565b606061275182611cd7565b505f600a5f8481526020019081526020015f20805461276f90614aec565b80601f016020809104026020016040519081016040528092919081815260200182805461279b90614aec565b80156127e65780601f106127bd576101008083540402835291602001916127e6565b820191905f5260205f20905b8154815290600101906020018083116127c957829003601f168201915b505050505090505f6127f6612fe2565b90505f81510361280a57819250505061284c565b5f8251111561283e5780826040516020016128269291906155eb565b6040516020818303038152906040529250505061284c565b61284784612ff8565b925050505b919050565b5f7f000000000000000000000000000000000000000000000000000000000000000073ffffffffffffffffffffffffffffffffffffffff163073ffffffffffffffffffffffffffffffffffffffff161480156128cc57507f000000000000000000000000000000000000000000000000000000000000000046145b156128f9577f00000000000000000000000000000000000000000000000000000000000000009050612904565b61290161305e565b90505b90565b5f634906490660e01b7bffffffffffffffffffffffffffffffffffffffffffffffffffffffff1916827bffffffffffffffffffffffffffffffffffffffffffffffffffffffff19161480612960575061295f826130f3565b5b9050919050565b5f60025f8381526020019081526020015f205f9054906101000a900473ffffffffffffffffffffffffffffffffffffffff169050919050565b80806129d857505f73ffffffffffffffffffffffffffffffffffffffff168273ffffffffffffffffffffffffffffffffffffffff1614155b15612b0a575f6129e784611cd7565b90505f73ffffffffffffffffffffffffffffffffffffffff168373ffffffffffffffffffffffffffffffffffffffff1614158015612a5157508273ffffffffffffffffffffffffffffffffffffffff168173ffffffffffffffffffffffffffffffffffffffff1614155b8015612a645750612a628184611a9e565b155b15612aa657826040517fa9fbf51f000000000000000000000000000000000000000000000000000000008152600401612a9d9190613ff4565b60405180910390fd5b8115612b0857838573ffffffffffffffffffffffffffffffffffffffff168273ffffffffffffffffffffffffffffffffffffffff167f8c5be1e5ebec7d5bd14f71427d1e84f3dd0314c0f7b2291e5b200ac8c7c3b92560405160405180910390a45b505b8360045f8581526020019081526020015f205f6101000a81548173ffffffffffffffffffffffffffffffffffffffff021916908373ffffffffffffffffffffffffffffffffffffffff16021790555050505050565b5f80612b6c85858561316c565b90505f73ffffffffffffffffffffffffffffffffffffffff168173ffffffffffffffffffffffffffffffffffffffff1603612baf57612baa84613377565b612bee565b8473ffffffffffffffffffffffffffffffffffffffff168173ffffffffffffffffffffffffffffffffffffffff1614612bed57612bec81856133bb565b5b5b5f73ffffffffffffffffffffffffffffffffffffffff168573ffffffffffffffffffffffffffffffffffffffff1603612c2f57612c2a84613492565b612c6e565b8473ffffffffffffffffffffffffffffffffffffffff168173ffffffffffffffffffffffffffffffffffffffff1614612c6d57612c6c8585613552565b5b5b809150509392505050565b606060ff5f1b8314612c9557612c8e836135d6565b9050612d20565b818054612ca190614aec565b80601f0160208091040260200160405190810160405280929190818152602001828054612ccd90614aec565b8015612d185780601f10612cef57610100808354040283529160200191612d18565b820191905f5260205f20905b815481529060010190602001808311612cfb57829003601f168201915b505050505090505b92915050565b5f808290505f5b8451811015612d6957612d5a82868381518110612d4d57612d4c614b1c565b5b6020026020010151613648565b91508080600101915050612d2d565b508091505092915050565b5f6040517f190100000000000000000000000000000000000000000000000000000000000081528360028201528260228201526042812091505092915050565b5f805f6041845103612df4575f805f602087015192506040870151915060608701515f1a9050612de688828585613672565b955095509550505050612e02565b5f600285515f1b9250925092505b9250925092565b5f6003811115612e1c57612e1b61409d565b5b826003811115612e2f57612e2e61409d565b5b0315612f675760016003811115612e4957612e4861409d565b5b826003811115612e5c57612e5b61409d565b5b03612e93576040517ff645eedf00000000000000000000000000000000000000000000000000000000815260040160405180910390fd5b60026003811115612ea757612ea661409d565b5b826003811115612eba57612eb961409d565b5b03612efe57805f1c6040517ffce698f7000000000000000000000000000000000000000000000000000000008152600401612ef59190614084565b60405180910390fd5b600380811115612f1157612f1061409d565b5b826003811115612f2457612f2361409d565b5b03612f6657806040517fd78bce0c000000000000000000000000000000000000000000000000000000008152600401612f5d9190614a68565b60405180910390fd5b5b5050565b612f84828260405180602001604052805f815250613759565b5050565b80600a5f8481526020019081526020015f209081612fa691906157ab565b507ff8e1a15aba9398e019f0b49df1a4fde98ee17ae345cb5f6b5e2c27f5033e8ce782604051612fd69190614084565b60405180910390a15050565b606060405180602001604052805f815250905090565b606061300382611cd7565b505f61300d612fe2565b90505f81511161302b5760405180602001604052805f815250613056565b8061303584613774565b6040516020016130469291906155eb565b6040516020818303038152906040525b915050919050565b5f7f8b73c3c69bb8fe3d512ecc4cf759cc79239f7b179b0ffacaa9a75d522b39400f7f00000000000000000000000000000000000000000000000000000000000000007f000000000000000000000000000000000000000000000000000000000000000046306040516020016130d895949392919061587a565b60405160208183030381529060405280519060200120905090565b5f7f780e9d63000000000000000000000000000000000000000000000000000000007bffffffffffffffffffffffffffffffffffffffffffffffffffffffff1916827bffffffffffffffffffffffffffffffffffffffffffffffffffffffff1916148061316557506131648261383e565b5b9050919050565b5f8061317784612967565b90505f73ffffffffffffffffffffffffffffffffffffffff168373ffffffffffffffffffffffffffffffffffffffff16146131b8576131b781848661391f565b5b5f73ffffffffffffffffffffffffffffffffffffffff168173ffffffffffffffffffffffffffffffffffffffff1614613243576131f75f855f806129a0565b600160035f8373ffffffffffffffffffffffffffffffffffffffff1673ffffffffffffffffffffffffffffffffffffffff1681526020019081526020015f205f82825403925050819055505b5f73ffffffffffffffffffffffffffffffffffffffff168573ffffffffffffffffffffffffffffffffffffffff16146132c257600160035f8773ffffffffffffffffffffffffffffffffffffffff1673ffffffffffffffffffffffffffffffffffffffff1681526020019081526020015f205f82825401925050819055505b8460025f8681526020019081526020015f205f6101000a81548173ffffffffffffffffffffffffffffffffffffffff021916908373ffffffffffffffffffffffffffffffffffffffff160217905550838573ffffffffffffffffffffffffffffffffffffffff168273ffffffffffffffffffffffffffffffffffffffff167fddf252ad1be2c89b69c2b068fc378daa952ba7f163c4a11628f55a4df523b3ef60405160405180910390a4809150509392505050565b60088054905060095f8381526020019081526020015f2081905550600881908060018154018082558091505060019003905f5260205f20015f909190919091505550565b5f6133c5836111fe565b90505f60075f8481526020019081526020015f205490505f60065f8673ffffffffffffffffffffffffffffffffffffffff1673ffffffffffffffffffffffffffffffffffffffff1681526020019081526020015f209050828214613464575f815f8581526020019081526020015f2054905080825f8581526020019081526020015f20819055508260075f8381526020019081526020015f2081905550505b60075f8581526020019081526020015f205f9055805f8481526020019081526020015f205f90555050505050565b5f60016008805490506134a591906153f4565b90505f60095f8481526020019081526020015f205490505f600883815481106134d1576134d0614b1c565b5b905f5260205f200154905080600883815481106134f1576134f0614b1c565b5b905f5260205f2001819055508160095f8381526020019081526020015f208190555060095f8581526020019081526020015f205f90556008805480613539576135386158cb565b5b600190038181905f5260205f20015f9055905550505050565b5f600161355e846111fe565b61356891906153f4565b90508160065f8573ffffffffffffffffffffffffffffffffffffffff1673ffffffffffffffffffffffffffffffffffffffff1681526020019081526020015f205f8381526020019081526020015f20819055508060075f8481526020019081526020015f2081905550505050565b60605f6135e2836139e2565b90505f602067ffffffffffffffff811115613600576135ff614847565b5b6040519080825280601f01601f1916602001820160405280156136325781602001600182028036833780820191505090505b5090508181528360208201528092505050919050565b5f81831061365f5761365a8284613a30565b61366a565b6136698383613a30565b5b905092915050565b5f805f7f7fffffffffffffffffffffffffffffff5d576e7357a4501ddfe92f46681b20a0845f1c11156136ae575f60038592509250925061374f565b5f6001888888886040515f81526020016040526040516136d19493929190615913565b6020604051602081039080840390855afa1580156136f1573d5f803e3d5ffd5b5050506020604051035190505f73ffffffffffffffffffffffffffffffffffffffff168173ffffffffffffffffffffffffffffffffffffffff1603613742575f60015f801b9350935093505061374f565b805f805f1b935093509350505b9450945094915050565b6137638383613a44565b61376f5f848484612594565b505050565b60605f600161378284613b37565b0190505f8167ffffffffffffffff8111156137a05761379f614847565b5b6040519080825280601f01601f1916602001820160405280156137d25781602001600182028036833780820191505090505b5090505f82602001820190505b600115613833578080600190039150507f3031323334353637383961626364656600000000000000000000000000000000600a86061a8153600a858161382857613827614bec565b5b0494505f85036137df575b819350505050919050565b5f7f80ac58cd000000000000000000000000000000000000000000000000000000007bffffffffffffffffffffffffffffffffffffffffffffffffffffffff1916827bffffffffffffffffffffffffffffffffffffffffffffffffffffffff1916148061390857507f5b5e139f000000000000000000000000000000000000000000000000000000007bffffffffffffffffffffffffffffffffffffffffffffffffffffffff1916827bffffffffffffffffffffffffffffffffffffffffffffffffffffffff1916145b80613918575061391782613c88565b5b9050919050565b61392a838383613cf1565b6139dd575f73ffffffffffffffffffffffffffffffffffffffff168373ffffffffffffffffffffffffffffffffffffffff160361399e57806040517f7e2732890000000000000000000000000000000000000000000000000000000081526004016139959190614084565b60405180910390fd5b81816040517f177e802f0000000000000000000000000000000000000000000000000000000081526004016139d492919061428d565b60405180910390fd5b505050565b5f8060ff835f1c169050601f811115613a27576040517fb3512b0c00000000000000000000000000000000000000000000000000000000815260040160405180910390fd5b80915050919050565b5f825f528160205260405f20905092915050565b5f73ffffffffffffffffffffffffffffffffffffffff168273ffffffffffffffffffffffffffffffffffffffff1603613ab4575f6040517f64a0ae92000000000000000000000000000000000000000000000000000000008152600401613aab9190613ff4565b60405180910390fd5b5f613ac083835f611ef6565b90505f73ffffffffffffffffffffffffffffffffffffffff168173ffffffffffffffffffffffffffffffffffffffff1614613b32575f6040517f73c6ac6e000000000000000000000000000000000000000000000000000000008152600401613b299190613ff4565b60405180910390fd5b505050565b5f805f90507a184f03e93ff9f4daa797ed6e38ed64bf6a1f0100000000000000008310613b93577a184f03e93ff9f4daa797ed6e38ed64bf6a1f0100000000000000008381613b8957613b88614bec565b5b0492506040810190505b6d04ee2d6d415b85acef81000000008310613bd0576d04ee2d6d415b85acef81000000008381613bc657613bc5614bec565b5b0492506020810190505b662386f26fc100008310613bff57662386f26fc100008381613bf557613bf4614bec565b5b0492506010810190505b6305f5e1008310613c28576305f5e1008381613c1e57613c1d614bec565b5b0492506008810190505b6127108310613c4d576127108381613c4357613c42614bec565b5b0492506004810190505b60648310613c705760648381613c6657613c65614bec565b5b0492506002810190505b600a8310613c7f576001810190505b80915050919050565b5f7f01ffc9a7000000000000000000000000000000000000000000000000000000007bffffffffffffffffffffffffffffffffffffffffffffffffffffffff1916827bffffffffffffffffffffffffffffffffffffffffffffffffffffffff1916149050919050565b5f8073ffffffffffffffffffffffffffffffffffffffff168373ffffffffffffffffffffffffffffffffffffffff1614158015613da857508273ffffffffffffffffffffffffffffffffffffffff168473ffffffffffffffffffffffffffffffffffffffff161480613d695750613d688484611a9e565b5b80613da757508273ffffffffffffffffffffffffffffffffffffffff16613d8f83611d5d565b73ffffffffffffffffffffffffffffffffffffffff16145b5b90509392505050565b6040518061010001604052805f6002811115613dd057613dcf61409d565b5b81526020015f81526020015f81526020015f81526020015f81526020015f81526020015f81526020015f80191681525090565b5f604051905090565b5f80fd5b5f80fd5b5f7fffffffff0000000000000000000000000000000000000000000000000000000082169050919050565b613e4881613e14565b8114613e52575f80fd5b50565b5f81359050613e6381613e3f565b92915050565b5f60208284031215613e7e57613e7d613e0c565b5b5f613e8b84828501613e55565b91505092915050565b5f8115159050919050565b613ea881613e94565b82525050565b5f602082019050613ec15f830184613e9f565b92915050565b5f81519050919050565b5f82825260208201905092915050565b8281835e5f83830152505050565b5f601f19601f8301169050919050565b5f613f0982613ec7565b613f138185613ed1565b9350613f23818560208601613ee1565b613f2c81613eef565b840191505092915050565b5f6020820190508181035f830152613f4f8184613eff565b905092915050565b5f819050919050565b613f6981613f57565b8114613f73575f80fd5b50565b5f81359050613f8481613f60565b92915050565b5f60208284031215613f9f57613f9e613e0c565b5b5f613fac84828501613f76565b91505092915050565b5f73ffffffffffffffffffffffffffffffffffffffff82169050919050565b5f613fde82613fb5565b9050919050565b613fee81613fd4565b82525050565b5f6020820190506140075f830184613fe5565b92915050565b61401681613fd4565b8114614020575f80fd5b50565b5f813590506140318161400d565b92915050565b5f806040838503121561404d5761404c613e0c565b5b5f61405a85828601614023565b925050602061406b85828601613f76565b9150509250929050565b61407e81613f57565b82525050565b5f6020820190506140975f830184614075565b92915050565b7f4e487b71000000000000000000000000000000000000000000000000000000005f52602160045260245ffd5b600381106140db576140da61409d565b5b50565b5f8190506140eb826140ca565b919050565b5f6140fa826140de565b9050919050565b61410a816140f0565b82525050565b61411981613f57565b82525050565b5f819050919050565b6141318161411f565b82525050565b61010082015f82015161414c5f850182614101565b50602082015161415f6020850182614110565b5060408201516141726040850182614110565b5060608201516141856060850182614110565b5060808201516141986080850182614110565b5060a08201516141ab60a0850182614110565b5060c08201516141be60c0850182614110565b5060e08201516141d160e0850182614128565b50505050565b5f610120820190506141eb5f830185614075565b6141f86020830184614137565b9392505050565b5f805f6060848603121561421657614215613e0c565b5b5f61422386828701614023565b935050602061423486828701614023565b925050604061424586828701613f76565b9150509250925092565b5f806040838503121561426557614264613e0c565b5b5f61427285828601613f76565b925050602061428385828601613f76565b9150509250929050565b5f6040820190506142a05f830185613fe5565b6142ad6020830184614075565b9392505050565b6142bd816140f0565b82525050565b6142cc8161411f565b82525050565b5f610100820190506142e65f83018b6142b4565b6142f3602083018a614075565b6143006040830189614075565b61430d6060830188614075565b61431a6080830187614075565b61432760a0830186614075565b61433460c0830185614075565b61434160e08301846142c3565b9998505050505050505050565b6003811061435a575f80fd5b50565b5f8135905061436b8161434e565b92915050565b61437a8161411f565b8114614384575f80fd5b50565b5f8135905061439581614371565b92915050565b5f805f805f805f60e0888a0312156143b6576143b5613e0c565b5b5f6143c38a828b0161435d565b97505060206143d48a828b01613f76565b96505060406143e58a828b01613f76565b95505060606143f68a828b01613f76565b94505060806144078a828b01613f76565b93505060a06144188a828b01613f76565b92505060c06144298a828b01614387565b91505092959891949750929550565b5f6020828403121561444d5761444c613e0c565b5b5f61445a84828501614023565b91505092915050565b5f81519050919050565b5f82825260208201905092915050565b5f819050602082019050919050565b5f6144978383614110565b60208301905092915050565b5f602082019050919050565b5f6144b982614463565b6144c3818561446d565b93506144ce8361447d565b805f5b838110156144fe5781516144e5888261448c565b97506144f0836144a3565b9250506001810190506144d1565b5085935050505092915050565b5f6020820190508181035f83015261452381846144af565b905092915050565b5f7fff0000000000000000000000000000000000000000000000000000000000000082169050919050565b61455f8161452b565b82525050565b5f60e0820190506145785f83018a614556565b818103602083015261458a8189613eff565b9050818103604083015261459e8188613eff565b90506145ad6060830187614075565b6145ba6080830186613fe5565b6145c760a08301856142c3565b81810360c08301526145d981846144af565b905098975050505050505050565b5f80fd5b5f80fd5b5f80fd5b5f8083601f840112614608576146076145e7565b5b8235905067ffffffffffffffff811115614625576146246145eb565b5b602083019150836001820283011115614641576146406145ef565b5b9250929050565b5f8083601f84011261465d5761465c6145e7565b5b8235905067ffffffffffffffff81111561467a576146796145eb565b5b602083019150836001820283011115614696576146956145ef565b5b9250929050565b5f8083601f8401126146b2576146b16145e7565b5b8235905067ffffffffffffffff8111156146cf576146ce6145eb565b5b6020830191508360208202830111156146eb576146ea6145ef565b5b9250929050565b5f805f805f805f805f60c08a8c03121561470f5761470e613e0c565b5b5f61471c8c828d01613f76565b99505060208a013567ffffffffffffffff81111561473d5761473c613e10565b5b6147498c828d016145f3565b9850985050604061475c8c828d01614387565b965050606061476d8c828d01613f76565b95505060808a013567ffffffffffffffff81111561478e5761478d613e10565b5b61479a8c828d01614648565b945094505060a08a013567ffffffffffffffff8111156147bd576147bc613e10565b5b6147c98c828d0161469d565b92509250509295985092959850929598565b6147e481613e94565b81146147ee575f80fd5b50565b5f813590506147ff816147db565b92915050565b5f806040838503121561481b5761481a613e0c565b5b5f61482885828601614023565b9250506020614839858286016147f1565b9150509250929050565b5f80fd5b7f4e487b71000000000000000000000000000000000000000000000000000000005f52604160045260245ffd5b61487d82613eef565b810181811067ffffffffffffffff8211171561489c5761489b614847565b5b80604052505050565b5f6148ae613e03565b90506148ba8282614874565b919050565b5f67ffffffffffffffff8211156148d9576148d8614847565b5b6148e282613eef565b9050602081019050919050565b828183375f83830152505050565b5f61490f61490a846148bf565b6148a5565b90508281526020810184848401111561492b5761492a614843565b5b6149368482856148ef565b509392505050565b5f82601f830112614952576149516145e7565b5b81356149628482602086016148fd565b91505092915050565b5f805f806080858703121561498357614982613e0c565b5b5f61499087828801614023565b94505060206149a187828801614023565b93505060406149b287828801613f76565b925050606085013567ffffffffffffffff8111156149d3576149d2613e10565b5b6149df8782880161493e565b91505092959194509250565b5f6bffffffffffffffffffffffff82169050919050565b614a0b816149eb565b82525050565b5f602082019050614a245f830184614a02565b92915050565b5f8060408385031215614a4057614a3f613e0c565b5b5f614a4d85828601614023565b9250506020614a5e85828601614023565b9150509250929050565b5f602082019050614a7b5f8301846142c3565b92915050565b5f8060408385031215614a9757614a96613e0c565b5b5f614aa485828601614023565b9250506020614ab58582860161435d565b9150509250929050565b7f4e487b71000000000000000000000000000000000000000000000000000000005f52602260045260245ffd5b5f6002820490506001821680614b0357607f821691505b602082108103614b1657614b15614abf565b5b50919050565b7f4e487b71000000000000000000000000000000000000000000000000000000005f52603260045260245ffd5b5f606082019050614b5c5f830186613fe5565b614b696020830185614075565b614b766040830184613fe5565b949350505050565b7f4e487b71000000000000000000000000000000000000000000000000000000005f52601160045260245ffd5b5f614bb582613f57565b9150614bc083613f57565b9250828202614bce81613f57565b91508282048414831517614be557614be4614b7e565b5b5092915050565b7f4e487b71000000000000000000000000000000000000000000000000000000005f52601260045260245ffd5b5f614c2382613f57565b9150614c2e83613f57565b925082614c3e57614c3d614bec565b5b828204905092915050565b7f496e76616c69642074696d652072616e676500000000000000000000000000005f82015250565b5f614c7d601283613ed1565b9150614c8882614c49565b602082019050919050565b5f6020820190508181035f830152614caa81614c71565b9050919050565b7f496e76616c6964206d6178207065722077616c6c657420666f72206e6f6e2d705f8201527f75626c6963207068617365000000000000000000000000000000000000000000602082015250565b5f614d0b602b83613ed1565b9150614d1682614cb1565b604082019050919050565b5f6020820190508181035f830152614d3881614cff565b9050919050565b7f4d65726b6c6520726f6f7420726571756972656420666f722077686974656c695f8201527f7374207068617365000000000000000000000000000000000000000000000000602082015250565b5f614d99602883613ed1565b9150614da482614d3f565b604082019050919050565b5f6020820190508181035f830152614dc681614d8d565b9050919050565b7f50686173652074696d65206f7665726c6170732077697468206578697374696e5f8201527f6720706861736500000000000000000000000000000000000000000000000000602082015250565b5f614e27602783613ed1565b9150614e3282614dcd565b604082019050919050565b5f6020820190508181035f830152614e5481614e1b565b9050919050565b5f604082019050614e6e5f8301856142b4565b614e7b6020830184614075565b9392505050565b5f8160601b9050919050565b5f614e9882614e82565b9050919050565b5f614ea982614e8e565b9050919050565b614ec1614ebc82613fd4565b614e9f565b82525050565b5f614ed28284614eb0565b60148201915081905092915050565b7f4e6f742077686974656c697374656420666f72207468697320706861736500005f82015250565b5f614f15601e83613ed1565b9150614f2082614ee1565b602082019050919050565b5f6020820190508181035f830152614f4281614f09565b9050919050565b5f614f5382613f57565b9150614f5e83613f57565b9250828201905080821115614f7657614f75614b7e565b5b92915050565b7f5369676e617475726520657870697265640000000000000000000000000000005f82015250565b5f614fb0601183613ed1565b9150614fbb82614f7c565b602082019050919050565b5f6020820190508181035f830152614fdd81614fa4565b9050919050565b7f5369676e617475726520616c72656164792075736564000000000000000000005f82015250565b5f615018601683613ed1565b915061502382614fe4565b602082019050919050565b5f6020820190508181035f8301526150458161500c565b9050919050565b5f81905092915050565b5f615061838561504c565b935061506e8385846148ef565b82840190509392505050565b5f615086828486615056565b91508190509392505050565b5f610100820190506150a65f83018b6142c3565b6150b3602083018a613fe5565b6150c06040830189614075565b6150cd60608301886142c3565b6150da6080830187614075565b6150e760a0830186614075565b6150f460c08301856142c3565b61510160e0830184614075565b9998505050505050505050565b7f496e76616c6964207369676e61747572650000000000000000000000000000005f82015250565b5f615142601183613ed1565b915061514d8261510e565b602082019050919050565b5f6020820190508181035f83015261516f81615136565b9050919050565b7f496e636f7272656374207061796d656e7420616d6f756e7400000000000000005f82015250565b5f6151aa601883613ed1565b91506151b582615176565b602082019050919050565b5f6020820190508181035f8301526151d78161519e565b9050919050565b7f506861736520737570706c79206c696d697420726561636865640000000000005f82015250565b5f615212601a83613ed1565b915061521d826151de565b602082019050919050565b5f6020820190508181035f83015261523f81615206565b9050919050565b7f57616c6c6574206c696d6974207265616368656420666f7220746869732070685f8201527f6173650000000000000000000000000000000000000000000000000000000000602082015250565b5f6152a0602383613ed1565b91506152ab82615246565b604082019050919050565b5f6020820190508181035f8301526152cd81615294565b9050919050565b5f6020820190506152e75f8301846142b4565b92915050565b7f4e6f2061637469766520706861736500000000000000000000000000000000005f82015250565b5f615321600f83613ed1565b915061532c826152ed565b602082019050919050565b5f6020820190508181035f83015261534e81615315565b9050919050565b50565b5f6153635f8361504c565b915061536e82615355565b5f82019050919050565b5f61538282615358565b9150819050919050565b7f506c6174666f726d20666565207472616e73666572206661696c6564000000005f82015250565b5f6153c0601c83613ed1565b91506153cb8261538c565b602082019050919050565b5f6020820190508181035f8301526153ed816153b4565b9050919050565b5f6153fe82613f57565b915061540983613f57565b925082820390508181111561542157615420614b7e565b5b92915050565b7f4f776e657220666565207472616e73666572206661696c6564000000000000005f82015250565b5f61545b601983613ed1565b915061546682615427565b602082019050919050565b5f6020820190508181035f8301526154888161544f565b9050919050565b5f61549982613f57565b91507fffffffffffffffffffffffffffffffffffffffffffffffffffffffffffffffff82036154cb576154ca614b7e565b5b600182019050919050565b5f81519050919050565b5f82825260208201905092915050565b5f6154fa826154d6565b61550481856154e0565b9350615514818560208601613ee1565b61551d81613eef565b840191505092915050565b5f60808201905061553b5f830187613fe5565b6155486020830186613fe5565b6155556040830185614075565b818103606083015261556781846154f0565b905095945050505050565b5f8151905061558081613e3f565b92915050565b5f6020828403121561559b5761559a613e0c565b5b5f6155a884828501615572565b91505092915050565b5f81905092915050565b5f6155c582613ec7565b6155cf81856155b1565b93506155df818560208601613ee1565b80840191505092915050565b5f6155f682856155bb565b915061560282846155bb565b91508190509392505050565b5f819050815f5260205f209050919050565b5f6020601f8301049050919050565b5f82821b905092915050565b5f6008830261566a7fffffffffffffffffffffffffffffffffffffffffffffffffffffffffffffffff8261562f565b615674868361562f565b95508019841693508086168417925050509392505050565b5f819050919050565b5f6156af6156aa6156a584613f57565b61568c565b613f57565b9050919050565b5f819050919050565b6156c883615695565b6156dc6156d4826156b6565b84845461563b565b825550505050565b5f90565b6156f06156e4565b6156fb8184846156bf565b505050565b5b8181101561571e576157135f826156e8565b600181019050615701565b5050565b601f821115615763576157348161560e565b61573d84615620565b8101602085101561574c578190505b61576061575885615620565b830182615700565b50505b505050565b5f82821c905092915050565b5f6157835f1984600802615768565b1980831691505092915050565b5f61579b8383615774565b9150826002028217905092915050565b6157b482613ec7565b67ffffffffffffffff8111156157cd576157cc614847565b5b6157d78254614aec565b6157e2828285615722565b5f60209050601f831160018114615813575f8415615801578287015190505b61580b8582615790565b865550615872565b601f1984166158218661560e565b5f5b8281101561584857848901518255600182019150602085019450602081019050615823565b868310156158655784890151615861601f891682615774565b8355505b6001600288020188555050505b505050505050565b5f60a08201905061588d5f8301886142c3565b61589a60208301876142c3565b6158a760408301866142c3565b6158b46060830185614075565b6158c16080830184613fe5565b9695505050505050565b7f4e487b71000000000000000000000000000000000000000000000000000000005f52603160045260245ffd5b5f60ff82169050919050565b61590d816158f8565b82525050565b5f6080820190506159265f8301876142c3565b6159336020830186615904565b61594060408301856142c3565b61594d60608301846142c3565b9594505050505056fea264697066735822122016c27e3c2652a2df2ab7efdfbbb3c0d2821ee24fd8debf25892c3ebb3fc6dd9464736f6c634300081a0033",
      "opcodes": "PUSH2 0x1A0 PUSH1 0x40 MSTORE CALLVALUE DUP1 ISZERO PUSH2 0x10 JUMPI PUSH0 DUP1 REVERT JUMPDEST POP PUSH1 0x40 MLOAD PUSH2 0x6998 CODESIZE SUB DUP1 PUSH2 0x6998 DUP4 CODECOPY DUP2 DUP2 ADD PUSH1 0x40 MSTORE DUP2 ADD SWAP1 PUSH2 0x32 SWAP2 SWAP1 PUSH2 0x9D3 JUMP JUMPDEST PUSH1 0x40 MLOAD DUP1 PUSH1 0x40 ADD PUSH1 0x40 MSTORE DUP1 PUSH1 0xA DUP2 MSTORE PUSH1 0x20 ADD PUSH32 0x556E69666965644E465400000000000000000000000000000000000000000000 DUP2 MSTORE POP PUSH1 0x40 MLOAD DUP1 PUSH1 0x40 ADD PUSH1 0x40 MSTORE DUP1 PUSH1 0x1 DUP2 MSTORE PUSH1 0x20 ADD PUSH32 0x3100000000000000000000000000000000000000000000000000000000000000 DUP2 MSTORE POP DUP9 DUP9 DUP9 DUP2 PUSH0 SWAP1 DUP2 PUSH2 0xAF SWAP2 SWAP1 PUSH2 0xCB5 JUMP JUMPDEST POP DUP1 PUSH1 0x1 SWAP1 DUP2 PUSH2 0xBF SWAP2 SWAP1 PUSH2 0xCB5 JUMP JUMPDEST POP POP POP PUSH0 PUSH20 0xFFFFFFFFFFFFFFFFFFFFFFFFFFFFFFFFFFFFFFFF AND DUP2 PUSH20 0xFFFFFFFFFFFFFFFFFFFFFFFFFFFFFFFFFFFFFFFF AND SUB PUSH2 0x132 JUMPI PUSH0 PUSH1 0x40 MLOAD PUSH32 0x1E4FBDF700000000000000000000000000000000000000000000000000000000 DUP2 MSTORE PUSH1 0x4 ADD PUSH2 0x129 SWAP2 SWAP1 PUSH2 0xD93 JUMP JUMPDEST PUSH1 0x40 MLOAD DUP1 SWAP2 SUB SWAP1 REVERT JUMPDEST PUSH2 0x141 DUP2 PUSH2 0x469 PUSH1 0x20 SHL PUSH1 0x20 SHR JUMP JUMPDEST POP PUSH2 0x156 PUSH1 0xE DUP4 PUSH2 0x52C PUSH1 0x20 SHL SWAP1 SWAP2 SWAP1 PUSH1 0x20 SHR JUMP JUMPDEST PUSH2 0x120 DUP2 DUP2 MSTORE POP POP PUSH2 0x172 PUSH1 0xF DUP3 PUSH2 0x52C PUSH1 0x20 SHL SWAP1 SWAP2 SWAP1 PUSH1 0x20 SHR JUMP JUMPDEST PUSH2 0x140 DUP2 DUP2 MSTORE POP POP DUP2 DUP1 MLOAD SWAP1 PUSH1 0x20 ADD KECCAK256 PUSH1 0xE0 DUP2 DUP2 MSTORE POP POP DUP1 DUP1 MLOAD SWAP1 PUSH1 0x20 ADD KECCAK256 PUSH2 0x100 DUP2 DUP2 MSTORE POP POP CHAINID PUSH1 0xA0 DUP2 DUP2 MSTORE POP POP PUSH2 0x1AF PUSH2 0x579 PUSH1 0x20 SHL PUSH1 0x20 SHR JUMP JUMPDEST PUSH1 0x80 DUP2 DUP2 MSTORE POP POP ADDRESS PUSH20 0xFFFFFFFFFFFFFFFFFFFFFFFFFFFFFFFFFFFFFFFF AND PUSH1 0xC0 DUP2 PUSH20 0xFFFFFFFFFFFFFFFFFFFFFFFFFFFFFFFFFFFFFFFF AND DUP2 MSTORE POP POP POP POP PUSH2 0x3E8 DUP5 PUSH12 0xFFFFFFFFFFFFFFFFFFFFFFFF AND GT ISZERO DUP1 ISZERO PUSH2 0x21C JUMPI POP PUSH2 0x3E8 DUP4 PUSH12 0xFFFFFFFFFFFFFFFFFFFFFFFF AND GT ISZERO JUMPDEST DUP1 ISZERO PUSH2 0x254 JUMPI POP PUSH0 PUSH20 0xFFFFFFFFFFFFFFFFFFFFFFFFFFFFFFFFFFFFFFFF AND DUP3 PUSH20 0xFFFFFFFFFFFFFFFFFFFFFFFFFFFFFFFFFFFFFFFF AND EQ ISZERO JUMPDEST DUP1 ISZERO PUSH2 0x28C JUMPI POP PUSH0 PUSH20 0xFFFFFFFFFFFFFFFFFFFFFFFFFFFFFFFFFFFFFFFF AND DUP2 PUSH20 0xFFFFFFFFFFFFFFFFFFFFFFFFFFFFFFFFFFFFFFFF AND EQ ISZERO JUMPDEST PUSH2 0x294 JUMPI PUSH0 DUP1 REVERT JUMPDEST DUP1 PUSH20 0xFFFFFFFFFFFFFFFFFFFFFFFFFFFFFFFFFFFFFFFF AND PUSH2 0x160 DUP2 PUSH20 0xFFFFFFFFFFFFFFFFFFFFFFFFFFFFFFFFFFFFFFFF AND DUP2 MSTORE POP POP DUP4 PUSH12 0xFFFFFFFFFFFFFFFFFFFFFFFF AND PUSH2 0x180 DUP2 PUSH12 0xFFFFFFFFFFFFFFFFFFFFFFFF AND DUP2 MSTORE POP POP DUP3 PUSH1 0x15 PUSH0 PUSH2 0x100 EXP DUP2 SLOAD DUP2 PUSH12 0xFFFFFFFFFFFFFFFFFFFFFFFF MUL NOT AND SWAP1 DUP4 PUSH12 0xFFFFFFFFFFFFFFFFFFFFFFFF AND MUL OR SWAP1 SSTORE POP DUP2 PUSH1 0x15 PUSH1 0xC PUSH2 0x100 EXP DUP2 SLOAD DUP2 PUSH20 0xFFFFFFFFFFFFFFFFFFFFFFFFFFFFFFFFFFFFFFFF MUL NOT AND SWAP1 DUP4 PUSH20 0xFFFFFFFFFFFFFFFFFFFFFFFFFFFFFFFFFFFFFFFF AND MUL OR SWAP1 SSTORE POP PUSH2 0x372 DUP8 PUSH2 0x180 MLOAD PUSH2 0x5D3 PUSH1 0x20 SHL PUSH1 0x20 SHR JUMP JUMPDEST PUSH1 0x12 PUSH1 0x40 MLOAD DUP1 PUSH2 0x100 ADD PUSH1 0x40 MSTORE DUP1 PUSH0 PUSH1 0x2 DUP2 GT ISZERO PUSH2 0x393 JUMPI PUSH2 0x392 PUSH2 0xDAC JUMP JUMPDEST JUMPDEST DUP2 MSTORE PUSH1 0x20 ADD PUSH0 DUP2 MSTORE PUSH1 0x20 ADD PUSH0 DUP2 MSTORE PUSH1 0x20 ADD PUSH0 DUP2 MSTORE PUSH1 0x20 ADD PUSH0 DUP2 MSTORE PUSH1 0x20 ADD PUSH0 DUP2 MSTORE PUSH1 0x20 ADD PUSH0 DUP2 MSTORE PUSH1 0x20 ADD PUSH0 DUP1 SHL DUP2 MSTORE POP SWAP1 DUP1 PUSH1 0x1 DUP2 SLOAD ADD DUP1 DUP3 SSTORE DUP1 SWAP2 POP POP PUSH1 0x1 SWAP1 SUB SWAP1 PUSH0 MSTORE PUSH1 0x20 PUSH0 KECCAK256 SWAP1 PUSH1 0x8 MUL ADD PUSH0 SWAP1 SWAP2 SWAP1 SWAP2 SWAP1 SWAP2 POP PUSH0 DUP3 ADD MLOAD DUP2 PUSH0 ADD PUSH0 PUSH2 0x100 EXP DUP2 SLOAD DUP2 PUSH1 0xFF MUL NOT AND SWAP1 DUP4 PUSH1 0x2 DUP2 GT ISZERO PUSH2 0x410 JUMPI PUSH2 0x40F PUSH2 0xDAC JUMP JUMPDEST JUMPDEST MUL OR SWAP1 SSTORE POP PUSH1 0x20 DUP3 ADD MLOAD DUP2 PUSH1 0x1 ADD SSTORE PUSH1 0x40 DUP3 ADD MLOAD DUP2 PUSH1 0x2 ADD SSTORE PUSH1 0x60 DUP3 ADD MLOAD DUP2 PUSH1 0x3 ADD SSTORE PUSH1 0x80 DUP3 ADD MLOAD DUP2 PUSH1 0x4 ADD SSTORE PUSH1 0xA0 DUP3 ADD MLOAD DUP2 PUSH1 0x5 ADD SSTORE PUSH1 0xC0 DUP3 ADD MLOAD DUP2 PUSH1 0x6 ADD SSTORE PUSH1 0xE0 DUP3 ADD MLOAD DUP2 PUSH1 0x7 ADD SSTORE POP POP POP POP POP POP POP POP POP PUSH2 0xFA3 JUMP JUMPDEST PUSH0 PUSH1 0xD PUSH0 SWAP1 SLOAD SWAP1 PUSH2 0x100 EXP SWAP1 DIV PUSH20 0xFFFFFFFFFFFFFFFFFFFFFFFFFFFFFFFFFFFFFFFF AND SWAP1 POP DUP2 PUSH1 0xD PUSH0 PUSH2 0x100 EXP DUP2 SLOAD DUP2 PUSH20 0xFFFFFFFFFFFFFFFFFFFFFFFFFFFFFFFFFFFFFFFF MUL NOT AND SWAP1 DUP4 PUSH20 0xFFFFFFFFFFFFFFFFFFFFFFFFFFFFFFFFFFFFFFFF AND MUL OR SWAP1 SSTORE POP DUP2 PUSH20 0xFFFFFFFFFFFFFFFFFFFFFFFFFFFFFFFFFFFFFFFF AND DUP2 PUSH20 0xFFFFFFFFFFFFFFFFFFFFFFFFFFFFFFFFFFFFFFFF AND PUSH32 0x8BE0079C531659141344CD1FD0A4F28419497F9722A3DAAFE3B4186F6B6457E0 PUSH1 0x40 MLOAD PUSH1 0x40 MLOAD DUP1 SWAP2 SUB SWAP1 LOG3 POP POP JUMP JUMPDEST PUSH0 PUSH1 0x20 DUP4 MLOAD LT ISZERO PUSH2 0x54D JUMPI PUSH2 0x546 DUP4 PUSH2 0x774 PUSH1 0x20 SHL PUSH1 0x20 SHR JUMP JUMPDEST SWAP1 POP PUSH2 0x573 JUMP JUMPDEST DUP3 PUSH2 0x55D DUP4 PUSH2 0x7D9 PUSH1 0x20 SHL PUSH1 0x20 SHR JUMP JUMPDEST PUSH0 ADD SWAP1 DUP2 PUSH2 0x56B SWAP2 SWAP1 PUSH2 0xCB5 JUMP JUMPDEST POP PUSH1 0xFF PUSH0 SHL SWAP1 POP JUMPDEST SWAP3 SWAP2 POP POP JUMP JUMPDEST PUSH0 PUSH32 0x8B73C3C69BB8FE3D512ECC4CF759CC79239F7B179B0FFACAA9A75D522B39400F PUSH1 0xE0 MLOAD PUSH2 0x100 MLOAD CHAINID ADDRESS PUSH1 0x40 MLOAD PUSH1 0x20 ADD PUSH2 0x5B8 SWAP6 SWAP5 SWAP4 SWAP3 SWAP2 SWAP1 PUSH2 0xE00 JUMP JUMPDEST PUSH1 0x40 MLOAD PUSH1 0x20 DUP2 DUP4 SUB SUB DUP2 MSTORE SWAP1 PUSH1 0x40 MSTORE DUP1 MLOAD SWAP1 PUSH1 0x20 ADD KECCAK256 SWAP1 POP SWAP1 JUMP JUMPDEST PUSH0 PUSH2 0x5E2 PUSH2 0x7E2 PUSH1 0x20 SHL PUSH1 0x20 SHR JUMP JUMPDEST PUSH12 0xFFFFFFFFFFFFFFFFFFFFFFFF AND SWAP1 POP DUP1 DUP3 PUSH12 0xFFFFFFFFFFFFFFFFFFFFFFFF AND GT ISZERO PUSH2 0x647 JUMPI DUP2 DUP2 PUSH1 0x40 MLOAD PUSH32 0x6F483D0900000000000000000000000000000000000000000000000000000000 DUP2 MSTORE PUSH1 0x4 ADD PUSH2 0x63E SWAP3 SWAP2 SWAP1 PUSH2 0xE81 JUMP JUMPDEST PUSH1 0x40 MLOAD DUP1 SWAP2 SUB SWAP1 REVERT JUMPDEST PUSH0 PUSH20 0xFFFFFFFFFFFFFFFFFFFFFFFFFFFFFFFFFFFFFFFF AND DUP4 PUSH20 0xFFFFFFFFFFFFFFFFFFFFFFFFFFFFFFFFFFFFFFFF AND SUB PUSH2 0x6B7 JUMPI PUSH0 PUSH1 0x40 MLOAD PUSH32 0xB6D9900A00000000000000000000000000000000000000000000000000000000 DUP2 MSTORE PUSH1 0x4 ADD PUSH2 0x6AE SWAP2 SWAP1 PUSH2 0xD93 JUMP JUMPDEST PUSH1 0x40 MLOAD DUP1 SWAP2 SUB SWAP1 REVERT JUMPDEST PUSH1 0x40 MLOAD DUP1 PUSH1 0x40 ADD PUSH1 0x40 MSTORE DUP1 DUP5 PUSH20 0xFFFFFFFFFFFFFFFFFFFFFFFFFFFFFFFFFFFFFFFF AND DUP2 MSTORE PUSH1 0x20 ADD DUP4 PUSH12 0xFFFFFFFFFFFFFFFFFFFFFFFF AND DUP2 MSTORE POP PUSH1 0xB PUSH0 DUP3 ADD MLOAD DUP2 PUSH0 ADD PUSH0 PUSH2 0x100 EXP DUP2 SLOAD DUP2 PUSH20 0xFFFFFFFFFFFFFFFFFFFFFFFFFFFFFFFFFFFFFFFF MUL NOT AND SWAP1 DUP4 PUSH20 0xFFFFFFFFFFFFFFFFFFFFFFFFFFFFFFFFFFFFFFFF AND MUL OR SWAP1 SSTORE POP PUSH1 0x20 DUP3 ADD MLOAD DUP2 PUSH0 ADD PUSH1 0x14 PUSH2 0x100 EXP DUP2 SLOAD DUP2 PUSH12 0xFFFFFFFFFFFFFFFFFFFFFFFF MUL NOT AND SWAP1 DUP4 PUSH12 0xFFFFFFFFFFFFFFFFFFFFFFFF AND MUL OR SWAP1 SSTORE POP SWAP1 POP POP POP POP POP JUMP JUMPDEST PUSH0 DUP1 DUP3 SWAP1 POP PUSH1 0x1F DUP2 MLOAD GT ISZERO PUSH2 0x7C0 JUMPI DUP3 PUSH1 0x40 MLOAD PUSH32 0x305A27A900000000000000000000000000000000000000000000000000000000 DUP2 MSTORE PUSH1 0x4 ADD PUSH2 0x7B7 SWAP2 SWAP1 PUSH2 0xEF0 JUMP JUMPDEST PUSH1 0x40 MLOAD DUP1 SWAP2 SUB SWAP1 REVERT JUMPDEST DUP1 MLOAD DUP2 PUSH2 0x7CC SWAP1 PUSH2 0xF3D JUMP JUMPDEST PUSH0 SHR OR PUSH0 SHL SWAP2 POP POP SWAP2 SWAP1 POP JUMP JUMPDEST PUSH0 DUP2 SWAP1 POP SWAP2 SWAP1 POP JUMP JUMPDEST PUSH0 PUSH2 0x2710 SWAP1 POP SWAP1 JUMP JUMPDEST PUSH0 PUSH1 0x40 MLOAD SWAP1 POP SWAP1 JUMP JUMPDEST PUSH0 DUP1 REVERT JUMPDEST PUSH0 DUP1 REVERT JUMPDEST PUSH0 PUSH20 0xFFFFFFFFFFFFFFFFFFFFFFFFFFFFFFFFFFFFFFFF DUP3 AND SWAP1 POP SWAP2 SWAP1 POP JUMP JUMPDEST PUSH0 PUSH2 0x825 DUP3 PUSH2 0x7FC JUMP JUMPDEST SWAP1 POP SWAP2 SWAP1 POP JUMP JUMPDEST PUSH2 0x835 DUP2 PUSH2 0x81B JUMP JUMPDEST DUP2 EQ PUSH2 0x83F JUMPI PUSH0 DUP1 REVERT JUMPDEST POP JUMP JUMPDEST PUSH0 DUP2 MLOAD SWAP1 POP PUSH2 0x850 DUP2 PUSH2 0x82C JUMP JUMPDEST SWAP3 SWAP2 POP POP JUMP JUMPDEST PUSH0 DUP1 REVERT JUMPDEST PUSH0 DUP1 REVERT JUMPDEST PUSH0 PUSH1 0x1F NOT PUSH1 0x1F DUP4 ADD AND SWAP1 POP SWAP2 SWAP1 POP JUMP JUMPDEST PUSH32 0x4E487B7100000000000000000000000000000000000000000000000000000000 PUSH0 MSTORE PUSH1 0x41 PUSH1 0x4 MSTORE PUSH1 0x24 PUSH0 REVERT JUMPDEST PUSH2 0x8A4 DUP3 PUSH2 0x85E JUMP JUMPDEST DUP2 ADD DUP2 DUP2 LT PUSH8 0xFFFFFFFFFFFFFFFF DUP3 GT OR ISZERO PUSH2 0x8C3 JUMPI PUSH2 0x8C2 PUSH2 0x86E JUMP JUMPDEST JUMPDEST DUP1 PUSH1 0x40 MSTORE POP POP POP JUMP JUMPDEST PUSH0 PUSH2 0x8D5 PUSH2 0x7EB JUMP JUMPDEST SWAP1 POP PUSH2 0x8E1 DUP3 DUP3 PUSH2 0x89B JUMP JUMPDEST SWAP2 SWAP1 POP JUMP JUMPDEST PUSH0 PUSH8 0xFFFFFFFFFFFFFFFF DUP3 GT ISZERO PUSH2 0x900 JUMPI PUSH2 0x8FF PUSH2 0x86E JUMP JUMPDEST JUMPDEST PUSH2 0x909 DUP3 PUSH2 0x85E JUMP JUMPDEST SWAP1 POP PUSH1 0x20 DUP2 ADD SWAP1 POP SWAP2 SWAP1 POP JUMP JUMPDEST DUP3 DUP2 DUP4 MCOPY PUSH0 DUP4 DUP4 ADD MSTORE POP POP POP JUMP JUMPDEST PUSH0 PUSH2 0x936 PUSH2 0x931 DUP5 PUSH2 0x8E6 JUMP JUMPDEST PUSH2 0x8CC JUMP JUMPDEST SWAP1 POP DUP3 DUP2 MSTORE PUSH1 0x20 DUP2 ADD DUP5 DUP5 DUP5 ADD GT ISZERO PUSH2 0x952 JUMPI PUSH2 0x951 PUSH2 0x85A JUMP JUMPDEST JUMPDEST PUSH2 0x95D DUP5 DUP3 DUP6 PUSH2 0x916 JUMP JUMPDEST POP SWAP4 SWAP3 POP POP POP JUMP JUMPDEST PUSH0 DUP3 PUSH1 0x1F DUP4 ADD SLT PUSH2 0x979 JUMPI PUSH2 0x978 PUSH2 0x856 JUMP JUMPDEST JUMPDEST DUP2 MLOAD PUSH2 0x989 DUP5 DUP3 PUSH1 0x20 DUP7 ADD PUSH2 0x924 JUMP JUMPDEST SWAP2 POP POP SWAP3 SWAP2 POP POP JUMP JUMPDEST PUSH0 PUSH12 0xFFFFFFFFFFFFFFFFFFFFFFFF DUP3 AND SWAP1 POP SWAP2 SWAP1 POP JUMP JUMPDEST PUSH2 0x9B2 DUP2 PUSH2 0x992 JUMP JUMPDEST DUP2 EQ PUSH2 0x9BC JUMPI PUSH0 DUP1 REVERT JUMPDEST POP JUMP JUMPDEST PUSH0 DUP2 MLOAD SWAP1 POP PUSH2 0x9CD DUP2 PUSH2 0x9A9 JUMP JUMPDEST SWAP3 SWAP2 POP POP JUMP JUMPDEST PUSH0 DUP1 PUSH0 DUP1 PUSH0 DUP1 PUSH0 PUSH1 0xE0 DUP9 DUP11 SUB SLT ISZERO PUSH2 0x9EE JUMPI PUSH2 0x9ED PUSH2 0x7F4 JUMP JUMPDEST JUMPDEST PUSH0 PUSH2 0x9FB DUP11 DUP3 DUP12 ADD PUSH2 0x842 JUMP JUMPDEST SWAP8 POP POP PUSH1 0x20 DUP9 ADD MLOAD PUSH8 0xFFFFFFFFFFFFFFFF DUP2 GT ISZERO PUSH2 0xA1C JUMPI PUSH2 0xA1B PUSH2 0x7F8 JUMP JUMPDEST JUMPDEST PUSH2 0xA28 DUP11 DUP3 DUP12 ADD PUSH2 0x965 JUMP JUMPDEST SWAP7 POP POP PUSH1 0x40 DUP9 ADD MLOAD PUSH8 0xFFFFFFFFFFFFFFFF DUP2 GT ISZERO PUSH2 0xA49 JUMPI PUSH2 0xA48 PUSH2 0x7F8 JUMP JUMPDEST JUMPDEST PUSH2 0xA55 DUP11 DUP3 DUP12 ADD PUSH2 0x965 JUMP JUMPDEST SWAP6 POP POP PUSH1 0x60 PUSH2 0xA66 DUP11 DUP3 DUP12 ADD PUSH2 0x9BF JUMP JUMPDEST SWAP5 POP POP PUSH1 0x80 PUSH2 0xA77 DUP11 DUP3 DUP12 ADD PUSH2 0x9BF JUMP JUMPDEST SWAP4 POP POP PUSH1 0xA0 PUSH2 0xA88 DUP11 DUP3 DUP12 ADD PUSH2 0x842 JUMP JUMPDEST SWAP3 POP POP PUSH1 0xC0 PUSH2 0xA99 DUP11 DUP3 DUP12 ADD PUSH2 0x842 JUMP JUMPDEST SWAP2 POP POP SWAP3 SWAP6 SWAP9 SWAP2 SWAP5 SWAP8 POP SWAP3 SWAP6 POP JUMP JUMPDEST PUSH0 DUP2 MLOAD SWAP1 POP SWAP2 SWAP1 POP JUMP JUMPDEST PUSH32 0x4E487B7100000000000000000000000000000000000000000000000000000000 PUSH0 MSTORE PUSH1 0x22 PUSH1 0x4 MSTORE PUSH1 0x24 PUSH0 REVERT JUMPDEST PUSH0 PUSH1 0x2 DUP3 DIV SWAP1 POP PUSH1 0x1 DUP3 AND DUP1 PUSH2 0xAF6 JUMPI PUSH1 0x7F DUP3 AND SWAP2 POP JUMPDEST PUSH1 0x20 DUP3 LT DUP2 SUB PUSH2 0xB09 JUMPI PUSH2 0xB08 PUSH2 0xAB2 JUMP JUMPDEST JUMPDEST POP SWAP2 SWAP1 POP JUMP JUMPDEST PUSH0 DUP2 SWAP1 POP DUP2 PUSH0 MSTORE PUSH1 0x20 PUSH0 KECCAK256 SWAP1 POP SWAP2 SWAP1 POP JUMP JUMPDEST PUSH0 PUSH1 0x20 PUSH1 0x1F DUP4 ADD DIV SWAP1 POP SWAP2 SWAP1 POP JUMP JUMPDEST PUSH0 DUP3 DUP3 SHL SWAP1 POP SWAP3 SWAP2 POP POP JUMP JUMPDEST PUSH0 PUSH1 0x8 DUP4 MUL PUSH2 0xB6B PUSH32 0xFFFFFFFFFFFFFFFFFFFFFFFFFFFFFFFFFFFFFFFFFFFFFFFFFFFFFFFFFFFFFFFF DUP3 PUSH2 0xB30 JUMP JUMPDEST PUSH2 0xB75 DUP7 DUP4 PUSH2 0xB30 JUMP JUMPDEST SWAP6 POP DUP1 NOT DUP5 AND SWAP4 POP DUP1 DUP7 AND DUP5 OR SWAP3 POP POP POP SWAP4 SWAP3 POP POP POP JUMP JUMPDEST PUSH0 DUP2 SWAP1 POP SWAP2 SWAP1 POP JUMP JUMPDEST PUSH0 DUP2 SWAP1 POP SWAP2 SWAP1 POP JUMP JUMPDEST PUSH0 PUSH2 0xBB9 PUSH2 0xBB4 PUSH2 0xBAF DUP5 PUSH2 0xB8D JUMP JUMPDEST PUSH2 0xB96 JUMP JUMPDEST PUSH2 0xB8D JUMP JUMPDEST SWAP1 POP SWAP2 SWAP1 POP JUMP JUMPDEST PUSH0 DUP2 SWAP1 POP SWAP2 SWAP1 POP JUMP JUMPDEST PUSH2 0xBD2 DUP4 PUSH2 0xB9F JUMP JUMPDEST PUSH2 0xBE6 PUSH2 0xBDE DUP3 PUSH2 0xBC0 JUMP JUMPDEST DUP5 DUP5 SLOAD PUSH2 0xB3C JUMP JUMPDEST DUP3 SSTORE POP POP POP POP JUMP JUMPDEST PUSH0 SWAP1 JUMP JUMPDEST PUSH2 0xBFA PUSH2 0xBEE JUMP JUMPDEST PUSH2 0xC05 DUP2 DUP5 DUP5 PUSH2 0xBC9 JUMP JUMPDEST POP POP POP JUMP JUMPDEST JUMPDEST DUP2 DUP2 LT ISZERO PUSH2 0xC28 JUMPI PUSH2 0xC1D PUSH0 DUP3 PUSH2 0xBF2 JUMP JUMPDEST PUSH1 0x1 DUP2 ADD SWAP1 POP PUSH2 0xC0B JUMP JUMPDEST POP POP JUMP JUMPDEST PUSH1 0x1F DUP3 GT ISZERO PUSH2 0xC6D JUMPI PUSH2 0xC3E DUP2 PUSH2 0xB0F JUMP JUMPDEST PUSH2 0xC47 DUP5 PUSH2 0xB21 JUMP JUMPDEST DUP2 ADD PUSH1 0x20 DUP6 LT ISZERO PUSH2 0xC56 JUMPI DUP2 SWAP1 POP JUMPDEST PUSH2 0xC6A PUSH2 0xC62 DUP6 PUSH2 0xB21 JUMP JUMPDEST DUP4 ADD DUP3 PUSH2 0xC0A JUMP JUMPDEST POP POP JUMPDEST POP POP POP JUMP JUMPDEST PUSH0 DUP3 DUP3 SHR SWAP1 POP SWAP3 SWAP2 POP POP JUMP JUMPDEST PUSH0 PUSH2 0xC8D PUSH0 NOT DUP5 PUSH1 0x8 MUL PUSH2 0xC72 JUMP JUMPDEST NOT DUP1 DUP4 AND SWAP2 POP POP SWAP3 SWAP2 POP POP JUMP JUMPDEST PUSH0 PUSH2 0xCA5 DUP4 DUP4 PUSH2 0xC7E JUMP JUMPDEST SWAP2 POP DUP3 PUSH1 0x2 MUL DUP3 OR SWAP1 POP SWAP3 SWAP2 POP POP JUMP JUMPDEST PUSH2 0xCBE DUP3 PUSH2 0xAA8 JUMP JUMPDEST PUSH8 0xFFFFFFFFFFFFFFFF DUP2 GT ISZERO PUSH2 0xCD7 JUMPI PUSH2 0xCD6 PUSH2 0x86E JUMP JUMPDEST JUMPDEST PUSH2 0xCE1 DUP3 SLOAD PUSH2 0xADF JUMP JUMPDEST PUSH2 0xCEC DUP3 DUP3 DUP6 PUSH2 0xC2C JUMP JUMPDEST PUSH0 PUSH1 0x20 SWAP1 POP PUSH1 0x1F DUP4 GT PUSH1 0x1 DUP2 EQ PUSH2 0xD1D JUMPI PUSH0 DUP5 ISZERO PUSH2 0xD0B JUMPI DUP3 DUP8 ADD MLOAD SWAP1 POP JUMPDEST PUSH2 0xD15 DUP6 DUP3 PUSH2 0xC9A JUMP JUMPDEST DUP7 SSTORE POP PUSH2 0xD7C JUMP JUMPDEST PUSH1 0x1F NOT DUP5 AND PUSH2 0xD2B DUP7 PUSH2 0xB0F JUMP JUMPDEST PUSH0 JUMPDEST DUP3 DUP2 LT ISZERO PUSH2 0xD52 JUMPI DUP5 DUP10 ADD MLOAD DUP3 SSTORE PUSH1 0x1 DUP3 ADD SWAP2 POP PUSH1 0x20 DUP6 ADD SWAP5 POP PUSH1 0x20 DUP2 ADD SWAP1 POP PUSH2 0xD2D JUMP JUMPDEST DUP7 DUP4 LT ISZERO PUSH2 0xD6F JUMPI DUP5 DUP10 ADD MLOAD PUSH2 0xD6B PUSH1 0x1F DUP10 AND DUP3 PUSH2 0xC7E JUMP JUMPDEST DUP4 SSTORE POP JUMPDEST PUSH1 0x1 PUSH1 0x2 DUP9 MUL ADD DUP9 SSTORE POP POP POP JUMPDEST POP POP POP POP POP POP JUMP JUMPDEST PUSH2 0xD8D DUP2 PUSH2 0x81B JUMP JUMPDEST DUP3 MSTORE POP POP JUMP JUMPDEST PUSH0 PUSH1 0x20 DUP3 ADD SWAP1 POP PUSH2 0xDA6 PUSH0 DUP4 ADD DUP5 PUSH2 0xD84 JUMP JUMPDEST SWAP3 SWAP2 POP POP JUMP JUMPDEST PUSH32 0x4E487B7100000000000000000000000000000000000000000000000000000000 PUSH0 MSTORE PUSH1 0x21 PUSH1 0x4 MSTORE PUSH1 0x24 PUSH0 REVERT JUMPDEST PUSH0 DUP2 SWAP1 POP SWAP2 SWAP1 POP JUMP JUMPDEST PUSH2 0xDEB DUP2 PUSH2 0xDD9 JUMP JUMPDEST DUP3 MSTORE POP POP JUMP JUMPDEST PUSH2 0xDFA DUP2 PUSH2 0xB8D JUMP JUMPDEST DUP3 MSTORE POP POP JUMP JUMPDEST PUSH0 PUSH1 0xA0 DUP3 ADD SWAP1 POP PUSH2 0xE13 PUSH0 DUP4 ADD DUP9 PUSH2 0xDE2 JUMP JUMPDEST PUSH2 0xE20 PUSH1 0x20 DUP4 ADD DUP8 PUSH2 0xDE2 JUMP JUMPDEST PUSH2 0xE2D PUSH1 0x40 DUP4 ADD DUP7 PUSH2 0xDE2 JUMP JUMPDEST PUSH2 0xE3A PUSH1 0x60 DUP4 ADD DUP6 PUSH2 0xDF1 JUMP JUMPDEST PUSH2 0xE47 PUSH1 0x80 DUP4 ADD DUP5 PUSH2 0xD84 JUMP JUMPDEST SWAP7 SWAP6 POP POP POP POP POP POP JUMP JUMPDEST PUSH0 PUSH2 0xE6B PUSH2 0xE66 PUSH2 0xE61 DUP5 PUSH2 0x992 JUMP JUMPDEST PUSH2 0xB96 JUMP JUMPDEST PUSH2 0xB8D JUMP JUMPDEST SWAP1 POP SWAP2 SWAP1 POP JUMP JUMPDEST PUSH2 0xE7B DUP2 PUSH2 0xE51 JUMP JUMPDEST DUP3 MSTORE POP POP JUMP JUMPDEST PUSH0 PUSH1 0x40 DUP3 ADD SWAP1 POP PUSH2 0xE94 PUSH0 DUP4 ADD DUP6 PUSH2 0xE72 JUMP JUMPDEST PUSH2 0xEA1 PUSH1 0x20 DUP4 ADD DUP5 PUSH2 0xDF1 JUMP JUMPDEST SWAP4 SWAP3 POP POP POP JUMP JUMPDEST PUSH0 DUP3 DUP3 MSTORE PUSH1 0x20 DUP3 ADD SWAP1 POP SWAP3 SWAP2 POP POP JUMP JUMPDEST PUSH0 PUSH2 0xEC2 DUP3 PUSH2 0xAA8 JUMP JUMPDEST PUSH2 0xECC DUP2 DUP6 PUSH2 0xEA8 JUMP JUMPDEST SWAP4 POP PUSH2 0xEDC DUP2 DUP6 PUSH1 0x20 DUP7 ADD PUSH2 0x916 JUMP JUMPDEST PUSH2 0xEE5 DUP2 PUSH2 0x85E JUMP JUMPDEST DUP5 ADD SWAP2 POP POP SWAP3 SWAP2 POP POP JUMP JUMPDEST PUSH0 PUSH1 0x20 DUP3 ADD SWAP1 POP DUP2 DUP2 SUB PUSH0 DUP4 ADD MSTORE PUSH2 0xF08 DUP2 DUP5 PUSH2 0xEB8 JUMP JUMPDEST SWAP1 POP SWAP3 SWAP2 POP POP JUMP JUMPDEST PUSH0 DUP2 MLOAD SWAP1 POP SWAP2 SWAP1 POP JUMP JUMPDEST PUSH0 DUP2 SWAP1 POP PUSH1 0x20 DUP3 ADD SWAP1 POP SWAP2 SWAP1 POP JUMP JUMPDEST PUSH0 PUSH2 0xF34 DUP3 MLOAD PUSH2 0xDD9 JUMP JUMPDEST DUP1 SWAP2 POP POP SWAP2 SWAP1 POP JUMP JUMPDEST PUSH0 PUSH2 0xF47 DUP3 PUSH2 0xF10 JUMP JUMPDEST DUP3 PUSH2 0xF51 DUP5 PUSH2 0xF1A JUMP JUMPDEST SWAP1 POP PUSH2 0xF5C DUP2 PUSH2 0xF29 JUMP JUMPDEST SWAP3 POP PUSH1 0x20 DUP3 LT ISZERO PUSH2 0xF9C JUMPI PUSH2 0xF97 PUSH32 0xFFFFFFFFFFFFFFFFFFFFFFFFFFFFFFFFFFFFFFFFFFFFFFFFFFFFFFFFFFFFFFFF DUP4 PUSH1 0x20 SUB PUSH1 0x8 MUL PUSH2 0xB30 JUMP JUMPDEST DUP4 AND SWAP3 POP JUMPDEST POP POP SWAP2 SWAP1 POP JUMP JUMPDEST PUSH1 0x80 MLOAD PUSH1 0xA0 MLOAD PUSH1 0xC0 MLOAD PUSH1 0xE0 MLOAD PUSH2 0x100 MLOAD PUSH2 0x120 MLOAD PUSH2 0x140 MLOAD PUSH2 0x160 MLOAD PUSH2 0x180 MLOAD PUSH2 0x598C PUSH2 0x100C PUSH0 CODECOPY PUSH0 POP POP PUSH0 DUP2 DUP2 PUSH2 0x11DC ADD MSTORE PUSH2 0x1654 ADD MSTORE PUSH0 PUSH2 0x20A2 ADD MSTORE PUSH0 PUSH2 0x2067 ADD MSTORE PUSH0 PUSH2 0x30A3 ADD MSTORE PUSH0 PUSH2 0x3082 ADD MSTORE PUSH0 PUSH2 0x2854 ADD MSTORE PUSH0 PUSH2 0x28AA ADD MSTORE PUSH0 PUSH2 0x28D3 ADD MSTORE PUSH2 0x598C PUSH0 RETURN INVALID PUSH1 0x80 PUSH1 0x40 MSTORE PUSH1 0x4 CALLDATASIZE LT PUSH2 0x1ED JUMPI PUSH0 CALLDATALOAD PUSH1 0xE0 SHR DUP1 PUSH4 0x70A08231 GT PUSH2 0x10C JUMPI DUP1 PUSH4 0xB88D4FDE GT PUSH2 0x9F JUMPI DUP1 PUSH4 0xE985E9C5 GT PUSH2 0x6E JUMPI DUP1 PUSH4 0xE985E9C5 EQ PUSH2 0x71E JUMPI DUP1 PUSH4 0xEB13554F EQ PUSH2 0x75A JUMPI DUP1 PUSH4 0xED24911D EQ PUSH2 0x784 JUMPI DUP1 PUSH4 0xF2FDE38B EQ PUSH2 0x7AE JUMPI DUP1 PUSH4 0xF7330C2D EQ PUSH2 0x7D6 JUMPI PUSH2 0x1ED JUMP JUMPDEST DUP1 PUSH4 0xB88D4FDE EQ PUSH2 0x666 JUMPI DUP1 PUSH4 0xC87B56DD EQ PUSH2 0x68E JUMPI DUP1 PUSH4 0xCDD78CFC EQ PUSH2 0x6CA JUMPI DUP1 PUSH4 0xDB5E0063 EQ PUSH2 0x6F4 JUMPI PUSH2 0x1ED JUMP JUMPDEST DUP1 PUSH4 0x8DA5CB5B GT PUSH2 0xDB JUMPI DUP1 PUSH4 0x8DA5CB5B EQ PUSH2 0x5CE JUMPI DUP1 PUSH4 0x8FF75E82 EQ PUSH2 0x5F8 JUMPI DUP1 PUSH4 0x95D89B41 EQ PUSH2 0x614 JUMPI DUP1 PUSH4 0xA22CB465 EQ PUSH2 0x63E JUMPI PUSH2 0x1ED JUMP JUMPDEST DUP1 PUSH4 0x70A08231 EQ PUSH2 0x510 JUMPI DUP1 PUSH4 0x715018A6 EQ PUSH2 0x54C JUMPI DUP1 PUSH4 0x8462151C EQ PUSH2 0x562 JUMPI DUP1 PUSH4 0x84B0196E EQ PUSH2 0x59E JUMPI PUSH2 0x1ED JUMP JUMPDEST DUP1 PUSH4 0x2A55205A GT PUSH2 0x184 JUMPI DUP1 PUSH4 0x4F6CCCE7 GT PUSH2 0x153 JUMPI DUP1 PUSH4 0x4F6CCCE7 EQ PUSH2 0x446 JUMPI DUP1 PUSH4 0x57036078 EQ PUSH2 0x482 JUMPI DUP1 PUSH4 0x6352211E EQ PUSH2 0x4AA JUMPI DUP1 PUSH4 0x65D65E86 EQ PUSH2 0x4E6 JUMPI PUSH2 0x1ED JUMP JUMPDEST DUP1 PUSH4 0x2A55205A EQ PUSH2 0x362 JUMPI DUP1 PUSH4 0x2E37EEF6 EQ PUSH2 0x39F JUMPI DUP1 PUSH4 0x2F745C59 EQ PUSH2 0x3E2 JUMPI DUP1 PUSH4 0x42842E0E EQ PUSH2 0x41E JUMPI PUSH2 0x1ED JUMP JUMPDEST DUP1 PUSH4 0x95EA7B3 GT PUSH2 0x1C0 JUMPI DUP1 PUSH4 0x95EA7B3 EQ PUSH2 0x2BD JUMPI DUP1 PUSH4 0x18160DDD EQ PUSH2 0x2E5 JUMPI DUP1 PUSH4 0x1CE97FD1 EQ PUSH2 0x30F JUMPI DUP1 PUSH4 0x23B872DD EQ PUSH2 0x33A JUMPI PUSH2 0x1ED JUMP JUMPDEST DUP1 PUSH4 0x1FFC9A7 EQ PUSH2 0x1F1 JUMPI DUP1 PUSH4 0x6FDDE03 EQ PUSH2 0x22D JUMPI DUP1 PUSH4 0x72A1319 EQ PUSH2 0x257 JUMPI DUP1 PUSH4 0x81812FC EQ PUSH2 0x281 JUMPI JUMPDEST PUSH0 DUP1 REVERT JUMPDEST CALLVALUE DUP1 ISZERO PUSH2 0x1FC JUMPI PUSH0 DUP1 REVERT JUMPDEST POP PUSH2 0x217 PUSH1 0x4 DUP1 CALLDATASIZE SUB DUP2 ADD SWAP1 PUSH2 0x212 SWAP2 SWAP1 PUSH2 0x3E69 JUMP JUMPDEST PUSH2 0x812 JUMP JUMPDEST PUSH1 0x40 MLOAD PUSH2 0x224 SWAP2 SWAP1 PUSH2 0x3EAE JUMP JUMPDEST PUSH1 0x40 MLOAD DUP1 SWAP2 SUB SWAP1 RETURN JUMPDEST CALLVALUE DUP1 ISZERO PUSH2 0x238 JUMPI PUSH0 DUP1 REVERT JUMPDEST POP PUSH2 0x241 PUSH2 0x823 JUMP JUMPDEST PUSH1 0x40 MLOAD PUSH2 0x24E SWAP2 SWAP1 PUSH2 0x3F37 JUMP JUMPDEST PUSH1 0x40 MLOAD DUP1 SWAP2 SUB SWAP1 RETURN JUMPDEST CALLVALUE DUP1 ISZERO PUSH2 0x262 JUMPI PUSH0 DUP1 REVERT JUMPDEST POP PUSH2 0x26B PUSH2 0x8B2 JUMP JUMPDEST PUSH1 0x40 MLOAD PUSH2 0x278 SWAP2 SWAP1 PUSH2 0x3EAE JUMP JUMPDEST PUSH1 0x40 MLOAD DUP1 SWAP2 SUB SWAP1 RETURN JUMPDEST CALLVALUE DUP1 ISZERO PUSH2 0x28C JUMPI PUSH0 DUP1 REVERT JUMPDEST POP PUSH2 0x2A7 PUSH1 0x4 DUP1 CALLDATASIZE SUB DUP2 ADD SWAP1 PUSH2 0x2A2 SWAP2 SWAP1 PUSH2 0x3F8A JUMP JUMPDEST PUSH2 0x9A0 JUMP JUMPDEST PUSH1 0x40 MLOAD PUSH2 0x2B4 SWAP2 SWAP1 PUSH2 0x3FF4 JUMP JUMPDEST PUSH1 0x40 MLOAD DUP1 SWAP2 SUB SWAP1 RETURN JUMPDEST CALLVALUE DUP1 ISZERO PUSH2 0x2C8 JUMPI PUSH0 DUP1 REVERT JUMPDEST POP PUSH2 0x2E3 PUSH1 0x4 DUP1 CALLDATASIZE SUB DUP2 ADD SWAP1 PUSH2 0x2DE SWAP2 SWAP1 PUSH2 0x4037 JUMP JUMPDEST PUSH2 0x9BB JUMP JUMPDEST STOP JUMPDEST CALLVALUE DUP1 ISZERO PUSH2 0x2F0 JUMPI PUSH0 DUP1 REVERT JUMPDEST POP PUSH2 0x2F9 PUSH2 0x9D1 JUMP JUMPDEST PUSH1 0x40 MLOAD PUSH2 0x306 SWAP2 SWAP1 PUSH2 0x4084 JUMP JUMPDEST PUSH1 0x40 MLOAD DUP1 SWAP2 SUB SWAP1 RETURN JUMPDEST CALLVALUE DUP1 ISZERO PUSH2 0x31A JUMPI PUSH0 DUP1 REVERT JUMPDEST POP PUSH2 0x323 PUSH2 0x9DD JUMP JUMPDEST PUSH1 0x40 MLOAD PUSH2 0x331 SWAP3 SWAP2 SWAP1 PUSH2 0x41D7 JUMP JUMPDEST PUSH1 0x40 MLOAD DUP1 SWAP2 SUB SWAP1 RETURN JUMPDEST CALLVALUE DUP1 ISZERO PUSH2 0x345 JUMPI PUSH0 DUP1 REVERT JUMPDEST POP PUSH2 0x360 PUSH1 0x4 DUP1 CALLDATASIZE SUB DUP2 ADD SWAP1 PUSH2 0x35B SWAP2 SWAP1 PUSH2 0x41FF JUMP JUMPDEST PUSH2 0xA84 JUMP JUMPDEST STOP JUMPDEST CALLVALUE DUP1 ISZERO PUSH2 0x36D JUMPI PUSH0 DUP1 REVERT JUMPDEST POP PUSH2 0x388 PUSH1 0x4 DUP1 CALLDATASIZE SUB DUP2 ADD SWAP1 PUSH2 0x383 SWAP2 SWAP1 PUSH2 0x424F JUMP JUMPDEST PUSH2 0xB83 JUMP JUMPDEST PUSH1 0x40 MLOAD PUSH2 0x396 SWAP3 SWAP2 SWAP1 PUSH2 0x428D JUMP JUMPDEST PUSH1 0x40 MLOAD DUP1 SWAP2 SUB SWAP1 RETURN JUMPDEST CALLVALUE DUP1 ISZERO PUSH2 0x3AA JUMPI PUSH0 DUP1 REVERT JUMPDEST POP PUSH2 0x3C5 PUSH1 0x4 DUP1 CALLDATASIZE SUB DUP2 ADD SWAP1 PUSH2 0x3C0 SWAP2 SWAP1 PUSH2 0x3F8A JUMP JUMPDEST PUSH2 0xCA5 JUMP JUMPDEST PUSH1 0x40 MLOAD PUSH2 0x3D9 SWAP9 SWAP8 SWAP7 SWAP6 SWAP5 SWAP4 SWAP3 SWAP2 SWAP1 PUSH2 0x42D2 JUMP JUMPDEST PUSH1 0x40 MLOAD DUP1 SWAP2 SUB SWAP1 RETURN JUMPDEST CALLVALUE DUP1 ISZERO PUSH2 0x3ED JUMPI PUSH0 DUP1 REVERT JUMPDEST POP PUSH2 0x408 PUSH1 0x4 DUP1 CALLDATASIZE SUB DUP2 ADD SWAP1 PUSH2 0x403 SWAP2 SWAP1 PUSH2 0x4037 JUMP JUMPDEST PUSH2 0xD04 JUMP JUMPDEST PUSH1 0x40 MLOAD PUSH2 0x415 SWAP2 SWAP1 PUSH2 0x4084 JUMP JUMPDEST PUSH1 0x40 MLOAD DUP1 SWAP2 SUB SWAP1 RETURN JUMPDEST CALLVALUE DUP1 ISZERO PUSH2 0x429 JUMPI PUSH0 DUP1 REVERT JUMPDEST POP PUSH2 0x444 PUSH1 0x4 DUP1 CALLDATASIZE SUB DUP2 ADD SWAP1 PUSH2 0x43F SWAP2 SWAP1 PUSH2 0x41FF JUMP JUMPDEST PUSH2 0xDA8 JUMP JUMPDEST STOP JUMPDEST CALLVALUE DUP1 ISZERO PUSH2 0x451 JUMPI PUSH0 DUP1 REVERT JUMPDEST POP PUSH2 0x46C PUSH1 0x4 DUP1 CALLDATASIZE SUB DUP2 ADD SWAP1 PUSH2 0x467 SWAP2 SWAP1 PUSH2 0x3F8A JUMP JUMPDEST PUSH2 0xDC7 JUMP JUMPDEST PUSH1 0x40 MLOAD PUSH2 0x479 SWAP2 SWAP1 PUSH2 0x4084 JUMP JUMPDEST PUSH1 0x40 MLOAD DUP1 SWAP2 SUB SWAP1 RETURN JUMPDEST CALLVALUE DUP1 ISZERO PUSH2 0x48D JUMPI PUSH0 DUP1 REVERT JUMPDEST POP PUSH2 0x4A8 PUSH1 0x4 DUP1 CALLDATASIZE SUB DUP2 ADD SWAP1 PUSH2 0x4A3 SWAP2 SWAP1 PUSH2 0x439B JUMP JUMPDEST PUSH2 0xE39 JUMP JUMPDEST STOP JUMPDEST CALLVALUE DUP1 ISZERO PUSH2 0x4B5 JUMPI PUSH0 DUP1 REVERT JUMPDEST POP PUSH2 0x4D0 PUSH1 0x4 DUP1 CALLDATASIZE SUB DUP2 ADD SWAP1 PUSH2 0x4CB SWAP2 SWAP1 PUSH2 0x3F8A JUMP JUMPDEST PUSH2 0x11C9 JUMP JUMPDEST PUSH1 0x40 MLOAD PUSH2 0x4DD SWAP2 SWAP1 PUSH2 0x3FF4 JUMP JUMPDEST PUSH1 0x40 MLOAD DUP1 SWAP2 SUB SWAP1 RETURN JUMPDEST CALLVALUE DUP1 ISZERO PUSH2 0x4F1 JUMPI PUSH0 DUP1 REVERT JUMPDEST POP PUSH2 0x4FA PUSH2 0x11DA JUMP JUMPDEST PUSH1 0x40 MLOAD PUSH2 0x507 SWAP2 SWAP1 PUSH2 0x3FF4 JUMP JUMPDEST PUSH1 0x40 MLOAD DUP1 SWAP2 SUB SWAP1 RETURN JUMPDEST CALLVALUE DUP1 ISZERO PUSH2 0x51B JUMPI PUSH0 DUP1 REVERT JUMPDEST POP PUSH2 0x536 PUSH1 0x4 DUP1 CALLDATASIZE SUB DUP2 ADD SWAP1 PUSH2 0x531 SWAP2 SWAP1 PUSH2 0x4438 JUMP JUMPDEST PUSH2 0x11FE JUMP JUMPDEST PUSH1 0x40 MLOAD PUSH2 0x543 SWAP2 SWAP1 PUSH2 0x4084 JUMP JUMPDEST PUSH1 0x40 MLOAD DUP1 SWAP2 SUB SWAP1 RETURN JUMPDEST CALLVALUE DUP1 ISZERO PUSH2 0x557 JUMPI PUSH0 DUP1 REVERT JUMPDEST POP PUSH2 0x560 PUSH2 0x12B4 JUMP JUMPDEST STOP JUMPDEST CALLVALUE DUP1 ISZERO PUSH2 0x56D JUMPI PUSH0 DUP1 REVERT JUMPDEST POP PUSH2 0x588 PUSH1 0x4 DUP1 CALLDATASIZE SUB DUP2 ADD SWAP1 PUSH2 0x583 SWAP2 SWAP1 PUSH2 0x4438 JUMP JUMPDEST PUSH2 0x12C7 JUMP JUMPDEST PUSH1 0x40 MLOAD PUSH2 0x595 SWAP2 SWAP1 PUSH2 0x450B JUMP JUMPDEST PUSH1 0x40 MLOAD DUP1 SWAP2 SUB SWAP1 RETURN JUMPDEST CALLVALUE DUP1 ISZERO PUSH2 0x5A9 JUMPI PUSH0 DUP1 REVERT JUMPDEST POP PUSH2 0x5B2 PUSH2 0x135A JUMP JUMPDEST PUSH1 0x40 MLOAD PUSH2 0x5C5 SWAP8 SWAP7 SWAP6 SWAP5 SWAP4 SWAP3 SWAP2 SWAP1 PUSH2 0x4565 JUMP JUMPDEST PUSH1 0x40 MLOAD DUP1 SWAP2 SUB SWAP1 RETURN JUMPDEST CALLVALUE DUP1 ISZERO PUSH2 0x5D9 JUMPI PUSH0 DUP1 REVERT JUMPDEST POP PUSH2 0x5E2 PUSH2 0x13FF JUMP JUMPDEST PUSH1 0x40 MLOAD PUSH2 0x5EF SWAP2 SWAP1 PUSH2 0x3FF4 JUMP JUMPDEST PUSH1 0x40 MLOAD DUP1 SWAP2 SUB SWAP1 RETURN JUMPDEST PUSH2 0x612 PUSH1 0x4 DUP1 CALLDATASIZE SUB DUP2 ADD SWAP1 PUSH2 0x60D SWAP2 SWAP1 PUSH2 0x46F2 JUMP JUMPDEST PUSH2 0x1427 JUMP JUMPDEST STOP JUMPDEST CALLVALUE DUP1 ISZERO PUSH2 0x61F JUMPI PUSH0 DUP1 REVERT JUMPDEST POP PUSH2 0x628 PUSH2 0x19A0 JUMP JUMPDEST PUSH1 0x40 MLOAD PUSH2 0x635 SWAP2 SWAP1 PUSH2 0x3F37 JUMP JUMPDEST PUSH1 0x40 MLOAD DUP1 SWAP2 SUB SWAP1 RETURN JUMPDEST CALLVALUE DUP1 ISZERO PUSH2 0x649 JUMPI PUSH0 DUP1 REVERT JUMPDEST POP PUSH2 0x664 PUSH1 0x4 DUP1 CALLDATASIZE SUB DUP2 ADD SWAP1 PUSH2 0x65F SWAP2 SWAP1 PUSH2 0x4805 JUMP JUMPDEST PUSH2 0x1A30 JUMP JUMPDEST STOP JUMPDEST CALLVALUE DUP1 ISZERO PUSH2 0x671 JUMPI PUSH0 DUP1 REVERT JUMPDEST POP PUSH2 0x68C PUSH1 0x4 DUP1 CALLDATASIZE SUB DUP2 ADD SWAP1 PUSH2 0x687 SWAP2 SWAP1 PUSH2 0x496B JUMP JUMPDEST PUSH2 0x1A46 JUMP JUMPDEST STOP JUMPDEST CALLVALUE DUP1 ISZERO PUSH2 0x699 JUMPI PUSH0 DUP1 REVERT JUMPDEST POP PUSH2 0x6B4 PUSH1 0x4 DUP1 CALLDATASIZE SUB DUP2 ADD SWAP1 PUSH2 0x6AF SWAP2 SWAP1 PUSH2 0x3F8A JUMP JUMPDEST PUSH2 0x1A63 JUMP JUMPDEST PUSH1 0x40 MLOAD PUSH2 0x6C1 SWAP2 SWAP1 PUSH2 0x3F37 JUMP JUMPDEST PUSH1 0x40 MLOAD DUP1 SWAP2 SUB SWAP1 RETURN JUMPDEST CALLVALUE DUP1 ISZERO PUSH2 0x6D5 JUMPI PUSH0 DUP1 REVERT JUMPDEST POP PUSH2 0x6DE PUSH2 0x1A75 JUMP JUMPDEST PUSH1 0x40 MLOAD PUSH2 0x6EB SWAP2 SWAP1 PUSH2 0x4A11 JUMP JUMPDEST PUSH1 0x40 MLOAD DUP1 SWAP2 SUB SWAP1 RETURN JUMPDEST CALLVALUE DUP1 ISZERO PUSH2 0x6FF JUMPI PUSH0 DUP1 REVERT JUMPDEST POP PUSH2 0x708 PUSH2 0x1A92 JUMP JUMPDEST PUSH1 0x40 MLOAD PUSH2 0x715 SWAP2 SWAP1 PUSH2 0x4084 JUMP JUMPDEST PUSH1 0x40 MLOAD DUP1 SWAP2 SUB SWAP1 RETURN JUMPDEST CALLVALUE DUP1 ISZERO PUSH2 0x729 JUMPI PUSH0 DUP1 REVERT JUMPDEST POP PUSH2 0x744 PUSH1 0x4 DUP1 CALLDATASIZE SUB DUP2 ADD SWAP1 PUSH2 0x73F SWAP2 SWAP1 PUSH2 0x4A2A JUMP JUMPDEST PUSH2 0x1A9E JUMP JUMPDEST PUSH1 0x40 MLOAD PUSH2 0x751 SWAP2 SWAP1 PUSH2 0x3EAE JUMP JUMPDEST PUSH1 0x40 MLOAD DUP1 SWAP2 SUB SWAP1 RETURN JUMPDEST CALLVALUE DUP1 ISZERO PUSH2 0x765 JUMPI PUSH0 DUP1 REVERT JUMPDEST POP PUSH2 0x76E PUSH2 0x1B2C JUMP JUMPDEST PUSH1 0x40 MLOAD PUSH2 0x77B SWAP2 SWAP1 PUSH2 0x3FF4 JUMP JUMPDEST PUSH1 0x40 MLOAD DUP1 SWAP2 SUB SWAP1 RETURN JUMPDEST CALLVALUE DUP1 ISZERO PUSH2 0x78F JUMPI PUSH0 DUP1 REVERT JUMPDEST POP PUSH2 0x798 PUSH2 0x1B52 JUMP JUMPDEST PUSH1 0x40 MLOAD PUSH2 0x7A5 SWAP2 SWAP1 PUSH2 0x4A68 JUMP JUMPDEST PUSH1 0x40 MLOAD DUP1 SWAP2 SUB SWAP1 RETURN JUMPDEST CALLVALUE DUP1 ISZERO PUSH2 0x7B9 JUMPI PUSH0 DUP1 REVERT JUMPDEST POP PUSH2 0x7D4 PUSH1 0x4 DUP1 CALLDATASIZE SUB DUP2 ADD SWAP1 PUSH2 0x7CF SWAP2 SWAP1 PUSH2 0x4438 JUMP JUMPDEST PUSH2 0x1B60 JUMP JUMPDEST STOP JUMPDEST CALLVALUE DUP1 ISZERO PUSH2 0x7E1 JUMPI PUSH0 DUP1 REVERT JUMPDEST POP PUSH2 0x7FC PUSH1 0x4 DUP1 CALLDATASIZE SUB DUP2 ADD SWAP1 PUSH2 0x7F7 SWAP2 SWAP1 PUSH2 0x4A81 JUMP JUMPDEST PUSH2 0x1BE4 JUMP JUMPDEST PUSH1 0x40 MLOAD PUSH2 0x809 SWAP2 SWAP1 PUSH2 0x4084 JUMP JUMPDEST PUSH1 0x40 MLOAD DUP1 SWAP2 SUB SWAP1 RETURN JUMPDEST PUSH0 PUSH2 0x81C DUP3 PUSH2 0x1C5E JUMP JUMPDEST SWAP1 POP SWAP2 SWAP1 POP JUMP JUMPDEST PUSH1 0x60 PUSH0 DUP1 SLOAD PUSH2 0x831 SWAP1 PUSH2 0x4AEC JUMP JUMPDEST DUP1 PUSH1 0x1F ADD PUSH1 0x20 DUP1 SWAP2 DIV MUL PUSH1 0x20 ADD PUSH1 0x40 MLOAD SWAP1 DUP2 ADD PUSH1 0x40 MSTORE DUP1 SWAP3 SWAP2 SWAP1 DUP2 DUP2 MSTORE PUSH1 0x20 ADD DUP3 DUP1 SLOAD PUSH2 0x85D SWAP1 PUSH2 0x4AEC JUMP JUMPDEST DUP1 ISZERO PUSH2 0x8A8 JUMPI DUP1 PUSH1 0x1F LT PUSH2 0x87F JUMPI PUSH2 0x100 DUP1 DUP4 SLOAD DIV MUL DUP4 MSTORE SWAP2 PUSH1 0x20 ADD SWAP2 PUSH2 0x8A8 JUMP JUMPDEST DUP3 ADD SWAP2 SWAP1 PUSH0 MSTORE PUSH1 0x20 PUSH0 KECCAK256 SWAP1 JUMPDEST DUP2 SLOAD DUP2 MSTORE SWAP1 PUSH1 0x1 ADD SWAP1 PUSH1 0x20 ADD DUP1 DUP4 GT PUSH2 0x88B JUMPI DUP3 SWAP1 SUB PUSH1 0x1F AND DUP3 ADD SWAP2 JUMPDEST POP POP POP POP POP SWAP1 POP SWAP1 JUMP JUMPDEST PUSH0 DUP1 TIMESTAMP SWAP1 POP PUSH0 JUMPDEST PUSH1 0x12 DUP1 SLOAD SWAP1 POP DUP2 LT ISZERO PUSH2 0x997 JUMPI PUSH0 PUSH1 0x2 DUP2 GT ISZERO PUSH2 0x8D9 JUMPI PUSH2 0x8D8 PUSH2 0x409D JUMP JUMPDEST JUMPDEST PUSH1 0x12 DUP3 DUP2 SLOAD DUP2 LT PUSH2 0x8ED JUMPI PUSH2 0x8EC PUSH2 0x4B1C JUMP JUMPDEST JUMPDEST SWAP1 PUSH0 MSTORE PUSH1 0x20 PUSH0 KECCAK256 SWAP1 PUSH1 0x8 MUL ADD PUSH0 ADD PUSH0 SWAP1 SLOAD SWAP1 PUSH2 0x100 EXP SWAP1 DIV PUSH1 0xFF AND PUSH1 0x2 DUP2 GT ISZERO PUSH2 0x91A JUMPI PUSH2 0x919 PUSH2 0x409D JUMP JUMPDEST JUMPDEST EQ ISZERO DUP1 ISZERO PUSH2 0x94B JUMPI POP PUSH1 0x12 DUP2 DUP2 SLOAD DUP2 LT PUSH2 0x937 JUMPI PUSH2 0x936 PUSH2 0x4B1C JUMP JUMPDEST JUMPDEST SWAP1 PUSH0 MSTORE PUSH1 0x20 PUSH0 KECCAK256 SWAP1 PUSH1 0x8 MUL ADD PUSH1 0x2 ADD SLOAD DUP3 LT ISZERO JUMPDEST DUP1 ISZERO PUSH2 0x97A JUMPI POP PUSH1 0x12 DUP2 DUP2 SLOAD DUP2 LT PUSH2 0x966 JUMPI PUSH2 0x965 PUSH2 0x4B1C JUMP JUMPDEST JUMPDEST SWAP1 PUSH0 MSTORE PUSH1 0x20 PUSH0 KECCAK256 SWAP1 PUSH1 0x8 MUL ADD PUSH1 0x3 ADD SLOAD DUP3 GT ISZERO JUMPDEST ISZERO PUSH2 0x98A JUMPI PUSH1 0x1 SWAP3 POP POP POP PUSH2 0x99D JUMP JUMPDEST DUP1 DUP1 PUSH1 0x1 ADD SWAP2 POP POP PUSH2 0x8B9 JUMP JUMPDEST POP PUSH0 SWAP2 POP POP JUMPDEST SWAP1 JUMP JUMPDEST PUSH0 PUSH2 0x9AA DUP3 PUSH2 0x1CD7 JUMP JUMPDEST POP PUSH2 0x9B4 DUP3 PUSH2 0x1D5D JUMP JUMPDEST SWAP1 POP SWAP2 SWAP1 POP JUMP JUMPDEST PUSH2 0x9CD DUP3 DUP3 PUSH2 0x9C8 PUSH2 0x1D96 JUMP JUMPDEST PUSH2 0x1D9D JUMP JUMPDEST POP POP JUMP JUMPDEST PUSH0 PUSH1 0x8 DUP1 SLOAD SWAP1 POP SWAP1 POP SWAP1 JUMP JUMPDEST PUSH0 PUSH2 0x9E6 PUSH2 0x3DB1 JUMP JUMPDEST PUSH2 0x9EE PUSH2 0x1DAF JUMP JUMPDEST DUP1 PUSH1 0x40 MLOAD DUP1 PUSH2 0x100 ADD PUSH1 0x40 MSTORE SWAP1 DUP2 PUSH0 DUP3 ADD PUSH0 SWAP1 SLOAD SWAP1 PUSH2 0x100 EXP SWAP1 DIV PUSH1 0xFF AND PUSH1 0x2 DUP2 GT ISZERO PUSH2 0xA1E JUMPI PUSH2 0xA1D PUSH2 0x409D JUMP JUMPDEST JUMPDEST PUSH1 0x2 DUP2 GT ISZERO PUSH2 0xA30 JUMPI PUSH2 0xA2F PUSH2 0x409D JUMP JUMPDEST JUMPDEST DUP2 MSTORE PUSH1 0x20 ADD PUSH1 0x1 DUP3 ADD SLOAD DUP2 MSTORE PUSH1 0x20 ADD PUSH1 0x2 DUP3 ADD SLOAD DUP2 MSTORE PUSH1 0x20 ADD PUSH1 0x3 DUP3 ADD SLOAD DUP2 MSTORE PUSH1 0x20 ADD PUSH1 0x4 DUP3 ADD SLOAD DUP2 MSTORE PUSH1 0x20 ADD PUSH1 0x5 DUP3 ADD SLOAD DUP2 MSTORE PUSH1 0x20 ADD PUSH1 0x6 DUP3 ADD SLOAD DUP2 MSTORE PUSH1 0x20 ADD PUSH1 0x7 DUP3 ADD SLOAD DUP2 MSTORE POP POP SWAP1 POP SWAP2 POP SWAP2 POP SWAP1 SWAP2 JUMP JUMPDEST PUSH0 PUSH20 0xFFFFFFFFFFFFFFFFFFFFFFFFFFFFFFFFFFFFFFFF AND DUP3 PUSH20 0xFFFFFFFFFFFFFFFFFFFFFFFFFFFFFFFFFFFFFFFF AND SUB PUSH2 0xAF4 JUMPI PUSH0 PUSH1 0x40 MLOAD PUSH32 0x64A0AE9200000000000000000000000000000000000000000000000000000000 DUP2 MSTORE PUSH1 0x4 ADD PUSH2 0xAEB SWAP2 SWAP1 PUSH2 0x3FF4 JUMP JUMPDEST PUSH1 0x40 MLOAD DUP1 SWAP2 SUB SWAP1 REVERT JUMPDEST PUSH0 PUSH2 0xB07 DUP4 DUP4 PUSH2 0xB02 PUSH2 0x1D96 JUMP JUMPDEST PUSH2 0x1EF6 JUMP JUMPDEST SWAP1 POP DUP4 PUSH20 0xFFFFFFFFFFFFFFFFFFFFFFFFFFFFFFFFFFFFFFFF AND DUP2 PUSH20 0xFFFFFFFFFFFFFFFFFFFFFFFFFFFFFFFFFFFFFFFF AND EQ PUSH2 0xB7D JUMPI DUP4 DUP3 DUP3 PUSH1 0x40 MLOAD PUSH32 0x64283D7B00000000000000000000000000000000000000000000000000000000 DUP2 MSTORE PUSH1 0x4 ADD PUSH2 0xB74 SWAP4 SWAP3 SWAP2 SWAP1 PUSH2 0x4B49 JUMP JUMPDEST PUSH1 0x40 MLOAD DUP1 SWAP2 SUB SWAP1 REVERT JUMPDEST POP POP POP POP JUMP JUMPDEST PUSH0 DUP1 PUSH0 PUSH1 0xC PUSH0 DUP7 DUP2 MSTORE PUSH1 0x20 ADD SWAP1 DUP2 MSTORE PUSH1 0x20 ADD PUSH0 KECCAK256 SWAP1 POP PUSH0 DUP2 PUSH0 ADD PUSH0 SWAP1 SLOAD SWAP1 PUSH2 0x100 EXP SWAP1 DIV PUSH20 0xFFFFFFFFFFFFFFFFFFFFFFFFFFFFFFFFFFFFFFFF AND SWAP1 POP PUSH0 DUP3 PUSH0 ADD PUSH1 0x14 SWAP1 SLOAD SWAP1 PUSH2 0x100 EXP SWAP1 DIV PUSH12 0xFFFFFFFFFFFFFFFFFFFFFFFF AND SWAP1 POP PUSH0 PUSH20 0xFFFFFFFFFFFFFFFFFFFFFFFFFFFFFFFFFFFFFFFF AND DUP3 PUSH20 0xFFFFFFFFFFFFFFFFFFFFFFFFFFFFFFFFFFFFFFFF AND SUB PUSH2 0xC57 JUMPI PUSH1 0xB PUSH0 ADD PUSH0 SWAP1 SLOAD SWAP1 PUSH2 0x100 EXP SWAP1 DIV PUSH20 0xFFFFFFFFFFFFFFFFFFFFFFFFFFFFFFFFFFFFFFFF AND SWAP2 POP PUSH1 0xB PUSH0 ADD PUSH1 0x14 SWAP1 SLOAD SWAP1 PUSH2 0x100 EXP SWAP1 DIV PUSH12 0xFFFFFFFFFFFFFFFFFFFFFFFF AND SWAP1 POP JUMPDEST PUSH0 PUSH2 0xC60 PUSH2 0x1F0B JUMP JUMPDEST PUSH12 0xFFFFFFFFFFFFFFFFFFFFFFFF AND DUP3 PUSH12 0xFFFFFFFFFFFFFFFFFFFFFFFF AND DUP9 PUSH2 0xC88 SWAP2 SWAP1 PUSH2 0x4BAB JUMP JUMPDEST PUSH2 0xC92 SWAP2 SWAP1 PUSH2 0x4C19 JUMP JUMPDEST SWAP1 POP DUP3 DUP2 SWAP6 POP SWAP6 POP POP POP POP POP SWAP3 POP SWAP3 SWAP1 POP JUMP JUMPDEST PUSH1 0x12 DUP2 DUP2 SLOAD DUP2 LT PUSH2 0xCB4 JUMPI PUSH0 DUP1 REVERT JUMPDEST SWAP1 PUSH0 MSTORE PUSH1 0x20 PUSH0 KECCAK256 SWAP1 PUSH1 0x8 MUL ADD PUSH0 SWAP2 POP SWAP1 POP DUP1 PUSH0 ADD PUSH0 SWAP1 SLOAD SWAP1 PUSH2 0x100 EXP SWAP1 DIV PUSH1 0xFF AND SWAP1 DUP1 PUSH1 0x1 ADD SLOAD SWAP1 DUP1 PUSH1 0x2 ADD SLOAD SWAP1 DUP1 PUSH1 0x3 ADD SLOAD SWAP1 DUP1 PUSH1 0x4 ADD SLOAD SWAP1 DUP1 PUSH1 0x5 ADD SLOAD SWAP1 DUP1 PUSH1 0x6 ADD SLOAD SWAP1 DUP1 PUSH1 0x7 ADD SLOAD SWAP1 POP DUP9 JUMP JUMPDEST PUSH0 PUSH2 0xD0E DUP4 PUSH2 0x11FE JUMP JUMPDEST DUP3 LT PUSH2 0xD53 JUMPI DUP3 DUP3 PUSH1 0x40 MLOAD PUSH32 0xA57D13DC00000000000000000000000000000000000000000000000000000000 DUP2 MSTORE PUSH1 0x4 ADD PUSH2 0xD4A SWAP3 SWAP2 SWAP1 PUSH2 0x428D JUMP JUMPDEST PUSH1 0x40 MLOAD DUP1 SWAP2 SUB SWAP1 REVERT JUMPDEST PUSH1 0x6 PUSH0 DUP5 PUSH20 0xFFFFFFFFFFFFFFFFFFFFFFFFFFFFFFFFFFFFFFFF AND PUSH20 0xFFFFFFFFFFFFFFFFFFFFFFFFFFFFFFFFFFFFFFFF AND DUP2 MSTORE PUSH1 0x20 ADD SWAP1 DUP2 MSTORE PUSH1 0x20 ADD PUSH0 KECCAK256 PUSH0 DUP4 DUP2 MSTORE PUSH1 0x20 ADD SWAP1 DUP2 MSTORE PUSH1 0x20 ADD PUSH0 KECCAK256 SLOAD SWAP1 POP SWAP3 SWAP2 POP POP JUMP JUMPDEST PUSH2 0xDC2 DUP4 DUP4 DUP4 PUSH1 0x40 MLOAD DUP1 PUSH1 0x20 ADD PUSH1 0x40 MSTORE DUP1 PUSH0 DUP2 MSTORE POP PUSH2 0x1A46 JUMP JUMPDEST POP POP POP JUMP JUMPDEST PUSH0 PUSH2 0xDD0 PUSH2 0x9D1 JUMP JUMPDEST DUP3 LT PUSH2 0xE15 JUMPI PUSH0 DUP3 PUSH1 0x40 MLOAD PUSH32 0xA57D13DC00000000000000000000000000000000000000000000000000000000 DUP2 MSTORE PUSH1 0x4 ADD PUSH2 0xE0C SWAP3 SWAP2 SWAP1 PUSH2 0x428D JUMP JUMPDEST PUSH1 0x40 MLOAD DUP1 SWAP2 SUB SWAP1 REVERT JUMPDEST PUSH1 0x8 DUP3 DUP2 SLOAD DUP2 LT PUSH2 0xE29 JUMPI PUSH2 0xE28 PUSH2 0x4B1C JUMP JUMPDEST JUMPDEST SWAP1 PUSH0 MSTORE PUSH1 0x20 PUSH0 KECCAK256 ADD SLOAD SWAP1 POP SWAP2 SWAP1 POP JUMP JUMPDEST PUSH2 0xE41 PUSH2 0x1F14 JUMP JUMPDEST DUP4 DUP6 LT PUSH2 0xE83 JUMPI PUSH1 0x40 MLOAD PUSH32 0x8C379A000000000000000000000000000000000000000000000000000000000 DUP2 MSTORE PUSH1 0x4 ADD PUSH2 0xE7A SWAP1 PUSH2 0x4C93 JUMP JUMPDEST PUSH1 0x40 MLOAD DUP1 SWAP2 SUB SWAP1 REVERT JUMPDEST PUSH1 0x2 DUP1 DUP2 GT ISZERO PUSH2 0xE96 JUMPI PUSH2 0xE95 PUSH2 0x409D JUMP JUMPDEST JUMPDEST DUP8 PUSH1 0x2 DUP2 GT ISZERO PUSH2 0xEA9 JUMPI PUSH2 0xEA8 PUSH2 0x409D JUMP JUMPDEST JUMPDEST EQ PUSH2 0xF35 JUMPI PUSH0 DUP3 GT PUSH2 0xEF0 JUMPI PUSH1 0x40 MLOAD PUSH32 0x8C379A000000000000000000000000000000000000000000000000000000000 DUP2 MSTORE PUSH1 0x4 ADD PUSH2 0xEE7 SWAP1 PUSH2 0x4D21 JUMP JUMPDEST PUSH1 0x40 MLOAD DUP1 SWAP2 SUB SWAP1 REVERT JUMPDEST PUSH0 DUP1 SHL DUP2 SUB PUSH2 0xF34 JUMPI PUSH1 0x40 MLOAD PUSH32 0x8C379A000000000000000000000000000000000000000000000000000000000 DUP2 MSTORE PUSH1 0x4 ADD PUSH2 0xF2B SWAP1 PUSH2 0x4DAF JUMP JUMPDEST PUSH1 0x40 MLOAD DUP1 SWAP2 SUB SWAP1 REVERT JUMPDEST JUMPDEST PUSH0 JUMPDEST PUSH1 0x12 DUP1 SLOAD SWAP1 POP DUP2 LT ISZERO PUSH2 0x108D JUMPI PUSH0 PUSH1 0x12 DUP3 DUP2 SLOAD DUP2 LT PUSH2 0xF59 JUMPI PUSH2 0xF58 PUSH2 0x4B1C JUMP JUMPDEST JUMPDEST SWAP1 PUSH0 MSTORE PUSH1 0x20 PUSH0 KECCAK256 SWAP1 PUSH1 0x8 MUL ADD PUSH1 0x40 MLOAD DUP1 PUSH2 0x100 ADD PUSH1 0x40 MSTORE SWAP1 DUP2 PUSH0 DUP3 ADD PUSH0 SWAP1 SLOAD SWAP1 PUSH2 0x100 EXP SWAP1 DIV PUSH1 0xFF AND PUSH1 0x2 DUP2 GT ISZERO PUSH2 0xF94 JUMPI PUSH2 0xF93 PUSH2 0x409D JUMP JUMPDEST JUMPDEST PUSH1 0x2 DUP2 GT ISZERO PUSH2 0xFA6 JUMPI PUSH2 0xFA5 PUSH2 0x409D JUMP JUMPDEST JUMPDEST DUP2 MSTORE PUSH1 0x20 ADD PUSH1 0x1 DUP3 ADD SLOAD DUP2 MSTORE PUSH1 0x20 ADD PUSH1 0x2 DUP3 ADD SLOAD DUP2 MSTORE PUSH1 0x20 ADD PUSH1 0x3 DUP3 ADD SLOAD DUP2 MSTORE PUSH1 0x20 ADD PUSH1 0x4 DUP3 ADD SLOAD DUP2 MSTORE PUSH1 0x20 ADD PUSH1 0x5 DUP3 ADD SLOAD DUP2 MSTORE PUSH1 0x20 ADD PUSH1 0x6 DUP3 ADD SLOAD DUP2 MSTORE PUSH1 0x20 ADD PUSH1 0x7 DUP3 ADD SLOAD DUP2 MSTORE POP POP SWAP1 POP PUSH0 PUSH1 0x2 DUP2 GT ISZERO PUSH2 0x1005 JUMPI PUSH2 0x1004 PUSH2 0x409D JUMP JUMPDEST JUMPDEST DUP2 PUSH0 ADD MLOAD PUSH1 0x2 DUP2 GT ISZERO PUSH2 0x101B JUMPI PUSH2 0x101A PUSH2 0x409D JUMP JUMPDEST JUMPDEST SUB PUSH2 0x1026 JUMPI POP PUSH2 0x1080 JUMP JUMPDEST DUP1 PUSH1 0x60 ADD MLOAD DUP8 GT ISZERO DUP1 ISZERO PUSH2 0x103E JUMPI POP DUP1 PUSH1 0x40 ADD MLOAD DUP7 LT ISZERO JUMPDEST ISZERO PUSH2 0x107E JUMPI PUSH1 0x40 MLOAD PUSH32 0x8C379A000000000000000000000000000000000000000000000000000000000 DUP2 MSTORE PUSH1 0x4 ADD PUSH2 0x1075 SWAP1 PUSH2 0x4E3D JUMP JUMPDEST PUSH1 0x40 MLOAD DUP1 SWAP2 SUB SWAP1 REVERT JUMPDEST POP JUMPDEST DUP1 DUP1 PUSH1 0x1 ADD SWAP2 POP POP PUSH2 0xF37 JUMP JUMPDEST POP PUSH0 PUSH1 0x40 MLOAD DUP1 PUSH2 0x100 ADD PUSH1 0x40 MSTORE DUP1 DUP10 PUSH1 0x2 DUP2 GT ISZERO PUSH2 0x10AE JUMPI PUSH2 0x10AD PUSH2 0x409D JUMP JUMPDEST JUMPDEST DUP2 MSTORE PUSH1 0x20 ADD DUP9 DUP2 MSTORE PUSH1 0x20 ADD DUP8 DUP2 MSTORE PUSH1 0x20 ADD DUP7 DUP2 MSTORE PUSH1 0x20 ADD DUP6 DUP2 MSTORE PUSH1 0x20 ADD DUP5 DUP2 MSTORE PUSH1 0x20 ADD PUSH0 DUP2 MSTORE PUSH1 0x20 ADD DUP4 DUP2 MSTORE POP SWAP1 POP PUSH0 PUSH1 0x12 DUP1 SLOAD SWAP1 POP SWAP1 POP PUSH1 0x12 DUP3 SWAP1 DUP1 PUSH1 0x1 DUP2 SLOAD ADD DUP1 DUP3 SSTORE DUP1 SWAP2 POP POP PUSH1 0x1 SWAP1 SUB SWAP1 PUSH0 MSTORE PUSH1 0x20 PUSH0 KECCAK256 SWAP1 PUSH1 0x8 MUL ADD PUSH0 SWAP1 SWAP2 SWAP1 SWAP2 SWAP1 SWAP2 POP PUSH0 DUP3 ADD MLOAD DUP2 PUSH0 ADD PUSH0 PUSH2 0x100 EXP DUP2 SLOAD DUP2 PUSH1 0xFF MUL NOT AND SWAP1 DUP4 PUSH1 0x2 DUP2 GT ISZERO PUSH2 0x1137 JUMPI PUSH2 0x1136 PUSH2 0x409D JUMP JUMPDEST JUMPDEST MUL OR SWAP1 SSTORE POP PUSH1 0x20 DUP3 ADD MLOAD DUP2 PUSH1 0x1 ADD SSTORE PUSH1 0x40 DUP3 ADD MLOAD DUP2 PUSH1 0x2 ADD SSTORE PUSH1 0x60 DUP3 ADD MLOAD DUP2 PUSH1 0x3 ADD SSTORE PUSH1 0x80 DUP3 ADD MLOAD DUP2 PUSH1 0x4 ADD SSTORE PUSH1 0xA0 DUP3 ADD MLOAD DUP2 PUSH1 0x5 ADD SSTORE PUSH1 0xC0 DUP3 ADD MLOAD DUP2 PUSH1 0x6 ADD SSTORE PUSH1 0xE0 DUP3 ADD MLOAD DUP2 PUSH1 0x7 ADD SSTORE POP POP DUP1 PUSH32 0x7673E4939433531841B3EE155CFB41D74036F1741ED20BA7C3ED88D66A289551 DUP11 DUP11 PUSH1 0x40 MLOAD PUSH2 0x11B6 SWAP3 SWAP2 SWAP1 PUSH2 0x4E5B JUMP JUMPDEST PUSH1 0x40 MLOAD DUP1 SWAP2 SUB SWAP1 LOG2 POP POP POP POP POP POP POP POP POP JUMP JUMPDEST PUSH0 PUSH2 0x11D3 DUP3 PUSH2 0x1CD7 JUMP JUMPDEST SWAP1 POP SWAP2 SWAP1 POP JUMP JUMPDEST PUSH32 0x0 DUP2 JUMP JUMPDEST PUSH0 DUP1 PUSH20 0xFFFFFFFFFFFFFFFFFFFFFFFFFFFFFFFFFFFFFFFF AND DUP3 PUSH20 0xFFFFFFFFFFFFFFFFFFFFFFFFFFFFFFFFFFFFFFFF AND SUB PUSH2 0x126F JUMPI PUSH0 PUSH1 0x40 MLOAD PUSH32 0x89C62B6400000000000000000000000000000000000000000000000000000000 DUP2 MSTORE PUSH1 0x4 ADD PUSH2 0x1266 SWAP2 SWAP1 PUSH2 0x3FF4 JUMP JUMPDEST PUSH1 0x40 MLOAD DUP1 SWAP2 SUB SWAP1 REVERT JUMPDEST PUSH1 0x3 PUSH0 DUP4 PUSH20 0xFFFFFFFFFFFFFFFFFFFFFFFFFFFFFFFFFFFFFFFF AND PUSH20 0xFFFFFFFFFFFFFFFFFFFFFFFFFFFFFFFFFFFFFFFF AND DUP2 MSTORE PUSH1 0x20 ADD SWAP1 DUP2 MSTORE PUSH1 0x20 ADD PUSH0 KECCAK256 SLOAD SWAP1 POP SWAP2 SWAP1 POP JUMP JUMPDEST PUSH2 0x12BC PUSH2 0x1F14 JUMP JUMPDEST PUSH2 0x12C5 PUSH0 PUSH2 0x1F9B JUMP JUMPDEST JUMP JUMPDEST PUSH1 0x60 PUSH1 0x14 PUSH0 DUP4 PUSH20 0xFFFFFFFFFFFFFFFFFFFFFFFFFFFFFFFFFFFFFFFF AND PUSH20 0xFFFFFFFFFFFFFFFFFFFFFFFFFFFFFFFFFFFFFFFF AND DUP2 MSTORE PUSH1 0x20 ADD SWAP1 DUP2 MSTORE PUSH1 0x20 ADD PUSH0 KECCAK256 DUP1 SLOAD DUP1 PUSH1 0x20 MUL PUSH1 0x20 ADD PUSH1 0x40 MLOAD SWAP1 DUP2 ADD PUSH1 0x40 MSTORE DUP1 SWAP3 SWAP2 SWAP1 DUP2 DUP2 MSTORE PUSH1 0x20 ADD DUP3 DUP1 SLOAD DUP1 ISZERO PUSH2 0x134E JUMPI PUSH1 0x20 MUL DUP3 ADD SWAP2 SWAP1 PUSH0 MSTORE PUSH1 0x20 PUSH0 KECCAK256 SWAP1 JUMPDEST DUP2 SLOAD DUP2 MSTORE PUSH1 0x20 ADD SWAP1 PUSH1 0x1 ADD SWAP1 DUP1 DUP4 GT PUSH2 0x133A JUMPI JUMPDEST POP POP POP POP POP SWAP1 POP SWAP2 SWAP1 POP JUMP JUMPDEST PUSH0 PUSH1 0x60 DUP1 PUSH0 DUP1 PUSH0 PUSH1 0x60 PUSH2 0x136B PUSH2 0x205E JUMP JUMPDEST PUSH2 0x1373 PUSH2 0x2099 JUMP JUMPDEST CHAINID ADDRESS PUSH0 DUP1 SHL PUSH0 PUSH8 0xFFFFFFFFFFFFFFFF DUP2 GT ISZERO PUSH2 0x1392 JUMPI PUSH2 0x1391 PUSH2 0x4847 JUMP JUMPDEST JUMPDEST PUSH1 0x40 MLOAD SWAP1 DUP1 DUP3 MSTORE DUP1 PUSH1 0x20 MUL PUSH1 0x20 ADD DUP3 ADD PUSH1 0x40 MSTORE DUP1 ISZERO PUSH2 0x13C0 JUMPI DUP2 PUSH1 0x20 ADD PUSH1 0x20 DUP3 MUL DUP1 CALLDATASIZE DUP4 CALLDATACOPY DUP1 DUP3 ADD SWAP2 POP POP SWAP1 POP JUMPDEST POP PUSH32 0xF00000000000000000000000000000000000000000000000000000000000000 SWAP6 SWAP5 SWAP4 SWAP3 SWAP2 SWAP1 SWAP7 POP SWAP7 POP SWAP7 POP SWAP7 POP SWAP7 POP SWAP7 POP SWAP7 POP SWAP1 SWAP2 SWAP3 SWAP4 SWAP5 SWAP6 SWAP7 JUMP JUMPDEST PUSH0 PUSH1 0xD PUSH0 SWAP1 SLOAD SWAP1 PUSH2 0x100 EXP SWAP1 DIV PUSH20 0xFFFFFFFFFFFFFFFFFFFFFFFFFFFFFFFFFFFFFFFF AND SWAP1 POP SWAP1 JUMP JUMPDEST PUSH0 DUP1 PUSH2 0x1431 PUSH2 0x1DAF JUMP JUMPDEST SWAP2 POP SWAP2 POP PUSH1 0x1 PUSH1 0x2 DUP2 GT ISZERO PUSH2 0x1449 JUMPI PUSH2 0x1448 PUSH2 0x409D JUMP JUMPDEST JUMPDEST DUP2 PUSH0 ADD PUSH0 SWAP1 SLOAD SWAP1 PUSH2 0x100 EXP SWAP1 DIV PUSH1 0xFF AND PUSH1 0x2 DUP2 GT ISZERO PUSH2 0x146B JUMPI PUSH2 0x146A PUSH2 0x409D JUMP JUMPDEST JUMPDEST SUB PUSH2 0x1525 JUMPI PUSH2 0x14E5 DUP5 DUP5 DUP1 DUP1 PUSH1 0x20 MUL PUSH1 0x20 ADD PUSH1 0x40 MLOAD SWAP1 DUP2 ADD PUSH1 0x40 MSTORE DUP1 SWAP4 SWAP3 SWAP2 SWAP1 DUP2 DUP2 MSTORE PUSH1 0x20 ADD DUP4 DUP4 PUSH1 0x20 MUL DUP1 DUP3 DUP5 CALLDATACOPY PUSH0 DUP2 DUP5 ADD MSTORE PUSH1 0x1F NOT PUSH1 0x1F DUP3 ADD AND SWAP1 POP DUP1 DUP4 ADD SWAP3 POP POP POP POP POP POP POP DUP3 PUSH1 0x7 ADD SLOAD CALLER PUSH1 0x40 MLOAD PUSH1 0x20 ADD PUSH2 0x14CA SWAP2 SWAP1 PUSH2 0x4EC7 JUMP JUMPDEST PUSH1 0x40 MLOAD PUSH1 0x20 DUP2 DUP4 SUB SUB DUP2 MSTORE SWAP1 PUSH1 0x40 MSTORE DUP1 MLOAD SWAP1 PUSH1 0x20 ADD KECCAK256 PUSH2 0x20D4 JUMP JUMPDEST PUSH2 0x1524 JUMPI PUSH1 0x40 MLOAD PUSH32 0x8C379A000000000000000000000000000000000000000000000000000000000 DUP2 MSTORE PUSH1 0x4 ADD PUSH2 0x151B SWAP1 PUSH2 0x4F2B JUMP JUMPDEST PUSH1 0x40 MLOAD DUP1 SWAP2 SUB SWAP1 REVERT JUMPDEST JUMPDEST TIMESTAMP PUSH2 0xE10 DUP9 PUSH2 0x1534 SWAP2 SWAP1 PUSH2 0x4F49 JUMP JUMPDEST LT ISZERO DUP1 ISZERO PUSH2 0x1542 JUMPI POP TIMESTAMP DUP8 GT ISZERO JUMPDEST PUSH2 0x1581 JUMPI PUSH1 0x40 MLOAD PUSH32 0x8C379A000000000000000000000000000000000000000000000000000000000 DUP2 MSTORE PUSH1 0x4 ADD PUSH2 0x1578 SWAP1 PUSH2 0x4FC6 JUMP JUMPDEST PUSH1 0x40 MLOAD DUP1 SWAP2 SUB SWAP1 REVERT JUMPDEST PUSH1 0x11 PUSH0 DUP10 DUP2 MSTORE PUSH1 0x20 ADD SWAP1 DUP2 MSTORE PUSH1 0x20 ADD PUSH0 KECCAK256 PUSH0 SWAP1 SLOAD SWAP1 PUSH2 0x100 EXP SWAP1 DIV PUSH1 0xFF AND ISZERO PUSH2 0x15DF JUMPI PUSH1 0x40 MLOAD PUSH32 0x8C379A000000000000000000000000000000000000000000000000000000000 DUP2 MSTORE PUSH1 0x4 ADD PUSH2 0x15D6 SWAP1 PUSH2 0x502E JUMP JUMPDEST PUSH1 0x40 MLOAD DUP1 SWAP2 SUB SWAP1 REVERT JUMPDEST PUSH0 PUSH32 0xBCD57119BF9B3F112B39ECFB926B57BABF8EA759EF8FB8F953EC0103B2A187F3 CALLER DUP14 DUP14 DUP14 PUSH1 0x40 MLOAD PUSH2 0x1613 SWAP3 SWAP2 SWAP1 PUSH2 0x507A JUMP JUMPDEST PUSH1 0x40 MLOAD DUP1 SWAP2 SUB SWAP1 KECCAK256 DUP6 PUSH1 0x1 ADD SLOAD DUP8 DUP15 DUP15 PUSH1 0x40 MLOAD PUSH1 0x20 ADD PUSH2 0x163A SWAP9 SWAP8 SWAP7 SWAP6 SWAP5 SWAP4 SWAP3 SWAP2 SWAP1 PUSH2 0x5092 JUMP JUMPDEST PUSH1 0x40 MLOAD PUSH1 0x20 DUP2 DUP4 SUB SUB DUP2 MSTORE SWAP1 PUSH1 0x40 MSTORE DUP1 MLOAD SWAP1 PUSH1 0x20 ADD KECCAK256 SWAP1 POP PUSH32 0x0 PUSH20 0xFFFFFFFFFFFFFFFFFFFFFFFFFFFFFFFFFFFFFFFF AND PUSH2 0x16E7 DUP9 DUP9 DUP1 DUP1 PUSH1 0x1F ADD PUSH1 0x20 DUP1 SWAP2 DIV MUL PUSH1 0x20 ADD PUSH1 0x40 MLOAD SWAP1 DUP2 ADD PUSH1 0x40 MSTORE DUP1 SWAP4 SWAP3 SWAP2 SWAP1 DUP2 DUP2 MSTORE PUSH1 0x20 ADD DUP4 DUP4 DUP1 DUP3 DUP5 CALLDATACOPY PUSH0 DUP2 DUP5 ADD MSTORE PUSH1 0x1F NOT PUSH1 0x1F DUP3 ADD AND SWAP1 POP DUP1 DUP4 ADD SWAP3 POP POP POP POP POP POP POP PUSH2 0x16D9 DUP5 PUSH2 0x20EA JUMP JUMPDEST PUSH2 0x2103 SWAP1 SWAP2 SWAP1 PUSH4 0xFFFFFFFF AND JUMP JUMPDEST PUSH20 0xFFFFFFFFFFFFFFFFFFFFFFFFFFFFFFFFFFFFFFFF AND EQ PUSH2 0x173D JUMPI PUSH1 0x40 MLOAD PUSH32 0x8C379A000000000000000000000000000000000000000000000000000000000 DUP2 MSTORE PUSH1 0x4 ADD PUSH2 0x1734 SWAP1 PUSH2 0x5158 JUMP JUMPDEST PUSH1 0x40 MLOAD DUP1 SWAP2 SUB SWAP1 REVERT JUMPDEST DUP2 PUSH1 0x1 ADD SLOAD CALLVALUE EQ PUSH2 0x1783 JUMPI PUSH1 0x40 MLOAD PUSH32 0x8C379A000000000000000000000000000000000000000000000000000000000 DUP2 MSTORE PUSH1 0x4 ADD PUSH2 0x177A SWAP1 PUSH2 0x51C0 JUMP JUMPDEST PUSH1 0x40 MLOAD DUP1 SWAP2 SUB SWAP1 REVERT JUMPDEST PUSH0 DUP3 PUSH1 0x4 ADD SLOAD EQ DUP1 PUSH2 0x179C JUMPI POP DUP2 PUSH1 0x4 ADD SLOAD DUP3 PUSH1 0x6 ADD SLOAD LT JUMPDEST PUSH2 0x17DB JUMPI PUSH1 0x40 MLOAD PUSH32 0x8C379A000000000000000000000000000000000000000000000000000000000 DUP2 MSTORE PUSH1 0x4 ADD PUSH2 0x17D2 SWAP1 PUSH2 0x5228 JUMP JUMPDEST PUSH1 0x40 MLOAD DUP1 SWAP2 SUB SWAP1 REVERT JUMPDEST PUSH1 0x2 DUP1 DUP2 GT ISZERO PUSH2 0x17EE JUMPI PUSH2 0x17ED PUSH2 0x409D JUMP JUMPDEST JUMPDEST DUP3 PUSH0 ADD PUSH0 SWAP1 SLOAD SWAP1 PUSH2 0x100 EXP SWAP1 DIV PUSH1 0xFF AND PUSH1 0x2 DUP2 GT ISZERO PUSH2 0x1810 JUMPI PUSH2 0x180F PUSH2 0x409D JUMP JUMPDEST JUMPDEST EQ DUP1 ISZERO PUSH2 0x1820 JUMPI POP PUSH0 DUP3 PUSH1 0x5 ADD SLOAD EQ JUMPDEST DUP1 PUSH2 0x18AD JUMPI POP DUP2 PUSH1 0x5 ADD SLOAD PUSH1 0x13 PUSH0 CALLER PUSH20 0xFFFFFFFFFFFFFFFFFFFFFFFFFFFFFFFFFFFFFFFF AND PUSH20 0xFFFFFFFFFFFFFFFFFFFFFFFFFFFFFFFFFFFFFFFF AND DUP2 MSTORE PUSH1 0x20 ADD SWAP1 DUP2 MSTORE PUSH1 0x20 ADD PUSH0 KECCAK256 PUSH0 DUP5 PUSH0 ADD PUSH0 SWAP1 SLOAD SWAP1 PUSH2 0x100 EXP SWAP1 DIV PUSH1 0xFF AND PUSH1 0x2 DUP2 GT ISZERO PUSH2 0x188B JUMPI PUSH2 0x188A PUSH2 0x409D JUMP JUMPDEST JUMPDEST PUSH1 0x2 DUP2 GT ISZERO PUSH2 0x189D JUMPI PUSH2 0x189C PUSH2 0x409D JUMP JUMPDEST JUMPDEST DUP2 MSTORE PUSH1 0x20 ADD SWAP1 DUP2 MSTORE PUSH1 0x20 ADD PUSH0 KECCAK256 SLOAD LT JUMPDEST PUSH2 0x18EC JUMPI PUSH1 0x40 MLOAD PUSH32 0x8C379A000000000000000000000000000000000000000000000000000000000 DUP2 MSTORE PUSH1 0x4 ADD PUSH2 0x18E3 SWAP1 PUSH2 0x52B6 JUMP JUMPDEST PUSH1 0x40 MLOAD DUP1 SWAP2 SUB SWAP1 REVERT JUMPDEST PUSH1 0x1 PUSH1 0x11 PUSH0 DUP12 DUP2 MSTORE PUSH1 0x20 ADD SWAP1 DUP2 MSTORE PUSH1 0x20 ADD PUSH0 KECCAK256 PUSH0 PUSH2 0x100 EXP DUP2 SLOAD DUP2 PUSH1 0xFF MUL NOT AND SWAP1 DUP4 ISZERO ISZERO MUL OR SWAP1 SSTORE POP PUSH2 0x191E CALLVALUE PUSH2 0x212D JUMP JUMPDEST PUSH2 0x1928 DUP3 CALLER PUSH2 0x2311 JUMP JUMPDEST PUSH2 0x1934 CALLER DUP14 DUP14 DUP14 PUSH2 0x23C2 JUMP JUMPDEST CALLER PUSH20 0xFFFFFFFFFFFFFFFFFFFFFFFFFFFFFFFFFFFFFFFF AND DUP13 PUSH32 0x99F38CF3FEAAD38E0A2E22EF51BDD4FABA32B432520A951248D77057596A425A DUP5 PUSH0 ADD PUSH0 SWAP1 SLOAD SWAP1 PUSH2 0x100 EXP SWAP1 DIV PUSH1 0xFF AND PUSH1 0x40 MLOAD PUSH2 0x198A SWAP2 SWAP1 PUSH2 0x52D4 JUMP JUMPDEST PUSH1 0x40 MLOAD DUP1 SWAP2 SUB SWAP1 LOG3 POP POP POP POP POP POP POP POP POP POP POP POP JUMP JUMPDEST PUSH1 0x60 PUSH1 0x1 DUP1 SLOAD PUSH2 0x19AF SWAP1 PUSH2 0x4AEC JUMP JUMPDEST DUP1 PUSH1 0x1F ADD PUSH1 0x20 DUP1 SWAP2 DIV MUL PUSH1 0x20 ADD PUSH1 0x40 MLOAD SWAP1 DUP2 ADD PUSH1 0x40 MSTORE DUP1 SWAP3 SWAP2 SWAP1 DUP2 DUP2 MSTORE PUSH1 0x20 ADD DUP3 DUP1 SLOAD PUSH2 0x19DB SWAP1 PUSH2 0x4AEC JUMP JUMPDEST DUP1 ISZERO PUSH2 0x1A26 JUMPI DUP1 PUSH1 0x1F LT PUSH2 0x19FD JUMPI PUSH2 0x100 DUP1 DUP4 SLOAD DIV MUL DUP4 MSTORE SWAP2 PUSH1 0x20 ADD SWAP2 PUSH2 0x1A26 JUMP JUMPDEST DUP3 ADD SWAP2 SWAP1 PUSH0 MSTORE PUSH1 0x20 PUSH0 KECCAK256 SWAP1 JUMPDEST DUP2 SLOAD DUP2 MSTORE SWAP1 PUSH1 0x1 ADD SWAP1 PUSH1 0x20 ADD DUP1 DUP4 GT PUSH2 0x1A09 JUMPI DUP3 SWAP1 SUB PUSH1 0x1F AND DUP3 ADD SWAP2 JUMPDEST POP POP POP POP POP SWAP1 POP SWAP1 JUMP JUMPDEST PUSH2 0x1A42 PUSH2 0x1A3B PUSH2 0x1D96 JUMP JUMPDEST DUP4 DUP4 PUSH2 0x242B JUMP JUMPDEST POP POP JUMP JUMPDEST PUSH2 0x1A51 DUP5 DUP5 DUP5 PUSH2 0xA84 JUMP JUMPDEST PUSH2 0x1A5D DUP5 DUP5 DUP5 DUP5 PUSH2 0x2594 JUMP JUMPDEST POP POP POP POP JUMP JUMPDEST PUSH1 0x60 PUSH2 0x1A6E DUP3 PUSH2 0x2746 JUMP JUMPDEST SWAP1 POP SWAP2 SWAP1 POP JUMP JUMPDEST PUSH1 0x15 PUSH0 SWAP1 SLOAD SWAP1 PUSH2 0x100 EXP SWAP1 DIV PUSH12 0xFFFFFFFFFFFFFFFFFFFFFFFF AND DUP2 JUMP JUMPDEST PUSH0 PUSH1 0x12 DUP1 SLOAD SWAP1 POP SWAP1 POP SWAP1 JUMP JUMPDEST PUSH0 PUSH1 0x5 PUSH0 DUP5 PUSH20 0xFFFFFFFFFFFFFFFFFFFFFFFFFFFFFFFFFFFFFFFF AND PUSH20 0xFFFFFFFFFFFFFFFFFFFFFFFFFFFFFFFFFFFFFFFF AND DUP2 MSTORE PUSH1 0x20 ADD SWAP1 DUP2 MSTORE PUSH1 0x20 ADD PUSH0 KECCAK256 PUSH0 DUP4 PUSH20 0xFFFFFFFFFFFFFFFFFFFFFFFFFFFFFFFFFFFFFFFF AND PUSH20 0xFFFFFFFFFFFFFFFFFFFFFFFFFFFFFFFFFFFFFFFF AND DUP2 MSTORE PUSH1 0x20 ADD SWAP1 DUP2 MSTORE PUSH1 0x20 ADD PUSH0 KECCAK256 PUSH0 SWAP1 SLOAD SWAP1 PUSH2 0x100 EXP SWAP1 DIV PUSH1 0xFF AND SWAP1 POP SWAP3 SWAP2 POP POP JUMP JUMPDEST PUSH1 0x15 PUSH1 0xC SWAP1 SLOAD SWAP1 PUSH2 0x100 EXP SWAP1 DIV PUSH20 0xFFFFFFFFFFFFFFFFFFFFFFFFFFFFFFFFFFFFFFFF AND DUP2 JUMP JUMPDEST PUSH0 PUSH2 0x1B5B PUSH2 0x2851 JUMP JUMPDEST SWAP1 POP SWAP1 JUMP JUMPDEST PUSH2 0x1B68 PUSH2 0x1F14 JUMP JUMPDEST PUSH0 PUSH20 0xFFFFFFFFFFFFFFFFFFFFFFFFFFFFFFFFFFFFFFFF AND DUP2 PUSH20 0xFFFFFFFFFFFFFFFFFFFFFFFFFFFFFFFFFFFFFFFF AND SUB PUSH2 0x1BD8 JUMPI PUSH0 PUSH1 0x40 MLOAD PUSH32 0x1E4FBDF700000000000000000000000000000000000000000000000000000000 DUP2 MSTORE PUSH1 0x4 ADD PUSH2 0x1BCF SWAP2 SWAP1 PUSH2 0x3FF4 JUMP JUMPDEST PUSH1 0x40 MLOAD DUP1 SWAP2 SUB SWAP1 REVERT JUMPDEST PUSH2 0x1BE1 DUP2 PUSH2 0x1F9B JUMP JUMPDEST POP JUMP JUMPDEST PUSH0 PUSH1 0x13 PUSH0 DUP5 PUSH20 0xFFFFFFFFFFFFFFFFFFFFFFFFFFFFFFFFFFFFFFFF AND PUSH20 0xFFFFFFFFFFFFFFFFFFFFFFFFFFFFFFFFFFFFFFFF AND DUP2 MSTORE PUSH1 0x20 ADD SWAP1 DUP2 MSTORE PUSH1 0x20 ADD PUSH0 KECCAK256 PUSH0 DUP4 PUSH1 0x2 DUP2 GT ISZERO PUSH2 0x1C36 JUMPI PUSH2 0x1C35 PUSH2 0x409D JUMP JUMPDEST JUMPDEST PUSH1 0x2 DUP2 GT ISZERO PUSH2 0x1C48 JUMPI PUSH2 0x1C47 PUSH2 0x409D JUMP JUMPDEST JUMPDEST DUP2 MSTORE PUSH1 0x20 ADD SWAP1 DUP2 MSTORE PUSH1 0x20 ADD PUSH0 KECCAK256 SLOAD SWAP1 POP SWAP3 SWAP2 POP POP JUMP JUMPDEST PUSH0 PUSH32 0x2A55205A00000000000000000000000000000000000000000000000000000000 PUSH28 0xFFFFFFFFFFFFFFFFFFFFFFFFFFFFFFFFFFFFFFFFFFFFFFFFFFFFFFFF NOT AND DUP3 PUSH28 0xFFFFFFFFFFFFFFFFFFFFFFFFFFFFFFFFFFFFFFFFFFFFFFFFFFFFFFFF NOT AND EQ DUP1 PUSH2 0x1CD0 JUMPI POP PUSH2 0x1CCF DUP3 PUSH2 0x2907 JUMP JUMPDEST JUMPDEST SWAP1 POP SWAP2 SWAP1 POP JUMP JUMPDEST PUSH0 DUP1 PUSH2 0x1CE2 DUP4 PUSH2 0x2967 JUMP JUMPDEST SWAP1 POP PUSH0 PUSH20 0xFFFFFFFFFFFFFFFFFFFFFFFFFFFFFFFFFFFFFFFF AND DUP2 PUSH20 0xFFFFFFFFFFFFFFFFFFFFFFFFFFFFFFFFFFFFFFFF AND SUB PUSH2 0x1D54 JUMPI DUP3 PUSH1 0x40 MLOAD PUSH32 0x7E27328900000000000000000000000000000000000000000000000000000000 DUP2 MSTORE PUSH1 0x4 ADD PUSH2 0x1D4B SWAP2 SWAP1 PUSH2 0x4084 JUMP JUMPDEST PUSH1 0x40 MLOAD DUP1 SWAP2 SUB SWAP1 REVERT JUMPDEST DUP1 SWAP2 POP POP SWAP2 SWAP1 POP JUMP JUMPDEST PUSH0 PUSH1 0x4 PUSH0 DUP4 DUP2 MSTORE PUSH1 0x20 ADD SWAP1 DUP2 MSTORE PUSH1 0x20 ADD PUSH0 KECCAK256 PUSH0 SWAP1 SLOAD SWAP1 PUSH2 0x100 EXP SWAP1 DIV PUSH20 0xFFFFFFFFFFFFFFFFFFFFFFFFFFFFFFFFFFFFFFFF AND SWAP1 POP SWAP2 SWAP1 POP JUMP JUMPDEST PUSH0 CALLER SWAP1 POP SWAP1 JUMP JUMPDEST PUSH2 0x1DAA DUP4 DUP4 DUP4 PUSH1 0x1 PUSH2 0x29A0 JUMP JUMPDEST POP POP POP JUMP JUMPDEST PUSH0 DUP1 PUSH0 TIMESTAMP SWAP1 POP PUSH0 JUMPDEST PUSH1 0x12 DUP1 SLOAD SWAP1 POP DUP2 LT ISZERO PUSH2 0x1EB6 JUMPI PUSH0 PUSH1 0x2 DUP2 GT ISZERO PUSH2 0x1DD7 JUMPI PUSH2 0x1DD6 PUSH2 0x409D JUMP JUMPDEST JUMPDEST PUSH1 0x12 DUP3 DUP2 SLOAD DUP2 LT PUSH2 0x1DEB JUMPI PUSH2 0x1DEA PUSH2 0x4B1C JUMP JUMPDEST JUMPDEST SWAP1 PUSH0 MSTORE PUSH1 0x20 PUSH0 KECCAK256 SWAP1 PUSH1 0x8 MUL ADD PUSH0 ADD PUSH0 SWAP1 SLOAD SWAP1 PUSH2 0x100 EXP SWAP1 DIV PUSH1 0xFF AND PUSH1 0x2 DUP2 GT ISZERO PUSH2 0x1E18 JUMPI PUSH2 0x1E17 PUSH2 0x409D JUMP JUMPDEST JUMPDEST EQ ISZERO DUP1 ISZERO PUSH2 0x1E49 JUMPI POP PUSH1 0x12 DUP2 DUP2 SLOAD DUP2 LT PUSH2 0x1E35 JUMPI PUSH2 0x1E34 PUSH2 0x4B1C JUMP JUMPDEST JUMPDEST SWAP1 PUSH0 MSTORE PUSH1 0x20 PUSH0 KECCAK256 SWAP1 PUSH1 0x8 MUL ADD PUSH1 0x2 ADD SLOAD DUP3 LT ISZERO JUMPDEST DUP1 ISZERO PUSH2 0x1E78 JUMPI POP PUSH1 0x12 DUP2 DUP2 SLOAD DUP2 LT PUSH2 0x1E64 JUMPI PUSH2 0x1E63 PUSH2 0x4B1C JUMP JUMPDEST JUMPDEST SWAP1 PUSH0 MSTORE PUSH1 0x20 PUSH0 KECCAK256 SWAP1 PUSH1 0x8 MUL ADD PUSH1 0x3 ADD SLOAD DUP3 GT ISZERO JUMPDEST ISZERO PUSH2 0x1EA9 JUMPI DUP1 PUSH1 0x12 DUP3 DUP2 SLOAD DUP2 LT PUSH2 0x1E92 JUMPI PUSH2 0x1E91 PUSH2 0x4B1C JUMP JUMPDEST JUMPDEST SWAP1 PUSH0 MSTORE PUSH1 0x20 PUSH0 KECCAK256 SWAP1 PUSH1 0x8 MUL ADD SWAP4 POP SWAP4 POP POP POP PUSH2 0x1EF2 JUMP JUMPDEST DUP1 DUP1 PUSH1 0x1 ADD SWAP2 POP POP PUSH2 0x1DB7 JUMP JUMPDEST POP PUSH1 0x40 MLOAD PUSH32 0x8C379A000000000000000000000000000000000000000000000000000000000 DUP2 MSTORE PUSH1 0x4 ADD PUSH2 0x1EE9 SWAP1 PUSH2 0x5337 JUMP JUMPDEST PUSH1 0x40 MLOAD DUP1 SWAP2 SUB SWAP1 REVERT JUMPDEST SWAP1 SWAP2 JUMP JUMPDEST PUSH0 PUSH2 0x1F02 DUP5 DUP5 DUP5 PUSH2 0x2B5F JUMP JUMPDEST SWAP1 POP SWAP4 SWAP3 POP POP POP JUMP JUMPDEST PUSH0 PUSH2 0x2710 SWAP1 POP SWAP1 JUMP JUMPDEST PUSH2 0x1F1C PUSH2 0x1D96 JUMP JUMPDEST PUSH20 0xFFFFFFFFFFFFFFFFFFFFFFFFFFFFFFFFFFFFFFFF AND PUSH2 0x1F3A PUSH2 0x13FF JUMP JUMPDEST PUSH20 0xFFFFFFFFFFFFFFFFFFFFFFFFFFFFFFFFFFFFFFFF AND EQ PUSH2 0x1F99 JUMPI PUSH2 0x1F5D PUSH2 0x1D96 JUMP JUMPDEST PUSH1 0x40 MLOAD PUSH32 0x118CDAA700000000000000000000000000000000000000000000000000000000 DUP2 MSTORE PUSH1 0x4 ADD PUSH2 0x1F90 SWAP2 SWAP1 PUSH2 0x3FF4 JUMP JUMPDEST PUSH1 0x40 MLOAD DUP1 SWAP2 SUB SWAP1 REVERT JUMPDEST JUMP JUMPDEST PUSH0 PUSH1 0xD PUSH0 SWAP1 SLOAD SWAP1 PUSH2 0x100 EXP SWAP1 DIV PUSH20 0xFFFFFFFFFFFFFFFFFFFFFFFFFFFFFFFFFFFFFFFF AND SWAP1 POP DUP2 PUSH1 0xD PUSH0 PUSH2 0x100 EXP DUP2 SLOAD DUP2 PUSH20 0xFFFFFFFFFFFFFFFFFFFFFFFFFFFFFFFFFFFFFFFF MUL NOT AND SWAP1 DUP4 PUSH20 0xFFFFFFFFFFFFFFFFFFFFFFFFFFFFFFFFFFFFFFFF AND MUL OR SWAP1 SSTORE POP DUP2 PUSH20 0xFFFFFFFFFFFFFFFFFFFFFFFFFFFFFFFFFFFFFFFF AND DUP2 PUSH20 0xFFFFFFFFFFFFFFFFFFFFFFFFFFFFFFFFFFFFFFFF AND PUSH32 0x8BE0079C531659141344CD1FD0A4F28419497F9722A3DAAFE3B4186F6B6457E0 PUSH1 0x40 MLOAD PUSH1 0x40 MLOAD DUP1 SWAP2 SUB SWAP1 LOG3 POP POP JUMP JUMPDEST PUSH1 0x60 PUSH2 0x2094 PUSH1 0xE PUSH32 0x0 PUSH2 0x2C79 SWAP1 SWAP2 SWAP1 PUSH4 0xFFFFFFFF AND JUMP JUMPDEST SWAP1 POP SWAP1 JUMP JUMPDEST PUSH1 0x60 PUSH2 0x20CF PUSH1 0xF PUSH32 0x0 PUSH2 0x2C79 SWAP1 SWAP2 SWAP1 PUSH4 0xFFFFFFFF AND JUMP JUMPDEST SWAP1 POP SWAP1 JUMP JUMPDEST PUSH0 DUP3 PUSH2 0x20E0 DUP6 DUP5 PUSH2 0x2D26 JUMP JUMPDEST EQ SWAP1 POP SWAP4 SWAP3 POP POP POP JUMP JUMPDEST PUSH0 PUSH2 0x20FC PUSH2 0x20F6 PUSH2 0x2851 JUMP JUMPDEST DUP4 PUSH2 0x2D74 JUMP JUMPDEST SWAP1 POP SWAP2 SWAP1 POP JUMP JUMPDEST PUSH0 DUP1 PUSH0 DUP1 PUSH2 0x2111 DUP7 DUP7 PUSH2 0x2DB4 JUMP JUMPDEST SWAP3 POP SWAP3 POP SWAP3 POP PUSH2 0x2121 DUP3 DUP3 PUSH2 0x2E09 JUMP JUMPDEST DUP3 SWAP4 POP POP POP POP SWAP3 SWAP2 POP POP JUMP JUMPDEST PUSH0 PUSH2 0x2710 PUSH1 0x15 PUSH0 SWAP1 SLOAD SWAP1 PUSH2 0x100 EXP SWAP1 DIV PUSH12 0xFFFFFFFFFFFFFFFFFFFFFFFF AND PUSH12 0xFFFFFFFFFFFFFFFFFFFFFFFF AND DUP4 PUSH2 0x2164 SWAP2 SWAP1 PUSH2 0x4BAB JUMP JUMPDEST PUSH2 0x216E SWAP2 SWAP1 PUSH2 0x4C19 JUMP JUMPDEST SWAP1 POP PUSH0 DUP2 GT ISZERO PUSH2 0x2244 JUMPI PUSH0 PUSH1 0x15 PUSH1 0xC SWAP1 SLOAD SWAP1 PUSH2 0x100 EXP SWAP1 DIV PUSH20 0xFFFFFFFFFFFFFFFFFFFFFFFFFFFFFFFFFFFFFFFF AND PUSH20 0xFFFFFFFFFFFFFFFFFFFFFFFFFFFFFFFFFFFFFFFF AND DUP3 PUSH1 0x40 MLOAD PUSH2 0x21BF SWAP1 PUSH2 0x5378 JUMP JUMPDEST PUSH0 PUSH1 0x40 MLOAD DUP1 DUP4 SUB DUP2 DUP6 DUP8 GAS CALL SWAP3 POP POP POP RETURNDATASIZE DUP1 PUSH0 DUP2 EQ PUSH2 0x21F9 JUMPI PUSH1 0x40 MLOAD SWAP2 POP PUSH1 0x1F NOT PUSH1 0x3F RETURNDATASIZE ADD AND DUP3 ADD PUSH1 0x40 MSTORE RETURNDATASIZE DUP3 MSTORE RETURNDATASIZE PUSH0 PUSH1 0x20 DUP5 ADD RETURNDATACOPY PUSH2 0x21FE JUMP JUMPDEST PUSH1 0x60 SWAP2 POP JUMPDEST POP POP SWAP1 POP DUP1 PUSH2 0x2242 JUMPI PUSH1 0x40 MLOAD PUSH32 0x8C379A000000000000000000000000000000000000000000000000000000000 DUP2 MSTORE PUSH1 0x4 ADD PUSH2 0x2239 SWAP1 PUSH2 0x53D6 JUMP JUMPDEST PUSH1 0x40 MLOAD DUP1 SWAP2 SUB SWAP1 REVERT JUMPDEST POP JUMPDEST PUSH0 DUP2 DUP4 PUSH2 0x2251 SWAP2 SWAP1 PUSH2 0x53F4 JUMP JUMPDEST SWAP1 POP PUSH0 DUP2 GT ISZERO PUSH2 0x230C JUMPI PUSH0 PUSH2 0x2264 PUSH2 0x13FF JUMP JUMPDEST PUSH20 0xFFFFFFFFFFFFFFFFFFFFFFFFFFFFFFFFFFFFFFFF AND DUP3 PUSH1 0x40 MLOAD PUSH2 0x2287 SWAP1 PUSH2 0x5378 JUMP JUMPDEST PUSH0 PUSH1 0x40 MLOAD DUP1 DUP4 SUB DUP2 DUP6 DUP8 GAS CALL SWAP3 POP POP POP RETURNDATASIZE DUP1 PUSH0 DUP2 EQ PUSH2 0x22C1 JUMPI PUSH1 0x40 MLOAD SWAP2 POP PUSH1 0x1F NOT PUSH1 0x3F RETURNDATASIZE ADD AND DUP3 ADD PUSH1 0x40 MSTORE RETURNDATASIZE DUP3 MSTORE RETURNDATASIZE PUSH0 PUSH1 0x20 DUP5 ADD RETURNDATACOPY PUSH2 0x22C6 JUMP JUMPDEST PUSH1 0x60 SWAP2 POP JUMPDEST POP POP SWAP1 POP DUP1 PUSH2 0x230A JUMPI PUSH1 0x40 MLOAD PUSH32 0x8C379A000000000000000000000000000000000000000000000000000000000 DUP2 MSTORE PUSH1 0x4 ADD PUSH2 0x2301 SWAP1 PUSH2 0x5471 JUMP JUMPDEST PUSH1 0x40 MLOAD DUP1 SWAP2 SUB SWAP1 REVERT JUMPDEST POP JUMPDEST POP POP POP JUMP JUMPDEST DUP2 PUSH1 0x6 ADD PUSH0 DUP2 SLOAD DUP1 SWAP3 SWAP2 SWAP1 PUSH2 0x2325 SWAP1 PUSH2 0x548F JUMP JUMPDEST SWAP2 SWAP1 POP SSTORE POP PUSH1 0x13 PUSH0 DUP3 PUSH20 0xFFFFFFFFFFFFFFFFFFFFFFFFFFFFFFFFFFFFFFFF AND PUSH20 0xFFFFFFFFFFFFFFFFFFFFFFFFFFFFFFFFFFFFFFFF AND DUP2 MSTORE PUSH1 0x20 ADD SWAP1 DUP2 MSTORE PUSH1 0x20 ADD PUSH0 KECCAK256 PUSH0 DUP4 PUSH0 ADD PUSH0 SWAP1 SLOAD SWAP1 PUSH2 0x100 EXP SWAP1 DIV PUSH1 0xFF AND PUSH1 0x2 DUP2 GT ISZERO PUSH2 0x238A JUMPI PUSH2 0x2389 PUSH2 0x409D JUMP JUMPDEST JUMPDEST PUSH1 0x2 DUP2 GT ISZERO PUSH2 0x239C JUMPI PUSH2 0x239B PUSH2 0x409D JUMP JUMPDEST JUMPDEST DUP2 MSTORE PUSH1 0x20 ADD SWAP1 DUP2 MSTORE PUSH1 0x20 ADD PUSH0 KECCAK256 PUSH0 DUP2 SLOAD DUP1 SWAP3 SWAP2 SWAP1 PUSH2 0x23B9 SWAP1 PUSH2 0x548F JUMP JUMPDEST SWAP2 SWAP1 POP SSTORE POP POP POP JUMP JUMPDEST PUSH2 0x23CC DUP5 DUP5 PUSH2 0x2F6B JUMP JUMPDEST PUSH0 DUP3 DUP3 SWAP1 POP GT ISZERO PUSH2 0x2425 JUMPI PUSH2 0x2424 DUP4 DUP4 DUP4 DUP1 DUP1 PUSH1 0x1F ADD PUSH1 0x20 DUP1 SWAP2 DIV MUL PUSH1 0x20 ADD PUSH1 0x40 MLOAD SWAP1 DUP2 ADD PUSH1 0x40 MSTORE DUP1 SWAP4 SWAP3 SWAP2 SWAP1 DUP2 DUP2 MSTORE PUSH1 0x20 ADD DUP4 DUP4 DUP1 DUP3 DUP5 CALLDATACOPY PUSH0 DUP2 DUP5 ADD MSTORE PUSH1 0x1F NOT PUSH1 0x1F DUP3 ADD AND SWAP1 POP DUP1 DUP4 ADD SWAP3 POP POP POP POP POP POP POP PUSH2 0x2F88 JUMP JUMPDEST JUMPDEST POP POP POP POP JUMP JUMPDEST PUSH0 PUSH20 0xFFFFFFFFFFFFFFFFFFFFFFFFFFFFFFFFFFFFFFFF AND DUP3 PUSH20 0xFFFFFFFFFFFFFFFFFFFFFFFFFFFFFFFFFFFFFFFF AND SUB PUSH2 0x249B JUMPI DUP2 PUSH1 0x40 MLOAD PUSH32 0x5B08BA1800000000000000000000000000000000000000000000000000000000 DUP2 MSTORE PUSH1 0x4 ADD PUSH2 0x2492 SWAP2 SWAP1 PUSH2 0x3FF4 JUMP JUMPDEST PUSH1 0x40 MLOAD DUP1 SWAP2 SUB SWAP1 REVERT JUMPDEST DUP1 PUSH1 0x5 PUSH0 DUP6 PUSH20 0xFFFFFFFFFFFFFFFFFFFFFFFFFFFFFFFFFFFFFFFF AND PUSH20 0xFFFFFFFFFFFFFFFFFFFFFFFFFFFFFFFFFFFFFFFF AND DUP2 MSTORE PUSH1 0x20 ADD SWAP1 DUP2 MSTORE PUSH1 0x20 ADD PUSH0 KECCAK256 PUSH0 DUP5 PUSH20 0xFFFFFFFFFFFFFFFFFFFFFFFFFFFFFFFFFFFFFFFF AND PUSH20 0xFFFFFFFFFFFFFFFFFFFFFFFFFFFFFFFFFFFFFFFF AND DUP2 MSTORE PUSH1 0x20 ADD SWAP1 DUP2 MSTORE PUSH1 0x20 ADD PUSH0 KECCAK256 PUSH0 PUSH2 0x100 EXP DUP2 SLOAD DUP2 PUSH1 0xFF MUL NOT AND SWAP1 DUP4 ISZERO ISZERO MUL OR SWAP1 SSTORE POP DUP2 PUSH20 0xFFFFFFFFFFFFFFFFFFFFFFFFFFFFFFFFFFFFFFFF AND DUP4 PUSH20 0xFFFFFFFFFFFFFFFFFFFFFFFFFFFFFFFFFFFFFFFF AND PUSH32 0x17307EAB39AB6107E8899845AD3D59BD9653F200F220920489CA2B5937696C31 DUP4 PUSH1 0x40 MLOAD PUSH2 0x2587 SWAP2 SWAP1 PUSH2 0x3EAE JUMP JUMPDEST PUSH1 0x40 MLOAD DUP1 SWAP2 SUB SWAP1 LOG3 POP POP POP JUMP JUMPDEST PUSH0 DUP4 PUSH20 0xFFFFFFFFFFFFFFFFFFFFFFFFFFFFFFFFFFFFFFFF AND EXTCODESIZE GT ISZERO PUSH2 0x2740 JUMPI DUP3 PUSH20 0xFFFFFFFFFFFFFFFFFFFFFFFFFFFFFFFFFFFFFFFF AND PUSH4 0x150B7A02 PUSH2 0x25D7 PUSH2 0x1D96 JUMP JUMPDEST DUP7 DUP6 DUP6 PUSH1 0x40 MLOAD DUP6 PUSH4 0xFFFFFFFF AND PUSH1 0xE0 SHL DUP2 MSTORE PUSH1 0x4 ADD PUSH2 0x25F9 SWAP5 SWAP4 SWAP3 SWAP2 SWAP1 PUSH2 0x5528 JUMP JUMPDEST PUSH1 0x20 PUSH1 0x40 MLOAD DUP1 DUP4 SUB DUP2 PUSH0 DUP8 GAS CALL SWAP3 POP POP POP DUP1 ISZERO PUSH2 0x2634 JUMPI POP PUSH1 0x40 MLOAD RETURNDATASIZE PUSH1 0x1F NOT PUSH1 0x1F DUP3 ADD AND DUP3 ADD DUP1 PUSH1 0x40 MSTORE POP DUP2 ADD SWAP1 PUSH2 0x2631 SWAP2 SWAP1 PUSH2 0x5586 JUMP JUMPDEST PUSH1 0x1 JUMPDEST PUSH2 0x26B5 JUMPI RETURNDATASIZE DUP1 PUSH0 DUP2 EQ PUSH2 0x2662 JUMPI PUSH1 0x40 MLOAD SWAP2 POP PUSH1 0x1F NOT PUSH1 0x3F RETURNDATASIZE ADD AND DUP3 ADD PUSH1 0x40 MSTORE RETURNDATASIZE DUP3 MSTORE RETURNDATASIZE PUSH0 PUSH1 0x20 DUP5 ADD RETURNDATACOPY PUSH2 0x2667 JUMP JUMPDEST PUSH1 0x60 SWAP2 POP JUMPDEST POP PUSH0 DUP2 MLOAD SUB PUSH2 0x26AD JUMPI DUP4 PUSH1 0x40 MLOAD PUSH32 0x64A0AE9200000000000000000000000000000000000000000000000000000000 DUP2 MSTORE PUSH1 0x4 ADD PUSH2 0x26A4 SWAP2 SWAP1 PUSH2 0x3FF4 JUMP JUMPDEST PUSH1 0x40 MLOAD DUP1 SWAP2 SUB SWAP1 REVERT JUMPDEST DUP1 MLOAD DUP2 PUSH1 0x20 ADD REVERT JUMPDEST PUSH4 0x150B7A02 PUSH1 0xE0 SHL PUSH28 0xFFFFFFFFFFFFFFFFFFFFFFFFFFFFFFFFFFFFFFFFFFFFFFFFFFFFFFFF NOT AND DUP2 PUSH28 0xFFFFFFFFFFFFFFFFFFFFFFFFFFFFFFFFFFFFFFFFFFFFFFFFFFFFFFFF NOT AND EQ PUSH2 0x273E JUMPI DUP4 PUSH1 0x40 MLOAD PUSH32 0x64A0AE9200000000000000000000000000000000000000000000000000000000 DUP2 MSTORE PUSH1 0x4 ADD PUSH2 0x2735 SWAP2 SWAP1 PUSH2 0x3FF4 JUMP JUMPDEST PUSH1 0x40 MLOAD DUP1 SWAP2 SUB SWAP1 REVERT JUMPDEST POP JUMPDEST POP POP POP POP JUMP JUMPDEST PUSH1 0x60 PUSH2 0x2751 DUP3 PUSH2 0x1CD7 JUMP JUMPDEST POP PUSH0 PUSH1 0xA PUSH0 DUP5 DUP2 MSTORE PUSH1 0x20 ADD SWAP1 DUP2 MSTORE PUSH1 0x20 ADD PUSH0 KECCAK256 DUP1 SLOAD PUSH2 0x276F SWAP1 PUSH2 0x4AEC JUMP JUMPDEST DUP1 PUSH1 0x1F ADD PUSH1 0x20 DUP1 SWAP2 DIV MUL PUSH1 0x20 ADD PUSH1 0x40 MLOAD SWAP1 DUP2 ADD PUSH1 0x40 MSTORE DUP1 SWAP3 SWAP2 SWAP1 DUP2 DUP2 MSTORE PUSH1 0x20 ADD DUP3 DUP1 SLOAD PUSH2 0x279B SWAP1 PUSH2 0x4AEC JUMP JUMPDEST DUP1 ISZERO PUSH2 0x27E6 JUMPI DUP1 PUSH1 0x1F LT PUSH2 0x27BD JUMPI PUSH2 0x100 DUP1 DUP4 SLOAD DIV MUL DUP4 MSTORE SWAP2 PUSH1 0x20 ADD SWAP2 PUSH2 0x27E6 JUMP JUMPDEST DUP3 ADD SWAP2 SWAP1 PUSH0 MSTORE PUSH1 0x20 PUSH0 KECCAK256 SWAP1 JUMPDEST DUP2 SLOAD DUP2 MSTORE SWAP1 PUSH1 0x1 ADD SWAP1 PUSH1 0x20 ADD DUP1 DUP4 GT PUSH2 0x27C9 JUMPI DUP3 SWAP1 SUB PUSH1 0x1F AND DUP3 ADD SWAP2 JUMPDEST POP POP POP POP POP SWAP1 POP PUSH0 PUSH2 0x27F6 PUSH2 0x2FE2 JUMP JUMPDEST SWAP1 POP PUSH0 DUP2 MLOAD SUB PUSH2 0x280A JUMPI DUP2 SWAP3 POP POP POP PUSH2 0x284C JUMP JUMPDEST PUSH0 DUP3 MLOAD GT ISZERO PUSH2 0x283E JUMPI DUP1 DUP3 PUSH1 0x40 MLOAD PUSH1 0x20 ADD PUSH2 0x2826 SWAP3 SWAP2 SWAP1 PUSH2 0x55EB JUMP JUMPDEST PUSH1 0x40 MLOAD PUSH1 0x20 DUP2 DUP4 SUB SUB DUP2 MSTORE SWAP1 PUSH1 0x40 MSTORE SWAP3 POP POP POP PUSH2 0x284C JUMP JUMPDEST PUSH2 0x2847 DUP5 PUSH2 0x2FF8 JUMP JUMPDEST SWAP3 POP POP POP JUMPDEST SWAP2 SWAP1 POP JUMP JUMPDEST PUSH0 PUSH32 0x0 PUSH20 0xFFFFFFFFFFFFFFFFFFFFFFFFFFFFFFFFFFFFFFFF AND ADDRESS PUSH20 0xFFFFFFFFFFFFFFFFFFFFFFFFFFFFFFFFFFFFFFFF AND EQ DUP1 ISZERO PUSH2 0x28CC JUMPI POP PUSH32 0x0 CHAINID EQ JUMPDEST ISZERO PUSH2 0x28F9 JUMPI PUSH32 0x0 SWAP1 POP PUSH2 0x2904 JUMP JUMPDEST PUSH2 0x2901 PUSH2 0x305E JUMP JUMPDEST SWAP1 POP JUMPDEST SWAP1 JUMP JUMPDEST PUSH0 PUSH4 0x49064906 PUSH1 0xE0 SHL PUSH28 0xFFFFFFFFFFFFFFFFFFFFFFFFFFFFFFFFFFFFFFFFFFFFFFFFFFFFFFFF NOT AND DUP3 PUSH28 0xFFFFFFFFFFFFFFFFFFFFFFFFFFFFFFFFFFFFFFFFFFFFFFFFFFFFFFFF NOT AND EQ DUP1 PUSH2 0x2960 JUMPI POP PUSH2 0x295F DUP3 PUSH2 0x30F3 JUMP JUMPDEST JUMPDEST SWAP1 POP SWAP2 SWAP1 POP JUMP JUMPDEST PUSH0 PUSH1 0x2 PUSH0 DUP4 DUP2 MSTORE PUSH1 0x20 ADD SWAP1 DUP2 MSTORE PUSH1 0x20 ADD PUSH0 KECCAK256 PUSH0 SWAP1 SLOAD SWAP1 PUSH2 0x100 EXP SWAP1 DIV PUSH20 0xFFFFFFFFFFFFFFFFFFFFFFFFFFFFFFFFFFFFFFFF AND SWAP1 POP SWAP2 SWAP1 POP JUMP JUMPDEST DUP1 DUP1 PUSH2 0x29D8 JUMPI POP PUSH0 PUSH20 0xFFFFFFFFFFFFFFFFFFFFFFFFFFFFFFFFFFFFFFFF AND DUP3 PUSH20 0xFFFFFFFFFFFFFFFFFFFFFFFFFFFFFFFFFFFFFFFF AND EQ ISZERO JUMPDEST ISZERO PUSH2 0x2B0A JUMPI PUSH0 PUSH2 0x29E7 DUP5 PUSH2 0x1CD7 JUMP JUMPDEST SWAP1 POP PUSH0 PUSH20 0xFFFFFFFFFFFFFFFFFFFFFFFFFFFFFFFFFFFFFFFF AND DUP4 PUSH20 0xFFFFFFFFFFFFFFFFFFFFFFFFFFFFFFFFFFFFFFFF AND EQ ISZERO DUP1 ISZERO PUSH2 0x2A51 JUMPI POP DUP3 PUSH20 0xFFFFFFFFFFFFFFFFFFFFFFFFFFFFFFFFFFFFFFFF AND DUP2 PUSH20 0xFFFFFFFFFFFFFFFFFFFFFFFFFFFFFFFFFFFFFFFF AND EQ ISZERO JUMPDEST DUP1 ISZERO PUSH2 0x2A64 JUMPI POP PUSH2 0x2A62 DUP2 DUP5 PUSH2 0x1A9E JUMP JUMPDEST ISZERO JUMPDEST ISZERO PUSH2 0x2AA6 JUMPI DUP3 PUSH1 0x40 MLOAD PUSH32 0xA9FBF51F00000000000000000000000000000000000000000000000000000000 DUP2 MSTORE PUSH1 0x4 ADD PUSH2 0x2A9D SWAP2 SWAP1 PUSH2 0x3FF4 JUMP JUMPDEST PUSH1 0x40 MLOAD DUP1 SWAP2 SUB SWAP1 REVERT JUMPDEST DUP2 ISZERO PUSH2 0x2B08 JUMPI DUP4 DUP6 PUSH20 0xFFFFFFFFFFFFFFFFFFFFFFFFFFFFFFFFFFFFFFFF AND DUP3 PUSH20 0xFFFFFFFFFFFFFFFFFFFFFFFFFFFFFFFFFFFFFFFF AND PUSH32 0x8C5BE1E5EBEC7D5BD14F71427D1E84F3DD0314C0F7B2291E5B200AC8C7C3B925 PUSH1 0x40 MLOAD PUSH1 0x40 MLOAD DUP1 SWAP2 SUB SWAP1 LOG4 JUMPDEST POP JUMPDEST DUP4 PUSH1 0x4 PUSH0 DUP6 DUP2 MSTORE PUSH1 0x20 ADD SWAP1 DUP2 MSTORE PUSH1 0x20 ADD PUSH0 KECCAK256 PUSH0 PUSH2 0x100 EXP DUP2 SLOAD DUP2 PUSH20 0xFFFFFFFFFFFFFFFFFFFFFFFFFFFFFFFFFFFFFFFF MUL NOT AND SWAP1 DUP4 PUSH20 0xFFFFFFFFFFFFFFFFFFFFFFFFFFFFFFFFFFFFFFFF AND MUL OR SWAP1 SSTORE POP POP POP POP POP JUMP JUMPDEST PUSH0 DUP1 PUSH2 0x2B6C DUP6 DUP6 DUP6 PUSH2 0x316C JUMP JUMPDEST SWAP1 POP PUSH0 PUSH20 0xFFFFFFFFFFFFFFFFFFFFFFFFFFFFFFFFFFFFFFFF AND DUP2 PUSH20 0xFFFFFFFFFFFFFFFFFFFFFFFFFFFFFFFFFFFFFFFF AND SUB PUSH2 0x2BAF JUMPI PUSH2 0x2BAA DUP5 PUSH2 0x3377 JUMP JUMPDEST PUSH2 0x2BEE JUMP JUMPDEST DUP5 PUSH20 0xFFFFFFFFFFFFFFFFFFFFFFFFFFFFFFFFFFFFFFFF AND DUP2 PUSH20 0xFFFFFFFFFFFFFFFFFFFFFFFFFFFFFFFFFFFFFFFF AND EQ PUSH2 0x2BED JUMPI PUSH2 0x2BEC DUP2 DUP6 PUSH2 0x33BB JUMP JUMPDEST JUMPDEST JUMPDEST PUSH0 PUSH20 0xFFFFFFFFFFFFFFFFFFFFFFFFFFFFFFFFFFFFFFFF AND DUP6 PUSH20 0xFFFFFFFFFFFFFFFFFFFFFFFFFFFFFFFFFFFFFFFF AND SUB PUSH2 0x2C2F JUMPI PUSH2 0x2C2A DUP5 PUSH2 0x3492 JUMP JUMPDEST PUSH2 0x2C6E JUMP JUMPDEST DUP5 PUSH20 0xFFFFFFFFFFFFFFFFFFFFFFFFFFFFFFFFFFFFFFFF AND DUP2 PUSH20 0xFFFFFFFFFFFFFFFFFFFFFFFFFFFFFFFFFFFFFFFF AND EQ PUSH2 0x2C6D JUMPI PUSH2 0x2C6C DUP6 DUP6 PUSH2 0x3552 JUMP JUMPDEST JUMPDEST JUMPDEST DUP1 SWAP2 POP POP SWAP4 SWAP3 POP POP POP JUMP JUMPDEST PUSH1 0x60 PUSH1 0xFF PUSH0 SHL DUP4 EQ PUSH2 0x2C95 JUMPI PUSH2 0x2C8E DUP4 PUSH2 0x35D6 JUMP JUMPDEST SWAP1 POP PUSH2 0x2D20 JUMP JUMPDEST DUP2 DUP1 SLOAD PUSH2 0x2CA1 SWAP1 PUSH2 0x4AEC JUMP JUMPDEST DUP1 PUSH1 0x1F ADD PUSH1 0x20 DUP1 SWAP2 DIV MUL PUSH1 0x20 ADD PUSH1 0x40 MLOAD SWAP1 DUP2 ADD PUSH1 0x40 MSTORE DUP1 SWAP3 SWAP2 SWAP1 DUP2 DUP2 MSTORE PUSH1 0x20 ADD DUP3 DUP1 SLOAD PUSH2 0x2CCD SWAP1 PUSH2 0x4AEC JUMP JUMPDEST DUP1 ISZERO PUSH2 0x2D18 JUMPI DUP1 PUSH1 0x1F LT PUSH2 0x2CEF JUMPI PUSH2 0x100 DUP1 DUP4 SLOAD DIV MUL DUP4 MSTORE SWAP2 PUSH1 0x20 ADD SWAP2 PUSH2 0x2D18 JUMP JUMPDEST DUP3 ADD SWAP2 SWAP1 PUSH0 MSTORE PUSH1 0x20 PUSH0 KECCAK256 SWAP1 JUMPDEST DUP2 SLOAD DUP2 MSTORE SWAP1 PUSH1 0x1 ADD SWAP1 PUSH1 0x20 ADD DUP1 DUP4 GT PUSH2 0x2CFB JUMPI DUP3 SWAP1 SUB PUSH1 0x1F AND DUP3 ADD SWAP2 JUMPDEST POP POP POP POP POP SWAP1 POP JUMPDEST SWAP3 SWAP2 POP POP JUMP JUMPDEST PUSH0 DUP1 DUP3 SWAP1 POP PUSH0 JUMPDEST DUP5 MLOAD DUP2 LT ISZERO PUSH2 0x2D69 JUMPI PUSH2 0x2D5A DUP3 DUP7 DUP4 DUP2 MLOAD DUP2 LT PUSH2 0x2D4D JUMPI PUSH2 0x2D4C PUSH2 0x4B1C JUMP JUMPDEST JUMPDEST PUSH1 0x20 MUL PUSH1 0x20 ADD ADD MLOAD PUSH2 0x3648 JUMP JUMPDEST SWAP2 POP DUP1 DUP1 PUSH1 0x1 ADD SWAP2 POP POP PUSH2 0x2D2D JUMP JUMPDEST POP DUP1 SWAP2 POP POP SWAP3 SWAP2 POP POP JUMP JUMPDEST PUSH0 PUSH1 0x40 MLOAD PUSH32 0x1901000000000000000000000000000000000000000000000000000000000000 DUP2 MSTORE DUP4 PUSH1 0x2 DUP3 ADD MSTORE DUP3 PUSH1 0x22 DUP3 ADD MSTORE PUSH1 0x42 DUP2 KECCAK256 SWAP2 POP POP SWAP3 SWAP2 POP POP JUMP JUMPDEST PUSH0 DUP1 PUSH0 PUSH1 0x41 DUP5 MLOAD SUB PUSH2 0x2DF4 JUMPI PUSH0 DUP1 PUSH0 PUSH1 0x20 DUP8 ADD MLOAD SWAP3 POP PUSH1 0x40 DUP8 ADD MLOAD SWAP2 POP PUSH1 0x60 DUP8 ADD MLOAD PUSH0 BYTE SWAP1 POP PUSH2 0x2DE6 DUP9 DUP3 DUP6 DUP6 PUSH2 0x3672 JUMP JUMPDEST SWAP6 POP SWAP6 POP SWAP6 POP POP POP POP PUSH2 0x2E02 JUMP JUMPDEST PUSH0 PUSH1 0x2 DUP6 MLOAD PUSH0 SHL SWAP3 POP SWAP3 POP SWAP3 POP JUMPDEST SWAP3 POP SWAP3 POP SWAP3 JUMP JUMPDEST PUSH0 PUSH1 0x3 DUP2 GT ISZERO PUSH2 0x2E1C JUMPI PUSH2 0x2E1B PUSH2 0x409D JUMP JUMPDEST JUMPDEST DUP3 PUSH1 0x3 DUP2 GT ISZERO PUSH2 0x2E2F JUMPI PUSH2 0x2E2E PUSH2 0x409D JUMP JUMPDEST JUMPDEST SUB ISZERO PUSH2 0x2F67 JUMPI PUSH1 0x1 PUSH1 0x3 DUP2 GT ISZERO PUSH2 0x2E49 JUMPI PUSH2 0x2E48 PUSH2 0x409D JUMP JUMPDEST JUMPDEST DUP3 PUSH1 0x3 DUP2 GT ISZERO PUSH2 0x2E5C JUMPI PUSH2 0x2E5B PUSH2 0x409D JUMP JUMPDEST JUMPDEST SUB PUSH2 0x2E93 JUMPI PUSH1 0x40 MLOAD PUSH32 0xF645EEDF00000000000000000000000000000000000000000000000000000000 DUP2 MSTORE PUSH1 0x4 ADD PUSH1 0x40 MLOAD DUP1 SWAP2 SUB SWAP1 REVERT JUMPDEST PUSH1 0x2 PUSH1 0x3 DUP2 GT ISZERO PUSH2 0x2EA7 JUMPI PUSH2 0x2EA6 PUSH2 0x409D JUMP JUMPDEST JUMPDEST DUP3 PUSH1 0x3 DUP2 GT ISZERO PUSH2 0x2EBA JUMPI PUSH2 0x2EB9 PUSH2 0x409D JUMP JUMPDEST JUMPDEST SUB PUSH2 0x2EFE JUMPI DUP1 PUSH0 SHR PUSH1 0x40 MLOAD PUSH32 0xFCE698F700000000000000000000000000000000000000000000000000000000 DUP2 MSTORE PUSH1 0x4 ADD PUSH2 0x2EF5 SWAP2 SWAP1 PUSH2 0x4084 JUMP JUMPDEST PUSH1 0x40 MLOAD DUP1 SWAP2 SUB SWAP1 REVERT JUMPDEST PUSH1 0x3 DUP1 DUP2 GT ISZERO PUSH2 0x2F11 JUMPI PUSH2 0x2F10 PUSH2 0x409D JUMP JUMPDEST JUMPDEST DUP3 PUSH1 0x3 DUP2 GT ISZERO PUSH2 0x2F24 JUMPI PUSH2 0x2F23 PUSH2 0x409D JUMP JUMPDEST JUMPDEST SUB PUSH2 0x2F66 JUMPI DUP1 PUSH1 0x40 MLOAD PUSH32 0xD78BCE0C00000000000000000000000000000000000000000000000000000000 DUP2 MSTORE PUSH1 0x4 ADD PUSH2 0x2F5D SWAP2 SWAP1 PUSH2 0x4A68 JUMP JUMPDEST PUSH1 0x40 MLOAD DUP1 SWAP2 SUB SWAP1 REVERT JUMPDEST JUMPDEST POP POP JUMP JUMPDEST PUSH2 0x2F84 DUP3 DUP3 PUSH1 0x40 MLOAD DUP1 PUSH1 0x20 ADD PUSH1 0x40 MSTORE DUP1 PUSH0 DUP2 MSTORE POP PUSH2 0x3759 JUMP JUMPDEST POP POP JUMP JUMPDEST DUP1 PUSH1 0xA PUSH0 DUP5 DUP2 MSTORE PUSH1 0x20 ADD SWAP1 DUP2 MSTORE PUSH1 0x20 ADD PUSH0 KECCAK256 SWAP1 DUP2 PUSH2 0x2FA6 SWAP2 SWAP1 PUSH2 0x57AB JUMP JUMPDEST POP PUSH32 0xF8E1A15ABA9398E019F0B49DF1A4FDE98EE17AE345CB5F6B5E2C27F5033E8CE7 DUP3 PUSH1 0x40 MLOAD PUSH2 0x2FD6 SWAP2 SWAP1 PUSH2 0x4084 JUMP JUMPDEST PUSH1 0x40 MLOAD DUP1 SWAP2 SUB SWAP1 LOG1 POP POP JUMP JUMPDEST PUSH1 0x60 PUSH1 0x40 MLOAD DUP1 PUSH1 0x20 ADD PUSH1 0x40 MSTORE DUP1 PUSH0 DUP2 MSTORE POP SWAP1 POP SWAP1 JUMP JUMPDEST PUSH1 0x60 PUSH2 0x3003 DUP3 PUSH2 0x1CD7 JUMP JUMPDEST POP PUSH0 PUSH2 0x300D PUSH2 0x2FE2 JUMP JUMPDEST SWAP1 POP PUSH0 DUP2 MLOAD GT PUSH2 0x302B JUMPI PUSH1 0x40 MLOAD DUP1 PUSH1 0x20 ADD PUSH1 0x40 MSTORE DUP1 PUSH0 DUP2 MSTORE POP PUSH2 0x3056 JUMP JUMPDEST DUP1 PUSH2 0x3035 DUP5 PUSH2 0x3774 JUMP JUMPDEST PUSH1 0x40 MLOAD PUSH1 0x20 ADD PUSH2 0x3046 SWAP3 SWAP2 SWAP1 PUSH2 0x55EB JUMP JUMPDEST PUSH1 0x40 MLOAD PUSH1 0x20 DUP2 DUP4 SUB SUB DUP2 MSTORE SWAP1 PUSH1 0x40 MSTORE JUMPDEST SWAP2 POP POP SWAP2 SWAP1 POP JUMP JUMPDEST PUSH0 PUSH32 0x8B73C3C69BB8FE3D512ECC4CF759CC79239F7B179B0FFACAA9A75D522B39400F PUSH32 0x0 PUSH32 0x0 CHAINID ADDRESS PUSH1 0x40 MLOAD PUSH1 0x20 ADD PUSH2 0x30D8 SWAP6 SWAP5 SWAP4 SWAP3 SWAP2 SWAP1 PUSH2 0x587A JUMP JUMPDEST PUSH1 0x40 MLOAD PUSH1 0x20 DUP2 DUP4 SUB SUB DUP2 MSTORE SWAP1 PUSH1 0x40 MSTORE DUP1 MLOAD SWAP1 PUSH1 0x20 ADD KECCAK256 SWAP1 POP SWAP1 JUMP JUMPDEST PUSH0 PUSH32 0x780E9D6300000000000000000000000000000000000000000000000000000000 PUSH28 0xFFFFFFFFFFFFFFFFFFFFFFFFFFFFFFFFFFFFFFFFFFFFFFFFFFFFFFFF NOT AND DUP3 PUSH28 0xFFFFFFFFFFFFFFFFFFFFFFFFFFFFFFFFFFFFFFFFFFFFFFFFFFFFFFFF NOT AND EQ DUP1 PUSH2 0x3165 JUMPI POP PUSH2 0x3164 DUP3 PUSH2 0x383E JUMP JUMPDEST JUMPDEST SWAP1 POP SWAP2 SWAP1 POP JUMP JUMPDEST PUSH0 DUP1 PUSH2 0x3177 DUP5 PUSH2 0x2967 JUMP JUMPDEST SWAP1 POP PUSH0 PUSH20 0xFFFFFFFFFFFFFFFFFFFFFFFFFFFFFFFFFFFFFFFF AND DUP4 PUSH20 0xFFFFFFFFFFFFFFFFFFFFFFFFFFFFFFFFFFFFFFFF AND EQ PUSH2 0x31B8 JUMPI PUSH2 0x31B7 DUP2 DUP5 DUP7 PUSH2 0x391F JUMP JUMPDEST JUMPDEST PUSH0 PUSH20 0xFFFFFFFFFFFFFFFFFFFFFFFFFFFFFFFFFFFFFFFF AND DUP2 PUSH20 0xFFFFFFFFFFFFFFFFFFFFFFFFFFFFFFFFFFFFFFFF AND EQ PUSH2 0x3243 JUMPI PUSH2 0x31F7 PUSH0 DUP6 PUSH0 DUP1 PUSH2 0x29A0 JUMP JUMPDEST PUSH1 0x1 PUSH1 0x3 PUSH0 DUP4 PUSH20 0xFFFFFFFFFFFFFFFFFFFFFFFFFFFFFFFFFFFFFFFF AND PUSH20 0xFFFFFFFFFFFFFFFFFFFFFFFFFFFFFFFFFFFFFFFF AND DUP2 MSTORE PUSH1 0x20 ADD SWAP1 DUP2 MSTORE PUSH1 0x20 ADD PUSH0 KECCAK256 PUSH0 DUP3 DUP3 SLOAD SUB SWAP3 POP POP DUP2 SWAP1 SSTORE POP JUMPDEST PUSH0 PUSH20 0xFFFFFFFFFFFFFFFFFFFFFFFFFFFFFFFFFFFFFFFF AND DUP6 PUSH20 0xFFFFFFFFFFFFFFFFFFFFFFFFFFFFFFFFFFFFFFFF AND EQ PUSH2 0x32C2 JUMPI PUSH1 0x1 PUSH1 0x3 PUSH0 DUP8 PUSH20 0xFFFFFFFFFFFFFFFFFFFFFFFFFFFFFFFFFFFFFFFF AND PUSH20 0xFFFFFFFFFFFFFFFFFFFFFFFFFFFFFFFFFFFFFFFF AND DUP2 MSTORE PUSH1 0x20 ADD SWAP1 DUP2 MSTORE PUSH1 0x20 ADD PUSH0 KECCAK256 PUSH0 DUP3 DUP3 SLOAD ADD SWAP3 POP POP DUP2 SWAP1 SSTORE POP JUMPDEST DUP5 PUSH1 0x2 PUSH0 DUP7 DUP2 MSTORE PUSH1 0x20 ADD SWAP1 DUP2 MSTORE PUSH1 0x20 ADD PUSH0 KECCAK256 PUSH0 PUSH2 0x100 EXP DUP2 SLOAD DUP2 PUSH20 0xFFFFFFFFFFFFFFFFFFFFFFFFFFFFFFFFFFFFFFFF MUL NOT AND SWAP1 DUP4 PUSH20 0xFFFFFFFFFFFFFFFFFFFFFFFFFFFFFFFFFFFFFFFF AND MUL OR SWAP1 SSTORE POP DUP4 DUP6 PUSH20 0xFFFFFFFFFFFFFFFFFFFFFFFFFFFFFFFFFFFFFFFF AND DUP3 PUSH20 0xFFFFFFFFFFFFFFFFFFFFFFFFFFFFFFFFFFFFFFFF AND PUSH32 0xDDF252AD1BE2C89B69C2B068FC378DAA952BA7F163C4A11628F55A4DF523B3EF PUSH1 0x40 MLOAD PUSH1 0x40 MLOAD DUP1 SWAP2 SUB SWAP1 LOG4 DUP1 SWAP2 POP POP SWAP4 SWAP3 POP POP POP JUMP JUMPDEST PUSH1 0x8 DUP1 SLOAD SWAP1 POP PUSH1 0x9 PUSH0 DUP4 DUP2 MSTORE PUSH1 0x20 ADD SWAP1 DUP2 MSTORE PUSH1 0x20 ADD PUSH0 KECCAK256 DUP2 SWAP1 SSTORE POP PUSH1 0x8 DUP2 SWAP1 DUP1 PUSH1 0x1 DUP2 SLOAD ADD DUP1 DUP3 SSTORE DUP1 SWAP2 POP POP PUSH1 0x1 SWAP1 SUB SWAP1 PUSH0 MSTORE PUSH1 0x20 PUSH0 KECCAK256 ADD PUSH0 SWAP1 SWAP2 SWAP1 SWAP2 SWAP1 SWAP2 POP SSTORE POP JUMP JUMPDEST PUSH0 PUSH2 0x33C5 DUP4 PUSH2 0x11FE JUMP JUMPDEST SWAP1 POP PUSH0 PUSH1 0x7 PUSH0 DUP5 DUP2 MSTORE PUSH1 0x20 ADD SWAP1 DUP2 MSTORE PUSH1 0x20 ADD PUSH0 KECCAK256 SLOAD SWAP1 POP PUSH0 PUSH1 0x6 PUSH0 DUP7 PUSH20 0xFFFFFFFFFFFFFFFFFFFFFFFFFFFFFFFFFFFFFFFF AND PUSH20 0xFFFFFFFFFFFFFFFFFFFFFFFFFFFFFFFFFFFFFFFF AND DUP2 MSTORE PUSH1 0x20 ADD SWAP1 DUP2 MSTORE PUSH1 0x20 ADD PUSH0 KECCAK256 SWAP1 POP DUP3 DUP3 EQ PUSH2 0x3464 JUMPI PUSH0 DUP2 PUSH0 DUP6 DUP2 MSTORE PUSH1 0x20 ADD SWAP1 DUP2 MSTORE PUSH1 0x20 ADD PUSH0 KECCAK256 SLOAD SWAP1 POP DUP1 DUP3 PUSH0 DUP6 DUP2 MSTORE PUSH1 0x20 ADD SWAP1 DUP2 MSTORE PUSH1 0x20 ADD PUSH0 KECCAK256 DUP2 SWAP1 SSTORE POP DUP3 PUSH1 0x7 PUSH0 DUP4 DUP2 MSTORE PUSH1 0x20 ADD SWAP1 DUP2 MSTORE PUSH1 0x20 ADD PUSH0 KECCAK256 DUP2 SWAP1 SSTORE POP POP JUMPDEST PUSH1 0x7 PUSH0 DUP6 DUP2 MSTORE PUSH1 0x20 ADD SWAP1 DUP2 MSTORE PUSH1 0x20 ADD PUSH0 KECCAK256 PUSH0 SWAP1 SSTORE DUP1 PUSH0 DUP5 DUP2 MSTORE PUSH1 0x20 ADD SWAP1 DUP2 MSTORE PUSH1 0x20 ADD PUSH0 KECCAK256 PUSH0 SWAP1 SSTORE POP POP POP POP POP JUMP JUMPDEST PUSH0 PUSH1 0x1 PUSH1 0x8 DUP1 SLOAD SWAP1 POP PUSH2 0x34A5 SWAP2 SWAP1 PUSH2 0x53F4 JUMP JUMPDEST SWAP1 POP PUSH0 PUSH1 0x9 PUSH0 DUP5 DUP2 MSTORE PUSH1 0x20 ADD SWAP1 DUP2 MSTORE PUSH1 0x20 ADD PUSH0 KECCAK256 SLOAD SWAP1 POP PUSH0 PUSH1 0x8 DUP4 DUP2 SLOAD DUP2 LT PUSH2 0x34D1 JUMPI PUSH2 0x34D0 PUSH2 0x4B1C JUMP JUMPDEST JUMPDEST SWAP1 PUSH0 MSTORE PUSH1 0x20 PUSH0 KECCAK256 ADD SLOAD SWAP1 POP DUP1 PUSH1 0x8 DUP4 DUP2 SLOAD DUP2 LT PUSH2 0x34F1 JUMPI PUSH2 0x34F0 PUSH2 0x4B1C JUMP JUMPDEST JUMPDEST SWAP1 PUSH0 MSTORE PUSH1 0x20 PUSH0 KECCAK256 ADD DUP2 SWAP1 SSTORE POP DUP2 PUSH1 0x9 PUSH0 DUP4 DUP2 MSTORE PUSH1 0x20 ADD SWAP1 DUP2 MSTORE PUSH1 0x20 ADD PUSH0 KECCAK256 DUP2 SWAP1 SSTORE POP PUSH1 0x9 PUSH0 DUP6 DUP2 MSTORE PUSH1 0x20 ADD SWAP1 DUP2 MSTORE PUSH1 0x20 ADD PUSH0 KECCAK256 PUSH0 SWAP1 SSTORE PUSH1 0x8 DUP1 SLOAD DUP1 PUSH2 0x3539 JUMPI PUSH2 0x3538 PUSH2 0x58CB JUMP JUMPDEST JUMPDEST PUSH1 0x1 SWAP1 SUB DUP2 DUP2 SWAP1 PUSH0 MSTORE PUSH1 0x20 PUSH0 KECCAK256 ADD PUSH0 SWAP1 SSTORE SWAP1 SSTORE POP POP POP POP JUMP JUMPDEST PUSH0 PUSH1 0x1 PUSH2 0x355E DUP5 PUSH2 0x11FE JUMP JUMPDEST PUSH2 0x3568 SWAP2 SWAP1 PUSH2 0x53F4 JUMP JUMPDEST SWAP1 POP DUP2 PUSH1 0x6 PUSH0 DUP6 PUSH20 0xFFFFFFFFFFFFFFFFFFFFFFFFFFFFFFFFFFFFFFFF AND PUSH20 0xFFFFFFFFFFFFFFFFFFFFFFFFFFFFFFFFFFFFFFFF AND DUP2 MSTORE PUSH1 0x20 ADD SWAP1 DUP2 MSTORE PUSH1 0x20 ADD PUSH0 KECCAK256 PUSH0 DUP4 DUP2 MSTORE PUSH1 0x20 ADD SWAP1 DUP2 MSTORE PUSH1 0x20 ADD PUSH0 KECCAK256 DUP2 SWAP1 SSTORE POP DUP1 PUSH1 0x7 PUSH0 DUP5 DUP2 MSTORE PUSH1 0x20 ADD SWAP1 DUP2 MSTORE PUSH1 0x20 ADD PUSH0 KECCAK256 DUP2 SWAP1 SSTORE POP POP POP POP JUMP JUMPDEST PUSH1 0x60 PUSH0 PUSH2 0x35E2 DUP4 PUSH2 0x39E2 JUMP JUMPDEST SWAP1 POP PUSH0 PUSH1 0x20 PUSH8 0xFFFFFFFFFFFFFFFF DUP2 GT ISZERO PUSH2 0x3600 JUMPI PUSH2 0x35FF PUSH2 0x4847 JUMP JUMPDEST JUMPDEST PUSH1 0x40 MLOAD SWAP1 DUP1 DUP3 MSTORE DUP1 PUSH1 0x1F ADD PUSH1 0x1F NOT AND PUSH1 0x20 ADD DUP3 ADD PUSH1 0x40 MSTORE DUP1 ISZERO PUSH2 0x3632 JUMPI DUP2 PUSH1 0x20 ADD PUSH1 0x1 DUP3 MUL DUP1 CALLDATASIZE DUP4 CALLDATACOPY DUP1 DUP3 ADD SWAP2 POP POP SWAP1 POP JUMPDEST POP SWAP1 POP DUP2 DUP2 MSTORE DUP4 PUSH1 0x20 DUP3 ADD MSTORE DUP1 SWAP3 POP POP POP SWAP2 SWAP1 POP JUMP JUMPDEST PUSH0 DUP2 DUP4 LT PUSH2 0x365F JUMPI PUSH2 0x365A DUP3 DUP5 PUSH2 0x3A30 JUMP JUMPDEST PUSH2 0x366A JUMP JUMPDEST PUSH2 0x3669 DUP4 DUP4 PUSH2 0x3A30 JUMP JUMPDEST JUMPDEST SWAP1 POP SWAP3 SWAP2 POP POP JUMP JUMPDEST PUSH0 DUP1 PUSH0 PUSH32 0x7FFFFFFFFFFFFFFFFFFFFFFFFFFFFFFF5D576E7357A4501DDFE92F46681B20A0 DUP5 PUSH0 SHR GT ISZERO PUSH2 0x36AE JUMPI PUSH0 PUSH1 0x3 DUP6 SWAP3 POP SWAP3 POP SWAP3 POP PUSH2 0x374F JUMP JUMPDEST PUSH0 PUSH1 0x1 DUP9 DUP9 DUP9 DUP9 PUSH1 0x40 MLOAD PUSH0 DUP2 MSTORE PUSH1 0x20 ADD PUSH1 0x40 MSTORE PUSH1 0x40 MLOAD PUSH2 0x36D1 SWAP5 SWAP4 SWAP3 SWAP2 SWAP1 PUSH2 0x5913 JUMP JUMPDEST PUSH1 0x20 PUSH1 0x40 MLOAD PUSH1 0x20 DUP2 SUB SWAP1 DUP1 DUP5 SUB SWAP1 DUP6 GAS STATICCALL ISZERO DUP1 ISZERO PUSH2 0x36F1 JUMPI RETURNDATASIZE PUSH0 DUP1 RETURNDATACOPY RETURNDATASIZE PUSH0 REVERT JUMPDEST POP POP POP PUSH1 0x20 PUSH1 0x40 MLOAD SUB MLOAD SWAP1 POP PUSH0 PUSH20 0xFFFFFFFFFFFFFFFFFFFFFFFFFFFFFFFFFFFFFFFF AND DUP2 PUSH20 0xFFFFFFFFFFFFFFFFFFFFFFFFFFFFFFFFFFFFFFFF AND SUB PUSH2 0x3742 JUMPI PUSH0 PUSH1 0x1 PUSH0 DUP1 SHL SWAP4 POP SWAP4 POP SWAP4 POP POP PUSH2 0x374F JUMP JUMPDEST DUP1 PUSH0 DUP1 PUSH0 SHL SWAP4 POP SWAP4 POP SWAP4 POP POP JUMPDEST SWAP5 POP SWAP5 POP SWAP5 SWAP2 POP POP JUMP JUMPDEST PUSH2 0x3763 DUP4 DUP4 PUSH2 0x3A44 JUMP JUMPDEST PUSH2 0x376F PUSH0 DUP5 DUP5 DUP5 PUSH2 0x2594 JUMP JUMPDEST POP POP POP JUMP JUMPDEST PUSH1 0x60 PUSH0 PUSH1 0x1 PUSH2 0x3782 DUP5 PUSH2 0x3B37 JUMP JUMPDEST ADD SWAP1 POP PUSH0 DUP2 PUSH8 0xFFFFFFFFFFFFFFFF DUP2 GT ISZERO PUSH2 0x37A0 JUMPI PUSH2 0x379F PUSH2 0x4847 JUMP JUMPDEST JUMPDEST PUSH1 0x40 MLOAD SWAP1 DUP1 DUP3 MSTORE DUP1 PUSH1 0x1F ADD PUSH1 0x1F NOT AND PUSH1 0x20 ADD DUP3 ADD PUSH1 0x40 MSTORE DUP1 ISZERO PUSH2 0x37D2 JUMPI DUP2 PUSH1 0x20 ADD PUSH1 0x1 DUP3 MUL DUP1 CALLDATASIZE DUP4 CALLDATACOPY DUP1 DUP3 ADD SWAP2 POP POP SWAP1 POP JUMPDEST POP SWAP1 POP PUSH0 DUP3 PUSH1 0x20 ADD DUP3 ADD SWAP1 POP JUMPDEST PUSH1 0x1 ISZERO PUSH2 0x3833 JUMPI DUP1 DUP1 PUSH1 0x1 SWAP1 SUB SWAP2 POP POP PUSH32 0x3031323334353637383961626364656600000000000000000000000000000000 PUSH1 0xA DUP7 MOD BYTE DUP2 MSTORE8 PUSH1 0xA DUP6 DUP2 PUSH2 0x3828 JUMPI PUSH2 0x3827 PUSH2 0x4BEC JUMP JUMPDEST JUMPDEST DIV SWAP5 POP PUSH0 DUP6 SUB PUSH2 0x37DF JUMPI JUMPDEST DUP2 SWAP4 POP POP POP POP SWAP2 SWAP1 POP JUMP JUMPDEST PUSH0 PUSH32 0x80AC58CD00000000000000000000000000000000000000000000000000000000 PUSH28 0xFFFFFFFFFFFFFFFFFFFFFFFFFFFFFFFFFFFFFFFFFFFFFFFFFFFFFFFF NOT AND DUP3 PUSH28 0xFFFFFFFFFFFFFFFFFFFFFFFFFFFFFFFFFFFFFFFFFFFFFFFFFFFFFFFF NOT AND EQ DUP1 PUSH2 0x3908 JUMPI POP PUSH32 0x5B5E139F00000000000000000000000000000000000000000000000000000000 PUSH28 0xFFFFFFFFFFFFFFFFFFFFFFFFFFFFFFFFFFFFFFFFFFFFFFFFFFFFFFFF NOT AND DUP3 PUSH28 0xFFFFFFFFFFFFFFFFFFFFFFFFFFFFFFFFFFFFFFFFFFFFFFFFFFFFFFFF NOT AND EQ JUMPDEST DUP1 PUSH2 0x3918 JUMPI POP PUSH2 0x3917 DUP3 PUSH2 0x3C88 JUMP JUMPDEST JUMPDEST SWAP1 POP SWAP2 SWAP1 POP JUMP JUMPDEST PUSH2 0x392A DUP4 DUP4 DUP4 PUSH2 0x3CF1 JUMP JUMPDEST PUSH2 0x39DD JUMPI PUSH0 PUSH20 0xFFFFFFFFFFFFFFFFFFFFFFFFFFFFFFFFFFFFFFFF AND DUP4 PUSH20 0xFFFFFFFFFFFFFFFFFFFFFFFFFFFFFFFFFFFFFFFF AND SUB PUSH2 0x399E JUMPI DUP1 PUSH1 0x40 MLOAD PUSH32 0x7E27328900000000000000000000000000000000000000000000000000000000 DUP2 MSTORE PUSH1 0x4 ADD PUSH2 0x3995 SWAP2 SWAP1 PUSH2 0x4084 JUMP JUMPDEST PUSH1 0x40 MLOAD DUP1 SWAP2 SUB SWAP1 REVERT JUMPDEST DUP2 DUP2 PUSH1 0x40 MLOAD PUSH32 0x177E802F00000000000000000000000000000000000000000000000000000000 DUP2 MSTORE PUSH1 0x4 ADD PUSH2 0x39D4 SWAP3 SWAP2 SWAP1 PUSH2 0x428D JUMP JUMPDEST PUSH1 0x40 MLOAD DUP1 SWAP2 SUB SWAP1 REVERT JUMPDEST POP POP POP JUMP JUMPDEST PUSH0 DUP1 PUSH1 0xFF DUP4 PUSH0 SHR AND SWAP1 POP PUSH1 0x1F DUP2 GT ISZERO PUSH2 0x3A27 JUMPI PUSH1 0x40 MLOAD PUSH32 0xB3512B0C00000000000000000000000000000000000000000000000000000000 DUP2 MSTORE PUSH1 0x4 ADD PUSH1 0x40 MLOAD DUP1 SWAP2 SUB SWAP1 REVERT JUMPDEST DUP1 SWAP2 POP POP SWAP2 SWAP1 POP JUMP JUMPDEST PUSH0 DUP3 PUSH0 MSTORE DUP2 PUSH1 0x20 MSTORE PUSH1 0x40 PUSH0 KECCAK256 SWAP1 POP SWAP3 SWAP2 POP POP JUMP JUMPDEST PUSH0 PUSH20 0xFFFFFFFFFFFFFFFFFFFFFFFFFFFFFFFFFFFFFFFF AND DUP3 PUSH20 0xFFFFFFFFFFFFFFFFFFFFFFFFFFFFFFFFFFFFFFFF AND SUB PUSH2 0x3AB4 JUMPI PUSH0 PUSH1 0x40 MLOAD PUSH32 0x64A0AE9200000000000000000000000000000000000000000000000000000000 DUP2 MSTORE PUSH1 0x4 ADD PUSH2 0x3AAB SWAP2 SWAP1 PUSH2 0x3FF4 JUMP JUMPDEST PUSH1 0x40 MLOAD DUP1 SWAP2 SUB SWAP1 REVERT JUMPDEST PUSH0 PUSH2 0x3AC0 DUP4 DUP4 PUSH0 PUSH2 0x1EF6 JUMP JUMPDEST SWAP1 POP PUSH0 PUSH20 0xFFFFFFFFFFFFFFFFFFFFFFFFFFFFFFFFFFFFFFFF AND DUP2 PUSH20 0xFFFFFFFFFFFFFFFFFFFFFFFFFFFFFFFFFFFFFFFF AND EQ PUSH2 0x3B32 JUMPI PUSH0 PUSH1 0x40 MLOAD PUSH32 0x73C6AC6E00000000000000000000000000000000000000000000000000000000 DUP2 MSTORE PUSH1 0x4 ADD PUSH2 0x3B29 SWAP2 SWAP1 PUSH2 0x3FF4 JUMP JUMPDEST PUSH1 0x40 MLOAD DUP1 SWAP2 SUB SWAP1 REVERT JUMPDEST POP POP POP JUMP JUMPDEST PUSH0 DUP1 PUSH0 SWAP1 POP PUSH27 0x184F03E93FF9F4DAA797ED6E38ED64BF6A1F010000000000000000 DUP4 LT PUSH2 0x3B93 JUMPI PUSH27 0x184F03E93FF9F4DAA797ED6E38ED64BF6A1F010000000000000000 DUP4 DUP2 PUSH2 0x3B89 JUMPI PUSH2 0x3B88 PUSH2 0x4BEC JUMP JUMPDEST JUMPDEST DIV SWAP3 POP PUSH1 0x40 DUP2 ADD SWAP1 POP JUMPDEST PUSH14 0x4EE2D6D415B85ACEF8100000000 DUP4 LT PUSH2 0x3BD0 JUMPI PUSH14 0x4EE2D6D415B85ACEF8100000000 DUP4 DUP2 PUSH2 0x3BC6 JUMPI PUSH2 0x3BC5 PUSH2 0x4BEC JUMP JUMPDEST JUMPDEST DIV SWAP3 POP PUSH1 0x20 DUP2 ADD SWAP1 POP JUMPDEST PUSH7 0x2386F26FC10000 DUP4 LT PUSH2 0x3BFF JUMPI PUSH7 0x2386F26FC10000 DUP4 DUP2 PUSH2 0x3BF5 JUMPI PUSH2 0x3BF4 PUSH2 0x4BEC JUMP JUMPDEST JUMPDEST DIV SWAP3 POP PUSH1 0x10 DUP2 ADD SWAP1 POP JUMPDEST PUSH4 0x5F5E100 DUP4 LT PUSH2 0x3C28 JUMPI PUSH4 0x5F5E100 DUP4 DUP2 PUSH2 0x3C1E JUMPI PUSH2 0x3C1D PUSH2 0x4BEC JUMP JUMPDEST JUMPDEST DIV SWAP3 POP PUSH1 0x8 DUP2 ADD SWAP1 POP JUMPDEST PUSH2 0x2710 DUP4 LT PUSH2 0x3C4D JUMPI PUSH2 0x2710 DUP4 DUP2 PUSH2 0x3C43 JUMPI PUSH2 0x3C42 PUSH2 0x4BEC JUMP JUMPDEST JUMPDEST DIV SWAP3 POP PUSH1 0x4 DUP2 ADD SWAP1 POP JUMPDEST PUSH1 0x64 DUP4 LT PUSH2 0x3C70 JUMPI PUSH1 0x64 DUP4 DUP2 PUSH2 0x3C66 JUMPI PUSH2 0x3C65 PUSH2 0x4BEC JUMP JUMPDEST JUMPDEST DIV SWAP3 POP PUSH1 0x2 DUP2 ADD SWAP1 POP JUMPDEST PUSH1 0xA DUP4 LT PUSH2 0x3C7F JUMPI PUSH1 0x1 DUP2 ADD SWAP1 POP JUMPDEST DUP1 SWAP2 POP POP SWAP2 SWAP1 POP JUMP JUMPDEST PUSH0 PUSH32 0x1FFC9A700000000000000000000000000000000000000000000000000000000 PUSH28 0xFFFFFFFFFFFFFFFFFFFFFFFFFFFFFFFFFFFFFFFFFFFFFFFFFFFFFFFF NOT AND DUP3 PUSH28 0xFFFFFFFFFFFFFFFFFFFFFFFFFFFFFFFFFFFFFFFFFFFFFFFFFFFFFFFF NOT AND EQ SWAP1 POP SWAP2 SWAP1 POP JUMP JUMPDEST PUSH0 DUP1 PUSH20 0xFFFFFFFFFFFFFFFFFFFFFFFFFFFFFFFFFFFFFFFF AND DUP4 PUSH20 0xFFFFFFFFFFFFFFFFFFFFFFFFFFFFFFFFFFFFFFFF AND EQ ISZERO DUP1 ISZERO PUSH2 0x3DA8 JUMPI POP DUP3 PUSH20 0xFFFFFFFFFFFFFFFFFFFFFFFFFFFFFFFFFFFFFFFF AND DUP5 PUSH20 0xFFFFFFFFFFFFFFFFFFFFFFFFFFFFFFFFFFFFFFFF AND EQ DUP1 PUSH2 0x3D69 JUMPI POP PUSH2 0x3D68 DUP5 DUP5 PUSH2 0x1A9E JUMP JUMPDEST JUMPDEST DUP1 PUSH2 0x3DA7 JUMPI POP DUP3 PUSH20 0xFFFFFFFFFFFFFFFFFFFFFFFFFFFFFFFFFFFFFFFF AND PUSH2 0x3D8F DUP4 PUSH2 0x1D5D JUMP JUMPDEST PUSH20 0xFFFFFFFFFFFFFFFFFFFFFFFFFFFFFFFFFFFFFFFF AND EQ JUMPDEST JUMPDEST SWAP1 POP SWAP4 SWAP3 POP POP POP JUMP JUMPDEST PUSH1 0x40 MLOAD DUP1 PUSH2 0x100 ADD PUSH1 0x40 MSTORE DUP1 PUSH0 PUSH1 0x2 DUP2 GT ISZERO PUSH2 0x3DD0 JUMPI PUSH2 0x3DCF PUSH2 0x409D JUMP JUMPDEST JUMPDEST DUP2 MSTORE PUSH1 0x20 ADD PUSH0 DUP2 MSTORE PUSH1 0x20 ADD PUSH0 DUP2 MSTORE PUSH1 0x20 ADD PUSH0 DUP2 MSTORE PUSH1 0x20 ADD PUSH0 DUP2 MSTORE PUSH1 0x20 ADD PUSH0 DUP2 MSTORE PUSH1 0x20 ADD PUSH0 DUP2 MSTORE PUSH1 0x20 ADD PUSH0 DUP1 NOT AND DUP2 MSTORE POP SWAP1 JUMP JUMPDEST PUSH0 PUSH1 0x40 MLOAD SWAP1 POP SWAP1 JUMP JUMPDEST PUSH0 DUP1 REVERT JUMPDEST PUSH0 DUP1 REVERT JUMPDEST PUSH0 PUSH32 0xFFFFFFFF00000000000000000000000000000000000000000000000000000000 DUP3 AND SWAP1 POP SWAP2 SWAP1 POP JUMP JUMPDEST PUSH2 0x3E48 DUP2 PUSH2 0x3E14 JUMP JUMPDEST DUP2 EQ PUSH2 0x3E52 JUMPI PUSH0 DUP1 REVERT JUMPDEST POP JUMP JUMPDEST PUSH0 DUP2 CALLDATALOAD SWAP1 POP PUSH2 0x3E63 DUP2 PUSH2 0x3E3F JUMP JUMPDEST SWAP3 SWAP2 POP POP JUMP JUMPDEST PUSH0 PUSH1 0x20 DUP3 DUP5 SUB SLT ISZERO PUSH2 0x3E7E JUMPI PUSH2 0x3E7D PUSH2 0x3E0C JUMP JUMPDEST JUMPDEST PUSH0 PUSH2 0x3E8B DUP5 DUP3 DUP6 ADD PUSH2 0x3E55 JUMP JUMPDEST SWAP2 POP POP SWAP3 SWAP2 POP POP JUMP JUMPDEST PUSH0 DUP2 ISZERO ISZERO SWAP1 POP SWAP2 SWAP1 POP JUMP JUMPDEST PUSH2 0x3EA8 DUP2 PUSH2 0x3E94 JUMP JUMPDEST DUP3 MSTORE POP POP JUMP JUMPDEST PUSH0 PUSH1 0x20 DUP3 ADD SWAP1 POP PUSH2 0x3EC1 PUSH0 DUP4 ADD DUP5 PUSH2 0x3E9F JUMP JUMPDEST SWAP3 SWAP2 POP POP JUMP JUMPDEST PUSH0 DUP2 MLOAD SWAP1 POP SWAP2 SWAP1 POP JUMP JUMPDEST PUSH0 DUP3 DUP3 MSTORE PUSH1 0x20 DUP3 ADD SWAP1 POP SWAP3 SWAP2 POP POP JUMP JUMPDEST DUP3 DUP2 DUP4 MCOPY PUSH0 DUP4 DUP4 ADD MSTORE POP POP POP JUMP JUMPDEST PUSH0 PUSH1 0x1F NOT PUSH1 0x1F DUP4 ADD AND SWAP1 POP SWAP2 SWAP1 POP JUMP JUMPDEST PUSH0 PUSH2 0x3F09 DUP3 PUSH2 0x3EC7 JUMP JUMPDEST PUSH2 0x3F13 DUP2 DUP6 PUSH2 0x3ED1 JUMP JUMPDEST SWAP4 POP PUSH2 0x3F23 DUP2 DUP6 PUSH1 0x20 DUP7 ADD PUSH2 0x3EE1 JUMP JUMPDEST PUSH2 0x3F2C DUP2 PUSH2 0x3EEF JUMP JUMPDEST DUP5 ADD SWAP2 POP POP SWAP3 SWAP2 POP POP JUMP JUMPDEST PUSH0 PUSH1 0x20 DUP3 ADD SWAP1 POP DUP2 DUP2 SUB PUSH0 DUP4 ADD MSTORE PUSH2 0x3F4F DUP2 DUP5 PUSH2 0x3EFF JUMP JUMPDEST SWAP1 POP SWAP3 SWAP2 POP POP JUMP JUMPDEST PUSH0 DUP2 SWAP1 POP SWAP2 SWAP1 POP JUMP JUMPDEST PUSH2 0x3F69 DUP2 PUSH2 0x3F57 JUMP JUMPDEST DUP2 EQ PUSH2 0x3F73 JUMPI PUSH0 DUP1 REVERT JUMPDEST POP JUMP JUMPDEST PUSH0 DUP2 CALLDATALOAD SWAP1 POP PUSH2 0x3F84 DUP2 PUSH2 0x3F60 JUMP JUMPDEST SWAP3 SWAP2 POP POP JUMP JUMPDEST PUSH0 PUSH1 0x20 DUP3 DUP5 SUB SLT ISZERO PUSH2 0x3F9F JUMPI PUSH2 0x3F9E PUSH2 0x3E0C JUMP JUMPDEST JUMPDEST PUSH0 PUSH2 0x3FAC DUP5 DUP3 DUP6 ADD PUSH2 0x3F76 JUMP JUMPDEST SWAP2 POP POP SWAP3 SWAP2 POP POP JUMP JUMPDEST PUSH0 PUSH20 0xFFFFFFFFFFFFFFFFFFFFFFFFFFFFFFFFFFFFFFFF DUP3 AND SWAP1 POP SWAP2 SWAP1 POP JUMP JUMPDEST PUSH0 PUSH2 0x3FDE DUP3 PUSH2 0x3FB5 JUMP JUMPDEST SWAP1 POP SWAP2 SWAP1 POP JUMP JUMPDEST PUSH2 0x3FEE DUP2 PUSH2 0x3FD4 JUMP JUMPDEST DUP3 MSTORE POP POP JUMP JUMPDEST PUSH0 PUSH1 0x20 DUP3 ADD SWAP1 POP PUSH2 0x4007 PUSH0 DUP4 ADD DUP5 PUSH2 0x3FE5 JUMP JUMPDEST SWAP3 SWAP2 POP POP JUMP JUMPDEST PUSH2 0x4016 DUP2 PUSH2 0x3FD4 JUMP JUMPDEST DUP2 EQ PUSH2 0x4020 JUMPI PUSH0 DUP1 REVERT JUMPDEST POP JUMP JUMPDEST PUSH0 DUP2 CALLDATALOAD SWAP1 POP PUSH2 0x4031 DUP2 PUSH2 0x400D JUMP JUMPDEST SWAP3 SWAP2 POP POP JUMP JUMPDEST PUSH0 DUP1 PUSH1 0x40 DUP4 DUP6 SUB SLT ISZERO PUSH2 0x404D JUMPI PUSH2 0x404C PUSH2 0x3E0C JUMP JUMPDEST JUMPDEST PUSH0 PUSH2 0x405A DUP6 DUP3 DUP7 ADD PUSH2 0x4023 JUMP JUMPDEST SWAP3 POP POP PUSH1 0x20 PUSH2 0x406B DUP6 DUP3 DUP7 ADD PUSH2 0x3F76 JUMP JUMPDEST SWAP2 POP POP SWAP3 POP SWAP3 SWAP1 POP JUMP JUMPDEST PUSH2 0x407E DUP2 PUSH2 0x3F57 JUMP JUMPDEST DUP3 MSTORE POP POP JUMP JUMPDEST PUSH0 PUSH1 0x20 DUP3 ADD SWAP1 POP PUSH2 0x4097 PUSH0 DUP4 ADD DUP5 PUSH2 0x4075 JUMP JUMPDEST SWAP3 SWAP2 POP POP JUMP JUMPDEST PUSH32 0x4E487B7100000000000000000000000000000000000000000000000000000000 PUSH0 MSTORE PUSH1 0x21 PUSH1 0x4 MSTORE PUSH1 0x24 PUSH0 REVERT JUMPDEST PUSH1 0x3 DUP2 LT PUSH2 0x40DB JUMPI PUSH2 0x40DA PUSH2 0x409D JUMP JUMPDEST JUMPDEST POP JUMP JUMPDEST PUSH0 DUP2 SWAP1 POP PUSH2 0x40EB DUP3 PUSH2 0x40CA JUMP JUMPDEST SWAP2 SWAP1 POP JUMP JUMPDEST PUSH0 PUSH2 0x40FA DUP3 PUSH2 0x40DE JUMP JUMPDEST SWAP1 POP SWAP2 SWAP1 POP JUMP JUMPDEST PUSH2 0x410A DUP2 PUSH2 0x40F0 JUMP JUMPDEST DUP3 MSTORE POP POP JUMP JUMPDEST PUSH2 0x4119 DUP2 PUSH2 0x3F57 JUMP JUMPDEST DUP3 MSTORE POP POP JUMP JUMPDEST PUSH0 DUP2 SWAP1 POP SWAP2 SWAP1 POP JUMP JUMPDEST PUSH2 0x4131 DUP2 PUSH2 0x411F JUMP JUMPDEST DUP3 MSTORE POP POP JUMP JUMPDEST PUSH2 0x100 DUP3 ADD PUSH0 DUP3 ADD MLOAD PUSH2 0x414C PUSH0 DUP6 ADD DUP3 PUSH2 0x4101 JUMP JUMPDEST POP PUSH1 0x20 DUP3 ADD MLOAD PUSH2 0x415F PUSH1 0x20 DUP6 ADD DUP3 PUSH2 0x4110 JUMP JUMPDEST POP PUSH1 0x40 DUP3 ADD MLOAD PUSH2 0x4172 PUSH1 0x40 DUP6 ADD DUP3 PUSH2 0x4110 JUMP JUMPDEST POP PUSH1 0x60 DUP3 ADD MLOAD PUSH2 0x4185 PUSH1 0x60 DUP6 ADD DUP3 PUSH2 0x4110 JUMP JUMPDEST POP PUSH1 0x80 DUP3 ADD MLOAD PUSH2 0x4198 PUSH1 0x80 DUP6 ADD DUP3 PUSH2 0x4110 JUMP JUMPDEST POP PUSH1 0xA0 DUP3 ADD MLOAD PUSH2 0x41AB PUSH1 0xA0 DUP6 ADD DUP3 PUSH2 0x4110 JUMP JUMPDEST POP PUSH1 0xC0 DUP3 ADD MLOAD PUSH2 0x41BE PUSH1 0xC0 DUP6 ADD DUP3 PUSH2 0x4110 JUMP JUMPDEST POP PUSH1 0xE0 DUP3 ADD MLOAD PUSH2 0x41D1 PUSH1 0xE0 DUP6 ADD DUP3 PUSH2 0x4128 JUMP JUMPDEST POP POP POP POP JUMP JUMPDEST PUSH0 PUSH2 0x120 DUP3 ADD SWAP1 POP PUSH2 0x41EB PUSH0 DUP4 ADD DUP6 PUSH2 0x4075 JUMP JUMPDEST PUSH2 0x41F8 PUSH1 0x20 DUP4 ADD DUP5 PUSH2 0x4137 JUMP JUMPDEST SWAP4 SWAP3 POP POP POP JUMP JUMPDEST PUSH0 DUP1 PUSH0 PUSH1 0x60 DUP5 DUP7 SUB SLT ISZERO PUSH2 0x4216 JUMPI PUSH2 0x4215 PUSH2 0x3E0C JUMP JUMPDEST JUMPDEST PUSH0 PUSH2 0x4223 DUP7 DUP3 DUP8 ADD PUSH2 0x4023 JUMP JUMPDEST SWAP4 POP POP PUSH1 0x20 PUSH2 0x4234 DUP7 DUP3 DUP8 ADD PUSH2 0x4023 JUMP JUMPDEST SWAP3 POP POP PUSH1 0x40 PUSH2 0x4245 DUP7 DUP3 DUP8 ADD PUSH2 0x3F76 JUMP JUMPDEST SWAP2 POP POP SWAP3 POP SWAP3 POP SWAP3 JUMP JUMPDEST PUSH0 DUP1 PUSH1 0x40 DUP4 DUP6 SUB SLT ISZERO PUSH2 0x4265 JUMPI PUSH2 0x4264 PUSH2 0x3E0C JUMP JUMPDEST JUMPDEST PUSH0 PUSH2 0x4272 DUP6 DUP3 DUP7 ADD PUSH2 0x3F76 JUMP JUMPDEST SWAP3 POP POP PUSH1 0x20 PUSH2 0x4283 DUP6 DUP3 DUP7 ADD PUSH2 0x3F76 JUMP JUMPDEST SWAP2 POP POP SWAP3 POP SWAP3 SWAP1 POP JUMP JUMPDEST PUSH0 PUSH1 0x40 DUP3 ADD SWAP1 POP PUSH2 0x42A0 PUSH0 DUP4 ADD DUP6 PUSH2 0x3FE5 JUMP JUMPDEST PUSH2 0x42AD PUSH1 0x20 DUP4 ADD DUP5 PUSH2 0x4075 JUMP JUMPDEST SWAP4 SWAP3 POP POP POP JUMP JUMPDEST PUSH2 0x42BD DUP2 PUSH2 0x40F0 JUMP JUMPDEST DUP3 MSTORE POP POP JUMP JUMPDEST PUSH2 0x42CC DUP2 PUSH2 0x411F JUMP JUMPDEST DUP3 MSTORE POP POP JUMP JUMPDEST PUSH0 PUSH2 0x100 DUP3 ADD SWAP1 POP PUSH2 0x42E6 PUSH0 DUP4 ADD DUP12 PUSH2 0x42B4 JUMP JUMPDEST PUSH2 0x42F3 PUSH1 0x20 DUP4 ADD DUP11 PUSH2 0x4075 JUMP JUMPDEST PUSH2 0x4300 PUSH1 0x40 DUP4 ADD DUP10 PUSH2 0x4075 JUMP JUMPDEST PUSH2 0x430D PUSH1 0x60 DUP4 ADD DUP9 PUSH2 0x4075 JUMP JUMPDEST PUSH2 0x431A PUSH1 0x80 DUP4 ADD DUP8 PUSH2 0x4075 JUMP JUMPDEST PUSH2 0x4327 PUSH1 0xA0 DUP4 ADD DUP7 PUSH2 0x4075 JUMP JUMPDEST PUSH2 0x4334 PUSH1 0xC0 DUP4 ADD DUP6 PUSH2 0x4075 JUMP JUMPDEST PUSH2 0x4341 PUSH1 0xE0 DUP4 ADD DUP5 PUSH2 0x42C3 JUMP JUMPDEST SWAP10 SWAP9 POP POP POP POP POP POP POP POP POP JUMP JUMPDEST PUSH1 0x3 DUP2 LT PUSH2 0x435A JUMPI PUSH0 DUP1 REVERT JUMPDEST POP JUMP JUMPDEST PUSH0 DUP2 CALLDATALOAD SWAP1 POP PUSH2 0x436B DUP2 PUSH2 0x434E JUMP JUMPDEST SWAP3 SWAP2 POP POP JUMP JUMPDEST PUSH2 0x437A DUP2 PUSH2 0x411F JUMP JUMPDEST DUP2 EQ PUSH2 0x4384 JUMPI PUSH0 DUP1 REVERT JUMPDEST POP JUMP JUMPDEST PUSH0 DUP2 CALLDATALOAD SWAP1 POP PUSH2 0x4395 DUP2 PUSH2 0x4371 JUMP JUMPDEST SWAP3 SWAP2 POP POP JUMP JUMPDEST PUSH0 DUP1 PUSH0 DUP1 PUSH0 DUP1 PUSH0 PUSH1 0xE0 DUP9 DUP11 SUB SLT ISZERO PUSH2 0x43B6 JUMPI PUSH2 0x43B5 PUSH2 0x3E0C JUMP JUMPDEST JUMPDEST PUSH0 PUSH2 0x43C3 DUP11 DUP3 DUP12 ADD PUSH2 0x435D JUMP JUMPDEST SWAP8 POP POP PUSH1 0x20 PUSH2 0x43D4 DUP11 DUP3 DUP12 ADD PUSH2 0x3F76 JUMP JUMPDEST SWAP7 POP POP PUSH1 0x40 PUSH2 0x43E5 DUP11 DUP3 DUP12 ADD PUSH2 0x3F76 JUMP JUMPDEST SWAP6 POP POP PUSH1 0x60 PUSH2 0x43F6 DUP11 DUP3 DUP12 ADD PUSH2 0x3F76 JUMP JUMPDEST SWAP5 POP POP PUSH1 0x80 PUSH2 0x4407 DUP11 DUP3 DUP12 ADD PUSH2 0x3F76 JUMP JUMPDEST SWAP4 POP POP PUSH1 0xA0 PUSH2 0x4418 DUP11 DUP3 DUP12 ADD PUSH2 0x3F76 JUMP JUMPDEST SWAP3 POP POP PUSH1 0xC0 PUSH2 0x4429 DUP11 DUP3 DUP12 ADD PUSH2 0x4387 JUMP JUMPDEST SWAP2 POP POP SWAP3 SWAP6 SWAP9 SWAP2 SWAP5 SWAP8 POP SWAP3 SWAP6 POP JUMP JUMPDEST PUSH0 PUSH1 0x20 DUP3 DUP5 SUB SLT ISZERO PUSH2 0x444D JUMPI PUSH2 0x444C PUSH2 0x3E0C JUMP JUMPDEST JUMPDEST PUSH0 PUSH2 0x445A DUP5 DUP3 DUP6 ADD PUSH2 0x4023 JUMP JUMPDEST SWAP2 POP POP SWAP3 SWAP2 POP POP JUMP JUMPDEST PUSH0 DUP2 MLOAD SWAP1 POP SWAP2 SWAP1 POP JUMP JUMPDEST PUSH0 DUP3 DUP3 MSTORE PUSH1 0x20 DUP3 ADD SWAP1 POP SWAP3 SWAP2 POP POP JUMP JUMPDEST PUSH0 DUP2 SWAP1 POP PUSH1 0x20 DUP3 ADD SWAP1 POP SWAP2 SWAP1 POP JUMP JUMPDEST PUSH0 PUSH2 0x4497 DUP4 DUP4 PUSH2 0x4110 JUMP JUMPDEST PUSH1 0x20 DUP4 ADD SWAP1 POP SWAP3 SWAP2 POP POP JUMP JUMPDEST PUSH0 PUSH1 0x20 DUP3 ADD SWAP1 POP SWAP2 SWAP1 POP JUMP JUMPDEST PUSH0 PUSH2 0x44B9 DUP3 PUSH2 0x4463 JUMP JUMPDEST PUSH2 0x44C3 DUP2 DUP6 PUSH2 0x446D JUMP JUMPDEST SWAP4 POP PUSH2 0x44CE DUP4 PUSH2 0x447D JUMP JUMPDEST DUP1 PUSH0 JUMPDEST DUP4 DUP2 LT ISZERO PUSH2 0x44FE JUMPI DUP2 MLOAD PUSH2 0x44E5 DUP9 DUP3 PUSH2 0x448C JUMP JUMPDEST SWAP8 POP PUSH2 0x44F0 DUP4 PUSH2 0x44A3 JUMP JUMPDEST SWAP3 POP POP PUSH1 0x1 DUP2 ADD SWAP1 POP PUSH2 0x44D1 JUMP JUMPDEST POP DUP6 SWAP4 POP POP POP POP SWAP3 SWAP2 POP POP JUMP JUMPDEST PUSH0 PUSH1 0x20 DUP3 ADD SWAP1 POP DUP2 DUP2 SUB PUSH0 DUP4 ADD MSTORE PUSH2 0x4523 DUP2 DUP5 PUSH2 0x44AF JUMP JUMPDEST SWAP1 POP SWAP3 SWAP2 POP POP JUMP JUMPDEST PUSH0 PUSH32 0xFF00000000000000000000000000000000000000000000000000000000000000 DUP3 AND SWAP1 POP SWAP2 SWAP1 POP JUMP JUMPDEST PUSH2 0x455F DUP2 PUSH2 0x452B JUMP JUMPDEST DUP3 MSTORE POP POP JUMP JUMPDEST PUSH0 PUSH1 0xE0 DUP3 ADD SWAP1 POP PUSH2 0x4578 PUSH0 DUP4 ADD DUP11 PUSH2 0x4556 JUMP JUMPDEST DUP2 DUP2 SUB PUSH1 0x20 DUP4 ADD MSTORE PUSH2 0x458A DUP2 DUP10 PUSH2 0x3EFF JUMP JUMPDEST SWAP1 POP DUP2 DUP2 SUB PUSH1 0x40 DUP4 ADD MSTORE PUSH2 0x459E DUP2 DUP9 PUSH2 0x3EFF JUMP JUMPDEST SWAP1 POP PUSH2 0x45AD PUSH1 0x60 DUP4 ADD DUP8 PUSH2 0x4075 JUMP JUMPDEST PUSH2 0x45BA PUSH1 0x80 DUP4 ADD DUP7 PUSH2 0x3FE5 JUMP JUMPDEST PUSH2 0x45C7 PUSH1 0xA0 DUP4 ADD DUP6 PUSH2 0x42C3 JUMP JUMPDEST DUP2 DUP2 SUB PUSH1 0xC0 DUP4 ADD MSTORE PUSH2 0x45D9 DUP2 DUP5 PUSH2 0x44AF JUMP JUMPDEST SWAP1 POP SWAP9 SWAP8 POP POP POP POP POP POP POP POP JUMP JUMPDEST PUSH0 DUP1 REVERT JUMPDEST PUSH0 DUP1 REVERT JUMPDEST PUSH0 DUP1 REVERT JUMPDEST PUSH0 DUP1 DUP4 PUSH1 0x1F DUP5 ADD SLT PUSH2 0x4608 JUMPI PUSH2 0x4607 PUSH2 0x45E7 JUMP JUMPDEST JUMPDEST DUP3 CALLDATALOAD SWAP1 POP PUSH8 0xFFFFFFFFFFFFFFFF DUP2 GT ISZERO PUSH2 0x4625 JUMPI PUSH2 0x4624 PUSH2 0x45EB JUMP JUMPDEST JUMPDEST PUSH1 0x20 DUP4 ADD SWAP2 POP DUP4 PUSH1 0x1 DUP3 MUL DUP4 ADD GT ISZERO PUSH2 0x4641 JUMPI PUSH2 0x4640 PUSH2 0x45EF JUMP JUMPDEST JUMPDEST SWAP3 POP SWAP3 SWAP1 POP JUMP JUMPDEST PUSH0 DUP1 DUP4 PUSH1 0x1F DUP5 ADD SLT PUSH2 0x465D JUMPI PUSH2 0x465C PUSH2 0x45E7 JUMP JUMPDEST JUMPDEST DUP3 CALLDATALOAD SWAP1 POP PUSH8 0xFFFFFFFFFFFFFFFF DUP2 GT ISZERO PUSH2 0x467A JUMPI PUSH2 0x4679 PUSH2 0x45EB JUMP JUMPDEST JUMPDEST PUSH1 0x20 DUP4 ADD SWAP2 POP DUP4 PUSH1 0x1 DUP3 MUL DUP4 ADD GT ISZERO PUSH2 0x4696 JUMPI PUSH2 0x4695 PUSH2 0x45EF JUMP JUMPDEST JUMPDEST SWAP3 POP SWAP3 SWAP1 POP JUMP JUMPDEST PUSH0 DUP1 DUP4 PUSH1 0x1F DUP5 ADD SLT PUSH2 0x46B2 JUMPI PUSH2 0x46B1 PUSH2 0x45E7 JUMP JUMPDEST JUMPDEST DUP3 CALLDATALOAD SWAP1 POP PUSH8 0xFFFFFFFFFFFFFFFF DUP2 GT ISZERO PUSH2 0x46CF JUMPI PUSH2 0x46CE PUSH2 0x45EB JUMP JUMPDEST JUMPDEST PUSH1 0x20 DUP4 ADD SWAP2 POP DUP4 PUSH1 0x20 DUP3 MUL DUP4 ADD GT ISZERO PUSH2 0x46EB JUMPI PUSH2 0x46EA PUSH2 0x45EF JUMP JUMPDEST JUMPDEST SWAP3 POP SWAP3 SWAP1 POP JUMP JUMPDEST PUSH0 DUP1 PUSH0 DUP1 PUSH0 DUP1 PUSH0 DUP1 PUSH0 PUSH1 0xC0 DUP11 DUP13 SUB SLT ISZERO PUSH2 0x470F JUMPI PUSH2 0x470E PUSH2 0x3E0C JUMP JUMPDEST JUMPDEST PUSH0 PUSH2 0x471C DUP13 DUP3 DUP14 ADD PUSH2 0x3F76 JUMP JUMPDEST SWAP10 POP POP PUSH1 0x20 DUP11 ADD CALLDATALOAD PUSH8 0xFFFFFFFFFFFFFFFF DUP2 GT ISZERO PUSH2 0x473D JUMPI PUSH2 0x473C PUSH2 0x3E10 JUMP JUMPDEST JUMPDEST PUSH2 0x4749 DUP13 DUP3 DUP14 ADD PUSH2 0x45F3 JUMP JUMPDEST SWAP9 POP SWAP9 POP POP PUSH1 0x40 PUSH2 0x475C DUP13 DUP3 DUP14 ADD PUSH2 0x4387 JUMP JUMPDEST SWAP7 POP POP PUSH1 0x60 PUSH2 0x476D DUP13 DUP3 DUP14 ADD PUSH2 0x3F76 JUMP JUMPDEST SWAP6 POP POP PUSH1 0x80 DUP11 ADD CALLDATALOAD PUSH8 0xFFFFFFFFFFFFFFFF DUP2 GT ISZERO PUSH2 0x478E JUMPI PUSH2 0x478D PUSH2 0x3E10 JUMP JUMPDEST JUMPDEST PUSH2 0x479A DUP13 DUP3 DUP14 ADD PUSH2 0x4648 JUMP JUMPDEST SWAP5 POP SWAP5 POP POP PUSH1 0xA0 DUP11 ADD CALLDATALOAD PUSH8 0xFFFFFFFFFFFFFFFF DUP2 GT ISZERO PUSH2 0x47BD JUMPI PUSH2 0x47BC PUSH2 0x3E10 JUMP JUMPDEST JUMPDEST PUSH2 0x47C9 DUP13 DUP3 DUP14 ADD PUSH2 0x469D JUMP JUMPDEST SWAP3 POP SWAP3 POP POP SWAP3 SWAP6 SWAP9 POP SWAP3 SWAP6 SWAP9 POP SWAP3 SWAP6 SWAP9 JUMP JUMPDEST PUSH2 0x47E4 DUP2 PUSH2 0x3E94 JUMP JUMPDEST DUP2 EQ PUSH2 0x47EE JUMPI PUSH0 DUP1 REVERT JUMPDEST POP JUMP JUMPDEST PUSH0 DUP2 CALLDATALOAD SWAP1 POP PUSH2 0x47FF DUP2 PUSH2 0x47DB JUMP JUMPDEST SWAP3 SWAP2 POP POP JUMP JUMPDEST PUSH0 DUP1 PUSH1 0x40 DUP4 DUP6 SUB SLT ISZERO PUSH2 0x481B JUMPI PUSH2 0x481A PUSH2 0x3E0C JUMP JUMPDEST JUMPDEST PUSH0 PUSH2 0x4828 DUP6 DUP3 DUP7 ADD PUSH2 0x4023 JUMP JUMPDEST SWAP3 POP POP PUSH1 0x20 PUSH2 0x4839 DUP6 DUP3 DUP7 ADD PUSH2 0x47F1 JUMP JUMPDEST SWAP2 POP POP SWAP3 POP SWAP3 SWAP1 POP JUMP JUMPDEST PUSH0 DUP1 REVERT JUMPDEST PUSH32 0x4E487B7100000000000000000000000000000000000000000000000000000000 PUSH0 MSTORE PUSH1 0x41 PUSH1 0x4 MSTORE PUSH1 0x24 PUSH0 REVERT JUMPDEST PUSH2 0x487D DUP3 PUSH2 0x3EEF JUMP JUMPDEST DUP2 ADD DUP2 DUP2 LT PUSH8 0xFFFFFFFFFFFFFFFF DUP3 GT OR ISZERO PUSH2 0x489C JUMPI PUSH2 0x489B PUSH2 0x4847 JUMP JUMPDEST JUMPDEST DUP1 PUSH1 0x40 MSTORE POP POP POP JUMP JUMPDEST PUSH0 PUSH2 0x48AE PUSH2 0x3E03 JUMP JUMPDEST SWAP1 POP PUSH2 0x48BA DUP3 DUP3 PUSH2 0x4874 JUMP JUMPDEST SWAP2 SWAP1 POP JUMP JUMPDEST PUSH0 PUSH8 0xFFFFFFFFFFFFFFFF DUP3 GT ISZERO PUSH2 0x48D9 JUMPI PUSH2 0x48D8 PUSH2 0x4847 JUMP JUMPDEST JUMPDEST PUSH2 0x48E2 DUP3 PUSH2 0x3EEF JUMP JUMPDEST SWAP1 POP PUSH1 0x20 DUP2 ADD SWAP1 POP SWAP2 SWAP1 POP JUMP JUMPDEST DUP3 DUP2 DUP4 CALLDATACOPY PUSH0 DUP4 DUP4 ADD MSTORE POP POP POP JUMP JUMPDEST PUSH0 PUSH2 0x490F PUSH2 0x490A DUP5 PUSH2 0x48BF JUMP JUMPDEST PUSH2 0x48A5 JUMP JUMPDEST SWAP1 POP DUP3 DUP2 MSTORE PUSH1 0x20 DUP2 ADD DUP5 DUP5 DUP5 ADD GT ISZERO PUSH2 0x492B JUMPI PUSH2 0x492A PUSH2 0x4843 JUMP JUMPDEST JUMPDEST PUSH2 0x4936 DUP5 DUP3 DUP6 PUSH2 0x48EF JUMP JUMPDEST POP SWAP4 SWAP3 POP POP POP JUMP JUMPDEST PUSH0 DUP3 PUSH1 0x1F DUP4 ADD SLT PUSH2 0x4952 JUMPI PUSH2 0x4951 PUSH2 0x45E7 JUMP JUMPDEST JUMPDEST DUP2 CALLDATALOAD PUSH2 0x4962 DUP5 DUP3 PUSH1 0x20 DUP7 ADD PUSH2 0x48FD JUMP JUMPDEST SWAP2 POP POP SWAP3 SWAP2 POP POP JUMP JUMPDEST PUSH0 DUP1 PUSH0 DUP1 PUSH1 0x80 DUP6 DUP8 SUB SLT ISZERO PUSH2 0x4983 JUMPI PUSH2 0x4982 PUSH2 0x3E0C JUMP JUMPDEST JUMPDEST PUSH0 PUSH2 0x4990 DUP8 DUP3 DUP9 ADD PUSH2 0x4023 JUMP JUMPDEST SWAP5 POP POP PUSH1 0x20 PUSH2 0x49A1 DUP8 DUP3 DUP9 ADD PUSH2 0x4023 JUMP JUMPDEST SWAP4 POP POP PUSH1 0x40 PUSH2 0x49B2 DUP8 DUP3 DUP9 ADD PUSH2 0x3F76 JUMP JUMPDEST SWAP3 POP POP PUSH1 0x60 DUP6 ADD CALLDATALOAD PUSH8 0xFFFFFFFFFFFFFFFF DUP2 GT ISZERO PUSH2 0x49D3 JUMPI PUSH2 0x49D2 PUSH2 0x3E10 JUMP JUMPDEST JUMPDEST PUSH2 0x49DF DUP8 DUP3 DUP9 ADD PUSH2 0x493E JUMP JUMPDEST SWAP2 POP POP SWAP3 SWAP6 SWAP2 SWAP5 POP SWAP3 POP JUMP JUMPDEST PUSH0 PUSH12 0xFFFFFFFFFFFFFFFFFFFFFFFF DUP3 AND SWAP1 POP SWAP2 SWAP1 POP JUMP JUMPDEST PUSH2 0x4A0B DUP2 PUSH2 0x49EB JUMP JUMPDEST DUP3 MSTORE POP POP JUMP JUMPDEST PUSH0 PUSH1 0x20 DUP3 ADD SWAP1 POP PUSH2 0x4A24 PUSH0 DUP4 ADD DUP5 PUSH2 0x4A02 JUMP JUMPDEST SWAP3 SWAP2 POP POP JUMP JUMPDEST PUSH0 DUP1 PUSH1 0x40 DUP4 DUP6 SUB SLT ISZERO PUSH2 0x4A40 JUMPI PUSH2 0x4A3F PUSH2 0x3E0C JUMP JUMPDEST JUMPDEST PUSH0 PUSH2 0x4A4D DUP6 DUP3 DUP7 ADD PUSH2 0x4023 JUMP JUMPDEST SWAP3 POP POP PUSH1 0x20 PUSH2 0x4A5E DUP6 DUP3 DUP7 ADD PUSH2 0x4023 JUMP JUMPDEST SWAP2 POP POP SWAP3 POP SWAP3 SWAP1 POP JUMP JUMPDEST PUSH0 PUSH1 0x20 DUP3 ADD SWAP1 POP PUSH2 0x4A7B PUSH0 DUP4 ADD DUP5 PUSH2 0x42C3 JUMP JUMPDEST SWAP3 SWAP2 POP POP JUMP JUMPDEST PUSH0 DUP1 PUSH1 0x40 DUP4 DUP6 SUB SLT ISZERO PUSH2 0x4A97 JUMPI PUSH2 0x4A96 PUSH2 0x3E0C JUMP JUMPDEST JUMPDEST PUSH0 PUSH2 0x4AA4 DUP6 DUP3 DUP7 ADD PUSH2 0x4023 JUMP JUMPDEST SWAP3 POP POP PUSH1 0x20 PUSH2 0x4AB5 DUP6 DUP3 DUP7 ADD PUSH2 0x435D JUMP JUMPDEST SWAP2 POP POP SWAP3 POP SWAP3 SWAP1 POP JUMP JUMPDEST PUSH32 0x4E487B7100000000000000000000000000000000000000000000000000000000 PUSH0 MSTORE PUSH1 0x22 PUSH1 0x4 MSTORE PUSH1 0x24 PUSH0 REVERT JUMPDEST PUSH0 PUSH1 0x2 DUP3 DIV SWAP1 POP PUSH1 0x1 DUP3 AND DUP1 PUSH2 0x4B03 JUMPI PUSH1 0x7F DUP3 AND SWAP2 POP JUMPDEST PUSH1 0x20 DUP3 LT DUP2 SUB PUSH2 0x4B16 JUMPI PUSH2 0x4B15 PUSH2 0x4ABF JUMP JUMPDEST JUMPDEST POP SWAP2 SWAP1 POP JUMP JUMPDEST PUSH32 0x4E487B7100000000000000000000000000000000000000000000000000000000 PUSH0 MSTORE PUSH1 0x32 PUSH1 0x4 MSTORE PUSH1 0x24 PUSH0 REVERT JUMPDEST PUSH0 PUSH1 0x60 DUP3 ADD SWAP1 POP PUSH2 0x4B5C PUSH0 DUP4 ADD DUP7 PUSH2 0x3FE5 JUMP JUMPDEST PUSH2 0x4B69 PUSH1 0x20 DUP4 ADD DUP6 PUSH2 0x4075 JUMP JUMPDEST PUSH2 0x4B76 PUSH1 0x40 DUP4 ADD DUP5 PUSH2 0x3FE5 JUMP JUMPDEST SWAP5 SWAP4 POP POP POP POP JUMP JUMPDEST PUSH32 0x4E487B7100000000000000000000000000000000000000000000000000000000 PUSH0 MSTORE PUSH1 0x11 PUSH1 0x4 MSTORE PUSH1 0x24 PUSH0 REVERT JUMPDEST PUSH0 PUSH2 0x4BB5 DUP3 PUSH2 0x3F57 JUMP JUMPDEST SWAP2 POP PUSH2 0x4BC0 DUP4 PUSH2 0x3F57 JUMP JUMPDEST SWAP3 POP DUP3 DUP3 MUL PUSH2 0x4BCE DUP2 PUSH2 0x3F57 JUMP JUMPDEST SWAP2 POP DUP3 DUP3 DIV DUP5 EQ DUP4 ISZERO OR PUSH2 0x4BE5 JUMPI PUSH2 0x4BE4 PUSH2 0x4B7E JUMP JUMPDEST JUMPDEST POP SWAP3 SWAP2 POP POP JUMP JUMPDEST PUSH32 0x4E487B7100000000000000000000000000000000000000000000000000000000 PUSH0 MSTORE PUSH1 0x12 PUSH1 0x4 MSTORE PUSH1 0x24 PUSH0 REVERT JUMPDEST PUSH0 PUSH2 0x4C23 DUP3 PUSH2 0x3F57 JUMP JUMPDEST SWAP2 POP PUSH2 0x4C2E DUP4 PUSH2 0x3F57 JUMP JUMPDEST SWAP3 POP DUP3 PUSH2 0x4C3E JUMPI PUSH2 0x4C3D PUSH2 0x4BEC JUMP JUMPDEST JUMPDEST DUP3 DUP3 DIV SWAP1 POP SWAP3 SWAP2 POP POP JUMP JUMPDEST PUSH32 0x496E76616C69642074696D652072616E67650000000000000000000000000000 PUSH0 DUP3 ADD MSTORE POP JUMP JUMPDEST PUSH0 PUSH2 0x4C7D PUSH1 0x12 DUP4 PUSH2 0x3ED1 JUMP JUMPDEST SWAP2 POP PUSH2 0x4C88 DUP3 PUSH2 0x4C49 JUMP JUMPDEST PUSH1 0x20 DUP3 ADD SWAP1 POP SWAP2 SWAP1 POP JUMP JUMPDEST PUSH0 PUSH1 0x20 DUP3 ADD SWAP1 POP DUP2 DUP2 SUB PUSH0 DUP4 ADD MSTORE PUSH2 0x4CAA DUP2 PUSH2 0x4C71 JUMP JUMPDEST SWAP1 POP SWAP2 SWAP1 POP JUMP JUMPDEST PUSH32 0x496E76616C6964206D6178207065722077616C6C657420666F72206E6F6E2D70 PUSH0 DUP3 ADD MSTORE PUSH32 0x75626C6963207068617365000000000000000000000000000000000000000000 PUSH1 0x20 DUP3 ADD MSTORE POP JUMP JUMPDEST PUSH0 PUSH2 0x4D0B PUSH1 0x2B DUP4 PUSH2 0x3ED1 JUMP JUMPDEST SWAP2 POP PUSH2 0x4D16 DUP3 PUSH2 0x4CB1 JUMP JUMPDEST PUSH1 0x40 DUP3 ADD SWAP1 POP SWAP2 SWAP1 POP JUMP JUMPDEST PUSH0 PUSH1 0x20 DUP3 ADD SWAP1 POP DUP2 DUP2 SUB PUSH0 DUP4 ADD MSTORE PUSH2 0x4D38 DUP2 PUSH2 0x4CFF JUMP JUMPDEST SWAP1 POP SWAP2 SWAP1 POP JUMP JUMPDEST PUSH32 0x4D65726B6C6520726F6F7420726571756972656420666F722077686974656C69 PUSH0 DUP3 ADD MSTORE PUSH32 0x7374207068617365000000000000000000000000000000000000000000000000 PUSH1 0x20 DUP3 ADD MSTORE POP JUMP JUMPDEST PUSH0 PUSH2 0x4D99 PUSH1 0x28 DUP4 PUSH2 0x3ED1 JUMP JUMPDEST SWAP2 POP PUSH2 0x4DA4 DUP3 PUSH2 0x4D3F JUMP JUMPDEST PUSH1 0x40 DUP3 ADD SWAP1 POP SWAP2 SWAP1 POP JUMP JUMPDEST PUSH0 PUSH1 0x20 DUP3 ADD SWAP1 POP DUP2 DUP2 SUB PUSH0 DUP4 ADD MSTORE PUSH2 0x4DC6 DUP2 PUSH2 0x4D8D JUMP JUMPDEST SWAP1 POP SWAP2 SWAP1 POP JUMP JUMPDEST PUSH32 0x50686173652074696D65206F7665726C6170732077697468206578697374696E PUSH0 DUP3 ADD MSTORE PUSH32 0x6720706861736500000000000000000000000000000000000000000000000000 PUSH1 0x20 DUP3 ADD MSTORE POP JUMP JUMPDEST PUSH0 PUSH2 0x4E27 PUSH1 0x27 DUP4 PUSH2 0x3ED1 JUMP JUMPDEST SWAP2 POP PUSH2 0x4E32 DUP3 PUSH2 0x4DCD JUMP JUMPDEST PUSH1 0x40 DUP3 ADD SWAP1 POP SWAP2 SWAP1 POP JUMP JUMPDEST PUSH0 PUSH1 0x20 DUP3 ADD SWAP1 POP DUP2 DUP2 SUB PUSH0 DUP4 ADD MSTORE PUSH2 0x4E54 DUP2 PUSH2 0x4E1B JUMP JUMPDEST SWAP1 POP SWAP2 SWAP1 POP JUMP JUMPDEST PUSH0 PUSH1 0x40 DUP3 ADD SWAP1 POP PUSH2 0x4E6E PUSH0 DUP4 ADD DUP6 PUSH2 0x42B4 JUMP JUMPDEST PUSH2 0x4E7B PUSH1 0x20 DUP4 ADD DUP5 PUSH2 0x4075 JUMP JUMPDEST SWAP4 SWAP3 POP POP POP JUMP JUMPDEST PUSH0 DUP2 PUSH1 0x60 SHL SWAP1 POP SWAP2 SWAP1 POP JUMP JUMPDEST PUSH0 PUSH2 0x4E98 DUP3 PUSH2 0x4E82 JUMP JUMPDEST SWAP1 POP SWAP2 SWAP1 POP JUMP JUMPDEST PUSH0 PUSH2 0x4EA9 DUP3 PUSH2 0x4E8E JUMP JUMPDEST SWAP1 POP SWAP2 SWAP1 POP JUMP JUMPDEST PUSH2 0x4EC1 PUSH2 0x4EBC DUP3 PUSH2 0x3FD4 JUMP JUMPDEST PUSH2 0x4E9F JUMP JUMPDEST DUP3 MSTORE POP POP JUMP JUMPDEST PUSH0 PUSH2 0x4ED2 DUP3 DUP5 PUSH2 0x4EB0 JUMP JUMPDEST PUSH1 0x14 DUP3 ADD SWAP2 POP DUP2 SWAP1 POP SWAP3 SWAP2 POP POP JUMP JUMPDEST PUSH32 0x4E6F742077686974656C697374656420666F7220746869732070686173650000 PUSH0 DUP3 ADD MSTORE POP JUMP JUMPDEST PUSH0 PUSH2 0x4F15 PUSH1 0x1E DUP4 PUSH2 0x3ED1 JUMP JUMPDEST SWAP2 POP PUSH2 0x4F20 DUP3 PUSH2 0x4EE1 JUMP JUMPDEST PUSH1 0x20 DUP3 ADD SWAP1 POP SWAP2 SWAP1 POP JUMP JUMPDEST PUSH0 PUSH1 0x20 DUP3 ADD SWAP1 POP DUP2 DUP2 SUB PUSH0 DUP4 ADD MSTORE PUSH2 0x4F42 DUP2 PUSH2 0x4F09 JUMP JUMPDEST SWAP1 POP SWAP2 SWAP1 POP JUMP JUMPDEST PUSH0 PUSH2 0x4F53 DUP3 PUSH2 0x3F57 JUMP JUMPDEST SWAP2 POP PUSH2 0x4F5E DUP4 PUSH2 0x3F57 JUMP JUMPDEST SWAP3 POP DUP3 DUP3 ADD SWAP1 POP DUP1 DUP3 GT ISZERO PUSH2 0x4F76 JUMPI PUSH2 0x4F75 PUSH2 0x4B7E JUMP JUMPDEST JUMPDEST SWAP3 SWAP2 POP POP JUMP JUMPDEST PUSH32 0x5369676E61747572652065787069726564000000000000000000000000000000 PUSH0 DUP3 ADD MSTORE POP JUMP JUMPDEST PUSH0 PUSH2 0x4FB0 PUSH1 0x11 DUP4 PUSH2 0x3ED1 JUMP JUMPDEST SWAP2 POP PUSH2 0x4FBB DUP3 PUSH2 0x4F7C JUMP JUMPDEST PUSH1 0x20 DUP3 ADD SWAP1 POP SWAP2 SWAP1 POP JUMP JUMPDEST PUSH0 PUSH1 0x20 DUP3 ADD SWAP1 POP DUP2 DUP2 SUB PUSH0 DUP4 ADD MSTORE PUSH2 0x4FDD DUP2 PUSH2 0x4FA4 JUMP JUMPDEST SWAP1 POP SWAP2 SWAP1 POP JUMP JUMPDEST PUSH32 0x5369676E617475726520616C7265616479207573656400000000000000000000 PUSH0 DUP3 ADD MSTORE POP JUMP JUMPDEST PUSH0 PUSH2 0x5018 PUSH1 0x16 DUP4 PUSH2 0x3ED1 JUMP JUMPDEST SWAP2 POP PUSH2 0x5023 DUP3 PUSH2 0x4FE4 JUMP JUMPDEST PUSH1 0x20 DUP3 ADD SWAP1 POP SWAP2 SWAP1 POP JUMP JUMPDEST PUSH0 PUSH1 0x20 DUP3 ADD SWAP1 POP DUP2 DUP2 SUB PUSH0 DUP4 ADD MSTORE PUSH2 0x5045 DUP2 PUSH2 0x500C JUMP JUMPDEST SWAP1 POP SWAP2 SWAP1 POP JUMP JUMPDEST PUSH0 DUP2 SWAP1 POP SWAP3 SWAP2 POP POP JUMP JUMPDEST PUSH0 PUSH2 0x5061 DUP4 DUP6 PUSH2 0x504C JUMP JUMPDEST SWAP4 POP PUSH2 0x506E DUP4 DUP6 DUP5 PUSH2 0x48EF JUMP JUMPDEST DUP3 DUP5 ADD SWAP1 POP SWAP4 SWAP3 POP POP POP JUMP JUMPDEST PUSH0 PUSH2 0x5086 DUP3 DUP5 DUP7 PUSH2 0x5056 JUMP JUMPDEST SWAP2 POP DUP2 SWAP1 POP SWAP4 SWAP3 POP POP POP JUMP JUMPDEST PUSH0 PUSH2 0x100 DUP3 ADD SWAP1 POP PUSH2 0x50A6 PUSH0 DUP4 ADD DUP12 PUSH2 0x42C3 JUMP JUMPDEST PUSH2 0x50B3 PUSH1 0x20 DUP4 ADD DUP11 PUSH2 0x3FE5 JUMP JUMPDEST PUSH2 0x50C0 PUSH1 0x40 DUP4 ADD DUP10 PUSH2 0x4075 JUMP JUMPDEST PUSH2 0x50CD PUSH1 0x60 DUP4 ADD DUP9 PUSH2 0x42C3 JUMP JUMPDEST PUSH2 0x50DA PUSH1 0x80 DUP4 ADD DUP8 PUSH2 0x4075 JUMP JUMPDEST PUSH2 0x50E7 PUSH1 0xA0 DUP4 ADD DUP7 PUSH2 0x4075 JUMP JUMPDEST PUSH2 0x50F4 PUSH1 0xC0 DUP4 ADD DUP6 PUSH2 0x42C3 JUMP JUMPDEST PUSH2 0x5101 PUSH1 0xE0 DUP4 ADD DUP5 PUSH2 0x4075 JUMP JUMPDEST SWAP10 SWAP9 POP POP POP POP POP POP POP POP POP JUMP JUMPDEST PUSH32 0x496E76616C6964207369676E6174757265000000000000000000000000000000 PUSH0 DUP3 ADD MSTORE POP JUMP JUMPDEST PUSH0 PUSH2 0x5142 PUSH1 0x11 DUP4 PUSH2 0x3ED1 JUMP JUMPDEST SWAP2 POP PUSH2 0x514D DUP3 PUSH2 0x510E JUMP JUMPDEST PUSH1 0x20 DUP3 ADD SWAP1 POP SWAP2 SWAP1 POP JUMP JUMPDEST PUSH0 PUSH1 0x20 DUP3 ADD SWAP1 POP DUP2 DUP2 SUB PUSH0 DUP4 ADD MSTORE PUSH2 0x516F DUP2 PUSH2 0x5136 JUMP JUMPDEST SWAP1 POP SWAP2 SWAP1 POP JUMP JUMPDEST PUSH32 0x496E636F7272656374207061796D656E7420616D6F756E740000000000000000 PUSH0 DUP3 ADD MSTORE POP JUMP JUMPDEST PUSH0 PUSH2 0x51AA PUSH1 0x18 DUP4 PUSH2 0x3ED1 JUMP JUMPDEST SWAP2 POP PUSH2 0x51B5 DUP3 PUSH2 0x5176 JUMP JUMPDEST PUSH1 0x20 DUP3 ADD SWAP1 POP SWAP2 SWAP1 POP JUMP JUMPDEST PUSH0 PUSH1 0x20 DUP3 ADD SWAP1 POP DUP2 DUP2 SUB PUSH0 DUP4 ADD MSTORE PUSH2 0x51D7 DUP2 PUSH2 0x519E JUMP JUMPDEST SWAP1 POP SWAP2 SWAP1 POP JUMP JUMPDEST PUSH32 0x506861736520737570706C79206C696D69742072656163686564000000000000 PUSH0 DUP3 ADD MSTORE POP JUMP JUMPDEST PUSH0 PUSH2 0x5212 PUSH1 0x1A DUP4 PUSH2 0x3ED1 JUMP JUMPDEST SWAP2 POP PUSH2 0x521D DUP3 PUSH2 0x51DE JUMP JUMPDEST PUSH1 0x20 DUP3 ADD SWAP1 POP SWAP2 SWAP1 POP JUMP JUMPDEST PUSH0 PUSH1 0x20 DUP3 ADD SWAP1 POP DUP2 DUP2 SUB PUSH0 DUP4 ADD MSTORE PUSH2 0x523F DUP2 PUSH2 0x5206 JUMP JUMPDEST SWAP1 POP SWAP2 SWAP1 POP JUMP JUMPDEST PUSH32 0x57616C6C6574206C696D6974207265616368656420666F722074686973207068 PUSH0 DUP3 ADD MSTORE PUSH32 0x6173650000000000000000000000000000000000000000000000000000000000 PUSH1 0x20 DUP3 ADD MSTORE POP JUMP JUMPDEST PUSH0 PUSH2 0x52A0 PUSH1 0x23 DUP4 PUSH2 0x3ED1 JUMP JUMPDEST SWAP2 POP PUSH2 0x52AB DUP3 PUSH2 0x5246 JUMP JUMPDEST PUSH1 0x40 DUP3 ADD SWAP1 POP SWAP2 SWAP1 POP JUMP JUMPDEST PUSH0 PUSH1 0x20 DUP3 ADD SWAP1 POP DUP2 DUP2 SUB PUSH0 DUP4 ADD MSTORE PUSH2 0x52CD DUP2 PUSH2 0x5294 JUMP JUMPDEST SWAP1 POP SWAP2 SWAP1 POP JUMP JUMPDEST PUSH0 PUSH1 0x20 DUP3 ADD SWAP1 POP PUSH2 0x52E7 PUSH0 DUP4 ADD DUP5 PUSH2 0x42B4 JUMP JUMPDEST SWAP3 SWAP2 POP POP JUMP JUMPDEST PUSH32 0x4E6F206163746976652070686173650000000000000000000000000000000000 PUSH0 DUP3 ADD MSTORE POP JUMP JUMPDEST PUSH0 PUSH2 0x5321 PUSH1 0xF DUP4 PUSH2 0x3ED1 JUMP JUMPDEST SWAP2 POP PUSH2 0x532C DUP3 PUSH2 0x52ED JUMP JUMPDEST PUSH1 0x20 DUP3 ADD SWAP1 POP SWAP2 SWAP1 POP JUMP JUMPDEST PUSH0 PUSH1 0x20 DUP3 ADD SWAP1 POP DUP2 DUP2 SUB PUSH0 DUP4 ADD MSTORE PUSH2 0x534E DUP2 PUSH2 0x5315 JUMP JUMPDEST SWAP1 POP SWAP2 SWAP1 POP JUMP JUMPDEST POP JUMP JUMPDEST PUSH0 PUSH2 0x5363 PUSH0 DUP4 PUSH2 0x504C JUMP JUMPDEST SWAP2 POP PUSH2 0x536E DUP3 PUSH2 0x5355 JUMP JUMPDEST PUSH0 DUP3 ADD SWAP1 POP SWAP2 SWAP1 POP JUMP JUMPDEST PUSH0 PUSH2 0x5382 DUP3 PUSH2 0x5358 JUMP JUMPDEST SWAP2 POP DUP2 SWAP1 POP SWAP2 SWAP1 POP JUMP JUMPDEST PUSH32 0x506C6174666F726D20666565207472616E73666572206661696C656400000000 PUSH0 DUP3 ADD MSTORE POP JUMP JUMPDEST PUSH0 PUSH2 0x53C0 PUSH1 0x1C DUP4 PUSH2 0x3ED1 JUMP JUMPDEST SWAP2 POP PUSH2 0x53CB DUP3 PUSH2 0x538C JUMP JUMPDEST PUSH1 0x20 DUP3 ADD SWAP1 POP SWAP2 SWAP1 POP JUMP JUMPDEST PUSH0 PUSH1 0x20 DUP3 ADD SWAP1 POP DUP2 DUP2 SUB PUSH0 DUP4 ADD MSTORE PUSH2 0x53ED DUP2 PUSH2 0x53B4 JUMP JUMPDEST SWAP1 POP SWAP2 SWAP1 POP JUMP JUMPDEST PUSH0 PUSH2 0x53FE DUP3 PUSH2 0x3F57 JUMP JUMPDEST SWAP2 POP PUSH2 0x5409 DUP4 PUSH2 0x3F57 JUMP JUMPDEST SWAP3 POP DUP3 DUP3 SUB SWAP1 POP DUP2 DUP2 GT ISZERO PUSH2 0x5421 JUMPI PUSH2 0x5420 PUSH2 0x4B7E JUMP JUMPDEST JUMPDEST SWAP3 SWAP2 POP POP JUMP JUMPDEST PUSH32 0x4F776E657220666565207472616E73666572206661696C656400000000000000 PUSH0 DUP3 ADD MSTORE POP JUMP JUMPDEST PUSH0 PUSH2 0x545B PUSH1 0x19 DUP4 PUSH2 0x3ED1 JUMP JUMPDEST SWAP2 POP PUSH2 0x5466 DUP3 PUSH2 0x5427 JUMP JUMPDEST PUSH1 0x20 DUP3 ADD SWAP1 POP SWAP2 SWAP1 POP JUMP JUMPDEST PUSH0 PUSH1 0x20 DUP3 ADD SWAP1 POP DUP2 DUP2 SUB PUSH0 DUP4 ADD MSTORE PUSH2 0x5488 DUP2 PUSH2 0x544F JUMP JUMPDEST SWAP1 POP SWAP2 SWAP1 POP JUMP JUMPDEST PUSH0 PUSH2 0x5499 DUP3 PUSH2 0x3F57 JUMP JUMPDEST SWAP2 POP PUSH32 0xFFFFFFFFFFFFFFFFFFFFFFFFFFFFFFFFFFFFFFFFFFFFFFFFFFFFFFFFFFFFFFFF DUP3 SUB PUSH2 0x54CB JUMPI PUSH2 0x54CA PUSH2 0x4B7E JUMP JUMPDEST JUMPDEST PUSH1 0x1 DUP3 ADD SWAP1 POP SWAP2 SWAP1 POP JUMP JUMPDEST PUSH0 DUP2 MLOAD SWAP1 POP SWAP2 SWAP1 POP JUMP JUMPDEST PUSH0 DUP3 DUP3 MSTORE PUSH1 0x20 DUP3 ADD SWAP1 POP SWAP3 SWAP2 POP POP JUMP JUMPDEST PUSH0 PUSH2 0x54FA DUP3 PUSH2 0x54D6 JUMP JUMPDEST PUSH2 0x5504 DUP2 DUP6 PUSH2 0x54E0 JUMP JUMPDEST SWAP4 POP PUSH2 0x5514 DUP2 DUP6 PUSH1 0x20 DUP7 ADD PUSH2 0x3EE1 JUMP JUMPDEST PUSH2 0x551D DUP2 PUSH2 0x3EEF JUMP JUMPDEST DUP5 ADD SWAP2 POP POP SWAP3 SWAP2 POP POP JUMP JUMPDEST PUSH0 PUSH1 0x80 DUP3 ADD SWAP1 POP PUSH2 0x553B PUSH0 DUP4 ADD DUP8 PUSH2 0x3FE5 JUMP JUMPDEST PUSH2 0x5548 PUSH1 0x20 DUP4 ADD DUP7 PUSH2 0x3FE5 JUMP JUMPDEST PUSH2 0x5555 PUSH1 0x40 DUP4 ADD DUP6 PUSH2 0x4075 JUMP JUMPDEST DUP2 DUP2 SUB PUSH1 0x60 DUP4 ADD MSTORE PUSH2 0x5567 DUP2 DUP5 PUSH2 0x54F0 JUMP JUMPDEST SWAP1 POP SWAP6 SWAP5 POP POP POP POP POP JUMP JUMPDEST PUSH0 DUP2 MLOAD SWAP1 POP PUSH2 0x5580 DUP2 PUSH2 0x3E3F JUMP JUMPDEST SWAP3 SWAP2 POP POP JUMP JUMPDEST PUSH0 PUSH1 0x20 DUP3 DUP5 SUB SLT ISZERO PUSH2 0x559B JUMPI PUSH2 0x559A PUSH2 0x3E0C JUMP JUMPDEST JUMPDEST PUSH0 PUSH2 0x55A8 DUP5 DUP3 DUP6 ADD PUSH2 0x5572 JUMP JUMPDEST SWAP2 POP POP SWAP3 SWAP2 POP POP JUMP JUMPDEST PUSH0 DUP2 SWAP1 POP SWAP3 SWAP2 POP POP JUMP JUMPDEST PUSH0 PUSH2 0x55C5 DUP3 PUSH2 0x3EC7 JUMP JUMPDEST PUSH2 0x55CF DUP2 DUP6 PUSH2 0x55B1 JUMP JUMPDEST SWAP4 POP PUSH2 0x55DF DUP2 DUP6 PUSH1 0x20 DUP7 ADD PUSH2 0x3EE1 JUMP JUMPDEST DUP1 DUP5 ADD SWAP2 POP POP SWAP3 SWAP2 POP POP JUMP JUMPDEST PUSH0 PUSH2 0x55F6 DUP3 DUP6 PUSH2 0x55BB JUMP JUMPDEST SWAP2 POP PUSH2 0x5602 DUP3 DUP5 PUSH2 0x55BB JUMP JUMPDEST SWAP2 POP DUP2 SWAP1 POP SWAP4 SWAP3 POP POP POP JUMP JUMPDEST PUSH0 DUP2 SWAP1 POP DUP2 PUSH0 MSTORE PUSH1 0x20 PUSH0 KECCAK256 SWAP1 POP SWAP2 SWAP1 POP JUMP JUMPDEST PUSH0 PUSH1 0x20 PUSH1 0x1F DUP4 ADD DIV SWAP1 POP SWAP2 SWAP1 POP JUMP JUMPDEST PUSH0 DUP3 DUP3 SHL SWAP1 POP SWAP3 SWAP2 POP POP JUMP JUMPDEST PUSH0 PUSH1 0x8 DUP4 MUL PUSH2 0x566A PUSH32 0xFFFFFFFFFFFFFFFFFFFFFFFFFFFFFFFFFFFFFFFFFFFFFFFFFFFFFFFFFFFFFFFF DUP3 PUSH2 0x562F JUMP JUMPDEST PUSH2 0x5674 DUP7 DUP4 PUSH2 0x562F JUMP JUMPDEST SWAP6 POP DUP1 NOT DUP5 AND SWAP4 POP DUP1 DUP7 AND DUP5 OR SWAP3 POP POP POP SWAP4 SWAP3 POP POP POP JUMP JUMPDEST PUSH0 DUP2 SWAP1 POP SWAP2 SWAP1 POP JUMP JUMPDEST PUSH0 PUSH2 0x56AF PUSH2 0x56AA PUSH2 0x56A5 DUP5 PUSH2 0x3F57 JUMP JUMPDEST PUSH2 0x568C JUMP JUMPDEST PUSH2 0x3F57 JUMP JUMPDEST SWAP1 POP SWAP2 SWAP1 POP JUMP JUMPDEST PUSH0 DUP2 SWAP1 POP SWAP2 SWAP1 POP JUMP JUMPDEST PUSH2 0x56C8 DUP4 PUSH2 0x5695 JUMP JUMPDEST PUSH2 0x56DC PUSH2 0x56D4 DUP3 PUSH2 0x56B6 JUMP JUMPDEST DUP5 DUP5 SLOAD PUSH2 0x563B JUMP JUMPDEST DUP3 SSTORE POP POP POP POP JUMP JUMPDEST PUSH0 SWAP1 JUMP JUMPDEST PUSH2 0x56F0 PUSH2 0x56E4 JUMP JUMPDEST PUSH2 0x56FB DUP2 DUP5 DUP5 PUSH2 0x56BF JUMP JUMPDEST POP POP POP JUMP JUMPDEST JUMPDEST DUP2 DUP2 LT ISZERO PUSH2 0x571E JUMPI PUSH2 0x5713 PUSH0 DUP3 PUSH2 0x56E8 JUMP JUMPDEST PUSH1 0x1 DUP2 ADD SWAP1 POP PUSH2 0x5701 JUMP JUMPDEST POP POP JUMP JUMPDEST PUSH1 0x1F DUP3 GT ISZERO PUSH2 0x5763 JUMPI PUSH2 0x5734 DUP2 PUSH2 0x560E JUMP JUMPDEST PUSH2 0x573D DUP5 PUSH2 0x5620 JUMP JUMPDEST DUP2 ADD PUSH1 0x20 DUP6 LT ISZERO PUSH2 0x574C JUMPI DUP2 SWAP1 POP JUMPDEST PUSH2 0x5760 PUSH2 0x5758 DUP6 PUSH2 0x5620 JUMP JUMPDEST DUP4 ADD DUP3 PUSH2 0x5700 JUMP JUMPDEST POP POP JUMPDEST POP POP POP JUMP JUMPDEST PUSH0 DUP3 DUP3 SHR SWAP1 POP SWAP3 SWAP2 POP POP JUMP JUMPDEST PUSH0 PUSH2 0x5783 PUSH0 NOT DUP5 PUSH1 0x8 MUL PUSH2 0x5768 JUMP JUMPDEST NOT DUP1 DUP4 AND SWAP2 POP POP SWAP3 SWAP2 POP POP JUMP JUMPDEST PUSH0 PUSH2 0x579B DUP4 DUP4 PUSH2 0x5774 JUMP JUMPDEST SWAP2 POP DUP3 PUSH1 0x2 MUL DUP3 OR SWAP1 POP SWAP3 SWAP2 POP POP JUMP JUMPDEST PUSH2 0x57B4 DUP3 PUSH2 0x3EC7 JUMP JUMPDEST PUSH8 0xFFFFFFFFFFFFFFFF DUP2 GT ISZERO PUSH2 0x57CD JUMPI PUSH2 0x57CC PUSH2 0x4847 JUMP JUMPDEST JUMPDEST PUSH2 0x57D7 DUP3 SLOAD PUSH2 0x4AEC JUMP JUMPDEST PUSH2 0x57E2 DUP3 DUP3 DUP6 PUSH2 0x5722 JUMP JUMPDEST PUSH0 PUSH1 0x20 SWAP1 POP PUSH1 0x1F DUP4 GT PUSH1 0x1 DUP2 EQ PUSH2 0x5813 JUMPI PUSH0 DUP5 ISZERO PUSH2 0x5801 JUMPI DUP3 DUP8 ADD MLOAD SWAP1 POP JUMPDEST PUSH2 0x580B DUP6 DUP3 PUSH2 0x5790 JUMP JUMPDEST DUP7 SSTORE POP PUSH2 0x5872 JUMP JUMPDEST PUSH1 0x1F NOT DUP5 AND PUSH2 0x5821 DUP7 PUSH2 0x560E JUMP JUMPDEST PUSH0 JUMPDEST DUP3 DUP2 LT ISZERO PUSH2 0x5848 JUMPI DUP5 DUP10 ADD MLOAD DUP3 SSTORE PUSH1 0x1 DUP3 ADD SWAP2 POP PUSH1 0x20 DUP6 ADD SWAP5 POP PUSH1 0x20 DUP2 ADD SWAP1 POP PUSH2 0x5823 JUMP JUMPDEST DUP7 DUP4 LT ISZERO PUSH2 0x5865 JUMPI DUP5 DUP10 ADD MLOAD PUSH2 0x5861 PUSH1 0x1F DUP10 AND DUP3 PUSH2 0x5774 JUMP JUMPDEST DUP4 SSTORE POP JUMPDEST PUSH1 0x1 PUSH1 0x2 DUP9 MUL ADD DUP9 SSTORE POP POP POP JUMPDEST POP POP POP POP POP POP JUMP JUMPDEST PUSH0 PUSH1 0xA0 DUP3 ADD SWAP1 POP PUSH2 0x588D PUSH0 DUP4 ADD DUP9 PUSH2 0x42C3 JUMP JUMPDEST PUSH2 0x589A PUSH1 0x20 DUP4 ADD DUP8 PUSH2 0x42C3 JUMP JUMPDEST PUSH2 0x58A7 PUSH1 0x40 DUP4 ADD DUP7 PUSH2 0x42C3 JUMP JUMPDEST PUSH2 0x58B4 PUSH1 0x60 DUP4 ADD DUP6 PUSH2 0x4075 JUMP JUMPDEST PUSH2 0x58C1 PUSH1 0x80 DUP4 ADD DUP5 PUSH2 0x3FE5 JUMP JUMPDEST SWAP7 SWAP6 POP POP POP POP POP POP JUMP JUMPDEST PUSH32 0x4E487B7100000000000000000000000000000000000000000000000000000000 PUSH0 MSTORE PUSH1 0x31 PUSH1 0x4 MSTORE PUSH1 0x24 PUSH0 REVERT JUMPDEST PUSH0 PUSH1 0xFF DUP3 AND SWAP1 POP SWAP2 SWAP1 POP JUMP JUMPDEST PUSH2 0x590D DUP2 PUSH2 0x58F8 JUMP JUMPDEST DUP3 MSTORE POP POP JUMP JUMPDEST PUSH0 PUSH1 0x80 DUP3 ADD SWAP1 POP PUSH2 0x5926 PUSH0 DUP4 ADD DUP8 PUSH2 0x42C3 JUMP JUMPDEST PUSH2 0x5933 PUSH1 0x20 DUP4 ADD DUP7 PUSH2 0x5904 JUMP JUMPDEST PUSH2 0x5940 PUSH1 0x40 DUP4 ADD DUP6 PUSH2 0x42C3 JUMP JUMPDEST PUSH2 0x594D PUSH1 0x60 DUP4 ADD DUP5 PUSH2 0x42C3 JUMP JUMPDEST SWAP6 SWAP5 POP POP POP POP POP JUMP INVALID LOG2 PUSH5 0x6970667358 0x22 SLT KECCAK256 AND 0xC2 PUSH31 0x3C2652A2DF2AB7EFDFBBB3C0D2821EE24FD8DEBF25892C3EBB3FC6DD946473 PUSH16 0x6C634300081A00330000000000000000 "
    },
    "gasEstimates": {
      "creation": {
        "codeDepositCost": "4584800",
        "executionCost": "infinite",
        "totalCost": "infinite"
      },
      "external": {
        "addPhase(uint8,uint256,uint256,uint256,uint256,uint256,bytes32)": "infinite",
        "approve(address,uint256)": "infinite",
        "backendSigner()": "infinite",
        "balanceOf(address)": "infinite",
        "eip712Domain()": "infinite",
        "getActivePhase()": "infinite",
        "getApproved(uint256)": "infinite",
        "getDomainSeparator()": "infinite",
        "getMintedInPhase(address,uint8)": "3218",
        "getPhaseCount()": "2551",
        "isActivePhasePresent()": "infinite",
        "isApprovedForAll(address,address)": "infinite",
        "mint(uint256,string,bytes32,uint256,bytes,bytes32[])": "infinite",
        "name()": "infinite",
        "owner()": "2560",
        "ownerOf(uint256)": "infinite",
        "phases(uint256)": "infinite",
        "platformFeePercentage()": "2555",
        "platformFeeRecipient()": "2625",
        "renounceOwnership()": "infinite",
        "royaltyInfo(uint256,uint256)": "infinite",
        "safeTransferFrom(address,address,uint256)": "infinite",
        "safeTransferFrom(address,address,uint256,bytes)": "infinite",
        "setApprovalForAll(address,bool)": "infinite",
        "supportsInterface(bytes4)": "1122",
        "symbol()": "infinite",
        "tokenByIndex(uint256)": "infinite",
        "tokenOfOwnerByIndex(address,uint256)": "infinite",
        "tokenURI(uint256)": "infinite",
        "tokensOfOwner(address)": "infinite",
        "totalSupply()": "2508",
        "transferFrom(address,address,uint256)": "infinite",
        "transferOwnership(address)": "infinite"
      },
      "internal": {
        "_getActivePhase()": "infinite",
        "_increaseBalance(address,uint128)": "infinite",
        "_mintToken(address,uint256,string calldata)": "infinite",
        "_processFees(uint256)": "infinite",
        "_update(address,uint256,address)": "infinite",
        "_updatePhaseStats(struct LaunchNFTV2.Phase storage pointer,address)": "infinite"
      }
    },
    "methodIdentifiers": {
      "addPhase(uint8,uint256,uint256,uint256,uint256,uint256,bytes32)": "57036078",
      "approve(address,uint256)": "095ea7b3",
      "backendSigner()": "65d65e86",
      "balanceOf(address)": "70a08231",
      "eip712Domain()": "84b0196e",
      "getActivePhase()": "1ce97fd1",
      "getApproved(uint256)": "081812fc",
      "getDomainSeparator()": "ed24911d",
      "getMintedInPhase(address,uint8)": "f7330c2d",
      "getPhaseCount()": "db5e0063",
      "isActivePhasePresent()": "072a1319",
      "isApprovedForAll(address,address)": "e985e9c5",
      "mint(uint256,string,bytes32,uint256,bytes,bytes32[])": "8ff75e82",
      "name()": "06fdde03",
      "owner()": "8da5cb5b",
      "ownerOf(uint256)": "6352211e",
      "phases(uint256)": "2e37eef6",
      "platformFeePercentage()": "cdd78cfc",
      "platformFeeRecipient()": "eb13554f",
      "renounceOwnership()": "715018a6",
      "royaltyInfo(uint256,uint256)": "2a55205a",
      "safeTransferFrom(address,address,uint256)": "42842e0e",
      "safeTransferFrom(address,address,uint256,bytes)": "b88d4fde",
      "setApprovalForAll(address,bool)": "a22cb465",
      "supportsInterface(bytes4)": "01ffc9a7",
      "symbol()": "95d89b41",
      "tokenByIndex(uint256)": "4f6ccce7",
      "tokenOfOwnerByIndex(address,uint256)": "2f745c59",
      "tokenURI(uint256)": "c87b56dd",
      "tokensOfOwner(address)": "8462151c",
      "totalSupply()": "18160ddd",
      "transferFrom(address,address,uint256)": "23b872dd",
      "transferOwnership(address)": "f2fde38b"
    }
  },
  "abi": [
    {
      "inputs": [
        {
          "internalType": "address",
          "name": "initialOwner",
          "type": "address"
        },
        {
          "internalType": "string",
          "name": "name",
          "type": "string"
        },
        {
          "internalType": "string",
          "name": "symbol",
          "type": "string"
        },
        {
          "internalType": "uint96",
          "name": "_royaltyFee",
          "type": "uint96"
        },
        {
          "internalType": "uint96",
          "name": "_platformFee",
          "type": "uint96"
        },
        {
          "internalType": "address",
          "name": "_platformFeeRecipient",
          "type": "address"
        },
        {
          "internalType": "address",
          "name": "_backendSigner",
          "type": "address"
        }
      ],
      "stateMutability": "nonpayable",
      "type": "constructor"
    },
    {
      "inputs": [],
      "name": "ECDSAInvalidSignature",
      "type": "error"
    },
    {
      "inputs": [
        {
          "internalType": "uint256",
          "name": "length",
          "type": "uint256"
        }
      ],
      "name": "ECDSAInvalidSignatureLength",
      "type": "error"
    },
    {
      "inputs": [
        {
          "internalType": "bytes32",
          "name": "s",
          "type": "bytes32"
        }
      ],
      "name": "ECDSAInvalidSignatureS",
      "type": "error"
    },
    {
      "inputs": [
        {
          "internalType": "uint256",
          "name": "numerator",
          "type": "uint256"
        },
        {
          "internalType": "uint256",
          "name": "denominator",
          "type": "uint256"
        }
      ],
      "name": "ERC2981InvalidDefaultRoyalty",
      "type": "error"
    },
    {
      "inputs": [
        {
          "internalType": "address",
          "name": "receiver",
          "type": "address"
        }
      ],
      "name": "ERC2981InvalidDefaultRoyaltyReceiver",
      "type": "error"
    },
    {
      "inputs": [
        {
          "internalType": "uint256",
          "name": "tokenId",
          "type": "uint256"
        },
        {
          "internalType": "uint256",
          "name": "numerator",
          "type": "uint256"
        },
        {
          "internalType": "uint256",
          "name": "denominator",
          "type": "uint256"
        }
      ],
      "name": "ERC2981InvalidTokenRoyalty",
      "type": "error"
    },
    {
      "inputs": [
        {
          "internalType": "uint256",
          "name": "tokenId",
          "type": "uint256"
        },
        {
          "internalType": "address",
          "name": "receiver",
          "type": "address"
        }
      ],
      "name": "ERC2981InvalidTokenRoyaltyReceiver",
      "type": "error"
    },
    {
      "inputs": [],
      "name": "ERC721EnumerableForbiddenBatchMint",
      "type": "error"
    },
    {
      "inputs": [
        {
          "internalType": "address",
          "name": "sender",
          "type": "address"
        },
        {
          "internalType": "uint256",
          "name": "tokenId",
          "type": "uint256"
        },
        {
          "internalType": "address",
          "name": "owner",
          "type": "address"
        }
      ],
      "name": "ERC721IncorrectOwner",
      "type": "error"
    },
    {
      "inputs": [
        {
          "internalType": "address",
          "name": "operator",
          "type": "address"
        },
        {
          "internalType": "uint256",
          "name": "tokenId",
          "type": "uint256"
        }
      ],
      "name": "ERC721InsufficientApproval",
      "type": "error"
    },
    {
      "inputs": [
        {
          "internalType": "address",
          "name": "approver",
          "type": "address"
        }
      ],
      "name": "ERC721InvalidApprover",
      "type": "error"
    },
    {
      "inputs": [
        {
          "internalType": "address",
          "name": "operator",
          "type": "address"
        }
      ],
      "name": "ERC721InvalidOperator",
      "type": "error"
    },
    {
      "inputs": [
        {
          "internalType": "address",
          "name": "owner",
          "type": "address"
        }
      ],
      "name": "ERC721InvalidOwner",
      "type": "error"
    },
    {
      "inputs": [
        {
          "internalType": "address",
          "name": "receiver",
          "type": "address"
        }
      ],
      "name": "ERC721InvalidReceiver",
      "type": "error"
    },
    {
      "inputs": [
        {
          "internalType": "address",
          "name": "sender",
          "type": "address"
        }
      ],
      "name": "ERC721InvalidSender",
      "type": "error"
    },
    {
      "inputs": [
        {
          "internalType": "uint256",
          "name": "tokenId",
          "type": "uint256"
        }
      ],
      "name": "ERC721NonexistentToken",
      "type": "error"
    },
    {
      "inputs": [
        {
          "internalType": "address",
          "name": "owner",
          "type": "address"
        },
        {
          "internalType": "uint256",
          "name": "index",
          "type": "uint256"
        }
      ],
      "name": "ERC721OutOfBoundsIndex",
      "type": "error"
    },
    {
      "inputs": [],
      "name": "InvalidShortString",
      "type": "error"
    },
    {
      "inputs": [
        {
          "internalType": "address",
          "name": "owner",
          "type": "address"
        }
      ],
      "name": "OwnableInvalidOwner",
      "type": "error"
    },
    {
      "inputs": [
        {
          "internalType": "address",
          "name": "account",
          "type": "address"
        }
      ],
      "name": "OwnableUnauthorizedAccount",
      "type": "error"
    },
    {
      "inputs": [
        {
          "internalType": "string",
          "name": "str",
          "type": "string"
        }
      ],
      "name": "StringTooLong",
      "type": "error"
    },
    {
      "anonymous": false,
      "inputs": [
        {
          "indexed": true,
          "internalType": "address",
          "name": "owner",
          "type": "address"
        },
        {
          "indexed": true,
          "internalType": "address",
          "name": "approved",
          "type": "address"
        },
        {
          "indexed": true,
          "internalType": "uint256",
          "name": "tokenId",
          "type": "uint256"
        }
      ],
      "name": "Approval",
      "type": "event"
    },
    {
      "anonymous": false,
      "inputs": [
        {
          "indexed": true,
          "internalType": "address",
          "name": "owner",
          "type": "address"
        },
        {
          "indexed": true,
          "internalType": "address",
          "name": "operator",
          "type": "address"
        },
        {
          "indexed": false,
          "internalType": "bool",
          "name": "approved",
          "type": "bool"
        }
      ],
      "name": "ApprovalForAll",
      "type": "event"
    },
    {
      "anonymous": false,
      "inputs": [
        {
          "indexed": false,
          "internalType": "uint256",
          "name": "_fromTokenId",
          "type": "uint256"
        },
        {
          "indexed": false,
          "internalType": "uint256",
          "name": "_toTokenId",
          "type": "uint256"
        }
      ],
      "name": "BatchMetadataUpdate",
      "type": "event"
    },
    {
      "anonymous": false,
      "inputs": [],
      "name": "EIP712DomainChanged",
      "type": "event"
    },
    {
      "anonymous": false,
      "inputs": [
        {
          "indexed": false,
          "internalType": "uint256",
          "name": "_tokenId",
          "type": "uint256"
        }
      ],
      "name": "MetadataUpdate",
      "type": "event"
    },
    {
      "anonymous": false,
      "inputs": [
        {
          "indexed": true,
          "internalType": "address",
          "name": "previousOwner",
          "type": "address"
        },
        {
          "indexed": true,
          "internalType": "address",
          "name": "newOwner",
          "type": "address"
        }
      ],
      "name": "OwnershipTransferred",
      "type": "event"
    },
    {
      "anonymous": false,
      "inputs": [
        {
          "indexed": true,
          "internalType": "uint256",
          "name": "phaseIndex",
          "type": "uint256"
        },
        {
          "indexed": false,
          "internalType": "enum LaunchNFTV2.PhaseType",
          "name": "phaseType",
          "type": "uint8"
        },
        {
          "indexed": false,
          "internalType": "uint256",
          "name": "price",
          "type": "uint256"
        }
      ],
      "name": "PhaseAdded",
      "type": "event"
    },
    {
      "anonymous": false,
      "inputs": [
        {
          "indexed": true,
          "internalType": "uint256",
          "name": "phaseIndex",
          "type": "uint256"
        },
        {
          "indexed": false,
          "internalType": "enum LaunchNFTV2.PhaseType",
          "name": "phaseType",
          "type": "uint8"
        },
        {
          "indexed": false,
          "internalType": "uint256",
          "name": "price",
          "type": "uint256"
        }
      ],
      "name": "PhaseUpdated",
      "type": "event"
    },
    {
      "anonymous": false,
      "inputs": [
        {
          "indexed": false,
          "internalType": "uint96",
          "name": "newPercentage",
          "type": "uint96"
        },
        {
          "indexed": false,
          "internalType": "address",
          "name": "newRecipient",
          "type": "address"
        }
      ],
      "name": "PlatformFeeUpdated",
      "type": "event"
    },
    {
      "anonymous": false,
      "inputs": [
        {
          "indexed": true,
          "internalType": "uint256",
          "name": "tokenId",
          "type": "uint256"
        },
        {
          "indexed": true,
          "internalType": "address",
          "name": "recipient",
          "type": "address"
        },
        {
          "indexed": false,
          "internalType": "enum LaunchNFTV2.PhaseType",
          "name": "phaseType",
          "type": "uint8"
        }
      ],
      "name": "TokenMinted",
      "type": "event"
    },
    {
      "anonymous": false,
      "inputs": [
        {
          "indexed": true,
          "internalType": "address",
          "name": "from",
          "type": "address"
        },
        {
          "indexed": true,
          "internalType": "address",
          "name": "to",
          "type": "address"
        },
        {
          "indexed": true,
          "internalType": "uint256",
          "name": "tokenId",
          "type": "uint256"
        }
      ],
      "name": "Transfer",
      "type": "event"
    },
    {
      "anonymous": false,
      "inputs": [
        {
          "indexed": true,
          "internalType": "address",
          "name": "recipient",
          "type": "address"
        },
        {
          "indexed": false,
          "internalType": "uint256",
          "name": "amount",
          "type": "uint256"
        }
      ],
      "name": "WithdrawCompleted",
      "type": "event"
    },
    {
      "inputs": [
        {
          "internalType": "enum LaunchNFTV2.PhaseType",
          "name": "_phaseType",
          "type": "uint8"
        },
        {
          "internalType": "uint256",
          "name": "_price",
          "type": "uint256"
        },
        {
          "internalType": "uint256",
          "name": "_startTime",
          "type": "uint256"
        },
        {
          "internalType": "uint256",
          "name": "_endTime",
          "type": "uint256"
        },
        {
          "internalType": "uint256",
          "name": "_maxSupply",
          "type": "uint256"
        },
        {
          "internalType": "uint256",
          "name": "_maxPerWallet",
          "type": "uint256"
        },
        {
          "internalType": "bytes32",
          "name": "_merkleRoot",
          "type": "bytes32"
        }
      ],
      "name": "addPhase",
      "outputs": [],
      "stateMutability": "nonpayable",
      "type": "function"
    },
    {
      "inputs": [
        {
          "internalType": "address",
          "name": "to",
          "type": "address"
        },
        {
          "internalType": "uint256",
          "name": "tokenId",
          "type": "uint256"
        }
      ],
      "name": "approve",
      "outputs": [],
      "stateMutability": "nonpayable",
      "type": "function"
    },
    {
      "inputs": [],
      "name": "backendSigner",
      "outputs": [
        {
          "internalType": "address",
          "name": "",
          "type": "address"
        }
      ],
      "stateMutability": "view",
      "type": "function"
    },
    {
      "inputs": [
        {
          "internalType": "address",
          "name": "owner",
          "type": "address"
        }
      ],
      "name": "balanceOf",
      "outputs": [
        {
          "internalType": "uint256",
          "name": "",
          "type": "uint256"
        }
      ],
      "stateMutability": "view",
      "type": "function"
    },
    {
      "inputs": [],
      "name": "eip712Domain",
      "outputs": [
        {
          "internalType": "bytes1",
          "name": "fields",
          "type": "bytes1"
        },
        {
          "internalType": "string",
          "name": "name",
          "type": "string"
        },
        {
          "internalType": "string",
          "name": "version",
          "type": "string"
        },
        {
          "internalType": "uint256",
          "name": "chainId",
          "type": "uint256"
        },
        {
          "internalType": "address",
          "name": "verifyingContract",
          "type": "address"
        },
        {
          "internalType": "bytes32",
          "name": "salt",
          "type": "bytes32"
        },
        {
          "internalType": "uint256[]",
          "name": "extensions",
          "type": "uint256[]"
        }
      ],
      "stateMutability": "view",
      "type": "function"
    },
    {
      "inputs": [],
      "name": "getActivePhase",
      "outputs": [
        {
          "internalType": "uint256",
          "name": "phaseIndex",
          "type": "uint256"
        },
        {
          "components": [
            {
              "internalType": "enum LaunchNFTV2.PhaseType",
              "name": "phaseType",
              "type": "uint8"
            },
            {
              "internalType": "uint256",
              "name": "price",
              "type": "uint256"
            },
            {
              "internalType": "uint256",
              "name": "startTime",
              "type": "uint256"
            },
            {
              "internalType": "uint256",
              "name": "endTime",
              "type": "uint256"
            },
            {
              "internalType": "uint256",
              "name": "maxSupply",
              "type": "uint256"
            },
            {
              "internalType": "uint256",
              "name": "maxPerWallet",
              "type": "uint256"
            },
            {
              "internalType": "uint256",
              "name": "mintedInPhase",
              "type": "uint256"
            },
            {
              "internalType": "bytes32",
              "name": "merkleRoot",
              "type": "bytes32"
            }
          ],
          "internalType": "struct LaunchNFTV2.Phase",
          "name": "phase",
          "type": "tuple"
        }
      ],
      "stateMutability": "view",
      "type": "function"
    },
    {
      "inputs": [
        {
          "internalType": "uint256",
          "name": "tokenId",
          "type": "uint256"
        }
      ],
      "name": "getApproved",
      "outputs": [
        {
          "internalType": "address",
          "name": "",
          "type": "address"
        }
      ],
      "stateMutability": "view",
      "type": "function"
    },
    {
      "inputs": [],
      "name": "getDomainSeparator",
      "outputs": [
        {
          "internalType": "bytes32",
          "name": "",
          "type": "bytes32"
        }
      ],
      "stateMutability": "view",
      "type": "function"
    },
    {
      "inputs": [
        {
          "internalType": "address",
          "name": "user",
          "type": "address"
        },
        {
          "internalType": "enum LaunchNFTV2.PhaseType",
          "name": "phaseType",
          "type": "uint8"
        }
      ],
      "name": "getMintedInPhase",
      "outputs": [
        {
          "internalType": "uint256",
          "name": "",
          "type": "uint256"
        }
      ],
      "stateMutability": "view",
      "type": "function"
    },
    {
      "inputs": [],
      "name": "getPhaseCount",
      "outputs": [
        {
          "internalType": "uint256",
          "name": "",
          "type": "uint256"
        }
      ],
      "stateMutability": "view",
      "type": "function"
    },
    {
      "inputs": [],
      "name": "isActivePhasePresent",
      "outputs": [
        {
          "internalType": "bool",
          "name": "",
          "type": "bool"
        }
      ],
      "stateMutability": "view",
      "type": "function"
    },
    {
      "inputs": [
        {
          "internalType": "address",
          "name": "owner",
          "type": "address"
        },
        {
          "internalType": "address",
          "name": "operator",
          "type": "address"
        }
      ],
      "name": "isApprovedForAll",
      "outputs": [
        {
          "internalType": "bool",
          "name": "",
          "type": "bool"
        }
      ],
      "stateMutability": "view",
      "type": "function"
    },
    {
      "inputs": [
        {
          "internalType": "uint256",
          "name": "tokenId",
          "type": "uint256"
        },
        {
          "internalType": "string",
          "name": "uri",
          "type": "string"
        },
        {
          "internalType": "bytes32",
          "name": "uniqueId",
          "type": "bytes32"
        },
        {
          "internalType": "uint256",
          "name": "timestamp",
          "type": "uint256"
        },
        {
          "internalType": "bytes",
          "name": "signature",
          "type": "bytes"
        },
        {
          "internalType": "bytes32[]",
          "name": "merkleProof",
          "type": "bytes32[]"
        }
      ],
      "name": "mint",
      "outputs": [],
      "stateMutability": "payable",
      "type": "function"
    },
    {
      "inputs": [],
      "name": "name",
      "outputs": [
        {
          "internalType": "string",
          "name": "",
          "type": "string"
        }
      ],
      "stateMutability": "view",
      "type": "function"
    },
    {
      "inputs": [],
      "name": "owner",
      "outputs": [
        {
          "internalType": "address",
          "name": "",
          "type": "address"
        }
      ],
      "stateMutability": "view",
      "type": "function"
    },
    {
      "inputs": [
        {
          "internalType": "uint256",
          "name": "tokenId",
          "type": "uint256"
        }
      ],
      "name": "ownerOf",
      "outputs": [
        {
          "internalType": "address",
          "name": "",
          "type": "address"
        }
      ],
      "stateMutability": "view",
      "type": "function"
    },
    {
      "inputs": [
        {
          "internalType": "uint256",
          "name": "",
          "type": "uint256"
        }
      ],
      "name": "phases",
      "outputs": [
        {
          "internalType": "enum LaunchNFTV2.PhaseType",
          "name": "phaseType",
          "type": "uint8"
        },
        {
          "internalType": "uint256",
          "name": "price",
          "type": "uint256"
        },
        {
          "internalType": "uint256",
          "name": "startTime",
          "type": "uint256"
        },
        {
          "internalType": "uint256",
          "name": "endTime",
          "type": "uint256"
        },
        {
          "internalType": "uint256",
          "name": "maxSupply",
          "type": "uint256"
        },
        {
          "internalType": "uint256",
          "name": "maxPerWallet",
          "type": "uint256"
        },
        {
          "internalType": "uint256",
          "name": "mintedInPhase",
          "type": "uint256"
        },
        {
          "internalType": "bytes32",
          "name": "merkleRoot",
          "type": "bytes32"
        }
      ],
      "stateMutability": "view",
      "type": "function"
    },
    {
      "inputs": [],
      "name": "platformFeePercentage",
      "outputs": [
        {
          "internalType": "uint96",
          "name": "",
          "type": "uint96"
        }
      ],
      "stateMutability": "view",
      "type": "function"
    },
    {
      "inputs": [],
      "name": "platformFeeRecipient",
      "outputs": [
        {
          "internalType": "address",
          "name": "",
          "type": "address"
        }
      ],
      "stateMutability": "view",
      "type": "function"
    },
    {
      "inputs": [],
      "name": "renounceOwnership",
      "outputs": [],
      "stateMutability": "nonpayable",
      "type": "function"
    },
    {
      "inputs": [
        {
          "internalType": "uint256",
          "name": "tokenId",
          "type": "uint256"
        },
        {
          "internalType": "uint256",
          "name": "salePrice",
          "type": "uint256"
        }
      ],
      "name": "royaltyInfo",
      "outputs": [
        {
          "internalType": "address",
          "name": "receiver",
          "type": "address"
        },
        {
          "internalType": "uint256",
          "name": "amount",
          "type": "uint256"
        }
      ],
      "stateMutability": "view",
      "type": "function"
    },
    {
      "inputs": [
        {
          "internalType": "address",
          "name": "from",
          "type": "address"
        },
        {
          "internalType": "address",
          "name": "to",
          "type": "address"
        },
        {
          "internalType": "uint256",
          "name": "tokenId",
          "type": "uint256"
        }
      ],
      "name": "safeTransferFrom",
      "outputs": [],
      "stateMutability": "nonpayable",
      "type": "function"
    },
    {
      "inputs": [
        {
          "internalType": "address",
          "name": "from",
          "type": "address"
        },
        {
          "internalType": "address",
          "name": "to",
          "type": "address"
        },
        {
          "internalType": "uint256",
          "name": "tokenId",
          "type": "uint256"
        },
        {
          "internalType": "bytes",
          "name": "data",
          "type": "bytes"
        }
      ],
      "name": "safeTransferFrom",
      "outputs": [],
      "stateMutability": "nonpayable",
      "type": "function"
    },
    {
      "inputs": [
        {
          "internalType": "address",
          "name": "operator",
          "type": "address"
        },
        {
          "internalType": "bool",
          "name": "approved",
          "type": "bool"
        }
      ],
      "name": "setApprovalForAll",
      "outputs": [],
      "stateMutability": "nonpayable",
      "type": "function"
    },
    {
      "inputs": [
        {
          "internalType": "bytes4",
          "name": "interfaceId",
          "type": "bytes4"
        }
      ],
      "name": "supportsInterface",
      "outputs": [
        {
          "internalType": "bool",
          "name": "",
          "type": "bool"
        }
      ],
      "stateMutability": "view",
      "type": "function"
    },
    {
      "inputs": [],
      "name": "symbol",
      "outputs": [
        {
          "internalType": "string",
          "name": "",
          "type": "string"
        }
      ],
      "stateMutability": "view",
      "type": "function"
    },
    {
      "inputs": [
        {
          "internalType": "uint256",
          "name": "index",
          "type": "uint256"
        }
      ],
      "name": "tokenByIndex",
      "outputs": [
        {
          "internalType": "uint256",
          "name": "",
          "type": "uint256"
        }
      ],
      "stateMutability": "view",
      "type": "function"
    },
    {
      "inputs": [
        {
          "internalType": "address",
          "name": "owner",
          "type": "address"
        },
        {
          "internalType": "uint256",
          "name": "index",
          "type": "uint256"
        }
      ],
      "name": "tokenOfOwnerByIndex",
      "outputs": [
        {
          "internalType": "uint256",
          "name": "",
          "type": "uint256"
        }
      ],
      "stateMutability": "view",
      "type": "function"
    },
    {
      "inputs": [
        {
          "internalType": "uint256",
          "name": "tokenId",
          "type": "uint256"
        }
      ],
      "name": "tokenURI",
      "outputs": [
        {
          "internalType": "string",
          "name": "",
          "type": "string"
        }
      ],
      "stateMutability": "view",
      "type": "function"
    },
    {
      "inputs": [
        {
          "internalType": "address",
          "name": "owner",
          "type": "address"
        }
      ],
      "name": "tokensOfOwner",
      "outputs": [
        {
          "internalType": "uint256[]",
          "name": "",
          "type": "uint256[]"
        }
      ],
      "stateMutability": "view",
      "type": "function"
    },
    {
      "inputs": [],
      "name": "totalSupply",
      "outputs": [
        {
          "internalType": "uint256",
          "name": "",
          "type": "uint256"
        }
      ],
      "stateMutability": "view",
      "type": "function"
    },
    {
      "inputs": [
        {
          "internalType": "address",
          "name": "from",
          "type": "address"
        },
        {
          "internalType": "address",
          "name": "to",
          "type": "address"
        },
        {
          "internalType": "uint256",
          "name": "tokenId",
          "type": "uint256"
        }
      ],
      "name": "transferFrom",
      "outputs": [],
      "stateMutability": "nonpayable",
      "type": "function"
    },
    {
      "inputs": [
        {
          "internalType": "address",
          "name": "newOwner",
          "type": "address"
        }
      ],
      "name": "transferOwnership",
      "outputs": [],
      "stateMutability": "nonpayable",
      "type": "function"
    }
  ]
}