{
  "_format": "hh-sol-artifact-1",
  "contractName": "MPMNFT",
  "sourceName": "contracts/MPMNFT.sol",
  "abi": [
    {
      "inputs": [
        {
          "internalType": "address",
          "name": "initialOwner",
          "type": "address"
        },
        {
          "internalType": "string",
          "name": "contractName",
          "type": "string"
        },
        {
          "internalType": "string",
          "name": "symbol",
          "type": "string"
        }
      ],
      "stateMutability": "nonpayable",
      "type": "constructor"
    },
    {
      "inputs": [
        {
          "internalType": "address",
          "name": "sender",
          "type": "address"
        },
        {
          "internalType": "uint256",
          "name": "tokenId",
          "type": "uint256"
        },
        {
          "internalType": "address",
          "name": "owner",
          "type": "address"
        }
      ],
      "name": "ERC721IncorrectOwner",
      "type": "error"
    },
    {
      "inputs": [
        {
          "internalType": "address",
          "name": "operator",
          "type": "address"
        },
        {
          "internalType": "uint256",
          "name": "tokenId",
          "type": "uint256"
        }
      ],
      "name": "ERC721InsufficientApproval",
      "type": "error"
    },
    {
      "inputs": [
        {
          "internalType": "address",
          "name": "approver",
          "type": "address"
        }
      ],
      "name": "ERC721InvalidApprover",
      "type": "error"
    },
    {
      "inputs": [
        {
          "internalType": "address",
          "name": "operator",
          "type": "address"
        }
      ],
      "name": "ERC721InvalidOperator",
      "type": "error"
    },
    {
      "inputs": [
        {
          "internalType": "address",
          "name": "owner",
          "type": "address"
        }
      ],
      "name": "ERC721InvalidOwner",
      "type": "error"
    },
    {
      "inputs": [
        {
          "internalType": "address",
          "name": "receiver",
          "type": "address"
        }
      ],
      "name": "ERC721InvalidReceiver",
      "type": "error"
    },
    {
      "inputs": [
        {
          "internalType": "address",
          "name": "sender",
          "type": "address"
        }
      ],
      "name": "ERC721InvalidSender",
      "type": "error"
    },
    {
      "inputs": [
        {
          "internalType": "uint256",
          "name": "tokenId",
          "type": "uint256"
        }
      ],
      "name": "ERC721NonexistentToken",
      "type": "error"
    },
    {
      "inputs": [
        {
          "internalType": "address",
          "name": "owner",
          "type": "address"
        }
      ],
      "name": "OwnableInvalidOwner",
      "type": "error"
    },
    {
      "inputs": [
        {
          "internalType": "address",
          "name": "account",
          "type": "address"
        }
      ],
      "name": "OwnableUnauthorizedAccount",
      "type": "error"
    },
    {
      "anonymous": false,
      "inputs": [
        {
          "indexed": true,
          "internalType": "address",
          "name": "owner",
          "type": "address"
        },
        {
          "indexed": true,
          "internalType": "address",
          "name": "approved",
          "type": "address"
        },
        {
          "indexed": true,
          "internalType": "uint256",
          "name": "tokenId",
          "type": "uint256"
        }
      ],
      "name": "Approval",
      "type": "event"
    },
    {
      "anonymous": false,
      "inputs": [
        {
          "indexed": true,
          "internalType": "address",
          "name": "owner",
          "type": "address"
        },
        {
          "indexed": true,
          "internalType": "address",
          "name": "operator",
          "type": "address"
        },
        {
          "indexed": false,
          "internalType": "bool",
          "name": "approved",
          "type": "bool"
        }
      ],
      "name": "ApprovalForAll",
      "type": "event"
    },
    {
      "anonymous": false,
      "inputs": [
        {
          "indexed": false,
          "internalType": "uint256",
          "name": "_fromTokenId",
          "type": "uint256"
        },
        {
          "indexed": false,
          "internalType": "uint256",
          "name": "_toTokenId",
          "type": "uint256"
        }
      ],
      "name": "BatchMetadataUpdate",
      "type": "event"
    },
    {
      "anonymous": false,
      "inputs": [
        {
          "indexed": false,
          "internalType": "uint256",
          "name": "_tokenId",
          "type": "uint256"
        }
      ],
      "name": "MetadataUpdate",
      "type": "event"
    },
    {
      "anonymous": false,
      "inputs": [
        {
          "indexed": true,
          "internalType": "address",
          "name": "previousOwner",
          "type": "address"
        },
        {
          "indexed": true,
          "internalType": "address",
          "name": "newOwner",
          "type": "address"
        }
      ],
      "name": "OwnershipTransferred",
      "type": "event"
    },
    {
      "anonymous": false,
      "inputs": [
        {
          "indexed": true,
          "internalType": "address",
          "name": "from",
          "type": "address"
        },
        {
          "indexed": true,
          "internalType": "address",
          "name": "to",
          "type": "address"
        },
        {
          "indexed": true,
          "internalType": "uint256",
          "name": "tokenId",
          "type": "uint256"
        }
      ],
      "name": "Transfer",
      "type": "event"
    },
    {
      "inputs": [
        {
          "internalType": "address",
          "name": "to",
          "type": "address"
        },
        {
          "internalType": "uint256",
          "name": "tokenId",
          "type": "uint256"
        }
      ],
      "name": "approve",
      "outputs": [],
      "stateMutability": "nonpayable",
      "type": "function"
    },
    {
      "inputs": [
        {
          "internalType": "address",
          "name": "owner",
          "type": "address"
        }
      ],
      "name": "balanceOf",
      "outputs": [
        {
          "internalType": "uint256",
          "name": "",
          "type": "uint256"
        }
      ],
      "stateMutability": "view",
      "type": "function"
    },
    {
      "inputs": [
        {
          "internalType": "address",
          "name": "to",
          "type": "address"
        },
        {
          "internalType": "uint256",
          "name": "quantity",
          "type": "uint256"
        },
        {
          "internalType": "string[]",
          "name": "tokenURIs",
          "type": "string[]"
        }
      ],
      "name": "batchMint",
      "outputs": [],
      "stateMutability": "nonpayable",
      "type": "function"
    },
    {
      "inputs": [
        {
          "internalType": "uint256",
          "name": "tokenId",
          "type": "uint256"
        }
      ],
      "name": "getApproved",
      "outputs": [
        {
          "internalType": "address",
          "name": "",
          "type": "address"
        }
      ],
      "stateMutability": "view",
      "type": "function"
    },
    {
      "inputs": [
        {
          "internalType": "address",
          "name": "owner",
          "type": "address"
        },
        {
          "internalType": "address",
          "name": "operator",
          "type": "address"
        }
      ],
      "name": "isApprovedForAll",
      "outputs": [
        {
          "internalType": "bool",
          "name": "",
          "type": "bool"
        }
      ],
      "stateMutability": "view",
      "type": "function"
    },
    {
      "inputs": [],
      "name": "name",
      "outputs": [
        {
          "internalType": "string",
          "name": "",
          "type": "string"
        }
      ],
      "stateMutability": "view",
      "type": "function"
    },
    {
      "inputs": [],
      "name": "owner",
      "outputs": [
        {
          "internalType": "address",
          "name": "",
          "type": "address"
        }
      ],
      "stateMutability": "view",
      "type": "function"
    },
    {
      "inputs": [
        {
          "internalType": "uint256",
          "name": "tokenId",
          "type": "uint256"
        }
      ],
      "name": "ownerOf",
      "outputs": [
        {
          "internalType": "address",
          "name": "",
          "type": "address"
        }
      ],
      "stateMutability": "view",
      "type": "function"
    },
    {
      "inputs": [],
      "name": "renounceOwnership",
      "outputs": [],
      "stateMutability": "nonpayable",
      "type": "function"
    },
    {
      "inputs": [
        {
          "internalType": "address",
          "name": "to",
          "type": "address"
        },
        {
          "internalType": "string",
          "name": "uri",
          "type": "string"
        }
      ],
      "name": "safeMint",
      "outputs": [],
      "stateMutability": "nonpayable",
      "type": "function"
    },
    {
      "inputs": [
        {
          "internalType": "address",
          "name": "from",
          "type": "address"
        },
        {
          "internalType": "address",
          "name": "to",
          "type": "address"
        },
        {
          "internalType": "uint256",
          "name": "tokenId",
          "type": "uint256"
        }
      ],
      "name": "safeTransferFrom",
      "outputs": [],
      "stateMutability": "nonpayable",
      "type": "function"
    },
    {
      "inputs": [
        {
          "internalType": "address",
          "name": "from",
          "type": "address"
        },
        {
          "internalType": "address",
          "name": "to",
          "type": "address"
        },
        {
          "internalType": "uint256",
          "name": "tokenId",
          "type": "uint256"
        },
        {
          "internalType": "bytes",
          "name": "data",
          "type": "bytes"
        }
      ],
      "name": "safeTransferFrom",
      "outputs": [],
      "stateMutability": "nonpayable",
      "type": "function"
    },
    {
      "inputs": [
        {
          "internalType": "address",
          "name": "operator",
          "type": "address"
        },
        {
          "internalType": "bool",
          "name": "approved",
          "type": "bool"
        }
      ],
      "name": "setApprovalForAll",
      "outputs": [],
      "stateMutability": "nonpayable",
      "type": "function"
    },
    {
      "inputs": [
        {
          "internalType": "bytes4",
          "name": "interfaceId",
          "type": "bytes4"
        }
      ],
      "name": "supportsInterface",
      "outputs": [
        {
          "internalType": "bool",
          "name": "",
          "type": "bool"
        }
      ],
      "stateMutability": "view",
      "type": "function"
    },
    {
      "inputs": [],
      "name": "symbol",
      "outputs": [
        {
          "internalType": "string",
          "name": "",
          "type": "string"
        }
      ],
      "stateMutability": "view",
      "type": "function"
    },
    {
      "inputs": [
        {
          "internalType": "uint256",
          "name": "tokenId",
          "type": "uint256"
        }
      ],
      "name": "tokenURI",
      "outputs": [
        {
          "internalType": "string",
          "name": "",
          "type": "string"
        }
      ],
      "stateMutability": "view",
      "type": "function"
    },
    {
      "inputs": [
        {
          "internalType": "address",
          "name": "from",
          "type": "address"
        },
        {
          "internalType": "address",
          "name": "to",
          "type": "address"
        },
        {
          "internalType": "uint256",
          "name": "tokenId",
          "type": "uint256"
        }
      ],
      "name": "transferFrom",
      "outputs": [],
      "stateMutability": "nonpayable",
      "type": "function"
    },
    {
      "inputs": [
        {
          "internalType": "address",
          "name": "newOwner",
          "type": "address"
        }
      ],
      "name": "transferOwnership",
      "outputs": [],
      "stateMutability": "nonpayable",
      "type": "function"
    }
  ],
  "bytecode": "0x608060405234801561001057600080fd5b506040516130ec3803806130ec8339818101604052810190610032919061037a565b82828281600090816100449190610626565b5080600190816100549190610626565b505050600073ffffffffffffffffffffffffffffffffffffffff168173ffffffffffffffffffffffffffffffffffffffff16036100c95760006040517f1e4fbdf70000000000000000000000000000000000000000000000000000000081526004016100c09190610707565b60405180910390fd5b6100d8816100e160201b60201c565b50505050610722565b6000600760009054906101000a900473ffffffffffffffffffffffffffffffffffffffff16905081600760006101000a81548173ffffffffffffffffffffffffffffffffffffffff021916908373ffffffffffffffffffffffffffffffffffffffff1602179055508173ffffffffffffffffffffffffffffffffffffffff168173ffffffffffffffffffffffffffffffffffffffff167f8be0079c531659141344cd1fd0a4f28419497f9722a3daafe3b4186f6b6457e060405160405180910390a35050565b6000604051905090565b600080fd5b600080fd5b600073ffffffffffffffffffffffffffffffffffffffff82169050919050565b60006101e6826101bb565b9050919050565b6101f6816101db565b811461020157600080fd5b50565b600081519050610213816101ed565b92915050565b600080fd5b600080fd5b6000601f19601f8301169050919050565b7f4e487b7100000000000000000000000000000000000000000000000000000000600052604160045260246000fd5b61026c82610223565b810181811067ffffffffffffffff8211171561028b5761028a610234565b5b80604052505050565b600061029e6101a7565b90506102aa8282610263565b919050565b600067ffffffffffffffff8211156102ca576102c9610234565b5b6102d382610223565b9050602081019050919050565b60005b838110156102fe5780820151818401526020810190506102e3565b60008484015250505050565b600061031d610318846102af565b610294565b9050828152602081018484840111156103395761033861021e565b5b6103448482856102e0565b509392505050565b600082601f83011261036157610360610219565b5b815161037184826020860161030a565b91505092915050565b600080600060608486031215610393576103926101b1565b5b60006103a186828701610204565b935050602084015167ffffffffffffffff8111156103c2576103c16101b6565b5b6103ce8682870161034c565b925050604084015167ffffffffffffffff8111156103ef576103ee6101b6565b5b6103fb8682870161034c565b9150509250925092565b600081519050919050565b7f4e487b7100000000000000000000000000000000000000000000000000000000600052602260045260246000fd5b6000600282049050600182168061045757607f821691505b60208210810361046a57610469610410565b5b50919050565b60008190508160005260206000209050919050565b60006020601f8301049050919050565b600082821b905092915050565b6000600883026104d27fffffffffffffffffffffffffffffffffffffffffffffffffffffffffffffffff82610495565b6104dc8683610495565b95508019841693508086168417925050509392505050565b6000819050919050565b6000819050919050565b600061052361051e610519846104f4565b6104fe565b6104f4565b9050919050565b6000819050919050565b61053d83610508565b6105516105498261052a565b8484546104a2565b825550505050565b600090565b610566610559565b610571818484610534565b505050565b5b818110156105955761058a60008261055e565b600181019050610577565b5050565b601f8211156105da576105ab81610470565b6105b484610485565b810160208510156105c3578190505b6105d76105cf85610485565b830182610576565b50505b505050565b600082821c905092915050565b60006105fd600019846008026105df565b1980831691505092915050565b600061061683836105ec565b9150826002028217905092915050565b61062f82610405565b67ffffffffffffffff81111561064857610647610234565b5b610652825461043f565b61065d828285610599565b600060209050601f831160018114610690576000841561067e578287015190505b610688858261060a565b8655506106f0565b601f19841661069e86610470565b60005b828110156106c6578489015182556001820191506020850194506020810190506106a1565b868310156106e357848901516106df601f8916826105ec565b8355505b6001600288020188555050505b505050505050565b610701816101db565b82525050565b600060208201905061071c60008301846106f8565b92915050565b6129bb806107316000396000f3fe608060405234801561001057600080fd5b50600436106101165760003560e01c80638da5cb5b116100a2578063c87b56dd11610071578063c87b56dd146102cb578063cc28ec33146102fb578063d204c45e14610317578063e985e9c514610333578063f2fde38b1461036357610116565b80638da5cb5b1461025757806395d89b4114610275578063a22cb46514610293578063b88d4fde146102af57610116565b806323b872dd116100e957806323b872dd146101b557806342842e0e146101d15780636352211e146101ed57806370a082311461021d578063715018a61461024d57610116565b806301ffc9a71461011b57806306fdde031461014b578063081812fc14610169578063095ea7b314610199575b600080fd5b61013560048036038101906101309190611bc9565b61037f565b6040516101429190611c11565b60405180910390f35b610153610391565b6040516101609190611cbc565b60405180910390f35b610183600480360381019061017e9190611d14565b610423565b6040516101909190611d82565b60405180910390f35b6101b360048036038101906101ae9190611dc9565b61043f565b005b6101cf60048036038101906101ca9190611e09565b610455565b005b6101eb60048036038101906101e69190611e09565b610557565b005b61020760048036038101906102029190611d14565b610577565b6040516102149190611d82565b60405180910390f35b61023760048036038101906102329190611e5c565b610589565b6040516102449190611e98565b60405180910390f35b610255610643565b005b61025f610657565b60405161026c9190611d82565b60405180910390f35b61027d610681565b60405161028a9190611cbc565b60405180910390f35b6102ad60048036038101906102a89190611edf565b610713565b005b6102c960048036038101906102c49190612054565b610729565b005b6102e560048036038101906102e09190611d14565b61074e565b6040516102f29190611cbc565b60405180910390f35b6103156004803603810190610310919061225e565b610760565b005b610331600480360381019061032c91906122cd565b610822565b005b61034d60048036038101906103489190612329565b61085e565b60405161035a9190611c11565b60405180910390f35b61037d60048036038101906103789190611e5c565b6108f2565b005b600061038a82610978565b9050919050565b6060600080546103a090612398565b80601f01602080910402602001604051908101604052809291908181526020018280546103cc90612398565b80156104195780601f106103ee57610100808354040283529160200191610419565b820191906000526020600020905b8154815290600101906020018083116103fc57829003601f168201915b5050505050905090565b600061042e826109d9565b5061043882610a61565b9050919050565b610451828261044c610a9e565b610aa6565b5050565b600073ffffffffffffffffffffffffffffffffffffffff168273ffffffffffffffffffffffffffffffffffffffff16036104c75760006040517f64a0ae920000000000000000000000000000000000000000000000000000000081526004016104be9190611d82565b60405180910390fd5b60006104db83836104d6610a9e565b610ab8565b90508373ffffffffffffffffffffffffffffffffffffffff168173ffffffffffffffffffffffffffffffffffffffff1614610551578382826040517f64283d7b000000000000000000000000000000000000000000000000000000008152600401610548939291906123c9565b60405180910390fd5b50505050565b61057283838360405180602001604052806000815250610729565b505050565b6000610582826109d9565b9050919050565b60008073ffffffffffffffffffffffffffffffffffffffff168273ffffffffffffffffffffffffffffffffffffffff16036105fc5760006040517f89c62b640000000000000000000000000000000000000000000000000000000081526004016105f39190611d82565b60405180910390fd5b600360008373ffffffffffffffffffffffffffffffffffffffff1673ffffffffffffffffffffffffffffffffffffffff168152602001908152602001600020549050919050565b61064b610cd2565b6106556000610d59565b565b6000600760009054906101000a900473ffffffffffffffffffffffffffffffffffffffff16905090565b60606001805461069090612398565b80601f01602080910402602001604051908101604052809291908181526020018280546106bc90612398565b80156107095780601f106106de57610100808354040283529160200191610709565b820191906000526020600020905b8154815290600101906020018083116106ec57829003601f168201915b5050505050905090565b61072561071e610a9e565b8383610e1f565b5050565b610734848484610455565b61074861073f610a9e565b85858585610f8e565b50505050565b60606107598261113f565b9050919050565b610768610cd2565b805182146107ab576040517f08c379a00000000000000000000000000000000000000000000000000000000081526004016107a290612472565b60405180910390fd5b6000600854905060005b8381101561080957600081836107cb91906124c1565b90506107d78682611252565b6107fb818584815181106107ee576107ed6124f5565b5b6020026020010151611270565b5080806001019150506107b5565b50828161081691906124c1565b60088190555050505050565b61082a610cd2565b60006008600081548092919061083f90612524565b91905055905061084f8382611252565b6108598183611270565b505050565b6000600560008473ffffffffffffffffffffffffffffffffffffffff1673ffffffffffffffffffffffffffffffffffffffff16815260200190815260200160002060008373ffffffffffffffffffffffffffffffffffffffff1673ffffffffffffffffffffffffffffffffffffffff16815260200190815260200160002060009054906101000a900460ff16905092915050565b6108fa610cd2565b600073ffffffffffffffffffffffffffffffffffffffff168173ffffffffffffffffffffffffffffffffffffffff160361096c5760006040517f1e4fbdf70000000000000000000000000000000000000000000000000000000081526004016109639190611d82565b60405180910390fd5b61097581610d59565b50565b6000634906490660e01b7bffffffffffffffffffffffffffffffffffffffffffffffffffffffff1916827bffffffffffffffffffffffffffffffffffffffffffffffffffffffff191614806109d257506109d1826112cc565b5b9050919050565b6000806109e5836113ae565b9050600073ffffffffffffffffffffffffffffffffffffffff168173ffffffffffffffffffffffffffffffffffffffff1603610a5857826040517f7e273289000000000000000000000000000000000000000000000000000000008152600401610a4f9190611e98565b60405180910390fd5b80915050919050565b60006004600083815260200190815260200160002060009054906101000a900473ffffffffffffffffffffffffffffffffffffffff169050919050565b600033905090565b610ab383838360016113eb565b505050565b600080610ac4846113ae565b9050600073ffffffffffffffffffffffffffffffffffffffff168373ffffffffffffffffffffffffffffffffffffffff1614610b0657610b058184866115b0565b5b600073ffffffffffffffffffffffffffffffffffffffff168173ffffffffffffffffffffffffffffffffffffffff1614610b9757610b486000856000806113eb565b6001600360008373ffffffffffffffffffffffffffffffffffffffff1673ffffffffffffffffffffffffffffffffffffffff168152602001908152602001600020600082825403925050819055505b600073ffffffffffffffffffffffffffffffffffffffff168573ffffffffffffffffffffffffffffffffffffffff1614610c1a576001600360008773ffffffffffffffffffffffffffffffffffffffff1673ffffffffffffffffffffffffffffffffffffffff168152602001908152602001600020600082825401925050819055505b846002600086815260200190815260200160002060006101000a81548173ffffffffffffffffffffffffffffffffffffffff021916908373ffffffffffffffffffffffffffffffffffffffff160217905550838573ffffffffffffffffffffffffffffffffffffffff168273ffffffffffffffffffffffffffffffffffffffff167fddf252ad1be2c89b69c2b068fc378daa952ba7f163c4a11628f55a4df523b3ef60405160405180910390a4809150509392505050565b610cda610a9e565b73ffffffffffffffffffffffffffffffffffffffff16610cf8610657565b73ffffffffffffffffffffffffffffffffffffffff1614610d5757610d1b610a9e565b6040517f118cdaa7000000000000000000000000000000000000000000000000000000008152600401610d4e9190611d82565b60405180910390fd5b565b6000600760009054906101000a900473ffffffffffffffffffffffffffffffffffffffff16905081600760006101000a81548173ffffffffffffffffffffffffffffffffffffffff021916908373ffffffffffffffffffffffffffffffffffffffff1602179055508173ffffffffffffffffffffffffffffffffffffffff168173ffffffffffffffffffffffffffffffffffffffff167f8be0079c531659141344cd1fd0a4f28419497f9722a3daafe3b4186f6b6457e060405160405180910390a35050565b600073ffffffffffffffffffffffffffffffffffffffff168273ffffffffffffffffffffffffffffffffffffffff1603610e9057816040517f5b08ba18000000000000000000000000000000000000000000000000000000008152600401610e879190611d82565b60405180910390fd5b80600560008573ffffffffffffffffffffffffffffffffffffffff1673ffffffffffffffffffffffffffffffffffffffff16815260200190815260200160002060008473ffffffffffffffffffffffffffffffffffffffff1673ffffffffffffffffffffffffffffffffffffffff16815260200190815260200160002060006101000a81548160ff0219169083151502179055508173ffffffffffffffffffffffffffffffffffffffff168373ffffffffffffffffffffffffffffffffffffffff167f17307eab39ab6107e8899845ad3d59bd9653f200f220920489ca2b5937696c3183604051610f819190611c11565b60405180910390a3505050565b60008373ffffffffffffffffffffffffffffffffffffffff163b1115611138578273ffffffffffffffffffffffffffffffffffffffff1663150b7a02868685856040518563ffffffff1660e01b8152600401610fed94939291906125c1565b6020604051808303816000875af192505050801561102957506040513d601f19601f820116820180604052508101906110269190612622565b60015b6110ad573d8060008114611059576040519150601f19603f3d011682016040523d82523d6000602084013e61105e565b606091505b5060008151036110a557836040517f64a0ae9200000000000000000000000000000000000000000000000000000000815260040161109c9190611d82565b60405180910390fd5b805181602001fd5b63150b7a0260e01b7bffffffffffffffffffffffffffffffffffffffffffffffffffffffff1916817bffffffffffffffffffffffffffffffffffffffffffffffffffffffff19161461113657836040517f64a0ae9200000000000000000000000000000000000000000000000000000000815260040161112d9190611d82565b60405180910390fd5b505b5050505050565b606061114a826109d9565b50600060066000848152602001908152602001600020805461116b90612398565b80601f016020809104026020016040519081016040528092919081815260200182805461119790612398565b80156111e45780601f106111b9576101008083540402835291602001916111e4565b820191906000526020600020905b8154815290600101906020018083116111c757829003601f168201915b5050505050905060006111f5611674565b9050600081510361120a57819250505061124d565b60008251111561123f57808260405160200161122792919061268b565b6040516020818303038152906040529250505061124d565b6112488461168b565b925050505b919050565b61126c8282604051806020016040528060008152506116f4565b5050565b80600660008481526020019081526020016000209081611290919061285b565b507ff8e1a15aba9398e019f0b49df1a4fde98ee17ae345cb5f6b5e2c27f5033e8ce7826040516112c09190611e98565b60405180910390a15050565b60007f80ac58cd000000000000000000000000000000000000000000000000000000007bffffffffffffffffffffffffffffffffffffffffffffffffffffffff1916827bffffffffffffffffffffffffffffffffffffffffffffffffffffffff1916148061139757507f5b5e139f000000000000000000000000000000000000000000000000000000007bffffffffffffffffffffffffffffffffffffffffffffffffffffffff1916827bffffffffffffffffffffffffffffffffffffffffffffffffffffffff1916145b806113a757506113a682611718565b5b9050919050565b60006002600083815260200190815260200160002060009054906101000a900473ffffffffffffffffffffffffffffffffffffffff169050919050565b80806114245750600073ffffffffffffffffffffffffffffffffffffffff168273ffffffffffffffffffffffffffffffffffffffff1614155b15611558576000611434846109d9565b9050600073ffffffffffffffffffffffffffffffffffffffff168373ffffffffffffffffffffffffffffffffffffffff161415801561149f57508273ffffffffffffffffffffffffffffffffffffffff168173ffffffffffffffffffffffffffffffffffffffff1614155b80156114b257506114b0818461085e565b155b156114f457826040517fa9fbf51f0000000000000000000000000000000000000000000000000000000081526004016114eb9190611d82565b60405180910390fd5b811561155657838573ffffffffffffffffffffffffffffffffffffffff168273ffffffffffffffffffffffffffffffffffffffff167f8c5be1e5ebec7d5bd14f71427d1e84f3dd0314c0f7b2291e5b200ac8c7c3b92560405160405180910390a45b505b836004600085815260200190815260200160002060006101000a81548173ffffffffffffffffffffffffffffffffffffffff021916908373ffffffffffffffffffffffffffffffffffffffff16021790555050505050565b6115bb838383611782565b61166f57600073ffffffffffffffffffffffffffffffffffffffff168373ffffffffffffffffffffffffffffffffffffffff160361163057806040517f7e2732890000000000000000000000000000000000000000000000000000000081526004016116279190611e98565b60405180910390fd5b81816040517f177e802f00000000000000000000000000000000000000000000000000000000815260040161166692919061292d565b60405180910390fd5b505050565b606060405180602001604052806000815250905090565b6060611696826109d9565b5060006116a1611674565b905060008151116116c157604051806020016040528060008152506116ec565b806116cb84611843565b6040516020016116dc92919061268b565b6040516020818303038152906040525b915050919050565b6116fe8383611911565b611713611709610a9e565b6000858585610f8e565b505050565b60007f01ffc9a7000000000000000000000000000000000000000000000000000000007bffffffffffffffffffffffffffffffffffffffffffffffffffffffff1916827bffffffffffffffffffffffffffffffffffffffffffffffffffffffff1916149050919050565b60008073ffffffffffffffffffffffffffffffffffffffff168373ffffffffffffffffffffffffffffffffffffffff161415801561183a57508273ffffffffffffffffffffffffffffffffffffffff168473ffffffffffffffffffffffffffffffffffffffff1614806117fb57506117fa848461085e565b5b8061183957508273ffffffffffffffffffffffffffffffffffffffff1661182183610a61565b73ffffffffffffffffffffffffffffffffffffffff16145b5b90509392505050565b60606000600161185284611a0a565b01905060008167ffffffffffffffff81111561187157611870611f29565b5b6040519080825280601f01601f1916602001820160405280156118a35781602001600182028036833780820191505090505b509050600082602001820190505b600115611906578080600190039150507f3031323334353637383961626364656600000000000000000000000000000000600a86061a8153600a85816118fa576118f9612956565b5b049450600085036118b1575b819350505050919050565b600073ffffffffffffffffffffffffffffffffffffffff168273ffffffffffffffffffffffffffffffffffffffff16036119835760006040517f64a0ae9200000000000000000000000000000000000000000000000000000000815260040161197a9190611d82565b60405180910390fd5b600061199183836000610ab8565b9050600073ffffffffffffffffffffffffffffffffffffffff168173ffffffffffffffffffffffffffffffffffffffff1614611a055760006040517f73c6ac6e0000000000000000000000000000000000000000000000000000000081526004016119fc9190611d82565b60405180910390fd5b505050565b600080600090507a184f03e93ff9f4daa797ed6e38ed64bf6a1f0100000000000000008310611a68577a184f03e93ff9f4daa797ed6e38ed64bf6a1f0100000000000000008381611a5e57611a5d612956565b5b0492506040810190505b6d04ee2d6d415b85acef81000000008310611aa5576d04ee2d6d415b85acef81000000008381611a9b57611a9a612956565b5b0492506020810190505b662386f26fc100008310611ad457662386f26fc100008381611aca57611ac9612956565b5b0492506010810190505b6305f5e1008310611afd576305f5e1008381611af357611af2612956565b5b0492506008810190505b6127108310611b22576127108381611b1857611b17612956565b5b0492506004810190505b60648310611b455760648381611b3b57611b3a612956565b5b0492506002810190505b600a8310611b54576001810190505b80915050919050565b6000604051905090565b600080fd5b600080fd5b60007fffffffff0000000000000000000000000000000000000000000000000000000082169050919050565b611ba681611b71565b8114611bb157600080fd5b50565b600081359050611bc381611b9d565b92915050565b600060208284031215611bdf57611bde611b67565b5b6000611bed84828501611bb4565b91505092915050565b60008115159050919050565b611c0b81611bf6565b82525050565b6000602082019050611c266000830184611c02565b92915050565b600081519050919050565b600082825260208201905092915050565b60005b83811015611c66578082015181840152602081019050611c4b565b60008484015250505050565b6000601f19601f8301169050919050565b6000611c8e82611c2c565b611c988185611c37565b9350611ca8818560208601611c48565b611cb181611c72565b840191505092915050565b60006020820190508181036000830152611cd68184611c83565b905092915050565b6000819050919050565b611cf181611cde565b8114611cfc57600080fd5b50565b600081359050611d0e81611ce8565b92915050565b600060208284031215611d2a57611d29611b67565b5b6000611d3884828501611cff565b91505092915050565b600073ffffffffffffffffffffffffffffffffffffffff82169050919050565b6000611d6c82611d41565b9050919050565b611d7c81611d61565b82525050565b6000602082019050611d976000830184611d73565b92915050565b611da681611d61565b8114611db157600080fd5b50565b600081359050611dc381611d9d565b92915050565b60008060408385031215611de057611ddf611b67565b5b6000611dee85828601611db4565b9250506020611dff85828601611cff565b9150509250929050565b600080600060608486031215611e2257611e21611b67565b5b6000611e3086828701611db4565b9350506020611e4186828701611db4565b9250506040611e5286828701611cff565b9150509250925092565b600060208284031215611e7257611e71611b67565b5b6000611e8084828501611db4565b91505092915050565b611e9281611cde565b82525050565b6000602082019050611ead6000830184611e89565b92915050565b611ebc81611bf6565b8114611ec757600080fd5b50565b600081359050611ed981611eb3565b92915050565b60008060408385031215611ef657611ef5611b67565b5b6000611f0485828601611db4565b9250506020611f1585828601611eca565b9150509250929050565b600080fd5b600080fd5b7f4e487b7100000000000000000000000000000000000000000000000000000000600052604160045260246000fd5b611f6182611c72565b810181811067ffffffffffffffff82111715611f8057611f7f611f29565b5b80604052505050565b6000611f93611b5d565b9050611f9f8282611f58565b919050565b600067ffffffffffffffff821115611fbf57611fbe611f29565b5b611fc882611c72565b9050602081019050919050565b82818337600083830152505050565b6000611ff7611ff284611fa4565b611f89565b90508281526020810184848401111561201357612012611f24565b5b61201e848285611fd5565b509392505050565b600082601f83011261203b5761203a611f1f565b5b813561204b848260208601611fe4565b91505092915050565b6000806000806080858703121561206e5761206d611b67565b5b600061207c87828801611db4565b945050602061208d87828801611db4565b935050604061209e87828801611cff565b925050606085013567ffffffffffffffff8111156120bf576120be611b6c565b5b6120cb87828801612026565b91505092959194509250565b600067ffffffffffffffff8211156120f2576120f1611f29565b5b602082029050602081019050919050565b600080fd5b600067ffffffffffffffff82111561212357612122611f29565b5b61212c82611c72565b9050602081019050919050565b600061214c61214784612108565b611f89565b90508281526020810184848401111561216857612167611f24565b5b612173848285611fd5565b509392505050565b600082601f8301126121905761218f611f1f565b5b81356121a0848260208601612139565b91505092915050565b60006121bc6121b7846120d7565b611f89565b905080838252602082019050602084028301858111156121df576121de612103565b5b835b8181101561222657803567ffffffffffffffff81111561220457612203611f1f565b5b808601612211898261217b565b855260208501945050506020810190506121e1565b5050509392505050565b600082601f83011261224557612244611f1f565b5b81356122558482602086016121a9565b91505092915050565b60008060006060848603121561227757612276611b67565b5b600061228586828701611db4565b935050602061229686828701611cff565b925050604084013567ffffffffffffffff8111156122b7576122b6611b6c565b5b6122c386828701612230565b9150509250925092565b600080604083850312156122e4576122e3611b67565b5b60006122f285828601611db4565b925050602083013567ffffffffffffffff81111561231357612312611b6c565b5b61231f8582860161217b565b9150509250929050565b600080604083850312156123405761233f611b67565b5b600061234e85828601611db4565b925050602061235f85828601611db4565b9150509250929050565b7f4e487b7100000000000000000000000000000000000000000000000000000000600052602260045260246000fd5b600060028204905060018216806123b057607f821691505b6020821081036123c3576123c2612369565b5b50919050565b60006060820190506123de6000830186611d73565b6123eb6020830185611e89565b6123f86040830184611d73565b949350505050565b7f4d69736d61746368206265747765656e207175616e7469747920616e6420555260008201527f4973000000000000000000000000000000000000000000000000000000000000602082015250565b600061245c602283611c37565b915061246782612400565b604082019050919050565b6000602082019050818103600083015261248b8161244f565b9050919050565b7f4e487b7100000000000000000000000000000000000000000000000000000000600052601160045260246000fd5b60006124cc82611cde565b91506124d783611cde565b92508282019050808211156124ef576124ee612492565b5b92915050565b7f4e487b7100000000000000000000000000000000000000000000000000000000600052603260045260246000fd5b600061252f82611cde565b91507fffffffffffffffffffffffffffffffffffffffffffffffffffffffffffffffff820361256157612560612492565b5b600182019050919050565b600081519050919050565b600082825260208201905092915050565b60006125938261256c565b61259d8185612577565b93506125ad818560208601611c48565b6125b681611c72565b840191505092915050565b60006080820190506125d66000830187611d73565b6125e36020830186611d73565b6125f06040830185611e89565b81810360608301526126028184612588565b905095945050505050565b60008151905061261c81611b9d565b92915050565b60006020828403121561263857612637611b67565b5b60006126468482850161260d565b91505092915050565b600081905092915050565b600061266582611c2c565b61266f818561264f565b935061267f818560208601611c48565b80840191505092915050565b6000612697828561265a565b91506126a3828461265a565b91508190509392505050565b60008190508160005260206000209050919050565b60006020601f8301049050919050565b600082821b905092915050565b6000600883026127117fffffffffffffffffffffffffffffffffffffffffffffffffffffffffffffffff826126d4565b61271b86836126d4565b95508019841693508086168417925050509392505050565b6000819050919050565b600061275861275361274e84611cde565b612733565b611cde565b9050919050565b6000819050919050565b6127728361273d565b61278661277e8261275f565b8484546126e1565b825550505050565b600090565b61279b61278e565b6127a6818484612769565b505050565b5b818110156127ca576127bf600082612793565b6001810190506127ac565b5050565b601f82111561280f576127e0816126af565b6127e9846126c4565b810160208510156127f8578190505b61280c612804856126c4565b8301826127ab565b50505b505050565b600082821c905092915050565b600061283260001984600802612814565b1980831691505092915050565b600061284b8383612821565b9150826002028217905092915050565b61286482611c2c565b67ffffffffffffffff81111561287d5761287c611f29565b5b6128878254612398565b6128928282856127ce565b600060209050601f8311600181146128c557600084156128b3578287015190505b6128bd858261283f565b865550612925565b601f1984166128d3866126af565b60005b828110156128fb578489015182556001820191506020850194506020810190506128d6565b868310156129185784890151612914601f891682612821565b8355505b6001600288020188555050505b505050505050565b60006040820190506129426000830185611d73565b61294f6020830184611e89565b9392505050565b7f4e487b7100000000000000000000000000000000000000000000000000000000600052601260045260246000fdfea26469706673582212206db7d936b39ece05b349d5248c53b6c31e8ceeafec981101a5bf7667e859fea464736f6c634300081b0033",
  "linkReferences": {},
  "deployedLinkReferences": {}
}