{
  "_format": "hh-sol-artifact-1",
  "contractName": "MPMNFT",
  "sourceName": "contracts/MPMNFT.sol",
  "abi": [
    {
      "inputs": [
        {
          "internalType": "address",
          "name": "initialOwner",
          "type": "address"
        },
        {
          "internalType": "string",
          "name": "contractName",
          "type": "string"
        },
        {
          "internalType": "string",
          "name": "symbol",
          "type": "string"
        },
        {
          "internalType": "uint256",
          "name": "_mintFee",
          "type": "uint256"
        }
      ],
      "stateMutability": "nonpayable",
      "type": "constructor"
    },
    {
      "inputs": [
        {
          "internalType": "address",
          "name": "sender",
          "type": "address"
        },
        {
          "internalType": "uint256",
          "name": "tokenId",
          "type": "uint256"
        },
        {
          "internalType": "address",
          "name": "owner",
          "type": "address"
        }
      ],
      "name": "ERC721IncorrectOwner",
      "type": "error"
    },
    {
      "inputs": [
        {
          "internalType": "address",
          "name": "operator",
          "type": "address"
        },
        {
          "internalType": "uint256",
          "name": "tokenId",
          "type": "uint256"
        }
      ],
      "name": "ERC721InsufficientApproval",
      "type": "error"
    },
    {
      "inputs": [
        {
          "internalType": "address",
          "name": "approver",
          "type": "address"
        }
      ],
      "name": "ERC721InvalidApprover",
      "type": "error"
    },
    {
      "inputs": [
        {
          "internalType": "address",
          "name": "operator",
          "type": "address"
        }
      ],
      "name": "ERC721InvalidOperator",
      "type": "error"
    },
    {
      "inputs": [
        {
          "internalType": "address",
          "name": "owner",
          "type": "address"
        }
      ],
      "name": "ERC721InvalidOwner",
      "type": "error"
    },
    {
      "inputs": [
        {
          "internalType": "address",
          "name": "receiver",
          "type": "address"
        }
      ],
      "name": "ERC721InvalidReceiver",
      "type": "error"
    },
    {
      "inputs": [
        {
          "internalType": "address",
          "name": "sender",
          "type": "address"
        }
      ],
      "name": "ERC721InvalidSender",
      "type": "error"
    },
    {
      "inputs": [
        {
          "internalType": "uint256",
          "name": "tokenId",
          "type": "uint256"
        }
      ],
      "name": "ERC721NonexistentToken",
      "type": "error"
    },
    {
      "inputs": [
        {
          "internalType": "address",
          "name": "owner",
          "type": "address"
        }
      ],
      "name": "OwnableInvalidOwner",
      "type": "error"
    },
    {
      "inputs": [
        {
          "internalType": "address",
          "name": "account",
          "type": "address"
        }
      ],
      "name": "OwnableUnauthorizedAccount",
      "type": "error"
    },
    {
      "anonymous": false,
      "inputs": [
        {
          "indexed": true,
          "internalType": "address",
          "name": "owner",
          "type": "address"
        },
        {
          "indexed": true,
          "internalType": "address",
          "name": "approved",
          "type": "address"
        },
        {
          "indexed": true,
          "internalType": "uint256",
          "name": "tokenId",
          "type": "uint256"
        }
      ],
      "name": "Approval",
      "type": "event"
    },
    {
      "anonymous": false,
      "inputs": [
        {
          "indexed": true,
          "internalType": "address",
          "name": "owner",
          "type": "address"
        },
        {
          "indexed": true,
          "internalType": "address",
          "name": "operator",
          "type": "address"
        },
        {
          "indexed": false,
          "internalType": "bool",
          "name": "approved",
          "type": "bool"
        }
      ],
      "name": "ApprovalForAll",
      "type": "event"
    },
    {
      "anonymous": false,
      "inputs": [
        {
          "indexed": false,
          "internalType": "uint256",
          "name": "_fromTokenId",
          "type": "uint256"
        },
        {
          "indexed": false,
          "internalType": "uint256",
          "name": "_toTokenId",
          "type": "uint256"
        }
      ],
      "name": "BatchMetadataUpdate",
      "type": "event"
    },
    {
      "anonymous": false,
      "inputs": [
        {
          "indexed": false,
          "internalType": "uint256",
          "name": "_tokenId",
          "type": "uint256"
        }
      ],
      "name": "MetadataUpdate",
      "type": "event"
    },
    {
      "anonymous": false,
      "inputs": [
        {
          "indexed": true,
          "internalType": "address",
          "name": "previousOwner",
          "type": "address"
        },
        {
          "indexed": true,
          "internalType": "address",
          "name": "newOwner",
          "type": "address"
        }
      ],
      "name": "OwnershipTransferred",
      "type": "event"
    },
    {
      "anonymous": false,
      "inputs": [
        {
          "indexed": true,
          "internalType": "address",
          "name": "from",
          "type": "address"
        },
        {
          "indexed": true,
          "internalType": "address",
          "name": "to",
          "type": "address"
        },
        {
          "indexed": true,
          "internalType": "uint256",
          "name": "tokenId",
          "type": "uint256"
        }
      ],
      "name": "Transfer",
      "type": "event"
    },
    {
      "inputs": [
        {
          "internalType": "address",
          "name": "to",
          "type": "address"
        },
        {
          "internalType": "uint256",
          "name": "tokenId",
          "type": "uint256"
        }
      ],
      "name": "approve",
      "outputs": [],
      "stateMutability": "nonpayable",
      "type": "function"
    },
    {
      "inputs": [
        {
          "internalType": "address",
          "name": "owner",
          "type": "address"
        }
      ],
      "name": "balanceOf",
      "outputs": [
        {
          "internalType": "uint256",
          "name": "",
          "type": "uint256"
        }
      ],
      "stateMutability": "view",
      "type": "function"
    },
    {
      "inputs": [
        {
          "internalType": "address",
          "name": "to",
          "type": "address"
        },
        {
          "internalType": "uint256",
          "name": "quantity",
          "type": "uint256"
        },
        {
          "internalType": "string[]",
          "name": "uris",
          "type": "string[]"
        }
      ],
      "name": "batchMint",
      "outputs": [],
      "stateMutability": "nonpayable",
      "type": "function"
    },
    {
      "inputs": [
        {
          "internalType": "uint256",
          "name": "tokenId",
          "type": "uint256"
        }
      ],
      "name": "getApproved",
      "outputs": [
        {
          "internalType": "address",
          "name": "",
          "type": "address"
        }
      ],
      "stateMutability": "view",
      "type": "function"
    },
    {
      "inputs": [
        {
          "internalType": "address",
          "name": "owner",
          "type": "address"
        },
        {
          "internalType": "address",
          "name": "operator",
          "type": "address"
        }
      ],
      "name": "isApprovedForAll",
      "outputs": [
        {
          "internalType": "bool",
          "name": "",
          "type": "bool"
        }
      ],
      "stateMutability": "view",
      "type": "function"
    },
    {
      "inputs": [
        {
          "internalType": "uint256",
          "name": "tokenId",
          "type": "uint256"
        },
        {
          "internalType": "string",
          "name": "uri",
          "type": "string"
        }
      ],
      "name": "mint",
      "outputs": [],
      "stateMutability": "payable",
      "type": "function"
    },
    {
      "inputs": [],
      "name": "mintFee",
      "outputs": [
        {
          "internalType": "uint256",
          "name": "",
          "type": "uint256"
        }
      ],
      "stateMutability": "view",
      "type": "function"
    },
    {
      "inputs": [],
      "name": "name",
      "outputs": [
        {
          "internalType": "string",
          "name": "",
          "type": "string"
        }
      ],
      "stateMutability": "view",
      "type": "function"
    },
    {
      "inputs": [],
      "name": "owner",
      "outputs": [
        {
          "internalType": "address",
          "name": "",
          "type": "address"
        }
      ],
      "stateMutability": "view",
      "type": "function"
    },
    {
      "inputs": [
        {
          "internalType": "uint256",
          "name": "tokenId",
          "type": "uint256"
        }
      ],
      "name": "ownerOf",
      "outputs": [
        {
          "internalType": "address",
          "name": "",
          "type": "address"
        }
      ],
      "stateMutability": "view",
      "type": "function"
    },
    {
      "inputs": [],
      "name": "renounceOwnership",
      "outputs": [],
      "stateMutability": "nonpayable",
      "type": "function"
    },
    {
      "inputs": [
        {
          "internalType": "address",
          "name": "to",
          "type": "address"
        },
        {
          "internalType": "uint256",
          "name": "tokenId",
          "type": "uint256"
        },
        {
          "internalType": "string",
          "name": "uri",
          "type": "string"
        }
      ],
      "name": "safeMint",
      "outputs": [],
      "stateMutability": "nonpayable",
      "type": "function"
    },
    {
      "inputs": [
        {
          "internalType": "address",
          "name": "from",
          "type": "address"
        },
        {
          "internalType": "address",
          "name": "to",
          "type": "address"
        },
        {
          "internalType": "uint256",
          "name": "tokenId",
          "type": "uint256"
        }
      ],
      "name": "safeTransferFrom",
      "outputs": [],
      "stateMutability": "nonpayable",
      "type": "function"
    },
    {
      "inputs": [
        {
          "internalType": "address",
          "name": "from",
          "type": "address"
        },
        {
          "internalType": "address",
          "name": "to",
          "type": "address"
        },
        {
          "internalType": "uint256",
          "name": "tokenId",
          "type": "uint256"
        },
        {
          "internalType": "bytes",
          "name": "data",
          "type": "bytes"
        }
      ],
      "name": "safeTransferFrom",
      "outputs": [],
      "stateMutability": "nonpayable",
      "type": "function"
    },
    {
      "inputs": [
        {
          "internalType": "address",
          "name": "operator",
          "type": "address"
        },
        {
          "internalType": "bool",
          "name": "approved",
          "type": "bool"
        }
      ],
      "name": "setApprovalForAll",
      "outputs": [],
      "stateMutability": "nonpayable",
      "type": "function"
    },
    {
      "inputs": [
        {
          "internalType": "uint256",
          "name": "_mintFee",
          "type": "uint256"
        }
      ],
      "name": "setMintFee",
      "outputs": [],
      "stateMutability": "nonpayable",
      "type": "function"
    },
    {
      "inputs": [
        {
          "internalType": "bytes4",
          "name": "interfaceId",
          "type": "bytes4"
        }
      ],
      "name": "supportsInterface",
      "outputs": [
        {
          "internalType": "bool",
          "name": "",
          "type": "bool"
        }
      ],
      "stateMutability": "view",
      "type": "function"
    },
    {
      "inputs": [],
      "name": "symbol",
      "outputs": [
        {
          "internalType": "string",
          "name": "",
          "type": "string"
        }
      ],
      "stateMutability": "view",
      "type": "function"
    },
    {
      "inputs": [
        {
          "internalType": "uint256",
          "name": "tokenId",
          "type": "uint256"
        }
      ],
      "name": "tokenURI",
      "outputs": [
        {
          "internalType": "string",
          "name": "",
          "type": "string"
        }
      ],
      "stateMutability": "view",
      "type": "function"
    },
    {
      "inputs": [
        {
          "internalType": "address",
          "name": "from",
          "type": "address"
        },
        {
          "internalType": "address",
          "name": "to",
          "type": "address"
        },
        {
          "internalType": "uint256",
          "name": "tokenId",
          "type": "uint256"
        }
      ],
      "name": "transferFrom",
      "outputs": [],
      "stateMutability": "nonpayable",
      "type": "function"
    },
    {
      "inputs": [
        {
          "internalType": "address",
          "name": "newOwner",
          "type": "address"
        }
      ],
      "name": "transferOwnership",
      "outputs": [],
      "stateMutability": "nonpayable",
      "type": "function"
    },
    {
      "inputs": [],
      "name": "withdraw",
      "outputs": [],
      "stateMutability": "nonpayable",
      "type": "function"
    }
  ],
  "bytecode": "0x608060405234801561001057600080fd5b506040516137a93803806137a9833981810160405281019061003291906103b8565b8383838160009081610044919061066e565b508060019081610054919061066e565b505050600073ffffffffffffffffffffffffffffffffffffffff168173ffffffffffffffffffffffffffffffffffffffff16036100c95760006040517f1e4fbdf70000000000000000000000000000000000000000000000000000000081526004016100c0919061074f565b60405180910390fd5b6100d8816100e960201b60201c565b50806009819055505050505061076a565b6000600760009054906101000a900473ffffffffffffffffffffffffffffffffffffffff16905081600760006101000a81548173ffffffffffffffffffffffffffffffffffffffff021916908373ffffffffffffffffffffffffffffffffffffffff1602179055508173ffffffffffffffffffffffffffffffffffffffff168173ffffffffffffffffffffffffffffffffffffffff167f8be0079c531659141344cd1fd0a4f28419497f9722a3daafe3b4186f6b6457e060405160405180910390a35050565b6000604051905090565b600080fd5b600080fd5b600073ffffffffffffffffffffffffffffffffffffffff82169050919050565b60006101ee826101c3565b9050919050565b6101fe816101e3565b811461020957600080fd5b50565b60008151905061021b816101f5565b92915050565b600080fd5b600080fd5b6000601f19601f8301169050919050565b7f4e487b7100000000000000000000000000000000000000000000000000000000600052604160045260246000fd5b6102748261022b565b810181811067ffffffffffffffff821117156102935761029261023c565b5b80604052505050565b60006102a66101af565b90506102b2828261026b565b919050565b600067ffffffffffffffff8211156102d2576102d161023c565b5b6102db8261022b565b9050602081019050919050565b60005b838110156103065780820151818401526020810190506102eb565b60008484015250505050565b6000610325610320846102b7565b61029c565b90508281526020810184848401111561034157610340610226565b5b61034c8482856102e8565b509392505050565b600082601f83011261036957610368610221565b5b8151610379848260208601610312565b91505092915050565b6000819050919050565b61039581610382565b81146103a057600080fd5b50565b6000815190506103b28161038c565b92915050565b600080600080608085870312156103d2576103d16101b9565b5b60006103e08782880161020c565b945050602085015167ffffffffffffffff811115610401576104006101be565b5b61040d87828801610354565b935050604085015167ffffffffffffffff81111561042e5761042d6101be565b5b61043a87828801610354565b925050606061044b878288016103a3565b91505092959194509250565b600081519050919050565b7f4e487b7100000000000000000000000000000000000000000000000000000000600052602260045260246000fd5b600060028204905060018216806104a957607f821691505b6020821081036104bc576104bb610462565b5b50919050565b60008190508160005260206000209050919050565b60006020601f8301049050919050565b600082821b905092915050565b6000600883026105247fffffffffffffffffffffffffffffffffffffffffffffffffffffffffffffffff826104e7565b61052e86836104e7565b95508019841693508086168417925050509392505050565b6000819050919050565b600061056b61056661056184610382565b610546565b610382565b9050919050565b6000819050919050565b61058583610550565b61059961059182610572565b8484546104f4565b825550505050565b600090565b6105ae6105a1565b6105b981848461057c565b505050565b5b818110156105dd576105d26000826105a6565b6001810190506105bf565b5050565b601f821115610622576105f3816104c2565b6105fc846104d7565b8101602085101561060b578190505b61061f610617856104d7565b8301826105be565b50505b505050565b600082821c905092915050565b600061064560001984600802610627565b1980831691505092915050565b600061065e8383610634565b9150826002028217905092915050565b61067782610457565b67ffffffffffffffff8111156106905761068f61023c565b5b61069a8254610491565b6106a58282856105e1565b600060209050601f8311600181146106d857600084156106c6578287015190505b6106d08582610652565b865550610738565b601f1984166106e6866104c2565b60005b8281101561070e578489015182556001820191506020850194506020810190506106e9565b8683101561072b5784890151610727601f891682610634565b8355505b6001600288020188555050505b505050505050565b610749816101e3565b82525050565b60006020820190506107646000830184610740565b92915050565b613030806107796000396000f3fe6080604052600436106101355760003560e01c806377097fc8116100ab578063c87b56dd1161006f578063c87b56dd146103f1578063cc28ec331461042e578063cd279c7c14610457578063e985e9c514610480578063eddd0d9c146104bd578063f2fde38b146104e657610135565b806377097fc81461032d5780638da5cb5b1461034957806395d89b4114610374578063a22cb4651461039f578063b88d4fde146103c857610135565b806323b872dd116100fd57806323b872dd146102335780633ccfd60b1461025c57806342842e0e146102735780636352211e1461029c57806370a08231146102d9578063715018a61461031657610135565b806301ffc9a71461013a57806306fdde0314610177578063081812fc146101a2578063095ea7b3146101df57806313966db514610208575b600080fd5b34801561014657600080fd5b50610161600480360381019061015c919061200d565b61050f565b60405161016e9190612055565b60405180910390f35b34801561018357600080fd5b5061018c610521565b6040516101999190612100565b60405180910390f35b3480156101ae57600080fd5b506101c960048036038101906101c49190612158565b6105b3565b6040516101d691906121c6565b60405180910390f35b3480156101eb57600080fd5b506102066004803603810190610201919061220d565b6105cf565b005b34801561021457600080fd5b5061021d6105e5565b60405161022a919061225c565b60405180910390f35b34801561023f57600080fd5b5061025a60048036038101906102559190612277565b6105eb565b005b34801561026857600080fd5b506102716106ed565b005b34801561027f57600080fd5b5061029a60048036038101906102959190612277565b6107ab565b005b3480156102a857600080fd5b506102c360048036038101906102be9190612158565b6107cb565b6040516102d091906121c6565b60405180910390f35b3480156102e557600080fd5b5061030060048036038101906102fb91906122ca565b6107dd565b60405161030d919061225c565b60405180910390f35b34801561032257600080fd5b5061032b610897565b005b6103476004803603810190610342919061242c565b6108ab565b005b34801561035557600080fd5b5061035e610995565b60405161036b91906121c6565b60405180910390f35b34801561038057600080fd5b506103896109bf565b6040516103969190612100565b60405180910390f35b3480156103ab57600080fd5b506103c660048036038101906103c191906124b4565b610a51565b005b3480156103d457600080fd5b506103ef60048036038101906103ea9190612595565b610a67565b005b3480156103fd57600080fd5b5061041860048036038101906104139190612158565b610a8c565b6040516104259190612100565b60405180910390f35b34801561043a57600080fd5b50610455600480360381019061045091906126fe565b610a9e565b005b34801561046357600080fd5b5061047e6004803603810190610479919061276d565b610be2565b005b34801561048c57600080fd5b506104a760048036038101906104a291906127dc565b610c90565b6040516104b49190612055565b60405180910390f35b3480156104c957600080fd5b506104e460048036038101906104df9190612158565b610d24565b005b3480156104f257600080fd5b5061050d600480360381019061050891906122ca565b610d36565b005b600061051a82610dbc565b9050919050565b6060600080546105309061284b565b80601f016020809104026020016040519081016040528092919081815260200182805461055c9061284b565b80156105a95780601f1061057e576101008083540402835291602001916105a9565b820191906000526020600020905b81548152906001019060200180831161058c57829003601f168201915b5050505050905090565b60006105be82610e1d565b506105c882610ea5565b9050919050565b6105e182826105dc610ee2565b610eea565b5050565b60095481565b600073ffffffffffffffffffffffffffffffffffffffff168273ffffffffffffffffffffffffffffffffffffffff160361065d5760006040517f64a0ae9200000000000000000000000000000000000000000000000000000000815260040161065491906121c6565b60405180910390fd5b6000610671838361066c610ee2565b610efc565b90508373ffffffffffffffffffffffffffffffffffffffff168173ffffffffffffffffffffffffffffffffffffffff16146106e7578382826040517f64283d7b0000000000000000000000000000000000000000000000000000000081526004016106de9392919061287c565b60405180910390fd5b50505050565b6106f5611116565b60006106ff610995565b73ffffffffffffffffffffffffffffffffffffffff1647604051610722906128e4565b60006040518083038185875af1925050503d806000811461075f576040519150601f19603f3d011682016040523d82523d6000602084013e610764565b606091505b50509050806107a8576040517f08c379a000000000000000000000000000000000000000000000000000000000815260040161079f90612945565b60405180910390fd5b50565b6107c683838360405180602001604052806000815250610a67565b505050565b60006107d682610e1d565b9050919050565b60008073ffffffffffffffffffffffffffffffffffffffff168273ffffffffffffffffffffffffffffffffffffffff16036108505760006040517f89c62b6400000000000000000000000000000000000000000000000000000000815260040161084791906121c6565b60405180910390fd5b600360008373ffffffffffffffffffffffffffffffffffffffff1673ffffffffffffffffffffffffffffffffffffffff168152602001908152602001600020549050919050565b61089f611116565b6108a9600061119d565b565b6009543410156108f0576040517f08c379a00000000000000000000000000000000000000000000000000000000081526004016108e7906129b1565b60405180910390fd5b600a600083815260200190815260200160002060009054906101000a900460ff1615610951576040517f08c379a000000000000000000000000000000000000000000000000000000000815260040161094890612a1d565b60405180910390fd5b6001600a600084815260200190815260200160002060006101000a81548160ff0219169083151502179055506109873383611263565b6109918282611281565b5050565b6000600760009054906101000a900473ffffffffffffffffffffffffffffffffffffffff16905090565b6060600180546109ce9061284b565b80601f01602080910402602001604051908101604052809291908181526020018280546109fa9061284b565b8015610a475780601f10610a1c57610100808354040283529160200191610a47565b820191906000526020600020905b815481529060010190602001808311610a2a57829003601f168201915b5050505050905090565b610a63610a5c610ee2565b83836112dd565b5050565b610a728484846105eb565b610a86610a7d610ee2565b8585858561144c565b50505050565b6060610a97826115fd565b9050919050565b610aa6611116565b80518214610ae9576040517f08c379a0000000000000000000000000000000000000000000000000000000008152600401610ae090612aaf565b60405180910390fd5b60005b82811015610bdc576000600854905060086000815480929190610b0e90612afe565b9190505550600a600082815260200190815260200160002060009054906101000a900460ff1615610b74576040517f08c379a0000000000000000000000000000000000000000000000000000000008152600401610b6b90612b92565b60405180910390fd5b6001600a600083815260200190815260200160002060006101000a81548160ff021916908315150217905550610baa8582611263565b610bce81848481518110610bc157610bc0612bb2565b5b6020026020010151611281565b508080600101915050610aec565b50505050565b610bea611116565b600a600083815260200190815260200160002060009054906101000a900460ff1615610c4b576040517f08c379a0000000000000000000000000000000000000000000000000000000008152600401610c4290612b92565b60405180910390fd5b6001600a600084815260200190815260200160002060006101000a81548160ff021916908315150217905550610c818383611263565b610c8b8282611281565b505050565b6000600560008473ffffffffffffffffffffffffffffffffffffffff1673ffffffffffffffffffffffffffffffffffffffff16815260200190815260200160002060008373ffffffffffffffffffffffffffffffffffffffff1673ffffffffffffffffffffffffffffffffffffffff16815260200190815260200160002060009054906101000a900460ff16905092915050565b610d2c611116565b8060098190555050565b610d3e611116565b600073ffffffffffffffffffffffffffffffffffffffff168173ffffffffffffffffffffffffffffffffffffffff1603610db05760006040517f1e4fbdf7000000000000000000000000000000000000000000000000000000008152600401610da791906121c6565b60405180910390fd5b610db98161119d565b50565b6000634906490660e01b7bffffffffffffffffffffffffffffffffffffffffffffffffffffffff1916827bffffffffffffffffffffffffffffffffffffffffffffffffffffffff19161480610e165750610e1582611710565b5b9050919050565b600080610e29836117f2565b9050600073ffffffffffffffffffffffffffffffffffffffff168173ffffffffffffffffffffffffffffffffffffffff1603610e9c57826040517f7e273289000000000000000000000000000000000000000000000000000000008152600401610e93919061225c565b60405180910390fd5b80915050919050565b60006004600083815260200190815260200160002060009054906101000a900473ffffffffffffffffffffffffffffffffffffffff169050919050565b600033905090565b610ef7838383600161182f565b505050565b600080610f08846117f2565b9050600073ffffffffffffffffffffffffffffffffffffffff168373ffffffffffffffffffffffffffffffffffffffff1614610f4a57610f498184866119f4565b5b600073ffffffffffffffffffffffffffffffffffffffff168173ffffffffffffffffffffffffffffffffffffffff1614610fdb57610f8c60008560008061182f565b6001600360008373ffffffffffffffffffffffffffffffffffffffff1673ffffffffffffffffffffffffffffffffffffffff168152602001908152602001600020600082825403925050819055505b600073ffffffffffffffffffffffffffffffffffffffff168573ffffffffffffffffffffffffffffffffffffffff161461105e576001600360008773ffffffffffffffffffffffffffffffffffffffff1673ffffffffffffffffffffffffffffffffffffffff168152602001908152602001600020600082825401925050819055505b846002600086815260200190815260200160002060006101000a81548173ffffffffffffffffffffffffffffffffffffffff021916908373ffffffffffffffffffffffffffffffffffffffff160217905550838573ffffffffffffffffffffffffffffffffffffffff168273ffffffffffffffffffffffffffffffffffffffff167fddf252ad1be2c89b69c2b068fc378daa952ba7f163c4a11628f55a4df523b3ef60405160405180910390a4809150509392505050565b61111e610ee2565b73ffffffffffffffffffffffffffffffffffffffff1661113c610995565b73ffffffffffffffffffffffffffffffffffffffff161461119b5761115f610ee2565b6040517f118cdaa700000000000000000000000000000000000000000000000000000000815260040161119291906121c6565b60405180910390fd5b565b6000600760009054906101000a900473ffffffffffffffffffffffffffffffffffffffff16905081600760006101000a81548173ffffffffffffffffffffffffffffffffffffffff021916908373ffffffffffffffffffffffffffffffffffffffff1602179055508173ffffffffffffffffffffffffffffffffffffffff168173ffffffffffffffffffffffffffffffffffffffff167f8be0079c531659141344cd1fd0a4f28419497f9722a3daafe3b4186f6b6457e060405160405180910390a35050565b61127d828260405180602001604052806000815250611ab8565b5050565b806006600084815260200190815260200160002090816112a19190612d8d565b507ff8e1a15aba9398e019f0b49df1a4fde98ee17ae345cb5f6b5e2c27f5033e8ce7826040516112d1919061225c565b60405180910390a15050565b600073ffffffffffffffffffffffffffffffffffffffff168273ffffffffffffffffffffffffffffffffffffffff160361134e57816040517f5b08ba1800000000000000000000000000000000000000000000000000000000815260040161134591906121c6565b60405180910390fd5b80600560008573ffffffffffffffffffffffffffffffffffffffff1673ffffffffffffffffffffffffffffffffffffffff16815260200190815260200160002060008473ffffffffffffffffffffffffffffffffffffffff1673ffffffffffffffffffffffffffffffffffffffff16815260200190815260200160002060006101000a81548160ff0219169083151502179055508173ffffffffffffffffffffffffffffffffffffffff168373ffffffffffffffffffffffffffffffffffffffff167f17307eab39ab6107e8899845ad3d59bd9653f200f220920489ca2b5937696c318360405161143f9190612055565b60405180910390a3505050565b60008373ffffffffffffffffffffffffffffffffffffffff163b11156115f6578273ffffffffffffffffffffffffffffffffffffffff1663150b7a02868685856040518563ffffffff1660e01b81526004016114ab9493929190612eb4565b6020604051808303816000875af19250505080156114e757506040513d601f19601f820116820180604052508101906114e49190612f15565b60015b61156b573d8060008114611517576040519150601f19603f3d011682016040523d82523d6000602084013e61151c565b606091505b50600081510361156357836040517f64a0ae9200000000000000000000000000000000000000000000000000000000815260040161155a91906121c6565b60405180910390fd5b805181602001fd5b63150b7a0260e01b7bffffffffffffffffffffffffffffffffffffffffffffffffffffffff1916817bffffffffffffffffffffffffffffffffffffffffffffffffffffffff1916146115f457836040517f64a0ae920000000000000000000000000000000000000000000000000000000081526004016115eb91906121c6565b60405180910390fd5b505b5050505050565b606061160882610e1d565b5060006006600084815260200190815260200160002080546116299061284b565b80601f01602080910402602001604051908101604052809291908181526020018280546116559061284b565b80156116a25780601f10611677576101008083540402835291602001916116a2565b820191906000526020600020905b81548152906001019060200180831161168557829003601f168201915b5050505050905060006116b3611adc565b905060008151036116c857819250505061170b565b6000825111156116fd5780826040516020016116e5929190612f7e565b6040516020818303038152906040529250505061170b565b61170684611af3565b925050505b919050565b60007f80ac58cd000000000000000000000000000000000000000000000000000000007bffffffffffffffffffffffffffffffffffffffffffffffffffffffff1916827bffffffffffffffffffffffffffffffffffffffffffffffffffffffff191614806117db57507f5b5e139f000000000000000000000000000000000000000000000000000000007bffffffffffffffffffffffffffffffffffffffffffffffffffffffff1916827bffffffffffffffffffffffffffffffffffffffffffffffffffffffff1916145b806117eb57506117ea82611b5c565b5b9050919050565b60006002600083815260200190815260200160002060009054906101000a900473ffffffffffffffffffffffffffffffffffffffff169050919050565b80806118685750600073ffffffffffffffffffffffffffffffffffffffff168273ffffffffffffffffffffffffffffffffffffffff1614155b1561199c57600061187884610e1d565b9050600073ffffffffffffffffffffffffffffffffffffffff168373ffffffffffffffffffffffffffffffffffffffff16141580156118e357508273ffffffffffffffffffffffffffffffffffffffff168173ffffffffffffffffffffffffffffffffffffffff1614155b80156118f657506118f48184610c90565b155b1561193857826040517fa9fbf51f00000000000000000000000000000000000000000000000000000000815260040161192f91906121c6565b60405180910390fd5b811561199a57838573ffffffffffffffffffffffffffffffffffffffff168273ffffffffffffffffffffffffffffffffffffffff167f8c5be1e5ebec7d5bd14f71427d1e84f3dd0314c0f7b2291e5b200ac8c7c3b92560405160405180910390a45b505b836004600085815260200190815260200160002060006101000a81548173ffffffffffffffffffffffffffffffffffffffff021916908373ffffffffffffffffffffffffffffffffffffffff16021790555050505050565b6119ff838383611bc6565b611ab357600073ffffffffffffffffffffffffffffffffffffffff168373ffffffffffffffffffffffffffffffffffffffff1603611a7457806040517f7e273289000000000000000000000000000000000000000000000000000000008152600401611a6b919061225c565b60405180910390fd5b81816040517f177e802f000000000000000000000000000000000000000000000000000000008152600401611aaa929190612fa2565b60405180910390fd5b505050565b611ac28383611c87565b611ad7611acd610ee2565b600085858561144c565b505050565b606060405180602001604052806000815250905090565b6060611afe82610e1d565b506000611b09611adc565b90506000815111611b295760405180602001604052806000815250611b54565b80611b3384611d80565b604051602001611b44929190612f7e565b6040516020818303038152906040525b915050919050565b60007f01ffc9a7000000000000000000000000000000000000000000000000000000007bffffffffffffffffffffffffffffffffffffffffffffffffffffffff1916827bffffffffffffffffffffffffffffffffffffffffffffffffffffffff1916149050919050565b60008073ffffffffffffffffffffffffffffffffffffffff168373ffffffffffffffffffffffffffffffffffffffff1614158015611c7e57508273ffffffffffffffffffffffffffffffffffffffff168473ffffffffffffffffffffffffffffffffffffffff161480611c3f5750611c3e8484610c90565b5b80611c7d57508273ffffffffffffffffffffffffffffffffffffffff16611c6583610ea5565b73ffffffffffffffffffffffffffffffffffffffff16145b5b90509392505050565b600073ffffffffffffffffffffffffffffffffffffffff168273ffffffffffffffffffffffffffffffffffffffff1603611cf95760006040517f64a0ae92000000000000000000000000000000000000000000000000000000008152600401611cf091906121c6565b60405180910390fd5b6000611d0783836000610efc565b9050600073ffffffffffffffffffffffffffffffffffffffff168173ffffffffffffffffffffffffffffffffffffffff1614611d7b5760006040517f73c6ac6e000000000000000000000000000000000000000000000000000000008152600401611d7291906121c6565b60405180910390fd5b505050565b606060006001611d8f84611e4e565b01905060008167ffffffffffffffff811115611dae57611dad612301565b5b6040519080825280601f01601f191660200182016040528015611de05781602001600182028036833780820191505090505b509050600082602001820190505b600115611e43578080600190039150507f3031323334353637383961626364656600000000000000000000000000000000600a86061a8153600a8581611e3757611e36612fcb565b5b04945060008503611dee575b819350505050919050565b600080600090507a184f03e93ff9f4daa797ed6e38ed64bf6a1f0100000000000000008310611eac577a184f03e93ff9f4daa797ed6e38ed64bf6a1f0100000000000000008381611ea257611ea1612fcb565b5b0492506040810190505b6d04ee2d6d415b85acef81000000008310611ee9576d04ee2d6d415b85acef81000000008381611edf57611ede612fcb565b5b0492506020810190505b662386f26fc100008310611f1857662386f26fc100008381611f0e57611f0d612fcb565b5b0492506010810190505b6305f5e1008310611f41576305f5e1008381611f3757611f36612fcb565b5b0492506008810190505b6127108310611f66576127108381611f5c57611f5b612fcb565b5b0492506004810190505b60648310611f895760648381611f7f57611f7e612fcb565b5b0492506002810190505b600a8310611f98576001810190505b80915050919050565b6000604051905090565b600080fd5b600080fd5b60007fffffffff0000000000000000000000000000000000000000000000000000000082169050919050565b611fea81611fb5565b8114611ff557600080fd5b50565b60008135905061200781611fe1565b92915050565b60006020828403121561202357612022611fab565b5b600061203184828501611ff8565b91505092915050565b60008115159050919050565b61204f8161203a565b82525050565b600060208201905061206a6000830184612046565b92915050565b600081519050919050565b600082825260208201905092915050565b60005b838110156120aa57808201518184015260208101905061208f565b60008484015250505050565b6000601f19601f8301169050919050565b60006120d282612070565b6120dc818561207b565b93506120ec81856020860161208c565b6120f5816120b6565b840191505092915050565b6000602082019050818103600083015261211a81846120c7565b905092915050565b6000819050919050565b61213581612122565b811461214057600080fd5b50565b6000813590506121528161212c565b92915050565b60006020828403121561216e5761216d611fab565b5b600061217c84828501612143565b91505092915050565b600073ffffffffffffffffffffffffffffffffffffffff82169050919050565b60006121b082612185565b9050919050565b6121c0816121a5565b82525050565b60006020820190506121db60008301846121b7565b92915050565b6121ea816121a5565b81146121f557600080fd5b50565b600081359050612207816121e1565b92915050565b6000806040838503121561222457612223611fab565b5b6000612232858286016121f8565b925050602061224385828601612143565b9150509250929050565b61225681612122565b82525050565b6000602082019050612271600083018461224d565b92915050565b6000806000606084860312156122905761228f611fab565b5b600061229e868287016121f8565b93505060206122af868287016121f8565b92505060406122c086828701612143565b9150509250925092565b6000602082840312156122e0576122df611fab565b5b60006122ee848285016121f8565b91505092915050565b600080fd5b600080fd5b7f4e487b7100000000000000000000000000000000000000000000000000000000600052604160045260246000fd5b612339826120b6565b810181811067ffffffffffffffff8211171561235857612357612301565b5b80604052505050565b600061236b611fa1565b90506123778282612330565b919050565b600067ffffffffffffffff82111561239757612396612301565b5b6123a0826120b6565b9050602081019050919050565b82818337600083830152505050565b60006123cf6123ca8461237c565b612361565b9050828152602081018484840111156123eb576123ea6122fc565b5b6123f68482856123ad565b509392505050565b600082601f830112612413576124126122f7565b5b81356124238482602086016123bc565b91505092915050565b6000806040838503121561244357612442611fab565b5b600061245185828601612143565b925050602083013567ffffffffffffffff81111561247257612471611fb0565b5b61247e858286016123fe565b9150509250929050565b6124918161203a565b811461249c57600080fd5b50565b6000813590506124ae81612488565b92915050565b600080604083850312156124cb576124ca611fab565b5b60006124d9858286016121f8565b92505060206124ea8582860161249f565b9150509250929050565b600067ffffffffffffffff82111561250f5761250e612301565b5b612518826120b6565b9050602081019050919050565b6000612538612533846124f4565b612361565b905082815260208101848484011115612554576125536122fc565b5b61255f8482856123ad565b509392505050565b600082601f83011261257c5761257b6122f7565b5b813561258c848260208601612525565b91505092915050565b600080600080608085870312156125af576125ae611fab565b5b60006125bd878288016121f8565b94505060206125ce878288016121f8565b93505060406125df87828801612143565b925050606085013567ffffffffffffffff811115612600576125ff611fb0565b5b61260c87828801612567565b91505092959194509250565b600067ffffffffffffffff82111561263357612632612301565b5b602082029050602081019050919050565b600080fd5b600061265c61265784612618565b612361565b9050808382526020820190506020840283018581111561267f5761267e612644565b5b835b818110156126c657803567ffffffffffffffff8111156126a4576126a36122f7565b5b8086016126b189826123fe565b85526020850194505050602081019050612681565b5050509392505050565b600082601f8301126126e5576126e46122f7565b5b81356126f5848260208601612649565b91505092915050565b60008060006060848603121561271757612716611fab565b5b6000612725868287016121f8565b935050602061273686828701612143565b925050604084013567ffffffffffffffff81111561275757612756611fb0565b5b612763868287016126d0565b9150509250925092565b60008060006060848603121561278657612785611fab565b5b6000612794868287016121f8565b93505060206127a586828701612143565b925050604084013567ffffffffffffffff8111156127c6576127c5611fb0565b5b6127d2868287016123fe565b9150509250925092565b600080604083850312156127f3576127f2611fab565b5b6000612801858286016121f8565b9250506020612812858286016121f8565b9150509250929050565b7f4e487b7100000000000000000000000000000000000000000000000000000000600052602260045260246000fd5b6000600282049050600182168061286357607f821691505b6020821081036128765761287561281c565b5b50919050565b600060608201905061289160008301866121b7565b61289e602083018561224d565b6128ab60408301846121b7565b949350505050565b600081905092915050565b50565b60006128ce6000836128b3565b91506128d9826128be565b600082019050919050565b60006128ef826128c1565b9150819050919050565b7f5472616e73666572206661696c65640000000000000000000000000000000000600082015250565b600061292f600f8361207b565b915061293a826128f9565b602082019050919050565b6000602082019050818103600083015261295e81612922565b9050919050565b7f496e73756666696369656e74207061796d656e74000000000000000000000000600082015250565b600061299b60148361207b565b91506129a682612965565b602082019050919050565b600060208201905081810360008301526129ca8161298e565b9050919050565b7f546f6b656e20616c7265616479206d696e746564000000000000000000000000600082015250565b6000612a0760148361207b565b9150612a12826129d1565b602082019050919050565b60006020820190508181036000830152612a36816129fa565b9050919050565b7f4d69736d61746368206265747765656e207175616e7469747920616e6420555260008201527f4973000000000000000000000000000000000000000000000000000000000000602082015250565b6000612a9960228361207b565b9150612aa482612a3d565b604082019050919050565b60006020820190508181036000830152612ac881612a8c565b9050919050565b7f4e487b7100000000000000000000000000000000000000000000000000000000600052601160045260246000fd5b6000612b0982612122565b91507fffffffffffffffffffffffffffffffffffffffffffffffffffffffffffffffff8203612b3b57612b3a612acf565b5b600182019050919050565b7f546f6b656e20494420616c7265616479206d696e746564000000000000000000600082015250565b6000612b7c60178361207b565b9150612b8782612b46565b602082019050919050565b60006020820190508181036000830152612bab81612b6f565b9050919050565b7f4e487b7100000000000000000000000000000000000000000000000000000000600052603260045260246000fd5b60008190508160005260206000209050919050565b60006020601f8301049050919050565b600082821b905092915050565b600060088302612c437fffffffffffffffffffffffffffffffffffffffffffffffffffffffffffffffff82612c06565b612c4d8683612c06565b95508019841693508086168417925050509392505050565b6000819050919050565b6000612c8a612c85612c8084612122565b612c65565b612122565b9050919050565b6000819050919050565b612ca483612c6f565b612cb8612cb082612c91565b848454612c13565b825550505050565b600090565b612ccd612cc0565b612cd8818484612c9b565b505050565b5b81811015612cfc57612cf1600082612cc5565b600181019050612cde565b5050565b601f821115612d4157612d1281612be1565b612d1b84612bf6565b81016020851015612d2a578190505b612d3e612d3685612bf6565b830182612cdd565b50505b505050565b600082821c905092915050565b6000612d6460001984600802612d46565b1980831691505092915050565b6000612d7d8383612d53565b9150826002028217905092915050565b612d9682612070565b67ffffffffffffffff811115612daf57612dae612301565b5b612db9825461284b565b612dc4828285612d00565b600060209050601f831160018114612df75760008415612de5578287015190505b612def8582612d71565b865550612e57565b601f198416612e0586612be1565b60005b82811015612e2d57848901518255600182019150602085019450602081019050612e08565b86831015612e4a5784890151612e46601f891682612d53565b8355505b6001600288020188555050505b505050505050565b600081519050919050565b600082825260208201905092915050565b6000612e8682612e5f565b612e908185612e6a565b9350612ea081856020860161208c565b612ea9816120b6565b840191505092915050565b6000608082019050612ec960008301876121b7565b612ed660208301866121b7565b612ee3604083018561224d565b8181036060830152612ef58184612e7b565b905095945050505050565b600081519050612f0f81611fe1565b92915050565b600060208284031215612f2b57612f2a611fab565b5b6000612f3984828501612f00565b91505092915050565b600081905092915050565b6000612f5882612070565b612f628185612f42565b9350612f7281856020860161208c565b80840191505092915050565b6000612f8a8285612f4d565b9150612f968284612f4d565b91508190509392505050565b6000604082019050612fb760008301856121b7565b612fc4602083018461224d565b9392505050565b7f4e487b7100000000000000000000000000000000000000000000000000000000600052601260045260246000fdfea2646970667358221220be2bcc05114c4df5a82f1fa1da0d4789a68bd353306da060df74f8b2e12b906964736f6c634300081b0033",
  "linkReferences": {},
  "deployedLinkReferences": {}
}