{
  "_format": "hh-sol-artifact-1",
  "contractName": "MPMNFT",
  "sourceName": "contracts/MPMNFT.sol",
  "abi": [
    {
      "inputs": [
        {
          "internalType": "address",
          "name": "initialOwner",
          "type": "address"
        },
        {
          "internalType": "string",
          "name": "contractName",
          "type": "string"
        },
        {
          "internalType": "string",
          "name": "symbol",
          "type": "string"
        }
      ],
      "stateMutability": "nonpayable",
      "type": "constructor"
    },
    {
      "inputs": [
        {
          "internalType": "address",
          "name": "sender",
          "type": "address"
        },
        {
          "internalType": "uint256",
          "name": "tokenId",
          "type": "uint256"
        },
        {
          "internalType": "address",
          "name": "owner",
          "type": "address"
        }
      ],
      "name": "ERC721IncorrectOwner",
      "type": "error"
    },
    {
      "inputs": [
        {
          "internalType": "address",
          "name": "operator",
          "type": "address"
        },
        {
          "internalType": "uint256",
          "name": "tokenId",
          "type": "uint256"
        }
      ],
      "name": "ERC721InsufficientApproval",
      "type": "error"
    },
    {
      "inputs": [
        {
          "internalType": "address",
          "name": "approver",
          "type": "address"
        }
      ],
      "name": "ERC721InvalidApprover",
      "type": "error"
    },
    {
      "inputs": [
        {
          "internalType": "address",
          "name": "operator",
          "type": "address"
        }
      ],
      "name": "ERC721InvalidOperator",
      "type": "error"
    },
    {
      "inputs": [
        {
          "internalType": "address",
          "name": "owner",
          "type": "address"
        }
      ],
      "name": "ERC721InvalidOwner",
      "type": "error"
    },
    {
      "inputs": [
        {
          "internalType": "address",
          "name": "receiver",
          "type": "address"
        }
      ],
      "name": "ERC721InvalidReceiver",
      "type": "error"
    },
    {
      "inputs": [
        {
          "internalType": "address",
          "name": "sender",
          "type": "address"
        }
      ],
      "name": "ERC721InvalidSender",
      "type": "error"
    },
    {
      "inputs": [
        {
          "internalType": "uint256",
          "name": "tokenId",
          "type": "uint256"
        }
      ],
      "name": "ERC721NonexistentToken",
      "type": "error"
    },
    {
      "inputs": [],
      "name": "EnforcedPause",
      "type": "error"
    },
    {
      "inputs": [],
      "name": "ExpectedPause",
      "type": "error"
    },
    {
      "inputs": [
        {
          "internalType": "address",
          "name": "owner",
          "type": "address"
        }
      ],
      "name": "OwnableInvalidOwner",
      "type": "error"
    },
    {
      "inputs": [
        {
          "internalType": "address",
          "name": "account",
          "type": "address"
        }
      ],
      "name": "OwnableUnauthorizedAccount",
      "type": "error"
    },
    {
      "anonymous": false,
      "inputs": [
        {
          "indexed": true,
          "internalType": "address",
          "name": "owner",
          "type": "address"
        },
        {
          "indexed": true,
          "internalType": "address",
          "name": "approved",
          "type": "address"
        },
        {
          "indexed": true,
          "internalType": "uint256",
          "name": "tokenId",
          "type": "uint256"
        }
      ],
      "name": "Approval",
      "type": "event"
    },
    {
      "anonymous": false,
      "inputs": [
        {
          "indexed": true,
          "internalType": "address",
          "name": "owner",
          "type": "address"
        },
        {
          "indexed": true,
          "internalType": "address",
          "name": "operator",
          "type": "address"
        },
        {
          "indexed": false,
          "internalType": "bool",
          "name": "approved",
          "type": "bool"
        }
      ],
      "name": "ApprovalForAll",
      "type": "event"
    },
    {
      "anonymous": false,
      "inputs": [
        {
          "indexed": true,
          "internalType": "address",
          "name": "previousOwner",
          "type": "address"
        },
        {
          "indexed": true,
          "internalType": "address",
          "name": "newOwner",
          "type": "address"
        }
      ],
      "name": "OwnershipTransferred",
      "type": "event"
    },
    {
      "anonymous": false,
      "inputs": [
        {
          "indexed": false,
          "internalType": "address",
          "name": "account",
          "type": "address"
        }
      ],
      "name": "Paused",
      "type": "event"
    },
    {
      "anonymous": false,
      "inputs": [
        {
          "indexed": true,
          "internalType": "address",
          "name": "from",
          "type": "address"
        },
        {
          "indexed": true,
          "internalType": "address",
          "name": "to",
          "type": "address"
        },
        {
          "indexed": true,
          "internalType": "uint256",
          "name": "tokenId",
          "type": "uint256"
        }
      ],
      "name": "Transfer",
      "type": "event"
    },
    {
      "anonymous": false,
      "inputs": [
        {
          "indexed": false,
          "internalType": "address",
          "name": "account",
          "type": "address"
        }
      ],
      "name": "Unpaused",
      "type": "event"
    },
    {
      "inputs": [
        {
          "internalType": "address",
          "name": "to",
          "type": "address"
        },
        {
          "internalType": "uint256",
          "name": "tokenId",
          "type": "uint256"
        }
      ],
      "name": "approve",
      "outputs": [],
      "stateMutability": "nonpayable",
      "type": "function"
    },
    {
      "inputs": [
        {
          "internalType": "address",
          "name": "owner",
          "type": "address"
        }
      ],
      "name": "balanceOf",
      "outputs": [
        {
          "internalType": "uint256",
          "name": "",
          "type": "uint256"
        }
      ],
      "stateMutability": "view",
      "type": "function"
    },
    {
      "inputs": [
        {
          "internalType": "uint256",
          "name": "tokenId",
          "type": "uint256"
        }
      ],
      "name": "burn",
      "outputs": [],
      "stateMutability": "nonpayable",
      "type": "function"
    },
    {
      "inputs": [
        {
          "internalType": "uint256",
          "name": "tokenId",
          "type": "uint256"
        }
      ],
      "name": "getApproved",
      "outputs": [
        {
          "internalType": "address",
          "name": "",
          "type": "address"
        }
      ],
      "stateMutability": "view",
      "type": "function"
    },
    {
      "inputs": [
        {
          "internalType": "address",
          "name": "owner",
          "type": "address"
        },
        {
          "internalType": "address",
          "name": "operator",
          "type": "address"
        }
      ],
      "name": "isApprovedForAll",
      "outputs": [
        {
          "internalType": "bool",
          "name": "",
          "type": "bool"
        }
      ],
      "stateMutability": "view",
      "type": "function"
    },
    {
      "inputs": [],
      "name": "name",
      "outputs": [
        {
          "internalType": "string",
          "name": "",
          "type": "string"
        }
      ],
      "stateMutability": "view",
      "type": "function"
    },
    {
      "inputs": [],
      "name": "owner",
      "outputs": [
        {
          "internalType": "address",
          "name": "",
          "type": "address"
        }
      ],
      "stateMutability": "view",
      "type": "function"
    },
    {
      "inputs": [
        {
          "internalType": "uint256",
          "name": "tokenId",
          "type": "uint256"
        }
      ],
      "name": "ownerOf",
      "outputs": [
        {
          "internalType": "address",
          "name": "",
          "type": "address"
        }
      ],
      "stateMutability": "view",
      "type": "function"
    },
    {
      "inputs": [],
      "name": "pause",
      "outputs": [],
      "stateMutability": "nonpayable",
      "type": "function"
    },
    {
      "inputs": [],
      "name": "paused",
      "outputs": [
        {
          "internalType": "bool",
          "name": "",
          "type": "bool"
        }
      ],
      "stateMutability": "view",
      "type": "function"
    },
    {
      "inputs": [],
      "name": "renounceOwnership",
      "outputs": [],
      "stateMutability": "nonpayable",
      "type": "function"
    },
    {
      "inputs": [
        {
          "internalType": "address",
          "name": "to",
          "type": "address"
        },
        {
          "internalType": "uint256",
          "name": "tokenId",
          "type": "uint256"
        }
      ],
      "name": "safeMint",
      "outputs": [],
      "stateMutability": "nonpayable",
      "type": "function"
    },
    {
      "inputs": [
        {
          "internalType": "address",
          "name": "from",
          "type": "address"
        },
        {
          "internalType": "address",
          "name": "to",
          "type": "address"
        },
        {
          "internalType": "uint256",
          "name": "tokenId",
          "type": "uint256"
        }
      ],
      "name": "safeTransferFrom",
      "outputs": [],
      "stateMutability": "nonpayable",
      "type": "function"
    },
    {
      "inputs": [
        {
          "internalType": "address",
          "name": "from",
          "type": "address"
        },
        {
          "internalType": "address",
          "name": "to",
          "type": "address"
        },
        {
          "internalType": "uint256",
          "name": "tokenId",
          "type": "uint256"
        },
        {
          "internalType": "bytes",
          "name": "data",
          "type": "bytes"
        }
      ],
      "name": "safeTransferFrom",
      "outputs": [],
      "stateMutability": "nonpayable",
      "type": "function"
    },
    {
      "inputs": [
        {
          "internalType": "address",
          "name": "operator",
          "type": "address"
        },
        {
          "internalType": "bool",
          "name": "approved",
          "type": "bool"
        }
      ],
      "name": "setApprovalForAll",
      "outputs": [],
      "stateMutability": "nonpayable",
      "type": "function"
    },
    {
      "inputs": [
        {
          "internalType": "bytes4",
          "name": "interfaceId",
          "type": "bytes4"
        }
      ],
      "name": "supportsInterface",
      "outputs": [
        {
          "internalType": "bool",
          "name": "",
          "type": "bool"
        }
      ],
      "stateMutability": "view",
      "type": "function"
    },
    {
      "inputs": [],
      "name": "symbol",
      "outputs": [
        {
          "internalType": "string",
          "name": "",
          "type": "string"
        }
      ],
      "stateMutability": "view",
      "type": "function"
    },
    {
      "inputs": [
        {
          "internalType": "uint256",
          "name": "tokenId",
          "type": "uint256"
        }
      ],
      "name": "tokenURI",
      "outputs": [
        {
          "internalType": "string",
          "name": "",
          "type": "string"
        }
      ],
      "stateMutability": "view",
      "type": "function"
    },
    {
      "inputs": [
        {
          "internalType": "address",
          "name": "from",
          "type": "address"
        },
        {
          "internalType": "address",
          "name": "to",
          "type": "address"
        },
        {
          "internalType": "uint256",
          "name": "tokenId",
          "type": "uint256"
        }
      ],
      "name": "transferFrom",
      "outputs": [],
      "stateMutability": "nonpayable",
      "type": "function"
    },
    {
      "inputs": [
        {
          "internalType": "address",
          "name": "newOwner",
          "type": "address"
        }
      ],
      "name": "transferOwnership",
      "outputs": [],
      "stateMutability": "nonpayable",
      "type": "function"
    },
    {
      "inputs": [],
      "name": "unpause",
      "outputs": [],
      "stateMutability": "nonpayable",
      "type": "function"
    }
  ],
  "bytecode": "0x608060405234801561001057600080fd5b50604051612a0f380380612a0f83398181016040528101906100329190610395565b82828281600090816100449190610641565b5080600190816100549190610641565b5050506000600660006101000a81548160ff021916908315150217905550600073ffffffffffffffffffffffffffffffffffffffff168173ffffffffffffffffffffffffffffffffffffffff16036100e45760006040517f1e4fbdf70000000000000000000000000000000000000000000000000000000081526004016100db9190610722565b60405180910390fd5b6100f3816100fc60201b60201c565b5050505061073d565b6000600660019054906101000a900473ffffffffffffffffffffffffffffffffffffffff16905081600660016101000a81548173ffffffffffffffffffffffffffffffffffffffff021916908373ffffffffffffffffffffffffffffffffffffffff1602179055508173ffffffffffffffffffffffffffffffffffffffff168173ffffffffffffffffffffffffffffffffffffffff167f8be0079c531659141344cd1fd0a4f28419497f9722a3daafe3b4186f6b6457e060405160405180910390a35050565b6000604051905090565b600080fd5b600080fd5b600073ffffffffffffffffffffffffffffffffffffffff82169050919050565b6000610201826101d6565b9050919050565b610211816101f6565b811461021c57600080fd5b50565b60008151905061022e81610208565b92915050565b600080fd5b600080fd5b6000601f19601f8301169050919050565b7f4e487b7100000000000000000000000000000000000000000000000000000000600052604160045260246000fd5b6102878261023e565b810181811067ffffffffffffffff821117156102a6576102a561024f565b5b80604052505050565b60006102b96101c2565b90506102c5828261027e565b919050565b600067ffffffffffffffff8211156102e5576102e461024f565b5b6102ee8261023e565b9050602081019050919050565b60005b838110156103195780820151818401526020810190506102fe565b60008484015250505050565b6000610338610333846102ca565b6102af565b90508281526020810184848401111561035457610353610239565b5b61035f8482856102fb565b509392505050565b600082601f83011261037c5761037b610234565b5b815161038c848260208601610325565b91505092915050565b6000806000606084860312156103ae576103ad6101cc565b5b60006103bc8682870161021f565b935050602084015167ffffffffffffffff8111156103dd576103dc6101d1565b5b6103e986828701610367565b925050604084015167ffffffffffffffff81111561040a576104096101d1565b5b61041686828701610367565b9150509250925092565b600081519050919050565b7f4e487b7100000000000000000000000000000000000000000000000000000000600052602260045260246000fd5b6000600282049050600182168061047257607f821691505b6020821081036104855761048461042b565b5b50919050565b60008190508160005260206000209050919050565b60006020601f8301049050919050565b600082821b905092915050565b6000600883026104ed7fffffffffffffffffffffffffffffffffffffffffffffffffffffffffffffffff826104b0565b6104f786836104b0565b95508019841693508086168417925050509392505050565b6000819050919050565b6000819050919050565b600061053e6105396105348461050f565b610519565b61050f565b9050919050565b6000819050919050565b61055883610523565b61056c61056482610545565b8484546104bd565b825550505050565b600090565b610581610574565b61058c81848461054f565b505050565b5b818110156105b0576105a5600082610579565b600181019050610592565b5050565b601f8211156105f5576105c68161048b565b6105cf846104a0565b810160208510156105de578190505b6105f26105ea856104a0565b830182610591565b50505b505050565b600082821c905092915050565b6000610618600019846008026105fa565b1980831691505092915050565b60006106318383610607565b9150826002028217905092915050565b61064a82610420565b67ffffffffffffffff8111156106635761066261024f565b5b61066d825461045a565b6106788282856105b4565b600060209050601f8311600181146106ab5760008415610699578287015190505b6106a38582610625565b86555061070b565b601f1984166106b98661048b565b60005b828110156106e1578489015182556001820191506020850194506020810190506106bc565b868310156106fe57848901516106fa601f891682610607565b8355505b6001600288020188555050505b505050505050565b61071c816101f6565b82525050565b60006020820190506107376000830184610713565b92915050565b6122c38061074c6000396000f3fe608060405234801561001057600080fd5b50600436106101375760003560e01c806370a08231116100b8578063a14481941161007c578063a144819414610302578063a22cb4651461031e578063b88d4fde1461033a578063c87b56dd14610356578063e985e9c514610386578063f2fde38b146103b657610137565b806370a0823114610282578063715018a6146102b25780638456cb59146102bc5780638da5cb5b146102c657806395d89b41146102e457610137565b80633f4ba83a116100ff5780633f4ba83a146101f257806342842e0e146101fc57806342966c68146102185780635c975abb146102345780636352211e1461025257610137565b806301ffc9a71461013c57806306fdde031461016c578063081812fc1461018a578063095ea7b3146101ba57806323b872dd146101d6575b600080fd5b61015660048036038101906101519190611b0d565b6103d2565b6040516101639190611b55565b60405180910390f35b6101746104b4565b6040516101819190611c00565b60405180910390f35b6101a4600480360381019061019f9190611c58565b610546565b6040516101b19190611cc6565b60405180910390f35b6101d460048036038101906101cf9190611d0d565b610562565b005b6101f060048036038101906101eb9190611d4d565b610578565b005b6101fa61067a565b005b61021660048036038101906102119190611d4d565b61068c565b005b610232600480360381019061022d9190611c58565b6106ac565b005b61023c6106c3565b6040516102499190611b55565b60405180910390f35b61026c60048036038101906102679190611c58565b6106da565b6040516102799190611cc6565b60405180910390f35b61029c60048036038101906102979190611da0565b6106ec565b6040516102a99190611ddc565b60405180910390f35b6102ba6107a6565b005b6102c46107ba565b005b6102ce6107cc565b6040516102db9190611cc6565b60405180910390f35b6102ec6107f6565b6040516102f99190611c00565b60405180910390f35b61031c60048036038101906103179190611d0d565b610888565b005b61033860048036038101906103339190611e23565b61089e565b005b610354600480360381019061034f9190611f98565b6108b4565b005b610370600480360381019061036b9190611c58565b6108d9565b60405161037d9190611c00565b60405180910390f35b6103a0600480360381019061039b919061201b565b610942565b6040516103ad9190611b55565b60405180910390f35b6103d060048036038101906103cb9190611da0565b6109d6565b005b60007f80ac58cd000000000000000000000000000000000000000000000000000000007bffffffffffffffffffffffffffffffffffffffffffffffffffffffff1916827bffffffffffffffffffffffffffffffffffffffffffffffffffffffff1916148061049d57507f5b5e139f000000000000000000000000000000000000000000000000000000007bffffffffffffffffffffffffffffffffffffffffffffffffffffffff1916827bffffffffffffffffffffffffffffffffffffffffffffffffffffffff1916145b806104ad57506104ac82610a5c565b5b9050919050565b6060600080546104c39061208a565b80601f01602080910402602001604051908101604052809291908181526020018280546104ef9061208a565b801561053c5780601f106105115761010080835404028352916020019161053c565b820191906000526020600020905b81548152906001019060200180831161051f57829003601f168201915b5050505050905090565b600061055182610ac6565b5061055b82610b4e565b9050919050565b610574828261056f610b8b565b610b93565b5050565b600073ffffffffffffffffffffffffffffffffffffffff168273ffffffffffffffffffffffffffffffffffffffff16036105ea5760006040517f64a0ae920000000000000000000000000000000000000000000000000000000081526004016105e19190611cc6565b60405180910390fd5b60006105fe83836105f9610b8b565b610ba5565b90508373ffffffffffffffffffffffffffffffffffffffff168173ffffffffffffffffffffffffffffffffffffffff1614610674578382826040517f64283d7b00000000000000000000000000000000000000000000000000000000815260040161066b939291906120bb565b60405180910390fd5b50505050565b610682610bbb565b61068a610c42565b565b6106a7838383604051806020016040528060008152506108b4565b505050565b6106bf6000826106ba610b8b565b610ba5565b5050565b6000600660009054906101000a900460ff16905090565b60006106e582610ac6565b9050919050565b60008073ffffffffffffffffffffffffffffffffffffffff168273ffffffffffffffffffffffffffffffffffffffff160361075f5760006040517f89c62b640000000000000000000000000000000000000000000000000000000081526004016107569190611cc6565b60405180910390fd5b600360008373ffffffffffffffffffffffffffffffffffffffff1673ffffffffffffffffffffffffffffffffffffffff168152602001908152602001600020549050919050565b6107ae610bbb565b6107b86000610ca5565b565b6107c2610bbb565b6107ca610d6b565b565b6000600660019054906101000a900473ffffffffffffffffffffffffffffffffffffffff16905090565b6060600180546108059061208a565b80601f01602080910402602001604051908101604052809291908181526020018280546108319061208a565b801561087e5780601f106108535761010080835404028352916020019161087e565b820191906000526020600020905b81548152906001019060200180831161086157829003601f168201915b5050505050905090565b610890610bbb565b61089a8282610dce565b5050565b6108b06108a9610b8b565b8383610dec565b5050565b6108bf848484610578565b6108d36108ca610b8b565b85858585610f5b565b50505050565b60606108e482610ac6565b5060006108ef61110c565b9050600081511161090f576040518060200160405280600081525061093a565b8061091984611123565b60405160200161092a92919061212e565b6040516020818303038152906040525b915050919050565b6000600560008473ffffffffffffffffffffffffffffffffffffffff1673ffffffffffffffffffffffffffffffffffffffff16815260200190815260200160002060008373ffffffffffffffffffffffffffffffffffffffff1673ffffffffffffffffffffffffffffffffffffffff16815260200190815260200160002060009054906101000a900460ff16905092915050565b6109de610bbb565b600073ffffffffffffffffffffffffffffffffffffffff168173ffffffffffffffffffffffffffffffffffffffff1603610a505760006040517f1e4fbdf7000000000000000000000000000000000000000000000000000000008152600401610a479190611cc6565b60405180910390fd5b610a5981610ca5565b50565b60007f01ffc9a7000000000000000000000000000000000000000000000000000000007bffffffffffffffffffffffffffffffffffffffffffffffffffffffff1916827bffffffffffffffffffffffffffffffffffffffffffffffffffffffff1916149050919050565b600080610ad2836111f1565b9050600073ffffffffffffffffffffffffffffffffffffffff168173ffffffffffffffffffffffffffffffffffffffff1603610b4557826040517f7e273289000000000000000000000000000000000000000000000000000000008152600401610b3c9190611ddc565b60405180910390fd5b80915050919050565b60006004600083815260200190815260200160002060009054906101000a900473ffffffffffffffffffffffffffffffffffffffff169050919050565b600033905090565b610ba0838383600161122e565b505050565b6000610bb28484846113f3565b90509392505050565b610bc3610b8b565b73ffffffffffffffffffffffffffffffffffffffff16610be16107cc565b73ffffffffffffffffffffffffffffffffffffffff1614610c4057610c04610b8b565b6040517f118cdaa7000000000000000000000000000000000000000000000000000000008152600401610c379190611cc6565b60405180910390fd5b565b610c4a611411565b6000600660006101000a81548160ff0219169083151502179055507f5db9ee0a495bf2e6ff9c91a7834c1ba4fdd244a5e8aa4e537bd38aeae4b073aa610c8e610b8b565b604051610c9b9190611cc6565b60405180910390a1565b6000600660019054906101000a900473ffffffffffffffffffffffffffffffffffffffff16905081600660016101000a81548173ffffffffffffffffffffffffffffffffffffffff021916908373ffffffffffffffffffffffffffffffffffffffff1602179055508173ffffffffffffffffffffffffffffffffffffffff168173ffffffffffffffffffffffffffffffffffffffff167f8be0079c531659141344cd1fd0a4f28419497f9722a3daafe3b4186f6b6457e060405160405180910390a35050565b610d73611451565b6001600660006101000a81548160ff0219169083151502179055507f62e78cea01bee320cd4e420270b5ea74000d11b0c9f74754ebdbfc544b05a258610db7610b8b565b604051610dc49190611cc6565b60405180910390a1565b610de8828260405180602001604052806000815250611492565b5050565b600073ffffffffffffffffffffffffffffffffffffffff168273ffffffffffffffffffffffffffffffffffffffff1603610e5d57816040517f5b08ba18000000000000000000000000000000000000000000000000000000008152600401610e549190611cc6565b60405180910390fd5b80600560008573ffffffffffffffffffffffffffffffffffffffff1673ffffffffffffffffffffffffffffffffffffffff16815260200190815260200160002060008473ffffffffffffffffffffffffffffffffffffffff1673ffffffffffffffffffffffffffffffffffffffff16815260200190815260200160002060006101000a81548160ff0219169083151502179055508173ffffffffffffffffffffffffffffffffffffffff168373ffffffffffffffffffffffffffffffffffffffff167f17307eab39ab6107e8899845ad3d59bd9653f200f220920489ca2b5937696c3183604051610f4e9190611b55565b60405180910390a3505050565b60008373ffffffffffffffffffffffffffffffffffffffff163b1115611105578273ffffffffffffffffffffffffffffffffffffffff1663150b7a02868685856040518563ffffffff1660e01b8152600401610fba94939291906121a7565b6020604051808303816000875af1925050508015610ff657506040513d601f19601f82011682018060405250810190610ff39190612208565b60015b61107a573d8060008114611026576040519150601f19603f3d011682016040523d82523d6000602084013e61102b565b606091505b50600081510361107257836040517f64a0ae920000000000000000000000000000000000000000000000000000000081526004016110699190611cc6565b60405180910390fd5b805181602001fd5b63150b7a0260e01b7bffffffffffffffffffffffffffffffffffffffffffffffffffffffff1916817bffffffffffffffffffffffffffffffffffffffffffffffffffffffff19161461110357836040517f64a0ae920000000000000000000000000000000000000000000000000000000081526004016110fa9190611cc6565b60405180910390fd5b505b5050505050565b606060405180602001604052806000815250905090565b606060006001611132846114b6565b01905060008167ffffffffffffffff81111561115157611150611e6d565b5b6040519080825280601f01601f1916602001820160405280156111835781602001600182028036833780820191505090505b509050600082602001820190505b6001156111e6578080600190039150507f3031323334353637383961626364656600000000000000000000000000000000600a86061a8153600a85816111da576111d9612235565b5b04945060008503611191575b819350505050919050565b60006002600083815260200190815260200160002060009054906101000a900473ffffffffffffffffffffffffffffffffffffffff169050919050565b80806112675750600073ffffffffffffffffffffffffffffffffffffffff168273ffffffffffffffffffffffffffffffffffffffff1614155b1561139b57600061127784610ac6565b9050600073ffffffffffffffffffffffffffffffffffffffff168373ffffffffffffffffffffffffffffffffffffffff16141580156112e257508273ffffffffffffffffffffffffffffffffffffffff168173ffffffffffffffffffffffffffffffffffffffff1614155b80156112f557506112f38184610942565b155b1561133757826040517fa9fbf51f00000000000000000000000000000000000000000000000000000000815260040161132e9190611cc6565b60405180910390fd5b811561139957838573ffffffffffffffffffffffffffffffffffffffff168273ffffffffffffffffffffffffffffffffffffffff167f8c5be1e5ebec7d5bd14f71427d1e84f3dd0314c0f7b2291e5b200ac8c7c3b92560405160405180910390a45b505b836004600085815260200190815260200160002060006101000a81548173ffffffffffffffffffffffffffffffffffffffff021916908373ffffffffffffffffffffffffffffffffffffffff16021790555050505050565b60006113fd611451565b611408848484611609565b90509392505050565b6114196106c3565b61144f576040517f8dfc202b00000000000000000000000000000000000000000000000000000000815260040160405180910390fd5b565b6114596106c3565b15611490576040517fd93c066500000000000000000000000000000000000000000000000000000000815260040160405180910390fd5b565b61149c8383611823565b6114b16114a7610b8b565b6000858585610f5b565b505050565b600080600090507a184f03e93ff9f4daa797ed6e38ed64bf6a1f0100000000000000008310611514577a184f03e93ff9f4daa797ed6e38ed64bf6a1f010000000000000000838161150a57611509612235565b5b0492506040810190505b6d04ee2d6d415b85acef81000000008310611551576d04ee2d6d415b85acef8100000000838161154757611546612235565b5b0492506020810190505b662386f26fc10000831061158057662386f26fc10000838161157657611575612235565b5b0492506010810190505b6305f5e10083106115a9576305f5e100838161159f5761159e612235565b5b0492506008810190505b61271083106115ce5761271083816115c4576115c3612235565b5b0492506004810190505b606483106115f157606483816115e7576115e6612235565b5b0492506002810190505b600a8310611600576001810190505b80915050919050565b600080611615846111f1565b9050600073ffffffffffffffffffffffffffffffffffffffff168373ffffffffffffffffffffffffffffffffffffffff16146116575761165681848661191c565b5b600073ffffffffffffffffffffffffffffffffffffffff168173ffffffffffffffffffffffffffffffffffffffff16146116e85761169960008560008061122e565b6001600360008373ffffffffffffffffffffffffffffffffffffffff1673ffffffffffffffffffffffffffffffffffffffff168152602001908152602001600020600082825403925050819055505b600073ffffffffffffffffffffffffffffffffffffffff168573ffffffffffffffffffffffffffffffffffffffff161461176b576001600360008773ffffffffffffffffffffffffffffffffffffffff1673ffffffffffffffffffffffffffffffffffffffff168152602001908152602001600020600082825401925050819055505b846002600086815260200190815260200160002060006101000a81548173ffffffffffffffffffffffffffffffffffffffff021916908373ffffffffffffffffffffffffffffffffffffffff160217905550838573ffffffffffffffffffffffffffffffffffffffff168273ffffffffffffffffffffffffffffffffffffffff167fddf252ad1be2c89b69c2b068fc378daa952ba7f163c4a11628f55a4df523b3ef60405160405180910390a4809150509392505050565b600073ffffffffffffffffffffffffffffffffffffffff168273ffffffffffffffffffffffffffffffffffffffff16036118955760006040517f64a0ae9200000000000000000000000000000000000000000000000000000000815260040161188c9190611cc6565b60405180910390fd5b60006118a383836000610ba5565b9050600073ffffffffffffffffffffffffffffffffffffffff168173ffffffffffffffffffffffffffffffffffffffff16146119175760006040517f73c6ac6e00000000000000000000000000000000000000000000000000000000815260040161190e9190611cc6565b60405180910390fd5b505050565b6119278383836119e0565b6119db57600073ffffffffffffffffffffffffffffffffffffffff168373ffffffffffffffffffffffffffffffffffffffff160361199c57806040517f7e2732890000000000000000000000000000000000000000000000000000000081526004016119939190611ddc565b60405180910390fd5b81816040517f177e802f0000000000000000000000000000000000000000000000000000000081526004016119d2929190612264565b60405180910390fd5b505050565b60008073ffffffffffffffffffffffffffffffffffffffff168373ffffffffffffffffffffffffffffffffffffffff1614158015611a9857508273ffffffffffffffffffffffffffffffffffffffff168473ffffffffffffffffffffffffffffffffffffffff161480611a595750611a588484610942565b5b80611a9757508273ffffffffffffffffffffffffffffffffffffffff16611a7f83610b4e565b73ffffffffffffffffffffffffffffffffffffffff16145b5b90509392505050565b6000604051905090565b600080fd5b600080fd5b60007fffffffff0000000000000000000000000000000000000000000000000000000082169050919050565b611aea81611ab5565b8114611af557600080fd5b50565b600081359050611b0781611ae1565b92915050565b600060208284031215611b2357611b22611aab565b5b6000611b3184828501611af8565b91505092915050565b60008115159050919050565b611b4f81611b3a565b82525050565b6000602082019050611b6a6000830184611b46565b92915050565b600081519050919050565b600082825260208201905092915050565b60005b83811015611baa578082015181840152602081019050611b8f565b60008484015250505050565b6000601f19601f8301169050919050565b6000611bd282611b70565b611bdc8185611b7b565b9350611bec818560208601611b8c565b611bf581611bb6565b840191505092915050565b60006020820190508181036000830152611c1a8184611bc7565b905092915050565b6000819050919050565b611c3581611c22565b8114611c4057600080fd5b50565b600081359050611c5281611c2c565b92915050565b600060208284031215611c6e57611c6d611aab565b5b6000611c7c84828501611c43565b91505092915050565b600073ffffffffffffffffffffffffffffffffffffffff82169050919050565b6000611cb082611c85565b9050919050565b611cc081611ca5565b82525050565b6000602082019050611cdb6000830184611cb7565b92915050565b611cea81611ca5565b8114611cf557600080fd5b50565b600081359050611d0781611ce1565b92915050565b60008060408385031215611d2457611d23611aab565b5b6000611d3285828601611cf8565b9250506020611d4385828601611c43565b9150509250929050565b600080600060608486031215611d6657611d65611aab565b5b6000611d7486828701611cf8565b9350506020611d8586828701611cf8565b9250506040611d9686828701611c43565b9150509250925092565b600060208284031215611db657611db5611aab565b5b6000611dc484828501611cf8565b91505092915050565b611dd681611c22565b82525050565b6000602082019050611df16000830184611dcd565b92915050565b611e0081611b3a565b8114611e0b57600080fd5b50565b600081359050611e1d81611df7565b92915050565b60008060408385031215611e3a57611e39611aab565b5b6000611e4885828601611cf8565b9250506020611e5985828601611e0e565b9150509250929050565b600080fd5b600080fd5b7f4e487b7100000000000000000000000000000000000000000000000000000000600052604160045260246000fd5b611ea582611bb6565b810181811067ffffffffffffffff82111715611ec457611ec3611e6d565b5b80604052505050565b6000611ed7611aa1565b9050611ee38282611e9c565b919050565b600067ffffffffffffffff821115611f0357611f02611e6d565b5b611f0c82611bb6565b9050602081019050919050565b82818337600083830152505050565b6000611f3b611f3684611ee8565b611ecd565b905082815260208101848484011115611f5757611f56611e68565b5b611f62848285611f19565b509392505050565b600082601f830112611f7f57611f7e611e63565b5b8135611f8f848260208601611f28565b91505092915050565b60008060008060808587031215611fb257611fb1611aab565b5b6000611fc087828801611cf8565b9450506020611fd187828801611cf8565b9350506040611fe287828801611c43565b925050606085013567ffffffffffffffff81111561200357612002611ab0565b5b61200f87828801611f6a565b91505092959194509250565b6000806040838503121561203257612031611aab565b5b600061204085828601611cf8565b925050602061205185828601611cf8565b9150509250929050565b7f4e487b7100000000000000000000000000000000000000000000000000000000600052602260045260246000fd5b600060028204905060018216806120a257607f821691505b6020821081036120b5576120b461205b565b5b50919050565b60006060820190506120d06000830186611cb7565b6120dd6020830185611dcd565b6120ea6040830184611cb7565b949350505050565b600081905092915050565b600061210882611b70565b61211281856120f2565b9350612122818560208601611b8c565b80840191505092915050565b600061213a82856120fd565b915061214682846120fd565b91508190509392505050565b600081519050919050565b600082825260208201905092915050565b600061217982612152565b612183818561215d565b9350612193818560208601611b8c565b61219c81611bb6565b840191505092915050565b60006080820190506121bc6000830187611cb7565b6121c96020830186611cb7565b6121d66040830185611dcd565b81810360608301526121e8818461216e565b905095945050505050565b60008151905061220281611ae1565b92915050565b60006020828403121561221e5761221d611aab565b5b600061222c848285016121f3565b91505092915050565b7f4e487b7100000000000000000000000000000000000000000000000000000000600052601260045260246000fd5b60006040820190506122796000830185611cb7565b6122866020830184611dcd565b939250505056fea2646970667358221220cb75913df6b494cb1206a1691aba746571d20d0dacbcd9ef88896d659426153664736f6c634300081b0033",
  "linkReferences": {},
  "deployedLinkReferences": {}
}