{
  "_format": "hh-sol-artifact-1",
  "contractName": "MPMNFT",
  "sourceName": "blockchain/evm/contracts/MPMNFT.sol",
  "abi": [
    {
      "inputs": [
        {
          "internalType": "address",
          "name": "initialOwner",
          "type": "address"
        },
        {
          "internalType": "string",
          "name": "contractName",
          "type": "string"
        },
        {
          "internalType": "string",
          "name": "symbol",
          "type": "string"
        },
        {
          "internalType": "uint256",
          "name": "_mintFee",
          "type": "uint256"
        }
      ],
      "stateMutability": "nonpayable",
      "type": "constructor"
    },
    {
      "inputs": [],
      "name": "ERC721EnumerableForbiddenBatchMint",
      "type": "error"
    },
    {
      "inputs": [
        {
          "internalType": "address",
          "name": "sender",
          "type": "address"
        },
        {
          "internalType": "uint256",
          "name": "tokenId",
          "type": "uint256"
        },
        {
          "internalType": "address",
          "name": "owner",
          "type": "address"
        }
      ],
      "name": "ERC721IncorrectOwner",
      "type": "error"
    },
    {
      "inputs": [
        {
          "internalType": "address",
          "name": "operator",
          "type": "address"
        },
        {
          "internalType": "uint256",
          "name": "tokenId",
          "type": "uint256"
        }
      ],
      "name": "ERC721InsufficientApproval",
      "type": "error"
    },
    {
      "inputs": [
        {
          "internalType": "address",
          "name": "approver",
          "type": "address"
        }
      ],
      "name": "ERC721InvalidApprover",
      "type": "error"
    },
    {
      "inputs": [
        {
          "internalType": "address",
          "name": "operator",
          "type": "address"
        }
      ],
      "name": "ERC721InvalidOperator",
      "type": "error"
    },
    {
      "inputs": [
        {
          "internalType": "address",
          "name": "owner",
          "type": "address"
        }
      ],
      "name": "ERC721InvalidOwner",
      "type": "error"
    },
    {
      "inputs": [
        {
          "internalType": "address",
          "name": "receiver",
          "type": "address"
        }
      ],
      "name": "ERC721InvalidReceiver",
      "type": "error"
    },
    {
      "inputs": [
        {
          "internalType": "address",
          "name": "sender",
          "type": "address"
        }
      ],
      "name": "ERC721InvalidSender",
      "type": "error"
    },
    {
      "inputs": [
        {
          "internalType": "uint256",
          "name": "tokenId",
          "type": "uint256"
        }
      ],
      "name": "ERC721NonexistentToken",
      "type": "error"
    },
    {
      "inputs": [
        {
          "internalType": "address",
          "name": "owner",
          "type": "address"
        },
        {
          "internalType": "uint256",
          "name": "index",
          "type": "uint256"
        }
      ],
      "name": "ERC721OutOfBoundsIndex",
      "type": "error"
    },
    {
      "inputs": [
        {
          "internalType": "address",
          "name": "owner",
          "type": "address"
        }
      ],
      "name": "OwnableInvalidOwner",
      "type": "error"
    },
    {
      "inputs": [
        {
          "internalType": "address",
          "name": "account",
          "type": "address"
        }
      ],
      "name": "OwnableUnauthorizedAccount",
      "type": "error"
    },
    {
      "anonymous": false,
      "inputs": [
        {
          "indexed": true,
          "internalType": "address",
          "name": "owner",
          "type": "address"
        },
        {
          "indexed": true,
          "internalType": "address",
          "name": "approved",
          "type": "address"
        },
        {
          "indexed": true,
          "internalType": "uint256",
          "name": "tokenId",
          "type": "uint256"
        }
      ],
      "name": "Approval",
      "type": "event"
    },
    {
      "anonymous": false,
      "inputs": [
        {
          "indexed": true,
          "internalType": "address",
          "name": "owner",
          "type": "address"
        },
        {
          "indexed": true,
          "internalType": "address",
          "name": "operator",
          "type": "address"
        },
        {
          "indexed": false,
          "internalType": "bool",
          "name": "approved",
          "type": "bool"
        }
      ],
      "name": "ApprovalForAll",
      "type": "event"
    },
    {
      "anonymous": false,
      "inputs": [
        {
          "indexed": false,
          "internalType": "uint256",
          "name": "_fromTokenId",
          "type": "uint256"
        },
        {
          "indexed": false,
          "internalType": "uint256",
          "name": "_toTokenId",
          "type": "uint256"
        }
      ],
      "name": "BatchMetadataUpdate",
      "type": "event"
    },
    {
      "anonymous": false,
      "inputs": [
        {
          "indexed": false,
          "internalType": "uint256",
          "name": "_tokenId",
          "type": "uint256"
        }
      ],
      "name": "MetadataUpdate",
      "type": "event"
    },
    {
      "anonymous": false,
      "inputs": [
        {
          "indexed": true,
          "internalType": "address",
          "name": "previousOwner",
          "type": "address"
        },
        {
          "indexed": true,
          "internalType": "address",
          "name": "newOwner",
          "type": "address"
        }
      ],
      "name": "OwnershipTransferred",
      "type": "event"
    },
    {
      "anonymous": false,
      "inputs": [
        {
          "indexed": true,
          "internalType": "address",
          "name": "from",
          "type": "address"
        },
        {
          "indexed": true,
          "internalType": "address",
          "name": "to",
          "type": "address"
        },
        {
          "indexed": true,
          "internalType": "uint256",
          "name": "tokenId",
          "type": "uint256"
        }
      ],
      "name": "Transfer",
      "type": "event"
    },
    {
      "inputs": [
        {
          "internalType": "address",
          "name": "to",
          "type": "address"
        },
        {
          "internalType": "uint256",
          "name": "tokenId",
          "type": "uint256"
        }
      ],
      "name": "approve",
      "outputs": [],
      "stateMutability": "nonpayable",
      "type": "function"
    },
    {
      "inputs": [
        {
          "internalType": "address",
          "name": "owner",
          "type": "address"
        }
      ],
      "name": "balanceOf",
      "outputs": [
        {
          "internalType": "uint256",
          "name": "",
          "type": "uint256"
        }
      ],
      "stateMutability": "view",
      "type": "function"
    },
    {
      "inputs": [
        {
          "internalType": "address",
          "name": "to",
          "type": "address"
        },
        {
          "internalType": "uint256",
          "name": "quantity",
          "type": "uint256"
        },
        {
          "internalType": "string[]",
          "name": "uris",
          "type": "string[]"
        }
      ],
      "name": "batchMint",
      "outputs": [],
      "stateMutability": "nonpayable",
      "type": "function"
    },
    {
      "inputs": [
        {
          "internalType": "uint256",
          "name": "tokenId",
          "type": "uint256"
        }
      ],
      "name": "getApproved",
      "outputs": [
        {
          "internalType": "address",
          "name": "",
          "type": "address"
        }
      ],
      "stateMutability": "view",
      "type": "function"
    },
    {
      "inputs": [
        {
          "internalType": "address",
          "name": "owner",
          "type": "address"
        },
        {
          "internalType": "address",
          "name": "operator",
          "type": "address"
        }
      ],
      "name": "isApprovedForAll",
      "outputs": [
        {
          "internalType": "bool",
          "name": "",
          "type": "bool"
        }
      ],
      "stateMutability": "view",
      "type": "function"
    },
    {
      "inputs": [
        {
          "internalType": "uint256",
          "name": "tokenId",
          "type": "uint256"
        },
        {
          "internalType": "string",
          "name": "uri",
          "type": "string"
        }
      ],
      "name": "mint",
      "outputs": [],
      "stateMutability": "payable",
      "type": "function"
    },
    {
      "inputs": [],
      "name": "mintFee",
      "outputs": [
        {
          "internalType": "uint256",
          "name": "",
          "type": "uint256"
        }
      ],
      "stateMutability": "view",
      "type": "function"
    },
    {
      "inputs": [],
      "name": "name",
      "outputs": [
        {
          "internalType": "string",
          "name": "",
          "type": "string"
        }
      ],
      "stateMutability": "view",
      "type": "function"
    },
    {
      "inputs": [],
      "name": "owner",
      "outputs": [
        {
          "internalType": "address",
          "name": "",
          "type": "address"
        }
      ],
      "stateMutability": "view",
      "type": "function"
    },
    {
      "inputs": [
        {
          "internalType": "uint256",
          "name": "tokenId",
          "type": "uint256"
        }
      ],
      "name": "ownerOf",
      "outputs": [
        {
          "internalType": "address",
          "name": "",
          "type": "address"
        }
      ],
      "stateMutability": "view",
      "type": "function"
    },
    {
      "inputs": [],
      "name": "renounceOwnership",
      "outputs": [],
      "stateMutability": "nonpayable",
      "type": "function"
    },
    {
      "inputs": [
        {
          "internalType": "address",
          "name": "to",
          "type": "address"
        },
        {
          "internalType": "uint256",
          "name": "tokenId",
          "type": "uint256"
        },
        {
          "internalType": "string",
          "name": "uri",
          "type": "string"
        }
      ],
      "name": "safeMint",
      "outputs": [],
      "stateMutability": "nonpayable",
      "type": "function"
    },
    {
      "inputs": [
        {
          "internalType": "address",
          "name": "from",
          "type": "address"
        },
        {
          "internalType": "address",
          "name": "to",
          "type": "address"
        },
        {
          "internalType": "uint256",
          "name": "tokenId",
          "type": "uint256"
        }
      ],
      "name": "safeTransferFrom",
      "outputs": [],
      "stateMutability": "nonpayable",
      "type": "function"
    },
    {
      "inputs": [
        {
          "internalType": "address",
          "name": "from",
          "type": "address"
        },
        {
          "internalType": "address",
          "name": "to",
          "type": "address"
        },
        {
          "internalType": "uint256",
          "name": "tokenId",
          "type": "uint256"
        },
        {
          "internalType": "bytes",
          "name": "data",
          "type": "bytes"
        }
      ],
      "name": "safeTransferFrom",
      "outputs": [],
      "stateMutability": "nonpayable",
      "type": "function"
    },
    {
      "inputs": [
        {
          "internalType": "address",
          "name": "operator",
          "type": "address"
        },
        {
          "internalType": "bool",
          "name": "approved",
          "type": "bool"
        }
      ],
      "name": "setApprovalForAll",
      "outputs": [],
      "stateMutability": "nonpayable",
      "type": "function"
    },
    {
      "inputs": [
        {
          "internalType": "uint256",
          "name": "_mintFee",
          "type": "uint256"
        }
      ],
      "name": "setMintFee",
      "outputs": [],
      "stateMutability": "nonpayable",
      "type": "function"
    },
    {
      "inputs": [
        {
          "internalType": "bytes4",
          "name": "interfaceId",
          "type": "bytes4"
        }
      ],
      "name": "supportsInterface",
      "outputs": [
        {
          "internalType": "bool",
          "name": "",
          "type": "bool"
        }
      ],
      "stateMutability": "view",
      "type": "function"
    },
    {
      "inputs": [],
      "name": "symbol",
      "outputs": [
        {
          "internalType": "string",
          "name": "",
          "type": "string"
        }
      ],
      "stateMutability": "view",
      "type": "function"
    },
    {
      "inputs": [
        {
          "internalType": "uint256",
          "name": "index",
          "type": "uint256"
        }
      ],
      "name": "tokenByIndex",
      "outputs": [
        {
          "internalType": "uint256",
          "name": "",
          "type": "uint256"
        }
      ],
      "stateMutability": "view",
      "type": "function"
    },
    {
      "inputs": [
        {
          "internalType": "address",
          "name": "owner",
          "type": "address"
        },
        {
          "internalType": "uint256",
          "name": "index",
          "type": "uint256"
        }
      ],
      "name": "tokenOfOwnerByIndex",
      "outputs": [
        {
          "internalType": "uint256",
          "name": "",
          "type": "uint256"
        }
      ],
      "stateMutability": "view",
      "type": "function"
    },
    {
      "inputs": [
        {
          "internalType": "uint256",
          "name": "tokenId",
          "type": "uint256"
        }
      ],
      "name": "tokenURI",
      "outputs": [
        {
          "internalType": "string",
          "name": "",
          "type": "string"
        }
      ],
      "stateMutability": "view",
      "type": "function"
    },
    {
      "inputs": [],
      "name": "totalSupply",
      "outputs": [
        {
          "internalType": "uint256",
          "name": "",
          "type": "uint256"
        }
      ],
      "stateMutability": "view",
      "type": "function"
    },
    {
      "inputs": [
        {
          "internalType": "address",
          "name": "from",
          "type": "address"
        },
        {
          "internalType": "address",
          "name": "to",
          "type": "address"
        },
        {
          "internalType": "uint256",
          "name": "tokenId",
          "type": "uint256"
        }
      ],
      "name": "transferFrom",
      "outputs": [],
      "stateMutability": "nonpayable",
      "type": "function"
    },
    {
      "inputs": [
        {
          "internalType": "address",
          "name": "newOwner",
          "type": "address"
        }
      ],
      "name": "transferOwnership",
      "outputs": [],
      "stateMutability": "nonpayable",
      "type": "function"
    },
    {
      "inputs": [],
      "name": "withdraw",
      "outputs": [],
      "stateMutability": "nonpayable",
      "type": "function"
    }
  ],
  "bytecode": "0x608060405234801561001057600080fd5b50604051613e4b380380613e4b833981810160405281019061003291906103b8565b8383838160009081610044919061066e565b508060019081610054919061066e565b505050600073ffffffffffffffffffffffffffffffffffffffff168173ffffffffffffffffffffffffffffffffffffffff16036100c95760006040517f1e4fbdf70000000000000000000000000000000000000000000000000000000081526004016100c0919061074f565b60405180910390fd5b6100d8816100e960201b60201c565b5080600d819055505050505061076a565b6000600760009054906101000a900473ffffffffffffffffffffffffffffffffffffffff16905081600760006101000a81548173ffffffffffffffffffffffffffffffffffffffff021916908373ffffffffffffffffffffffffffffffffffffffff1602179055508173ffffffffffffffffffffffffffffffffffffffff168173ffffffffffffffffffffffffffffffffffffffff167f8be0079c531659141344cd1fd0a4f28419497f9722a3daafe3b4186f6b6457e060405160405180910390a35050565b6000604051905090565b600080fd5b600080fd5b600073ffffffffffffffffffffffffffffffffffffffff82169050919050565b60006101ee826101c3565b9050919050565b6101fe816101e3565b811461020957600080fd5b50565b60008151905061021b816101f5565b92915050565b600080fd5b600080fd5b6000601f19601f8301169050919050565b7f4e487b7100000000000000000000000000000000000000000000000000000000600052604160045260246000fd5b6102748261022b565b810181811067ffffffffffffffff821117156102935761029261023c565b5b80604052505050565b60006102a66101af565b90506102b2828261026b565b919050565b600067ffffffffffffffff8211156102d2576102d161023c565b5b6102db8261022b565b9050602081019050919050565b60005b838110156103065780820151818401526020810190506102eb565b60008484015250505050565b6000610325610320846102b7565b61029c565b90508281526020810184848401111561034157610340610226565b5b61034c8482856102e8565b509392505050565b600082601f83011261036957610368610221565b5b8151610379848260208601610312565b91505092915050565b6000819050919050565b61039581610382565b81146103a057600080fd5b50565b6000815190506103b28161038c565b92915050565b600080600080608085870312156103d2576103d16101b9565b5b60006103e08782880161020c565b945050602085015167ffffffffffffffff811115610401576104006101be565b5b61040d87828801610354565b935050604085015167ffffffffffffffff81111561042e5761042d6101be565b5b61043a87828801610354565b925050606061044b878288016103a3565b91505092959194509250565b600081519050919050565b7f4e487b7100000000000000000000000000000000000000000000000000000000600052602260045260246000fd5b600060028204905060018216806104a957607f821691505b6020821081036104bc576104bb610462565b5b50919050565b60008190508160005260206000209050919050565b60006020601f8301049050919050565b600082821b905092915050565b6000600883026105247fffffffffffffffffffffffffffffffffffffffffffffffffffffffffffffffff826104e7565b61052e86836104e7565b95508019841693508086168417925050509392505050565b6000819050919050565b600061056b61056661056184610382565b610546565b610382565b9050919050565b6000819050919050565b61058583610550565b61059961059182610572565b8484546104f4565b825550505050565b600090565b6105ae6105a1565b6105b981848461057c565b505050565b5b818110156105dd576105d26000826105a6565b6001810190506105bf565b5050565b601f821115610622576105f3816104c2565b6105fc846104d7565b8101602085101561060b578190505b61061f610617856104d7565b8301826105be565b50505b505050565b600082821c905092915050565b600061064560001984600802610627565b1980831691505092915050565b600061065e8383610634565b9150826002028217905092915050565b61067782610457565b67ffffffffffffffff8111156106905761068f61023c565b5b61069a8254610491565b6106a58282856105e1565b600060209050601f8311600181146106d857600084156106c6578287015190505b6106d08582610652565b865550610738565b601f1984166106e6866104c2565b60005b8281101561070e578489015182556001820191506020850194506020810190506106e9565b8683101561072b5784890151610727601f891682610634565b8355505b6001600288020188555050505b505050505050565b610749816101e3565b82525050565b60006020820190506107646000830184610740565b92915050565b6136d2806107796000396000f3fe6080604052600436106101665760003560e01c806370a08231116100d1578063b88d4fde1161008a578063cd279c7c11610064578063cd279c7c1461052d578063e985e9c514610556578063eddd0d9c14610593578063f2fde38b146105bc57610166565b8063b88d4fde1461049e578063c87b56dd146104c7578063cc28ec331461050457610166565b806370a08231146103af578063715018a6146103ec57806377097fc8146104035780638da5cb5b1461041f57806395d89b411461044a578063a22cb4651461047557610166565b806323b872dd1161012357806323b872dd1461028f5780632f745c59146102b85780633ccfd60b146102f557806342842e0e1461030c5780634f6ccce7146103355780636352211e1461037257610166565b806301ffc9a71461016b57806306fdde03146101a8578063081812fc146101d3578063095ea7b31461021057806313966db51461023957806318160ddd14610264575b600080fd5b34801561017757600080fd5b50610192600480360381019061018d919061264c565b6105e5565b60405161019f9190612694565b60405180910390f35b3480156101b457600080fd5b506101bd6105f7565b6040516101ca919061273f565b60405180910390f35b3480156101df57600080fd5b506101fa60048036038101906101f59190612797565b610689565b6040516102079190612805565b60405180910390f35b34801561021c57600080fd5b506102376004803603810190610232919061284c565b6106a5565b005b34801561024557600080fd5b5061024e6106bb565b60405161025b919061289b565b60405180910390f35b34801561027057600080fd5b506102796106c1565b604051610286919061289b565b60405180910390f35b34801561029b57600080fd5b506102b660048036038101906102b191906128b6565b6106ce565b005b3480156102c457600080fd5b506102df60048036038101906102da919061284c565b6107d0565b6040516102ec919061289b565b60405180910390f35b34801561030157600080fd5b5061030a610879565b005b34801561031857600080fd5b50610333600480360381019061032e91906128b6565b610937565b005b34801561034157600080fd5b5061035c60048036038101906103579190612797565b610957565b604051610369919061289b565b60405180910390f35b34801561037e57600080fd5b5061039960048036038101906103949190612797565b6109cd565b6040516103a69190612805565b60405180910390f35b3480156103bb57600080fd5b506103d660048036038101906103d19190612909565b6109df565b6040516103e3919061289b565b60405180910390f35b3480156103f857600080fd5b50610401610a99565b005b61041d60048036038101906104189190612a6b565b610aad565b005b34801561042b57600080fd5b50610434610b97565b6040516104419190612805565b60405180910390f35b34801561045657600080fd5b5061045f610bc1565b60405161046c919061273f565b60405180910390f35b34801561048157600080fd5b5061049c60048036038101906104979190612af3565b610c53565b005b3480156104aa57600080fd5b506104c560048036038101906104c09190612bd4565b610c69565b005b3480156104d357600080fd5b506104ee60048036038101906104e99190612797565b610c8e565b6040516104fb919061273f565b60405180910390f35b34801561051057600080fd5b5061052b60048036038101906105269190612d3d565b610ca0565b005b34801561053957600080fd5b50610554600480360381019061054f9190612dac565b610de4565b005b34801561056257600080fd5b5061057d60048036038101906105789190612e1b565b610e92565b60405161058a9190612694565b60405180910390f35b34801561059f57600080fd5b506105ba60048036038101906105b59190612797565b610f26565b005b3480156105c857600080fd5b506105e360048036038101906105de9190612909565b610f38565b005b60006105f082610fbe565b9050919050565b60606000805461060690612e8a565b80601f016020809104026020016040519081016040528092919081815260200182805461063290612e8a565b801561067f5780601f106106545761010080835404028352916020019161067f565b820191906000526020600020905b81548152906001019060200180831161066257829003601f168201915b5050505050905090565b600061069482611038565b5061069e826110c0565b9050919050565b6106b782826106b26110fd565b611105565b5050565b600d5481565b6000600a80549050905090565b600073ffffffffffffffffffffffffffffffffffffffff168273ffffffffffffffffffffffffffffffffffffffff16036107405760006040517f64a0ae920000000000000000000000000000000000000000000000000000000081526004016107379190612805565b60405180910390fd5b6000610754838361074f6110fd565b611117565b90508373ffffffffffffffffffffffffffffffffffffffff168173ffffffffffffffffffffffffffffffffffffffff16146107ca578382826040517f64283d7b0000000000000000000000000000000000000000000000000000000081526004016107c193929190612ebb565b60405180910390fd5b50505050565b60006107db836109df565b82106108205782826040517fa57d13dc000000000000000000000000000000000000000000000000000000008152600401610817929190612ef2565b60405180910390fd5b600860008473ffffffffffffffffffffffffffffffffffffffff1673ffffffffffffffffffffffffffffffffffffffff168152602001908152602001600020600083815260200190815260200160002054905092915050565b61088161112d565b600061088b610b97565b73ffffffffffffffffffffffffffffffffffffffff16476040516108ae90612f4c565b60006040518083038185875af1925050503d80600081146108eb576040519150601f19603f3d011682016040523d82523d6000602084013e6108f0565b606091505b5050905080610934576040517f08c379a000000000000000000000000000000000000000000000000000000000815260040161092b90612fad565b60405180910390fd5b50565b61095283838360405180602001604052806000815250610c69565b505050565b60006109616106c1565b82106109a7576000826040517fa57d13dc00000000000000000000000000000000000000000000000000000000815260040161099e929190612ef2565b60405180910390fd5b600a82815481106109bb576109ba612fcd565b5b90600052602060002001549050919050565b60006109d882611038565b9050919050565b60008073ffffffffffffffffffffffffffffffffffffffff168273ffffffffffffffffffffffffffffffffffffffff1603610a525760006040517f89c62b64000000000000000000000000000000000000000000000000000000008152600401610a499190612805565b60405180910390fd5b600360008373ffffffffffffffffffffffffffffffffffffffff1673ffffffffffffffffffffffffffffffffffffffff168152602001908152602001600020549050919050565b610aa161112d565b610aab60006111b4565b565b600d54341015610af2576040517f08c379a0000000000000000000000000000000000000000000000000000000008152600401610ae990613048565b60405180910390fd5b600e600083815260200190815260200160002060009054906101000a900460ff1615610b53576040517f08c379a0000000000000000000000000000000000000000000000000000000008152600401610b4a906130b4565b60405180910390fd5b6001600e600084815260200190815260200160002060006101000a81548160ff021916908315150217905550610b89338361127a565b610b938282611298565b5050565b6000600760009054906101000a900473ffffffffffffffffffffffffffffffffffffffff16905090565b606060018054610bd090612e8a565b80601f0160208091040260200160405190810160405280929190818152602001828054610bfc90612e8a565b8015610c495780601f10610c1e57610100808354040283529160200191610c49565b820191906000526020600020905b815481529060010190602001808311610c2c57829003601f168201915b5050505050905090565b610c65610c5e6110fd565b83836112f4565b5050565b610c748484846106ce565b610c88610c7f6110fd565b85858585611463565b50505050565b6060610c9982611614565b9050919050565b610ca861112d565b80518214610ceb576040517f08c379a0000000000000000000000000000000000000000000000000000000008152600401610ce290613146565b60405180910390fd5b60005b82811015610dde576000600c549050600c6000815480929190610d1090613195565b9190505550600e600082815260200190815260200160002060009054906101000a900460ff1615610d76576040517f08c379a0000000000000000000000000000000000000000000000000000000008152600401610d6d90613229565b60405180910390fd5b6001600e600083815260200190815260200160002060006101000a81548160ff021916908315150217905550610dac858261127a565b610dd081848481518110610dc357610dc2612fcd565b5b6020026020010151611298565b508080600101915050610cee565b50505050565b610dec61112d565b600e600083815260200190815260200160002060009054906101000a900460ff1615610e4d576040517f08c379a0000000000000000000000000000000000000000000000000000000008152600401610e4490613229565b60405180910390fd5b6001600e600084815260200190815260200160002060006101000a81548160ff021916908315150217905550610e83838361127a565b610e8d8282611298565b505050565b6000600560008473ffffffffffffffffffffffffffffffffffffffff1673ffffffffffffffffffffffffffffffffffffffff16815260200190815260200160002060008373ffffffffffffffffffffffffffffffffffffffff1673ffffffffffffffffffffffffffffffffffffffff16815260200190815260200160002060009054906101000a900460ff16905092915050565b610f2e61112d565b80600d8190555050565b610f4061112d565b600073ffffffffffffffffffffffffffffffffffffffff168173ffffffffffffffffffffffffffffffffffffffff1603610fb25760006040517f1e4fbdf7000000000000000000000000000000000000000000000000000000008152600401610fa99190612805565b60405180910390fd5b610fbb816111b4565b50565b60007f780e9d63000000000000000000000000000000000000000000000000000000007bffffffffffffffffffffffffffffffffffffffffffffffffffffffff1916827bffffffffffffffffffffffffffffffffffffffffffffffffffffffff19161480611031575061103082611727565b5b9050919050565b60008061104483611788565b9050600073ffffffffffffffffffffffffffffffffffffffff168173ffffffffffffffffffffffffffffffffffffffff16036110b757826040517f7e2732890000000000000000000000000000000000000000000000000000000081526004016110ae919061289b565b60405180910390fd5b80915050919050565b60006004600083815260200190815260200160002060009054906101000a900473ffffffffffffffffffffffffffffffffffffffff169050919050565b600033905090565b61111283838360016117c5565b505050565b600061112484848461198a565b90509392505050565b6111356110fd565b73ffffffffffffffffffffffffffffffffffffffff16611153610b97565b73ffffffffffffffffffffffffffffffffffffffff16146111b2576111766110fd565b6040517f118cdaa70000000000000000000000000000000000000000000000000000000081526004016111a99190612805565b60405180910390fd5b565b6000600760009054906101000a900473ffffffffffffffffffffffffffffffffffffffff16905081600760006101000a81548173ffffffffffffffffffffffffffffffffffffffff021916908373ffffffffffffffffffffffffffffffffffffffff1602179055508173ffffffffffffffffffffffffffffffffffffffff168173ffffffffffffffffffffffffffffffffffffffff167f8be0079c531659141344cd1fd0a4f28419497f9722a3daafe3b4186f6b6457e060405160405180910390a35050565b611294828260405180602001604052806000815250611aa7565b5050565b806006600084815260200190815260200160002090816112b891906133f5565b507ff8e1a15aba9398e019f0b49df1a4fde98ee17ae345cb5f6b5e2c27f5033e8ce7826040516112e8919061289b565b60405180910390a15050565b600073ffffffffffffffffffffffffffffffffffffffff168273ffffffffffffffffffffffffffffffffffffffff160361136557816040517f5b08ba1800000000000000000000000000000000000000000000000000000000815260040161135c9190612805565b60405180910390fd5b80600560008573ffffffffffffffffffffffffffffffffffffffff1673ffffffffffffffffffffffffffffffffffffffff16815260200190815260200160002060008473ffffffffffffffffffffffffffffffffffffffff1673ffffffffffffffffffffffffffffffffffffffff16815260200190815260200160002060006101000a81548160ff0219169083151502179055508173ffffffffffffffffffffffffffffffffffffffff168373ffffffffffffffffffffffffffffffffffffffff167f17307eab39ab6107e8899845ad3d59bd9653f200f220920489ca2b5937696c31836040516114569190612694565b60405180910390a3505050565b60008373ffffffffffffffffffffffffffffffffffffffff163b111561160d578273ffffffffffffffffffffffffffffffffffffffff1663150b7a02868685856040518563ffffffff1660e01b81526004016114c2949392919061351c565b6020604051808303816000875af19250505080156114fe57506040513d601f19601f820116820180604052508101906114fb919061357d565b60015b611582573d806000811461152e576040519150601f19603f3d011682016040523d82523d6000602084013e611533565b606091505b50600081510361157a57836040517f64a0ae920000000000000000000000000000000000000000000000000000000081526004016115719190612805565b60405180910390fd5b805181602001fd5b63150b7a0260e01b7bffffffffffffffffffffffffffffffffffffffffffffffffffffffff1916817bffffffffffffffffffffffffffffffffffffffffffffffffffffffff19161461160b57836040517f64a0ae920000000000000000000000000000000000000000000000000000000081526004016116029190612805565b60405180910390fd5b505b5050505050565b606061161f82611038565b50600060066000848152602001908152602001600020805461164090612e8a565b80601f016020809104026020016040519081016040528092919081815260200182805461166c90612e8a565b80156116b95780601f1061168e576101008083540402835291602001916116b9565b820191906000526020600020905b81548152906001019060200180831161169c57829003601f168201915b5050505050905060006116ca611acb565b905060008151036116df578192505050611722565b6000825111156117145780826040516020016116fc9291906135e6565b60405160208183030381529060405292505050611722565b61171d84611ae2565b925050505b919050565b6000634906490660e01b7bffffffffffffffffffffffffffffffffffffffffffffffffffffffff1916827bffffffffffffffffffffffffffffffffffffffffffffffffffffffff19161480611781575061178082611b4b565b5b9050919050565b60006002600083815260200190815260200160002060009054906101000a900473ffffffffffffffffffffffffffffffffffffffff169050919050565b80806117fe5750600073ffffffffffffffffffffffffffffffffffffffff168273ffffffffffffffffffffffffffffffffffffffff1614155b1561193257600061180e84611038565b9050600073ffffffffffffffffffffffffffffffffffffffff168373ffffffffffffffffffffffffffffffffffffffff161415801561187957508273ffffffffffffffffffffffffffffffffffffffff168173ffffffffffffffffffffffffffffffffffffffff1614155b801561188c575061188a8184610e92565b155b156118ce57826040517fa9fbf51f0000000000000000000000000000000000000000000000000000000081526004016118c59190612805565b60405180910390fd5b811561193057838573ffffffffffffffffffffffffffffffffffffffff168273ffffffffffffffffffffffffffffffffffffffff167f8c5be1e5ebec7d5bd14f71427d1e84f3dd0314c0f7b2291e5b200ac8c7c3b92560405160405180910390a45b505b836004600085815260200190815260200160002060006101000a81548173ffffffffffffffffffffffffffffffffffffffff021916908373ffffffffffffffffffffffffffffffffffffffff16021790555050505050565b600080611998858585611c2d565b9050600073ffffffffffffffffffffffffffffffffffffffff168173ffffffffffffffffffffffffffffffffffffffff16036119dc576119d784611e47565b611a1b565b8473ffffffffffffffffffffffffffffffffffffffff168173ffffffffffffffffffffffffffffffffffffffff1614611a1a57611a198185611e90565b5b5b600073ffffffffffffffffffffffffffffffffffffffff168573ffffffffffffffffffffffffffffffffffffffff1603611a5d57611a5884611f7b565b611a9c565b8473ffffffffffffffffffffffffffffffffffffffff168173ffffffffffffffffffffffffffffffffffffffff1614611a9b57611a9a858561204c565b5b5b809150509392505050565b611ab183836120d7565b611ac6611abc6110fd565b6000858585611463565b505050565b606060405180602001604052806000815250905090565b6060611aed82611038565b506000611af8611acb565b90506000815111611b185760405180602001604052806000815250611b43565b80611b22846121d0565b604051602001611b339291906135e6565b6040516020818303038152906040525b915050919050565b60007f80ac58cd000000000000000000000000000000000000000000000000000000007bffffffffffffffffffffffffffffffffffffffffffffffffffffffff1916827bffffffffffffffffffffffffffffffffffffffffffffffffffffffff19161480611c1657507f5b5e139f000000000000000000000000000000000000000000000000000000007bffffffffffffffffffffffffffffffffffffffffffffffffffffffff1916827bffffffffffffffffffffffffffffffffffffffffffffffffffffffff1916145b80611c265750611c258261229e565b5b9050919050565b600080611c3984611788565b9050600073ffffffffffffffffffffffffffffffffffffffff168373ffffffffffffffffffffffffffffffffffffffff1614611c7b57611c7a818486612308565b5b600073ffffffffffffffffffffffffffffffffffffffff168173ffffffffffffffffffffffffffffffffffffffff1614611d0c57611cbd6000856000806117c5565b6001600360008373ffffffffffffffffffffffffffffffffffffffff1673ffffffffffffffffffffffffffffffffffffffff168152602001908152602001600020600082825403925050819055505b600073ffffffffffffffffffffffffffffffffffffffff168573ffffffffffffffffffffffffffffffffffffffff1614611d8f576001600360008773ffffffffffffffffffffffffffffffffffffffff1673ffffffffffffffffffffffffffffffffffffffff168152602001908152602001600020600082825401925050819055505b846002600086815260200190815260200160002060006101000a81548173ffffffffffffffffffffffffffffffffffffffff021916908373ffffffffffffffffffffffffffffffffffffffff160217905550838573ffffffffffffffffffffffffffffffffffffffff168273ffffffffffffffffffffffffffffffffffffffff167fddf252ad1be2c89b69c2b068fc378daa952ba7f163c4a11628f55a4df523b3ef60405160405180910390a4809150509392505050565b600a80549050600b600083815260200190815260200160002081905550600a81908060018154018082558091505060019003906000526020600020016000909190919091505550565b6000611e9b836109df565b90506000600960008481526020019081526020016000205490506000600860008673ffffffffffffffffffffffffffffffffffffffff1673ffffffffffffffffffffffffffffffffffffffff1681526020019081526020016000209050828214611f475760008160008581526020019081526020016000205490508082600085815260200190815260200160002081905550826009600083815260200190815260200160002081905550505b6009600085815260200190815260200160002060009055806000848152602001908152602001600020600090555050505050565b60006001600a80549050611f8f919061360a565b90506000600b60008481526020019081526020016000205490506000600a8381548110611fbf57611fbe612fcd565b5b9060005260206000200154905080600a8381548110611fe157611fe0612fcd565b5b906000526020600020018190555081600b600083815260200190815260200160002081905550600b600085815260200190815260200160002060009055600a8054806120305761202f61363e565b5b6001900381819060005260206000200160009055905550505050565b60006001612059846109df565b612063919061360a565b905081600860008573ffffffffffffffffffffffffffffffffffffffff1673ffffffffffffffffffffffffffffffffffffffff168152602001908152602001600020600083815260200190815260200160002081905550806009600084815260200190815260200160002081905550505050565b600073ffffffffffffffffffffffffffffffffffffffff168273ffffffffffffffffffffffffffffffffffffffff16036121495760006040517f64a0ae920000000000000000000000000000000000000000000000000000000081526004016121409190612805565b60405180910390fd5b600061215783836000611117565b9050600073ffffffffffffffffffffffffffffffffffffffff168173ffffffffffffffffffffffffffffffffffffffff16146121cb5760006040517f73c6ac6e0000000000000000000000000000000000000000000000000000000081526004016121c29190612805565b60405180910390fd5b505050565b6060600060016121df846123cc565b01905060008167ffffffffffffffff8111156121fe576121fd612940565b5b6040519080825280601f01601f1916602001820160405280156122305781602001600182028036833780820191505090505b509050600082602001820190505b600115612293578080600190039150507f3031323334353637383961626364656600000000000000000000000000000000600a86061a8153600a85816122875761228661366d565b5b0494506000850361223e575b819350505050919050565b60007f01ffc9a7000000000000000000000000000000000000000000000000000000007bffffffffffffffffffffffffffffffffffffffffffffffffffffffff1916827bffffffffffffffffffffffffffffffffffffffffffffffffffffffff1916149050919050565b61231383838361251f565b6123c757600073ffffffffffffffffffffffffffffffffffffffff168373ffffffffffffffffffffffffffffffffffffffff160361238857806040517f7e27328900000000000000000000000000000000000000000000000000000000815260040161237f919061289b565b60405180910390fd5b81816040517f177e802f0000000000000000000000000000000000000000000000000000000081526004016123be929190612ef2565b60405180910390fd5b505050565b600080600090507a184f03e93ff9f4daa797ed6e38ed64bf6a1f010000000000000000831061242a577a184f03e93ff9f4daa797ed6e38ed64bf6a1f01000000000000000083816124205761241f61366d565b5b0492506040810190505b6d04ee2d6d415b85acef81000000008310612467576d04ee2d6d415b85acef8100000000838161245d5761245c61366d565b5b0492506020810190505b662386f26fc10000831061249657662386f26fc10000838161248c5761248b61366d565b5b0492506010810190505b6305f5e10083106124bf576305f5e10083816124b5576124b461366d565b5b0492506008810190505b61271083106124e45761271083816124da576124d961366d565b5b0492506004810190505b6064831061250757606483816124fd576124fc61366d565b5b0492506002810190505b600a8310612516576001810190505b80915050919050565b60008073ffffffffffffffffffffffffffffffffffffffff168373ffffffffffffffffffffffffffffffffffffffff16141580156125d757508273ffffffffffffffffffffffffffffffffffffffff168473ffffffffffffffffffffffffffffffffffffffff16148061259857506125978484610e92565b5b806125d657508273ffffffffffffffffffffffffffffffffffffffff166125be836110c0565b73ffffffffffffffffffffffffffffffffffffffff16145b5b90509392505050565b6000604051905090565b600080fd5b600080fd5b60007fffffffff0000000000000000000000000000000000000000000000000000000082169050919050565b612629816125f4565b811461263457600080fd5b50565b60008135905061264681612620565b92915050565b600060208284031215612662576126616125ea565b5b600061267084828501612637565b91505092915050565b60008115159050919050565b61268e81612679565b82525050565b60006020820190506126a96000830184612685565b92915050565b600081519050919050565b600082825260208201905092915050565b60005b838110156126e95780820151818401526020810190506126ce565b60008484015250505050565b6000601f19601f8301169050919050565b6000612711826126af565b61271b81856126ba565b935061272b8185602086016126cb565b612734816126f5565b840191505092915050565b600060208201905081810360008301526127598184612706565b905092915050565b6000819050919050565b61277481612761565b811461277f57600080fd5b50565b6000813590506127918161276b565b92915050565b6000602082840312156127ad576127ac6125ea565b5b60006127bb84828501612782565b91505092915050565b600073ffffffffffffffffffffffffffffffffffffffff82169050919050565b60006127ef826127c4565b9050919050565b6127ff816127e4565b82525050565b600060208201905061281a60008301846127f6565b92915050565b612829816127e4565b811461283457600080fd5b50565b60008135905061284681612820565b92915050565b60008060408385031215612863576128626125ea565b5b600061287185828601612837565b925050602061288285828601612782565b9150509250929050565b61289581612761565b82525050565b60006020820190506128b0600083018461288c565b92915050565b6000806000606084860312156128cf576128ce6125ea565b5b60006128dd86828701612837565b93505060206128ee86828701612837565b92505060406128ff86828701612782565b9150509250925092565b60006020828403121561291f5761291e6125ea565b5b600061292d84828501612837565b91505092915050565b600080fd5b600080fd5b7f4e487b7100000000000000000000000000000000000000000000000000000000600052604160045260246000fd5b612978826126f5565b810181811067ffffffffffffffff8211171561299757612996612940565b5b80604052505050565b60006129aa6125e0565b90506129b6828261296f565b919050565b600067ffffffffffffffff8211156129d6576129d5612940565b5b6129df826126f5565b9050602081019050919050565b82818337600083830152505050565b6000612a0e612a09846129bb565b6129a0565b905082815260208101848484011115612a2a57612a2961293b565b5b612a358482856129ec565b509392505050565b600082601f830112612a5257612a51612936565b5b8135612a628482602086016129fb565b91505092915050565b60008060408385031215612a8257612a816125ea565b5b6000612a9085828601612782565b925050602083013567ffffffffffffffff811115612ab157612ab06125ef565b5b612abd85828601612a3d565b9150509250929050565b612ad081612679565b8114612adb57600080fd5b50565b600081359050612aed81612ac7565b92915050565b60008060408385031215612b0a57612b096125ea565b5b6000612b1885828601612837565b9250506020612b2985828601612ade565b9150509250929050565b600067ffffffffffffffff821115612b4e57612b4d612940565b5b612b57826126f5565b9050602081019050919050565b6000612b77612b7284612b33565b6129a0565b905082815260208101848484011115612b9357612b9261293b565b5b612b9e8482856129ec565b509392505050565b600082601f830112612bbb57612bba612936565b5b8135612bcb848260208601612b64565b91505092915050565b60008060008060808587031215612bee57612bed6125ea565b5b6000612bfc87828801612837565b9450506020612c0d87828801612837565b9350506040612c1e87828801612782565b925050606085013567ffffffffffffffff811115612c3f57612c3e6125ef565b5b612c4b87828801612ba6565b91505092959194509250565b600067ffffffffffffffff821115612c7257612c71612940565b5b602082029050602081019050919050565b600080fd5b6000612c9b612c9684612c57565b6129a0565b90508083825260208201905060208402830185811115612cbe57612cbd612c83565b5b835b81811015612d0557803567ffffffffffffffff811115612ce357612ce2612936565b5b808601612cf08982612a3d565b85526020850194505050602081019050612cc0565b5050509392505050565b600082601f830112612d2457612d23612936565b5b8135612d34848260208601612c88565b91505092915050565b600080600060608486031215612d5657612d556125ea565b5b6000612d6486828701612837565b9350506020612d7586828701612782565b925050604084013567ffffffffffffffff811115612d9657612d956125ef565b5b612da286828701612d0f565b9150509250925092565b600080600060608486031215612dc557612dc46125ea565b5b6000612dd386828701612837565b9350506020612de486828701612782565b925050604084013567ffffffffffffffff811115612e0557612e046125ef565b5b612e1186828701612a3d565b9150509250925092565b60008060408385031215612e3257612e316125ea565b5b6000612e4085828601612837565b9250506020612e5185828601612837565b9150509250929050565b7f4e487b7100000000000000000000000000000000000000000000000000000000600052602260045260246000fd5b60006002820490506001821680612ea257607f821691505b602082108103612eb557612eb4612e5b565b5b50919050565b6000606082019050612ed060008301866127f6565b612edd602083018561288c565b612eea60408301846127f6565b949350505050565b6000604082019050612f0760008301856127f6565b612f14602083018461288c565b9392505050565b600081905092915050565b50565b6000612f36600083612f1b565b9150612f4182612f26565b600082019050919050565b6000612f5782612f29565b9150819050919050565b7f5472616e73666572206661696c65640000000000000000000000000000000000600082015250565b6000612f97600f836126ba565b9150612fa282612f61565b602082019050919050565b60006020820190508181036000830152612fc681612f8a565b9050919050565b7f4e487b7100000000000000000000000000000000000000000000000000000000600052603260045260246000fd5b7f496e73756666696369656e74207061796d656e74000000000000000000000000600082015250565b60006130326014836126ba565b915061303d82612ffc565b602082019050919050565b6000602082019050818103600083015261306181613025565b9050919050565b7f546f6b656e20616c7265616479206d696e746564000000000000000000000000600082015250565b600061309e6014836126ba565b91506130a982613068565b602082019050919050565b600060208201905081810360008301526130cd81613091565b9050919050565b7f4d69736d61746368206265747765656e207175616e7469747920616e6420555260008201527f4973000000000000000000000000000000000000000000000000000000000000602082015250565b60006131306022836126ba565b915061313b826130d4565b604082019050919050565b6000602082019050818103600083015261315f81613123565b9050919050565b7f4e487b7100000000000000000000000000000000000000000000000000000000600052601160045260246000fd5b60006131a082612761565b91507fffffffffffffffffffffffffffffffffffffffffffffffffffffffffffffffff82036131d2576131d1613166565b5b600182019050919050565b7f546f6b656e20494420616c7265616479206d696e746564000000000000000000600082015250565b60006132136017836126ba565b915061321e826131dd565b602082019050919050565b6000602082019050818103600083015261324281613206565b9050919050565b60008190508160005260206000209050919050565b60006020601f8301049050919050565b600082821b905092915050565b6000600883026132ab7fffffffffffffffffffffffffffffffffffffffffffffffffffffffffffffffff8261326e565b6132b5868361326e565b95508019841693508086168417925050509392505050565b6000819050919050565b60006132f26132ed6132e884612761565b6132cd565b612761565b9050919050565b6000819050919050565b61330c836132d7565b613320613318826132f9565b84845461327b565b825550505050565b600090565b613335613328565b613340818484613303565b505050565b5b818110156133645761335960008261332d565b600181019050613346565b5050565b601f8211156133a95761337a81613249565b6133838461325e565b81016020851015613392578190505b6133a661339e8561325e565b830182613345565b50505b505050565b600082821c905092915050565b60006133cc600019846008026133ae565b1980831691505092915050565b60006133e583836133bb565b9150826002028217905092915050565b6133fe826126af565b67ffffffffffffffff81111561341757613416612940565b5b6134218254612e8a565b61342c828285613368565b600060209050601f83116001811461345f576000841561344d578287015190505b61345785826133d9565b8655506134bf565b601f19841661346d86613249565b60005b8281101561349557848901518255600182019150602085019450602081019050613470565b868310156134b257848901516134ae601f8916826133bb565b8355505b6001600288020188555050505b505050505050565b600081519050919050565b600082825260208201905092915050565b60006134ee826134c7565b6134f881856134d2565b93506135088185602086016126cb565b613511816126f5565b840191505092915050565b600060808201905061353160008301876127f6565b61353e60208301866127f6565b61354b604083018561288c565b818103606083015261355d81846134e3565b905095945050505050565b60008151905061357781612620565b92915050565b600060208284031215613593576135926125ea565b5b60006135a184828501613568565b91505092915050565b600081905092915050565b60006135c0826126af565b6135ca81856135aa565b93506135da8185602086016126cb565b80840191505092915050565b60006135f282856135b5565b91506135fe82846135b5565b91508190509392505050565b600061361582612761565b915061362083612761565b925082820390508181111561363857613637613166565b5b92915050565b7f4e487b7100000000000000000000000000000000000000000000000000000000600052603160045260246000fd5b7f4e487b7100000000000000000000000000000000000000000000000000000000600052601260045260246000fdfea26469706673582212200b1addb45abc336c3be5949159837adf9d2c8cde1bf0a97f3971343ba7dc400464736f6c634300081b0033",
  "linkReferences": {},
  "deployedLinkReferences": {}
}