{
  "_format": "hh-sol-artifact-1",
  "contractName": "MarketplaceWithPhase",
  "sourceName": "blockchain/evm/contracts/MarketplaceWithPhase.sol",
  "abi": [
    {
      "inputs": [
        {
          "internalType": "address",
          "name": "initialOwner",
          "type": "address"
        },
        {
          "internalType": "uint256",
          "name": "initialFee",
          "type": "uint256"
        }
      ],
      "stateMutability": "nonpayable",
      "type": "constructor"
    },
    {
      "inputs": [
        {
          "internalType": "address",
          "name": "owner",
          "type": "address"
        }
      ],
      "name": "OwnableInvalidOwner",
      "type": "error"
    },
    {
      "inputs": [
        {
          "internalType": "address",
          "name": "account",
          "type": "address"
        }
      ],
      "name": "OwnableUnauthorizedAccount",
      "type": "error"
    },
    {
      "inputs": [],
      "name": "ReentrancyGuardReentrantCall",
      "type": "error"
    },
    {
      "anonymous": false,
      "inputs": [
        {
          "indexed": true,
          "internalType": "address",
          "name": "nftContract",
          "type": "address"
        }
      ],
      "name": "CollectionDeactivated",
      "type": "event"
    },
    {
      "anonymous": false,
      "inputs": [
        {
          "indexed": true,
          "internalType": "address",
          "name": "nftContract",
          "type": "address"
        },
        {
          "indexed": false,
          "internalType": "uint8",
          "name": "publicMaxMint",
          "type": "uint8"
        }
      ],
      "name": "CollectionRegistered",
      "type": "event"
    },
    {
      "anonymous": false,
      "inputs": [
        {
          "indexed": true,
          "internalType": "uint256",
          "name": "listingId",
          "type": "uint256"
        }
      ],
      "name": "ListingCancelled",
      "type": "event"
    },
    {
      "anonymous": false,
      "inputs": [
        {
          "indexed": true,
          "internalType": "uint256",
          "name": "listingId",
          "type": "uint256"
        },
        {
          "indexed": true,
          "internalType": "address",
          "name": "nftContract",
          "type": "address"
        },
        {
          "indexed": false,
          "internalType": "uint256",
          "name": "tokenId",
          "type": "uint256"
        },
        {
          "indexed": false,
          "internalType": "uint256",
          "name": "price",
          "type": "uint256"
        }
      ],
      "name": "ListingCreated",
      "type": "event"
    },
    {
      "anonymous": false,
      "inputs": [
        {
          "indexed": true,
          "internalType": "uint256",
          "name": "listingId",
          "type": "uint256"
        },
        {
          "indexed": true,
          "internalType": "address",
          "name": "buyer",
          "type": "address"
        },
        {
          "indexed": false,
          "internalType": "uint256",
          "name": "price",
          "type": "uint256"
        }
      ],
      "name": "ListingSold",
      "type": "event"
    },
    {
      "anonymous": false,
      "inputs": [
        {
          "indexed": true,
          "internalType": "address",
          "name": "previousOwner",
          "type": "address"
        },
        {
          "indexed": true,
          "internalType": "address",
          "name": "newOwner",
          "type": "address"
        }
      ],
      "name": "OwnershipTransferred",
      "type": "event"
    },
    {
      "anonymous": false,
      "inputs": [
        {
          "indexed": true,
          "internalType": "address",
          "name": "nftContract",
          "type": "address"
        },
        {
          "indexed": false,
          "internalType": "uint40",
          "name": "whitelistEndTime",
          "type": "uint40"
        },
        {
          "indexed": false,
          "internalType": "uint40",
          "name": "fcfsEndTime",
          "type": "uint40"
        },
        {
          "indexed": false,
          "internalType": "bool",
          "name": "hasWhitelist",
          "type": "bool"
        },
        {
          "indexed": false,
          "internalType": "bool",
          "name": "hasFCFS",
          "type": "bool"
        }
      ],
      "name": "PhasesConfigured",
      "type": "event"
    },
    {
      "inputs": [
        {
          "internalType": "uint256",
          "name": "listingId",
          "type": "uint256"
        }
      ],
      "name": "cancelListing",
      "outputs": [],
      "stateMutability": "nonpayable",
      "type": "function"
    },
    {
      "inputs": [
        {
          "internalType": "address",
          "name": "",
          "type": "address"
        }
      ],
      "name": "collectionPhases",
      "outputs": [
        {
          "internalType": "uint40",
          "name": "whitelistEndTime",
          "type": "uint40"
        },
        {
          "internalType": "uint40",
          "name": "fcfsEndTime",
          "type": "uint40"
        },
        {
          "internalType": "uint8",
          "name": "whitelistMaxMint",
          "type": "uint8"
        },
        {
          "internalType": "uint8",
          "name": "fcfsMaxMint",
          "type": "uint8"
        },
        {
          "internalType": "uint8",
          "name": "publicMaxMint",
          "type": "uint8"
        },
        {
          "internalType": "bytes32",
          "name": "merkleRoot",
          "type": "bytes32"
        },
        {
          "internalType": "bool",
          "name": "isActive",
          "type": "bool"
        }
      ],
      "stateMutability": "view",
      "type": "function"
    },
    {
      "inputs": [
        {
          "internalType": "address",
          "name": "nftContract",
          "type": "address"
        },
        {
          "internalType": "uint40",
          "name": "whitelistEndTime",
          "type": "uint40"
        },
        {
          "internalType": "uint40",
          "name": "fcfsEndTime",
          "type": "uint40"
        },
        {
          "internalType": "uint8",
          "name": "whitelistMax",
          "type": "uint8"
        },
        {
          "internalType": "uint8",
          "name": "fcfsMax",
          "type": "uint8"
        },
        {
          "internalType": "bytes32",
          "name": "merkleRoot",
          "type": "bytes32"
        }
      ],
      "name": "configureOptionalPhases",
      "outputs": [],
      "stateMutability": "nonpayable",
      "type": "function"
    },
    {
      "inputs": [
        {
          "internalType": "address",
          "name": "nftContract",
          "type": "address"
        },
        {
          "internalType": "uint256",
          "name": "tokenId",
          "type": "uint256"
        },
        {
          "internalType": "uint256",
          "name": "price",
          "type": "uint256"
        }
      ],
      "name": "createListing",
      "outputs": [],
      "stateMutability": "nonpayable",
      "type": "function"
    },
    {
      "inputs": [
        {
          "internalType": "address",
          "name": "nftContract",
          "type": "address"
        }
      ],
      "name": "deactivateCollection",
      "outputs": [],
      "stateMutability": "nonpayable",
      "type": "function"
    },
    {
      "inputs": [
        {
          "internalType": "address",
          "name": "nftContract",
          "type": "address"
        }
      ],
      "name": "getCollectionConfig",
      "outputs": [
        {
          "components": [
            {
              "internalType": "uint40",
              "name": "whitelistEndTime",
              "type": "uint40"
            },
            {
              "internalType": "uint40",
              "name": "fcfsEndTime",
              "type": "uint40"
            },
            {
              "internalType": "uint8",
              "name": "whitelistMaxMint",
              "type": "uint8"
            },
            {
              "internalType": "uint8",
              "name": "fcfsMaxMint",
              "type": "uint8"
            },
            {
              "internalType": "uint8",
              "name": "publicMaxMint",
              "type": "uint8"
            },
            {
              "internalType": "bytes32",
              "name": "merkleRoot",
              "type": "bytes32"
            },
            {
              "internalType": "bool",
              "name": "isActive",
              "type": "bool"
            }
          ],
          "internalType": "struct MarketplaceWithPhase.PhaseConfig",
          "name": "",
          "type": "tuple"
        }
      ],
      "stateMutability": "view",
      "type": "function"
    },
    {
      "inputs": [
        {
          "internalType": "address",
          "name": "nftContract",
          "type": "address"
        }
      ],
      "name": "getCurrentPhase",
      "outputs": [
        {
          "internalType": "uint8",
          "name": "",
          "type": "uint8"
        }
      ],
      "stateMutability": "view",
      "type": "function"
    },
    {
      "inputs": [
        {
          "internalType": "uint256",
          "name": "listingId",
          "type": "uint256"
        }
      ],
      "name": "getListing",
      "outputs": [
        {
          "components": [
            {
              "internalType": "uint256",
              "name": "listingId",
              "type": "uint256"
            },
            {
              "internalType": "address",
              "name": "nftContract",
              "type": "address"
            },
            {
              "internalType": "uint256",
              "name": "tokenId",
              "type": "uint256"
            },
            {
              "internalType": "address",
              "name": "seller",
              "type": "address"
            },
            {
              "internalType": "uint256",
              "name": "price",
              "type": "uint256"
            },
            {
              "internalType": "bool",
              "name": "isActive",
              "type": "bool"
            }
          ],
          "internalType": "struct MarketplaceWithPhase.Listing",
          "name": "",
          "type": "tuple"
        }
      ],
      "stateMutability": "view",
      "type": "function"
    },
    {
      "inputs": [],
      "name": "getListingIdCounter",
      "outputs": [
        {
          "internalType": "uint256",
          "name": "",
          "type": "uint256"
        }
      ],
      "stateMutability": "view",
      "type": "function"
    },
    {
      "inputs": [
        {
          "internalType": "address",
          "name": "user",
          "type": "address"
        },
        {
          "internalType": "address",
          "name": "nftContract",
          "type": "address"
        },
        {
          "internalType": "uint8",
          "name": "phase",
          "type": "uint8"
        }
      ],
      "name": "getMintCount",
      "outputs": [
        {
          "internalType": "uint256",
          "name": "",
          "type": "uint256"
        }
      ],
      "stateMutability": "view",
      "type": "function"
    },
    {
      "inputs": [
        {
          "internalType": "uint256",
          "name": "",
          "type": "uint256"
        }
      ],
      "name": "listings",
      "outputs": [
        {
          "internalType": "uint256",
          "name": "listingId",
          "type": "uint256"
        },
        {
          "internalType": "address",
          "name": "nftContract",
          "type": "address"
        },
        {
          "internalType": "uint256",
          "name": "tokenId",
          "type": "uint256"
        },
        {
          "internalType": "address",
          "name": "seller",
          "type": "address"
        },
        {
          "internalType": "uint256",
          "name": "price",
          "type": "uint256"
        },
        {
          "internalType": "bool",
          "name": "isActive",
          "type": "bool"
        }
      ],
      "stateMutability": "view",
      "type": "function"
    },
    {
      "inputs": [],
      "name": "marketplaceFee",
      "outputs": [
        {
          "internalType": "uint256",
          "name": "",
          "type": "uint256"
        }
      ],
      "stateMutability": "view",
      "type": "function"
    },
    {
      "inputs": [],
      "name": "owner",
      "outputs": [
        {
          "internalType": "address",
          "name": "",
          "type": "address"
        }
      ],
      "stateMutability": "view",
      "type": "function"
    },
    {
      "inputs": [
        {
          "internalType": "uint256",
          "name": "listingId",
          "type": "uint256"
        },
        {
          "internalType": "bytes32[]",
          "name": "merkleProof",
          "type": "bytes32[]"
        }
      ],
      "name": "purchaseListing",
      "outputs": [],
      "stateMutability": "payable",
      "type": "function"
    },
    {
      "inputs": [
        {
          "internalType": "address",
          "name": "nftContract",
          "type": "address"
        },
        {
          "internalType": "uint8",
          "name": "publicMaxMint",
          "type": "uint8"
        }
      ],
      "name": "registerCollection",
      "outputs": [],
      "stateMutability": "nonpayable",
      "type": "function"
    },
    {
      "inputs": [],
      "name": "renounceOwnership",
      "outputs": [],
      "stateMutability": "nonpayable",
      "type": "function"
    },
    {
      "inputs": [
        {
          "internalType": "address",
          "name": "newOwner",
          "type": "address"
        }
      ],
      "name": "transferOwnership",
      "outputs": [],
      "stateMutability": "nonpayable",
      "type": "function"
    }
  ],
  "bytecode": "0x608060405234801561001057600080fd5b50604051613b6c380380613b6c8339818101604052810190610032919061026c565b81600073ffffffffffffffffffffffffffffffffffffffff168173ffffffffffffffffffffffffffffffffffffffff16036100a55760006040517f1e4fbdf700000000000000000000000000000000000000000000000000000000815260040161009c91906102bb565b60405180910390fd5b6100b48161010f60201b60201c565b50600180819055506103e8811115610101576040517f08c379a00000000000000000000000000000000000000000000000000000000081526004016100f890610333565b60405180910390fd5b806003819055505050610353565b60008060009054906101000a900473ffffffffffffffffffffffffffffffffffffffff169050816000806101000a81548173ffffffffffffffffffffffffffffffffffffffff021916908373ffffffffffffffffffffffffffffffffffffffff1602179055508173ffffffffffffffffffffffffffffffffffffffff168173ffffffffffffffffffffffffffffffffffffffff167f8be0079c531659141344cd1fd0a4f28419497f9722a3daafe3b4186f6b6457e060405160405180910390a35050565b600080fd5b600073ffffffffffffffffffffffffffffffffffffffff82169050919050565b6000610203826101d8565b9050919050565b610213816101f8565b811461021e57600080fd5b50565b6000815190506102308161020a565b92915050565b6000819050919050565b61024981610236565b811461025457600080fd5b50565b60008151905061026681610240565b92915050565b60008060408385031215610283576102826101d3565b5b600061029185828601610221565b92505060206102a285828601610257565b9150509250929050565b6102b5816101f8565b82525050565b60006020820190506102d060008301846102ac565b92915050565b600082825260208201905092915050565b7f46656520746f6f20686967680000000000000000000000000000000000000000600082015250565b600061031d600c836102d6565b9150610328826102e7565b602082019050919050565b6000602082019050818103600083015261034c81610310565b9050919050565b61380a806103626000396000f3fe6080604052600436106100fe5760003560e01c8063715018a611610095578063bb8d50ad11610064578063bb8d50ad14610333578063bd7ba0631461035c578063de74e57b1461039f578063ea88b96f146103e1578063f2fde38b146103fd576100fe565b8063715018a61461027757806371d3b4d31461028e5780637aa50053146102cb5780638da5cb5b14610308576100fe565b806324780c56116100d157806324780c56146101d1578063305a67a8146101fa5780633a4618a2146102235780636a1669641461024c576100fe565b8063107a274a14610103578063191cf354146101405780631931d35c1461017d578063223fe912146101a8575b600080fd5b34801561010f57600080fd5b5061012a600480360381019061012591906125bb565b610426565b60405161013791906126ce565b60405180910390f35b34801561014c57600080fd5b5061016760048036038101906101629190612715565b610538565b6040516101749190612825565b60405180910390f35b34801561018957600080fd5b5061019261065f565b60405161019f919061284f565b60405180910390f35b3480156101b457600080fd5b506101cf60048036038101906101ca9190612896565b610669565b005b3480156101dd57600080fd5b506101f860048036038101906101f391906128d6565b610975565b005b34801561020657600080fd5b50610221600480360381019061021c91906125bb565b610ed1565b005b34801561022f57600080fd5b5061024a60048036038101906102459190612715565b611019565b005b34801561025857600080fd5b506102616110c2565b60405161026e919061284f565b60405180910390f35b34801561028357600080fd5b5061028c6110c8565b005b34801561029a57600080fd5b506102b560048036038101906102b09190612929565b6110dc565b6040516102c2919061284f565b60405180910390f35b3480156102d757600080fd5b506102f260048036038101906102ed9190612715565b61117b565b6040516102ff919061298b565b60405180910390f35b34801561031457600080fd5b5061031d611351565b60405161032a91906129b5565b60405180910390f35b34801561033f57600080fd5b5061035a60048036038101906103559190612a28565b61137a565b005b34801561036857600080fd5b50610383600480360381019061037e9190612715565b6117ab565b6040516103969796959493929190612ae2565b60405180910390f35b3480156103ab57600080fd5b506103c660048036038101906103c191906125bb565b611843565b6040516103d896959493929190612b51565b60405180910390f35b6103fb60048036038101906103f69190612c17565b6118cc565b005b34801561040957600080fd5b50610424600480360381019061041f9190612715565b611ea4565b005b61042e6124be565b600460008381526020019081526020016000206040518060c0016040529081600082015481526020016001820160009054906101000a900473ffffffffffffffffffffffffffffffffffffffff1673ffffffffffffffffffffffffffffffffffffffff1673ffffffffffffffffffffffffffffffffffffffff168152602001600282015481526020016003820160009054906101000a900473ffffffffffffffffffffffffffffffffffffffff1673ffffffffffffffffffffffffffffffffffffffff1673ffffffffffffffffffffffffffffffffffffffff168152602001600482015481526020016005820160009054906101000a900460ff1615151515815250509050919050565b610540612522565b600560008373ffffffffffffffffffffffffffffffffffffffff1673ffffffffffffffffffffffffffffffffffffffff1681526020019081526020016000206040518060e00160405290816000820160009054906101000a900464ffffffffff1664ffffffffff1664ffffffffff1681526020016000820160059054906101000a900464ffffffffff1664ffffffffff1664ffffffffff16815260200160008201600a9054906101000a900460ff1660ff1660ff16815260200160008201600b9054906101000a900460ff1660ff1660ff16815260200160008201600c9054906101000a900460ff1660ff1660ff168152602001600182015481526020016002820160009054906101000a900460ff1615151515815250509050919050565b6000600254905090565b600073ffffffffffffffffffffffffffffffffffffffff168273ffffffffffffffffffffffffffffffffffffffff16036106d8576040517f08c379a00000000000000000000000000000000000000000000000000000000081526004016106cf90612cd4565b60405180910390fd5b600560008373ffffffffffffffffffffffffffffffffffffffff1673ffffffffffffffffffffffffffffffffffffffff16815260200190815260200160002060020160009054906101000a900460ff1615610768576040517f08c379a000000000000000000000000000000000000000000000000000000000815260040161075f90612d40565b60405180910390fd5b60008160ff16116107ae576040517f08c379a00000000000000000000000000000000000000000000000000000000081526004016107a590612dac565b60405180910390fd5b6040518060e00160405280600064ffffffffff168152602001600064ffffffffff168152602001600060ff168152602001600060ff1681526020018260ff1681526020016000801b815260200160011515815250600560008473ffffffffffffffffffffffffffffffffffffffff1673ffffffffffffffffffffffffffffffffffffffff16815260200190815260200160002060008201518160000160006101000a81548164ffffffffff021916908364ffffffffff16021790555060208201518160000160056101000a81548164ffffffffff021916908364ffffffffff160217905550604082015181600001600a6101000a81548160ff021916908360ff160217905550606082015181600001600b6101000a81548160ff021916908360ff160217905550608082015181600001600c6101000a81548160ff021916908360ff16021790555060a0820151816001015560c08201518160020160006101000a81548160ff0219169083151502179055509050508173ffffffffffffffffffffffffffffffffffffffff167f62d2e865296eb3b68ca96c9b457332824cc4f1fdad9c8b257dc0afad5163d59682604051610969919061298b565b60405180910390a25050565b61097d611f2a565b600081116109c0576040517f08c379a00000000000000000000000000000000000000000000000000000000081526004016109b790612e18565b60405180910390fd5b600073ffffffffffffffffffffffffffffffffffffffff168373ffffffffffffffffffffffffffffffffffffffff1603610a2f576040517f08c379a0000000000000000000000000000000000000000000000000000000008152600401610a2690612e84565b60405180910390fd5b600560008473ffffffffffffffffffffffffffffffffffffffff1673ffffffffffffffffffffffffffffffffffffffff16815260200190815260200160002060020160009054906101000a900460ff16610abe576040517f08c379a0000000000000000000000000000000000000000000000000000000008152600401610ab590612ef0565b60405180910390fd5b60008390503373ffffffffffffffffffffffffffffffffffffffff168173ffffffffffffffffffffffffffffffffffffffff16636352211e856040518263ffffffff1660e01b8152600401610b13919061284f565b602060405180830381865afa158015610b30573d6000803e3d6000fd5b505050506040513d601f19601f82011682018060405250810190610b549190612f25565b73ffffffffffffffffffffffffffffffffffffffff1614610baa576040517f08c379a0000000000000000000000000000000000000000000000000000000008152600401610ba190612f9e565b60405180910390fd5b3073ffffffffffffffffffffffffffffffffffffffff168173ffffffffffffffffffffffffffffffffffffffff1663081812fc856040518263ffffffff1660e01b8152600401610bfa919061284f565b602060405180830381865afa158015610c17573d6000803e3d6000fd5b505050506040513d601f19601f82011682018060405250810190610c3b9190612f25565b73ffffffffffffffffffffffffffffffffffffffff161480610cd557508073ffffffffffffffffffffffffffffffffffffffff1663e985e9c533306040518363ffffffff1660e01b8152600401610c93929190612fbe565b602060405180830381865afa158015610cb0573d6000803e3d6000fd5b505050506040513d601f19601f82011682018060405250810190610cd49190613013565b5b610d14576040517f08c379a0000000000000000000000000000000000000000000000000000000008152600401610d0b9061308c565b60405180910390fd5b60026000815480929190610d27906130db565b9190505550600060025490506040518060c001604052808281526020018673ffffffffffffffffffffffffffffffffffffffff1681526020018581526020013373ffffffffffffffffffffffffffffffffffffffff16815260200184815260200160011515815250600460008381526020019081526020016000206000820151816000015560208201518160010160006101000a81548173ffffffffffffffffffffffffffffffffffffffff021916908373ffffffffffffffffffffffffffffffffffffffff1602179055506040820151816002015560608201518160030160006101000a81548173ffffffffffffffffffffffffffffffffffffffff021916908373ffffffffffffffffffffffffffffffffffffffff1602179055506080820151816004015560a08201518160050160006101000a81548160ff0219169083151502179055509050508473ffffffffffffffffffffffffffffffffffffffff16817f12dc294b81a709d694b1337a350a12a00076c19a77a25aab67a5f0c07e0f164d8686604051610eba929190613123565b60405180910390a35050610ecc611f70565b505050565b60006004600083815260200190815260200160002090508060050160009054906101000a900460ff16610f39576040517f08c379a0000000000000000000000000000000000000000000000000000000008152600401610f3090613198565b60405180910390fd5b3373ffffffffffffffffffffffffffffffffffffffff168160030160009054906101000a900473ffffffffffffffffffffffffffffffffffffffff1673ffffffffffffffffffffffffffffffffffffffff1614610fcb576040517f08c379a0000000000000000000000000000000000000000000000000000000008152600401610fc290613204565b60405180910390fd5b60008160050160006101000a81548160ff021916908315150217905550817f411aee90354c51b1b04cd563fcab2617142a9d50da19232d888547c8a1b7fd8a60405160405180910390a25050565b611021611f79565b6000600560008373ffffffffffffffffffffffffffffffffffffffff1673ffffffffffffffffffffffffffffffffffffffff16815260200190815260200160002060020160006101000a81548160ff0219169083151502179055508073ffffffffffffffffffffffffffffffffffffffff167f8aaa4d9743e4c5f1379c29290b8c89bd18c6c832a7b0deb6498c0d44b667878560405160405180910390a250565b60035481565b6110d0611f79565b6110da6000612000565b565b6000600660008573ffffffffffffffffffffffffffffffffffffffff1673ffffffffffffffffffffffffffffffffffffffff16815260200190815260200160002060008473ffffffffffffffffffffffffffffffffffffffff1673ffffffffffffffffffffffffffffffffffffffff16815260200190815260200160002060008360ff1660ff1681526020019081526020016000205490509392505050565b600080600560008473ffffffffffffffffffffffffffffffffffffffff1673ffffffffffffffffffffffffffffffffffffffff1681526020019081526020016000206040518060e00160405290816000820160009054906101000a900464ffffffffff1664ffffffffff1664ffffffffff1681526020016000820160059054906101000a900464ffffffffff1664ffffffffff1664ffffffffff16815260200160008201600a9054906101000a900460ff1660ff1660ff16815260200160008201600b9054906101000a900460ff1660ff1660ff16815260200160008201600c9054906101000a900460ff1660ff1660ff168152602001600182015481526020016002820160009054906101000a900460ff16151515158152505090508060c001516112dc576040517f08c379a00000000000000000000000000000000000000000000000000000000081526004016112d390612ef0565b60405180910390fd5b6000816000015164ffffffffff161180156113025750806000015164ffffffffff164211155b1561131157600191505061134c565b6000816020015164ffffffffff161180156113375750806020015164ffffffffff164211155b1561134657600291505061134c565b60039150505b919050565b60008060009054906101000a900473ffffffffffffffffffffffffffffffffffffffff16905090565b600560008773ffffffffffffffffffffffffffffffffffffffff1673ffffffffffffffffffffffffffffffffffffffff16815260200190815260200160002060020160009054906101000a900460ff16611409576040517f08c379a000000000000000000000000000000000000000000000000000000000815260040161140090613270565b60405180910390fd5b611411611351565b73ffffffffffffffffffffffffffffffffffffffff163373ffffffffffffffffffffffffffffffffffffffff161461147e576040517f08c379a0000000000000000000000000000000000000000000000000000000008152600401611475906132dc565b60405180910390fd5b60008564ffffffffff1611156115c957428564ffffffffff16116114d7576040517f08c379a00000000000000000000000000000000000000000000000000000000081526004016114ce90613348565b60405180910390fd5b60008360ff161161151d576040517f08c379a0000000000000000000000000000000000000000000000000000000008152600401611514906133b4565b60405180910390fd5b60008464ffffffffff1611156115c4578464ffffffffff168464ffffffffff161161157d576040517f08c379a000000000000000000000000000000000000000000000000000000000815260040161157490613420565b60405180910390fd5b60008260ff16116115c3576040517f08c379a00000000000000000000000000000000000000000000000000000000081526004016115ba9061348c565b60405180910390fd5b5b61166a565b60008464ffffffffff16111561166957428464ffffffffff1611611622576040517f08c379a000000000000000000000000000000000000000000000000000000000815260040161161990613420565b60405180910390fd5b60008260ff1611611668576040517f08c379a000000000000000000000000000000000000000000000000000000000815260040161165f9061348c565b60405180910390fd5b5b5b6000600560008873ffffffffffffffffffffffffffffffffffffffff1673ffffffffffffffffffffffffffffffffffffffff1681526020019081526020016000209050858160000160006101000a81548164ffffffffff021916908364ffffffffff160217905550848160000160056101000a81548164ffffffffff021916908364ffffffffff1602179055508381600001600a6101000a81548160ff021916908360ff1602179055508281600001600b6101000a81548160ff021916908360ff1602179055508181600101819055508673ffffffffffffffffffffffffffffffffffffffff167f51815ea2e9f704fdbfe95b70eceb1706cfade2312a6c81f8c3896d9c7a43550d878760008a64ffffffffff161160008a64ffffffffff161160405161179a94939291906134ac565b60405180910390a250505050505050565b60056020528060005260406000206000915090508060000160009054906101000a900464ffffffffff16908060000160059054906101000a900464ffffffffff169080600001600a9054906101000a900460ff169080600001600b9054906101000a900460ff169080600001600c9054906101000a900460ff16908060010154908060020160009054906101000a900460ff16905087565b60046020528060005260406000206000915090508060000154908060010160009054906101000a900473ffffffffffffffffffffffffffffffffffffffff16908060020154908060030160009054906101000a900473ffffffffffffffffffffffffffffffffffffffff16908060040154908060050160009054906101000a900460ff16905086565b6118d4611f2a565b60006004600085815260200190815260200160002090508060050160009054906101000a900460ff1661193c576040517f08c379a000000000000000000000000000000000000000000000000000000000815260040161193390613198565b60405180910390fd5b8060040154341015611983576040517f08c379a000000000000000000000000000000000000000000000000000000000815260040161197a9061353d565b60405180910390fd5b60008160010160009054906101000a900473ffffffffffffffffffffffffffffffffffffffff169050600560008273ffffffffffffffffffffffffffffffffffffffff1673ffffffffffffffffffffffffffffffffffffffff16815260200190815260200160002060020160009054906101000a900460ff16611a3b576040517f08c379a0000000000000000000000000000000000000000000000000000000008152600401611a3290612ef0565b60405180910390fd5b6000611a468261117b565b905060018160ff1603611a9f57611a5f823387876120c4565b611a9e576040517f08c379a0000000000000000000000000000000000000000000000000000000008152600401611a95906135a9565b60405180910390fd5b5b6000600660003373ffffffffffffffffffffffffffffffffffffffff1673ffffffffffffffffffffffffffffffffffffffff16815260200190815260200160002060008473ffffffffffffffffffffffffffffffffffffffff1673ffffffffffffffffffffffffffffffffffffffff16815260200190815260200160002060008360ff1660ff1681526020019081526020016000205490506000611b438484612281565b90508060ff168210611b8a576040517f08c379a0000000000000000000000000000000000000000000000000000000008152600401611b8190613615565b60405180910390fd5b600660003373ffffffffffffffffffffffffffffffffffffffff1673ffffffffffffffffffffffffffffffffffffffff16815260200190815260200160002060008573ffffffffffffffffffffffffffffffffffffffff1673ffffffffffffffffffffffffffffffffffffffff16815260200190815260200160002060008460ff1660ff1681526020019081526020016000206000815480929190611c2e906130db565b919050555060008560050160006101000a81548160ff02191690831515021790555060006127106003548760040154611c679190613635565b611c7191906136a6565b90506000818760040154611c8591906136d7565b90508573ffffffffffffffffffffffffffffffffffffffff166323b872dd8860030160009054906101000a900473ffffffffffffffffffffffffffffffffffffffff16338a600201546040518463ffffffff1660e01b8152600401611cec9392919061370b565b600060405180830381600087803b158015611d0657600080fd5b505af1158015611d1a573d6000803e3d6000fd5b505050508660030160009054906101000a900473ffffffffffffffffffffffffffffffffffffffff1673ffffffffffffffffffffffffffffffffffffffff166108fc829081150290604051600060405180830381858888f19350505050158015611d88573d6000803e3d6000fd5b50611d91611351565b73ffffffffffffffffffffffffffffffffffffffff166108fc839081150290604051600060405180830381858888f19350505050158015611dd6573d6000803e3d6000fd5b503373ffffffffffffffffffffffffffffffffffffffff168a7f8e378317cc1b9c64766fd136e5849da5f702d26a8f8b750115b7422909b2309f8960040154604051611e22919061284f565b60405180910390a36000876004015434611e3c91906136d7565b90506000811115611e8f573373ffffffffffffffffffffffffffffffffffffffff166108fc829081150290604051600060405180830381858888f19350505050158015611e8d573d6000803e3d6000fd5b505b5050505050505050611e9f611f70565b505050565b611eac611f79565b600073ffffffffffffffffffffffffffffffffffffffff168173ffffffffffffffffffffffffffffffffffffffff1603611f1e5760006040517f1e4fbdf7000000000000000000000000000000000000000000000000000000008152600401611f1591906129b5565b60405180910390fd5b611f2781612000565b50565b600260015403611f66576040517f3ee5aeb500000000000000000000000000000000000000000000000000000000815260040160405180910390fd5b6002600181905550565b60018081905550565b611f8161240d565b73ffffffffffffffffffffffffffffffffffffffff16611f9f611351565b73ffffffffffffffffffffffffffffffffffffffff1614611ffe57611fc261240d565b6040517f118cdaa7000000000000000000000000000000000000000000000000000000008152600401611ff591906129b5565b60405180910390fd5b565b60008060009054906101000a900473ffffffffffffffffffffffffffffffffffffffff169050816000806101000a81548173ffffffffffffffffffffffffffffffffffffffff021916908373ffffffffffffffffffffffffffffffffffffffff1602179055508173ffffffffffffffffffffffffffffffffffffffff168173ffffffffffffffffffffffffffffffffffffffff167f8be0079c531659141344cd1fd0a4f28419497f9722a3daafe3b4186f6b6457e060405160405180910390a35050565b600080600560008773ffffffffffffffffffffffffffffffffffffffff1673ffffffffffffffffffffffffffffffffffffffff1681526020019081526020016000206040518060e00160405290816000820160009054906101000a900464ffffffffff1664ffffffffff1664ffffffffff1681526020016000820160059054906101000a900464ffffffffff1664ffffffffff1664ffffffffff16815260200160008201600a9054906101000a900460ff1660ff1660ff16815260200160008201600b9054906101000a900460ff1660ff1660ff16815260200160008201600c9054906101000a900460ff1660ff1660ff168152602001600182015481526020016002820160009054906101000a900460ff16151515158152505090506000801b8160a00151036121f9576000915050612279565b60008560405160200161220c919061378a565b604051602081830303815290604052805190602001209050612274858580806020026020016040519081016040528093929190818152602001838360200280828437600081840152601f19601f820116905080830192505050505050508360a0015183612415565b925050505b949350505050565b600080600560008573ffffffffffffffffffffffffffffffffffffffff1673ffffffffffffffffffffffffffffffffffffffff1681526020019081526020016000206040518060e00160405290816000820160009054906101000a900464ffffffffff1664ffffffffff1664ffffffffff1681526020016000820160059054906101000a900464ffffffffff1664ffffffffff1664ffffffffff16815260200160008201600a9054906101000a900460ff1660ff1660ff16815260200160008201600b9054906101000a900460ff1660ff1660ff16815260200160008201600c9054906101000a900460ff1660ff1660ff168152602001600182015481526020016002820160009054906101000a900460ff161515151581525050905060018360ff161480156123bc57506000816000015164ffffffffff16115b156123ce578060400151915050612407565b60028360ff161480156123ec57506000816020015164ffffffffff16115b156123fe578060600151915050612407565b80608001519150505b92915050565b600033905090565b600082612422858461242c565b1490509392505050565b60008082905060005b84518110156124715761246282868381518110612455576124546137a5565b5b602002602001015161247c565b91508080600101915050612435565b508091505092915050565b60008183106124945761248f82846124a7565b61249f565b61249e83836124a7565b5b905092915050565b600082600052816020526040600020905092915050565b6040518060c0016040528060008152602001600073ffffffffffffffffffffffffffffffffffffffff16815260200160008152602001600073ffffffffffffffffffffffffffffffffffffffff168152602001600081526020016000151581525090565b6040518060e00160405280600064ffffffffff168152602001600064ffffffffff168152602001600060ff168152602001600060ff168152602001600060ff168152602001600080191681526020016000151581525090565b600080fd5b600080fd5b6000819050919050565b61259881612585565b81146125a357600080fd5b50565b6000813590506125b58161258f565b92915050565b6000602082840312156125d1576125d061257b565b5b60006125df848285016125a6565b91505092915050565b6125f181612585565b82525050565b600073ffffffffffffffffffffffffffffffffffffffff82169050919050565b6000612622826125f7565b9050919050565b61263281612617565b82525050565b60008115159050919050565b61264d81612638565b82525050565b60c08201600082015161266960008501826125e8565b50602082015161267c6020850182612629565b50604082015161268f60408501826125e8565b5060608201516126a26060850182612629565b5060808201516126b560808501826125e8565b5060a08201516126c860a0850182612644565b50505050565b600060c0820190506126e36000830184612653565b92915050565b6126f281612617565b81146126fd57600080fd5b50565b60008135905061270f816126e9565b92915050565b60006020828403121561272b5761272a61257b565b5b600061273984828501612700565b91505092915050565b600064ffffffffff82169050919050565b61275c81612742565b82525050565b600060ff82169050919050565b61277881612762565b82525050565b6000819050919050565b6127918161277e565b82525050565b60e0820160008201516127ad6000850182612753565b5060208201516127c06020850182612753565b5060408201516127d3604085018261276f565b5060608201516127e6606085018261276f565b5060808201516127f9608085018261276f565b5060a082015161280c60a0850182612788565b5060c082015161281f60c0850182612644565b50505050565b600060e08201905061283a6000830184612797565b92915050565b61284981612585565b82525050565b60006020820190506128646000830184612840565b92915050565b61287381612762565b811461287e57600080fd5b50565b6000813590506128908161286a565b92915050565b600080604083850312156128ad576128ac61257b565b5b60006128bb85828601612700565b92505060206128cc85828601612881565b9150509250929050565b6000806000606084860312156128ef576128ee61257b565b5b60006128fd86828701612700565b935050602061290e868287016125a6565b925050604061291f868287016125a6565b9150509250925092565b6000806000606084860312156129425761294161257b565b5b600061295086828701612700565b935050602061296186828701612700565b925050604061297286828701612881565b9150509250925092565b61298581612762565b82525050565b60006020820190506129a0600083018461297c565b92915050565b6129af81612617565b82525050565b60006020820190506129ca60008301846129a6565b92915050565b6129d981612742565b81146129e457600080fd5b50565b6000813590506129f6816129d0565b92915050565b612a058161277e565b8114612a1057600080fd5b50565b600081359050612a22816129fc565b92915050565b60008060008060008060c08789031215612a4557612a4461257b565b5b6000612a5389828a01612700565b9650506020612a6489828a016129e7565b9550506040612a7589828a016129e7565b9450506060612a8689828a01612881565b9350506080612a9789828a01612881565b92505060a0612aa889828a01612a13565b9150509295509295509295565b612abe81612742565b82525050565b612acd8161277e565b82525050565b612adc81612638565b82525050565b600060e082019050612af7600083018a612ab5565b612b046020830189612ab5565b612b11604083018861297c565b612b1e606083018761297c565b612b2b608083018661297c565b612b3860a0830185612ac4565b612b4560c0830184612ad3565b98975050505050505050565b600060c082019050612b666000830189612840565b612b7360208301886129a6565b612b806040830187612840565b612b8d60608301866129a6565b612b9a6080830185612840565b612ba760a0830184612ad3565b979650505050505050565b600080fd5b600080fd5b600080fd5b60008083601f840112612bd757612bd6612bb2565b5b8235905067ffffffffffffffff811115612bf457612bf3612bb7565b5b602083019150836020820283011115612c1057612c0f612bbc565b5b9250929050565b600080600060408486031215612c3057612c2f61257b565b5b6000612c3e868287016125a6565b935050602084013567ffffffffffffffff811115612c5f57612c5e612580565b5b612c6b86828701612bc1565b92509250509250925092565b600082825260208201905092915050565b7f496e76616c696420636f6c6c656374696f6e2061646472657373000000000000600082015250565b6000612cbe601a83612c77565b9150612cc982612c88565b602082019050919050565b60006020820190508181036000830152612ced81612cb1565b9050919050565b7f436f6c6c656374696f6e20616c72656164792072656769737465726564000000600082015250565b6000612d2a601d83612c77565b9150612d3582612cf4565b602082019050919050565b60006020820190508181036000830152612d5981612d1d565b9050919050565b7f496e76616c6964207075626c6963206d6178206d696e74000000000000000000600082015250565b6000612d96601783612c77565b9150612da182612d60565b602082019050919050565b60006020820190508181036000830152612dc581612d89565b9050919050565b7f5072696365206d7573742062652067726561746572207468616e207a65726f00600082015250565b6000612e02601f83612c77565b9150612e0d82612dcc565b602082019050919050565b60006020820190508181036000830152612e3181612df5565b9050919050565b7f496e76616c6964204e465420636f6e7472616374206164647265737300000000600082015250565b6000612e6e601c83612c77565b9150612e7982612e38565b602082019050919050565b60006020820190508181036000830152612e9d81612e61565b9050919050565b7f436f6c6c656374696f6e206e6f74206163746976650000000000000000000000600082015250565b6000612eda601583612c77565b9150612ee582612ea4565b602082019050919050565b60006020820190508181036000830152612f0981612ecd565b9050919050565b600081519050612f1f816126e9565b92915050565b600060208284031215612f3b57612f3a61257b565b5b6000612f4984828501612f10565b91505092915050565b7f4e6f7420746f6b656e206f776e65720000000000000000000000000000000000600082015250565b6000612f88600f83612c77565b9150612f9382612f52565b602082019050919050565b60006020820190508181036000830152612fb781612f7b565b9050919050565b6000604082019050612fd360008301856129a6565b612fe060208301846129a6565b9392505050565b612ff081612638565b8114612ffb57600080fd5b50565b60008151905061300d81612fe7565b92915050565b6000602082840312156130295761302861257b565b5b600061303784828501612ffe565b91505092915050565b7f4d61726b6574706c616365206e6f7420617070726f7665640000000000000000600082015250565b6000613076601883612c77565b915061308182613040565b602082019050919050565b600060208201905081810360008301526130a581613069565b9050919050565b7f4e487b7100000000000000000000000000000000000000000000000000000000600052601160045260246000fd5b60006130e682612585565b91507fffffffffffffffffffffffffffffffffffffffffffffffffffffffffffffffff8203613118576131176130ac565b5b600182019050919050565b60006040820190506131386000830185612840565b6131456020830184612840565b9392505050565b7f4c697374696e67206e6f74206163746976650000000000000000000000000000600082015250565b6000613182601283612c77565b915061318d8261314c565b602082019050919050565b600060208201905081810360008301526131b181613175565b9050919050565b7f4e6f742073656c6c657200000000000000000000000000000000000000000000600082015250565b60006131ee600a83612c77565b91506131f9826131b8565b602082019050919050565b6000602082019050818103600083015261321d816131e1565b9050919050565b7f436f6c6c656374696f6e206e6f74207265676973746572656400000000000000600082015250565b600061325a601983612c77565b915061326582613224565b602082019050919050565b600060208201905081810360008301526132898161324d565b9050919050565b7f4e6f7420617574686f72697a6564000000000000000000000000000000000000600082015250565b60006132c6600e83612c77565b91506132d182613290565b602082019050919050565b600060208201905081810360008301526132f5816132b9565b9050919050565b7f496e76616c69642077686974656c69737420656e642074696d65000000000000600082015250565b6000613332601a83612c77565b915061333d826132fc565b602082019050919050565b6000602082019050818103600083015261336181613325565b9050919050565b7f496e76616c69642077686974656c697374206d6178206d696e74000000000000600082015250565b600061339e601a83612c77565b91506133a982613368565b602082019050919050565b600060208201905081810360008301526133cd81613391565b9050919050565b7f496e76616c6964204643465320656e642074696d650000000000000000000000600082015250565b600061340a601583612c77565b9150613415826133d4565b602082019050919050565b60006020820190508181036000830152613439816133fd565b9050919050565b7f496e76616c69642046434653206d6178206d696e740000000000000000000000600082015250565b6000613476601583612c77565b915061348182613440565b602082019050919050565b600060208201905081810360008301526134a581613469565b9050919050565b60006080820190506134c16000830187612ab5565b6134ce6020830186612ab5565b6134db6040830185612ad3565b6134e86060830184612ad3565b95945050505050565b7f496e73756666696369656e74207061796d656e74000000000000000000000000600082015250565b6000613527601483612c77565b9150613532826134f1565b602082019050919050565b600060208201905081810360008301526135568161351a565b9050919050565b7f4e6f742077686974656c69737465640000000000000000000000000000000000600082015250565b6000613593600f83612c77565b915061359e8261355d565b602082019050919050565b600060208201905081810360008301526135c281613586565b9050919050565b7f45786365656473207068617365206d696e74206c696d69740000000000000000600082015250565b60006135ff601883612c77565b915061360a826135c9565b602082019050919050565b6000602082019050818103600083015261362e816135f2565b9050919050565b600061364082612585565b915061364b83612585565b925082820261365981612585565b915082820484148315176136705761366f6130ac565b5b5092915050565b7f4e487b7100000000000000000000000000000000000000000000000000000000600052601260045260246000fd5b60006136b182612585565b91506136bc83612585565b9250826136cc576136cb613677565b5b828204905092915050565b60006136e282612585565b91506136ed83612585565b9250828203905081811115613705576137046130ac565b5b92915050565b600060608201905061372060008301866129a6565b61372d60208301856129a6565b61373a6040830184612840565b949350505050565b60008160601b9050919050565b600061375a82613742565b9050919050565b600061376c8261374f565b9050919050565b61378461377f82612617565b613761565b82525050565b60006137968284613773565b60148201915081905092915050565b7f4e487b7100000000000000000000000000000000000000000000000000000000600052603260045260246000fdfea26469706673582212200487a3c933e5de871fc236534bf39271219ff86d4b7fd64e35eb04168131652b64736f6c634300081b0033",
  "linkReferences": {},
  "deployedLinkReferences": {}
}