{
  "_format": "hh-sol-artifact-1",
  "contractName": "MarketplaceWithPhase",
  "sourceName": "blockchain/evm/contracts/MarketplaceWithPhase.sol",
  "abi": [
    {
      "inputs": [
        {
          "internalType": "address",
          "name": "initialOwner",
          "type": "address"
        },
        {
          "internalType": "uint256",
          "name": "initialFee",
          "type": "uint256"
        }
      ],
      "stateMutability": "nonpayable",
      "type": "constructor"
    },
    {
      "inputs": [
        {
          "internalType": "address",
          "name": "owner",
          "type": "address"
        }
      ],
      "name": "OwnableInvalidOwner",
      "type": "error"
    },
    {
      "inputs": [
        {
          "internalType": "address",
          "name": "account",
          "type": "address"
        }
      ],
      "name": "OwnableUnauthorizedAccount",
      "type": "error"
    },
    {
      "inputs": [],
      "name": "ReentrancyGuardReentrantCall",
      "type": "error"
    },
    {
      "anonymous": false,
      "inputs": [
        {
          "indexed": true,
          "internalType": "address",
          "name": "nftContract",
          "type": "address"
        }
      ],
      "name": "CollectionDeactivated",
      "type": "event"
    },
    {
      "anonymous": false,
      "inputs": [
        {
          "indexed": true,
          "internalType": "address",
          "name": "nftContract",
          "type": "address"
        },
        {
          "indexed": false,
          "internalType": "uint8",
          "name": "publicMaxMint",
          "type": "uint8"
        }
      ],
      "name": "CollectionRegistered",
      "type": "event"
    },
    {
      "anonymous": false,
      "inputs": [
        {
          "indexed": true,
          "internalType": "uint256",
          "name": "listingId",
          "type": "uint256"
        }
      ],
      "name": "ListingCancelled",
      "type": "event"
    },
    {
      "anonymous": false,
      "inputs": [
        {
          "indexed": true,
          "internalType": "uint256",
          "name": "listingId",
          "type": "uint256"
        },
        {
          "indexed": true,
          "internalType": "address",
          "name": "nftContract",
          "type": "address"
        },
        {
          "indexed": false,
          "internalType": "uint256",
          "name": "tokenId",
          "type": "uint256"
        },
        {
          "indexed": false,
          "internalType": "uint256",
          "name": "price",
          "type": "uint256"
        }
      ],
      "name": "ListingCreated",
      "type": "event"
    },
    {
      "anonymous": false,
      "inputs": [
        {
          "indexed": true,
          "internalType": "uint256",
          "name": "listingId",
          "type": "uint256"
        },
        {
          "indexed": true,
          "internalType": "address",
          "name": "buyer",
          "type": "address"
        },
        {
          "indexed": false,
          "internalType": "uint256",
          "name": "price",
          "type": "uint256"
        }
      ],
      "name": "ListingSold",
      "type": "event"
    },
    {
      "anonymous": false,
      "inputs": [
        {
          "indexed": true,
          "internalType": "address",
          "name": "previousOwner",
          "type": "address"
        },
        {
          "indexed": true,
          "internalType": "address",
          "name": "newOwner",
          "type": "address"
        }
      ],
      "name": "OwnershipTransferred",
      "type": "event"
    },
    {
      "anonymous": false,
      "inputs": [
        {
          "indexed": true,
          "internalType": "address",
          "name": "nftContract",
          "type": "address"
        },
        {
          "indexed": false,
          "internalType": "uint40",
          "name": "whitelistEndTime",
          "type": "uint40"
        },
        {
          "indexed": false,
          "internalType": "uint40",
          "name": "fcfsEndTime",
          "type": "uint40"
        },
        {
          "indexed": false,
          "internalType": "bool",
          "name": "hasWhitelist",
          "type": "bool"
        },
        {
          "indexed": false,
          "internalType": "bool",
          "name": "hasFCFS",
          "type": "bool"
        }
      ],
      "name": "PhasesConfigured",
      "type": "event"
    },
    {
      "inputs": [
        {
          "internalType": "uint256",
          "name": "listingId",
          "type": "uint256"
        }
      ],
      "name": "cancelListing",
      "outputs": [],
      "stateMutability": "nonpayable",
      "type": "function"
    },
    {
      "inputs": [
        {
          "internalType": "address",
          "name": "",
          "type": "address"
        }
      ],
      "name": "collectionPhases",
      "outputs": [
        {
          "internalType": "uint40",
          "name": "whitelistEndTime",
          "type": "uint40"
        },
        {
          "internalType": "uint40",
          "name": "fcfsEndTime",
          "type": "uint40"
        },
        {
          "internalType": "uint8",
          "name": "whitelistMaxMint",
          "type": "uint8"
        },
        {
          "internalType": "uint8",
          "name": "fcfsMaxMint",
          "type": "uint8"
        },
        {
          "internalType": "uint8",
          "name": "publicMaxMint",
          "type": "uint8"
        },
        {
          "internalType": "bytes32",
          "name": "merkleRoot",
          "type": "bytes32"
        },
        {
          "internalType": "bool",
          "name": "isActive",
          "type": "bool"
        }
      ],
      "stateMutability": "view",
      "type": "function"
    },
    {
      "inputs": [
        {
          "internalType": "address",
          "name": "nftContract",
          "type": "address"
        },
        {
          "internalType": "uint40",
          "name": "whitelistEndTime",
          "type": "uint40"
        },
        {
          "internalType": "uint40",
          "name": "fcfsEndTime",
          "type": "uint40"
        },
        {
          "internalType": "uint8",
          "name": "whitelistMax",
          "type": "uint8"
        },
        {
          "internalType": "uint8",
          "name": "fcfsMax",
          "type": "uint8"
        },
        {
          "internalType": "bytes32",
          "name": "merkleRoot",
          "type": "bytes32"
        }
      ],
      "name": "configureOptionalPhases",
      "outputs": [],
      "stateMutability": "nonpayable",
      "type": "function"
    },
    {
      "inputs": [
        {
          "internalType": "address",
          "name": "nftContract",
          "type": "address"
        },
        {
          "internalType": "uint256",
          "name": "tokenId",
          "type": "uint256"
        },
        {
          "internalType": "uint256",
          "name": "price",
          "type": "uint256"
        }
      ],
      "name": "createListing",
      "outputs": [],
      "stateMutability": "nonpayable",
      "type": "function"
    },
    {
      "inputs": [
        {
          "internalType": "address",
          "name": "nftContract",
          "type": "address"
        }
      ],
      "name": "deactivateCollection",
      "outputs": [],
      "stateMutability": "nonpayable",
      "type": "function"
    },
    {
      "inputs": [
        {
          "internalType": "address",
          "name": "nftContract",
          "type": "address"
        }
      ],
      "name": "getCollectionConfig",
      "outputs": [
        {
          "components": [
            {
              "internalType": "uint40",
              "name": "whitelistEndTime",
              "type": "uint40"
            },
            {
              "internalType": "uint40",
              "name": "fcfsEndTime",
              "type": "uint40"
            },
            {
              "internalType": "uint8",
              "name": "whitelistMaxMint",
              "type": "uint8"
            },
            {
              "internalType": "uint8",
              "name": "fcfsMaxMint",
              "type": "uint8"
            },
            {
              "internalType": "uint8",
              "name": "publicMaxMint",
              "type": "uint8"
            },
            {
              "internalType": "bytes32",
              "name": "merkleRoot",
              "type": "bytes32"
            },
            {
              "internalType": "bool",
              "name": "isActive",
              "type": "bool"
            }
          ],
          "internalType": "struct MarketplaceWithPhase.PhaseConfig",
          "name": "",
          "type": "tuple"
        }
      ],
      "stateMutability": "view",
      "type": "function"
    },
    {
      "inputs": [
        {
          "internalType": "address",
          "name": "nftContract",
          "type": "address"
        }
      ],
      "name": "getCurrentPhase",
      "outputs": [
        {
          "internalType": "uint8",
          "name": "",
          "type": "uint8"
        }
      ],
      "stateMutability": "view",
      "type": "function"
    },
    {
      "inputs": [
        {
          "internalType": "uint256",
          "name": "listingId",
          "type": "uint256"
        }
      ],
      "name": "getListing",
      "outputs": [
        {
          "components": [
            {
              "internalType": "uint256",
              "name": "listingId",
              "type": "uint256"
            },
            {
              "internalType": "address",
              "name": "nftContract",
              "type": "address"
            },
            {
              "internalType": "uint256",
              "name": "tokenId",
              "type": "uint256"
            },
            {
              "internalType": "address",
              "name": "seller",
              "type": "address"
            },
            {
              "internalType": "uint256",
              "name": "price",
              "type": "uint256"
            },
            {
              "internalType": "bool",
              "name": "isActive",
              "type": "bool"
            }
          ],
          "internalType": "struct MarketplaceWithPhase.Listing",
          "name": "",
          "type": "tuple"
        }
      ],
      "stateMutability": "view",
      "type": "function"
    },
    {
      "inputs": [],
      "name": "getListingIdCounter",
      "outputs": [
        {
          "internalType": "uint256",
          "name": "",
          "type": "uint256"
        }
      ],
      "stateMutability": "view",
      "type": "function"
    },
    {
      "inputs": [
        {
          "internalType": "address",
          "name": "user",
          "type": "address"
        },
        {
          "internalType": "address",
          "name": "nftContract",
          "type": "address"
        },
        {
          "internalType": "uint8",
          "name": "phase",
          "type": "uint8"
        }
      ],
      "name": "getMintCount",
      "outputs": [
        {
          "internalType": "uint256",
          "name": "",
          "type": "uint256"
        }
      ],
      "stateMutability": "view",
      "type": "function"
    },
    {
      "inputs": [
        {
          "internalType": "uint256",
          "name": "",
          "type": "uint256"
        }
      ],
      "name": "listings",
      "outputs": [
        {
          "internalType": "uint256",
          "name": "listingId",
          "type": "uint256"
        },
        {
          "internalType": "address",
          "name": "nftContract",
          "type": "address"
        },
        {
          "internalType": "uint256",
          "name": "tokenId",
          "type": "uint256"
        },
        {
          "internalType": "address",
          "name": "seller",
          "type": "address"
        },
        {
          "internalType": "uint256",
          "name": "price",
          "type": "uint256"
        },
        {
          "internalType": "bool",
          "name": "isActive",
          "type": "bool"
        }
      ],
      "stateMutability": "view",
      "type": "function"
    },
    {
      "inputs": [],
      "name": "marketplaceFee",
      "outputs": [
        {
          "internalType": "uint256",
          "name": "",
          "type": "uint256"
        }
      ],
      "stateMutability": "view",
      "type": "function"
    },
    {
      "inputs": [],
      "name": "owner",
      "outputs": [
        {
          "internalType": "address",
          "name": "",
          "type": "address"
        }
      ],
      "stateMutability": "view",
      "type": "function"
    },
    {
      "inputs": [
        {
          "internalType": "uint256",
          "name": "listingId",
          "type": "uint256"
        },
        {
          "internalType": "bytes32[]",
          "name": "merkleProof",
          "type": "bytes32[]"
        }
      ],
      "name": "purchaseListing",
      "outputs": [],
      "stateMutability": "payable",
      "type": "function"
    },
    {
      "inputs": [
        {
          "internalType": "address",
          "name": "nftContract",
          "type": "address"
        },
        {
          "internalType": "uint8",
          "name": "publicMaxMint",
          "type": "uint8"
        }
      ],
      "name": "registerCollection",
      "outputs": [],
      "stateMutability": "nonpayable",
      "type": "function"
    },
    {
      "inputs": [],
      "name": "renounceOwnership",
      "outputs": [],
      "stateMutability": "nonpayable",
      "type": "function"
    },
    {
      "inputs": [
        {
          "internalType": "address",
          "name": "newOwner",
          "type": "address"
        }
      ],
      "name": "transferOwnership",
      "outputs": [],
      "stateMutability": "nonpayable",
      "type": "function"
    }
  ],
  "bytecode": "0x608060405234801561001057600080fd5b50604051613b72380380613b728339818101604052810190610032919061026c565b81600073ffffffffffffffffffffffffffffffffffffffff168173ffffffffffffffffffffffffffffffffffffffff16036100a55760006040517f1e4fbdf700000000000000000000000000000000000000000000000000000000815260040161009c91906102bb565b60405180910390fd5b6100b48161010f60201b60201c565b50600180819055506103e8811115610101576040517f08c379a00000000000000000000000000000000000000000000000000000000081526004016100f890610333565b60405180910390fd5b806003819055505050610353565b60008060009054906101000a900473ffffffffffffffffffffffffffffffffffffffff169050816000806101000a81548173ffffffffffffffffffffffffffffffffffffffff021916908373ffffffffffffffffffffffffffffffffffffffff1602179055508173ffffffffffffffffffffffffffffffffffffffff168173ffffffffffffffffffffffffffffffffffffffff167f8be0079c531659141344cd1fd0a4f28419497f9722a3daafe3b4186f6b6457e060405160405180910390a35050565b600080fd5b600073ffffffffffffffffffffffffffffffffffffffff82169050919050565b6000610203826101d8565b9050919050565b610213816101f8565b811461021e57600080fd5b50565b6000815190506102308161020a565b92915050565b6000819050919050565b61024981610236565b811461025457600080fd5b50565b60008151905061026681610240565b92915050565b60008060408385031215610283576102826101d3565b5b600061029185828601610221565b92505060206102a285828601610257565b9150509250929050565b6102b5816101f8565b82525050565b60006020820190506102d060008301846102ac565b92915050565b600082825260208201905092915050565b7f46656520746f6f20686967680000000000000000000000000000000000000000600082015250565b600061031d600c836102d6565b9150610328826102e7565b602082019050919050565b6000602082019050818103600083015261034c81610310565b9050919050565b613810806103626000396000f3fe6080604052600436106100fe5760003560e01c8063715018a611610095578063bb8d50ad11610064578063bb8d50ad14610333578063bd7ba0631461035c578063de74e57b1461039f578063ea88b96f146103e1578063f2fde38b146103fd576100fe565b8063715018a61461027757806371d3b4d31461028e5780637aa50053146102cb5780638da5cb5b14610308576100fe565b806324780c56116100d157806324780c56146101d1578063305a67a8146101fa5780633a4618a2146102235780636a1669641461024c576100fe565b8063107a274a14610103578063191cf354146101405780631931d35c1461017d578063223fe912146101a8575b600080fd5b34801561010f57600080fd5b5061012a600480360381019061012591906125c1565b610426565b60405161013791906126d4565b60405180910390f35b34801561014c57600080fd5b506101676004803603810190610162919061271b565b610538565b604051610174919061282b565b60405180910390f35b34801561018957600080fd5b5061019261065f565b60405161019f9190612855565b60405180910390f35b3480156101b457600080fd5b506101cf60048036038101906101ca919061289c565b610669565b005b3480156101dd57600080fd5b506101f860048036038101906101f391906128dc565b610975565b005b34801561020657600080fd5b50610221600480360381019061021c91906125c1565b610ed1565b005b34801561022f57600080fd5b5061024a6004803603810190610245919061271b565b611019565b005b34801561025857600080fd5b506102616110c2565b60405161026e9190612855565b60405180910390f35b34801561028357600080fd5b5061028c6110c8565b005b34801561029a57600080fd5b506102b560048036038101906102b0919061292f565b6110dc565b6040516102c29190612855565b60405180910390f35b3480156102d757600080fd5b506102f260048036038101906102ed919061271b565b61117b565b6040516102ff9190612991565b60405180910390f35b34801561031457600080fd5b5061031d611351565b60405161032a91906129bb565b60405180910390f35b34801561033f57600080fd5b5061035a60048036038101906103559190612a2e565b61137a565b005b34801561036857600080fd5b50610383600480360381019061037e919061271b565b6117ab565b6040516103969796959493929190612ae8565b60405180910390f35b3480156103ab57600080fd5b506103c660048036038101906103c191906125c1565b611843565b6040516103d896959493929190612b57565b60405180910390f35b6103fb60048036038101906103f69190612c1d565b6118cc565b005b34801561040957600080fd5b50610424600480360381019061041f919061271b565b611eaa565b005b61042e6124c4565b600460008381526020019081526020016000206040518060c0016040529081600082015481526020016001820160009054906101000a900473ffffffffffffffffffffffffffffffffffffffff1673ffffffffffffffffffffffffffffffffffffffff1673ffffffffffffffffffffffffffffffffffffffff168152602001600282015481526020016003820160009054906101000a900473ffffffffffffffffffffffffffffffffffffffff1673ffffffffffffffffffffffffffffffffffffffff1673ffffffffffffffffffffffffffffffffffffffff168152602001600482015481526020016005820160009054906101000a900460ff1615151515815250509050919050565b610540612528565b600560008373ffffffffffffffffffffffffffffffffffffffff1673ffffffffffffffffffffffffffffffffffffffff1681526020019081526020016000206040518060e00160405290816000820160009054906101000a900464ffffffffff1664ffffffffff1664ffffffffff1681526020016000820160059054906101000a900464ffffffffff1664ffffffffff1664ffffffffff16815260200160008201600a9054906101000a900460ff1660ff1660ff16815260200160008201600b9054906101000a900460ff1660ff1660ff16815260200160008201600c9054906101000a900460ff1660ff1660ff168152602001600182015481526020016002820160009054906101000a900460ff1615151515815250509050919050565b6000600254905090565b600073ffffffffffffffffffffffffffffffffffffffff168273ffffffffffffffffffffffffffffffffffffffff16036106d8576040517f08c379a00000000000000000000000000000000000000000000000000000000081526004016106cf90612cda565b60405180910390fd5b600560008373ffffffffffffffffffffffffffffffffffffffff1673ffffffffffffffffffffffffffffffffffffffff16815260200190815260200160002060020160009054906101000a900460ff1615610768576040517f08c379a000000000000000000000000000000000000000000000000000000000815260040161075f90612d46565b60405180910390fd5b60008160ff16116107ae576040517f08c379a00000000000000000000000000000000000000000000000000000000081526004016107a590612db2565b60405180910390fd5b6040518060e00160405280600064ffffffffff168152602001600064ffffffffff168152602001600060ff168152602001600060ff1681526020018260ff1681526020016000801b815260200160011515815250600560008473ffffffffffffffffffffffffffffffffffffffff1673ffffffffffffffffffffffffffffffffffffffff16815260200190815260200160002060008201518160000160006101000a81548164ffffffffff021916908364ffffffffff16021790555060208201518160000160056101000a81548164ffffffffff021916908364ffffffffff160217905550604082015181600001600a6101000a81548160ff021916908360ff160217905550606082015181600001600b6101000a81548160ff021916908360ff160217905550608082015181600001600c6101000a81548160ff021916908360ff16021790555060a0820151816001015560c08201518160020160006101000a81548160ff0219169083151502179055509050508173ffffffffffffffffffffffffffffffffffffffff167f62d2e865296eb3b68ca96c9b457332824cc4f1fdad9c8b257dc0afad5163d596826040516109699190612991565b60405180910390a25050565b61097d611f30565b600081116109c0576040517f08c379a00000000000000000000000000000000000000000000000000000000081526004016109b790612e1e565b60405180910390fd5b600073ffffffffffffffffffffffffffffffffffffffff168373ffffffffffffffffffffffffffffffffffffffff1603610a2f576040517f08c379a0000000000000000000000000000000000000000000000000000000008152600401610a2690612e8a565b60405180910390fd5b600560008473ffffffffffffffffffffffffffffffffffffffff1673ffffffffffffffffffffffffffffffffffffffff16815260200190815260200160002060020160009054906101000a900460ff16610abe576040517f08c379a0000000000000000000000000000000000000000000000000000000008152600401610ab590612ef6565b60405180910390fd5b60008390503373ffffffffffffffffffffffffffffffffffffffff168173ffffffffffffffffffffffffffffffffffffffff16636352211e856040518263ffffffff1660e01b8152600401610b139190612855565b602060405180830381865afa158015610b30573d6000803e3d6000fd5b505050506040513d601f19601f82011682018060405250810190610b549190612f2b565b73ffffffffffffffffffffffffffffffffffffffff1614610baa576040517f08c379a0000000000000000000000000000000000000000000000000000000008152600401610ba190612fa4565b60405180910390fd5b3073ffffffffffffffffffffffffffffffffffffffff168173ffffffffffffffffffffffffffffffffffffffff1663081812fc856040518263ffffffff1660e01b8152600401610bfa9190612855565b602060405180830381865afa158015610c17573d6000803e3d6000fd5b505050506040513d601f19601f82011682018060405250810190610c3b9190612f2b565b73ffffffffffffffffffffffffffffffffffffffff161480610cd557508073ffffffffffffffffffffffffffffffffffffffff1663e985e9c533306040518363ffffffff1660e01b8152600401610c93929190612fc4565b602060405180830381865afa158015610cb0573d6000803e3d6000fd5b505050506040513d601f19601f82011682018060405250810190610cd49190613019565b5b610d14576040517f08c379a0000000000000000000000000000000000000000000000000000000008152600401610d0b90613092565b60405180910390fd5b60026000815480929190610d27906130e1565b9190505550600060025490506040518060c001604052808281526020018673ffffffffffffffffffffffffffffffffffffffff1681526020018581526020013373ffffffffffffffffffffffffffffffffffffffff16815260200184815260200160011515815250600460008381526020019081526020016000206000820151816000015560208201518160010160006101000a81548173ffffffffffffffffffffffffffffffffffffffff021916908373ffffffffffffffffffffffffffffffffffffffff1602179055506040820151816002015560608201518160030160006101000a81548173ffffffffffffffffffffffffffffffffffffffff021916908373ffffffffffffffffffffffffffffffffffffffff1602179055506080820151816004015560a08201518160050160006101000a81548160ff0219169083151502179055509050508473ffffffffffffffffffffffffffffffffffffffff16817f12dc294b81a709d694b1337a350a12a00076c19a77a25aab67a5f0c07e0f164d8686604051610eba929190613129565b60405180910390a35050610ecc611f76565b505050565b60006004600083815260200190815260200160002090508060050160009054906101000a900460ff16610f39576040517f08c379a0000000000000000000000000000000000000000000000000000000008152600401610f309061319e565b60405180910390fd5b3373ffffffffffffffffffffffffffffffffffffffff168160030160009054906101000a900473ffffffffffffffffffffffffffffffffffffffff1673ffffffffffffffffffffffffffffffffffffffff1614610fcb576040517f08c379a0000000000000000000000000000000000000000000000000000000008152600401610fc29061320a565b60405180910390fd5b60008160050160006101000a81548160ff021916908315150217905550817f411aee90354c51b1b04cd563fcab2617142a9d50da19232d888547c8a1b7fd8a60405160405180910390a25050565b611021611f7f565b6000600560008373ffffffffffffffffffffffffffffffffffffffff1673ffffffffffffffffffffffffffffffffffffffff16815260200190815260200160002060020160006101000a81548160ff0219169083151502179055508073ffffffffffffffffffffffffffffffffffffffff167f8aaa4d9743e4c5f1379c29290b8c89bd18c6c832a7b0deb6498c0d44b667878560405160405180910390a250565b60035481565b6110d0611f7f565b6110da6000612006565b565b6000600660008573ffffffffffffffffffffffffffffffffffffffff1673ffffffffffffffffffffffffffffffffffffffff16815260200190815260200160002060008473ffffffffffffffffffffffffffffffffffffffff1673ffffffffffffffffffffffffffffffffffffffff16815260200190815260200160002060008360ff1660ff1681526020019081526020016000205490509392505050565b600080600560008473ffffffffffffffffffffffffffffffffffffffff1673ffffffffffffffffffffffffffffffffffffffff1681526020019081526020016000206040518060e00160405290816000820160009054906101000a900464ffffffffff1664ffffffffff1664ffffffffff1681526020016000820160059054906101000a900464ffffffffff1664ffffffffff1664ffffffffff16815260200160008201600a9054906101000a900460ff1660ff1660ff16815260200160008201600b9054906101000a900460ff1660ff1660ff16815260200160008201600c9054906101000a900460ff1660ff1660ff168152602001600182015481526020016002820160009054906101000a900460ff16151515158152505090508060c001516112dc576040517f08c379a00000000000000000000000000000000000000000000000000000000081526004016112d390612ef6565b60405180910390fd5b6000816000015164ffffffffff161180156113025750806000015164ffffffffff164211155b1561131157600191505061134c565b6000816020015164ffffffffff161180156113375750806020015164ffffffffff164211155b1561134657600291505061134c565b60039150505b919050565b60008060009054906101000a900473ffffffffffffffffffffffffffffffffffffffff16905090565b600560008773ffffffffffffffffffffffffffffffffffffffff1673ffffffffffffffffffffffffffffffffffffffff16815260200190815260200160002060020160009054906101000a900460ff16611409576040517f08c379a000000000000000000000000000000000000000000000000000000000815260040161140090613276565b60405180910390fd5b611411611351565b73ffffffffffffffffffffffffffffffffffffffff163373ffffffffffffffffffffffffffffffffffffffff161461147e576040517f08c379a0000000000000000000000000000000000000000000000000000000008152600401611475906132e2565b60405180910390fd5b60008564ffffffffff1611156115c957428564ffffffffff16116114d7576040517f08c379a00000000000000000000000000000000000000000000000000000000081526004016114ce9061334e565b60405180910390fd5b60008360ff161161151d576040517f08c379a0000000000000000000000000000000000000000000000000000000008152600401611514906133ba565b60405180910390fd5b60008464ffffffffff1611156115c4578464ffffffffff168464ffffffffff161161157d576040517f08c379a000000000000000000000000000000000000000000000000000000000815260040161157490613426565b60405180910390fd5b60008260ff16116115c3576040517f08c379a00000000000000000000000000000000000000000000000000000000081526004016115ba90613492565b60405180910390fd5b5b61166a565b60008464ffffffffff16111561166957428464ffffffffff1611611622576040517f08c379a000000000000000000000000000000000000000000000000000000000815260040161161990613426565b60405180910390fd5b60008260ff1611611668576040517f08c379a000000000000000000000000000000000000000000000000000000000815260040161165f90613492565b60405180910390fd5b5b5b6000600560008873ffffffffffffffffffffffffffffffffffffffff1673ffffffffffffffffffffffffffffffffffffffff1681526020019081526020016000209050858160000160006101000a81548164ffffffffff021916908364ffffffffff160217905550848160000160056101000a81548164ffffffffff021916908364ffffffffff1602179055508381600001600a6101000a81548160ff021916908360ff1602179055508281600001600b6101000a81548160ff021916908360ff1602179055508181600101819055508673ffffffffffffffffffffffffffffffffffffffff167f51815ea2e9f704fdbfe95b70eceb1706cfade2312a6c81f8c3896d9c7a43550d878760008a64ffffffffff161160008a64ffffffffff161160405161179a94939291906134b2565b60405180910390a250505050505050565b60056020528060005260406000206000915090508060000160009054906101000a900464ffffffffff16908060000160059054906101000a900464ffffffffff169080600001600a9054906101000a900460ff169080600001600b9054906101000a900460ff169080600001600c9054906101000a900460ff16908060010154908060020160009054906101000a900460ff16905087565b60046020528060005260406000206000915090508060000154908060010160009054906101000a900473ffffffffffffffffffffffffffffffffffffffff16908060020154908060030160009054906101000a900473ffffffffffffffffffffffffffffffffffffffff16908060040154908060050160009054906101000a900460ff16905086565b6118d4611f30565b60006004600085815260200190815260200160002090508060050160009054906101000a900460ff1661193c576040517f08c379a00000000000000000000000000000000000000000000000000000000081526004016119339061319e565b60405180910390fd5b8060040154341015611983576040517f08c379a000000000000000000000000000000000000000000000000000000000815260040161197a90613543565b60405180910390fd5b60008160010160009054906101000a900473ffffffffffffffffffffffffffffffffffffffff169050600560008273ffffffffffffffffffffffffffffffffffffffff1673ffffffffffffffffffffffffffffffffffffffff16815260200190815260200160002060020160009054906101000a900460ff16611a3b576040517f08c379a0000000000000000000000000000000000000000000000000000000008152600401611a3290612ef6565b60405180910390fd5b6000611a468261117b565b905060018160ff1603611a9f57611a5f823387876120ca565b611a9e576040517f08c379a0000000000000000000000000000000000000000000000000000000008152600401611a95906135af565b60405180910390fd5b5b6000600660003373ffffffffffffffffffffffffffffffffffffffff1673ffffffffffffffffffffffffffffffffffffffff16815260200190815260200160002060008473ffffffffffffffffffffffffffffffffffffffff1673ffffffffffffffffffffffffffffffffffffffff16815260200190815260200160002060008360ff1660ff1681526020019081526020016000205490506000611b438484612287565b90508060ff168210611b8a576040517f08c379a0000000000000000000000000000000000000000000000000000000008152600401611b819061361b565b60405180910390fd5b600660003373ffffffffffffffffffffffffffffffffffffffff1673ffffffffffffffffffffffffffffffffffffffff16815260200190815260200160002060008573ffffffffffffffffffffffffffffffffffffffff1673ffffffffffffffffffffffffffffffffffffffff16815260200190815260200160002060008460ff1660ff1681526020019081526020016000206000815480929190611c2e906130e1565b919050555060008560020154905060008660050160006101000a81548160ff02191690831515021790555060006127106003548860040154611c70919061363b565b611c7a91906136ac565b90506000818860040154611c8e91906136dd565b90508673ffffffffffffffffffffffffffffffffffffffff166323b872dd8960030160009054906101000a900473ffffffffffffffffffffffffffffffffffffffff1633866040518463ffffffff1660e01b8152600401611cf193929190613711565b600060405180830381600087803b158015611d0b57600080fd5b505af1158015611d1f573d6000803e3d6000fd5b505050508760030160009054906101000a900473ffffffffffffffffffffffffffffffffffffffff1673ffffffffffffffffffffffffffffffffffffffff166108fc829081150290604051600060405180830381858888f19350505050158015611d8d573d6000803e3d6000fd5b50611d96611351565b73ffffffffffffffffffffffffffffffffffffffff166108fc839081150290604051600060405180830381858888f19350505050158015611ddb573d6000803e3d6000fd5b503373ffffffffffffffffffffffffffffffffffffffff168b7f8e378317cc1b9c64766fd136e5849da5f702d26a8f8b750115b7422909b2309f8a60040154604051611e279190612855565b60405180910390a36000886004015434611e4191906136dd565b90506000811115611e94573373ffffffffffffffffffffffffffffffffffffffff166108fc829081150290604051600060405180830381858888f19350505050158015611e92573d6000803e3d6000fd5b505b505050505050505050611ea5611f76565b505050565b611eb2611f7f565b600073ffffffffffffffffffffffffffffffffffffffff168173ffffffffffffffffffffffffffffffffffffffff1603611f245760006040517f1e4fbdf7000000000000000000000000000000000000000000000000000000008152600401611f1b91906129bb565b60405180910390fd5b611f2d81612006565b50565b600260015403611f6c576040517f3ee5aeb500000000000000000000000000000000000000000000000000000000815260040160405180910390fd5b6002600181905550565b60018081905550565b611f87612413565b73ffffffffffffffffffffffffffffffffffffffff16611fa5611351565b73ffffffffffffffffffffffffffffffffffffffff161461200457611fc8612413565b6040517f118cdaa7000000000000000000000000000000000000000000000000000000008152600401611ffb91906129bb565b60405180910390fd5b565b60008060009054906101000a900473ffffffffffffffffffffffffffffffffffffffff169050816000806101000a81548173ffffffffffffffffffffffffffffffffffffffff021916908373ffffffffffffffffffffffffffffffffffffffff1602179055508173ffffffffffffffffffffffffffffffffffffffff168173ffffffffffffffffffffffffffffffffffffffff167f8be0079c531659141344cd1fd0a4f28419497f9722a3daafe3b4186f6b6457e060405160405180910390a35050565b600080600560008773ffffffffffffffffffffffffffffffffffffffff1673ffffffffffffffffffffffffffffffffffffffff1681526020019081526020016000206040518060e00160405290816000820160009054906101000a900464ffffffffff1664ffffffffff1664ffffffffff1681526020016000820160059054906101000a900464ffffffffff1664ffffffffff1664ffffffffff16815260200160008201600a9054906101000a900460ff1660ff1660ff16815260200160008201600b9054906101000a900460ff1660ff1660ff16815260200160008201600c9054906101000a900460ff1660ff1660ff168152602001600182015481526020016002820160009054906101000a900460ff16151515158152505090506000801b8160a00151036121ff57600091505061227f565b6000856040516020016122129190613790565b60405160208183030381529060405280519060200120905061227a858580806020026020016040519081016040528093929190818152602001838360200280828437600081840152601f19601f820116905080830192505050505050508360a001518361241b565b925050505b949350505050565b600080600560008573ffffffffffffffffffffffffffffffffffffffff1673ffffffffffffffffffffffffffffffffffffffff1681526020019081526020016000206040518060e00160405290816000820160009054906101000a900464ffffffffff1664ffffffffff1664ffffffffff1681526020016000820160059054906101000a900464ffffffffff1664ffffffffff1664ffffffffff16815260200160008201600a9054906101000a900460ff1660ff1660ff16815260200160008201600b9054906101000a900460ff1660ff1660ff16815260200160008201600c9054906101000a900460ff1660ff1660ff168152602001600182015481526020016002820160009054906101000a900460ff161515151581525050905060018360ff161480156123c257506000816000015164ffffffffff16115b156123d457806040015191505061240d565b60028360ff161480156123f257506000816020015164ffffffffff16115b1561240457806060015191505061240d565b80608001519150505b92915050565b600033905090565b6000826124288584612432565b1490509392505050565b60008082905060005b8451811015612477576124688286838151811061245b5761245a6137ab565b5b6020026020010151612482565b9150808060010191505061243b565b508091505092915050565b600081831061249a5761249582846124ad565b6124a5565b6124a483836124ad565b5b905092915050565b600082600052816020526040600020905092915050565b6040518060c0016040528060008152602001600073ffffffffffffffffffffffffffffffffffffffff16815260200160008152602001600073ffffffffffffffffffffffffffffffffffffffff168152602001600081526020016000151581525090565b6040518060e00160405280600064ffffffffff168152602001600064ffffffffff168152602001600060ff168152602001600060ff168152602001600060ff168152602001600080191681526020016000151581525090565b600080fd5b600080fd5b6000819050919050565b61259e8161258b565b81146125a957600080fd5b50565b6000813590506125bb81612595565b92915050565b6000602082840312156125d7576125d6612581565b5b60006125e5848285016125ac565b91505092915050565b6125f78161258b565b82525050565b600073ffffffffffffffffffffffffffffffffffffffff82169050919050565b6000612628826125fd565b9050919050565b6126388161261d565b82525050565b60008115159050919050565b6126538161263e565b82525050565b60c08201600082015161266f60008501826125ee565b506020820151612682602085018261262f565b50604082015161269560408501826125ee565b5060608201516126a8606085018261262f565b5060808201516126bb60808501826125ee565b5060a08201516126ce60a085018261264a565b50505050565b600060c0820190506126e96000830184612659565b92915050565b6126f88161261d565b811461270357600080fd5b50565b600081359050612715816126ef565b92915050565b60006020828403121561273157612730612581565b5b600061273f84828501612706565b91505092915050565b600064ffffffffff82169050919050565b61276281612748565b82525050565b600060ff82169050919050565b61277e81612768565b82525050565b6000819050919050565b61279781612784565b82525050565b60e0820160008201516127b36000850182612759565b5060208201516127c66020850182612759565b5060408201516127d96040850182612775565b5060608201516127ec6060850182612775565b5060808201516127ff6080850182612775565b5060a082015161281260a085018261278e565b5060c082015161282560c085018261264a565b50505050565b600060e082019050612840600083018461279d565b92915050565b61284f8161258b565b82525050565b600060208201905061286a6000830184612846565b92915050565b61287981612768565b811461288457600080fd5b50565b60008135905061289681612870565b92915050565b600080604083850312156128b3576128b2612581565b5b60006128c185828601612706565b92505060206128d285828601612887565b9150509250929050565b6000806000606084860312156128f5576128f4612581565b5b600061290386828701612706565b9350506020612914868287016125ac565b9250506040612925868287016125ac565b9150509250925092565b60008060006060848603121561294857612947612581565b5b600061295686828701612706565b935050602061296786828701612706565b925050604061297886828701612887565b9150509250925092565b61298b81612768565b82525050565b60006020820190506129a66000830184612982565b92915050565b6129b58161261d565b82525050565b60006020820190506129d060008301846129ac565b92915050565b6129df81612748565b81146129ea57600080fd5b50565b6000813590506129fc816129d6565b92915050565b612a0b81612784565b8114612a1657600080fd5b50565b600081359050612a2881612a02565b92915050565b60008060008060008060c08789031215612a4b57612a4a612581565b5b6000612a5989828a01612706565b9650506020612a6a89828a016129ed565b9550506040612a7b89828a016129ed565b9450506060612a8c89828a01612887565b9350506080612a9d89828a01612887565b92505060a0612aae89828a01612a19565b9150509295509295509295565b612ac481612748565b82525050565b612ad381612784565b82525050565b612ae28161263e565b82525050565b600060e082019050612afd600083018a612abb565b612b0a6020830189612abb565b612b176040830188612982565b612b246060830187612982565b612b316080830186612982565b612b3e60a0830185612aca565b612b4b60c0830184612ad9565b98975050505050505050565b600060c082019050612b6c6000830189612846565b612b7960208301886129ac565b612b866040830187612846565b612b9360608301866129ac565b612ba06080830185612846565b612bad60a0830184612ad9565b979650505050505050565b600080fd5b600080fd5b600080fd5b60008083601f840112612bdd57612bdc612bb8565b5b8235905067ffffffffffffffff811115612bfa57612bf9612bbd565b5b602083019150836020820283011115612c1657612c15612bc2565b5b9250929050565b600080600060408486031215612c3657612c35612581565b5b6000612c44868287016125ac565b935050602084013567ffffffffffffffff811115612c6557612c64612586565b5b612c7186828701612bc7565b92509250509250925092565b600082825260208201905092915050565b7f496e76616c696420636f6c6c656374696f6e2061646472657373000000000000600082015250565b6000612cc4601a83612c7d565b9150612ccf82612c8e565b602082019050919050565b60006020820190508181036000830152612cf381612cb7565b9050919050565b7f436f6c6c656374696f6e20616c72656164792072656769737465726564000000600082015250565b6000612d30601d83612c7d565b9150612d3b82612cfa565b602082019050919050565b60006020820190508181036000830152612d5f81612d23565b9050919050565b7f496e76616c6964207075626c6963206d6178206d696e74000000000000000000600082015250565b6000612d9c601783612c7d565b9150612da782612d66565b602082019050919050565b60006020820190508181036000830152612dcb81612d8f565b9050919050565b7f5072696365206d7573742062652067726561746572207468616e207a65726f00600082015250565b6000612e08601f83612c7d565b9150612e1382612dd2565b602082019050919050565b60006020820190508181036000830152612e3781612dfb565b9050919050565b7f496e76616c6964204e465420636f6e7472616374206164647265737300000000600082015250565b6000612e74601c83612c7d565b9150612e7f82612e3e565b602082019050919050565b60006020820190508181036000830152612ea381612e67565b9050919050565b7f436f6c6c656374696f6e206e6f74206163746976650000000000000000000000600082015250565b6000612ee0601583612c7d565b9150612eeb82612eaa565b602082019050919050565b60006020820190508181036000830152612f0f81612ed3565b9050919050565b600081519050612f25816126ef565b92915050565b600060208284031215612f4157612f40612581565b5b6000612f4f84828501612f16565b91505092915050565b7f4e6f7420746f6b656e206f776e65720000000000000000000000000000000000600082015250565b6000612f8e600f83612c7d565b9150612f9982612f58565b602082019050919050565b60006020820190508181036000830152612fbd81612f81565b9050919050565b6000604082019050612fd960008301856129ac565b612fe660208301846129ac565b9392505050565b612ff68161263e565b811461300157600080fd5b50565b60008151905061301381612fed565b92915050565b60006020828403121561302f5761302e612581565b5b600061303d84828501613004565b91505092915050565b7f4d61726b6574706c616365206e6f7420617070726f7665640000000000000000600082015250565b600061307c601883612c7d565b915061308782613046565b602082019050919050565b600060208201905081810360008301526130ab8161306f565b9050919050565b7f4e487b7100000000000000000000000000000000000000000000000000000000600052601160045260246000fd5b60006130ec8261258b565b91507fffffffffffffffffffffffffffffffffffffffffffffffffffffffffffffffff820361311e5761311d6130b2565b5b600182019050919050565b600060408201905061313e6000830185612846565b61314b6020830184612846565b9392505050565b7f4c697374696e67206e6f74206163746976650000000000000000000000000000600082015250565b6000613188601283612c7d565b915061319382613152565b602082019050919050565b600060208201905081810360008301526131b78161317b565b9050919050565b7f4e6f742073656c6c657200000000000000000000000000000000000000000000600082015250565b60006131f4600a83612c7d565b91506131ff826131be565b602082019050919050565b60006020820190508181036000830152613223816131e7565b9050919050565b7f436f6c6c656374696f6e206e6f74207265676973746572656400000000000000600082015250565b6000613260601983612c7d565b915061326b8261322a565b602082019050919050565b6000602082019050818103600083015261328f81613253565b9050919050565b7f4e6f7420617574686f72697a6564000000000000000000000000000000000000600082015250565b60006132cc600e83612c7d565b91506132d782613296565b602082019050919050565b600060208201905081810360008301526132fb816132bf565b9050919050565b7f496e76616c69642077686974656c69737420656e642074696d65000000000000600082015250565b6000613338601a83612c7d565b915061334382613302565b602082019050919050565b600060208201905081810360008301526133678161332b565b9050919050565b7f496e76616c69642077686974656c697374206d6178206d696e74000000000000600082015250565b60006133a4601a83612c7d565b91506133af8261336e565b602082019050919050565b600060208201905081810360008301526133d381613397565b9050919050565b7f496e76616c6964204643465320656e642074696d650000000000000000000000600082015250565b6000613410601583612c7d565b915061341b826133da565b602082019050919050565b6000602082019050818103600083015261343f81613403565b9050919050565b7f496e76616c69642046434653206d6178206d696e740000000000000000000000600082015250565b600061347c601583612c7d565b915061348782613446565b602082019050919050565b600060208201905081810360008301526134ab8161346f565b9050919050565b60006080820190506134c76000830187612abb565b6134d46020830186612abb565b6134e16040830185612ad9565b6134ee6060830184612ad9565b95945050505050565b7f496e73756666696369656e74207061796d656e74000000000000000000000000600082015250565b600061352d601483612c7d565b9150613538826134f7565b602082019050919050565b6000602082019050818103600083015261355c81613520565b9050919050565b7f4e6f742077686974656c69737465640000000000000000000000000000000000600082015250565b6000613599600f83612c7d565b91506135a482613563565b602082019050919050565b600060208201905081810360008301526135c88161358c565b9050919050565b7f45786365656473207068617365206d696e74206c696d69740000000000000000600082015250565b6000613605601883612c7d565b9150613610826135cf565b602082019050919050565b60006020820190508181036000830152613634816135f8565b9050919050565b60006136468261258b565b91506136518361258b565b925082820261365f8161258b565b91508282048414831517613676576136756130b2565b5b5092915050565b7f4e487b7100000000000000000000000000000000000000000000000000000000600052601260045260246000fd5b60006136b78261258b565b91506136c28361258b565b9250826136d2576136d161367d565b5b828204905092915050565b60006136e88261258b565b91506136f38361258b565b925082820390508181111561370b5761370a6130b2565b5b92915050565b600060608201905061372660008301866129ac565b61373360208301856129ac565b6137406040830184612846565b949350505050565b60008160601b9050919050565b600061376082613748565b9050919050565b600061377282613755565b9050919050565b61378a6137858261261d565b613767565b82525050565b600061379c8284613779565b60148201915081905092915050565b7f4e487b7100000000000000000000000000000000000000000000000000000000600052603260045260246000fdfea26469706673582212201590dd7a23961147fddf42dcd09b003856d7f441765d3aa88b82424719a62e7f64736f6c634300081b0033",
  "linkReferences": {},
  "deployedLinkReferences": {}
}