{
  "_format": "hh-sol-artifact-1",
  "contractName": "BatchEnabledNFT",
  "sourceName": "blockchain/evm/contracts/SyntethicNFT.sol",
  "abi": [
    {
      "inputs": [
        {
          "internalType": "address",
          "name": "_minter",
          "type": "address"
        },
        {
          "internalType": "address",
          "name": "initialOwner",
          "type": "address"
        }
      ],
      "stateMutability": "nonpayable",
      "type": "constructor"
    },
    {
      "inputs": [
        {
          "internalType": "address",
          "name": "sender",
          "type": "address"
        },
        {
          "internalType": "uint256",
          "name": "tokenId",
          "type": "uint256"
        },
        {
          "internalType": "address",
          "name": "owner",
          "type": "address"
        }
      ],
      "name": "ERC721IncorrectOwner",
      "type": "error"
    },
    {
      "inputs": [
        {
          "internalType": "address",
          "name": "operator",
          "type": "address"
        },
        {
          "internalType": "uint256",
          "name": "tokenId",
          "type": "uint256"
        }
      ],
      "name": "ERC721InsufficientApproval",
      "type": "error"
    },
    {
      "inputs": [
        {
          "internalType": "address",
          "name": "approver",
          "type": "address"
        }
      ],
      "name": "ERC721InvalidApprover",
      "type": "error"
    },
    {
      "inputs": [
        {
          "internalType": "address",
          "name": "operator",
          "type": "address"
        }
      ],
      "name": "ERC721InvalidOperator",
      "type": "error"
    },
    {
      "inputs": [
        {
          "internalType": "address",
          "name": "owner",
          "type": "address"
        }
      ],
      "name": "ERC721InvalidOwner",
      "type": "error"
    },
    {
      "inputs": [
        {
          "internalType": "address",
          "name": "receiver",
          "type": "address"
        }
      ],
      "name": "ERC721InvalidReceiver",
      "type": "error"
    },
    {
      "inputs": [
        {
          "internalType": "address",
          "name": "sender",
          "type": "address"
        }
      ],
      "name": "ERC721InvalidSender",
      "type": "error"
    },
    {
      "inputs": [
        {
          "internalType": "uint256",
          "name": "tokenId",
          "type": "uint256"
        }
      ],
      "name": "ERC721NonexistentToken",
      "type": "error"
    },
    {
      "inputs": [
        {
          "internalType": "address",
          "name": "owner",
          "type": "address"
        }
      ],
      "name": "OwnableInvalidOwner",
      "type": "error"
    },
    {
      "inputs": [
        {
          "internalType": "address",
          "name": "account",
          "type": "address"
        }
      ],
      "name": "OwnableUnauthorizedAccount",
      "type": "error"
    },
    {
      "anonymous": false,
      "inputs": [
        {
          "indexed": true,
          "internalType": "address",
          "name": "owner",
          "type": "address"
        },
        {
          "indexed": true,
          "internalType": "address",
          "name": "approved",
          "type": "address"
        },
        {
          "indexed": true,
          "internalType": "uint256",
          "name": "tokenId",
          "type": "uint256"
        }
      ],
      "name": "Approval",
      "type": "event"
    },
    {
      "anonymous": false,
      "inputs": [
        {
          "indexed": true,
          "internalType": "address",
          "name": "owner",
          "type": "address"
        },
        {
          "indexed": true,
          "internalType": "address",
          "name": "operator",
          "type": "address"
        },
        {
          "indexed": false,
          "internalType": "bool",
          "name": "approved",
          "type": "bool"
        }
      ],
      "name": "ApprovalForAll",
      "type": "event"
    },
    {
      "anonymous": false,
      "inputs": [
        {
          "indexed": false,
          "internalType": "uint256",
          "name": "batchId",
          "type": "uint256"
        },
        {
          "indexed": false,
          "internalType": "uint256",
          "name": "startTokenId",
          "type": "uint256"
        },
        {
          "indexed": false,
          "internalType": "uint256",
          "name": "endTokenId",
          "type": "uint256"
        }
      ],
      "name": "BatchCreated",
      "type": "event"
    },
    {
      "anonymous": false,
      "inputs": [
        {
          "indexed": false,
          "internalType": "uint256",
          "name": "batchId",
          "type": "uint256"
        },
        {
          "indexed": false,
          "internalType": "uint256",
          "name": "quantity",
          "type": "uint256"
        }
      ],
      "name": "BatchMinted",
      "type": "event"
    },
    {
      "anonymous": false,
      "inputs": [
        {
          "indexed": false,
          "internalType": "uint256",
          "name": "tokenId",
          "type": "uint256"
        },
        {
          "indexed": false,
          "internalType": "string",
          "name": "inscriptionId",
          "type": "string"
        }
      ],
      "name": "InscriptionLinked",
      "type": "event"
    },
    {
      "anonymous": false,
      "inputs": [
        {
          "indexed": true,
          "internalType": "address",
          "name": "previousOwner",
          "type": "address"
        },
        {
          "indexed": true,
          "internalType": "address",
          "name": "newOwner",
          "type": "address"
        }
      ],
      "name": "OwnershipTransferred",
      "type": "event"
    },
    {
      "anonymous": false,
      "inputs": [
        {
          "indexed": true,
          "internalType": "address",
          "name": "from",
          "type": "address"
        },
        {
          "indexed": true,
          "internalType": "address",
          "name": "to",
          "type": "address"
        },
        {
          "indexed": true,
          "internalType": "uint256",
          "name": "tokenId",
          "type": "uint256"
        }
      ],
      "name": "Transfer",
      "type": "event"
    },
    {
      "inputs": [
        {
          "internalType": "address",
          "name": "to",
          "type": "address"
        },
        {
          "internalType": "uint256",
          "name": "tokenId",
          "type": "uint256"
        }
      ],
      "name": "approve",
      "outputs": [],
      "stateMutability": "nonpayable",
      "type": "function"
    },
    {
      "inputs": [
        {
          "internalType": "address",
          "name": "owner",
          "type": "address"
        }
      ],
      "name": "balanceOf",
      "outputs": [
        {
          "internalType": "uint256",
          "name": "",
          "type": "uint256"
        }
      ],
      "stateMutability": "view",
      "type": "function"
    },
    {
      "inputs": [
        {
          "internalType": "uint256",
          "name": "",
          "type": "uint256"
        }
      ],
      "name": "batches",
      "outputs": [
        {
          "internalType": "uint256",
          "name": "startTokenId",
          "type": "uint256"
        },
        {
          "internalType": "uint256",
          "name": "endTokenId",
          "type": "uint256"
        },
        {
          "internalType": "bool",
          "name": "minted",
          "type": "bool"
        }
      ],
      "stateMutability": "view",
      "type": "function"
    },
    {
      "inputs": [
        {
          "internalType": "uint256",
          "name": "size",
          "type": "uint256"
        }
      ],
      "name": "createBatch",
      "outputs": [
        {
          "internalType": "uint256",
          "name": "",
          "type": "uint256"
        }
      ],
      "stateMutability": "nonpayable",
      "type": "function"
    },
    {
      "inputs": [],
      "name": "currentBatchId",
      "outputs": [
        {
          "internalType": "uint256",
          "name": "",
          "type": "uint256"
        }
      ],
      "stateMutability": "view",
      "type": "function"
    },
    {
      "inputs": [
        {
          "internalType": "uint256",
          "name": "tokenId",
          "type": "uint256"
        }
      ],
      "name": "getApproved",
      "outputs": [
        {
          "internalType": "address",
          "name": "",
          "type": "address"
        }
      ],
      "stateMutability": "view",
      "type": "function"
    },
    {
      "inputs": [
        {
          "internalType": "uint256",
          "name": "tokenId",
          "type": "uint256"
        }
      ],
      "name": "getInscriptionId",
      "outputs": [
        {
          "internalType": "string",
          "name": "",
          "type": "string"
        }
      ],
      "stateMutability": "view",
      "type": "function"
    },
    {
      "inputs": [
        {
          "internalType": "address",
          "name": "owner",
          "type": "address"
        },
        {
          "internalType": "address",
          "name": "operator",
          "type": "address"
        }
      ],
      "name": "isApprovedForAll",
      "outputs": [
        {
          "internalType": "bool",
          "name": "",
          "type": "bool"
        }
      ],
      "stateMutability": "view",
      "type": "function"
    },
    {
      "inputs": [
        {
          "internalType": "uint256",
          "name": "batchId",
          "type": "uint256"
        },
        {
          "internalType": "address[]",
          "name": "recipients",
          "type": "address[]"
        },
        {
          "internalType": "string[]",
          "name": "inscriptionIds",
          "type": "string[]"
        }
      ],
      "name": "mintBatch",
      "outputs": [],
      "stateMutability": "nonpayable",
      "type": "function"
    },
    {
      "inputs": [],
      "name": "minterAddress",
      "outputs": [
        {
          "internalType": "address",
          "name": "",
          "type": "address"
        }
      ],
      "stateMutability": "view",
      "type": "function"
    },
    {
      "inputs": [],
      "name": "name",
      "outputs": [
        {
          "internalType": "string",
          "name": "",
          "type": "string"
        }
      ],
      "stateMutability": "view",
      "type": "function"
    },
    {
      "inputs": [],
      "name": "owner",
      "outputs": [
        {
          "internalType": "address",
          "name": "",
          "type": "address"
        }
      ],
      "stateMutability": "view",
      "type": "function"
    },
    {
      "inputs": [
        {
          "internalType": "uint256",
          "name": "tokenId",
          "type": "uint256"
        }
      ],
      "name": "ownerOf",
      "outputs": [
        {
          "internalType": "address",
          "name": "",
          "type": "address"
        }
      ],
      "stateMutability": "view",
      "type": "function"
    },
    {
      "inputs": [],
      "name": "renounceOwnership",
      "outputs": [],
      "stateMutability": "nonpayable",
      "type": "function"
    },
    {
      "inputs": [
        {
          "internalType": "address",
          "name": "from",
          "type": "address"
        },
        {
          "internalType": "address",
          "name": "to",
          "type": "address"
        },
        {
          "internalType": "uint256",
          "name": "tokenId",
          "type": "uint256"
        }
      ],
      "name": "safeTransferFrom",
      "outputs": [],
      "stateMutability": "nonpayable",
      "type": "function"
    },
    {
      "inputs": [
        {
          "internalType": "address",
          "name": "from",
          "type": "address"
        },
        {
          "internalType": "address",
          "name": "to",
          "type": "address"
        },
        {
          "internalType": "uint256",
          "name": "tokenId",
          "type": "uint256"
        },
        {
          "internalType": "bytes",
          "name": "data",
          "type": "bytes"
        }
      ],
      "name": "safeTransferFrom",
      "outputs": [],
      "stateMutability": "nonpayable",
      "type": "function"
    },
    {
      "inputs": [
        {
          "internalType": "address",
          "name": "operator",
          "type": "address"
        },
        {
          "internalType": "bool",
          "name": "approved",
          "type": "bool"
        }
      ],
      "name": "setApprovalForAll",
      "outputs": [],
      "stateMutability": "nonpayable",
      "type": "function"
    },
    {
      "inputs": [
        {
          "internalType": "bytes4",
          "name": "interfaceId",
          "type": "bytes4"
        }
      ],
      "name": "supportsInterface",
      "outputs": [
        {
          "internalType": "bool",
          "name": "",
          "type": "bool"
        }
      ],
      "stateMutability": "view",
      "type": "function"
    },
    {
      "inputs": [],
      "name": "symbol",
      "outputs": [
        {
          "internalType": "string",
          "name": "",
          "type": "string"
        }
      ],
      "stateMutability": "view",
      "type": "function"
    },
    {
      "inputs": [
        {
          "internalType": "uint256",
          "name": "tokenId",
          "type": "uint256"
        }
      ],
      "name": "tokenURI",
      "outputs": [
        {
          "internalType": "string",
          "name": "",
          "type": "string"
        }
      ],
      "stateMutability": "view",
      "type": "function"
    },
    {
      "inputs": [
        {
          "internalType": "address",
          "name": "from",
          "type": "address"
        },
        {
          "internalType": "address",
          "name": "to",
          "type": "address"
        },
        {
          "internalType": "uint256",
          "name": "tokenId",
          "type": "uint256"
        }
      ],
      "name": "transferFrom",
      "outputs": [],
      "stateMutability": "nonpayable",
      "type": "function"
    },
    {
      "inputs": [
        {
          "internalType": "address",
          "name": "newOwner",
          "type": "address"
        }
      ],
      "name": "transferOwnership",
      "outputs": [],
      "stateMutability": "nonpayable",
      "type": "function"
    }
  ],
  "bytecode": "0x608060405234801561001057600080fd5b5060405161357e38038061357e833981810160405281019061003291906102b4565b806040518060400160405280600f81526020017f4261746368456e61626c65644e465400000000000000000000000000000000008152506040518060400160405280600481526020017f424e46540000000000000000000000000000000000000000000000000000000081525081600090816100ae9190610544565b5080600190816100be9190610544565b505050600073ffffffffffffffffffffffffffffffffffffffff168173ffffffffffffffffffffffffffffffffffffffff16036101335760006040517f1e4fbdf700000000000000000000000000000000000000000000000000000000815260040161012a9190610625565b60405180910390fd5b6101428161018b60201b60201c565b5081600960006101000a81548173ffffffffffffffffffffffffffffffffffffffff021916908373ffffffffffffffffffffffffffffffffffffffff1602179055505050610640565b6000600660009054906101000a900473ffffffffffffffffffffffffffffffffffffffff16905081600660006101000a81548173ffffffffffffffffffffffffffffffffffffffff021916908373ffffffffffffffffffffffffffffffffffffffff1602179055508173ffffffffffffffffffffffffffffffffffffffff168173ffffffffffffffffffffffffffffffffffffffff167f8be0079c531659141344cd1fd0a4f28419497f9722a3daafe3b4186f6b6457e060405160405180910390a35050565b600080fd5b600073ffffffffffffffffffffffffffffffffffffffff82169050919050565b600061028182610256565b9050919050565b61029181610276565b811461029c57600080fd5b50565b6000815190506102ae81610288565b92915050565b600080604083850312156102cb576102ca610251565b5b60006102d98582860161029f565b92505060206102ea8582860161029f565b9150509250929050565b600081519050919050565b7f4e487b7100000000000000000000000000000000000000000000000000000000600052604160045260246000fd5b7f4e487b7100000000000000000000000000000000000000000000000000000000600052602260045260246000fd5b6000600282049050600182168061037557607f821691505b6020821081036103885761038761032e565b5b50919050565b60008190508160005260206000209050919050565b60006020601f8301049050919050565b600082821b905092915050565b6000600883026103f07fffffffffffffffffffffffffffffffffffffffffffffffffffffffffffffffff826103b3565b6103fa86836103b3565b95508019841693508086168417925050509392505050565b6000819050919050565b6000819050919050565b600061044161043c61043784610412565b61041c565b610412565b9050919050565b6000819050919050565b61045b83610426565b61046f61046782610448565b8484546103c0565b825550505050565b600090565b610484610477565b61048f818484610452565b505050565b5b818110156104b3576104a860008261047c565b600181019050610495565b5050565b601f8211156104f8576104c98161038e565b6104d2846103a3565b810160208510156104e1578190505b6104f56104ed856103a3565b830182610494565b50505b505050565b600082821c905092915050565b600061051b600019846008026104fd565b1980831691505092915050565b6000610534838361050a565b9150826002028217905092915050565b61054d826102f4565b67ffffffffffffffff811115610566576105656102ff565b5b610570825461035d565b61057b8282856104b7565b600060209050601f8311600181146105ae576000841561059c578287015190505b6105a68582610528565b86555061060e565b601f1984166105bc8661038e565b60005b828110156105e4578489015182556001820191506020850194506020810190506105bf565b8683101561060157848901516105fd601f89168261050a565b8355505b6001600288020188555050505b505050505050565b61061f81610276565b82525050565b600060208201905061063a6000830184610616565b92915050565b612f2f8061064f6000396000f3fe608060405234801561001057600080fd5b50600436106101425760003560e01c806370a08231116100b8578063a22cb4651161007c578063a22cb46514610377578063b32c4d8d14610393578063b88d4fde146103c5578063c87b56dd146103e1578063e985e9c514610411578063f2fde38b1461044157610142565b806370a08231146102d1578063715018a6146103015780638da5cb5b1461030b57806395bd63d61461032957806395d89b411461035957610142565b80631951f2931161010a5780631951f293146101ff57806323b872dd1461022f57806334d722c91461024b57806342842e0e14610269578063502b83bf146102855780636352211e146102a157610142565b806301ffc9a71461014757806306fdde0314610177578063081812fc14610195578063095ea7b3146101c55780630a763da1146101e1575b600080fd5b610161600480360381019061015c9190611f0e565b61045d565b60405161016e9190611f56565b60405180910390f35b61017f61053f565b60405161018c9190612001565b60405180910390f35b6101af60048036038101906101aa9190612059565b6105d1565b6040516101bc91906120c7565b60405180910390f35b6101df60048036038101906101da919061210e565b6105ed565b005b6101e9610603565b6040516101f6919061215d565b60405180910390f35b61021960048036038101906102149190612059565b610609565b6040516102269190612001565b60405180910390f35b61024960048036038101906102449190612178565b610750565b005b610253610852565b60405161026091906120c7565b60405180910390f35b610283600480360381019061027e9190612178565b610878565b005b61029f600480360381019061029a9190612286565b610898565b005b6102bb60048036038101906102b69190612059565b610b57565b6040516102c891906120c7565b60405180910390f35b6102eb60048036038101906102e6919061231b565b610b69565b6040516102f8919061215d565b60405180910390f35b610309610c23565b005b610313610c37565b60405161032091906120c7565b60405180910390f35b610343600480360381019061033e9190612059565b610c61565b604051610350919061215d565b60405180910390f35b610361610d51565b60405161036e9190612001565b60405180910390f35b610391600480360381019061038c9190612374565b610de3565b005b6103ad60048036038101906103a89190612059565b610df9565b6040516103bc939291906123b4565b60405180910390f35b6103df60048036038101906103da919061251b565b610e30565b005b6103fb60048036038101906103f69190612059565b610e55565b6040516104089190612001565b60405180910390f35b61042b6004803603810190610426919061259e565b610ebe565b6040516104389190611f56565b60405180910390f35b61045b6004803603810190610456919061231b565b610f52565b005b60007f80ac58cd000000000000000000000000000000000000000000000000000000007bffffffffffffffffffffffffffffffffffffffffffffffffffffffff1916827bffffffffffffffffffffffffffffffffffffffffffffffffffffffff1916148061052857507f5b5e139f000000000000000000000000000000000000000000000000000000007bffffffffffffffffffffffffffffffffffffffffffffffffffffffff1916827bffffffffffffffffffffffffffffffffffffffffffffffffffffffff1916145b80610538575061053782610fd8565b5b9050919050565b60606000805461054e9061260d565b80601f016020809104026020016040519081016040528092919081815260200182805461057a9061260d565b80156105c75780601f1061059c576101008083540402835291602001916105c7565b820191906000526020600020905b8154815290600101906020018083116105aa57829003601f168201915b5050505050905090565b60006105dc82611042565b506105e6826110ca565b9050919050565b6105ff82826105fa611107565b61110f565b5050565b60085481565b6060600060016103e860018561061f919061266d565b61062991906126d0565b6106339190612701565b90506007600082815260200190815260200160002060020160009054906101000a900460ff16610698576040517f08c379a000000000000000000000000000000000000000000000000000000000815260040161068f90612781565b60405180910390fd5b60076000828152602001908152602001600020600301600084815260200190815260200160002080546106ca9061260d565b80601f01602080910402602001604051908101604052809291908181526020018280546106f69061260d565b80156107435780601f1061071857610100808354040283529160200191610743565b820191906000526020600020905b81548152906001019060200180831161072657829003601f168201915b5050505050915050919050565b600073ffffffffffffffffffffffffffffffffffffffff168273ffffffffffffffffffffffffffffffffffffffff16036107c25760006040517f64a0ae920000000000000000000000000000000000000000000000000000000081526004016107b991906120c7565b60405180910390fd5b60006107d683836107d1611107565b611121565b90508373ffffffffffffffffffffffffffffffffffffffff168173ffffffffffffffffffffffffffffffffffffffff161461084c578382826040517f64283d7b000000000000000000000000000000000000000000000000000000008152600401610843939291906127a1565b60405180910390fd5b50505050565b600960009054906101000a900473ffffffffffffffffffffffffffffffffffffffff1681565b61089383838360405180602001604052806000815250610e30565b505050565b600960009054906101000a900473ffffffffffffffffffffffffffffffffffffffff1673ffffffffffffffffffffffffffffffffffffffff163373ffffffffffffffffffffffffffffffffffffffff1614610928576040517f08c379a000000000000000000000000000000000000000000000000000000000815260040161091f90612824565b60405180910390fd5b6007600086815260200190815260200160002060020160009054906101000a900460ff161561098c576040517f08c379a000000000000000000000000000000000000000000000000000000000815260040161098390612890565b60405180910390fd5b8181905084849050146109d4576040517f08c379a00000000000000000000000000000000000000000000000000000000081526004016109cb906128fc565b60405180910390fd5b600060076000878152602001908152602001600020905060008160000154905060005b86869050811015610af457610a33878783818110610a1857610a1761291c565b5b9050602002016020810190610a2d919061231b565b8361133b565b848482818110610a4657610a4561291c565b5b9050602002810190610a58919061295a565b8460030160008581526020019081526020016000209182610a7a929190612b74565b507fd2de18103e19daefaeecf34ade89894664c56384a37739ca239e8d95478311f282868684818110610ab057610aaf61291c565b5b9050602002810190610ac2919061295a565b604051610ad193929190612c71565b60405180910390a18180610ae490612ca3565b92505080806001019150506109f7565b5060018260020160006101000a81548160ff0219169083151502179055507f85aed37bb7cc21133f66f266fd7dd9c78412611a999a3ad78f1000382133469a8787879050604051610b46929190612ceb565b60405180910390a150505050505050565b6000610b6282611042565b9050919050565b60008073ffffffffffffffffffffffffffffffffffffffff168273ffffffffffffffffffffffffffffffffffffffff1603610bdc5760006040517f89c62b64000000000000000000000000000000000000000000000000000000008152600401610bd391906120c7565b60405180910390fd5b600360008373ffffffffffffffffffffffffffffffffffffffff1673ffffffffffffffffffffffffffffffffffffffff168152602001908152602001600020549050919050565b610c2b611359565b610c3560006113e0565b565b6000600660009054906101000a900473ffffffffffffffffffffffffffffffffffffffff16905090565b6000610c6b611359565b600060016103e8600854610c7f9190612d14565b610c899190612701565b9050600060018483610c9b9190612701565b610ca5919061266d565b905060086000815480929190610cba90612ca3565b91905055506000600760006008548152602001908152602001600020905082816000018190555081816001018190555060008160020160006101000a81548160ff0219169083151502179055507f07978a2d36cf05f633498b1178e77417882ed002fa4dae7c3d9e4dc989fe2c846008548484604051610d3c93929190612d56565b60405180910390a16008549350505050919050565b606060018054610d609061260d565b80601f0160208091040260200160405190810160405280929190818152602001828054610d8c9061260d565b8015610dd95780601f10610dae57610100808354040283529160200191610dd9565b820191906000526020600020905b815481529060010190602001808311610dbc57829003601f168201915b5050505050905090565b610df5610dee611107565b83836114a6565b5050565b60076020528060005260406000206000915090508060000154908060010154908060020160009054906101000a900460ff16905083565b610e3b848484610750565b610e4f610e46611107565b85858585611615565b50505050565b6060610e6082611042565b506000610e6b6117c6565b90506000815111610e8b5760405180602001604052806000815250610eb6565b80610e95846117dd565b604051602001610ea6929190612dc9565b6040516020818303038152906040525b915050919050565b6000600560008473ffffffffffffffffffffffffffffffffffffffff1673ffffffffffffffffffffffffffffffffffffffff16815260200190815260200160002060008373ffffffffffffffffffffffffffffffffffffffff1673ffffffffffffffffffffffffffffffffffffffff16815260200190815260200160002060009054906101000a900460ff16905092915050565b610f5a611359565b600073ffffffffffffffffffffffffffffffffffffffff168173ffffffffffffffffffffffffffffffffffffffff1603610fcc5760006040517f1e4fbdf7000000000000000000000000000000000000000000000000000000008152600401610fc391906120c7565b60405180910390fd5b610fd5816113e0565b50565b60007f01ffc9a7000000000000000000000000000000000000000000000000000000007bffffffffffffffffffffffffffffffffffffffffffffffffffffffff1916827bffffffffffffffffffffffffffffffffffffffffffffffffffffffff1916149050919050565b60008061104e836118ab565b9050600073ffffffffffffffffffffffffffffffffffffffff168173ffffffffffffffffffffffffffffffffffffffff16036110c157826040517f7e2732890000000000000000000000000000000000000000000000000000000081526004016110b8919061215d565b60405180910390fd5b80915050919050565b60006004600083815260200190815260200160002060009054906101000a900473ffffffffffffffffffffffffffffffffffffffff169050919050565b600033905090565b61111c83838360016118e8565b505050565b60008061112d846118ab565b9050600073ffffffffffffffffffffffffffffffffffffffff168373ffffffffffffffffffffffffffffffffffffffff161461116f5761116e818486611aad565b5b600073ffffffffffffffffffffffffffffffffffffffff168173ffffffffffffffffffffffffffffffffffffffff1614611200576111b16000856000806118e8565b6001600360008373ffffffffffffffffffffffffffffffffffffffff1673ffffffffffffffffffffffffffffffffffffffff168152602001908152602001600020600082825403925050819055505b600073ffffffffffffffffffffffffffffffffffffffff168573ffffffffffffffffffffffffffffffffffffffff1614611283576001600360008773ffffffffffffffffffffffffffffffffffffffff1673ffffffffffffffffffffffffffffffffffffffff168152602001908152602001600020600082825401925050819055505b846002600086815260200190815260200160002060006101000a81548173ffffffffffffffffffffffffffffffffffffffff021916908373ffffffffffffffffffffffffffffffffffffffff160217905550838573ffffffffffffffffffffffffffffffffffffffff168273ffffffffffffffffffffffffffffffffffffffff167fddf252ad1be2c89b69c2b068fc378daa952ba7f163c4a11628f55a4df523b3ef60405160405180910390a4809150509392505050565b611355828260405180602001604052806000815250611b71565b5050565b611361611107565b73ffffffffffffffffffffffffffffffffffffffff1661137f610c37565b73ffffffffffffffffffffffffffffffffffffffff16146113de576113a2611107565b6040517f118cdaa70000000000000000000000000000000000000000000000000000000081526004016113d591906120c7565b60405180910390fd5b565b6000600660009054906101000a900473ffffffffffffffffffffffffffffffffffffffff16905081600660006101000a81548173ffffffffffffffffffffffffffffffffffffffff021916908373ffffffffffffffffffffffffffffffffffffffff1602179055508173ffffffffffffffffffffffffffffffffffffffff168173ffffffffffffffffffffffffffffffffffffffff167f8be0079c531659141344cd1fd0a4f28419497f9722a3daafe3b4186f6b6457e060405160405180910390a35050565b600073ffffffffffffffffffffffffffffffffffffffff168273ffffffffffffffffffffffffffffffffffffffff160361151757816040517f5b08ba1800000000000000000000000000000000000000000000000000000000815260040161150e91906120c7565b60405180910390fd5b80600560008573ffffffffffffffffffffffffffffffffffffffff1673ffffffffffffffffffffffffffffffffffffffff16815260200190815260200160002060008473ffffffffffffffffffffffffffffffffffffffff1673ffffffffffffffffffffffffffffffffffffffff16815260200190815260200160002060006101000a81548160ff0219169083151502179055508173ffffffffffffffffffffffffffffffffffffffff168373ffffffffffffffffffffffffffffffffffffffff167f17307eab39ab6107e8899845ad3d59bd9653f200f220920489ca2b5937696c31836040516116089190611f56565b60405180910390a3505050565b60008373ffffffffffffffffffffffffffffffffffffffff163b11156117bf578273ffffffffffffffffffffffffffffffffffffffff1663150b7a02868685856040518563ffffffff1660e01b81526004016116749493929190612e42565b6020604051808303816000875af19250505080156116b057506040513d601f19601f820116820180604052508101906116ad9190612ea3565b60015b611734573d80600081146116e0576040519150601f19603f3d011682016040523d82523d6000602084013e6116e5565b606091505b50600081510361172c57836040517f64a0ae9200000000000000000000000000000000000000000000000000000000815260040161172391906120c7565b60405180910390fd5b805181602001fd5b63150b7a0260e01b7bffffffffffffffffffffffffffffffffffffffffffffffffffffffff1916817bffffffffffffffffffffffffffffffffffffffffffffffffffffffff1916146117bd57836040517f64a0ae920000000000000000000000000000000000000000000000000000000081526004016117b491906120c7565b60405180910390fd5b505b5050505050565b606060405180602001604052806000815250905090565b6060600060016117ec84611b95565b01905060008167ffffffffffffffff81111561180b5761180a6123f0565b5b6040519080825280601f01601f19166020018201604052801561183d5781602001600182028036833780820191505090505b509050600082602001820190505b6001156118a0578080600190039150507f3031323334353637383961626364656600000000000000000000000000000000600a86061a8153600a8581611894576118936126a1565b5b0494506000850361184b575b819350505050919050565b60006002600083815260200190815260200160002060009054906101000a900473ffffffffffffffffffffffffffffffffffffffff169050919050565b80806119215750600073ffffffffffffffffffffffffffffffffffffffff168273ffffffffffffffffffffffffffffffffffffffff1614155b15611a5557600061193184611042565b9050600073ffffffffffffffffffffffffffffffffffffffff168373ffffffffffffffffffffffffffffffffffffffff161415801561199c57508273ffffffffffffffffffffffffffffffffffffffff168173ffffffffffffffffffffffffffffffffffffffff1614155b80156119af57506119ad8184610ebe565b155b156119f157826040517fa9fbf51f0000000000000000000000000000000000000000000000000000000081526004016119e891906120c7565b60405180910390fd5b8115611a5357838573ffffffffffffffffffffffffffffffffffffffff168273ffffffffffffffffffffffffffffffffffffffff167f8c5be1e5ebec7d5bd14f71427d1e84f3dd0314c0f7b2291e5b200ac8c7c3b92560405160405180910390a45b505b836004600085815260200190815260200160002060006101000a81548173ffffffffffffffffffffffffffffffffffffffff021916908373ffffffffffffffffffffffffffffffffffffffff16021790555050505050565b611ab8838383611ce8565b611b6c57600073ffffffffffffffffffffffffffffffffffffffff168373ffffffffffffffffffffffffffffffffffffffff1603611b2d57806040517f7e273289000000000000000000000000000000000000000000000000000000008152600401611b24919061215d565b60405180910390fd5b81816040517f177e802f000000000000000000000000000000000000000000000000000000008152600401611b63929190612ed0565b60405180910390fd5b505050565b611b7b8383611da9565b611b90611b86611107565b6000858585611615565b505050565b600080600090507a184f03e93ff9f4daa797ed6e38ed64bf6a1f0100000000000000008310611bf3577a184f03e93ff9f4daa797ed6e38ed64bf6a1f0100000000000000008381611be957611be86126a1565b5b0492506040810190505b6d04ee2d6d415b85acef81000000008310611c30576d04ee2d6d415b85acef81000000008381611c2657611c256126a1565b5b0492506020810190505b662386f26fc100008310611c5f57662386f26fc100008381611c5557611c546126a1565b5b0492506010810190505b6305f5e1008310611c88576305f5e1008381611c7e57611c7d6126a1565b5b0492506008810190505b6127108310611cad576127108381611ca357611ca26126a1565b5b0492506004810190505b60648310611cd05760648381611cc657611cc56126a1565b5b0492506002810190505b600a8310611cdf576001810190505b80915050919050565b60008073ffffffffffffffffffffffffffffffffffffffff168373ffffffffffffffffffffffffffffffffffffffff1614158015611da057508273ffffffffffffffffffffffffffffffffffffffff168473ffffffffffffffffffffffffffffffffffffffff161480611d615750611d608484610ebe565b5b80611d9f57508273ffffffffffffffffffffffffffffffffffffffff16611d87836110ca565b73ffffffffffffffffffffffffffffffffffffffff16145b5b90509392505050565b600073ffffffffffffffffffffffffffffffffffffffff168273ffffffffffffffffffffffffffffffffffffffff1603611e1b5760006040517f64a0ae92000000000000000000000000000000000000000000000000000000008152600401611e1291906120c7565b60405180910390fd5b6000611e2983836000611121565b9050600073ffffffffffffffffffffffffffffffffffffffff168173ffffffffffffffffffffffffffffffffffffffff1614611e9d5760006040517f73c6ac6e000000000000000000000000000000000000000000000000000000008152600401611e9491906120c7565b60405180910390fd5b505050565b6000604051905090565b600080fd5b600080fd5b60007fffffffff0000000000000000000000000000000000000000000000000000000082169050919050565b611eeb81611eb6565b8114611ef657600080fd5b50565b600081359050611f0881611ee2565b92915050565b600060208284031215611f2457611f23611eac565b5b6000611f3284828501611ef9565b91505092915050565b60008115159050919050565b611f5081611f3b565b82525050565b6000602082019050611f6b6000830184611f47565b92915050565b600081519050919050565b600082825260208201905092915050565b60005b83811015611fab578082015181840152602081019050611f90565b60008484015250505050565b6000601f19601f8301169050919050565b6000611fd382611f71565b611fdd8185611f7c565b9350611fed818560208601611f8d565b611ff681611fb7565b840191505092915050565b6000602082019050818103600083015261201b8184611fc8565b905092915050565b6000819050919050565b61203681612023565b811461204157600080fd5b50565b6000813590506120538161202d565b92915050565b60006020828403121561206f5761206e611eac565b5b600061207d84828501612044565b91505092915050565b600073ffffffffffffffffffffffffffffffffffffffff82169050919050565b60006120b182612086565b9050919050565b6120c1816120a6565b82525050565b60006020820190506120dc60008301846120b8565b92915050565b6120eb816120a6565b81146120f657600080fd5b50565b600081359050612108816120e2565b92915050565b6000806040838503121561212557612124611eac565b5b6000612133858286016120f9565b925050602061214485828601612044565b9150509250929050565b61215781612023565b82525050565b6000602082019050612172600083018461214e565b92915050565b60008060006060848603121561219157612190611eac565b5b600061219f868287016120f9565b93505060206121b0868287016120f9565b92505060406121c186828701612044565b9150509250925092565b600080fd5b600080fd5b600080fd5b60008083601f8401126121f0576121ef6121cb565b5b8235905067ffffffffffffffff81111561220d5761220c6121d0565b5b602083019150836020820283011115612229576122286121d5565b5b9250929050565b60008083601f840112612246576122456121cb565b5b8235905067ffffffffffffffff811115612263576122626121d0565b5b60208301915083602082028301111561227f5761227e6121d5565b5b9250929050565b6000806000806000606086880312156122a2576122a1611eac565b5b60006122b088828901612044565b955050602086013567ffffffffffffffff8111156122d1576122d0611eb1565b5b6122dd888289016121da565b9450945050604086013567ffffffffffffffff811115612300576122ff611eb1565b5b61230c88828901612230565b92509250509295509295909350565b60006020828403121561233157612330611eac565b5b600061233f848285016120f9565b91505092915050565b61235181611f3b565b811461235c57600080fd5b50565b60008135905061236e81612348565b92915050565b6000806040838503121561238b5761238a611eac565b5b6000612399858286016120f9565b92505060206123aa8582860161235f565b9150509250929050565b60006060820190506123c9600083018661214e565b6123d6602083018561214e565b6123e36040830184611f47565b949350505050565b600080fd5b7f4e487b7100000000000000000000000000000000000000000000000000000000600052604160045260246000fd5b61242882611fb7565b810181811067ffffffffffffffff82111715612447576124466123f0565b5b80604052505050565b600061245a611ea2565b9050612466828261241f565b919050565b600067ffffffffffffffff821115612486576124856123f0565b5b61248f82611fb7565b9050602081019050919050565b82818337600083830152505050565b60006124be6124b98461246b565b612450565b9050828152602081018484840111156124da576124d96123eb565b5b6124e584828561249c565b509392505050565b600082601f830112612502576125016121cb565b5b81356125128482602086016124ab565b91505092915050565b6000806000806080858703121561253557612534611eac565b5b6000612543878288016120f9565b9450506020612554878288016120f9565b935050604061256587828801612044565b925050606085013567ffffffffffffffff81111561258657612585611eb1565b5b612592878288016124ed565b91505092959194509250565b600080604083850312156125b5576125b4611eac565b5b60006125c3858286016120f9565b92505060206125d4858286016120f9565b9150509250929050565b7f4e487b7100000000000000000000000000000000000000000000000000000000600052602260045260246000fd5b6000600282049050600182168061262557607f821691505b602082108103612638576126376125de565b5b50919050565b7f4e487b7100000000000000000000000000000000000000000000000000000000600052601160045260246000fd5b600061267882612023565b915061268383612023565b925082820390508181111561269b5761269a61263e565b5b92915050565b7f4e487b7100000000000000000000000000000000000000000000000000000000600052601260045260246000fd5b60006126db82612023565b91506126e683612023565b9250826126f6576126f56126a1565b5b828204905092915050565b600061270c82612023565b915061271783612023565b925082820190508082111561272f5761272e61263e565b5b92915050565b7f4261746368206e6f74206d696e74656400000000000000000000000000000000600082015250565b600061276b601083611f7c565b915061277682612735565b602082019050919050565b6000602082019050818103600083015261279a8161275e565b9050919050565b60006060820190506127b660008301866120b8565b6127c3602083018561214e565b6127d060408301846120b8565b949350505050565b7f4e6f7420617574686f72697a6564000000000000000000000000000000000000600082015250565b600061280e600e83611f7c565b9150612819826127d8565b602082019050919050565b6000602082019050818103600083015261283d81612801565b9050919050565b7f426174636820616c7265616479206d696e746564000000000000000000000000600082015250565b600061287a601483611f7c565b915061288582612844565b602082019050919050565b600060208201905081810360008301526128a98161286d565b9050919050565b7f4172726179206c656e677468206d69736d617463680000000000000000000000600082015250565b60006128e6601583611f7c565b91506128f1826128b0565b602082019050919050565b60006020820190508181036000830152612915816128d9565b9050919050565b7f4e487b7100000000000000000000000000000000000000000000000000000000600052603260045260246000fd5b600080fd5b600080fd5b600080fd5b600080833560016020038436030381126129775761297661294b565b5b80840192508235915067ffffffffffffffff82111561299957612998612950565b5b6020830192506001820236038313156129b5576129b4612955565b5b509250929050565b600082905092915050565b60008190508160005260206000209050919050565b60006020601f8301049050919050565b600082821b905092915050565b600060088302612a2a7fffffffffffffffffffffffffffffffffffffffffffffffffffffffffffffffff826129ed565b612a3486836129ed565b95508019841693508086168417925050509392505050565b6000819050919050565b6000612a71612a6c612a6784612023565b612a4c565b612023565b9050919050565b6000819050919050565b612a8b83612a56565b612a9f612a9782612a78565b8484546129fa565b825550505050565b600090565b612ab4612aa7565b612abf818484612a82565b505050565b5b81811015612ae357612ad8600082612aac565b600181019050612ac5565b5050565b601f821115612b2857612af9816129c8565b612b02846129dd565b81016020851015612b11578190505b612b25612b1d856129dd565b830182612ac4565b50505b505050565b600082821c905092915050565b6000612b4b60001984600802612b2d565b1980831691505092915050565b6000612b648383612b3a565b9150826002028217905092915050565b612b7e83836129bd565b67ffffffffffffffff811115612b9757612b966123f0565b5b612ba1825461260d565b612bac828285612ae7565b6000601f831160018114612bdb5760008415612bc9578287013590505b612bd38582612b58565b865550612c3b565b601f198416612be9866129c8565b60005b82811015612c1157848901358255600182019150602085019450602081019050612bec565b86831015612c2e5784890135612c2a601f891682612b3a565b8355505b6001600288020188555050505b50505050505050565b6000612c508385611f7c565b9350612c5d83858461249c565b612c6683611fb7565b840190509392505050565b6000604082019050612c86600083018661214e565b8181036020830152612c99818486612c44565b9050949350505050565b6000612cae82612023565b91507fffffffffffffffffffffffffffffffffffffffffffffffffffffffffffffffff8203612ce057612cdf61263e565b5b600182019050919050565b6000604082019050612d00600083018561214e565b612d0d602083018461214e565b9392505050565b6000612d1f82612023565b9150612d2a83612023565b9250828202612d3881612023565b91508282048414831517612d4f57612d4e61263e565b5b5092915050565b6000606082019050612d6b600083018661214e565b612d78602083018561214e565b612d85604083018461214e565b949350505050565b600081905092915050565b6000612da382611f71565b612dad8185612d8d565b9350612dbd818560208601611f8d565b80840191505092915050565b6000612dd58285612d98565b9150612de18284612d98565b91508190509392505050565b600081519050919050565b600082825260208201905092915050565b6000612e1482612ded565b612e1e8185612df8565b9350612e2e818560208601611f8d565b612e3781611fb7565b840191505092915050565b6000608082019050612e5760008301876120b8565b612e6460208301866120b8565b612e71604083018561214e565b8181036060830152612e838184612e09565b905095945050505050565b600081519050612e9d81611ee2565b92915050565b600060208284031215612eb957612eb8611eac565b5b6000612ec784828501612e8e565b91505092915050565b6000604082019050612ee560008301856120b8565b612ef2602083018461214e565b939250505056fea2646970667358221220c153bea840cd193191cb1011deb9c1f1049cc8bf3c5f4682ee2f5c8315c8c1df64736f6c634300081b0033",
  "linkReferences": {},
  "deployedLinkReferences": {}
}