{
  "_format": "hh-sol-artifact-1",
  "contractName": "InscriptionNFT",
  "sourceName": "blockchain/evm/contracts/SyntethicNFT.sol",
  "abi": [
    {
      "inputs": [
        {
          "internalType": "address",
          "name": "_minter",
          "type": "address"
        },
        {
          "internalType": "address",
          "name": "initialOwner",
          "type": "address"
        },
        {
          "internalType": "string",
          "name": "contractName",
          "type": "string"
        }
      ],
      "stateMutability": "nonpayable",
      "type": "constructor"
    },
    {
      "inputs": [],
      "name": "ERC721EnumerableForbiddenBatchMint",
      "type": "error"
    },
    {
      "inputs": [
        {
          "internalType": "address",
          "name": "sender",
          "type": "address"
        },
        {
          "internalType": "uint256",
          "name": "tokenId",
          "type": "uint256"
        },
        {
          "internalType": "address",
          "name": "owner",
          "type": "address"
        }
      ],
      "name": "ERC721IncorrectOwner",
      "type": "error"
    },
    {
      "inputs": [
        {
          "internalType": "address",
          "name": "operator",
          "type": "address"
        },
        {
          "internalType": "uint256",
          "name": "tokenId",
          "type": "uint256"
        }
      ],
      "name": "ERC721InsufficientApproval",
      "type": "error"
    },
    {
      "inputs": [
        {
          "internalType": "address",
          "name": "approver",
          "type": "address"
        }
      ],
      "name": "ERC721InvalidApprover",
      "type": "error"
    },
    {
      "inputs": [
        {
          "internalType": "address",
          "name": "operator",
          "type": "address"
        }
      ],
      "name": "ERC721InvalidOperator",
      "type": "error"
    },
    {
      "inputs": [
        {
          "internalType": "address",
          "name": "owner",
          "type": "address"
        }
      ],
      "name": "ERC721InvalidOwner",
      "type": "error"
    },
    {
      "inputs": [
        {
          "internalType": "address",
          "name": "receiver",
          "type": "address"
        }
      ],
      "name": "ERC721InvalidReceiver",
      "type": "error"
    },
    {
      "inputs": [
        {
          "internalType": "address",
          "name": "sender",
          "type": "address"
        }
      ],
      "name": "ERC721InvalidSender",
      "type": "error"
    },
    {
      "inputs": [
        {
          "internalType": "uint256",
          "name": "tokenId",
          "type": "uint256"
        }
      ],
      "name": "ERC721NonexistentToken",
      "type": "error"
    },
    {
      "inputs": [
        {
          "internalType": "address",
          "name": "owner",
          "type": "address"
        },
        {
          "internalType": "uint256",
          "name": "index",
          "type": "uint256"
        }
      ],
      "name": "ERC721OutOfBoundsIndex",
      "type": "error"
    },
    {
      "inputs": [
        {
          "internalType": "address",
          "name": "owner",
          "type": "address"
        }
      ],
      "name": "OwnableInvalidOwner",
      "type": "error"
    },
    {
      "inputs": [
        {
          "internalType": "address",
          "name": "account",
          "type": "address"
        }
      ],
      "name": "OwnableUnauthorizedAccount",
      "type": "error"
    },
    {
      "anonymous": false,
      "inputs": [
        {
          "indexed": true,
          "internalType": "address",
          "name": "owner",
          "type": "address"
        },
        {
          "indexed": true,
          "internalType": "address",
          "name": "approved",
          "type": "address"
        },
        {
          "indexed": true,
          "internalType": "uint256",
          "name": "tokenId",
          "type": "uint256"
        }
      ],
      "name": "Approval",
      "type": "event"
    },
    {
      "anonymous": false,
      "inputs": [
        {
          "indexed": true,
          "internalType": "address",
          "name": "owner",
          "type": "address"
        },
        {
          "indexed": true,
          "internalType": "address",
          "name": "operator",
          "type": "address"
        },
        {
          "indexed": false,
          "internalType": "bool",
          "name": "approved",
          "type": "bool"
        }
      ],
      "name": "ApprovalForAll",
      "type": "event"
    },
    {
      "anonymous": false,
      "inputs": [
        {
          "indexed": true,
          "internalType": "uint256",
          "name": "tokenId",
          "type": "uint256"
        },
        {
          "indexed": true,
          "internalType": "address",
          "name": "recipient",
          "type": "address"
        },
        {
          "indexed": false,
          "internalType": "string",
          "name": "inscriptionId",
          "type": "string"
        }
      ],
      "name": "InscriptionMinted",
      "type": "event"
    },
    {
      "anonymous": false,
      "inputs": [
        {
          "indexed": true,
          "internalType": "address",
          "name": "previousOwner",
          "type": "address"
        },
        {
          "indexed": true,
          "internalType": "address",
          "name": "newOwner",
          "type": "address"
        }
      ],
      "name": "OwnershipTransferred",
      "type": "event"
    },
    {
      "anonymous": false,
      "inputs": [
        {
          "indexed": true,
          "internalType": "address",
          "name": "from",
          "type": "address"
        },
        {
          "indexed": true,
          "internalType": "address",
          "name": "to",
          "type": "address"
        },
        {
          "indexed": true,
          "internalType": "uint256",
          "name": "tokenId",
          "type": "uint256"
        }
      ],
      "name": "Transfer",
      "type": "event"
    },
    {
      "inputs": [
        {
          "internalType": "address",
          "name": "to",
          "type": "address"
        },
        {
          "internalType": "uint256",
          "name": "tokenId",
          "type": "uint256"
        }
      ],
      "name": "approve",
      "outputs": [],
      "stateMutability": "nonpayable",
      "type": "function"
    },
    {
      "inputs": [
        {
          "internalType": "address",
          "name": "owner",
          "type": "address"
        }
      ],
      "name": "balanceOf",
      "outputs": [
        {
          "internalType": "uint256",
          "name": "",
          "type": "uint256"
        }
      ],
      "stateMutability": "view",
      "type": "function"
    },
    {
      "inputs": [
        {
          "internalType": "uint256",
          "name": "tokenId",
          "type": "uint256"
        }
      ],
      "name": "getApproved",
      "outputs": [
        {
          "internalType": "address",
          "name": "",
          "type": "address"
        }
      ],
      "stateMutability": "view",
      "type": "function"
    },
    {
      "inputs": [
        {
          "internalType": "uint256",
          "name": "tokenId",
          "type": "uint256"
        }
      ],
      "name": "getInscriptionId",
      "outputs": [
        {
          "internalType": "string",
          "name": "",
          "type": "string"
        }
      ],
      "stateMutability": "view",
      "type": "function"
    },
    {
      "inputs": [
        {
          "internalType": "address",
          "name": "owner",
          "type": "address"
        },
        {
          "internalType": "address",
          "name": "operator",
          "type": "address"
        }
      ],
      "name": "isApprovedForAll",
      "outputs": [
        {
          "internalType": "bool",
          "name": "",
          "type": "bool"
        }
      ],
      "stateMutability": "view",
      "type": "function"
    },
    {
      "inputs": [
        {
          "internalType": "address",
          "name": "recipient",
          "type": "address"
        },
        {
          "internalType": "uint256",
          "name": "tokenId",
          "type": "uint256"
        },
        {
          "internalType": "string",
          "name": "inscriptionId",
          "type": "string"
        }
      ],
      "name": "mint",
      "outputs": [],
      "stateMutability": "nonpayable",
      "type": "function"
    },
    {
      "inputs": [],
      "name": "minterAddress",
      "outputs": [
        {
          "internalType": "address",
          "name": "",
          "type": "address"
        }
      ],
      "stateMutability": "view",
      "type": "function"
    },
    {
      "inputs": [],
      "name": "name",
      "outputs": [
        {
          "internalType": "string",
          "name": "",
          "type": "string"
        }
      ],
      "stateMutability": "view",
      "type": "function"
    },
    {
      "inputs": [],
      "name": "owner",
      "outputs": [
        {
          "internalType": "address",
          "name": "",
          "type": "address"
        }
      ],
      "stateMutability": "view",
      "type": "function"
    },
    {
      "inputs": [
        {
          "internalType": "uint256",
          "name": "tokenId",
          "type": "uint256"
        }
      ],
      "name": "ownerOf",
      "outputs": [
        {
          "internalType": "address",
          "name": "",
          "type": "address"
        }
      ],
      "stateMutability": "view",
      "type": "function"
    },
    {
      "inputs": [],
      "name": "renounceOwnership",
      "outputs": [],
      "stateMutability": "nonpayable",
      "type": "function"
    },
    {
      "inputs": [
        {
          "internalType": "address",
          "name": "from",
          "type": "address"
        },
        {
          "internalType": "address",
          "name": "to",
          "type": "address"
        },
        {
          "internalType": "uint256",
          "name": "tokenId",
          "type": "uint256"
        }
      ],
      "name": "safeTransferFrom",
      "outputs": [],
      "stateMutability": "nonpayable",
      "type": "function"
    },
    {
      "inputs": [
        {
          "internalType": "address",
          "name": "from",
          "type": "address"
        },
        {
          "internalType": "address",
          "name": "to",
          "type": "address"
        },
        {
          "internalType": "uint256",
          "name": "tokenId",
          "type": "uint256"
        },
        {
          "internalType": "bytes",
          "name": "data",
          "type": "bytes"
        }
      ],
      "name": "safeTransferFrom",
      "outputs": [],
      "stateMutability": "nonpayable",
      "type": "function"
    },
    {
      "inputs": [
        {
          "internalType": "address",
          "name": "operator",
          "type": "address"
        },
        {
          "internalType": "bool",
          "name": "approved",
          "type": "bool"
        }
      ],
      "name": "setApprovalForAll",
      "outputs": [],
      "stateMutability": "nonpayable",
      "type": "function"
    },
    {
      "inputs": [
        {
          "internalType": "address",
          "name": "newMinter",
          "type": "address"
        }
      ],
      "name": "setMinter",
      "outputs": [],
      "stateMutability": "nonpayable",
      "type": "function"
    },
    {
      "inputs": [
        {
          "internalType": "bytes4",
          "name": "interfaceId",
          "type": "bytes4"
        }
      ],
      "name": "supportsInterface",
      "outputs": [
        {
          "internalType": "bool",
          "name": "",
          "type": "bool"
        }
      ],
      "stateMutability": "view",
      "type": "function"
    },
    {
      "inputs": [],
      "name": "symbol",
      "outputs": [
        {
          "internalType": "string",
          "name": "",
          "type": "string"
        }
      ],
      "stateMutability": "view",
      "type": "function"
    },
    {
      "inputs": [
        {
          "internalType": "uint256",
          "name": "index",
          "type": "uint256"
        }
      ],
      "name": "tokenByIndex",
      "outputs": [
        {
          "internalType": "uint256",
          "name": "",
          "type": "uint256"
        }
      ],
      "stateMutability": "view",
      "type": "function"
    },
    {
      "inputs": [
        {
          "internalType": "address",
          "name": "owner",
          "type": "address"
        },
        {
          "internalType": "uint256",
          "name": "index",
          "type": "uint256"
        }
      ],
      "name": "tokenOfOwnerByIndex",
      "outputs": [
        {
          "internalType": "uint256",
          "name": "",
          "type": "uint256"
        }
      ],
      "stateMutability": "view",
      "type": "function"
    },
    {
      "inputs": [
        {
          "internalType": "uint256",
          "name": "tokenId",
          "type": "uint256"
        }
      ],
      "name": "tokenURI",
      "outputs": [
        {
          "internalType": "string",
          "name": "",
          "type": "string"
        }
      ],
      "stateMutability": "view",
      "type": "function"
    },
    {
      "inputs": [],
      "name": "totalSupply",
      "outputs": [
        {
          "internalType": "uint256",
          "name": "",
          "type": "uint256"
        }
      ],
      "stateMutability": "view",
      "type": "function"
    },
    {
      "inputs": [
        {
          "internalType": "address",
          "name": "from",
          "type": "address"
        },
        {
          "internalType": "address",
          "name": "to",
          "type": "address"
        },
        {
          "internalType": "uint256",
          "name": "tokenId",
          "type": "uint256"
        }
      ],
      "name": "transferFrom",
      "outputs": [],
      "stateMutability": "nonpayable",
      "type": "function"
    },
    {
      "inputs": [
        {
          "internalType": "address",
          "name": "newOwner",
          "type": "address"
        }
      ],
      "name": "transferOwnership",
      "outputs": [],
      "stateMutability": "nonpayable",
      "type": "function"
    }
  ],
  "bytecode": "0x608060405234801561001057600080fd5b5060405161381c38038061381c833981810160405281019061003291906103f0565b81816040518060400160405280600481526020017f494e46540000000000000000000000000000000000000000000000000000000081525081600090816100799190610680565b5080600190816100899190610680565b505050600073ffffffffffffffffffffffffffffffffffffffff168173ffffffffffffffffffffffffffffffffffffffff16036100fe5760006040517f1e4fbdf70000000000000000000000000000000000000000000000000000000081526004016100f59190610761565b60405180910390fd5b61010d8161015760201b60201c565b5082600b60006101000a81548173ffffffffffffffffffffffffffffffffffffffff021916908373ffffffffffffffffffffffffffffffffffffffff16021790555050505061077c565b6000600660009054906101000a900473ffffffffffffffffffffffffffffffffffffffff16905081600660006101000a81548173ffffffffffffffffffffffffffffffffffffffff021916908373ffffffffffffffffffffffffffffffffffffffff1602179055508173ffffffffffffffffffffffffffffffffffffffff168173ffffffffffffffffffffffffffffffffffffffff167f8be0079c531659141344cd1fd0a4f28419497f9722a3daafe3b4186f6b6457e060405160405180910390a35050565b6000604051905090565b600080fd5b600080fd5b600073ffffffffffffffffffffffffffffffffffffffff82169050919050565b600061025c82610231565b9050919050565b61026c81610251565b811461027757600080fd5b50565b60008151905061028981610263565b92915050565b600080fd5b600080fd5b6000601f19601f8301169050919050565b7f4e487b7100000000000000000000000000000000000000000000000000000000600052604160045260246000fd5b6102e282610299565b810181811067ffffffffffffffff82111715610301576103006102aa565b5b80604052505050565b600061031461021d565b905061032082826102d9565b919050565b600067ffffffffffffffff8211156103405761033f6102aa565b5b61034982610299565b9050602081019050919050565b60005b83811015610374578082015181840152602081019050610359565b60008484015250505050565b600061039361038e84610325565b61030a565b9050828152602081018484840111156103af576103ae610294565b5b6103ba848285610356565b509392505050565b600082601f8301126103d7576103d661028f565b5b81516103e7848260208601610380565b91505092915050565b60008060006060848603121561040957610408610227565b5b60006104178682870161027a565b93505060206104288682870161027a565b925050604084015167ffffffffffffffff8111156104495761044861022c565b5b610455868287016103c2565b9150509250925092565b600081519050919050565b7f4e487b7100000000000000000000000000000000000000000000000000000000600052602260045260246000fd5b600060028204905060018216806104b157607f821691505b6020821081036104c4576104c361046a565b5b50919050565b60008190508160005260206000209050919050565b60006020601f8301049050919050565b600082821b905092915050565b60006008830261052c7fffffffffffffffffffffffffffffffffffffffffffffffffffffffffffffffff826104ef565b61053686836104ef565b95508019841693508086168417925050509392505050565b6000819050919050565b6000819050919050565b600061057d6105786105738461054e565b610558565b61054e565b9050919050565b6000819050919050565b61059783610562565b6105ab6105a382610584565b8484546104fc565b825550505050565b600090565b6105c06105b3565b6105cb81848461058e565b505050565b5b818110156105ef576105e46000826105b8565b6001810190506105d1565b5050565b601f82111561063457610605816104ca565b61060e846104df565b8101602085101561061d578190505b610631610629856104df565b8301826105d0565b50505b505050565b600082821c905092915050565b600061065760001984600802610639565b1980831691505092915050565b60006106708383610646565b9150826002028217905092915050565b6106898261045f565b67ffffffffffffffff8111156106a2576106a16102aa565b5b6106ac8254610499565b6106b78282856105f3565b600060209050601f8311600181146106ea57600084156106d8578287015190505b6106e28582610664565b86555061074a565b601f1984166106f8866104ca565b60005b82811015610720578489015182556001820191506020850194506020810190506106fb565b8683101561073d5784890151610739601f891682610646565b8355505b6001600288020188555050505b505050505050565b61075b81610251565b82525050565b60006020820190506107766000830184610752565b92915050565b6130918061078b6000396000f3fe608060405234801561001057600080fd5b506004361061014d5760003560e01c80636352211e116100c3578063b88d4fde1161007c578063b88d4fde146103b2578063c87b56dd146103ce578063d3fc9864146103fe578063e985e9c51461041a578063f2fde38b1461044a578063fca3b5aa146104665761014d565b80636352211e146102f057806370a0823114610320578063715018a6146103505780638da5cb5b1461035a57806395d89b4114610378578063a22cb465146103965761014d565b80631951f293116101155780631951f2931461020a57806323b872dd1461023a5780632f745c591461025657806334d722c91461028657806342842e0e146102a45780634f6ccce7146102c05761014d565b806301ffc9a71461015257806306fdde0314610182578063081812fc146101a0578063095ea7b3146101d057806318160ddd146101ec575b600080fd5b61016c600480360381019061016791906122be565b610482565b6040516101799190612306565b60405180910390f35b61018a610494565b60405161019791906123b1565b60405180910390f35b6101ba60048036038101906101b59190612409565b610526565b6040516101c79190612477565b60405180910390f35b6101ea60048036038101906101e591906124be565b610542565b005b6101f4610558565b604051610201919061250d565b60405180910390f35b610224600480360381019061021f9190612409565b610565565b60405161023191906123b1565b60405180910390f35b610254600480360381019061024f9190612528565b610681565b005b610270600480360381019061026b91906124be565b610783565b60405161027d919061250d565b60405180910390f35b61028e61082c565b60405161029b9190612477565b60405180910390f35b6102be60048036038101906102b99190612528565b610852565b005b6102da60048036038101906102d59190612409565b610872565b6040516102e7919061250d565b60405180910390f35b61030a60048036038101906103059190612409565b6108e8565b6040516103179190612477565b60405180910390f35b61033a6004803603810190610335919061257b565b6108fa565b604051610347919061250d565b60405180910390f35b6103586109b4565b005b6103626109c8565b60405161036f9190612477565b60405180910390f35b6103806109f2565b60405161038d91906123b1565b60405180910390f35b6103b060048036038101906103ab91906125d4565b610a84565b005b6103cc60048036038101906103c79190612749565b610a9a565b005b6103e860048036038101906103e39190612409565b610abf565b6040516103f591906123b1565b60405180910390f35b6104186004803603810190610413919061282c565b610ad1565b005b610434600480360381019061042f91906128a0565b610c2b565b6040516104419190612306565b60405180910390f35b610464600480360381019061045f919061257b565b610cbf565b005b610480600480360381019061047b919061257b565b610d45565b005b600061048d82610e00565b9050919050565b6060600080546104a39061290f565b80601f01602080910402602001604051908101604052809291908181526020018280546104cf9061290f565b801561051c5780601f106104f15761010080835404028352916020019161051c565b820191906000526020600020905b8154815290600101906020018083116104ff57829003601f168201915b5050505050905090565b600061053182610e7a565b5061053b82610f02565b9050919050565b610554828261054f610f3f565b610f47565b5050565b6000600980549050905090565b6060600073ffffffffffffffffffffffffffffffffffffffff1661058883610f59565b73ffffffffffffffffffffffffffffffffffffffff16036105de576040517f08c379a00000000000000000000000000000000000000000000000000000000081526004016105d59061298c565b60405180910390fd5b600c600083815260200190815260200160002080546105fc9061290f565b80601f01602080910402602001604051908101604052809291908181526020018280546106289061290f565b80156106755780601f1061064a57610100808354040283529160200191610675565b820191906000526020600020905b81548152906001019060200180831161065857829003601f168201915b50505050509050919050565b600073ffffffffffffffffffffffffffffffffffffffff168273ffffffffffffffffffffffffffffffffffffffff16036106f35760006040517f64a0ae920000000000000000000000000000000000000000000000000000000081526004016106ea9190612477565b60405180910390fd5b60006107078383610702610f3f565b610f96565b90508373ffffffffffffffffffffffffffffffffffffffff168173ffffffffffffffffffffffffffffffffffffffff161461077d578382826040517f64283d7b000000000000000000000000000000000000000000000000000000008152600401610774939291906129ac565b60405180910390fd5b50505050565b600061078e836108fa565b82106107d35782826040517fa57d13dc0000000000000000000000000000000000000000000000000000000081526004016107ca9291906129e3565b60405180910390fd5b600760008473ffffffffffffffffffffffffffffffffffffffff1673ffffffffffffffffffffffffffffffffffffffff168152602001908152602001600020600083815260200190815260200160002054905092915050565b600b60009054906101000a900473ffffffffffffffffffffffffffffffffffffffff1681565b61086d83838360405180602001604052806000815250610a9a565b505050565b600061087c610558565b82106108c2576000826040517fa57d13dc0000000000000000000000000000000000000000000000000000000081526004016108b99291906129e3565b60405180910390fd5b600982815481106108d6576108d5612a0c565b5b90600052602060002001549050919050565b60006108f382610e7a565b9050919050565b60008073ffffffffffffffffffffffffffffffffffffffff168273ffffffffffffffffffffffffffffffffffffffff160361096d5760006040517f89c62b640000000000000000000000000000000000000000000000000000000081526004016109649190612477565b60405180910390fd5b600360008373ffffffffffffffffffffffffffffffffffffffff1673ffffffffffffffffffffffffffffffffffffffff168152602001908152602001600020549050919050565b6109bc610fac565b6109c66000611033565b565b6000600660009054906101000a900473ffffffffffffffffffffffffffffffffffffffff16905090565b606060018054610a019061290f565b80601f0160208091040260200160405190810160405280929190818152602001828054610a2d9061290f565b8015610a7a5780601f10610a4f57610100808354040283529160200191610a7a565b820191906000526020600020905b815481529060010190602001808311610a5d57829003601f168201915b5050505050905090565b610a96610a8f610f3f565b83836110f9565b5050565b610aa5848484610681565b610ab9610ab0610f3f565b85858585611268565b50505050565b6060610aca82611419565b9050919050565b600b60009054906101000a900473ffffffffffffffffffffffffffffffffffffffff1673ffffffffffffffffffffffffffffffffffffffff163373ffffffffffffffffffffffffffffffffffffffff1614610b61576040517f08c379a0000000000000000000000000000000000000000000000000000000008152600401610b5890612a87565b60405180910390fd5b60008282905011610ba7576040517f08c379a0000000000000000000000000000000000000000000000000000000008152600401610b9e90612af3565b60405180910390fd5b610bb18484611482565b8181600c60008681526020019081526020016000209182610bd3929190612cca565b508373ffffffffffffffffffffffffffffffffffffffff16837f6d246a6af14461bf9f2dc54fd9e1bd19989fc489021dbec84e8952d2b41a07e48484604051610c1d929190612dc7565b60405180910390a350505050565b6000600560008473ffffffffffffffffffffffffffffffffffffffff1673ffffffffffffffffffffffffffffffffffffffff16815260200190815260200160002060008373ffffffffffffffffffffffffffffffffffffffff1673ffffffffffffffffffffffffffffffffffffffff16815260200190815260200160002060009054906101000a900460ff16905092915050565b610cc7610fac565b600073ffffffffffffffffffffffffffffffffffffffff168173ffffffffffffffffffffffffffffffffffffffff1603610d395760006040517f1e4fbdf7000000000000000000000000000000000000000000000000000000008152600401610d309190612477565b60405180910390fd5b610d4281611033565b50565b610d4d610fac565b600073ffffffffffffffffffffffffffffffffffffffff168173ffffffffffffffffffffffffffffffffffffffff1603610dbc576040517f08c379a0000000000000000000000000000000000000000000000000000000008152600401610db390612e37565b60405180910390fd5b80600b60006101000a81548173ffffffffffffffffffffffffffffffffffffffff021916908373ffffffffffffffffffffffffffffffffffffffff16021790555050565b60007f780e9d63000000000000000000000000000000000000000000000000000000007bffffffffffffffffffffffffffffffffffffffffffffffffffffffff1916827bffffffffffffffffffffffffffffffffffffffffffffffffffffffff19161480610e735750610e72826114a0565b5b9050919050565b600080610e8683610f59565b9050600073ffffffffffffffffffffffffffffffffffffffff168173ffffffffffffffffffffffffffffffffffffffff1603610ef957826040517f7e273289000000000000000000000000000000000000000000000000000000008152600401610ef0919061250d565b60405180910390fd5b80915050919050565b60006004600083815260200190815260200160002060009054906101000a900473ffffffffffffffffffffffffffffffffffffffff169050919050565b600033905090565b610f548383836001611582565b505050565b60006002600083815260200190815260200160002060009054906101000a900473ffffffffffffffffffffffffffffffffffffffff169050919050565b6000610fa3848484611747565b90509392505050565b610fb4610f3f565b73ffffffffffffffffffffffffffffffffffffffff16610fd26109c8565b73ffffffffffffffffffffffffffffffffffffffff161461103157610ff5610f3f565b6040517f118cdaa70000000000000000000000000000000000000000000000000000000081526004016110289190612477565b60405180910390fd5b565b6000600660009054906101000a900473ffffffffffffffffffffffffffffffffffffffff16905081600660006101000a81548173ffffffffffffffffffffffffffffffffffffffff021916908373ffffffffffffffffffffffffffffffffffffffff1602179055508173ffffffffffffffffffffffffffffffffffffffff168173ffffffffffffffffffffffffffffffffffffffff167f8be0079c531659141344cd1fd0a4f28419497f9722a3daafe3b4186f6b6457e060405160405180910390a35050565b600073ffffffffffffffffffffffffffffffffffffffff168273ffffffffffffffffffffffffffffffffffffffff160361116a57816040517f5b08ba180000000000000000000000000000000000000000000000000000000081526004016111619190612477565b60405180910390fd5b80600560008573ffffffffffffffffffffffffffffffffffffffff1673ffffffffffffffffffffffffffffffffffffffff16815260200190815260200160002060008473ffffffffffffffffffffffffffffffffffffffff1673ffffffffffffffffffffffffffffffffffffffff16815260200190815260200160002060006101000a81548160ff0219169083151502179055508173ffffffffffffffffffffffffffffffffffffffff168373ffffffffffffffffffffffffffffffffffffffff167f17307eab39ab6107e8899845ad3d59bd9653f200f220920489ca2b5937696c318360405161125b9190612306565b60405180910390a3505050565b60008373ffffffffffffffffffffffffffffffffffffffff163b1115611412578273ffffffffffffffffffffffffffffffffffffffff1663150b7a02868685856040518563ffffffff1660e01b81526004016112c79493929190612eac565b6020604051808303816000875af192505050801561130357506040513d601f19601f820116820180604052508101906113009190612f0d565b60015b611387573d8060008114611333576040519150601f19603f3d011682016040523d82523d6000602084013e611338565b606091505b50600081510361137f57836040517f64a0ae920000000000000000000000000000000000000000000000000000000081526004016113769190612477565b60405180910390fd5b805181602001fd5b63150b7a0260e01b7bffffffffffffffffffffffffffffffffffffffffffffffffffffffff1916817bffffffffffffffffffffffffffffffffffffffffffffffffffffffff19161461141057836040517f64a0ae920000000000000000000000000000000000000000000000000000000081526004016114079190612477565b60405180910390fd5b505b5050505050565b606061142482610e7a565b50600061142f611864565b9050600081511161144f576040518060200160405280600081525061147a565b806114598461187b565b60405160200161146a929190612f76565b6040516020818303038152906040525b915050919050565b61149c828260405180602001604052806000815250611949565b5050565b60007f80ac58cd000000000000000000000000000000000000000000000000000000007bffffffffffffffffffffffffffffffffffffffffffffffffffffffff1916827bffffffffffffffffffffffffffffffffffffffffffffffffffffffff1916148061156b57507f5b5e139f000000000000000000000000000000000000000000000000000000007bffffffffffffffffffffffffffffffffffffffffffffffffffffffff1916827bffffffffffffffffffffffffffffffffffffffffffffffffffffffff1916145b8061157b575061157a8261196d565b5b9050919050565b80806115bb5750600073ffffffffffffffffffffffffffffffffffffffff168273ffffffffffffffffffffffffffffffffffffffff1614155b156116ef5760006115cb84610e7a565b9050600073ffffffffffffffffffffffffffffffffffffffff168373ffffffffffffffffffffffffffffffffffffffff161415801561163657508273ffffffffffffffffffffffffffffffffffffffff168173ffffffffffffffffffffffffffffffffffffffff1614155b801561164957506116478184610c2b565b155b1561168b57826040517fa9fbf51f0000000000000000000000000000000000000000000000000000000081526004016116829190612477565b60405180910390fd5b81156116ed57838573ffffffffffffffffffffffffffffffffffffffff168273ffffffffffffffffffffffffffffffffffffffff167f8c5be1e5ebec7d5bd14f71427d1e84f3dd0314c0f7b2291e5b200ac8c7c3b92560405160405180910390a45b505b836004600085815260200190815260200160002060006101000a81548173ffffffffffffffffffffffffffffffffffffffff021916908373ffffffffffffffffffffffffffffffffffffffff16021790555050505050565b6000806117558585856119d7565b9050600073ffffffffffffffffffffffffffffffffffffffff168173ffffffffffffffffffffffffffffffffffffffff16036117995761179484611bf1565b6117d8565b8473ffffffffffffffffffffffffffffffffffffffff168173ffffffffffffffffffffffffffffffffffffffff16146117d7576117d68185611c3a565b5b5b600073ffffffffffffffffffffffffffffffffffffffff168573ffffffffffffffffffffffffffffffffffffffff160361181a5761181584611d25565b611859565b8473ffffffffffffffffffffffffffffffffffffffff168173ffffffffffffffffffffffffffffffffffffffff1614611858576118578585611df6565b5b5b809150509392505050565b606060405180602001604052806000815250905090565b60606000600161188a84611e81565b01905060008167ffffffffffffffff8111156118a9576118a861261e565b5b6040519080825280601f01601f1916602001820160405280156118db5781602001600182028036833780820191505090505b509050600082602001820190505b60011561193e578080600190039150507f3031323334353637383961626364656600000000000000000000000000000000600a86061a8153600a858161193257611931612f9a565b5b049450600085036118e9575b819350505050919050565b6119538383611fd4565b61196861195e610f3f565b6000858585611268565b505050565b60007f01ffc9a7000000000000000000000000000000000000000000000000000000007bffffffffffffffffffffffffffffffffffffffffffffffffffffffff1916827bffffffffffffffffffffffffffffffffffffffffffffffffffffffff1916149050919050565b6000806119e384610f59565b9050600073ffffffffffffffffffffffffffffffffffffffff168373ffffffffffffffffffffffffffffffffffffffff1614611a2557611a248184866120cd565b5b600073ffffffffffffffffffffffffffffffffffffffff168173ffffffffffffffffffffffffffffffffffffffff1614611ab657611a67600085600080611582565b6001600360008373ffffffffffffffffffffffffffffffffffffffff1673ffffffffffffffffffffffffffffffffffffffff168152602001908152602001600020600082825403925050819055505b600073ffffffffffffffffffffffffffffffffffffffff168573ffffffffffffffffffffffffffffffffffffffff1614611b39576001600360008773ffffffffffffffffffffffffffffffffffffffff1673ffffffffffffffffffffffffffffffffffffffff168152602001908152602001600020600082825401925050819055505b846002600086815260200190815260200160002060006101000a81548173ffffffffffffffffffffffffffffffffffffffff021916908373ffffffffffffffffffffffffffffffffffffffff160217905550838573ffffffffffffffffffffffffffffffffffffffff168273ffffffffffffffffffffffffffffffffffffffff167fddf252ad1be2c89b69c2b068fc378daa952ba7f163c4a11628f55a4df523b3ef60405160405180910390a4809150509392505050565b600980549050600a600083815260200190815260200160002081905550600981908060018154018082558091505060019003906000526020600020016000909190919091505550565b6000611c45836108fa565b90506000600860008481526020019081526020016000205490506000600760008673ffffffffffffffffffffffffffffffffffffffff1673ffffffffffffffffffffffffffffffffffffffff1681526020019081526020016000209050828214611cf15760008160008581526020019081526020016000205490508082600085815260200190815260200160002081905550826008600083815260200190815260200160002081905550505b6008600085815260200190815260200160002060009055806000848152602001908152602001600020600090555050505050565b60006001600980549050611d399190612ff8565b90506000600a6000848152602001908152602001600020549050600060098381548110611d6957611d68612a0c565b5b906000526020600020015490508060098381548110611d8b57611d8a612a0c565b5b906000526020600020018190555081600a600083815260200190815260200160002081905550600a6000858152602001908152602001600020600090556009805480611dda57611dd961302c565b5b6001900381819060005260206000200160009055905550505050565b60006001611e03846108fa565b611e0d9190612ff8565b905081600760008573ffffffffffffffffffffffffffffffffffffffff1673ffffffffffffffffffffffffffffffffffffffff168152602001908152602001600020600083815260200190815260200160002081905550806008600084815260200190815260200160002081905550505050565b600080600090507a184f03e93ff9f4daa797ed6e38ed64bf6a1f0100000000000000008310611edf577a184f03e93ff9f4daa797ed6e38ed64bf6a1f0100000000000000008381611ed557611ed4612f9a565b5b0492506040810190505b6d04ee2d6d415b85acef81000000008310611f1c576d04ee2d6d415b85acef81000000008381611f1257611f11612f9a565b5b0492506020810190505b662386f26fc100008310611f4b57662386f26fc100008381611f4157611f40612f9a565b5b0492506010810190505b6305f5e1008310611f74576305f5e1008381611f6a57611f69612f9a565b5b0492506008810190505b6127108310611f99576127108381611f8f57611f8e612f9a565b5b0492506004810190505b60648310611fbc5760648381611fb257611fb1612f9a565b5b0492506002810190505b600a8310611fcb576001810190505b80915050919050565b600073ffffffffffffffffffffffffffffffffffffffff168273ffffffffffffffffffffffffffffffffffffffff16036120465760006040517f64a0ae9200000000000000000000000000000000000000000000000000000000815260040161203d9190612477565b60405180910390fd5b600061205483836000610f96565b9050600073ffffffffffffffffffffffffffffffffffffffff168173ffffffffffffffffffffffffffffffffffffffff16146120c85760006040517f73c6ac6e0000000000000000000000000000000000000000000000000000000081526004016120bf9190612477565b60405180910390fd5b505050565b6120d8838383612191565b61218c57600073ffffffffffffffffffffffffffffffffffffffff168373ffffffffffffffffffffffffffffffffffffffff160361214d57806040517f7e273289000000000000000000000000000000000000000000000000000000008152600401612144919061250d565b60405180910390fd5b81816040517f177e802f0000000000000000000000000000000000000000000000000000000081526004016121839291906129e3565b60405180910390fd5b505050565b60008073ffffffffffffffffffffffffffffffffffffffff168373ffffffffffffffffffffffffffffffffffffffff161415801561224957508273ffffffffffffffffffffffffffffffffffffffff168473ffffffffffffffffffffffffffffffffffffffff16148061220a57506122098484610c2b565b5b8061224857508273ffffffffffffffffffffffffffffffffffffffff1661223083610f02565b73ffffffffffffffffffffffffffffffffffffffff16145b5b90509392505050565b6000604051905090565b600080fd5b600080fd5b60007fffffffff0000000000000000000000000000000000000000000000000000000082169050919050565b61229b81612266565b81146122a657600080fd5b50565b6000813590506122b881612292565b92915050565b6000602082840312156122d4576122d361225c565b5b60006122e2848285016122a9565b91505092915050565b60008115159050919050565b612300816122eb565b82525050565b600060208201905061231b60008301846122f7565b92915050565b600081519050919050565b600082825260208201905092915050565b60005b8381101561235b578082015181840152602081019050612340565b60008484015250505050565b6000601f19601f8301169050919050565b600061238382612321565b61238d818561232c565b935061239d81856020860161233d565b6123a681612367565b840191505092915050565b600060208201905081810360008301526123cb8184612378565b905092915050565b6000819050919050565b6123e6816123d3565b81146123f157600080fd5b50565b600081359050612403816123dd565b92915050565b60006020828403121561241f5761241e61225c565b5b600061242d848285016123f4565b91505092915050565b600073ffffffffffffffffffffffffffffffffffffffff82169050919050565b600061246182612436565b9050919050565b61247181612456565b82525050565b600060208201905061248c6000830184612468565b92915050565b61249b81612456565b81146124a657600080fd5b50565b6000813590506124b881612492565b92915050565b600080604083850312156124d5576124d461225c565b5b60006124e3858286016124a9565b92505060206124f4858286016123f4565b9150509250929050565b612507816123d3565b82525050565b600060208201905061252260008301846124fe565b92915050565b6000806000606084860312156125415761254061225c565b5b600061254f868287016124a9565b9350506020612560868287016124a9565b9250506040612571868287016123f4565b9150509250925092565b6000602082840312156125915761259061225c565b5b600061259f848285016124a9565b91505092915050565b6125b1816122eb565b81146125bc57600080fd5b50565b6000813590506125ce816125a8565b92915050565b600080604083850312156125eb576125ea61225c565b5b60006125f9858286016124a9565b925050602061260a858286016125bf565b9150509250929050565b600080fd5b600080fd5b7f4e487b7100000000000000000000000000000000000000000000000000000000600052604160045260246000fd5b61265682612367565b810181811067ffffffffffffffff821117156126755761267461261e565b5b80604052505050565b6000612688612252565b9050612694828261264d565b919050565b600067ffffffffffffffff8211156126b4576126b361261e565b5b6126bd82612367565b9050602081019050919050565b82818337600083830152505050565b60006126ec6126e784612699565b61267e565b90508281526020810184848401111561270857612707612619565b5b6127138482856126ca565b509392505050565b600082601f8301126127305761272f612614565b5b81356127408482602086016126d9565b91505092915050565b600080600080608085870312156127635761276261225c565b5b6000612771878288016124a9565b9450506020612782878288016124a9565b9350506040612793878288016123f4565b925050606085013567ffffffffffffffff8111156127b4576127b3612261565b5b6127c08782880161271b565b91505092959194509250565b600080fd5b600080fd5b60008083601f8401126127ec576127eb612614565b5b8235905067ffffffffffffffff811115612809576128086127cc565b5b602083019150836001820283011115612825576128246127d1565b5b9250929050565b600080600080606085870312156128465761284561225c565b5b6000612854878288016124a9565b9450506020612865878288016123f4565b935050604085013567ffffffffffffffff81111561288657612885612261565b5b612892878288016127d6565b925092505092959194509250565b600080604083850312156128b7576128b661225c565b5b60006128c5858286016124a9565b92505060206128d6858286016124a9565b9150509250929050565b7f4e487b7100000000000000000000000000000000000000000000000000000000600052602260045260246000fd5b6000600282049050600182168061292757607f821691505b60208210810361293a576129396128e0565b5b50919050565b7f546f6b656e20646f6573206e6f74206578697374000000000000000000000000600082015250565b600061297660148361232c565b915061298182612940565b602082019050919050565b600060208201905081810360008301526129a581612969565b9050919050565b60006060820190506129c16000830186612468565b6129ce60208301856124fe565b6129db6040830184612468565b949350505050565b60006040820190506129f86000830185612468565b612a0560208301846124fe565b9392505050565b7f4e487b7100000000000000000000000000000000000000000000000000000000600052603260045260246000fd5b7f4e6f7420617574686f72697a6564000000000000000000000000000000000000600082015250565b6000612a71600e8361232c565b9150612a7c82612a3b565b602082019050919050565b60006020820190508181036000830152612aa081612a64565b9050919050565b7f496e76616c696420696e736372697074696f6e20494400000000000000000000600082015250565b6000612add60168361232c565b9150612ae882612aa7565b602082019050919050565b60006020820190508181036000830152612b0c81612ad0565b9050919050565b600082905092915050565b60008190508160005260206000209050919050565b60006020601f8301049050919050565b600082821b905092915050565b600060088302612b807fffffffffffffffffffffffffffffffffffffffffffffffffffffffffffffffff82612b43565b612b8a8683612b43565b95508019841693508086168417925050509392505050565b6000819050919050565b6000612bc7612bc2612bbd846123d3565b612ba2565b6123d3565b9050919050565b6000819050919050565b612be183612bac565b612bf5612bed82612bce565b848454612b50565b825550505050565b600090565b612c0a612bfd565b612c15818484612bd8565b505050565b5b81811015612c3957612c2e600082612c02565b600181019050612c1b565b5050565b601f821115612c7e57612c4f81612b1e565b612c5884612b33565b81016020851015612c67578190505b612c7b612c7385612b33565b830182612c1a565b50505b505050565b600082821c905092915050565b6000612ca160001984600802612c83565b1980831691505092915050565b6000612cba8383612c90565b9150826002028217905092915050565b612cd48383612b13565b67ffffffffffffffff811115612ced57612cec61261e565b5b612cf7825461290f565b612d02828285612c3d565b6000601f831160018114612d315760008415612d1f578287013590505b612d298582612cae565b865550612d91565b601f198416612d3f86612b1e565b60005b82811015612d6757848901358255600182019150602085019450602081019050612d42565b86831015612d845784890135612d80601f891682612c90565b8355505b6001600288020188555050505b50505050505050565b6000612da6838561232c565b9350612db38385846126ca565b612dbc83612367565b840190509392505050565b60006020820190508181036000830152612de2818486612d9a565b90509392505050565b7f496e76616c6964206d696e746572206164647265737300000000000000000000600082015250565b6000612e2160168361232c565b9150612e2c82612deb565b602082019050919050565b60006020820190508181036000830152612e5081612e14565b9050919050565b600081519050919050565b600082825260208201905092915050565b6000612e7e82612e57565b612e888185612e62565b9350612e9881856020860161233d565b612ea181612367565b840191505092915050565b6000608082019050612ec16000830187612468565b612ece6020830186612468565b612edb60408301856124fe565b8181036060830152612eed8184612e73565b905095945050505050565b600081519050612f0781612292565b92915050565b600060208284031215612f2357612f2261225c565b5b6000612f3184828501612ef8565b91505092915050565b600081905092915050565b6000612f5082612321565b612f5a8185612f3a565b9350612f6a81856020860161233d565b80840191505092915050565b6000612f828285612f45565b9150612f8e8284612f45565b91508190509392505050565b7f4e487b7100000000000000000000000000000000000000000000000000000000600052601260045260246000fd5b7f4e487b7100000000000000000000000000000000000000000000000000000000600052601160045260246000fd5b6000613003826123d3565b915061300e836123d3565b925082820390508181111561302657613025612fc9565b5b92915050565b7f4e487b7100000000000000000000000000000000000000000000000000000000600052603160045260246000fdfea2646970667358221220e001e2eda8c5e39ab572a724fccfb5e0ecbe1f32158966fd28d1eba6436948a464736f6c634300081b0033",
  "linkReferences": {},
  "deployedLinkReferences": {}
}