{
  "_format": "hh-sol-artifact-1",
  "contractName": "NFTFactory",
  "sourceName": "src/blockchain/evm/contracts/NFTFactory.sol",
  "abi": [
    {
      "anonymous": false,
      "inputs": [
        {
          "indexed": true,
          "internalType": "address",
          "name": "nftBase",
          "type": "address"
        },
        {
          "indexed": true,
          "internalType": "address",
          "name": "phaseManager",
          "type": "address"
        },
        {
          "indexed": true,
          "internalType": "address",
          "name": "mainContract",
          "type": "address"
        },
        {
          "indexed": false,
          "internalType": "address",
          "name": "feeManager",
          "type": "address"
        },
        {
          "indexed": false,
          "internalType": "address",
          "name": "signatureVerifier",
          "type": "address"
        },
        {
          "indexed": false,
          "internalType": "address",
          "name": "whitelistVerifier",
          "type": "address"
        }
      ],
      "name": "NFTDeployed",
      "type": "event"
    },
    {
      "inputs": [
        {
          "internalType": "string",
          "name": "name",
          "type": "string"
        },
        {
          "internalType": "string",
          "name": "symbol",
          "type": "string"
        },
        {
          "internalType": "uint96",
          "name": "royaltyFee",
          "type": "uint96"
        },
        {
          "internalType": "uint96",
          "name": "platformFee",
          "type": "uint96"
        },
        {
          "internalType": "address",
          "name": "platformFeeRecipient",
          "type": "address"
        },
        {
          "internalType": "address",
          "name": "backendSigner",
          "type": "address"
        }
      ],
      "name": "deployNFT",
      "outputs": [
        {
          "internalType": "address",
          "name": "",
          "type": "address"
        }
      ],
      "stateMutability": "nonpayable",
      "type": "function"
    }
  ],
  "bytecode": "0x6080604052348015600f57600080fd5b5061b3f38061001f6000396000f3fe608060405234801561001057600080fd5b506004361061002b5760003560e01c806311e46bbd14610030575b600080fd5b61004a60048036038101906100459190610506565b610060565b60405161005791906105da565b60405180910390f35b60008033888888604051610073906102bc565b6100809493929190610683565b604051809103906000f08015801561009c573d6000803e3d6000fd5b5090506000336040516100ae906102c9565b6100b891906105da565b604051809103906000f0801580156100d4573d6000803e3d6000fd5b5090506000338888886040516100e9906102d6565b6100f694939291906106d6565b604051809103906000f080158015610112573d6000803e3d6000fd5b50905060003386604051610125906102e3565b61013092919061071b565b604051809103906000f08015801561014c573d6000803e3d6000fd5b509050600060405161015d906102f0565b604051809103906000f080158015610179573d6000803e3d6000fd5b5090506000338686868686604051610190906102fd565b61019f96959493929190610744565b604051809103906000f0801580156101bb573d6000803e3d6000fd5b5090508573ffffffffffffffffffffffffffffffffffffffff1663f2fde38b826040518263ffffffff1660e01b81526004016101f791906105da565b600060405180830381600087803b15801561021157600080fd5b505af1158015610225573d6000803e3d6000fd5b505050508073ffffffffffffffffffffffffffffffffffffffff168573ffffffffffffffffffffffffffffffffffffffff168773ffffffffffffffffffffffffffffffffffffffff167fc3650fee6ec2a30533743935f7dfa4f770c23747c1035d1f66e4f050226c23138787876040516102a1939291906107a5565b60405180910390a48096505050505050509695505050505050565b613da5806107dd83390190565b611b2c8061458283390190565b6111be806160ae83390190565b61219a8061726c83390190565b61041b8061940683390190565b611b9d8061982183390190565b6000604051905090565b600080fd5b600080fd5b600080fd5b600080fd5b6000601f19601f8301169050919050565b7f4e487b7100000000000000000000000000000000000000000000000000000000600052604160045260246000fd5b61037182610328565b810181811067ffffffffffffffff821117156103905761038f610339565b5b80604052505050565b60006103a361030a565b90506103af8282610368565b919050565b600067ffffffffffffffff8211156103cf576103ce610339565b5b6103d882610328565b9050602081019050919050565b82818337600083830152505050565b6000610407610402846103b4565b610399565b90508281526020810184848401111561042357610422610323565b5b61042e8482856103e5565b509392505050565b600082601f83011261044b5761044a61031e565b5b813561045b8482602086016103f4565b91505092915050565b60006bffffffffffffffffffffffff82169050919050565b61048581610464565b811461049057600080fd5b50565b6000813590506104a28161047c565b92915050565b600073ffffffffffffffffffffffffffffffffffffffff82169050919050565b60006104d3826104a8565b9050919050565b6104e3816104c8565b81146104ee57600080fd5b50565b600081359050610500816104da565b92915050565b60008060008060008060c0878903121561052357610522610314565b5b600087013567ffffffffffffffff81111561054157610540610319565b5b61054d89828a01610436565b965050602087013567ffffffffffffffff81111561056e5761056d610319565b5b61057a89828a01610436565b955050604061058b89828a01610493565b945050606061059c89828a01610493565b93505060806105ad89828a016104f1565b92505060a06105be89828a016104f1565b9150509295509295509295565b6105d4816104c8565b82525050565b60006020820190506105ef60008301846105cb565b92915050565b600081519050919050565b600082825260208201905092915050565b60005b8381101561062f578082015181840152602081019050610614565b60008484015250505050565b6000610646826105f5565b6106508185610600565b9350610660818560208601610611565b61066981610328565b840191505092915050565b61067d81610464565b82525050565b600060808201905061069860008301876105cb565b81810360208301526106aa818661063b565b905081810360408301526106be818561063b565b90506106cd6060830184610674565b95945050505050565b60006080820190506106eb60008301876105cb565b6106f86020830186610674565b6107056040830185610674565b61071260608301846105cb565b95945050505050565b600060408201905061073060008301856105cb565b61073d60208301846105cb565b9392505050565b600060c08201905061075960008301896105cb565b61076660208301886105cb565b61077360408301876105cb565b61078060608301866105cb565b61078d60808301856105cb565b61079a60a08301846105cb565b979650505050505050565b60006060820190506107ba60008301866105cb565b6107c760208301856105cb565b6107d460408301846105cb565b94935050505056fe608060405234801561001057600080fd5b50604051613da5380380613da583398181016040528101906100329190610581565b83838381600090816100449190610841565b5080600190816100549190610841565b505050600073ffffffffffffffffffffffffffffffffffffffff168173ffffffffffffffffffffffffffffffffffffffff16036100c95760006040517f1e4fbdf70000000000000000000000000000000000000000000000000000000081526004016100c09190610922565b60405180910390fd5b6100d8816100f260201b60201c565b506100e984826101b860201b60201c565b505050506109a6565b6000600d60009054906101000a900473ffffffffffffffffffffffffffffffffffffffff16905081600d60006101000a81548173ffffffffffffffffffffffffffffffffffffffff021916908373ffffffffffffffffffffffffffffffffffffffff1602179055508173ffffffffffffffffffffffffffffffffffffffff168173ffffffffffffffffffffffffffffffffffffffff167f8be0079c531659141344cd1fd0a4f28419497f9722a3daafe3b4186f6b6457e060405160405180910390a35050565b60006101c861036060201b60201c565b6bffffffffffffffffffffffff16905080826bffffffffffffffffffffffff16111561022d5781816040517f6f483d0900000000000000000000000000000000000000000000000000000000815260040161022492919061097d565b60405180910390fd5b600073ffffffffffffffffffffffffffffffffffffffff168373ffffffffffffffffffffffffffffffffffffffff160361029f5760006040517fb6d9900a0000000000000000000000000000000000000000000000000000000081526004016102969190610922565b60405180910390fd5b60405180604001604052808473ffffffffffffffffffffffffffffffffffffffff168152602001836bffffffffffffffffffffffff16815250600b60008201518160000160006101000a81548173ffffffffffffffffffffffffffffffffffffffff021916908373ffffffffffffffffffffffffffffffffffffffff16021790555060208201518160000160146101000a8154816bffffffffffffffffffffffff02191690836bffffffffffffffffffffffff160217905550905050505050565b6000612710905090565b6000604051905090565b600080fd5b600080fd5b600073ffffffffffffffffffffffffffffffffffffffff82169050919050565b60006103a98261037e565b9050919050565b6103b98161039e565b81146103c457600080fd5b50565b6000815190506103d6816103b0565b92915050565b600080fd5b600080fd5b6000601f19601f8301169050919050565b7f4e487b7100000000000000000000000000000000000000000000000000000000600052604160045260246000fd5b61042f826103e6565b810181811067ffffffffffffffff8211171561044e5761044d6103f7565b5b80604052505050565b600061046161036a565b905061046d8282610426565b919050565b600067ffffffffffffffff82111561048d5761048c6103f7565b5b610496826103e6565b9050602081019050919050565b60005b838110156104c15780820151818401526020810190506104a6565b60008484015250505050565b60006104e06104db84610472565b610457565b9050828152602081018484840111156104fc576104fb6103e1565b5b6105078482856104a3565b509392505050565b600082601f830112610524576105236103dc565b5b81516105348482602086016104cd565b91505092915050565b60006bffffffffffffffffffffffff82169050919050565b61055e8161053d565b811461056957600080fd5b50565b60008151905061057b81610555565b92915050565b6000806000806080858703121561059b5761059a610374565b5b60006105a9878288016103c7565b945050602085015167ffffffffffffffff8111156105ca576105c9610379565b5b6105d68782880161050f565b935050604085015167ffffffffffffffff8111156105f7576105f6610379565b5b6106038782880161050f565b92505060606106148782880161056c565b91505092959194509250565b600081519050919050565b7f4e487b7100000000000000000000000000000000000000000000000000000000600052602260045260246000fd5b6000600282049050600182168061067257607f821691505b6020821081036106855761068461062b565b5b50919050565b60008190508160005260206000209050919050565b60006020601f8301049050919050565b600082821b905092915050565b6000600883026106ed7fffffffffffffffffffffffffffffffffffffffffffffffffffffffffffffffff826106b0565b6106f786836106b0565b95508019841693508086168417925050509392505050565b6000819050919050565b6000819050919050565b600061073e6107396107348461070f565b610719565b61070f565b9050919050565b6000819050919050565b61075883610723565b61076c61076482610745565b8484546106bd565b825550505050565b600090565b610781610774565b61078c81848461074f565b505050565b5b818110156107b0576107a5600082610779565b600181019050610792565b5050565b601f8211156107f5576107c68161068b565b6107cf846106a0565b810160208510156107de578190505b6107f26107ea856106a0565b830182610791565b50505b505050565b600082821c905092915050565b6000610818600019846008026107fa565b1980831691505092915050565b60006108318383610807565b9150826002028217905092915050565b61084a82610620565b67ffffffffffffffff811115610863576108626103f7565b5b61086d825461065a565b6108788282856107b4565b600060209050601f8311600181146108ab5760008415610899578287015190505b6108a38582610825565b86555061090b565b601f1984166108b98661068b565b60005b828110156108e1578489015182556001820191506020850194506020810190506108bc565b868310156108fe57848901516108fa601f891682610807565b8355505b6001600288020188555050505b505050505050565b61091c8161039e565b82525050565b60006020820190506109376000830184610913565b92915050565b600061095861095361094e8461053d565b610719565b61070f565b9050919050565b6109688161093d565b82525050565b6109778161070f565b82525050565b6000604082019050610992600083018561095f565b61099f602083018461096e565b9392505050565b6133f0806109b56000396000f3fe608060405234801561001057600080fd5b50600436106101425760003560e01c806370a08231116100b8578063a22cb4651161007c578063a22cb4651461039e578063b88d4fde146103ba578063c87b56dd146103d6578063e985e9c514610406578063f2fde38b14610436578063f76e8ba91461045257610142565b806370a08231146102f8578063715018a6146103285780638462151c146103325780638da5cb5b1461036257806395d89b411461038057610142565b806323b872dd1161010a57806323b872dd146101ff5780632a55205a1461021b5780632f745c591461024c57806342842e0e1461027c5780634f6ccce7146102985780636352211e146102c857610142565b806301ffc9a71461014757806306fdde0314610177578063081812fc14610195578063095ea7b3146101c557806318160ddd146101e1575b600080fd5b610161600480360381019061015c9190612628565b61046e565b60405161016e9190612670565b60405180910390f35b61017f610480565b60405161018c919061271b565b60405180910390f35b6101af60048036038101906101aa9190612773565b610512565b6040516101bc91906127e1565b60405180910390f35b6101df60048036038101906101da9190612828565b61052e565b005b6101e9610544565b6040516101f69190612877565b60405180910390f35b61021960048036038101906102149190612892565b610551565b005b610235600480360381019061023091906128e5565b610653565b604051610243929190612925565b60405180910390f35b61026660048036038101906102619190612828565b610783565b6040516102739190612877565b60405180910390f35b61029660048036038101906102919190612892565b61082c565b005b6102b260048036038101906102ad9190612773565b61084c565b6040516102bf9190612877565b60405180910390f35b6102e260048036038101906102dd9190612773565b6108c2565b6040516102ef91906127e1565b60405180910390f35b610312600480360381019061030d919061294e565b6108d4565b60405161031f9190612877565b60405180910390f35b61033061098e565b005b61034c6004803603810190610347919061294e565b6109a2565b6040516103599190612a39565b60405180910390f35b61036a610a39565b60405161037791906127e1565b60405180910390f35b610388610a63565b604051610395919061271b565b60405180910390f35b6103b860048036038101906103b39190612a87565b610af5565b005b6103d460048036038101906103cf9190612bfc565b610b0b565b005b6103f060048036038101906103eb9190612773565b610b30565b6040516103fd919061271b565b60405180910390f35b610420600480360381019061041b9190612c7f565b610b42565b60405161042d9190612670565b60405180910390f35b610450600480360381019061044b919061294e565b610bd6565b005b61046c60048036038101906104679190612d1f565b610c5c565b005b600061047982610da2565b9050919050565b60606000805461048f90612dc2565b80601f01602080910402602001604051908101604052809291908181526020018280546104bb90612dc2565b80156105085780601f106104dd57610100808354040283529160200191610508565b820191906000526020600020905b8154815290600101906020018083116104eb57829003601f168201915b5050505050905090565b600061051d82610e1c565b5061052782610ea4565b9050919050565b610540828261053b610ee1565b610ee9565b5050565b6000600880549050905090565b600073ffffffffffffffffffffffffffffffffffffffff168273ffffffffffffffffffffffffffffffffffffffff16036105c35760006040517f64a0ae920000000000000000000000000000000000000000000000000000000081526004016105ba91906127e1565b60405180910390fd5b60006105d783836105d2610ee1565b610efb565b90508373ffffffffffffffffffffffffffffffffffffffff168173ffffffffffffffffffffffffffffffffffffffff161461064d578382826040517f64283d7b00000000000000000000000000000000000000000000000000000000815260040161064493929190612df3565b60405180910390fd5b50505050565b6000806000600c6000868152602001908152602001600020905060008160000160009054906101000a900473ffffffffffffffffffffffffffffffffffffffff16905060008260000160149054906101000a90046bffffffffffffffffffffffff169050600073ffffffffffffffffffffffffffffffffffffffff168273ffffffffffffffffffffffffffffffffffffffff160361073457600b60000160009054906101000a900473ffffffffffffffffffffffffffffffffffffffff169150600b60000160149054906101000a90046bffffffffffffffffffffffff1690505b600061073e611085565b6bffffffffffffffffffffffff16826bffffffffffffffffffffffff16886107669190612e59565b6107709190612eca565b9050828195509550505050509250929050565b600061078e836108d4565b82106107d35782826040517fa57d13dc0000000000000000000000000000000000000000000000000000000081526004016107ca929190612925565b60405180910390fd5b600660008473ffffffffffffffffffffffffffffffffffffffff1673ffffffffffffffffffffffffffffffffffffffff168152602001908152602001600020600083815260200190815260200160002054905092915050565b61084783838360405180602001604052806000815250610b0b565b505050565b6000610856610544565b821061089c576000826040517fa57d13dc000000000000000000000000000000000000000000000000000000008152600401610893929190612925565b60405180910390fd5b600882815481106108b0576108af612efb565b5b90600052602060002001549050919050565b60006108cd82610e1c565b9050919050565b60008073ffffffffffffffffffffffffffffffffffffffff168273ffffffffffffffffffffffffffffffffffffffff16036109475760006040517f89c62b6400000000000000000000000000000000000000000000000000000000815260040161093e91906127e1565b60405180910390fd5b600360008373ffffffffffffffffffffffffffffffffffffffff1673ffffffffffffffffffffffffffffffffffffffff168152602001908152602001600020549050919050565b61099661108f565b6109a06000611116565b565b6060600e60008373ffffffffffffffffffffffffffffffffffffffff1673ffffffffffffffffffffffffffffffffffffffff168152602001908152602001600020805480602002602001604051908101604052809291908181526020018280548015610a2d57602002820191906000526020600020905b815481526020019060010190808311610a19575b50505050509050919050565b6000600d60009054906101000a900473ffffffffffffffffffffffffffffffffffffffff16905090565b606060018054610a7290612dc2565b80601f0160208091040260200160405190810160405280929190818152602001828054610a9e90612dc2565b8015610aeb5780601f10610ac057610100808354040283529160200191610aeb565b820191906000526020600020905b815481529060010190602001808311610ace57829003601f168201915b5050505050905090565b610b07610b00610ee1565b83836111dc565b5050565b610b16848484610551565b610b2a610b21610ee1565b8585858561134b565b50505050565b6060610b3b826114fc565b9050919050565b6000600560008473ffffffffffffffffffffffffffffffffffffffff1673ffffffffffffffffffffffffffffffffffffffff16815260200190815260200160002060008373ffffffffffffffffffffffffffffffffffffffff1673ffffffffffffffffffffffffffffffffffffffff16815260200190815260200160002060009054906101000a900460ff16905092915050565b610bde61108f565b600073ffffffffffffffffffffffffffffffffffffffff168173ffffffffffffffffffffffffffffffffffffffff1603610c505760006040517f1e4fbdf7000000000000000000000000000000000000000000000000000000008152600401610c4791906127e1565b60405180910390fd5b610c5981611116565b50565b610c64610a39565b73ffffffffffffffffffffffffffffffffffffffff163373ffffffffffffffffffffffffffffffffffffffff1614610cd1576040517f08c379a0000000000000000000000000000000000000000000000000000000008152600401610cc890612f76565b60405180910390fd5b610cdb848461160f565b6000828290501115610d3657610d358383838080601f016020809104026020016040519081016040528093929190818152602001838380828437600081840152601f19601f8201169050808301925050505050505061162d565b5b600e60008573ffffffffffffffffffffffffffffffffffffffff1673ffffffffffffffffffffffffffffffffffffffff16815260200190815260200160002083908060018154018082558091505060019003906000526020600020016000909190919091505550505050565b60007f2a55205a000000000000000000000000000000000000000000000000000000007bffffffffffffffffffffffffffffffffffffffffffffffffffffffff1916827bffffffffffffffffffffffffffffffffffffffffffffffffffffffff19161480610e155750610e1482611689565b5b9050919050565b600080610e28836116ea565b9050600073ffffffffffffffffffffffffffffffffffffffff168173ffffffffffffffffffffffffffffffffffffffff1603610e9b57826040517f7e273289000000000000000000000000000000000000000000000000000000008152600401610e929190612877565b60405180910390fd5b80915050919050565b60006004600083815260200190815260200160002060009054906101000a900473ffffffffffffffffffffffffffffffffffffffff169050919050565b600033905090565b610ef68383836001611727565b505050565b600080610f098585856118ec565b9050600073ffffffffffffffffffffffffffffffffffffffff168173ffffffffffffffffffffffffffffffffffffffff1614158015610f7457508473ffffffffffffffffffffffffffffffffffffffff168173ffffffffffffffffffffffffffffffffffffffff1614155b1561107a576000600e60008373ffffffffffffffffffffffffffffffffffffffff1673ffffffffffffffffffffffffffffffffffffffff168152602001908152602001600020905060005b81805490508110156110775785828281548110610fdf57610fde612efb565b5b90600052602060002001540361106a5781600183805490506110019190612f96565b8154811061101257611011612efb565b5b90600052602060002001548282815481106110305761102f612efb565b5b90600052602060002001819055508180548061104f5761104e612fca565b5b60019003818190600052602060002001600090559055611077565b8080600101915050610fbf565b50505b809150509392505050565b6000612710905090565b611097610ee1565b73ffffffffffffffffffffffffffffffffffffffff166110b5610a39565b73ffffffffffffffffffffffffffffffffffffffff1614611114576110d8610ee1565b6040517f118cdaa700000000000000000000000000000000000000000000000000000000815260040161110b91906127e1565b60405180910390fd5b565b6000600d60009054906101000a900473ffffffffffffffffffffffffffffffffffffffff16905081600d60006101000a81548173ffffffffffffffffffffffffffffffffffffffff021916908373ffffffffffffffffffffffffffffffffffffffff1602179055508173ffffffffffffffffffffffffffffffffffffffff168173ffffffffffffffffffffffffffffffffffffffff167f8be0079c531659141344cd1fd0a4f28419497f9722a3daafe3b4186f6b6457e060405160405180910390a35050565b600073ffffffffffffffffffffffffffffffffffffffff168273ffffffffffffffffffffffffffffffffffffffff160361124d57816040517f5b08ba1800000000000000000000000000000000000000000000000000000000815260040161124491906127e1565b60405180910390fd5b80600560008573ffffffffffffffffffffffffffffffffffffffff1673ffffffffffffffffffffffffffffffffffffffff16815260200190815260200160002060008473ffffffffffffffffffffffffffffffffffffffff1673ffffffffffffffffffffffffffffffffffffffff16815260200190815260200160002060006101000a81548160ff0219169083151502179055508173ffffffffffffffffffffffffffffffffffffffff168373ffffffffffffffffffffffffffffffffffffffff167f17307eab39ab6107e8899845ad3d59bd9653f200f220920489ca2b5937696c318360405161133e9190612670565b60405180910390a3505050565b60008373ffffffffffffffffffffffffffffffffffffffff163b11156114f5578273ffffffffffffffffffffffffffffffffffffffff1663150b7a02868685856040518563ffffffff1660e01b81526004016113aa949392919061304e565b6020604051808303816000875af19250505080156113e657506040513d601f19601f820116820180604052508101906113e391906130af565b60015b61146a573d8060008114611416576040519150601f19603f3d011682016040523d82523d6000602084013e61141b565b606091505b50600081510361146257836040517f64a0ae9200000000000000000000000000000000000000000000000000000000815260040161145991906127e1565b60405180910390fd5b805181602001fd5b63150b7a0260e01b7bffffffffffffffffffffffffffffffffffffffffffffffffffffffff1916817bffffffffffffffffffffffffffffffffffffffffffffffffffffffff1916146114f357836040517f64a0ae920000000000000000000000000000000000000000000000000000000081526004016114ea91906127e1565b60405180910390fd5b505b5050505050565b606061150782610e1c565b506000600a6000848152602001908152602001600020805461152890612dc2565b80601f016020809104026020016040519081016040528092919081815260200182805461155490612dc2565b80156115a15780601f10611576576101008083540402835291602001916115a1565b820191906000526020600020905b81548152906001019060200180831161158457829003601f168201915b5050505050905060006115b2611a09565b905060008151036115c757819250505061160a565b6000825111156115fc5780826040516020016115e4929190613118565b6040516020818303038152906040529250505061160a565b61160584611a20565b925050505b919050565b611629828260405180602001604052806000815250611a89565b5050565b80600a6000848152602001908152602001600020908161164d91906132e8565b507ff8e1a15aba9398e019f0b49df1a4fde98ee17ae345cb5f6b5e2c27f5033e8ce78260405161167d9190612877565b60405180910390a15050565b6000634906490660e01b7bffffffffffffffffffffffffffffffffffffffffffffffffffffffff1916827bffffffffffffffffffffffffffffffffffffffffffffffffffffffff191614806116e357506116e282611aad565b5b9050919050565b60006002600083815260200190815260200160002060009054906101000a900473ffffffffffffffffffffffffffffffffffffffff169050919050565b80806117605750600073ffffffffffffffffffffffffffffffffffffffff168273ffffffffffffffffffffffffffffffffffffffff1614155b1561189457600061177084610e1c565b9050600073ffffffffffffffffffffffffffffffffffffffff168373ffffffffffffffffffffffffffffffffffffffff16141580156117db57508273ffffffffffffffffffffffffffffffffffffffff168173ffffffffffffffffffffffffffffffffffffffff1614155b80156117ee57506117ec8184610b42565b155b1561183057826040517fa9fbf51f00000000000000000000000000000000000000000000000000000000815260040161182791906127e1565b60405180910390fd5b811561189257838573ffffffffffffffffffffffffffffffffffffffff168273ffffffffffffffffffffffffffffffffffffffff167f8c5be1e5ebec7d5bd14f71427d1e84f3dd0314c0f7b2291e5b200ac8c7c3b92560405160405180910390a45b505b836004600085815260200190815260200160002060006101000a81548173ffffffffffffffffffffffffffffffffffffffff021916908373ffffffffffffffffffffffffffffffffffffffff16021790555050505050565b6000806118fa858585611b27565b9050600073ffffffffffffffffffffffffffffffffffffffff168173ffffffffffffffffffffffffffffffffffffffff160361193e5761193984611d41565b61197d565b8473ffffffffffffffffffffffffffffffffffffffff168173ffffffffffffffffffffffffffffffffffffffff161461197c5761197b8185611d8a565b5b5b600073ffffffffffffffffffffffffffffffffffffffff168573ffffffffffffffffffffffffffffffffffffffff16036119bf576119ba84611e75565b6119fe565b8473ffffffffffffffffffffffffffffffffffffffff168173ffffffffffffffffffffffffffffffffffffffff16146119fd576119fc8585611f46565b5b5b809150509392505050565b606060405180602001604052806000815250905090565b6060611a2b82610e1c565b506000611a36611a09565b90506000815111611a565760405180602001604052806000815250611a81565b80611a6084611fd1565b604051602001611a71929190613118565b6040516020818303038152906040525b915050919050565b611a93838361209f565b611aa8611a9e610ee1565b600085858561134b565b505050565b60007f780e9d63000000000000000000000000000000000000000000000000000000007bffffffffffffffffffffffffffffffffffffffffffffffffffffffff1916827bffffffffffffffffffffffffffffffffffffffffffffffffffffffff19161480611b205750611b1f82612198565b5b9050919050565b600080611b33846116ea565b9050600073ffffffffffffffffffffffffffffffffffffffff168373ffffffffffffffffffffffffffffffffffffffff1614611b7557611b7481848661227a565b5b600073ffffffffffffffffffffffffffffffffffffffff168173ffffffffffffffffffffffffffffffffffffffff1614611c0657611bb7600085600080611727565b6001600360008373ffffffffffffffffffffffffffffffffffffffff1673ffffffffffffffffffffffffffffffffffffffff168152602001908152602001600020600082825403925050819055505b600073ffffffffffffffffffffffffffffffffffffffff168573ffffffffffffffffffffffffffffffffffffffff1614611c89576001600360008773ffffffffffffffffffffffffffffffffffffffff1673ffffffffffffffffffffffffffffffffffffffff168152602001908152602001600020600082825401925050819055505b846002600086815260200190815260200160002060006101000a81548173ffffffffffffffffffffffffffffffffffffffff021916908373ffffffffffffffffffffffffffffffffffffffff160217905550838573ffffffffffffffffffffffffffffffffffffffff168273ffffffffffffffffffffffffffffffffffffffff167fddf252ad1be2c89b69c2b068fc378daa952ba7f163c4a11628f55a4df523b3ef60405160405180910390a4809150509392505050565b6008805490506009600083815260200190815260200160002081905550600881908060018154018082558091505060019003906000526020600020016000909190919091505550565b6000611d95836108d4565b90506000600760008481526020019081526020016000205490506000600660008673ffffffffffffffffffffffffffffffffffffffff1673ffffffffffffffffffffffffffffffffffffffff1681526020019081526020016000209050828214611e415760008160008581526020019081526020016000205490508082600085815260200190815260200160002081905550826007600083815260200190815260200160002081905550505b6007600085815260200190815260200160002060009055806000848152602001908152602001600020600090555050505050565b60006001600880549050611e899190612f96565b9050600060096000848152602001908152602001600020549050600060088381548110611eb957611eb8612efb565b5b906000526020600020015490508060088381548110611edb57611eda612efb565b5b906000526020600020018190555081600960008381526020019081526020016000208190555060096000858152602001908152602001600020600090556008805480611f2a57611f29612fca565b5b6001900381819060005260206000200160009055905550505050565b60006001611f53846108d4565b611f5d9190612f96565b905081600660008573ffffffffffffffffffffffffffffffffffffffff1673ffffffffffffffffffffffffffffffffffffffff168152602001908152602001600020600083815260200190815260200160002081905550806007600084815260200190815260200160002081905550505050565b606060006001611fe08461233e565b01905060008167ffffffffffffffff811115611fff57611ffe612ad1565b5b6040519080825280601f01601f1916602001820160405280156120315781602001600182028036833780820191505090505b509050600082602001820190505b600115612094578080600190039150507f3031323334353637383961626364656600000000000000000000000000000000600a86061a8153600a858161208857612087612e9b565b5b0494506000850361203f575b819350505050919050565b600073ffffffffffffffffffffffffffffffffffffffff168273ffffffffffffffffffffffffffffffffffffffff16036121115760006040517f64a0ae9200000000000000000000000000000000000000000000000000000000815260040161210891906127e1565b60405180910390fd5b600061211f83836000610efb565b9050600073ffffffffffffffffffffffffffffffffffffffff168173ffffffffffffffffffffffffffffffffffffffff16146121935760006040517f73c6ac6e00000000000000000000000000000000000000000000000000000000815260040161218a91906127e1565b60405180910390fd5b505050565b60007f80ac58cd000000000000000000000000000000000000000000000000000000007bffffffffffffffffffffffffffffffffffffffffffffffffffffffff1916827bffffffffffffffffffffffffffffffffffffffffffffffffffffffff1916148061226357507f5b5e139f000000000000000000000000000000000000000000000000000000007bffffffffffffffffffffffffffffffffffffffffffffffffffffffff1916827bffffffffffffffffffffffffffffffffffffffffffffffffffffffff1916145b80612273575061227282612491565b5b9050919050565b6122858383836124fb565b61233957600073ffffffffffffffffffffffffffffffffffffffff168373ffffffffffffffffffffffffffffffffffffffff16036122fa57806040517f7e2732890000000000000000000000000000000000000000000000000000000081526004016122f19190612877565b60405180910390fd5b81816040517f177e802f000000000000000000000000000000000000000000000000000000008152600401612330929190612925565b60405180910390fd5b505050565b600080600090507a184f03e93ff9f4daa797ed6e38ed64bf6a1f010000000000000000831061239c577a184f03e93ff9f4daa797ed6e38ed64bf6a1f010000000000000000838161239257612391612e9b565b5b0492506040810190505b6d04ee2d6d415b85acef810000000083106123d9576d04ee2d6d415b85acef810000000083816123cf576123ce612e9b565b5b0492506020810190505b662386f26fc10000831061240857662386f26fc1000083816123fe576123fd612e9b565b5b0492506010810190505b6305f5e1008310612431576305f5e100838161242757612426612e9b565b5b0492506008810190505b612710831061245657612710838161244c5761244b612e9b565b5b0492506004810190505b60648310612479576064838161246f5761246e612e9b565b5b0492506002810190505b600a8310612488576001810190505b80915050919050565b60007f01ffc9a7000000000000000000000000000000000000000000000000000000007bffffffffffffffffffffffffffffffffffffffffffffffffffffffff1916827bffffffffffffffffffffffffffffffffffffffffffffffffffffffff1916149050919050565b60008073ffffffffffffffffffffffffffffffffffffffff168373ffffffffffffffffffffffffffffffffffffffff16141580156125b357508273ffffffffffffffffffffffffffffffffffffffff168473ffffffffffffffffffffffffffffffffffffffff16148061257457506125738484610b42565b5b806125b257508273ffffffffffffffffffffffffffffffffffffffff1661259a83610ea4565b73ffffffffffffffffffffffffffffffffffffffff16145b5b90509392505050565b6000604051905090565b600080fd5b600080fd5b60007fffffffff0000000000000000000000000000000000000000000000000000000082169050919050565b612605816125d0565b811461261057600080fd5b50565b600081359050612622816125fc565b92915050565b60006020828403121561263e5761263d6125c6565b5b600061264c84828501612613565b91505092915050565b60008115159050919050565b61266a81612655565b82525050565b60006020820190506126856000830184612661565b92915050565b600081519050919050565b600082825260208201905092915050565b60005b838110156126c55780820151818401526020810190506126aa565b60008484015250505050565b6000601f19601f8301169050919050565b60006126ed8261268b565b6126f78185612696565b93506127078185602086016126a7565b612710816126d1565b840191505092915050565b6000602082019050818103600083015261273581846126e2565b905092915050565b6000819050919050565b6127508161273d565b811461275b57600080fd5b50565b60008135905061276d81612747565b92915050565b600060208284031215612789576127886125c6565b5b60006127978482850161275e565b91505092915050565b600073ffffffffffffffffffffffffffffffffffffffff82169050919050565b60006127cb826127a0565b9050919050565b6127db816127c0565b82525050565b60006020820190506127f660008301846127d2565b92915050565b612805816127c0565b811461281057600080fd5b50565b600081359050612822816127fc565b92915050565b6000806040838503121561283f5761283e6125c6565b5b600061284d85828601612813565b925050602061285e8582860161275e565b9150509250929050565b6128718161273d565b82525050565b600060208201905061288c6000830184612868565b92915050565b6000806000606084860312156128ab576128aa6125c6565b5b60006128b986828701612813565b93505060206128ca86828701612813565b92505060406128db8682870161275e565b9150509250925092565b600080604083850312156128fc576128fb6125c6565b5b600061290a8582860161275e565b925050602061291b8582860161275e565b9150509250929050565b600060408201905061293a60008301856127d2565b6129476020830184612868565b9392505050565b600060208284031215612964576129636125c6565b5b600061297284828501612813565b91505092915050565b600081519050919050565b600082825260208201905092915050565b6000819050602082019050919050565b6129b08161273d565b82525050565b60006129c283836129a7565b60208301905092915050565b6000602082019050919050565b60006129e68261297b565b6129f08185612986565b93506129fb83612997565b8060005b83811015612a2c578151612a1388826129b6565b9750612a1e836129ce565b9250506001810190506129ff565b5085935050505092915050565b60006020820190508181036000830152612a5381846129db565b905092915050565b612a6481612655565b8114612a6f57600080fd5b50565b600081359050612a8181612a5b565b92915050565b60008060408385031215612a9e57612a9d6125c6565b5b6000612aac85828601612813565b9250506020612abd85828601612a72565b9150509250929050565b600080fd5b600080fd5b7f4e487b7100000000000000000000000000000000000000000000000000000000600052604160045260246000fd5b612b09826126d1565b810181811067ffffffffffffffff82111715612b2857612b27612ad1565b5b80604052505050565b6000612b3b6125bc565b9050612b478282612b00565b919050565b600067ffffffffffffffff821115612b6757612b66612ad1565b5b612b70826126d1565b9050602081019050919050565b82818337600083830152505050565b6000612b9f612b9a84612b4c565b612b31565b905082815260208101848484011115612bbb57612bba612acc565b5b612bc6848285612b7d565b509392505050565b600082601f830112612be357612be2612ac7565b5b8135612bf3848260208601612b8c565b91505092915050565b60008060008060808587031215612c1657612c156125c6565b5b6000612c2487828801612813565b9450506020612c3587828801612813565b9350506040612c468782880161275e565b925050606085013567ffffffffffffffff811115612c6757612c666125cb565b5b612c7387828801612bce565b91505092959194509250565b60008060408385031215612c9657612c956125c6565b5b6000612ca485828601612813565b9250506020612cb585828601612813565b9150509250929050565b600080fd5b600080fd5b60008083601f840112612cdf57612cde612ac7565b5b8235905067ffffffffffffffff811115612cfc57612cfb612cbf565b5b602083019150836001820283011115612d1857612d17612cc4565b5b9250929050565b60008060008060608587031215612d3957612d386125c6565b5b6000612d4787828801612813565b9450506020612d588782880161275e565b935050604085013567ffffffffffffffff811115612d7957612d786125cb565b5b612d8587828801612cc9565b925092505092959194509250565b7f4e487b7100000000000000000000000000000000000000000000000000000000600052602260045260246000fd5b60006002820490506001821680612dda57607f821691505b602082108103612ded57612dec612d93565b5b50919050565b6000606082019050612e0860008301866127d2565b612e156020830185612868565b612e2260408301846127d2565b949350505050565b7f4e487b7100000000000000000000000000000000000000000000000000000000600052601160045260246000fd5b6000612e648261273d565b9150612e6f8361273d565b9250828202612e7d8161273d565b91508282048414831517612e9457612e93612e2a565b5b5092915050565b7f4e487b7100000000000000000000000000000000000000000000000000000000600052601260045260246000fd5b6000612ed58261273d565b9150612ee08361273d565b925082612ef057612eef612e9b565b5b828204905092915050565b7f4e487b7100000000000000000000000000000000000000000000000000000000600052603260045260246000fd5b7f4f6e6c79206f776e65722063616e206d696e7400000000000000000000000000600082015250565b6000612f60601383612696565b9150612f6b82612f2a565b602082019050919050565b60006020820190508181036000830152612f8f81612f53565b9050919050565b6000612fa18261273d565b9150612fac8361273d565b9250828203905081811115612fc457612fc3612e2a565b5b92915050565b7f4e487b7100000000000000000000000000000000000000000000000000000000600052603160045260246000fd5b600081519050919050565b600082825260208201905092915050565b600061302082612ff9565b61302a8185613004565b935061303a8185602086016126a7565b613043816126d1565b840191505092915050565b600060808201905061306360008301876127d2565b61307060208301866127d2565b61307d6040830185612868565b818103606083015261308f8184613015565b905095945050505050565b6000815190506130a9816125fc565b92915050565b6000602082840312156130c5576130c46125c6565b5b60006130d38482850161309a565b91505092915050565b600081905092915050565b60006130f28261268b565b6130fc81856130dc565b935061310c8185602086016126a7565b80840191505092915050565b600061312482856130e7565b915061313082846130e7565b91508190509392505050565b60008190508160005260206000209050919050565b60006020601f8301049050919050565b600082821b905092915050565b60006008830261319e7fffffffffffffffffffffffffffffffffffffffffffffffffffffffffffffffff82613161565b6131a88683613161565b95508019841693508086168417925050509392505050565b6000819050919050565b60006131e56131e06131db8461273d565b6131c0565b61273d565b9050919050565b6000819050919050565b6131ff836131ca565b61321361320b826131ec565b84845461316e565b825550505050565b600090565b61322861321b565b6132338184846131f6565b505050565b5b818110156132575761324c600082613220565b600181019050613239565b5050565b601f82111561329c5761326d8161313c565b61327684613151565b81016020851015613285578190505b61329961329185613151565b830182613238565b50505b505050565b600082821c905092915050565b60006132bf600019846008026132a1565b1980831691505092915050565b60006132d883836132ae565b9150826002028217905092915050565b6132f18261268b565b67ffffffffffffffff81111561330a57613309612ad1565b5b6133148254612dc2565b61331f82828561325b565b600060209050601f8311600181146133525760008415613340578287015190505b61334a85826132cc565b8655506133b2565b601f1984166133608661313c565b60005b8281101561338857848901518255600182019150602085019450602081019050613363565b868310156133a557848901516133a1601f8916826132ae565b8355505b6001600288020188555050505b50505050505056fea2646970667358221220a061212dffe4844c963c0c51824d1a48dfabadbb6e1a44c9be88f8b075b268bc64736f6c634300081b0033608060405234801561001057600080fd5b50604051611b2c380380611b2c833981810160405281019061003291906102db565b80600073ffffffffffffffffffffffffffffffffffffffff168173ffffffffffffffffffffffffffffffffffffffff16036100a55760006040517f1e4fbdf700000000000000000000000000000000000000000000000000000000815260040161009c9190610317565b60405180910390fd5b6100b4816101b460201b60201c565b506001604051806101000160405280600060038111156100d7576100d6610332565b5b81526020016000815260200160008152602001600081526020016000815260200160008152602001600081526020016000801b815250908060018154018082558091505060019003906000526020600020906008020160009091909190915060008201518160000160006101000a81548160ff0219169083600381111561016157610160610332565b5b02179055506020820151816001015560408201518160020155606082015181600301556080820151816004015560a0820151816005015560c0820151816006015560e08201518160070155505050610361565b60008060009054906101000a900473ffffffffffffffffffffffffffffffffffffffff169050816000806101000a81548173ffffffffffffffffffffffffffffffffffffffff021916908373ffffffffffffffffffffffffffffffffffffffff1602179055508173ffffffffffffffffffffffffffffffffffffffff168173ffffffffffffffffffffffffffffffffffffffff167f8be0079c531659141344cd1fd0a4f28419497f9722a3daafe3b4186f6b6457e060405160405180910390a35050565b600080fd5b600073ffffffffffffffffffffffffffffffffffffffff82169050919050565b60006102a88261027d565b9050919050565b6102b88161029d565b81146102c357600080fd5b50565b6000815190506102d5816102af565b92915050565b6000602082840312156102f1576102f0610278565b5b60006102ff848285016102c6565b91505092915050565b6103118161029d565b82525050565b600060208201905061032c6000830184610308565b92915050565b7f4e487b7100000000000000000000000000000000000000000000000000000000600052602160045260246000fd5b6117bc806103706000396000f3fe608060405234801561001057600080fd5b506004361061009e5760003560e01c80638da5cb5b116100665780638da5cb5b1461013d578063db5e00631461015b578063f2fde38b14610179578063f7330c2d14610195578063fc19034b146101c55761009e565b8063072a1319146100a35780631ce97fd1146100c15780632e37eef6146100e05780635703607814610117578063715018a614610133575b600080fd5b6100ab6101f5565b6040516100b89190610e63565b60405180910390f35b6100c96102ef565b6040516100d7929190610fd8565b60405180910390f35b6100fa60048036038101906100f59190611033565b610399565b60405161010e98979695949392919061107e565b60405180910390f35b610131600480360381019061012c919061114d565b6103fe565b005b61013b6107a2565b005b6101456107b6565b6040516101529190611230565b60405180910390f35b6101636107df565b604051610170919061124b565b60405180910390f35b610193600480360381019061018e9190611292565b6107ec565b005b6101af60048036038101906101aa91906112bf565b610872565b6040516101bc919061124b565b60405180910390f35b6101df60048036038101906101da9190611292565b6108f1565b6040516101ec91906112ff565b60405180910390f35b60008042905060005b6001805490508110156102e5576000600381111561021f5761021e610e97565b5b600182815481106102335761023261131a565b5b906000526020600020906008020160000160009054906101000a900460ff16600381111561026457610263610e97565b5b141580156102975750600181815481106102815761028061131a565b5b9060005260206000209060080201600201548210155b80156102c85750600181815481106102b2576102b161131a565b5b9060005260206000209060080201600301548211155b156102d8576001925050506102ec565b80806001019150506101fe565b5060009150505b90565b60006102f9610dee565b610301610b46565b80604051806101000160405290816000820160009054906101000a900460ff16600381111561033357610332610e97565b5b600381111561034557610344610e97565b5b81526020016001820154815260200160028201548152602001600382015481526020016004820154815260200160058201548152602001600682015481526020016007820154815250509050915091509091565b600181815481106103a957600080fd5b90600052602060002090600802016000915090508060000160009054906101000a900460ff16908060010154908060020154908060030154908060040154908060050154908060060154908060070154905088565b610406610c9b565b838510610448576040517f08c379a000000000000000000000000000000000000000000000000000000000815260040161043f906113a6565b60405180910390fd5b6002600381111561045c5761045b610e97565b5b87600381111561046f5761046e610e97565b5b146104fd57600082116104b7576040517f08c379a00000000000000000000000000000000000000000000000000000000081526004016104ae90611438565b60405180910390fd5b6000801b81036104fc576040517f08c379a00000000000000000000000000000000000000000000000000000000081526004016104f3906114ca565b60405180910390fd5b5b60005b60018054905081101561065d576000600182815481106105235761052261131a565b5b9060005260206000209060080201604051806101000160405290816000820160009054906101000a900460ff16600381111561056257610561610e97565b5b600381111561057457610573610e97565b5b81526020016001820154815260200160028201548152602001600382015481526020016004820154815260200160058201548152602001600682015481526020016007820154815250509050600060038111156105d4576105d3610e97565b5b816000015160038111156105eb576105ea610e97565b5b036105f65750610650565b8060600151871115801561060e575080604001518610155b1561064e576040517f08c379a00000000000000000000000000000000000000000000000000000000081526004016106459061155c565b60405180910390fd5b505b8080600101915050610500565b50600060405180610100016040528089600381111561067f5761067e610e97565b5b81526020018881526020018781526020018681526020018581526020018481526020016000815260200183815250905060006001805490509050600182908060018154018082558091505060019003906000526020600020906008020160009091909190915060008201518160000160006101000a81548160ff021916908360038111156107105761070f610e97565b5b02179055506020820151816001015560408201518160020155606082015181600301556080820151816004015560a0820151816005015560c0820151816006015560e082015181600701555050807f7673e4939433531841b3ee155cfb41d74036f1741ed20ba7c3ed88d66a2895518a8a60405161078f92919061157c565b60405180910390a2505050505050505050565b6107aa610c9b565b6107b46000610d22565b565b60008060009054906101000a900473ffffffffffffffffffffffffffffffffffffffff16905090565b6000600180549050905090565b6107f4610c9b565b600073ffffffffffffffffffffffffffffffffffffffff168173ffffffffffffffffffffffffffffffffffffffff16036108665760006040517f1e4fbdf700000000000000000000000000000000000000000000000000000000815260040161085d9190611230565b60405180910390fd5b61086f81610d22565b50565b6000600260008473ffffffffffffffffffffffffffffffffffffffff1673ffffffffffffffffffffffffffffffffffffffff16815260200190815260200160002060008360038111156108c8576108c7610e97565b5b60038111156108da576108d9610e97565b5b815260200190815260200160002054905092915050565b60008060006108fe610b46565b9150915060008160040154148061091c575080600401548160060154105b61095b576040517f08c379a0000000000000000000000000000000000000000000000000000000008152600401610952906115f1565b60405180910390fd5b6002600381111561096f5761096e610e97565b5b8160000160009054906101000a900460ff16600381111561099357610992610e97565b5b1480156109a4575060008160050154145b80610a3757508060050154600260008673ffffffffffffffffffffffffffffffffffffffff1673ffffffffffffffffffffffffffffffffffffffff16815260200190815260200160002060008360000160009054906101000a900460ff166003811115610a1457610a13610e97565b5b6003811115610a2657610a25610e97565b5b815260200190815260200160002054105b610a76576040517f08c379a0000000000000000000000000000000000000000000000000000000008152600401610a6d90611683565b60405180910390fd5b806006016000815480929190610a8b906116d2565b9190505550600260008573ffffffffffffffffffffffffffffffffffffffff1673ffffffffffffffffffffffffffffffffffffffff16815260200190815260200160002060008260000160009054906101000a900460ff166003811115610af557610af4610e97565b5b6003811115610b0757610b06610e97565b5b81526020019081526020016000206000815480929190610b26906116d2565b91905055508060000160009054906101000a900460ff1692505050919050565b600080600042905060005b600180549050811015610c5b5760006003811115610b7257610b71610e97565b5b60018281548110610b8657610b8561131a565b5b906000526020600020906008020160000160009054906101000a900460ff166003811115610bb757610bb6610e97565b5b14158015610bea575060018181548110610bd457610bd361131a565b5b9060005260206000209060080201600201548210155b8015610c1b575060018181548110610c0557610c0461131a565b5b9060005260206000209060080201600301548211155b15610c4e578060018281548110610c3557610c3461131a565b5b9060005260206000209060080201935093505050610c97565b8080600101915050610b51565b506040517f08c379a0000000000000000000000000000000000000000000000000000000008152600401610c8e90611766565b60405180910390fd5b9091565b610ca3610de6565b73ffffffffffffffffffffffffffffffffffffffff16610cc16107b6565b73ffffffffffffffffffffffffffffffffffffffff1614610d2057610ce4610de6565b6040517f118cdaa7000000000000000000000000000000000000000000000000000000008152600401610d179190611230565b60405180910390fd5b565b60008060009054906101000a900473ffffffffffffffffffffffffffffffffffffffff169050816000806101000a81548173ffffffffffffffffffffffffffffffffffffffff021916908373ffffffffffffffffffffffffffffffffffffffff1602179055508173ffffffffffffffffffffffffffffffffffffffff168173ffffffffffffffffffffffffffffffffffffffff167f8be0079c531659141344cd1fd0a4f28419497f9722a3daafe3b4186f6b6457e060405160405180910390a35050565b600033905090565b60405180610100016040528060006003811115610e0e57610e0d610e97565b5b8152602001600081526020016000815260200160008152602001600081526020016000815260200160008152602001600080191681525090565b60008115159050919050565b610e5d81610e48565b82525050565b6000602082019050610e786000830184610e54565b92915050565b6000819050919050565b610e9181610e7e565b82525050565b7f4e487b7100000000000000000000000000000000000000000000000000000000600052602160045260246000fd5b60048110610ed757610ed6610e97565b5b50565b6000819050610ee882610ec6565b919050565b6000610ef882610eda565b9050919050565b610f0881610eed565b82525050565b610f1781610e7e565b82525050565b6000819050919050565b610f3081610f1d565b82525050565b61010082016000820151610f4d6000850182610eff565b506020820151610f606020850182610f0e565b506040820151610f736040850182610f0e565b506060820151610f866060850182610f0e565b506080820151610f996080850182610f0e565b5060a0820151610fac60a0850182610f0e565b5060c0820151610fbf60c0850182610f0e565b5060e0820151610fd260e0850182610f27565b50505050565b600061012082019050610fee6000830185610e88565b610ffb6020830184610f36565b9392505050565b600080fd5b61101081610e7e565b811461101b57600080fd5b50565b60008135905061102d81611007565b92915050565b60006020828403121561104957611048611002565b5b60006110578482850161101e565b91505092915050565b61106981610eed565b82525050565b61107881610f1d565b82525050565b600061010082019050611094600083018b611060565b6110a1602083018a610e88565b6110ae6040830189610e88565b6110bb6060830188610e88565b6110c86080830187610e88565b6110d560a0830186610e88565b6110e260c0830185610e88565b6110ef60e083018461106f565b9998505050505050505050565b6004811061110957600080fd5b50565b60008135905061111b816110fc565b92915050565b61112a81610f1d565b811461113557600080fd5b50565b60008135905061114781611121565b92915050565b600080600080600080600060e0888a03121561116c5761116b611002565b5b600061117a8a828b0161110c565b975050602061118b8a828b0161101e565b965050604061119c8a828b0161101e565b95505060606111ad8a828b0161101e565b94505060806111be8a828b0161101e565b93505060a06111cf8a828b0161101e565b92505060c06111e08a828b01611138565b91505092959891949750929550565b600073ffffffffffffffffffffffffffffffffffffffff82169050919050565b600061121a826111ef565b9050919050565b61122a8161120f565b82525050565b60006020820190506112456000830184611221565b92915050565b60006020820190506112606000830184610e88565b92915050565b61126f8161120f565b811461127a57600080fd5b50565b60008135905061128c81611266565b92915050565b6000602082840312156112a8576112a7611002565b5b60006112b68482850161127d565b91505092915050565b600080604083850312156112d6576112d5611002565b5b60006112e48582860161127d565b92505060206112f58582860161110c565b9150509250929050565b60006020820190506113146000830184611060565b92915050565b7f4e487b7100000000000000000000000000000000000000000000000000000000600052603260045260246000fd5b600082825260208201905092915050565b7f496e76616c69642074696d652072616e67650000000000000000000000000000600082015250565b6000611390601283611349565b915061139b8261135a565b602082019050919050565b600060208201905081810360008301526113bf81611383565b9050919050565b7f496e76616c6964206d6178207065722077616c6c657420666f72206e6f6e2d7060008201527f75626c6963207068617365000000000000000000000000000000000000000000602082015250565b6000611422602b83611349565b915061142d826113c6565b604082019050919050565b6000602082019050818103600083015261145181611415565b9050919050565b7f4d65726b6c6520726f6f7420726571756972656420666f722077686974656c6960008201527f7374207068617365000000000000000000000000000000000000000000000000602082015250565b60006114b4602883611349565b91506114bf82611458565b604082019050919050565b600060208201905081810360008301526114e3816114a7565b9050919050565b7f50686173652074696d65206f7665726c6170732077697468206578697374696e60008201527f6720706861736500000000000000000000000000000000000000000000000000602082015250565b6000611546602783611349565b9150611551826114ea565b604082019050919050565b6000602082019050818103600083015261157581611539565b9050919050565b60006040820190506115916000830185611060565b61159e6020830184610e88565b9392505050565b7f506861736520737570706c79206c696d69742072656163686564000000000000600082015250565b60006115db601a83611349565b91506115e6826115a5565b602082019050919050565b6000602082019050818103600083015261160a816115ce565b9050919050565b7f57616c6c6574206c696d6974207265616368656420666f72207468697320706860008201527f6173650000000000000000000000000000000000000000000000000000000000602082015250565b600061166d602383611349565b915061167882611611565b604082019050919050565b6000602082019050818103600083015261169c81611660565b9050919050565b7f4e487b7100000000000000000000000000000000000000000000000000000000600052601160045260246000fd5b60006116dd82610e7e565b91507fffffffffffffffffffffffffffffffffffffffffffffffffffffffffffffffff820361170f5761170e6116a3565b5b600182019050919050565b7f4e6f206163746976652070686173650000000000000000000000000000000000600082015250565b6000611750600f83611349565b915061175b8261171a565b602082019050919050565b6000602082019050818103600083015261177f81611743565b905091905056fea264697066735822122016472e4a9ebc7c756e8ad0cef081cda65e6f05ee0fb139aae3b04f35e065776364736f6c634300081b003360a060405234801561001057600080fd5b506040516111be3803806111be83398181016040528101906100329190610367565b83600073ffffffffffffffffffffffffffffffffffffffff168173ffffffffffffffffffffffffffffffffffffffff16036100a55760006040517f1e4fbdf700000000000000000000000000000000000000000000000000000000815260040161009c91906103dd565b60405180910390fd5b6100b4816101fc60201b60201c565b506103e8836bffffffffffffffffffffffff16111580156100e557506103e8826bffffffffffffffffffffffff1611155b801561011e5750600073ffffffffffffffffffffffffffffffffffffffff168173ffffffffffffffffffffffffffffffffffffffff1614155b61015d576040517f08c379a000000000000000000000000000000000000000000000000000000000815260040161015490610455565b60405180910390fd5b826bffffffffffffffffffffffff166080816bffffffffffffffffffffffff168152505081600060146101000a8154816bffffffffffffffffffffffff02191690836bffffffffffffffffffffffff16021790555080600160006101000a81548173ffffffffffffffffffffffffffffffffffffffff021916908373ffffffffffffffffffffffffffffffffffffffff16021790555050505050610475565b60008060009054906101000a900473ffffffffffffffffffffffffffffffffffffffff169050816000806101000a81548173ffffffffffffffffffffffffffffffffffffffff021916908373ffffffffffffffffffffffffffffffffffffffff1602179055508173ffffffffffffffffffffffffffffffffffffffff168173ffffffffffffffffffffffffffffffffffffffff167f8be0079c531659141344cd1fd0a4f28419497f9722a3daafe3b4186f6b6457e060405160405180910390a35050565b600080fd5b600073ffffffffffffffffffffffffffffffffffffffff82169050919050565b60006102f0826102c5565b9050919050565b610300816102e5565b811461030b57600080fd5b50565b60008151905061031d816102f7565b92915050565b60006bffffffffffffffffffffffff82169050919050565b61034481610323565b811461034f57600080fd5b50565b6000815190506103618161033b565b92915050565b60008060008060808587031215610381576103806102c0565b5b600061038f8782880161030e565b94505060206103a087828801610352565b93505060406103b187828801610352565b92505060606103c28782880161030e565b91505092959194509250565b6103d7816102e5565b82525050565b60006020820190506103f260008301846103ce565b92915050565b600082825260208201905092915050565b7f496e76616c69642066656520636f6e66696775726174696f6e00000000000000600082015250565b600061043f6019836103f8565b915061044a82610409565b602082019050919050565b6000602082019050818103600083015261046e81610432565b9050919050565b608051610d2e61049060003960006103c90152610d2e6000f3fe608060405234801561001057600080fd5b50600436106100935760003560e01c8063cdd78cfc11610066578063cdd78cfc146100fb578063d45573f614610119578063decc4a6a14610138578063eb13554f14610154578063f2fde38b1461017257610093565b8063715018a61461009857806389701db5146100a25780638da5cb5b146100be578063a86a28d1146100dc575b600080fd5b6100a061018e565b005b6100bc60048036038101906100b7919061080a565b6101a2565b005b6100c6610393565b6040516100d39190610878565b60405180910390f35b6100e46103bc565b6040516100f29291906108ba565b60405180910390f35b6101036103f0565b60405161011091906108e3565b60405180910390f35b61012161040e565b60405161012f9291906108fe565b60405180910390f35b610152600480360381019061014d919061097f565b610457565b005b61015c6105d0565b6040516101699190610878565b60405180910390f35b61018c600480360381019061018791906109bf565b6105f6565b005b61019661067c565b6101a06000610703565b565b6000612710600060149054906101000a90046bffffffffffffffffffffffff166bffffffffffffffffffffffff16836101db9190610a1b565b6101e59190610a8c565b905060008111156102c0576000600160009054906101000a900473ffffffffffffffffffffffffffffffffffffffff1673ffffffffffffffffffffffffffffffffffffffff168260405161023890610aee565b60006040518083038185875af1925050503d8060008114610275576040519150601f19603f3d011682016040523d82523d6000602084013e61027a565b606091505b50509050806102be576040517f08c379a00000000000000000000000000000000000000000000000000000000081526004016102b590610b60565b60405180910390fd5b505b600081836102ce9190610b80565b9050600081111561038e5760006102e3610393565b73ffffffffffffffffffffffffffffffffffffffff168260405161030690610aee565b60006040518083038185875af1925050503d8060008114610343576040519150601f19603f3d011682016040523d82523d6000602084013e610348565b606091505b505090508061038c576040517f08c379a000000000000000000000000000000000000000000000000000000000815260040161038390610c00565b60405180910390fd5b505b505050565b60008060009054906101000a900473ffffffffffffffffffffffffffffffffffffffff16905090565b6000806103c7610393565b7f0000000000000000000000000000000000000000000000000000000000000000915091509091565b600060149054906101000a90046bffffffffffffffffffffffff1681565b600080600060149054906101000a90046bffffffffffffffffffffffff16600160009054906101000a900473ffffffffffffffffffffffffffffffffffffffff16915091509091565b61045f61067c565b6103e8826bffffffffffffffffffffffff1611156104b2576040517f08c379a00000000000000000000000000000000000000000000000000000000081526004016104a990610c6c565b60405180910390fd5b600073ffffffffffffffffffffffffffffffffffffffff168173ffffffffffffffffffffffffffffffffffffffff1603610521576040517f08c379a000000000000000000000000000000000000000000000000000000000815260040161051890610cd8565b60405180910390fd5b81600060146101000a8154816bffffffffffffffffffffffff02191690836bffffffffffffffffffffffff16021790555080600160006101000a81548173ffffffffffffffffffffffffffffffffffffffff021916908373ffffffffffffffffffffffffffffffffffffffff1602179055507fbad9436335ddabdd6fc56ea571323eb7dcfc0e82e9dbaf786bbb2a2ad6de573c82826040516105c49291906108fe565b60405180910390a15050565b600160009054906101000a900473ffffffffffffffffffffffffffffffffffffffff1681565b6105fe61067c565b600073ffffffffffffffffffffffffffffffffffffffff168173ffffffffffffffffffffffffffffffffffffffff16036106705760006040517f1e4fbdf70000000000000000000000000000000000000000000000000000000081526004016106679190610878565b60405180910390fd5b61067981610703565b50565b6106846107c7565b73ffffffffffffffffffffffffffffffffffffffff166106a2610393565b73ffffffffffffffffffffffffffffffffffffffff1614610701576106c56107c7565b6040517f118cdaa70000000000000000000000000000000000000000000000000000000081526004016106f89190610878565b60405180910390fd5b565b60008060009054906101000a900473ffffffffffffffffffffffffffffffffffffffff169050816000806101000a81548173ffffffffffffffffffffffffffffffffffffffff021916908373ffffffffffffffffffffffffffffffffffffffff1602179055508173ffffffffffffffffffffffffffffffffffffffff168173ffffffffffffffffffffffffffffffffffffffff167f8be0079c531659141344cd1fd0a4f28419497f9722a3daafe3b4186f6b6457e060405160405180910390a35050565b600033905090565b600080fd5b6000819050919050565b6107e7816107d4565b81146107f257600080fd5b50565b600081359050610804816107de565b92915050565b6000602082840312156108205761081f6107cf565b5b600061082e848285016107f5565b91505092915050565b600073ffffffffffffffffffffffffffffffffffffffff82169050919050565b600061086282610837565b9050919050565b61087281610857565b82525050565b600060208201905061088d6000830184610869565b92915050565b60006bffffffffffffffffffffffff82169050919050565b6108b481610893565b82525050565b60006040820190506108cf6000830185610869565b6108dc60208301846108ab565b9392505050565b60006020820190506108f860008301846108ab565b92915050565b600060408201905061091360008301856108ab565b6109206020830184610869565b9392505050565b61093081610893565b811461093b57600080fd5b50565b60008135905061094d81610927565b92915050565b61095c81610857565b811461096757600080fd5b50565b60008135905061097981610953565b92915050565b60008060408385031215610996576109956107cf565b5b60006109a48582860161093e565b92505060206109b58582860161096a565b9150509250929050565b6000602082840312156109d5576109d46107cf565b5b60006109e38482850161096a565b91505092915050565b7f4e487b7100000000000000000000000000000000000000000000000000000000600052601160045260246000fd5b6000610a26826107d4565b9150610a31836107d4565b9250828202610a3f816107d4565b91508282048414831517610a5657610a556109ec565b5b5092915050565b7f4e487b7100000000000000000000000000000000000000000000000000000000600052601260045260246000fd5b6000610a97826107d4565b9150610aa2836107d4565b925082610ab257610ab1610a5d565b5b828204905092915050565b600081905092915050565b50565b6000610ad8600083610abd565b9150610ae382610ac8565b600082019050919050565b6000610af982610acb565b9150819050919050565b600082825260208201905092915050565b7f506c6174666f726d20666565207472616e73666572206661696c656400000000600082015250565b6000610b4a601c83610b03565b9150610b5582610b14565b602082019050919050565b60006020820190508181036000830152610b7981610b3d565b9050919050565b6000610b8b826107d4565b9150610b96836107d4565b9250828203905081811115610bae57610bad6109ec565b5b92915050565b7f4f776e657220666565207472616e73666572206661696c656400000000000000600082015250565b6000610bea601983610b03565b9150610bf582610bb4565b602082019050919050565b60006020820190508181036000830152610c1981610bdd565b9050919050565b7f4665652070657263656e7461676520746f6f2068696768000000000000000000600082015250565b6000610c56601783610b03565b9150610c6182610c20565b602082019050919050565b60006020820190508181036000830152610c8581610c49565b9050919050565b7f496e76616c69642066656520726563697069656e740000000000000000000000600082015250565b6000610cc2601583610b03565b9150610ccd82610c8c565b602082019050919050565b60006020820190508181036000830152610cf181610cb5565b905091905056fea264697066735822122096386292b9c3f1954e774744dc6136c6dfcc6fa786ba9b17485816c31ac8993164736f6c634300081b003361018060405234801561001157600080fd5b5060405161219a38038061219a833981810160405281019061003391906104bd565b816040518060400160405280600a81526020017f556e69666965644e4654000000000000000000000000000000000000000000008152506040518060400160405280600181526020017f31000000000000000000000000000000000000000000000000000000000000008152506100b460008361027760201b90919060201c565b61012081815250506100d060018261027760201b90919060201c565b6101408181525050818051906020012060e08181525050808051906020012061010081815250504660a0818152505061010d6102c760201b60201c565b608081815250503073ffffffffffffffffffffffffffffffffffffffff1660c08173ffffffffffffffffffffffffffffffffffffffff16815250505050600073ffffffffffffffffffffffffffffffffffffffff168173ffffffffffffffffffffffffffffffffffffffff16036101bc5760006040517f1e4fbdf70000000000000000000000000000000000000000000000000000000081526004016101b3919061050c565b60405180910390fd5b6101cb8161032260201b60201c565b50600073ffffffffffffffffffffffffffffffffffffffff168173ffffffffffffffffffffffffffffffffffffffff160361023b576040517f08c379a000000000000000000000000000000000000000000000000000000000815260040161023290610584565b60405180910390fd5b8073ffffffffffffffffffffffffffffffffffffffff166101608173ffffffffffffffffffffffffffffffffffffffff16815250505050610a6e565b600060208351101561029957610292836103e860201b60201c565b90506102c1565b826102a98361045060201b60201c565b60000190816102b891906107f4565b5060ff60001b90505b92915050565b60007f8b73c3c69bb8fe3d512ecc4cf759cc79239f7b179b0ffacaa9a75d522b39400f60e0516101005146306040516020016103079594939291906108ee565b60405160208183030381529060405280519060200120905090565b6000600260009054906101000a900473ffffffffffffffffffffffffffffffffffffffff16905081600260006101000a81548173ffffffffffffffffffffffffffffffffffffffff021916908373ffffffffffffffffffffffffffffffffffffffff1602179055508173ffffffffffffffffffffffffffffffffffffffff168173ffffffffffffffffffffffffffffffffffffffff167f8be0079c531659141344cd1fd0a4f28419497f9722a3daafe3b4186f6b6457e060405160405180910390a35050565b600080829050601f8151111561043557826040517f305a27a900000000000000000000000000000000000000000000000000000000815260040161042c91906109b5565b60405180910390fd5b80518161044190610a07565b60001c1760001b915050919050565b6000819050919050565b600080fd5b600073ffffffffffffffffffffffffffffffffffffffff82169050919050565b600061048a8261045f565b9050919050565b61049a8161047f565b81146104a557600080fd5b50565b6000815190506104b781610491565b92915050565b600080604083850312156104d4576104d361045a565b5b60006104e2858286016104a8565b92505060206104f3858286016104a8565b9150509250929050565b6105068161047f565b82525050565b600060208201905061052160008301846104fd565b92915050565b600082825260208201905092915050565b7f496e76616c6964206261636b656e64207369676e657220616464726573730000600082015250565b600061056e601e83610527565b915061057982610538565b602082019050919050565b6000602082019050818103600083015261059d81610561565b9050919050565b600081519050919050565b7f4e487b7100000000000000000000000000000000000000000000000000000000600052604160045260246000fd5b7f4e487b7100000000000000000000000000000000000000000000000000000000600052602260045260246000fd5b6000600282049050600182168061062557607f821691505b602082108103610638576106376105de565b5b50919050565b60008190508160005260206000209050919050565b60006020601f8301049050919050565b600082821b905092915050565b6000600883026106a07fffffffffffffffffffffffffffffffffffffffffffffffffffffffffffffffff82610663565b6106aa8683610663565b95508019841693508086168417925050509392505050565b6000819050919050565b6000819050919050565b60006106f16106ec6106e7846106c2565b6106cc565b6106c2565b9050919050565b6000819050919050565b61070b836106d6565b61071f610717826106f8565b848454610670565b825550505050565b600090565b610734610727565b61073f818484610702565b505050565b5b818110156107635761075860008261072c565b600181019050610745565b5050565b601f8211156107a8576107798161063e565b61078284610653565b81016020851015610791578190505b6107a561079d85610653565b830182610744565b50505b505050565b600082821c905092915050565b60006107cb600019846008026107ad565b1980831691505092915050565b60006107e483836107ba565b9150826002028217905092915050565b6107fd826105a4565b67ffffffffffffffff811115610816576108156105af565b5b610820825461060d565b61082b828285610767565b600060209050601f83116001811461085e576000841561084c578287015190505b61085685826107d8565b8655506108be565b601f19841661086c8661063e565b60005b828110156108945784890151825560018201915060208501945060208101905061086f565b868310156108b157848901516108ad601f8916826107ba565b8355505b6001600288020188555050505b505050505050565b6000819050919050565b6108d9816108c6565b82525050565b6108e8816106c2565b82525050565b600060a08201905061090360008301886108d0565b61091060208301876108d0565b61091d60408301866108d0565b61092a60608301856108df565b61093760808301846104fd565b9695505050505050565b60005b8381101561095f578082015181840152602081019050610944565b60008484015250505050565b6000601f19601f8301169050919050565b6000610987826105a4565b6109918185610527565b93506109a1818560208601610941565b6109aa8161096b565b840191505092915050565b600060208201905081810360008301526109cf818461097c565b905092915050565b600081519050919050565b6000819050602082019050919050565b60006109fe82516108c6565b80915050919050565b6000610a12826109d7565b82610a1c846109e2565b9050610a27816109f2565b92506020821015610a6757610a627fffffffffffffffffffffffffffffffffffffffffffffffffffffffffffffffff83602003600802610663565b831692505b5050919050565b60805160a05160c05160e051610100516101205161014051610160516116c0610ada600039600081816101ba015261030d015260006107760152600061073b01526000610b5e01526000610b3d015260006107ac015260006108020152600061082b01526116c06000f3fe608060405234801561001057600080fd5b50600436106100935760003560e01c806384b0196e1161006657806384b0196e1461010c5780638da5cb5b14610130578063ed24911d1461014e578063f2fde38b1461016c578063ffe95a271461018857610093565b806365d65e861461009857806368b36b91146100b6578063715018a6146100e657806380a77be6146100f0575b600080fd5b6100a06101b8565b6040516100ad9190610da7565b60405180910390f35b6100d060048036038101906100cb9190610f1f565b6101dc565b6040516100dd9190611031565b60405180910390f35b6100ee6103c9565b005b61010a6004803603810190610105919061104c565b6103dd565b005b61011461040c565b6040516101279796959493929190611220565b60405180910390f35b6101386104b6565b6040516101459190610da7565b60405180910390f35b6101566104e0565b60405161016391906112a4565b60405180910390f35b610186600480360381019061018191906112bf565b6104ef565b005b6101a2600480360381019061019d919061104c565b610575565b6040516101af9190611031565b60405180910390f35b7f000000000000000000000000000000000000000000000000000000000000000081565b600042610e10856101ed919061131b565b101580156101fb5750428411155b61023a576040517f08c379a00000000000000000000000000000000000000000000000000000000081526004016102319061139b565b60405180910390fd5b6003600086815260200190815260200160002060009054906101000a900460ff161561029b576040517f08c379a000000000000000000000000000000000000000000000000000000000815260040161029290611407565b60405180910390fd5b60007fbcd57119bf9b3f112b39ecfb926b57babf8ea759ef8fb8f953ec0103b2a187f38c8c8c8c6040516102d0929190611466565b60405180910390208b8b8b8b6040516020016102f398979695949392919061147f565b6040516020818303038152906040528051906020012090507f000000000000000000000000000000000000000000000000000000000000000073ffffffffffffffffffffffffffffffffffffffff166103a185858080601f016020809104026020016040519081016040528093929190818152602001838380828437600081840152601f19601f820116905080830192505050505050506103938461059f565b6105b990919063ffffffff16565b73ffffffffffffffffffffffffffffffffffffffff16149150509a9950505050505050505050565b6103d16105e5565b6103db600061066c565b565b60016003600083815260200190815260200160002060006101000a81548160ff02191690831515021790555050565b600060608060008060006060610420610732565b61042861076d565b46306000801b600067ffffffffffffffff811115610449576104486114fd565b5b6040519080825280602002602001820160405280156104775781602001602082028036833780820191505090505b507f0f00000000000000000000000000000000000000000000000000000000000000959493929190965096509650965096509650965090919293949596565b6000600260009054906101000a900473ffffffffffffffffffffffffffffffffffffffff16905090565b60006104ea6107a8565b905090565b6104f76105e5565b600073ffffffffffffffffffffffffffffffffffffffff168173ffffffffffffffffffffffffffffffffffffffff16036105695760006040517f1e4fbdf70000000000000000000000000000000000000000000000000000000081526004016105609190610da7565b60405180910390fd5b6105728161066c565b50565b60006003600083815260200190815260200160002060009054906101000a900460ff169050919050565b60006105b26105ac6107a8565b8361085f565b9050919050565b6000806000806105c986866108a0565b9250925092506105d982826108fc565b82935050505092915050565b6105ed610a60565b73ffffffffffffffffffffffffffffffffffffffff1661060b6104b6565b73ffffffffffffffffffffffffffffffffffffffff161461066a5761062e610a60565b6040517f118cdaa70000000000000000000000000000000000000000000000000000000081526004016106619190610da7565b60405180910390fd5b565b6000600260009054906101000a900473ffffffffffffffffffffffffffffffffffffffff16905081600260006101000a81548173ffffffffffffffffffffffffffffffffffffffff021916908373ffffffffffffffffffffffffffffffffffffffff1602179055508173ffffffffffffffffffffffffffffffffffffffff168173ffffffffffffffffffffffffffffffffffffffff167f8be0079c531659141344cd1fd0a4f28419497f9722a3daafe3b4186f6b6457e060405160405180910390a35050565b606061076860007f0000000000000000000000000000000000000000000000000000000000000000610a6890919063ffffffff16565b905090565b60606107a360017f0000000000000000000000000000000000000000000000000000000000000000610a6890919063ffffffff16565b905090565b60007f000000000000000000000000000000000000000000000000000000000000000073ffffffffffffffffffffffffffffffffffffffff163073ffffffffffffffffffffffffffffffffffffffff1614801561082457507f000000000000000000000000000000000000000000000000000000000000000046145b15610851577f0000000000000000000000000000000000000000000000000000000000000000905061085c565b610859610b18565b90505b90565b60006040517f190100000000000000000000000000000000000000000000000000000000000081528360028201528260228201526042812091505092915050565b600080600060418451036108e55760008060006020870151925060408701519150606087015160001a90506108d788828585610bae565b9550955095505050506108f5565b60006002855160001b9250925092505b9250925092565b600060038111156109105761090f61152c565b5b8260038111156109235761092261152c565b5b0315610a5c576001600381111561093d5761093c61152c565b5b8260038111156109505761094f61152c565b5b03610987576040517ff645eedf00000000000000000000000000000000000000000000000000000000815260040160405180910390fd5b6002600381111561099b5761099a61152c565b5b8260038111156109ae576109ad61152c565b5b036109f3578060001c6040517ffce698f70000000000000000000000000000000000000000000000000000000081526004016109ea919061155b565b60405180910390fd5b600380811115610a0657610a0561152c565b5b826003811115610a1957610a1861152c565b5b03610a5b57806040517fd78bce0c000000000000000000000000000000000000000000000000000000008152600401610a5291906112a4565b60405180910390fd5b5b5050565b600033905090565b606060ff60001b8314610a8557610a7e83610ca2565b9050610b12565b818054610a91906115a5565b80601f0160208091040260200160405190810160405280929190818152602001828054610abd906115a5565b8015610b0a5780601f10610adf57610100808354040283529160200191610b0a565b820191906000526020600020905b815481529060010190602001808311610aed57829003601f168201915b505050505090505b92915050565b60007f8b73c3c69bb8fe3d512ecc4cf759cc79239f7b179b0ffacaa9a75d522b39400f7f00000000000000000000000000000000000000000000000000000000000000007f00000000000000000000000000000000000000000000000000000000000000004630604051602001610b939594939291906115d6565b60405160208183030381529060405280519060200120905090565b60008060007f7fffffffffffffffffffffffffffffff5d576e7357a4501ddfe92f46681b20a08460001c1115610bee576000600385925092509250610c98565b600060018888888860405160008152602001604052604051610c139493929190611645565b6020604051602081039080840390855afa158015610c35573d6000803e3d6000fd5b505050602060405103519050600073ffffffffffffffffffffffffffffffffffffffff168173ffffffffffffffffffffffffffffffffffffffff1603610c8957600060016000801b93509350935050610c98565b8060008060001b935093509350505b9450945094915050565b60606000610caf83610d16565b90506000602067ffffffffffffffff811115610cce57610ccd6114fd565b5b6040519080825280601f01601f191660200182016040528015610d005781602001600182028036833780820191505090505b5090508181528360208201528092505050919050565b60008060ff8360001c169050601f811115610d5d576040517fb3512b0c00000000000000000000000000000000000000000000000000000000815260040160405180910390fd5b80915050919050565b600073ffffffffffffffffffffffffffffffffffffffff82169050919050565b6000610d9182610d66565b9050919050565b610da181610d86565b82525050565b6000602082019050610dbc6000830184610d98565b92915050565b600080fd5b600080fd5b610dd581610d86565b8114610de057600080fd5b50565b600081359050610df281610dcc565b92915050565b6000819050919050565b610e0b81610df8565b8114610e1657600080fd5b50565b600081359050610e2881610e02565b92915050565b600080fd5b600080fd5b600080fd5b60008083601f840112610e5357610e52610e2e565b5b8235905067ffffffffffffffff811115610e7057610e6f610e33565b5b602083019150836001820283011115610e8c57610e8b610e38565b5b9250929050565b6000819050919050565b610ea681610e93565b8114610eb157600080fd5b50565b600081359050610ec381610e9d565b92915050565b60008083601f840112610edf57610ede610e2e565b5b8235905067ffffffffffffffff811115610efc57610efb610e33565b5b602083019150836001820283011115610f1857610f17610e38565b5b9250929050565b6000806000806000806000806000806101008b8d031215610f4357610f42610dc2565b5b6000610f518d828e01610de3565b9a50506020610f628d828e01610e19565b99505060408b013567ffffffffffffffff811115610f8357610f82610dc7565b5b610f8f8d828e01610e3d565b98509850506060610fa28d828e01610e19565b9650506080610fb38d828e01610e19565b95505060a0610fc48d828e01610eb4565b94505060c0610fd58d828e01610e19565b93505060e08b013567ffffffffffffffff811115610ff657610ff5610dc7565b5b6110028d828e01610ec9565b92509250509295989b9194979a5092959850565b60008115159050919050565b61102b81611016565b82525050565b60006020820190506110466000830184611022565b92915050565b60006020828403121561106257611061610dc2565b5b600061107084828501610eb4565b91505092915050565b60007fff0000000000000000000000000000000000000000000000000000000000000082169050919050565b6110ae81611079565b82525050565b600081519050919050565b600082825260208201905092915050565b60005b838110156110ee5780820151818401526020810190506110d3565b60008484015250505050565b6000601f19601f8301169050919050565b6000611116826110b4565b61112081856110bf565b93506111308185602086016110d0565b611139816110fa565b840191505092915050565b61114d81610df8565b82525050565b61115c81610e93565b82525050565b600081519050919050565b600082825260208201905092915050565b6000819050602082019050919050565b61119781610df8565b82525050565b60006111a9838361118e565b60208301905092915050565b6000602082019050919050565b60006111cd82611162565b6111d7818561116d565b93506111e28361117e565b8060005b838110156112135781516111fa888261119d565b9750611205836111b5565b9250506001810190506111e6565b5085935050505092915050565b600060e082019050611235600083018a6110a5565b8181036020830152611247818961110b565b9050818103604083015261125b818861110b565b905061126a6060830187611144565b6112776080830186610d98565b61128460a0830185611153565b81810360c083015261129681846111c2565b905098975050505050505050565b60006020820190506112b96000830184611153565b92915050565b6000602082840312156112d5576112d4610dc2565b5b60006112e384828501610de3565b91505092915050565b7f4e487b7100000000000000000000000000000000000000000000000000000000600052601160045260246000fd5b600061132682610df8565b915061133183610df8565b9250828201905080821115611349576113486112ec565b5b92915050565b7f5369676e61747572652065787069726564000000000000000000000000000000600082015250565b60006113856011836110bf565b91506113908261134f565b602082019050919050565b600060208201905081810360008301526113b481611378565b9050919050565b7f5369676e617475726520616c7265616479207573656400000000000000000000600082015250565b60006113f16016836110bf565b91506113fc826113bb565b602082019050919050565b60006020820190508181036000830152611420816113e4565b9050919050565b600081905092915050565b82818337600083830152505050565b600061144d8385611427565b935061145a838584611432565b82840190509392505050565b6000611473828486611441565b91508190509392505050565b600061010082019050611495600083018b611153565b6114a2602083018a610d98565b6114af6040830189611144565b6114bc6060830188611153565b6114c96080830187611144565b6114d660a0830186611144565b6114e360c0830185611153565b6114f060e0830184611144565b9998505050505050505050565b7f4e487b7100000000000000000000000000000000000000000000000000000000600052604160045260246000fd5b7f4e487b7100000000000000000000000000000000000000000000000000000000600052602160045260246000fd5b60006020820190506115706000830184611144565b92915050565b7f4e487b7100000000000000000000000000000000000000000000000000000000600052602260045260246000fd5b600060028204905060018216806115bd57607f821691505b6020821081036115d0576115cf611576565b5b50919050565b600060a0820190506115eb6000830188611153565b6115f86020830187611153565b6116056040830186611153565b6116126060830185611144565b61161f6080830184610d98565b9695505050505050565b600060ff82169050919050565b61163f81611629565b82525050565b600060808201905061165a6000830187611153565b6116676020830186611636565b6116746040830185611153565b6116816060830184611153565b9594505050505056fea2646970667358221220a5ead4f8d77c066b6160197e3feafd2daa7b7d9b03ac37b7d9684848bd141fd564736f6c634300081b00336080604052348015600f57600080fd5b506103fc8061001f6000396000f3fe608060405234801561001057600080fd5b506004361061002b5760003560e01c8063e328f2f114610030575b600080fd5b61004a6004803603810190610045919061028a565b610060565b6040516100579190610319565b60405180910390f35b60006100d4838380806020026020016040519081016040528093929190818152602001838360200280828437600081840152601f19601f8201169050808301925050505050505085876040516020016100b9919061037c565b604051602081830303815290604052805190602001206100de565b9050949350505050565b6000826100eb85846100f5565b1490509392505050565b60008082905060005b845181101561013a5761012b8286838151811061011e5761011d610397565b5b6020026020010151610145565b915080806001019150506100fe565b508091505092915050565b600081831061015d576101588284610170565b610168565b6101678383610170565b5b905092915050565b600082600052816020526040600020905092915050565b600080fd5b600080fd5b600073ffffffffffffffffffffffffffffffffffffffff82169050919050565b60006101bc82610191565b9050919050565b6101cc816101b1565b81146101d757600080fd5b50565b6000813590506101e9816101c3565b92915050565b6000819050919050565b610202816101ef565b811461020d57600080fd5b50565b60008135905061021f816101f9565b92915050565b600080fd5b600080fd5b600080fd5b60008083601f84011261024a57610249610225565b5b8235905067ffffffffffffffff8111156102675761026661022a565b5b6020830191508360208202830111156102835761028261022f565b5b9250929050565b600080600080606085870312156102a4576102a3610187565b5b60006102b2878288016101da565b94505060206102c387828801610210565b935050604085013567ffffffffffffffff8111156102e4576102e361018c565b5b6102f087828801610234565b925092505092959194509250565b60008115159050919050565b610313816102fe565b82525050565b600060208201905061032e600083018461030a565b92915050565b60008160601b9050919050565b600061034c82610334565b9050919050565b600061035e82610341565b9050919050565b610376610371826101b1565b610353565b82525050565b60006103888284610365565b60148201915081905092915050565b7f4e487b7100000000000000000000000000000000000000000000000000000000600052603260045260246000fdfea26469706673582212209828f1bde9b962fd4c107c18b2d20475d3f676a2b28cb7ca29bdec5c1d8b78c964736f6c634300081b0033608060405234801561001057600080fd5b50604051611b9d380380611b9d8339818101604052810190610032919061032c565b85600073ffffffffffffffffffffffffffffffffffffffff168173ffffffffffffffffffffffffffffffffffffffff16036100a55760006040517f1e4fbdf700000000000000000000000000000000000000000000000000000000815260040161009c91906103c8565b60405180910390fd5b6100b48161020560201b60201c565b5084600160006101000a81548173ffffffffffffffffffffffffffffffffffffffff021916908373ffffffffffffffffffffffffffffffffffffffff16021790555083600260006101000a81548173ffffffffffffffffffffffffffffffffffffffff021916908373ffffffffffffffffffffffffffffffffffffffff16021790555082600360006101000a81548173ffffffffffffffffffffffffffffffffffffffff021916908373ffffffffffffffffffffffffffffffffffffffff16021790555081600460006101000a81548173ffffffffffffffffffffffffffffffffffffffff021916908373ffffffffffffffffffffffffffffffffffffffff16021790555080600560006101000a81548173ffffffffffffffffffffffffffffffffffffffff021916908373ffffffffffffffffffffffffffffffffffffffff1602179055505050505050506103e3565b60008060009054906101000a900473ffffffffffffffffffffffffffffffffffffffff169050816000806101000a81548173ffffffffffffffffffffffffffffffffffffffff021916908373ffffffffffffffffffffffffffffffffffffffff1602179055508173ffffffffffffffffffffffffffffffffffffffff168173ffffffffffffffffffffffffffffffffffffffff167f8be0079c531659141344cd1fd0a4f28419497f9722a3daafe3b4186f6b6457e060405160405180910390a35050565b600080fd5b600073ffffffffffffffffffffffffffffffffffffffff82169050919050565b60006102f9826102ce565b9050919050565b610309816102ee565b811461031457600080fd5b50565b60008151905061032681610300565b92915050565b60008060008060008060c08789031215610349576103486102c9565b5b600061035789828a01610317565b965050602061036889828a01610317565b955050604061037989828a01610317565b945050606061038a89828a01610317565b935050608061039b89828a01610317565b92505060a06103ac89828a01610317565b9150509295509295509295565b6103c2816102ee565b82525050565b60006020820190506103dd60008301846103b9565b92915050565b6117ab806103f26000396000f3fe60806040526004361061009c5760003560e01c80638ff75e82116100645780638ff75e8214610162578063918dd5c01461017e578063b187bd26146101a9578063d0fb0203146101d4578063f2fde38b146101ff578063fde919f6146102285761009c565b806316c38b3c146100a15780634adfcefa146100ca5780634f40bb83146100f5578063715018a6146101205780638da5cb5b14610137575b600080fd5b3480156100ad57600080fd5b506100c860048036038101906100c39190610b8d565b610253565b005b3480156100d657600080fd5b506100df610278565b6040516100ec9190610c39565b60405180910390f35b34801561010157600080fd5b5061010a61029e565b6040516101179190610c75565b60405180910390f35b34801561012c57600080fd5b506101356102c4565b005b34801561014357600080fd5b5061014c6102d8565b6040516101599190610cb1565b60405180910390f35b61017c60048036038101906101779190610e49565b610301565b005b34801561018a57600080fd5b506101936108e3565b6040516101a09190610f59565b60405180910390f35b3480156101b557600080fd5b506101be610909565b6040516101cb9190610f83565b60405180910390f35b3480156101e057600080fd5b506101e961091c565b6040516101f69190610fbf565b60405180910390f35b34801561020b57600080fd5b5061022660048036038101906102219190611006565b610942565b005b34801561023457600080fd5b5061023d6109c8565b60405161024a9190611054565b60405180910390f35b61025b6109ee565b80600560146101000a81548160ff02191690831515021790555050565b600560009054906101000a900473ffffffffffffffffffffffffffffffffffffffff1681565b600160009054906101000a900473ffffffffffffffffffffffffffffffffffffffff1681565b6102cc6109ee565b6102d66000610a75565b565b60008060009054906101000a900473ffffffffffffffffffffffffffffffffffffffff16905090565b600560149054906101000a900460ff1615610351576040517f08c379a0000000000000000000000000000000000000000000000000000000008152600401610348906110cc565b60405180910390fd5b600080600260009054906101000a900473ffffffffffffffffffffffffffffffffffffffff1673ffffffffffffffffffffffffffffffffffffffff16631ce97fd16040518163ffffffff1660e01b815260040161012060405180830381865afa1580156103c2573d6000803e3d6000fd5b505050506040513d601f19601f820116820180604052508101906103e69190611296565b91509150600160038111156103fe576103fd6112d7565b5b81600001516003811115610415576104146112d7565b5b0361050057600560009054906101000a900473ffffffffffffffffffffffffffffffffffffffff1673ffffffffffffffffffffffffffffffffffffffff1663e328f2f1338360e0015187876040518563ffffffff1660e01b815260040161047f9493929190611390565b602060405180830381865afa15801561049c573d6000803e3d6000fd5b505050506040513d601f19601f820116820180604052508101906104c091906113e5565b6104ff576040517f08c379a00000000000000000000000000000000000000000000000000000000081526004016104f69061145e565b60405180910390fd5b5b600460009054906101000a900473ffffffffffffffffffffffffffffffffffffffff1673ffffffffffffffffffffffffffffffffffffffff166368b36b91338d8d8d8660200151888f8f8f8f6040518b63ffffffff1660e01b81526004016105719a99989796959493929190611507565b602060405180830381865afa15801561058e573d6000803e3d6000fd5b505050506040513d601f19601f820116820180604052508101906105b291906113e5565b6105f1576040517f08c379a00000000000000000000000000000000000000000000000000000000081526004016105e8906115e3565b60405180910390fd5b80602001513414610637576040517f08c379a000000000000000000000000000000000000000000000000000000000815260040161062e9061164f565b60405180910390fd5b600460009054906101000a900473ffffffffffffffffffffffffffffffffffffffff1673ffffffffffffffffffffffffffffffffffffffff166380a77be6896040518263ffffffff1660e01b8152600401610692919061166f565b600060405180830381600087803b1580156106ac57600080fd5b505af11580156106c0573d6000803e3d6000fd5b505050506000600260009054906101000a900473ffffffffffffffffffffffffffffffffffffffff1673ffffffffffffffffffffffffffffffffffffffff1663fc19034b336040518263ffffffff1660e01b81526004016107219190610cb1565b6020604051808303816000875af1158015610740573d6000803e3d6000fd5b505050506040513d601f19601f82011682018060405250810190610764919061168a565b9050600360009054906101000a900473ffffffffffffffffffffffffffffffffffffffff1673ffffffffffffffffffffffffffffffffffffffff166389701db5346040518263ffffffff1660e01b81526004016107c191906116b7565b600060405180830381600087803b1580156107db57600080fd5b505af11580156107ef573d6000803e3d6000fd5b50505050600160009054906101000a900473ffffffffffffffffffffffffffffffffffffffff1673ffffffffffffffffffffffffffffffffffffffff1663f76e8ba9338e8e8e6040518563ffffffff1660e01b815260040161085494939291906116d2565b600060405180830381600087803b15801561086e57600080fd5b505af1158015610882573d6000803e3d6000fd5b505050503373ffffffffffffffffffffffffffffffffffffffff168c7f99f38cf3feaad38e0a2e22ef51bdd4faba32b432520a951248d77057596a425a836040516108cd919061175a565b60405180910390a3505050505050505050505050565b600260009054906101000a900473ffffffffffffffffffffffffffffffffffffffff1681565b600560149054906101000a900460ff1681565b600360009054906101000a900473ffffffffffffffffffffffffffffffffffffffff1681565b61094a6109ee565b600073ffffffffffffffffffffffffffffffffffffffff168173ffffffffffffffffffffffffffffffffffffffff16036109bc5760006040517f1e4fbdf70000000000000000000000000000000000000000000000000000000081526004016109b39190610cb1565b60405180910390fd5b6109c581610a75565b50565b600460009054906101000a900473ffffffffffffffffffffffffffffffffffffffff1681565b6109f6610b39565b73ffffffffffffffffffffffffffffffffffffffff16610a146102d8565b73ffffffffffffffffffffffffffffffffffffffff1614610a7357610a37610b39565b6040517f118cdaa7000000000000000000000000000000000000000000000000000000008152600401610a6a9190610cb1565b60405180910390fd5b565b60008060009054906101000a900473ffffffffffffffffffffffffffffffffffffffff169050816000806101000a81548173ffffffffffffffffffffffffffffffffffffffff021916908373ffffffffffffffffffffffffffffffffffffffff1602179055508173ffffffffffffffffffffffffffffffffffffffff168173ffffffffffffffffffffffffffffffffffffffff167f8be0079c531659141344cd1fd0a4f28419497f9722a3daafe3b4186f6b6457e060405160405180910390a35050565b600033905090565b6000604051905090565b600080fd5b600080fd5b60008115159050919050565b610b6a81610b55565b8114610b7557600080fd5b50565b600081359050610b8781610b61565b92915050565b600060208284031215610ba357610ba2610b4b565b5b6000610bb184828501610b78565b91505092915050565b600073ffffffffffffffffffffffffffffffffffffffff82169050919050565b6000819050919050565b6000610bff610bfa610bf584610bba565b610bda565b610bba565b9050919050565b6000610c1182610be4565b9050919050565b6000610c2382610c06565b9050919050565b610c3381610c18565b82525050565b6000602082019050610c4e6000830184610c2a565b92915050565b6000610c5f82610c06565b9050919050565b610c6f81610c54565b82525050565b6000602082019050610c8a6000830184610c66565b92915050565b6000610c9b82610bba565b9050919050565b610cab81610c90565b82525050565b6000602082019050610cc66000830184610ca2565b92915050565b6000819050919050565b610cdf81610ccc565b8114610cea57600080fd5b50565b600081359050610cfc81610cd6565b92915050565b600080fd5b600080fd5b600080fd5b60008083601f840112610d2757610d26610d02565b5b8235905067ffffffffffffffff811115610d4457610d43610d07565b5b602083019150836001820283011115610d6057610d5f610d0c565b5b9250929050565b6000819050919050565b610d7a81610d67565b8114610d8557600080fd5b50565b600081359050610d9781610d71565b92915050565b60008083601f840112610db357610db2610d02565b5b8235905067ffffffffffffffff811115610dd057610dcf610d07565b5b602083019150836001820283011115610dec57610deb610d0c565b5b9250929050565b60008083601f840112610e0957610e08610d02565b5b8235905067ffffffffffffffff811115610e2657610e25610d07565b5b602083019150836020820283011115610e4257610e41610d0c565b5b9250929050565b600080600080600080600080600060c08a8c031215610e6b57610e6a610b4b565b5b6000610e798c828d01610ced565b99505060208a013567ffffffffffffffff811115610e9a57610e99610b50565b5b610ea68c828d01610d11565b98509850506040610eb98c828d01610d88565b9650506060610eca8c828d01610ced565b95505060808a013567ffffffffffffffff811115610eeb57610eea610b50565b5b610ef78c828d01610d9d565b945094505060a08a013567ffffffffffffffff811115610f1a57610f19610b50565b5b610f268c828d01610df3565b92509250509295985092959850929598565b6000610f4382610c06565b9050919050565b610f5381610f38565b82525050565b6000602082019050610f6e6000830184610f4a565b92915050565b610f7d81610b55565b82525050565b6000602082019050610f986000830184610f74565b92915050565b6000610fa982610c06565b9050919050565b610fb981610f9e565b82525050565b6000602082019050610fd46000830184610fb0565b92915050565b610fe381610c90565b8114610fee57600080fd5b50565b60008135905061100081610fda565b92915050565b60006020828403121561101c5761101b610b4b565b5b600061102a84828501610ff1565b91505092915050565b600061103e82610c06565b9050919050565b61104e81611033565b82525050565b60006020820190506110696000830184611045565b92915050565b600082825260208201905092915050565b7f436f6e7472616374206973207061757365640000000000000000000000000000600082015250565b60006110b660128361106f565b91506110c182611080565b602082019050919050565b600060208201905081810360008301526110e5816110a9565b9050919050565b6000815190506110fb81610cd6565b92915050565b600080fd5b6000601f19601f8301169050919050565b7f4e487b7100000000000000000000000000000000000000000000000000000000600052604160045260246000fd5b61114f82611106565b810181811067ffffffffffffffff8211171561116e5761116d611117565b5b80604052505050565b6000611181610b41565b905061118d8282611146565b919050565b6004811061119f57600080fd5b50565b6000815190506111b181611192565b92915050565b6000815190506111c681610d71565b92915050565b600061010082840312156111e3576111e2611101565b5b6111ee610100611177565b905060006111fe848285016111a2565b6000830152506020611212848285016110ec565b6020830152506040611226848285016110ec565b604083015250606061123a848285016110ec565b606083015250608061124e848285016110ec565b60808301525060a0611262848285016110ec565b60a08301525060c0611276848285016110ec565b60c08301525060e061128a848285016111b7565b60e08301525092915050565b60008061012083850312156112ae576112ad610b4b565b5b60006112bc858286016110ec565b92505060206112cd858286016111cc565b9150509250929050565b7f4e487b7100000000000000000000000000000000000000000000000000000000600052602160045260246000fd5b61130f81610d67565b82525050565b600082825260208201905092915050565b600080fd5b82818337505050565b60006113408385611315565b93507f07ffffffffffffffffffffffffffffffffffffffffffffffffffffffffffffff83111561137357611372611326565b5b60208302925061138483858461132b565b82840190509392505050565b60006060820190506113a56000830187610ca2565b6113b26020830186611306565b81810360408301526113c5818486611334565b905095945050505050565b6000815190506113df81610b61565b92915050565b6000602082840312156113fb576113fa610b4b565b5b6000611409848285016113d0565b91505092915050565b7f4e6f742077686974656c697374656420666f7220746869732070686173650000600082015250565b6000611448601e8361106f565b915061145382611412565b602082019050919050565b600060208201905081810360008301526114778161143b565b9050919050565b61148781610ccc565b82525050565b82818337600083830152505050565b60006114a8838561106f565b93506114b583858461148d565b6114be83611106565b840190509392505050565b600082825260208201905092915050565b60006114e683856114c9565b93506114f383858461148d565b6114fc83611106565b840190509392505050565b60006101008201905061151d600083018d610ca2565b61152a602083018c61147e565b818103604083015261153d818a8c61149c565b905061154c606083018961147e565b611559608083018861147e565b61156660a0830187611306565b61157360c083018661147e565b81810360e08301526115868184866114da565b90509b9a5050505050505050505050565b7f496e76616c6964207369676e6174757265000000000000000000000000000000600082015250565b60006115cd60118361106f565b91506115d882611597565b602082019050919050565b600060208201905081810360008301526115fc816115c0565b9050919050565b7f496e636f7272656374207061796d656e7420616d6f756e740000000000000000600082015250565b600061163960188361106f565b915061164482611603565b602082019050919050565b600060208201905081810360008301526116688161162c565b9050919050565b60006020820190506116846000830184611306565b92915050565b6000602082840312156116a05761169f610b4b565b5b60006116ae848285016111a2565b91505092915050565b60006020820190506116cc600083018461147e565b92915050565b60006060820190506116e76000830187610ca2565b6116f4602083018661147e565b818103604083015261170781848661149c565b905095945050505050565b60048110611723576117226112d7565b5b50565b600081905061173482611712565b919050565b600061174482611726565b9050919050565b61175481611739565b82525050565b600060208201905061176f600083018461174b565b9291505056fea264697066735822122086353be93fa302360a686ac83ce66f873c167abd35287fb5125d47299d51aa6664736f6c634300081b0033a2646970667358221220c6180e78f3b95d6ee533524489805c8d47d61a5e874ccfa6b59489931e49842e64736f6c634300081b0033",
  "linkReferences": {},
  "deployedLinkReferences": {}
}