{"contracts/MPMNFT.sol":{"MPMNFT":{"abi":[{"inputs":[{"internalType":"address","name":"initialOwner","type":"address"},{"internalType":"string","name":"contractName","type":"string"},{"internalType":"string","name":"symbol","type":"string"},{"internalType":"uint256","name":"_mintFee","type":"uint256"}],"stateMutability":"nonpayable","type":"constructor"},{"inputs":[],"name":"ERC721EnumerableForbiddenBatchMint","type":"error"},{"inputs":[{"internalType":"address","name":"sender","type":"address"},{"internalType":"uint256","name":"tokenId","type":"uint256"},{"internalType":"address","name":"owner","type":"address"}],"name":"ERC721IncorrectOwner","type":"error"},{"inputs":[{"internalType":"address","name":"operator","type":"address"},{"internalType":"uint256","name":"tokenId","type":"uint256"}],"name":"ERC721InsufficientApproval","type":"error"},{"inputs":[{"internalType":"address","name":"approver","type":"address"}],"name":"ERC721InvalidApprover","type":"error"},{"inputs":[{"internalType":"address","name":"operator","type":"address"}],"name":"ERC721InvalidOperator","type":"error"},{"inputs":[{"internalType":"address","name":"owner","type":"address"}],"name":"ERC721InvalidOwner","type":"error"},{"inputs":[{"internalType":"address","name":"receiver","type":"address"}],"name":"ERC721InvalidReceiver","type":"error"},{"inputs":[{"internalType":"address","name":"sender","type":"address"}],"name":"ERC721InvalidSender","type":"error"},{"inputs":[{"internalType":"uint256","name":"tokenId","type":"uint256"}],"name":"ERC721NonexistentToken","type":"error"},{"inputs":[{"internalType":"address","name":"owner","type":"address"},{"internalType":"uint256","name":"index","type":"uint256"}],"name":"ERC721OutOfBoundsIndex","type":"error"},{"inputs":[{"internalType":"address","name":"owner","type":"address"}],"name":"OwnableInvalidOwner","type":"error"},{"inputs":[{"internalType":"address","name":"account","type":"address"}],"name":"OwnableUnauthorizedAccount","type":"error"},{"anonymous":false,"inputs":[{"indexed":true,"internalType":"address","name":"owner","type":"address"},{"indexed":true,"internalType":"address","name":"approved","type":"address"},{"indexed":true,"internalType":"uint256","name":"tokenId","type":"uint256"}],"name":"Approval","type":"event"},{"anonymous":false,"inputs":[{"indexed":true,"internalType":"address","name":"owner","type":"address"},{"indexed":true,"internalType":"address","name":"operator","type":"address"},{"indexed":false,"internalType":"bool","name":"approved","type":"bool"}],"name":"ApprovalForAll","type":"event"},{"anonymous":false,"inputs":[{"indexed":false,"internalType":"uint256","name":"_fromTokenId","type":"uint256"},{"indexed":false,"internalType":"uint256","name":"_toTokenId","type":"uint256"}],"name":"BatchMetadataUpdate","type":"event"},{"anonymous":false,"inputs":[{"indexed":false,"internalType":"uint256","name":"_tokenId","type":"uint256"}],"name":"MetadataUpdate","type":"event"},{"anonymous":false,"inputs":[{"indexed":true,"internalType":"address","name":"previousOwner","type":"address"},{"indexed":true,"internalType":"address","name":"newOwner","type":"address"}],"name":"OwnershipTransferred","type":"event"},{"anonymous":false,"inputs":[{"indexed":true,"internalType":"address","name":"from","type":"address"},{"indexed":true,"internalType":"address","name":"to","type":"address"},{"indexed":true,"internalType":"uint256","name":"tokenId","type":"uint256"}],"name":"Transfer","type":"event"},{"inputs":[{"internalType":"address","name":"to","type":"address"},{"internalType":"uint256","name":"tokenId","type":"uint256"}],"name":"approve","outputs":[],"stateMutability":"nonpayable","type":"function"},{"inputs":[{"internalType":"address","name":"owner","type":"address"}],"name":"balanceOf","outputs":[{"internalType":"uint256","name":"","type":"uint256"}],"stateMutability":"view","type":"function"},{"inputs":[{"internalType":"address","name":"to","type":"address"},{"internalType":"uint256","name":"quantity","type":"uint256"},{"internalType":"string[]","name":"uris","type":"string[]"}],"name":"batchMint","outputs":[],"stateMutability":"nonpayable","type":"function"},{"inputs":[{"internalType":"uint256","name":"tokenId","type":"uint256"}],"name":"getApproved","outputs":[{"internalType":"address","name":"","type":"address"}],"stateMutability":"view","type":"function"},{"inputs":[{"internalType":"address","name":"owner","type":"address"},{"internalType":"address","name":"operator","type":"address"}],"name":"isApprovedForAll","outputs":[{"internalType":"bool","name":"","type":"bool"}],"stateMutability":"view","type":"function"},{"inputs":[{"internalType":"uint256","name":"tokenId","type":"uint256"},{"internalType":"string","name":"uri","type":"string"}],"name":"mint","outputs":[],"stateMutability":"payable","type":"function"},{"inputs":[],"name":"mintFee","outputs":[{"internalType":"uint256","name":"","type":"uint256"}],"stateMutability":"view","type":"function"},{"inputs":[],"name":"name","outputs":[{"internalType":"string","name":"","type":"string"}],"stateMutability":"view","type":"function"},{"inputs":[],"name":"owner","outputs":[{"internalType":"address","name":"","type":"address"}],"stateMutability":"view","type":"function"},{"inputs":[{"internalType":"uint256","name":"tokenId","type":"uint256"}],"name":"ownerOf","outputs":[{"internalType":"address","name":"","type":"address"}],"stateMutability":"view","type":"function"},{"inputs":[],"name":"renounceOwnership","outputs":[],"stateMutability":"nonpayable","type":"function"},{"inputs":[{"internalType":"address","name":"to","type":"address"},{"internalType":"uint256","name":"tokenId","type":"uint256"},{"internalType":"string","name":"uri","type":"string"}],"name":"safeMint","outputs":[],"stateMutability":"nonpayable","type":"function"},{"inputs":[{"internalType":"address","name":"from","type":"address"},{"internalType":"address","name":"to","type":"address"},{"internalType":"uint256","name":"tokenId","type":"uint256"}],"name":"safeTransferFrom","outputs":[],"stateMutability":"nonpayable","type":"function"},{"inputs":[{"internalType":"address","name":"from","type":"address"},{"internalType":"address","name":"to","type":"address"},{"internalType":"uint256","name":"tokenId","type":"uint256"},{"internalType":"bytes","name":"data","type":"bytes"}],"name":"safeTransferFrom","outputs":[],"stateMutability":"nonpayable","type":"function"},{"inputs":[{"internalType":"address","name":"operator","type":"address"},{"internalType":"bool","name":"approved","type":"bool"}],"name":"setApprovalForAll","outputs":[],"stateMutability":"nonpayable","type":"function"},{"inputs":[{"internalType":"uint256","name":"_mintFee","type":"uint256"}],"name":"setMintFee","outputs":[],"stateMutability":"nonpayable","type":"function"},{"inputs":[{"internalType":"bytes4","name":"interfaceId","type":"bytes4"}],"name":"supportsInterface","outputs":[{"internalType":"bool","name":"","type":"bool"}],"stateMutability":"view","type":"function"},{"inputs":[],"name":"symbol","outputs":[{"internalType":"string","name":"","type":"string"}],"stateMutability":"view","type":"function"},{"inputs":[{"internalType":"uint256","name":"index","type":"uint256"}],"name":"tokenByIndex","outputs":[{"internalType":"uint256","name":"","type":"uint256"}],"stateMutability":"view","type":"function"},{"inputs":[{"internalType":"address","name":"owner","type":"address"},{"internalType":"uint256","name":"index","type":"uint256"}],"name":"tokenOfOwnerByIndex","outputs":[{"internalType":"uint256","name":"","type":"uint256"}],"stateMutability":"view","type":"function"},{"inputs":[{"internalType":"uint256","name":"tokenId","type":"uint256"}],"name":"tokenURI","outputs":[{"internalType":"string","name":"","type":"string"}],"stateMutability":"view","type":"function"},{"inputs":[],"name":"totalSupply","outputs":[{"internalType":"uint256","name":"","type":"uint256"}],"stateMutability":"view","type":"function"},{"inputs":[{"internalType":"address","name":"from","type":"address"},{"internalType":"address","name":"to","type":"address"},{"internalType":"uint256","name":"tokenId","type":"uint256"}],"name":"transferFrom","outputs":[],"stateMutability":"nonpayable","type":"function"},{"inputs":[{"internalType":"address","name":"newOwner","type":"address"}],"name":"transferOwnership","outputs":[],"stateMutability":"nonpayable","type":"function"},{"inputs":[],"name":"withdraw","outputs":[],"stateMutability":"nonpayable","type":"function"}],"evm":{"bytecode":{"linkReferences":{},"object":"608060405234801561001057600080fd5b50604051613e4b380380613e4b833981810160405281019061003291906103b8565b8383838160009081610044919061066e565b508060019081610054919061066e565b505050600073ffffffffffffffffffffffffffffffffffffffff168173ffffffffffffffffffffffffffffffffffffffff16036100c95760006040517f1e4fbdf70000000000000000000000000000000000000000000000000000000081526004016100c0919061074f565b60405180910390fd5b6100d8816100e960201b60201c565b5080600d819055505050505061076a565b6000600760009054906101000a900473ffffffffffffffffffffffffffffffffffffffff16905081600760006101000a81548173ffffffffffffffffffffffffffffffffffffffff021916908373ffffffffffffffffffffffffffffffffffffffff1602179055508173ffffffffffffffffffffffffffffffffffffffff168173ffffffffffffffffffffffffffffffffffffffff167f8be0079c531659141344cd1fd0a4f28419497f9722a3daafe3b4186f6b6457e060405160405180910390a35050565b6000604051905090565b600080fd5b600080fd5b600073ffffffffffffffffffffffffffffffffffffffff82169050919050565b60006101ee826101c3565b9050919050565b6101fe816101e3565b811461020957600080fd5b50565b60008151905061021b816101f5565b92915050565b600080fd5b600080fd5b6000601f19601f8301169050919050565b7f4e487b7100000000000000000000000000000000000000000000000000000000600052604160045260246000fd5b6102748261022b565b810181811067ffffffffffffffff821117156102935761029261023c565b5b80604052505050565b60006102a66101af565b90506102b2828261026b565b919050565b600067ffffffffffffffff8211156102d2576102d161023c565b5b6102db8261022b565b9050602081019050919050565b60005b838110156103065780820151818401526020810190506102eb565b60008484015250505050565b6000610325610320846102b7565b61029c565b90508281526020810184848401111561034157610340610226565b5b61034c8482856102e8565b509392505050565b600082601f83011261036957610368610221565b5b8151610379848260208601610312565b91505092915050565b6000819050919050565b61039581610382565b81146103a057600080fd5b50565b6000815190506103b28161038c565b92915050565b600080600080608085870312156103d2576103d16101b9565b5b60006103e08782880161020c565b945050602085015167ffffffffffffffff811115610401576104006101be565b5b61040d87828801610354565b935050604085015167ffffffffffffffff81111561042e5761042d6101be565b5b61043a87828801610354565b925050606061044b878288016103a3565b91505092959194509250565b600081519050919050565b7f4e487b7100000000000000000000000000000000000000000000000000000000600052602260045260246000fd5b600060028204905060018216806104a957607f821691505b6020821081036104bc576104bb610462565b5b50919050565b60008190508160005260206000209050919050565b60006020601f8301049050919050565b600082821b905092915050565b6000600883026105247fffffffffffffffffffffffffffffffffffffffffffffffffffffffffffffffff826104e7565b61052e86836104e7565b95508019841693508086168417925050509392505050565b6000819050919050565b600061056b61056661056184610382565b610546565b610382565b9050919050565b6000819050919050565b61058583610550565b61059961059182610572565b8484546104f4565b825550505050565b600090565b6105ae6105a1565b6105b981848461057c565b505050565b5b818110156105dd576105d26000826105a6565b6001810190506105bf565b5050565b601f821115610622576105f3816104c2565b6105fc846104d7565b8101602085101561060b578190505b61061f610617856104d7565b8301826105be565b50505b505050565b600082821c905092915050565b600061064560001984600802610627565b1980831691505092915050565b600061065e8383610634565b9150826002028217905092915050565b61067782610457565b67ffffffffffffffff8111156106905761068f61023c565b5b61069a8254610491565b6106a58282856105e1565b600060209050601f8311600181146106d857600084156106c6578287015190505b6106d08582610652565b865550610738565b601f1984166106e6866104c2565b60005b8281101561070e578489015182556001820191506020850194506020810190506106e9565b8683101561072b5784890151610727601f891682610634565b8355505b6001600288020188555050505b505050505050565b610749816101e3565b82525050565b60006020820190506107646000830184610740565b92915050565b6136d2806107796000396000f3fe6080604052600436106101665760003560e01c806370a08231116100d1578063b88d4fde1161008a578063cd279c7c11610064578063cd279c7c1461052d578063e985e9c514610556578063eddd0d9c14610593578063f2fde38b146105bc57610166565b8063b88d4fde1461049e578063c87b56dd146104c7578063cc28ec331461050457610166565b806370a08231146103af578063715018a6146103ec57806377097fc8146104035780638da5cb5b1461041f57806395d89b411461044a578063a22cb4651461047557610166565b806323b872dd1161012357806323b872dd1461028f5780632f745c59146102b85780633ccfd60b146102f557806342842e0e1461030c5780634f6ccce7146103355780636352211e1461037257610166565b806301ffc9a71461016b57806306fdde03146101a8578063081812fc146101d3578063095ea7b31461021057806313966db51461023957806318160ddd14610264575b600080fd5b34801561017757600080fd5b50610192600480360381019061018d919061264c565b6105e5565b60405161019f9190612694565b60405180910390f35b3480156101b457600080fd5b506101bd6105f7565b6040516101ca919061273f565b60405180910390f35b3480156101df57600080fd5b506101fa60048036038101906101f59190612797565b610689565b6040516102079190612805565b60405180910390f35b34801561021c57600080fd5b506102376004803603810190610232919061284c565b6106a5565b005b34801561024557600080fd5b5061024e6106bb565b60405161025b919061289b565b60405180910390f35b34801561027057600080fd5b506102796106c1565b604051610286919061289b565b60405180910390f35b34801561029b57600080fd5b506102b660048036038101906102b191906128b6565b6106ce565b005b3480156102c457600080fd5b506102df60048036038101906102da919061284c565b6107d0565b6040516102ec919061289b565b60405180910390f35b34801561030157600080fd5b5061030a610879565b005b34801561031857600080fd5b50610333600480360381019061032e91906128b6565b610937565b005b34801561034157600080fd5b5061035c60048036038101906103579190612797565b610957565b604051610369919061289b565b60405180910390f35b34801561037e57600080fd5b5061039960048036038101906103949190612797565b6109cd565b6040516103a69190612805565b60405180910390f35b3480156103bb57600080fd5b506103d660048036038101906103d19190612909565b6109df565b6040516103e3919061289b565b60405180910390f35b3480156103f857600080fd5b50610401610a99565b005b61041d60048036038101906104189190612a6b565b610aad565b005b34801561042b57600080fd5b50610434610b97565b6040516104419190612805565b60405180910390f35b34801561045657600080fd5b5061045f610bc1565b60405161046c919061273f565b60405180910390f35b34801561048157600080fd5b5061049c60048036038101906104979190612af3565b610c53565b005b3480156104aa57600080fd5b506104c560048036038101906104c09190612bd4565b610c69565b005b3480156104d357600080fd5b506104ee60048036038101906104e99190612797565b610c8e565b6040516104fb919061273f565b60405180910390f35b34801561051057600080fd5b5061052b60048036038101906105269190612d3d565b610ca0565b005b34801561053957600080fd5b50610554600480360381019061054f9190612dac565b610de4565b005b34801561056257600080fd5b5061057d60048036038101906105789190612e1b565b610e92565b60405161058a9190612694565b60405180910390f35b34801561059f57600080fd5b506105ba60048036038101906105b59190612797565b610f26565b005b3480156105c857600080fd5b506105e360048036038101906105de9190612909565b610f38565b005b60006105f082610fbe565b9050919050565b60606000805461060690612e8a565b80601f016020809104026020016040519081016040528092919081815260200182805461063290612e8a565b801561067f5780601f106106545761010080835404028352916020019161067f565b820191906000526020600020905b81548152906001019060200180831161066257829003601f168201915b5050505050905090565b600061069482611038565b5061069e826110c0565b9050919050565b6106b782826106b26110fd565b611105565b5050565b600d5481565b6000600a80549050905090565b600073ffffffffffffffffffffffffffffffffffffffff168273ffffffffffffffffffffffffffffffffffffffff16036107405760006040517f64a0ae920000000000000000000000000000000000000000000000000000000081526004016107379190612805565b60405180910390fd5b6000610754838361074f6110fd565b611117565b90508373ffffffffffffffffffffffffffffffffffffffff168173ffffffffffffffffffffffffffffffffffffffff16146107ca578382826040517f64283d7b0000000000000000000000000000000000000000000000000000000081526004016107c193929190612ebb565b60405180910390fd5b50505050565b60006107db836109df565b82106108205782826040517fa57d13dc000000000000000000000000000000000000000000000000000000008152600401610817929190612ef2565b60405180910390fd5b600860008473ffffffffffffffffffffffffffffffffffffffff1673ffffffffffffffffffffffffffffffffffffffff168152602001908152602001600020600083815260200190815260200160002054905092915050565b61088161112d565b600061088b610b97565b73ffffffffffffffffffffffffffffffffffffffff16476040516108ae90612f4c565b60006040518083038185875af1925050503d80600081146108eb576040519150601f19603f3d011682016040523d82523d6000602084013e6108f0565b606091505b5050905080610934576040517f08c379a000000000000000000000000000000000000000000000000000000000815260040161092b90612fad565b60405180910390fd5b50565b61095283838360405180602001604052806000815250610c69565b505050565b60006109616106c1565b82106109a7576000826040517fa57d13dc00000000000000000000000000000000000000000000000000000000815260040161099e929190612ef2565b60405180910390fd5b600a82815481106109bb576109ba612fcd565b5b90600052602060002001549050919050565b60006109d882611038565b9050919050565b60008073ffffffffffffffffffffffffffffffffffffffff168273ffffffffffffffffffffffffffffffffffffffff1603610a525760006040517f89c62b64000000000000000000000000000000000000000000000000000000008152600401610a499190612805565b60405180910390fd5b600360008373ffffffffffffffffffffffffffffffffffffffff1673ffffffffffffffffffffffffffffffffffffffff168152602001908152602001600020549050919050565b610aa161112d565b610aab60006111b4565b565b600d54341015610af2576040517f08c379a0000000000000000000000000000000000000000000000000000000008152600401610ae990613048565b60405180910390fd5b600e600083815260200190815260200160002060009054906101000a900460ff1615610b53576040517f08c379a0000000000000000000000000000000000000000000000000000000008152600401610b4a906130b4565b60405180910390fd5b6001600e600084815260200190815260200160002060006101000a81548160ff021916908315150217905550610b89338361127a565b610b938282611298565b5050565b6000600760009054906101000a900473ffffffffffffffffffffffffffffffffffffffff16905090565b606060018054610bd090612e8a565b80601f0160208091040260200160405190810160405280929190818152602001828054610bfc90612e8a565b8015610c495780601f10610c1e57610100808354040283529160200191610c49565b820191906000526020600020905b815481529060010190602001808311610c2c57829003601f168201915b5050505050905090565b610c65610c5e6110fd565b83836112f4565b5050565b610c748484846106ce565b610c88610c7f6110fd565b85858585611463565b50505050565b6060610c9982611614565b9050919050565b610ca861112d565b80518214610ceb576040517f08c379a0000000000000000000000000000000000000000000000000000000008152600401610ce290613146565b60405180910390fd5b60005b82811015610dde576000600c549050600c6000815480929190610d1090613195565b9190505550600e600082815260200190815260200160002060009054906101000a900460ff1615610d76576040517f08c379a0000000000000000000000000000000000000000000000000000000008152600401610d6d90613229565b60405180910390fd5b6001600e600083815260200190815260200160002060006101000a81548160ff021916908315150217905550610dac858261127a565b610dd081848481518110610dc357610dc2612fcd565b5b6020026020010151611298565b508080600101915050610cee565b50505050565b610dec61112d565b600e600083815260200190815260200160002060009054906101000a900460ff1615610e4d576040517f08c379a0000000000000000000000000000000000000000000000000000000008152600401610e4490613229565b60405180910390fd5b6001600e600084815260200190815260200160002060006101000a81548160ff021916908315150217905550610e83838361127a565b610e8d8282611298565b505050565b6000600560008473ffffffffffffffffffffffffffffffffffffffff1673ffffffffffffffffffffffffffffffffffffffff16815260200190815260200160002060008373ffffffffffffffffffffffffffffffffffffffff1673ffffffffffffffffffffffffffffffffffffffff16815260200190815260200160002060009054906101000a900460ff16905092915050565b610f2e61112d565b80600d8190555050565b610f4061112d565b600073ffffffffffffffffffffffffffffffffffffffff168173ffffffffffffffffffffffffffffffffffffffff1603610fb25760006040517f1e4fbdf7000000000000000000000000000000000000000000000000000000008152600401610fa99190612805565b60405180910390fd5b610fbb816111b4565b50565b60007f780e9d63000000000000000000000000000000000000000000000000000000007bffffffffffffffffffffffffffffffffffffffffffffffffffffffff1916827bffffffffffffffffffffffffffffffffffffffffffffffffffffffff19161480611031575061103082611727565b5b9050919050565b60008061104483611788565b9050600073ffffffffffffffffffffffffffffffffffffffff168173ffffffffffffffffffffffffffffffffffffffff16036110b757826040517f7e2732890000000000000000000000000000000000000000000000000000000081526004016110ae919061289b565b60405180910390fd5b80915050919050565b60006004600083815260200190815260200160002060009054906101000a900473ffffffffffffffffffffffffffffffffffffffff169050919050565b600033905090565b61111283838360016117c5565b505050565b600061112484848461198a565b90509392505050565b6111356110fd565b73ffffffffffffffffffffffffffffffffffffffff16611153610b97565b73ffffffffffffffffffffffffffffffffffffffff16146111b2576111766110fd565b6040517f118cdaa70000000000000000000000000000000000000000000000000000000081526004016111a99190612805565b60405180910390fd5b565b6000600760009054906101000a900473ffffffffffffffffffffffffffffffffffffffff16905081600760006101000a81548173ffffffffffffffffffffffffffffffffffffffff021916908373ffffffffffffffffffffffffffffffffffffffff1602179055508173ffffffffffffffffffffffffffffffffffffffff168173ffffffffffffffffffffffffffffffffffffffff167f8be0079c531659141344cd1fd0a4f28419497f9722a3daafe3b4186f6b6457e060405160405180910390a35050565b611294828260405180602001604052806000815250611aa7565b5050565b806006600084815260200190815260200160002090816112b891906133f5565b507ff8e1a15aba9398e019f0b49df1a4fde98ee17ae345cb5f6b5e2c27f5033e8ce7826040516112e8919061289b565b60405180910390a15050565b600073ffffffffffffffffffffffffffffffffffffffff168273ffffffffffffffffffffffffffffffffffffffff160361136557816040517f5b08ba1800000000000000000000000000000000000000000000000000000000815260040161135c9190612805565b60405180910390fd5b80600560008573ffffffffffffffffffffffffffffffffffffffff1673ffffffffffffffffffffffffffffffffffffffff16815260200190815260200160002060008473ffffffffffffffffffffffffffffffffffffffff1673ffffffffffffffffffffffffffffffffffffffff16815260200190815260200160002060006101000a81548160ff0219169083151502179055508173ffffffffffffffffffffffffffffffffffffffff168373ffffffffffffffffffffffffffffffffffffffff167f17307eab39ab6107e8899845ad3d59bd9653f200f220920489ca2b5937696c31836040516114569190612694565b60405180910390a3505050565b60008373ffffffffffffffffffffffffffffffffffffffff163b111561160d578273ffffffffffffffffffffffffffffffffffffffff1663150b7a02868685856040518563ffffffff1660e01b81526004016114c2949392919061351c565b6020604051808303816000875af19250505080156114fe57506040513d601f19601f820116820180604052508101906114fb919061357d565b60015b611582573d806000811461152e576040519150601f19603f3d011682016040523d82523d6000602084013e611533565b606091505b50600081510361157a57836040517f64a0ae920000000000000000000000000000000000000000000000000000000081526004016115719190612805565b60405180910390fd5b805181602001fd5b63150b7a0260e01b7bffffffffffffffffffffffffffffffffffffffffffffffffffffffff1916817bffffffffffffffffffffffffffffffffffffffffffffffffffffffff19161461160b57836040517f64a0ae920000000000000000000000000000000000000000000000000000000081526004016116029190612805565b60405180910390fd5b505b5050505050565b606061161f82611038565b50600060066000848152602001908152602001600020805461164090612e8a565b80601f016020809104026020016040519081016040528092919081815260200182805461166c90612e8a565b80156116b95780601f1061168e576101008083540402835291602001916116b9565b820191906000526020600020905b81548152906001019060200180831161169c57829003601f168201915b5050505050905060006116ca611acb565b905060008151036116df578192505050611722565b6000825111156117145780826040516020016116fc9291906135e6565b60405160208183030381529060405292505050611722565b61171d84611ae2565b925050505b919050565b6000634906490660e01b7bffffffffffffffffffffffffffffffffffffffffffffffffffffffff1916827bffffffffffffffffffffffffffffffffffffffffffffffffffffffff19161480611781575061178082611b4b565b5b9050919050565b60006002600083815260200190815260200160002060009054906101000a900473ffffffffffffffffffffffffffffffffffffffff169050919050565b80806117fe5750600073ffffffffffffffffffffffffffffffffffffffff168273ffffffffffffffffffffffffffffffffffffffff1614155b1561193257600061180e84611038565b9050600073ffffffffffffffffffffffffffffffffffffffff168373ffffffffffffffffffffffffffffffffffffffff161415801561187957508273ffffffffffffffffffffffffffffffffffffffff168173ffffffffffffffffffffffffffffffffffffffff1614155b801561188c575061188a8184610e92565b155b156118ce57826040517fa9fbf51f0000000000000000000000000000000000000000000000000000000081526004016118c59190612805565b60405180910390fd5b811561193057838573ffffffffffffffffffffffffffffffffffffffff168273ffffffffffffffffffffffffffffffffffffffff167f8c5be1e5ebec7d5bd14f71427d1e84f3dd0314c0f7b2291e5b200ac8c7c3b92560405160405180910390a45b505b836004600085815260200190815260200160002060006101000a81548173ffffffffffffffffffffffffffffffffffffffff021916908373ffffffffffffffffffffffffffffffffffffffff16021790555050505050565b600080611998858585611c2d565b9050600073ffffffffffffffffffffffffffffffffffffffff168173ffffffffffffffffffffffffffffffffffffffff16036119dc576119d784611e47565b611a1b565b8473ffffffffffffffffffffffffffffffffffffffff168173ffffffffffffffffffffffffffffffffffffffff1614611a1a57611a198185611e90565b5b5b600073ffffffffffffffffffffffffffffffffffffffff168573ffffffffffffffffffffffffffffffffffffffff1603611a5d57611a5884611f7b565b611a9c565b8473ffffffffffffffffffffffffffffffffffffffff168173ffffffffffffffffffffffffffffffffffffffff1614611a9b57611a9a858561204c565b5b5b809150509392505050565b611ab183836120d7565b611ac6611abc6110fd565b6000858585611463565b505050565b606060405180602001604052806000815250905090565b6060611aed82611038565b506000611af8611acb565b90506000815111611b185760405180602001604052806000815250611b43565b80611b22846121d0565b604051602001611b339291906135e6565b6040516020818303038152906040525b915050919050565b60007f80ac58cd000000000000000000000000000000000000000000000000000000007bffffffffffffffffffffffffffffffffffffffffffffffffffffffff1916827bffffffffffffffffffffffffffffffffffffffffffffffffffffffff19161480611c1657507f5b5e139f000000000000000000000000000000000000000000000000000000007bffffffffffffffffffffffffffffffffffffffffffffffffffffffff1916827bffffffffffffffffffffffffffffffffffffffffffffffffffffffff1916145b80611c265750611c258261229e565b5b9050919050565b600080611c3984611788565b9050600073ffffffffffffffffffffffffffffffffffffffff168373ffffffffffffffffffffffffffffffffffffffff1614611c7b57611c7a818486612308565b5b600073ffffffffffffffffffffffffffffffffffffffff168173ffffffffffffffffffffffffffffffffffffffff1614611d0c57611cbd6000856000806117c5565b6001600360008373ffffffffffffffffffffffffffffffffffffffff1673ffffffffffffffffffffffffffffffffffffffff168152602001908152602001600020600082825403925050819055505b600073ffffffffffffffffffffffffffffffffffffffff168573ffffffffffffffffffffffffffffffffffffffff1614611d8f576001600360008773ffffffffffffffffffffffffffffffffffffffff1673ffffffffffffffffffffffffffffffffffffffff168152602001908152602001600020600082825401925050819055505b846002600086815260200190815260200160002060006101000a81548173ffffffffffffffffffffffffffffffffffffffff021916908373ffffffffffffffffffffffffffffffffffffffff160217905550838573ffffffffffffffffffffffffffffffffffffffff168273ffffffffffffffffffffffffffffffffffffffff167fddf252ad1be2c89b69c2b068fc378daa952ba7f163c4a11628f55a4df523b3ef60405160405180910390a4809150509392505050565b600a80549050600b600083815260200190815260200160002081905550600a81908060018154018082558091505060019003906000526020600020016000909190919091505550565b6000611e9b836109df565b90506000600960008481526020019081526020016000205490506000600860008673ffffffffffffffffffffffffffffffffffffffff1673ffffffffffffffffffffffffffffffffffffffff1681526020019081526020016000209050828214611f475760008160008581526020019081526020016000205490508082600085815260200190815260200160002081905550826009600083815260200190815260200160002081905550505b6009600085815260200190815260200160002060009055806000848152602001908152602001600020600090555050505050565b60006001600a80549050611f8f919061360a565b90506000600b60008481526020019081526020016000205490506000600a8381548110611fbf57611fbe612fcd565b5b9060005260206000200154905080600a8381548110611fe157611fe0612fcd565b5b906000526020600020018190555081600b600083815260200190815260200160002081905550600b600085815260200190815260200160002060009055600a8054806120305761202f61363e565b5b6001900381819060005260206000200160009055905550505050565b60006001612059846109df565b612063919061360a565b905081600860008573ffffffffffffffffffffffffffffffffffffffff1673ffffffffffffffffffffffffffffffffffffffff168152602001908152602001600020600083815260200190815260200160002081905550806009600084815260200190815260200160002081905550505050565b600073ffffffffffffffffffffffffffffffffffffffff168273ffffffffffffffffffffffffffffffffffffffff16036121495760006040517f64a0ae920000000000000000000000000000000000000000000000000000000081526004016121409190612805565b60405180910390fd5b600061215783836000611117565b9050600073ffffffffffffffffffffffffffffffffffffffff168173ffffffffffffffffffffffffffffffffffffffff16146121cb5760006040517f73c6ac6e0000000000000000000000000000000000000000000000000000000081526004016121c29190612805565b60405180910390fd5b505050565b6060600060016121df846123cc565b01905060008167ffffffffffffffff8111156121fe576121fd612940565b5b6040519080825280601f01601f1916602001820160405280156122305781602001600182028036833780820191505090505b509050600082602001820190505b600115612293578080600190039150507f3031323334353637383961626364656600000000000000000000000000000000600a86061a8153600a85816122875761228661366d565b5b0494506000850361223e575b819350505050919050565b60007f01ffc9a7000000000000000000000000000000000000000000000000000000007bffffffffffffffffffffffffffffffffffffffffffffffffffffffff1916827bffffffffffffffffffffffffffffffffffffffffffffffffffffffff1916149050919050565b61231383838361251f565b6123c757600073ffffffffffffffffffffffffffffffffffffffff168373ffffffffffffffffffffffffffffffffffffffff160361238857806040517f7e27328900000000000000000000000000000000000000000000000000000000815260040161237f919061289b565b60405180910390fd5b81816040517f177e802f0000000000000000000000000000000000000000000000000000000081526004016123be929190612ef2565b60405180910390fd5b505050565b600080600090507a184f03e93ff9f4daa797ed6e38ed64bf6a1f010000000000000000831061242a577a184f03e93ff9f4daa797ed6e38ed64bf6a1f01000000000000000083816124205761241f61366d565b5b0492506040810190505b6d04ee2d6d415b85acef81000000008310612467576d04ee2d6d415b85acef8100000000838161245d5761245c61366d565b5b0492506020810190505b662386f26fc10000831061249657662386f26fc10000838161248c5761248b61366d565b5b0492506010810190505b6305f5e10083106124bf576305f5e10083816124b5576124b461366d565b5b0492506008810190505b61271083106124e45761271083816124da576124d961366d565b5b0492506004810190505b6064831061250757606483816124fd576124fc61366d565b5b0492506002810190505b600a8310612516576001810190505b80915050919050565b60008073ffffffffffffffffffffffffffffffffffffffff168373ffffffffffffffffffffffffffffffffffffffff16141580156125d757508273ffffffffffffffffffffffffffffffffffffffff168473ffffffffffffffffffffffffffffffffffffffff16148061259857506125978484610e92565b5b806125d657508273ffffffffffffffffffffffffffffffffffffffff166125be836110c0565b73ffffffffffffffffffffffffffffffffffffffff16145b5b90509392505050565b6000604051905090565b600080fd5b600080fd5b60007fffffffff0000000000000000000000000000000000000000000000000000000082169050919050565b612629816125f4565b811461263457600080fd5b50565b60008135905061264681612620565b92915050565b600060208284031215612662576126616125ea565b5b600061267084828501612637565b91505092915050565b60008115159050919050565b61268e81612679565b82525050565b60006020820190506126a96000830184612685565b92915050565b600081519050919050565b600082825260208201905092915050565b60005b838110156126e95780820151818401526020810190506126ce565b60008484015250505050565b6000601f19601f8301169050919050565b6000612711826126af565b61271b81856126ba565b935061272b8185602086016126cb565b612734816126f5565b840191505092915050565b600060208201905081810360008301526127598184612706565b905092915050565b6000819050919050565b61277481612761565b811461277f57600080fd5b50565b6000813590506127918161276b565b92915050565b6000602082840312156127ad576127ac6125ea565b5b60006127bb84828501612782565b91505092915050565b600073ffffffffffffffffffffffffffffffffffffffff82169050919050565b60006127ef826127c4565b9050919050565b6127ff816127e4565b82525050565b600060208201905061281a60008301846127f6565b92915050565b612829816127e4565b811461283457600080fd5b50565b60008135905061284681612820565b92915050565b60008060408385031215612863576128626125ea565b5b600061287185828601612837565b925050602061288285828601612782565b9150509250929050565b61289581612761565b82525050565b60006020820190506128b0600083018461288c565b92915050565b6000806000606084860312156128cf576128ce6125ea565b5b60006128dd86828701612837565b93505060206128ee86828701612837565b92505060406128ff86828701612782565b9150509250925092565b60006020828403121561291f5761291e6125ea565b5b600061292d84828501612837565b91505092915050565b600080fd5b600080fd5b7f4e487b7100000000000000000000000000000000000000000000000000000000600052604160045260246000fd5b612978826126f5565b810181811067ffffffffffffffff8211171561299757612996612940565b5b80604052505050565b60006129aa6125e0565b90506129b6828261296f565b919050565b600067ffffffffffffffff8211156129d6576129d5612940565b5b6129df826126f5565b9050602081019050919050565b82818337600083830152505050565b6000612a0e612a09846129bb565b6129a0565b905082815260208101848484011115612a2a57612a2961293b565b5b612a358482856129ec565b509392505050565b600082601f830112612a5257612a51612936565b5b8135612a628482602086016129fb565b91505092915050565b60008060408385031215612a8257612a816125ea565b5b6000612a9085828601612782565b925050602083013567ffffffffffffffff811115612ab157612ab06125ef565b5b612abd85828601612a3d565b9150509250929050565b612ad081612679565b8114612adb57600080fd5b50565b600081359050612aed81612ac7565b92915050565b60008060408385031215612b0a57612b096125ea565b5b6000612b1885828601612837565b9250506020612b2985828601612ade565b9150509250929050565b600067ffffffffffffffff821115612b4e57612b4d612940565b5b612b57826126f5565b9050602081019050919050565b6000612b77612b7284612b33565b6129a0565b905082815260208101848484011115612b9357612b9261293b565b5b612b9e8482856129ec565b509392505050565b600082601f830112612bbb57612bba612936565b5b8135612bcb848260208601612b64565b91505092915050565b60008060008060808587031215612bee57612bed6125ea565b5b6000612bfc87828801612837565b9450506020612c0d87828801612837565b9350506040612c1e87828801612782565b925050606085013567ffffffffffffffff811115612c3f57612c3e6125ef565b5b612c4b87828801612ba6565b91505092959194509250565b600067ffffffffffffffff821115612c7257612c71612940565b5b602082029050602081019050919050565b600080fd5b6000612c9b612c9684612c57565b6129a0565b90508083825260208201905060208402830185811115612cbe57612cbd612c83565b5b835b81811015612d0557803567ffffffffffffffff811115612ce357612ce2612936565b5b808601612cf08982612a3d565b85526020850194505050602081019050612cc0565b5050509392505050565b600082601f830112612d2457612d23612936565b5b8135612d34848260208601612c88565b91505092915050565b600080600060608486031215612d5657612d556125ea565b5b6000612d6486828701612837565b9350506020612d7586828701612782565b925050604084013567ffffffffffffffff811115612d9657612d956125ef565b5b612da286828701612d0f565b9150509250925092565b600080600060608486031215612dc557612dc46125ea565b5b6000612dd386828701612837565b9350506020612de486828701612782565b925050604084013567ffffffffffffffff811115612e0557612e046125ef565b5b612e1186828701612a3d565b9150509250925092565b60008060408385031215612e3257612e316125ea565b5b6000612e4085828601612837565b9250506020612e5185828601612837565b9150509250929050565b7f4e487b7100000000000000000000000000000000000000000000000000000000600052602260045260246000fd5b60006002820490506001821680612ea257607f821691505b602082108103612eb557612eb4612e5b565b5b50919050565b6000606082019050612ed060008301866127f6565b612edd602083018561288c565b612eea60408301846127f6565b949350505050565b6000604082019050612f0760008301856127f6565b612f14602083018461288c565b9392505050565b600081905092915050565b50565b6000612f36600083612f1b565b9150612f4182612f26565b600082019050919050565b6000612f5782612f29565b9150819050919050565b7f5472616e73666572206661696c65640000000000000000000000000000000000600082015250565b6000612f97600f836126ba565b9150612fa282612f61565b602082019050919050565b60006020820190508181036000830152612fc681612f8a565b9050919050565b7f4e487b7100000000000000000000000000000000000000000000000000000000600052603260045260246000fd5b7f496e73756666696369656e74207061796d656e74000000000000000000000000600082015250565b60006130326014836126ba565b915061303d82612ffc565b602082019050919050565b6000602082019050818103600083015261306181613025565b9050919050565b7f546f6b656e20616c7265616479206d696e746564000000000000000000000000600082015250565b600061309e6014836126ba565b91506130a982613068565b602082019050919050565b600060208201905081810360008301526130cd81613091565b9050919050565b7f4d69736d61746368206265747765656e207175616e7469747920616e6420555260008201527f4973000000000000000000000000000000000000000000000000000000000000602082015250565b60006131306022836126ba565b915061313b826130d4565b604082019050919050565b6000602082019050818103600083015261315f81613123565b9050919050565b7f4e487b7100000000000000000000000000000000000000000000000000000000600052601160045260246000fd5b60006131a082612761565b91507fffffffffffffffffffffffffffffffffffffffffffffffffffffffffffffffff82036131d2576131d1613166565b5b600182019050919050565b7f546f6b656e20494420616c7265616479206d696e746564000000000000000000600082015250565b60006132136017836126ba565b915061321e826131dd565b602082019050919050565b6000602082019050818103600083015261324281613206565b9050919050565b60008190508160005260206000209050919050565b60006020601f8301049050919050565b600082821b905092915050565b6000600883026132ab7fffffffffffffffffffffffffffffffffffffffffffffffffffffffffffffffff8261326e565b6132b5868361326e565b95508019841693508086168417925050509392505050565b6000819050919050565b60006132f26132ed6132e884612761565b6132cd565b612761565b9050919050565b6000819050919050565b61330c836132d7565b613320613318826132f9565b84845461327b565b825550505050565b600090565b613335613328565b613340818484613303565b505050565b5b818110156133645761335960008261332d565b600181019050613346565b5050565b601f8211156133a95761337a81613249565b6133838461325e565b81016020851015613392578190505b6133a661339e8561325e565b830182613345565b50505b505050565b600082821c905092915050565b60006133cc600019846008026133ae565b1980831691505092915050565b60006133e583836133bb565b9150826002028217905092915050565b6133fe826126af565b67ffffffffffffffff81111561341757613416612940565b5b6134218254612e8a565b61342c828285613368565b600060209050601f83116001811461345f576000841561344d578287015190505b61345785826133d9565b8655506134bf565b601f19841661346d86613249565b60005b8281101561349557848901518255600182019150602085019450602081019050613470565b868310156134b257848901516134ae601f8916826133bb565b8355505b6001600288020188555050505b505050505050565b600081519050919050565b600082825260208201905092915050565b60006134ee826134c7565b6134f881856134d2565b93506135088185602086016126cb565b613511816126f5565b840191505092915050565b600060808201905061353160008301876127f6565b61353e60208301866127f6565b61354b604083018561288c565b818103606083015261355d81846134e3565b905095945050505050565b60008151905061357781612620565b92915050565b600060208284031215613593576135926125ea565b5b60006135a184828501613568565b91505092915050565b600081905092915050565b60006135c0826126af565b6135ca81856135aa565b93506135da8185602086016126cb565b80840191505092915050565b60006135f282856135b5565b91506135fe82846135b5565b91508190509392505050565b600061361582612761565b915061362083612761565b925082820390508181111561363857613637613166565b5b92915050565b7f4e487b7100000000000000000000000000000000000000000000000000000000600052603160045260246000fd5b7f4e487b7100000000000000000000000000000000000000000000000000000000600052601260045260246000fdfea264697066735822122035ce0c67df8a0101a8a72d471fbd1ec99dc17d7402dba311ecf9adc3c19cc1c764736f6c634300081b0033","opcodes":"PUSH1 0x80 PUSH1 0x40 MSTORE CALLVALUE DUP1 ISZERO PUSH2 0x10 JUMPI PUSH1 0x0 DUP1 REVERT JUMPDEST POP PUSH1 0x40 MLOAD PUSH2 0x3E4B CODESIZE SUB DUP1 PUSH2 0x3E4B DUP4 CODECOPY DUP2 DUP2 ADD PUSH1 0x40 MSTORE DUP2 ADD SWAP1 PUSH2 0x32 SWAP2 SWAP1 PUSH2 0x3B8 JUMP JUMPDEST DUP4 DUP4 DUP4 DUP2 PUSH1 0x0 SWAP1 DUP2 PUSH2 0x44 SWAP2 SWAP1 PUSH2 0x66E JUMP JUMPDEST POP DUP1 PUSH1 0x1 SWAP1 DUP2 PUSH2 0x54 SWAP2 SWAP1 PUSH2 0x66E JUMP JUMPDEST POP POP POP PUSH1 0x0 PUSH20 0xFFFFFFFFFFFFFFFFFFFFFFFFFFFFFFFFFFFFFFFF AND DUP2 PUSH20 0xFFFFFFFFFFFFFFFFFFFFFFFFFFFFFFFFFFFFFFFF AND SUB PUSH2 0xC9 JUMPI PUSH1 0x0 PUSH1 0x40 MLOAD PUSH32 0x1E4FBDF700000000000000000000000000000000000000000000000000000000 DUP2 MSTORE PUSH1 0x4 ADD PUSH2 0xC0 SWAP2 SWAP1 PUSH2 0x74F JUMP JUMPDEST PUSH1 0x40 MLOAD DUP1 SWAP2 SUB SWAP1 REVERT JUMPDEST PUSH2 0xD8 DUP2 PUSH2 0xE9 PUSH1 0x20 SHL PUSH1 0x20 SHR JUMP JUMPDEST POP DUP1 PUSH1 0xD DUP2 SWAP1 SSTORE POP POP POP POP POP PUSH2 0x76A JUMP JUMPDEST PUSH1 0x0 PUSH1 0x7 PUSH1 0x0 SWAP1 SLOAD SWAP1 PUSH2 0x100 EXP SWAP1 DIV PUSH20 0xFFFFFFFFFFFFFFFFFFFFFFFFFFFFFFFFFFFFFFFF AND SWAP1 POP DUP2 PUSH1 0x7 PUSH1 0x0 PUSH2 0x100 EXP DUP2 SLOAD DUP2 PUSH20 0xFFFFFFFFFFFFFFFFFFFFFFFFFFFFFFFFFFFFFFFF MUL NOT AND SWAP1 DUP4 PUSH20 0xFFFFFFFFFFFFFFFFFFFFFFFFFFFFFFFFFFFFFFFF AND MUL OR SWAP1 SSTORE POP DUP2 PUSH20 0xFFFFFFFFFFFFFFFFFFFFFFFFFFFFFFFFFFFFFFFF AND DUP2 PUSH20 0xFFFFFFFFFFFFFFFFFFFFFFFFFFFFFFFFFFFFFFFF AND PUSH32 0x8BE0079C531659141344CD1FD0A4F28419497F9722A3DAAFE3B4186F6B6457E0 PUSH1 0x40 MLOAD PUSH1 0x40 MLOAD DUP1 SWAP2 SUB SWAP1 LOG3 POP POP JUMP JUMPDEST PUSH1 0x0 PUSH1 0x40 MLOAD SWAP1 POP SWAP1 JUMP JUMPDEST PUSH1 0x0 DUP1 REVERT JUMPDEST PUSH1 0x0 DUP1 REVERT JUMPDEST PUSH1 0x0 PUSH20 0xFFFFFFFFFFFFFFFFFFFFFFFFFFFFFFFFFFFFFFFF DUP3 AND SWAP1 POP SWAP2 SWAP1 POP JUMP JUMPDEST PUSH1 0x0 PUSH2 0x1EE DUP3 PUSH2 0x1C3 JUMP JUMPDEST SWAP1 POP SWAP2 SWAP1 POP JUMP JUMPDEST PUSH2 0x1FE DUP2 PUSH2 0x1E3 JUMP JUMPDEST DUP2 EQ PUSH2 0x209 JUMPI PUSH1 0x0 DUP1 REVERT JUMPDEST POP JUMP JUMPDEST PUSH1 0x0 DUP2 MLOAD SWAP1 POP PUSH2 0x21B DUP2 PUSH2 0x1F5 JUMP JUMPDEST SWAP3 SWAP2 POP POP JUMP JUMPDEST PUSH1 0x0 DUP1 REVERT JUMPDEST PUSH1 0x0 DUP1 REVERT JUMPDEST PUSH1 0x0 PUSH1 0x1F NOT PUSH1 0x1F DUP4 ADD AND SWAP1 POP SWAP2 SWAP1 POP JUMP JUMPDEST PUSH32 0x4E487B7100000000000000000000000000000000000000000000000000000000 PUSH1 0x0 MSTORE PUSH1 0x41 PUSH1 0x4 MSTORE PUSH1 0x24 PUSH1 0x0 REVERT JUMPDEST PUSH2 0x274 DUP3 PUSH2 0x22B JUMP JUMPDEST DUP2 ADD DUP2 DUP2 LT PUSH8 0xFFFFFFFFFFFFFFFF DUP3 GT OR ISZERO PUSH2 0x293 JUMPI PUSH2 0x292 PUSH2 0x23C JUMP JUMPDEST JUMPDEST DUP1 PUSH1 0x40 MSTORE POP POP POP JUMP JUMPDEST PUSH1 0x0 PUSH2 0x2A6 PUSH2 0x1AF JUMP JUMPDEST SWAP1 POP PUSH2 0x2B2 DUP3 DUP3 PUSH2 0x26B JUMP JUMPDEST SWAP2 SWAP1 POP JUMP JUMPDEST PUSH1 0x0 PUSH8 0xFFFFFFFFFFFFFFFF DUP3 GT ISZERO PUSH2 0x2D2 JUMPI PUSH2 0x2D1 PUSH2 0x23C JUMP JUMPDEST JUMPDEST PUSH2 0x2DB DUP3 PUSH2 0x22B JUMP JUMPDEST SWAP1 POP PUSH1 0x20 DUP2 ADD SWAP1 POP SWAP2 SWAP1 POP JUMP JUMPDEST PUSH1 0x0 JUMPDEST DUP4 DUP2 LT ISZERO PUSH2 0x306 JUMPI DUP1 DUP3 ADD MLOAD DUP2 DUP5 ADD MSTORE PUSH1 0x20 DUP2 ADD SWAP1 POP PUSH2 0x2EB JUMP JUMPDEST PUSH1 0x0 DUP5 DUP5 ADD MSTORE POP POP POP POP JUMP JUMPDEST PUSH1 0x0 PUSH2 0x325 PUSH2 0x320 DUP5 PUSH2 0x2B7 JUMP JUMPDEST PUSH2 0x29C JUMP JUMPDEST SWAP1 POP DUP3 DUP2 MSTORE PUSH1 0x20 DUP2 ADD DUP5 DUP5 DUP5 ADD GT ISZERO PUSH2 0x341 JUMPI PUSH2 0x340 PUSH2 0x226 JUMP JUMPDEST JUMPDEST PUSH2 0x34C DUP5 DUP3 DUP6 PUSH2 0x2E8 JUMP JUMPDEST POP SWAP4 SWAP3 POP POP POP JUMP JUMPDEST PUSH1 0x0 DUP3 PUSH1 0x1F DUP4 ADD SLT PUSH2 0x369 JUMPI PUSH2 0x368 PUSH2 0x221 JUMP JUMPDEST JUMPDEST DUP2 MLOAD PUSH2 0x379 DUP5 DUP3 PUSH1 0x20 DUP7 ADD PUSH2 0x312 JUMP JUMPDEST SWAP2 POP POP SWAP3 SWAP2 POP POP JUMP JUMPDEST PUSH1 0x0 DUP2 SWAP1 POP SWAP2 SWAP1 POP JUMP JUMPDEST PUSH2 0x395 DUP2 PUSH2 0x382 JUMP JUMPDEST DUP2 EQ PUSH2 0x3A0 JUMPI PUSH1 0x0 DUP1 REVERT JUMPDEST POP JUMP JUMPDEST PUSH1 0x0 DUP2 MLOAD SWAP1 POP PUSH2 0x3B2 DUP2 PUSH2 0x38C JUMP JUMPDEST SWAP3 SWAP2 POP POP JUMP JUMPDEST PUSH1 0x0 DUP1 PUSH1 0x0 DUP1 PUSH1 0x80 DUP6 DUP8 SUB SLT ISZERO PUSH2 0x3D2 JUMPI PUSH2 0x3D1 PUSH2 0x1B9 JUMP JUMPDEST JUMPDEST PUSH1 0x0 PUSH2 0x3E0 DUP8 DUP3 DUP9 ADD PUSH2 0x20C JUMP JUMPDEST SWAP5 POP POP PUSH1 0x20 DUP6 ADD MLOAD PUSH8 0xFFFFFFFFFFFFFFFF DUP2 GT ISZERO PUSH2 0x401 JUMPI PUSH2 0x400 PUSH2 0x1BE JUMP JUMPDEST JUMPDEST PUSH2 0x40D DUP8 DUP3 DUP9 ADD PUSH2 0x354 JUMP JUMPDEST SWAP4 POP POP PUSH1 0x40 DUP6 ADD MLOAD PUSH8 0xFFFFFFFFFFFFFFFF DUP2 GT ISZERO PUSH2 0x42E JUMPI PUSH2 0x42D PUSH2 0x1BE JUMP JUMPDEST JUMPDEST PUSH2 0x43A DUP8 DUP3 DUP9 ADD PUSH2 0x354 JUMP JUMPDEST SWAP3 POP POP PUSH1 0x60 PUSH2 0x44B DUP8 DUP3 DUP9 ADD PUSH2 0x3A3 JUMP JUMPDEST SWAP2 POP POP SWAP3 SWAP6 SWAP2 SWAP5 POP SWAP3 POP JUMP JUMPDEST PUSH1 0x0 DUP2 MLOAD SWAP1 POP SWAP2 SWAP1 POP JUMP JUMPDEST PUSH32 0x4E487B7100000000000000000000000000000000000000000000000000000000 PUSH1 0x0 MSTORE PUSH1 0x22 PUSH1 0x4 MSTORE PUSH1 0x24 PUSH1 0x0 REVERT JUMPDEST PUSH1 0x0 PUSH1 0x2 DUP3 DIV SWAP1 POP PUSH1 0x1 DUP3 AND DUP1 PUSH2 0x4A9 JUMPI PUSH1 0x7F DUP3 AND SWAP2 POP JUMPDEST PUSH1 0x20 DUP3 LT DUP2 SUB PUSH2 0x4BC JUMPI PUSH2 0x4BB PUSH2 0x462 JUMP JUMPDEST JUMPDEST POP SWAP2 SWAP1 POP JUMP JUMPDEST PUSH1 0x0 DUP2 SWAP1 POP DUP2 PUSH1 0x0 MSTORE PUSH1 0x20 PUSH1 0x0 KECCAK256 SWAP1 POP SWAP2 SWAP1 POP JUMP JUMPDEST PUSH1 0x0 PUSH1 0x20 PUSH1 0x1F DUP4 ADD DIV SWAP1 POP SWAP2 SWAP1 POP JUMP JUMPDEST PUSH1 0x0 DUP3 DUP3 SHL SWAP1 POP SWAP3 SWAP2 POP POP JUMP JUMPDEST PUSH1 0x0 PUSH1 0x8 DUP4 MUL PUSH2 0x524 PUSH32 0xFFFFFFFFFFFFFFFFFFFFFFFFFFFFFFFFFFFFFFFFFFFFFFFFFFFFFFFFFFFFFFFF DUP3 PUSH2 0x4E7 JUMP JUMPDEST PUSH2 0x52E DUP7 DUP4 PUSH2 0x4E7 JUMP JUMPDEST SWAP6 POP DUP1 NOT DUP5 AND SWAP4 POP DUP1 DUP7 AND DUP5 OR SWAP3 POP POP POP SWAP4 SWAP3 POP POP POP JUMP JUMPDEST PUSH1 0x0 DUP2 SWAP1 POP SWAP2 SWAP1 POP JUMP JUMPDEST PUSH1 0x0 PUSH2 0x56B PUSH2 0x566 PUSH2 0x561 DUP5 PUSH2 0x382 JUMP JUMPDEST PUSH2 0x546 JUMP JUMPDEST PUSH2 0x382 JUMP JUMPDEST SWAP1 POP SWAP2 SWAP1 POP JUMP JUMPDEST PUSH1 0x0 DUP2 SWAP1 POP SWAP2 SWAP1 POP JUMP JUMPDEST PUSH2 0x585 DUP4 PUSH2 0x550 JUMP JUMPDEST PUSH2 0x599 PUSH2 0x591 DUP3 PUSH2 0x572 JUMP JUMPDEST DUP5 DUP5 SLOAD PUSH2 0x4F4 JUMP JUMPDEST DUP3 SSTORE POP POP POP POP JUMP JUMPDEST PUSH1 0x0 SWAP1 JUMP JUMPDEST PUSH2 0x5AE PUSH2 0x5A1 JUMP JUMPDEST PUSH2 0x5B9 DUP2 DUP5 DUP5 PUSH2 0x57C JUMP JUMPDEST POP POP POP JUMP JUMPDEST JUMPDEST DUP2 DUP2 LT ISZERO PUSH2 0x5DD JUMPI PUSH2 0x5D2 PUSH1 0x0 DUP3 PUSH2 0x5A6 JUMP JUMPDEST PUSH1 0x1 DUP2 ADD SWAP1 POP PUSH2 0x5BF JUMP JUMPDEST POP POP JUMP JUMPDEST PUSH1 0x1F DUP3 GT ISZERO PUSH2 0x622 JUMPI PUSH2 0x5F3 DUP2 PUSH2 0x4C2 JUMP JUMPDEST PUSH2 0x5FC DUP5 PUSH2 0x4D7 JUMP JUMPDEST DUP2 ADD PUSH1 0x20 DUP6 LT ISZERO PUSH2 0x60B JUMPI DUP2 SWAP1 POP JUMPDEST PUSH2 0x61F PUSH2 0x617 DUP6 PUSH2 0x4D7 JUMP JUMPDEST DUP4 ADD DUP3 PUSH2 0x5BE JUMP JUMPDEST POP POP JUMPDEST POP POP POP JUMP JUMPDEST PUSH1 0x0 DUP3 DUP3 SHR SWAP1 POP SWAP3 SWAP2 POP POP JUMP JUMPDEST PUSH1 0x0 PUSH2 0x645 PUSH1 0x0 NOT DUP5 PUSH1 0x8 MUL PUSH2 0x627 JUMP JUMPDEST NOT DUP1 DUP4 AND SWAP2 POP POP SWAP3 SWAP2 POP POP JUMP JUMPDEST PUSH1 0x0 PUSH2 0x65E DUP4 DUP4 PUSH2 0x634 JUMP JUMPDEST SWAP2 POP DUP3 PUSH1 0x2 MUL DUP3 OR SWAP1 POP SWAP3 SWAP2 POP POP JUMP JUMPDEST PUSH2 0x677 DUP3 PUSH2 0x457 JUMP JUMPDEST PUSH8 0xFFFFFFFFFFFFFFFF DUP2 GT ISZERO PUSH2 0x690 JUMPI PUSH2 0x68F PUSH2 0x23C JUMP JUMPDEST JUMPDEST PUSH2 0x69A DUP3 SLOAD PUSH2 0x491 JUMP JUMPDEST PUSH2 0x6A5 DUP3 DUP3 DUP6 PUSH2 0x5E1 JUMP JUMPDEST PUSH1 0x0 PUSH1 0x20 SWAP1 POP PUSH1 0x1F DUP4 GT PUSH1 0x1 DUP2 EQ PUSH2 0x6D8 JUMPI PUSH1 0x0 DUP5 ISZERO PUSH2 0x6C6 JUMPI DUP3 DUP8 ADD MLOAD SWAP1 POP JUMPDEST PUSH2 0x6D0 DUP6 DUP3 PUSH2 0x652 JUMP JUMPDEST DUP7 SSTORE POP PUSH2 0x738 JUMP JUMPDEST PUSH1 0x1F NOT DUP5 AND PUSH2 0x6E6 DUP7 PUSH2 0x4C2 JUMP JUMPDEST PUSH1 0x0 JUMPDEST DUP3 DUP2 LT ISZERO PUSH2 0x70E JUMPI DUP5 DUP10 ADD MLOAD DUP3 SSTORE PUSH1 0x1 DUP3 ADD SWAP2 POP PUSH1 0x20 DUP6 ADD SWAP5 POP PUSH1 0x20 DUP2 ADD SWAP1 POP PUSH2 0x6E9 JUMP JUMPDEST DUP7 DUP4 LT ISZERO PUSH2 0x72B JUMPI DUP5 DUP10 ADD MLOAD PUSH2 0x727 PUSH1 0x1F DUP10 AND DUP3 PUSH2 0x634 JUMP JUMPDEST DUP4 SSTORE POP JUMPDEST PUSH1 0x1 PUSH1 0x2 DUP9 MUL ADD DUP9 SSTORE POP POP POP JUMPDEST POP POP POP POP POP POP JUMP JUMPDEST PUSH2 0x749 DUP2 PUSH2 0x1E3 JUMP JUMPDEST DUP3 MSTORE POP POP JUMP JUMPDEST PUSH1 0x0 PUSH1 0x20 DUP3 ADD SWAP1 POP PUSH2 0x764 PUSH1 0x0 DUP4 ADD DUP5 PUSH2 0x740 JUMP JUMPDEST SWAP3 SWAP2 POP POP JUMP JUMPDEST PUSH2 0x36D2 DUP1 PUSH2 0x779 PUSH1 0x0 CODECOPY PUSH1 0x0 RETURN INVALID PUSH1 0x80 PUSH1 0x40 MSTORE PUSH1 0x4 CALLDATASIZE LT PUSH2 0x166 JUMPI PUSH1 0x0 CALLDATALOAD PUSH1 0xE0 SHR DUP1 PUSH4 0x70A08231 GT PUSH2 0xD1 JUMPI DUP1 PUSH4 0xB88D4FDE GT PUSH2 0x8A JUMPI DUP1 PUSH4 0xCD279C7C GT PUSH2 0x64 JUMPI DUP1 PUSH4 0xCD279C7C EQ PUSH2 0x52D JUMPI DUP1 PUSH4 0xE985E9C5 EQ PUSH2 0x556 JUMPI DUP1 PUSH4 0xEDDD0D9C EQ PUSH2 0x593 JUMPI DUP1 PUSH4 0xF2FDE38B EQ PUSH2 0x5BC JUMPI PUSH2 0x166 JUMP JUMPDEST DUP1 PUSH4 0xB88D4FDE EQ PUSH2 0x49E JUMPI DUP1 PUSH4 0xC87B56DD EQ PUSH2 0x4C7 JUMPI DUP1 PUSH4 0xCC28EC33 EQ PUSH2 0x504 JUMPI PUSH2 0x166 JUMP JUMPDEST DUP1 PUSH4 0x70A08231 EQ PUSH2 0x3AF JUMPI DUP1 PUSH4 0x715018A6 EQ PUSH2 0x3EC JUMPI DUP1 PUSH4 0x77097FC8 EQ PUSH2 0x403 JUMPI DUP1 PUSH4 0x8DA5CB5B EQ PUSH2 0x41F JUMPI DUP1 PUSH4 0x95D89B41 EQ PUSH2 0x44A JUMPI DUP1 PUSH4 0xA22CB465 EQ PUSH2 0x475 JUMPI PUSH2 0x166 JUMP JUMPDEST DUP1 PUSH4 0x23B872DD GT PUSH2 0x123 JUMPI DUP1 PUSH4 0x23B872DD EQ PUSH2 0x28F JUMPI DUP1 PUSH4 0x2F745C59 EQ PUSH2 0x2B8 JUMPI DUP1 PUSH4 0x3CCFD60B EQ PUSH2 0x2F5 JUMPI DUP1 PUSH4 0x42842E0E EQ PUSH2 0x30C JUMPI DUP1 PUSH4 0x4F6CCCE7 EQ PUSH2 0x335 JUMPI DUP1 PUSH4 0x6352211E EQ PUSH2 0x372 JUMPI PUSH2 0x166 JUMP JUMPDEST DUP1 PUSH4 0x1FFC9A7 EQ PUSH2 0x16B JUMPI DUP1 PUSH4 0x6FDDE03 EQ PUSH2 0x1A8 JUMPI DUP1 PUSH4 0x81812FC EQ PUSH2 0x1D3 JUMPI DUP1 PUSH4 0x95EA7B3 EQ PUSH2 0x210 JUMPI DUP1 PUSH4 0x13966DB5 EQ PUSH2 0x239 JUMPI DUP1 PUSH4 0x18160DDD EQ PUSH2 0x264 JUMPI JUMPDEST PUSH1 0x0 DUP1 REVERT JUMPDEST CALLVALUE DUP1 ISZERO PUSH2 0x177 JUMPI PUSH1 0x0 DUP1 REVERT JUMPDEST POP PUSH2 0x192 PUSH1 0x4 DUP1 CALLDATASIZE SUB DUP2 ADD SWAP1 PUSH2 0x18D SWAP2 SWAP1 PUSH2 0x264C JUMP JUMPDEST PUSH2 0x5E5 JUMP JUMPDEST PUSH1 0x40 MLOAD PUSH2 0x19F SWAP2 SWAP1 PUSH2 0x2694 JUMP JUMPDEST PUSH1 0x40 MLOAD DUP1 SWAP2 SUB SWAP1 RETURN JUMPDEST CALLVALUE DUP1 ISZERO PUSH2 0x1B4 JUMPI PUSH1 0x0 DUP1 REVERT JUMPDEST POP PUSH2 0x1BD PUSH2 0x5F7 JUMP JUMPDEST PUSH1 0x40 MLOAD PUSH2 0x1CA SWAP2 SWAP1 PUSH2 0x273F JUMP JUMPDEST PUSH1 0x40 MLOAD DUP1 SWAP2 SUB SWAP1 RETURN JUMPDEST CALLVALUE DUP1 ISZERO PUSH2 0x1DF JUMPI PUSH1 0x0 DUP1 REVERT JUMPDEST POP PUSH2 0x1FA PUSH1 0x4 DUP1 CALLDATASIZE SUB DUP2 ADD SWAP1 PUSH2 0x1F5 SWAP2 SWAP1 PUSH2 0x2797 JUMP JUMPDEST PUSH2 0x689 JUMP JUMPDEST PUSH1 0x40 MLOAD PUSH2 0x207 SWAP2 SWAP1 PUSH2 0x2805 JUMP JUMPDEST PUSH1 0x40 MLOAD DUP1 SWAP2 SUB SWAP1 RETURN JUMPDEST CALLVALUE DUP1 ISZERO PUSH2 0x21C JUMPI PUSH1 0x0 DUP1 REVERT JUMPDEST POP PUSH2 0x237 PUSH1 0x4 DUP1 CALLDATASIZE SUB DUP2 ADD SWAP1 PUSH2 0x232 SWAP2 SWAP1 PUSH2 0x284C JUMP JUMPDEST PUSH2 0x6A5 JUMP JUMPDEST STOP JUMPDEST CALLVALUE DUP1 ISZERO PUSH2 0x245 JUMPI PUSH1 0x0 DUP1 REVERT JUMPDEST POP PUSH2 0x24E PUSH2 0x6BB JUMP JUMPDEST PUSH1 0x40 MLOAD PUSH2 0x25B SWAP2 SWAP1 PUSH2 0x289B JUMP JUMPDEST PUSH1 0x40 MLOAD DUP1 SWAP2 SUB SWAP1 RETURN JUMPDEST CALLVALUE DUP1 ISZERO PUSH2 0x270 JUMPI PUSH1 0x0 DUP1 REVERT JUMPDEST POP PUSH2 0x279 PUSH2 0x6C1 JUMP JUMPDEST PUSH1 0x40 MLOAD PUSH2 0x286 SWAP2 SWAP1 PUSH2 0x289B JUMP JUMPDEST PUSH1 0x40 MLOAD DUP1 SWAP2 SUB SWAP1 RETURN JUMPDEST CALLVALUE DUP1 ISZERO PUSH2 0x29B JUMPI PUSH1 0x0 DUP1 REVERT JUMPDEST POP PUSH2 0x2B6 PUSH1 0x4 DUP1 CALLDATASIZE SUB DUP2 ADD SWAP1 PUSH2 0x2B1 SWAP2 SWAP1 PUSH2 0x28B6 JUMP JUMPDEST PUSH2 0x6CE JUMP JUMPDEST STOP JUMPDEST CALLVALUE DUP1 ISZERO PUSH2 0x2C4 JUMPI PUSH1 0x0 DUP1 REVERT JUMPDEST POP PUSH2 0x2DF PUSH1 0x4 DUP1 CALLDATASIZE SUB DUP2 ADD SWAP1 PUSH2 0x2DA SWAP2 SWAP1 PUSH2 0x284C JUMP JUMPDEST PUSH2 0x7D0 JUMP JUMPDEST PUSH1 0x40 MLOAD PUSH2 0x2EC SWAP2 SWAP1 PUSH2 0x289B JUMP JUMPDEST PUSH1 0x40 MLOAD DUP1 SWAP2 SUB SWAP1 RETURN JUMPDEST CALLVALUE DUP1 ISZERO PUSH2 0x301 JUMPI PUSH1 0x0 DUP1 REVERT JUMPDEST POP PUSH2 0x30A PUSH2 0x879 JUMP JUMPDEST STOP JUMPDEST CALLVALUE DUP1 ISZERO PUSH2 0x318 JUMPI PUSH1 0x0 DUP1 REVERT JUMPDEST POP PUSH2 0x333 PUSH1 0x4 DUP1 CALLDATASIZE SUB DUP2 ADD SWAP1 PUSH2 0x32E SWAP2 SWAP1 PUSH2 0x28B6 JUMP JUMPDEST PUSH2 0x937 JUMP JUMPDEST STOP JUMPDEST CALLVALUE DUP1 ISZERO PUSH2 0x341 JUMPI PUSH1 0x0 DUP1 REVERT JUMPDEST POP PUSH2 0x35C PUSH1 0x4 DUP1 CALLDATASIZE SUB DUP2 ADD SWAP1 PUSH2 0x357 SWAP2 SWAP1 PUSH2 0x2797 JUMP JUMPDEST PUSH2 0x957 JUMP JUMPDEST PUSH1 0x40 MLOAD PUSH2 0x369 SWAP2 SWAP1 PUSH2 0x289B JUMP JUMPDEST PUSH1 0x40 MLOAD DUP1 SWAP2 SUB SWAP1 RETURN JUMPDEST CALLVALUE DUP1 ISZERO PUSH2 0x37E JUMPI PUSH1 0x0 DUP1 REVERT JUMPDEST POP PUSH2 0x399 PUSH1 0x4 DUP1 CALLDATASIZE SUB DUP2 ADD SWAP1 PUSH2 0x394 SWAP2 SWAP1 PUSH2 0x2797 JUMP JUMPDEST PUSH2 0x9CD JUMP JUMPDEST PUSH1 0x40 MLOAD PUSH2 0x3A6 SWAP2 SWAP1 PUSH2 0x2805 JUMP JUMPDEST PUSH1 0x40 MLOAD DUP1 SWAP2 SUB SWAP1 RETURN JUMPDEST CALLVALUE DUP1 ISZERO PUSH2 0x3BB JUMPI PUSH1 0x0 DUP1 REVERT JUMPDEST POP PUSH2 0x3D6 PUSH1 0x4 DUP1 CALLDATASIZE SUB DUP2 ADD SWAP1 PUSH2 0x3D1 SWAP2 SWAP1 PUSH2 0x2909 JUMP JUMPDEST PUSH2 0x9DF JUMP JUMPDEST PUSH1 0x40 MLOAD PUSH2 0x3E3 SWAP2 SWAP1 PUSH2 0x289B JUMP JUMPDEST PUSH1 0x40 MLOAD DUP1 SWAP2 SUB SWAP1 RETURN JUMPDEST CALLVALUE DUP1 ISZERO PUSH2 0x3F8 JUMPI PUSH1 0x0 DUP1 REVERT JUMPDEST POP PUSH2 0x401 PUSH2 0xA99 JUMP JUMPDEST STOP JUMPDEST PUSH2 0x41D PUSH1 0x4 DUP1 CALLDATASIZE SUB DUP2 ADD SWAP1 PUSH2 0x418 SWAP2 SWAP1 PUSH2 0x2A6B JUMP JUMPDEST PUSH2 0xAAD JUMP JUMPDEST STOP JUMPDEST CALLVALUE DUP1 ISZERO PUSH2 0x42B JUMPI PUSH1 0x0 DUP1 REVERT JUMPDEST POP PUSH2 0x434 PUSH2 0xB97 JUMP JUMPDEST PUSH1 0x40 MLOAD PUSH2 0x441 SWAP2 SWAP1 PUSH2 0x2805 JUMP JUMPDEST PUSH1 0x40 MLOAD DUP1 SWAP2 SUB SWAP1 RETURN JUMPDEST CALLVALUE DUP1 ISZERO PUSH2 0x456 JUMPI PUSH1 0x0 DUP1 REVERT JUMPDEST POP PUSH2 0x45F PUSH2 0xBC1 JUMP JUMPDEST PUSH1 0x40 MLOAD PUSH2 0x46C SWAP2 SWAP1 PUSH2 0x273F JUMP JUMPDEST PUSH1 0x40 MLOAD DUP1 SWAP2 SUB SWAP1 RETURN JUMPDEST CALLVALUE DUP1 ISZERO PUSH2 0x481 JUMPI PUSH1 0x0 DUP1 REVERT JUMPDEST POP PUSH2 0x49C PUSH1 0x4 DUP1 CALLDATASIZE SUB DUP2 ADD SWAP1 PUSH2 0x497 SWAP2 SWAP1 PUSH2 0x2AF3 JUMP JUMPDEST PUSH2 0xC53 JUMP JUMPDEST STOP JUMPDEST CALLVALUE DUP1 ISZERO PUSH2 0x4AA JUMPI PUSH1 0x0 DUP1 REVERT JUMPDEST POP PUSH2 0x4C5 PUSH1 0x4 DUP1 CALLDATASIZE SUB DUP2 ADD SWAP1 PUSH2 0x4C0 SWAP2 SWAP1 PUSH2 0x2BD4 JUMP JUMPDEST PUSH2 0xC69 JUMP JUMPDEST STOP JUMPDEST CALLVALUE DUP1 ISZERO PUSH2 0x4D3 JUMPI PUSH1 0x0 DUP1 REVERT JUMPDEST POP PUSH2 0x4EE PUSH1 0x4 DUP1 CALLDATASIZE SUB DUP2 ADD SWAP1 PUSH2 0x4E9 SWAP2 SWAP1 PUSH2 0x2797 JUMP JUMPDEST PUSH2 0xC8E JUMP JUMPDEST PUSH1 0x40 MLOAD PUSH2 0x4FB SWAP2 SWAP1 PUSH2 0x273F JUMP JUMPDEST PUSH1 0x40 MLOAD DUP1 SWAP2 SUB SWAP1 RETURN JUMPDEST CALLVALUE DUP1 ISZERO PUSH2 0x510 JUMPI PUSH1 0x0 DUP1 REVERT JUMPDEST POP PUSH2 0x52B PUSH1 0x4 DUP1 CALLDATASIZE SUB DUP2 ADD SWAP1 PUSH2 0x526 SWAP2 SWAP1 PUSH2 0x2D3D JUMP JUMPDEST PUSH2 0xCA0 JUMP JUMPDEST STOP JUMPDEST CALLVALUE DUP1 ISZERO PUSH2 0x539 JUMPI PUSH1 0x0 DUP1 REVERT JUMPDEST POP PUSH2 0x554 PUSH1 0x4 DUP1 CALLDATASIZE SUB DUP2 ADD SWAP1 PUSH2 0x54F SWAP2 SWAP1 PUSH2 0x2DAC JUMP JUMPDEST PUSH2 0xDE4 JUMP JUMPDEST STOP JUMPDEST CALLVALUE DUP1 ISZERO PUSH2 0x562 JUMPI PUSH1 0x0 DUP1 REVERT JUMPDEST POP PUSH2 0x57D PUSH1 0x4 DUP1 CALLDATASIZE SUB DUP2 ADD SWAP1 PUSH2 0x578 SWAP2 SWAP1 PUSH2 0x2E1B JUMP JUMPDEST PUSH2 0xE92 JUMP JUMPDEST PUSH1 0x40 MLOAD PUSH2 0x58A SWAP2 SWAP1 PUSH2 0x2694 JUMP JUMPDEST PUSH1 0x40 MLOAD DUP1 SWAP2 SUB SWAP1 RETURN JUMPDEST CALLVALUE DUP1 ISZERO PUSH2 0x59F JUMPI PUSH1 0x0 DUP1 REVERT JUMPDEST POP PUSH2 0x5BA PUSH1 0x4 DUP1 CALLDATASIZE SUB DUP2 ADD SWAP1 PUSH2 0x5B5 SWAP2 SWAP1 PUSH2 0x2797 JUMP JUMPDEST PUSH2 0xF26 JUMP JUMPDEST STOP JUMPDEST CALLVALUE DUP1 ISZERO PUSH2 0x5C8 JUMPI PUSH1 0x0 DUP1 REVERT JUMPDEST POP PUSH2 0x5E3 PUSH1 0x4 DUP1 CALLDATASIZE SUB DUP2 ADD SWAP1 PUSH2 0x5DE SWAP2 SWAP1 PUSH2 0x2909 JUMP JUMPDEST PUSH2 0xF38 JUMP JUMPDEST STOP JUMPDEST PUSH1 0x0 PUSH2 0x5F0 DUP3 PUSH2 0xFBE JUMP JUMPDEST SWAP1 POP SWAP2 SWAP1 POP JUMP JUMPDEST PUSH1 0x60 PUSH1 0x0 DUP1 SLOAD PUSH2 0x606 SWAP1 PUSH2 0x2E8A JUMP JUMPDEST DUP1 PUSH1 0x1F ADD PUSH1 0x20 DUP1 SWAP2 DIV MUL PUSH1 0x20 ADD PUSH1 0x40 MLOAD SWAP1 DUP2 ADD PUSH1 0x40 MSTORE DUP1 SWAP3 SWAP2 SWAP1 DUP2 DUP2 MSTORE PUSH1 0x20 ADD DUP3 DUP1 SLOAD PUSH2 0x632 SWAP1 PUSH2 0x2E8A JUMP JUMPDEST DUP1 ISZERO PUSH2 0x67F JUMPI DUP1 PUSH1 0x1F LT PUSH2 0x654 JUMPI PUSH2 0x100 DUP1 DUP4 SLOAD DIV MUL DUP4 MSTORE SWAP2 PUSH1 0x20 ADD SWAP2 PUSH2 0x67F JUMP JUMPDEST DUP3 ADD SWAP2 SWAP1 PUSH1 0x0 MSTORE PUSH1 0x20 PUSH1 0x0 KECCAK256 SWAP1 JUMPDEST DUP2 SLOAD DUP2 MSTORE SWAP1 PUSH1 0x1 ADD SWAP1 PUSH1 0x20 ADD DUP1 DUP4 GT PUSH2 0x662 JUMPI DUP3 SWAP1 SUB PUSH1 0x1F AND DUP3 ADD SWAP2 JUMPDEST POP POP POP POP POP SWAP1 POP SWAP1 JUMP JUMPDEST PUSH1 0x0 PUSH2 0x694 DUP3 PUSH2 0x1038 JUMP JUMPDEST POP PUSH2 0x69E DUP3 PUSH2 0x10C0 JUMP JUMPDEST SWAP1 POP SWAP2 SWAP1 POP JUMP JUMPDEST PUSH2 0x6B7 DUP3 DUP3 PUSH2 0x6B2 PUSH2 0x10FD JUMP JUMPDEST PUSH2 0x1105 JUMP JUMPDEST POP POP JUMP JUMPDEST PUSH1 0xD SLOAD DUP2 JUMP JUMPDEST PUSH1 0x0 PUSH1 0xA DUP1 SLOAD SWAP1 POP SWAP1 POP SWAP1 JUMP JUMPDEST PUSH1 0x0 PUSH20 0xFFFFFFFFFFFFFFFFFFFFFFFFFFFFFFFFFFFFFFFF AND DUP3 PUSH20 0xFFFFFFFFFFFFFFFFFFFFFFFFFFFFFFFFFFFFFFFF AND SUB PUSH2 0x740 JUMPI PUSH1 0x0 PUSH1 0x40 MLOAD PUSH32 0x64A0AE9200000000000000000000000000000000000000000000000000000000 DUP2 MSTORE PUSH1 0x4 ADD PUSH2 0x737 SWAP2 SWAP1 PUSH2 0x2805 JUMP JUMPDEST PUSH1 0x40 MLOAD DUP1 SWAP2 SUB SWAP1 REVERT JUMPDEST PUSH1 0x0 PUSH2 0x754 DUP4 DUP4 PUSH2 0x74F PUSH2 0x10FD JUMP JUMPDEST PUSH2 0x1117 JUMP JUMPDEST SWAP1 POP DUP4 PUSH20 0xFFFFFFFFFFFFFFFFFFFFFFFFFFFFFFFFFFFFFFFF AND DUP2 PUSH20 0xFFFFFFFFFFFFFFFFFFFFFFFFFFFFFFFFFFFFFFFF AND EQ PUSH2 0x7CA JUMPI DUP4 DUP3 DUP3 PUSH1 0x40 MLOAD PUSH32 0x64283D7B00000000000000000000000000000000000000000000000000000000 DUP2 MSTORE PUSH1 0x4 ADD PUSH2 0x7C1 SWAP4 SWAP3 SWAP2 SWAP1 PUSH2 0x2EBB JUMP JUMPDEST PUSH1 0x40 MLOAD DUP1 SWAP2 SUB SWAP1 REVERT JUMPDEST POP POP POP POP JUMP JUMPDEST PUSH1 0x0 PUSH2 0x7DB DUP4 PUSH2 0x9DF JUMP JUMPDEST DUP3 LT PUSH2 0x820 JUMPI DUP3 DUP3 PUSH1 0x40 MLOAD PUSH32 0xA57D13DC00000000000000000000000000000000000000000000000000000000 DUP2 MSTORE PUSH1 0x4 ADD PUSH2 0x817 SWAP3 SWAP2 SWAP1 PUSH2 0x2EF2 JUMP JUMPDEST PUSH1 0x40 MLOAD DUP1 SWAP2 SUB SWAP1 REVERT JUMPDEST PUSH1 0x8 PUSH1 0x0 DUP5 PUSH20 0xFFFFFFFFFFFFFFFFFFFFFFFFFFFFFFFFFFFFFFFF AND PUSH20 0xFFFFFFFFFFFFFFFFFFFFFFFFFFFFFFFFFFFFFFFF AND DUP2 MSTORE PUSH1 0x20 ADD SWAP1 DUP2 MSTORE PUSH1 0x20 ADD PUSH1 0x0 KECCAK256 PUSH1 0x0 DUP4 DUP2 MSTORE PUSH1 0x20 ADD SWAP1 DUP2 MSTORE PUSH1 0x20 ADD PUSH1 0x0 KECCAK256 SLOAD SWAP1 POP SWAP3 SWAP2 POP POP JUMP JUMPDEST PUSH2 0x881 PUSH2 0x112D JUMP JUMPDEST PUSH1 0x0 PUSH2 0x88B PUSH2 0xB97 JUMP JUMPDEST PUSH20 0xFFFFFFFFFFFFFFFFFFFFFFFFFFFFFFFFFFFFFFFF AND SELFBALANCE PUSH1 0x40 MLOAD PUSH2 0x8AE SWAP1 PUSH2 0x2F4C JUMP JUMPDEST PUSH1 0x0 PUSH1 0x40 MLOAD DUP1 DUP4 SUB DUP2 DUP6 DUP8 GAS CALL SWAP3 POP POP POP RETURNDATASIZE DUP1 PUSH1 0x0 DUP2 EQ PUSH2 0x8EB JUMPI PUSH1 0x40 MLOAD SWAP2 POP PUSH1 0x1F NOT PUSH1 0x3F RETURNDATASIZE ADD AND DUP3 ADD PUSH1 0x40 MSTORE RETURNDATASIZE DUP3 MSTORE RETURNDATASIZE PUSH1 0x0 PUSH1 0x20 DUP5 ADD RETURNDATACOPY PUSH2 0x8F0 JUMP JUMPDEST PUSH1 0x60 SWAP2 POP JUMPDEST POP POP SWAP1 POP DUP1 PUSH2 0x934 JUMPI PUSH1 0x40 MLOAD PUSH32 0x8C379A000000000000000000000000000000000000000000000000000000000 DUP2 MSTORE PUSH1 0x4 ADD PUSH2 0x92B SWAP1 PUSH2 0x2FAD JUMP JUMPDEST PUSH1 0x40 MLOAD DUP1 SWAP2 SUB SWAP1 REVERT JUMPDEST POP JUMP JUMPDEST PUSH2 0x952 DUP4 DUP4 DUP4 PUSH1 0x40 MLOAD DUP1 PUSH1 0x20 ADD PUSH1 0x40 MSTORE DUP1 PUSH1 0x0 DUP2 MSTORE POP PUSH2 0xC69 JUMP JUMPDEST POP POP POP JUMP JUMPDEST PUSH1 0x0 PUSH2 0x961 PUSH2 0x6C1 JUMP JUMPDEST DUP3 LT PUSH2 0x9A7 JUMPI PUSH1 0x0 DUP3 PUSH1 0x40 MLOAD PUSH32 0xA57D13DC00000000000000000000000000000000000000000000000000000000 DUP2 MSTORE PUSH1 0x4 ADD PUSH2 0x99E SWAP3 SWAP2 SWAP1 PUSH2 0x2EF2 JUMP JUMPDEST PUSH1 0x40 MLOAD DUP1 SWAP2 SUB SWAP1 REVERT JUMPDEST PUSH1 0xA DUP3 DUP2 SLOAD DUP2 LT PUSH2 0x9BB JUMPI PUSH2 0x9BA PUSH2 0x2FCD JUMP JUMPDEST JUMPDEST SWAP1 PUSH1 0x0 MSTORE PUSH1 0x20 PUSH1 0x0 KECCAK256 ADD SLOAD SWAP1 POP SWAP2 SWAP1 POP JUMP JUMPDEST PUSH1 0x0 PUSH2 0x9D8 DUP3 PUSH2 0x1038 JUMP JUMPDEST SWAP1 POP SWAP2 SWAP1 POP JUMP JUMPDEST PUSH1 0x0 DUP1 PUSH20 0xFFFFFFFFFFFFFFFFFFFFFFFFFFFFFFFFFFFFFFFF AND DUP3 PUSH20 0xFFFFFFFFFFFFFFFFFFFFFFFFFFFFFFFFFFFFFFFF AND SUB PUSH2 0xA52 JUMPI PUSH1 0x0 PUSH1 0x40 MLOAD PUSH32 0x89C62B6400000000000000000000000000000000000000000000000000000000 DUP2 MSTORE PUSH1 0x4 ADD PUSH2 0xA49 SWAP2 SWAP1 PUSH2 0x2805 JUMP JUMPDEST PUSH1 0x40 MLOAD DUP1 SWAP2 SUB SWAP1 REVERT JUMPDEST PUSH1 0x3 PUSH1 0x0 DUP4 PUSH20 0xFFFFFFFFFFFFFFFFFFFFFFFFFFFFFFFFFFFFFFFF AND PUSH20 0xFFFFFFFFFFFFFFFFFFFFFFFFFFFFFFFFFFFFFFFF AND DUP2 MSTORE PUSH1 0x20 ADD SWAP1 DUP2 MSTORE PUSH1 0x20 ADD PUSH1 0x0 KECCAK256 SLOAD SWAP1 POP SWAP2 SWAP1 POP JUMP JUMPDEST PUSH2 0xAA1 PUSH2 0x112D JUMP JUMPDEST PUSH2 0xAAB PUSH1 0x0 PUSH2 0x11B4 JUMP JUMPDEST JUMP JUMPDEST PUSH1 0xD SLOAD CALLVALUE LT ISZERO PUSH2 0xAF2 JUMPI PUSH1 0x40 MLOAD PUSH32 0x8C379A000000000000000000000000000000000000000000000000000000000 DUP2 MSTORE PUSH1 0x4 ADD PUSH2 0xAE9 SWAP1 PUSH2 0x3048 JUMP JUMPDEST PUSH1 0x40 MLOAD DUP1 SWAP2 SUB SWAP1 REVERT JUMPDEST PUSH1 0xE PUSH1 0x0 DUP4 DUP2 MSTORE PUSH1 0x20 ADD SWAP1 DUP2 MSTORE PUSH1 0x20 ADD PUSH1 0x0 KECCAK256 PUSH1 0x0 SWAP1 SLOAD SWAP1 PUSH2 0x100 EXP SWAP1 DIV PUSH1 0xFF AND ISZERO PUSH2 0xB53 JUMPI PUSH1 0x40 MLOAD PUSH32 0x8C379A000000000000000000000000000000000000000000000000000000000 DUP2 MSTORE PUSH1 0x4 ADD PUSH2 0xB4A SWAP1 PUSH2 0x30B4 JUMP JUMPDEST PUSH1 0x40 MLOAD DUP1 SWAP2 SUB SWAP1 REVERT JUMPDEST PUSH1 0x1 PUSH1 0xE PUSH1 0x0 DUP5 DUP2 MSTORE PUSH1 0x20 ADD SWAP1 DUP2 MSTORE PUSH1 0x20 ADD PUSH1 0x0 KECCAK256 PUSH1 0x0 PUSH2 0x100 EXP DUP2 SLOAD DUP2 PUSH1 0xFF MUL NOT AND SWAP1 DUP4 ISZERO ISZERO MUL OR SWAP1 SSTORE POP PUSH2 0xB89 CALLER DUP4 PUSH2 0x127A JUMP JUMPDEST PUSH2 0xB93 DUP3 DUP3 PUSH2 0x1298 JUMP JUMPDEST POP POP JUMP JUMPDEST PUSH1 0x0 PUSH1 0x7 PUSH1 0x0 SWAP1 SLOAD SWAP1 PUSH2 0x100 EXP SWAP1 DIV PUSH20 0xFFFFFFFFFFFFFFFFFFFFFFFFFFFFFFFFFFFFFFFF AND SWAP1 POP SWAP1 JUMP JUMPDEST PUSH1 0x60 PUSH1 0x1 DUP1 SLOAD PUSH2 0xBD0 SWAP1 PUSH2 0x2E8A JUMP JUMPDEST DUP1 PUSH1 0x1F ADD PUSH1 0x20 DUP1 SWAP2 DIV MUL PUSH1 0x20 ADD PUSH1 0x40 MLOAD SWAP1 DUP2 ADD PUSH1 0x40 MSTORE DUP1 SWAP3 SWAP2 SWAP1 DUP2 DUP2 MSTORE PUSH1 0x20 ADD DUP3 DUP1 SLOAD PUSH2 0xBFC SWAP1 PUSH2 0x2E8A JUMP JUMPDEST DUP1 ISZERO PUSH2 0xC49 JUMPI DUP1 PUSH1 0x1F LT PUSH2 0xC1E JUMPI PUSH2 0x100 DUP1 DUP4 SLOAD DIV MUL DUP4 MSTORE SWAP2 PUSH1 0x20 ADD SWAP2 PUSH2 0xC49 JUMP JUMPDEST DUP3 ADD SWAP2 SWAP1 PUSH1 0x0 MSTORE PUSH1 0x20 PUSH1 0x0 KECCAK256 SWAP1 JUMPDEST DUP2 SLOAD DUP2 MSTORE SWAP1 PUSH1 0x1 ADD SWAP1 PUSH1 0x20 ADD DUP1 DUP4 GT PUSH2 0xC2C JUMPI DUP3 SWAP1 SUB PUSH1 0x1F AND DUP3 ADD SWAP2 JUMPDEST POP POP POP POP POP SWAP1 POP SWAP1 JUMP JUMPDEST PUSH2 0xC65 PUSH2 0xC5E PUSH2 0x10FD JUMP JUMPDEST DUP4 DUP4 PUSH2 0x12F4 JUMP JUMPDEST POP POP JUMP JUMPDEST PUSH2 0xC74 DUP5 DUP5 DUP5 PUSH2 0x6CE JUMP JUMPDEST PUSH2 0xC88 PUSH2 0xC7F PUSH2 0x10FD JUMP JUMPDEST DUP6 DUP6 DUP6 DUP6 PUSH2 0x1463 JUMP JUMPDEST POP POP POP POP JUMP JUMPDEST PUSH1 0x60 PUSH2 0xC99 DUP3 PUSH2 0x1614 JUMP JUMPDEST SWAP1 POP SWAP2 SWAP1 POP JUMP JUMPDEST PUSH2 0xCA8 PUSH2 0x112D JUMP JUMPDEST DUP1 MLOAD DUP3 EQ PUSH2 0xCEB JUMPI PUSH1 0x40 MLOAD PUSH32 0x8C379A000000000000000000000000000000000000000000000000000000000 DUP2 MSTORE PUSH1 0x4 ADD PUSH2 0xCE2 SWAP1 PUSH2 0x3146 JUMP JUMPDEST PUSH1 0x40 MLOAD DUP1 SWAP2 SUB SWAP1 REVERT JUMPDEST PUSH1 0x0 JUMPDEST DUP3 DUP2 LT ISZERO PUSH2 0xDDE JUMPI PUSH1 0x0 PUSH1 0xC SLOAD SWAP1 POP PUSH1 0xC PUSH1 0x0 DUP2 SLOAD DUP1 SWAP3 SWAP2 SWAP1 PUSH2 0xD10 SWAP1 PUSH2 0x3195 JUMP JUMPDEST SWAP2 SWAP1 POP SSTORE POP PUSH1 0xE PUSH1 0x0 DUP3 DUP2 MSTORE PUSH1 0x20 ADD SWAP1 DUP2 MSTORE PUSH1 0x20 ADD PUSH1 0x0 KECCAK256 PUSH1 0x0 SWAP1 SLOAD SWAP1 PUSH2 0x100 EXP SWAP1 DIV PUSH1 0xFF AND ISZERO PUSH2 0xD76 JUMPI PUSH1 0x40 MLOAD PUSH32 0x8C379A000000000000000000000000000000000000000000000000000000000 DUP2 MSTORE PUSH1 0x4 ADD PUSH2 0xD6D SWAP1 PUSH2 0x3229 JUMP JUMPDEST PUSH1 0x40 MLOAD DUP1 SWAP2 SUB SWAP1 REVERT JUMPDEST PUSH1 0x1 PUSH1 0xE PUSH1 0x0 DUP4 DUP2 MSTORE PUSH1 0x20 ADD SWAP1 DUP2 MSTORE PUSH1 0x20 ADD PUSH1 0x0 KECCAK256 PUSH1 0x0 PUSH2 0x100 EXP DUP2 SLOAD DUP2 PUSH1 0xFF MUL NOT AND SWAP1 DUP4 ISZERO ISZERO MUL OR SWAP1 SSTORE POP PUSH2 0xDAC DUP6 DUP3 PUSH2 0x127A JUMP JUMPDEST PUSH2 0xDD0 DUP2 DUP5 DUP5 DUP2 MLOAD DUP2 LT PUSH2 0xDC3 JUMPI PUSH2 0xDC2 PUSH2 0x2FCD JUMP JUMPDEST JUMPDEST PUSH1 0x20 MUL PUSH1 0x20 ADD ADD MLOAD PUSH2 0x1298 JUMP JUMPDEST POP DUP1 DUP1 PUSH1 0x1 ADD SWAP2 POP POP PUSH2 0xCEE JUMP JUMPDEST POP POP POP POP JUMP JUMPDEST PUSH2 0xDEC PUSH2 0x112D JUMP JUMPDEST PUSH1 0xE PUSH1 0x0 DUP4 DUP2 MSTORE PUSH1 0x20 ADD SWAP1 DUP2 MSTORE PUSH1 0x20 ADD PUSH1 0x0 KECCAK256 PUSH1 0x0 SWAP1 SLOAD SWAP1 PUSH2 0x100 EXP SWAP1 DIV PUSH1 0xFF AND ISZERO PUSH2 0xE4D JUMPI PUSH1 0x40 MLOAD PUSH32 0x8C379A000000000000000000000000000000000000000000000000000000000 DUP2 MSTORE PUSH1 0x4 ADD PUSH2 0xE44 SWAP1 PUSH2 0x3229 JUMP JUMPDEST PUSH1 0x40 MLOAD DUP1 SWAP2 SUB SWAP1 REVERT JUMPDEST PUSH1 0x1 PUSH1 0xE PUSH1 0x0 DUP5 DUP2 MSTORE PUSH1 0x20 ADD SWAP1 DUP2 MSTORE PUSH1 0x20 ADD PUSH1 0x0 KECCAK256 PUSH1 0x0 PUSH2 0x100 EXP DUP2 SLOAD DUP2 PUSH1 0xFF MUL NOT AND SWAP1 DUP4 ISZERO ISZERO MUL OR SWAP1 SSTORE POP PUSH2 0xE83 DUP4 DUP4 PUSH2 0x127A JUMP JUMPDEST PUSH2 0xE8D DUP3 DUP3 PUSH2 0x1298 JUMP JUMPDEST POP POP POP JUMP JUMPDEST PUSH1 0x0 PUSH1 0x5 PUSH1 0x0 DUP5 PUSH20 0xFFFFFFFFFFFFFFFFFFFFFFFFFFFFFFFFFFFFFFFF AND PUSH20 0xFFFFFFFFFFFFFFFFFFFFFFFFFFFFFFFFFFFFFFFF AND DUP2 MSTORE PUSH1 0x20 ADD SWAP1 DUP2 MSTORE PUSH1 0x20 ADD PUSH1 0x0 KECCAK256 PUSH1 0x0 DUP4 PUSH20 0xFFFFFFFFFFFFFFFFFFFFFFFFFFFFFFFFFFFFFFFF AND PUSH20 0xFFFFFFFFFFFFFFFFFFFFFFFFFFFFFFFFFFFFFFFF AND DUP2 MSTORE PUSH1 0x20 ADD SWAP1 DUP2 MSTORE PUSH1 0x20 ADD PUSH1 0x0 KECCAK256 PUSH1 0x0 SWAP1 SLOAD SWAP1 PUSH2 0x100 EXP SWAP1 DIV PUSH1 0xFF AND SWAP1 POP SWAP3 SWAP2 POP POP JUMP JUMPDEST PUSH2 0xF2E PUSH2 0x112D JUMP JUMPDEST DUP1 PUSH1 0xD DUP2 SWAP1 SSTORE POP POP JUMP JUMPDEST PUSH2 0xF40 PUSH2 0x112D JUMP JUMPDEST PUSH1 0x0 PUSH20 0xFFFFFFFFFFFFFFFFFFFFFFFFFFFFFFFFFFFFFFFF AND DUP2 PUSH20 0xFFFFFFFFFFFFFFFFFFFFFFFFFFFFFFFFFFFFFFFF AND SUB PUSH2 0xFB2 JUMPI PUSH1 0x0 PUSH1 0x40 MLOAD PUSH32 0x1E4FBDF700000000000000000000000000000000000000000000000000000000 DUP2 MSTORE PUSH1 0x4 ADD PUSH2 0xFA9 SWAP2 SWAP1 PUSH2 0x2805 JUMP JUMPDEST PUSH1 0x40 MLOAD DUP1 SWAP2 SUB SWAP1 REVERT JUMPDEST PUSH2 0xFBB DUP2 PUSH2 0x11B4 JUMP JUMPDEST POP JUMP JUMPDEST PUSH1 0x0 PUSH32 0x780E9D6300000000000000000000000000000000000000000000000000000000 PUSH28 0xFFFFFFFFFFFFFFFFFFFFFFFFFFFFFFFFFFFFFFFFFFFFFFFFFFFFFFFF NOT AND DUP3 PUSH28 0xFFFFFFFFFFFFFFFFFFFFFFFFFFFFFFFFFFFFFFFFFFFFFFFFFFFFFFFF NOT AND EQ DUP1 PUSH2 0x1031 JUMPI POP PUSH2 0x1030 DUP3 PUSH2 0x1727 JUMP JUMPDEST JUMPDEST SWAP1 POP SWAP2 SWAP1 POP JUMP JUMPDEST PUSH1 0x0 DUP1 PUSH2 0x1044 DUP4 PUSH2 0x1788 JUMP JUMPDEST SWAP1 POP PUSH1 0x0 PUSH20 0xFFFFFFFFFFFFFFFFFFFFFFFFFFFFFFFFFFFFFFFF AND DUP2 PUSH20 0xFFFFFFFFFFFFFFFFFFFFFFFFFFFFFFFFFFFFFFFF AND SUB PUSH2 0x10B7 JUMPI DUP3 PUSH1 0x40 MLOAD PUSH32 0x7E27328900000000000000000000000000000000000000000000000000000000 DUP2 MSTORE PUSH1 0x4 ADD PUSH2 0x10AE SWAP2 SWAP1 PUSH2 0x289B JUMP JUMPDEST PUSH1 0x40 MLOAD DUP1 SWAP2 SUB SWAP1 REVERT JUMPDEST DUP1 SWAP2 POP POP SWAP2 SWAP1 POP JUMP JUMPDEST PUSH1 0x0 PUSH1 0x4 PUSH1 0x0 DUP4 DUP2 MSTORE PUSH1 0x20 ADD SWAP1 DUP2 MSTORE PUSH1 0x20 ADD PUSH1 0x0 KECCAK256 PUSH1 0x0 SWAP1 SLOAD SWAP1 PUSH2 0x100 EXP SWAP1 DIV PUSH20 0xFFFFFFFFFFFFFFFFFFFFFFFFFFFFFFFFFFFFFFFF AND SWAP1 POP SWAP2 SWAP1 POP JUMP JUMPDEST PUSH1 0x0 CALLER SWAP1 POP SWAP1 JUMP JUMPDEST PUSH2 0x1112 DUP4 DUP4 DUP4 PUSH1 0x1 PUSH2 0x17C5 JUMP JUMPDEST POP POP POP JUMP JUMPDEST PUSH1 0x0 PUSH2 0x1124 DUP5 DUP5 DUP5 PUSH2 0x198A JUMP JUMPDEST SWAP1 POP SWAP4 SWAP3 POP POP POP JUMP JUMPDEST PUSH2 0x1135 PUSH2 0x10FD JUMP JUMPDEST PUSH20 0xFFFFFFFFFFFFFFFFFFFFFFFFFFFFFFFFFFFFFFFF AND PUSH2 0x1153 PUSH2 0xB97 JUMP JUMPDEST PUSH20 0xFFFFFFFFFFFFFFFFFFFFFFFFFFFFFFFFFFFFFFFF AND EQ PUSH2 0x11B2 JUMPI PUSH2 0x1176 PUSH2 0x10FD JUMP JUMPDEST PUSH1 0x40 MLOAD PUSH32 0x118CDAA700000000000000000000000000000000000000000000000000000000 DUP2 MSTORE PUSH1 0x4 ADD PUSH2 0x11A9 SWAP2 SWAP1 PUSH2 0x2805 JUMP JUMPDEST PUSH1 0x40 MLOAD DUP1 SWAP2 SUB SWAP1 REVERT JUMPDEST JUMP JUMPDEST PUSH1 0x0 PUSH1 0x7 PUSH1 0x0 SWAP1 SLOAD SWAP1 PUSH2 0x100 EXP SWAP1 DIV PUSH20 0xFFFFFFFFFFFFFFFFFFFFFFFFFFFFFFFFFFFFFFFF AND SWAP1 POP DUP2 PUSH1 0x7 PUSH1 0x0 PUSH2 0x100 EXP DUP2 SLOAD DUP2 PUSH20 0xFFFFFFFFFFFFFFFFFFFFFFFFFFFFFFFFFFFFFFFF MUL NOT AND SWAP1 DUP4 PUSH20 0xFFFFFFFFFFFFFFFFFFFFFFFFFFFFFFFFFFFFFFFF AND MUL OR SWAP1 SSTORE POP DUP2 PUSH20 0xFFFFFFFFFFFFFFFFFFFFFFFFFFFFFFFFFFFFFFFF AND DUP2 PUSH20 0xFFFFFFFFFFFFFFFFFFFFFFFFFFFFFFFFFFFFFFFF AND PUSH32 0x8BE0079C531659141344CD1FD0A4F28419497F9722A3DAAFE3B4186F6B6457E0 PUSH1 0x40 MLOAD PUSH1 0x40 MLOAD DUP1 SWAP2 SUB SWAP1 LOG3 POP POP JUMP JUMPDEST PUSH2 0x1294 DUP3 DUP3 PUSH1 0x40 MLOAD DUP1 PUSH1 0x20 ADD PUSH1 0x40 MSTORE DUP1 PUSH1 0x0 DUP2 MSTORE POP PUSH2 0x1AA7 JUMP JUMPDEST POP POP JUMP JUMPDEST DUP1 PUSH1 0x6 PUSH1 0x0 DUP5 DUP2 MSTORE PUSH1 0x20 ADD SWAP1 DUP2 MSTORE PUSH1 0x20 ADD PUSH1 0x0 KECCAK256 SWAP1 DUP2 PUSH2 0x12B8 SWAP2 SWAP1 PUSH2 0x33F5 JUMP JUMPDEST POP PUSH32 0xF8E1A15ABA9398E019F0B49DF1A4FDE98EE17AE345CB5F6B5E2C27F5033E8CE7 DUP3 PUSH1 0x40 MLOAD PUSH2 0x12E8 SWAP2 SWAP1 PUSH2 0x289B JUMP JUMPDEST PUSH1 0x40 MLOAD DUP1 SWAP2 SUB SWAP1 LOG1 POP POP JUMP JUMPDEST PUSH1 0x0 PUSH20 0xFFFFFFFFFFFFFFFFFFFFFFFFFFFFFFFFFFFFFFFF AND DUP3 PUSH20 0xFFFFFFFFFFFFFFFFFFFFFFFFFFFFFFFFFFFFFFFF AND SUB PUSH2 0x1365 JUMPI DUP2 PUSH1 0x40 MLOAD PUSH32 0x5B08BA1800000000000000000000000000000000000000000000000000000000 DUP2 MSTORE PUSH1 0x4 ADD PUSH2 0x135C SWAP2 SWAP1 PUSH2 0x2805 JUMP JUMPDEST PUSH1 0x40 MLOAD DUP1 SWAP2 SUB SWAP1 REVERT JUMPDEST DUP1 PUSH1 0x5 PUSH1 0x0 DUP6 PUSH20 0xFFFFFFFFFFFFFFFFFFFFFFFFFFFFFFFFFFFFFFFF AND PUSH20 0xFFFFFFFFFFFFFFFFFFFFFFFFFFFFFFFFFFFFFFFF AND DUP2 MSTORE PUSH1 0x20 ADD SWAP1 DUP2 MSTORE PUSH1 0x20 ADD PUSH1 0x0 KECCAK256 PUSH1 0x0 DUP5 PUSH20 0xFFFFFFFFFFFFFFFFFFFFFFFFFFFFFFFFFFFFFFFF AND PUSH20 0xFFFFFFFFFFFFFFFFFFFFFFFFFFFFFFFFFFFFFFFF AND DUP2 MSTORE PUSH1 0x20 ADD SWAP1 DUP2 MSTORE PUSH1 0x20 ADD PUSH1 0x0 KECCAK256 PUSH1 0x0 PUSH2 0x100 EXP DUP2 SLOAD DUP2 PUSH1 0xFF MUL NOT AND SWAP1 DUP4 ISZERO ISZERO MUL OR SWAP1 SSTORE POP DUP2 PUSH20 0xFFFFFFFFFFFFFFFFFFFFFFFFFFFFFFFFFFFFFFFF AND DUP4 PUSH20 0xFFFFFFFFFFFFFFFFFFFFFFFFFFFFFFFFFFFFFFFF AND PUSH32 0x17307EAB39AB6107E8899845AD3D59BD9653F200F220920489CA2B5937696C31 DUP4 PUSH1 0x40 MLOAD PUSH2 0x1456 SWAP2 SWAP1 PUSH2 0x2694 JUMP JUMPDEST PUSH1 0x40 MLOAD DUP1 SWAP2 SUB SWAP1 LOG3 POP POP POP JUMP JUMPDEST PUSH1 0x0 DUP4 PUSH20 0xFFFFFFFFFFFFFFFFFFFFFFFFFFFFFFFFFFFFFFFF AND EXTCODESIZE GT ISZERO PUSH2 0x160D JUMPI DUP3 PUSH20 0xFFFFFFFFFFFFFFFFFFFFFFFFFFFFFFFFFFFFFFFF AND PUSH4 0x150B7A02 DUP7 DUP7 DUP6 DUP6 PUSH1 0x40 MLOAD DUP6 PUSH4 0xFFFFFFFF AND PUSH1 0xE0 SHL DUP2 MSTORE PUSH1 0x4 ADD PUSH2 0x14C2 SWAP5 SWAP4 SWAP3 SWAP2 SWAP1 PUSH2 0x351C JUMP JUMPDEST PUSH1 0x20 PUSH1 0x40 MLOAD DUP1 DUP4 SUB DUP2 PUSH1 0x0 DUP8 GAS CALL SWAP3 POP POP POP DUP1 ISZERO PUSH2 0x14FE JUMPI POP PUSH1 0x40 MLOAD RETURNDATASIZE PUSH1 0x1F NOT PUSH1 0x1F DUP3 ADD AND DUP3 ADD DUP1 PUSH1 0x40 MSTORE POP DUP2 ADD SWAP1 PUSH2 0x14FB SWAP2 SWAP1 PUSH2 0x357D JUMP JUMPDEST PUSH1 0x1 JUMPDEST PUSH2 0x1582 JUMPI RETURNDATASIZE DUP1 PUSH1 0x0 DUP2 EQ PUSH2 0x152E JUMPI PUSH1 0x40 MLOAD SWAP2 POP PUSH1 0x1F NOT PUSH1 0x3F RETURNDATASIZE ADD AND DUP3 ADD PUSH1 0x40 MSTORE RETURNDATASIZE DUP3 MSTORE RETURNDATASIZE PUSH1 0x0 PUSH1 0x20 DUP5 ADD RETURNDATACOPY PUSH2 0x1533 JUMP JUMPDEST PUSH1 0x60 SWAP2 POP JUMPDEST POP PUSH1 0x0 DUP2 MLOAD SUB PUSH2 0x157A JUMPI DUP4 PUSH1 0x40 MLOAD PUSH32 0x64A0AE9200000000000000000000000000000000000000000000000000000000 DUP2 MSTORE PUSH1 0x4 ADD PUSH2 0x1571 SWAP2 SWAP1 PUSH2 0x2805 JUMP JUMPDEST PUSH1 0x40 MLOAD DUP1 SWAP2 SUB SWAP1 REVERT JUMPDEST DUP1 MLOAD DUP2 PUSH1 0x20 ADD REVERT JUMPDEST PUSH4 0x150B7A02 PUSH1 0xE0 SHL PUSH28 0xFFFFFFFFFFFFFFFFFFFFFFFFFFFFFFFFFFFFFFFFFFFFFFFFFFFFFFFF NOT AND DUP2 PUSH28 0xFFFFFFFFFFFFFFFFFFFFFFFFFFFFFFFFFFFFFFFFFFFFFFFFFFFFFFFF NOT AND EQ PUSH2 0x160B JUMPI DUP4 PUSH1 0x40 MLOAD PUSH32 0x64A0AE9200000000000000000000000000000000000000000000000000000000 DUP2 MSTORE PUSH1 0x4 ADD PUSH2 0x1602 SWAP2 SWAP1 PUSH2 0x2805 JUMP JUMPDEST PUSH1 0x40 MLOAD DUP1 SWAP2 SUB SWAP1 REVERT JUMPDEST POP JUMPDEST POP POP POP POP POP JUMP JUMPDEST PUSH1 0x60 PUSH2 0x161F DUP3 PUSH2 0x1038 JUMP JUMPDEST POP PUSH1 0x0 PUSH1 0x6 PUSH1 0x0 DUP5 DUP2 MSTORE PUSH1 0x20 ADD SWAP1 DUP2 MSTORE PUSH1 0x20 ADD PUSH1 0x0 KECCAK256 DUP1 SLOAD PUSH2 0x1640 SWAP1 PUSH2 0x2E8A JUMP JUMPDEST DUP1 PUSH1 0x1F ADD PUSH1 0x20 DUP1 SWAP2 DIV MUL PUSH1 0x20 ADD PUSH1 0x40 MLOAD SWAP1 DUP2 ADD PUSH1 0x40 MSTORE DUP1 SWAP3 SWAP2 SWAP1 DUP2 DUP2 MSTORE PUSH1 0x20 ADD DUP3 DUP1 SLOAD PUSH2 0x166C SWAP1 PUSH2 0x2E8A JUMP JUMPDEST DUP1 ISZERO PUSH2 0x16B9 JUMPI DUP1 PUSH1 0x1F LT PUSH2 0x168E JUMPI PUSH2 0x100 DUP1 DUP4 SLOAD DIV MUL DUP4 MSTORE SWAP2 PUSH1 0x20 ADD SWAP2 PUSH2 0x16B9 JUMP JUMPDEST DUP3 ADD SWAP2 SWAP1 PUSH1 0x0 MSTORE PUSH1 0x20 PUSH1 0x0 KECCAK256 SWAP1 JUMPDEST DUP2 SLOAD DUP2 MSTORE SWAP1 PUSH1 0x1 ADD SWAP1 PUSH1 0x20 ADD DUP1 DUP4 GT PUSH2 0x169C JUMPI DUP3 SWAP1 SUB PUSH1 0x1F AND DUP3 ADD SWAP2 JUMPDEST POP POP POP POP POP SWAP1 POP PUSH1 0x0 PUSH2 0x16CA PUSH2 0x1ACB JUMP JUMPDEST SWAP1 POP PUSH1 0x0 DUP2 MLOAD SUB PUSH2 0x16DF JUMPI DUP2 SWAP3 POP POP POP PUSH2 0x1722 JUMP JUMPDEST PUSH1 0x0 DUP3 MLOAD GT ISZERO PUSH2 0x1714 JUMPI DUP1 DUP3 PUSH1 0x40 MLOAD PUSH1 0x20 ADD PUSH2 0x16FC SWAP3 SWAP2 SWAP1 PUSH2 0x35E6 JUMP JUMPDEST PUSH1 0x40 MLOAD PUSH1 0x20 DUP2 DUP4 SUB SUB DUP2 MSTORE SWAP1 PUSH1 0x40 MSTORE SWAP3 POP POP POP PUSH2 0x1722 JUMP JUMPDEST PUSH2 0x171D DUP5 PUSH2 0x1AE2 JUMP JUMPDEST SWAP3 POP POP POP JUMPDEST SWAP2 SWAP1 POP JUMP JUMPDEST PUSH1 0x0 PUSH4 0x49064906 PUSH1 0xE0 SHL PUSH28 0xFFFFFFFFFFFFFFFFFFFFFFFFFFFFFFFFFFFFFFFFFFFFFFFFFFFFFFFF NOT AND DUP3 PUSH28 0xFFFFFFFFFFFFFFFFFFFFFFFFFFFFFFFFFFFFFFFFFFFFFFFFFFFFFFFF NOT AND EQ DUP1 PUSH2 0x1781 JUMPI POP PUSH2 0x1780 DUP3 PUSH2 0x1B4B JUMP JUMPDEST JUMPDEST SWAP1 POP SWAP2 SWAP1 POP JUMP JUMPDEST PUSH1 0x0 PUSH1 0x2 PUSH1 0x0 DUP4 DUP2 MSTORE PUSH1 0x20 ADD SWAP1 DUP2 MSTORE PUSH1 0x20 ADD PUSH1 0x0 KECCAK256 PUSH1 0x0 SWAP1 SLOAD SWAP1 PUSH2 0x100 EXP SWAP1 DIV PUSH20 0xFFFFFFFFFFFFFFFFFFFFFFFFFFFFFFFFFFFFFFFF AND SWAP1 POP SWAP2 SWAP1 POP JUMP JUMPDEST DUP1 DUP1 PUSH2 0x17FE JUMPI POP PUSH1 0x0 PUSH20 0xFFFFFFFFFFFFFFFFFFFFFFFFFFFFFFFFFFFFFFFF AND DUP3 PUSH20 0xFFFFFFFFFFFFFFFFFFFFFFFFFFFFFFFFFFFFFFFF AND EQ ISZERO JUMPDEST ISZERO PUSH2 0x1932 JUMPI PUSH1 0x0 PUSH2 0x180E DUP5 PUSH2 0x1038 JUMP JUMPDEST SWAP1 POP PUSH1 0x0 PUSH20 0xFFFFFFFFFFFFFFFFFFFFFFFFFFFFFFFFFFFFFFFF AND DUP4 PUSH20 0xFFFFFFFFFFFFFFFFFFFFFFFFFFFFFFFFFFFFFFFF AND EQ ISZERO DUP1 ISZERO PUSH2 0x1879 JUMPI POP DUP3 PUSH20 0xFFFFFFFFFFFFFFFFFFFFFFFFFFFFFFFFFFFFFFFF AND DUP2 PUSH20 0xFFFFFFFFFFFFFFFFFFFFFFFFFFFFFFFFFFFFFFFF AND EQ ISZERO JUMPDEST DUP1 ISZERO PUSH2 0x188C JUMPI POP PUSH2 0x188A DUP2 DUP5 PUSH2 0xE92 JUMP JUMPDEST ISZERO JUMPDEST ISZERO PUSH2 0x18CE JUMPI DUP3 PUSH1 0x40 MLOAD PUSH32 0xA9FBF51F00000000000000000000000000000000000000000000000000000000 DUP2 MSTORE PUSH1 0x4 ADD PUSH2 0x18C5 SWAP2 SWAP1 PUSH2 0x2805 JUMP JUMPDEST PUSH1 0x40 MLOAD DUP1 SWAP2 SUB SWAP1 REVERT JUMPDEST DUP2 ISZERO PUSH2 0x1930 JUMPI DUP4 DUP6 PUSH20 0xFFFFFFFFFFFFFFFFFFFFFFFFFFFFFFFFFFFFFFFF AND DUP3 PUSH20 0xFFFFFFFFFFFFFFFFFFFFFFFFFFFFFFFFFFFFFFFF AND PUSH32 0x8C5BE1E5EBEC7D5BD14F71427D1E84F3DD0314C0F7B2291E5B200AC8C7C3B925 PUSH1 0x40 MLOAD PUSH1 0x40 MLOAD DUP1 SWAP2 SUB SWAP1 LOG4 JUMPDEST POP JUMPDEST DUP4 PUSH1 0x4 PUSH1 0x0 DUP6 DUP2 MSTORE PUSH1 0x20 ADD SWAP1 DUP2 MSTORE PUSH1 0x20 ADD PUSH1 0x0 KECCAK256 PUSH1 0x0 PUSH2 0x100 EXP DUP2 SLOAD DUP2 PUSH20 0xFFFFFFFFFFFFFFFFFFFFFFFFFFFFFFFFFFFFFFFF MUL NOT AND SWAP1 DUP4 PUSH20 0xFFFFFFFFFFFFFFFFFFFFFFFFFFFFFFFFFFFFFFFF AND MUL OR SWAP1 SSTORE POP POP POP POP POP JUMP JUMPDEST PUSH1 0x0 DUP1 PUSH2 0x1998 DUP6 DUP6 DUP6 PUSH2 0x1C2D JUMP JUMPDEST SWAP1 POP PUSH1 0x0 PUSH20 0xFFFFFFFFFFFFFFFFFFFFFFFFFFFFFFFFFFFFFFFF AND DUP2 PUSH20 0xFFFFFFFFFFFFFFFFFFFFFFFFFFFFFFFFFFFFFFFF AND SUB PUSH2 0x19DC JUMPI PUSH2 0x19D7 DUP5 PUSH2 0x1E47 JUMP JUMPDEST PUSH2 0x1A1B JUMP JUMPDEST DUP5 PUSH20 0xFFFFFFFFFFFFFFFFFFFFFFFFFFFFFFFFFFFFFFFF AND DUP2 PUSH20 0xFFFFFFFFFFFFFFFFFFFFFFFFFFFFFFFFFFFFFFFF AND EQ PUSH2 0x1A1A JUMPI PUSH2 0x1A19 DUP2 DUP6 PUSH2 0x1E90 JUMP JUMPDEST JUMPDEST JUMPDEST PUSH1 0x0 PUSH20 0xFFFFFFFFFFFFFFFFFFFFFFFFFFFFFFFFFFFFFFFF AND DUP6 PUSH20 0xFFFFFFFFFFFFFFFFFFFFFFFFFFFFFFFFFFFFFFFF AND SUB PUSH2 0x1A5D JUMPI PUSH2 0x1A58 DUP5 PUSH2 0x1F7B JUMP JUMPDEST PUSH2 0x1A9C JUMP JUMPDEST DUP5 PUSH20 0xFFFFFFFFFFFFFFFFFFFFFFFFFFFFFFFFFFFFFFFF AND DUP2 PUSH20 0xFFFFFFFFFFFFFFFFFFFFFFFFFFFFFFFFFFFFFFFF AND EQ PUSH2 0x1A9B JUMPI PUSH2 0x1A9A DUP6 DUP6 PUSH2 0x204C JUMP JUMPDEST JUMPDEST JUMPDEST DUP1 SWAP2 POP POP SWAP4 SWAP3 POP POP POP JUMP JUMPDEST PUSH2 0x1AB1 DUP4 DUP4 PUSH2 0x20D7 JUMP JUMPDEST PUSH2 0x1AC6 PUSH2 0x1ABC PUSH2 0x10FD JUMP JUMPDEST PUSH1 0x0 DUP6 DUP6 DUP6 PUSH2 0x1463 JUMP JUMPDEST POP POP POP JUMP JUMPDEST PUSH1 0x60 PUSH1 0x40 MLOAD DUP1 PUSH1 0x20 ADD PUSH1 0x40 MSTORE DUP1 PUSH1 0x0 DUP2 MSTORE POP SWAP1 POP SWAP1 JUMP JUMPDEST PUSH1 0x60 PUSH2 0x1AED DUP3 PUSH2 0x1038 JUMP JUMPDEST POP PUSH1 0x0 PUSH2 0x1AF8 PUSH2 0x1ACB JUMP JUMPDEST SWAP1 POP PUSH1 0x0 DUP2 MLOAD GT PUSH2 0x1B18 JUMPI PUSH1 0x40 MLOAD DUP1 PUSH1 0x20 ADD PUSH1 0x40 MSTORE DUP1 PUSH1 0x0 DUP2 MSTORE POP PUSH2 0x1B43 JUMP JUMPDEST DUP1 PUSH2 0x1B22 DUP5 PUSH2 0x21D0 JUMP JUMPDEST PUSH1 0x40 MLOAD PUSH1 0x20 ADD PUSH2 0x1B33 SWAP3 SWAP2 SWAP1 PUSH2 0x35E6 JUMP JUMPDEST PUSH1 0x40 MLOAD PUSH1 0x20 DUP2 DUP4 SUB SUB DUP2 MSTORE SWAP1 PUSH1 0x40 MSTORE JUMPDEST SWAP2 POP POP SWAP2 SWAP1 POP JUMP JUMPDEST PUSH1 0x0 PUSH32 0x80AC58CD00000000000000000000000000000000000000000000000000000000 PUSH28 0xFFFFFFFFFFFFFFFFFFFFFFFFFFFFFFFFFFFFFFFFFFFFFFFFFFFFFFFF NOT AND DUP3 PUSH28 0xFFFFFFFFFFFFFFFFFFFFFFFFFFFFFFFFFFFFFFFFFFFFFFFFFFFFFFFF NOT AND EQ DUP1 PUSH2 0x1C16 JUMPI POP PUSH32 0x5B5E139F00000000000000000000000000000000000000000000000000000000 PUSH28 0xFFFFFFFFFFFFFFFFFFFFFFFFFFFFFFFFFFFFFFFFFFFFFFFFFFFFFFFF NOT AND DUP3 PUSH28 0xFFFFFFFFFFFFFFFFFFFFFFFFFFFFFFFFFFFFFFFFFFFFFFFFFFFFFFFF NOT AND EQ JUMPDEST DUP1 PUSH2 0x1C26 JUMPI POP PUSH2 0x1C25 DUP3 PUSH2 0x229E JUMP JUMPDEST JUMPDEST SWAP1 POP SWAP2 SWAP1 POP JUMP JUMPDEST PUSH1 0x0 DUP1 PUSH2 0x1C39 DUP5 PUSH2 0x1788 JUMP JUMPDEST SWAP1 POP PUSH1 0x0 PUSH20 0xFFFFFFFFFFFFFFFFFFFFFFFFFFFFFFFFFFFFFFFF AND DUP4 PUSH20 0xFFFFFFFFFFFFFFFFFFFFFFFFFFFFFFFFFFFFFFFF AND EQ PUSH2 0x1C7B JUMPI PUSH2 0x1C7A DUP2 DUP5 DUP7 PUSH2 0x2308 JUMP JUMPDEST JUMPDEST PUSH1 0x0 PUSH20 0xFFFFFFFFFFFFFFFFFFFFFFFFFFFFFFFFFFFFFFFF AND DUP2 PUSH20 0xFFFFFFFFFFFFFFFFFFFFFFFFFFFFFFFFFFFFFFFF AND EQ PUSH2 0x1D0C JUMPI PUSH2 0x1CBD PUSH1 0x0 DUP6 PUSH1 0x0 DUP1 PUSH2 0x17C5 JUMP JUMPDEST PUSH1 0x1 PUSH1 0x3 PUSH1 0x0 DUP4 PUSH20 0xFFFFFFFFFFFFFFFFFFFFFFFFFFFFFFFFFFFFFFFF AND PUSH20 0xFFFFFFFFFFFFFFFFFFFFFFFFFFFFFFFFFFFFFFFF AND DUP2 MSTORE PUSH1 0x20 ADD SWAP1 DUP2 MSTORE PUSH1 0x20 ADD PUSH1 0x0 KECCAK256 PUSH1 0x0 DUP3 DUP3 SLOAD SUB SWAP3 POP POP DUP2 SWAP1 SSTORE POP JUMPDEST PUSH1 0x0 PUSH20 0xFFFFFFFFFFFFFFFFFFFFFFFFFFFFFFFFFFFFFFFF AND DUP6 PUSH20 0xFFFFFFFFFFFFFFFFFFFFFFFFFFFFFFFFFFFFFFFF AND EQ PUSH2 0x1D8F JUMPI PUSH1 0x1 PUSH1 0x3 PUSH1 0x0 DUP8 PUSH20 0xFFFFFFFFFFFFFFFFFFFFFFFFFFFFFFFFFFFFFFFF AND PUSH20 0xFFFFFFFFFFFFFFFFFFFFFFFFFFFFFFFFFFFFFFFF AND DUP2 MSTORE PUSH1 0x20 ADD SWAP1 DUP2 MSTORE PUSH1 0x20 ADD PUSH1 0x0 KECCAK256 PUSH1 0x0 DUP3 DUP3 SLOAD ADD SWAP3 POP POP DUP2 SWAP1 SSTORE POP JUMPDEST DUP5 PUSH1 0x2 PUSH1 0x0 DUP7 DUP2 MSTORE PUSH1 0x20 ADD SWAP1 DUP2 MSTORE PUSH1 0x20 ADD PUSH1 0x0 KECCAK256 PUSH1 0x0 PUSH2 0x100 EXP DUP2 SLOAD DUP2 PUSH20 0xFFFFFFFFFFFFFFFFFFFFFFFFFFFFFFFFFFFFFFFF MUL NOT AND SWAP1 DUP4 PUSH20 0xFFFFFFFFFFFFFFFFFFFFFFFFFFFFFFFFFFFFFFFF AND MUL OR SWAP1 SSTORE POP DUP4 DUP6 PUSH20 0xFFFFFFFFFFFFFFFFFFFFFFFFFFFFFFFFFFFFFFFF AND DUP3 PUSH20 0xFFFFFFFFFFFFFFFFFFFFFFFFFFFFFFFFFFFFFFFF AND PUSH32 0xDDF252AD1BE2C89B69C2B068FC378DAA952BA7F163C4A11628F55A4DF523B3EF PUSH1 0x40 MLOAD PUSH1 0x40 MLOAD DUP1 SWAP2 SUB SWAP1 LOG4 DUP1 SWAP2 POP POP SWAP4 SWAP3 POP POP POP JUMP JUMPDEST PUSH1 0xA DUP1 SLOAD SWAP1 POP PUSH1 0xB PUSH1 0x0 DUP4 DUP2 MSTORE PUSH1 0x20 ADD SWAP1 DUP2 MSTORE PUSH1 0x20 ADD PUSH1 0x0 KECCAK256 DUP2 SWAP1 SSTORE POP PUSH1 0xA DUP2 SWAP1 DUP1 PUSH1 0x1 DUP2 SLOAD ADD DUP1 DUP3 SSTORE DUP1 SWAP2 POP POP PUSH1 0x1 SWAP1 SUB SWAP1 PUSH1 0x0 MSTORE PUSH1 0x20 PUSH1 0x0 KECCAK256 ADD PUSH1 0x0 SWAP1 SWAP2 SWAP1 SWAP2 SWAP1 SWAP2 POP SSTORE POP JUMP JUMPDEST PUSH1 0x0 PUSH2 0x1E9B DUP4 PUSH2 0x9DF JUMP JUMPDEST SWAP1 POP PUSH1 0x0 PUSH1 0x9 PUSH1 0x0 DUP5 DUP2 MSTORE PUSH1 0x20 ADD SWAP1 DUP2 MSTORE PUSH1 0x20 ADD PUSH1 0x0 KECCAK256 SLOAD SWAP1 POP PUSH1 0x0 PUSH1 0x8 PUSH1 0x0 DUP7 PUSH20 0xFFFFFFFFFFFFFFFFFFFFFFFFFFFFFFFFFFFFFFFF AND PUSH20 0xFFFFFFFFFFFFFFFFFFFFFFFFFFFFFFFFFFFFFFFF AND DUP2 MSTORE PUSH1 0x20 ADD SWAP1 DUP2 MSTORE PUSH1 0x20 ADD PUSH1 0x0 KECCAK256 SWAP1 POP DUP3 DUP3 EQ PUSH2 0x1F47 JUMPI PUSH1 0x0 DUP2 PUSH1 0x0 DUP6 DUP2 MSTORE PUSH1 0x20 ADD SWAP1 DUP2 MSTORE PUSH1 0x20 ADD PUSH1 0x0 KECCAK256 SLOAD SWAP1 POP DUP1 DUP3 PUSH1 0x0 DUP6 DUP2 MSTORE PUSH1 0x20 ADD SWAP1 DUP2 MSTORE PUSH1 0x20 ADD PUSH1 0x0 KECCAK256 DUP2 SWAP1 SSTORE POP DUP3 PUSH1 0x9 PUSH1 0x0 DUP4 DUP2 MSTORE PUSH1 0x20 ADD SWAP1 DUP2 MSTORE PUSH1 0x20 ADD PUSH1 0x0 KECCAK256 DUP2 SWAP1 SSTORE POP POP JUMPDEST PUSH1 0x9 PUSH1 0x0 DUP6 DUP2 MSTORE PUSH1 0x20 ADD SWAP1 DUP2 MSTORE PUSH1 0x20 ADD PUSH1 0x0 KECCAK256 PUSH1 0x0 SWAP1 SSTORE DUP1 PUSH1 0x0 DUP5 DUP2 MSTORE PUSH1 0x20 ADD SWAP1 DUP2 MSTORE PUSH1 0x20 ADD PUSH1 0x0 KECCAK256 PUSH1 0x0 SWAP1 SSTORE POP POP POP POP POP JUMP JUMPDEST PUSH1 0x0 PUSH1 0x1 PUSH1 0xA DUP1 SLOAD SWAP1 POP PUSH2 0x1F8F SWAP2 SWAP1 PUSH2 0x360A JUMP JUMPDEST SWAP1 POP PUSH1 0x0 PUSH1 0xB PUSH1 0x0 DUP5 DUP2 MSTORE PUSH1 0x20 ADD SWAP1 DUP2 MSTORE PUSH1 0x20 ADD PUSH1 0x0 KECCAK256 SLOAD SWAP1 POP PUSH1 0x0 PUSH1 0xA DUP4 DUP2 SLOAD DUP2 LT PUSH2 0x1FBF JUMPI PUSH2 0x1FBE PUSH2 0x2FCD JUMP JUMPDEST JUMPDEST SWAP1 PUSH1 0x0 MSTORE PUSH1 0x20 PUSH1 0x0 KECCAK256 ADD SLOAD SWAP1 POP DUP1 PUSH1 0xA DUP4 DUP2 SLOAD DUP2 LT PUSH2 0x1FE1 JUMPI PUSH2 0x1FE0 PUSH2 0x2FCD JUMP JUMPDEST JUMPDEST SWAP1 PUSH1 0x0 MSTORE PUSH1 0x20 PUSH1 0x0 KECCAK256 ADD DUP2 SWAP1 SSTORE POP DUP2 PUSH1 0xB PUSH1 0x0 DUP4 DUP2 MSTORE PUSH1 0x20 ADD SWAP1 DUP2 MSTORE PUSH1 0x20 ADD PUSH1 0x0 KECCAK256 DUP2 SWAP1 SSTORE POP PUSH1 0xB PUSH1 0x0 DUP6 DUP2 MSTORE PUSH1 0x20 ADD SWAP1 DUP2 MSTORE PUSH1 0x20 ADD PUSH1 0x0 KECCAK256 PUSH1 0x0 SWAP1 SSTORE PUSH1 0xA DUP1 SLOAD DUP1 PUSH2 0x2030 JUMPI PUSH2 0x202F PUSH2 0x363E JUMP JUMPDEST JUMPDEST PUSH1 0x1 SWAP1 SUB DUP2 DUP2 SWAP1 PUSH1 0x0 MSTORE PUSH1 0x20 PUSH1 0x0 KECCAK256 ADD PUSH1 0x0 SWAP1 SSTORE SWAP1 SSTORE POP POP POP POP JUMP JUMPDEST PUSH1 0x0 PUSH1 0x1 PUSH2 0x2059 DUP5 PUSH2 0x9DF JUMP JUMPDEST PUSH2 0x2063 SWAP2 SWAP1 PUSH2 0x360A JUMP JUMPDEST SWAP1 POP DUP2 PUSH1 0x8 PUSH1 0x0 DUP6 PUSH20 0xFFFFFFFFFFFFFFFFFFFFFFFFFFFFFFFFFFFFFFFF AND PUSH20 0xFFFFFFFFFFFFFFFFFFFFFFFFFFFFFFFFFFFFFFFF AND DUP2 MSTORE PUSH1 0x20 ADD SWAP1 DUP2 MSTORE PUSH1 0x20 ADD PUSH1 0x0 KECCAK256 PUSH1 0x0 DUP4 DUP2 MSTORE PUSH1 0x20 ADD SWAP1 DUP2 MSTORE PUSH1 0x20 ADD PUSH1 0x0 KECCAK256 DUP2 SWAP1 SSTORE POP DUP1 PUSH1 0x9 PUSH1 0x0 DUP5 DUP2 MSTORE PUSH1 0x20 ADD SWAP1 DUP2 MSTORE PUSH1 0x20 ADD PUSH1 0x0 KECCAK256 DUP2 SWAP1 SSTORE POP POP POP POP JUMP JUMPDEST PUSH1 0x0 PUSH20 0xFFFFFFFFFFFFFFFFFFFFFFFFFFFFFFFFFFFFFFFF AND DUP3 PUSH20 0xFFFFFFFFFFFFFFFFFFFFFFFFFFFFFFFFFFFFFFFF AND SUB PUSH2 0x2149 JUMPI PUSH1 0x0 PUSH1 0x40 MLOAD PUSH32 0x64A0AE9200000000000000000000000000000000000000000000000000000000 DUP2 MSTORE PUSH1 0x4 ADD PUSH2 0x2140 SWAP2 SWAP1 PUSH2 0x2805 JUMP JUMPDEST PUSH1 0x40 MLOAD DUP1 SWAP2 SUB SWAP1 REVERT JUMPDEST PUSH1 0x0 PUSH2 0x2157 DUP4 DUP4 PUSH1 0x0 PUSH2 0x1117 JUMP JUMPDEST SWAP1 POP PUSH1 0x0 PUSH20 0xFFFFFFFFFFFFFFFFFFFFFFFFFFFFFFFFFFFFFFFF AND DUP2 PUSH20 0xFFFFFFFFFFFFFFFFFFFFFFFFFFFFFFFFFFFFFFFF AND EQ PUSH2 0x21CB JUMPI PUSH1 0x0 PUSH1 0x40 MLOAD PUSH32 0x73C6AC6E00000000000000000000000000000000000000000000000000000000 DUP2 MSTORE PUSH1 0x4 ADD PUSH2 0x21C2 SWAP2 SWAP1 PUSH2 0x2805 JUMP JUMPDEST PUSH1 0x40 MLOAD DUP1 SWAP2 SUB SWAP1 REVERT JUMPDEST POP POP POP JUMP JUMPDEST PUSH1 0x60 PUSH1 0x0 PUSH1 0x1 PUSH2 0x21DF DUP5 PUSH2 0x23CC JUMP JUMPDEST ADD SWAP1 POP PUSH1 0x0 DUP2 PUSH8 0xFFFFFFFFFFFFFFFF DUP2 GT ISZERO PUSH2 0x21FE JUMPI PUSH2 0x21FD PUSH2 0x2940 JUMP JUMPDEST JUMPDEST PUSH1 0x40 MLOAD SWAP1 DUP1 DUP3 MSTORE DUP1 PUSH1 0x1F ADD PUSH1 0x1F NOT AND PUSH1 0x20 ADD DUP3 ADD PUSH1 0x40 MSTORE DUP1 ISZERO PUSH2 0x2230 JUMPI DUP2 PUSH1 0x20 ADD PUSH1 0x1 DUP3 MUL DUP1 CALLDATASIZE DUP4 CALLDATACOPY DUP1 DUP3 ADD SWAP2 POP POP SWAP1 POP JUMPDEST POP SWAP1 POP PUSH1 0x0 DUP3 PUSH1 0x20 ADD DUP3 ADD SWAP1 POP JUMPDEST PUSH1 0x1 ISZERO PUSH2 0x2293 JUMPI DUP1 DUP1 PUSH1 0x1 SWAP1 SUB SWAP2 POP POP PUSH32 0x3031323334353637383961626364656600000000000000000000000000000000 PUSH1 0xA DUP7 MOD BYTE DUP2 MSTORE8 PUSH1 0xA DUP6 DUP2 PUSH2 0x2287 JUMPI PUSH2 0x2286 PUSH2 0x366D JUMP JUMPDEST JUMPDEST DIV SWAP5 POP PUSH1 0x0 DUP6 SUB PUSH2 0x223E JUMPI JUMPDEST DUP2 SWAP4 POP POP POP POP SWAP2 SWAP1 POP JUMP JUMPDEST PUSH1 0x0 PUSH32 0x1FFC9A700000000000000000000000000000000000000000000000000000000 PUSH28 0xFFFFFFFFFFFFFFFFFFFFFFFFFFFFFFFFFFFFFFFFFFFFFFFFFFFFFFFF NOT AND DUP3 PUSH28 0xFFFFFFFFFFFFFFFFFFFFFFFFFFFFFFFFFFFFFFFFFFFFFFFFFFFFFFFF NOT AND EQ SWAP1 POP SWAP2 SWAP1 POP JUMP JUMPDEST PUSH2 0x2313 DUP4 DUP4 DUP4 PUSH2 0x251F JUMP JUMPDEST PUSH2 0x23C7 JUMPI PUSH1 0x0 PUSH20 0xFFFFFFFFFFFFFFFFFFFFFFFFFFFFFFFFFFFFFFFF AND DUP4 PUSH20 0xFFFFFFFFFFFFFFFFFFFFFFFFFFFFFFFFFFFFFFFF AND SUB PUSH2 0x2388 JUMPI DUP1 PUSH1 0x40 MLOAD PUSH32 0x7E27328900000000000000000000000000000000000000000000000000000000 DUP2 MSTORE PUSH1 0x4 ADD PUSH2 0x237F SWAP2 SWAP1 PUSH2 0x289B JUMP JUMPDEST PUSH1 0x40 MLOAD DUP1 SWAP2 SUB SWAP1 REVERT JUMPDEST DUP2 DUP2 PUSH1 0x40 MLOAD PUSH32 0x177E802F00000000000000000000000000000000000000000000000000000000 DUP2 MSTORE PUSH1 0x4 ADD PUSH2 0x23BE SWAP3 SWAP2 SWAP1 PUSH2 0x2EF2 JUMP JUMPDEST PUSH1 0x40 MLOAD DUP1 SWAP2 SUB SWAP1 REVERT JUMPDEST POP POP POP JUMP JUMPDEST PUSH1 0x0 DUP1 PUSH1 0x0 SWAP1 POP PUSH27 0x184F03E93FF9F4DAA797ED6E38ED64BF6A1F010000000000000000 DUP4 LT PUSH2 0x242A JUMPI PUSH27 0x184F03E93FF9F4DAA797ED6E38ED64BF6A1F010000000000000000 DUP4 DUP2 PUSH2 0x2420 JUMPI PUSH2 0x241F PUSH2 0x366D JUMP JUMPDEST JUMPDEST DIV SWAP3 POP PUSH1 0x40 DUP2 ADD SWAP1 POP JUMPDEST PUSH14 0x4EE2D6D415B85ACEF8100000000 DUP4 LT PUSH2 0x2467 JUMPI PUSH14 0x4EE2D6D415B85ACEF8100000000 DUP4 DUP2 PUSH2 0x245D JUMPI PUSH2 0x245C PUSH2 0x366D JUMP JUMPDEST JUMPDEST DIV SWAP3 POP PUSH1 0x20 DUP2 ADD SWAP1 POP JUMPDEST PUSH7 0x2386F26FC10000 DUP4 LT PUSH2 0x2496 JUMPI PUSH7 0x2386F26FC10000 DUP4 DUP2 PUSH2 0x248C JUMPI PUSH2 0x248B PUSH2 0x366D JUMP JUMPDEST JUMPDEST DIV SWAP3 POP PUSH1 0x10 DUP2 ADD SWAP1 POP JUMPDEST PUSH4 0x5F5E100 DUP4 LT PUSH2 0x24BF JUMPI PUSH4 0x5F5E100 DUP4 DUP2 PUSH2 0x24B5 JUMPI PUSH2 0x24B4 PUSH2 0x366D JUMP JUMPDEST JUMPDEST DIV SWAP3 POP PUSH1 0x8 DUP2 ADD SWAP1 POP JUMPDEST PUSH2 0x2710 DUP4 LT PUSH2 0x24E4 JUMPI PUSH2 0x2710 DUP4 DUP2 PUSH2 0x24DA JUMPI PUSH2 0x24D9 PUSH2 0x366D JUMP JUMPDEST JUMPDEST DIV SWAP3 POP PUSH1 0x4 DUP2 ADD SWAP1 POP JUMPDEST PUSH1 0x64 DUP4 LT PUSH2 0x2507 JUMPI PUSH1 0x64 DUP4 DUP2 PUSH2 0x24FD JUMPI PUSH2 0x24FC PUSH2 0x366D JUMP JUMPDEST JUMPDEST DIV SWAP3 POP PUSH1 0x2 DUP2 ADD SWAP1 POP JUMPDEST PUSH1 0xA DUP4 LT PUSH2 0x2516 JUMPI PUSH1 0x1 DUP2 ADD SWAP1 POP JUMPDEST DUP1 SWAP2 POP POP SWAP2 SWAP1 POP JUMP JUMPDEST PUSH1 0x0 DUP1 PUSH20 0xFFFFFFFFFFFFFFFFFFFFFFFFFFFFFFFFFFFFFFFF AND DUP4 PUSH20 0xFFFFFFFFFFFFFFFFFFFFFFFFFFFFFFFFFFFFFFFF AND EQ ISZERO DUP1 ISZERO PUSH2 0x25D7 JUMPI POP DUP3 PUSH20 0xFFFFFFFFFFFFFFFFFFFFFFFFFFFFFFFFFFFFFFFF AND DUP5 PUSH20 0xFFFFFFFFFFFFFFFFFFFFFFFFFFFFFFFFFFFFFFFF AND EQ DUP1 PUSH2 0x2598 JUMPI POP PUSH2 0x2597 DUP5 DUP5 PUSH2 0xE92 JUMP JUMPDEST JUMPDEST DUP1 PUSH2 0x25D6 JUMPI POP DUP3 PUSH20 0xFFFFFFFFFFFFFFFFFFFFFFFFFFFFFFFFFFFFFFFF AND PUSH2 0x25BE DUP4 PUSH2 0x10C0 JUMP JUMPDEST PUSH20 0xFFFFFFFFFFFFFFFFFFFFFFFFFFFFFFFFFFFFFFFF AND EQ JUMPDEST JUMPDEST SWAP1 POP SWAP4 SWAP3 POP POP POP JUMP JUMPDEST PUSH1 0x0 PUSH1 0x40 MLOAD SWAP1 POP SWAP1 JUMP JUMPDEST PUSH1 0x0 DUP1 REVERT JUMPDEST PUSH1 0x0 DUP1 REVERT JUMPDEST PUSH1 0x0 PUSH32 0xFFFFFFFF00000000000000000000000000000000000000000000000000000000 DUP3 AND SWAP1 POP SWAP2 SWAP1 POP JUMP JUMPDEST PUSH2 0x2629 DUP2 PUSH2 0x25F4 JUMP JUMPDEST DUP2 EQ PUSH2 0x2634 JUMPI PUSH1 0x0 DUP1 REVERT JUMPDEST POP JUMP JUMPDEST PUSH1 0x0 DUP2 CALLDATALOAD SWAP1 POP PUSH2 0x2646 DUP2 PUSH2 0x2620 JUMP JUMPDEST SWAP3 SWAP2 POP POP JUMP JUMPDEST PUSH1 0x0 PUSH1 0x20 DUP3 DUP5 SUB SLT ISZERO PUSH2 0x2662 JUMPI PUSH2 0x2661 PUSH2 0x25EA JUMP JUMPDEST JUMPDEST PUSH1 0x0 PUSH2 0x2670 DUP5 DUP3 DUP6 ADD PUSH2 0x2637 JUMP JUMPDEST SWAP2 POP POP SWAP3 SWAP2 POP POP JUMP JUMPDEST PUSH1 0x0 DUP2 ISZERO ISZERO SWAP1 POP SWAP2 SWAP1 POP JUMP JUMPDEST PUSH2 0x268E DUP2 PUSH2 0x2679 JUMP JUMPDEST DUP3 MSTORE POP POP JUMP JUMPDEST PUSH1 0x0 PUSH1 0x20 DUP3 ADD SWAP1 POP PUSH2 0x26A9 PUSH1 0x0 DUP4 ADD DUP5 PUSH2 0x2685 JUMP JUMPDEST SWAP3 SWAP2 POP POP JUMP JUMPDEST PUSH1 0x0 DUP2 MLOAD SWAP1 POP SWAP2 SWAP1 POP JUMP JUMPDEST PUSH1 0x0 DUP3 DUP3 MSTORE PUSH1 0x20 DUP3 ADD SWAP1 POP SWAP3 SWAP2 POP POP JUMP JUMPDEST PUSH1 0x0 JUMPDEST DUP4 DUP2 LT ISZERO PUSH2 0x26E9 JUMPI DUP1 DUP3 ADD MLOAD DUP2 DUP5 ADD MSTORE PUSH1 0x20 DUP2 ADD SWAP1 POP PUSH2 0x26CE JUMP JUMPDEST PUSH1 0x0 DUP5 DUP5 ADD MSTORE POP POP POP POP JUMP JUMPDEST PUSH1 0x0 PUSH1 0x1F NOT PUSH1 0x1F DUP4 ADD AND SWAP1 POP SWAP2 SWAP1 POP JUMP JUMPDEST PUSH1 0x0 PUSH2 0x2711 DUP3 PUSH2 0x26AF JUMP JUMPDEST PUSH2 0x271B DUP2 DUP6 PUSH2 0x26BA JUMP JUMPDEST SWAP4 POP PUSH2 0x272B DUP2 DUP6 PUSH1 0x20 DUP7 ADD PUSH2 0x26CB JUMP JUMPDEST PUSH2 0x2734 DUP2 PUSH2 0x26F5 JUMP JUMPDEST DUP5 ADD SWAP2 POP POP SWAP3 SWAP2 POP POP JUMP JUMPDEST PUSH1 0x0 PUSH1 0x20 DUP3 ADD SWAP1 POP DUP2 DUP2 SUB PUSH1 0x0 DUP4 ADD MSTORE PUSH2 0x2759 DUP2 DUP5 PUSH2 0x2706 JUMP JUMPDEST SWAP1 POP SWAP3 SWAP2 POP POP JUMP JUMPDEST PUSH1 0x0 DUP2 SWAP1 POP SWAP2 SWAP1 POP JUMP JUMPDEST PUSH2 0x2774 DUP2 PUSH2 0x2761 JUMP JUMPDEST DUP2 EQ PUSH2 0x277F JUMPI PUSH1 0x0 DUP1 REVERT JUMPDEST POP JUMP JUMPDEST PUSH1 0x0 DUP2 CALLDATALOAD SWAP1 POP PUSH2 0x2791 DUP2 PUSH2 0x276B JUMP JUMPDEST SWAP3 SWAP2 POP POP JUMP JUMPDEST PUSH1 0x0 PUSH1 0x20 DUP3 DUP5 SUB SLT ISZERO PUSH2 0x27AD JUMPI PUSH2 0x27AC PUSH2 0x25EA JUMP JUMPDEST JUMPDEST PUSH1 0x0 PUSH2 0x27BB DUP5 DUP3 DUP6 ADD PUSH2 0x2782 JUMP JUMPDEST SWAP2 POP POP SWAP3 SWAP2 POP POP JUMP JUMPDEST PUSH1 0x0 PUSH20 0xFFFFFFFFFFFFFFFFFFFFFFFFFFFFFFFFFFFFFFFF DUP3 AND SWAP1 POP SWAP2 SWAP1 POP JUMP JUMPDEST PUSH1 0x0 PUSH2 0x27EF DUP3 PUSH2 0x27C4 JUMP JUMPDEST SWAP1 POP SWAP2 SWAP1 POP JUMP JUMPDEST PUSH2 0x27FF DUP2 PUSH2 0x27E4 JUMP JUMPDEST DUP3 MSTORE POP POP JUMP JUMPDEST PUSH1 0x0 PUSH1 0x20 DUP3 ADD SWAP1 POP PUSH2 0x281A PUSH1 0x0 DUP4 ADD DUP5 PUSH2 0x27F6 JUMP JUMPDEST SWAP3 SWAP2 POP POP JUMP JUMPDEST PUSH2 0x2829 DUP2 PUSH2 0x27E4 JUMP JUMPDEST DUP2 EQ PUSH2 0x2834 JUMPI PUSH1 0x0 DUP1 REVERT JUMPDEST POP JUMP JUMPDEST PUSH1 0x0 DUP2 CALLDATALOAD SWAP1 POP PUSH2 0x2846 DUP2 PUSH2 0x2820 JUMP JUMPDEST SWAP3 SWAP2 POP POP JUMP JUMPDEST PUSH1 0x0 DUP1 PUSH1 0x40 DUP4 DUP6 SUB SLT ISZERO PUSH2 0x2863 JUMPI PUSH2 0x2862 PUSH2 0x25EA JUMP JUMPDEST JUMPDEST PUSH1 0x0 PUSH2 0x2871 DUP6 DUP3 DUP7 ADD PUSH2 0x2837 JUMP JUMPDEST SWAP3 POP POP PUSH1 0x20 PUSH2 0x2882 DUP6 DUP3 DUP7 ADD PUSH2 0x2782 JUMP JUMPDEST SWAP2 POP POP SWAP3 POP SWAP3 SWAP1 POP JUMP JUMPDEST PUSH2 0x2895 DUP2 PUSH2 0x2761 JUMP JUMPDEST DUP3 MSTORE POP POP JUMP JUMPDEST PUSH1 0x0 PUSH1 0x20 DUP3 ADD SWAP1 POP PUSH2 0x28B0 PUSH1 0x0 DUP4 ADD DUP5 PUSH2 0x288C JUMP JUMPDEST SWAP3 SWAP2 POP POP JUMP JUMPDEST PUSH1 0x0 DUP1 PUSH1 0x0 PUSH1 0x60 DUP5 DUP7 SUB SLT ISZERO PUSH2 0x28CF JUMPI PUSH2 0x28CE PUSH2 0x25EA JUMP JUMPDEST JUMPDEST PUSH1 0x0 PUSH2 0x28DD DUP7 DUP3 DUP8 ADD PUSH2 0x2837 JUMP JUMPDEST SWAP4 POP POP PUSH1 0x20 PUSH2 0x28EE DUP7 DUP3 DUP8 ADD PUSH2 0x2837 JUMP JUMPDEST SWAP3 POP POP PUSH1 0x40 PUSH2 0x28FF DUP7 DUP3 DUP8 ADD PUSH2 0x2782 JUMP JUMPDEST SWAP2 POP POP SWAP3 POP SWAP3 POP SWAP3 JUMP JUMPDEST PUSH1 0x0 PUSH1 0x20 DUP3 DUP5 SUB SLT ISZERO PUSH2 0x291F JUMPI PUSH2 0x291E PUSH2 0x25EA JUMP JUMPDEST JUMPDEST PUSH1 0x0 PUSH2 0x292D DUP5 DUP3 DUP6 ADD PUSH2 0x2837 JUMP JUMPDEST SWAP2 POP POP SWAP3 SWAP2 POP POP JUMP JUMPDEST PUSH1 0x0 DUP1 REVERT JUMPDEST PUSH1 0x0 DUP1 REVERT JUMPDEST PUSH32 0x4E487B7100000000000000000000000000000000000000000000000000000000 PUSH1 0x0 MSTORE PUSH1 0x41 PUSH1 0x4 MSTORE PUSH1 0x24 PUSH1 0x0 REVERT JUMPDEST PUSH2 0x2978 DUP3 PUSH2 0x26F5 JUMP JUMPDEST DUP2 ADD DUP2 DUP2 LT PUSH8 0xFFFFFFFFFFFFFFFF DUP3 GT OR ISZERO PUSH2 0x2997 JUMPI PUSH2 0x2996 PUSH2 0x2940 JUMP JUMPDEST JUMPDEST DUP1 PUSH1 0x40 MSTORE POP POP POP JUMP JUMPDEST PUSH1 0x0 PUSH2 0x29AA PUSH2 0x25E0 JUMP JUMPDEST SWAP1 POP PUSH2 0x29B6 DUP3 DUP3 PUSH2 0x296F JUMP JUMPDEST SWAP2 SWAP1 POP JUMP JUMPDEST PUSH1 0x0 PUSH8 0xFFFFFFFFFFFFFFFF DUP3 GT ISZERO PUSH2 0x29D6 JUMPI PUSH2 0x29D5 PUSH2 0x2940 JUMP JUMPDEST JUMPDEST PUSH2 0x29DF DUP3 PUSH2 0x26F5 JUMP JUMPDEST SWAP1 POP PUSH1 0x20 DUP2 ADD SWAP1 POP SWAP2 SWAP1 POP JUMP JUMPDEST DUP3 DUP2 DUP4 CALLDATACOPY PUSH1 0x0 DUP4 DUP4 ADD MSTORE POP POP POP JUMP JUMPDEST PUSH1 0x0 PUSH2 0x2A0E PUSH2 0x2A09 DUP5 PUSH2 0x29BB JUMP JUMPDEST PUSH2 0x29A0 JUMP JUMPDEST SWAP1 POP DUP3 DUP2 MSTORE PUSH1 0x20 DUP2 ADD DUP5 DUP5 DUP5 ADD GT ISZERO PUSH2 0x2A2A JUMPI PUSH2 0x2A29 PUSH2 0x293B JUMP JUMPDEST JUMPDEST PUSH2 0x2A35 DUP5 DUP3 DUP6 PUSH2 0x29EC JUMP JUMPDEST POP SWAP4 SWAP3 POP POP POP JUMP JUMPDEST PUSH1 0x0 DUP3 PUSH1 0x1F DUP4 ADD SLT PUSH2 0x2A52 JUMPI PUSH2 0x2A51 PUSH2 0x2936 JUMP JUMPDEST JUMPDEST DUP2 CALLDATALOAD PUSH2 0x2A62 DUP5 DUP3 PUSH1 0x20 DUP7 ADD PUSH2 0x29FB JUMP JUMPDEST SWAP2 POP POP SWAP3 SWAP2 POP POP JUMP JUMPDEST PUSH1 0x0 DUP1 PUSH1 0x40 DUP4 DUP6 SUB SLT ISZERO PUSH2 0x2A82 JUMPI PUSH2 0x2A81 PUSH2 0x25EA JUMP JUMPDEST JUMPDEST PUSH1 0x0 PUSH2 0x2A90 DUP6 DUP3 DUP7 ADD PUSH2 0x2782 JUMP JUMPDEST SWAP3 POP POP PUSH1 0x20 DUP4 ADD CALLDATALOAD PUSH8 0xFFFFFFFFFFFFFFFF DUP2 GT ISZERO PUSH2 0x2AB1 JUMPI PUSH2 0x2AB0 PUSH2 0x25EF JUMP JUMPDEST JUMPDEST PUSH2 0x2ABD DUP6 DUP3 DUP7 ADD PUSH2 0x2A3D JUMP JUMPDEST SWAP2 POP POP SWAP3 POP SWAP3 SWAP1 POP JUMP JUMPDEST PUSH2 0x2AD0 DUP2 PUSH2 0x2679 JUMP JUMPDEST DUP2 EQ PUSH2 0x2ADB JUMPI PUSH1 0x0 DUP1 REVERT JUMPDEST POP JUMP JUMPDEST PUSH1 0x0 DUP2 CALLDATALOAD SWAP1 POP PUSH2 0x2AED DUP2 PUSH2 0x2AC7 JUMP JUMPDEST SWAP3 SWAP2 POP POP JUMP JUMPDEST PUSH1 0x0 DUP1 PUSH1 0x40 DUP4 DUP6 SUB SLT ISZERO PUSH2 0x2B0A JUMPI PUSH2 0x2B09 PUSH2 0x25EA JUMP JUMPDEST JUMPDEST PUSH1 0x0 PUSH2 0x2B18 DUP6 DUP3 DUP7 ADD PUSH2 0x2837 JUMP JUMPDEST SWAP3 POP POP PUSH1 0x20 PUSH2 0x2B29 DUP6 DUP3 DUP7 ADD PUSH2 0x2ADE JUMP JUMPDEST SWAP2 POP POP SWAP3 POP SWAP3 SWAP1 POP JUMP JUMPDEST PUSH1 0x0 PUSH8 0xFFFFFFFFFFFFFFFF DUP3 GT ISZERO PUSH2 0x2B4E JUMPI PUSH2 0x2B4D PUSH2 0x2940 JUMP JUMPDEST JUMPDEST PUSH2 0x2B57 DUP3 PUSH2 0x26F5 JUMP JUMPDEST SWAP1 POP PUSH1 0x20 DUP2 ADD SWAP1 POP SWAP2 SWAP1 POP JUMP JUMPDEST PUSH1 0x0 PUSH2 0x2B77 PUSH2 0x2B72 DUP5 PUSH2 0x2B33 JUMP JUMPDEST PUSH2 0x29A0 JUMP JUMPDEST SWAP1 POP DUP3 DUP2 MSTORE PUSH1 0x20 DUP2 ADD DUP5 DUP5 DUP5 ADD GT ISZERO PUSH2 0x2B93 JUMPI PUSH2 0x2B92 PUSH2 0x293B JUMP JUMPDEST JUMPDEST PUSH2 0x2B9E DUP5 DUP3 DUP6 PUSH2 0x29EC JUMP JUMPDEST POP SWAP4 SWAP3 POP POP POP JUMP JUMPDEST PUSH1 0x0 DUP3 PUSH1 0x1F DUP4 ADD SLT PUSH2 0x2BBB JUMPI PUSH2 0x2BBA PUSH2 0x2936 JUMP JUMPDEST JUMPDEST DUP2 CALLDATALOAD PUSH2 0x2BCB DUP5 DUP3 PUSH1 0x20 DUP7 ADD PUSH2 0x2B64 JUMP JUMPDEST SWAP2 POP POP SWAP3 SWAP2 POP POP JUMP JUMPDEST PUSH1 0x0 DUP1 PUSH1 0x0 DUP1 PUSH1 0x80 DUP6 DUP8 SUB SLT ISZERO PUSH2 0x2BEE JUMPI PUSH2 0x2BED PUSH2 0x25EA JUMP JUMPDEST JUMPDEST PUSH1 0x0 PUSH2 0x2BFC DUP8 DUP3 DUP9 ADD PUSH2 0x2837 JUMP JUMPDEST SWAP5 POP POP PUSH1 0x20 PUSH2 0x2C0D DUP8 DUP3 DUP9 ADD PUSH2 0x2837 JUMP JUMPDEST SWAP4 POP POP PUSH1 0x40 PUSH2 0x2C1E DUP8 DUP3 DUP9 ADD PUSH2 0x2782 JUMP JUMPDEST SWAP3 POP POP PUSH1 0x60 DUP6 ADD CALLDATALOAD PUSH8 0xFFFFFFFFFFFFFFFF DUP2 GT ISZERO PUSH2 0x2C3F JUMPI PUSH2 0x2C3E PUSH2 0x25EF JUMP JUMPDEST JUMPDEST PUSH2 0x2C4B DUP8 DUP3 DUP9 ADD PUSH2 0x2BA6 JUMP JUMPDEST SWAP2 POP POP SWAP3 SWAP6 SWAP2 SWAP5 POP SWAP3 POP JUMP JUMPDEST PUSH1 0x0 PUSH8 0xFFFFFFFFFFFFFFFF DUP3 GT ISZERO PUSH2 0x2C72 JUMPI PUSH2 0x2C71 PUSH2 0x2940 JUMP JUMPDEST JUMPDEST PUSH1 0x20 DUP3 MUL SWAP1 POP PUSH1 0x20 DUP2 ADD SWAP1 POP SWAP2 SWAP1 POP JUMP JUMPDEST PUSH1 0x0 DUP1 REVERT JUMPDEST PUSH1 0x0 PUSH2 0x2C9B PUSH2 0x2C96 DUP5 PUSH2 0x2C57 JUMP JUMPDEST PUSH2 0x29A0 JUMP JUMPDEST SWAP1 POP DUP1 DUP4 DUP3 MSTORE PUSH1 0x20 DUP3 ADD SWAP1 POP PUSH1 0x20 DUP5 MUL DUP4 ADD DUP6 DUP2 GT ISZERO PUSH2 0x2CBE JUMPI PUSH2 0x2CBD PUSH2 0x2C83 JUMP JUMPDEST JUMPDEST DUP4 JUMPDEST DUP2 DUP2 LT ISZERO PUSH2 0x2D05 JUMPI DUP1 CALLDATALOAD PUSH8 0xFFFFFFFFFFFFFFFF DUP2 GT ISZERO PUSH2 0x2CE3 JUMPI PUSH2 0x2CE2 PUSH2 0x2936 JUMP JUMPDEST JUMPDEST DUP1 DUP7 ADD PUSH2 0x2CF0 DUP10 DUP3 PUSH2 0x2A3D JUMP JUMPDEST DUP6 MSTORE PUSH1 0x20 DUP6 ADD SWAP5 POP POP POP PUSH1 0x20 DUP2 ADD SWAP1 POP PUSH2 0x2CC0 JUMP JUMPDEST POP POP POP SWAP4 SWAP3 POP POP POP JUMP JUMPDEST PUSH1 0x0 DUP3 PUSH1 0x1F DUP4 ADD SLT PUSH2 0x2D24 JUMPI PUSH2 0x2D23 PUSH2 0x2936 JUMP JUMPDEST JUMPDEST DUP2 CALLDATALOAD PUSH2 0x2D34 DUP5 DUP3 PUSH1 0x20 DUP7 ADD PUSH2 0x2C88 JUMP JUMPDEST SWAP2 POP POP SWAP3 SWAP2 POP POP JUMP JUMPDEST PUSH1 0x0 DUP1 PUSH1 0x0 PUSH1 0x60 DUP5 DUP7 SUB SLT ISZERO PUSH2 0x2D56 JUMPI PUSH2 0x2D55 PUSH2 0x25EA JUMP JUMPDEST JUMPDEST PUSH1 0x0 PUSH2 0x2D64 DUP7 DUP3 DUP8 ADD PUSH2 0x2837 JUMP JUMPDEST SWAP4 POP POP PUSH1 0x20 PUSH2 0x2D75 DUP7 DUP3 DUP8 ADD PUSH2 0x2782 JUMP JUMPDEST SWAP3 POP POP PUSH1 0x40 DUP5 ADD CALLDATALOAD PUSH8 0xFFFFFFFFFFFFFFFF DUP2 GT ISZERO PUSH2 0x2D96 JUMPI PUSH2 0x2D95 PUSH2 0x25EF JUMP JUMPDEST JUMPDEST PUSH2 0x2DA2 DUP7 DUP3 DUP8 ADD PUSH2 0x2D0F JUMP JUMPDEST SWAP2 POP POP SWAP3 POP SWAP3 POP SWAP3 JUMP JUMPDEST PUSH1 0x0 DUP1 PUSH1 0x0 PUSH1 0x60 DUP5 DUP7 SUB SLT ISZERO PUSH2 0x2DC5 JUMPI PUSH2 0x2DC4 PUSH2 0x25EA JUMP JUMPDEST JUMPDEST PUSH1 0x0 PUSH2 0x2DD3 DUP7 DUP3 DUP8 ADD PUSH2 0x2837 JUMP JUMPDEST SWAP4 POP POP PUSH1 0x20 PUSH2 0x2DE4 DUP7 DUP3 DUP8 ADD PUSH2 0x2782 JUMP JUMPDEST SWAP3 POP POP PUSH1 0x40 DUP5 ADD CALLDATALOAD PUSH8 0xFFFFFFFFFFFFFFFF DUP2 GT ISZERO PUSH2 0x2E05 JUMPI PUSH2 0x2E04 PUSH2 0x25EF JUMP JUMPDEST JUMPDEST PUSH2 0x2E11 DUP7 DUP3 DUP8 ADD PUSH2 0x2A3D JUMP JUMPDEST SWAP2 POP POP SWAP3 POP SWAP3 POP SWAP3 JUMP JUMPDEST PUSH1 0x0 DUP1 PUSH1 0x40 DUP4 DUP6 SUB SLT ISZERO PUSH2 0x2E32 JUMPI PUSH2 0x2E31 PUSH2 0x25EA JUMP JUMPDEST JUMPDEST PUSH1 0x0 PUSH2 0x2E40 DUP6 DUP3 DUP7 ADD PUSH2 0x2837 JUMP JUMPDEST SWAP3 POP POP PUSH1 0x20 PUSH2 0x2E51 DUP6 DUP3 DUP7 ADD PUSH2 0x2837 JUMP JUMPDEST SWAP2 POP POP SWAP3 POP SWAP3 SWAP1 POP JUMP JUMPDEST PUSH32 0x4E487B7100000000000000000000000000000000000000000000000000000000 PUSH1 0x0 MSTORE PUSH1 0x22 PUSH1 0x4 MSTORE PUSH1 0x24 PUSH1 0x0 REVERT JUMPDEST PUSH1 0x0 PUSH1 0x2 DUP3 DIV SWAP1 POP PUSH1 0x1 DUP3 AND DUP1 PUSH2 0x2EA2 JUMPI PUSH1 0x7F DUP3 AND SWAP2 POP JUMPDEST PUSH1 0x20 DUP3 LT DUP2 SUB PUSH2 0x2EB5 JUMPI PUSH2 0x2EB4 PUSH2 0x2E5B JUMP JUMPDEST JUMPDEST POP SWAP2 SWAP1 POP JUMP JUMPDEST PUSH1 0x0 PUSH1 0x60 DUP3 ADD SWAP1 POP PUSH2 0x2ED0 PUSH1 0x0 DUP4 ADD DUP7 PUSH2 0x27F6 JUMP JUMPDEST PUSH2 0x2EDD PUSH1 0x20 DUP4 ADD DUP6 PUSH2 0x288C JUMP JUMPDEST PUSH2 0x2EEA PUSH1 0x40 DUP4 ADD DUP5 PUSH2 0x27F6 JUMP JUMPDEST SWAP5 SWAP4 POP POP POP POP JUMP JUMPDEST PUSH1 0x0 PUSH1 0x40 DUP3 ADD SWAP1 POP PUSH2 0x2F07 PUSH1 0x0 DUP4 ADD DUP6 PUSH2 0x27F6 JUMP JUMPDEST PUSH2 0x2F14 PUSH1 0x20 DUP4 ADD DUP5 PUSH2 0x288C JUMP JUMPDEST SWAP4 SWAP3 POP POP POP JUMP JUMPDEST PUSH1 0x0 DUP2 SWAP1 POP SWAP3 SWAP2 POP POP JUMP JUMPDEST POP JUMP JUMPDEST PUSH1 0x0 PUSH2 0x2F36 PUSH1 0x0 DUP4 PUSH2 0x2F1B JUMP JUMPDEST SWAP2 POP PUSH2 0x2F41 DUP3 PUSH2 0x2F26 JUMP JUMPDEST PUSH1 0x0 DUP3 ADD SWAP1 POP SWAP2 SWAP1 POP JUMP JUMPDEST PUSH1 0x0 PUSH2 0x2F57 DUP3 PUSH2 0x2F29 JUMP JUMPDEST SWAP2 POP DUP2 SWAP1 POP SWAP2 SWAP1 POP JUMP JUMPDEST PUSH32 0x5472616E73666572206661696C65640000000000000000000000000000000000 PUSH1 0x0 DUP3 ADD MSTORE POP JUMP JUMPDEST PUSH1 0x0 PUSH2 0x2F97 PUSH1 0xF DUP4 PUSH2 0x26BA JUMP JUMPDEST SWAP2 POP PUSH2 0x2FA2 DUP3 PUSH2 0x2F61 JUMP JUMPDEST PUSH1 0x20 DUP3 ADD SWAP1 POP SWAP2 SWAP1 POP JUMP JUMPDEST PUSH1 0x0 PUSH1 0x20 DUP3 ADD SWAP1 POP DUP2 DUP2 SUB PUSH1 0x0 DUP4 ADD MSTORE PUSH2 0x2FC6 DUP2 PUSH2 0x2F8A JUMP JUMPDEST SWAP1 POP SWAP2 SWAP1 POP JUMP JUMPDEST PUSH32 0x4E487B7100000000000000000000000000000000000000000000000000000000 PUSH1 0x0 MSTORE PUSH1 0x32 PUSH1 0x4 MSTORE PUSH1 0x24 PUSH1 0x0 REVERT JUMPDEST PUSH32 0x496E73756666696369656E74207061796D656E74000000000000000000000000 PUSH1 0x0 DUP3 ADD MSTORE POP JUMP JUMPDEST PUSH1 0x0 PUSH2 0x3032 PUSH1 0x14 DUP4 PUSH2 0x26BA JUMP JUMPDEST SWAP2 POP PUSH2 0x303D DUP3 PUSH2 0x2FFC JUMP JUMPDEST PUSH1 0x20 DUP3 ADD SWAP1 POP SWAP2 SWAP1 POP JUMP JUMPDEST PUSH1 0x0 PUSH1 0x20 DUP3 ADD SWAP1 POP DUP2 DUP2 SUB PUSH1 0x0 DUP4 ADD MSTORE PUSH2 0x3061 DUP2 PUSH2 0x3025 JUMP JUMPDEST SWAP1 POP SWAP2 SWAP1 POP JUMP JUMPDEST PUSH32 0x546F6B656E20616C7265616479206D696E746564000000000000000000000000 PUSH1 0x0 DUP3 ADD MSTORE POP JUMP JUMPDEST PUSH1 0x0 PUSH2 0x309E PUSH1 0x14 DUP4 PUSH2 0x26BA JUMP JUMPDEST SWAP2 POP PUSH2 0x30A9 DUP3 PUSH2 0x3068 JUMP JUMPDEST PUSH1 0x20 DUP3 ADD SWAP1 POP SWAP2 SWAP1 POP JUMP JUMPDEST PUSH1 0x0 PUSH1 0x20 DUP3 ADD SWAP1 POP DUP2 DUP2 SUB PUSH1 0x0 DUP4 ADD MSTORE PUSH2 0x30CD DUP2 PUSH2 0x3091 JUMP JUMPDEST SWAP1 POP SWAP2 SWAP1 POP JUMP JUMPDEST PUSH32 0x4D69736D61746368206265747765656E207175616E7469747920616E64205552 PUSH1 0x0 DUP3 ADD MSTORE PUSH32 0x4973000000000000000000000000000000000000000000000000000000000000 PUSH1 0x20 DUP3 ADD MSTORE POP JUMP JUMPDEST PUSH1 0x0 PUSH2 0x3130 PUSH1 0x22 DUP4 PUSH2 0x26BA JUMP JUMPDEST SWAP2 POP PUSH2 0x313B DUP3 PUSH2 0x30D4 JUMP JUMPDEST PUSH1 0x40 DUP3 ADD SWAP1 POP SWAP2 SWAP1 POP JUMP JUMPDEST PUSH1 0x0 PUSH1 0x20 DUP3 ADD SWAP1 POP DUP2 DUP2 SUB PUSH1 0x0 DUP4 ADD MSTORE PUSH2 0x315F DUP2 PUSH2 0x3123 JUMP JUMPDEST SWAP1 POP SWAP2 SWAP1 POP JUMP JUMPDEST PUSH32 0x4E487B7100000000000000000000000000000000000000000000000000000000 PUSH1 0x0 MSTORE PUSH1 0x11 PUSH1 0x4 MSTORE PUSH1 0x24 PUSH1 0x0 REVERT JUMPDEST PUSH1 0x0 PUSH2 0x31A0 DUP3 PUSH2 0x2761 JUMP JUMPDEST SWAP2 POP PUSH32 0xFFFFFFFFFFFFFFFFFFFFFFFFFFFFFFFFFFFFFFFFFFFFFFFFFFFFFFFFFFFFFFFF DUP3 SUB PUSH2 0x31D2 JUMPI PUSH2 0x31D1 PUSH2 0x3166 JUMP JUMPDEST JUMPDEST PUSH1 0x1 DUP3 ADD SWAP1 POP SWAP2 SWAP1 POP JUMP JUMPDEST PUSH32 0x546F6B656E20494420616C7265616479206D696E746564000000000000000000 PUSH1 0x0 DUP3 ADD MSTORE POP JUMP JUMPDEST PUSH1 0x0 PUSH2 0x3213 PUSH1 0x17 DUP4 PUSH2 0x26BA JUMP JUMPDEST SWAP2 POP PUSH2 0x321E DUP3 PUSH2 0x31DD JUMP JUMPDEST PUSH1 0x20 DUP3 ADD SWAP1 POP SWAP2 SWAP1 POP JUMP JUMPDEST PUSH1 0x0 PUSH1 0x20 DUP3 ADD SWAP1 POP DUP2 DUP2 SUB PUSH1 0x0 DUP4 ADD MSTORE PUSH2 0x3242 DUP2 PUSH2 0x3206 JUMP JUMPDEST SWAP1 POP SWAP2 SWAP1 POP JUMP JUMPDEST PUSH1 0x0 DUP2 SWAP1 POP DUP2 PUSH1 0x0 MSTORE PUSH1 0x20 PUSH1 0x0 KECCAK256 SWAP1 POP SWAP2 SWAP1 POP JUMP JUMPDEST PUSH1 0x0 PUSH1 0x20 PUSH1 0x1F DUP4 ADD DIV SWAP1 POP SWAP2 SWAP1 POP JUMP JUMPDEST PUSH1 0x0 DUP3 DUP3 SHL SWAP1 POP SWAP3 SWAP2 POP POP JUMP JUMPDEST PUSH1 0x0 PUSH1 0x8 DUP4 MUL PUSH2 0x32AB PUSH32 0xFFFFFFFFFFFFFFFFFFFFFFFFFFFFFFFFFFFFFFFFFFFFFFFFFFFFFFFFFFFFFFFF DUP3 PUSH2 0x326E JUMP JUMPDEST PUSH2 0x32B5 DUP7 DUP4 PUSH2 0x326E JUMP JUMPDEST SWAP6 POP DUP1 NOT DUP5 AND SWAP4 POP DUP1 DUP7 AND DUP5 OR SWAP3 POP POP POP SWAP4 SWAP3 POP POP POP JUMP JUMPDEST PUSH1 0x0 DUP2 SWAP1 POP SWAP2 SWAP1 POP JUMP JUMPDEST PUSH1 0x0 PUSH2 0x32F2 PUSH2 0x32ED PUSH2 0x32E8 DUP5 PUSH2 0x2761 JUMP JUMPDEST PUSH2 0x32CD JUMP JUMPDEST PUSH2 0x2761 JUMP JUMPDEST SWAP1 POP SWAP2 SWAP1 POP JUMP JUMPDEST PUSH1 0x0 DUP2 SWAP1 POP SWAP2 SWAP1 POP JUMP JUMPDEST PUSH2 0x330C DUP4 PUSH2 0x32D7 JUMP JUMPDEST PUSH2 0x3320 PUSH2 0x3318 DUP3 PUSH2 0x32F9 JUMP JUMPDEST DUP5 DUP5 SLOAD PUSH2 0x327B JUMP JUMPDEST DUP3 SSTORE POP POP POP POP JUMP JUMPDEST PUSH1 0x0 SWAP1 JUMP JUMPDEST PUSH2 0x3335 PUSH2 0x3328 JUMP JUMPDEST PUSH2 0x3340 DUP2 DUP5 DUP5 PUSH2 0x3303 JUMP JUMPDEST POP POP POP JUMP JUMPDEST JUMPDEST DUP2 DUP2 LT ISZERO PUSH2 0x3364 JUMPI PUSH2 0x3359 PUSH1 0x0 DUP3 PUSH2 0x332D JUMP JUMPDEST PUSH1 0x1 DUP2 ADD SWAP1 POP PUSH2 0x3346 JUMP JUMPDEST POP POP JUMP JUMPDEST PUSH1 0x1F DUP3 GT ISZERO PUSH2 0x33A9 JUMPI PUSH2 0x337A DUP2 PUSH2 0x3249 JUMP JUMPDEST PUSH2 0x3383 DUP5 PUSH2 0x325E JUMP JUMPDEST DUP2 ADD PUSH1 0x20 DUP6 LT ISZERO PUSH2 0x3392 JUMPI DUP2 SWAP1 POP JUMPDEST PUSH2 0x33A6 PUSH2 0x339E DUP6 PUSH2 0x325E JUMP JUMPDEST DUP4 ADD DUP3 PUSH2 0x3345 JUMP JUMPDEST POP POP JUMPDEST POP POP POP JUMP JUMPDEST PUSH1 0x0 DUP3 DUP3 SHR SWAP1 POP SWAP3 SWAP2 POP POP JUMP JUMPDEST PUSH1 0x0 PUSH2 0x33CC PUSH1 0x0 NOT DUP5 PUSH1 0x8 MUL PUSH2 0x33AE JUMP JUMPDEST NOT DUP1 DUP4 AND SWAP2 POP POP SWAP3 SWAP2 POP POP JUMP JUMPDEST PUSH1 0x0 PUSH2 0x33E5 DUP4 DUP4 PUSH2 0x33BB JUMP JUMPDEST SWAP2 POP DUP3 PUSH1 0x2 MUL DUP3 OR SWAP1 POP SWAP3 SWAP2 POP POP JUMP JUMPDEST PUSH2 0x33FE DUP3 PUSH2 0x26AF JUMP JUMPDEST PUSH8 0xFFFFFFFFFFFFFFFF DUP2 GT ISZERO PUSH2 0x3417 JUMPI PUSH2 0x3416 PUSH2 0x2940 JUMP JUMPDEST JUMPDEST PUSH2 0x3421 DUP3 SLOAD PUSH2 0x2E8A JUMP JUMPDEST PUSH2 0x342C DUP3 DUP3 DUP6 PUSH2 0x3368 JUMP JUMPDEST PUSH1 0x0 PUSH1 0x20 SWAP1 POP PUSH1 0x1F DUP4 GT PUSH1 0x1 DUP2 EQ PUSH2 0x345F JUMPI PUSH1 0x0 DUP5 ISZERO PUSH2 0x344D JUMPI DUP3 DUP8 ADD MLOAD SWAP1 POP JUMPDEST PUSH2 0x3457 DUP6 DUP3 PUSH2 0x33D9 JUMP JUMPDEST DUP7 SSTORE POP PUSH2 0x34BF JUMP JUMPDEST PUSH1 0x1F NOT DUP5 AND PUSH2 0x346D DUP7 PUSH2 0x3249 JUMP JUMPDEST PUSH1 0x0 JUMPDEST DUP3 DUP2 LT ISZERO PUSH2 0x3495 JUMPI DUP5 DUP10 ADD MLOAD DUP3 SSTORE PUSH1 0x1 DUP3 ADD SWAP2 POP PUSH1 0x20 DUP6 ADD SWAP5 POP PUSH1 0x20 DUP2 ADD SWAP1 POP PUSH2 0x3470 JUMP JUMPDEST DUP7 DUP4 LT ISZERO PUSH2 0x34B2 JUMPI DUP5 DUP10 ADD MLOAD PUSH2 0x34AE PUSH1 0x1F DUP10 AND DUP3 PUSH2 0x33BB JUMP JUMPDEST DUP4 SSTORE POP JUMPDEST PUSH1 0x1 PUSH1 0x2 DUP9 MUL ADD DUP9 SSTORE POP POP POP JUMPDEST POP POP POP POP POP POP JUMP JUMPDEST PUSH1 0x0 DUP2 MLOAD SWAP1 POP SWAP2 SWAP1 POP JUMP JUMPDEST PUSH1 0x0 DUP3 DUP3 MSTORE PUSH1 0x20 DUP3 ADD SWAP1 POP SWAP3 SWAP2 POP POP JUMP JUMPDEST PUSH1 0x0 PUSH2 0x34EE DUP3 PUSH2 0x34C7 JUMP JUMPDEST PUSH2 0x34F8 DUP2 DUP6 PUSH2 0x34D2 JUMP JUMPDEST SWAP4 POP PUSH2 0x3508 DUP2 DUP6 PUSH1 0x20 DUP7 ADD PUSH2 0x26CB JUMP JUMPDEST PUSH2 0x3511 DUP2 PUSH2 0x26F5 JUMP JUMPDEST DUP5 ADD SWAP2 POP POP SWAP3 SWAP2 POP POP JUMP JUMPDEST PUSH1 0x0 PUSH1 0x80 DUP3 ADD SWAP1 POP PUSH2 0x3531 PUSH1 0x0 DUP4 ADD DUP8 PUSH2 0x27F6 JUMP JUMPDEST PUSH2 0x353E PUSH1 0x20 DUP4 ADD DUP7 PUSH2 0x27F6 JUMP JUMPDEST PUSH2 0x354B PUSH1 0x40 DUP4 ADD DUP6 PUSH2 0x288C JUMP JUMPDEST DUP2 DUP2 SUB PUSH1 0x60 DUP4 ADD MSTORE PUSH2 0x355D DUP2 DUP5 PUSH2 0x34E3 JUMP JUMPDEST SWAP1 POP SWAP6 SWAP5 POP POP POP POP POP JUMP JUMPDEST PUSH1 0x0 DUP2 MLOAD SWAP1 POP PUSH2 0x3577 DUP2 PUSH2 0x2620 JUMP JUMPDEST SWAP3 SWAP2 POP POP JUMP JUMPDEST PUSH1 0x0 PUSH1 0x20 DUP3 DUP5 SUB SLT ISZERO PUSH2 0x3593 JUMPI PUSH2 0x3592 PUSH2 0x25EA JUMP JUMPDEST JUMPDEST PUSH1 0x0 PUSH2 0x35A1 DUP5 DUP3 DUP6 ADD PUSH2 0x3568 JUMP JUMPDEST SWAP2 POP POP SWAP3 SWAP2 POP POP JUMP JUMPDEST PUSH1 0x0 DUP2 SWAP1 POP SWAP3 SWAP2 POP POP JUMP JUMPDEST PUSH1 0x0 PUSH2 0x35C0 DUP3 PUSH2 0x26AF JUMP JUMPDEST PUSH2 0x35CA DUP2 DUP6 PUSH2 0x35AA JUMP JUMPDEST SWAP4 POP PUSH2 0x35DA DUP2 DUP6 PUSH1 0x20 DUP7 ADD PUSH2 0x26CB JUMP JUMPDEST DUP1 DUP5 ADD SWAP2 POP POP SWAP3 SWAP2 POP POP JUMP JUMPDEST PUSH1 0x0 PUSH2 0x35F2 DUP3 DUP6 PUSH2 0x35B5 JUMP JUMPDEST SWAP2 POP PUSH2 0x35FE DUP3 DUP5 PUSH2 0x35B5 JUMP JUMPDEST SWAP2 POP DUP2 SWAP1 POP SWAP4 SWAP3 POP POP POP JUMP JUMPDEST PUSH1 0x0 PUSH2 0x3615 DUP3 PUSH2 0x2761 JUMP JUMPDEST SWAP2 POP PUSH2 0x3620 DUP4 PUSH2 0x2761 JUMP JUMPDEST SWAP3 POP DUP3 DUP3 SUB SWAP1 POP DUP2 DUP2 GT ISZERO PUSH2 0x3638 JUMPI PUSH2 0x3637 PUSH2 0x3166 JUMP JUMPDEST JUMPDEST SWAP3 SWAP2 POP POP JUMP JUMPDEST PUSH32 0x4E487B7100000000000000000000000000000000000000000000000000000000 PUSH1 0x0 MSTORE PUSH1 0x31 PUSH1 0x4 MSTORE PUSH1 0x24 PUSH1 0x0 REVERT JUMPDEST PUSH32 0x4E487B7100000000000000000000000000000000000000000000000000000000 PUSH1 0x0 MSTORE PUSH1 0x12 PUSH1 0x4 MSTORE PUSH1 0x24 PUSH1 0x0 REVERT INVALID LOG2 PUSH5 0x6970667358 0x22 SLT KECCAK256 CALLDATALOAD 0xCE 0xC PUSH8 0xDF8A0101A8A72D47 0x1F 0xBD 0x1E 0xC9 SWAP14 0xC1 PUSH30 0x7402DBA311ECF9ADC3C19CC1C764736F6C634300081B0033000000000000 "},"methodIdentifiers":{"approve(address,uint256)":"095ea7b3","balanceOf(address)":"70a08231","batchMint(address,uint256,string[])":"cc28ec33","getApproved(uint256)":"081812fc","isApprovedForAll(address,address)":"e985e9c5","mint(uint256,string)":"77097fc8","mintFee()":"13966db5","name()":"06fdde03","owner()":"8da5cb5b","ownerOf(uint256)":"6352211e","renounceOwnership()":"715018a6","safeMint(address,uint256,string)":"cd279c7c","safeTransferFrom(address,address,uint256)":"42842e0e","safeTransferFrom(address,address,uint256,bytes)":"b88d4fde","setApprovalForAll(address,bool)":"a22cb465","setMintFee(uint256)":"eddd0d9c","supportsInterface(bytes4)":"01ffc9a7","symbol()":"95d89b41","tokenByIndex(uint256)":"4f6ccce7","tokenOfOwnerByIndex(address,uint256)":"2f745c59","tokenURI(uint256)":"c87b56dd","totalSupply()":"18160ddd","transferFrom(address,address,uint256)":"23b872dd","transferOwnership(address)":"f2fde38b","withdraw()":"3ccfd60b"}}}}}