{
  "_format": "hh-sol-artifact-1",
  "contractName": "MarketplaceContract",
  "sourceName": "blockchain/evm/contracts/MarketplaceContract.sol",
  "abi": [
    {
      "inputs": [],
      "stateMutability": "nonpayable",
      "type": "constructor"
    },
    {
      "inputs": [
        {
          "internalType": "address",
          "name": "owner",
          "type": "address"
        }
      ],
      "name": "OwnableInvalidOwner",
      "type": "error"
    },
    {
      "inputs": [
        {
          "internalType": "address",
          "name": "account",
          "type": "address"
        }
      ],
      "name": "OwnableUnauthorizedAccount",
      "type": "error"
    },
    {
      "inputs": [],
      "name": "ReentrancyGuardReentrantCall",
      "type": "error"
    },
    {
      "anonymous": false,
      "inputs": [
        {
          "indexed": true,
          "internalType": "address",
          "name": "seller",
          "type": "address"
        },
        {
          "indexed": true,
          "internalType": "address",
          "name": "nftContract",
          "type": "address"
        },
        {
          "indexed": true,
          "internalType": "uint256",
          "name": "tokenId",
          "type": "uint256"
        },
        {
          "indexed": false,
          "internalType": "uint256",
          "name": "price",
          "type": "uint256"
        }
      ],
      "name": "ItemListed",
      "type": "event"
    },
    {
      "anonymous": false,
      "inputs": [
        {
          "indexed": true,
          "internalType": "address",
          "name": "seller",
          "type": "address"
        },
        {
          "indexed": true,
          "internalType": "address",
          "name": "buyer",
          "type": "address"
        },
        {
          "indexed": true,
          "internalType": "address",
          "name": "nftContract",
          "type": "address"
        },
        {
          "indexed": false,
          "internalType": "uint256",
          "name": "tokenId",
          "type": "uint256"
        },
        {
          "indexed": false,
          "internalType": "uint256",
          "name": "price",
          "type": "uint256"
        }
      ],
      "name": "ItemSold",
      "type": "event"
    },
    {
      "anonymous": false,
      "inputs": [
        {
          "indexed": true,
          "internalType": "address",
          "name": "seller",
          "type": "address"
        },
        {
          "indexed": true,
          "internalType": "address",
          "name": "nftContract",
          "type": "address"
        },
        {
          "indexed": true,
          "internalType": "uint256",
          "name": "tokenId",
          "type": "uint256"
        }
      ],
      "name": "ListingCancelled",
      "type": "event"
    },
    {
      "anonymous": false,
      "inputs": [
        {
          "indexed": true,
          "internalType": "address",
          "name": "previousOwner",
          "type": "address"
        },
        {
          "indexed": true,
          "internalType": "address",
          "name": "newOwner",
          "type": "address"
        }
      ],
      "name": "OwnershipTransferred",
      "type": "event"
    },
    {
      "inputs": [
        {
          "internalType": "address",
          "name": "nftContract",
          "type": "address"
        },
        {
          "internalType": "uint256",
          "name": "tokenId",
          "type": "uint256"
        }
      ],
      "name": "buyItem",
      "outputs": [],
      "stateMutability": "payable",
      "type": "function"
    },
    {
      "inputs": [
        {
          "internalType": "address",
          "name": "nftContract",
          "type": "address"
        },
        {
          "internalType": "uint256",
          "name": "tokenId",
          "type": "uint256"
        }
      ],
      "name": "cancelListing",
      "outputs": [],
      "stateMutability": "nonpayable",
      "type": "function"
    },
    {
      "inputs": [
        {
          "internalType": "address",
          "name": "nftContract",
          "type": "address"
        },
        {
          "internalType": "uint256",
          "name": "tokenId",
          "type": "uint256"
        }
      ],
      "name": "getListing",
      "outputs": [
        {
          "components": [
            {
              "internalType": "address",
              "name": "seller",
              "type": "address"
            },
            {
              "internalType": "address",
              "name": "nftContract",
              "type": "address"
            },
            {
              "internalType": "uint256",
              "name": "tokenId",
              "type": "uint256"
            },
            {
              "internalType": "uint256",
              "name": "price",
              "type": "uint256"
            },
            {
              "internalType": "bool",
              "name": "isActive",
              "type": "bool"
            }
          ],
          "internalType": "struct MarketplaceContract.Listing",
          "name": "",
          "type": "tuple"
        }
      ],
      "stateMutability": "view",
      "type": "function"
    },
    {
      "inputs": [
        {
          "internalType": "address",
          "name": "nftContract",
          "type": "address"
        },
        {
          "internalType": "uint256",
          "name": "tokenId",
          "type": "uint256"
        },
        {
          "internalType": "uint256",
          "name": "price",
          "type": "uint256"
        }
      ],
      "name": "listItem",
      "outputs": [],
      "stateMutability": "nonpayable",
      "type": "function"
    },
    {
      "inputs": [
        {
          "internalType": "address",
          "name": "",
          "type": "address"
        },
        {
          "internalType": "uint256",
          "name": "",
          "type": "uint256"
        }
      ],
      "name": "listings",
      "outputs": [
        {
          "internalType": "address",
          "name": "seller",
          "type": "address"
        },
        {
          "internalType": "address",
          "name": "nftContract",
          "type": "address"
        },
        {
          "internalType": "uint256",
          "name": "tokenId",
          "type": "uint256"
        },
        {
          "internalType": "uint256",
          "name": "price",
          "type": "uint256"
        },
        {
          "internalType": "bool",
          "name": "isActive",
          "type": "bool"
        }
      ],
      "stateMutability": "view",
      "type": "function"
    },
    {
      "inputs": [],
      "name": "owner",
      "outputs": [
        {
          "internalType": "address",
          "name": "",
          "type": "address"
        }
      ],
      "stateMutability": "view",
      "type": "function"
    },
    {
      "inputs": [],
      "name": "renounceOwnership",
      "outputs": [],
      "stateMutability": "nonpayable",
      "type": "function"
    },
    {
      "inputs": [
        {
          "internalType": "address",
          "name": "newOwner",
          "type": "address"
        }
      ],
      "name": "transferOwnership",
      "outputs": [],
      "stateMutability": "nonpayable",
      "type": "function"
    }
  ],
  "bytecode": "0x608060405234801561001057600080fd5b50336001600081905550600073ffffffffffffffffffffffffffffffffffffffff168173ffffffffffffffffffffffffffffffffffffffff160361008c5760006040517f1e4fbdf700000000000000000000000000000000000000000000000000000000815260040161008391906101a8565b60405180910390fd5b61009b816100a160201b60201c565b506101c3565b6000600160009054906101000a900473ffffffffffffffffffffffffffffffffffffffff16905081600160006101000a81548173ffffffffffffffffffffffffffffffffffffffff021916908373ffffffffffffffffffffffffffffffffffffffff1602179055508173ffffffffffffffffffffffffffffffffffffffff168173ffffffffffffffffffffffffffffffffffffffff167f8be0079c531659141344cd1fd0a4f28419497f9722a3daafe3b4186f6b6457e060405160405180910390a35050565b600073ffffffffffffffffffffffffffffffffffffffff82169050919050565b600061019282610167565b9050919050565b6101a281610187565b82525050565b60006020820190506101bd6000830184610199565b92915050565b61198d806101d26000396000f3fe60806040526004361061007a5760003560e01c80638da5cb5b1161004e5780638da5cb5b1461013d5780639f37092a14610168578063b2ddee0614610184578063f2fde38b146101ad5761007a565b806207df301461007f578063715018a6146100c057806388700d1c146100d757806389bfd38f14610114575b600080fd5b34801561008b57600080fd5b506100a660048036038101906100a1919061124a565b6101d6565b6040516100b79594939291906112c3565b60405180910390f35b3480156100cc57600080fd5b506100d5610266565b005b3480156100e357600080fd5b506100fe60048036038101906100f9919061124a565b61027a565b60405161010b91906113ab565b60405180910390f35b34801561012057600080fd5b5061013b600480360381019061013691906113c6565b6103c0565b005b34801561014957600080fd5b50610152610791565b60405161015f9190611419565b60405180910390f35b610182600480360381019061017d919061124a565b6107bb565b005b34801561019057600080fd5b506101ab60048036038101906101a6919061124a565b610c04565b005b3480156101b957600080fd5b506101d460048036038101906101cf9190611434565b610f29565b005b6002602052816000526040600020602052806000526040600020600091509150508060000160009054906101000a900473ffffffffffffffffffffffffffffffffffffffff16908060010160009054906101000a900473ffffffffffffffffffffffffffffffffffffffff16908060020154908060030154908060040160009054906101000a900460ff16905085565b61026e610faf565b6102786000611036565b565b610282611154565b600260008473ffffffffffffffffffffffffffffffffffffffff1673ffffffffffffffffffffffffffffffffffffffff16815260200190815260200160002060008381526020019081526020016000206040518060a00160405290816000820160009054906101000a900473ffffffffffffffffffffffffffffffffffffffff1673ffffffffffffffffffffffffffffffffffffffff1673ffffffffffffffffffffffffffffffffffffffff1681526020016001820160009054906101000a900473ffffffffffffffffffffffffffffffffffffffff1673ffffffffffffffffffffffffffffffffffffffff1673ffffffffffffffffffffffffffffffffffffffff16815260200160028201548152602001600382015481526020016004820160009054906101000a900460ff161515151581525050905092915050565b6103c86110fc565b6000811161040b576040517f08c379a0000000000000000000000000000000000000000000000000000000008152600401610402906114be565b60405180910390fd5b60008390503373ffffffffffffffffffffffffffffffffffffffff168173ffffffffffffffffffffffffffffffffffffffff16636352211e856040518263ffffffff1660e01b815260040161046091906114de565b602060405180830381865afa15801561047d573d6000803e3d6000fd5b505050506040513d601f19601f820116820180604052508101906104a1919061150e565b73ffffffffffffffffffffffffffffffffffffffff16146104f7576040517f08c379a00000000000000000000000000000000000000000000000000000000081526004016104ee90611587565b60405180910390fd5b8073ffffffffffffffffffffffffffffffffffffffff1663e985e9c533306040518363ffffffff1660e01b81526004016105329291906115a7565b602060405180830381865afa15801561054f573d6000803e3d6000fd5b505050506040513d601f19601f8201168201806040525081019061057391906115fc565b6105b2576040517f08c379a00000000000000000000000000000000000000000000000000000000081526004016105a990611675565b60405180910390fd5b6040518060a001604052803373ffffffffffffffffffffffffffffffffffffffff1681526020018573ffffffffffffffffffffffffffffffffffffffff16815260200184815260200183815260200160011515815250600260008673ffffffffffffffffffffffffffffffffffffffff1673ffffffffffffffffffffffffffffffffffffffff168152602001908152602001600020600085815260200190815260200160002060008201518160000160006101000a81548173ffffffffffffffffffffffffffffffffffffffff021916908373ffffffffffffffffffffffffffffffffffffffff16021790555060208201518160010160006101000a81548173ffffffffffffffffffffffffffffffffffffffff021916908373ffffffffffffffffffffffffffffffffffffffff160217905550604082015181600201556060820151816003015560808201518160040160006101000a81548160ff021916908315150217905550905050828473ffffffffffffffffffffffffffffffffffffffff163373ffffffffffffffffffffffffffffffffffffffff167fd547e933094f12a9159076970143ebe73234e64480317844b0dcb36117116de48560405161077b91906114de565b60405180910390a45061078c611142565b505050565b6000600160009054906101000a900473ffffffffffffffffffffffffffffffffffffffff16905090565b6107c36110fc565b6000600260008473ffffffffffffffffffffffffffffffffffffffff1673ffffffffffffffffffffffffffffffffffffffff16815260200190815260200160002060008381526020019081526020016000206040518060a00160405290816000820160009054906101000a900473ffffffffffffffffffffffffffffffffffffffff1673ffffffffffffffffffffffffffffffffffffffff1673ffffffffffffffffffffffffffffffffffffffff1681526020016001820160009054906101000a900473ffffffffffffffffffffffffffffffffffffffff1673ffffffffffffffffffffffffffffffffffffffff1673ffffffffffffffffffffffffffffffffffffffff16815260200160028201548152602001600382015481526020016004820160009054906101000a900460ff16151515158152505090508060800151610941576040517f08c379a0000000000000000000000000000000000000000000000000000000008152600401610938906116e1565b60405180910390fd5b8060600151341015610988576040517f08c379a000000000000000000000000000000000000000000000000000000000815260040161097f9061174d565b60405180910390fd5b600260008473ffffffffffffffffffffffffffffffffffffffff1673ffffffffffffffffffffffffffffffffffffffff1681526020019081526020016000206000838152602001908152602001600020600080820160006101000a81549073ffffffffffffffffffffffffffffffffffffffff02191690556001820160006101000a81549073ffffffffffffffffffffffffffffffffffffffff0219169055600282016000905560038201600090556004820160006101000a81549060ff021916905550508273ffffffffffffffffffffffffffffffffffffffff166342842e0e826000015133856040518463ffffffff1660e01b8152600401610a8e9392919061176d565b600060405180830381600087803b158015610aa857600080fd5b505af1158015610abc573d6000803e3d6000fd5b505050506000816000015173ffffffffffffffffffffffffffffffffffffffff1634604051610aea906117d5565b60006040518083038185875af1925050503d8060008114610b27576040519150601f19603f3d011682016040523d82523d6000602084013e610b2c565b606091505b5050905080610b70576040517f08c379a0000000000000000000000000000000000000000000000000000000008152600401610b6790611836565b60405180910390fd5b8373ffffffffffffffffffffffffffffffffffffffff163373ffffffffffffffffffffffffffffffffffffffff16836000015173ffffffffffffffffffffffffffffffffffffffff167fee0ddd6454e05c1b33a8dfcb6cc52418d28020e96e21228bb601f5dbb6790cd0868660600151604051610bee929190611856565b60405180910390a45050610c00611142565b5050565b610c0c6110fc565b6000600260008473ffffffffffffffffffffffffffffffffffffffff1673ffffffffffffffffffffffffffffffffffffffff16815260200190815260200160002060008381526020019081526020016000206040518060a00160405290816000820160009054906101000a900473ffffffffffffffffffffffffffffffffffffffff1673ffffffffffffffffffffffffffffffffffffffff1673ffffffffffffffffffffffffffffffffffffffff1681526020016001820160009054906101000a900473ffffffffffffffffffffffffffffffffffffffff1673ffffffffffffffffffffffffffffffffffffffff1673ffffffffffffffffffffffffffffffffffffffff16815260200160028201548152602001600382015481526020016004820160009054906101000a900460ff16151515158152505090503373ffffffffffffffffffffffffffffffffffffffff16816000015173ffffffffffffffffffffffffffffffffffffffff1614610db8576040517f08c379a0000000000000000000000000000000000000000000000000000000008152600401610daf906118cb565b60405180910390fd5b8060800151610dfc576040517f08c379a0000000000000000000000000000000000000000000000000000000008152600401610df390611937565b60405180910390fd5b600260008473ffffffffffffffffffffffffffffffffffffffff1673ffffffffffffffffffffffffffffffffffffffff1681526020019081526020016000206000838152602001908152602001600020600080820160006101000a81549073ffffffffffffffffffffffffffffffffffffffff02191690556001820160006101000a81549073ffffffffffffffffffffffffffffffffffffffff0219169055600282016000905560038201600090556004820160006101000a81549060ff02191690555050818373ffffffffffffffffffffffffffffffffffffffff163373ffffffffffffffffffffffffffffffffffffffff167fe1bfe61cb157e0896411ccf9a5c40e4c346f7bb6e1d2a44de4a724f0cb5c6fb060405160405180910390a450610f25611142565b5050565b610f31610faf565b600073ffffffffffffffffffffffffffffffffffffffff168173ffffffffffffffffffffffffffffffffffffffff1603610fa35760006040517f1e4fbdf7000000000000000000000000000000000000000000000000000000008152600401610f9a9190611419565b60405180910390fd5b610fac81611036565b50565b610fb761114c565b73ffffffffffffffffffffffffffffffffffffffff16610fd5610791565b73ffffffffffffffffffffffffffffffffffffffff161461103457610ff861114c565b6040517f118cdaa700000000000000000000000000000000000000000000000000000000815260040161102b9190611419565b60405180910390fd5b565b6000600160009054906101000a900473ffffffffffffffffffffffffffffffffffffffff16905081600160006101000a81548173ffffffffffffffffffffffffffffffffffffffff021916908373ffffffffffffffffffffffffffffffffffffffff1602179055508173ffffffffffffffffffffffffffffffffffffffff168173ffffffffffffffffffffffffffffffffffffffff167f8be0079c531659141344cd1fd0a4f28419497f9722a3daafe3b4186f6b6457e060405160405180910390a35050565b600260005403611138576040517f3ee5aeb500000000000000000000000000000000000000000000000000000000815260040160405180910390fd5b6002600081905550565b6001600081905550565b600033905090565b6040518060a00160405280600073ffffffffffffffffffffffffffffffffffffffff168152602001600073ffffffffffffffffffffffffffffffffffffffff16815260200160008152602001600081526020016000151581525090565b600080fd5b600073ffffffffffffffffffffffffffffffffffffffff82169050919050565b60006111e1826111b6565b9050919050565b6111f1816111d6565b81146111fc57600080fd5b50565b60008135905061120e816111e8565b92915050565b6000819050919050565b61122781611214565b811461123257600080fd5b50565b6000813590506112448161121e565b92915050565b60008060408385031215611261576112606111b1565b5b600061126f858286016111ff565b925050602061128085828601611235565b9150509250929050565b611293816111d6565b82525050565b6112a281611214565b82525050565b60008115159050919050565b6112bd816112a8565b82525050565b600060a0820190506112d8600083018861128a565b6112e5602083018761128a565b6112f26040830186611299565b6112ff6060830185611299565b61130c60808301846112b4565b9695505050505050565b61131f816111d6565b82525050565b61132e81611214565b82525050565b61133d816112a8565b82525050565b60a0820160008201516113596000850182611316565b50602082015161136c6020850182611316565b50604082015161137f6040850182611325565b5060608201516113926060850182611325565b5060808201516113a56080850182611334565b50505050565b600060a0820190506113c06000830184611343565b92915050565b6000806000606084860312156113df576113de6111b1565b5b60006113ed868287016111ff565b93505060206113fe86828701611235565b925050604061140f86828701611235565b9150509250925092565b600060208201905061142e600083018461128a565b92915050565b60006020828403121561144a576114496111b1565b5b6000611458848285016111ff565b91505092915050565b600082825260208201905092915050565b7f5072696365206d7573742062652067726561746572207468616e207a65726f00600082015250565b60006114a8601f83611461565b91506114b382611472565b602082019050919050565b600060208201905081810360008301526114d78161149b565b9050919050565b60006020820190506114f36000830184611299565b92915050565b600081519050611508816111e8565b92915050565b600060208284031215611524576115236111b1565b5b6000611532848285016114f9565b91505092915050565b7f4e6f7420746865206f776e6572206f662074686973204e465400000000000000600082015250565b6000611571601983611461565b915061157c8261153b565b602082019050919050565b600060208201905081810360008301526115a081611564565b9050919050565b60006040820190506115bc600083018561128a565b6115c9602083018461128a565b9392505050565b6115d9816112a8565b81146115e457600080fd5b50565b6000815190506115f6816115d0565b92915050565b600060208284031215611612576116116111b1565b5b6000611620848285016115e7565b91505092915050565b7f4e4654206e6f7420617070726f76656420666f72206d61726b6574706c616365600082015250565b600061165f602083611461565b915061166a82611629565b602082019050919050565b6000602082019050818103600083015261168e81611652565b9050919050565b7f4974656d206e6f74206c697374656420666f722073616c650000000000000000600082015250565b60006116cb601883611461565b91506116d682611695565b602082019050919050565b600060208201905081810360008301526116fa816116be565b9050919050565b7f496e73756666696369656e74207061796d656e74000000000000000000000000600082015250565b6000611737601483611461565b915061174282611701565b602082019050919050565b600060208201905081810360008301526117668161172a565b9050919050565b6000606082019050611782600083018661128a565b61178f602083018561128a565b61179c6040830184611299565b949350505050565b600081905092915050565b50565b60006117bf6000836117a4565b91506117ca826117af565b600082019050919050565b60006117e0826117b2565b9150819050919050565b7f5472616e73666572206661696c65640000000000000000000000000000000000600082015250565b6000611820600f83611461565b915061182b826117ea565b602082019050919050565b6000602082019050818103600083015261184f81611813565b9050919050565b600060408201905061186b6000830185611299565b6118786020830184611299565b9392505050565b7f4e6f74207468652073656c6c6572000000000000000000000000000000000000600082015250565b60006118b5600e83611461565b91506118c08261187f565b602082019050919050565b600060208201905081810360008301526118e4816118a8565b9050919050565b7f4c697374696e67206e6f74206163746976650000000000000000000000000000600082015250565b6000611921601283611461565b915061192c826118eb565b602082019050919050565b6000602082019050818103600083015261195081611914565b905091905056fea2646970667358221220a97bca5fd7412bcff9c0f0b24e6f3ffa5e574b404da1fbb9c7c579779389eb8164736f6c634300081b0033",
  "linkReferences": {},
  "deployedLinkReferences": {}
}