{
  "_format": "hh-sol-artifact-1",
  "contractName": "NFTBase",
  "sourceName": "src/blockchain/evm/contracts/NFTBase.sol",
  "abi": [
    {
      "inputs": [
        {
          "internalType": "address",
          "name": "initialOwner",
          "type": "address"
        },
        {
          "internalType": "string",
          "name": "name",
          "type": "string"
        },
        {
          "internalType": "string",
          "name": "symbol",
          "type": "string"
        },
        {
          "internalType": "uint96",
          "name": "royaltyFeePercentage",
          "type": "uint96"
        }
      ],
      "stateMutability": "nonpayable",
      "type": "constructor"
    },
    {
      "inputs": [
        {
          "internalType": "uint256",
          "name": "numerator",
          "type": "uint256"
        },
        {
          "internalType": "uint256",
          "name": "denominator",
          "type": "uint256"
        }
      ],
      "name": "ERC2981InvalidDefaultRoyalty",
      "type": "error"
    },
    {
      "inputs": [
        {
          "internalType": "address",
          "name": "receiver",
          "type": "address"
        }
      ],
      "name": "ERC2981InvalidDefaultRoyaltyReceiver",
      "type": "error"
    },
    {
      "inputs": [
        {
          "internalType": "uint256",
          "name": "tokenId",
          "type": "uint256"
        },
        {
          "internalType": "uint256",
          "name": "numerator",
          "type": "uint256"
        },
        {
          "internalType": "uint256",
          "name": "denominator",
          "type": "uint256"
        }
      ],
      "name": "ERC2981InvalidTokenRoyalty",
      "type": "error"
    },
    {
      "inputs": [
        {
          "internalType": "uint256",
          "name": "tokenId",
          "type": "uint256"
        },
        {
          "internalType": "address",
          "name": "receiver",
          "type": "address"
        }
      ],
      "name": "ERC2981InvalidTokenRoyaltyReceiver",
      "type": "error"
    },
    {
      "inputs": [],
      "name": "ERC721EnumerableForbiddenBatchMint",
      "type": "error"
    },
    {
      "inputs": [
        {
          "internalType": "address",
          "name": "sender",
          "type": "address"
        },
        {
          "internalType": "uint256",
          "name": "tokenId",
          "type": "uint256"
        },
        {
          "internalType": "address",
          "name": "owner",
          "type": "address"
        }
      ],
      "name": "ERC721IncorrectOwner",
      "type": "error"
    },
    {
      "inputs": [
        {
          "internalType": "address",
          "name": "operator",
          "type": "address"
        },
        {
          "internalType": "uint256",
          "name": "tokenId",
          "type": "uint256"
        }
      ],
      "name": "ERC721InsufficientApproval",
      "type": "error"
    },
    {
      "inputs": [
        {
          "internalType": "address",
          "name": "approver",
          "type": "address"
        }
      ],
      "name": "ERC721InvalidApprover",
      "type": "error"
    },
    {
      "inputs": [
        {
          "internalType": "address",
          "name": "operator",
          "type": "address"
        }
      ],
      "name": "ERC721InvalidOperator",
      "type": "error"
    },
    {
      "inputs": [
        {
          "internalType": "address",
          "name": "owner",
          "type": "address"
        }
      ],
      "name": "ERC721InvalidOwner",
      "type": "error"
    },
    {
      "inputs": [
        {
          "internalType": "address",
          "name": "receiver",
          "type": "address"
        }
      ],
      "name": "ERC721InvalidReceiver",
      "type": "error"
    },
    {
      "inputs": [
        {
          "internalType": "address",
          "name": "sender",
          "type": "address"
        }
      ],
      "name": "ERC721InvalidSender",
      "type": "error"
    },
    {
      "inputs": [
        {
          "internalType": "uint256",
          "name": "tokenId",
          "type": "uint256"
        }
      ],
      "name": "ERC721NonexistentToken",
      "type": "error"
    },
    {
      "inputs": [
        {
          "internalType": "address",
          "name": "owner",
          "type": "address"
        },
        {
          "internalType": "uint256",
          "name": "index",
          "type": "uint256"
        }
      ],
      "name": "ERC721OutOfBoundsIndex",
      "type": "error"
    },
    {
      "inputs": [
        {
          "internalType": "address",
          "name": "owner",
          "type": "address"
        }
      ],
      "name": "OwnableInvalidOwner",
      "type": "error"
    },
    {
      "inputs": [
        {
          "internalType": "address",
          "name": "account",
          "type": "address"
        }
      ],
      "name": "OwnableUnauthorizedAccount",
      "type": "error"
    },
    {
      "anonymous": false,
      "inputs": [
        {
          "indexed": true,
          "internalType": "address",
          "name": "owner",
          "type": "address"
        },
        {
          "indexed": true,
          "internalType": "address",
          "name": "approved",
          "type": "address"
        },
        {
          "indexed": true,
          "internalType": "uint256",
          "name": "tokenId",
          "type": "uint256"
        }
      ],
      "name": "Approval",
      "type": "event"
    },
    {
      "anonymous": false,
      "inputs": [
        {
          "indexed": true,
          "internalType": "address",
          "name": "owner",
          "type": "address"
        },
        {
          "indexed": true,
          "internalType": "address",
          "name": "operator",
          "type": "address"
        },
        {
          "indexed": false,
          "internalType": "bool",
          "name": "approved",
          "type": "bool"
        }
      ],
      "name": "ApprovalForAll",
      "type": "event"
    },
    {
      "anonymous": false,
      "inputs": [
        {
          "indexed": false,
          "internalType": "uint256",
          "name": "_fromTokenId",
          "type": "uint256"
        },
        {
          "indexed": false,
          "internalType": "uint256",
          "name": "_toTokenId",
          "type": "uint256"
        }
      ],
      "name": "BatchMetadataUpdate",
      "type": "event"
    },
    {
      "anonymous": false,
      "inputs": [
        {
          "indexed": false,
          "internalType": "uint256",
          "name": "_tokenId",
          "type": "uint256"
        }
      ],
      "name": "MetadataUpdate",
      "type": "event"
    },
    {
      "anonymous": false,
      "inputs": [
        {
          "indexed": true,
          "internalType": "address",
          "name": "previousOwner",
          "type": "address"
        },
        {
          "indexed": true,
          "internalType": "address",
          "name": "newOwner",
          "type": "address"
        }
      ],
      "name": "OwnershipTransferred",
      "type": "event"
    },
    {
      "anonymous": false,
      "inputs": [
        {
          "indexed": true,
          "internalType": "uint256",
          "name": "tokenId",
          "type": "uint256"
        },
        {
          "indexed": true,
          "internalType": "address",
          "name": "recipient",
          "type": "address"
        },
        {
          "indexed": false,
          "internalType": "enum IPhaseManager.PhaseType",
          "name": "phaseType",
          "type": "uint8"
        }
      ],
      "name": "TokenMinted",
      "type": "event"
    },
    {
      "anonymous": false,
      "inputs": [
        {
          "indexed": true,
          "internalType": "address",
          "name": "from",
          "type": "address"
        },
        {
          "indexed": true,
          "internalType": "address",
          "name": "to",
          "type": "address"
        },
        {
          "indexed": true,
          "internalType": "uint256",
          "name": "tokenId",
          "type": "uint256"
        }
      ],
      "name": "Transfer",
      "type": "event"
    },
    {
      "inputs": [
        {
          "internalType": "address",
          "name": "to",
          "type": "address"
        },
        {
          "internalType": "uint256",
          "name": "tokenId",
          "type": "uint256"
        }
      ],
      "name": "approve",
      "outputs": [],
      "stateMutability": "nonpayable",
      "type": "function"
    },
    {
      "inputs": [
        {
          "internalType": "address",
          "name": "owner",
          "type": "address"
        }
      ],
      "name": "balanceOf",
      "outputs": [
        {
          "internalType": "uint256",
          "name": "",
          "type": "uint256"
        }
      ],
      "stateMutability": "view",
      "type": "function"
    },
    {
      "inputs": [
        {
          "internalType": "uint256",
          "name": "tokenId",
          "type": "uint256"
        }
      ],
      "name": "getApproved",
      "outputs": [
        {
          "internalType": "address",
          "name": "",
          "type": "address"
        }
      ],
      "stateMutability": "view",
      "type": "function"
    },
    {
      "inputs": [
        {
          "internalType": "address",
          "name": "owner",
          "type": "address"
        },
        {
          "internalType": "address",
          "name": "operator",
          "type": "address"
        }
      ],
      "name": "isApprovedForAll",
      "outputs": [
        {
          "internalType": "bool",
          "name": "",
          "type": "bool"
        }
      ],
      "stateMutability": "view",
      "type": "function"
    },
    {
      "inputs": [
        {
          "internalType": "address",
          "name": "to",
          "type": "address"
        },
        {
          "internalType": "uint256",
          "name": "tokenId",
          "type": "uint256"
        },
        {
          "internalType": "string",
          "name": "uri",
          "type": "string"
        }
      ],
      "name": "mintToken",
      "outputs": [],
      "stateMutability": "nonpayable",
      "type": "function"
    },
    {
      "inputs": [],
      "name": "name",
      "outputs": [
        {
          "internalType": "string",
          "name": "",
          "type": "string"
        }
      ],
      "stateMutability": "view",
      "type": "function"
    },
    {
      "inputs": [],
      "name": "owner",
      "outputs": [
        {
          "internalType": "address",
          "name": "",
          "type": "address"
        }
      ],
      "stateMutability": "view",
      "type": "function"
    },
    {
      "inputs": [
        {
          "internalType": "uint256",
          "name": "tokenId",
          "type": "uint256"
        }
      ],
      "name": "ownerOf",
      "outputs": [
        {
          "internalType": "address",
          "name": "",
          "type": "address"
        }
      ],
      "stateMutability": "view",
      "type": "function"
    },
    {
      "inputs": [],
      "name": "renounceOwnership",
      "outputs": [],
      "stateMutability": "nonpayable",
      "type": "function"
    },
    {
      "inputs": [
        {
          "internalType": "uint256",
          "name": "tokenId",
          "type": "uint256"
        },
        {
          "internalType": "uint256",
          "name": "salePrice",
          "type": "uint256"
        }
      ],
      "name": "royaltyInfo",
      "outputs": [
        {
          "internalType": "address",
          "name": "receiver",
          "type": "address"
        },
        {
          "internalType": "uint256",
          "name": "amount",
          "type": "uint256"
        }
      ],
      "stateMutability": "view",
      "type": "function"
    },
    {
      "inputs": [
        {
          "internalType": "address",
          "name": "from",
          "type": "address"
        },
        {
          "internalType": "address",
          "name": "to",
          "type": "address"
        },
        {
          "internalType": "uint256",
          "name": "tokenId",
          "type": "uint256"
        }
      ],
      "name": "safeTransferFrom",
      "outputs": [],
      "stateMutability": "nonpayable",
      "type": "function"
    },
    {
      "inputs": [
        {
          "internalType": "address",
          "name": "from",
          "type": "address"
        },
        {
          "internalType": "address",
          "name": "to",
          "type": "address"
        },
        {
          "internalType": "uint256",
          "name": "tokenId",
          "type": "uint256"
        },
        {
          "internalType": "bytes",
          "name": "data",
          "type": "bytes"
        }
      ],
      "name": "safeTransferFrom",
      "outputs": [],
      "stateMutability": "nonpayable",
      "type": "function"
    },
    {
      "inputs": [
        {
          "internalType": "address",
          "name": "operator",
          "type": "address"
        },
        {
          "internalType": "bool",
          "name": "approved",
          "type": "bool"
        }
      ],
      "name": "setApprovalForAll",
      "outputs": [],
      "stateMutability": "nonpayable",
      "type": "function"
    },
    {
      "inputs": [
        {
          "internalType": "bytes4",
          "name": "interfaceId",
          "type": "bytes4"
        }
      ],
      "name": "supportsInterface",
      "outputs": [
        {
          "internalType": "bool",
          "name": "",
          "type": "bool"
        }
      ],
      "stateMutability": "view",
      "type": "function"
    },
    {
      "inputs": [],
      "name": "symbol",
      "outputs": [
        {
          "internalType": "string",
          "name": "",
          "type": "string"
        }
      ],
      "stateMutability": "view",
      "type": "function"
    },
    {
      "inputs": [
        {
          "internalType": "uint256",
          "name": "index",
          "type": "uint256"
        }
      ],
      "name": "tokenByIndex",
      "outputs": [
        {
          "internalType": "uint256",
          "name": "",
          "type": "uint256"
        }
      ],
      "stateMutability": "view",
      "type": "function"
    },
    {
      "inputs": [
        {
          "internalType": "address",
          "name": "owner",
          "type": "address"
        },
        {
          "internalType": "uint256",
          "name": "index",
          "type": "uint256"
        }
      ],
      "name": "tokenOfOwnerByIndex",
      "outputs": [
        {
          "internalType": "uint256",
          "name": "",
          "type": "uint256"
        }
      ],
      "stateMutability": "view",
      "type": "function"
    },
    {
      "inputs": [
        {
          "internalType": "uint256",
          "name": "tokenId",
          "type": "uint256"
        }
      ],
      "name": "tokenURI",
      "outputs": [
        {
          "internalType": "string",
          "name": "",
          "type": "string"
        }
      ],
      "stateMutability": "view",
      "type": "function"
    },
    {
      "inputs": [
        {
          "internalType": "address",
          "name": "owner",
          "type": "address"
        }
      ],
      "name": "tokensOfOwner",
      "outputs": [
        {
          "internalType": "uint256[]",
          "name": "",
          "type": "uint256[]"
        }
      ],
      "stateMutability": "view",
      "type": "function"
    },
    {
      "inputs": [],
      "name": "totalSupply",
      "outputs": [
        {
          "internalType": "uint256",
          "name": "",
          "type": "uint256"
        }
      ],
      "stateMutability": "view",
      "type": "function"
    },
    {
      "inputs": [
        {
          "internalType": "address",
          "name": "from",
          "type": "address"
        },
        {
          "internalType": "address",
          "name": "to",
          "type": "address"
        },
        {
          "internalType": "uint256",
          "name": "tokenId",
          "type": "uint256"
        }
      ],
      "name": "transferFrom",
      "outputs": [],
      "stateMutability": "nonpayable",
      "type": "function"
    },
    {
      "inputs": [
        {
          "internalType": "address",
          "name": "newOwner",
          "type": "address"
        }
      ],
      "name": "transferOwnership",
      "outputs": [],
      "stateMutability": "nonpayable",
      "type": "function"
    }
  ],
  "bytecode": "0x608060405234801561001057600080fd5b50604051613da5380380613da583398181016040528101906100329190610581565b83838381600090816100449190610841565b5080600190816100549190610841565b505050600073ffffffffffffffffffffffffffffffffffffffff168173ffffffffffffffffffffffffffffffffffffffff16036100c95760006040517f1e4fbdf70000000000000000000000000000000000000000000000000000000081526004016100c09190610922565b60405180910390fd5b6100d8816100f260201b60201c565b506100e984826101b860201b60201c565b505050506109a6565b6000600d60009054906101000a900473ffffffffffffffffffffffffffffffffffffffff16905081600d60006101000a81548173ffffffffffffffffffffffffffffffffffffffff021916908373ffffffffffffffffffffffffffffffffffffffff1602179055508173ffffffffffffffffffffffffffffffffffffffff168173ffffffffffffffffffffffffffffffffffffffff167f8be0079c531659141344cd1fd0a4f28419497f9722a3daafe3b4186f6b6457e060405160405180910390a35050565b60006101c861036060201b60201c565b6bffffffffffffffffffffffff16905080826bffffffffffffffffffffffff16111561022d5781816040517f6f483d0900000000000000000000000000000000000000000000000000000000815260040161022492919061097d565b60405180910390fd5b600073ffffffffffffffffffffffffffffffffffffffff168373ffffffffffffffffffffffffffffffffffffffff160361029f5760006040517fb6d9900a0000000000000000000000000000000000000000000000000000000081526004016102969190610922565b60405180910390fd5b60405180604001604052808473ffffffffffffffffffffffffffffffffffffffff168152602001836bffffffffffffffffffffffff16815250600b60008201518160000160006101000a81548173ffffffffffffffffffffffffffffffffffffffff021916908373ffffffffffffffffffffffffffffffffffffffff16021790555060208201518160000160146101000a8154816bffffffffffffffffffffffff02191690836bffffffffffffffffffffffff160217905550905050505050565b6000612710905090565b6000604051905090565b600080fd5b600080fd5b600073ffffffffffffffffffffffffffffffffffffffff82169050919050565b60006103a98261037e565b9050919050565b6103b98161039e565b81146103c457600080fd5b50565b6000815190506103d6816103b0565b92915050565b600080fd5b600080fd5b6000601f19601f8301169050919050565b7f4e487b7100000000000000000000000000000000000000000000000000000000600052604160045260246000fd5b61042f826103e6565b810181811067ffffffffffffffff8211171561044e5761044d6103f7565b5b80604052505050565b600061046161036a565b905061046d8282610426565b919050565b600067ffffffffffffffff82111561048d5761048c6103f7565b5b610496826103e6565b9050602081019050919050565b60005b838110156104c15780820151818401526020810190506104a6565b60008484015250505050565b60006104e06104db84610472565b610457565b9050828152602081018484840111156104fc576104fb6103e1565b5b6105078482856104a3565b509392505050565b600082601f830112610524576105236103dc565b5b81516105348482602086016104cd565b91505092915050565b60006bffffffffffffffffffffffff82169050919050565b61055e8161053d565b811461056957600080fd5b50565b60008151905061057b81610555565b92915050565b6000806000806080858703121561059b5761059a610374565b5b60006105a9878288016103c7565b945050602085015167ffffffffffffffff8111156105ca576105c9610379565b5b6105d68782880161050f565b935050604085015167ffffffffffffffff8111156105f7576105f6610379565b5b6106038782880161050f565b92505060606106148782880161056c565b91505092959194509250565b600081519050919050565b7f4e487b7100000000000000000000000000000000000000000000000000000000600052602260045260246000fd5b6000600282049050600182168061067257607f821691505b6020821081036106855761068461062b565b5b50919050565b60008190508160005260206000209050919050565b60006020601f8301049050919050565b600082821b905092915050565b6000600883026106ed7fffffffffffffffffffffffffffffffffffffffffffffffffffffffffffffffff826106b0565b6106f786836106b0565b95508019841693508086168417925050509392505050565b6000819050919050565b6000819050919050565b600061073e6107396107348461070f565b610719565b61070f565b9050919050565b6000819050919050565b61075883610723565b61076c61076482610745565b8484546106bd565b825550505050565b600090565b610781610774565b61078c81848461074f565b505050565b5b818110156107b0576107a5600082610779565b600181019050610792565b5050565b601f8211156107f5576107c68161068b565b6107cf846106a0565b810160208510156107de578190505b6107f26107ea856106a0565b830182610791565b50505b505050565b600082821c905092915050565b6000610818600019846008026107fa565b1980831691505092915050565b60006108318383610807565b9150826002028217905092915050565b61084a82610620565b67ffffffffffffffff811115610863576108626103f7565b5b61086d825461065a565b6108788282856107b4565b600060209050601f8311600181146108ab5760008415610899578287015190505b6108a38582610825565b86555061090b565b601f1984166108b98661068b565b60005b828110156108e1578489015182556001820191506020850194506020810190506108bc565b868310156108fe57848901516108fa601f891682610807565b8355505b6001600288020188555050505b505050505050565b61091c8161039e565b82525050565b60006020820190506109376000830184610913565b92915050565b600061095861095361094e8461053d565b610719565b61070f565b9050919050565b6109688161093d565b82525050565b6109778161070f565b82525050565b6000604082019050610992600083018561095f565b61099f602083018461096e565b9392505050565b6133f0806109b56000396000f3fe608060405234801561001057600080fd5b50600436106101425760003560e01c806370a08231116100b8578063a22cb4651161007c578063a22cb4651461039e578063b88d4fde146103ba578063c87b56dd146103d6578063e985e9c514610406578063f2fde38b14610436578063f76e8ba91461045257610142565b806370a08231146102f8578063715018a6146103285780638462151c146103325780638da5cb5b1461036257806395d89b411461038057610142565b806323b872dd1161010a57806323b872dd146101ff5780632a55205a1461021b5780632f745c591461024c57806342842e0e1461027c5780634f6ccce7146102985780636352211e146102c857610142565b806301ffc9a71461014757806306fdde0314610177578063081812fc14610195578063095ea7b3146101c557806318160ddd146101e1575b600080fd5b610161600480360381019061015c9190612628565b61046e565b60405161016e9190612670565b60405180910390f35b61017f610480565b60405161018c919061271b565b60405180910390f35b6101af60048036038101906101aa9190612773565b610512565b6040516101bc91906127e1565b60405180910390f35b6101df60048036038101906101da9190612828565b61052e565b005b6101e9610544565b6040516101f69190612877565b60405180910390f35b61021960048036038101906102149190612892565b610551565b005b610235600480360381019061023091906128e5565b610653565b604051610243929190612925565b60405180910390f35b61026660048036038101906102619190612828565b610783565b6040516102739190612877565b60405180910390f35b61029660048036038101906102919190612892565b61082c565b005b6102b260048036038101906102ad9190612773565b61084c565b6040516102bf9190612877565b60405180910390f35b6102e260048036038101906102dd9190612773565b6108c2565b6040516102ef91906127e1565b60405180910390f35b610312600480360381019061030d919061294e565b6108d4565b60405161031f9190612877565b60405180910390f35b61033061098e565b005b61034c6004803603810190610347919061294e565b6109a2565b6040516103599190612a39565b60405180910390f35b61036a610a39565b60405161037791906127e1565b60405180910390f35b610388610a63565b604051610395919061271b565b60405180910390f35b6103b860048036038101906103b39190612a87565b610af5565b005b6103d460048036038101906103cf9190612bfc565b610b0b565b005b6103f060048036038101906103eb9190612773565b610b30565b6040516103fd919061271b565b60405180910390f35b610420600480360381019061041b9190612c7f565b610b42565b60405161042d9190612670565b60405180910390f35b610450600480360381019061044b919061294e565b610bd6565b005b61046c60048036038101906104679190612d1f565b610c5c565b005b600061047982610da2565b9050919050565b60606000805461048f90612dc2565b80601f01602080910402602001604051908101604052809291908181526020018280546104bb90612dc2565b80156105085780601f106104dd57610100808354040283529160200191610508565b820191906000526020600020905b8154815290600101906020018083116104eb57829003601f168201915b5050505050905090565b600061051d82610e1c565b5061052782610ea4565b9050919050565b610540828261053b610ee1565b610ee9565b5050565b6000600880549050905090565b600073ffffffffffffffffffffffffffffffffffffffff168273ffffffffffffffffffffffffffffffffffffffff16036105c35760006040517f64a0ae920000000000000000000000000000000000000000000000000000000081526004016105ba91906127e1565b60405180910390fd5b60006105d783836105d2610ee1565b610efb565b90508373ffffffffffffffffffffffffffffffffffffffff168173ffffffffffffffffffffffffffffffffffffffff161461064d578382826040517f64283d7b00000000000000000000000000000000000000000000000000000000815260040161064493929190612df3565b60405180910390fd5b50505050565b6000806000600c6000868152602001908152602001600020905060008160000160009054906101000a900473ffffffffffffffffffffffffffffffffffffffff16905060008260000160149054906101000a90046bffffffffffffffffffffffff169050600073ffffffffffffffffffffffffffffffffffffffff168273ffffffffffffffffffffffffffffffffffffffff160361073457600b60000160009054906101000a900473ffffffffffffffffffffffffffffffffffffffff169150600b60000160149054906101000a90046bffffffffffffffffffffffff1690505b600061073e611085565b6bffffffffffffffffffffffff16826bffffffffffffffffffffffff16886107669190612e59565b6107709190612eca565b9050828195509550505050509250929050565b600061078e836108d4565b82106107d35782826040517fa57d13dc0000000000000000000000000000000000000000000000000000000081526004016107ca929190612925565b60405180910390fd5b600660008473ffffffffffffffffffffffffffffffffffffffff1673ffffffffffffffffffffffffffffffffffffffff168152602001908152602001600020600083815260200190815260200160002054905092915050565b61084783838360405180602001604052806000815250610b0b565b505050565b6000610856610544565b821061089c576000826040517fa57d13dc000000000000000000000000000000000000000000000000000000008152600401610893929190612925565b60405180910390fd5b600882815481106108b0576108af612efb565b5b90600052602060002001549050919050565b60006108cd82610e1c565b9050919050565b60008073ffffffffffffffffffffffffffffffffffffffff168273ffffffffffffffffffffffffffffffffffffffff16036109475760006040517f89c62b6400000000000000000000000000000000000000000000000000000000815260040161093e91906127e1565b60405180910390fd5b600360008373ffffffffffffffffffffffffffffffffffffffff1673ffffffffffffffffffffffffffffffffffffffff168152602001908152602001600020549050919050565b61099661108f565b6109a06000611116565b565b6060600e60008373ffffffffffffffffffffffffffffffffffffffff1673ffffffffffffffffffffffffffffffffffffffff168152602001908152602001600020805480602002602001604051908101604052809291908181526020018280548015610a2d57602002820191906000526020600020905b815481526020019060010190808311610a19575b50505050509050919050565b6000600d60009054906101000a900473ffffffffffffffffffffffffffffffffffffffff16905090565b606060018054610a7290612dc2565b80601f0160208091040260200160405190810160405280929190818152602001828054610a9e90612dc2565b8015610aeb5780601f10610ac057610100808354040283529160200191610aeb565b820191906000526020600020905b815481529060010190602001808311610ace57829003601f168201915b5050505050905090565b610b07610b00610ee1565b83836111dc565b5050565b610b16848484610551565b610b2a610b21610ee1565b8585858561134b565b50505050565b6060610b3b826114fc565b9050919050565b6000600560008473ffffffffffffffffffffffffffffffffffffffff1673ffffffffffffffffffffffffffffffffffffffff16815260200190815260200160002060008373ffffffffffffffffffffffffffffffffffffffff1673ffffffffffffffffffffffffffffffffffffffff16815260200190815260200160002060009054906101000a900460ff16905092915050565b610bde61108f565b600073ffffffffffffffffffffffffffffffffffffffff168173ffffffffffffffffffffffffffffffffffffffff1603610c505760006040517f1e4fbdf7000000000000000000000000000000000000000000000000000000008152600401610c4791906127e1565b60405180910390fd5b610c5981611116565b50565b610c64610a39565b73ffffffffffffffffffffffffffffffffffffffff163373ffffffffffffffffffffffffffffffffffffffff1614610cd1576040517f08c379a0000000000000000000000000000000000000000000000000000000008152600401610cc890612f76565b60405180910390fd5b610cdb848461160f565b6000828290501115610d3657610d358383838080601f016020809104026020016040519081016040528093929190818152602001838380828437600081840152601f19601f8201169050808301925050505050505061162d565b5b600e60008573ffffffffffffffffffffffffffffffffffffffff1673ffffffffffffffffffffffffffffffffffffffff16815260200190815260200160002083908060018154018082558091505060019003906000526020600020016000909190919091505550505050565b60007f2a55205a000000000000000000000000000000000000000000000000000000007bffffffffffffffffffffffffffffffffffffffffffffffffffffffff1916827bffffffffffffffffffffffffffffffffffffffffffffffffffffffff19161480610e155750610e1482611689565b5b9050919050565b600080610e28836116ea565b9050600073ffffffffffffffffffffffffffffffffffffffff168173ffffffffffffffffffffffffffffffffffffffff1603610e9b57826040517f7e273289000000000000000000000000000000000000000000000000000000008152600401610e929190612877565b60405180910390fd5b80915050919050565b60006004600083815260200190815260200160002060009054906101000a900473ffffffffffffffffffffffffffffffffffffffff169050919050565b600033905090565b610ef68383836001611727565b505050565b600080610f098585856118ec565b9050600073ffffffffffffffffffffffffffffffffffffffff168173ffffffffffffffffffffffffffffffffffffffff1614158015610f7457508473ffffffffffffffffffffffffffffffffffffffff168173ffffffffffffffffffffffffffffffffffffffff1614155b1561107a576000600e60008373ffffffffffffffffffffffffffffffffffffffff1673ffffffffffffffffffffffffffffffffffffffff168152602001908152602001600020905060005b81805490508110156110775785828281548110610fdf57610fde612efb565b5b90600052602060002001540361106a5781600183805490506110019190612f96565b8154811061101257611011612efb565b5b90600052602060002001548282815481106110305761102f612efb565b5b90600052602060002001819055508180548061104f5761104e612fca565b5b60019003818190600052602060002001600090559055611077565b8080600101915050610fbf565b50505b809150509392505050565b6000612710905090565b611097610ee1565b73ffffffffffffffffffffffffffffffffffffffff166110b5610a39565b73ffffffffffffffffffffffffffffffffffffffff1614611114576110d8610ee1565b6040517f118cdaa700000000000000000000000000000000000000000000000000000000815260040161110b91906127e1565b60405180910390fd5b565b6000600d60009054906101000a900473ffffffffffffffffffffffffffffffffffffffff16905081600d60006101000a81548173ffffffffffffffffffffffffffffffffffffffff021916908373ffffffffffffffffffffffffffffffffffffffff1602179055508173ffffffffffffffffffffffffffffffffffffffff168173ffffffffffffffffffffffffffffffffffffffff167f8be0079c531659141344cd1fd0a4f28419497f9722a3daafe3b4186f6b6457e060405160405180910390a35050565b600073ffffffffffffffffffffffffffffffffffffffff168273ffffffffffffffffffffffffffffffffffffffff160361124d57816040517f5b08ba1800000000000000000000000000000000000000000000000000000000815260040161124491906127e1565b60405180910390fd5b80600560008573ffffffffffffffffffffffffffffffffffffffff1673ffffffffffffffffffffffffffffffffffffffff16815260200190815260200160002060008473ffffffffffffffffffffffffffffffffffffffff1673ffffffffffffffffffffffffffffffffffffffff16815260200190815260200160002060006101000a81548160ff0219169083151502179055508173ffffffffffffffffffffffffffffffffffffffff168373ffffffffffffffffffffffffffffffffffffffff167f17307eab39ab6107e8899845ad3d59bd9653f200f220920489ca2b5937696c318360405161133e9190612670565b60405180910390a3505050565b60008373ffffffffffffffffffffffffffffffffffffffff163b11156114f5578273ffffffffffffffffffffffffffffffffffffffff1663150b7a02868685856040518563ffffffff1660e01b81526004016113aa949392919061304e565b6020604051808303816000875af19250505080156113e657506040513d601f19601f820116820180604052508101906113e391906130af565b60015b61146a573d8060008114611416576040519150601f19603f3d011682016040523d82523d6000602084013e61141b565b606091505b50600081510361146257836040517f64a0ae9200000000000000000000000000000000000000000000000000000000815260040161145991906127e1565b60405180910390fd5b805181602001fd5b63150b7a0260e01b7bffffffffffffffffffffffffffffffffffffffffffffffffffffffff1916817bffffffffffffffffffffffffffffffffffffffffffffffffffffffff1916146114f357836040517f64a0ae920000000000000000000000000000000000000000000000000000000081526004016114ea91906127e1565b60405180910390fd5b505b5050505050565b606061150782610e1c565b506000600a6000848152602001908152602001600020805461152890612dc2565b80601f016020809104026020016040519081016040528092919081815260200182805461155490612dc2565b80156115a15780601f10611576576101008083540402835291602001916115a1565b820191906000526020600020905b81548152906001019060200180831161158457829003601f168201915b5050505050905060006115b2611a09565b905060008151036115c757819250505061160a565b6000825111156115fc5780826040516020016115e4929190613118565b6040516020818303038152906040529250505061160a565b61160584611a20565b925050505b919050565b611629828260405180602001604052806000815250611a89565b5050565b80600a6000848152602001908152602001600020908161164d91906132e8565b507ff8e1a15aba9398e019f0b49df1a4fde98ee17ae345cb5f6b5e2c27f5033e8ce78260405161167d9190612877565b60405180910390a15050565b6000634906490660e01b7bffffffffffffffffffffffffffffffffffffffffffffffffffffffff1916827bffffffffffffffffffffffffffffffffffffffffffffffffffffffff191614806116e357506116e282611aad565b5b9050919050565b60006002600083815260200190815260200160002060009054906101000a900473ffffffffffffffffffffffffffffffffffffffff169050919050565b80806117605750600073ffffffffffffffffffffffffffffffffffffffff168273ffffffffffffffffffffffffffffffffffffffff1614155b1561189457600061177084610e1c565b9050600073ffffffffffffffffffffffffffffffffffffffff168373ffffffffffffffffffffffffffffffffffffffff16141580156117db57508273ffffffffffffffffffffffffffffffffffffffff168173ffffffffffffffffffffffffffffffffffffffff1614155b80156117ee57506117ec8184610b42565b155b1561183057826040517fa9fbf51f00000000000000000000000000000000000000000000000000000000815260040161182791906127e1565b60405180910390fd5b811561189257838573ffffffffffffffffffffffffffffffffffffffff168273ffffffffffffffffffffffffffffffffffffffff167f8c5be1e5ebec7d5bd14f71427d1e84f3dd0314c0f7b2291e5b200ac8c7c3b92560405160405180910390a45b505b836004600085815260200190815260200160002060006101000a81548173ffffffffffffffffffffffffffffffffffffffff021916908373ffffffffffffffffffffffffffffffffffffffff16021790555050505050565b6000806118fa858585611b27565b9050600073ffffffffffffffffffffffffffffffffffffffff168173ffffffffffffffffffffffffffffffffffffffff160361193e5761193984611d41565b61197d565b8473ffffffffffffffffffffffffffffffffffffffff168173ffffffffffffffffffffffffffffffffffffffff161461197c5761197b8185611d8a565b5b5b600073ffffffffffffffffffffffffffffffffffffffff168573ffffffffffffffffffffffffffffffffffffffff16036119bf576119ba84611e75565b6119fe565b8473ffffffffffffffffffffffffffffffffffffffff168173ffffffffffffffffffffffffffffffffffffffff16146119fd576119fc8585611f46565b5b5b809150509392505050565b606060405180602001604052806000815250905090565b6060611a2b82610e1c565b506000611a36611a09565b90506000815111611a565760405180602001604052806000815250611a81565b80611a6084611fd1565b604051602001611a71929190613118565b6040516020818303038152906040525b915050919050565b611a93838361209f565b611aa8611a9e610ee1565b600085858561134b565b505050565b60007f780e9d63000000000000000000000000000000000000000000000000000000007bffffffffffffffffffffffffffffffffffffffffffffffffffffffff1916827bffffffffffffffffffffffffffffffffffffffffffffffffffffffff19161480611b205750611b1f82612198565b5b9050919050565b600080611b33846116ea565b9050600073ffffffffffffffffffffffffffffffffffffffff168373ffffffffffffffffffffffffffffffffffffffff1614611b7557611b7481848661227a565b5b600073ffffffffffffffffffffffffffffffffffffffff168173ffffffffffffffffffffffffffffffffffffffff1614611c0657611bb7600085600080611727565b6001600360008373ffffffffffffffffffffffffffffffffffffffff1673ffffffffffffffffffffffffffffffffffffffff168152602001908152602001600020600082825403925050819055505b600073ffffffffffffffffffffffffffffffffffffffff168573ffffffffffffffffffffffffffffffffffffffff1614611c89576001600360008773ffffffffffffffffffffffffffffffffffffffff1673ffffffffffffffffffffffffffffffffffffffff168152602001908152602001600020600082825401925050819055505b846002600086815260200190815260200160002060006101000a81548173ffffffffffffffffffffffffffffffffffffffff021916908373ffffffffffffffffffffffffffffffffffffffff160217905550838573ffffffffffffffffffffffffffffffffffffffff168273ffffffffffffffffffffffffffffffffffffffff167fddf252ad1be2c89b69c2b068fc378daa952ba7f163c4a11628f55a4df523b3ef60405160405180910390a4809150509392505050565b6008805490506009600083815260200190815260200160002081905550600881908060018154018082558091505060019003906000526020600020016000909190919091505550565b6000611d95836108d4565b90506000600760008481526020019081526020016000205490506000600660008673ffffffffffffffffffffffffffffffffffffffff1673ffffffffffffffffffffffffffffffffffffffff1681526020019081526020016000209050828214611e415760008160008581526020019081526020016000205490508082600085815260200190815260200160002081905550826007600083815260200190815260200160002081905550505b6007600085815260200190815260200160002060009055806000848152602001908152602001600020600090555050505050565b60006001600880549050611e899190612f96565b9050600060096000848152602001908152602001600020549050600060088381548110611eb957611eb8612efb565b5b906000526020600020015490508060088381548110611edb57611eda612efb565b5b906000526020600020018190555081600960008381526020019081526020016000208190555060096000858152602001908152602001600020600090556008805480611f2a57611f29612fca565b5b6001900381819060005260206000200160009055905550505050565b60006001611f53846108d4565b611f5d9190612f96565b905081600660008573ffffffffffffffffffffffffffffffffffffffff1673ffffffffffffffffffffffffffffffffffffffff168152602001908152602001600020600083815260200190815260200160002081905550806007600084815260200190815260200160002081905550505050565b606060006001611fe08461233e565b01905060008167ffffffffffffffff811115611fff57611ffe612ad1565b5b6040519080825280601f01601f1916602001820160405280156120315781602001600182028036833780820191505090505b509050600082602001820190505b600115612094578080600190039150507f3031323334353637383961626364656600000000000000000000000000000000600a86061a8153600a858161208857612087612e9b565b5b0494506000850361203f575b819350505050919050565b600073ffffffffffffffffffffffffffffffffffffffff168273ffffffffffffffffffffffffffffffffffffffff16036121115760006040517f64a0ae9200000000000000000000000000000000000000000000000000000000815260040161210891906127e1565b60405180910390fd5b600061211f83836000610efb565b9050600073ffffffffffffffffffffffffffffffffffffffff168173ffffffffffffffffffffffffffffffffffffffff16146121935760006040517f73c6ac6e00000000000000000000000000000000000000000000000000000000815260040161218a91906127e1565b60405180910390fd5b505050565b60007f80ac58cd000000000000000000000000000000000000000000000000000000007bffffffffffffffffffffffffffffffffffffffffffffffffffffffff1916827bffffffffffffffffffffffffffffffffffffffffffffffffffffffff1916148061226357507f5b5e139f000000000000000000000000000000000000000000000000000000007bffffffffffffffffffffffffffffffffffffffffffffffffffffffff1916827bffffffffffffffffffffffffffffffffffffffffffffffffffffffff1916145b80612273575061227282612491565b5b9050919050565b6122858383836124fb565b61233957600073ffffffffffffffffffffffffffffffffffffffff168373ffffffffffffffffffffffffffffffffffffffff16036122fa57806040517f7e2732890000000000000000000000000000000000000000000000000000000081526004016122f19190612877565b60405180910390fd5b81816040517f177e802f000000000000000000000000000000000000000000000000000000008152600401612330929190612925565b60405180910390fd5b505050565b600080600090507a184f03e93ff9f4daa797ed6e38ed64bf6a1f010000000000000000831061239c577a184f03e93ff9f4daa797ed6e38ed64bf6a1f010000000000000000838161239257612391612e9b565b5b0492506040810190505b6d04ee2d6d415b85acef810000000083106123d9576d04ee2d6d415b85acef810000000083816123cf576123ce612e9b565b5b0492506020810190505b662386f26fc10000831061240857662386f26fc1000083816123fe576123fd612e9b565b5b0492506010810190505b6305f5e1008310612431576305f5e100838161242757612426612e9b565b5b0492506008810190505b612710831061245657612710838161244c5761244b612e9b565b5b0492506004810190505b60648310612479576064838161246f5761246e612e9b565b5b0492506002810190505b600a8310612488576001810190505b80915050919050565b60007f01ffc9a7000000000000000000000000000000000000000000000000000000007bffffffffffffffffffffffffffffffffffffffffffffffffffffffff1916827bffffffffffffffffffffffffffffffffffffffffffffffffffffffff1916149050919050565b60008073ffffffffffffffffffffffffffffffffffffffff168373ffffffffffffffffffffffffffffffffffffffff16141580156125b357508273ffffffffffffffffffffffffffffffffffffffff168473ffffffffffffffffffffffffffffffffffffffff16148061257457506125738484610b42565b5b806125b257508273ffffffffffffffffffffffffffffffffffffffff1661259a83610ea4565b73ffffffffffffffffffffffffffffffffffffffff16145b5b90509392505050565b6000604051905090565b600080fd5b600080fd5b60007fffffffff0000000000000000000000000000000000000000000000000000000082169050919050565b612605816125d0565b811461261057600080fd5b50565b600081359050612622816125fc565b92915050565b60006020828403121561263e5761263d6125c6565b5b600061264c84828501612613565b91505092915050565b60008115159050919050565b61266a81612655565b82525050565b60006020820190506126856000830184612661565b92915050565b600081519050919050565b600082825260208201905092915050565b60005b838110156126c55780820151818401526020810190506126aa565b60008484015250505050565b6000601f19601f8301169050919050565b60006126ed8261268b565b6126f78185612696565b93506127078185602086016126a7565b612710816126d1565b840191505092915050565b6000602082019050818103600083015261273581846126e2565b905092915050565b6000819050919050565b6127508161273d565b811461275b57600080fd5b50565b60008135905061276d81612747565b92915050565b600060208284031215612789576127886125c6565b5b60006127978482850161275e565b91505092915050565b600073ffffffffffffffffffffffffffffffffffffffff82169050919050565b60006127cb826127a0565b9050919050565b6127db816127c0565b82525050565b60006020820190506127f660008301846127d2565b92915050565b612805816127c0565b811461281057600080fd5b50565b600081359050612822816127fc565b92915050565b6000806040838503121561283f5761283e6125c6565b5b600061284d85828601612813565b925050602061285e8582860161275e565b9150509250929050565b6128718161273d565b82525050565b600060208201905061288c6000830184612868565b92915050565b6000806000606084860312156128ab576128aa6125c6565b5b60006128b986828701612813565b93505060206128ca86828701612813565b92505060406128db8682870161275e565b9150509250925092565b600080604083850312156128fc576128fb6125c6565b5b600061290a8582860161275e565b925050602061291b8582860161275e565b9150509250929050565b600060408201905061293a60008301856127d2565b6129476020830184612868565b9392505050565b600060208284031215612964576129636125c6565b5b600061297284828501612813565b91505092915050565b600081519050919050565b600082825260208201905092915050565b6000819050602082019050919050565b6129b08161273d565b82525050565b60006129c283836129a7565b60208301905092915050565b6000602082019050919050565b60006129e68261297b565b6129f08185612986565b93506129fb83612997565b8060005b83811015612a2c578151612a1388826129b6565b9750612a1e836129ce565b9250506001810190506129ff565b5085935050505092915050565b60006020820190508181036000830152612a5381846129db565b905092915050565b612a6481612655565b8114612a6f57600080fd5b50565b600081359050612a8181612a5b565b92915050565b60008060408385031215612a9e57612a9d6125c6565b5b6000612aac85828601612813565b9250506020612abd85828601612a72565b9150509250929050565b600080fd5b600080fd5b7f4e487b7100000000000000000000000000000000000000000000000000000000600052604160045260246000fd5b612b09826126d1565b810181811067ffffffffffffffff82111715612b2857612b27612ad1565b5b80604052505050565b6000612b3b6125bc565b9050612b478282612b00565b919050565b600067ffffffffffffffff821115612b6757612b66612ad1565b5b612b70826126d1565b9050602081019050919050565b82818337600083830152505050565b6000612b9f612b9a84612b4c565b612b31565b905082815260208101848484011115612bbb57612bba612acc565b5b612bc6848285612b7d565b509392505050565b600082601f830112612be357612be2612ac7565b5b8135612bf3848260208601612b8c565b91505092915050565b60008060008060808587031215612c1657612c156125c6565b5b6000612c2487828801612813565b9450506020612c3587828801612813565b9350506040612c468782880161275e565b925050606085013567ffffffffffffffff811115612c6757612c666125cb565b5b612c7387828801612bce565b91505092959194509250565b60008060408385031215612c9657612c956125c6565b5b6000612ca485828601612813565b9250506020612cb585828601612813565b9150509250929050565b600080fd5b600080fd5b60008083601f840112612cdf57612cde612ac7565b5b8235905067ffffffffffffffff811115612cfc57612cfb612cbf565b5b602083019150836001820283011115612d1857612d17612cc4565b5b9250929050565b60008060008060608587031215612d3957612d386125c6565b5b6000612d4787828801612813565b9450506020612d588782880161275e565b935050604085013567ffffffffffffffff811115612d7957612d786125cb565b5b612d8587828801612cc9565b925092505092959194509250565b7f4e487b7100000000000000000000000000000000000000000000000000000000600052602260045260246000fd5b60006002820490506001821680612dda57607f821691505b602082108103612ded57612dec612d93565b5b50919050565b6000606082019050612e0860008301866127d2565b612e156020830185612868565b612e2260408301846127d2565b949350505050565b7f4e487b7100000000000000000000000000000000000000000000000000000000600052601160045260246000fd5b6000612e648261273d565b9150612e6f8361273d565b9250828202612e7d8161273d565b91508282048414831517612e9457612e93612e2a565b5b5092915050565b7f4e487b7100000000000000000000000000000000000000000000000000000000600052601260045260246000fd5b6000612ed58261273d565b9150612ee08361273d565b925082612ef057612eef612e9b565b5b828204905092915050565b7f4e487b7100000000000000000000000000000000000000000000000000000000600052603260045260246000fd5b7f4f6e6c79206f776e65722063616e206d696e7400000000000000000000000000600082015250565b6000612f60601383612696565b9150612f6b82612f2a565b602082019050919050565b60006020820190508181036000830152612f8f81612f53565b9050919050565b6000612fa18261273d565b9150612fac8361273d565b9250828203905081811115612fc457612fc3612e2a565b5b92915050565b7f4e487b7100000000000000000000000000000000000000000000000000000000600052603160045260246000fd5b600081519050919050565b600082825260208201905092915050565b600061302082612ff9565b61302a8185613004565b935061303a8185602086016126a7565b613043816126d1565b840191505092915050565b600060808201905061306360008301876127d2565b61307060208301866127d2565b61307d6040830185612868565b818103606083015261308f8184613015565b905095945050505050565b6000815190506130a9816125fc565b92915050565b6000602082840312156130c5576130c46125c6565b5b60006130d38482850161309a565b91505092915050565b600081905092915050565b60006130f28261268b565b6130fc81856130dc565b935061310c8185602086016126a7565b80840191505092915050565b600061312482856130e7565b915061313082846130e7565b91508190509392505050565b60008190508160005260206000209050919050565b60006020601f8301049050919050565b600082821b905092915050565b60006008830261319e7fffffffffffffffffffffffffffffffffffffffffffffffffffffffffffffffff82613161565b6131a88683613161565b95508019841693508086168417925050509392505050565b6000819050919050565b60006131e56131e06131db8461273d565b6131c0565b61273d565b9050919050565b6000819050919050565b6131ff836131ca565b61321361320b826131ec565b84845461316e565b825550505050565b600090565b61322861321b565b6132338184846131f6565b505050565b5b818110156132575761324c600082613220565b600181019050613239565b5050565b601f82111561329c5761326d8161313c565b61327684613151565b81016020851015613285578190505b61329961329185613151565b830182613238565b50505b505050565b600082821c905092915050565b60006132bf600019846008026132a1565b1980831691505092915050565b60006132d883836132ae565b9150826002028217905092915050565b6132f18261268b565b67ffffffffffffffff81111561330a57613309612ad1565b5b6133148254612dc2565b61331f82828561325b565b600060209050601f8311600181146133525760008415613340578287015190505b61334a85826132cc565b8655506133b2565b601f1984166133608661313c565b60005b8281101561338857848901518255600182019150602085019450602081019050613363565b868310156133a557848901516133a1601f8916826132ae565b8355505b6001600288020188555050505b50505050505056fea2646970667358221220a061212dffe4844c963c0c51824d1a48dfabadbb6e1a44c9be88f8b075b268bc64736f6c634300081b0033",
  "linkReferences": {},
  "deployedLinkReferences": {}
}