{"src/blockchain/evm/contracts/DirectMintNFTV2.sol":{"LaunchNFTV2":{"abi":[{"inputs":[{"internalType":"address","name":"initialOwner","type":"address"},{"internalType":"string","name":"name","type":"string"},{"internalType":"string","name":"symbol","type":"string"},{"internalType":"uint96","name":"_royaltyFee","type":"uint96"},{"internalType":"uint96","name":"_platformFee","type":"uint96"},{"internalType":"address","name":"_platformFeeRecipient","type":"address"},{"internalType":"address","name":"_backendSigner","type":"address"}],"stateMutability":"nonpayable","type":"constructor"},{"inputs":[],"name":"ECDSAInvalidSignature","type":"error"},{"inputs":[{"internalType":"uint256","name":"length","type":"uint256"}],"name":"ECDSAInvalidSignatureLength","type":"error"},{"inputs":[{"internalType":"bytes32","name":"s","type":"bytes32"}],"name":"ECDSAInvalidSignatureS","type":"error"},{"inputs":[{"internalType":"uint256","name":"numerator","type":"uint256"},{"internalType":"uint256","name":"denominator","type":"uint256"}],"name":"ERC2981InvalidDefaultRoyalty","type":"error"},{"inputs":[{"internalType":"address","name":"receiver","type":"address"}],"name":"ERC2981InvalidDefaultRoyaltyReceiver","type":"error"},{"inputs":[{"internalType":"uint256","name":"tokenId","type":"uint256"},{"internalType":"uint256","name":"numerator","type":"uint256"},{"internalType":"uint256","name":"denominator","type":"uint256"}],"name":"ERC2981InvalidTokenRoyalty","type":"error"},{"inputs":[{"internalType":"uint256","name":"tokenId","type":"uint256"},{"internalType":"address","name":"receiver","type":"address"}],"name":"ERC2981InvalidTokenRoyaltyReceiver","type":"error"},{"inputs":[],"name":"ERC721EnumerableForbiddenBatchMint","type":"error"},{"inputs":[{"internalType":"address","name":"sender","type":"address"},{"internalType":"uint256","name":"tokenId","type":"uint256"},{"internalType":"address","name":"owner","type":"address"}],"name":"ERC721IncorrectOwner","type":"error"},{"inputs":[{"internalType":"address","name":"operator","type":"address"},{"internalType":"uint256","name":"tokenId","type":"uint256"}],"name":"ERC721InsufficientApproval","type":"error"},{"inputs":[{"internalType":"address","name":"approver","type":"address"}],"name":"ERC721InvalidApprover","type":"error"},{"inputs":[{"internalType":"address","name":"operator","type":"address"}],"name":"ERC721InvalidOperator","type":"error"},{"inputs":[{"internalType":"address","name":"owner","type":"address"}],"name":"ERC721InvalidOwner","type":"error"},{"inputs":[{"internalType":"address","name":"receiver","type":"address"}],"name":"ERC721InvalidReceiver","type":"error"},{"inputs":[{"internalType":"address","name":"sender","type":"address"}],"name":"ERC721InvalidSender","type":"error"},{"inputs":[{"internalType":"uint256","name":"tokenId","type":"uint256"}],"name":"ERC721NonexistentToken","type":"error"},{"inputs":[{"internalType":"address","name":"owner","type":"address"},{"internalType":"uint256","name":"index","type":"uint256"}],"name":"ERC721OutOfBoundsIndex","type":"error"},{"inputs":[],"name":"ExceedsPhaseSupply","type":"error"},{"inputs":[],"name":"ExceedsWalletLimit","type":"error"},{"inputs":[],"name":"InsufficientPayment","type":"error"},{"inputs":[],"name":"InvalidMerkleProof","type":"error"},{"inputs":[],"name":"InvalidPhaseConfiguration","type":"error"},{"inputs":[],"name":"InvalidPhaseIndex","type":"error"},{"inputs":[],"name":"InvalidShortString","type":"error"},{"inputs":[],"name":"InvalidSignature","type":"error"},{"inputs":[],"name":"NoActivePhase","type":"error"},{"inputs":[],"name":"OverlappingPhases","type":"error"},{"inputs":[{"internalType":"address","name":"owner","type":"address"}],"name":"OwnableInvalidOwner","type":"error"},{"inputs":[{"internalType":"address","name":"account","type":"address"}],"name":"OwnableUnauthorizedAccount","type":"error"},{"inputs":[],"name":"PhaseNotActive","type":"error"},{"inputs":[],"name":"PriceMismatch","type":"error"},{"inputs":[],"name":"SignatureExpired","type":"error"},{"inputs":[{"internalType":"string","name":"str","type":"string"}],"name":"StringTooLong","type":"error"},{"inputs":[],"name":"TransferFailed","type":"error"},{"anonymous":false,"inputs":[{"indexed":true,"internalType":"address","name":"owner","type":"address"},{"indexed":true,"internalType":"address","name":"approved","type":"address"},{"indexed":true,"internalType":"uint256","name":"tokenId","type":"uint256"}],"name":"Approval","type":"event"},{"anonymous":false,"inputs":[{"indexed":true,"internalType":"address","name":"owner","type":"address"},{"indexed":true,"internalType":"address","name":"operator","type":"address"},{"indexed":false,"internalType":"bool","name":"approved","type":"bool"}],"name":"ApprovalForAll","type":"event"},{"anonymous":false,"inputs":[{"indexed":false,"internalType":"uint256","name":"_fromTokenId","type":"uint256"},{"indexed":false,"internalType":"uint256","name":"_toTokenId","type":"uint256"}],"name":"BatchMetadataUpdate","type":"event"},{"anonymous":false,"inputs":[],"name":"EIP712DomainChanged","type":"event"},{"anonymous":false,"inputs":[{"indexed":false,"internalType":"uint256","name":"_tokenId","type":"uint256"}],"name":"MetadataUpdate","type":"event"},{"anonymous":false,"inputs":[{"indexed":true,"internalType":"address","name":"previousOwner","type":"address"},{"indexed":true,"internalType":"address","name":"newOwner","type":"address"}],"name":"OwnershipTransferred","type":"event"},{"anonymous":false,"inputs":[{"indexed":true,"internalType":"uint256","name":"phaseIndex","type":"uint256"},{"indexed":false,"internalType":"enum LaunchNFTV2.PhaseType","name":"phaseType","type":"uint8"},{"indexed":false,"internalType":"uint256","name":"price","type":"uint256"},{"indexed":false,"internalType":"uint256","name":"startTime","type":"uint256"},{"indexed":false,"internalType":"uint256","name":"endTime","type":"uint256"},{"indexed":false,"internalType":"uint256","name":"maxSupply","type":"uint256"},{"indexed":false,"internalType":"uint256","name":"maxPerWallet","type":"uint256"},{"indexed":false,"internalType":"uint256","name":"maxMintPerPhase","type":"uint256"},{"indexed":false,"internalType":"bytes32","name":"merkleRoot","type":"bytes32"}],"name":"PhaseAdded","type":"event"},{"anonymous":false,"inputs":[{"indexed":true,"internalType":"uint256","name":"phaseIndex","type":"uint256"},{"indexed":false,"internalType":"enum LaunchNFTV2.PhaseType","name":"phaseType","type":"uint8"},{"indexed":false,"internalType":"uint256","name":"price","type":"uint256"},{"indexed":false,"internalType":"uint256","name":"startTime","type":"uint256"},{"indexed":false,"internalType":"uint256","name":"endTime","type":"uint256"},{"indexed":false,"internalType":"uint256","name":"maxSupply","type":"uint256"},{"indexed":false,"internalType":"uint256","name":"maxPerWallet","type":"uint256"},{"indexed":false,"internalType":"uint256","name":"maxMintPerPhase","type":"uint256"},{"indexed":false,"internalType":"bytes32","name":"merkleRoot","type":"bytes32"}],"name":"PhaseUpdated","type":"event"},{"anonymous":false,"inputs":[{"indexed":false,"internalType":"uint96","name":"newPercentage","type":"uint96"},{"indexed":false,"internalType":"address","name":"newRecipient","type":"address"}],"name":"PlatformFeeUpdated","type":"event"},{"anonymous":false,"inputs":[{"indexed":true,"internalType":"uint256","name":"tokenId","type":"uint256"},{"indexed":true,"internalType":"address","name":"recipient","type":"address"},{"indexed":false,"internalType":"enum LaunchNFTV2.PhaseType","name":"phaseType","type":"uint8"}],"name":"TokenMinted","type":"event"},{"anonymous":false,"inputs":[{"indexed":true,"internalType":"address","name":"from","type":"address"},{"indexed":true,"internalType":"address","name":"to","type":"address"},{"indexed":true,"internalType":"uint256","name":"tokenId","type":"uint256"}],"name":"Transfer","type":"event"},{"anonymous":false,"inputs":[{"indexed":true,"internalType":"address","name":"recipient","type":"address"},{"indexed":false,"internalType":"uint256","name":"amount","type":"uint256"}],"name":"WithdrawCompleted","type":"event"},{"inputs":[{"internalType":"enum LaunchNFTV2.PhaseType","name":"_phaseType","type":"uint8"},{"internalType":"uint256","name":"_price","type":"uint256"},{"internalType":"uint256","name":"_startTime","type":"uint256"},{"internalType":"uint256","name":"_endTime","type":"uint256"},{"internalType":"uint256","name":"_maxSupply","type":"uint256"},{"internalType":"uint256","name":"_maxPerWallet","type":"uint256"},{"internalType":"uint256","name":"_maxMintPerPhase","type":"uint256"},{"internalType":"bytes32","name":"_merkleRoot","type":"bytes32"}],"name":"addPhase","outputs":[],"stateMutability":"nonpayable","type":"function"},{"inputs":[{"internalType":"address","name":"to","type":"address"},{"internalType":"uint256","name":"tokenId","type":"uint256"}],"name":"approve","outputs":[],"stateMutability":"nonpayable","type":"function"},{"inputs":[],"name":"backendSigner","outputs":[{"internalType":"address","name":"","type":"address"}],"stateMutability":"view","type":"function"},{"inputs":[{"internalType":"address","name":"owner","type":"address"}],"name":"balanceOf","outputs":[{"internalType":"uint256","name":"","type":"uint256"}],"stateMutability":"view","type":"function"},{"inputs":[],"name":"eip712Domain","outputs":[{"internalType":"bytes1","name":"fields","type":"bytes1"},{"internalType":"string","name":"name","type":"string"},{"internalType":"string","name":"version","type":"string"},{"internalType":"uint256","name":"chainId","type":"uint256"},{"internalType":"address","name":"verifyingContract","type":"address"},{"internalType":"bytes32","name":"salt","type":"bytes32"},{"internalType":"uint256[]","name":"extensions","type":"uint256[]"}],"stateMutability":"view","type":"function"},{"inputs":[],"name":"getActivePhase","outputs":[{"internalType":"uint256","name":"phaseIndex","type":"uint256"},{"components":[{"internalType":"enum LaunchNFTV2.PhaseType","name":"phaseType","type":"uint8"},{"internalType":"uint256","name":"price","type":"uint256"},{"internalType":"uint256","name":"startTime","type":"uint256"},{"internalType":"uint256","name":"endTime","type":"uint256"},{"internalType":"uint256","name":"maxSupply","type":"uint256"},{"internalType":"uint256","name":"maxPerWallet","type":"uint256"},{"internalType":"uint256","name":"maxMintPerPhase","type":"uint256"},{"internalType":"uint256","name":"mintedInPhase","type":"uint256"},{"internalType":"bytes32","name":"merkleRoot","type":"bytes32"}],"internalType":"struct LaunchNFTV2.Phase","name":"phase","type":"tuple"}],"stateMutability":"view","type":"function"},{"inputs":[{"internalType":"uint256","name":"tokenId","type":"uint256"}],"name":"getApproved","outputs":[{"internalType":"address","name":"","type":"address"}],"stateMutability":"view","type":"function"},{"inputs":[],"name":"getDomainSeparator","outputs":[{"internalType":"bytes32","name":"","type":"bytes32"}],"stateMutability":"view","type":"function"},{"inputs":[{"internalType":"address","name":"user","type":"address"},{"internalType":"enum LaunchNFTV2.PhaseType","name":"phaseType","type":"uint8"}],"name":"getMintedInPhase","outputs":[{"internalType":"uint256","name":"","type":"uint256"}],"stateMutability":"view","type":"function"},{"inputs":[{"internalType":"address","name":"user","type":"address"}],"name":"getNonce","outputs":[{"internalType":"uint256","name":"","type":"uint256"}],"stateMutability":"view","type":"function"},{"inputs":[],"name":"getPhaseCount","outputs":[{"internalType":"uint256","name":"","type":"uint256"}],"stateMutability":"view","type":"function"},{"inputs":[],"name":"isActivePhasePresent","outputs":[{"internalType":"bool","name":"","type":"bool"}],"stateMutability":"view","type":"function"},{"inputs":[{"internalType":"address","name":"owner","type":"address"},{"internalType":"address","name":"operator","type":"address"}],"name":"isApprovedForAll","outputs":[{"internalType":"bool","name":"","type":"bool"}],"stateMutability":"view","type":"function"},{"inputs":[{"internalType":"uint256","name":"tokenId","type":"uint256"},{"internalType":"string","name":"uri","type":"string"},{"internalType":"uint256","name":"deadline","type":"uint256"},{"internalType":"bytes","name":"signature","type":"bytes"},{"internalType":"bytes32[]","name":"merkleProof","type":"bytes32[]"}],"name":"mint","outputs":[],"stateMutability":"payable","type":"function"},{"inputs":[],"name":"name","outputs":[{"internalType":"string","name":"","type":"string"}],"stateMutability":"view","type":"function"},{"inputs":[],"name":"owner","outputs":[{"internalType":"address","name":"","type":"address"}],"stateMutability":"view","type":"function"},{"inputs":[{"internalType":"uint256","name":"tokenId","type":"uint256"}],"name":"ownerOf","outputs":[{"internalType":"address","name":"","type":"address"}],"stateMutability":"view","type":"function"},{"inputs":[{"internalType":"uint256","name":"","type":"uint256"}],"name":"phases","outputs":[{"internalType":"enum LaunchNFTV2.PhaseType","name":"phaseType","type":"uint8"},{"internalType":"uint256","name":"price","type":"uint256"},{"internalType":"uint256","name":"startTime","type":"uint256"},{"internalType":"uint256","name":"endTime","type":"uint256"},{"internalType":"uint256","name":"maxSupply","type":"uint256"},{"internalType":"uint256","name":"maxPerWallet","type":"uint256"},{"internalType":"uint256","name":"maxMintPerPhase","type":"uint256"},{"internalType":"uint256","name":"mintedInPhase","type":"uint256"},{"internalType":"bytes32","name":"merkleRoot","type":"bytes32"}],"stateMutability":"view","type":"function"},{"inputs":[],"name":"platformFeePercentage","outputs":[{"internalType":"uint96","name":"","type":"uint96"}],"stateMutability":"view","type":"function"},{"inputs":[],"name":"platformFeeRecipient","outputs":[{"internalType":"address","name":"","type":"address"}],"stateMutability":"view","type":"function"},{"inputs":[],"name":"renounceOwnership","outputs":[],"stateMutability":"nonpayable","type":"function"},{"inputs":[{"internalType":"uint256","name":"tokenId","type":"uint256"},{"internalType":"uint256","name":"salePrice","type":"uint256"}],"name":"royaltyInfo","outputs":[{"internalType":"address","name":"receiver","type":"address"},{"internalType":"uint256","name":"amount","type":"uint256"}],"stateMutability":"view","type":"function"},{"inputs":[{"internalType":"address","name":"from","type":"address"},{"internalType":"address","name":"to","type":"address"},{"internalType":"uint256","name":"tokenId","type":"uint256"}],"name":"safeTransferFrom","outputs":[],"stateMutability":"nonpayable","type":"function"},{"inputs":[{"internalType":"address","name":"from","type":"address"},{"internalType":"address","name":"to","type":"address"},{"internalType":"uint256","name":"tokenId","type":"uint256"},{"internalType":"bytes","name":"data","type":"bytes"}],"name":"safeTransferFrom","outputs":[],"stateMutability":"nonpayable","type":"function"},{"inputs":[{"internalType":"address","name":"operator","type":"address"},{"internalType":"bool","name":"approved","type":"bool"}],"name":"setApprovalForAll","outputs":[],"stateMutability":"nonpayable","type":"function"},{"inputs":[{"internalType":"uint96","name":"_feePercentage","type":"uint96"},{"internalType":"address","name":"_feeRecipient","type":"address"}],"name":"setPlatformFee","outputs":[],"stateMutability":"nonpayable","type":"function"},{"inputs":[{"internalType":"bytes4","name":"interfaceId","type":"bytes4"}],"name":"supportsInterface","outputs":[{"internalType":"bool","name":"","type":"bool"}],"stateMutability":"view","type":"function"},{"inputs":[],"name":"symbol","outputs":[{"internalType":"string","name":"","type":"string"}],"stateMutability":"view","type":"function"},{"inputs":[{"internalType":"uint256","name":"index","type":"uint256"}],"name":"tokenByIndex","outputs":[{"internalType":"uint256","name":"","type":"uint256"}],"stateMutability":"view","type":"function"},{"inputs":[{"internalType":"address","name":"owner","type":"address"},{"internalType":"uint256","name":"index","type":"uint256"}],"name":"tokenOfOwnerByIndex","outputs":[{"internalType":"uint256","name":"","type":"uint256"}],"stateMutability":"view","type":"function"},{"inputs":[{"internalType":"uint256","name":"tokenId","type":"uint256"}],"name":"tokenURI","outputs":[{"internalType":"string","name":"","type":"string"}],"stateMutability":"view","type":"function"},{"inputs":[],"name":"totalSupply","outputs":[{"internalType":"uint256","name":"","type":"uint256"}],"stateMutability":"view","type":"function"},{"inputs":[{"internalType":"address","name":"from","type":"address"},{"internalType":"address","name":"to","type":"address"},{"internalType":"uint256","name":"tokenId","type":"uint256"}],"name":"transferFrom","outputs":[],"stateMutability":"nonpayable","type":"function"},{"inputs":[{"internalType":"address","name":"newOwner","type":"address"}],"name":"transferOwnership","outputs":[],"stateMutability":"nonpayable","type":"function"},{"inputs":[{"internalType":"uint256","name":"_phaseIndex","type":"uint256"},{"internalType":"enum LaunchNFTV2.PhaseType","name":"_phaseType","type":"uint8"},{"internalType":"uint256","name":"_price","type":"uint256"},{"internalType":"uint256","name":"_startTime","type":"uint256"},{"internalType":"uint256","name":"_endTime","type":"uint256"},{"internalType":"uint256","name":"_maxSupply","type":"uint256"},{"internalType":"uint256","name":"_maxPerWallet","type":"uint256"},{"internalType":"uint256","name":"_maxMintPerPhase","type":"uint256"},{"internalType":"bytes32","name":"_merkleRoot","type":"bytes32"}],"name":"updatePhase","outputs":[],"stateMutability":"nonpayable","type":"function"},{"inputs":[],"name":"withdraw","outputs":[],"stateMutability":"nonpayable","type":"function"}],"evm":{"bytecode":{"linkReferences":{},"object":"6101a060405234801561001157600080fd5b506040516174c43803806174c483398181016040528101906100339190610b16565b6040518060400160405280600a81526020017f556e69666965644e4654000000000000000000000000000000000000000000008152506040518060400160405280600181526020017f310000000000000000000000000000000000000000000000000000000000000081525088888881600090816100b19190610e11565b5080600190816100c19190610e11565b505050600073ffffffffffffffffffffffffffffffffffffffff168173ffffffffffffffffffffffffffffffffffffffff16036101365760006040517f1e4fbdf700000000000000000000000000000000000000000000000000000000815260040161012d9190610ef2565b60405180910390fd5b6101458161056a60201b60201c565b5061015a600e8361063060201b90919060201c565b6101208181525050610176600f8261063060201b90919060201c565b6101408181525050818051906020012060e08181525050808051906020012061010081815250504660a081815250506101b361068060201b60201c565b608081815250503073ffffffffffffffffffffffffffffffffffffffff1660c08173ffffffffffffffffffffffffffffffffffffffff168152505050506103e8846bffffffffffffffffffffffff161115610243576040517f08c379a000000000000000000000000000000000000000000000000000000000815260040161023a90610f6a565b60405180910390fd5b6103e8836bffffffffffffffffffffffff161115610296576040517f08c379a000000000000000000000000000000000000000000000000000000000815260040161028d90610fd6565b60405180910390fd5b600073ffffffffffffffffffffffffffffffffffffffff168273ffffffffffffffffffffffffffffffffffffffff1603610305576040517f08c379a00000000000000000000000000000000000000000000000000000000081526004016102fc90611042565b60405180910390fd5b600073ffffffffffffffffffffffffffffffffffffffff168173ffffffffffffffffffffffffffffffffffffffff1603610374576040517f08c379a000000000000000000000000000000000000000000000000000000000815260040161036b906110ae565b60405180910390fd5b8073ffffffffffffffffffffffffffffffffffffffff166101608173ffffffffffffffffffffffffffffffffffffffff1681525050836bffffffffffffffffffffffff16610180816bffffffffffffffffffffffff168152505082601360006101000a8154816bffffffffffffffffffffffff02191690836bffffffffffffffffffffffff160217905550816013600c6101000a81548173ffffffffffffffffffffffffffffffffffffffff021916908373ffffffffffffffffffffffffffffffffffffffff16021790555061045387610180516106db60201b60201c565b601160405180610120016040528060006002811115610475576104746110ce565b5b8152602001600081526020016000815260200160008152602001600081526020016000815260200160008152602001600081526020016000801b815250908060018154018082558091505060019003906000526020600020906009020160009091909190915060008201518160000160006101000a81548160ff02191690836002811115610506576105056110ce565b5b02179055506020820151816001015560408201518160020155606082015181600301556080820151816004015560a0820151816005015560c0820151816006015560e0820151816007015561010082015181600801555050505050505050506112c4565b6000600960009054906101000a900473ffffffffffffffffffffffffffffffffffffffff16905081600960006101000a81548173ffffffffffffffffffffffffffffffffffffffff021916908373ffffffffffffffffffffffffffffffffffffffff1602179055508173ffffffffffffffffffffffffffffffffffffffff168173ffffffffffffffffffffffffffffffffffffffff167f8be0079c531659141344cd1fd0a4f28419497f9722a3daafe3b4186f6b6457e060405160405180910390a35050565b60006020835110156106525761064b8361088360201b60201c565b905061067a565b82610662836108eb60201b60201c565b60000190816106719190610e11565b5060ff60001b90505b92915050565b60007f8b73c3c69bb8fe3d512ecc4cf759cc79239f7b179b0ffacaa9a75d522b39400f60e0516101005146306040516020016106c0959493929190611125565b60405160208183030381529060405280519060200120905090565b60006106eb6108f560201b60201c565b6bffffffffffffffffffffffff16905080826bffffffffffffffffffffffff1611156107505781816040517f6f483d090000000000000000000000000000000000000000000000000000000081526004016107479291906111a9565b60405180910390fd5b600073ffffffffffffffffffffffffffffffffffffffff168373ffffffffffffffffffffffffffffffffffffffff16036107c25760006040517fb6d9900a0000000000000000000000000000000000000000000000000000000081526004016107b99190610ef2565b60405180910390fd5b60405180604001604052808473ffffffffffffffffffffffffffffffffffffffff168152602001836bffffffffffffffffffffffff16815250600760008201518160000160006101000a81548173ffffffffffffffffffffffffffffffffffffffff021916908373ffffffffffffffffffffffffffffffffffffffff16021790555060208201518160000160146101000a8154816bffffffffffffffffffffffff02191690836bffffffffffffffffffffffff160217905550905050505050565b600080829050601f815111156108d057826040517f305a27a90000000000000000000000000000000000000000000000000000000081526004016108c7919061120b565b60405180910390fd5b8051816108dc9061125d565b60001c1760001b915050919050565b6000819050919050565b6000612710905090565b6000604051905090565b600080fd5b600080fd5b600073ffffffffffffffffffffffffffffffffffffffff82169050919050565b600061093e82610913565b9050919050565b61094e81610933565b811461095957600080fd5b50565b60008151905061096b81610945565b92915050565b600080fd5b600080fd5b6000601f19601f8301169050919050565b7f4e487b7100000000000000000000000000000000000000000000000000000000600052604160045260246000fd5b6109c48261097b565b810181811067ffffffffffffffff821117156109e3576109e261098c565b5b80604052505050565b60006109f66108ff565b9050610a0282826109bb565b919050565b600067ffffffffffffffff821115610a2257610a2161098c565b5b610a2b8261097b565b9050602081019050919050565b60005b83811015610a56578082015181840152602081019050610a3b565b60008484015250505050565b6000610a75610a7084610a07565b6109ec565b905082815260208101848484011115610a9157610a90610976565b5b610a9c848285610a38565b509392505050565b600082601f830112610ab957610ab8610971565b5b8151610ac9848260208601610a62565b91505092915050565b60006bffffffffffffffffffffffff82169050919050565b610af381610ad2565b8114610afe57600080fd5b50565b600081519050610b1081610aea565b92915050565b600080600080600080600060e0888a031215610b3557610b34610909565b5b6000610b438a828b0161095c565b975050602088015167ffffffffffffffff811115610b6457610b6361090e565b5b610b708a828b01610aa4565b965050604088015167ffffffffffffffff811115610b9157610b9061090e565b5b610b9d8a828b01610aa4565b9550506060610bae8a828b01610b01565b9450506080610bbf8a828b01610b01565b93505060a0610bd08a828b0161095c565b92505060c0610be18a828b0161095c565b91505092959891949750929550565b600081519050919050565b7f4e487b7100000000000000000000000000000000000000000000000000000000600052602260045260246000fd5b60006002820490506001821680610c4257607f821691505b602082108103610c5557610c54610bfb565b5b50919050565b60008190508160005260206000209050919050565b60006020601f8301049050919050565b600082821b905092915050565b600060088302610cbd7fffffffffffffffffffffffffffffffffffffffffffffffffffffffffffffffff82610c80565b610cc78683610c80565b95508019841693508086168417925050509392505050565b6000819050919050565b6000819050919050565b6000610d0e610d09610d0484610cdf565b610ce9565b610cdf565b9050919050565b6000819050919050565b610d2883610cf3565b610d3c610d3482610d15565b848454610c8d565b825550505050565b600090565b610d51610d44565b610d5c818484610d1f565b505050565b5b81811015610d8057610d75600082610d49565b600181019050610d62565b5050565b601f821115610dc557610d9681610c5b565b610d9f84610c70565b81016020851015610dae578190505b610dc2610dba85610c70565b830182610d61565b50505b505050565b600082821c905092915050565b6000610de860001984600802610dca565b1980831691505092915050565b6000610e018383610dd7565b9150826002028217905092915050565b610e1a82610bf0565b67ffffffffffffffff811115610e3357610e3261098c565b5b610e3d8254610c2a565b610e48828285610d84565b600060209050601f831160018114610e7b5760008415610e69578287015190505b610e738582610df5565b865550610edb565b601f198416610e8986610c5b565b60005b82811015610eb157848901518255600182019150602085019450602081019050610e8c565b86831015610ece5784890151610eca601f891682610dd7565b8355505b6001600288020188555050505b505050505050565b610eec81610933565b82525050565b6000602082019050610f076000830184610ee3565b92915050565b600082825260208201905092915050565b7f526f79616c7479206665652063616e6e6f742065786365656420313025000000600082015250565b6000610f54601d83610f0d565b9150610f5f82610f1e565b602082019050919050565b60006020820190508181036000830152610f8381610f47565b9050919050565b7f506c6174666f726d206665652063616e6e6f7420657863656564203130250000600082015250565b6000610fc0601e83610f0d565b9150610fcb82610f8a565b602082019050919050565b60006020820190508181036000830152610fef81610fb3565b9050919050565b7f496e76616c696420706c6174666f726d2066656520726563697069656e740000600082015250565b600061102c601e83610f0d565b915061103782610ff6565b602082019050919050565b6000602082019050818103600083015261105b8161101f565b9050919050565b7f496e76616c6964206261636b656e64207369676e657200000000000000000000600082015250565b6000611098601683610f0d565b91506110a382611062565b602082019050919050565b600060208201905081810360008301526110c78161108b565b9050919050565b7f4e487b7100000000000000000000000000000000000000000000000000000000600052602160045260246000fd5b6000819050919050565b611110816110fd565b82525050565b61111f81610cdf565b82525050565b600060a08201905061113a6000830188611107565b6111476020830187611107565b6111546040830186611107565b6111616060830185611116565b61116e6080830184610ee3565b9695505050505050565b600061119361118e61118984610ad2565b610ce9565b610cdf565b9050919050565b6111a381611178565b82525050565b60006040820190506111be600083018561119a565b6111cb6020830184611116565b9392505050565b60006111dd82610bf0565b6111e78185610f0d565b93506111f7818560208601610a38565b6112008161097b565b840191505092915050565b6000602082019050818103600083015261122581846111d2565b905092915050565b600081519050919050565b6000819050602082019050919050565b600061125482516110fd565b80915050919050565b60006112688261122d565b8261127284611238565b905061127d81611248565b925060208210156112bd576112b87fffffffffffffffffffffffffffffffffffffffffffffffffffffffffffffffff83602003600802610c80565b831692505b5050919050565b60805160a05160c05160e051610100516101205161014051610160516101805161618c61133860003960005050600081816110dc0152611faa01526000612b7c01526000612b410152600061367e0152600061365d01526000612fe50152600061303b01526000613064015261618c6000f3fe60806040526004361061020f5760003560e01c8063715018a611610118578063cdd78cfc116100a0578063eb13554f1161006f578063eb13554f146107e7578063ed24911d14610812578063ee5f4f131461083d578063f2fde38b14610859578063f7330c2d146108825761020f565b8063cdd78cfc1461072b578063db5e006314610756578063decc4a6a14610781578063e985e9c5146107aa5761020f565b806395d89b41116100e757806395d89b4114610648578063a22cb46514610673578063a4836c111461069c578063b88d4fde146106c5578063c87b56dd146106ee5761020f565b8063715018a6146105ac5780637a989281146105c357806384b0196e146105ec5780638da5cb5b1461061d5761020f565b80632d0335ab1161019b57806342842e0e1161016a57806342842e0e146104a15780634f6ccce7146104ca5780636352211e1461050757806365d65e861461054457806370a082311461056f5761020f565b80632d0335ab146103cb5780632e37eef6146104085780632f745c591461044d5780633ccfd60b1461048a5761020f565b8063095ea7b3116101e2578063095ea7b3146102e457806318160ddd1461030d5780631ce97fd11461033857806323b872dd146103645780632a55205a1461038d5761020f565b806301ffc9a71461021457806306fdde0314610251578063072a13191461027c578063081812fc146102a7575b600080fd5b34801561022057600080fd5b5061023b60048036038101906102369190614700565b6108bf565b6040516102489190614748565b60405180910390f35b34801561025d57600080fd5b506102666108d1565b60405161027391906147f3565b60405180910390f35b34801561028857600080fd5b50610291610963565b60405161029e9190614748565b60405180910390f35b3480156102b357600080fd5b506102ce60048036038101906102c9919061484b565b610a5d565b6040516102db91906148b9565b60405180910390f35b3480156102f057600080fd5b5061030b60048036038101906103069190614900565b610a79565b005b34801561031957600080fd5b50610322610a8f565b60405161032f919061494f565b60405180910390f35b34801561034457600080fd5b5061034d610a9c565b60405161035b929190614ac0565b60405180910390f35b34801561037057600080fd5b5061038b60048036038101906103869190614aea565b610b50565b005b34801561039957600080fd5b506103b460048036038101906103af9190614b3d565b610c52565b6040516103c2929190614b7d565b60405180910390f35b3480156103d757600080fd5b506103f260048036038101906103ed9190614ba6565b610d82565b6040516103ff919061494f565b60405180910390f35b34801561041457600080fd5b5061042f600480360381019061042a919061484b565b610dcb565b60405161044499989796959493929190614bf1565b60405180910390f35b34801561045957600080fd5b50610474600480360381019061046f9190614900565b610e36565b604051610481919061494f565b60405180910390f35b34801561049657600080fd5b5061049f610edf565b005b3480156104ad57600080fd5b506104c860048036038101906104c39190614aea565b611032565b005b3480156104d657600080fd5b506104f160048036038101906104ec919061484b565b611052565b6040516104fe919061494f565b60405180910390f35b34801561051357600080fd5b5061052e6004803603810190610529919061484b565b6110c8565b60405161053b91906148b9565b60405180910390f35b34801561055057600080fd5b506105596110da565b60405161056691906148b9565b60405180910390f35b34801561057b57600080fd5b5061059660048036038101906105919190614ba6565b6110fe565b6040516105a3919061494f565b60405180910390f35b3480156105b857600080fd5b506105c16111b8565b005b3480156105cf57600080fd5b506105ea60048036038101906105e59190614ccf565b6111cc565b005b3480156105f857600080fd5b506106016115d2565b6040516106149796959493929190614e6f565b60405180910390f35b34801561062957600080fd5b5061063261167c565b60405161063f91906148b9565b60405180910390f35b34801561065457600080fd5b5061065d6116a6565b60405161066a91906147f3565b60405180910390f35b34801561067f57600080fd5b5061069a60048036038101906106959190614f1f565b611738565b005b3480156106a857600080fd5b506106c360048036038101906106be9190614f5f565b61174e565b005b3480156106d157600080fd5b506106ec60048036038101906106e7919061515e565b611af7565b005b3480156106fa57600080fd5b506107156004803603810190610710919061484b565b611b1c565b60405161072291906147f3565b60405180910390f35b34801561073757600080fd5b50610740611b2e565b60405161074d9190615208565b60405180910390f35b34801561076257600080fd5b5061076b611b4c565b604051610778919061494f565b60405180910390f35b34801561078d57600080fd5b506107a860048036038101906107a3919061524f565b611b59565b005b3480156107b657600080fd5b506107d160048036038101906107cc919061528f565b611cd2565b6040516107de9190614748565b60405180910390f35b3480156107f357600080fd5b506107fc611d66565b60405161080991906148b9565b60405180910390f35b34801561081e57600080fd5b50610827611d8c565b60405161083491906152cf565b60405180910390f35b610857600480360381019061085291906153f6565b611d9b565b005b34801561086557600080fd5b50610880600480360381019061087b9190614ba6565b612621565b005b34801561088e57600080fd5b506108a960048036038101906108a491906154d2565b6126a7565b6040516108b6919061494f565b60405180910390f35b60006108ca82612726565b9050919050565b6060600080546108e090615541565b80601f016020809104026020016040519081016040528092919081815260200182805461090c90615541565b80156109595780601f1061092e57610100808354040283529160200191610959565b820191906000526020600020905b81548152906001019060200180831161093c57829003601f168201915b5050505050905090565b60008042905060005b601180549050811015610a53576000600281111561098d5761098c61496a565b5b601182815481106109a1576109a0615572565b5b906000526020600020906009020160000160009054906101000a900460ff1660028111156109d2576109d161496a565b5b14158015610a055750601181815481106109ef576109ee615572565b5b9060005260206000209060090201600201548210155b8015610a36575060118181548110610a2057610a1f615572565b5b9060005260206000209060090201600301548211155b15610a4657600192505050610a5a565b808060010191505061096c565b5060009150505b90565b6000610a68826127a0565b50610a7282612828565b9050919050565b610a8b8282610a86612865565b61286d565b5050565b6000600c80549050905090565b6000610aa6614633565b610aae61287f565b80604051806101200160405290816000820160009054906101000a900460ff166002811115610ae057610adf61496a565b5b6002811115610af257610af161496a565b5b8152602001600182015481526020016002820154815260200160038201548152602001600482015481526020016005820154815260200160068201548152602001600782015481526020016008820154815250509050915091509091565b600073ffffffffffffffffffffffffffffffffffffffff168273ffffffffffffffffffffffffffffffffffffffff1603610bc25760006040517f64a0ae92000000000000000000000000000000000000000000000000000000008152600401610bb991906148b9565b60405180910390fd5b6000610bd68383610bd1612865565b6129cb565b90508373ffffffffffffffffffffffffffffffffffffffff168173ffffffffffffffffffffffffffffffffffffffff1614610c4c578382826040517f64283d7b000000000000000000000000000000000000000000000000000000008152600401610c43939291906155a1565b60405180910390fd5b50505050565b600080600060086000868152602001908152602001600020905060008160000160009054906101000a900473ffffffffffffffffffffffffffffffffffffffff16905060008260000160149054906101000a90046bffffffffffffffffffffffff169050600073ffffffffffffffffffffffffffffffffffffffff168273ffffffffffffffffffffffffffffffffffffffff1603610d3357600760000160009054906101000a900473ffffffffffffffffffffffffffffffffffffffff169150600760000160149054906101000a90046bffffffffffffffffffffffff1690505b6000610d3d6129e1565b6bffffffffffffffffffffffff16826bffffffffffffffffffffffff1688610d659190615607565b610d6f9190615678565b9050828195509550505050509250929050565b6000601060008373ffffffffffffffffffffffffffffffffffffffff1673ffffffffffffffffffffffffffffffffffffffff168152602001908152602001600020549050919050565b60118181548110610ddb57600080fd5b90600052602060002090600902016000915090508060000160009054906101000a900460ff16908060010154908060020154908060030154908060040154908060050154908060060154908060070154908060080154905089565b6000610e41836110fe565b8210610e865782826040517fa57d13dc000000000000000000000000000000000000000000000000000000008152600401610e7d929190614b7d565b60405180910390fd5b600a60008473ffffffffffffffffffffffffffffffffffffffff1673ffffffffffffffffffffffffffffffffffffffff168152602001908152602001600020600083815260200190815260200160002054905092915050565b610ee76129eb565b600047905060008111610f2f576040517f08c379a0000000000000000000000000000000000000000000000000000000008152600401610f26906156f5565b60405180910390fd5b6000610f3961167c565b73ffffffffffffffffffffffffffffffffffffffff1682604051610f5c90615746565b60006040518083038185875af1925050503d8060008114610f99576040519150601f19603f3d011682016040523d82523d6000602084013e610f9e565b606091505b5050905080610fd9576040517f90b8ec1800000000000000000000000000000000000000000000000000000000815260040160405180910390fd5b610fe161167c565b73ffffffffffffffffffffffffffffffffffffffff167f60188009b974c2fa66ee3b916d93f64d6534ea2204e0c466f9784ace689e8e4983604051611026919061494f565b60405180910390a25050565b61104d83838360405180602001604052806000815250611af7565b505050565b600061105c610a8f565b82106110a2576000826040517fa57d13dc000000000000000000000000000000000000000000000000000000008152600401611099929190614b7d565b60405180910390fd5b600c82815481106110b6576110b5615572565b5b90600052602060002001549050919050565b60006110d3826127a0565b9050919050565b7f000000000000000000000000000000000000000000000000000000000000000081565b60008073ffffffffffffffffffffffffffffffffffffffff168273ffffffffffffffffffffffffffffffffffffffff16036111715760006040517f89c62b6400000000000000000000000000000000000000000000000000000000815260040161116891906148b9565b60405180910390fd5b600360008373ffffffffffffffffffffffffffffffffffffffff1673ffffffffffffffffffffffffffffffffffffffff168152602001908152602001600020549050919050565b6111c06129eb565b6111ca6000612a72565b565b6111d46129eb565b848610611216576040517f08c379a000000000000000000000000000000000000000000000000000000000815260040161120d906157a7565b60405180910390fd5b6002808111156112295761122861496a565b5b88600281111561123c5761123b61496a565b5b031561130e5760008311611285576040517f08c379a000000000000000000000000000000000000000000000000000000000815260040161127c90615839565b60405180910390fd5b600082116112c8576040517f08c379a00000000000000000000000000000000000000000000000000000000081526004016112bf906158cb565b60405180910390fd5b6000801b810361130d576040517f08c379a00000000000000000000000000000000000000000000000000000000081526004016113049061595d565b60405180910390fd5b5b60005b60118054905081101561146f5760006011828154811061133457611333615572565b5b9060005260206000209060090201604051806101200160405290816000820160009054906101000a900460ff1660028111156113735761137261496a565b5b60028111156113855761138461496a565b5b8152602001600182015481526020016002820154815260200160038201548152602001600482015481526020016005820154815260200160068201548152602001600782015481526020016008820154815250509050600060028111156113ef576113ee61496a565b5b816000015160028111156114065761140561496a565b5b036114115750611462565b80606001518811158015611429575080604001518710155b15611460576040517f27fdfacf00000000000000000000000000000000000000000000000000000000815260040160405180910390fd5b505b8080600101915050611311565b5060006040518061012001604052808a60028111156114915761149061496a565b5b81526020018981526020018881526020018781526020018681526020018581526020018481526020016000815260200183815250905060006011805490509050601182908060018154018082558091505060019003906000526020600020906009020160009091909190915060008201518160000160006101000a81548160ff021916908360028111156115285761152761496a565b5b02179055506020820151816001015560408201518160020155606082015181600301556080820151816004015560a0820151816005015560c0820151816006015560e0820151816007015561010082015181600801555050807f0c1e64363396ef448152a5abccf24231295b872b93e1b6a53908ff34c8390a788b8b8b8b8b8b8b8b6040516115be98979695949392919061597d565b60405180910390a250505050505050505050565b6000606080600080600060606115e6612b38565b6115ee612b73565b46306000801b600067ffffffffffffffff81111561160f5761160e615033565b5b60405190808252806020026020018201604052801561163d5781602001602082028036833780820191505090505b507f0f00000000000000000000000000000000000000000000000000000000000000959493929190965096509650965096509650965090919293949596565b6000600960009054906101000a900473ffffffffffffffffffffffffffffffffffffffff16905090565b6060600180546116b590615541565b80601f01602080910402602001604051908101604052809291908181526020018280546116e190615541565b801561172e5780601f106117035761010080835404028352916020019161172e565b820191906000526020600020905b81548152906001019060200180831161171157829003601f168201915b5050505050905090565b61174a611743612865565b8383612bae565b5050565b6117566129eb565b6011805490508910611794576040517f3d911d5700000000000000000000000000000000000000000000000000000000815260040160405180910390fd5b8486106117cd576040517f514c71c200000000000000000000000000000000000000000000000000000000815260040160405180910390fd5b6002808111156117e0576117df61496a565b5b8860028111156117f3576117f261496a565b5b03156118aa5760008303611833576040517f514c71c200000000000000000000000000000000000000000000000000000000815260040160405180910390fd5b6000820361186d576040517f514c71c200000000000000000000000000000000000000000000000000000000815260040160405180910390fd5b6000801b81036118a9576040517f514c71c200000000000000000000000000000000000000000000000000000000815260040160405180910390fd5b5b60005b601180549050811015611a135789810315611a06576000601182815481106118d8576118d7615572565b5b9060005260206000209060090201604051806101200160405290816000820160009054906101000a900460ff1660028111156119175761191661496a565b5b60028111156119295761192861496a565b5b8152602001600182015481526020016002820154815260200160038201548152602001600482015481526020016005820154815260200160068201548152602001600782015481526020016008820154815250509050600060028111156119935761199261496a565b5b816000015160028111156119aa576119a961496a565b5b036119b55750611a06565b806060015188111580156119cd575080604001518710155b15611a04576040517f27fdfacf00000000000000000000000000000000000000000000000000000000815260040160405180910390fd5b505b80806001019150506118ad565b50600060118a81548110611a2a57611a29615572565b5b90600052602060002090600902019050888160000160006101000a81548160ff02191690836002811115611a6157611a6061496a565b5b0217905550878160010181905550868160020181905550858160030181905550848160040181905550838160050181905550828160060181905550818160080181905550897f83c587334c090f25e5a6aec0675c11d1310c8b758fe5a28308a6cf7ff9db4e538a8a8a8a8a8a8a8a604051611ae398979695949392919061597d565b60405180910390a250505050505050505050565b611b02848484610b50565b611b16611b0d612865565b85858585612d1d565b50505050565b6060611b2782612ece565b9050919050565b601360009054906101000a90046bffffffffffffffffffffffff1681565b6000601180549050905090565b611b616129eb565b6103e8826bffffffffffffffffffffffff161115611bb4576040517f08c379a0000000000000000000000000000000000000000000000000000000008152600401611bab90615a47565b60405180910390fd5b600073ffffffffffffffffffffffffffffffffffffffff168173ffffffffffffffffffffffffffffffffffffffff1603611c23576040517f08c379a0000000000000000000000000000000000000000000000000000000008152600401611c1a90615ab3565b60405180910390fd5b81601360006101000a8154816bffffffffffffffffffffffff02191690836bffffffffffffffffffffffff160217905550806013600c6101000a81548173ffffffffffffffffffffffffffffffffffffffff021916908373ffffffffffffffffffffffffffffffffffffffff1602179055507fbad9436335ddabdd6fc56ea571323eb7dcfc0e82e9dbaf786bbb2a2ad6de573c8282604051611cc6929190615ad3565b60405180910390a15050565b6000600560008473ffffffffffffffffffffffffffffffffffffffff1673ffffffffffffffffffffffffffffffffffffffff16815260200190815260200160002060008373ffffffffffffffffffffffffffffffffffffffff1673ffffffffffffffffffffffffffffffffffffffff16815260200190815260200160002060009054906101000a900460ff16905092915050565b6013600c9054906101000a900473ffffffffffffffffffffffffffffffffffffffff1681565b6000611d96612fe1565b905090565b600080611da661287f565b9150915060016002811115611dbe57611dbd61496a565b5b8160000160009054906101000a900460ff166002811115611de257611de161496a565b5b03611e9a57600033604051602001611dfa9190615b44565b604051602081830303815290604052805190602001209050611e62858580806020026020016040519081016040528093929190818152602001838360200280828437600081840152601f19601f82011690508083019250505050505050836008015483613098565b611e98576040517fb05e92fa00000000000000000000000000000000000000000000000000000000815260040160405180910390fd5b505b42871015611ed4576040517f0819bdcd00000000000000000000000000000000000000000000000000000000815260040160405180910390fd5b60007f280749f6b9ac9e1a05f80919c2e8f043f5e409a99355ae2c6e1ab8664f17cb8d338c8c8c604051611f09929190615b84565b6040518091039020856001015487601060003373ffffffffffffffffffffffffffffffffffffffff1673ffffffffffffffffffffffffffffffffffffffff1681526020019081526020016000206000815480929190611f6790615b9d565b919050558e604051602001611f83989796959493929190615be5565b6040516020818303038152906040528051906020012090506000611fa6826130af565b90507f000000000000000000000000000000000000000000000000000000000000000073ffffffffffffffffffffffffffffffffffffffff1661203689898080601f016020809104026020016040519081016040528093929190818152602001838380828437600081840152601f19601f82011690508083019250505050505050836130c990919063ffffffff16565b73ffffffffffffffffffffffffffffffffffffffff1614612083576040517f8baa579f00000000000000000000000000000000000000000000000000000000815260040160405180910390fd5b826001015434146120c0576040517f43a8b01000000000000000000000000000000000000000000000000000000000815260040160405180910390fd5b60008360040154141580156120dd57508260040154836007015410155b15612114576040517f3e3f7e0d00000000000000000000000000000000000000000000000000000000815260040160405180910390fd5b6002808111156121275761212661496a565b5b8360000160009054906101000a900460ff16600281111561214b5761214a61496a565b5b14801561215c575060008360050154145b1580156121f257508260050154601260003373ffffffffffffffffffffffffffffffffffffffff1673ffffffffffffffffffffffffffffffffffffffff16815260200190815260200160002060008560000160009054906101000a900460ff1660028111156121ce576121cd61496a565b5b60028111156121e0576121df61496a565b5b81526020019081526020016000205410155b15612229576040517f5107dbe700000000000000000000000000000000000000000000000000000000815260040160405180910390fd5b60028081111561223c5761223b61496a565b5b8360000160009054906101000a900460ff1660028111156122605761225f61496a565b5b148015612271575060008360060154145b15801561228657508260060154836007015410155b156122bd576040517f3e3f7e0d00000000000000000000000000000000000000000000000000000000815260040160405180910390fd5b6000612710601360009054906101000a90046bffffffffffffffffffffffff166bffffffffffffffffffffffff16346122f69190615607565b6123009190615678565b905060008111156123d25760006013600c9054906101000a900473ffffffffffffffffffffffffffffffffffffffff1673ffffffffffffffffffffffffffffffffffffffff168260405161235390615746565b60006040518083038185875af1925050503d8060008114612390576040519150601f19603f3d011682016040523d82523d6000602084013e612395565b606091505b50509050806123d0576040517f90b8ec1800000000000000000000000000000000000000000000000000000000815260040160405180910390fd5b505b600081346123e09190615c63565b905060008111156124975760006123f561167c565b73ffffffffffffffffffffffffffffffffffffffff168260405161241890615746565b60006040518083038185875af1925050503d8060008114612455576040519150601f19603f3d011682016040523d82523d6000602084013e61245a565b606091505b5050905080612495576040517f90b8ec1800000000000000000000000000000000000000000000000000000000815260040160405180910390fd5b505b8460070160008154809291906124ac90615b9d565b9190505550601260003373ffffffffffffffffffffffffffffffffffffffff1673ffffffffffffffffffffffffffffffffffffffff16815260200190815260200160002060008660000160009054906101000a900460ff1660028111156125165761251561496a565b5b60028111156125285761252761496a565b5b8152602001908152602001600020600081548092919061254790615b9d565b9190505550612556338f6130f5565b60008d8d905011156125b1576125b08e8e8e8080601f016020809104026020016040519081016040528093929190818152602001838380828437600081840152601f19601f82011690508083019250505050505050613113565b5b3373ffffffffffffffffffffffffffffffffffffffff168e7f99f38cf3feaad38e0a2e22ef51bdd4faba32b432520a951248d77057596a425a8760000160009054906101000a900460ff166040516126099190615c97565b60405180910390a35050505050505050505050505050565b6126296129eb565b600073ffffffffffffffffffffffffffffffffffffffff168173ffffffffffffffffffffffffffffffffffffffff160361269b5760006040517f1e4fbdf700000000000000000000000000000000000000000000000000000000815260040161269291906148b9565b60405180910390fd5b6126a481612a72565b50565b6000601260008473ffffffffffffffffffffffffffffffffffffffff1673ffffffffffffffffffffffffffffffffffffffff16815260200190815260200160002060008360028111156126fd576126fc61496a565b5b600281111561270f5761270e61496a565b5b815260200190815260200160002054905092915050565b60007f780e9d63000000000000000000000000000000000000000000000000000000007bffffffffffffffffffffffffffffffffffffffffffffffffffffffff1916827bffffffffffffffffffffffffffffffffffffffffffffffffffffffff1916148061279957506127988261316f565b5b9050919050565b6000806127ac836131e9565b9050600073ffffffffffffffffffffffffffffffffffffffff168173ffffffffffffffffffffffffffffffffffffffff160361281f57826040517f7e273289000000000000000000000000000000000000000000000000000000008152600401612816919061494f565b60405180910390fd5b80915050919050565b60006004600083815260200190815260200160002060009054906101000a900473ffffffffffffffffffffffffffffffffffffffff169050919050565b600033905090565b61287a8383836001613226565b505050565b600080600042905060005b60118054905081101561299457600060028111156128ab576128aa61496a565b5b601182815481106128bf576128be615572565b5b906000526020600020906009020160000160009054906101000a900460ff1660028111156128f0576128ef61496a565b5b1415801561292357506011818154811061290d5761290c615572565b5b9060005260206000209060090201600201548210155b801561295457506011818154811061293e5761293d615572565b5b9060005260206000209060090201600301548211155b1561298757806011828154811061296e5761296d615572565b5b90600052602060002090600902019350935050506129c7565b808060010191505061288a565b506040517fa9477e0900000000000000000000000000000000000000000000000000000000815260040160405180910390fd5b9091565b60006129d88484846133eb565b90509392505050565b6000612710905090565b6129f3612865565b73ffffffffffffffffffffffffffffffffffffffff16612a1161167c565b73ffffffffffffffffffffffffffffffffffffffff1614612a7057612a34612865565b6040517f118cdaa7000000000000000000000000000000000000000000000000000000008152600401612a6791906148b9565b60405180910390fd5b565b6000600960009054906101000a900473ffffffffffffffffffffffffffffffffffffffff16905081600960006101000a81548173ffffffffffffffffffffffffffffffffffffffff021916908373ffffffffffffffffffffffffffffffffffffffff1602179055508173ffffffffffffffffffffffffffffffffffffffff168173ffffffffffffffffffffffffffffffffffffffff167f8be0079c531659141344cd1fd0a4f28419497f9722a3daafe3b4186f6b6457e060405160405180910390a35050565b6060612b6e600e7f000000000000000000000000000000000000000000000000000000000000000061350890919063ffffffff16565b905090565b6060612ba9600f7f000000000000000000000000000000000000000000000000000000000000000061350890919063ffffffff16565b905090565b600073ffffffffffffffffffffffffffffffffffffffff168273ffffffffffffffffffffffffffffffffffffffff1603612c1f57816040517f5b08ba18000000000000000000000000000000000000000000000000000000008152600401612c1691906148b9565b60405180910390fd5b80600560008573ffffffffffffffffffffffffffffffffffffffff1673ffffffffffffffffffffffffffffffffffffffff16815260200190815260200160002060008473ffffffffffffffffffffffffffffffffffffffff1673ffffffffffffffffffffffffffffffffffffffff16815260200190815260200160002060006101000a81548160ff0219169083151502179055508173ffffffffffffffffffffffffffffffffffffffff168373ffffffffffffffffffffffffffffffffffffffff167f17307eab39ab6107e8899845ad3d59bd9653f200f220920489ca2b5937696c3183604051612d109190614748565b60405180910390a3505050565b60008373ffffffffffffffffffffffffffffffffffffffff163b1115612ec7578273ffffffffffffffffffffffffffffffffffffffff1663150b7a02868685856040518563ffffffff1660e01b8152600401612d7c9493929190615d07565b6020604051808303816000875af1925050508015612db857506040513d601f19601f82011682018060405250810190612db59190615d68565b60015b612e3c573d8060008114612de8576040519150601f19603f3d011682016040523d82523d6000602084013e612ded565b606091505b506000815103612e3457836040517f64a0ae92000000000000000000000000000000000000000000000000000000008152600401612e2b91906148b9565b60405180910390fd5b805181602001fd5b63150b7a0260e01b7bffffffffffffffffffffffffffffffffffffffffffffffffffffffff1916817bffffffffffffffffffffffffffffffffffffffffffffffffffffffff191614612ec557836040517f64a0ae92000000000000000000000000000000000000000000000000000000008152600401612ebc91906148b9565b60405180910390fd5b505b5050505050565b6060612ed9826127a0565b506000600660008481526020019081526020016000208054612efa90615541565b80601f0160208091040260200160405190810160405280929190818152602001828054612f2690615541565b8015612f735780601f10612f4857610100808354040283529160200191612f73565b820191906000526020600020905b815481529060010190602001808311612f5657829003601f168201915b505050505090506000612f846135b8565b90506000815103612f99578192505050612fdc565b600082511115612fce578082604051602001612fb6929190615dd1565b60405160208183030381529060405292505050612fdc565b612fd7846135cf565b925050505b919050565b60007f000000000000000000000000000000000000000000000000000000000000000073ffffffffffffffffffffffffffffffffffffffff163073ffffffffffffffffffffffffffffffffffffffff1614801561305d57507f000000000000000000000000000000000000000000000000000000000000000046145b1561308a577f00000000000000000000000000000000000000000000000000000000000000009050613095565b613092613638565b90505b90565b6000826130a585846136ce565b1490509392505050565b60006130c26130bc612fe1565b8361371e565b9050919050565b6000806000806130d9868661375f565b9250925092506130e982826137bb565b82935050505092915050565b61310f82826040518060200160405280600081525061391f565b5050565b806006600084815260200190815260200160002090816131339190615fa1565b507ff8e1a15aba9398e019f0b49df1a4fde98ee17ae345cb5f6b5e2c27f5033e8ce782604051613163919061494f565b60405180910390a15050565b60007f2a55205a000000000000000000000000000000000000000000000000000000007bffffffffffffffffffffffffffffffffffffffffffffffffffffffff1916827bffffffffffffffffffffffffffffffffffffffffffffffffffffffff191614806131e257506131e182613943565b5b9050919050565b60006002600083815260200190815260200160002060009054906101000a900473ffffffffffffffffffffffffffffffffffffffff169050919050565b808061325f5750600073ffffffffffffffffffffffffffffffffffffffff168273ffffffffffffffffffffffffffffffffffffffff1614155b1561339357600061326f846127a0565b9050600073ffffffffffffffffffffffffffffffffffffffff168373ffffffffffffffffffffffffffffffffffffffff16141580156132da57508273ffffffffffffffffffffffffffffffffffffffff168173ffffffffffffffffffffffffffffffffffffffff1614155b80156132ed57506132eb8184611cd2565b155b1561332f57826040517fa9fbf51f00000000000000000000000000000000000000000000000000000000815260040161332691906148b9565b60405180910390fd5b811561339157838573ffffffffffffffffffffffffffffffffffffffff168273ffffffffffffffffffffffffffffffffffffffff167f8c5be1e5ebec7d5bd14f71427d1e84f3dd0314c0f7b2291e5b200ac8c7c3b92560405160405180910390a45b505b836004600085815260200190815260200160002060006101000a81548173ffffffffffffffffffffffffffffffffffffffff021916908373ffffffffffffffffffffffffffffffffffffffff16021790555050505050565b6000806133f98585856139a4565b9050600073ffffffffffffffffffffffffffffffffffffffff168173ffffffffffffffffffffffffffffffffffffffff160361343d5761343884613bbe565b61347c565b8473ffffffffffffffffffffffffffffffffffffffff168173ffffffffffffffffffffffffffffffffffffffff161461347b5761347a8185613c07565b5b5b600073ffffffffffffffffffffffffffffffffffffffff168573ffffffffffffffffffffffffffffffffffffffff16036134be576134b984613cf2565b6134fd565b8473ffffffffffffffffffffffffffffffffffffffff168173ffffffffffffffffffffffffffffffffffffffff16146134fc576134fb8585613dc3565b5b5b809150509392505050565b606060ff60001b83146135255761351e83613e4e565b90506135b2565b81805461353190615541565b80601f016020809104026020016040519081016040528092919081815260200182805461355d90615541565b80156135aa5780601f1061357f576101008083540402835291602001916135aa565b820191906000526020600020905b81548152906001019060200180831161358d57829003601f168201915b505050505090505b92915050565b606060405180602001604052806000815250905090565b60606135da826127a0565b5060006135e56135b8565b905060008151116136055760405180602001604052806000815250613630565b8061360f84613ec2565b604051602001613620929190615dd1565b6040516020818303038152906040525b915050919050565b60007f8b73c3c69bb8fe3d512ecc4cf759cc79239f7b179b0ffacaa9a75d522b39400f7f00000000000000000000000000000000000000000000000000000000000000007f000000000000000000000000000000000000000000000000000000000000000046306040516020016136b3959493929190616073565b60405160208183030381529060405280519060200120905090565b60008082905060005b845181101561371357613704828683815181106136f7576136f6615572565b5b6020026020010151613f90565b915080806001019150506136d7565b508091505092915050565b60006040517f190100000000000000000000000000000000000000000000000000000000000081528360028201528260228201526042812091505092915050565b600080600060418451036137a45760008060006020870151925060408701519150606087015160001a905061379688828585613fbb565b9550955095505050506137b4565b60006002855160001b9250925092505b9250925092565b600060038111156137cf576137ce61496a565b5b8260038111156137e2576137e161496a565b5b031561391b57600160038111156137fc576137fb61496a565b5b82600381111561380f5761380e61496a565b5b03613846576040517ff645eedf00000000000000000000000000000000000000000000000000000000815260040160405180910390fd5b6002600381111561385a5761385961496a565b5b82600381111561386d5761386c61496a565b5b036138b2578060001c6040517ffce698f70000000000000000000000000000000000000000000000000000000081526004016138a9919061494f565b60405180910390fd5b6003808111156138c5576138c461496a565b5b8260038111156138d8576138d761496a565b5b0361391a57806040517fd78bce0c00000000000000000000000000000000000000000000000000000000815260040161391191906152cf565b60405180910390fd5b5b5050565b61392983836140af565b61393e613934612865565b6000858585612d1d565b505050565b6000634906490660e01b7bffffffffffffffffffffffffffffffffffffffffffffffffffffffff1916827bffffffffffffffffffffffffffffffffffffffffffffffffffffffff1916148061399d575061399c826141a8565b5b9050919050565b6000806139b0846131e9565b9050600073ffffffffffffffffffffffffffffffffffffffff168373ffffffffffffffffffffffffffffffffffffffff16146139f2576139f181848661428a565b5b600073ffffffffffffffffffffffffffffffffffffffff168173ffffffffffffffffffffffffffffffffffffffff1614613a8357613a34600085600080613226565b6001600360008373ffffffffffffffffffffffffffffffffffffffff1673ffffffffffffffffffffffffffffffffffffffff168152602001908152602001600020600082825403925050819055505b600073ffffffffffffffffffffffffffffffffffffffff168573ffffffffffffffffffffffffffffffffffffffff1614613b06576001600360008773ffffffffffffffffffffffffffffffffffffffff1673ffffffffffffffffffffffffffffffffffffffff168152602001908152602001600020600082825401925050819055505b846002600086815260200190815260200160002060006101000a81548173ffffffffffffffffffffffffffffffffffffffff021916908373ffffffffffffffffffffffffffffffffffffffff160217905550838573ffffffffffffffffffffffffffffffffffffffff168273ffffffffffffffffffffffffffffffffffffffff167fddf252ad1be2c89b69c2b068fc378daa952ba7f163c4a11628f55a4df523b3ef60405160405180910390a4809150509392505050565b600c80549050600d600083815260200190815260200160002081905550600c81908060018154018082558091505060019003906000526020600020016000909190919091505550565b6000613c12836110fe565b90506000600b60008481526020019081526020016000205490506000600a60008673ffffffffffffffffffffffffffffffffffffffff1673ffffffffffffffffffffffffffffffffffffffff1681526020019081526020016000209050828214613cbe576000816000858152602001908152602001600020549050808260008581526020019081526020016000208190555082600b600083815260200190815260200160002081905550505b600b600085815260200190815260200160002060009055806000848152602001908152602001600020600090555050505050565b60006001600c80549050613d069190615c63565b90506000600d60008481526020019081526020016000205490506000600c8381548110613d3657613d35615572565b5b9060005260206000200154905080600c8381548110613d5857613d57615572565b5b906000526020600020018190555081600d600083815260200190815260200160002081905550600d600085815260200190815260200160002060009055600c805480613da757613da66160c6565b5b6001900381819060005260206000200160009055905550505050565b60006001613dd0846110fe565b613dda9190615c63565b905081600a60008573ffffffffffffffffffffffffffffffffffffffff1673ffffffffffffffffffffffffffffffffffffffff16815260200190815260200160002060008381526020019081526020016000208190555080600b600084815260200190815260200160002081905550505050565b60606000613e5b8361434e565b90506000602067ffffffffffffffff811115613e7a57613e79615033565b5b6040519080825280601f01601f191660200182016040528015613eac5781602001600182028036833780820191505090505b5090508181528360208201528092505050919050565b606060006001613ed18461439e565b01905060008167ffffffffffffffff811115613ef057613eef615033565b5b6040519080825280601f01601f191660200182016040528015613f225781602001600182028036833780820191505090505b509050600082602001820190505b600115613f85578080600190039150507f3031323334353637383961626364656600000000000000000000000000000000600a86061a8153600a8581613f7957613f78615649565b5b04945060008503613f30575b819350505050919050565b6000818310613fa857613fa382846144f1565b613fb3565b613fb283836144f1565b5b905092915050565b60008060007f7fffffffffffffffffffffffffffffff5d576e7357a4501ddfe92f46681b20a08460001c1115613ffb5760006003859250925092506140a5565b6000600188888888604051600081526020016040526040516140209493929190616111565b6020604051602081039080840390855afa158015614042573d6000803e3d6000fd5b505050602060405103519050600073ffffffffffffffffffffffffffffffffffffffff168173ffffffffffffffffffffffffffffffffffffffff160361409657600060016000801b935093509350506140a5565b8060008060001b935093509350505b9450945094915050565b600073ffffffffffffffffffffffffffffffffffffffff168273ffffffffffffffffffffffffffffffffffffffff16036141215760006040517f64a0ae9200000000000000000000000000000000000000000000000000000000815260040161411891906148b9565b60405180910390fd5b600061412f838360006129cb565b9050600073ffffffffffffffffffffffffffffffffffffffff168173ffffffffffffffffffffffffffffffffffffffff16146141a35760006040517f73c6ac6e00000000000000000000000000000000000000000000000000000000815260040161419a91906148b9565b60405180910390fd5b505050565b60007f80ac58cd000000000000000000000000000000000000000000000000000000007bffffffffffffffffffffffffffffffffffffffffffffffffffffffff1916827bffffffffffffffffffffffffffffffffffffffffffffffffffffffff1916148061427357507f5b5e139f000000000000000000000000000000000000000000000000000000007bffffffffffffffffffffffffffffffffffffffffffffffffffffffff1916827bffffffffffffffffffffffffffffffffffffffffffffffffffffffff1916145b80614283575061428282614508565b5b9050919050565b614295838383614572565b61434957600073ffffffffffffffffffffffffffffffffffffffff168373ffffffffffffffffffffffffffffffffffffffff160361430a57806040517f7e273289000000000000000000000000000000000000000000000000000000008152600401614301919061494f565b60405180910390fd5b81816040517f177e802f000000000000000000000000000000000000000000000000000000008152600401614340929190614b7d565b60405180910390fd5b505050565b60008060ff8360001c169050601f811115614395576040517fb3512b0c00000000000000000000000000000000000000000000000000000000815260040160405180910390fd5b80915050919050565b600080600090507a184f03e93ff9f4daa797ed6e38ed64bf6a1f01000000000000000083106143fc577a184f03e93ff9f4daa797ed6e38ed64bf6a1f01000000000000000083816143f2576143f1615649565b5b0492506040810190505b6d04ee2d6d415b85acef81000000008310614439576d04ee2d6d415b85acef8100000000838161442f5761442e615649565b5b0492506020810190505b662386f26fc10000831061446857662386f26fc10000838161445e5761445d615649565b5b0492506010810190505b6305f5e1008310614491576305f5e100838161448757614486615649565b5b0492506008810190505b61271083106144b65761271083816144ac576144ab615649565b5b0492506004810190505b606483106144d957606483816144cf576144ce615649565b5b0492506002810190505b600a83106144e8576001810190505b80915050919050565b600082600052816020526040600020905092915050565b60007f01ffc9a7000000000000000000000000000000000000000000000000000000007bffffffffffffffffffffffffffffffffffffffffffffffffffffffff1916827bffffffffffffffffffffffffffffffffffffffffffffffffffffffff1916149050919050565b60008073ffffffffffffffffffffffffffffffffffffffff168373ffffffffffffffffffffffffffffffffffffffff161415801561462a57508273ffffffffffffffffffffffffffffffffffffffff168473ffffffffffffffffffffffffffffffffffffffff1614806145eb57506145ea8484611cd2565b5b8061462957508273ffffffffffffffffffffffffffffffffffffffff1661461183612828565b73ffffffffffffffffffffffffffffffffffffffff16145b5b90509392505050565b604051806101200160405280600060028111156146535761465261496a565b5b815260200160008152602001600081526020016000815260200160008152602001600081526020016000815260200160008152602001600080191681525090565b6000604051905090565b600080fd5b600080fd5b60007fffffffff0000000000000000000000000000000000000000000000000000000082169050919050565b6146dd816146a8565b81146146e857600080fd5b50565b6000813590506146fa816146d4565b92915050565b6000602082840312156147165761471561469e565b5b6000614724848285016146eb565b91505092915050565b60008115159050919050565b6147428161472d565b82525050565b600060208201905061475d6000830184614739565b92915050565b600081519050919050565b600082825260208201905092915050565b60005b8381101561479d578082015181840152602081019050614782565b60008484015250505050565b6000601f19601f8301169050919050565b60006147c582614763565b6147cf818561476e565b93506147df81856020860161477f565b6147e8816147a9565b840191505092915050565b6000602082019050818103600083015261480d81846147ba565b905092915050565b6000819050919050565b61482881614815565b811461483357600080fd5b50565b6000813590506148458161481f565b92915050565b6000602082840312156148615761486061469e565b5b600061486f84828501614836565b91505092915050565b600073ffffffffffffffffffffffffffffffffffffffff82169050919050565b60006148a382614878565b9050919050565b6148b381614898565b82525050565b60006020820190506148ce60008301846148aa565b92915050565b6148dd81614898565b81146148e857600080fd5b50565b6000813590506148fa816148d4565b92915050565b600080604083850312156149175761491661469e565b5b6000614925858286016148eb565b925050602061493685828601614836565b9150509250929050565b61494981614815565b82525050565b60006020820190506149646000830184614940565b92915050565b7f4e487b7100000000000000000000000000000000000000000000000000000000600052602160045260246000fd5b600381106149aa576149a961496a565b5b50565b60008190506149bb82614999565b919050565b60006149cb826149ad565b9050919050565b6149db816149c0565b82525050565b6149ea81614815565b82525050565b6000819050919050565b614a03816149f0565b82525050565b61012082016000820151614a2060008501826149d2565b506020820151614a3360208501826149e1565b506040820151614a4660408501826149e1565b506060820151614a5960608501826149e1565b506080820151614a6c60808501826149e1565b5060a0820151614a7f60a08501826149e1565b5060c0820151614a9260c08501826149e1565b5060e0820151614aa560e08501826149e1565b50610100820151614aba6101008501826149fa565b50505050565b600061014082019050614ad66000830185614940565b614ae36020830184614a09565b9392505050565b600080600060608486031215614b0357614b0261469e565b5b6000614b11868287016148eb565b9350506020614b22868287016148eb565b9250506040614b3386828701614836565b9150509250925092565b60008060408385031215614b5457614b5361469e565b5b6000614b6285828601614836565b9250506020614b7385828601614836565b9150509250929050565b6000604082019050614b9260008301856148aa565b614b9f6020830184614940565b9392505050565b600060208284031215614bbc57614bbb61469e565b5b6000614bca848285016148eb565b91505092915050565b614bdc816149c0565b82525050565b614beb816149f0565b82525050565b600061012082019050614c07600083018c614bd3565b614c14602083018b614940565b614c21604083018a614940565b614c2e6060830189614940565b614c3b6080830188614940565b614c4860a0830187614940565b614c5560c0830186614940565b614c6260e0830185614940565b614c70610100830184614be2565b9a9950505050505050505050565b60038110614c8b57600080fd5b50565b600081359050614c9d81614c7e565b92915050565b614cac816149f0565b8114614cb757600080fd5b50565b600081359050614cc981614ca3565b92915050565b600080600080600080600080610100898b031215614cf057614cef61469e565b5b6000614cfe8b828c01614c8e565b9850506020614d0f8b828c01614836565b9750506040614d208b828c01614836565b9650506060614d318b828c01614836565b9550506080614d428b828c01614836565b94505060a0614d538b828c01614836565b93505060c0614d648b828c01614836565b92505060e0614d758b828c01614cba565b9150509295985092959890939650565b60007fff0000000000000000000000000000000000000000000000000000000000000082169050919050565b614dba81614d85565b82525050565b600081519050919050565b600082825260208201905092915050565b6000819050602082019050919050565b6000614df883836149e1565b60208301905092915050565b6000602082019050919050565b6000614e1c82614dc0565b614e268185614dcb565b9350614e3183614ddc565b8060005b83811015614e62578151614e498882614dec565b9750614e5483614e04565b925050600181019050614e35565b5085935050505092915050565b600060e082019050614e84600083018a614db1565b8181036020830152614e9681896147ba565b90508181036040830152614eaa81886147ba565b9050614eb96060830187614940565b614ec660808301866148aa565b614ed360a0830185614be2565b81810360c0830152614ee58184614e11565b905098975050505050505050565b614efc8161472d565b8114614f0757600080fd5b50565b600081359050614f1981614ef3565b92915050565b60008060408385031215614f3657614f3561469e565b5b6000614f44858286016148eb565b9250506020614f5585828601614f0a565b9150509250929050565b60008060008060008060008060006101208a8c031215614f8257614f8161469e565b5b6000614f908c828d01614836565b9950506020614fa18c828d01614c8e565b9850506040614fb28c828d01614836565b9750506060614fc38c828d01614836565b9650506080614fd48c828d01614836565b95505060a0614fe58c828d01614836565b94505060c0614ff68c828d01614836565b93505060e06150078c828d01614836565b9250506101006150198c828d01614cba565b9150509295985092959850929598565b600080fd5b600080fd5b7f4e487b7100000000000000000000000000000000000000000000000000000000600052604160045260246000fd5b61506b826147a9565b810181811067ffffffffffffffff8211171561508a57615089615033565b5b80604052505050565b600061509d614694565b90506150a98282615062565b919050565b600067ffffffffffffffff8211156150c9576150c8615033565b5b6150d2826147a9565b9050602081019050919050565b82818337600083830152505050565b60006151016150fc846150ae565b615093565b90508281526020810184848401111561511d5761511c61502e565b5b6151288482856150df565b509392505050565b600082601f83011261514557615144615029565b5b81356151558482602086016150ee565b91505092915050565b600080600080608085870312156151785761517761469e565b5b6000615186878288016148eb565b9450506020615197878288016148eb565b93505060406151a887828801614836565b925050606085013567ffffffffffffffff8111156151c9576151c86146a3565b5b6151d587828801615130565b91505092959194509250565b60006bffffffffffffffffffffffff82169050919050565b615202816151e1565b82525050565b600060208201905061521d60008301846151f9565b92915050565b61522c816151e1565b811461523757600080fd5b50565b60008135905061524981615223565b92915050565b600080604083850312156152665761526561469e565b5b60006152748582860161523a565b9250506020615285858286016148eb565b9150509250929050565b600080604083850312156152a6576152a561469e565b5b60006152b4858286016148eb565b92505060206152c5858286016148eb565b9150509250929050565b60006020820190506152e46000830184614be2565b92915050565b600080fd5b600080fd5b60008083601f84011261530a57615309615029565b5b8235905067ffffffffffffffff811115615327576153266152ea565b5b602083019150836001820283011115615343576153426152ef565b5b9250929050565b60008083601f8401126153605761535f615029565b5b8235905067ffffffffffffffff81111561537d5761537c6152ea565b5b602083019150836001820283011115615399576153986152ef565b5b9250929050565b60008083601f8401126153b6576153b5615029565b5b8235905067ffffffffffffffff8111156153d3576153d26152ea565b5b6020830191508360208202830111156153ef576153ee6152ef565b5b9250929050565b60008060008060008060008060a0898b0312156154165761541561469e565b5b60006154248b828c01614836565b985050602089013567ffffffffffffffff811115615445576154446146a3565b5b6154518b828c016152f4565b975097505060406154648b828c01614836565b955050606089013567ffffffffffffffff811115615485576154846146a3565b5b6154918b828c0161534a565b9450945050608089013567ffffffffffffffff8111156154b4576154b36146a3565b5b6154c08b828c016153a0565b92509250509295985092959890939650565b600080604083850312156154e9576154e861469e565b5b60006154f7858286016148eb565b925050602061550885828601614c8e565b9150509250929050565b7f4e487b7100000000000000000000000000000000000000000000000000000000600052602260045260246000fd5b6000600282049050600182168061555957607f821691505b60208210810361556c5761556b615512565b5b50919050565b7f4e487b7100000000000000000000000000000000000000000000000000000000600052603260045260246000fd5b60006060820190506155b660008301866148aa565b6155c36020830185614940565b6155d060408301846148aa565b949350505050565b7f4e487b7100000000000000000000000000000000000000000000000000000000600052601160045260246000fd5b600061561282614815565b915061561d83614815565b925082820261562b81614815565b91508282048414831517615642576156416155d8565b5b5092915050565b7f4e487b7100000000000000000000000000000000000000000000000000000000600052601260045260246000fd5b600061568382614815565b915061568e83614815565b92508261569e5761569d615649565b5b828204905092915050565b7f4e6f2062616c616e636520746f20776974686472617700000000000000000000600082015250565b60006156df60168361476e565b91506156ea826156a9565b602082019050919050565b6000602082019050818103600083015261570e816156d2565b9050919050565b600081905092915050565b50565b6000615730600083615715565b915061573b82615720565b600082019050919050565b600061575182615723565b9150819050919050565b7f496e76616c69642074696d652072616e67650000000000000000000000000000600082015250565b600061579160128361476e565b915061579c8261575b565b602082019050919050565b600060208201905081810360008301526157c081615784565b9050919050565b7f496e76616c6964206d6178207065722077616c6c657420666f72206e6f6e2d7060008201527f75626c6963207068617365000000000000000000000000000000000000000000602082015250565b6000615823602b8361476e565b915061582e826157c7565b604082019050919050565b6000602082019050818103600083015261585281615816565b9050919050565b7f496e76616c6964206d6178206d696e742070657220706861736520666f72206e60008201527f6f6e2d7075626c69632070686173650000000000000000000000000000000000602082015250565b60006158b5602f8361476e565b91506158c082615859565b604082019050919050565b600060208201905081810360008301526158e4816158a8565b9050919050565b7f4d65726b6c6520726f6f7420726571756972656420666f722077686974656c6960008201527f7374207068617365000000000000000000000000000000000000000000000000602082015250565b600061594760288361476e565b9150615952826158eb565b604082019050919050565b600060208201905081810360008301526159768161593a565b9050919050565b600061010082019050615993600083018b614bd3565b6159a0602083018a614940565b6159ad6040830189614940565b6159ba6060830188614940565b6159c76080830187614940565b6159d460a0830186614940565b6159e160c0830185614940565b6159ee60e0830184614be2565b9998505050505050505050565b7f506c6174666f726d206665652063616e6e6f7420657863656564203130250000600082015250565b6000615a31601e8361476e565b9150615a3c826159fb565b602082019050919050565b60006020820190508181036000830152615a6081615a24565b9050919050565b7f496e76616c69642066656520726563697069656e740000000000000000000000600082015250565b6000615a9d60158361476e565b9150615aa882615a67565b602082019050919050565b60006020820190508181036000830152615acc81615a90565b9050919050565b6000604082019050615ae860008301856151f9565b615af560208301846148aa565b9392505050565b60008160601b9050919050565b6000615b1482615afc565b9050919050565b6000615b2682615b09565b9050919050565b615b3e615b3982614898565b615b1b565b82525050565b6000615b508284615b2d565b60148201915081905092915050565b6000615b6b8385615715565b9350615b788385846150df565b82840190509392505050565b6000615b91828486615b5f565b91508190509392505050565b6000615ba882614815565b91507fffffffffffffffffffffffffffffffffffffffffffffffffffffffffffffffff8203615bda57615bd96155d8565b5b600182019050919050565b600061010082019050615bfb600083018b614be2565b615c08602083018a6148aa565b615c156040830189614940565b615c226060830188614be2565b615c2f6080830187614940565b615c3c60a0830186614940565b615c4960c0830185614940565b615c5660e0830184614940565b9998505050505050505050565b6000615c6e82614815565b9150615c7983614815565b9250828203905081811115615c9157615c906155d8565b5b92915050565b6000602082019050615cac6000830184614bd3565b92915050565b600081519050919050565b600082825260208201905092915050565b6000615cd982615cb2565b615ce38185615cbd565b9350615cf381856020860161477f565b615cfc816147a9565b840191505092915050565b6000608082019050615d1c60008301876148aa565b615d2960208301866148aa565b615d366040830185614940565b8181036060830152615d488184615cce565b905095945050505050565b600081519050615d62816146d4565b92915050565b600060208284031215615d7e57615d7d61469e565b5b6000615d8c84828501615d53565b91505092915050565b600081905092915050565b6000615dab82614763565b615db58185615d95565b9350615dc581856020860161477f565b80840191505092915050565b6000615ddd8285615da0565b9150615de98284615da0565b91508190509392505050565b60008190508160005260206000209050919050565b60006020601f8301049050919050565b600082821b905092915050565b600060088302615e577fffffffffffffffffffffffffffffffffffffffffffffffffffffffffffffffff82615e1a565b615e618683615e1a565b95508019841693508086168417925050509392505050565b6000819050919050565b6000615e9e615e99615e9484614815565b615e79565b614815565b9050919050565b6000819050919050565b615eb883615e83565b615ecc615ec482615ea5565b848454615e27565b825550505050565b600090565b615ee1615ed4565b615eec818484615eaf565b505050565b5b81811015615f1057615f05600082615ed9565b600181019050615ef2565b5050565b601f821115615f5557615f2681615df5565b615f2f84615e0a565b81016020851015615f3e578190505b615f52615f4a85615e0a565b830182615ef1565b50505b505050565b600082821c905092915050565b6000615f7860001984600802615f5a565b1980831691505092915050565b6000615f918383615f67565b9150826002028217905092915050565b615faa82614763565b67ffffffffffffffff811115615fc357615fc2615033565b5b615fcd8254615541565b615fd8828285615f14565b600060209050601f83116001811461600b5760008415615ff9578287015190505b6160038582615f85565b86555061606b565b601f19841661601986615df5565b60005b828110156160415784890151825560018201915060208501945060208101905061601c565b8683101561605e578489015161605a601f891682615f67565b8355505b6001600288020188555050505b505050505050565b600060a0820190506160886000830188614be2565b6160956020830187614be2565b6160a26040830186614be2565b6160af6060830185614940565b6160bc60808301846148aa565b9695505050505050565b7f4e487b7100000000000000000000000000000000000000000000000000000000600052603160045260246000fd5b600060ff82169050919050565b61610b816160f5565b82525050565b60006080820190506161266000830187614be2565b6161336020830186616102565b6161406040830185614be2565b61614d6060830184614be2565b9594505050505056fea2646970667358221220f91b5777de253254a9cb4b1c39e0cbf63c54fbe3bfdc7f5251e9d815bd5c54bd64736f6c634300081b0033","opcodes":"PUSH2 0x1A0 PUSH1 0x40 MSTORE CALLVALUE DUP1 ISZERO PUSH2 0x11 JUMPI PUSH1 0x0 DUP1 REVERT JUMPDEST POP PUSH1 0x40 MLOAD PUSH2 0x74C4 CODESIZE SUB DUP1 PUSH2 0x74C4 DUP4 CODECOPY DUP2 DUP2 ADD PUSH1 0x40 MSTORE DUP2 ADD SWAP1 PUSH2 0x33 SWAP2 SWAP1 PUSH2 0xB16 JUMP JUMPDEST PUSH1 0x40 MLOAD DUP1 PUSH1 0x40 ADD PUSH1 0x40 MSTORE DUP1 PUSH1 0xA DUP2 MSTORE PUSH1 0x20 ADD PUSH32 0x556E69666965644E465400000000000000000000000000000000000000000000 DUP2 MSTORE POP PUSH1 0x40 MLOAD DUP1 PUSH1 0x40 ADD PUSH1 0x40 MSTORE DUP1 PUSH1 0x1 DUP2 MSTORE PUSH1 0x20 ADD PUSH32 0x3100000000000000000000000000000000000000000000000000000000000000 DUP2 MSTORE POP DUP9 DUP9 DUP9 DUP2 PUSH1 0x0 SWAP1 DUP2 PUSH2 0xB1 SWAP2 SWAP1 PUSH2 0xE11 JUMP JUMPDEST POP DUP1 PUSH1 0x1 SWAP1 DUP2 PUSH2 0xC1 SWAP2 SWAP1 PUSH2 0xE11 JUMP JUMPDEST POP POP POP PUSH1 0x0 PUSH20 0xFFFFFFFFFFFFFFFFFFFFFFFFFFFFFFFFFFFFFFFF AND DUP2 PUSH20 0xFFFFFFFFFFFFFFFFFFFFFFFFFFFFFFFFFFFFFFFF AND SUB PUSH2 0x136 JUMPI PUSH1 0x0 PUSH1 0x40 MLOAD PUSH32 0x1E4FBDF700000000000000000000000000000000000000000000000000000000 DUP2 MSTORE PUSH1 0x4 ADD PUSH2 0x12D SWAP2 SWAP1 PUSH2 0xEF2 JUMP JUMPDEST PUSH1 0x40 MLOAD DUP1 SWAP2 SUB SWAP1 REVERT JUMPDEST PUSH2 0x145 DUP2 PUSH2 0x56A PUSH1 0x20 SHL PUSH1 0x20 SHR JUMP JUMPDEST POP PUSH2 0x15A PUSH1 0xE DUP4 PUSH2 0x630 PUSH1 0x20 SHL SWAP1 SWAP2 SWAP1 PUSH1 0x20 SHR JUMP JUMPDEST PUSH2 0x120 DUP2 DUP2 MSTORE POP POP PUSH2 0x176 PUSH1 0xF DUP3 PUSH2 0x630 PUSH1 0x20 SHL SWAP1 SWAP2 SWAP1 PUSH1 0x20 SHR JUMP JUMPDEST PUSH2 0x140 DUP2 DUP2 MSTORE POP POP DUP2 DUP1 MLOAD SWAP1 PUSH1 0x20 ADD KECCAK256 PUSH1 0xE0 DUP2 DUP2 MSTORE POP POP DUP1 DUP1 MLOAD SWAP1 PUSH1 0x20 ADD KECCAK256 PUSH2 0x100 DUP2 DUP2 MSTORE POP POP CHAINID PUSH1 0xA0 DUP2 DUP2 MSTORE POP POP PUSH2 0x1B3 PUSH2 0x680 PUSH1 0x20 SHL PUSH1 0x20 SHR JUMP JUMPDEST PUSH1 0x80 DUP2 DUP2 MSTORE POP POP ADDRESS PUSH20 0xFFFFFFFFFFFFFFFFFFFFFFFFFFFFFFFFFFFFFFFF AND PUSH1 0xC0 DUP2 PUSH20 0xFFFFFFFFFFFFFFFFFFFFFFFFFFFFFFFFFFFFFFFF AND DUP2 MSTORE POP POP POP POP PUSH2 0x3E8 DUP5 PUSH12 0xFFFFFFFFFFFFFFFFFFFFFFFF AND GT ISZERO PUSH2 0x243 JUMPI PUSH1 0x40 MLOAD PUSH32 0x8C379A000000000000000000000000000000000000000000000000000000000 DUP2 MSTORE PUSH1 0x4 ADD PUSH2 0x23A SWAP1 PUSH2 0xF6A JUMP JUMPDEST PUSH1 0x40 MLOAD DUP1 SWAP2 SUB SWAP1 REVERT JUMPDEST PUSH2 0x3E8 DUP4 PUSH12 0xFFFFFFFFFFFFFFFFFFFFFFFF AND GT ISZERO PUSH2 0x296 JUMPI PUSH1 0x40 MLOAD PUSH32 0x8C379A000000000000000000000000000000000000000000000000000000000 DUP2 MSTORE PUSH1 0x4 ADD PUSH2 0x28D SWAP1 PUSH2 0xFD6 JUMP JUMPDEST PUSH1 0x40 MLOAD DUP1 SWAP2 SUB SWAP1 REVERT JUMPDEST PUSH1 0x0 PUSH20 0xFFFFFFFFFFFFFFFFFFFFFFFFFFFFFFFFFFFFFFFF AND DUP3 PUSH20 0xFFFFFFFFFFFFFFFFFFFFFFFFFFFFFFFFFFFFFFFF AND SUB PUSH2 0x305 JUMPI PUSH1 0x40 MLOAD PUSH32 0x8C379A000000000000000000000000000000000000000000000000000000000 DUP2 MSTORE PUSH1 0x4 ADD PUSH2 0x2FC SWAP1 PUSH2 0x1042 JUMP JUMPDEST PUSH1 0x40 MLOAD DUP1 SWAP2 SUB SWAP1 REVERT JUMPDEST PUSH1 0x0 PUSH20 0xFFFFFFFFFFFFFFFFFFFFFFFFFFFFFFFFFFFFFFFF AND DUP2 PUSH20 0xFFFFFFFFFFFFFFFFFFFFFFFFFFFFFFFFFFFFFFFF AND SUB PUSH2 0x374 JUMPI PUSH1 0x40 MLOAD PUSH32 0x8C379A000000000000000000000000000000000000000000000000000000000 DUP2 MSTORE PUSH1 0x4 ADD PUSH2 0x36B SWAP1 PUSH2 0x10AE JUMP JUMPDEST PUSH1 0x40 MLOAD DUP1 SWAP2 SUB SWAP1 REVERT JUMPDEST DUP1 PUSH20 0xFFFFFFFFFFFFFFFFFFFFFFFFFFFFFFFFFFFFFFFF AND PUSH2 0x160 DUP2 PUSH20 0xFFFFFFFFFFFFFFFFFFFFFFFFFFFFFFFFFFFFFFFF AND DUP2 MSTORE POP POP DUP4 PUSH12 0xFFFFFFFFFFFFFFFFFFFFFFFF AND PUSH2 0x180 DUP2 PUSH12 0xFFFFFFFFFFFFFFFFFFFFFFFF AND DUP2 MSTORE POP POP DUP3 PUSH1 0x13 PUSH1 0x0 PUSH2 0x100 EXP DUP2 SLOAD DUP2 PUSH12 0xFFFFFFFFFFFFFFFFFFFFFFFF MUL NOT AND SWAP1 DUP4 PUSH12 0xFFFFFFFFFFFFFFFFFFFFFFFF AND MUL OR SWAP1 SSTORE POP DUP2 PUSH1 0x13 PUSH1 0xC PUSH2 0x100 EXP DUP2 SLOAD DUP2 PUSH20 0xFFFFFFFFFFFFFFFFFFFFFFFFFFFFFFFFFFFFFFFF MUL NOT AND SWAP1 DUP4 PUSH20 0xFFFFFFFFFFFFFFFFFFFFFFFFFFFFFFFFFFFFFFFF AND MUL OR SWAP1 SSTORE POP PUSH2 0x453 DUP8 PUSH2 0x180 MLOAD PUSH2 0x6DB PUSH1 0x20 SHL PUSH1 0x20 SHR JUMP JUMPDEST PUSH1 0x11 PUSH1 0x40 MLOAD DUP1 PUSH2 0x120 ADD PUSH1 0x40 MSTORE DUP1 PUSH1 0x0 PUSH1 0x2 DUP2 GT ISZERO PUSH2 0x475 JUMPI PUSH2 0x474 PUSH2 0x10CE JUMP JUMPDEST JUMPDEST DUP2 MSTORE PUSH1 0x20 ADD PUSH1 0x0 DUP2 MSTORE PUSH1 0x20 ADD PUSH1 0x0 DUP2 MSTORE PUSH1 0x20 ADD PUSH1 0x0 DUP2 MSTORE PUSH1 0x20 ADD PUSH1 0x0 DUP2 MSTORE PUSH1 0x20 ADD PUSH1 0x0 DUP2 MSTORE PUSH1 0x20 ADD PUSH1 0x0 DUP2 MSTORE PUSH1 0x20 ADD PUSH1 0x0 DUP2 MSTORE PUSH1 0x20 ADD PUSH1 0x0 DUP1 SHL DUP2 MSTORE POP SWAP1 DUP1 PUSH1 0x1 DUP2 SLOAD ADD DUP1 DUP3 SSTORE DUP1 SWAP2 POP POP PUSH1 0x1 SWAP1 SUB SWAP1 PUSH1 0x0 MSTORE PUSH1 0x20 PUSH1 0x0 KECCAK256 SWAP1 PUSH1 0x9 MUL ADD PUSH1 0x0 SWAP1 SWAP2 SWAP1 SWAP2 SWAP1 SWAP2 POP PUSH1 0x0 DUP3 ADD MLOAD DUP2 PUSH1 0x0 ADD PUSH1 0x0 PUSH2 0x100 EXP DUP2 SLOAD DUP2 PUSH1 0xFF MUL NOT AND SWAP1 DUP4 PUSH1 0x2 DUP2 GT ISZERO PUSH2 0x506 JUMPI PUSH2 0x505 PUSH2 0x10CE JUMP JUMPDEST JUMPDEST MUL OR SWAP1 SSTORE POP PUSH1 0x20 DUP3 ADD MLOAD DUP2 PUSH1 0x1 ADD SSTORE PUSH1 0x40 DUP3 ADD MLOAD DUP2 PUSH1 0x2 ADD SSTORE PUSH1 0x60 DUP3 ADD MLOAD DUP2 PUSH1 0x3 ADD SSTORE PUSH1 0x80 DUP3 ADD MLOAD DUP2 PUSH1 0x4 ADD SSTORE PUSH1 0xA0 DUP3 ADD MLOAD DUP2 PUSH1 0x5 ADD SSTORE PUSH1 0xC0 DUP3 ADD MLOAD DUP2 PUSH1 0x6 ADD SSTORE PUSH1 0xE0 DUP3 ADD MLOAD DUP2 PUSH1 0x7 ADD SSTORE PUSH2 0x100 DUP3 ADD MLOAD DUP2 PUSH1 0x8 ADD SSTORE POP POP POP POP POP POP POP POP POP PUSH2 0x12C4 JUMP JUMPDEST PUSH1 0x0 PUSH1 0x9 PUSH1 0x0 SWAP1 SLOAD SWAP1 PUSH2 0x100 EXP SWAP1 DIV PUSH20 0xFFFFFFFFFFFFFFFFFFFFFFFFFFFFFFFFFFFFFFFF AND SWAP1 POP DUP2 PUSH1 0x9 PUSH1 0x0 PUSH2 0x100 EXP DUP2 SLOAD DUP2 PUSH20 0xFFFFFFFFFFFFFFFFFFFFFFFFFFFFFFFFFFFFFFFF MUL NOT AND SWAP1 DUP4 PUSH20 0xFFFFFFFFFFFFFFFFFFFFFFFFFFFFFFFFFFFFFFFF AND MUL OR SWAP1 SSTORE POP DUP2 PUSH20 0xFFFFFFFFFFFFFFFFFFFFFFFFFFFFFFFFFFFFFFFF AND DUP2 PUSH20 0xFFFFFFFFFFFFFFFFFFFFFFFFFFFFFFFFFFFFFFFF AND PUSH32 0x8BE0079C531659141344CD1FD0A4F28419497F9722A3DAAFE3B4186F6B6457E0 PUSH1 0x40 MLOAD PUSH1 0x40 MLOAD DUP1 SWAP2 SUB SWAP1 LOG3 POP POP JUMP JUMPDEST PUSH1 0x0 PUSH1 0x20 DUP4 MLOAD LT ISZERO PUSH2 0x652 JUMPI PUSH2 0x64B DUP4 PUSH2 0x883 PUSH1 0x20 SHL PUSH1 0x20 SHR JUMP JUMPDEST SWAP1 POP PUSH2 0x67A JUMP JUMPDEST DUP3 PUSH2 0x662 DUP4 PUSH2 0x8EB PUSH1 0x20 SHL PUSH1 0x20 SHR JUMP JUMPDEST PUSH1 0x0 ADD SWAP1 DUP2 PUSH2 0x671 SWAP2 SWAP1 PUSH2 0xE11 JUMP JUMPDEST POP PUSH1 0xFF PUSH1 0x0 SHL SWAP1 POP JUMPDEST SWAP3 SWAP2 POP POP JUMP JUMPDEST PUSH1 0x0 PUSH32 0x8B73C3C69BB8FE3D512ECC4CF759CC79239F7B179B0FFACAA9A75D522B39400F PUSH1 0xE0 MLOAD PUSH2 0x100 MLOAD CHAINID ADDRESS PUSH1 0x40 MLOAD PUSH1 0x20 ADD PUSH2 0x6C0 SWAP6 SWAP5 SWAP4 SWAP3 SWAP2 SWAP1 PUSH2 0x1125 JUMP JUMPDEST PUSH1 0x40 MLOAD PUSH1 0x20 DUP2 DUP4 SUB SUB DUP2 MSTORE SWAP1 PUSH1 0x40 MSTORE DUP1 MLOAD SWAP1 PUSH1 0x20 ADD KECCAK256 SWAP1 POP SWAP1 JUMP JUMPDEST PUSH1 0x0 PUSH2 0x6EB PUSH2 0x8F5 PUSH1 0x20 SHL PUSH1 0x20 SHR JUMP JUMPDEST PUSH12 0xFFFFFFFFFFFFFFFFFFFFFFFF AND SWAP1 POP DUP1 DUP3 PUSH12 0xFFFFFFFFFFFFFFFFFFFFFFFF AND GT ISZERO PUSH2 0x750 JUMPI DUP2 DUP2 PUSH1 0x40 MLOAD PUSH32 0x6F483D0900000000000000000000000000000000000000000000000000000000 DUP2 MSTORE PUSH1 0x4 ADD PUSH2 0x747 SWAP3 SWAP2 SWAP1 PUSH2 0x11A9 JUMP JUMPDEST PUSH1 0x40 MLOAD DUP1 SWAP2 SUB SWAP1 REVERT JUMPDEST PUSH1 0x0 PUSH20 0xFFFFFFFFFFFFFFFFFFFFFFFFFFFFFFFFFFFFFFFF AND DUP4 PUSH20 0xFFFFFFFFFFFFFFFFFFFFFFFFFFFFFFFFFFFFFFFF AND SUB PUSH2 0x7C2 JUMPI PUSH1 0x0 PUSH1 0x40 MLOAD PUSH32 0xB6D9900A00000000000000000000000000000000000000000000000000000000 DUP2 MSTORE PUSH1 0x4 ADD PUSH2 0x7B9 SWAP2 SWAP1 PUSH2 0xEF2 JUMP JUMPDEST PUSH1 0x40 MLOAD DUP1 SWAP2 SUB SWAP1 REVERT JUMPDEST PUSH1 0x40 MLOAD DUP1 PUSH1 0x40 ADD PUSH1 0x40 MSTORE DUP1 DUP5 PUSH20 0xFFFFFFFFFFFFFFFFFFFFFFFFFFFFFFFFFFFFFFFF AND DUP2 MSTORE PUSH1 0x20 ADD DUP4 PUSH12 0xFFFFFFFFFFFFFFFFFFFFFFFF AND DUP2 MSTORE POP PUSH1 0x7 PUSH1 0x0 DUP3 ADD MLOAD DUP2 PUSH1 0x0 ADD PUSH1 0x0 PUSH2 0x100 EXP DUP2 SLOAD DUP2 PUSH20 0xFFFFFFFFFFFFFFFFFFFFFFFFFFFFFFFFFFFFFFFF MUL NOT AND SWAP1 DUP4 PUSH20 0xFFFFFFFFFFFFFFFFFFFFFFFFFFFFFFFFFFFFFFFF AND MUL OR SWAP1 SSTORE POP PUSH1 0x20 DUP3 ADD MLOAD DUP2 PUSH1 0x0 ADD PUSH1 0x14 PUSH2 0x100 EXP DUP2 SLOAD DUP2 PUSH12 0xFFFFFFFFFFFFFFFFFFFFFFFF MUL NOT AND SWAP1 DUP4 PUSH12 0xFFFFFFFFFFFFFFFFFFFFFFFF AND MUL OR SWAP1 SSTORE POP SWAP1 POP POP POP POP POP JUMP JUMPDEST PUSH1 0x0 DUP1 DUP3 SWAP1 POP PUSH1 0x1F DUP2 MLOAD GT ISZERO PUSH2 0x8D0 JUMPI DUP3 PUSH1 0x40 MLOAD PUSH32 0x305A27A900000000000000000000000000000000000000000000000000000000 DUP2 MSTORE PUSH1 0x4 ADD PUSH2 0x8C7 SWAP2 SWAP1 PUSH2 0x120B JUMP JUMPDEST PUSH1 0x40 MLOAD DUP1 SWAP2 SUB SWAP1 REVERT JUMPDEST DUP1 MLOAD DUP2 PUSH2 0x8DC SWAP1 PUSH2 0x125D JUMP JUMPDEST PUSH1 0x0 SHR OR PUSH1 0x0 SHL SWAP2 POP POP SWAP2 SWAP1 POP JUMP JUMPDEST PUSH1 0x0 DUP2 SWAP1 POP SWAP2 SWAP1 POP JUMP JUMPDEST PUSH1 0x0 PUSH2 0x2710 SWAP1 POP SWAP1 JUMP JUMPDEST PUSH1 0x0 PUSH1 0x40 MLOAD SWAP1 POP SWAP1 JUMP JUMPDEST PUSH1 0x0 DUP1 REVERT JUMPDEST PUSH1 0x0 DUP1 REVERT JUMPDEST PUSH1 0x0 PUSH20 0xFFFFFFFFFFFFFFFFFFFFFFFFFFFFFFFFFFFFFFFF DUP3 AND SWAP1 POP SWAP2 SWAP1 POP JUMP JUMPDEST PUSH1 0x0 PUSH2 0x93E DUP3 PUSH2 0x913 JUMP JUMPDEST SWAP1 POP SWAP2 SWAP1 POP JUMP JUMPDEST PUSH2 0x94E DUP2 PUSH2 0x933 JUMP JUMPDEST DUP2 EQ PUSH2 0x959 JUMPI PUSH1 0x0 DUP1 REVERT JUMPDEST POP JUMP JUMPDEST PUSH1 0x0 DUP2 MLOAD SWAP1 POP PUSH2 0x96B DUP2 PUSH2 0x945 JUMP JUMPDEST SWAP3 SWAP2 POP POP JUMP JUMPDEST PUSH1 0x0 DUP1 REVERT JUMPDEST PUSH1 0x0 DUP1 REVERT JUMPDEST PUSH1 0x0 PUSH1 0x1F NOT PUSH1 0x1F DUP4 ADD AND SWAP1 POP SWAP2 SWAP1 POP JUMP JUMPDEST PUSH32 0x4E487B7100000000000000000000000000000000000000000000000000000000 PUSH1 0x0 MSTORE PUSH1 0x41 PUSH1 0x4 MSTORE PUSH1 0x24 PUSH1 0x0 REVERT JUMPDEST PUSH2 0x9C4 DUP3 PUSH2 0x97B JUMP JUMPDEST DUP2 ADD DUP2 DUP2 LT PUSH8 0xFFFFFFFFFFFFFFFF DUP3 GT OR ISZERO PUSH2 0x9E3 JUMPI PUSH2 0x9E2 PUSH2 0x98C JUMP JUMPDEST JUMPDEST DUP1 PUSH1 0x40 MSTORE POP POP POP JUMP JUMPDEST PUSH1 0x0 PUSH2 0x9F6 PUSH2 0x8FF JUMP JUMPDEST SWAP1 POP PUSH2 0xA02 DUP3 DUP3 PUSH2 0x9BB JUMP JUMPDEST SWAP2 SWAP1 POP JUMP JUMPDEST PUSH1 0x0 PUSH8 0xFFFFFFFFFFFFFFFF DUP3 GT ISZERO PUSH2 0xA22 JUMPI PUSH2 0xA21 PUSH2 0x98C JUMP JUMPDEST JUMPDEST PUSH2 0xA2B DUP3 PUSH2 0x97B JUMP JUMPDEST SWAP1 POP PUSH1 0x20 DUP2 ADD SWAP1 POP SWAP2 SWAP1 POP JUMP JUMPDEST PUSH1 0x0 JUMPDEST DUP4 DUP2 LT ISZERO PUSH2 0xA56 JUMPI DUP1 DUP3 ADD MLOAD DUP2 DUP5 ADD MSTORE PUSH1 0x20 DUP2 ADD SWAP1 POP PUSH2 0xA3B JUMP JUMPDEST PUSH1 0x0 DUP5 DUP5 ADD MSTORE POP POP POP POP JUMP JUMPDEST PUSH1 0x0 PUSH2 0xA75 PUSH2 0xA70 DUP5 PUSH2 0xA07 JUMP JUMPDEST PUSH2 0x9EC JUMP JUMPDEST SWAP1 POP DUP3 DUP2 MSTORE PUSH1 0x20 DUP2 ADD DUP5 DUP5 DUP5 ADD GT ISZERO PUSH2 0xA91 JUMPI PUSH2 0xA90 PUSH2 0x976 JUMP JUMPDEST JUMPDEST PUSH2 0xA9C DUP5 DUP3 DUP6 PUSH2 0xA38 JUMP JUMPDEST POP SWAP4 SWAP3 POP POP POP JUMP JUMPDEST PUSH1 0x0 DUP3 PUSH1 0x1F DUP4 ADD SLT PUSH2 0xAB9 JUMPI PUSH2 0xAB8 PUSH2 0x971 JUMP JUMPDEST JUMPDEST DUP2 MLOAD PUSH2 0xAC9 DUP5 DUP3 PUSH1 0x20 DUP7 ADD PUSH2 0xA62 JUMP JUMPDEST SWAP2 POP POP SWAP3 SWAP2 POP POP JUMP JUMPDEST PUSH1 0x0 PUSH12 0xFFFFFFFFFFFFFFFFFFFFFFFF DUP3 AND SWAP1 POP SWAP2 SWAP1 POP JUMP JUMPDEST PUSH2 0xAF3 DUP2 PUSH2 0xAD2 JUMP JUMPDEST DUP2 EQ PUSH2 0xAFE JUMPI PUSH1 0x0 DUP1 REVERT JUMPDEST POP JUMP JUMPDEST PUSH1 0x0 DUP2 MLOAD SWAP1 POP PUSH2 0xB10 DUP2 PUSH2 0xAEA JUMP JUMPDEST SWAP3 SWAP2 POP POP JUMP JUMPDEST PUSH1 0x0 DUP1 PUSH1 0x0 DUP1 PUSH1 0x0 DUP1 PUSH1 0x0 PUSH1 0xE0 DUP9 DUP11 SUB SLT ISZERO PUSH2 0xB35 JUMPI PUSH2 0xB34 PUSH2 0x909 JUMP JUMPDEST JUMPDEST PUSH1 0x0 PUSH2 0xB43 DUP11 DUP3 DUP12 ADD PUSH2 0x95C JUMP JUMPDEST SWAP8 POP POP PUSH1 0x20 DUP9 ADD MLOAD PUSH8 0xFFFFFFFFFFFFFFFF DUP2 GT ISZERO PUSH2 0xB64 JUMPI PUSH2 0xB63 PUSH2 0x90E JUMP JUMPDEST JUMPDEST PUSH2 0xB70 DUP11 DUP3 DUP12 ADD PUSH2 0xAA4 JUMP JUMPDEST SWAP7 POP POP PUSH1 0x40 DUP9 ADD MLOAD PUSH8 0xFFFFFFFFFFFFFFFF DUP2 GT ISZERO PUSH2 0xB91 JUMPI PUSH2 0xB90 PUSH2 0x90E JUMP JUMPDEST JUMPDEST PUSH2 0xB9D DUP11 DUP3 DUP12 ADD PUSH2 0xAA4 JUMP JUMPDEST SWAP6 POP POP PUSH1 0x60 PUSH2 0xBAE DUP11 DUP3 DUP12 ADD PUSH2 0xB01 JUMP JUMPDEST SWAP5 POP POP PUSH1 0x80 PUSH2 0xBBF DUP11 DUP3 DUP12 ADD PUSH2 0xB01 JUMP JUMPDEST SWAP4 POP POP PUSH1 0xA0 PUSH2 0xBD0 DUP11 DUP3 DUP12 ADD PUSH2 0x95C JUMP JUMPDEST SWAP3 POP POP PUSH1 0xC0 PUSH2 0xBE1 DUP11 DUP3 DUP12 ADD PUSH2 0x95C JUMP JUMPDEST SWAP2 POP POP SWAP3 SWAP6 SWAP9 SWAP2 SWAP5 SWAP8 POP SWAP3 SWAP6 POP JUMP JUMPDEST PUSH1 0x0 DUP2 MLOAD SWAP1 POP SWAP2 SWAP1 POP JUMP JUMPDEST PUSH32 0x4E487B7100000000000000000000000000000000000000000000000000000000 PUSH1 0x0 MSTORE PUSH1 0x22 PUSH1 0x4 MSTORE PUSH1 0x24 PUSH1 0x0 REVERT JUMPDEST PUSH1 0x0 PUSH1 0x2 DUP3 DIV SWAP1 POP PUSH1 0x1 DUP3 AND DUP1 PUSH2 0xC42 JUMPI PUSH1 0x7F DUP3 AND SWAP2 POP JUMPDEST PUSH1 0x20 DUP3 LT DUP2 SUB PUSH2 0xC55 JUMPI PUSH2 0xC54 PUSH2 0xBFB JUMP JUMPDEST JUMPDEST POP SWAP2 SWAP1 POP JUMP JUMPDEST PUSH1 0x0 DUP2 SWAP1 POP DUP2 PUSH1 0x0 MSTORE PUSH1 0x20 PUSH1 0x0 KECCAK256 SWAP1 POP SWAP2 SWAP1 POP JUMP JUMPDEST PUSH1 0x0 PUSH1 0x20 PUSH1 0x1F DUP4 ADD DIV SWAP1 POP SWAP2 SWAP1 POP JUMP JUMPDEST PUSH1 0x0 DUP3 DUP3 SHL SWAP1 POP SWAP3 SWAP2 POP POP JUMP JUMPDEST PUSH1 0x0 PUSH1 0x8 DUP4 MUL PUSH2 0xCBD PUSH32 0xFFFFFFFFFFFFFFFFFFFFFFFFFFFFFFFFFFFFFFFFFFFFFFFFFFFFFFFFFFFFFFFF DUP3 PUSH2 0xC80 JUMP JUMPDEST PUSH2 0xCC7 DUP7 DUP4 PUSH2 0xC80 JUMP JUMPDEST SWAP6 POP DUP1 NOT DUP5 AND SWAP4 POP DUP1 DUP7 AND DUP5 OR SWAP3 POP POP POP SWAP4 SWAP3 POP POP POP JUMP JUMPDEST PUSH1 0x0 DUP2 SWAP1 POP SWAP2 SWAP1 POP JUMP JUMPDEST PUSH1 0x0 DUP2 SWAP1 POP SWAP2 SWAP1 POP JUMP JUMPDEST PUSH1 0x0 PUSH2 0xD0E PUSH2 0xD09 PUSH2 0xD04 DUP5 PUSH2 0xCDF JUMP JUMPDEST PUSH2 0xCE9 JUMP JUMPDEST PUSH2 0xCDF JUMP JUMPDEST SWAP1 POP SWAP2 SWAP1 POP JUMP JUMPDEST PUSH1 0x0 DUP2 SWAP1 POP SWAP2 SWAP1 POP JUMP JUMPDEST PUSH2 0xD28 DUP4 PUSH2 0xCF3 JUMP JUMPDEST PUSH2 0xD3C PUSH2 0xD34 DUP3 PUSH2 0xD15 JUMP JUMPDEST DUP5 DUP5 SLOAD PUSH2 0xC8D JUMP JUMPDEST DUP3 SSTORE POP POP POP POP JUMP JUMPDEST PUSH1 0x0 SWAP1 JUMP JUMPDEST PUSH2 0xD51 PUSH2 0xD44 JUMP JUMPDEST PUSH2 0xD5C DUP2 DUP5 DUP5 PUSH2 0xD1F JUMP JUMPDEST POP POP POP JUMP JUMPDEST JUMPDEST DUP2 DUP2 LT ISZERO PUSH2 0xD80 JUMPI PUSH2 0xD75 PUSH1 0x0 DUP3 PUSH2 0xD49 JUMP JUMPDEST PUSH1 0x1 DUP2 ADD SWAP1 POP PUSH2 0xD62 JUMP JUMPDEST POP POP JUMP JUMPDEST PUSH1 0x1F DUP3 GT ISZERO PUSH2 0xDC5 JUMPI PUSH2 0xD96 DUP2 PUSH2 0xC5B JUMP JUMPDEST PUSH2 0xD9F DUP5 PUSH2 0xC70 JUMP JUMPDEST DUP2 ADD PUSH1 0x20 DUP6 LT ISZERO PUSH2 0xDAE JUMPI DUP2 SWAP1 POP JUMPDEST PUSH2 0xDC2 PUSH2 0xDBA DUP6 PUSH2 0xC70 JUMP JUMPDEST DUP4 ADD DUP3 PUSH2 0xD61 JUMP JUMPDEST POP POP JUMPDEST POP POP POP JUMP JUMPDEST PUSH1 0x0 DUP3 DUP3 SHR SWAP1 POP SWAP3 SWAP2 POP POP JUMP JUMPDEST PUSH1 0x0 PUSH2 0xDE8 PUSH1 0x0 NOT DUP5 PUSH1 0x8 MUL PUSH2 0xDCA JUMP JUMPDEST NOT DUP1 DUP4 AND SWAP2 POP POP SWAP3 SWAP2 POP POP JUMP JUMPDEST PUSH1 0x0 PUSH2 0xE01 DUP4 DUP4 PUSH2 0xDD7 JUMP JUMPDEST SWAP2 POP DUP3 PUSH1 0x2 MUL DUP3 OR SWAP1 POP SWAP3 SWAP2 POP POP JUMP JUMPDEST PUSH2 0xE1A DUP3 PUSH2 0xBF0 JUMP JUMPDEST PUSH8 0xFFFFFFFFFFFFFFFF DUP2 GT ISZERO PUSH2 0xE33 JUMPI PUSH2 0xE32 PUSH2 0x98C JUMP JUMPDEST JUMPDEST PUSH2 0xE3D DUP3 SLOAD PUSH2 0xC2A JUMP JUMPDEST PUSH2 0xE48 DUP3 DUP3 DUP6 PUSH2 0xD84 JUMP JUMPDEST PUSH1 0x0 PUSH1 0x20 SWAP1 POP PUSH1 0x1F DUP4 GT PUSH1 0x1 DUP2 EQ PUSH2 0xE7B JUMPI PUSH1 0x0 DUP5 ISZERO PUSH2 0xE69 JUMPI DUP3 DUP8 ADD MLOAD SWAP1 POP JUMPDEST PUSH2 0xE73 DUP6 DUP3 PUSH2 0xDF5 JUMP JUMPDEST DUP7 SSTORE POP PUSH2 0xEDB JUMP JUMPDEST PUSH1 0x1F NOT DUP5 AND PUSH2 0xE89 DUP7 PUSH2 0xC5B JUMP JUMPDEST PUSH1 0x0 JUMPDEST DUP3 DUP2 LT ISZERO PUSH2 0xEB1 JUMPI DUP5 DUP10 ADD MLOAD DUP3 SSTORE PUSH1 0x1 DUP3 ADD SWAP2 POP PUSH1 0x20 DUP6 ADD SWAP5 POP PUSH1 0x20 DUP2 ADD SWAP1 POP PUSH2 0xE8C JUMP JUMPDEST DUP7 DUP4 LT ISZERO PUSH2 0xECE JUMPI DUP5 DUP10 ADD MLOAD PUSH2 0xECA PUSH1 0x1F DUP10 AND DUP3 PUSH2 0xDD7 JUMP JUMPDEST DUP4 SSTORE POP JUMPDEST PUSH1 0x1 PUSH1 0x2 DUP9 MUL ADD DUP9 SSTORE POP POP POP JUMPDEST POP POP POP POP POP POP JUMP JUMPDEST PUSH2 0xEEC DUP2 PUSH2 0x933 JUMP JUMPDEST DUP3 MSTORE POP POP JUMP JUMPDEST PUSH1 0x0 PUSH1 0x20 DUP3 ADD SWAP1 POP PUSH2 0xF07 PUSH1 0x0 DUP4 ADD DUP5 PUSH2 0xEE3 JUMP JUMPDEST SWAP3 SWAP2 POP POP JUMP JUMPDEST PUSH1 0x0 DUP3 DUP3 MSTORE PUSH1 0x20 DUP3 ADD SWAP1 POP SWAP3 SWAP2 POP POP JUMP JUMPDEST PUSH32 0x526F79616C7479206665652063616E6E6F742065786365656420313025000000 PUSH1 0x0 DUP3 ADD MSTORE POP JUMP JUMPDEST PUSH1 0x0 PUSH2 0xF54 PUSH1 0x1D DUP4 PUSH2 0xF0D JUMP JUMPDEST SWAP2 POP PUSH2 0xF5F DUP3 PUSH2 0xF1E JUMP JUMPDEST PUSH1 0x20 DUP3 ADD SWAP1 POP SWAP2 SWAP1 POP JUMP JUMPDEST PUSH1 0x0 PUSH1 0x20 DUP3 ADD SWAP1 POP DUP2 DUP2 SUB PUSH1 0x0 DUP4 ADD MSTORE PUSH2 0xF83 DUP2 PUSH2 0xF47 JUMP JUMPDEST SWAP1 POP SWAP2 SWAP1 POP JUMP JUMPDEST PUSH32 0x506C6174666F726D206665652063616E6E6F7420657863656564203130250000 PUSH1 0x0 DUP3 ADD MSTORE POP JUMP JUMPDEST PUSH1 0x0 PUSH2 0xFC0 PUSH1 0x1E DUP4 PUSH2 0xF0D JUMP JUMPDEST SWAP2 POP PUSH2 0xFCB DUP3 PUSH2 0xF8A JUMP JUMPDEST PUSH1 0x20 DUP3 ADD SWAP1 POP SWAP2 SWAP1 POP JUMP JUMPDEST PUSH1 0x0 PUSH1 0x20 DUP3 ADD SWAP1 POP DUP2 DUP2 SUB PUSH1 0x0 DUP4 ADD MSTORE PUSH2 0xFEF DUP2 PUSH2 0xFB3 JUMP JUMPDEST SWAP1 POP SWAP2 SWAP1 POP JUMP JUMPDEST PUSH32 0x496E76616C696420706C6174666F726D2066656520726563697069656E740000 PUSH1 0x0 DUP3 ADD MSTORE POP JUMP JUMPDEST PUSH1 0x0 PUSH2 0x102C PUSH1 0x1E DUP4 PUSH2 0xF0D JUMP JUMPDEST SWAP2 POP PUSH2 0x1037 DUP3 PUSH2 0xFF6 JUMP JUMPDEST PUSH1 0x20 DUP3 ADD SWAP1 POP SWAP2 SWAP1 POP JUMP JUMPDEST PUSH1 0x0 PUSH1 0x20 DUP3 ADD SWAP1 POP DUP2 DUP2 SUB PUSH1 0x0 DUP4 ADD MSTORE PUSH2 0x105B DUP2 PUSH2 0x101F JUMP JUMPDEST SWAP1 POP SWAP2 SWAP1 POP JUMP JUMPDEST PUSH32 0x496E76616C6964206261636B656E64207369676E657200000000000000000000 PUSH1 0x0 DUP3 ADD MSTORE POP JUMP JUMPDEST PUSH1 0x0 PUSH2 0x1098 PUSH1 0x16 DUP4 PUSH2 0xF0D JUMP JUMPDEST SWAP2 POP PUSH2 0x10A3 DUP3 PUSH2 0x1062 JUMP JUMPDEST PUSH1 0x20 DUP3 ADD SWAP1 POP SWAP2 SWAP1 POP JUMP JUMPDEST PUSH1 0x0 PUSH1 0x20 DUP3 ADD SWAP1 POP DUP2 DUP2 SUB PUSH1 0x0 DUP4 ADD MSTORE PUSH2 0x10C7 DUP2 PUSH2 0x108B JUMP JUMPDEST SWAP1 POP SWAP2 SWAP1 POP JUMP JUMPDEST PUSH32 0x4E487B7100000000000000000000000000000000000000000000000000000000 PUSH1 0x0 MSTORE PUSH1 0x21 PUSH1 0x4 MSTORE PUSH1 0x24 PUSH1 0x0 REVERT JUMPDEST PUSH1 0x0 DUP2 SWAP1 POP SWAP2 SWAP1 POP JUMP JUMPDEST PUSH2 0x1110 DUP2 PUSH2 0x10FD JUMP JUMPDEST DUP3 MSTORE POP POP JUMP JUMPDEST PUSH2 0x111F DUP2 PUSH2 0xCDF JUMP JUMPDEST DUP3 MSTORE POP POP JUMP JUMPDEST PUSH1 0x0 PUSH1 0xA0 DUP3 ADD SWAP1 POP PUSH2 0x113A PUSH1 0x0 DUP4 ADD DUP9 PUSH2 0x1107 JUMP JUMPDEST PUSH2 0x1147 PUSH1 0x20 DUP4 ADD DUP8 PUSH2 0x1107 JUMP JUMPDEST PUSH2 0x1154 PUSH1 0x40 DUP4 ADD DUP7 PUSH2 0x1107 JUMP JUMPDEST PUSH2 0x1161 PUSH1 0x60 DUP4 ADD DUP6 PUSH2 0x1116 JUMP JUMPDEST PUSH2 0x116E PUSH1 0x80 DUP4 ADD DUP5 PUSH2 0xEE3 JUMP JUMPDEST SWAP7 SWAP6 POP POP POP POP POP POP JUMP JUMPDEST PUSH1 0x0 PUSH2 0x1193 PUSH2 0x118E PUSH2 0x1189 DUP5 PUSH2 0xAD2 JUMP JUMPDEST PUSH2 0xCE9 JUMP JUMPDEST PUSH2 0xCDF JUMP JUMPDEST SWAP1 POP SWAP2 SWAP1 POP JUMP JUMPDEST PUSH2 0x11A3 DUP2 PUSH2 0x1178 JUMP JUMPDEST DUP3 MSTORE POP POP JUMP JUMPDEST PUSH1 0x0 PUSH1 0x40 DUP3 ADD SWAP1 POP PUSH2 0x11BE PUSH1 0x0 DUP4 ADD DUP6 PUSH2 0x119A JUMP JUMPDEST PUSH2 0x11CB PUSH1 0x20 DUP4 ADD DUP5 PUSH2 0x1116 JUMP JUMPDEST SWAP4 SWAP3 POP POP POP JUMP JUMPDEST PUSH1 0x0 PUSH2 0x11DD DUP3 PUSH2 0xBF0 JUMP JUMPDEST PUSH2 0x11E7 DUP2 DUP6 PUSH2 0xF0D JUMP JUMPDEST SWAP4 POP PUSH2 0x11F7 DUP2 DUP6 PUSH1 0x20 DUP7 ADD PUSH2 0xA38 JUMP JUMPDEST PUSH2 0x1200 DUP2 PUSH2 0x97B JUMP JUMPDEST DUP5 ADD SWAP2 POP POP SWAP3 SWAP2 POP POP JUMP JUMPDEST PUSH1 0x0 PUSH1 0x20 DUP3 ADD SWAP1 POP DUP2 DUP2 SUB PUSH1 0x0 DUP4 ADD MSTORE PUSH2 0x1225 DUP2 DUP5 PUSH2 0x11D2 JUMP JUMPDEST SWAP1 POP SWAP3 SWAP2 POP POP JUMP JUMPDEST PUSH1 0x0 DUP2 MLOAD SWAP1 POP SWAP2 SWAP1 POP JUMP JUMPDEST PUSH1 0x0 DUP2 SWAP1 POP PUSH1 0x20 DUP3 ADD SWAP1 POP SWAP2 SWAP1 POP JUMP JUMPDEST PUSH1 0x0 PUSH2 0x1254 DUP3 MLOAD PUSH2 0x10FD JUMP JUMPDEST DUP1 SWAP2 POP POP SWAP2 SWAP1 POP JUMP JUMPDEST PUSH1 0x0 PUSH2 0x1268 DUP3 PUSH2 0x122D JUMP JUMPDEST DUP3 PUSH2 0x1272 DUP5 PUSH2 0x1238 JUMP JUMPDEST SWAP1 POP PUSH2 0x127D DUP2 PUSH2 0x1248 JUMP JUMPDEST SWAP3 POP PUSH1 0x20 DUP3 LT ISZERO PUSH2 0x12BD JUMPI PUSH2 0x12B8 PUSH32 0xFFFFFFFFFFFFFFFFFFFFFFFFFFFFFFFFFFFFFFFFFFFFFFFFFFFFFFFFFFFFFFFF DUP4 PUSH1 0x20 SUB PUSH1 0x8 MUL PUSH2 0xC80 JUMP JUMPDEST DUP4 AND SWAP3 POP JUMPDEST POP POP SWAP2 SWAP1 POP JUMP JUMPDEST PUSH1 0x80 MLOAD PUSH1 0xA0 MLOAD PUSH1 0xC0 MLOAD PUSH1 0xE0 MLOAD PUSH2 0x100 MLOAD PUSH2 0x120 MLOAD PUSH2 0x140 MLOAD PUSH2 0x160 MLOAD PUSH2 0x180 MLOAD PUSH2 0x618C PUSH2 0x1338 PUSH1 0x0 CODECOPY PUSH1 0x0 POP POP PUSH1 0x0 DUP2 DUP2 PUSH2 0x10DC ADD MSTORE PUSH2 0x1FAA ADD MSTORE PUSH1 0x0 PUSH2 0x2B7C ADD MSTORE PUSH1 0x0 PUSH2 0x2B41 ADD MSTORE PUSH1 0x0 PUSH2 0x367E ADD MSTORE PUSH1 0x0 PUSH2 0x365D ADD MSTORE PUSH1 0x0 PUSH2 0x2FE5 ADD MSTORE PUSH1 0x0 PUSH2 0x303B ADD MSTORE PUSH1 0x0 PUSH2 0x3064 ADD MSTORE PUSH2 0x618C PUSH1 0x0 RETURN INVALID PUSH1 0x80 PUSH1 0x40 MSTORE PUSH1 0x4 CALLDATASIZE LT PUSH2 0x20F JUMPI PUSH1 0x0 CALLDATALOAD PUSH1 0xE0 SHR DUP1 PUSH4 0x715018A6 GT PUSH2 0x118 JUMPI DUP1 PUSH4 0xCDD78CFC GT PUSH2 0xA0 JUMPI DUP1 PUSH4 0xEB13554F GT PUSH2 0x6F JUMPI DUP1 PUSH4 0xEB13554F EQ PUSH2 0x7E7 JUMPI DUP1 PUSH4 0xED24911D EQ PUSH2 0x812 JUMPI DUP1 PUSH4 0xEE5F4F13 EQ PUSH2 0x83D JUMPI DUP1 PUSH4 0xF2FDE38B EQ PUSH2 0x859 JUMPI DUP1 PUSH4 0xF7330C2D EQ PUSH2 0x882 JUMPI PUSH2 0x20F JUMP JUMPDEST DUP1 PUSH4 0xCDD78CFC EQ PUSH2 0x72B JUMPI DUP1 PUSH4 0xDB5E0063 EQ PUSH2 0x756 JUMPI DUP1 PUSH4 0xDECC4A6A EQ PUSH2 0x781 JUMPI DUP1 PUSH4 0xE985E9C5 EQ PUSH2 0x7AA JUMPI PUSH2 0x20F JUMP JUMPDEST DUP1 PUSH4 0x95D89B41 GT PUSH2 0xE7 JUMPI DUP1 PUSH4 0x95D89B41 EQ PUSH2 0x648 JUMPI DUP1 PUSH4 0xA22CB465 EQ PUSH2 0x673 JUMPI DUP1 PUSH4 0xA4836C11 EQ PUSH2 0x69C JUMPI DUP1 PUSH4 0xB88D4FDE EQ PUSH2 0x6C5 JUMPI DUP1 PUSH4 0xC87B56DD EQ PUSH2 0x6EE JUMPI PUSH2 0x20F JUMP JUMPDEST DUP1 PUSH4 0x715018A6 EQ PUSH2 0x5AC JUMPI DUP1 PUSH4 0x7A989281 EQ PUSH2 0x5C3 JUMPI DUP1 PUSH4 0x84B0196E EQ PUSH2 0x5EC JUMPI DUP1 PUSH4 0x8DA5CB5B EQ PUSH2 0x61D JUMPI PUSH2 0x20F JUMP JUMPDEST DUP1 PUSH4 0x2D0335AB GT PUSH2 0x19B JUMPI DUP1 PUSH4 0x42842E0E GT PUSH2 0x16A JUMPI DUP1 PUSH4 0x42842E0E EQ PUSH2 0x4A1 JUMPI DUP1 PUSH4 0x4F6CCCE7 EQ PUSH2 0x4CA JUMPI DUP1 PUSH4 0x6352211E EQ PUSH2 0x507 JUMPI DUP1 PUSH4 0x65D65E86 EQ PUSH2 0x544 JUMPI DUP1 PUSH4 0x70A08231 EQ PUSH2 0x56F JUMPI PUSH2 0x20F JUMP JUMPDEST DUP1 PUSH4 0x2D0335AB EQ PUSH2 0x3CB JUMPI DUP1 PUSH4 0x2E37EEF6 EQ PUSH2 0x408 JUMPI DUP1 PUSH4 0x2F745C59 EQ PUSH2 0x44D JUMPI DUP1 PUSH4 0x3CCFD60B EQ PUSH2 0x48A JUMPI PUSH2 0x20F JUMP JUMPDEST DUP1 PUSH4 0x95EA7B3 GT PUSH2 0x1E2 JUMPI DUP1 PUSH4 0x95EA7B3 EQ PUSH2 0x2E4 JUMPI DUP1 PUSH4 0x18160DDD EQ PUSH2 0x30D JUMPI DUP1 PUSH4 0x1CE97FD1 EQ PUSH2 0x338 JUMPI DUP1 PUSH4 0x23B872DD EQ PUSH2 0x364 JUMPI DUP1 PUSH4 0x2A55205A EQ PUSH2 0x38D JUMPI PUSH2 0x20F JUMP JUMPDEST DUP1 PUSH4 0x1FFC9A7 EQ PUSH2 0x214 JUMPI DUP1 PUSH4 0x6FDDE03 EQ PUSH2 0x251 JUMPI DUP1 PUSH4 0x72A1319 EQ PUSH2 0x27C JUMPI DUP1 PUSH4 0x81812FC EQ PUSH2 0x2A7 JUMPI JUMPDEST PUSH1 0x0 DUP1 REVERT JUMPDEST CALLVALUE DUP1 ISZERO PUSH2 0x220 JUMPI PUSH1 0x0 DUP1 REVERT JUMPDEST POP PUSH2 0x23B PUSH1 0x4 DUP1 CALLDATASIZE SUB DUP2 ADD SWAP1 PUSH2 0x236 SWAP2 SWAP1 PUSH2 0x4700 JUMP JUMPDEST PUSH2 0x8BF JUMP JUMPDEST PUSH1 0x40 MLOAD PUSH2 0x248 SWAP2 SWAP1 PUSH2 0x4748 JUMP JUMPDEST PUSH1 0x40 MLOAD DUP1 SWAP2 SUB SWAP1 RETURN JUMPDEST CALLVALUE DUP1 ISZERO PUSH2 0x25D JUMPI PUSH1 0x0 DUP1 REVERT JUMPDEST POP PUSH2 0x266 PUSH2 0x8D1 JUMP JUMPDEST PUSH1 0x40 MLOAD PUSH2 0x273 SWAP2 SWAP1 PUSH2 0x47F3 JUMP JUMPDEST PUSH1 0x40 MLOAD DUP1 SWAP2 SUB SWAP1 RETURN JUMPDEST CALLVALUE DUP1 ISZERO PUSH2 0x288 JUMPI PUSH1 0x0 DUP1 REVERT JUMPDEST POP PUSH2 0x291 PUSH2 0x963 JUMP JUMPDEST PUSH1 0x40 MLOAD PUSH2 0x29E SWAP2 SWAP1 PUSH2 0x4748 JUMP JUMPDEST PUSH1 0x40 MLOAD DUP1 SWAP2 SUB SWAP1 RETURN JUMPDEST CALLVALUE DUP1 ISZERO PUSH2 0x2B3 JUMPI PUSH1 0x0 DUP1 REVERT JUMPDEST POP PUSH2 0x2CE PUSH1 0x4 DUP1 CALLDATASIZE SUB DUP2 ADD SWAP1 PUSH2 0x2C9 SWAP2 SWAP1 PUSH2 0x484B JUMP JUMPDEST PUSH2 0xA5D JUMP JUMPDEST PUSH1 0x40 MLOAD PUSH2 0x2DB SWAP2 SWAP1 PUSH2 0x48B9 JUMP JUMPDEST PUSH1 0x40 MLOAD DUP1 SWAP2 SUB SWAP1 RETURN JUMPDEST CALLVALUE DUP1 ISZERO PUSH2 0x2F0 JUMPI PUSH1 0x0 DUP1 REVERT JUMPDEST POP PUSH2 0x30B PUSH1 0x4 DUP1 CALLDATASIZE SUB DUP2 ADD SWAP1 PUSH2 0x306 SWAP2 SWAP1 PUSH2 0x4900 JUMP JUMPDEST PUSH2 0xA79 JUMP JUMPDEST STOP JUMPDEST CALLVALUE DUP1 ISZERO PUSH2 0x319 JUMPI PUSH1 0x0 DUP1 REVERT JUMPDEST POP PUSH2 0x322 PUSH2 0xA8F JUMP JUMPDEST PUSH1 0x40 MLOAD PUSH2 0x32F SWAP2 SWAP1 PUSH2 0x494F JUMP JUMPDEST PUSH1 0x40 MLOAD DUP1 SWAP2 SUB SWAP1 RETURN JUMPDEST CALLVALUE DUP1 ISZERO PUSH2 0x344 JUMPI PUSH1 0x0 DUP1 REVERT JUMPDEST POP PUSH2 0x34D PUSH2 0xA9C JUMP JUMPDEST PUSH1 0x40 MLOAD PUSH2 0x35B SWAP3 SWAP2 SWAP1 PUSH2 0x4AC0 JUMP JUMPDEST PUSH1 0x40 MLOAD DUP1 SWAP2 SUB SWAP1 RETURN JUMPDEST CALLVALUE DUP1 ISZERO PUSH2 0x370 JUMPI PUSH1 0x0 DUP1 REVERT JUMPDEST POP PUSH2 0x38B PUSH1 0x4 DUP1 CALLDATASIZE SUB DUP2 ADD SWAP1 PUSH2 0x386 SWAP2 SWAP1 PUSH2 0x4AEA JUMP JUMPDEST PUSH2 0xB50 JUMP JUMPDEST STOP JUMPDEST CALLVALUE DUP1 ISZERO PUSH2 0x399 JUMPI PUSH1 0x0 DUP1 REVERT JUMPDEST POP PUSH2 0x3B4 PUSH1 0x4 DUP1 CALLDATASIZE SUB DUP2 ADD SWAP1 PUSH2 0x3AF SWAP2 SWAP1 PUSH2 0x4B3D JUMP JUMPDEST PUSH2 0xC52 JUMP JUMPDEST PUSH1 0x40 MLOAD PUSH2 0x3C2 SWAP3 SWAP2 SWAP1 PUSH2 0x4B7D JUMP JUMPDEST PUSH1 0x40 MLOAD DUP1 SWAP2 SUB SWAP1 RETURN JUMPDEST CALLVALUE DUP1 ISZERO PUSH2 0x3D7 JUMPI PUSH1 0x0 DUP1 REVERT JUMPDEST POP PUSH2 0x3F2 PUSH1 0x4 DUP1 CALLDATASIZE SUB DUP2 ADD SWAP1 PUSH2 0x3ED SWAP2 SWAP1 PUSH2 0x4BA6 JUMP JUMPDEST PUSH2 0xD82 JUMP JUMPDEST PUSH1 0x40 MLOAD PUSH2 0x3FF SWAP2 SWAP1 PUSH2 0x494F JUMP JUMPDEST PUSH1 0x40 MLOAD DUP1 SWAP2 SUB SWAP1 RETURN JUMPDEST CALLVALUE DUP1 ISZERO PUSH2 0x414 JUMPI PUSH1 0x0 DUP1 REVERT JUMPDEST POP PUSH2 0x42F PUSH1 0x4 DUP1 CALLDATASIZE SUB DUP2 ADD SWAP1 PUSH2 0x42A SWAP2 SWAP1 PUSH2 0x484B JUMP JUMPDEST PUSH2 0xDCB JUMP JUMPDEST PUSH1 0x40 MLOAD PUSH2 0x444 SWAP10 SWAP9 SWAP8 SWAP7 SWAP6 SWAP5 SWAP4 SWAP3 SWAP2 SWAP1 PUSH2 0x4BF1 JUMP JUMPDEST PUSH1 0x40 MLOAD DUP1 SWAP2 SUB SWAP1 RETURN JUMPDEST CALLVALUE DUP1 ISZERO PUSH2 0x459 JUMPI PUSH1 0x0 DUP1 REVERT JUMPDEST POP PUSH2 0x474 PUSH1 0x4 DUP1 CALLDATASIZE SUB DUP2 ADD SWAP1 PUSH2 0x46F SWAP2 SWAP1 PUSH2 0x4900 JUMP JUMPDEST PUSH2 0xE36 JUMP JUMPDEST PUSH1 0x40 MLOAD PUSH2 0x481 SWAP2 SWAP1 PUSH2 0x494F JUMP JUMPDEST PUSH1 0x40 MLOAD DUP1 SWAP2 SUB SWAP1 RETURN JUMPDEST CALLVALUE DUP1 ISZERO PUSH2 0x496 JUMPI PUSH1 0x0 DUP1 REVERT JUMPDEST POP PUSH2 0x49F PUSH2 0xEDF JUMP JUMPDEST STOP JUMPDEST CALLVALUE DUP1 ISZERO PUSH2 0x4AD JUMPI PUSH1 0x0 DUP1 REVERT JUMPDEST POP PUSH2 0x4C8 PUSH1 0x4 DUP1 CALLDATASIZE SUB DUP2 ADD SWAP1 PUSH2 0x4C3 SWAP2 SWAP1 PUSH2 0x4AEA JUMP JUMPDEST PUSH2 0x1032 JUMP JUMPDEST STOP JUMPDEST CALLVALUE DUP1 ISZERO PUSH2 0x4D6 JUMPI PUSH1 0x0 DUP1 REVERT JUMPDEST POP PUSH2 0x4F1 PUSH1 0x4 DUP1 CALLDATASIZE SUB DUP2 ADD SWAP1 PUSH2 0x4EC SWAP2 SWAP1 PUSH2 0x484B JUMP JUMPDEST PUSH2 0x1052 JUMP JUMPDEST PUSH1 0x40 MLOAD PUSH2 0x4FE SWAP2 SWAP1 PUSH2 0x494F JUMP JUMPDEST PUSH1 0x40 MLOAD DUP1 SWAP2 SUB SWAP1 RETURN JUMPDEST CALLVALUE DUP1 ISZERO PUSH2 0x513 JUMPI PUSH1 0x0 DUP1 REVERT JUMPDEST POP PUSH2 0x52E PUSH1 0x4 DUP1 CALLDATASIZE SUB DUP2 ADD SWAP1 PUSH2 0x529 SWAP2 SWAP1 PUSH2 0x484B JUMP JUMPDEST PUSH2 0x10C8 JUMP JUMPDEST PUSH1 0x40 MLOAD PUSH2 0x53B SWAP2 SWAP1 PUSH2 0x48B9 JUMP JUMPDEST PUSH1 0x40 MLOAD DUP1 SWAP2 SUB SWAP1 RETURN JUMPDEST CALLVALUE DUP1 ISZERO PUSH2 0x550 JUMPI PUSH1 0x0 DUP1 REVERT JUMPDEST POP PUSH2 0x559 PUSH2 0x10DA JUMP JUMPDEST PUSH1 0x40 MLOAD PUSH2 0x566 SWAP2 SWAP1 PUSH2 0x48B9 JUMP JUMPDEST PUSH1 0x40 MLOAD DUP1 SWAP2 SUB SWAP1 RETURN JUMPDEST CALLVALUE DUP1 ISZERO PUSH2 0x57B JUMPI PUSH1 0x0 DUP1 REVERT JUMPDEST POP PUSH2 0x596 PUSH1 0x4 DUP1 CALLDATASIZE SUB DUP2 ADD SWAP1 PUSH2 0x591 SWAP2 SWAP1 PUSH2 0x4BA6 JUMP JUMPDEST PUSH2 0x10FE JUMP JUMPDEST PUSH1 0x40 MLOAD PUSH2 0x5A3 SWAP2 SWAP1 PUSH2 0x494F JUMP JUMPDEST PUSH1 0x40 MLOAD DUP1 SWAP2 SUB SWAP1 RETURN JUMPDEST CALLVALUE DUP1 ISZERO PUSH2 0x5B8 JUMPI PUSH1 0x0 DUP1 REVERT JUMPDEST POP PUSH2 0x5C1 PUSH2 0x11B8 JUMP JUMPDEST STOP JUMPDEST CALLVALUE DUP1 ISZERO PUSH2 0x5CF JUMPI PUSH1 0x0 DUP1 REVERT JUMPDEST POP PUSH2 0x5EA PUSH1 0x4 DUP1 CALLDATASIZE SUB DUP2 ADD SWAP1 PUSH2 0x5E5 SWAP2 SWAP1 PUSH2 0x4CCF JUMP JUMPDEST PUSH2 0x11CC JUMP JUMPDEST STOP JUMPDEST CALLVALUE DUP1 ISZERO PUSH2 0x5F8 JUMPI PUSH1 0x0 DUP1 REVERT JUMPDEST POP PUSH2 0x601 PUSH2 0x15D2 JUMP JUMPDEST PUSH1 0x40 MLOAD PUSH2 0x614 SWAP8 SWAP7 SWAP6 SWAP5 SWAP4 SWAP3 SWAP2 SWAP1 PUSH2 0x4E6F JUMP JUMPDEST PUSH1 0x40 MLOAD DUP1 SWAP2 SUB SWAP1 RETURN JUMPDEST CALLVALUE DUP1 ISZERO PUSH2 0x629 JUMPI PUSH1 0x0 DUP1 REVERT JUMPDEST POP PUSH2 0x632 PUSH2 0x167C JUMP JUMPDEST PUSH1 0x40 MLOAD PUSH2 0x63F SWAP2 SWAP1 PUSH2 0x48B9 JUMP JUMPDEST PUSH1 0x40 MLOAD DUP1 SWAP2 SUB SWAP1 RETURN JUMPDEST CALLVALUE DUP1 ISZERO PUSH2 0x654 JUMPI PUSH1 0x0 DUP1 REVERT JUMPDEST POP PUSH2 0x65D PUSH2 0x16A6 JUMP JUMPDEST PUSH1 0x40 MLOAD PUSH2 0x66A SWAP2 SWAP1 PUSH2 0x47F3 JUMP JUMPDEST PUSH1 0x40 MLOAD DUP1 SWAP2 SUB SWAP1 RETURN JUMPDEST CALLVALUE DUP1 ISZERO PUSH2 0x67F JUMPI PUSH1 0x0 DUP1 REVERT JUMPDEST POP PUSH2 0x69A PUSH1 0x4 DUP1 CALLDATASIZE SUB DUP2 ADD SWAP1 PUSH2 0x695 SWAP2 SWAP1 PUSH2 0x4F1F JUMP JUMPDEST PUSH2 0x1738 JUMP JUMPDEST STOP JUMPDEST CALLVALUE DUP1 ISZERO PUSH2 0x6A8 JUMPI PUSH1 0x0 DUP1 REVERT JUMPDEST POP PUSH2 0x6C3 PUSH1 0x4 DUP1 CALLDATASIZE SUB DUP2 ADD SWAP1 PUSH2 0x6BE SWAP2 SWAP1 PUSH2 0x4F5F JUMP JUMPDEST PUSH2 0x174E JUMP JUMPDEST STOP JUMPDEST CALLVALUE DUP1 ISZERO PUSH2 0x6D1 JUMPI PUSH1 0x0 DUP1 REVERT JUMPDEST POP PUSH2 0x6EC PUSH1 0x4 DUP1 CALLDATASIZE SUB DUP2 ADD SWAP1 PUSH2 0x6E7 SWAP2 SWAP1 PUSH2 0x515E JUMP JUMPDEST PUSH2 0x1AF7 JUMP JUMPDEST STOP JUMPDEST CALLVALUE DUP1 ISZERO PUSH2 0x6FA JUMPI PUSH1 0x0 DUP1 REVERT JUMPDEST POP PUSH2 0x715 PUSH1 0x4 DUP1 CALLDATASIZE SUB DUP2 ADD SWAP1 PUSH2 0x710 SWAP2 SWAP1 PUSH2 0x484B JUMP JUMPDEST PUSH2 0x1B1C JUMP JUMPDEST PUSH1 0x40 MLOAD PUSH2 0x722 SWAP2 SWAP1 PUSH2 0x47F3 JUMP JUMPDEST PUSH1 0x40 MLOAD DUP1 SWAP2 SUB SWAP1 RETURN JUMPDEST CALLVALUE DUP1 ISZERO PUSH2 0x737 JUMPI PUSH1 0x0 DUP1 REVERT JUMPDEST POP PUSH2 0x740 PUSH2 0x1B2E JUMP JUMPDEST PUSH1 0x40 MLOAD PUSH2 0x74D SWAP2 SWAP1 PUSH2 0x5208 JUMP JUMPDEST PUSH1 0x40 MLOAD DUP1 SWAP2 SUB SWAP1 RETURN JUMPDEST CALLVALUE DUP1 ISZERO PUSH2 0x762 JUMPI PUSH1 0x0 DUP1 REVERT JUMPDEST POP PUSH2 0x76B PUSH2 0x1B4C JUMP JUMPDEST PUSH1 0x40 MLOAD PUSH2 0x778 SWAP2 SWAP1 PUSH2 0x494F JUMP JUMPDEST PUSH1 0x40 MLOAD DUP1 SWAP2 SUB SWAP1 RETURN JUMPDEST CALLVALUE DUP1 ISZERO PUSH2 0x78D JUMPI PUSH1 0x0 DUP1 REVERT JUMPDEST POP PUSH2 0x7A8 PUSH1 0x4 DUP1 CALLDATASIZE SUB DUP2 ADD SWAP1 PUSH2 0x7A3 SWAP2 SWAP1 PUSH2 0x524F JUMP JUMPDEST PUSH2 0x1B59 JUMP JUMPDEST STOP JUMPDEST CALLVALUE DUP1 ISZERO PUSH2 0x7B6 JUMPI PUSH1 0x0 DUP1 REVERT JUMPDEST POP PUSH2 0x7D1 PUSH1 0x4 DUP1 CALLDATASIZE SUB DUP2 ADD SWAP1 PUSH2 0x7CC SWAP2 SWAP1 PUSH2 0x528F JUMP JUMPDEST PUSH2 0x1CD2 JUMP JUMPDEST PUSH1 0x40 MLOAD PUSH2 0x7DE SWAP2 SWAP1 PUSH2 0x4748 JUMP JUMPDEST PUSH1 0x40 MLOAD DUP1 SWAP2 SUB SWAP1 RETURN JUMPDEST CALLVALUE DUP1 ISZERO PUSH2 0x7F3 JUMPI PUSH1 0x0 DUP1 REVERT JUMPDEST POP PUSH2 0x7FC PUSH2 0x1D66 JUMP JUMPDEST PUSH1 0x40 MLOAD PUSH2 0x809 SWAP2 SWAP1 PUSH2 0x48B9 JUMP JUMPDEST PUSH1 0x40 MLOAD DUP1 SWAP2 SUB SWAP1 RETURN JUMPDEST CALLVALUE DUP1 ISZERO PUSH2 0x81E JUMPI PUSH1 0x0 DUP1 REVERT JUMPDEST POP PUSH2 0x827 PUSH2 0x1D8C JUMP JUMPDEST PUSH1 0x40 MLOAD PUSH2 0x834 SWAP2 SWAP1 PUSH2 0x52CF JUMP JUMPDEST PUSH1 0x40 MLOAD DUP1 SWAP2 SUB SWAP1 RETURN JUMPDEST PUSH2 0x857 PUSH1 0x4 DUP1 CALLDATASIZE SUB DUP2 ADD SWAP1 PUSH2 0x852 SWAP2 SWAP1 PUSH2 0x53F6 JUMP JUMPDEST PUSH2 0x1D9B JUMP JUMPDEST STOP JUMPDEST CALLVALUE DUP1 ISZERO PUSH2 0x865 JUMPI PUSH1 0x0 DUP1 REVERT JUMPDEST POP PUSH2 0x880 PUSH1 0x4 DUP1 CALLDATASIZE SUB DUP2 ADD SWAP1 PUSH2 0x87B SWAP2 SWAP1 PUSH2 0x4BA6 JUMP JUMPDEST PUSH2 0x2621 JUMP JUMPDEST STOP JUMPDEST CALLVALUE DUP1 ISZERO PUSH2 0x88E JUMPI PUSH1 0x0 DUP1 REVERT JUMPDEST POP PUSH2 0x8A9 PUSH1 0x4 DUP1 CALLDATASIZE SUB DUP2 ADD SWAP1 PUSH2 0x8A4 SWAP2 SWAP1 PUSH2 0x54D2 JUMP JUMPDEST PUSH2 0x26A7 JUMP JUMPDEST PUSH1 0x40 MLOAD PUSH2 0x8B6 SWAP2 SWAP1 PUSH2 0x494F JUMP JUMPDEST PUSH1 0x40 MLOAD DUP1 SWAP2 SUB SWAP1 RETURN JUMPDEST PUSH1 0x0 PUSH2 0x8CA DUP3 PUSH2 0x2726 JUMP JUMPDEST SWAP1 POP SWAP2 SWAP1 POP JUMP JUMPDEST PUSH1 0x60 PUSH1 0x0 DUP1 SLOAD PUSH2 0x8E0 SWAP1 PUSH2 0x5541 JUMP JUMPDEST DUP1 PUSH1 0x1F ADD PUSH1 0x20 DUP1 SWAP2 DIV MUL PUSH1 0x20 ADD PUSH1 0x40 MLOAD SWAP1 DUP2 ADD PUSH1 0x40 MSTORE DUP1 SWAP3 SWAP2 SWAP1 DUP2 DUP2 MSTORE PUSH1 0x20 ADD DUP3 DUP1 SLOAD PUSH2 0x90C SWAP1 PUSH2 0x5541 JUMP JUMPDEST DUP1 ISZERO PUSH2 0x959 JUMPI DUP1 PUSH1 0x1F LT PUSH2 0x92E JUMPI PUSH2 0x100 DUP1 DUP4 SLOAD DIV MUL DUP4 MSTORE SWAP2 PUSH1 0x20 ADD SWAP2 PUSH2 0x959 JUMP JUMPDEST DUP3 ADD SWAP2 SWAP1 PUSH1 0x0 MSTORE PUSH1 0x20 PUSH1 0x0 KECCAK256 SWAP1 JUMPDEST DUP2 SLOAD DUP2 MSTORE SWAP1 PUSH1 0x1 ADD SWAP1 PUSH1 0x20 ADD DUP1 DUP4 GT PUSH2 0x93C JUMPI DUP3 SWAP1 SUB PUSH1 0x1F AND DUP3 ADD SWAP2 JUMPDEST POP POP POP POP POP SWAP1 POP SWAP1 JUMP JUMPDEST PUSH1 0x0 DUP1 TIMESTAMP SWAP1 POP PUSH1 0x0 JUMPDEST PUSH1 0x11 DUP1 SLOAD SWAP1 POP DUP2 LT ISZERO PUSH2 0xA53 JUMPI PUSH1 0x0 PUSH1 0x2 DUP2 GT ISZERO PUSH2 0x98D JUMPI PUSH2 0x98C PUSH2 0x496A JUMP JUMPDEST JUMPDEST PUSH1 0x11 DUP3 DUP2 SLOAD DUP2 LT PUSH2 0x9A1 JUMPI PUSH2 0x9A0 PUSH2 0x5572 JUMP JUMPDEST JUMPDEST SWAP1 PUSH1 0x0 MSTORE PUSH1 0x20 PUSH1 0x0 KECCAK256 SWAP1 PUSH1 0x9 MUL ADD PUSH1 0x0 ADD PUSH1 0x0 SWAP1 SLOAD SWAP1 PUSH2 0x100 EXP SWAP1 DIV PUSH1 0xFF AND PUSH1 0x2 DUP2 GT ISZERO PUSH2 0x9D2 JUMPI PUSH2 0x9D1 PUSH2 0x496A JUMP JUMPDEST JUMPDEST EQ ISZERO DUP1 ISZERO PUSH2 0xA05 JUMPI POP PUSH1 0x11 DUP2 DUP2 SLOAD DUP2 LT PUSH2 0x9EF JUMPI PUSH2 0x9EE PUSH2 0x5572 JUMP JUMPDEST JUMPDEST SWAP1 PUSH1 0x0 MSTORE PUSH1 0x20 PUSH1 0x0 KECCAK256 SWAP1 PUSH1 0x9 MUL ADD PUSH1 0x2 ADD SLOAD DUP3 LT ISZERO JUMPDEST DUP1 ISZERO PUSH2 0xA36 JUMPI POP PUSH1 0x11 DUP2 DUP2 SLOAD DUP2 LT PUSH2 0xA20 JUMPI PUSH2 0xA1F PUSH2 0x5572 JUMP JUMPDEST JUMPDEST SWAP1 PUSH1 0x0 MSTORE PUSH1 0x20 PUSH1 0x0 KECCAK256 SWAP1 PUSH1 0x9 MUL ADD PUSH1 0x3 ADD SLOAD DUP3 GT ISZERO JUMPDEST ISZERO PUSH2 0xA46 JUMPI PUSH1 0x1 SWAP3 POP POP POP PUSH2 0xA5A JUMP JUMPDEST DUP1 DUP1 PUSH1 0x1 ADD SWAP2 POP POP PUSH2 0x96C JUMP JUMPDEST POP PUSH1 0x0 SWAP2 POP POP JUMPDEST SWAP1 JUMP JUMPDEST PUSH1 0x0 PUSH2 0xA68 DUP3 PUSH2 0x27A0 JUMP JUMPDEST POP PUSH2 0xA72 DUP3 PUSH2 0x2828 JUMP JUMPDEST SWAP1 POP SWAP2 SWAP1 POP JUMP JUMPDEST PUSH2 0xA8B DUP3 DUP3 PUSH2 0xA86 PUSH2 0x2865 JUMP JUMPDEST PUSH2 0x286D JUMP JUMPDEST POP POP JUMP JUMPDEST PUSH1 0x0 PUSH1 0xC DUP1 SLOAD SWAP1 POP SWAP1 POP SWAP1 JUMP JUMPDEST PUSH1 0x0 PUSH2 0xAA6 PUSH2 0x4633 JUMP JUMPDEST PUSH2 0xAAE PUSH2 0x287F JUMP JUMPDEST DUP1 PUSH1 0x40 MLOAD DUP1 PUSH2 0x120 ADD PUSH1 0x40 MSTORE SWAP1 DUP2 PUSH1 0x0 DUP3 ADD PUSH1 0x0 SWAP1 SLOAD SWAP1 PUSH2 0x100 EXP SWAP1 DIV PUSH1 0xFF AND PUSH1 0x2 DUP2 GT ISZERO PUSH2 0xAE0 JUMPI PUSH2 0xADF PUSH2 0x496A JUMP JUMPDEST JUMPDEST PUSH1 0x2 DUP2 GT ISZERO PUSH2 0xAF2 JUMPI PUSH2 0xAF1 PUSH2 0x496A JUMP JUMPDEST JUMPDEST DUP2 MSTORE PUSH1 0x20 ADD PUSH1 0x1 DUP3 ADD SLOAD DUP2 MSTORE PUSH1 0x20 ADD PUSH1 0x2 DUP3 ADD SLOAD DUP2 MSTORE PUSH1 0x20 ADD PUSH1 0x3 DUP3 ADD SLOAD DUP2 MSTORE PUSH1 0x20 ADD PUSH1 0x4 DUP3 ADD SLOAD DUP2 MSTORE PUSH1 0x20 ADD PUSH1 0x5 DUP3 ADD SLOAD DUP2 MSTORE PUSH1 0x20 ADD PUSH1 0x6 DUP3 ADD SLOAD DUP2 MSTORE PUSH1 0x20 ADD PUSH1 0x7 DUP3 ADD SLOAD DUP2 MSTORE PUSH1 0x20 ADD PUSH1 0x8 DUP3 ADD SLOAD DUP2 MSTORE POP POP SWAP1 POP SWAP2 POP SWAP2 POP SWAP1 SWAP2 JUMP JUMPDEST PUSH1 0x0 PUSH20 0xFFFFFFFFFFFFFFFFFFFFFFFFFFFFFFFFFFFFFFFF AND DUP3 PUSH20 0xFFFFFFFFFFFFFFFFFFFFFFFFFFFFFFFFFFFFFFFF AND SUB PUSH2 0xBC2 JUMPI PUSH1 0x0 PUSH1 0x40 MLOAD PUSH32 0x64A0AE9200000000000000000000000000000000000000000000000000000000 DUP2 MSTORE PUSH1 0x4 ADD PUSH2 0xBB9 SWAP2 SWAP1 PUSH2 0x48B9 JUMP JUMPDEST PUSH1 0x40 MLOAD DUP1 SWAP2 SUB SWAP1 REVERT JUMPDEST PUSH1 0x0 PUSH2 0xBD6 DUP4 DUP4 PUSH2 0xBD1 PUSH2 0x2865 JUMP JUMPDEST PUSH2 0x29CB JUMP JUMPDEST SWAP1 POP DUP4 PUSH20 0xFFFFFFFFFFFFFFFFFFFFFFFFFFFFFFFFFFFFFFFF AND DUP2 PUSH20 0xFFFFFFFFFFFFFFFFFFFFFFFFFFFFFFFFFFFFFFFF AND EQ PUSH2 0xC4C JUMPI DUP4 DUP3 DUP3 PUSH1 0x40 MLOAD PUSH32 0x64283D7B00000000000000000000000000000000000000000000000000000000 DUP2 MSTORE PUSH1 0x4 ADD PUSH2 0xC43 SWAP4 SWAP3 SWAP2 SWAP1 PUSH2 0x55A1 JUMP JUMPDEST PUSH1 0x40 MLOAD DUP1 SWAP2 SUB SWAP1 REVERT JUMPDEST POP POP POP POP JUMP JUMPDEST PUSH1 0x0 DUP1 PUSH1 0x0 PUSH1 0x8 PUSH1 0x0 DUP7 DUP2 MSTORE PUSH1 0x20 ADD SWAP1 DUP2 MSTORE PUSH1 0x20 ADD PUSH1 0x0 KECCAK256 SWAP1 POP PUSH1 0x0 DUP2 PUSH1 0x0 ADD PUSH1 0x0 SWAP1 SLOAD SWAP1 PUSH2 0x100 EXP SWAP1 DIV PUSH20 0xFFFFFFFFFFFFFFFFFFFFFFFFFFFFFFFFFFFFFFFF AND SWAP1 POP PUSH1 0x0 DUP3 PUSH1 0x0 ADD PUSH1 0x14 SWAP1 SLOAD SWAP1 PUSH2 0x100 EXP SWAP1 DIV PUSH12 0xFFFFFFFFFFFFFFFFFFFFFFFF AND SWAP1 POP PUSH1 0x0 PUSH20 0xFFFFFFFFFFFFFFFFFFFFFFFFFFFFFFFFFFFFFFFF AND DUP3 PUSH20 0xFFFFFFFFFFFFFFFFFFFFFFFFFFFFFFFFFFFFFFFF AND SUB PUSH2 0xD33 JUMPI PUSH1 0x7 PUSH1 0x0 ADD PUSH1 0x0 SWAP1 SLOAD SWAP1 PUSH2 0x100 EXP SWAP1 DIV PUSH20 0xFFFFFFFFFFFFFFFFFFFFFFFFFFFFFFFFFFFFFFFF AND SWAP2 POP PUSH1 0x7 PUSH1 0x0 ADD PUSH1 0x14 SWAP1 SLOAD SWAP1 PUSH2 0x100 EXP SWAP1 DIV PUSH12 0xFFFFFFFFFFFFFFFFFFFFFFFF AND SWAP1 POP JUMPDEST PUSH1 0x0 PUSH2 0xD3D PUSH2 0x29E1 JUMP JUMPDEST PUSH12 0xFFFFFFFFFFFFFFFFFFFFFFFF AND DUP3 PUSH12 0xFFFFFFFFFFFFFFFFFFFFFFFF AND DUP9 PUSH2 0xD65 SWAP2 SWAP1 PUSH2 0x5607 JUMP JUMPDEST PUSH2 0xD6F SWAP2 SWAP1 PUSH2 0x5678 JUMP JUMPDEST SWAP1 POP DUP3 DUP2 SWAP6 POP SWAP6 POP POP POP POP POP SWAP3 POP SWAP3 SWAP1 POP JUMP JUMPDEST PUSH1 0x0 PUSH1 0x10 PUSH1 0x0 DUP4 PUSH20 0xFFFFFFFFFFFFFFFFFFFFFFFFFFFFFFFFFFFFFFFF AND PUSH20 0xFFFFFFFFFFFFFFFFFFFFFFFFFFFFFFFFFFFFFFFF AND DUP2 MSTORE PUSH1 0x20 ADD SWAP1 DUP2 MSTORE PUSH1 0x20 ADD PUSH1 0x0 KECCAK256 SLOAD SWAP1 POP SWAP2 SWAP1 POP JUMP JUMPDEST PUSH1 0x11 DUP2 DUP2 SLOAD DUP2 LT PUSH2 0xDDB JUMPI PUSH1 0x0 DUP1 REVERT JUMPDEST SWAP1 PUSH1 0x0 MSTORE PUSH1 0x20 PUSH1 0x0 KECCAK256 SWAP1 PUSH1 0x9 MUL ADD PUSH1 0x0 SWAP2 POP SWAP1 POP DUP1 PUSH1 0x0 ADD PUSH1 0x0 SWAP1 SLOAD SWAP1 PUSH2 0x100 EXP SWAP1 DIV PUSH1 0xFF AND SWAP1 DUP1 PUSH1 0x1 ADD SLOAD SWAP1 DUP1 PUSH1 0x2 ADD SLOAD SWAP1 DUP1 PUSH1 0x3 ADD SLOAD SWAP1 DUP1 PUSH1 0x4 ADD SLOAD SWAP1 DUP1 PUSH1 0x5 ADD SLOAD SWAP1 DUP1 PUSH1 0x6 ADD SLOAD SWAP1 DUP1 PUSH1 0x7 ADD SLOAD SWAP1 DUP1 PUSH1 0x8 ADD SLOAD SWAP1 POP DUP10 JUMP JUMPDEST PUSH1 0x0 PUSH2 0xE41 DUP4 PUSH2 0x10FE JUMP JUMPDEST DUP3 LT PUSH2 0xE86 JUMPI DUP3 DUP3 PUSH1 0x40 MLOAD PUSH32 0xA57D13DC00000000000000000000000000000000000000000000000000000000 DUP2 MSTORE PUSH1 0x4 ADD PUSH2 0xE7D SWAP3 SWAP2 SWAP1 PUSH2 0x4B7D JUMP JUMPDEST PUSH1 0x40 MLOAD DUP1 SWAP2 SUB SWAP1 REVERT JUMPDEST PUSH1 0xA PUSH1 0x0 DUP5 PUSH20 0xFFFFFFFFFFFFFFFFFFFFFFFFFFFFFFFFFFFFFFFF AND PUSH20 0xFFFFFFFFFFFFFFFFFFFFFFFFFFFFFFFFFFFFFFFF AND DUP2 MSTORE PUSH1 0x20 ADD SWAP1 DUP2 MSTORE PUSH1 0x20 ADD PUSH1 0x0 KECCAK256 PUSH1 0x0 DUP4 DUP2 MSTORE PUSH1 0x20 ADD SWAP1 DUP2 MSTORE PUSH1 0x20 ADD PUSH1 0x0 KECCAK256 SLOAD SWAP1 POP SWAP3 SWAP2 POP POP JUMP JUMPDEST PUSH2 0xEE7 PUSH2 0x29EB JUMP JUMPDEST PUSH1 0x0 SELFBALANCE SWAP1 POP PUSH1 0x0 DUP2 GT PUSH2 0xF2F JUMPI PUSH1 0x40 MLOAD PUSH32 0x8C379A000000000000000000000000000000000000000000000000000000000 DUP2 MSTORE PUSH1 0x4 ADD PUSH2 0xF26 SWAP1 PUSH2 0x56F5 JUMP JUMPDEST PUSH1 0x40 MLOAD DUP1 SWAP2 SUB SWAP1 REVERT JUMPDEST PUSH1 0x0 PUSH2 0xF39 PUSH2 0x167C JUMP JUMPDEST PUSH20 0xFFFFFFFFFFFFFFFFFFFFFFFFFFFFFFFFFFFFFFFF AND DUP3 PUSH1 0x40 MLOAD PUSH2 0xF5C SWAP1 PUSH2 0x5746 JUMP JUMPDEST PUSH1 0x0 PUSH1 0x40 MLOAD DUP1 DUP4 SUB DUP2 DUP6 DUP8 GAS CALL SWAP3 POP POP POP RETURNDATASIZE DUP1 PUSH1 0x0 DUP2 EQ PUSH2 0xF99 JUMPI PUSH1 0x40 MLOAD SWAP2 POP PUSH1 0x1F NOT PUSH1 0x3F RETURNDATASIZE ADD AND DUP3 ADD PUSH1 0x40 MSTORE RETURNDATASIZE DUP3 MSTORE RETURNDATASIZE PUSH1 0x0 PUSH1 0x20 DUP5 ADD RETURNDATACOPY PUSH2 0xF9E JUMP JUMPDEST PUSH1 0x60 SWAP2 POP JUMPDEST POP POP SWAP1 POP DUP1 PUSH2 0xFD9 JUMPI PUSH1 0x40 MLOAD PUSH32 0x90B8EC1800000000000000000000000000000000000000000000000000000000 DUP2 MSTORE PUSH1 0x4 ADD PUSH1 0x40 MLOAD DUP1 SWAP2 SUB SWAP1 REVERT JUMPDEST PUSH2 0xFE1 PUSH2 0x167C JUMP JUMPDEST PUSH20 0xFFFFFFFFFFFFFFFFFFFFFFFFFFFFFFFFFFFFFFFF AND PUSH32 0x60188009B974C2FA66EE3B916D93F64D6534EA2204E0C466F9784ACE689E8E49 DUP4 PUSH1 0x40 MLOAD PUSH2 0x1026 SWAP2 SWAP1 PUSH2 0x494F JUMP JUMPDEST PUSH1 0x40 MLOAD DUP1 SWAP2 SUB SWAP1 LOG2 POP POP JUMP JUMPDEST PUSH2 0x104D DUP4 DUP4 DUP4 PUSH1 0x40 MLOAD DUP1 PUSH1 0x20 ADD PUSH1 0x40 MSTORE DUP1 PUSH1 0x0 DUP2 MSTORE POP PUSH2 0x1AF7 JUMP JUMPDEST POP POP POP JUMP JUMPDEST PUSH1 0x0 PUSH2 0x105C PUSH2 0xA8F JUMP JUMPDEST DUP3 LT PUSH2 0x10A2 JUMPI PUSH1 0x0 DUP3 PUSH1 0x40 MLOAD PUSH32 0xA57D13DC00000000000000000000000000000000000000000000000000000000 DUP2 MSTORE PUSH1 0x4 ADD PUSH2 0x1099 SWAP3 SWAP2 SWAP1 PUSH2 0x4B7D JUMP JUMPDEST PUSH1 0x40 MLOAD DUP1 SWAP2 SUB SWAP1 REVERT JUMPDEST PUSH1 0xC DUP3 DUP2 SLOAD DUP2 LT PUSH2 0x10B6 JUMPI PUSH2 0x10B5 PUSH2 0x5572 JUMP JUMPDEST JUMPDEST SWAP1 PUSH1 0x0 MSTORE PUSH1 0x20 PUSH1 0x0 KECCAK256 ADD SLOAD SWAP1 POP SWAP2 SWAP1 POP JUMP JUMPDEST PUSH1 0x0 PUSH2 0x10D3 DUP3 PUSH2 0x27A0 JUMP JUMPDEST SWAP1 POP SWAP2 SWAP1 POP JUMP JUMPDEST PUSH32 0x0 DUP2 JUMP JUMPDEST PUSH1 0x0 DUP1 PUSH20 0xFFFFFFFFFFFFFFFFFFFFFFFFFFFFFFFFFFFFFFFF AND DUP3 PUSH20 0xFFFFFFFFFFFFFFFFFFFFFFFFFFFFFFFFFFFFFFFF AND SUB PUSH2 0x1171 JUMPI PUSH1 0x0 PUSH1 0x40 MLOAD PUSH32 0x89C62B6400000000000000000000000000000000000000000000000000000000 DUP2 MSTORE PUSH1 0x4 ADD PUSH2 0x1168 SWAP2 SWAP1 PUSH2 0x48B9 JUMP JUMPDEST PUSH1 0x40 MLOAD DUP1 SWAP2 SUB SWAP1 REVERT JUMPDEST PUSH1 0x3 PUSH1 0x0 DUP4 PUSH20 0xFFFFFFFFFFFFFFFFFFFFFFFFFFFFFFFFFFFFFFFF AND PUSH20 0xFFFFFFFFFFFFFFFFFFFFFFFFFFFFFFFFFFFFFFFF AND DUP2 MSTORE PUSH1 0x20 ADD SWAP1 DUP2 MSTORE PUSH1 0x20 ADD PUSH1 0x0 KECCAK256 SLOAD SWAP1 POP SWAP2 SWAP1 POP JUMP JUMPDEST PUSH2 0x11C0 PUSH2 0x29EB JUMP JUMPDEST PUSH2 0x11CA PUSH1 0x0 PUSH2 0x2A72 JUMP JUMPDEST JUMP JUMPDEST PUSH2 0x11D4 PUSH2 0x29EB JUMP JUMPDEST DUP5 DUP7 LT PUSH2 0x1216 JUMPI PUSH1 0x40 MLOAD PUSH32 0x8C379A000000000000000000000000000000000000000000000000000000000 DUP2 MSTORE PUSH1 0x4 ADD PUSH2 0x120D SWAP1 PUSH2 0x57A7 JUMP JUMPDEST PUSH1 0x40 MLOAD DUP1 SWAP2 SUB SWAP1 REVERT JUMPDEST PUSH1 0x2 DUP1 DUP2 GT ISZERO PUSH2 0x1229 JUMPI PUSH2 0x1228 PUSH2 0x496A JUMP JUMPDEST JUMPDEST DUP9 PUSH1 0x2 DUP2 GT ISZERO PUSH2 0x123C JUMPI PUSH2 0x123B PUSH2 0x496A JUMP JUMPDEST JUMPDEST SUB ISZERO PUSH2 0x130E JUMPI PUSH1 0x0 DUP4 GT PUSH2 0x1285 JUMPI PUSH1 0x40 MLOAD PUSH32 0x8C379A000000000000000000000000000000000000000000000000000000000 DUP2 MSTORE PUSH1 0x4 ADD PUSH2 0x127C SWAP1 PUSH2 0x5839 JUMP JUMPDEST PUSH1 0x40 MLOAD DUP1 SWAP2 SUB SWAP1 REVERT JUMPDEST PUSH1 0x0 DUP3 GT PUSH2 0x12C8 JUMPI PUSH1 0x40 MLOAD PUSH32 0x8C379A000000000000000000000000000000000000000000000000000000000 DUP2 MSTORE PUSH1 0x4 ADD PUSH2 0x12BF SWAP1 PUSH2 0x58CB JUMP JUMPDEST PUSH1 0x40 MLOAD DUP1 SWAP2 SUB SWAP1 REVERT JUMPDEST PUSH1 0x0 DUP1 SHL DUP2 SUB PUSH2 0x130D JUMPI PUSH1 0x40 MLOAD PUSH32 0x8C379A000000000000000000000000000000000000000000000000000000000 DUP2 MSTORE PUSH1 0x4 ADD PUSH2 0x1304 SWAP1 PUSH2 0x595D JUMP JUMPDEST PUSH1 0x40 MLOAD DUP1 SWAP2 SUB SWAP1 REVERT JUMPDEST JUMPDEST PUSH1 0x0 JUMPDEST PUSH1 0x11 DUP1 SLOAD SWAP1 POP DUP2 LT ISZERO PUSH2 0x146F JUMPI PUSH1 0x0 PUSH1 0x11 DUP3 DUP2 SLOAD DUP2 LT PUSH2 0x1334 JUMPI PUSH2 0x1333 PUSH2 0x5572 JUMP JUMPDEST JUMPDEST SWAP1 PUSH1 0x0 MSTORE PUSH1 0x20 PUSH1 0x0 KECCAK256 SWAP1 PUSH1 0x9 MUL ADD PUSH1 0x40 MLOAD DUP1 PUSH2 0x120 ADD PUSH1 0x40 MSTORE SWAP1 DUP2 PUSH1 0x0 DUP3 ADD PUSH1 0x0 SWAP1 SLOAD SWAP1 PUSH2 0x100 EXP SWAP1 DIV PUSH1 0xFF AND PUSH1 0x2 DUP2 GT ISZERO PUSH2 0x1373 JUMPI PUSH2 0x1372 PUSH2 0x496A JUMP JUMPDEST JUMPDEST PUSH1 0x2 DUP2 GT ISZERO PUSH2 0x1385 JUMPI PUSH2 0x1384 PUSH2 0x496A JUMP JUMPDEST JUMPDEST DUP2 MSTORE PUSH1 0x20 ADD PUSH1 0x1 DUP3 ADD SLOAD DUP2 MSTORE PUSH1 0x20 ADD PUSH1 0x2 DUP3 ADD SLOAD DUP2 MSTORE PUSH1 0x20 ADD PUSH1 0x3 DUP3 ADD SLOAD DUP2 MSTORE PUSH1 0x20 ADD PUSH1 0x4 DUP3 ADD SLOAD DUP2 MSTORE PUSH1 0x20 ADD PUSH1 0x5 DUP3 ADD SLOAD DUP2 MSTORE PUSH1 0x20 ADD PUSH1 0x6 DUP3 ADD SLOAD DUP2 MSTORE PUSH1 0x20 ADD PUSH1 0x7 DUP3 ADD SLOAD DUP2 MSTORE PUSH1 0x20 ADD PUSH1 0x8 DUP3 ADD SLOAD DUP2 MSTORE POP POP SWAP1 POP PUSH1 0x0 PUSH1 0x2 DUP2 GT ISZERO PUSH2 0x13EF JUMPI PUSH2 0x13EE PUSH2 0x496A JUMP JUMPDEST JUMPDEST DUP2 PUSH1 0x0 ADD MLOAD PUSH1 0x2 DUP2 GT ISZERO PUSH2 0x1406 JUMPI PUSH2 0x1405 PUSH2 0x496A JUMP JUMPDEST JUMPDEST SUB PUSH2 0x1411 JUMPI POP PUSH2 0x1462 JUMP JUMPDEST DUP1 PUSH1 0x60 ADD MLOAD DUP9 GT ISZERO DUP1 ISZERO PUSH2 0x1429 JUMPI POP DUP1 PUSH1 0x40 ADD MLOAD DUP8 LT ISZERO JUMPDEST ISZERO PUSH2 0x1460 JUMPI PUSH1 0x40 MLOAD PUSH32 0x27FDFACF00000000000000000000000000000000000000000000000000000000 DUP2 MSTORE PUSH1 0x4 ADD PUSH1 0x40 MLOAD DUP1 SWAP2 SUB SWAP1 REVERT JUMPDEST POP JUMPDEST DUP1 DUP1 PUSH1 0x1 ADD SWAP2 POP POP PUSH2 0x1311 JUMP JUMPDEST POP PUSH1 0x0 PUSH1 0x40 MLOAD DUP1 PUSH2 0x120 ADD PUSH1 0x40 MSTORE DUP1 DUP11 PUSH1 0x2 DUP2 GT ISZERO PUSH2 0x1491 JUMPI PUSH2 0x1490 PUSH2 0x496A JUMP JUMPDEST JUMPDEST DUP2 MSTORE PUSH1 0x20 ADD DUP10 DUP2 MSTORE PUSH1 0x20 ADD DUP9 DUP2 MSTORE PUSH1 0x20 ADD DUP8 DUP2 MSTORE PUSH1 0x20 ADD DUP7 DUP2 MSTORE PUSH1 0x20 ADD DUP6 DUP2 MSTORE PUSH1 0x20 ADD DUP5 DUP2 MSTORE PUSH1 0x20 ADD PUSH1 0x0 DUP2 MSTORE PUSH1 0x20 ADD DUP4 DUP2 MSTORE POP SWAP1 POP PUSH1 0x0 PUSH1 0x11 DUP1 SLOAD SWAP1 POP SWAP1 POP PUSH1 0x11 DUP3 SWAP1 DUP1 PUSH1 0x1 DUP2 SLOAD ADD DUP1 DUP3 SSTORE DUP1 SWAP2 POP POP PUSH1 0x1 SWAP1 SUB SWAP1 PUSH1 0x0 MSTORE PUSH1 0x20 PUSH1 0x0 KECCAK256 SWAP1 PUSH1 0x9 MUL ADD PUSH1 0x0 SWAP1 SWAP2 SWAP1 SWAP2 SWAP1 SWAP2 POP PUSH1 0x0 DUP3 ADD MLOAD DUP2 PUSH1 0x0 ADD PUSH1 0x0 PUSH2 0x100 EXP DUP2 SLOAD DUP2 PUSH1 0xFF MUL NOT AND SWAP1 DUP4 PUSH1 0x2 DUP2 GT ISZERO PUSH2 0x1528 JUMPI PUSH2 0x1527 PUSH2 0x496A JUMP JUMPDEST JUMPDEST MUL OR SWAP1 SSTORE POP PUSH1 0x20 DUP3 ADD MLOAD DUP2 PUSH1 0x1 ADD SSTORE PUSH1 0x40 DUP3 ADD MLOAD DUP2 PUSH1 0x2 ADD SSTORE PUSH1 0x60 DUP3 ADD MLOAD DUP2 PUSH1 0x3 ADD SSTORE PUSH1 0x80 DUP3 ADD MLOAD DUP2 PUSH1 0x4 ADD SSTORE PUSH1 0xA0 DUP3 ADD MLOAD DUP2 PUSH1 0x5 ADD SSTORE PUSH1 0xC0 DUP3 ADD MLOAD DUP2 PUSH1 0x6 ADD SSTORE PUSH1 0xE0 DUP3 ADD MLOAD DUP2 PUSH1 0x7 ADD SSTORE PUSH2 0x100 DUP3 ADD MLOAD DUP2 PUSH1 0x8 ADD SSTORE POP POP DUP1 PUSH32 0xC1E64363396EF448152A5ABCCF24231295B872B93E1B6A53908FF34C8390A78 DUP12 DUP12 DUP12 DUP12 DUP12 DUP12 DUP12 DUP12 PUSH1 0x40 MLOAD PUSH2 0x15BE SWAP9 SWAP8 SWAP7 SWAP6 SWAP5 SWAP4 SWAP3 SWAP2 SWAP1 PUSH2 0x597D JUMP JUMPDEST PUSH1 0x40 MLOAD DUP1 SWAP2 SUB SWAP1 LOG2 POP POP POP POP POP POP POP POP POP POP JUMP JUMPDEST PUSH1 0x0 PUSH1 0x60 DUP1 PUSH1 0x0 DUP1 PUSH1 0x0 PUSH1 0x60 PUSH2 0x15E6 PUSH2 0x2B38 JUMP JUMPDEST PUSH2 0x15EE PUSH2 0x2B73 JUMP JUMPDEST CHAINID ADDRESS PUSH1 0x0 DUP1 SHL PUSH1 0x0 PUSH8 0xFFFFFFFFFFFFFFFF DUP2 GT ISZERO PUSH2 0x160F JUMPI PUSH2 0x160E PUSH2 0x5033 JUMP JUMPDEST JUMPDEST PUSH1 0x40 MLOAD SWAP1 DUP1 DUP3 MSTORE DUP1 PUSH1 0x20 MUL PUSH1 0x20 ADD DUP3 ADD PUSH1 0x40 MSTORE DUP1 ISZERO PUSH2 0x163D JUMPI DUP2 PUSH1 0x20 ADD PUSH1 0x20 DUP3 MUL DUP1 CALLDATASIZE DUP4 CALLDATACOPY DUP1 DUP3 ADD SWAP2 POP POP SWAP1 POP JUMPDEST POP PUSH32 0xF00000000000000000000000000000000000000000000000000000000000000 SWAP6 SWAP5 SWAP4 SWAP3 SWAP2 SWAP1 SWAP7 POP SWAP7 POP SWAP7 POP SWAP7 POP SWAP7 POP SWAP7 POP SWAP7 POP SWAP1 SWAP2 SWAP3 SWAP4 SWAP5 SWAP6 SWAP7 JUMP JUMPDEST PUSH1 0x0 PUSH1 0x9 PUSH1 0x0 SWAP1 SLOAD SWAP1 PUSH2 0x100 EXP SWAP1 DIV PUSH20 0xFFFFFFFFFFFFFFFFFFFFFFFFFFFFFFFFFFFFFFFF AND SWAP1 POP SWAP1 JUMP JUMPDEST PUSH1 0x60 PUSH1 0x1 DUP1 SLOAD PUSH2 0x16B5 SWAP1 PUSH2 0x5541 JUMP JUMPDEST DUP1 PUSH1 0x1F ADD PUSH1 0x20 DUP1 SWAP2 DIV MUL PUSH1 0x20 ADD PUSH1 0x40 MLOAD SWAP1 DUP2 ADD PUSH1 0x40 MSTORE DUP1 SWAP3 SWAP2 SWAP1 DUP2 DUP2 MSTORE PUSH1 0x20 ADD DUP3 DUP1 SLOAD PUSH2 0x16E1 SWAP1 PUSH2 0x5541 JUMP JUMPDEST DUP1 ISZERO PUSH2 0x172E JUMPI DUP1 PUSH1 0x1F LT PUSH2 0x1703 JUMPI PUSH2 0x100 DUP1 DUP4 SLOAD DIV MUL DUP4 MSTORE SWAP2 PUSH1 0x20 ADD SWAP2 PUSH2 0x172E JUMP JUMPDEST DUP3 ADD SWAP2 SWAP1 PUSH1 0x0 MSTORE PUSH1 0x20 PUSH1 0x0 KECCAK256 SWAP1 JUMPDEST DUP2 SLOAD DUP2 MSTORE SWAP1 PUSH1 0x1 ADD SWAP1 PUSH1 0x20 ADD DUP1 DUP4 GT PUSH2 0x1711 JUMPI DUP3 SWAP1 SUB PUSH1 0x1F AND DUP3 ADD SWAP2 JUMPDEST POP POP POP POP POP SWAP1 POP SWAP1 JUMP JUMPDEST PUSH2 0x174A PUSH2 0x1743 PUSH2 0x2865 JUMP JUMPDEST DUP4 DUP4 PUSH2 0x2BAE JUMP JUMPDEST POP POP JUMP JUMPDEST PUSH2 0x1756 PUSH2 0x29EB JUMP JUMPDEST PUSH1 0x11 DUP1 SLOAD SWAP1 POP DUP10 LT PUSH2 0x1794 JUMPI PUSH1 0x40 MLOAD PUSH32 0x3D911D5700000000000000000000000000000000000000000000000000000000 DUP2 MSTORE PUSH1 0x4 ADD PUSH1 0x40 MLOAD DUP1 SWAP2 SUB SWAP1 REVERT JUMPDEST DUP5 DUP7 LT PUSH2 0x17CD JUMPI PUSH1 0x40 MLOAD PUSH32 0x514C71C200000000000000000000000000000000000000000000000000000000 DUP2 MSTORE PUSH1 0x4 ADD PUSH1 0x40 MLOAD DUP1 SWAP2 SUB SWAP1 REVERT JUMPDEST PUSH1 0x2 DUP1 DUP2 GT ISZERO PUSH2 0x17E0 JUMPI PUSH2 0x17DF PUSH2 0x496A JUMP JUMPDEST JUMPDEST DUP9 PUSH1 0x2 DUP2 GT ISZERO PUSH2 0x17F3 JUMPI PUSH2 0x17F2 PUSH2 0x496A JUMP JUMPDEST JUMPDEST SUB ISZERO PUSH2 0x18AA JUMPI PUSH1 0x0 DUP4 SUB PUSH2 0x1833 JUMPI PUSH1 0x40 MLOAD PUSH32 0x514C71C200000000000000000000000000000000000000000000000000000000 DUP2 MSTORE PUSH1 0x4 ADD PUSH1 0x40 MLOAD DUP1 SWAP2 SUB SWAP1 REVERT JUMPDEST PUSH1 0x0 DUP3 SUB PUSH2 0x186D JUMPI PUSH1 0x40 MLOAD PUSH32 0x514C71C200000000000000000000000000000000000000000000000000000000 DUP2 MSTORE PUSH1 0x4 ADD PUSH1 0x40 MLOAD DUP1 SWAP2 SUB SWAP1 REVERT JUMPDEST PUSH1 0x0 DUP1 SHL DUP2 SUB PUSH2 0x18A9 JUMPI PUSH1 0x40 MLOAD PUSH32 0x514C71C200000000000000000000000000000000000000000000000000000000 DUP2 MSTORE PUSH1 0x4 ADD PUSH1 0x40 MLOAD DUP1 SWAP2 SUB SWAP1 REVERT JUMPDEST JUMPDEST PUSH1 0x0 JUMPDEST PUSH1 0x11 DUP1 SLOAD SWAP1 POP DUP2 LT ISZERO PUSH2 0x1A13 JUMPI DUP10 DUP2 SUB ISZERO PUSH2 0x1A06 JUMPI PUSH1 0x0 PUSH1 0x11 DUP3 DUP2 SLOAD DUP2 LT PUSH2 0x18D8 JUMPI PUSH2 0x18D7 PUSH2 0x5572 JUMP JUMPDEST JUMPDEST SWAP1 PUSH1 0x0 MSTORE PUSH1 0x20 PUSH1 0x0 KECCAK256 SWAP1 PUSH1 0x9 MUL ADD PUSH1 0x40 MLOAD DUP1 PUSH2 0x120 ADD PUSH1 0x40 MSTORE SWAP1 DUP2 PUSH1 0x0 DUP3 ADD PUSH1 0x0 SWAP1 SLOAD SWAP1 PUSH2 0x100 EXP SWAP1 DIV PUSH1 0xFF AND PUSH1 0x2 DUP2 GT ISZERO PUSH2 0x1917 JUMPI PUSH2 0x1916 PUSH2 0x496A JUMP JUMPDEST JUMPDEST PUSH1 0x2 DUP2 GT ISZERO PUSH2 0x1929 JUMPI PUSH2 0x1928 PUSH2 0x496A JUMP JUMPDEST JUMPDEST DUP2 MSTORE PUSH1 0x20 ADD PUSH1 0x1 DUP3 ADD SLOAD DUP2 MSTORE PUSH1 0x20 ADD PUSH1 0x2 DUP3 ADD SLOAD DUP2 MSTORE PUSH1 0x20 ADD PUSH1 0x3 DUP3 ADD SLOAD DUP2 MSTORE PUSH1 0x20 ADD PUSH1 0x4 DUP3 ADD SLOAD DUP2 MSTORE PUSH1 0x20 ADD PUSH1 0x5 DUP3 ADD SLOAD DUP2 MSTORE PUSH1 0x20 ADD PUSH1 0x6 DUP3 ADD SLOAD DUP2 MSTORE PUSH1 0x20 ADD PUSH1 0x7 DUP3 ADD SLOAD DUP2 MSTORE PUSH1 0x20 ADD PUSH1 0x8 DUP3 ADD SLOAD DUP2 MSTORE POP POP SWAP1 POP PUSH1 0x0 PUSH1 0x2 DUP2 GT ISZERO PUSH2 0x1993 JUMPI PUSH2 0x1992 PUSH2 0x496A JUMP JUMPDEST JUMPDEST DUP2 PUSH1 0x0 ADD MLOAD PUSH1 0x2 DUP2 GT ISZERO PUSH2 0x19AA JUMPI PUSH2 0x19A9 PUSH2 0x496A JUMP JUMPDEST JUMPDEST SUB PUSH2 0x19B5 JUMPI POP PUSH2 0x1A06 JUMP JUMPDEST DUP1 PUSH1 0x60 ADD MLOAD DUP9 GT ISZERO DUP1 ISZERO PUSH2 0x19CD JUMPI POP DUP1 PUSH1 0x40 ADD MLOAD DUP8 LT ISZERO JUMPDEST ISZERO PUSH2 0x1A04 JUMPI PUSH1 0x40 MLOAD PUSH32 0x27FDFACF00000000000000000000000000000000000000000000000000000000 DUP2 MSTORE PUSH1 0x4 ADD PUSH1 0x40 MLOAD DUP1 SWAP2 SUB SWAP1 REVERT JUMPDEST POP JUMPDEST DUP1 DUP1 PUSH1 0x1 ADD SWAP2 POP POP PUSH2 0x18AD JUMP JUMPDEST POP PUSH1 0x0 PUSH1 0x11 DUP11 DUP2 SLOAD DUP2 LT PUSH2 0x1A2A JUMPI PUSH2 0x1A29 PUSH2 0x5572 JUMP JUMPDEST JUMPDEST SWAP1 PUSH1 0x0 MSTORE PUSH1 0x20 PUSH1 0x0 KECCAK256 SWAP1 PUSH1 0x9 MUL ADD SWAP1 POP DUP9 DUP2 PUSH1 0x0 ADD PUSH1 0x0 PUSH2 0x100 EXP DUP2 SLOAD DUP2 PUSH1 0xFF MUL NOT AND SWAP1 DUP4 PUSH1 0x2 DUP2 GT ISZERO PUSH2 0x1A61 JUMPI PUSH2 0x1A60 PUSH2 0x496A JUMP JUMPDEST JUMPDEST MUL OR SWAP1 SSTORE POP DUP8 DUP2 PUSH1 0x1 ADD DUP2 SWAP1 SSTORE POP DUP7 DUP2 PUSH1 0x2 ADD DUP2 SWAP1 SSTORE POP DUP6 DUP2 PUSH1 0x3 ADD DUP2 SWAP1 SSTORE POP DUP5 DUP2 PUSH1 0x4 ADD DUP2 SWAP1 SSTORE POP DUP4 DUP2 PUSH1 0x5 ADD DUP2 SWAP1 SSTORE POP DUP3 DUP2 PUSH1 0x6 ADD DUP2 SWAP1 SSTORE POP DUP2 DUP2 PUSH1 0x8 ADD DUP2 SWAP1 SSTORE POP DUP10 PUSH32 0x83C587334C090F25E5A6AEC0675C11D1310C8B758FE5A28308A6CF7FF9DB4E53 DUP11 DUP11 DUP11 DUP11 DUP11 DUP11 DUP11 DUP11 PUSH1 0x40 MLOAD PUSH2 0x1AE3 SWAP9 SWAP8 SWAP7 SWAP6 SWAP5 SWAP4 SWAP3 SWAP2 SWAP1 PUSH2 0x597D JUMP JUMPDEST PUSH1 0x40 MLOAD DUP1 SWAP2 SUB SWAP1 LOG2 POP POP POP POP POP POP POP POP POP POP JUMP JUMPDEST PUSH2 0x1B02 DUP5 DUP5 DUP5 PUSH2 0xB50 JUMP JUMPDEST PUSH2 0x1B16 PUSH2 0x1B0D PUSH2 0x2865 JUMP JUMPDEST DUP6 DUP6 DUP6 DUP6 PUSH2 0x2D1D JUMP JUMPDEST POP POP POP POP JUMP JUMPDEST PUSH1 0x60 PUSH2 0x1B27 DUP3 PUSH2 0x2ECE JUMP JUMPDEST SWAP1 POP SWAP2 SWAP1 POP JUMP JUMPDEST PUSH1 0x13 PUSH1 0x0 SWAP1 SLOAD SWAP1 PUSH2 0x100 EXP SWAP1 DIV PUSH12 0xFFFFFFFFFFFFFFFFFFFFFFFF AND DUP2 JUMP JUMPDEST PUSH1 0x0 PUSH1 0x11 DUP1 SLOAD SWAP1 POP SWAP1 POP SWAP1 JUMP JUMPDEST PUSH2 0x1B61 PUSH2 0x29EB JUMP JUMPDEST PUSH2 0x3E8 DUP3 PUSH12 0xFFFFFFFFFFFFFFFFFFFFFFFF AND GT ISZERO PUSH2 0x1BB4 JUMPI PUSH1 0x40 MLOAD PUSH32 0x8C379A000000000000000000000000000000000000000000000000000000000 DUP2 MSTORE PUSH1 0x4 ADD PUSH2 0x1BAB SWAP1 PUSH2 0x5A47 JUMP JUMPDEST PUSH1 0x40 MLOAD DUP1 SWAP2 SUB SWAP1 REVERT JUMPDEST PUSH1 0x0 PUSH20 0xFFFFFFFFFFFFFFFFFFFFFFFFFFFFFFFFFFFFFFFF AND DUP2 PUSH20 0xFFFFFFFFFFFFFFFFFFFFFFFFFFFFFFFFFFFFFFFF AND SUB PUSH2 0x1C23 JUMPI PUSH1 0x40 MLOAD PUSH32 0x8C379A000000000000000000000000000000000000000000000000000000000 DUP2 MSTORE PUSH1 0x4 ADD PUSH2 0x1C1A SWAP1 PUSH2 0x5AB3 JUMP JUMPDEST PUSH1 0x40 MLOAD DUP1 SWAP2 SUB SWAP1 REVERT JUMPDEST DUP2 PUSH1 0x13 PUSH1 0x0 PUSH2 0x100 EXP DUP2 SLOAD DUP2 PUSH12 0xFFFFFFFFFFFFFFFFFFFFFFFF MUL NOT AND SWAP1 DUP4 PUSH12 0xFFFFFFFFFFFFFFFFFFFFFFFF AND MUL OR SWAP1 SSTORE POP DUP1 PUSH1 0x13 PUSH1 0xC PUSH2 0x100 EXP DUP2 SLOAD DUP2 PUSH20 0xFFFFFFFFFFFFFFFFFFFFFFFFFFFFFFFFFFFFFFFF MUL NOT AND SWAP1 DUP4 PUSH20 0xFFFFFFFFFFFFFFFFFFFFFFFFFFFFFFFFFFFFFFFF AND MUL OR SWAP1 SSTORE POP PUSH32 0xBAD9436335DDABDD6FC56EA571323EB7DCFC0E82E9DBAF786BBB2A2AD6DE573C DUP3 DUP3 PUSH1 0x40 MLOAD PUSH2 0x1CC6 SWAP3 SWAP2 SWAP1 PUSH2 0x5AD3 JUMP JUMPDEST PUSH1 0x40 MLOAD DUP1 SWAP2 SUB SWAP1 LOG1 POP POP JUMP JUMPDEST PUSH1 0x0 PUSH1 0x5 PUSH1 0x0 DUP5 PUSH20 0xFFFFFFFFFFFFFFFFFFFFFFFFFFFFFFFFFFFFFFFF AND PUSH20 0xFFFFFFFFFFFFFFFFFFFFFFFFFFFFFFFFFFFFFFFF AND DUP2 MSTORE PUSH1 0x20 ADD SWAP1 DUP2 MSTORE PUSH1 0x20 ADD PUSH1 0x0 KECCAK256 PUSH1 0x0 DUP4 PUSH20 0xFFFFFFFFFFFFFFFFFFFFFFFFFFFFFFFFFFFFFFFF AND PUSH20 0xFFFFFFFFFFFFFFFFFFFFFFFFFFFFFFFFFFFFFFFF AND DUP2 MSTORE PUSH1 0x20 ADD SWAP1 DUP2 MSTORE PUSH1 0x20 ADD PUSH1 0x0 KECCAK256 PUSH1 0x0 SWAP1 SLOAD SWAP1 PUSH2 0x100 EXP SWAP1 DIV PUSH1 0xFF AND SWAP1 POP SWAP3 SWAP2 POP POP JUMP JUMPDEST PUSH1 0x13 PUSH1 0xC SWAP1 SLOAD SWAP1 PUSH2 0x100 EXP SWAP1 DIV PUSH20 0xFFFFFFFFFFFFFFFFFFFFFFFFFFFFFFFFFFFFFFFF AND DUP2 JUMP JUMPDEST PUSH1 0x0 PUSH2 0x1D96 PUSH2 0x2FE1 JUMP JUMPDEST SWAP1 POP SWAP1 JUMP JUMPDEST PUSH1 0x0 DUP1 PUSH2 0x1DA6 PUSH2 0x287F JUMP JUMPDEST SWAP2 POP SWAP2 POP PUSH1 0x1 PUSH1 0x2 DUP2 GT ISZERO PUSH2 0x1DBE JUMPI PUSH2 0x1DBD PUSH2 0x496A JUMP JUMPDEST JUMPDEST DUP2 PUSH1 0x0 ADD PUSH1 0x0 SWAP1 SLOAD SWAP1 PUSH2 0x100 EXP SWAP1 DIV PUSH1 0xFF AND PUSH1 0x2 DUP2 GT ISZERO PUSH2 0x1DE2 JUMPI PUSH2 0x1DE1 PUSH2 0x496A JUMP JUMPDEST JUMPDEST SUB PUSH2 0x1E9A JUMPI PUSH1 0x0 CALLER PUSH1 0x40 MLOAD PUSH1 0x20 ADD PUSH2 0x1DFA SWAP2 SWAP1 PUSH2 0x5B44 JUMP JUMPDEST PUSH1 0x40 MLOAD PUSH1 0x20 DUP2 DUP4 SUB SUB DUP2 MSTORE SWAP1 PUSH1 0x40 MSTORE DUP1 MLOAD SWAP1 PUSH1 0x20 ADD KECCAK256 SWAP1 POP PUSH2 0x1E62 DUP6 DUP6 DUP1 DUP1 PUSH1 0x20 MUL PUSH1 0x20 ADD PUSH1 0x40 MLOAD SWAP1 DUP2 ADD PUSH1 0x40 MSTORE DUP1 SWAP4 SWAP3 SWAP2 SWAP1 DUP2 DUP2 MSTORE PUSH1 0x20 ADD DUP4 DUP4 PUSH1 0x20 MUL DUP1 DUP3 DUP5 CALLDATACOPY PUSH1 0x0 DUP2 DUP5 ADD MSTORE PUSH1 0x1F NOT PUSH1 0x1F DUP3 ADD AND SWAP1 POP DUP1 DUP4 ADD SWAP3 POP POP POP POP POP POP POP DUP4 PUSH1 0x8 ADD SLOAD DUP4 PUSH2 0x3098 JUMP JUMPDEST PUSH2 0x1E98 JUMPI PUSH1 0x40 MLOAD PUSH32 0xB05E92FA00000000000000000000000000000000000000000000000000000000 DUP2 MSTORE PUSH1 0x4 ADD PUSH1 0x40 MLOAD DUP1 SWAP2 SUB SWAP1 REVERT JUMPDEST POP JUMPDEST TIMESTAMP DUP8 LT ISZERO PUSH2 0x1ED4 JUMPI PUSH1 0x40 MLOAD PUSH32 0x819BDCD00000000000000000000000000000000000000000000000000000000 DUP2 MSTORE PUSH1 0x4 ADD PUSH1 0x40 MLOAD DUP1 SWAP2 SUB SWAP1 REVERT JUMPDEST PUSH1 0x0 PUSH32 0x280749F6B9AC9E1A05F80919C2E8F043F5E409A99355AE2C6E1AB8664F17CB8D CALLER DUP13 DUP13 DUP13 PUSH1 0x40 MLOAD PUSH2 0x1F09 SWAP3 SWAP2 SWAP1 PUSH2 0x5B84 JUMP JUMPDEST PUSH1 0x40 MLOAD DUP1 SWAP2 SUB SWAP1 KECCAK256 DUP6 PUSH1 0x1 ADD SLOAD DUP8 PUSH1 0x10 PUSH1 0x0 CALLER PUSH20 0xFFFFFFFFFFFFFFFFFFFFFFFFFFFFFFFFFFFFFFFF AND PUSH20 0xFFFFFFFFFFFFFFFFFFFFFFFFFFFFFFFFFFFFFFFF AND DUP2 MSTORE PUSH1 0x20 ADD SWAP1 DUP2 MSTORE PUSH1 0x20 ADD PUSH1 0x0 KECCAK256 PUSH1 0x0 DUP2 SLOAD DUP1 SWAP3 SWAP2 SWAP1 PUSH2 0x1F67 SWAP1 PUSH2 0x5B9D JUMP JUMPDEST SWAP2 SWAP1 POP SSTORE DUP15 PUSH1 0x40 MLOAD PUSH1 0x20 ADD PUSH2 0x1F83 SWAP9 SWAP8 SWAP7 SWAP6 SWAP5 SWAP4 SWAP3 SWAP2 SWAP1 PUSH2 0x5BE5 JUMP JUMPDEST PUSH1 0x40 MLOAD PUSH1 0x20 DUP2 DUP4 SUB SUB DUP2 MSTORE SWAP1 PUSH1 0x40 MSTORE DUP1 MLOAD SWAP1 PUSH1 0x20 ADD KECCAK256 SWAP1 POP PUSH1 0x0 PUSH2 0x1FA6 DUP3 PUSH2 0x30AF JUMP JUMPDEST SWAP1 POP PUSH32 0x0 PUSH20 0xFFFFFFFFFFFFFFFFFFFFFFFFFFFFFFFFFFFFFFFF AND PUSH2 0x2036 DUP10 DUP10 DUP1 DUP1 PUSH1 0x1F ADD PUSH1 0x20 DUP1 SWAP2 DIV MUL PUSH1 0x20 ADD PUSH1 0x40 MLOAD SWAP1 DUP2 ADD PUSH1 0x40 MSTORE DUP1 SWAP4 SWAP3 SWAP2 SWAP1 DUP2 DUP2 MSTORE PUSH1 0x20 ADD DUP4 DUP4 DUP1 DUP3 DUP5 CALLDATACOPY PUSH1 0x0 DUP2 DUP5 ADD MSTORE PUSH1 0x1F NOT PUSH1 0x1F DUP3 ADD AND SWAP1 POP DUP1 DUP4 ADD SWAP3 POP POP POP POP POP POP POP DUP4 PUSH2 0x30C9 SWAP1 SWAP2 SWAP1 PUSH4 0xFFFFFFFF AND JUMP JUMPDEST PUSH20 0xFFFFFFFFFFFFFFFFFFFFFFFFFFFFFFFFFFFFFFFF AND EQ PUSH2 0x2083 JUMPI PUSH1 0x40 MLOAD PUSH32 0x8BAA579F00000000000000000000000000000000000000000000000000000000 DUP2 MSTORE PUSH1 0x4 ADD PUSH1 0x40 MLOAD DUP1 SWAP2 SUB SWAP1 REVERT JUMPDEST DUP3 PUSH1 0x1 ADD SLOAD CALLVALUE EQ PUSH2 0x20C0 JUMPI PUSH1 0x40 MLOAD PUSH32 0x43A8B01000000000000000000000000000000000000000000000000000000000 DUP2 MSTORE PUSH1 0x4 ADD PUSH1 0x40 MLOAD DUP1 SWAP2 SUB SWAP1 REVERT JUMPDEST PUSH1 0x0 DUP4 PUSH1 0x4 ADD SLOAD EQ ISZERO DUP1 ISZERO PUSH2 0x20DD JUMPI POP DUP3 PUSH1 0x4 ADD SLOAD DUP4 PUSH1 0x7 ADD SLOAD LT ISZERO JUMPDEST ISZERO PUSH2 0x2114 JUMPI PUSH1 0x40 MLOAD PUSH32 0x3E3F7E0D00000000000000000000000000000000000000000000000000000000 DUP2 MSTORE PUSH1 0x4 ADD PUSH1 0x40 MLOAD DUP1 SWAP2 SUB SWAP1 REVERT JUMPDEST PUSH1 0x2 DUP1 DUP2 GT ISZERO PUSH2 0x2127 JUMPI PUSH2 0x2126 PUSH2 0x496A JUMP JUMPDEST JUMPDEST DUP4 PUSH1 0x0 ADD PUSH1 0x0 SWAP1 SLOAD SWAP1 PUSH2 0x100 EXP SWAP1 DIV PUSH1 0xFF AND PUSH1 0x2 DUP2 GT ISZERO PUSH2 0x214B JUMPI PUSH2 0x214A PUSH2 0x496A JUMP JUMPDEST JUMPDEST EQ DUP1 ISZERO PUSH2 0x215C JUMPI POP PUSH1 0x0 DUP4 PUSH1 0x5 ADD SLOAD EQ JUMPDEST ISZERO DUP1 ISZERO PUSH2 0x21F2 JUMPI POP DUP3 PUSH1 0x5 ADD SLOAD PUSH1 0x12 PUSH1 0x0 CALLER PUSH20 0xFFFFFFFFFFFFFFFFFFFFFFFFFFFFFFFFFFFFFFFF AND PUSH20 0xFFFFFFFFFFFFFFFFFFFFFFFFFFFFFFFFFFFFFFFF AND DUP2 MSTORE PUSH1 0x20 ADD SWAP1 DUP2 MSTORE PUSH1 0x20 ADD PUSH1 0x0 KECCAK256 PUSH1 0x0 DUP6 PUSH1 0x0 ADD PUSH1 0x0 SWAP1 SLOAD SWAP1 PUSH2 0x100 EXP SWAP1 DIV PUSH1 0xFF AND PUSH1 0x2 DUP2 GT ISZERO PUSH2 0x21CE JUMPI PUSH2 0x21CD PUSH2 0x496A JUMP JUMPDEST JUMPDEST PUSH1 0x2 DUP2 GT ISZERO PUSH2 0x21E0 JUMPI PUSH2 0x21DF PUSH2 0x496A JUMP JUMPDEST JUMPDEST DUP2 MSTORE PUSH1 0x20 ADD SWAP1 DUP2 MSTORE PUSH1 0x20 ADD PUSH1 0x0 KECCAK256 SLOAD LT ISZERO JUMPDEST ISZERO PUSH2 0x2229 JUMPI PUSH1 0x40 MLOAD PUSH32 0x5107DBE700000000000000000000000000000000000000000000000000000000 DUP2 MSTORE PUSH1 0x4 ADD PUSH1 0x40 MLOAD DUP1 SWAP2 SUB SWAP1 REVERT JUMPDEST PUSH1 0x2 DUP1 DUP2 GT ISZERO PUSH2 0x223C JUMPI PUSH2 0x223B PUSH2 0x496A JUMP JUMPDEST JUMPDEST DUP4 PUSH1 0x0 ADD PUSH1 0x0 SWAP1 SLOAD SWAP1 PUSH2 0x100 EXP SWAP1 DIV PUSH1 0xFF AND PUSH1 0x2 DUP2 GT ISZERO PUSH2 0x2260 JUMPI PUSH2 0x225F PUSH2 0x496A JUMP JUMPDEST JUMPDEST EQ DUP1 ISZERO PUSH2 0x2271 JUMPI POP PUSH1 0x0 DUP4 PUSH1 0x6 ADD SLOAD EQ JUMPDEST ISZERO DUP1 ISZERO PUSH2 0x2286 JUMPI POP DUP3 PUSH1 0x6 ADD SLOAD DUP4 PUSH1 0x7 ADD SLOAD LT ISZERO JUMPDEST ISZERO PUSH2 0x22BD JUMPI PUSH1 0x40 MLOAD PUSH32 0x3E3F7E0D00000000000000000000000000000000000000000000000000000000 DUP2 MSTORE PUSH1 0x4 ADD PUSH1 0x40 MLOAD DUP1 SWAP2 SUB SWAP1 REVERT JUMPDEST PUSH1 0x0 PUSH2 0x2710 PUSH1 0x13 PUSH1 0x0 SWAP1 SLOAD SWAP1 PUSH2 0x100 EXP SWAP1 DIV PUSH12 0xFFFFFFFFFFFFFFFFFFFFFFFF AND PUSH12 0xFFFFFFFFFFFFFFFFFFFFFFFF AND CALLVALUE PUSH2 0x22F6 SWAP2 SWAP1 PUSH2 0x5607 JUMP JUMPDEST PUSH2 0x2300 SWAP2 SWAP1 PUSH2 0x5678 JUMP JUMPDEST SWAP1 POP PUSH1 0x0 DUP2 GT ISZERO PUSH2 0x23D2 JUMPI PUSH1 0x0 PUSH1 0x13 PUSH1 0xC SWAP1 SLOAD SWAP1 PUSH2 0x100 EXP SWAP1 DIV PUSH20 0xFFFFFFFFFFFFFFFFFFFFFFFFFFFFFFFFFFFFFFFF AND PUSH20 0xFFFFFFFFFFFFFFFFFFFFFFFFFFFFFFFFFFFFFFFF AND DUP3 PUSH1 0x40 MLOAD PUSH2 0x2353 SWAP1 PUSH2 0x5746 JUMP JUMPDEST PUSH1 0x0 PUSH1 0x40 MLOAD DUP1 DUP4 SUB DUP2 DUP6 DUP8 GAS CALL SWAP3 POP POP POP RETURNDATASIZE DUP1 PUSH1 0x0 DUP2 EQ PUSH2 0x2390 JUMPI PUSH1 0x40 MLOAD SWAP2 POP PUSH1 0x1F NOT PUSH1 0x3F RETURNDATASIZE ADD AND DUP3 ADD PUSH1 0x40 MSTORE RETURNDATASIZE DUP3 MSTORE RETURNDATASIZE PUSH1 0x0 PUSH1 0x20 DUP5 ADD RETURNDATACOPY PUSH2 0x2395 JUMP JUMPDEST PUSH1 0x60 SWAP2 POP JUMPDEST POP POP SWAP1 POP DUP1 PUSH2 0x23D0 JUMPI PUSH1 0x40 MLOAD PUSH32 0x90B8EC1800000000000000000000000000000000000000000000000000000000 DUP2 MSTORE PUSH1 0x4 ADD PUSH1 0x40 MLOAD DUP1 SWAP2 SUB SWAP1 REVERT JUMPDEST POP JUMPDEST PUSH1 0x0 DUP2 CALLVALUE PUSH2 0x23E0 SWAP2 SWAP1 PUSH2 0x5C63 JUMP JUMPDEST SWAP1 POP PUSH1 0x0 DUP2 GT ISZERO PUSH2 0x2497 JUMPI PUSH1 0x0 PUSH2 0x23F5 PUSH2 0x167C JUMP JUMPDEST PUSH20 0xFFFFFFFFFFFFFFFFFFFFFFFFFFFFFFFFFFFFFFFF AND DUP3 PUSH1 0x40 MLOAD PUSH2 0x2418 SWAP1 PUSH2 0x5746 JUMP JUMPDEST PUSH1 0x0 PUSH1 0x40 MLOAD DUP1 DUP4 SUB DUP2 DUP6 DUP8 GAS CALL SWAP3 POP POP POP RETURNDATASIZE DUP1 PUSH1 0x0 DUP2 EQ PUSH2 0x2455 JUMPI PUSH1 0x40 MLOAD SWAP2 POP PUSH1 0x1F NOT PUSH1 0x3F RETURNDATASIZE ADD AND DUP3 ADD PUSH1 0x40 MSTORE RETURNDATASIZE DUP3 MSTORE RETURNDATASIZE PUSH1 0x0 PUSH1 0x20 DUP5 ADD RETURNDATACOPY PUSH2 0x245A JUMP JUMPDEST PUSH1 0x60 SWAP2 POP JUMPDEST POP POP SWAP1 POP DUP1 PUSH2 0x2495 JUMPI PUSH1 0x40 MLOAD PUSH32 0x90B8EC1800000000000000000000000000000000000000000000000000000000 DUP2 MSTORE PUSH1 0x4 ADD PUSH1 0x40 MLOAD DUP1 SWAP2 SUB SWAP1 REVERT JUMPDEST POP JUMPDEST DUP5 PUSH1 0x7 ADD PUSH1 0x0 DUP2 SLOAD DUP1 SWAP3 SWAP2 SWAP1 PUSH2 0x24AC SWAP1 PUSH2 0x5B9D JUMP JUMPDEST SWAP2 SWAP1 POP SSTORE POP PUSH1 0x12 PUSH1 0x0 CALLER PUSH20 0xFFFFFFFFFFFFFFFFFFFFFFFFFFFFFFFFFFFFFFFF AND PUSH20 0xFFFFFFFFFFFFFFFFFFFFFFFFFFFFFFFFFFFFFFFF AND DUP2 MSTORE PUSH1 0x20 ADD SWAP1 DUP2 MSTORE PUSH1 0x20 ADD PUSH1 0x0 KECCAK256 PUSH1 0x0 DUP7 PUSH1 0x0 ADD PUSH1 0x0 SWAP1 SLOAD SWAP1 PUSH2 0x100 EXP SWAP1 DIV PUSH1 0xFF AND PUSH1 0x2 DUP2 GT ISZERO PUSH2 0x2516 JUMPI PUSH2 0x2515 PUSH2 0x496A JUMP JUMPDEST JUMPDEST PUSH1 0x2 DUP2 GT ISZERO PUSH2 0x2528 JUMPI PUSH2 0x2527 PUSH2 0x496A JUMP JUMPDEST JUMPDEST DUP2 MSTORE PUSH1 0x20 ADD SWAP1 DUP2 MSTORE PUSH1 0x20 ADD PUSH1 0x0 KECCAK256 PUSH1 0x0 DUP2 SLOAD DUP1 SWAP3 SWAP2 SWAP1 PUSH2 0x2547 SWAP1 PUSH2 0x5B9D JUMP JUMPDEST SWAP2 SWAP1 POP SSTORE POP PUSH2 0x2556 CALLER DUP16 PUSH2 0x30F5 JUMP JUMPDEST PUSH1 0x0 DUP14 DUP14 SWAP1 POP GT ISZERO PUSH2 0x25B1 JUMPI PUSH2 0x25B0 DUP15 DUP15 DUP15 DUP1 DUP1 PUSH1 0x1F ADD PUSH1 0x20 DUP1 SWAP2 DIV MUL PUSH1 0x20 ADD PUSH1 0x40 MLOAD SWAP1 DUP2 ADD PUSH1 0x40 MSTORE DUP1 SWAP4 SWAP3 SWAP2 SWAP1 DUP2 DUP2 MSTORE PUSH1 0x20 ADD DUP4 DUP4 DUP1 DUP3 DUP5 CALLDATACOPY PUSH1 0x0 DUP2 DUP5 ADD MSTORE PUSH1 0x1F NOT PUSH1 0x1F DUP3 ADD AND SWAP1 POP DUP1 DUP4 ADD SWAP3 POP POP POP POP POP POP POP PUSH2 0x3113 JUMP JUMPDEST JUMPDEST CALLER PUSH20 0xFFFFFFFFFFFFFFFFFFFFFFFFFFFFFFFFFFFFFFFF AND DUP15 PUSH32 0x99F38CF3FEAAD38E0A2E22EF51BDD4FABA32B432520A951248D77057596A425A DUP8 PUSH1 0x0 ADD PUSH1 0x0 SWAP1 SLOAD SWAP1 PUSH2 0x100 EXP SWAP1 DIV PUSH1 0xFF AND PUSH1 0x40 MLOAD PUSH2 0x2609 SWAP2 SWAP1 PUSH2 0x5C97 JUMP JUMPDEST PUSH1 0x40 MLOAD DUP1 SWAP2 SUB SWAP1 LOG3 POP POP POP POP POP POP POP POP POP POP POP POP POP POP JUMP JUMPDEST PUSH2 0x2629 PUSH2 0x29EB JUMP JUMPDEST PUSH1 0x0 PUSH20 0xFFFFFFFFFFFFFFFFFFFFFFFFFFFFFFFFFFFFFFFF AND DUP2 PUSH20 0xFFFFFFFFFFFFFFFFFFFFFFFFFFFFFFFFFFFFFFFF AND SUB PUSH2 0x269B JUMPI PUSH1 0x0 PUSH1 0x40 MLOAD PUSH32 0x1E4FBDF700000000000000000000000000000000000000000000000000000000 DUP2 MSTORE PUSH1 0x4 ADD PUSH2 0x2692 SWAP2 SWAP1 PUSH2 0x48B9 JUMP JUMPDEST PUSH1 0x40 MLOAD DUP1 SWAP2 SUB SWAP1 REVERT JUMPDEST PUSH2 0x26A4 DUP2 PUSH2 0x2A72 JUMP JUMPDEST POP JUMP JUMPDEST PUSH1 0x0 PUSH1 0x12 PUSH1 0x0 DUP5 PUSH20 0xFFFFFFFFFFFFFFFFFFFFFFFFFFFFFFFFFFFFFFFF AND PUSH20 0xFFFFFFFFFFFFFFFFFFFFFFFFFFFFFFFFFFFFFFFF AND DUP2 MSTORE PUSH1 0x20 ADD SWAP1 DUP2 MSTORE PUSH1 0x20 ADD PUSH1 0x0 KECCAK256 PUSH1 0x0 DUP4 PUSH1 0x2 DUP2 GT ISZERO PUSH2 0x26FD JUMPI PUSH2 0x26FC PUSH2 0x496A JUMP JUMPDEST JUMPDEST PUSH1 0x2 DUP2 GT ISZERO PUSH2 0x270F JUMPI PUSH2 0x270E PUSH2 0x496A JUMP JUMPDEST JUMPDEST DUP2 MSTORE PUSH1 0x20 ADD SWAP1 DUP2 MSTORE PUSH1 0x20 ADD PUSH1 0x0 KECCAK256 SLOAD SWAP1 POP SWAP3 SWAP2 POP POP JUMP JUMPDEST PUSH1 0x0 PUSH32 0x780E9D6300000000000000000000000000000000000000000000000000000000 PUSH28 0xFFFFFFFFFFFFFFFFFFFFFFFFFFFFFFFFFFFFFFFFFFFFFFFFFFFFFFFF NOT AND DUP3 PUSH28 0xFFFFFFFFFFFFFFFFFFFFFFFFFFFFFFFFFFFFFFFFFFFFFFFFFFFFFFFF NOT AND EQ DUP1 PUSH2 0x2799 JUMPI POP PUSH2 0x2798 DUP3 PUSH2 0x316F JUMP JUMPDEST JUMPDEST SWAP1 POP SWAP2 SWAP1 POP JUMP JUMPDEST PUSH1 0x0 DUP1 PUSH2 0x27AC DUP4 PUSH2 0x31E9 JUMP JUMPDEST SWAP1 POP PUSH1 0x0 PUSH20 0xFFFFFFFFFFFFFFFFFFFFFFFFFFFFFFFFFFFFFFFF AND DUP2 PUSH20 0xFFFFFFFFFFFFFFFFFFFFFFFFFFFFFFFFFFFFFFFF AND SUB PUSH2 0x281F JUMPI DUP3 PUSH1 0x40 MLOAD PUSH32 0x7E27328900000000000000000000000000000000000000000000000000000000 DUP2 MSTORE PUSH1 0x4 ADD PUSH2 0x2816 SWAP2 SWAP1 PUSH2 0x494F JUMP JUMPDEST PUSH1 0x40 MLOAD DUP1 SWAP2 SUB SWAP1 REVERT JUMPDEST DUP1 SWAP2 POP POP SWAP2 SWAP1 POP JUMP JUMPDEST PUSH1 0x0 PUSH1 0x4 PUSH1 0x0 DUP4 DUP2 MSTORE PUSH1 0x20 ADD SWAP1 DUP2 MSTORE PUSH1 0x20 ADD PUSH1 0x0 KECCAK256 PUSH1 0x0 SWAP1 SLOAD SWAP1 PUSH2 0x100 EXP SWAP1 DIV PUSH20 0xFFFFFFFFFFFFFFFFFFFFFFFFFFFFFFFFFFFFFFFF AND SWAP1 POP SWAP2 SWAP1 POP JUMP JUMPDEST PUSH1 0x0 CALLER SWAP1 POP SWAP1 JUMP JUMPDEST PUSH2 0x287A DUP4 DUP4 DUP4 PUSH1 0x1 PUSH2 0x3226 JUMP JUMPDEST POP POP POP JUMP JUMPDEST PUSH1 0x0 DUP1 PUSH1 0x0 TIMESTAMP SWAP1 POP PUSH1 0x0 JUMPDEST PUSH1 0x11 DUP1 SLOAD SWAP1 POP DUP2 LT ISZERO PUSH2 0x2994 JUMPI PUSH1 0x0 PUSH1 0x2 DUP2 GT ISZERO PUSH2 0x28AB JUMPI PUSH2 0x28AA PUSH2 0x496A JUMP JUMPDEST JUMPDEST PUSH1 0x11 DUP3 DUP2 SLOAD DUP2 LT PUSH2 0x28BF JUMPI PUSH2 0x28BE PUSH2 0x5572 JUMP JUMPDEST JUMPDEST SWAP1 PUSH1 0x0 MSTORE PUSH1 0x20 PUSH1 0x0 KECCAK256 SWAP1 PUSH1 0x9 MUL ADD PUSH1 0x0 ADD PUSH1 0x0 SWAP1 SLOAD SWAP1 PUSH2 0x100 EXP SWAP1 DIV PUSH1 0xFF AND PUSH1 0x2 DUP2 GT ISZERO PUSH2 0x28F0 JUMPI PUSH2 0x28EF PUSH2 0x496A JUMP JUMPDEST JUMPDEST EQ ISZERO DUP1 ISZERO PUSH2 0x2923 JUMPI POP PUSH1 0x11 DUP2 DUP2 SLOAD DUP2 LT PUSH2 0x290D JUMPI PUSH2 0x290C PUSH2 0x5572 JUMP JUMPDEST JUMPDEST SWAP1 PUSH1 0x0 MSTORE PUSH1 0x20 PUSH1 0x0 KECCAK256 SWAP1 PUSH1 0x9 MUL ADD PUSH1 0x2 ADD SLOAD DUP3 LT ISZERO JUMPDEST DUP1 ISZERO PUSH2 0x2954 JUMPI POP PUSH1 0x11 DUP2 DUP2 SLOAD DUP2 LT PUSH2 0x293E JUMPI PUSH2 0x293D PUSH2 0x5572 JUMP JUMPDEST JUMPDEST SWAP1 PUSH1 0x0 MSTORE PUSH1 0x20 PUSH1 0x0 KECCAK256 SWAP1 PUSH1 0x9 MUL ADD PUSH1 0x3 ADD SLOAD DUP3 GT ISZERO JUMPDEST ISZERO PUSH2 0x2987 JUMPI DUP1 PUSH1 0x11 DUP3 DUP2 SLOAD DUP2 LT PUSH2 0x296E JUMPI PUSH2 0x296D PUSH2 0x5572 JUMP JUMPDEST JUMPDEST SWAP1 PUSH1 0x0 MSTORE PUSH1 0x20 PUSH1 0x0 KECCAK256 SWAP1 PUSH1 0x9 MUL ADD SWAP4 POP SWAP4 POP POP POP PUSH2 0x29C7 JUMP JUMPDEST DUP1 DUP1 PUSH1 0x1 ADD SWAP2 POP POP PUSH2 0x288A JUMP JUMPDEST POP PUSH1 0x40 MLOAD PUSH32 0xA9477E0900000000000000000000000000000000000000000000000000000000 DUP2 MSTORE PUSH1 0x4 ADD PUSH1 0x40 MLOAD DUP1 SWAP2 SUB SWAP1 REVERT JUMPDEST SWAP1 SWAP2 JUMP JUMPDEST PUSH1 0x0 PUSH2 0x29D8 DUP5 DUP5 DUP5 PUSH2 0x33EB JUMP JUMPDEST SWAP1 POP SWAP4 SWAP3 POP POP POP JUMP JUMPDEST PUSH1 0x0 PUSH2 0x2710 SWAP1 POP SWAP1 JUMP JUMPDEST PUSH2 0x29F3 PUSH2 0x2865 JUMP JUMPDEST PUSH20 0xFFFFFFFFFFFFFFFFFFFFFFFFFFFFFFFFFFFFFFFF AND PUSH2 0x2A11 PUSH2 0x167C JUMP JUMPDEST PUSH20 0xFFFFFFFFFFFFFFFFFFFFFFFFFFFFFFFFFFFFFFFF AND EQ PUSH2 0x2A70 JUMPI PUSH2 0x2A34 PUSH2 0x2865 JUMP JUMPDEST PUSH1 0x40 MLOAD PUSH32 0x118CDAA700000000000000000000000000000000000000000000000000000000 DUP2 MSTORE PUSH1 0x4 ADD PUSH2 0x2A67 SWAP2 SWAP1 PUSH2 0x48B9 JUMP JUMPDEST PUSH1 0x40 MLOAD DUP1 SWAP2 SUB SWAP1 REVERT JUMPDEST JUMP JUMPDEST PUSH1 0x0 PUSH1 0x9 PUSH1 0x0 SWAP1 SLOAD SWAP1 PUSH2 0x100 EXP SWAP1 DIV PUSH20 0xFFFFFFFFFFFFFFFFFFFFFFFFFFFFFFFFFFFFFFFF AND SWAP1 POP DUP2 PUSH1 0x9 PUSH1 0x0 PUSH2 0x100 EXP DUP2 SLOAD DUP2 PUSH20 0xFFFFFFFFFFFFFFFFFFFFFFFFFFFFFFFFFFFFFFFF MUL NOT AND SWAP1 DUP4 PUSH20 0xFFFFFFFFFFFFFFFFFFFFFFFFFFFFFFFFFFFFFFFF AND MUL OR SWAP1 SSTORE POP DUP2 PUSH20 0xFFFFFFFFFFFFFFFFFFFFFFFFFFFFFFFFFFFFFFFF AND DUP2 PUSH20 0xFFFFFFFFFFFFFFFFFFFFFFFFFFFFFFFFFFFFFFFF AND PUSH32 0x8BE0079C531659141344CD1FD0A4F28419497F9722A3DAAFE3B4186F6B6457E0 PUSH1 0x40 MLOAD PUSH1 0x40 MLOAD DUP1 SWAP2 SUB SWAP1 LOG3 POP POP JUMP JUMPDEST PUSH1 0x60 PUSH2 0x2B6E PUSH1 0xE PUSH32 0x0 PUSH2 0x3508 SWAP1 SWAP2 SWAP1 PUSH4 0xFFFFFFFF AND JUMP JUMPDEST SWAP1 POP SWAP1 JUMP JUMPDEST PUSH1 0x60 PUSH2 0x2BA9 PUSH1 0xF PUSH32 0x0 PUSH2 0x3508 SWAP1 SWAP2 SWAP1 PUSH4 0xFFFFFFFF AND JUMP JUMPDEST SWAP1 POP SWAP1 JUMP JUMPDEST PUSH1 0x0 PUSH20 0xFFFFFFFFFFFFFFFFFFFFFFFFFFFFFFFFFFFFFFFF AND DUP3 PUSH20 0xFFFFFFFFFFFFFFFFFFFFFFFFFFFFFFFFFFFFFFFF AND SUB PUSH2 0x2C1F JUMPI DUP2 PUSH1 0x40 MLOAD PUSH32 0x5B08BA1800000000000000000000000000000000000000000000000000000000 DUP2 MSTORE PUSH1 0x4 ADD PUSH2 0x2C16 SWAP2 SWAP1 PUSH2 0x48B9 JUMP JUMPDEST PUSH1 0x40 MLOAD DUP1 SWAP2 SUB SWAP1 REVERT JUMPDEST DUP1 PUSH1 0x5 PUSH1 0x0 DUP6 PUSH20 0xFFFFFFFFFFFFFFFFFFFFFFFFFFFFFFFFFFFFFFFF AND PUSH20 0xFFFFFFFFFFFFFFFFFFFFFFFFFFFFFFFFFFFFFFFF AND DUP2 MSTORE PUSH1 0x20 ADD SWAP1 DUP2 MSTORE PUSH1 0x20 ADD PUSH1 0x0 KECCAK256 PUSH1 0x0 DUP5 PUSH20 0xFFFFFFFFFFFFFFFFFFFFFFFFFFFFFFFFFFFFFFFF AND PUSH20 0xFFFFFFFFFFFFFFFFFFFFFFFFFFFFFFFFFFFFFFFF AND DUP2 MSTORE PUSH1 0x20 ADD SWAP1 DUP2 MSTORE PUSH1 0x20 ADD PUSH1 0x0 KECCAK256 PUSH1 0x0 PUSH2 0x100 EXP DUP2 SLOAD DUP2 PUSH1 0xFF MUL NOT AND SWAP1 DUP4 ISZERO ISZERO MUL OR SWAP1 SSTORE POP DUP2 PUSH20 0xFFFFFFFFFFFFFFFFFFFFFFFFFFFFFFFFFFFFFFFF AND DUP4 PUSH20 0xFFFFFFFFFFFFFFFFFFFFFFFFFFFFFFFFFFFFFFFF AND PUSH32 0x17307EAB39AB6107E8899845AD3D59BD9653F200F220920489CA2B5937696C31 DUP4 PUSH1 0x40 MLOAD PUSH2 0x2D10 SWAP2 SWAP1 PUSH2 0x4748 JUMP JUMPDEST PUSH1 0x40 MLOAD DUP1 SWAP2 SUB SWAP1 LOG3 POP POP POP JUMP JUMPDEST PUSH1 0x0 DUP4 PUSH20 0xFFFFFFFFFFFFFFFFFFFFFFFFFFFFFFFFFFFFFFFF AND EXTCODESIZE GT ISZERO PUSH2 0x2EC7 JUMPI DUP3 PUSH20 0xFFFFFFFFFFFFFFFFFFFFFFFFFFFFFFFFFFFFFFFF AND PUSH4 0x150B7A02 DUP7 DUP7 DUP6 DUP6 PUSH1 0x40 MLOAD DUP6 PUSH4 0xFFFFFFFF AND PUSH1 0xE0 SHL DUP2 MSTORE PUSH1 0x4 ADD PUSH2 0x2D7C SWAP5 SWAP4 SWAP3 SWAP2 SWAP1 PUSH2 0x5D07 JUMP JUMPDEST PUSH1 0x20 PUSH1 0x40 MLOAD DUP1 DUP4 SUB DUP2 PUSH1 0x0 DUP8 GAS CALL SWAP3 POP POP POP DUP1 ISZERO PUSH2 0x2DB8 JUMPI POP PUSH1 0x40 MLOAD RETURNDATASIZE PUSH1 0x1F NOT PUSH1 0x1F DUP3 ADD AND DUP3 ADD DUP1 PUSH1 0x40 MSTORE POP DUP2 ADD SWAP1 PUSH2 0x2DB5 SWAP2 SWAP1 PUSH2 0x5D68 JUMP JUMPDEST PUSH1 0x1 JUMPDEST PUSH2 0x2E3C JUMPI RETURNDATASIZE DUP1 PUSH1 0x0 DUP2 EQ PUSH2 0x2DE8 JUMPI PUSH1 0x40 MLOAD SWAP2 POP PUSH1 0x1F NOT PUSH1 0x3F RETURNDATASIZE ADD AND DUP3 ADD PUSH1 0x40 MSTORE RETURNDATASIZE DUP3 MSTORE RETURNDATASIZE PUSH1 0x0 PUSH1 0x20 DUP5 ADD RETURNDATACOPY PUSH2 0x2DED JUMP JUMPDEST PUSH1 0x60 SWAP2 POP JUMPDEST POP PUSH1 0x0 DUP2 MLOAD SUB PUSH2 0x2E34 JUMPI DUP4 PUSH1 0x40 MLOAD PUSH32 0x64A0AE9200000000000000000000000000000000000000000000000000000000 DUP2 MSTORE PUSH1 0x4 ADD PUSH2 0x2E2B SWAP2 SWAP1 PUSH2 0x48B9 JUMP JUMPDEST PUSH1 0x40 MLOAD DUP1 SWAP2 SUB SWAP1 REVERT JUMPDEST DUP1 MLOAD DUP2 PUSH1 0x20 ADD REVERT JUMPDEST PUSH4 0x150B7A02 PUSH1 0xE0 SHL PUSH28 0xFFFFFFFFFFFFFFFFFFFFFFFFFFFFFFFFFFFFFFFFFFFFFFFFFFFFFFFF NOT AND DUP2 PUSH28 0xFFFFFFFFFFFFFFFFFFFFFFFFFFFFFFFFFFFFFFFFFFFFFFFFFFFFFFFF NOT AND EQ PUSH2 0x2EC5 JUMPI DUP4 PUSH1 0x40 MLOAD PUSH32 0x64A0AE9200000000000000000000000000000000000000000000000000000000 DUP2 MSTORE PUSH1 0x4 ADD PUSH2 0x2EBC SWAP2 SWAP1 PUSH2 0x48B9 JUMP JUMPDEST PUSH1 0x40 MLOAD DUP1 SWAP2 SUB SWAP1 REVERT JUMPDEST POP JUMPDEST POP POP POP POP POP JUMP JUMPDEST PUSH1 0x60 PUSH2 0x2ED9 DUP3 PUSH2 0x27A0 JUMP JUMPDEST POP PUSH1 0x0 PUSH1 0x6 PUSH1 0x0 DUP5 DUP2 MSTORE PUSH1 0x20 ADD SWAP1 DUP2 MSTORE PUSH1 0x20 ADD PUSH1 0x0 KECCAK256 DUP1 SLOAD PUSH2 0x2EFA SWAP1 PUSH2 0x5541 JUMP JUMPDEST DUP1 PUSH1 0x1F ADD PUSH1 0x20 DUP1 SWAP2 DIV MUL PUSH1 0x20 ADD PUSH1 0x40 MLOAD SWAP1 DUP2 ADD PUSH1 0x40 MSTORE DUP1 SWAP3 SWAP2 SWAP1 DUP2 DUP2 MSTORE PUSH1 0x20 ADD DUP3 DUP1 SLOAD PUSH2 0x2F26 SWAP1 PUSH2 0x5541 JUMP JUMPDEST DUP1 ISZERO PUSH2 0x2F73 JUMPI DUP1 PUSH1 0x1F LT PUSH2 0x2F48 JUMPI PUSH2 0x100 DUP1 DUP4 SLOAD DIV MUL DUP4 MSTORE SWAP2 PUSH1 0x20 ADD SWAP2 PUSH2 0x2F73 JUMP JUMPDEST DUP3 ADD SWAP2 SWAP1 PUSH1 0x0 MSTORE PUSH1 0x20 PUSH1 0x0 KECCAK256 SWAP1 JUMPDEST DUP2 SLOAD DUP2 MSTORE SWAP1 PUSH1 0x1 ADD SWAP1 PUSH1 0x20 ADD DUP1 DUP4 GT PUSH2 0x2F56 JUMPI DUP3 SWAP1 SUB PUSH1 0x1F AND DUP3 ADD SWAP2 JUMPDEST POP POP POP POP POP SWAP1 POP PUSH1 0x0 PUSH2 0x2F84 PUSH2 0x35B8 JUMP JUMPDEST SWAP1 POP PUSH1 0x0 DUP2 MLOAD SUB PUSH2 0x2F99 JUMPI DUP2 SWAP3 POP POP POP PUSH2 0x2FDC JUMP JUMPDEST PUSH1 0x0 DUP3 MLOAD GT ISZERO PUSH2 0x2FCE JUMPI DUP1 DUP3 PUSH1 0x40 MLOAD PUSH1 0x20 ADD PUSH2 0x2FB6 SWAP3 SWAP2 SWAP1 PUSH2 0x5DD1 JUMP JUMPDEST PUSH1 0x40 MLOAD PUSH1 0x20 DUP2 DUP4 SUB SUB DUP2 MSTORE SWAP1 PUSH1 0x40 MSTORE SWAP3 POP POP POP PUSH2 0x2FDC JUMP JUMPDEST PUSH2 0x2FD7 DUP5 PUSH2 0x35CF JUMP JUMPDEST SWAP3 POP POP POP JUMPDEST SWAP2 SWAP1 POP JUMP JUMPDEST PUSH1 0x0 PUSH32 0x0 PUSH20 0xFFFFFFFFFFFFFFFFFFFFFFFFFFFFFFFFFFFFFFFF AND ADDRESS PUSH20 0xFFFFFFFFFFFFFFFFFFFFFFFFFFFFFFFFFFFFFFFF AND EQ DUP1 ISZERO PUSH2 0x305D JUMPI POP PUSH32 0x0 CHAINID EQ JUMPDEST ISZERO PUSH2 0x308A JUMPI PUSH32 0x0 SWAP1 POP PUSH2 0x3095 JUMP JUMPDEST PUSH2 0x3092 PUSH2 0x3638 JUMP JUMPDEST SWAP1 POP JUMPDEST SWAP1 JUMP JUMPDEST PUSH1 0x0 DUP3 PUSH2 0x30A5 DUP6 DUP5 PUSH2 0x36CE JUMP JUMPDEST EQ SWAP1 POP SWAP4 SWAP3 POP POP POP JUMP JUMPDEST PUSH1 0x0 PUSH2 0x30C2 PUSH2 0x30BC PUSH2 0x2FE1 JUMP JUMPDEST DUP4 PUSH2 0x371E JUMP JUMPDEST SWAP1 POP SWAP2 SWAP1 POP JUMP JUMPDEST PUSH1 0x0 DUP1 PUSH1 0x0 DUP1 PUSH2 0x30D9 DUP7 DUP7 PUSH2 0x375F JUMP JUMPDEST SWAP3 POP SWAP3 POP SWAP3 POP PUSH2 0x30E9 DUP3 DUP3 PUSH2 0x37BB JUMP JUMPDEST DUP3 SWAP4 POP POP POP POP SWAP3 SWAP2 POP POP JUMP JUMPDEST PUSH2 0x310F DUP3 DUP3 PUSH1 0x40 MLOAD DUP1 PUSH1 0x20 ADD PUSH1 0x40 MSTORE DUP1 PUSH1 0x0 DUP2 MSTORE POP PUSH2 0x391F JUMP JUMPDEST POP POP JUMP JUMPDEST DUP1 PUSH1 0x6 PUSH1 0x0 DUP5 DUP2 MSTORE PUSH1 0x20 ADD SWAP1 DUP2 MSTORE PUSH1 0x20 ADD PUSH1 0x0 KECCAK256 SWAP1 DUP2 PUSH2 0x3133 SWAP2 SWAP1 PUSH2 0x5FA1 JUMP JUMPDEST POP PUSH32 0xF8E1A15ABA9398E019F0B49DF1A4FDE98EE17AE345CB5F6B5E2C27F5033E8CE7 DUP3 PUSH1 0x40 MLOAD PUSH2 0x3163 SWAP2 SWAP1 PUSH2 0x494F JUMP JUMPDEST PUSH1 0x40 MLOAD DUP1 SWAP2 SUB SWAP1 LOG1 POP POP JUMP JUMPDEST PUSH1 0x0 PUSH32 0x2A55205A00000000000000000000000000000000000000000000000000000000 PUSH28 0xFFFFFFFFFFFFFFFFFFFFFFFFFFFFFFFFFFFFFFFFFFFFFFFFFFFFFFFF NOT AND DUP3 PUSH28 0xFFFFFFFFFFFFFFFFFFFFFFFFFFFFFFFFFFFFFFFFFFFFFFFFFFFFFFFF NOT AND EQ DUP1 PUSH2 0x31E2 JUMPI POP PUSH2 0x31E1 DUP3 PUSH2 0x3943 JUMP JUMPDEST JUMPDEST SWAP1 POP SWAP2 SWAP1 POP JUMP JUMPDEST PUSH1 0x0 PUSH1 0x2 PUSH1 0x0 DUP4 DUP2 MSTORE PUSH1 0x20 ADD SWAP1 DUP2 MSTORE PUSH1 0x20 ADD PUSH1 0x0 KECCAK256 PUSH1 0x0 SWAP1 SLOAD SWAP1 PUSH2 0x100 EXP SWAP1 DIV PUSH20 0xFFFFFFFFFFFFFFFFFFFFFFFFFFFFFFFFFFFFFFFF AND SWAP1 POP SWAP2 SWAP1 POP JUMP JUMPDEST DUP1 DUP1 PUSH2 0x325F JUMPI POP PUSH1 0x0 PUSH20 0xFFFFFFFFFFFFFFFFFFFFFFFFFFFFFFFFFFFFFFFF AND DUP3 PUSH20 0xFFFFFFFFFFFFFFFFFFFFFFFFFFFFFFFFFFFFFFFF AND EQ ISZERO JUMPDEST ISZERO PUSH2 0x3393 JUMPI PUSH1 0x0 PUSH2 0x326F DUP5 PUSH2 0x27A0 JUMP JUMPDEST SWAP1 POP PUSH1 0x0 PUSH20 0xFFFFFFFFFFFFFFFFFFFFFFFFFFFFFFFFFFFFFFFF AND DUP4 PUSH20 0xFFFFFFFFFFFFFFFFFFFFFFFFFFFFFFFFFFFFFFFF AND EQ ISZERO DUP1 ISZERO PUSH2 0x32DA JUMPI POP DUP3 PUSH20 0xFFFFFFFFFFFFFFFFFFFFFFFFFFFFFFFFFFFFFFFF AND DUP2 PUSH20 0xFFFFFFFFFFFFFFFFFFFFFFFFFFFFFFFFFFFFFFFF AND EQ ISZERO JUMPDEST DUP1 ISZERO PUSH2 0x32ED JUMPI POP PUSH2 0x32EB DUP2 DUP5 PUSH2 0x1CD2 JUMP JUMPDEST ISZERO JUMPDEST ISZERO PUSH2 0x332F JUMPI DUP3 PUSH1 0x40 MLOAD PUSH32 0xA9FBF51F00000000000000000000000000000000000000000000000000000000 DUP2 MSTORE PUSH1 0x4 ADD PUSH2 0x3326 SWAP2 SWAP1 PUSH2 0x48B9 JUMP JUMPDEST PUSH1 0x40 MLOAD DUP1 SWAP2 SUB SWAP1 REVERT JUMPDEST DUP2 ISZERO PUSH2 0x3391 JUMPI DUP4 DUP6 PUSH20 0xFFFFFFFFFFFFFFFFFFFFFFFFFFFFFFFFFFFFFFFF AND DUP3 PUSH20 0xFFFFFFFFFFFFFFFFFFFFFFFFFFFFFFFFFFFFFFFF AND PUSH32 0x8C5BE1E5EBEC7D5BD14F71427D1E84F3DD0314C0F7B2291E5B200AC8C7C3B925 PUSH1 0x40 MLOAD PUSH1 0x40 MLOAD DUP1 SWAP2 SUB SWAP1 LOG4 JUMPDEST POP JUMPDEST DUP4 PUSH1 0x4 PUSH1 0x0 DUP6 DUP2 MSTORE PUSH1 0x20 ADD SWAP1 DUP2 MSTORE PUSH1 0x20 ADD PUSH1 0x0 KECCAK256 PUSH1 0x0 PUSH2 0x100 EXP DUP2 SLOAD DUP2 PUSH20 0xFFFFFFFFFFFFFFFFFFFFFFFFFFFFFFFFFFFFFFFF MUL NOT AND SWAP1 DUP4 PUSH20 0xFFFFFFFFFFFFFFFFFFFFFFFFFFFFFFFFFFFFFFFF AND MUL OR SWAP1 SSTORE POP POP POP POP POP JUMP JUMPDEST PUSH1 0x0 DUP1 PUSH2 0x33F9 DUP6 DUP6 DUP6 PUSH2 0x39A4 JUMP JUMPDEST SWAP1 POP PUSH1 0x0 PUSH20 0xFFFFFFFFFFFFFFFFFFFFFFFFFFFFFFFFFFFFFFFF AND DUP2 PUSH20 0xFFFFFFFFFFFFFFFFFFFFFFFFFFFFFFFFFFFFFFFF AND SUB PUSH2 0x343D JUMPI PUSH2 0x3438 DUP5 PUSH2 0x3BBE JUMP JUMPDEST PUSH2 0x347C JUMP JUMPDEST DUP5 PUSH20 0xFFFFFFFFFFFFFFFFFFFFFFFFFFFFFFFFFFFFFFFF AND DUP2 PUSH20 0xFFFFFFFFFFFFFFFFFFFFFFFFFFFFFFFFFFFFFFFF AND EQ PUSH2 0x347B JUMPI PUSH2 0x347A DUP2 DUP6 PUSH2 0x3C07 JUMP JUMPDEST JUMPDEST JUMPDEST PUSH1 0x0 PUSH20 0xFFFFFFFFFFFFFFFFFFFFFFFFFFFFFFFFFFFFFFFF AND DUP6 PUSH20 0xFFFFFFFFFFFFFFFFFFFFFFFFFFFFFFFFFFFFFFFF AND SUB PUSH2 0x34BE JUMPI PUSH2 0x34B9 DUP5 PUSH2 0x3CF2 JUMP JUMPDEST PUSH2 0x34FD JUMP JUMPDEST DUP5 PUSH20 0xFFFFFFFFFFFFFFFFFFFFFFFFFFFFFFFFFFFFFFFF AND DUP2 PUSH20 0xFFFFFFFFFFFFFFFFFFFFFFFFFFFFFFFFFFFFFFFF AND EQ PUSH2 0x34FC JUMPI PUSH2 0x34FB DUP6 DUP6 PUSH2 0x3DC3 JUMP JUMPDEST JUMPDEST JUMPDEST DUP1 SWAP2 POP POP SWAP4 SWAP3 POP POP POP JUMP JUMPDEST PUSH1 0x60 PUSH1 0xFF PUSH1 0x0 SHL DUP4 EQ PUSH2 0x3525 JUMPI PUSH2 0x351E DUP4 PUSH2 0x3E4E JUMP JUMPDEST SWAP1 POP PUSH2 0x35B2 JUMP JUMPDEST DUP2 DUP1 SLOAD PUSH2 0x3531 SWAP1 PUSH2 0x5541 JUMP JUMPDEST DUP1 PUSH1 0x1F ADD PUSH1 0x20 DUP1 SWAP2 DIV MUL PUSH1 0x20 ADD PUSH1 0x40 MLOAD SWAP1 DUP2 ADD PUSH1 0x40 MSTORE DUP1 SWAP3 SWAP2 SWAP1 DUP2 DUP2 MSTORE PUSH1 0x20 ADD DUP3 DUP1 SLOAD PUSH2 0x355D SWAP1 PUSH2 0x5541 JUMP JUMPDEST DUP1 ISZERO PUSH2 0x35AA JUMPI DUP1 PUSH1 0x1F LT PUSH2 0x357F JUMPI PUSH2 0x100 DUP1 DUP4 SLOAD DIV MUL DUP4 MSTORE SWAP2 PUSH1 0x20 ADD SWAP2 PUSH2 0x35AA JUMP JUMPDEST DUP3 ADD SWAP2 SWAP1 PUSH1 0x0 MSTORE PUSH1 0x20 PUSH1 0x0 KECCAK256 SWAP1 JUMPDEST DUP2 SLOAD DUP2 MSTORE SWAP1 PUSH1 0x1 ADD SWAP1 PUSH1 0x20 ADD DUP1 DUP4 GT PUSH2 0x358D JUMPI DUP3 SWAP1 SUB PUSH1 0x1F AND DUP3 ADD SWAP2 JUMPDEST POP POP POP POP POP SWAP1 POP JUMPDEST SWAP3 SWAP2 POP POP JUMP JUMPDEST PUSH1 0x60 PUSH1 0x40 MLOAD DUP1 PUSH1 0x20 ADD PUSH1 0x40 MSTORE DUP1 PUSH1 0x0 DUP2 MSTORE POP SWAP1 POP SWAP1 JUMP JUMPDEST PUSH1 0x60 PUSH2 0x35DA DUP3 PUSH2 0x27A0 JUMP JUMPDEST POP PUSH1 0x0 PUSH2 0x35E5 PUSH2 0x35B8 JUMP JUMPDEST SWAP1 POP PUSH1 0x0 DUP2 MLOAD GT PUSH2 0x3605 JUMPI PUSH1 0x40 MLOAD DUP1 PUSH1 0x20 ADD PUSH1 0x40 MSTORE DUP1 PUSH1 0x0 DUP2 MSTORE POP PUSH2 0x3630 JUMP JUMPDEST DUP1 PUSH2 0x360F DUP5 PUSH2 0x3EC2 JUMP JUMPDEST PUSH1 0x40 MLOAD PUSH1 0x20 ADD PUSH2 0x3620 SWAP3 SWAP2 SWAP1 PUSH2 0x5DD1 JUMP JUMPDEST PUSH1 0x40 MLOAD PUSH1 0x20 DUP2 DUP4 SUB SUB DUP2 MSTORE SWAP1 PUSH1 0x40 MSTORE JUMPDEST SWAP2 POP POP SWAP2 SWAP1 POP JUMP JUMPDEST PUSH1 0x0 PUSH32 0x8B73C3C69BB8FE3D512ECC4CF759CC79239F7B179B0FFACAA9A75D522B39400F PUSH32 0x0 PUSH32 0x0 CHAINID ADDRESS PUSH1 0x40 MLOAD PUSH1 0x20 ADD PUSH2 0x36B3 SWAP6 SWAP5 SWAP4 SWAP3 SWAP2 SWAP1 PUSH2 0x6073 JUMP JUMPDEST PUSH1 0x40 MLOAD PUSH1 0x20 DUP2 DUP4 SUB SUB DUP2 MSTORE SWAP1 PUSH1 0x40 MSTORE DUP1 MLOAD SWAP1 PUSH1 0x20 ADD KECCAK256 SWAP1 POP SWAP1 JUMP JUMPDEST PUSH1 0x0 DUP1 DUP3 SWAP1 POP PUSH1 0x0 JUMPDEST DUP5 MLOAD DUP2 LT ISZERO PUSH2 0x3713 JUMPI PUSH2 0x3704 DUP3 DUP7 DUP4 DUP2 MLOAD DUP2 LT PUSH2 0x36F7 JUMPI PUSH2 0x36F6 PUSH2 0x5572 JUMP JUMPDEST JUMPDEST PUSH1 0x20 MUL PUSH1 0x20 ADD ADD MLOAD PUSH2 0x3F90 JUMP JUMPDEST SWAP2 POP DUP1 DUP1 PUSH1 0x1 ADD SWAP2 POP POP PUSH2 0x36D7 JUMP JUMPDEST POP DUP1 SWAP2 POP POP SWAP3 SWAP2 POP POP JUMP JUMPDEST PUSH1 0x0 PUSH1 0x40 MLOAD PUSH32 0x1901000000000000000000000000000000000000000000000000000000000000 DUP2 MSTORE DUP4 PUSH1 0x2 DUP3 ADD MSTORE DUP3 PUSH1 0x22 DUP3 ADD MSTORE PUSH1 0x42 DUP2 KECCAK256 SWAP2 POP POP SWAP3 SWAP2 POP POP JUMP JUMPDEST PUSH1 0x0 DUP1 PUSH1 0x0 PUSH1 0x41 DUP5 MLOAD SUB PUSH2 0x37A4 JUMPI PUSH1 0x0 DUP1 PUSH1 0x0 PUSH1 0x20 DUP8 ADD MLOAD SWAP3 POP PUSH1 0x40 DUP8 ADD MLOAD SWAP2 POP PUSH1 0x60 DUP8 ADD MLOAD PUSH1 0x0 BYTE SWAP1 POP PUSH2 0x3796 DUP9 DUP3 DUP6 DUP6 PUSH2 0x3FBB JUMP JUMPDEST SWAP6 POP SWAP6 POP SWAP6 POP POP POP POP PUSH2 0x37B4 JUMP JUMPDEST PUSH1 0x0 PUSH1 0x2 DUP6 MLOAD PUSH1 0x0 SHL SWAP3 POP SWAP3 POP SWAP3 POP JUMPDEST SWAP3 POP SWAP3 POP SWAP3 JUMP JUMPDEST PUSH1 0x0 PUSH1 0x3 DUP2 GT ISZERO PUSH2 0x37CF JUMPI PUSH2 0x37CE PUSH2 0x496A JUMP JUMPDEST JUMPDEST DUP3 PUSH1 0x3 DUP2 GT ISZERO PUSH2 0x37E2 JUMPI PUSH2 0x37E1 PUSH2 0x496A JUMP JUMPDEST JUMPDEST SUB ISZERO PUSH2 0x391B JUMPI PUSH1 0x1 PUSH1 0x3 DUP2 GT ISZERO PUSH2 0x37FC JUMPI PUSH2 0x37FB PUSH2 0x496A JUMP JUMPDEST JUMPDEST DUP3 PUSH1 0x3 DUP2 GT ISZERO PUSH2 0x380F JUMPI PUSH2 0x380E PUSH2 0x496A JUMP JUMPDEST JUMPDEST SUB PUSH2 0x3846 JUMPI PUSH1 0x40 MLOAD PUSH32 0xF645EEDF00000000000000000000000000000000000000000000000000000000 DUP2 MSTORE PUSH1 0x4 ADD PUSH1 0x40 MLOAD DUP1 SWAP2 SUB SWAP1 REVERT JUMPDEST PUSH1 0x2 PUSH1 0x3 DUP2 GT ISZERO PUSH2 0x385A JUMPI PUSH2 0x3859 PUSH2 0x496A JUMP JUMPDEST JUMPDEST DUP3 PUSH1 0x3 DUP2 GT ISZERO PUSH2 0x386D JUMPI PUSH2 0x386C PUSH2 0x496A JUMP JUMPDEST JUMPDEST SUB PUSH2 0x38B2 JUMPI DUP1 PUSH1 0x0 SHR PUSH1 0x40 MLOAD PUSH32 0xFCE698F700000000000000000000000000000000000000000000000000000000 DUP2 MSTORE PUSH1 0x4 ADD PUSH2 0x38A9 SWAP2 SWAP1 PUSH2 0x494F JUMP JUMPDEST PUSH1 0x40 MLOAD DUP1 SWAP2 SUB SWAP1 REVERT JUMPDEST PUSH1 0x3 DUP1 DUP2 GT ISZERO PUSH2 0x38C5 JUMPI PUSH2 0x38C4 PUSH2 0x496A JUMP JUMPDEST JUMPDEST DUP3 PUSH1 0x3 DUP2 GT ISZERO PUSH2 0x38D8 JUMPI PUSH2 0x38D7 PUSH2 0x496A JUMP JUMPDEST JUMPDEST SUB PUSH2 0x391A JUMPI DUP1 PUSH1 0x40 MLOAD PUSH32 0xD78BCE0C00000000000000000000000000000000000000000000000000000000 DUP2 MSTORE PUSH1 0x4 ADD PUSH2 0x3911 SWAP2 SWAP1 PUSH2 0x52CF JUMP JUMPDEST PUSH1 0x40 MLOAD DUP1 SWAP2 SUB SWAP1 REVERT JUMPDEST JUMPDEST POP POP JUMP JUMPDEST PUSH2 0x3929 DUP4 DUP4 PUSH2 0x40AF JUMP JUMPDEST PUSH2 0x393E PUSH2 0x3934 PUSH2 0x2865 JUMP JUMPDEST PUSH1 0x0 DUP6 DUP6 DUP6 PUSH2 0x2D1D JUMP JUMPDEST POP POP POP JUMP JUMPDEST PUSH1 0x0 PUSH4 0x49064906 PUSH1 0xE0 SHL PUSH28 0xFFFFFFFFFFFFFFFFFFFFFFFFFFFFFFFFFFFFFFFFFFFFFFFFFFFFFFFF NOT AND DUP3 PUSH28 0xFFFFFFFFFFFFFFFFFFFFFFFFFFFFFFFFFFFFFFFFFFFFFFFFFFFFFFFF NOT AND EQ DUP1 PUSH2 0x399D JUMPI POP PUSH2 0x399C DUP3 PUSH2 0x41A8 JUMP JUMPDEST JUMPDEST SWAP1 POP SWAP2 SWAP1 POP JUMP JUMPDEST PUSH1 0x0 DUP1 PUSH2 0x39B0 DUP5 PUSH2 0x31E9 JUMP JUMPDEST SWAP1 POP PUSH1 0x0 PUSH20 0xFFFFFFFFFFFFFFFFFFFFFFFFFFFFFFFFFFFFFFFF AND DUP4 PUSH20 0xFFFFFFFFFFFFFFFFFFFFFFFFFFFFFFFFFFFFFFFF AND EQ PUSH2 0x39F2 JUMPI PUSH2 0x39F1 DUP2 DUP5 DUP7 PUSH2 0x428A JUMP JUMPDEST JUMPDEST PUSH1 0x0 PUSH20 0xFFFFFFFFFFFFFFFFFFFFFFFFFFFFFFFFFFFFFFFF AND DUP2 PUSH20 0xFFFFFFFFFFFFFFFFFFFFFFFFFFFFFFFFFFFFFFFF AND EQ PUSH2 0x3A83 JUMPI PUSH2 0x3A34 PUSH1 0x0 DUP6 PUSH1 0x0 DUP1 PUSH2 0x3226 JUMP JUMPDEST PUSH1 0x1 PUSH1 0x3 PUSH1 0x0 DUP4 PUSH20 0xFFFFFFFFFFFFFFFFFFFFFFFFFFFFFFFFFFFFFFFF AND PUSH20 0xFFFFFFFFFFFFFFFFFFFFFFFFFFFFFFFFFFFFFFFF AND DUP2 MSTORE PUSH1 0x20 ADD SWAP1 DUP2 MSTORE PUSH1 0x20 ADD PUSH1 0x0 KECCAK256 PUSH1 0x0 DUP3 DUP3 SLOAD SUB SWAP3 POP POP DUP2 SWAP1 SSTORE POP JUMPDEST PUSH1 0x0 PUSH20 0xFFFFFFFFFFFFFFFFFFFFFFFFFFFFFFFFFFFFFFFF AND DUP6 PUSH20 0xFFFFFFFFFFFFFFFFFFFFFFFFFFFFFFFFFFFFFFFF AND EQ PUSH2 0x3B06 JUMPI PUSH1 0x1 PUSH1 0x3 PUSH1 0x0 DUP8 PUSH20 0xFFFFFFFFFFFFFFFFFFFFFFFFFFFFFFFFFFFFFFFF AND PUSH20 0xFFFFFFFFFFFFFFFFFFFFFFFFFFFFFFFFFFFFFFFF AND DUP2 MSTORE PUSH1 0x20 ADD SWAP1 DUP2 MSTORE PUSH1 0x20 ADD PUSH1 0x0 KECCAK256 PUSH1 0x0 DUP3 DUP3 SLOAD ADD SWAP3 POP POP DUP2 SWAP1 SSTORE POP JUMPDEST DUP5 PUSH1 0x2 PUSH1 0x0 DUP7 DUP2 MSTORE PUSH1 0x20 ADD SWAP1 DUP2 MSTORE PUSH1 0x20 ADD PUSH1 0x0 KECCAK256 PUSH1 0x0 PUSH2 0x100 EXP DUP2 SLOAD DUP2 PUSH20 0xFFFFFFFFFFFFFFFFFFFFFFFFFFFFFFFFFFFFFFFF MUL NOT AND SWAP1 DUP4 PUSH20 0xFFFFFFFFFFFFFFFFFFFFFFFFFFFFFFFFFFFFFFFF AND MUL OR SWAP1 SSTORE POP DUP4 DUP6 PUSH20 0xFFFFFFFFFFFFFFFFFFFFFFFFFFFFFFFFFFFFFFFF AND DUP3 PUSH20 0xFFFFFFFFFFFFFFFFFFFFFFFFFFFFFFFFFFFFFFFF AND PUSH32 0xDDF252AD1BE2C89B69C2B068FC378DAA952BA7F163C4A11628F55A4DF523B3EF PUSH1 0x40 MLOAD PUSH1 0x40 MLOAD DUP1 SWAP2 SUB SWAP1 LOG4 DUP1 SWAP2 POP POP SWAP4 SWAP3 POP POP POP JUMP JUMPDEST PUSH1 0xC DUP1 SLOAD SWAP1 POP PUSH1 0xD PUSH1 0x0 DUP4 DUP2 MSTORE PUSH1 0x20 ADD SWAP1 DUP2 MSTORE PUSH1 0x20 ADD PUSH1 0x0 KECCAK256 DUP2 SWAP1 SSTORE POP PUSH1 0xC DUP2 SWAP1 DUP1 PUSH1 0x1 DUP2 SLOAD ADD DUP1 DUP3 SSTORE DUP1 SWAP2 POP POP PUSH1 0x1 SWAP1 SUB SWAP1 PUSH1 0x0 MSTORE PUSH1 0x20 PUSH1 0x0 KECCAK256 ADD PUSH1 0x0 SWAP1 SWAP2 SWAP1 SWAP2 SWAP1 SWAP2 POP SSTORE POP JUMP JUMPDEST PUSH1 0x0 PUSH2 0x3C12 DUP4 PUSH2 0x10FE JUMP JUMPDEST SWAP1 POP PUSH1 0x0 PUSH1 0xB PUSH1 0x0 DUP5 DUP2 MSTORE PUSH1 0x20 ADD SWAP1 DUP2 MSTORE PUSH1 0x20 ADD PUSH1 0x0 KECCAK256 SLOAD SWAP1 POP PUSH1 0x0 PUSH1 0xA PUSH1 0x0 DUP7 PUSH20 0xFFFFFFFFFFFFFFFFFFFFFFFFFFFFFFFFFFFFFFFF AND PUSH20 0xFFFFFFFFFFFFFFFFFFFFFFFFFFFFFFFFFFFFFFFF AND DUP2 MSTORE PUSH1 0x20 ADD SWAP1 DUP2 MSTORE PUSH1 0x20 ADD PUSH1 0x0 KECCAK256 SWAP1 POP DUP3 DUP3 EQ PUSH2 0x3CBE JUMPI PUSH1 0x0 DUP2 PUSH1 0x0 DUP6 DUP2 MSTORE PUSH1 0x20 ADD SWAP1 DUP2 MSTORE PUSH1 0x20 ADD PUSH1 0x0 KECCAK256 SLOAD SWAP1 POP DUP1 DUP3 PUSH1 0x0 DUP6 DUP2 MSTORE PUSH1 0x20 ADD SWAP1 DUP2 MSTORE PUSH1 0x20 ADD PUSH1 0x0 KECCAK256 DUP2 SWAP1 SSTORE POP DUP3 PUSH1 0xB PUSH1 0x0 DUP4 DUP2 MSTORE PUSH1 0x20 ADD SWAP1 DUP2 MSTORE PUSH1 0x20 ADD PUSH1 0x0 KECCAK256 DUP2 SWAP1 SSTORE POP POP JUMPDEST PUSH1 0xB PUSH1 0x0 DUP6 DUP2 MSTORE PUSH1 0x20 ADD SWAP1 DUP2 MSTORE PUSH1 0x20 ADD PUSH1 0x0 KECCAK256 PUSH1 0x0 SWAP1 SSTORE DUP1 PUSH1 0x0 DUP5 DUP2 MSTORE PUSH1 0x20 ADD SWAP1 DUP2 MSTORE PUSH1 0x20 ADD PUSH1 0x0 KECCAK256 PUSH1 0x0 SWAP1 SSTORE POP POP POP POP POP JUMP JUMPDEST PUSH1 0x0 PUSH1 0x1 PUSH1 0xC DUP1 SLOAD SWAP1 POP PUSH2 0x3D06 SWAP2 SWAP1 PUSH2 0x5C63 JUMP JUMPDEST SWAP1 POP PUSH1 0x0 PUSH1 0xD PUSH1 0x0 DUP5 DUP2 MSTORE PUSH1 0x20 ADD SWAP1 DUP2 MSTORE PUSH1 0x20 ADD PUSH1 0x0 KECCAK256 SLOAD SWAP1 POP PUSH1 0x0 PUSH1 0xC DUP4 DUP2 SLOAD DUP2 LT PUSH2 0x3D36 JUMPI PUSH2 0x3D35 PUSH2 0x5572 JUMP JUMPDEST JUMPDEST SWAP1 PUSH1 0x0 MSTORE PUSH1 0x20 PUSH1 0x0 KECCAK256 ADD SLOAD SWAP1 POP DUP1 PUSH1 0xC DUP4 DUP2 SLOAD DUP2 LT PUSH2 0x3D58 JUMPI PUSH2 0x3D57 PUSH2 0x5572 JUMP JUMPDEST JUMPDEST SWAP1 PUSH1 0x0 MSTORE PUSH1 0x20 PUSH1 0x0 KECCAK256 ADD DUP2 SWAP1 SSTORE POP DUP2 PUSH1 0xD PUSH1 0x0 DUP4 DUP2 MSTORE PUSH1 0x20 ADD SWAP1 DUP2 MSTORE PUSH1 0x20 ADD PUSH1 0x0 KECCAK256 DUP2 SWAP1 SSTORE POP PUSH1 0xD PUSH1 0x0 DUP6 DUP2 MSTORE PUSH1 0x20 ADD SWAP1 DUP2 MSTORE PUSH1 0x20 ADD PUSH1 0x0 KECCAK256 PUSH1 0x0 SWAP1 SSTORE PUSH1 0xC DUP1 SLOAD DUP1 PUSH2 0x3DA7 JUMPI PUSH2 0x3DA6 PUSH2 0x60C6 JUMP JUMPDEST JUMPDEST PUSH1 0x1 SWAP1 SUB DUP2 DUP2 SWAP1 PUSH1 0x0 MSTORE PUSH1 0x20 PUSH1 0x0 KECCAK256 ADD PUSH1 0x0 SWAP1 SSTORE SWAP1 SSTORE POP POP POP POP JUMP JUMPDEST PUSH1 0x0 PUSH1 0x1 PUSH2 0x3DD0 DUP5 PUSH2 0x10FE JUMP JUMPDEST PUSH2 0x3DDA SWAP2 SWAP1 PUSH2 0x5C63 JUMP JUMPDEST SWAP1 POP DUP2 PUSH1 0xA PUSH1 0x0 DUP6 PUSH20 0xFFFFFFFFFFFFFFFFFFFFFFFFFFFFFFFFFFFFFFFF AND PUSH20 0xFFFFFFFFFFFFFFFFFFFFFFFFFFFFFFFFFFFFFFFF AND DUP2 MSTORE PUSH1 0x20 ADD SWAP1 DUP2 MSTORE PUSH1 0x20 ADD PUSH1 0x0 KECCAK256 PUSH1 0x0 DUP4 DUP2 MSTORE PUSH1 0x20 ADD SWAP1 DUP2 MSTORE PUSH1 0x20 ADD PUSH1 0x0 KECCAK256 DUP2 SWAP1 SSTORE POP DUP1 PUSH1 0xB PUSH1 0x0 DUP5 DUP2 MSTORE PUSH1 0x20 ADD SWAP1 DUP2 MSTORE PUSH1 0x20 ADD PUSH1 0x0 KECCAK256 DUP2 SWAP1 SSTORE POP POP POP POP JUMP JUMPDEST PUSH1 0x60 PUSH1 0x0 PUSH2 0x3E5B DUP4 PUSH2 0x434E JUMP JUMPDEST SWAP1 POP PUSH1 0x0 PUSH1 0x20 PUSH8 0xFFFFFFFFFFFFFFFF DUP2 GT ISZERO PUSH2 0x3E7A JUMPI PUSH2 0x3E79 PUSH2 0x5033 JUMP JUMPDEST JUMPDEST PUSH1 0x40 MLOAD SWAP1 DUP1 DUP3 MSTORE DUP1 PUSH1 0x1F ADD PUSH1 0x1F NOT AND PUSH1 0x20 ADD DUP3 ADD PUSH1 0x40 MSTORE DUP1 ISZERO PUSH2 0x3EAC JUMPI DUP2 PUSH1 0x20 ADD PUSH1 0x1 DUP3 MUL DUP1 CALLDATASIZE DUP4 CALLDATACOPY DUP1 DUP3 ADD SWAP2 POP POP SWAP1 POP JUMPDEST POP SWAP1 POP DUP2 DUP2 MSTORE DUP4 PUSH1 0x20 DUP3 ADD MSTORE DUP1 SWAP3 POP POP POP SWAP2 SWAP1 POP JUMP JUMPDEST PUSH1 0x60 PUSH1 0x0 PUSH1 0x1 PUSH2 0x3ED1 DUP5 PUSH2 0x439E JUMP JUMPDEST ADD SWAP1 POP PUSH1 0x0 DUP2 PUSH8 0xFFFFFFFFFFFFFFFF DUP2 GT ISZERO PUSH2 0x3EF0 JUMPI PUSH2 0x3EEF PUSH2 0x5033 JUMP JUMPDEST JUMPDEST PUSH1 0x40 MLOAD SWAP1 DUP1 DUP3 MSTORE DUP1 PUSH1 0x1F ADD PUSH1 0x1F NOT AND PUSH1 0x20 ADD DUP3 ADD PUSH1 0x40 MSTORE DUP1 ISZERO PUSH2 0x3F22 JUMPI DUP2 PUSH1 0x20 ADD PUSH1 0x1 DUP3 MUL DUP1 CALLDATASIZE DUP4 CALLDATACOPY DUP1 DUP3 ADD SWAP2 POP POP SWAP1 POP JUMPDEST POP SWAP1 POP PUSH1 0x0 DUP3 PUSH1 0x20 ADD DUP3 ADD SWAP1 POP JUMPDEST PUSH1 0x1 ISZERO PUSH2 0x3F85 JUMPI DUP1 DUP1 PUSH1 0x1 SWAP1 SUB SWAP2 POP POP PUSH32 0x3031323334353637383961626364656600000000000000000000000000000000 PUSH1 0xA DUP7 MOD BYTE DUP2 MSTORE8 PUSH1 0xA DUP6 DUP2 PUSH2 0x3F79 JUMPI PUSH2 0x3F78 PUSH2 0x5649 JUMP JUMPDEST JUMPDEST DIV SWAP5 POP PUSH1 0x0 DUP6 SUB PUSH2 0x3F30 JUMPI JUMPDEST DUP2 SWAP4 POP POP POP POP SWAP2 SWAP1 POP JUMP JUMPDEST PUSH1 0x0 DUP2 DUP4 LT PUSH2 0x3FA8 JUMPI PUSH2 0x3FA3 DUP3 DUP5 PUSH2 0x44F1 JUMP JUMPDEST PUSH2 0x3FB3 JUMP JUMPDEST PUSH2 0x3FB2 DUP4 DUP4 PUSH2 0x44F1 JUMP JUMPDEST JUMPDEST SWAP1 POP SWAP3 SWAP2 POP POP JUMP JUMPDEST PUSH1 0x0 DUP1 PUSH1 0x0 PUSH32 0x7FFFFFFFFFFFFFFFFFFFFFFFFFFFFFFF5D576E7357A4501DDFE92F46681B20A0 DUP5 PUSH1 0x0 SHR GT ISZERO PUSH2 0x3FFB JUMPI PUSH1 0x0 PUSH1 0x3 DUP6 SWAP3 POP SWAP3 POP SWAP3 POP PUSH2 0x40A5 JUMP JUMPDEST PUSH1 0x0 PUSH1 0x1 DUP9 DUP9 DUP9 DUP9 PUSH1 0x40 MLOAD PUSH1 0x0 DUP2 MSTORE PUSH1 0x20 ADD PUSH1 0x40 MSTORE PUSH1 0x40 MLOAD PUSH2 0x4020 SWAP5 SWAP4 SWAP3 SWAP2 SWAP1 PUSH2 0x6111 JUMP JUMPDEST PUSH1 0x20 PUSH1 0x40 MLOAD PUSH1 0x20 DUP2 SUB SWAP1 DUP1 DUP5 SUB SWAP1 DUP6 GAS STATICCALL ISZERO DUP1 ISZERO PUSH2 0x4042 JUMPI RETURNDATASIZE PUSH1 0x0 DUP1 RETURNDATACOPY RETURNDATASIZE PUSH1 0x0 REVERT JUMPDEST POP POP POP PUSH1 0x20 PUSH1 0x40 MLOAD SUB MLOAD SWAP1 POP PUSH1 0x0 PUSH20 0xFFFFFFFFFFFFFFFFFFFFFFFFFFFFFFFFFFFFFFFF AND DUP2 PUSH20 0xFFFFFFFFFFFFFFFFFFFFFFFFFFFFFFFFFFFFFFFF AND SUB PUSH2 0x4096 JUMPI PUSH1 0x0 PUSH1 0x1 PUSH1 0x0 DUP1 SHL SWAP4 POP SWAP4 POP SWAP4 POP POP PUSH2 0x40A5 JUMP JUMPDEST DUP1 PUSH1 0x0 DUP1 PUSH1 0x0 SHL SWAP4 POP SWAP4 POP SWAP4 POP POP JUMPDEST SWAP5 POP SWAP5 POP SWAP5 SWAP2 POP POP JUMP JUMPDEST PUSH1 0x0 PUSH20 0xFFFFFFFFFFFFFFFFFFFFFFFFFFFFFFFFFFFFFFFF AND DUP3 PUSH20 0xFFFFFFFFFFFFFFFFFFFFFFFFFFFFFFFFFFFFFFFF AND SUB PUSH2 0x4121 JUMPI PUSH1 0x0 PUSH1 0x40 MLOAD PUSH32 0x64A0AE9200000000000000000000000000000000000000000000000000000000 DUP2 MSTORE PUSH1 0x4 ADD PUSH2 0x4118 SWAP2 SWAP1 PUSH2 0x48B9 JUMP JUMPDEST PUSH1 0x40 MLOAD DUP1 SWAP2 SUB SWAP1 REVERT JUMPDEST PUSH1 0x0 PUSH2 0x412F DUP4 DUP4 PUSH1 0x0 PUSH2 0x29CB JUMP JUMPDEST SWAP1 POP PUSH1 0x0 PUSH20 0xFFFFFFFFFFFFFFFFFFFFFFFFFFFFFFFFFFFFFFFF AND DUP2 PUSH20 0xFFFFFFFFFFFFFFFFFFFFFFFFFFFFFFFFFFFFFFFF AND EQ PUSH2 0x41A3 JUMPI PUSH1 0x0 PUSH1 0x40 MLOAD PUSH32 0x73C6AC6E00000000000000000000000000000000000000000000000000000000 DUP2 MSTORE PUSH1 0x4 ADD PUSH2 0x419A SWAP2 SWAP1 PUSH2 0x48B9 JUMP JUMPDEST PUSH1 0x40 MLOAD DUP1 SWAP2 SUB SWAP1 REVERT JUMPDEST POP POP POP JUMP JUMPDEST PUSH1 0x0 PUSH32 0x80AC58CD00000000000000000000000000000000000000000000000000000000 PUSH28 0xFFFFFFFFFFFFFFFFFFFFFFFFFFFFFFFFFFFFFFFFFFFFFFFFFFFFFFFF NOT AND DUP3 PUSH28 0xFFFFFFFFFFFFFFFFFFFFFFFFFFFFFFFFFFFFFFFFFFFFFFFFFFFFFFFF NOT AND EQ DUP1 PUSH2 0x4273 JUMPI POP PUSH32 0x5B5E139F00000000000000000000000000000000000000000000000000000000 PUSH28 0xFFFFFFFFFFFFFFFFFFFFFFFFFFFFFFFFFFFFFFFFFFFFFFFFFFFFFFFF NOT AND DUP3 PUSH28 0xFFFFFFFFFFFFFFFFFFFFFFFFFFFFFFFFFFFFFFFFFFFFFFFFFFFFFFFF NOT AND EQ JUMPDEST DUP1 PUSH2 0x4283 JUMPI POP PUSH2 0x4282 DUP3 PUSH2 0x4508 JUMP JUMPDEST JUMPDEST SWAP1 POP SWAP2 SWAP1 POP JUMP JUMPDEST PUSH2 0x4295 DUP4 DUP4 DUP4 PUSH2 0x4572 JUMP JUMPDEST PUSH2 0x4349 JUMPI PUSH1 0x0 PUSH20 0xFFFFFFFFFFFFFFFFFFFFFFFFFFFFFFFFFFFFFFFF AND DUP4 PUSH20 0xFFFFFFFFFFFFFFFFFFFFFFFFFFFFFFFFFFFFFFFF AND SUB PUSH2 0x430A JUMPI DUP1 PUSH1 0x40 MLOAD PUSH32 0x7E27328900000000000000000000000000000000000000000000000000000000 DUP2 MSTORE PUSH1 0x4 ADD PUSH2 0x4301 SWAP2 SWAP1 PUSH2 0x494F JUMP JUMPDEST PUSH1 0x40 MLOAD DUP1 SWAP2 SUB SWAP1 REVERT JUMPDEST DUP2 DUP2 PUSH1 0x40 MLOAD PUSH32 0x177E802F00000000000000000000000000000000000000000000000000000000 DUP2 MSTORE PUSH1 0x4 ADD PUSH2 0x4340 SWAP3 SWAP2 SWAP1 PUSH2 0x4B7D JUMP JUMPDEST PUSH1 0x40 MLOAD DUP1 SWAP2 SUB SWAP1 REVERT JUMPDEST POP POP POP JUMP JUMPDEST PUSH1 0x0 DUP1 PUSH1 0xFF DUP4 PUSH1 0x0 SHR AND SWAP1 POP PUSH1 0x1F DUP2 GT ISZERO PUSH2 0x4395 JUMPI PUSH1 0x40 MLOAD PUSH32 0xB3512B0C00000000000000000000000000000000000000000000000000000000 DUP2 MSTORE PUSH1 0x4 ADD PUSH1 0x40 MLOAD DUP1 SWAP2 SUB SWAP1 REVERT JUMPDEST DUP1 SWAP2 POP POP SWAP2 SWAP1 POP JUMP JUMPDEST PUSH1 0x0 DUP1 PUSH1 0x0 SWAP1 POP PUSH27 0x184F03E93FF9F4DAA797ED6E38ED64BF6A1F010000000000000000 DUP4 LT PUSH2 0x43FC JUMPI PUSH27 0x184F03E93FF9F4DAA797ED6E38ED64BF6A1F010000000000000000 DUP4 DUP2 PUSH2 0x43F2 JUMPI PUSH2 0x43F1 PUSH2 0x5649 JUMP JUMPDEST JUMPDEST DIV SWAP3 POP PUSH1 0x40 DUP2 ADD SWAP1 POP JUMPDEST PUSH14 0x4EE2D6D415B85ACEF8100000000 DUP4 LT PUSH2 0x4439 JUMPI PUSH14 0x4EE2D6D415B85ACEF8100000000 DUP4 DUP2 PUSH2 0x442F JUMPI PUSH2 0x442E PUSH2 0x5649 JUMP JUMPDEST JUMPDEST DIV SWAP3 POP PUSH1 0x20 DUP2 ADD SWAP1 POP JUMPDEST PUSH7 0x2386F26FC10000 DUP4 LT PUSH2 0x4468 JUMPI PUSH7 0x2386F26FC10000 DUP4 DUP2 PUSH2 0x445E JUMPI PUSH2 0x445D PUSH2 0x5649 JUMP JUMPDEST JUMPDEST DIV SWAP3 POP PUSH1 0x10 DUP2 ADD SWAP1 POP JUMPDEST PUSH4 0x5F5E100 DUP4 LT PUSH2 0x4491 JUMPI PUSH4 0x5F5E100 DUP4 DUP2 PUSH2 0x4487 JUMPI PUSH2 0x4486 PUSH2 0x5649 JUMP JUMPDEST JUMPDEST DIV SWAP3 POP PUSH1 0x8 DUP2 ADD SWAP1 POP JUMPDEST PUSH2 0x2710 DUP4 LT PUSH2 0x44B6 JUMPI PUSH2 0x2710 DUP4 DUP2 PUSH2 0x44AC JUMPI PUSH2 0x44AB PUSH2 0x5649 JUMP JUMPDEST JUMPDEST DIV SWAP3 POP PUSH1 0x4 DUP2 ADD SWAP1 POP JUMPDEST PUSH1 0x64 DUP4 LT PUSH2 0x44D9 JUMPI PUSH1 0x64 DUP4 DUP2 PUSH2 0x44CF JUMPI PUSH2 0x44CE PUSH2 0x5649 JUMP JUMPDEST JUMPDEST DIV SWAP3 POP PUSH1 0x2 DUP2 ADD SWAP1 POP JUMPDEST PUSH1 0xA DUP4 LT PUSH2 0x44E8 JUMPI PUSH1 0x1 DUP2 ADD SWAP1 POP JUMPDEST DUP1 SWAP2 POP POP SWAP2 SWAP1 POP JUMP JUMPDEST PUSH1 0x0 DUP3 PUSH1 0x0 MSTORE DUP2 PUSH1 0x20 MSTORE PUSH1 0x40 PUSH1 0x0 KECCAK256 SWAP1 POP SWAP3 SWAP2 POP POP JUMP JUMPDEST PUSH1 0x0 PUSH32 0x1FFC9A700000000000000000000000000000000000000000000000000000000 PUSH28 0xFFFFFFFFFFFFFFFFFFFFFFFFFFFFFFFFFFFFFFFFFFFFFFFFFFFFFFFF NOT AND DUP3 PUSH28 0xFFFFFFFFFFFFFFFFFFFFFFFFFFFFFFFFFFFFFFFFFFFFFFFFFFFFFFFF NOT AND EQ SWAP1 POP SWAP2 SWAP1 POP JUMP JUMPDEST PUSH1 0x0 DUP1 PUSH20 0xFFFFFFFFFFFFFFFFFFFFFFFFFFFFFFFFFFFFFFFF AND DUP4 PUSH20 0xFFFFFFFFFFFFFFFFFFFFFFFFFFFFFFFFFFFFFFFF AND EQ ISZERO DUP1 ISZERO PUSH2 0x462A JUMPI POP DUP3 PUSH20 0xFFFFFFFFFFFFFFFFFFFFFFFFFFFFFFFFFFFFFFFF AND DUP5 PUSH20 0xFFFFFFFFFFFFFFFFFFFFFFFFFFFFFFFFFFFFFFFF AND EQ DUP1 PUSH2 0x45EB JUMPI POP PUSH2 0x45EA DUP5 DUP5 PUSH2 0x1CD2 JUMP JUMPDEST JUMPDEST DUP1 PUSH2 0x4629 JUMPI POP DUP3 PUSH20 0xFFFFFFFFFFFFFFFFFFFFFFFFFFFFFFFFFFFFFFFF AND PUSH2 0x4611 DUP4 PUSH2 0x2828 JUMP JUMPDEST PUSH20 0xFFFFFFFFFFFFFFFFFFFFFFFFFFFFFFFFFFFFFFFF AND EQ JUMPDEST JUMPDEST SWAP1 POP SWAP4 SWAP3 POP POP POP JUMP JUMPDEST PUSH1 0x40 MLOAD DUP1 PUSH2 0x120 ADD PUSH1 0x40 MSTORE DUP1 PUSH1 0x0 PUSH1 0x2 DUP2 GT ISZERO PUSH2 0x4653 JUMPI PUSH2 0x4652 PUSH2 0x496A JUMP JUMPDEST JUMPDEST DUP2 MSTORE PUSH1 0x20 ADD PUSH1 0x0 DUP2 MSTORE PUSH1 0x20 ADD PUSH1 0x0 DUP2 MSTORE PUSH1 0x20 ADD PUSH1 0x0 DUP2 MSTORE PUSH1 0x20 ADD PUSH1 0x0 DUP2 MSTORE PUSH1 0x20 ADD PUSH1 0x0 DUP2 MSTORE PUSH1 0x20 ADD PUSH1 0x0 DUP2 MSTORE PUSH1 0x20 ADD PUSH1 0x0 DUP2 MSTORE PUSH1 0x20 ADD PUSH1 0x0 DUP1 NOT AND DUP2 MSTORE POP SWAP1 JUMP JUMPDEST PUSH1 0x0 PUSH1 0x40 MLOAD SWAP1 POP SWAP1 JUMP JUMPDEST PUSH1 0x0 DUP1 REVERT JUMPDEST PUSH1 0x0 DUP1 REVERT JUMPDEST PUSH1 0x0 PUSH32 0xFFFFFFFF00000000000000000000000000000000000000000000000000000000 DUP3 AND SWAP1 POP SWAP2 SWAP1 POP JUMP JUMPDEST PUSH2 0x46DD DUP2 PUSH2 0x46A8 JUMP JUMPDEST DUP2 EQ PUSH2 0x46E8 JUMPI PUSH1 0x0 DUP1 REVERT JUMPDEST POP JUMP JUMPDEST PUSH1 0x0 DUP2 CALLDATALOAD SWAP1 POP PUSH2 0x46FA DUP2 PUSH2 0x46D4 JUMP JUMPDEST SWAP3 SWAP2 POP POP JUMP JUMPDEST PUSH1 0x0 PUSH1 0x20 DUP3 DUP5 SUB SLT ISZERO PUSH2 0x4716 JUMPI PUSH2 0x4715 PUSH2 0x469E JUMP JUMPDEST JUMPDEST PUSH1 0x0 PUSH2 0x4724 DUP5 DUP3 DUP6 ADD PUSH2 0x46EB JUMP JUMPDEST SWAP2 POP POP SWAP3 SWAP2 POP POP JUMP JUMPDEST PUSH1 0x0 DUP2 ISZERO ISZERO SWAP1 POP SWAP2 SWAP1 POP JUMP JUMPDEST PUSH2 0x4742 DUP2 PUSH2 0x472D JUMP JUMPDEST DUP3 MSTORE POP POP JUMP JUMPDEST PUSH1 0x0 PUSH1 0x20 DUP3 ADD SWAP1 POP PUSH2 0x475D PUSH1 0x0 DUP4 ADD DUP5 PUSH2 0x4739 JUMP JUMPDEST SWAP3 SWAP2 POP POP JUMP JUMPDEST PUSH1 0x0 DUP2 MLOAD SWAP1 POP SWAP2 SWAP1 POP JUMP JUMPDEST PUSH1 0x0 DUP3 DUP3 MSTORE PUSH1 0x20 DUP3 ADD SWAP1 POP SWAP3 SWAP2 POP POP JUMP JUMPDEST PUSH1 0x0 JUMPDEST DUP4 DUP2 LT ISZERO PUSH2 0x479D JUMPI DUP1 DUP3 ADD MLOAD DUP2 DUP5 ADD MSTORE PUSH1 0x20 DUP2 ADD SWAP1 POP PUSH2 0x4782 JUMP JUMPDEST PUSH1 0x0 DUP5 DUP5 ADD MSTORE POP POP POP POP JUMP JUMPDEST PUSH1 0x0 PUSH1 0x1F NOT PUSH1 0x1F DUP4 ADD AND SWAP1 POP SWAP2 SWAP1 POP JUMP JUMPDEST PUSH1 0x0 PUSH2 0x47C5 DUP3 PUSH2 0x4763 JUMP JUMPDEST PUSH2 0x47CF DUP2 DUP6 PUSH2 0x476E JUMP JUMPDEST SWAP4 POP PUSH2 0x47DF DUP2 DUP6 PUSH1 0x20 DUP7 ADD PUSH2 0x477F JUMP JUMPDEST PUSH2 0x47E8 DUP2 PUSH2 0x47A9 JUMP JUMPDEST DUP5 ADD SWAP2 POP POP SWAP3 SWAP2 POP POP JUMP JUMPDEST PUSH1 0x0 PUSH1 0x20 DUP3 ADD SWAP1 POP DUP2 DUP2 SUB PUSH1 0x0 DUP4 ADD MSTORE PUSH2 0x480D DUP2 DUP5 PUSH2 0x47BA JUMP JUMPDEST SWAP1 POP SWAP3 SWAP2 POP POP JUMP JUMPDEST PUSH1 0x0 DUP2 SWAP1 POP SWAP2 SWAP1 POP JUMP JUMPDEST PUSH2 0x4828 DUP2 PUSH2 0x4815 JUMP JUMPDEST DUP2 EQ PUSH2 0x4833 JUMPI PUSH1 0x0 DUP1 REVERT JUMPDEST POP JUMP JUMPDEST PUSH1 0x0 DUP2 CALLDATALOAD SWAP1 POP PUSH2 0x4845 DUP2 PUSH2 0x481F JUMP JUMPDEST SWAP3 SWAP2 POP POP JUMP JUMPDEST PUSH1 0x0 PUSH1 0x20 DUP3 DUP5 SUB SLT ISZERO PUSH2 0x4861 JUMPI PUSH2 0x4860 PUSH2 0x469E JUMP JUMPDEST JUMPDEST PUSH1 0x0 PUSH2 0x486F DUP5 DUP3 DUP6 ADD PUSH2 0x4836 JUMP JUMPDEST SWAP2 POP POP SWAP3 SWAP2 POP POP JUMP JUMPDEST PUSH1 0x0 PUSH20 0xFFFFFFFFFFFFFFFFFFFFFFFFFFFFFFFFFFFFFFFF DUP3 AND SWAP1 POP SWAP2 SWAP1 POP JUMP JUMPDEST PUSH1 0x0 PUSH2 0x48A3 DUP3 PUSH2 0x4878 JUMP JUMPDEST SWAP1 POP SWAP2 SWAP1 POP JUMP JUMPDEST PUSH2 0x48B3 DUP2 PUSH2 0x4898 JUMP JUMPDEST DUP3 MSTORE POP POP JUMP JUMPDEST PUSH1 0x0 PUSH1 0x20 DUP3 ADD SWAP1 POP PUSH2 0x48CE PUSH1 0x0 DUP4 ADD DUP5 PUSH2 0x48AA JUMP JUMPDEST SWAP3 SWAP2 POP POP JUMP JUMPDEST PUSH2 0x48DD DUP2 PUSH2 0x4898 JUMP JUMPDEST DUP2 EQ PUSH2 0x48E8 JUMPI PUSH1 0x0 DUP1 REVERT JUMPDEST POP JUMP JUMPDEST PUSH1 0x0 DUP2 CALLDATALOAD SWAP1 POP PUSH2 0x48FA DUP2 PUSH2 0x48D4 JUMP JUMPDEST SWAP3 SWAP2 POP POP JUMP JUMPDEST PUSH1 0x0 DUP1 PUSH1 0x40 DUP4 DUP6 SUB SLT ISZERO PUSH2 0x4917 JUMPI PUSH2 0x4916 PUSH2 0x469E JUMP JUMPDEST JUMPDEST PUSH1 0x0 PUSH2 0x4925 DUP6 DUP3 DUP7 ADD PUSH2 0x48EB JUMP JUMPDEST SWAP3 POP POP PUSH1 0x20 PUSH2 0x4936 DUP6 DUP3 DUP7 ADD PUSH2 0x4836 JUMP JUMPDEST SWAP2 POP POP SWAP3 POP SWAP3 SWAP1 POP JUMP JUMPDEST PUSH2 0x4949 DUP2 PUSH2 0x4815 JUMP JUMPDEST DUP3 MSTORE POP POP JUMP JUMPDEST PUSH1 0x0 PUSH1 0x20 DUP3 ADD SWAP1 POP PUSH2 0x4964 PUSH1 0x0 DUP4 ADD DUP5 PUSH2 0x4940 JUMP JUMPDEST SWAP3 SWAP2 POP POP JUMP JUMPDEST PUSH32 0x4E487B7100000000000000000000000000000000000000000000000000000000 PUSH1 0x0 MSTORE PUSH1 0x21 PUSH1 0x4 MSTORE PUSH1 0x24 PUSH1 0x0 REVERT JUMPDEST PUSH1 0x3 DUP2 LT PUSH2 0x49AA JUMPI PUSH2 0x49A9 PUSH2 0x496A JUMP JUMPDEST JUMPDEST POP JUMP JUMPDEST PUSH1 0x0 DUP2 SWAP1 POP PUSH2 0x49BB DUP3 PUSH2 0x4999 JUMP JUMPDEST SWAP2 SWAP1 POP JUMP JUMPDEST PUSH1 0x0 PUSH2 0x49CB DUP3 PUSH2 0x49AD JUMP JUMPDEST SWAP1 POP SWAP2 SWAP1 POP JUMP JUMPDEST PUSH2 0x49DB DUP2 PUSH2 0x49C0 JUMP JUMPDEST DUP3 MSTORE POP POP JUMP JUMPDEST PUSH2 0x49EA DUP2 PUSH2 0x4815 JUMP JUMPDEST DUP3 MSTORE POP POP JUMP JUMPDEST PUSH1 0x0 DUP2 SWAP1 POP SWAP2 SWAP1 POP JUMP JUMPDEST PUSH2 0x4A03 DUP2 PUSH2 0x49F0 JUMP JUMPDEST DUP3 MSTORE POP POP JUMP JUMPDEST PUSH2 0x120 DUP3 ADD PUSH1 0x0 DUP3 ADD MLOAD PUSH2 0x4A20 PUSH1 0x0 DUP6 ADD DUP3 PUSH2 0x49D2 JUMP JUMPDEST POP PUSH1 0x20 DUP3 ADD MLOAD PUSH2 0x4A33 PUSH1 0x20 DUP6 ADD DUP3 PUSH2 0x49E1 JUMP JUMPDEST POP PUSH1 0x40 DUP3 ADD MLOAD PUSH2 0x4A46 PUSH1 0x40 DUP6 ADD DUP3 PUSH2 0x49E1 JUMP JUMPDEST POP PUSH1 0x60 DUP3 ADD MLOAD PUSH2 0x4A59 PUSH1 0x60 DUP6 ADD DUP3 PUSH2 0x49E1 JUMP JUMPDEST POP PUSH1 0x80 DUP3 ADD MLOAD PUSH2 0x4A6C PUSH1 0x80 DUP6 ADD DUP3 PUSH2 0x49E1 JUMP JUMPDEST POP PUSH1 0xA0 DUP3 ADD MLOAD PUSH2 0x4A7F PUSH1 0xA0 DUP6 ADD DUP3 PUSH2 0x49E1 JUMP JUMPDEST POP PUSH1 0xC0 DUP3 ADD MLOAD PUSH2 0x4A92 PUSH1 0xC0 DUP6 ADD DUP3 PUSH2 0x49E1 JUMP JUMPDEST POP PUSH1 0xE0 DUP3 ADD MLOAD PUSH2 0x4AA5 PUSH1 0xE0 DUP6 ADD DUP3 PUSH2 0x49E1 JUMP JUMPDEST POP PUSH2 0x100 DUP3 ADD MLOAD PUSH2 0x4ABA PUSH2 0x100 DUP6 ADD DUP3 PUSH2 0x49FA JUMP JUMPDEST POP POP POP POP JUMP JUMPDEST PUSH1 0x0 PUSH2 0x140 DUP3 ADD SWAP1 POP PUSH2 0x4AD6 PUSH1 0x0 DUP4 ADD DUP6 PUSH2 0x4940 JUMP JUMPDEST PUSH2 0x4AE3 PUSH1 0x20 DUP4 ADD DUP5 PUSH2 0x4A09 JUMP JUMPDEST SWAP4 SWAP3 POP POP POP JUMP JUMPDEST PUSH1 0x0 DUP1 PUSH1 0x0 PUSH1 0x60 DUP5 DUP7 SUB SLT ISZERO PUSH2 0x4B03 JUMPI PUSH2 0x4B02 PUSH2 0x469E JUMP JUMPDEST JUMPDEST PUSH1 0x0 PUSH2 0x4B11 DUP7 DUP3 DUP8 ADD PUSH2 0x48EB JUMP JUMPDEST SWAP4 POP POP PUSH1 0x20 PUSH2 0x4B22 DUP7 DUP3 DUP8 ADD PUSH2 0x48EB JUMP JUMPDEST SWAP3 POP POP PUSH1 0x40 PUSH2 0x4B33 DUP7 DUP3 DUP8 ADD PUSH2 0x4836 JUMP JUMPDEST SWAP2 POP POP SWAP3 POP SWAP3 POP SWAP3 JUMP JUMPDEST PUSH1 0x0 DUP1 PUSH1 0x40 DUP4 DUP6 SUB SLT ISZERO PUSH2 0x4B54 JUMPI PUSH2 0x4B53 PUSH2 0x469E JUMP JUMPDEST JUMPDEST PUSH1 0x0 PUSH2 0x4B62 DUP6 DUP3 DUP7 ADD PUSH2 0x4836 JUMP JUMPDEST SWAP3 POP POP PUSH1 0x20 PUSH2 0x4B73 DUP6 DUP3 DUP7 ADD PUSH2 0x4836 JUMP JUMPDEST SWAP2 POP POP SWAP3 POP SWAP3 SWAP1 POP JUMP JUMPDEST PUSH1 0x0 PUSH1 0x40 DUP3 ADD SWAP1 POP PUSH2 0x4B92 PUSH1 0x0 DUP4 ADD DUP6 PUSH2 0x48AA JUMP JUMPDEST PUSH2 0x4B9F PUSH1 0x20 DUP4 ADD DUP5 PUSH2 0x4940 JUMP JUMPDEST SWAP4 SWAP3 POP POP POP JUMP JUMPDEST PUSH1 0x0 PUSH1 0x20 DUP3 DUP5 SUB SLT ISZERO PUSH2 0x4BBC JUMPI PUSH2 0x4BBB PUSH2 0x469E JUMP JUMPDEST JUMPDEST PUSH1 0x0 PUSH2 0x4BCA DUP5 DUP3 DUP6 ADD PUSH2 0x48EB JUMP JUMPDEST SWAP2 POP POP SWAP3 SWAP2 POP POP JUMP JUMPDEST PUSH2 0x4BDC DUP2 PUSH2 0x49C0 JUMP JUMPDEST DUP3 MSTORE POP POP JUMP JUMPDEST PUSH2 0x4BEB DUP2 PUSH2 0x49F0 JUMP JUMPDEST DUP3 MSTORE POP POP JUMP JUMPDEST PUSH1 0x0 PUSH2 0x120 DUP3 ADD SWAP1 POP PUSH2 0x4C07 PUSH1 0x0 DUP4 ADD DUP13 PUSH2 0x4BD3 JUMP JUMPDEST PUSH2 0x4C14 PUSH1 0x20 DUP4 ADD DUP12 PUSH2 0x4940 JUMP JUMPDEST PUSH2 0x4C21 PUSH1 0x40 DUP4 ADD DUP11 PUSH2 0x4940 JUMP JUMPDEST PUSH2 0x4C2E PUSH1 0x60 DUP4 ADD DUP10 PUSH2 0x4940 JUMP JUMPDEST PUSH2 0x4C3B PUSH1 0x80 DUP4 ADD DUP9 PUSH2 0x4940 JUMP JUMPDEST PUSH2 0x4C48 PUSH1 0xA0 DUP4 ADD DUP8 PUSH2 0x4940 JUMP JUMPDEST PUSH2 0x4C55 PUSH1 0xC0 DUP4 ADD DUP7 PUSH2 0x4940 JUMP JUMPDEST PUSH2 0x4C62 PUSH1 0xE0 DUP4 ADD DUP6 PUSH2 0x4940 JUMP JUMPDEST PUSH2 0x4C70 PUSH2 0x100 DUP4 ADD DUP5 PUSH2 0x4BE2 JUMP JUMPDEST SWAP11 SWAP10 POP POP POP POP POP POP POP POP POP POP JUMP JUMPDEST PUSH1 0x3 DUP2 LT PUSH2 0x4C8B JUMPI PUSH1 0x0 DUP1 REVERT JUMPDEST POP JUMP JUMPDEST PUSH1 0x0 DUP2 CALLDATALOAD SWAP1 POP PUSH2 0x4C9D DUP2 PUSH2 0x4C7E JUMP JUMPDEST SWAP3 SWAP2 POP POP JUMP JUMPDEST PUSH2 0x4CAC DUP2 PUSH2 0x49F0 JUMP JUMPDEST DUP2 EQ PUSH2 0x4CB7 JUMPI PUSH1 0x0 DUP1 REVERT JUMPDEST POP JUMP JUMPDEST PUSH1 0x0 DUP2 CALLDATALOAD SWAP1 POP PUSH2 0x4CC9 DUP2 PUSH2 0x4CA3 JUMP JUMPDEST SWAP3 SWAP2 POP POP JUMP JUMPDEST PUSH1 0x0 DUP1 PUSH1 0x0 DUP1 PUSH1 0x0 DUP1 PUSH1 0x0 DUP1 PUSH2 0x100 DUP10 DUP12 SUB SLT ISZERO PUSH2 0x4CF0 JUMPI PUSH2 0x4CEF PUSH2 0x469E JUMP JUMPDEST JUMPDEST PUSH1 0x0 PUSH2 0x4CFE DUP12 DUP3 DUP13 ADD PUSH2 0x4C8E JUMP JUMPDEST SWAP9 POP POP PUSH1 0x20 PUSH2 0x4D0F DUP12 DUP3 DUP13 ADD PUSH2 0x4836 JUMP JUMPDEST SWAP8 POP POP PUSH1 0x40 PUSH2 0x4D20 DUP12 DUP3 DUP13 ADD PUSH2 0x4836 JUMP JUMPDEST SWAP7 POP POP PUSH1 0x60 PUSH2 0x4D31 DUP12 DUP3 DUP13 ADD PUSH2 0x4836 JUMP JUMPDEST SWAP6 POP POP PUSH1 0x80 PUSH2 0x4D42 DUP12 DUP3 DUP13 ADD PUSH2 0x4836 JUMP JUMPDEST SWAP5 POP POP PUSH1 0xA0 PUSH2 0x4D53 DUP12 DUP3 DUP13 ADD PUSH2 0x4836 JUMP JUMPDEST SWAP4 POP POP PUSH1 0xC0 PUSH2 0x4D64 DUP12 DUP3 DUP13 ADD PUSH2 0x4836 JUMP JUMPDEST SWAP3 POP POP PUSH1 0xE0 PUSH2 0x4D75 DUP12 DUP3 DUP13 ADD PUSH2 0x4CBA JUMP JUMPDEST SWAP2 POP POP SWAP3 SWAP6 SWAP9 POP SWAP3 SWAP6 SWAP9 SWAP1 SWAP4 SWAP7 POP JUMP JUMPDEST PUSH1 0x0 PUSH32 0xFF00000000000000000000000000000000000000000000000000000000000000 DUP3 AND SWAP1 POP SWAP2 SWAP1 POP JUMP JUMPDEST PUSH2 0x4DBA DUP2 PUSH2 0x4D85 JUMP JUMPDEST DUP3 MSTORE POP POP JUMP JUMPDEST PUSH1 0x0 DUP2 MLOAD SWAP1 POP SWAP2 SWAP1 POP JUMP JUMPDEST PUSH1 0x0 DUP3 DUP3 MSTORE PUSH1 0x20 DUP3 ADD SWAP1 POP SWAP3 SWAP2 POP POP JUMP JUMPDEST PUSH1 0x0 DUP2 SWAP1 POP PUSH1 0x20 DUP3 ADD SWAP1 POP SWAP2 SWAP1 POP JUMP JUMPDEST PUSH1 0x0 PUSH2 0x4DF8 DUP4 DUP4 PUSH2 0x49E1 JUMP JUMPDEST PUSH1 0x20 DUP4 ADD SWAP1 POP SWAP3 SWAP2 POP POP JUMP JUMPDEST PUSH1 0x0 PUSH1 0x20 DUP3 ADD SWAP1 POP SWAP2 SWAP1 POP JUMP JUMPDEST PUSH1 0x0 PUSH2 0x4E1C DUP3 PUSH2 0x4DC0 JUMP JUMPDEST PUSH2 0x4E26 DUP2 DUP6 PUSH2 0x4DCB JUMP JUMPDEST SWAP4 POP PUSH2 0x4E31 DUP4 PUSH2 0x4DDC JUMP JUMPDEST DUP1 PUSH1 0x0 JUMPDEST DUP4 DUP2 LT ISZERO PUSH2 0x4E62 JUMPI DUP2 MLOAD PUSH2 0x4E49 DUP9 DUP3 PUSH2 0x4DEC JUMP JUMPDEST SWAP8 POP PUSH2 0x4E54 DUP4 PUSH2 0x4E04 JUMP JUMPDEST SWAP3 POP POP PUSH1 0x1 DUP2 ADD SWAP1 POP PUSH2 0x4E35 JUMP JUMPDEST POP DUP6 SWAP4 POP POP POP POP SWAP3 SWAP2 POP POP JUMP JUMPDEST PUSH1 0x0 PUSH1 0xE0 DUP3 ADD SWAP1 POP PUSH2 0x4E84 PUSH1 0x0 DUP4 ADD DUP11 PUSH2 0x4DB1 JUMP JUMPDEST DUP2 DUP2 SUB PUSH1 0x20 DUP4 ADD MSTORE PUSH2 0x4E96 DUP2 DUP10 PUSH2 0x47BA JUMP JUMPDEST SWAP1 POP DUP2 DUP2 SUB PUSH1 0x40 DUP4 ADD MSTORE PUSH2 0x4EAA DUP2 DUP9 PUSH2 0x47BA JUMP JUMPDEST SWAP1 POP PUSH2 0x4EB9 PUSH1 0x60 DUP4 ADD DUP8 PUSH2 0x4940 JUMP JUMPDEST PUSH2 0x4EC6 PUSH1 0x80 DUP4 ADD DUP7 PUSH2 0x48AA JUMP JUMPDEST PUSH2 0x4ED3 PUSH1 0xA0 DUP4 ADD DUP6 PUSH2 0x4BE2 JUMP JUMPDEST DUP2 DUP2 SUB PUSH1 0xC0 DUP4 ADD MSTORE PUSH2 0x4EE5 DUP2 DUP5 PUSH2 0x4E11 JUMP JUMPDEST SWAP1 POP SWAP9 SWAP8 POP POP POP POP POP POP POP POP JUMP JUMPDEST PUSH2 0x4EFC DUP2 PUSH2 0x472D JUMP JUMPDEST DUP2 EQ PUSH2 0x4F07 JUMPI PUSH1 0x0 DUP1 REVERT JUMPDEST POP JUMP JUMPDEST PUSH1 0x0 DUP2 CALLDATALOAD SWAP1 POP PUSH2 0x4F19 DUP2 PUSH2 0x4EF3 JUMP JUMPDEST SWAP3 SWAP2 POP POP JUMP JUMPDEST PUSH1 0x0 DUP1 PUSH1 0x40 DUP4 DUP6 SUB SLT ISZERO PUSH2 0x4F36 JUMPI PUSH2 0x4F35 PUSH2 0x469E JUMP JUMPDEST JUMPDEST PUSH1 0x0 PUSH2 0x4F44 DUP6 DUP3 DUP7 ADD PUSH2 0x48EB JUMP JUMPDEST SWAP3 POP POP PUSH1 0x20 PUSH2 0x4F55 DUP6 DUP3 DUP7 ADD PUSH2 0x4F0A JUMP JUMPDEST SWAP2 POP POP SWAP3 POP SWAP3 SWAP1 POP JUMP JUMPDEST PUSH1 0x0 DUP1 PUSH1 0x0 DUP1 PUSH1 0x0 DUP1 PUSH1 0x0 DUP1 PUSH1 0x0 PUSH2 0x120 DUP11 DUP13 SUB SLT ISZERO PUSH2 0x4F82 JUMPI PUSH2 0x4F81 PUSH2 0x469E JUMP JUMPDEST JUMPDEST PUSH1 0x0 PUSH2 0x4F90 DUP13 DUP3 DUP14 ADD PUSH2 0x4836 JUMP JUMPDEST SWAP10 POP POP PUSH1 0x20 PUSH2 0x4FA1 DUP13 DUP3 DUP14 ADD PUSH2 0x4C8E JUMP JUMPDEST SWAP9 POP POP PUSH1 0x40 PUSH2 0x4FB2 DUP13 DUP3 DUP14 ADD PUSH2 0x4836 JUMP JUMPDEST SWAP8 POP POP PUSH1 0x60 PUSH2 0x4FC3 DUP13 DUP3 DUP14 ADD PUSH2 0x4836 JUMP JUMPDEST SWAP7 POP POP PUSH1 0x80 PUSH2 0x4FD4 DUP13 DUP3 DUP14 ADD PUSH2 0x4836 JUMP JUMPDEST SWAP6 POP POP PUSH1 0xA0 PUSH2 0x4FE5 DUP13 DUP3 DUP14 ADD PUSH2 0x4836 JUMP JUMPDEST SWAP5 POP POP PUSH1 0xC0 PUSH2 0x4FF6 DUP13 DUP3 DUP14 ADD PUSH2 0x4836 JUMP JUMPDEST SWAP4 POP POP PUSH1 0xE0 PUSH2 0x5007 DUP13 DUP3 DUP14 ADD PUSH2 0x4836 JUMP JUMPDEST SWAP3 POP POP PUSH2 0x100 PUSH2 0x5019 DUP13 DUP3 DUP14 ADD PUSH2 0x4CBA JUMP JUMPDEST SWAP2 POP POP SWAP3 SWAP6 SWAP9 POP SWAP3 SWAP6 SWAP9 POP SWAP3 SWAP6 SWAP9 JUMP JUMPDEST PUSH1 0x0 DUP1 REVERT JUMPDEST PUSH1 0x0 DUP1 REVERT JUMPDEST PUSH32 0x4E487B7100000000000000000000000000000000000000000000000000000000 PUSH1 0x0 MSTORE PUSH1 0x41 PUSH1 0x4 MSTORE PUSH1 0x24 PUSH1 0x0 REVERT JUMPDEST PUSH2 0x506B DUP3 PUSH2 0x47A9 JUMP JUMPDEST DUP2 ADD DUP2 DUP2 LT PUSH8 0xFFFFFFFFFFFFFFFF DUP3 GT OR ISZERO PUSH2 0x508A JUMPI PUSH2 0x5089 PUSH2 0x5033 JUMP JUMPDEST JUMPDEST DUP1 PUSH1 0x40 MSTORE POP POP POP JUMP JUMPDEST PUSH1 0x0 PUSH2 0x509D PUSH2 0x4694 JUMP JUMPDEST SWAP1 POP PUSH2 0x50A9 DUP3 DUP3 PUSH2 0x5062 JUMP JUMPDEST SWAP2 SWAP1 POP JUMP JUMPDEST PUSH1 0x0 PUSH8 0xFFFFFFFFFFFFFFFF DUP3 GT ISZERO PUSH2 0x50C9 JUMPI PUSH2 0x50C8 PUSH2 0x5033 JUMP JUMPDEST JUMPDEST PUSH2 0x50D2 DUP3 PUSH2 0x47A9 JUMP JUMPDEST SWAP1 POP PUSH1 0x20 DUP2 ADD SWAP1 POP SWAP2 SWAP1 POP JUMP JUMPDEST DUP3 DUP2 DUP4 CALLDATACOPY PUSH1 0x0 DUP4 DUP4 ADD MSTORE POP POP POP JUMP JUMPDEST PUSH1 0x0 PUSH2 0x5101 PUSH2 0x50FC DUP5 PUSH2 0x50AE JUMP JUMPDEST PUSH2 0x5093 JUMP JUMPDEST SWAP1 POP DUP3 DUP2 MSTORE PUSH1 0x20 DUP2 ADD DUP5 DUP5 DUP5 ADD GT ISZERO PUSH2 0x511D JUMPI PUSH2 0x511C PUSH2 0x502E JUMP JUMPDEST JUMPDEST PUSH2 0x5128 DUP5 DUP3 DUP6 PUSH2 0x50DF JUMP JUMPDEST POP SWAP4 SWAP3 POP POP POP JUMP JUMPDEST PUSH1 0x0 DUP3 PUSH1 0x1F DUP4 ADD SLT PUSH2 0x5145 JUMPI PUSH2 0x5144 PUSH2 0x5029 JUMP JUMPDEST JUMPDEST DUP2 CALLDATALOAD PUSH2 0x5155 DUP5 DUP3 PUSH1 0x20 DUP7 ADD PUSH2 0x50EE JUMP JUMPDEST SWAP2 POP POP SWAP3 SWAP2 POP POP JUMP JUMPDEST PUSH1 0x0 DUP1 PUSH1 0x0 DUP1 PUSH1 0x80 DUP6 DUP8 SUB SLT ISZERO PUSH2 0x5178 JUMPI PUSH2 0x5177 PUSH2 0x469E JUMP JUMPDEST JUMPDEST PUSH1 0x0 PUSH2 0x5186 DUP8 DUP3 DUP9 ADD PUSH2 0x48EB JUMP JUMPDEST SWAP5 POP POP PUSH1 0x20 PUSH2 0x5197 DUP8 DUP3 DUP9 ADD PUSH2 0x48EB JUMP JUMPDEST SWAP4 POP POP PUSH1 0x40 PUSH2 0x51A8 DUP8 DUP3 DUP9 ADD PUSH2 0x4836 JUMP JUMPDEST SWAP3 POP POP PUSH1 0x60 DUP6 ADD CALLDATALOAD PUSH8 0xFFFFFFFFFFFFFFFF DUP2 GT ISZERO PUSH2 0x51C9 JUMPI PUSH2 0x51C8 PUSH2 0x46A3 JUMP JUMPDEST JUMPDEST PUSH2 0x51D5 DUP8 DUP3 DUP9 ADD PUSH2 0x5130 JUMP JUMPDEST SWAP2 POP POP SWAP3 SWAP6 SWAP2 SWAP5 POP SWAP3 POP JUMP JUMPDEST PUSH1 0x0 PUSH12 0xFFFFFFFFFFFFFFFFFFFFFFFF DUP3 AND SWAP1 POP SWAP2 SWAP1 POP JUMP JUMPDEST PUSH2 0x5202 DUP2 PUSH2 0x51E1 JUMP JUMPDEST DUP3 MSTORE POP POP JUMP JUMPDEST PUSH1 0x0 PUSH1 0x20 DUP3 ADD SWAP1 POP PUSH2 0x521D PUSH1 0x0 DUP4 ADD DUP5 PUSH2 0x51F9 JUMP JUMPDEST SWAP3 SWAP2 POP POP JUMP JUMPDEST PUSH2 0x522C DUP2 PUSH2 0x51E1 JUMP JUMPDEST DUP2 EQ PUSH2 0x5237 JUMPI PUSH1 0x0 DUP1 REVERT JUMPDEST POP JUMP JUMPDEST PUSH1 0x0 DUP2 CALLDATALOAD SWAP1 POP PUSH2 0x5249 DUP2 PUSH2 0x5223 JUMP JUMPDEST SWAP3 SWAP2 POP POP JUMP JUMPDEST PUSH1 0x0 DUP1 PUSH1 0x40 DUP4 DUP6 SUB SLT ISZERO PUSH2 0x5266 JUMPI PUSH2 0x5265 PUSH2 0x469E JUMP JUMPDEST JUMPDEST PUSH1 0x0 PUSH2 0x5274 DUP6 DUP3 DUP7 ADD PUSH2 0x523A JUMP JUMPDEST SWAP3 POP POP PUSH1 0x20 PUSH2 0x5285 DUP6 DUP3 DUP7 ADD PUSH2 0x48EB JUMP JUMPDEST SWAP2 POP POP SWAP3 POP SWAP3 SWAP1 POP JUMP JUMPDEST PUSH1 0x0 DUP1 PUSH1 0x40 DUP4 DUP6 SUB SLT ISZERO PUSH2 0x52A6 JUMPI PUSH2 0x52A5 PUSH2 0x469E JUMP JUMPDEST JUMPDEST PUSH1 0x0 PUSH2 0x52B4 DUP6 DUP3 DUP7 ADD PUSH2 0x48EB JUMP JUMPDEST SWAP3 POP POP PUSH1 0x20 PUSH2 0x52C5 DUP6 DUP3 DUP7 ADD PUSH2 0x48EB JUMP JUMPDEST SWAP2 POP POP SWAP3 POP SWAP3 SWAP1 POP JUMP JUMPDEST PUSH1 0x0 PUSH1 0x20 DUP3 ADD SWAP1 POP PUSH2 0x52E4 PUSH1 0x0 DUP4 ADD DUP5 PUSH2 0x4BE2 JUMP JUMPDEST SWAP3 SWAP2 POP POP JUMP JUMPDEST PUSH1 0x0 DUP1 REVERT JUMPDEST PUSH1 0x0 DUP1 REVERT JUMPDEST PUSH1 0x0 DUP1 DUP4 PUSH1 0x1F DUP5 ADD SLT PUSH2 0x530A JUMPI PUSH2 0x5309 PUSH2 0x5029 JUMP JUMPDEST JUMPDEST DUP3 CALLDATALOAD SWAP1 POP PUSH8 0xFFFFFFFFFFFFFFFF DUP2 GT ISZERO PUSH2 0x5327 JUMPI PUSH2 0x5326 PUSH2 0x52EA JUMP JUMPDEST JUMPDEST PUSH1 0x20 DUP4 ADD SWAP2 POP DUP4 PUSH1 0x1 DUP3 MUL DUP4 ADD GT ISZERO PUSH2 0x5343 JUMPI PUSH2 0x5342 PUSH2 0x52EF JUMP JUMPDEST JUMPDEST SWAP3 POP SWAP3 SWAP1 POP JUMP JUMPDEST PUSH1 0x0 DUP1 DUP4 PUSH1 0x1F DUP5 ADD SLT PUSH2 0x5360 JUMPI PUSH2 0x535F PUSH2 0x5029 JUMP JUMPDEST JUMPDEST DUP3 CALLDATALOAD SWAP1 POP PUSH8 0xFFFFFFFFFFFFFFFF DUP2 GT ISZERO PUSH2 0x537D JUMPI PUSH2 0x537C PUSH2 0x52EA JUMP JUMPDEST JUMPDEST PUSH1 0x20 DUP4 ADD SWAP2 POP DUP4 PUSH1 0x1 DUP3 MUL DUP4 ADD GT ISZERO PUSH2 0x5399 JUMPI PUSH2 0x5398 PUSH2 0x52EF JUMP JUMPDEST JUMPDEST SWAP3 POP SWAP3 SWAP1 POP JUMP JUMPDEST PUSH1 0x0 DUP1 DUP4 PUSH1 0x1F DUP5 ADD SLT PUSH2 0x53B6 JUMPI PUSH2 0x53B5 PUSH2 0x5029 JUMP JUMPDEST JUMPDEST DUP3 CALLDATALOAD SWAP1 POP PUSH8 0xFFFFFFFFFFFFFFFF DUP2 GT ISZERO PUSH2 0x53D3 JUMPI PUSH2 0x53D2 PUSH2 0x52EA JUMP JUMPDEST JUMPDEST PUSH1 0x20 DUP4 ADD SWAP2 POP DUP4 PUSH1 0x20 DUP3 MUL DUP4 ADD GT ISZERO PUSH2 0x53EF JUMPI PUSH2 0x53EE PUSH2 0x52EF JUMP JUMPDEST JUMPDEST SWAP3 POP SWAP3 SWAP1 POP JUMP JUMPDEST PUSH1 0x0 DUP1 PUSH1 0x0 DUP1 PUSH1 0x0 DUP1 PUSH1 0x0 DUP1 PUSH1 0xA0 DUP10 DUP12 SUB SLT ISZERO PUSH2 0x5416 JUMPI PUSH2 0x5415 PUSH2 0x469E JUMP JUMPDEST JUMPDEST PUSH1 0x0 PUSH2 0x5424 DUP12 DUP3 DUP13 ADD PUSH2 0x4836 JUMP JUMPDEST SWAP9 POP POP PUSH1 0x20 DUP10 ADD CALLDATALOAD PUSH8 0xFFFFFFFFFFFFFFFF DUP2 GT ISZERO PUSH2 0x5445 JUMPI PUSH2 0x5444 PUSH2 0x46A3 JUMP JUMPDEST JUMPDEST PUSH2 0x5451 DUP12 DUP3 DUP13 ADD PUSH2 0x52F4 JUMP JUMPDEST SWAP8 POP SWAP8 POP POP PUSH1 0x40 PUSH2 0x5464 DUP12 DUP3 DUP13 ADD PUSH2 0x4836 JUMP JUMPDEST SWAP6 POP POP PUSH1 0x60 DUP10 ADD CALLDATALOAD PUSH8 0xFFFFFFFFFFFFFFFF DUP2 GT ISZERO PUSH2 0x5485 JUMPI PUSH2 0x5484 PUSH2 0x46A3 JUMP JUMPDEST JUMPDEST PUSH2 0x5491 DUP12 DUP3 DUP13 ADD PUSH2 0x534A JUMP JUMPDEST SWAP5 POP SWAP5 POP POP PUSH1 0x80 DUP10 ADD CALLDATALOAD PUSH8 0xFFFFFFFFFFFFFFFF DUP2 GT ISZERO PUSH2 0x54B4 JUMPI PUSH2 0x54B3 PUSH2 0x46A3 JUMP JUMPDEST JUMPDEST PUSH2 0x54C0 DUP12 DUP3 DUP13 ADD PUSH2 0x53A0 JUMP JUMPDEST SWAP3 POP SWAP3 POP POP SWAP3 SWAP6 SWAP9 POP SWAP3 SWAP6 SWAP9 SWAP1 SWAP4 SWAP7 POP JUMP JUMPDEST PUSH1 0x0 DUP1 PUSH1 0x40 DUP4 DUP6 SUB SLT ISZERO PUSH2 0x54E9 JUMPI PUSH2 0x54E8 PUSH2 0x469E JUMP JUMPDEST JUMPDEST PUSH1 0x0 PUSH2 0x54F7 DUP6 DUP3 DUP7 ADD PUSH2 0x48EB JUMP JUMPDEST SWAP3 POP POP PUSH1 0x20 PUSH2 0x5508 DUP6 DUP3 DUP7 ADD PUSH2 0x4C8E JUMP JUMPDEST SWAP2 POP POP SWAP3 POP SWAP3 SWAP1 POP JUMP JUMPDEST PUSH32 0x4E487B7100000000000000000000000000000000000000000000000000000000 PUSH1 0x0 MSTORE PUSH1 0x22 PUSH1 0x4 MSTORE PUSH1 0x24 PUSH1 0x0 REVERT JUMPDEST PUSH1 0x0 PUSH1 0x2 DUP3 DIV SWAP1 POP PUSH1 0x1 DUP3 AND DUP1 PUSH2 0x5559 JUMPI PUSH1 0x7F DUP3 AND SWAP2 POP JUMPDEST PUSH1 0x20 DUP3 LT DUP2 SUB PUSH2 0x556C JUMPI PUSH2 0x556B PUSH2 0x5512 JUMP JUMPDEST JUMPDEST POP SWAP2 SWAP1 POP JUMP JUMPDEST PUSH32 0x4E487B7100000000000000000000000000000000000000000000000000000000 PUSH1 0x0 MSTORE PUSH1 0x32 PUSH1 0x4 MSTORE PUSH1 0x24 PUSH1 0x0 REVERT JUMPDEST PUSH1 0x0 PUSH1 0x60 DUP3 ADD SWAP1 POP PUSH2 0x55B6 PUSH1 0x0 DUP4 ADD DUP7 PUSH2 0x48AA JUMP JUMPDEST PUSH2 0x55C3 PUSH1 0x20 DUP4 ADD DUP6 PUSH2 0x4940 JUMP JUMPDEST PUSH2 0x55D0 PUSH1 0x40 DUP4 ADD DUP5 PUSH2 0x48AA JUMP JUMPDEST SWAP5 SWAP4 POP POP POP POP JUMP JUMPDEST PUSH32 0x4E487B7100000000000000000000000000000000000000000000000000000000 PUSH1 0x0 MSTORE PUSH1 0x11 PUSH1 0x4 MSTORE PUSH1 0x24 PUSH1 0x0 REVERT JUMPDEST PUSH1 0x0 PUSH2 0x5612 DUP3 PUSH2 0x4815 JUMP JUMPDEST SWAP2 POP PUSH2 0x561D DUP4 PUSH2 0x4815 JUMP JUMPDEST SWAP3 POP DUP3 DUP3 MUL PUSH2 0x562B DUP2 PUSH2 0x4815 JUMP JUMPDEST SWAP2 POP DUP3 DUP3 DIV DUP5 EQ DUP4 ISZERO OR PUSH2 0x5642 JUMPI PUSH2 0x5641 PUSH2 0x55D8 JUMP JUMPDEST JUMPDEST POP SWAP3 SWAP2 POP POP JUMP JUMPDEST PUSH32 0x4E487B7100000000000000000000000000000000000000000000000000000000 PUSH1 0x0 MSTORE PUSH1 0x12 PUSH1 0x4 MSTORE PUSH1 0x24 PUSH1 0x0 REVERT JUMPDEST PUSH1 0x0 PUSH2 0x5683 DUP3 PUSH2 0x4815 JUMP JUMPDEST SWAP2 POP PUSH2 0x568E DUP4 PUSH2 0x4815 JUMP JUMPDEST SWAP3 POP DUP3 PUSH2 0x569E JUMPI PUSH2 0x569D PUSH2 0x5649 JUMP JUMPDEST JUMPDEST DUP3 DUP3 DIV SWAP1 POP SWAP3 SWAP2 POP POP JUMP JUMPDEST PUSH32 0x4E6F2062616C616E636520746F20776974686472617700000000000000000000 PUSH1 0x0 DUP3 ADD MSTORE POP JUMP JUMPDEST PUSH1 0x0 PUSH2 0x56DF PUSH1 0x16 DUP4 PUSH2 0x476E JUMP JUMPDEST SWAP2 POP PUSH2 0x56EA DUP3 PUSH2 0x56A9 JUMP JUMPDEST PUSH1 0x20 DUP3 ADD SWAP1 POP SWAP2 SWAP1 POP JUMP JUMPDEST PUSH1 0x0 PUSH1 0x20 DUP3 ADD SWAP1 POP DUP2 DUP2 SUB PUSH1 0x0 DUP4 ADD MSTORE PUSH2 0x570E DUP2 PUSH2 0x56D2 JUMP JUMPDEST SWAP1 POP SWAP2 SWAP1 POP JUMP JUMPDEST PUSH1 0x0 DUP2 SWAP1 POP SWAP3 SWAP2 POP POP JUMP JUMPDEST POP JUMP JUMPDEST PUSH1 0x0 PUSH2 0x5730 PUSH1 0x0 DUP4 PUSH2 0x5715 JUMP JUMPDEST SWAP2 POP PUSH2 0x573B DUP3 PUSH2 0x5720 JUMP JUMPDEST PUSH1 0x0 DUP3 ADD SWAP1 POP SWAP2 SWAP1 POP JUMP JUMPDEST PUSH1 0x0 PUSH2 0x5751 DUP3 PUSH2 0x5723 JUMP JUMPDEST SWAP2 POP DUP2 SWAP1 POP SWAP2 SWAP1 POP JUMP JUMPDEST PUSH32 0x496E76616C69642074696D652072616E67650000000000000000000000000000 PUSH1 0x0 DUP3 ADD MSTORE POP JUMP JUMPDEST PUSH1 0x0 PUSH2 0x5791 PUSH1 0x12 DUP4 PUSH2 0x476E JUMP JUMPDEST SWAP2 POP PUSH2 0x579C DUP3 PUSH2 0x575B JUMP JUMPDEST PUSH1 0x20 DUP3 ADD SWAP1 POP SWAP2 SWAP1 POP JUMP JUMPDEST PUSH1 0x0 PUSH1 0x20 DUP3 ADD SWAP1 POP DUP2 DUP2 SUB PUSH1 0x0 DUP4 ADD MSTORE PUSH2 0x57C0 DUP2 PUSH2 0x5784 JUMP JUMPDEST SWAP1 POP SWAP2 SWAP1 POP JUMP JUMPDEST PUSH32 0x496E76616C6964206D6178207065722077616C6C657420666F72206E6F6E2D70 PUSH1 0x0 DUP3 ADD MSTORE PUSH32 0x75626C6963207068617365000000000000000000000000000000000000000000 PUSH1 0x20 DUP3 ADD MSTORE POP JUMP JUMPDEST PUSH1 0x0 PUSH2 0x5823 PUSH1 0x2B DUP4 PUSH2 0x476E JUMP JUMPDEST SWAP2 POP PUSH2 0x582E DUP3 PUSH2 0x57C7 JUMP JUMPDEST PUSH1 0x40 DUP3 ADD SWAP1 POP SWAP2 SWAP1 POP JUMP JUMPDEST PUSH1 0x0 PUSH1 0x20 DUP3 ADD SWAP1 POP DUP2 DUP2 SUB PUSH1 0x0 DUP4 ADD MSTORE PUSH2 0x5852 DUP2 PUSH2 0x5816 JUMP JUMPDEST SWAP1 POP SWAP2 SWAP1 POP JUMP JUMPDEST PUSH32 0x496E76616C6964206D6178206D696E742070657220706861736520666F72206E PUSH1 0x0 DUP3 ADD MSTORE PUSH32 0x6F6E2D7075626C69632070686173650000000000000000000000000000000000 PUSH1 0x20 DUP3 ADD MSTORE POP JUMP JUMPDEST PUSH1 0x0 PUSH2 0x58B5 PUSH1 0x2F DUP4 PUSH2 0x476E JUMP JUMPDEST SWAP2 POP PUSH2 0x58C0 DUP3 PUSH2 0x5859 JUMP JUMPDEST PUSH1 0x40 DUP3 ADD SWAP1 POP SWAP2 SWAP1 POP JUMP JUMPDEST PUSH1 0x0 PUSH1 0x20 DUP3 ADD SWAP1 POP DUP2 DUP2 SUB PUSH1 0x0 DUP4 ADD MSTORE PUSH2 0x58E4 DUP2 PUSH2 0x58A8 JUMP JUMPDEST SWAP1 POP SWAP2 SWAP1 POP JUMP JUMPDEST PUSH32 0x4D65726B6C6520726F6F7420726571756972656420666F722077686974656C69 PUSH1 0x0 DUP3 ADD MSTORE PUSH32 0x7374207068617365000000000000000000000000000000000000000000000000 PUSH1 0x20 DUP3 ADD MSTORE POP JUMP JUMPDEST PUSH1 0x0 PUSH2 0x5947 PUSH1 0x28 DUP4 PUSH2 0x476E JUMP JUMPDEST SWAP2 POP PUSH2 0x5952 DUP3 PUSH2 0x58EB JUMP JUMPDEST PUSH1 0x40 DUP3 ADD SWAP1 POP SWAP2 SWAP1 POP JUMP JUMPDEST PUSH1 0x0 PUSH1 0x20 DUP3 ADD SWAP1 POP DUP2 DUP2 SUB PUSH1 0x0 DUP4 ADD MSTORE PUSH2 0x5976 DUP2 PUSH2 0x593A JUMP JUMPDEST SWAP1 POP SWAP2 SWAP1 POP JUMP JUMPDEST PUSH1 0x0 PUSH2 0x100 DUP3 ADD SWAP1 POP PUSH2 0x5993 PUSH1 0x0 DUP4 ADD DUP12 PUSH2 0x4BD3 JUMP JUMPDEST PUSH2 0x59A0 PUSH1 0x20 DUP4 ADD DUP11 PUSH2 0x4940 JUMP JUMPDEST PUSH2 0x59AD PUSH1 0x40 DUP4 ADD DUP10 PUSH2 0x4940 JUMP JUMPDEST PUSH2 0x59BA PUSH1 0x60 DUP4 ADD DUP9 PUSH2 0x4940 JUMP JUMPDEST PUSH2 0x59C7 PUSH1 0x80 DUP4 ADD DUP8 PUSH2 0x4940 JUMP JUMPDEST PUSH2 0x59D4 PUSH1 0xA0 DUP4 ADD DUP7 PUSH2 0x4940 JUMP JUMPDEST PUSH2 0x59E1 PUSH1 0xC0 DUP4 ADD DUP6 PUSH2 0x4940 JUMP JUMPDEST PUSH2 0x59EE PUSH1 0xE0 DUP4 ADD DUP5 PUSH2 0x4BE2 JUMP JUMPDEST SWAP10 SWAP9 POP POP POP POP POP POP POP POP POP JUMP JUMPDEST PUSH32 0x506C6174666F726D206665652063616E6E6F7420657863656564203130250000 PUSH1 0x0 DUP3 ADD MSTORE POP JUMP JUMPDEST PUSH1 0x0 PUSH2 0x5A31 PUSH1 0x1E DUP4 PUSH2 0x476E JUMP JUMPDEST SWAP2 POP PUSH2 0x5A3C DUP3 PUSH2 0x59FB JUMP JUMPDEST PUSH1 0x20 DUP3 ADD SWAP1 POP SWAP2 SWAP1 POP JUMP JUMPDEST PUSH1 0x0 PUSH1 0x20 DUP3 ADD SWAP1 POP DUP2 DUP2 SUB PUSH1 0x0 DUP4 ADD MSTORE PUSH2 0x5A60 DUP2 PUSH2 0x5A24 JUMP JUMPDEST SWAP1 POP SWAP2 SWAP1 POP JUMP JUMPDEST PUSH32 0x496E76616C69642066656520726563697069656E740000000000000000000000 PUSH1 0x0 DUP3 ADD MSTORE POP JUMP JUMPDEST PUSH1 0x0 PUSH2 0x5A9D PUSH1 0x15 DUP4 PUSH2 0x476E JUMP JUMPDEST SWAP2 POP PUSH2 0x5AA8 DUP3 PUSH2 0x5A67 JUMP JUMPDEST PUSH1 0x20 DUP3 ADD SWAP1 POP SWAP2 SWAP1 POP JUMP JUMPDEST PUSH1 0x0 PUSH1 0x20 DUP3 ADD SWAP1 POP DUP2 DUP2 SUB PUSH1 0x0 DUP4 ADD MSTORE PUSH2 0x5ACC DUP2 PUSH2 0x5A90 JUMP JUMPDEST SWAP1 POP SWAP2 SWAP1 POP JUMP JUMPDEST PUSH1 0x0 PUSH1 0x40 DUP3 ADD SWAP1 POP PUSH2 0x5AE8 PUSH1 0x0 DUP4 ADD DUP6 PUSH2 0x51F9 JUMP JUMPDEST PUSH2 0x5AF5 PUSH1 0x20 DUP4 ADD DUP5 PUSH2 0x48AA JUMP JUMPDEST SWAP4 SWAP3 POP POP POP JUMP JUMPDEST PUSH1 0x0 DUP2 PUSH1 0x60 SHL SWAP1 POP SWAP2 SWAP1 POP JUMP JUMPDEST PUSH1 0x0 PUSH2 0x5B14 DUP3 PUSH2 0x5AFC JUMP JUMPDEST SWAP1 POP SWAP2 SWAP1 POP JUMP JUMPDEST PUSH1 0x0 PUSH2 0x5B26 DUP3 PUSH2 0x5B09 JUMP JUMPDEST SWAP1 POP SWAP2 SWAP1 POP JUMP JUMPDEST PUSH2 0x5B3E PUSH2 0x5B39 DUP3 PUSH2 0x4898 JUMP JUMPDEST PUSH2 0x5B1B JUMP JUMPDEST DUP3 MSTORE POP POP JUMP JUMPDEST PUSH1 0x0 PUSH2 0x5B50 DUP3 DUP5 PUSH2 0x5B2D JUMP JUMPDEST PUSH1 0x14 DUP3 ADD SWAP2 POP DUP2 SWAP1 POP SWAP3 SWAP2 POP POP JUMP JUMPDEST PUSH1 0x0 PUSH2 0x5B6B DUP4 DUP6 PUSH2 0x5715 JUMP JUMPDEST SWAP4 POP PUSH2 0x5B78 DUP4 DUP6 DUP5 PUSH2 0x50DF JUMP JUMPDEST DUP3 DUP5 ADD SWAP1 POP SWAP4 SWAP3 POP POP POP JUMP JUMPDEST PUSH1 0x0 PUSH2 0x5B91 DUP3 DUP5 DUP7 PUSH2 0x5B5F JUMP JUMPDEST SWAP2 POP DUP2 SWAP1 POP SWAP4 SWAP3 POP POP POP JUMP JUMPDEST PUSH1 0x0 PUSH2 0x5BA8 DUP3 PUSH2 0x4815 JUMP JUMPDEST SWAP2 POP PUSH32 0xFFFFFFFFFFFFFFFFFFFFFFFFFFFFFFFFFFFFFFFFFFFFFFFFFFFFFFFFFFFFFFFF DUP3 SUB PUSH2 0x5BDA JUMPI PUSH2 0x5BD9 PUSH2 0x55D8 JUMP JUMPDEST JUMPDEST PUSH1 0x1 DUP3 ADD SWAP1 POP SWAP2 SWAP1 POP JUMP JUMPDEST PUSH1 0x0 PUSH2 0x100 DUP3 ADD SWAP1 POP PUSH2 0x5BFB PUSH1 0x0 DUP4 ADD DUP12 PUSH2 0x4BE2 JUMP JUMPDEST PUSH2 0x5C08 PUSH1 0x20 DUP4 ADD DUP11 PUSH2 0x48AA JUMP JUMPDEST PUSH2 0x5C15 PUSH1 0x40 DUP4 ADD DUP10 PUSH2 0x4940 JUMP JUMPDEST PUSH2 0x5C22 PUSH1 0x60 DUP4 ADD DUP9 PUSH2 0x4BE2 JUMP JUMPDEST PUSH2 0x5C2F PUSH1 0x80 DUP4 ADD DUP8 PUSH2 0x4940 JUMP JUMPDEST PUSH2 0x5C3C PUSH1 0xA0 DUP4 ADD DUP7 PUSH2 0x4940 JUMP JUMPDEST PUSH2 0x5C49 PUSH1 0xC0 DUP4 ADD DUP6 PUSH2 0x4940 JUMP JUMPDEST PUSH2 0x5C56 PUSH1 0xE0 DUP4 ADD DUP5 PUSH2 0x4940 JUMP JUMPDEST SWAP10 SWAP9 POP POP POP POP POP POP POP POP POP JUMP JUMPDEST PUSH1 0x0 PUSH2 0x5C6E DUP3 PUSH2 0x4815 JUMP JUMPDEST SWAP2 POP PUSH2 0x5C79 DUP4 PUSH2 0x4815 JUMP JUMPDEST SWAP3 POP DUP3 DUP3 SUB SWAP1 POP DUP2 DUP2 GT ISZERO PUSH2 0x5C91 JUMPI PUSH2 0x5C90 PUSH2 0x55D8 JUMP JUMPDEST JUMPDEST SWAP3 SWAP2 POP POP JUMP JUMPDEST PUSH1 0x0 PUSH1 0x20 DUP3 ADD SWAP1 POP PUSH2 0x5CAC PUSH1 0x0 DUP4 ADD DUP5 PUSH2 0x4BD3 JUMP JUMPDEST SWAP3 SWAP2 POP POP JUMP JUMPDEST PUSH1 0x0 DUP2 MLOAD SWAP1 POP SWAP2 SWAP1 POP JUMP JUMPDEST PUSH1 0x0 DUP3 DUP3 MSTORE PUSH1 0x20 DUP3 ADD SWAP1 POP SWAP3 SWAP2 POP POP JUMP JUMPDEST PUSH1 0x0 PUSH2 0x5CD9 DUP3 PUSH2 0x5CB2 JUMP JUMPDEST PUSH2 0x5CE3 DUP2 DUP6 PUSH2 0x5CBD JUMP JUMPDEST SWAP4 POP PUSH2 0x5CF3 DUP2 DUP6 PUSH1 0x20 DUP7 ADD PUSH2 0x477F JUMP JUMPDEST PUSH2 0x5CFC DUP2 PUSH2 0x47A9 JUMP JUMPDEST DUP5 ADD SWAP2 POP POP SWAP3 SWAP2 POP POP JUMP JUMPDEST PUSH1 0x0 PUSH1 0x80 DUP3 ADD SWAP1 POP PUSH2 0x5D1C PUSH1 0x0 DUP4 ADD DUP8 PUSH2 0x48AA JUMP JUMPDEST PUSH2 0x5D29 PUSH1 0x20 DUP4 ADD DUP7 PUSH2 0x48AA JUMP JUMPDEST PUSH2 0x5D36 PUSH1 0x40 DUP4 ADD DUP6 PUSH2 0x4940 JUMP JUMPDEST DUP2 DUP2 SUB PUSH1 0x60 DUP4 ADD MSTORE PUSH2 0x5D48 DUP2 DUP5 PUSH2 0x5CCE JUMP JUMPDEST SWAP1 POP SWAP6 SWAP5 POP POP POP POP POP JUMP JUMPDEST PUSH1 0x0 DUP2 MLOAD SWAP1 POP PUSH2 0x5D62 DUP2 PUSH2 0x46D4 JUMP JUMPDEST SWAP3 SWAP2 POP POP JUMP JUMPDEST PUSH1 0x0 PUSH1 0x20 DUP3 DUP5 SUB SLT ISZERO PUSH2 0x5D7E JUMPI PUSH2 0x5D7D PUSH2 0x469E JUMP JUMPDEST JUMPDEST PUSH1 0x0 PUSH2 0x5D8C DUP5 DUP3 DUP6 ADD PUSH2 0x5D53 JUMP JUMPDEST SWAP2 POP POP SWAP3 SWAP2 POP POP JUMP JUMPDEST PUSH1 0x0 DUP2 SWAP1 POP SWAP3 SWAP2 POP POP JUMP JUMPDEST PUSH1 0x0 PUSH2 0x5DAB DUP3 PUSH2 0x4763 JUMP JUMPDEST PUSH2 0x5DB5 DUP2 DUP6 PUSH2 0x5D95 JUMP JUMPDEST SWAP4 POP PUSH2 0x5DC5 DUP2 DUP6 PUSH1 0x20 DUP7 ADD PUSH2 0x477F JUMP JUMPDEST DUP1 DUP5 ADD SWAP2 POP POP SWAP3 SWAP2 POP POP JUMP JUMPDEST PUSH1 0x0 PUSH2 0x5DDD DUP3 DUP6 PUSH2 0x5DA0 JUMP JUMPDEST SWAP2 POP PUSH2 0x5DE9 DUP3 DUP5 PUSH2 0x5DA0 JUMP JUMPDEST SWAP2 POP DUP2 SWAP1 POP SWAP4 SWAP3 POP POP POP JUMP JUMPDEST PUSH1 0x0 DUP2 SWAP1 POP DUP2 PUSH1 0x0 MSTORE PUSH1 0x20 PUSH1 0x0 KECCAK256 SWAP1 POP SWAP2 SWAP1 POP JUMP JUMPDEST PUSH1 0x0 PUSH1 0x20 PUSH1 0x1F DUP4 ADD DIV SWAP1 POP SWAP2 SWAP1 POP JUMP JUMPDEST PUSH1 0x0 DUP3 DUP3 SHL SWAP1 POP SWAP3 SWAP2 POP POP JUMP JUMPDEST PUSH1 0x0 PUSH1 0x8 DUP4 MUL PUSH2 0x5E57 PUSH32 0xFFFFFFFFFFFFFFFFFFFFFFFFFFFFFFFFFFFFFFFFFFFFFFFFFFFFFFFFFFFFFFFF DUP3 PUSH2 0x5E1A JUMP JUMPDEST PUSH2 0x5E61 DUP7 DUP4 PUSH2 0x5E1A JUMP JUMPDEST SWAP6 POP DUP1 NOT DUP5 AND SWAP4 POP DUP1 DUP7 AND DUP5 OR SWAP3 POP POP POP SWAP4 SWAP3 POP POP POP JUMP JUMPDEST PUSH1 0x0 DUP2 SWAP1 POP SWAP2 SWAP1 POP JUMP JUMPDEST PUSH1 0x0 PUSH2 0x5E9E PUSH2 0x5E99 PUSH2 0x5E94 DUP5 PUSH2 0x4815 JUMP JUMPDEST PUSH2 0x5E79 JUMP JUMPDEST PUSH2 0x4815 JUMP JUMPDEST SWAP1 POP SWAP2 SWAP1 POP JUMP JUMPDEST PUSH1 0x0 DUP2 SWAP1 POP SWAP2 SWAP1 POP JUMP JUMPDEST PUSH2 0x5EB8 DUP4 PUSH2 0x5E83 JUMP JUMPDEST PUSH2 0x5ECC PUSH2 0x5EC4 DUP3 PUSH2 0x5EA5 JUMP JUMPDEST DUP5 DUP5 SLOAD PUSH2 0x5E27 JUMP JUMPDEST DUP3 SSTORE POP POP POP POP JUMP JUMPDEST PUSH1 0x0 SWAP1 JUMP JUMPDEST PUSH2 0x5EE1 PUSH2 0x5ED4 JUMP JUMPDEST PUSH2 0x5EEC DUP2 DUP5 DUP5 PUSH2 0x5EAF JUMP JUMPDEST POP POP POP JUMP JUMPDEST JUMPDEST DUP2 DUP2 LT ISZERO PUSH2 0x5F10 JUMPI PUSH2 0x5F05 PUSH1 0x0 DUP3 PUSH2 0x5ED9 JUMP JUMPDEST PUSH1 0x1 DUP2 ADD SWAP1 POP PUSH2 0x5EF2 JUMP JUMPDEST POP POP JUMP JUMPDEST PUSH1 0x1F DUP3 GT ISZERO PUSH2 0x5F55 JUMPI PUSH2 0x5F26 DUP2 PUSH2 0x5DF5 JUMP JUMPDEST PUSH2 0x5F2F DUP5 PUSH2 0x5E0A JUMP JUMPDEST DUP2 ADD PUSH1 0x20 DUP6 LT ISZERO PUSH2 0x5F3E JUMPI DUP2 SWAP1 POP JUMPDEST PUSH2 0x5F52 PUSH2 0x5F4A DUP6 PUSH2 0x5E0A JUMP JUMPDEST DUP4 ADD DUP3 PUSH2 0x5EF1 JUMP JUMPDEST POP POP JUMPDEST POP POP POP JUMP JUMPDEST PUSH1 0x0 DUP3 DUP3 SHR SWAP1 POP SWAP3 SWAP2 POP POP JUMP JUMPDEST PUSH1 0x0 PUSH2 0x5F78 PUSH1 0x0 NOT DUP5 PUSH1 0x8 MUL PUSH2 0x5F5A JUMP JUMPDEST NOT DUP1 DUP4 AND SWAP2 POP POP SWAP3 SWAP2 POP POP JUMP JUMPDEST PUSH1 0x0 PUSH2 0x5F91 DUP4 DUP4 PUSH2 0x5F67 JUMP JUMPDEST SWAP2 POP DUP3 PUSH1 0x2 MUL DUP3 OR SWAP1 POP SWAP3 SWAP2 POP POP JUMP JUMPDEST PUSH2 0x5FAA DUP3 PUSH2 0x4763 JUMP JUMPDEST PUSH8 0xFFFFFFFFFFFFFFFF DUP2 GT ISZERO PUSH2 0x5FC3 JUMPI PUSH2 0x5FC2 PUSH2 0x5033 JUMP JUMPDEST JUMPDEST PUSH2 0x5FCD DUP3 SLOAD PUSH2 0x5541 JUMP JUMPDEST PUSH2 0x5FD8 DUP3 DUP3 DUP6 PUSH2 0x5F14 JUMP JUMPDEST PUSH1 0x0 PUSH1 0x20 SWAP1 POP PUSH1 0x1F DUP4 GT PUSH1 0x1 DUP2 EQ PUSH2 0x600B JUMPI PUSH1 0x0 DUP5 ISZERO PUSH2 0x5FF9 JUMPI DUP3 DUP8 ADD MLOAD SWAP1 POP JUMPDEST PUSH2 0x6003 DUP6 DUP3 PUSH2 0x5F85 JUMP JUMPDEST DUP7 SSTORE POP PUSH2 0x606B JUMP JUMPDEST PUSH1 0x1F NOT DUP5 AND PUSH2 0x6019 DUP7 PUSH2 0x5DF5 JUMP JUMPDEST PUSH1 0x0 JUMPDEST DUP3 DUP2 LT ISZERO PUSH2 0x6041 JUMPI DUP5 DUP10 ADD MLOAD DUP3 SSTORE PUSH1 0x1 DUP3 ADD SWAP2 POP PUSH1 0x20 DUP6 ADD SWAP5 POP PUSH1 0x20 DUP2 ADD SWAP1 POP PUSH2 0x601C JUMP JUMPDEST DUP7 DUP4 LT ISZERO PUSH2 0x605E JUMPI DUP5 DUP10 ADD MLOAD PUSH2 0x605A PUSH1 0x1F DUP10 AND DUP3 PUSH2 0x5F67 JUMP JUMPDEST DUP4 SSTORE POP JUMPDEST PUSH1 0x1 PUSH1 0x2 DUP9 MUL ADD DUP9 SSTORE POP POP POP JUMPDEST POP POP POP POP POP POP JUMP JUMPDEST PUSH1 0x0 PUSH1 0xA0 DUP3 ADD SWAP1 POP PUSH2 0x6088 PUSH1 0x0 DUP4 ADD DUP9 PUSH2 0x4BE2 JUMP JUMPDEST PUSH2 0x6095 PUSH1 0x20 DUP4 ADD DUP8 PUSH2 0x4BE2 JUMP JUMPDEST PUSH2 0x60A2 PUSH1 0x40 DUP4 ADD DUP7 PUSH2 0x4BE2 JUMP JUMPDEST PUSH2 0x60AF PUSH1 0x60 DUP4 ADD DUP6 PUSH2 0x4940 JUMP JUMPDEST PUSH2 0x60BC PUSH1 0x80 DUP4 ADD DUP5 PUSH2 0x48AA JUMP JUMPDEST SWAP7 SWAP6 POP POP POP POP POP POP JUMP JUMPDEST PUSH32 0x4E487B7100000000000000000000000000000000000000000000000000000000 PUSH1 0x0 MSTORE PUSH1 0x31 PUSH1 0x4 MSTORE PUSH1 0x24 PUSH1 0x0 REVERT JUMPDEST PUSH1 0x0 PUSH1 0xFF DUP3 AND SWAP1 POP SWAP2 SWAP1 POP JUMP JUMPDEST PUSH2 0x610B DUP2 PUSH2 0x60F5 JUMP JUMPDEST DUP3 MSTORE POP POP JUMP JUMPDEST PUSH1 0x0 PUSH1 0x80 DUP3 ADD SWAP1 POP PUSH2 0x6126 PUSH1 0x0 DUP4 ADD DUP8 PUSH2 0x4BE2 JUMP JUMPDEST PUSH2 0x6133 PUSH1 0x20 DUP4 ADD DUP7 PUSH2 0x6102 JUMP JUMPDEST PUSH2 0x6140 PUSH1 0x40 DUP4 ADD DUP6 PUSH2 0x4BE2 JUMP JUMPDEST PUSH2 0x614D PUSH1 0x60 DUP4 ADD DUP5 PUSH2 0x4BE2 JUMP JUMPDEST SWAP6 SWAP5 POP POP POP POP POP JUMP INVALID LOG2 PUSH5 0x6970667358 0x22 SLT KECCAK256 0xF9 SHL JUMPI PUSH24 0xDE253254A9CB4B1C39E0CBF63C54FBE3BFDC7F5251E9D815 0xBD TLOAD SLOAD 0xBD PUSH5 0x736F6C6343 STOP ADDMOD SHL STOP CALLER "},"methodIdentifiers":{"addPhase(uint8,uint256,uint256,uint256,uint256,uint256,uint256,bytes32)":"7a989281","approve(address,uint256)":"095ea7b3","backendSigner()":"65d65e86","balanceOf(address)":"70a08231","eip712Domain()":"84b0196e","getActivePhase()":"1ce97fd1","getApproved(uint256)":"081812fc","getDomainSeparator()":"ed24911d","getMintedInPhase(address,uint8)":"f7330c2d","getNonce(address)":"2d0335ab","getPhaseCount()":"db5e0063","isActivePhasePresent()":"072a1319","isApprovedForAll(address,address)":"e985e9c5","mint(uint256,string,uint256,bytes,bytes32[])":"ee5f4f13","name()":"06fdde03","owner()":"8da5cb5b","ownerOf(uint256)":"6352211e","phases(uint256)":"2e37eef6","platformFeePercentage()":"cdd78cfc","platformFeeRecipient()":"eb13554f","renounceOwnership()":"715018a6","royaltyInfo(uint256,uint256)":"2a55205a","safeTransferFrom(address,address,uint256)":"42842e0e","safeTransferFrom(address,address,uint256,bytes)":"b88d4fde","setApprovalForAll(address,bool)":"a22cb465","setPlatformFee(uint96,address)":"decc4a6a","supportsInterface(bytes4)":"01ffc9a7","symbol()":"95d89b41","tokenByIndex(uint256)":"4f6ccce7","tokenOfOwnerByIndex(address,uint256)":"2f745c59","tokenURI(uint256)":"c87b56dd","totalSupply()":"18160ddd","transferFrom(address,address,uint256)":"23b872dd","transferOwnership(address)":"f2fde38b","updatePhase(uint256,uint8,uint256,uint256,uint256,uint256,uint256,uint256,bytes32)":"a4836c11","withdraw()":"3ccfd60b"}}}}}