{"src/blockchain/evm/contracts/DirectMintNFTV2.sol":{"LaunchNFTV2":{"abi":[{"inputs":[{"internalType":"address","name":"initialOwner","type":"address"},{"internalType":"string","name":"name","type":"string"},{"internalType":"string","name":"symbol","type":"string"},{"internalType":"uint96","name":"_royaltyFee","type":"uint96"},{"internalType":"uint96","name":"_platformFee","type":"uint96"},{"internalType":"address","name":"_platformFeeRecipient","type":"address"},{"internalType":"address","name":"_backendSigner","type":"address"}],"stateMutability":"nonpayable","type":"constructor"},{"inputs":[],"name":"ECDSAInvalidSignature","type":"error"},{"inputs":[{"internalType":"uint256","name":"length","type":"uint256"}],"name":"ECDSAInvalidSignatureLength","type":"error"},{"inputs":[{"internalType":"bytes32","name":"s","type":"bytes32"}],"name":"ECDSAInvalidSignatureS","type":"error"},{"inputs":[{"internalType":"uint256","name":"numerator","type":"uint256"},{"internalType":"uint256","name":"denominator","type":"uint256"}],"name":"ERC2981InvalidDefaultRoyalty","type":"error"},{"inputs":[{"internalType":"address","name":"receiver","type":"address"}],"name":"ERC2981InvalidDefaultRoyaltyReceiver","type":"error"},{"inputs":[{"internalType":"uint256","name":"tokenId","type":"uint256"},{"internalType":"uint256","name":"numerator","type":"uint256"},{"internalType":"uint256","name":"denominator","type":"uint256"}],"name":"ERC2981InvalidTokenRoyalty","type":"error"},{"inputs":[{"internalType":"uint256","name":"tokenId","type":"uint256"},{"internalType":"address","name":"receiver","type":"address"}],"name":"ERC2981InvalidTokenRoyaltyReceiver","type":"error"},{"inputs":[],"name":"ERC721EnumerableForbiddenBatchMint","type":"error"},{"inputs":[{"internalType":"address","name":"sender","type":"address"},{"internalType":"uint256","name":"tokenId","type":"uint256"},{"internalType":"address","name":"owner","type":"address"}],"name":"ERC721IncorrectOwner","type":"error"},{"inputs":[{"internalType":"address","name":"operator","type":"address"},{"internalType":"uint256","name":"tokenId","type":"uint256"}],"name":"ERC721InsufficientApproval","type":"error"},{"inputs":[{"internalType":"address","name":"approver","type":"address"}],"name":"ERC721InvalidApprover","type":"error"},{"inputs":[{"internalType":"address","name":"operator","type":"address"}],"name":"ERC721InvalidOperator","type":"error"},{"inputs":[{"internalType":"address","name":"owner","type":"address"}],"name":"ERC721InvalidOwner","type":"error"},{"inputs":[{"internalType":"address","name":"receiver","type":"address"}],"name":"ERC721InvalidReceiver","type":"error"},{"inputs":[{"internalType":"address","name":"sender","type":"address"}],"name":"ERC721InvalidSender","type":"error"},{"inputs":[{"internalType":"uint256","name":"tokenId","type":"uint256"}],"name":"ERC721NonexistentToken","type":"error"},{"inputs":[{"internalType":"address","name":"owner","type":"address"},{"internalType":"uint256","name":"index","type":"uint256"}],"name":"ERC721OutOfBoundsIndex","type":"error"},{"inputs":[],"name":"InvalidShortString","type":"error"},{"inputs":[{"internalType":"address","name":"owner","type":"address"}],"name":"OwnableInvalidOwner","type":"error"},{"inputs":[{"internalType":"address","name":"account","type":"address"}],"name":"OwnableUnauthorizedAccount","type":"error"},{"inputs":[{"internalType":"string","name":"str","type":"string"}],"name":"StringTooLong","type":"error"},{"anonymous":false,"inputs":[{"indexed":true,"internalType":"address","name":"owner","type":"address"},{"indexed":true,"internalType":"address","name":"approved","type":"address"},{"indexed":true,"internalType":"uint256","name":"tokenId","type":"uint256"}],"name":"Approval","type":"event"},{"anonymous":false,"inputs":[{"indexed":true,"internalType":"address","name":"owner","type":"address"},{"indexed":true,"internalType":"address","name":"operator","type":"address"},{"indexed":false,"internalType":"bool","name":"approved","type":"bool"}],"name":"ApprovalForAll","type":"event"},{"anonymous":false,"inputs":[{"indexed":false,"internalType":"uint256","name":"_fromTokenId","type":"uint256"},{"indexed":false,"internalType":"uint256","name":"_toTokenId","type":"uint256"}],"name":"BatchMetadataUpdate","type":"event"},{"anonymous":false,"inputs":[],"name":"EIP712DomainChanged","type":"event"},{"anonymous":false,"inputs":[{"indexed":false,"internalType":"uint256","name":"_tokenId","type":"uint256"}],"name":"MetadataUpdate","type":"event"},{"anonymous":false,"inputs":[{"indexed":true,"internalType":"address","name":"previousOwner","type":"address"},{"indexed":true,"internalType":"address","name":"newOwner","type":"address"}],"name":"OwnershipTransferred","type":"event"},{"anonymous":false,"inputs":[{"indexed":true,"internalType":"uint256","name":"phaseIndex","type":"uint256"},{"indexed":false,"internalType":"enum LaunchNFTV2.PhaseType","name":"phaseType","type":"uint8"},{"indexed":false,"internalType":"uint256","name":"price","type":"uint256"}],"name":"PhaseAdded","type":"event"},{"anonymous":false,"inputs":[{"indexed":true,"internalType":"uint256","name":"phaseIndex","type":"uint256"},{"indexed":false,"internalType":"enum LaunchNFTV2.PhaseType","name":"phaseType","type":"uint8"},{"indexed":false,"internalType":"uint256","name":"price","type":"uint256"}],"name":"PhaseUpdated","type":"event"},{"anonymous":false,"inputs":[{"indexed":false,"internalType":"uint96","name":"newPercentage","type":"uint96"},{"indexed":false,"internalType":"address","name":"newRecipient","type":"address"}],"name":"PlatformFeeUpdated","type":"event"},{"anonymous":false,"inputs":[{"indexed":true,"internalType":"uint256","name":"tokenId","type":"uint256"},{"indexed":true,"internalType":"address","name":"recipient","type":"address"},{"indexed":false,"internalType":"enum LaunchNFTV2.PhaseType","name":"phaseType","type":"uint8"}],"name":"TokenMinted","type":"event"},{"anonymous":false,"inputs":[{"indexed":true,"internalType":"address","name":"from","type":"address"},{"indexed":true,"internalType":"address","name":"to","type":"address"},{"indexed":true,"internalType":"uint256","name":"tokenId","type":"uint256"}],"name":"Transfer","type":"event"},{"anonymous":false,"inputs":[{"indexed":true,"internalType":"address","name":"recipient","type":"address"},{"indexed":false,"internalType":"uint256","name":"amount","type":"uint256"}],"name":"WithdrawCompleted","type":"event"},{"inputs":[{"internalType":"enum LaunchNFTV2.PhaseType","name":"_phaseType","type":"uint8"},{"internalType":"uint256","name":"_price","type":"uint256"},{"internalType":"uint256","name":"_startTime","type":"uint256"},{"internalType":"uint256","name":"_endTime","type":"uint256"},{"internalType":"uint256","name":"_maxSupply","type":"uint256"},{"internalType":"uint256","name":"_maxPerWallet","type":"uint256"},{"internalType":"bytes32","name":"_merkleRoot","type":"bytes32"}],"name":"addPhase","outputs":[],"stateMutability":"nonpayable","type":"function"},{"inputs":[{"internalType":"address","name":"to","type":"address"},{"internalType":"uint256","name":"tokenId","type":"uint256"}],"name":"approve","outputs":[],"stateMutability":"nonpayable","type":"function"},{"inputs":[],"name":"backendSigner","outputs":[{"internalType":"address","name":"","type":"address"}],"stateMutability":"view","type":"function"},{"inputs":[{"internalType":"address","name":"owner","type":"address"}],"name":"balanceOf","outputs":[{"internalType":"uint256","name":"","type":"uint256"}],"stateMutability":"view","type":"function"},{"inputs":[],"name":"eip712Domain","outputs":[{"internalType":"bytes1","name":"fields","type":"bytes1"},{"internalType":"string","name":"name","type":"string"},{"internalType":"string","name":"version","type":"string"},{"internalType":"uint256","name":"chainId","type":"uint256"},{"internalType":"address","name":"verifyingContract","type":"address"},{"internalType":"bytes32","name":"salt","type":"bytes32"},{"internalType":"uint256[]","name":"extensions","type":"uint256[]"}],"stateMutability":"view","type":"function"},{"inputs":[],"name":"getActivePhase","outputs":[{"internalType":"uint256","name":"phaseIndex","type":"uint256"},{"components":[{"internalType":"enum LaunchNFTV2.PhaseType","name":"phaseType","type":"uint8"},{"internalType":"uint256","name":"price","type":"uint256"},{"internalType":"uint256","name":"startTime","type":"uint256"},{"internalType":"uint256","name":"endTime","type":"uint256"},{"internalType":"uint256","name":"maxSupply","type":"uint256"},{"internalType":"uint256","name":"maxPerWallet","type":"uint256"},{"internalType":"uint256","name":"mintedInPhase","type":"uint256"},{"internalType":"bytes32","name":"merkleRoot","type":"bytes32"}],"internalType":"struct LaunchNFTV2.Phase","name":"phase","type":"tuple"}],"stateMutability":"view","type":"function"},{"inputs":[{"internalType":"uint256","name":"tokenId","type":"uint256"}],"name":"getApproved","outputs":[{"internalType":"address","name":"","type":"address"}],"stateMutability":"view","type":"function"},{"inputs":[],"name":"getDomainSeparator","outputs":[{"internalType":"bytes32","name":"","type":"bytes32"}],"stateMutability":"view","type":"function"},{"inputs":[{"internalType":"address","name":"user","type":"address"},{"internalType":"enum LaunchNFTV2.PhaseType","name":"phaseType","type":"uint8"}],"name":"getMintedInPhase","outputs":[{"internalType":"uint256","name":"","type":"uint256"}],"stateMutability":"view","type":"function"},{"inputs":[],"name":"getPhaseCount","outputs":[{"internalType":"uint256","name":"","type":"uint256"}],"stateMutability":"view","type":"function"},{"inputs":[],"name":"isActivePhasePresent","outputs":[{"internalType":"bool","name":"","type":"bool"}],"stateMutability":"view","type":"function"},{"inputs":[{"internalType":"address","name":"owner","type":"address"},{"internalType":"address","name":"operator","type":"address"}],"name":"isApprovedForAll","outputs":[{"internalType":"bool","name":"","type":"bool"}],"stateMutability":"view","type":"function"},{"inputs":[{"internalType":"uint256","name":"tokenId","type":"uint256"},{"internalType":"string","name":"uri","type":"string"},{"internalType":"bytes32","name":"uniqueId","type":"bytes32"},{"internalType":"uint256","name":"timestamp","type":"uint256"},{"internalType":"bytes","name":"signature","type":"bytes"},{"internalType":"bytes32[]","name":"merkleProof","type":"bytes32[]"}],"name":"mint","outputs":[],"stateMutability":"payable","type":"function"},{"inputs":[],"name":"name","outputs":[{"internalType":"string","name":"","type":"string"}],"stateMutability":"view","type":"function"},{"inputs":[],"name":"owner","outputs":[{"internalType":"address","name":"","type":"address"}],"stateMutability":"view","type":"function"},{"inputs":[{"internalType":"uint256","name":"tokenId","type":"uint256"}],"name":"ownerOf","outputs":[{"internalType":"address","name":"","type":"address"}],"stateMutability":"view","type":"function"},{"inputs":[{"internalType":"uint256","name":"","type":"uint256"}],"name":"phases","outputs":[{"internalType":"enum LaunchNFTV2.PhaseType","name":"phaseType","type":"uint8"},{"internalType":"uint256","name":"price","type":"uint256"},{"internalType":"uint256","name":"startTime","type":"uint256"},{"internalType":"uint256","name":"endTime","type":"uint256"},{"internalType":"uint256","name":"maxSupply","type":"uint256"},{"internalType":"uint256","name":"maxPerWallet","type":"uint256"},{"internalType":"uint256","name":"mintedInPhase","type":"uint256"},{"internalType":"bytes32","name":"merkleRoot","type":"bytes32"}],"stateMutability":"view","type":"function"},{"inputs":[],"name":"platformFeePercentage","outputs":[{"internalType":"uint96","name":"","type":"uint96"}],"stateMutability":"view","type":"function"},{"inputs":[],"name":"platformFeeRecipient","outputs":[{"internalType":"address","name":"","type":"address"}],"stateMutability":"view","type":"function"},{"inputs":[],"name":"renounceOwnership","outputs":[],"stateMutability":"nonpayable","type":"function"},{"inputs":[{"internalType":"uint256","name":"tokenId","type":"uint256"},{"internalType":"uint256","name":"salePrice","type":"uint256"}],"name":"royaltyInfo","outputs":[{"internalType":"address","name":"receiver","type":"address"},{"internalType":"uint256","name":"amount","type":"uint256"}],"stateMutability":"view","type":"function"},{"inputs":[{"internalType":"address","name":"from","type":"address"},{"internalType":"address","name":"to","type":"address"},{"internalType":"uint256","name":"tokenId","type":"uint256"}],"name":"safeTransferFrom","outputs":[],"stateMutability":"nonpayable","type":"function"},{"inputs":[{"internalType":"address","name":"from","type":"address"},{"internalType":"address","name":"to","type":"address"},{"internalType":"uint256","name":"tokenId","type":"uint256"},{"internalType":"bytes","name":"data","type":"bytes"}],"name":"safeTransferFrom","outputs":[],"stateMutability":"nonpayable","type":"function"},{"inputs":[{"internalType":"address","name":"operator","type":"address"},{"internalType":"bool","name":"approved","type":"bool"}],"name":"setApprovalForAll","outputs":[],"stateMutability":"nonpayable","type":"function"},{"inputs":[{"internalType":"bytes4","name":"interfaceId","type":"bytes4"}],"name":"supportsInterface","outputs":[{"internalType":"bool","name":"","type":"bool"}],"stateMutability":"view","type":"function"},{"inputs":[],"name":"symbol","outputs":[{"internalType":"string","name":"","type":"string"}],"stateMutability":"view","type":"function"},{"inputs":[{"internalType":"uint256","name":"index","type":"uint256"}],"name":"tokenByIndex","outputs":[{"internalType":"uint256","name":"","type":"uint256"}],"stateMutability":"view","type":"function"},{"inputs":[{"internalType":"address","name":"owner","type":"address"},{"internalType":"uint256","name":"index","type":"uint256"}],"name":"tokenOfOwnerByIndex","outputs":[{"internalType":"uint256","name":"","type":"uint256"}],"stateMutability":"view","type":"function"},{"inputs":[{"internalType":"uint256","name":"tokenId","type":"uint256"}],"name":"tokenURI","outputs":[{"internalType":"string","name":"","type":"string"}],"stateMutability":"view","type":"function"},{"inputs":[{"internalType":"address","name":"owner","type":"address"}],"name":"tokensOfOwner","outputs":[{"internalType":"uint256[]","name":"","type":"uint256[]"}],"stateMutability":"view","type":"function"},{"inputs":[],"name":"totalSupply","outputs":[{"internalType":"uint256","name":"","type":"uint256"}],"stateMutability":"view","type":"function"},{"inputs":[{"internalType":"address","name":"from","type":"address"},{"internalType":"address","name":"to","type":"address"},{"internalType":"uint256","name":"tokenId","type":"uint256"}],"name":"transferFrom","outputs":[],"stateMutability":"nonpayable","type":"function"},{"inputs":[{"internalType":"address","name":"newOwner","type":"address"}],"name":"transferOwnership","outputs":[],"stateMutability":"nonpayable","type":"function"},{"inputs":[{"internalType":"uint256","name":"phaseIndex","type":"uint256"},{"internalType":"enum LaunchNFTV2.PhaseType","name":"_phaseType","type":"uint8"},{"internalType":"uint256","name":"_price","type":"uint256"},{"internalType":"uint256","name":"_startTime","type":"uint256"},{"internalType":"uint256","name":"_endTime","type":"uint256"},{"internalType":"uint256","name":"_maxSupply","type":"uint256"},{"internalType":"uint256","name":"_maxPerWallet","type":"uint256"},{"internalType":"bytes32","name":"_merkleRoot","type":"bytes32"}],"name":"updatePhase","outputs":[],"stateMutability":"nonpayable","type":"function"}],"evm":{"bytecode":{"linkReferences":{},"object":"6101a060405234801561001157600080fd5b5060405161724e38038061724e83398181016040528101906100339190610a2b565b6040518060400160405280600a81526020017f556e69666965644e4654000000000000000000000000000000000000000000008152506040518060400160405280600181526020017f310000000000000000000000000000000000000000000000000000000000000081525088888881600090816100b19190610d26565b5080600190816100c19190610d26565b505050600073ffffffffffffffffffffffffffffffffffffffff168173ffffffffffffffffffffffffffffffffffffffff16036101365760006040517f1e4fbdf700000000000000000000000000000000000000000000000000000000815260040161012d9190610e07565b60405180910390fd5b6101458161047f60201b60201c565b5061015a600e8361054560201b90919060201c565b6101208181525050610176600f8261054560201b90919060201c565b6101408181525050818051906020012060e08181525050808051906020012061010081815250504660a081815250506101b361059560201b60201c565b608081815250503073ffffffffffffffffffffffffffffffffffffffff1660c08173ffffffffffffffffffffffffffffffffffffffff168152505050506103e8846bffffffffffffffffffffffff161115801561022057506103e8836bffffffffffffffffffffffff1611155b80156102595750600073ffffffffffffffffffffffffffffffffffffffff168273ffffffffffffffffffffffffffffffffffffffff1614155b80156102925750600073ffffffffffffffffffffffffffffffffffffffff168173ffffffffffffffffffffffffffffffffffffffff1614155b61029b57600080fd5b8073ffffffffffffffffffffffffffffffffffffffff166101608173ffffffffffffffffffffffffffffffffffffffff1681525050836bffffffffffffffffffffffff16610180816bffffffffffffffffffffffff168152505082601560006101000a8154816bffffffffffffffffffffffff02191690836bffffffffffffffffffffffff160217905550816015600c6101000a81548173ffffffffffffffffffffffffffffffffffffffff021916908373ffffffffffffffffffffffffffffffffffffffff16021790555061037a87610180516105f060201b60201c565b60126040518061010001604052806000600281111561039c5761039b610e22565b5b81526020016000815260200160008152602001600081526020016000815260200160008152602001600081526020016000801b815250908060018154018082558091505060019003906000526020600020906008020160009091909190915060008201518160000160006101000a81548160ff0219169083600281111561042657610425610e22565b5b02179055506020820151816001015560408201518160020155606082015181600301556080820151816004015560a0820151816005015560c0820151816006015560e08201518160070155505050505050505050611029565b6000600d60009054906101000a900473ffffffffffffffffffffffffffffffffffffffff16905081600d60006101000a81548173ffffffffffffffffffffffffffffffffffffffff021916908373ffffffffffffffffffffffffffffffffffffffff1602179055508173ffffffffffffffffffffffffffffffffffffffff168173ffffffffffffffffffffffffffffffffffffffff167f8be0079c531659141344cd1fd0a4f28419497f9722a3daafe3b4186f6b6457e060405160405180910390a35050565b6000602083511015610567576105608361079860201b60201c565b905061058f565b826105778361080060201b60201c565b60000190816105869190610d26565b5060ff60001b90505b92915050565b60007f8b73c3c69bb8fe3d512ecc4cf759cc79239f7b179b0ffacaa9a75d522b39400f60e0516101005146306040516020016105d5959493929190610e79565b60405160208183030381529060405280519060200120905090565b600061060061080a60201b60201c565b6bffffffffffffffffffffffff16905080826bffffffffffffffffffffffff1611156106655781816040517f6f483d0900000000000000000000000000000000000000000000000000000000815260040161065c929190610efd565b60405180910390fd5b600073ffffffffffffffffffffffffffffffffffffffff168373ffffffffffffffffffffffffffffffffffffffff16036106d75760006040517fb6d9900a0000000000000000000000000000000000000000000000000000000081526004016106ce9190610e07565b60405180910390fd5b60405180604001604052808473ffffffffffffffffffffffffffffffffffffffff168152602001836bffffffffffffffffffffffff16815250600b60008201518160000160006101000a81548173ffffffffffffffffffffffffffffffffffffffff021916908373ffffffffffffffffffffffffffffffffffffffff16021790555060208201518160000160146101000a8154816bffffffffffffffffffffffff02191690836bffffffffffffffffffffffff160217905550905050505050565b600080829050601f815111156107e557826040517f305a27a90000000000000000000000000000000000000000000000000000000081526004016107dc9190610f70565b60405180910390fd5b8051816107f190610fc2565b60001c1760001b915050919050565b6000819050919050565b6000612710905090565b6000604051905090565b600080fd5b600080fd5b600073ffffffffffffffffffffffffffffffffffffffff82169050919050565b600061085382610828565b9050919050565b61086381610848565b811461086e57600080fd5b50565b6000815190506108808161085a565b92915050565b600080fd5b600080fd5b6000601f19601f8301169050919050565b7f4e487b7100000000000000000000000000000000000000000000000000000000600052604160045260246000fd5b6108d982610890565b810181811067ffffffffffffffff821117156108f8576108f76108a1565b5b80604052505050565b600061090b610814565b905061091782826108d0565b919050565b600067ffffffffffffffff821115610937576109366108a1565b5b61094082610890565b9050602081019050919050565b60005b8381101561096b578082015181840152602081019050610950565b60008484015250505050565b600061098a6109858461091c565b610901565b9050828152602081018484840111156109a6576109a561088b565b5b6109b184828561094d565b509392505050565b600082601f8301126109ce576109cd610886565b5b81516109de848260208601610977565b91505092915050565b60006bffffffffffffffffffffffff82169050919050565b610a08816109e7565b8114610a1357600080fd5b50565b600081519050610a25816109ff565b92915050565b600080600080600080600060e0888a031215610a4a57610a4961081e565b5b6000610a588a828b01610871565b975050602088015167ffffffffffffffff811115610a7957610a78610823565b5b610a858a828b016109b9565b965050604088015167ffffffffffffffff811115610aa657610aa5610823565b5b610ab28a828b016109b9565b9550506060610ac38a828b01610a16565b9450506080610ad48a828b01610a16565b93505060a0610ae58a828b01610871565b92505060c0610af68a828b01610871565b91505092959891949750929550565b600081519050919050565b7f4e487b7100000000000000000000000000000000000000000000000000000000600052602260045260246000fd5b60006002820490506001821680610b5757607f821691505b602082108103610b6a57610b69610b10565b5b50919050565b60008190508160005260206000209050919050565b60006020601f8301049050919050565b600082821b905092915050565b600060088302610bd27fffffffffffffffffffffffffffffffffffffffffffffffffffffffffffffffff82610b95565b610bdc8683610b95565b95508019841693508086168417925050509392505050565b6000819050919050565b6000819050919050565b6000610c23610c1e610c1984610bf4565b610bfe565b610bf4565b9050919050565b6000819050919050565b610c3d83610c08565b610c51610c4982610c2a565b848454610ba2565b825550505050565b600090565b610c66610c59565b610c71818484610c34565b505050565b5b81811015610c9557610c8a600082610c5e565b600181019050610c77565b5050565b601f821115610cda57610cab81610b70565b610cb484610b85565b81016020851015610cc3578190505b610cd7610ccf85610b85565b830182610c76565b50505b505050565b600082821c905092915050565b6000610cfd60001984600802610cdf565b1980831691505092915050565b6000610d168383610cec565b9150826002028217905092915050565b610d2f82610b05565b67ffffffffffffffff811115610d4857610d476108a1565b5b610d528254610b3f565b610d5d828285610c99565b600060209050601f831160018114610d905760008415610d7e578287015190505b610d888582610d0a565b865550610df0565b601f198416610d9e86610b70565b60005b82811015610dc657848901518255600182019150602085019450602081019050610da1565b86831015610de35784890151610ddf601f891682610cec565b8355505b6001600288020188555050505b505050505050565b610e0181610848565b82525050565b6000602082019050610e1c6000830184610df8565b92915050565b7f4e487b7100000000000000000000000000000000000000000000000000000000600052602160045260246000fd5b6000819050919050565b610e6481610e51565b82525050565b610e7381610bf4565b82525050565b600060a082019050610e8e6000830188610e5b565b610e9b6020830187610e5b565b610ea86040830186610e5b565b610eb56060830185610e6a565b610ec26080830184610df8565b9695505050505050565b6000610ee7610ee2610edd846109e7565b610bfe565b610bf4565b9050919050565b610ef781610ecc565b82525050565b6000604082019050610f126000830185610eee565b610f1f6020830184610e6a565b9392505050565b600082825260208201905092915050565b6000610f4282610b05565b610f4c8185610f26565b9350610f5c81856020860161094d565b610f6581610890565b840191505092915050565b60006020820190508181036000830152610f8a8184610f37565b905092915050565b600081519050919050565b6000819050602082019050919050565b6000610fb98251610e51565b80915050919050565b6000610fcd82610f92565b82610fd784610f9d565b9050610fe281610fad565b925060208210156110225761101d7fffffffffffffffffffffffffffffffffffffffffffffffffffffffffffffffff83602003600802610b95565b831692505b5050919050565b60805160a05160c05160e05161010051610120516101405161016051610180516161b161109d600039600050506000818161127c0152611b47015260006125da0152600061259f015260006136290152600061360801526000612db501526000612e0b01526000612e3401526161b16000f3fe6080604052600436106101f95760003560e01c8063715018a61161010d578063b88d4fde116100a0578063e985e9c51161006f578063e985e9c51461076f578063eb13554f146107ac578063ed24911d146107d7578063f2fde38b14610802578063f7330c2d1461082b576101f9565b8063b88d4fde146106b3578063c87b56dd146106dc578063cdd78cfc14610719578063db5e006314610744576101f9565b80638da5cb5b116100dc5780638da5cb5b146106185780638ff75e821461064357806395d89b411461065f578063a22cb4651461068a576101f9565b8063715018a61461056a57806376826a67146105815780638462151c146105aa57806384b0196e146105e7576101f9565b80632a55205a116101905780634f6ccce71161015f5780634f6ccce71461045f578063570360781461049c5780636352211e146104c557806365d65e861461050257806370a082311461052d576101f9565b80632a55205a146103775780632e37eef6146103b55780632f745c59146103f957806342842e0e14610436576101f9565b8063095ea7b3116101cc578063095ea7b3146102ce57806318160ddd146102f75780631ce97fd11461032257806323b872dd1461034e576101f9565b806301ffc9a7146101fe57806306fdde031461023b578063072a131914610266578063081812fc14610291575b600080fd5b34801561020a57600080fd5b506102256004803603810190610220919061446c565b610868565b60405161023291906144b4565b60405180910390f35b34801561024757600080fd5b5061025061087a565b60405161025d919061455f565b60405180910390f35b34801561027257600080fd5b5061027b61090c565b60405161028891906144b4565b60405180910390f35b34801561029d57600080fd5b506102b860048036038101906102b391906145b7565b610a06565b6040516102c59190614625565b60405180910390f35b3480156102da57600080fd5b506102f560048036038101906102f0919061466c565b610a22565b005b34801561030357600080fd5b5061030c610a38565b60405161031991906146bb565b60405180910390f35b34801561032e57600080fd5b50610337610a45565b604051610345929190614817565b60405180910390f35b34801561035a57600080fd5b5061037560048036038101906103709190614841565b610aef565b005b34801561038357600080fd5b5061039e60048036038101906103999190614894565b610bf1565b6040516103ac9291906148d4565b60405180910390f35b3480156103c157600080fd5b506103dc60048036038101906103d791906145b7565b610d21565b6040516103f098979695949392919061491b565b60405180910390f35b34801561040557600080fd5b50610420600480360381019061041b919061466c565b610d86565b60405161042d91906146bb565b60405180910390f35b34801561044257600080fd5b5061045d60048036038101906104589190614841565b610e2f565b005b34801561046b57600080fd5b50610486600480360381019061048191906145b7565b610e4f565b60405161049391906146bb565b60405180910390f35b3480156104a857600080fd5b506104c360048036038101906104be91906149ea565b610ec5565b005b3480156104d157600080fd5b506104ec60048036038101906104e791906145b7565b611268565b6040516104f99190614625565b60405180910390f35b34801561050e57600080fd5b5061051761127a565b6040516105249190614625565b60405180910390f35b34801561053957600080fd5b50610554600480360381019061054f9190614a8c565b61129e565b60405161056191906146bb565b60405180910390f35b34801561057657600080fd5b5061057f611358565b005b34801561058d57600080fd5b506105a860048036038101906105a39190614ab9565b61136c565b005b3480156105b657600080fd5b506105d160048036038101906105cc9190614a8c565b6117a7565b6040516105de9190614c1e565b60405180910390f35b3480156105f357600080fd5b506105fc61183e565b60405161060f9796959493929190614c7b565b60405180910390f35b34801561062457600080fd5b5061062d6118e8565b60405161063a9190614625565b60405180910390f35b61065d60048036038101906106589190614e10565b611912565b005b34801561066b57600080fd5b50610674611ea3565b604051610681919061455f565b60405180910390f35b34801561069657600080fd5b506106b160048036038101906106ac9190614f2b565b611f35565b005b3480156106bf57600080fd5b506106da60048036038101906106d5919061509b565b611f4b565b005b3480156106e857600080fd5b5061070360048036038101906106fe91906145b7565b611f70565b604051610710919061455f565b60405180910390f35b34801561072557600080fd5b5061072e611f82565b60405161073b9190615145565b60405180910390f35b34801561075057600080fd5b50610759611fa0565b60405161076691906146bb565b60405180910390f35b34801561077b57600080fd5b5061079660048036038101906107919190615160565b611fad565b6040516107a391906144b4565b60405180910390f35b3480156107b857600080fd5b506107c1612041565b6040516107ce9190614625565b60405180910390f35b3480156107e357600080fd5b506107ec612067565b6040516107f991906151a0565b60405180910390f35b34801561080e57600080fd5b5061082960048036038101906108249190614a8c565b612076565b005b34801561083757600080fd5b50610852600480360381019061084d91906151bb565b6120fc565b60405161085f91906146bb565b60405180910390f35b60006108738261217b565b9050919050565b6060600080546108899061522a565b80601f01602080910402602001604051908101604052809291908181526020018280546108b59061522a565b80156109025780601f106108d757610100808354040283529160200191610902565b820191906000526020600020905b8154815290600101906020018083116108e557829003601f168201915b5050505050905090565b60008042905060005b6012805490508110156109fc5760006002811115610936576109356146d6565b5b6012828154811061094a5761094961525b565b5b906000526020600020906008020160000160009054906101000a900460ff16600281111561097b5761097a6146d6565b5b141580156109ae5750601281815481106109985761099761525b565b5b9060005260206000209060080201600201548210155b80156109df5750601281815481106109c9576109c861525b565b5b9060005260206000209060080201600301548211155b156109ef57600192505050610a03565b8080600101915050610915565b5060009150505b90565b6000610a11826121f5565b50610a1b8261227d565b9050919050565b610a348282610a2f6122ba565b6122c2565b5050565b6000600880549050905090565b6000610a4f6143a6565b610a576122d4565b80604051806101000160405290816000820160009054906101000a900460ff166002811115610a8957610a886146d6565b5b6002811115610a9b57610a9a6146d6565b5b81526020016001820154815260200160028201548152602001600382015481526020016004820154815260200160058201548152602001600682015481526020016007820154815250509050915091509091565b600073ffffffffffffffffffffffffffffffffffffffff168273ffffffffffffffffffffffffffffffffffffffff1603610b615760006040517f64a0ae92000000000000000000000000000000000000000000000000000000008152600401610b589190614625565b60405180910390fd5b6000610b758383610b706122ba565b612429565b90508373ffffffffffffffffffffffffffffffffffffffff168173ffffffffffffffffffffffffffffffffffffffff1614610beb578382826040517f64283d7b000000000000000000000000000000000000000000000000000000008152600401610be29392919061528a565b60405180910390fd5b50505050565b6000806000600c6000868152602001908152602001600020905060008160000160009054906101000a900473ffffffffffffffffffffffffffffffffffffffff16905060008260000160149054906101000a90046bffffffffffffffffffffffff169050600073ffffffffffffffffffffffffffffffffffffffff168273ffffffffffffffffffffffffffffffffffffffff1603610cd257600b60000160009054906101000a900473ffffffffffffffffffffffffffffffffffffffff169150600b60000160149054906101000a90046bffffffffffffffffffffffff1690505b6000610cdc61243f565b6bffffffffffffffffffffffff16826bffffffffffffffffffffffff1688610d0491906152f0565b610d0e9190615361565b9050828195509550505050509250929050565b60128181548110610d3157600080fd5b90600052602060002090600802016000915090508060000160009054906101000a900460ff16908060010154908060020154908060030154908060040154908060050154908060060154908060070154905088565b6000610d918361129e565b8210610dd65782826040517fa57d13dc000000000000000000000000000000000000000000000000000000008152600401610dcd9291906148d4565b60405180910390fd5b600660008473ffffffffffffffffffffffffffffffffffffffff1673ffffffffffffffffffffffffffffffffffffffff168152602001908152602001600020600083815260200190815260200160002054905092915050565b610e4a83838360405180602001604052806000815250611f4b565b505050565b6000610e59610a38565b8210610e9f576000826040517fa57d13dc000000000000000000000000000000000000000000000000000000008152600401610e969291906148d4565b60405180910390fd5b60088281548110610eb357610eb261525b565b5b90600052602060002001549050919050565b610ecd612449565b838510610f0f576040517f08c379a0000000000000000000000000000000000000000000000000000000008152600401610f06906153de565b60405180910390fd5b600280811115610f2257610f216146d6565b5b876002811115610f3557610f346146d6565b5b14610fc35760008211610f7d576040517f08c379a0000000000000000000000000000000000000000000000000000000008152600401610f7490615470565b60405180910390fd5b6000801b8103610fc2576040517f08c379a0000000000000000000000000000000000000000000000000000000008152600401610fb990615502565b60405180910390fd5b5b60005b60128054905081101561112357600060128281548110610fe957610fe861525b565b5b9060005260206000209060080201604051806101000160405290816000820160009054906101000a900460ff166002811115611028576110276146d6565b5b600281111561103a576110396146d6565b5b815260200160018201548152602001600282015481526020016003820154815260200160048201548152602001600582015481526020016006820154815260200160078201548152505090506000600281111561109a576110996146d6565b5b816000015160028111156110b1576110b06146d6565b5b036110bc5750611116565b806060015187111580156110d4575080604001518610155b15611114576040517f08c379a000000000000000000000000000000000000000000000000000000000815260040161110b90615594565b60405180910390fd5b505b8080600101915050610fc6565b506000604051806101000160405280896002811115611145576111446146d6565b5b81526020018881526020018781526020018681526020018581526020018481526020016000815260200183815250905060006012805490509050601282908060018154018082558091505060019003906000526020600020906008020160009091909190915060008201518160000160006101000a81548160ff021916908360028111156111d6576111d56146d6565b5b02179055506020820151816001015560408201518160020155606082015181600301556080820151816004015560a0820151816005015560c0820151816006015560e082015181600701555050807f7673e4939433531841b3ee155cfb41d74036f1741ed20ba7c3ed88d66a2895518a8a6040516112559291906155b4565b60405180910390a2505050505050505050565b6000611273826121f5565b9050919050565b7f000000000000000000000000000000000000000000000000000000000000000081565b60008073ffffffffffffffffffffffffffffffffffffffff168273ffffffffffffffffffffffffffffffffffffffff16036113115760006040517f89c62b640000000000000000000000000000000000000000000000000000000081526004016113089190614625565b60405180910390fd5b600360008373ffffffffffffffffffffffffffffffffffffffff1673ffffffffffffffffffffffffffffffffffffffff168152602001908152602001600020549050919050565b611360612449565b61136a60006124d0565b565b611374612449565b60128054905088106113bb576040517f08c379a00000000000000000000000000000000000000000000000000000000081526004016113b290615629565b60405180910390fd5b8385106113fd576040517f08c379a00000000000000000000000000000000000000000000000000000000081526004016113f4906153de565b60405180910390fd5b6002808111156114105761140f6146d6565b5b876002811115611423576114226146d6565b5b146114b1576000821161146b576040517f08c379a000000000000000000000000000000000000000000000000000000000815260040161146290615470565b60405180910390fd5b6000801b81036114b0576040517f08c379a00000000000000000000000000000000000000000000000000000000081526004016114a790615502565b60405180910390fd5b5b60005b601280549050811015611619578881031561160c576000601282815481106114df576114de61525b565b5b9060005260206000209060080201604051806101000160405290816000820160009054906101000a900460ff16600281111561151e5761151d6146d6565b5b60028111156115305761152f6146d6565b5b81526020016001820154815260200160028201548152602001600382015481526020016004820154815260200160058201548152602001600682015481526020016007820154815250509050600060028111156115905761158f6146d6565b5b816000015160028111156115a7576115a66146d6565b5b036115b2575061160c565b806060015187111580156115ca575080604001518610155b1561160a576040517f08c379a000000000000000000000000000000000000000000000000000000000815260040161160190615594565b60405180910390fd5b505b80806001019150506114b4565b50866012898154811061162f5761162e61525b565b5b906000526020600020906008020160000160006101000a81548160ff02191690836002811115611662576116616146d6565b5b0217905550856012898154811061167c5761167b61525b565b5b90600052602060002090600802016001018190555084601289815481106116a6576116a561525b565b5b90600052602060002090600802016002018190555083601289815481106116d0576116cf61525b565b5b90600052602060002090600802016003018190555082601289815481106116fa576116f961525b565b5b90600052602060002090600802016004018190555081601289815481106117245761172361525b565b5b906000526020600020906008020160050181905550806012898154811061174e5761174d61525b565b5b906000526020600020906008020160070181905550877ff4d9a8d86574696337b045a92468004b95e2cb5cff95ae009b645780626a50cc88886040516117959291906155b4565b60405180910390a25050505050505050565b6060601460008373ffffffffffffffffffffffffffffffffffffffff1673ffffffffffffffffffffffffffffffffffffffff16815260200190815260200160002080548060200260200160405190810160405280929190818152602001828054801561183257602002820191906000526020600020905b81548152602001906001019080831161181e575b50505050509050919050565b600060608060008060006060611852612596565b61185a6125d1565b46306000801b600067ffffffffffffffff81111561187b5761187a614f70565b5b6040519080825280602002602001820160405280156118a95781602001602082028036833780820191505090505b507f0f00000000000000000000000000000000000000000000000000000000000000959493929190965096509650965096509650965090919293949596565b6000600d60009054906101000a900473ffffffffffffffffffffffffffffffffffffffff16905090565b60008061191d6122d4565b9150915060016002811115611935576119346146d6565b5b8160000160009054906101000a900460ff166002811115611959576119586146d6565b5b03611a14576119d4848480806020026020016040519081016040528093929190818152602001838360200280828437600081840152601f19601f820116905080830192505050505050508260070154336040516020016119b99190615691565b6040516020818303038152906040528051906020012061260c565b611a13576040517f08c379a0000000000000000000000000000000000000000000000000000000008152600401611a0a906156f8565b60405180910390fd5b5b42610e1088611a239190615718565b10158015611a315750428711155b611a70576040517f08c379a0000000000000000000000000000000000000000000000000000000008152600401611a6790615798565b60405180910390fd5b6011600089815260200190815260200160002060009054906101000a900460ff1615611ad1576040517f08c379a0000000000000000000000000000000000000000000000000000000008152600401611ac890615804565b60405180910390fd5b60007fbcd57119bf9b3f112b39ecfb926b57babf8ea759ef8fb8f953ec0103b2a187f3338d8d8d604051611b06929190615854565b60405180910390208560010154878e8e604051602001611b2d98979695949392919061586d565b6040516020818303038152906040528051906020012090507f000000000000000000000000000000000000000000000000000000000000000073ffffffffffffffffffffffffffffffffffffffff16611bdb88888080601f016020809104026020016040519081016040528093929190818152602001838380828437600081840152601f19601f82011690508083019250505050505050611bcd84612623565b61263d90919063ffffffff16565b73ffffffffffffffffffffffffffffffffffffffff1614611c31576040517f08c379a0000000000000000000000000000000000000000000000000000000008152600401611c2890615937565b60405180910390fd5b81600101543414611c77576040517f08c379a0000000000000000000000000000000000000000000000000000000008152600401611c6e906159a3565b60405180910390fd5b600082600401541480611c91575081600401548260060154105b611cd0576040517f08c379a0000000000000000000000000000000000000000000000000000000008152600401611cc790615a0f565b60405180910390fd5b600280811115611ce357611ce26146d6565b5b8260000160009054906101000a900460ff166002811115611d0757611d066146d6565b5b148015611d18575060008260050154145b80611dab57508160050154601360003373ffffffffffffffffffffffffffffffffffffffff1673ffffffffffffffffffffffffffffffffffffffff16815260200190815260200160002060008460000160009054906101000a900460ff166002811115611d8857611d876146d6565b5b6002811115611d9a57611d996146d6565b5b815260200190815260200160002054105b611dea576040517f08c379a0000000000000000000000000000000000000000000000000000000008152600401611de190615aa1565b60405180910390fd5b6001601160008b815260200190815260200160002060006101000a81548160ff021916908315150217905550611e1f34612669565b611e29823361285a565b611e35338d8d8d612913565b3373ffffffffffffffffffffffffffffffffffffffff168c7f99f38cf3feaad38e0a2e22ef51bdd4faba32b432520a951248d77057596a425a8460000160009054906101000a900460ff16604051611e8d9190615ac1565b60405180910390a3505050505050505050505050565b606060018054611eb29061522a565b80601f0160208091040260200160405190810160405280929190818152602001828054611ede9061522a565b8015611f2b5780601f10611f0057610100808354040283529160200191611f2b565b820191906000526020600020905b815481529060010190602001808311611f0e57829003601f168201915b5050505050905090565b611f47611f406122ba565b838361297e565b5050565b611f56848484610aef565b611f6a611f616122ba565b85858585612aed565b50505050565b6060611f7b82612c9e565b9050919050565b601560009054906101000a90046bffffffffffffffffffffffff1681565b6000601280549050905090565b6000600560008473ffffffffffffffffffffffffffffffffffffffff1673ffffffffffffffffffffffffffffffffffffffff16815260200190815260200160002060008373ffffffffffffffffffffffffffffffffffffffff1673ffffffffffffffffffffffffffffffffffffffff16815260200190815260200160002060009054906101000a900460ff16905092915050565b6015600c9054906101000a900473ffffffffffffffffffffffffffffffffffffffff1681565b6000612071612db1565b905090565b61207e612449565b600073ffffffffffffffffffffffffffffffffffffffff168173ffffffffffffffffffffffffffffffffffffffff16036120f05760006040517f1e4fbdf70000000000000000000000000000000000000000000000000000000081526004016120e79190614625565b60405180910390fd5b6120f9816124d0565b50565b6000601360008473ffffffffffffffffffffffffffffffffffffffff1673ffffffffffffffffffffffffffffffffffffffff1681526020019081526020016000206000836002811115612152576121516146d6565b5b6002811115612164576121636146d6565b5b815260200190815260200160002054905092915050565b60007f2a55205a000000000000000000000000000000000000000000000000000000007bffffffffffffffffffffffffffffffffffffffffffffffffffffffff1916827bffffffffffffffffffffffffffffffffffffffffffffffffffffffff191614806121ee57506121ed82612e68565b5b9050919050565b60008061220183612ec9565b9050600073ffffffffffffffffffffffffffffffffffffffff168173ffffffffffffffffffffffffffffffffffffffff160361227457826040517f7e27328900000000000000000000000000000000000000000000000000000000815260040161226b91906146bb565b60405180910390fd5b80915050919050565b60006004600083815260200190815260200160002060009054906101000a900473ffffffffffffffffffffffffffffffffffffffff169050919050565b600033905090565b6122cf8383836001612f06565b505050565b600080600042905060005b6012805490508110156123e95760006002811115612300576122ff6146d6565b5b601282815481106123145761231361525b565b5b906000526020600020906008020160000160009054906101000a900460ff166002811115612345576123446146d6565b5b141580156123785750601281815481106123625761236161525b565b5b9060005260206000209060080201600201548210155b80156123a95750601281815481106123935761239261525b565b5b9060005260206000209060080201600301548211155b156123dc5780601282815481106123c3576123c261525b565b5b9060005260206000209060080201935093505050612425565b80806001019150506122df565b506040517f08c379a000000000000000000000000000000000000000000000000000000000815260040161241c90615b28565b60405180910390fd5b9091565b60006124368484846130cb565b90509392505050565b6000612710905090565b6124516122ba565b73ffffffffffffffffffffffffffffffffffffffff1661246f6118e8565b73ffffffffffffffffffffffffffffffffffffffff16146124ce576124926122ba565b6040517f118cdaa70000000000000000000000000000000000000000000000000000000081526004016124c59190614625565b60405180910390fd5b565b6000600d60009054906101000a900473ffffffffffffffffffffffffffffffffffffffff16905081600d60006101000a81548173ffffffffffffffffffffffffffffffffffffffff021916908373ffffffffffffffffffffffffffffffffffffffff1602179055508173ffffffffffffffffffffffffffffffffffffffff168173ffffffffffffffffffffffffffffffffffffffff167f8be0079c531659141344cd1fd0a4f28419497f9722a3daafe3b4186f6b6457e060405160405180910390a35050565b60606125cc600e7f00000000000000000000000000000000000000000000000000000000000000006131e890919063ffffffff16565b905090565b6060612607600f7f00000000000000000000000000000000000000000000000000000000000000006131e890919063ffffffff16565b905090565b6000826126198584613298565b1490509392505050565b6000612636612630612db1565b836132e8565b9050919050565b60008060008061264d8686613329565b92509250925061265d8282613385565b82935050505092915050565b6000612710601560009054906101000a90046bffffffffffffffffffffffff166bffffffffffffffffffffffff16836126a291906152f0565b6126ac9190615361565b905060008111156127875760006015600c9054906101000a900473ffffffffffffffffffffffffffffffffffffffff1673ffffffffffffffffffffffffffffffffffffffff16826040516126ff90615b6e565b60006040518083038185875af1925050503d806000811461273c576040519150601f19603f3d011682016040523d82523d6000602084013e612741565b606091505b5050905080612785576040517f08c379a000000000000000000000000000000000000000000000000000000000815260040161277c90615bcf565b60405180910390fd5b505b600081836127959190615bef565b905060008111156128555760006127aa6118e8565b73ffffffffffffffffffffffffffffffffffffffff16826040516127cd90615b6e565b60006040518083038185875af1925050503d806000811461280a576040519150601f19603f3d011682016040523d82523d6000602084013e61280f565b606091505b5050905080612853576040517f08c379a000000000000000000000000000000000000000000000000000000000815260040161284a90615c6f565b60405180910390fd5b505b505050565b81600601600081548092919061286f90615c8f565b9190505550601360008273ffffffffffffffffffffffffffffffffffffffff1673ffffffffffffffffffffffffffffffffffffffff16815260200190815260200160002060008360000160009054906101000a900460ff1660028111156128d9576128d86146d6565b5b60028111156128eb576128ea6146d6565b5b8152602001908152602001600020600081548092919061290a90615c8f565b91905055505050565b61291d84846134e9565b6000828290501115612978576129778383838080601f016020809104026020016040519081016040528093929190818152602001838380828437600081840152601f19601f82011690508083019250505050505050613507565b5b50505050565b600073ffffffffffffffffffffffffffffffffffffffff168273ffffffffffffffffffffffffffffffffffffffff16036129ef57816040517f5b08ba180000000000000000000000000000000000000000000000000000000081526004016129e69190614625565b60405180910390fd5b80600560008573ffffffffffffffffffffffffffffffffffffffff1673ffffffffffffffffffffffffffffffffffffffff16815260200190815260200160002060008473ffffffffffffffffffffffffffffffffffffffff1673ffffffffffffffffffffffffffffffffffffffff16815260200190815260200160002060006101000a81548160ff0219169083151502179055508173ffffffffffffffffffffffffffffffffffffffff168373ffffffffffffffffffffffffffffffffffffffff167f17307eab39ab6107e8899845ad3d59bd9653f200f220920489ca2b5937696c3183604051612ae091906144b4565b60405180910390a3505050565b60008373ffffffffffffffffffffffffffffffffffffffff163b1115612c97578273ffffffffffffffffffffffffffffffffffffffff1663150b7a02868685856040518563ffffffff1660e01b8152600401612b4c9493929190615d2c565b6020604051808303816000875af1925050508015612b8857506040513d601f19601f82011682018060405250810190612b859190615d8d565b60015b612c0c573d8060008114612bb8576040519150601f19603f3d011682016040523d82523d6000602084013e612bbd565b606091505b506000815103612c0457836040517f64a0ae92000000000000000000000000000000000000000000000000000000008152600401612bfb9190614625565b60405180910390fd5b805181602001fd5b63150b7a0260e01b7bffffffffffffffffffffffffffffffffffffffffffffffffffffffff1916817bffffffffffffffffffffffffffffffffffffffffffffffffffffffff191614612c9557836040517f64a0ae92000000000000000000000000000000000000000000000000000000008152600401612c8c9190614625565b60405180910390fd5b505b5050505050565b6060612ca9826121f5565b506000600a60008481526020019081526020016000208054612cca9061522a565b80601f0160208091040260200160405190810160405280929190818152602001828054612cf69061522a565b8015612d435780601f10612d1857610100808354040283529160200191612d43565b820191906000526020600020905b815481529060010190602001808311612d2657829003601f168201915b505050505090506000612d54613563565b90506000815103612d69578192505050612dac565b600082511115612d9e578082604051602001612d86929190615df6565b60405160208183030381529060405292505050612dac565b612da78461357a565b925050505b919050565b60007f000000000000000000000000000000000000000000000000000000000000000073ffffffffffffffffffffffffffffffffffffffff163073ffffffffffffffffffffffffffffffffffffffff16148015612e2d57507f000000000000000000000000000000000000000000000000000000000000000046145b15612e5a577f00000000000000000000000000000000000000000000000000000000000000009050612e65565b612e626135e3565b90505b90565b6000634906490660e01b7bffffffffffffffffffffffffffffffffffffffffffffffffffffffff1916827bffffffffffffffffffffffffffffffffffffffffffffffffffffffff19161480612ec25750612ec182613679565b5b9050919050565b60006002600083815260200190815260200160002060009054906101000a900473ffffffffffffffffffffffffffffffffffffffff169050919050565b8080612f3f5750600073ffffffffffffffffffffffffffffffffffffffff168273ffffffffffffffffffffffffffffffffffffffff1614155b15613073576000612f4f846121f5565b9050600073ffffffffffffffffffffffffffffffffffffffff168373ffffffffffffffffffffffffffffffffffffffff1614158015612fba57508273ffffffffffffffffffffffffffffffffffffffff168173ffffffffffffffffffffffffffffffffffffffff1614155b8015612fcd5750612fcb8184611fad565b155b1561300f57826040517fa9fbf51f0000000000000000000000000000000000000000000000000000000081526004016130069190614625565b60405180910390fd5b811561307157838573ffffffffffffffffffffffffffffffffffffffff168273ffffffffffffffffffffffffffffffffffffffff167f8c5be1e5ebec7d5bd14f71427d1e84f3dd0314c0f7b2291e5b200ac8c7c3b92560405160405180910390a45b505b836004600085815260200190815260200160002060006101000a81548173ffffffffffffffffffffffffffffffffffffffff021916908373ffffffffffffffffffffffffffffffffffffffff16021790555050505050565b6000806130d98585856136f3565b9050600073ffffffffffffffffffffffffffffffffffffffff168173ffffffffffffffffffffffffffffffffffffffff160361311d576131188461390d565b61315c565b8473ffffffffffffffffffffffffffffffffffffffff168173ffffffffffffffffffffffffffffffffffffffff161461315b5761315a8185613956565b5b5b600073ffffffffffffffffffffffffffffffffffffffff168573ffffffffffffffffffffffffffffffffffffffff160361319e5761319984613a41565b6131dd565b8473ffffffffffffffffffffffffffffffffffffffff168173ffffffffffffffffffffffffffffffffffffffff16146131dc576131db8585613b12565b5b5b809150509392505050565b606060ff60001b8314613205576131fe83613b9d565b9050613292565b8180546132119061522a565b80601f016020809104026020016040519081016040528092919081815260200182805461323d9061522a565b801561328a5780601f1061325f5761010080835404028352916020019161328a565b820191906000526020600020905b81548152906001019060200180831161326d57829003601f168201915b505050505090505b92915050565b60008082905060005b84518110156132dd576132ce828683815181106132c1576132c061525b565b5b6020026020010151613c11565b915080806001019150506132a1565b508091505092915050565b60006040517f190100000000000000000000000000000000000000000000000000000000000081528360028201528260228201526042812091505092915050565b6000806000604184510361336e5760008060006020870151925060408701519150606087015160001a905061336088828585613c3c565b95509550955050505061337e565b60006002855160001b9250925092505b9250925092565b60006003811115613399576133986146d6565b5b8260038111156133ac576133ab6146d6565b5b03156134e557600160038111156133c6576133c56146d6565b5b8260038111156133d9576133d86146d6565b5b03613410576040517ff645eedf00000000000000000000000000000000000000000000000000000000815260040160405180910390fd5b60026003811115613424576134236146d6565b5b826003811115613437576134366146d6565b5b0361347c578060001c6040517ffce698f700000000000000000000000000000000000000000000000000000000815260040161347391906146bb565b60405180910390fd5b60038081111561348f5761348e6146d6565b5b8260038111156134a2576134a16146d6565b5b036134e457806040517fd78bce0c0000000000000000000000000000000000000000000000000000000081526004016134db91906151a0565b60405180910390fd5b5b5050565b613503828260405180602001604052806000815250613d30565b5050565b80600a600084815260200190815260200160002090816135279190615fc6565b507ff8e1a15aba9398e019f0b49df1a4fde98ee17ae345cb5f6b5e2c27f5033e8ce78260405161355791906146bb565b60405180910390a15050565b606060405180602001604052806000815250905090565b6060613585826121f5565b506000613590613563565b905060008151116135b057604051806020016040528060008152506135db565b806135ba84613d54565b6040516020016135cb929190615df6565b6040516020818303038152906040525b915050919050565b60007f8b73c3c69bb8fe3d512ecc4cf759cc79239f7b179b0ffacaa9a75d522b39400f7f00000000000000000000000000000000000000000000000000000000000000007f0000000000000000000000000000000000000000000000000000000000000000463060405160200161365e959493929190616098565b60405160208183030381529060405280519060200120905090565b60007f780e9d63000000000000000000000000000000000000000000000000000000007bffffffffffffffffffffffffffffffffffffffffffffffffffffffff1916827bffffffffffffffffffffffffffffffffffffffffffffffffffffffff191614806136ec57506136eb82613e22565b5b9050919050565b6000806136ff84612ec9565b9050600073ffffffffffffffffffffffffffffffffffffffff168373ffffffffffffffffffffffffffffffffffffffff161461374157613740818486613f04565b5b600073ffffffffffffffffffffffffffffffffffffffff168173ffffffffffffffffffffffffffffffffffffffff16146137d257613783600085600080612f06565b6001600360008373ffffffffffffffffffffffffffffffffffffffff1673ffffffffffffffffffffffffffffffffffffffff168152602001908152602001600020600082825403925050819055505b600073ffffffffffffffffffffffffffffffffffffffff168573ffffffffffffffffffffffffffffffffffffffff1614613855576001600360008773ffffffffffffffffffffffffffffffffffffffff1673ffffffffffffffffffffffffffffffffffffffff168152602001908152602001600020600082825401925050819055505b846002600086815260200190815260200160002060006101000a81548173ffffffffffffffffffffffffffffffffffffffff021916908373ffffffffffffffffffffffffffffffffffffffff160217905550838573ffffffffffffffffffffffffffffffffffffffff168273ffffffffffffffffffffffffffffffffffffffff167fddf252ad1be2c89b69c2b068fc378daa952ba7f163c4a11628f55a4df523b3ef60405160405180910390a4809150509392505050565b6008805490506009600083815260200190815260200160002081905550600881908060018154018082558091505060019003906000526020600020016000909190919091505550565b60006139618361129e565b90506000600760008481526020019081526020016000205490506000600660008673ffffffffffffffffffffffffffffffffffffffff1673ffffffffffffffffffffffffffffffffffffffff1681526020019081526020016000209050828214613a0d5760008160008581526020019081526020016000205490508082600085815260200190815260200160002081905550826007600083815260200190815260200160002081905550505b6007600085815260200190815260200160002060009055806000848152602001908152602001600020600090555050505050565b60006001600880549050613a559190615bef565b9050600060096000848152602001908152602001600020549050600060088381548110613a8557613a8461525b565b5b906000526020600020015490508060088381548110613aa757613aa661525b565b5b906000526020600020018190555081600960008381526020019081526020016000208190555060096000858152602001908152602001600020600090556008805480613af657613af56160eb565b5b6001900381819060005260206000200160009055905550505050565b60006001613b1f8461129e565b613b299190615bef565b905081600660008573ffffffffffffffffffffffffffffffffffffffff1673ffffffffffffffffffffffffffffffffffffffff168152602001908152602001600020600083815260200190815260200160002081905550806007600084815260200190815260200160002081905550505050565b60606000613baa83613fc8565b90506000602067ffffffffffffffff811115613bc957613bc8614f70565b5b6040519080825280601f01601f191660200182016040528015613bfb5781602001600182028036833780820191505090505b5090508181528360208201528092505050919050565b6000818310613c2957613c248284614018565b613c34565b613c338383614018565b5b905092915050565b60008060007f7fffffffffffffffffffffffffffffff5d576e7357a4501ddfe92f46681b20a08460001c1115613c7c576000600385925092509250613d26565b600060018888888860405160008152602001604052604051613ca19493929190616136565b6020604051602081039080840390855afa158015613cc3573d6000803e3d6000fd5b505050602060405103519050600073ffffffffffffffffffffffffffffffffffffffff168173ffffffffffffffffffffffffffffffffffffffff1603613d1757600060016000801b93509350935050613d26565b8060008060001b935093509350505b9450945094915050565b613d3a838361402f565b613d4f613d456122ba565b6000858585612aed565b505050565b606060006001613d6384614128565b01905060008167ffffffffffffffff811115613d8257613d81614f70565b5b6040519080825280601f01601f191660200182016040528015613db45781602001600182028036833780820191505090505b509050600082602001820190505b600115613e17578080600190039150507f3031323334353637383961626364656600000000000000000000000000000000600a86061a8153600a8581613e0b57613e0a615332565b5b04945060008503613dc2575b819350505050919050565b60007f80ac58cd000000000000000000000000000000000000000000000000000000007bffffffffffffffffffffffffffffffffffffffffffffffffffffffff1916827bffffffffffffffffffffffffffffffffffffffffffffffffffffffff19161480613eed57507f5b5e139f000000000000000000000000000000000000000000000000000000007bffffffffffffffffffffffffffffffffffffffffffffffffffffffff1916827bffffffffffffffffffffffffffffffffffffffffffffffffffffffff1916145b80613efd5750613efc8261427b565b5b9050919050565b613f0f8383836142e5565b613fc357600073ffffffffffffffffffffffffffffffffffffffff168373ffffffffffffffffffffffffffffffffffffffff1603613f8457806040517f7e273289000000000000000000000000000000000000000000000000000000008152600401613f7b91906146bb565b60405180910390fd5b81816040517f177e802f000000000000000000000000000000000000000000000000000000008152600401613fba9291906148d4565b60405180910390fd5b505050565b60008060ff8360001c169050601f81111561400f576040517fb3512b0c00000000000000000000000000000000000000000000000000000000815260040160405180910390fd5b80915050919050565b600082600052816020526040600020905092915050565b600073ffffffffffffffffffffffffffffffffffffffff168273ffffffffffffffffffffffffffffffffffffffff16036140a15760006040517f64a0ae920000000000000000000000000000000000000000000000000000000081526004016140989190614625565b60405180910390fd5b60006140af83836000612429565b9050600073ffffffffffffffffffffffffffffffffffffffff168173ffffffffffffffffffffffffffffffffffffffff16146141235760006040517f73c6ac6e00000000000000000000000000000000000000000000000000000000815260040161411a9190614625565b60405180910390fd5b505050565b600080600090507a184f03e93ff9f4daa797ed6e38ed64bf6a1f0100000000000000008310614186577a184f03e93ff9f4daa797ed6e38ed64bf6a1f010000000000000000838161417c5761417b615332565b5b0492506040810190505b6d04ee2d6d415b85acef810000000083106141c3576d04ee2d6d415b85acef810000000083816141b9576141b8615332565b5b0492506020810190505b662386f26fc1000083106141f257662386f26fc1000083816141e8576141e7615332565b5b0492506010810190505b6305f5e100831061421b576305f5e100838161421157614210615332565b5b0492506008810190505b612710831061424057612710838161423657614235615332565b5b0492506004810190505b60648310614263576064838161425957614258615332565b5b0492506002810190505b600a8310614272576001810190505b80915050919050565b60007f01ffc9a7000000000000000000000000000000000000000000000000000000007bffffffffffffffffffffffffffffffffffffffffffffffffffffffff1916827bffffffffffffffffffffffffffffffffffffffffffffffffffffffff1916149050919050565b60008073ffffffffffffffffffffffffffffffffffffffff168373ffffffffffffffffffffffffffffffffffffffff161415801561439d57508273ffffffffffffffffffffffffffffffffffffffff168473ffffffffffffffffffffffffffffffffffffffff16148061435e575061435d8484611fad565b5b8061439c57508273ffffffffffffffffffffffffffffffffffffffff166143848361227d565b73ffffffffffffffffffffffffffffffffffffffff16145b5b90509392505050565b604051806101000160405280600060028111156143c6576143c56146d6565b5b8152602001600081526020016000815260200160008152602001600081526020016000815260200160008152602001600080191681525090565b6000604051905090565b600080fd5b600080fd5b60007fffffffff0000000000000000000000000000000000000000000000000000000082169050919050565b61444981614414565b811461445457600080fd5b50565b60008135905061446681614440565b92915050565b6000602082840312156144825761448161440a565b5b600061449084828501614457565b91505092915050565b60008115159050919050565b6144ae81614499565b82525050565b60006020820190506144c960008301846144a5565b92915050565b600081519050919050565b600082825260208201905092915050565b60005b838110156145095780820151818401526020810190506144ee565b60008484015250505050565b6000601f19601f8301169050919050565b6000614531826144cf565b61453b81856144da565b935061454b8185602086016144eb565b61455481614515565b840191505092915050565b600060208201905081810360008301526145798184614526565b905092915050565b6000819050919050565b61459481614581565b811461459f57600080fd5b50565b6000813590506145b18161458b565b92915050565b6000602082840312156145cd576145cc61440a565b5b60006145db848285016145a2565b91505092915050565b600073ffffffffffffffffffffffffffffffffffffffff82169050919050565b600061460f826145e4565b9050919050565b61461f81614604565b82525050565b600060208201905061463a6000830184614616565b92915050565b61464981614604565b811461465457600080fd5b50565b60008135905061466681614640565b92915050565b600080604083850312156146835761468261440a565b5b600061469185828601614657565b92505060206146a2858286016145a2565b9150509250929050565b6146b581614581565b82525050565b60006020820190506146d060008301846146ac565b92915050565b7f4e487b7100000000000000000000000000000000000000000000000000000000600052602160045260246000fd5b60038110614716576147156146d6565b5b50565b600081905061472782614705565b919050565b600061473782614719565b9050919050565b6147478161472c565b82525050565b61475681614581565b82525050565b6000819050919050565b61476f8161475c565b82525050565b6101008201600082015161478c600085018261473e565b50602082015161479f602085018261474d565b5060408201516147b2604085018261474d565b5060608201516147c5606085018261474d565b5060808201516147d8608085018261474d565b5060a08201516147eb60a085018261474d565b5060c08201516147fe60c085018261474d565b5060e082015161481160e0850182614766565b50505050565b60006101208201905061482d60008301856146ac565b61483a6020830184614775565b9392505050565b60008060006060848603121561485a5761485961440a565b5b600061486886828701614657565b935050602061487986828701614657565b925050604061488a868287016145a2565b9150509250925092565b600080604083850312156148ab576148aa61440a565b5b60006148b9858286016145a2565b92505060206148ca858286016145a2565b9150509250929050565b60006040820190506148e96000830185614616565b6148f660208301846146ac565b9392505050565b6149068161472c565b82525050565b6149158161475c565b82525050565b600061010082019050614931600083018b6148fd565b61493e602083018a6146ac565b61494b60408301896146ac565b61495860608301886146ac565b61496560808301876146ac565b61497260a08301866146ac565b61497f60c08301856146ac565b61498c60e083018461490c565b9998505050505050505050565b600381106149a657600080fd5b50565b6000813590506149b881614999565b92915050565b6149c78161475c565b81146149d257600080fd5b50565b6000813590506149e4816149be565b92915050565b600080600080600080600060e0888a031215614a0957614a0861440a565b5b6000614a178a828b016149a9565b9750506020614a288a828b016145a2565b9650506040614a398a828b016145a2565b9550506060614a4a8a828b016145a2565b9450506080614a5b8a828b016145a2565b93505060a0614a6c8a828b016145a2565b92505060c0614a7d8a828b016149d5565b91505092959891949750929550565b600060208284031215614aa257614aa161440a565b5b6000614ab084828501614657565b91505092915050565b600080600080600080600080610100898b031215614ada57614ad961440a565b5b6000614ae88b828c016145a2565b9850506020614af98b828c016149a9565b9750506040614b0a8b828c016145a2565b9650506060614b1b8b828c016145a2565b9550506080614b2c8b828c016145a2565b94505060a0614b3d8b828c016145a2565b93505060c0614b4e8b828c016145a2565b92505060e0614b5f8b828c016149d5565b9150509295985092959890939650565b600081519050919050565b600082825260208201905092915050565b6000819050602082019050919050565b6000614ba7838361474d565b60208301905092915050565b6000602082019050919050565b6000614bcb82614b6f565b614bd58185614b7a565b9350614be083614b8b565b8060005b83811015614c11578151614bf88882614b9b565b9750614c0383614bb3565b925050600181019050614be4565b5085935050505092915050565b60006020820190508181036000830152614c388184614bc0565b905092915050565b60007fff0000000000000000000000000000000000000000000000000000000000000082169050919050565b614c7581614c40565b82525050565b600060e082019050614c90600083018a614c6c565b8181036020830152614ca28189614526565b90508181036040830152614cb68188614526565b9050614cc560608301876146ac565b614cd26080830186614616565b614cdf60a083018561490c565b81810360c0830152614cf18184614bc0565b905098975050505050505050565b600080fd5b600080fd5b600080fd5b60008083601f840112614d2457614d23614cff565b5b8235905067ffffffffffffffff811115614d4157614d40614d04565b5b602083019150836001820283011115614d5d57614d5c614d09565b5b9250929050565b60008083601f840112614d7a57614d79614cff565b5b8235905067ffffffffffffffff811115614d9757614d96614d04565b5b602083019150836001820283011115614db357614db2614d09565b5b9250929050565b60008083601f840112614dd057614dcf614cff565b5b8235905067ffffffffffffffff811115614ded57614dec614d04565b5b602083019150836020820283011115614e0957614e08614d09565b5b9250929050565b600080600080600080600080600060c08a8c031215614e3257614e3161440a565b5b6000614e408c828d016145a2565b99505060208a013567ffffffffffffffff811115614e6157614e6061440f565b5b614e6d8c828d01614d0e565b98509850506040614e808c828d016149d5565b9650506060614e918c828d016145a2565b95505060808a013567ffffffffffffffff811115614eb257614eb161440f565b5b614ebe8c828d01614d64565b945094505060a08a013567ffffffffffffffff811115614ee157614ee061440f565b5b614eed8c828d01614dba565b92509250509295985092959850929598565b614f0881614499565b8114614f1357600080fd5b50565b600081359050614f2581614eff565b92915050565b60008060408385031215614f4257614f4161440a565b5b6000614f5085828601614657565b9250506020614f6185828601614f16565b9150509250929050565b600080fd5b7f4e487b7100000000000000000000000000000000000000000000000000000000600052604160045260246000fd5b614fa882614515565b810181811067ffffffffffffffff82111715614fc757614fc6614f70565b5b80604052505050565b6000614fda614400565b9050614fe68282614f9f565b919050565b600067ffffffffffffffff82111561500657615005614f70565b5b61500f82614515565b9050602081019050919050565b82818337600083830152505050565b600061503e61503984614feb565b614fd0565b90508281526020810184848401111561505a57615059614f6b565b5b61506584828561501c565b509392505050565b600082601f83011261508257615081614cff565b5b813561509284826020860161502b565b91505092915050565b600080600080608085870312156150b5576150b461440a565b5b60006150c387828801614657565b94505060206150d487828801614657565b93505060406150e5878288016145a2565b925050606085013567ffffffffffffffff8111156151065761510561440f565b5b6151128782880161506d565b91505092959194509250565b60006bffffffffffffffffffffffff82169050919050565b61513f8161511e565b82525050565b600060208201905061515a6000830184615136565b92915050565b600080604083850312156151775761517661440a565b5b600061518585828601614657565b925050602061519685828601614657565b9150509250929050565b60006020820190506151b5600083018461490c565b92915050565b600080604083850312156151d2576151d161440a565b5b60006151e085828601614657565b92505060206151f1858286016149a9565b9150509250929050565b7f4e487b7100000000000000000000000000000000000000000000000000000000600052602260045260246000fd5b6000600282049050600182168061524257607f821691505b602082108103615255576152546151fb565b5b50919050565b7f4e487b7100000000000000000000000000000000000000000000000000000000600052603260045260246000fd5b600060608201905061529f6000830186614616565b6152ac60208301856146ac565b6152b96040830184614616565b949350505050565b7f4e487b7100000000000000000000000000000000000000000000000000000000600052601160045260246000fd5b60006152fb82614581565b915061530683614581565b925082820261531481614581565b9150828204841483151761532b5761532a6152c1565b5b5092915050565b7f4e487b7100000000000000000000000000000000000000000000000000000000600052601260045260246000fd5b600061536c82614581565b915061537783614581565b92508261538757615386615332565b5b828204905092915050565b7f496e76616c69642074696d652072616e67650000000000000000000000000000600082015250565b60006153c86012836144da565b91506153d382615392565b602082019050919050565b600060208201905081810360008301526153f7816153bb565b9050919050565b7f496e76616c6964206d6178207065722077616c6c657420666f72206e6f6e2d7060008201527f75626c6963207068617365000000000000000000000000000000000000000000602082015250565b600061545a602b836144da565b9150615465826153fe565b604082019050919050565b600060208201905081810360008301526154898161544d565b9050919050565b7f4d65726b6c6520726f6f7420726571756972656420666f722077686974656c6960008201527f7374207068617365000000000000000000000000000000000000000000000000602082015250565b60006154ec6028836144da565b91506154f782615490565b604082019050919050565b6000602082019050818103600083015261551b816154df565b9050919050565b7f50686173652074696d65206f7665726c6170732077697468206578697374696e60008201527f6720706861736500000000000000000000000000000000000000000000000000602082015250565b600061557e6027836144da565b915061558982615522565b604082019050919050565b600060208201905081810360008301526155ad81615571565b9050919050565b60006040820190506155c960008301856148fd565b6155d660208301846146ac565b9392505050565b7f496e76616c696420706861736520696e64657800000000000000000000000000600082015250565b60006156136013836144da565b915061561e826155dd565b602082019050919050565b6000602082019050818103600083015261564281615606565b9050919050565b60008160601b9050919050565b600061566182615649565b9050919050565b600061567382615656565b9050919050565b61568b61568682614604565b615668565b82525050565b600061569d828461567a565b60148201915081905092915050565b7f4e6f742077686974656c697374656420666f7220746869732070686173650000600082015250565b60006156e2601e836144da565b91506156ed826156ac565b602082019050919050565b60006020820190508181036000830152615711816156d5565b9050919050565b600061572382614581565b915061572e83614581565b9250828201905080821115615746576157456152c1565b5b92915050565b7f5369676e61747572652065787069726564000000000000000000000000000000600082015250565b60006157826011836144da565b915061578d8261574c565b602082019050919050565b600060208201905081810360008301526157b181615775565b9050919050565b7f5369676e617475726520616c7265616479207573656400000000000000000000600082015250565b60006157ee6016836144da565b91506157f9826157b8565b602082019050919050565b6000602082019050818103600083015261581d816157e1565b9050919050565b600081905092915050565b600061583b8385615824565b935061584883858461501c565b82840190509392505050565b600061586182848661582f565b91508190509392505050565b600061010082019050615883600083018b61490c565b615890602083018a614616565b61589d60408301896146ac565b6158aa606083018861490c565b6158b760808301876146ac565b6158c460a08301866146ac565b6158d160c083018561490c565b6158de60e08301846146ac565b9998505050505050505050565b7f496e76616c6964207369676e6174757265000000000000000000000000000000600082015250565b60006159216011836144da565b915061592c826158eb565b602082019050919050565b6000602082019050818103600083015261595081615914565b9050919050565b7f496e636f7272656374207061796d656e7420616d6f756e740000000000000000600082015250565b600061598d6018836144da565b915061599882615957565b602082019050919050565b600060208201905081810360008301526159bc81615980565b9050919050565b7f506861736520737570706c79206c696d69742072656163686564000000000000600082015250565b60006159f9601a836144da565b9150615a04826159c3565b602082019050919050565b60006020820190508181036000830152615a28816159ec565b9050919050565b7f57616c6c6574206c696d6974207265616368656420666f72207468697320706860008201527f6173650000000000000000000000000000000000000000000000000000000000602082015250565b6000615a8b6023836144da565b9150615a9682615a2f565b604082019050919050565b60006020820190508181036000830152615aba81615a7e565b9050919050565b6000602082019050615ad660008301846148fd565b92915050565b7f4e6f206163746976652070686173650000000000000000000000000000000000600082015250565b6000615b12600f836144da565b9150615b1d82615adc565b602082019050919050565b60006020820190508181036000830152615b4181615b05565b9050919050565b50565b6000615b58600083615824565b9150615b6382615b48565b600082019050919050565b6000615b7982615b4b565b9150819050919050565b7f506c6174666f726d20666565207472616e73666572206661696c656400000000600082015250565b6000615bb9601c836144da565b9150615bc482615b83565b602082019050919050565b60006020820190508181036000830152615be881615bac565b9050919050565b6000615bfa82614581565b9150615c0583614581565b9250828203905081811115615c1d57615c1c6152c1565b5b92915050565b7f4f776e657220666565207472616e73666572206661696c656400000000000000600082015250565b6000615c596019836144da565b9150615c6482615c23565b602082019050919050565b60006020820190508181036000830152615c8881615c4c565b9050919050565b6000615c9a82614581565b91507fffffffffffffffffffffffffffffffffffffffffffffffffffffffffffffffff8203615ccc57615ccb6152c1565b5b600182019050919050565b600081519050919050565b600082825260208201905092915050565b6000615cfe82615cd7565b615d088185615ce2565b9350615d188185602086016144eb565b615d2181614515565b840191505092915050565b6000608082019050615d416000830187614616565b615d4e6020830186614616565b615d5b60408301856146ac565b8181036060830152615d6d8184615cf3565b905095945050505050565b600081519050615d8781614440565b92915050565b600060208284031215615da357615da261440a565b5b6000615db184828501615d78565b91505092915050565b600081905092915050565b6000615dd0826144cf565b615dda8185615dba565b9350615dea8185602086016144eb565b80840191505092915050565b6000615e028285615dc5565b9150615e0e8284615dc5565b91508190509392505050565b60008190508160005260206000209050919050565b60006020601f8301049050919050565b600082821b905092915050565b600060088302615e7c7fffffffffffffffffffffffffffffffffffffffffffffffffffffffffffffffff82615e3f565b615e868683615e3f565b95508019841693508086168417925050509392505050565b6000819050919050565b6000615ec3615ebe615eb984614581565b615e9e565b614581565b9050919050565b6000819050919050565b615edd83615ea8565b615ef1615ee982615eca565b848454615e4c565b825550505050565b600090565b615f06615ef9565b615f11818484615ed4565b505050565b5b81811015615f3557615f2a600082615efe565b600181019050615f17565b5050565b601f821115615f7a57615f4b81615e1a565b615f5484615e2f565b81016020851015615f63578190505b615f77615f6f85615e2f565b830182615f16565b50505b505050565b600082821c905092915050565b6000615f9d60001984600802615f7f565b1980831691505092915050565b6000615fb68383615f8c565b9150826002028217905092915050565b615fcf826144cf565b67ffffffffffffffff811115615fe857615fe7614f70565b5b615ff2825461522a565b615ffd828285615f39565b600060209050601f831160018114616030576000841561601e578287015190505b6160288582615faa565b865550616090565b601f19841661603e86615e1a565b60005b8281101561606657848901518255600182019150602085019450602081019050616041565b86831015616083578489015161607f601f891682615f8c565b8355505b6001600288020188555050505b505050505050565b600060a0820190506160ad600083018861490c565b6160ba602083018761490c565b6160c7604083018661490c565b6160d460608301856146ac565b6160e16080830184614616565b9695505050505050565b7f4e487b7100000000000000000000000000000000000000000000000000000000600052603160045260246000fd5b600060ff82169050919050565b6161308161611a565b82525050565b600060808201905061614b600083018761490c565b6161586020830186616127565b616165604083018561490c565b616172606083018461490c565b9594505050505056fea2646970667358221220779a3f4ace96a069f108e0d63001f388da5e9d795e4ee4f2f2e7c12da732464464736f6c634300081b0033","opcodes":"PUSH2 0x1A0 PUSH1 0x40 MSTORE CALLVALUE DUP1 ISZERO PUSH2 0x11 JUMPI PUSH1 0x0 DUP1 REVERT JUMPDEST POP PUSH1 0x40 MLOAD PUSH2 0x724E CODESIZE SUB DUP1 PUSH2 0x724E DUP4 CODECOPY DUP2 DUP2 ADD PUSH1 0x40 MSTORE DUP2 ADD SWAP1 PUSH2 0x33 SWAP2 SWAP1 PUSH2 0xA2B JUMP JUMPDEST PUSH1 0x40 MLOAD DUP1 PUSH1 0x40 ADD PUSH1 0x40 MSTORE DUP1 PUSH1 0xA DUP2 MSTORE PUSH1 0x20 ADD PUSH32 0x556E69666965644E465400000000000000000000000000000000000000000000 DUP2 MSTORE POP PUSH1 0x40 MLOAD DUP1 PUSH1 0x40 ADD PUSH1 0x40 MSTORE DUP1 PUSH1 0x1 DUP2 MSTORE PUSH1 0x20 ADD PUSH32 0x3100000000000000000000000000000000000000000000000000000000000000 DUP2 MSTORE POP DUP9 DUP9 DUP9 DUP2 PUSH1 0x0 SWAP1 DUP2 PUSH2 0xB1 SWAP2 SWAP1 PUSH2 0xD26 JUMP JUMPDEST POP DUP1 PUSH1 0x1 SWAP1 DUP2 PUSH2 0xC1 SWAP2 SWAP1 PUSH2 0xD26 JUMP JUMPDEST POP POP POP PUSH1 0x0 PUSH20 0xFFFFFFFFFFFFFFFFFFFFFFFFFFFFFFFFFFFFFFFF AND DUP2 PUSH20 0xFFFFFFFFFFFFFFFFFFFFFFFFFFFFFFFFFFFFFFFF AND SUB PUSH2 0x136 JUMPI PUSH1 0x0 PUSH1 0x40 MLOAD PUSH32 0x1E4FBDF700000000000000000000000000000000000000000000000000000000 DUP2 MSTORE PUSH1 0x4 ADD PUSH2 0x12D SWAP2 SWAP1 PUSH2 0xE07 JUMP JUMPDEST PUSH1 0x40 MLOAD DUP1 SWAP2 SUB SWAP1 REVERT JUMPDEST PUSH2 0x145 DUP2 PUSH2 0x47F PUSH1 0x20 SHL PUSH1 0x20 SHR JUMP JUMPDEST POP PUSH2 0x15A PUSH1 0xE DUP4 PUSH2 0x545 PUSH1 0x20 SHL SWAP1 SWAP2 SWAP1 PUSH1 0x20 SHR JUMP JUMPDEST PUSH2 0x120 DUP2 DUP2 MSTORE POP POP PUSH2 0x176 PUSH1 0xF DUP3 PUSH2 0x545 PUSH1 0x20 SHL SWAP1 SWAP2 SWAP1 PUSH1 0x20 SHR JUMP JUMPDEST PUSH2 0x140 DUP2 DUP2 MSTORE POP POP DUP2 DUP1 MLOAD SWAP1 PUSH1 0x20 ADD KECCAK256 PUSH1 0xE0 DUP2 DUP2 MSTORE POP POP DUP1 DUP1 MLOAD SWAP1 PUSH1 0x20 ADD KECCAK256 PUSH2 0x100 DUP2 DUP2 MSTORE POP POP CHAINID PUSH1 0xA0 DUP2 DUP2 MSTORE POP POP PUSH2 0x1B3 PUSH2 0x595 PUSH1 0x20 SHL PUSH1 0x20 SHR JUMP JUMPDEST PUSH1 0x80 DUP2 DUP2 MSTORE POP POP ADDRESS PUSH20 0xFFFFFFFFFFFFFFFFFFFFFFFFFFFFFFFFFFFFFFFF AND PUSH1 0xC0 DUP2 PUSH20 0xFFFFFFFFFFFFFFFFFFFFFFFFFFFFFFFFFFFFFFFF AND DUP2 MSTORE POP POP POP POP PUSH2 0x3E8 DUP5 PUSH12 0xFFFFFFFFFFFFFFFFFFFFFFFF AND GT ISZERO DUP1 ISZERO PUSH2 0x220 JUMPI POP PUSH2 0x3E8 DUP4 PUSH12 0xFFFFFFFFFFFFFFFFFFFFFFFF AND GT ISZERO JUMPDEST DUP1 ISZERO PUSH2 0x259 JUMPI POP PUSH1 0x0 PUSH20 0xFFFFFFFFFFFFFFFFFFFFFFFFFFFFFFFFFFFFFFFF AND DUP3 PUSH20 0xFFFFFFFFFFFFFFFFFFFFFFFFFFFFFFFFFFFFFFFF AND EQ ISZERO JUMPDEST DUP1 ISZERO PUSH2 0x292 JUMPI POP PUSH1 0x0 PUSH20 0xFFFFFFFFFFFFFFFFFFFFFFFFFFFFFFFFFFFFFFFF AND DUP2 PUSH20 0xFFFFFFFFFFFFFFFFFFFFFFFFFFFFFFFFFFFFFFFF AND EQ ISZERO JUMPDEST PUSH2 0x29B JUMPI PUSH1 0x0 DUP1 REVERT JUMPDEST DUP1 PUSH20 0xFFFFFFFFFFFFFFFFFFFFFFFFFFFFFFFFFFFFFFFF AND PUSH2 0x160 DUP2 PUSH20 0xFFFFFFFFFFFFFFFFFFFFFFFFFFFFFFFFFFFFFFFF AND DUP2 MSTORE POP POP DUP4 PUSH12 0xFFFFFFFFFFFFFFFFFFFFFFFF AND PUSH2 0x180 DUP2 PUSH12 0xFFFFFFFFFFFFFFFFFFFFFFFF AND DUP2 MSTORE POP POP DUP3 PUSH1 0x15 PUSH1 0x0 PUSH2 0x100 EXP DUP2 SLOAD DUP2 PUSH12 0xFFFFFFFFFFFFFFFFFFFFFFFF MUL NOT AND SWAP1 DUP4 PUSH12 0xFFFFFFFFFFFFFFFFFFFFFFFF AND MUL OR SWAP1 SSTORE POP DUP2 PUSH1 0x15 PUSH1 0xC PUSH2 0x100 EXP DUP2 SLOAD DUP2 PUSH20 0xFFFFFFFFFFFFFFFFFFFFFFFFFFFFFFFFFFFFFFFF MUL NOT AND SWAP1 DUP4 PUSH20 0xFFFFFFFFFFFFFFFFFFFFFFFFFFFFFFFFFFFFFFFF AND MUL OR SWAP1 SSTORE POP PUSH2 0x37A DUP8 PUSH2 0x180 MLOAD PUSH2 0x5F0 PUSH1 0x20 SHL PUSH1 0x20 SHR JUMP JUMPDEST PUSH1 0x12 PUSH1 0x40 MLOAD DUP1 PUSH2 0x100 ADD PUSH1 0x40 MSTORE DUP1 PUSH1 0x0 PUSH1 0x2 DUP2 GT ISZERO PUSH2 0x39C JUMPI PUSH2 0x39B PUSH2 0xE22 JUMP JUMPDEST JUMPDEST DUP2 MSTORE PUSH1 0x20 ADD PUSH1 0x0 DUP2 MSTORE PUSH1 0x20 ADD PUSH1 0x0 DUP2 MSTORE PUSH1 0x20 ADD PUSH1 0x0 DUP2 MSTORE PUSH1 0x20 ADD PUSH1 0x0 DUP2 MSTORE PUSH1 0x20 ADD PUSH1 0x0 DUP2 MSTORE PUSH1 0x20 ADD PUSH1 0x0 DUP2 MSTORE PUSH1 0x20 ADD PUSH1 0x0 DUP1 SHL DUP2 MSTORE POP SWAP1 DUP1 PUSH1 0x1 DUP2 SLOAD ADD DUP1 DUP3 SSTORE DUP1 SWAP2 POP POP PUSH1 0x1 SWAP1 SUB SWAP1 PUSH1 0x0 MSTORE PUSH1 0x20 PUSH1 0x0 KECCAK256 SWAP1 PUSH1 0x8 MUL ADD PUSH1 0x0 SWAP1 SWAP2 SWAP1 SWAP2 SWAP1 SWAP2 POP PUSH1 0x0 DUP3 ADD MLOAD DUP2 PUSH1 0x0 ADD PUSH1 0x0 PUSH2 0x100 EXP DUP2 SLOAD DUP2 PUSH1 0xFF MUL NOT AND SWAP1 DUP4 PUSH1 0x2 DUP2 GT ISZERO PUSH2 0x426 JUMPI PUSH2 0x425 PUSH2 0xE22 JUMP JUMPDEST JUMPDEST MUL OR SWAP1 SSTORE POP PUSH1 0x20 DUP3 ADD MLOAD DUP2 PUSH1 0x1 ADD SSTORE PUSH1 0x40 DUP3 ADD MLOAD DUP2 PUSH1 0x2 ADD SSTORE PUSH1 0x60 DUP3 ADD MLOAD DUP2 PUSH1 0x3 ADD SSTORE PUSH1 0x80 DUP3 ADD MLOAD DUP2 PUSH1 0x4 ADD SSTORE PUSH1 0xA0 DUP3 ADD MLOAD DUP2 PUSH1 0x5 ADD SSTORE PUSH1 0xC0 DUP3 ADD MLOAD DUP2 PUSH1 0x6 ADD SSTORE PUSH1 0xE0 DUP3 ADD MLOAD DUP2 PUSH1 0x7 ADD SSTORE POP POP POP POP POP POP POP POP POP PUSH2 0x1029 JUMP JUMPDEST PUSH1 0x0 PUSH1 0xD PUSH1 0x0 SWAP1 SLOAD SWAP1 PUSH2 0x100 EXP SWAP1 DIV PUSH20 0xFFFFFFFFFFFFFFFFFFFFFFFFFFFFFFFFFFFFFFFF AND SWAP1 POP DUP2 PUSH1 0xD PUSH1 0x0 PUSH2 0x100 EXP DUP2 SLOAD DUP2 PUSH20 0xFFFFFFFFFFFFFFFFFFFFFFFFFFFFFFFFFFFFFFFF MUL NOT AND SWAP1 DUP4 PUSH20 0xFFFFFFFFFFFFFFFFFFFFFFFFFFFFFFFFFFFFFFFF AND MUL OR SWAP1 SSTORE POP DUP2 PUSH20 0xFFFFFFFFFFFFFFFFFFFFFFFFFFFFFFFFFFFFFFFF AND DUP2 PUSH20 0xFFFFFFFFFFFFFFFFFFFFFFFFFFFFFFFFFFFFFFFF AND PUSH32 0x8BE0079C531659141344CD1FD0A4F28419497F9722A3DAAFE3B4186F6B6457E0 PUSH1 0x40 MLOAD PUSH1 0x40 MLOAD DUP1 SWAP2 SUB SWAP1 LOG3 POP POP JUMP JUMPDEST PUSH1 0x0 PUSH1 0x20 DUP4 MLOAD LT ISZERO PUSH2 0x567 JUMPI PUSH2 0x560 DUP4 PUSH2 0x798 PUSH1 0x20 SHL PUSH1 0x20 SHR JUMP JUMPDEST SWAP1 POP PUSH2 0x58F JUMP JUMPDEST DUP3 PUSH2 0x577 DUP4 PUSH2 0x800 PUSH1 0x20 SHL PUSH1 0x20 SHR JUMP JUMPDEST PUSH1 0x0 ADD SWAP1 DUP2 PUSH2 0x586 SWAP2 SWAP1 PUSH2 0xD26 JUMP JUMPDEST POP PUSH1 0xFF PUSH1 0x0 SHL SWAP1 POP JUMPDEST SWAP3 SWAP2 POP POP JUMP JUMPDEST PUSH1 0x0 PUSH32 0x8B73C3C69BB8FE3D512ECC4CF759CC79239F7B179B0FFACAA9A75D522B39400F PUSH1 0xE0 MLOAD PUSH2 0x100 MLOAD CHAINID ADDRESS PUSH1 0x40 MLOAD PUSH1 0x20 ADD PUSH2 0x5D5 SWAP6 SWAP5 SWAP4 SWAP3 SWAP2 SWAP1 PUSH2 0xE79 JUMP JUMPDEST PUSH1 0x40 MLOAD PUSH1 0x20 DUP2 DUP4 SUB SUB DUP2 MSTORE SWAP1 PUSH1 0x40 MSTORE DUP1 MLOAD SWAP1 PUSH1 0x20 ADD KECCAK256 SWAP1 POP SWAP1 JUMP JUMPDEST PUSH1 0x0 PUSH2 0x600 PUSH2 0x80A PUSH1 0x20 SHL PUSH1 0x20 SHR JUMP JUMPDEST PUSH12 0xFFFFFFFFFFFFFFFFFFFFFFFF AND SWAP1 POP DUP1 DUP3 PUSH12 0xFFFFFFFFFFFFFFFFFFFFFFFF AND GT ISZERO PUSH2 0x665 JUMPI DUP2 DUP2 PUSH1 0x40 MLOAD PUSH32 0x6F483D0900000000000000000000000000000000000000000000000000000000 DUP2 MSTORE PUSH1 0x4 ADD PUSH2 0x65C SWAP3 SWAP2 SWAP1 PUSH2 0xEFD JUMP JUMPDEST PUSH1 0x40 MLOAD DUP1 SWAP2 SUB SWAP1 REVERT JUMPDEST PUSH1 0x0 PUSH20 0xFFFFFFFFFFFFFFFFFFFFFFFFFFFFFFFFFFFFFFFF AND DUP4 PUSH20 0xFFFFFFFFFFFFFFFFFFFFFFFFFFFFFFFFFFFFFFFF AND SUB PUSH2 0x6D7 JUMPI PUSH1 0x0 PUSH1 0x40 MLOAD PUSH32 0xB6D9900A00000000000000000000000000000000000000000000000000000000 DUP2 MSTORE PUSH1 0x4 ADD PUSH2 0x6CE SWAP2 SWAP1 PUSH2 0xE07 JUMP JUMPDEST PUSH1 0x40 MLOAD DUP1 SWAP2 SUB SWAP1 REVERT JUMPDEST PUSH1 0x40 MLOAD DUP1 PUSH1 0x40 ADD PUSH1 0x40 MSTORE DUP1 DUP5 PUSH20 0xFFFFFFFFFFFFFFFFFFFFFFFFFFFFFFFFFFFFFFFF AND DUP2 MSTORE PUSH1 0x20 ADD DUP4 PUSH12 0xFFFFFFFFFFFFFFFFFFFFFFFF AND DUP2 MSTORE POP PUSH1 0xB PUSH1 0x0 DUP3 ADD MLOAD DUP2 PUSH1 0x0 ADD PUSH1 0x0 PUSH2 0x100 EXP DUP2 SLOAD DUP2 PUSH20 0xFFFFFFFFFFFFFFFFFFFFFFFFFFFFFFFFFFFFFFFF MUL NOT AND SWAP1 DUP4 PUSH20 0xFFFFFFFFFFFFFFFFFFFFFFFFFFFFFFFFFFFFFFFF AND MUL OR SWAP1 SSTORE POP PUSH1 0x20 DUP3 ADD MLOAD DUP2 PUSH1 0x0 ADD PUSH1 0x14 PUSH2 0x100 EXP DUP2 SLOAD DUP2 PUSH12 0xFFFFFFFFFFFFFFFFFFFFFFFF MUL NOT AND SWAP1 DUP4 PUSH12 0xFFFFFFFFFFFFFFFFFFFFFFFF AND MUL OR SWAP1 SSTORE POP SWAP1 POP POP POP POP POP JUMP JUMPDEST PUSH1 0x0 DUP1 DUP3 SWAP1 POP PUSH1 0x1F DUP2 MLOAD GT ISZERO PUSH2 0x7E5 JUMPI DUP3 PUSH1 0x40 MLOAD PUSH32 0x305A27A900000000000000000000000000000000000000000000000000000000 DUP2 MSTORE PUSH1 0x4 ADD PUSH2 0x7DC SWAP2 SWAP1 PUSH2 0xF70 JUMP JUMPDEST PUSH1 0x40 MLOAD DUP1 SWAP2 SUB SWAP1 REVERT JUMPDEST DUP1 MLOAD DUP2 PUSH2 0x7F1 SWAP1 PUSH2 0xFC2 JUMP JUMPDEST PUSH1 0x0 SHR OR PUSH1 0x0 SHL SWAP2 POP POP SWAP2 SWAP1 POP JUMP JUMPDEST PUSH1 0x0 DUP2 SWAP1 POP SWAP2 SWAP1 POP JUMP JUMPDEST PUSH1 0x0 PUSH2 0x2710 SWAP1 POP SWAP1 JUMP JUMPDEST PUSH1 0x0 PUSH1 0x40 MLOAD SWAP1 POP SWAP1 JUMP JUMPDEST PUSH1 0x0 DUP1 REVERT JUMPDEST PUSH1 0x0 DUP1 REVERT JUMPDEST PUSH1 0x0 PUSH20 0xFFFFFFFFFFFFFFFFFFFFFFFFFFFFFFFFFFFFFFFF DUP3 AND SWAP1 POP SWAP2 SWAP1 POP JUMP JUMPDEST PUSH1 0x0 PUSH2 0x853 DUP3 PUSH2 0x828 JUMP JUMPDEST SWAP1 POP SWAP2 SWAP1 POP JUMP JUMPDEST PUSH2 0x863 DUP2 PUSH2 0x848 JUMP JUMPDEST DUP2 EQ PUSH2 0x86E JUMPI PUSH1 0x0 DUP1 REVERT JUMPDEST POP JUMP JUMPDEST PUSH1 0x0 DUP2 MLOAD SWAP1 POP PUSH2 0x880 DUP2 PUSH2 0x85A JUMP JUMPDEST SWAP3 SWAP2 POP POP JUMP JUMPDEST PUSH1 0x0 DUP1 REVERT JUMPDEST PUSH1 0x0 DUP1 REVERT JUMPDEST PUSH1 0x0 PUSH1 0x1F NOT PUSH1 0x1F DUP4 ADD AND SWAP1 POP SWAP2 SWAP1 POP JUMP JUMPDEST PUSH32 0x4E487B7100000000000000000000000000000000000000000000000000000000 PUSH1 0x0 MSTORE PUSH1 0x41 PUSH1 0x4 MSTORE PUSH1 0x24 PUSH1 0x0 REVERT JUMPDEST PUSH2 0x8D9 DUP3 PUSH2 0x890 JUMP JUMPDEST DUP2 ADD DUP2 DUP2 LT PUSH8 0xFFFFFFFFFFFFFFFF DUP3 GT OR ISZERO PUSH2 0x8F8 JUMPI PUSH2 0x8F7 PUSH2 0x8A1 JUMP JUMPDEST JUMPDEST DUP1 PUSH1 0x40 MSTORE POP POP POP JUMP JUMPDEST PUSH1 0x0 PUSH2 0x90B PUSH2 0x814 JUMP JUMPDEST SWAP1 POP PUSH2 0x917 DUP3 DUP3 PUSH2 0x8D0 JUMP JUMPDEST SWAP2 SWAP1 POP JUMP JUMPDEST PUSH1 0x0 PUSH8 0xFFFFFFFFFFFFFFFF DUP3 GT ISZERO PUSH2 0x937 JUMPI PUSH2 0x936 PUSH2 0x8A1 JUMP JUMPDEST JUMPDEST PUSH2 0x940 DUP3 PUSH2 0x890 JUMP JUMPDEST SWAP1 POP PUSH1 0x20 DUP2 ADD SWAP1 POP SWAP2 SWAP1 POP JUMP JUMPDEST PUSH1 0x0 JUMPDEST DUP4 DUP2 LT ISZERO PUSH2 0x96B JUMPI DUP1 DUP3 ADD MLOAD DUP2 DUP5 ADD MSTORE PUSH1 0x20 DUP2 ADD SWAP1 POP PUSH2 0x950 JUMP JUMPDEST PUSH1 0x0 DUP5 DUP5 ADD MSTORE POP POP POP POP JUMP JUMPDEST PUSH1 0x0 PUSH2 0x98A PUSH2 0x985 DUP5 PUSH2 0x91C JUMP JUMPDEST PUSH2 0x901 JUMP JUMPDEST SWAP1 POP DUP3 DUP2 MSTORE PUSH1 0x20 DUP2 ADD DUP5 DUP5 DUP5 ADD GT ISZERO PUSH2 0x9A6 JUMPI PUSH2 0x9A5 PUSH2 0x88B JUMP JUMPDEST JUMPDEST PUSH2 0x9B1 DUP5 DUP3 DUP6 PUSH2 0x94D JUMP JUMPDEST POP SWAP4 SWAP3 POP POP POP JUMP JUMPDEST PUSH1 0x0 DUP3 PUSH1 0x1F DUP4 ADD SLT PUSH2 0x9CE JUMPI PUSH2 0x9CD PUSH2 0x886 JUMP JUMPDEST JUMPDEST DUP2 MLOAD PUSH2 0x9DE DUP5 DUP3 PUSH1 0x20 DUP7 ADD PUSH2 0x977 JUMP JUMPDEST SWAP2 POP POP SWAP3 SWAP2 POP POP JUMP JUMPDEST PUSH1 0x0 PUSH12 0xFFFFFFFFFFFFFFFFFFFFFFFF DUP3 AND SWAP1 POP SWAP2 SWAP1 POP JUMP JUMPDEST PUSH2 0xA08 DUP2 PUSH2 0x9E7 JUMP JUMPDEST DUP2 EQ PUSH2 0xA13 JUMPI PUSH1 0x0 DUP1 REVERT JUMPDEST POP JUMP JUMPDEST PUSH1 0x0 DUP2 MLOAD SWAP1 POP PUSH2 0xA25 DUP2 PUSH2 0x9FF JUMP JUMPDEST SWAP3 SWAP2 POP POP JUMP JUMPDEST PUSH1 0x0 DUP1 PUSH1 0x0 DUP1 PUSH1 0x0 DUP1 PUSH1 0x0 PUSH1 0xE0 DUP9 DUP11 SUB SLT ISZERO PUSH2 0xA4A JUMPI PUSH2 0xA49 PUSH2 0x81E JUMP JUMPDEST JUMPDEST PUSH1 0x0 PUSH2 0xA58 DUP11 DUP3 DUP12 ADD PUSH2 0x871 JUMP JUMPDEST SWAP8 POP POP PUSH1 0x20 DUP9 ADD MLOAD PUSH8 0xFFFFFFFFFFFFFFFF DUP2 GT ISZERO PUSH2 0xA79 JUMPI PUSH2 0xA78 PUSH2 0x823 JUMP JUMPDEST JUMPDEST PUSH2 0xA85 DUP11 DUP3 DUP12 ADD PUSH2 0x9B9 JUMP JUMPDEST SWAP7 POP POP PUSH1 0x40 DUP9 ADD MLOAD PUSH8 0xFFFFFFFFFFFFFFFF DUP2 GT ISZERO PUSH2 0xAA6 JUMPI PUSH2 0xAA5 PUSH2 0x823 JUMP JUMPDEST JUMPDEST PUSH2 0xAB2 DUP11 DUP3 DUP12 ADD PUSH2 0x9B9 JUMP JUMPDEST SWAP6 POP POP PUSH1 0x60 PUSH2 0xAC3 DUP11 DUP3 DUP12 ADD PUSH2 0xA16 JUMP JUMPDEST SWAP5 POP POP PUSH1 0x80 PUSH2 0xAD4 DUP11 DUP3 DUP12 ADD PUSH2 0xA16 JUMP JUMPDEST SWAP4 POP POP PUSH1 0xA0 PUSH2 0xAE5 DUP11 DUP3 DUP12 ADD PUSH2 0x871 JUMP JUMPDEST SWAP3 POP POP PUSH1 0xC0 PUSH2 0xAF6 DUP11 DUP3 DUP12 ADD PUSH2 0x871 JUMP JUMPDEST SWAP2 POP POP SWAP3 SWAP6 SWAP9 SWAP2 SWAP5 SWAP8 POP SWAP3 SWAP6 POP JUMP JUMPDEST PUSH1 0x0 DUP2 MLOAD SWAP1 POP SWAP2 SWAP1 POP JUMP JUMPDEST PUSH32 0x4E487B7100000000000000000000000000000000000000000000000000000000 PUSH1 0x0 MSTORE PUSH1 0x22 PUSH1 0x4 MSTORE PUSH1 0x24 PUSH1 0x0 REVERT JUMPDEST PUSH1 0x0 PUSH1 0x2 DUP3 DIV SWAP1 POP PUSH1 0x1 DUP3 AND DUP1 PUSH2 0xB57 JUMPI PUSH1 0x7F DUP3 AND SWAP2 POP JUMPDEST PUSH1 0x20 DUP3 LT DUP2 SUB PUSH2 0xB6A JUMPI PUSH2 0xB69 PUSH2 0xB10 JUMP JUMPDEST JUMPDEST POP SWAP2 SWAP1 POP JUMP JUMPDEST PUSH1 0x0 DUP2 SWAP1 POP DUP2 PUSH1 0x0 MSTORE PUSH1 0x20 PUSH1 0x0 KECCAK256 SWAP1 POP SWAP2 SWAP1 POP JUMP JUMPDEST PUSH1 0x0 PUSH1 0x20 PUSH1 0x1F DUP4 ADD DIV SWAP1 POP SWAP2 SWAP1 POP JUMP JUMPDEST PUSH1 0x0 DUP3 DUP3 SHL SWAP1 POP SWAP3 SWAP2 POP POP JUMP JUMPDEST PUSH1 0x0 PUSH1 0x8 DUP4 MUL PUSH2 0xBD2 PUSH32 0xFFFFFFFFFFFFFFFFFFFFFFFFFFFFFFFFFFFFFFFFFFFFFFFFFFFFFFFFFFFFFFFF DUP3 PUSH2 0xB95 JUMP JUMPDEST PUSH2 0xBDC DUP7 DUP4 PUSH2 0xB95 JUMP JUMPDEST SWAP6 POP DUP1 NOT DUP5 AND SWAP4 POP DUP1 DUP7 AND DUP5 OR SWAP3 POP POP POP SWAP4 SWAP3 POP POP POP JUMP JUMPDEST PUSH1 0x0 DUP2 SWAP1 POP SWAP2 SWAP1 POP JUMP JUMPDEST PUSH1 0x0 DUP2 SWAP1 POP SWAP2 SWAP1 POP JUMP JUMPDEST PUSH1 0x0 PUSH2 0xC23 PUSH2 0xC1E PUSH2 0xC19 DUP5 PUSH2 0xBF4 JUMP JUMPDEST PUSH2 0xBFE JUMP JUMPDEST PUSH2 0xBF4 JUMP JUMPDEST SWAP1 POP SWAP2 SWAP1 POP JUMP JUMPDEST PUSH1 0x0 DUP2 SWAP1 POP SWAP2 SWAP1 POP JUMP JUMPDEST PUSH2 0xC3D DUP4 PUSH2 0xC08 JUMP JUMPDEST PUSH2 0xC51 PUSH2 0xC49 DUP3 PUSH2 0xC2A JUMP JUMPDEST DUP5 DUP5 SLOAD PUSH2 0xBA2 JUMP JUMPDEST DUP3 SSTORE POP POP POP POP JUMP JUMPDEST PUSH1 0x0 SWAP1 JUMP JUMPDEST PUSH2 0xC66 PUSH2 0xC59 JUMP JUMPDEST PUSH2 0xC71 DUP2 DUP5 DUP5 PUSH2 0xC34 JUMP JUMPDEST POP POP POP JUMP JUMPDEST JUMPDEST DUP2 DUP2 LT ISZERO PUSH2 0xC95 JUMPI PUSH2 0xC8A PUSH1 0x0 DUP3 PUSH2 0xC5E JUMP JUMPDEST PUSH1 0x1 DUP2 ADD SWAP1 POP PUSH2 0xC77 JUMP JUMPDEST POP POP JUMP JUMPDEST PUSH1 0x1F DUP3 GT ISZERO PUSH2 0xCDA JUMPI PUSH2 0xCAB DUP2 PUSH2 0xB70 JUMP JUMPDEST PUSH2 0xCB4 DUP5 PUSH2 0xB85 JUMP JUMPDEST DUP2 ADD PUSH1 0x20 DUP6 LT ISZERO PUSH2 0xCC3 JUMPI DUP2 SWAP1 POP JUMPDEST PUSH2 0xCD7 PUSH2 0xCCF DUP6 PUSH2 0xB85 JUMP JUMPDEST DUP4 ADD DUP3 PUSH2 0xC76 JUMP JUMPDEST POP POP JUMPDEST POP POP POP JUMP JUMPDEST PUSH1 0x0 DUP3 DUP3 SHR SWAP1 POP SWAP3 SWAP2 POP POP JUMP JUMPDEST PUSH1 0x0 PUSH2 0xCFD PUSH1 0x0 NOT DUP5 PUSH1 0x8 MUL PUSH2 0xCDF JUMP JUMPDEST NOT DUP1 DUP4 AND SWAP2 POP POP SWAP3 SWAP2 POP POP JUMP JUMPDEST PUSH1 0x0 PUSH2 0xD16 DUP4 DUP4 PUSH2 0xCEC JUMP JUMPDEST SWAP2 POP DUP3 PUSH1 0x2 MUL DUP3 OR SWAP1 POP SWAP3 SWAP2 POP POP JUMP JUMPDEST PUSH2 0xD2F DUP3 PUSH2 0xB05 JUMP JUMPDEST PUSH8 0xFFFFFFFFFFFFFFFF DUP2 GT ISZERO PUSH2 0xD48 JUMPI PUSH2 0xD47 PUSH2 0x8A1 JUMP JUMPDEST JUMPDEST PUSH2 0xD52 DUP3 SLOAD PUSH2 0xB3F JUMP JUMPDEST PUSH2 0xD5D DUP3 DUP3 DUP6 PUSH2 0xC99 JUMP JUMPDEST PUSH1 0x0 PUSH1 0x20 SWAP1 POP PUSH1 0x1F DUP4 GT PUSH1 0x1 DUP2 EQ PUSH2 0xD90 JUMPI PUSH1 0x0 DUP5 ISZERO PUSH2 0xD7E JUMPI DUP3 DUP8 ADD MLOAD SWAP1 POP JUMPDEST PUSH2 0xD88 DUP6 DUP3 PUSH2 0xD0A JUMP JUMPDEST DUP7 SSTORE POP PUSH2 0xDF0 JUMP JUMPDEST PUSH1 0x1F NOT DUP5 AND PUSH2 0xD9E DUP7 PUSH2 0xB70 JUMP JUMPDEST PUSH1 0x0 JUMPDEST DUP3 DUP2 LT ISZERO PUSH2 0xDC6 JUMPI DUP5 DUP10 ADD MLOAD DUP3 SSTORE PUSH1 0x1 DUP3 ADD SWAP2 POP PUSH1 0x20 DUP6 ADD SWAP5 POP PUSH1 0x20 DUP2 ADD SWAP1 POP PUSH2 0xDA1 JUMP JUMPDEST DUP7 DUP4 LT ISZERO PUSH2 0xDE3 JUMPI DUP5 DUP10 ADD MLOAD PUSH2 0xDDF PUSH1 0x1F DUP10 AND DUP3 PUSH2 0xCEC JUMP JUMPDEST DUP4 SSTORE POP JUMPDEST PUSH1 0x1 PUSH1 0x2 DUP9 MUL ADD DUP9 SSTORE POP POP POP JUMPDEST POP POP POP POP POP POP JUMP JUMPDEST PUSH2 0xE01 DUP2 PUSH2 0x848 JUMP JUMPDEST DUP3 MSTORE POP POP JUMP JUMPDEST PUSH1 0x0 PUSH1 0x20 DUP3 ADD SWAP1 POP PUSH2 0xE1C PUSH1 0x0 DUP4 ADD DUP5 PUSH2 0xDF8 JUMP JUMPDEST SWAP3 SWAP2 POP POP JUMP JUMPDEST PUSH32 0x4E487B7100000000000000000000000000000000000000000000000000000000 PUSH1 0x0 MSTORE PUSH1 0x21 PUSH1 0x4 MSTORE PUSH1 0x24 PUSH1 0x0 REVERT JUMPDEST PUSH1 0x0 DUP2 SWAP1 POP SWAP2 SWAP1 POP JUMP JUMPDEST PUSH2 0xE64 DUP2 PUSH2 0xE51 JUMP JUMPDEST DUP3 MSTORE POP POP JUMP JUMPDEST PUSH2 0xE73 DUP2 PUSH2 0xBF4 JUMP JUMPDEST DUP3 MSTORE POP POP JUMP JUMPDEST PUSH1 0x0 PUSH1 0xA0 DUP3 ADD SWAP1 POP PUSH2 0xE8E PUSH1 0x0 DUP4 ADD DUP9 PUSH2 0xE5B JUMP JUMPDEST PUSH2 0xE9B PUSH1 0x20 DUP4 ADD DUP8 PUSH2 0xE5B JUMP JUMPDEST PUSH2 0xEA8 PUSH1 0x40 DUP4 ADD DUP7 PUSH2 0xE5B JUMP JUMPDEST PUSH2 0xEB5 PUSH1 0x60 DUP4 ADD DUP6 PUSH2 0xE6A JUMP JUMPDEST PUSH2 0xEC2 PUSH1 0x80 DUP4 ADD DUP5 PUSH2 0xDF8 JUMP JUMPDEST SWAP7 SWAP6 POP POP POP POP POP POP JUMP JUMPDEST PUSH1 0x0 PUSH2 0xEE7 PUSH2 0xEE2 PUSH2 0xEDD DUP5 PUSH2 0x9E7 JUMP JUMPDEST PUSH2 0xBFE JUMP JUMPDEST PUSH2 0xBF4 JUMP JUMPDEST SWAP1 POP SWAP2 SWAP1 POP JUMP JUMPDEST PUSH2 0xEF7 DUP2 PUSH2 0xECC JUMP JUMPDEST DUP3 MSTORE POP POP JUMP JUMPDEST PUSH1 0x0 PUSH1 0x40 DUP3 ADD SWAP1 POP PUSH2 0xF12 PUSH1 0x0 DUP4 ADD DUP6 PUSH2 0xEEE JUMP JUMPDEST PUSH2 0xF1F PUSH1 0x20 DUP4 ADD DUP5 PUSH2 0xE6A JUMP JUMPDEST SWAP4 SWAP3 POP POP POP JUMP JUMPDEST PUSH1 0x0 DUP3 DUP3 MSTORE PUSH1 0x20 DUP3 ADD SWAP1 POP SWAP3 SWAP2 POP POP JUMP JUMPDEST PUSH1 0x0 PUSH2 0xF42 DUP3 PUSH2 0xB05 JUMP JUMPDEST PUSH2 0xF4C DUP2 DUP6 PUSH2 0xF26 JUMP JUMPDEST SWAP4 POP PUSH2 0xF5C DUP2 DUP6 PUSH1 0x20 DUP7 ADD PUSH2 0x94D JUMP JUMPDEST PUSH2 0xF65 DUP2 PUSH2 0x890 JUMP JUMPDEST DUP5 ADD SWAP2 POP POP SWAP3 SWAP2 POP POP JUMP JUMPDEST PUSH1 0x0 PUSH1 0x20 DUP3 ADD SWAP1 POP DUP2 DUP2 SUB PUSH1 0x0 DUP4 ADD MSTORE PUSH2 0xF8A DUP2 DUP5 PUSH2 0xF37 JUMP JUMPDEST SWAP1 POP SWAP3 SWAP2 POP POP JUMP JUMPDEST PUSH1 0x0 DUP2 MLOAD SWAP1 POP SWAP2 SWAP1 POP JUMP JUMPDEST PUSH1 0x0 DUP2 SWAP1 POP PUSH1 0x20 DUP3 ADD SWAP1 POP SWAP2 SWAP1 POP JUMP JUMPDEST PUSH1 0x0 PUSH2 0xFB9 DUP3 MLOAD PUSH2 0xE51 JUMP JUMPDEST DUP1 SWAP2 POP POP SWAP2 SWAP1 POP JUMP JUMPDEST PUSH1 0x0 PUSH2 0xFCD DUP3 PUSH2 0xF92 JUMP JUMPDEST DUP3 PUSH2 0xFD7 DUP5 PUSH2 0xF9D JUMP JUMPDEST SWAP1 POP PUSH2 0xFE2 DUP2 PUSH2 0xFAD JUMP JUMPDEST SWAP3 POP PUSH1 0x20 DUP3 LT ISZERO PUSH2 0x1022 JUMPI PUSH2 0x101D PUSH32 0xFFFFFFFFFFFFFFFFFFFFFFFFFFFFFFFFFFFFFFFFFFFFFFFFFFFFFFFFFFFFFFFF DUP4 PUSH1 0x20 SUB PUSH1 0x8 MUL PUSH2 0xB95 JUMP JUMPDEST DUP4 AND SWAP3 POP JUMPDEST POP POP SWAP2 SWAP1 POP JUMP JUMPDEST PUSH1 0x80 MLOAD PUSH1 0xA0 MLOAD PUSH1 0xC0 MLOAD PUSH1 0xE0 MLOAD PUSH2 0x100 MLOAD PUSH2 0x120 MLOAD PUSH2 0x140 MLOAD PUSH2 0x160 MLOAD PUSH2 0x180 MLOAD PUSH2 0x61B1 PUSH2 0x109D PUSH1 0x0 CODECOPY PUSH1 0x0 POP POP PUSH1 0x0 DUP2 DUP2 PUSH2 0x127C ADD MSTORE PUSH2 0x1B47 ADD MSTORE PUSH1 0x0 PUSH2 0x25DA ADD MSTORE PUSH1 0x0 PUSH2 0x259F ADD MSTORE PUSH1 0x0 PUSH2 0x3629 ADD MSTORE PUSH1 0x0 PUSH2 0x3608 ADD MSTORE PUSH1 0x0 PUSH2 0x2DB5 ADD MSTORE PUSH1 0x0 PUSH2 0x2E0B ADD MSTORE PUSH1 0x0 PUSH2 0x2E34 ADD MSTORE PUSH2 0x61B1 PUSH1 0x0 RETURN INVALID PUSH1 0x80 PUSH1 0x40 MSTORE PUSH1 0x4 CALLDATASIZE LT PUSH2 0x1F9 JUMPI PUSH1 0x0 CALLDATALOAD PUSH1 0xE0 SHR DUP1 PUSH4 0x715018A6 GT PUSH2 0x10D JUMPI DUP1 PUSH4 0xB88D4FDE GT PUSH2 0xA0 JUMPI DUP1 PUSH4 0xE985E9C5 GT PUSH2 0x6F JUMPI DUP1 PUSH4 0xE985E9C5 EQ PUSH2 0x76F JUMPI DUP1 PUSH4 0xEB13554F EQ PUSH2 0x7AC JUMPI DUP1 PUSH4 0xED24911D EQ PUSH2 0x7D7 JUMPI DUP1 PUSH4 0xF2FDE38B EQ PUSH2 0x802 JUMPI DUP1 PUSH4 0xF7330C2D EQ PUSH2 0x82B JUMPI PUSH2 0x1F9 JUMP JUMPDEST DUP1 PUSH4 0xB88D4FDE EQ PUSH2 0x6B3 JUMPI DUP1 PUSH4 0xC87B56DD EQ PUSH2 0x6DC JUMPI DUP1 PUSH4 0xCDD78CFC EQ PUSH2 0x719 JUMPI DUP1 PUSH4 0xDB5E0063 EQ PUSH2 0x744 JUMPI PUSH2 0x1F9 JUMP JUMPDEST DUP1 PUSH4 0x8DA5CB5B GT PUSH2 0xDC JUMPI DUP1 PUSH4 0x8DA5CB5B EQ PUSH2 0x618 JUMPI DUP1 PUSH4 0x8FF75E82 EQ PUSH2 0x643 JUMPI DUP1 PUSH4 0x95D89B41 EQ PUSH2 0x65F JUMPI DUP1 PUSH4 0xA22CB465 EQ PUSH2 0x68A JUMPI PUSH2 0x1F9 JUMP JUMPDEST DUP1 PUSH4 0x715018A6 EQ PUSH2 0x56A JUMPI DUP1 PUSH4 0x76826A67 EQ PUSH2 0x581 JUMPI DUP1 PUSH4 0x8462151C EQ PUSH2 0x5AA JUMPI DUP1 PUSH4 0x84B0196E EQ PUSH2 0x5E7 JUMPI PUSH2 0x1F9 JUMP JUMPDEST DUP1 PUSH4 0x2A55205A GT PUSH2 0x190 JUMPI DUP1 PUSH4 0x4F6CCCE7 GT PUSH2 0x15F JUMPI DUP1 PUSH4 0x4F6CCCE7 EQ PUSH2 0x45F JUMPI DUP1 PUSH4 0x57036078 EQ PUSH2 0x49C JUMPI DUP1 PUSH4 0x6352211E EQ PUSH2 0x4C5 JUMPI DUP1 PUSH4 0x65D65E86 EQ PUSH2 0x502 JUMPI DUP1 PUSH4 0x70A08231 EQ PUSH2 0x52D JUMPI PUSH2 0x1F9 JUMP JUMPDEST DUP1 PUSH4 0x2A55205A EQ PUSH2 0x377 JUMPI DUP1 PUSH4 0x2E37EEF6 EQ PUSH2 0x3B5 JUMPI DUP1 PUSH4 0x2F745C59 EQ PUSH2 0x3F9 JUMPI DUP1 PUSH4 0x42842E0E EQ PUSH2 0x436 JUMPI PUSH2 0x1F9 JUMP JUMPDEST DUP1 PUSH4 0x95EA7B3 GT PUSH2 0x1CC JUMPI DUP1 PUSH4 0x95EA7B3 EQ PUSH2 0x2CE JUMPI DUP1 PUSH4 0x18160DDD EQ PUSH2 0x2F7 JUMPI DUP1 PUSH4 0x1CE97FD1 EQ PUSH2 0x322 JUMPI DUP1 PUSH4 0x23B872DD EQ PUSH2 0x34E JUMPI PUSH2 0x1F9 JUMP JUMPDEST DUP1 PUSH4 0x1FFC9A7 EQ PUSH2 0x1FE JUMPI DUP1 PUSH4 0x6FDDE03 EQ PUSH2 0x23B JUMPI DUP1 PUSH4 0x72A1319 EQ PUSH2 0x266 JUMPI DUP1 PUSH4 0x81812FC EQ PUSH2 0x291 JUMPI JUMPDEST PUSH1 0x0 DUP1 REVERT JUMPDEST CALLVALUE DUP1 ISZERO PUSH2 0x20A JUMPI PUSH1 0x0 DUP1 REVERT JUMPDEST POP PUSH2 0x225 PUSH1 0x4 DUP1 CALLDATASIZE SUB DUP2 ADD SWAP1 PUSH2 0x220 SWAP2 SWAP1 PUSH2 0x446C JUMP JUMPDEST PUSH2 0x868 JUMP JUMPDEST PUSH1 0x40 MLOAD PUSH2 0x232 SWAP2 SWAP1 PUSH2 0x44B4 JUMP JUMPDEST PUSH1 0x40 MLOAD DUP1 SWAP2 SUB SWAP1 RETURN JUMPDEST CALLVALUE DUP1 ISZERO PUSH2 0x247 JUMPI PUSH1 0x0 DUP1 REVERT JUMPDEST POP PUSH2 0x250 PUSH2 0x87A JUMP JUMPDEST PUSH1 0x40 MLOAD PUSH2 0x25D SWAP2 SWAP1 PUSH2 0x455F JUMP JUMPDEST PUSH1 0x40 MLOAD DUP1 SWAP2 SUB SWAP1 RETURN JUMPDEST CALLVALUE DUP1 ISZERO PUSH2 0x272 JUMPI PUSH1 0x0 DUP1 REVERT JUMPDEST POP PUSH2 0x27B PUSH2 0x90C JUMP JUMPDEST PUSH1 0x40 MLOAD PUSH2 0x288 SWAP2 SWAP1 PUSH2 0x44B4 JUMP JUMPDEST PUSH1 0x40 MLOAD DUP1 SWAP2 SUB SWAP1 RETURN JUMPDEST CALLVALUE DUP1 ISZERO PUSH2 0x29D JUMPI PUSH1 0x0 DUP1 REVERT JUMPDEST POP PUSH2 0x2B8 PUSH1 0x4 DUP1 CALLDATASIZE SUB DUP2 ADD SWAP1 PUSH2 0x2B3 SWAP2 SWAP1 PUSH2 0x45B7 JUMP JUMPDEST PUSH2 0xA06 JUMP JUMPDEST PUSH1 0x40 MLOAD PUSH2 0x2C5 SWAP2 SWAP1 PUSH2 0x4625 JUMP JUMPDEST PUSH1 0x40 MLOAD DUP1 SWAP2 SUB SWAP1 RETURN JUMPDEST CALLVALUE DUP1 ISZERO PUSH2 0x2DA JUMPI PUSH1 0x0 DUP1 REVERT JUMPDEST POP PUSH2 0x2F5 PUSH1 0x4 DUP1 CALLDATASIZE SUB DUP2 ADD SWAP1 PUSH2 0x2F0 SWAP2 SWAP1 PUSH2 0x466C JUMP JUMPDEST PUSH2 0xA22 JUMP JUMPDEST STOP JUMPDEST CALLVALUE DUP1 ISZERO PUSH2 0x303 JUMPI PUSH1 0x0 DUP1 REVERT JUMPDEST POP PUSH2 0x30C PUSH2 0xA38 JUMP JUMPDEST PUSH1 0x40 MLOAD PUSH2 0x319 SWAP2 SWAP1 PUSH2 0x46BB JUMP JUMPDEST PUSH1 0x40 MLOAD DUP1 SWAP2 SUB SWAP1 RETURN JUMPDEST CALLVALUE DUP1 ISZERO PUSH2 0x32E JUMPI PUSH1 0x0 DUP1 REVERT JUMPDEST POP PUSH2 0x337 PUSH2 0xA45 JUMP JUMPDEST PUSH1 0x40 MLOAD PUSH2 0x345 SWAP3 SWAP2 SWAP1 PUSH2 0x4817 JUMP JUMPDEST PUSH1 0x40 MLOAD DUP1 SWAP2 SUB SWAP1 RETURN JUMPDEST CALLVALUE DUP1 ISZERO PUSH2 0x35A JUMPI PUSH1 0x0 DUP1 REVERT JUMPDEST POP PUSH2 0x375 PUSH1 0x4 DUP1 CALLDATASIZE SUB DUP2 ADD SWAP1 PUSH2 0x370 SWAP2 SWAP1 PUSH2 0x4841 JUMP JUMPDEST PUSH2 0xAEF JUMP JUMPDEST STOP JUMPDEST CALLVALUE DUP1 ISZERO PUSH2 0x383 JUMPI PUSH1 0x0 DUP1 REVERT JUMPDEST POP PUSH2 0x39E PUSH1 0x4 DUP1 CALLDATASIZE SUB DUP2 ADD SWAP1 PUSH2 0x399 SWAP2 SWAP1 PUSH2 0x4894 JUMP JUMPDEST PUSH2 0xBF1 JUMP JUMPDEST PUSH1 0x40 MLOAD PUSH2 0x3AC SWAP3 SWAP2 SWAP1 PUSH2 0x48D4 JUMP JUMPDEST PUSH1 0x40 MLOAD DUP1 SWAP2 SUB SWAP1 RETURN JUMPDEST CALLVALUE DUP1 ISZERO PUSH2 0x3C1 JUMPI PUSH1 0x0 DUP1 REVERT JUMPDEST POP PUSH2 0x3DC PUSH1 0x4 DUP1 CALLDATASIZE SUB DUP2 ADD SWAP1 PUSH2 0x3D7 SWAP2 SWAP1 PUSH2 0x45B7 JUMP JUMPDEST PUSH2 0xD21 JUMP JUMPDEST PUSH1 0x40 MLOAD PUSH2 0x3F0 SWAP9 SWAP8 SWAP7 SWAP6 SWAP5 SWAP4 SWAP3 SWAP2 SWAP1 PUSH2 0x491B JUMP JUMPDEST PUSH1 0x40 MLOAD DUP1 SWAP2 SUB SWAP1 RETURN JUMPDEST CALLVALUE DUP1 ISZERO PUSH2 0x405 JUMPI PUSH1 0x0 DUP1 REVERT JUMPDEST POP PUSH2 0x420 PUSH1 0x4 DUP1 CALLDATASIZE SUB DUP2 ADD SWAP1 PUSH2 0x41B SWAP2 SWAP1 PUSH2 0x466C JUMP JUMPDEST PUSH2 0xD86 JUMP JUMPDEST PUSH1 0x40 MLOAD PUSH2 0x42D SWAP2 SWAP1 PUSH2 0x46BB JUMP JUMPDEST PUSH1 0x40 MLOAD DUP1 SWAP2 SUB SWAP1 RETURN JUMPDEST CALLVALUE DUP1 ISZERO PUSH2 0x442 JUMPI PUSH1 0x0 DUP1 REVERT JUMPDEST POP PUSH2 0x45D PUSH1 0x4 DUP1 CALLDATASIZE SUB DUP2 ADD SWAP1 PUSH2 0x458 SWAP2 SWAP1 PUSH2 0x4841 JUMP JUMPDEST PUSH2 0xE2F JUMP JUMPDEST STOP JUMPDEST CALLVALUE DUP1 ISZERO PUSH2 0x46B JUMPI PUSH1 0x0 DUP1 REVERT JUMPDEST POP PUSH2 0x486 PUSH1 0x4 DUP1 CALLDATASIZE SUB DUP2 ADD SWAP1 PUSH2 0x481 SWAP2 SWAP1 PUSH2 0x45B7 JUMP JUMPDEST PUSH2 0xE4F JUMP JUMPDEST PUSH1 0x40 MLOAD PUSH2 0x493 SWAP2 SWAP1 PUSH2 0x46BB JUMP JUMPDEST PUSH1 0x40 MLOAD DUP1 SWAP2 SUB SWAP1 RETURN JUMPDEST CALLVALUE DUP1 ISZERO PUSH2 0x4A8 JUMPI PUSH1 0x0 DUP1 REVERT JUMPDEST POP PUSH2 0x4C3 PUSH1 0x4 DUP1 CALLDATASIZE SUB DUP2 ADD SWAP1 PUSH2 0x4BE SWAP2 SWAP1 PUSH2 0x49EA JUMP JUMPDEST PUSH2 0xEC5 JUMP JUMPDEST STOP JUMPDEST CALLVALUE DUP1 ISZERO PUSH2 0x4D1 JUMPI PUSH1 0x0 DUP1 REVERT JUMPDEST POP PUSH2 0x4EC PUSH1 0x4 DUP1 CALLDATASIZE SUB DUP2 ADD SWAP1 PUSH2 0x4E7 SWAP2 SWAP1 PUSH2 0x45B7 JUMP JUMPDEST PUSH2 0x1268 JUMP JUMPDEST PUSH1 0x40 MLOAD PUSH2 0x4F9 SWAP2 SWAP1 PUSH2 0x4625 JUMP JUMPDEST PUSH1 0x40 MLOAD DUP1 SWAP2 SUB SWAP1 RETURN JUMPDEST CALLVALUE DUP1 ISZERO PUSH2 0x50E JUMPI PUSH1 0x0 DUP1 REVERT JUMPDEST POP PUSH2 0x517 PUSH2 0x127A JUMP JUMPDEST PUSH1 0x40 MLOAD PUSH2 0x524 SWAP2 SWAP1 PUSH2 0x4625 JUMP JUMPDEST PUSH1 0x40 MLOAD DUP1 SWAP2 SUB SWAP1 RETURN JUMPDEST CALLVALUE DUP1 ISZERO PUSH2 0x539 JUMPI PUSH1 0x0 DUP1 REVERT JUMPDEST POP PUSH2 0x554 PUSH1 0x4 DUP1 CALLDATASIZE SUB DUP2 ADD SWAP1 PUSH2 0x54F SWAP2 SWAP1 PUSH2 0x4A8C JUMP JUMPDEST PUSH2 0x129E JUMP JUMPDEST PUSH1 0x40 MLOAD PUSH2 0x561 SWAP2 SWAP1 PUSH2 0x46BB JUMP JUMPDEST PUSH1 0x40 MLOAD DUP1 SWAP2 SUB SWAP1 RETURN JUMPDEST CALLVALUE DUP1 ISZERO PUSH2 0x576 JUMPI PUSH1 0x0 DUP1 REVERT JUMPDEST POP PUSH2 0x57F PUSH2 0x1358 JUMP JUMPDEST STOP JUMPDEST CALLVALUE DUP1 ISZERO PUSH2 0x58D JUMPI PUSH1 0x0 DUP1 REVERT JUMPDEST POP PUSH2 0x5A8 PUSH1 0x4 DUP1 CALLDATASIZE SUB DUP2 ADD SWAP1 PUSH2 0x5A3 SWAP2 SWAP1 PUSH2 0x4AB9 JUMP JUMPDEST PUSH2 0x136C JUMP JUMPDEST STOP JUMPDEST CALLVALUE DUP1 ISZERO PUSH2 0x5B6 JUMPI PUSH1 0x0 DUP1 REVERT JUMPDEST POP PUSH2 0x5D1 PUSH1 0x4 DUP1 CALLDATASIZE SUB DUP2 ADD SWAP1 PUSH2 0x5CC SWAP2 SWAP1 PUSH2 0x4A8C JUMP JUMPDEST PUSH2 0x17A7 JUMP JUMPDEST PUSH1 0x40 MLOAD PUSH2 0x5DE SWAP2 SWAP1 PUSH2 0x4C1E JUMP JUMPDEST PUSH1 0x40 MLOAD DUP1 SWAP2 SUB SWAP1 RETURN JUMPDEST CALLVALUE DUP1 ISZERO PUSH2 0x5F3 JUMPI PUSH1 0x0 DUP1 REVERT JUMPDEST POP PUSH2 0x5FC PUSH2 0x183E JUMP JUMPDEST PUSH1 0x40 MLOAD PUSH2 0x60F SWAP8 SWAP7 SWAP6 SWAP5 SWAP4 SWAP3 SWAP2 SWAP1 PUSH2 0x4C7B JUMP JUMPDEST PUSH1 0x40 MLOAD DUP1 SWAP2 SUB SWAP1 RETURN JUMPDEST CALLVALUE DUP1 ISZERO PUSH2 0x624 JUMPI PUSH1 0x0 DUP1 REVERT JUMPDEST POP PUSH2 0x62D PUSH2 0x18E8 JUMP JUMPDEST PUSH1 0x40 MLOAD PUSH2 0x63A SWAP2 SWAP1 PUSH2 0x4625 JUMP JUMPDEST PUSH1 0x40 MLOAD DUP1 SWAP2 SUB SWAP1 RETURN JUMPDEST PUSH2 0x65D PUSH1 0x4 DUP1 CALLDATASIZE SUB DUP2 ADD SWAP1 PUSH2 0x658 SWAP2 SWAP1 PUSH2 0x4E10 JUMP JUMPDEST PUSH2 0x1912 JUMP JUMPDEST STOP JUMPDEST CALLVALUE DUP1 ISZERO PUSH2 0x66B JUMPI PUSH1 0x0 DUP1 REVERT JUMPDEST POP PUSH2 0x674 PUSH2 0x1EA3 JUMP JUMPDEST PUSH1 0x40 MLOAD PUSH2 0x681 SWAP2 SWAP1 PUSH2 0x455F JUMP JUMPDEST PUSH1 0x40 MLOAD DUP1 SWAP2 SUB SWAP1 RETURN JUMPDEST CALLVALUE DUP1 ISZERO PUSH2 0x696 JUMPI PUSH1 0x0 DUP1 REVERT JUMPDEST POP PUSH2 0x6B1 PUSH1 0x4 DUP1 CALLDATASIZE SUB DUP2 ADD SWAP1 PUSH2 0x6AC SWAP2 SWAP1 PUSH2 0x4F2B JUMP JUMPDEST PUSH2 0x1F35 JUMP JUMPDEST STOP JUMPDEST CALLVALUE DUP1 ISZERO PUSH2 0x6BF JUMPI PUSH1 0x0 DUP1 REVERT JUMPDEST POP PUSH2 0x6DA PUSH1 0x4 DUP1 CALLDATASIZE SUB DUP2 ADD SWAP1 PUSH2 0x6D5 SWAP2 SWAP1 PUSH2 0x509B JUMP JUMPDEST PUSH2 0x1F4B JUMP JUMPDEST STOP JUMPDEST CALLVALUE DUP1 ISZERO PUSH2 0x6E8 JUMPI PUSH1 0x0 DUP1 REVERT JUMPDEST POP PUSH2 0x703 PUSH1 0x4 DUP1 CALLDATASIZE SUB DUP2 ADD SWAP1 PUSH2 0x6FE SWAP2 SWAP1 PUSH2 0x45B7 JUMP JUMPDEST PUSH2 0x1F70 JUMP JUMPDEST PUSH1 0x40 MLOAD PUSH2 0x710 SWAP2 SWAP1 PUSH2 0x455F JUMP JUMPDEST PUSH1 0x40 MLOAD DUP1 SWAP2 SUB SWAP1 RETURN JUMPDEST CALLVALUE DUP1 ISZERO PUSH2 0x725 JUMPI PUSH1 0x0 DUP1 REVERT JUMPDEST POP PUSH2 0x72E PUSH2 0x1F82 JUMP JUMPDEST PUSH1 0x40 MLOAD PUSH2 0x73B SWAP2 SWAP1 PUSH2 0x5145 JUMP JUMPDEST PUSH1 0x40 MLOAD DUP1 SWAP2 SUB SWAP1 RETURN JUMPDEST CALLVALUE DUP1 ISZERO PUSH2 0x750 JUMPI PUSH1 0x0 DUP1 REVERT JUMPDEST POP PUSH2 0x759 PUSH2 0x1FA0 JUMP JUMPDEST PUSH1 0x40 MLOAD PUSH2 0x766 SWAP2 SWAP1 PUSH2 0x46BB JUMP JUMPDEST PUSH1 0x40 MLOAD DUP1 SWAP2 SUB SWAP1 RETURN JUMPDEST CALLVALUE DUP1 ISZERO PUSH2 0x77B JUMPI PUSH1 0x0 DUP1 REVERT JUMPDEST POP PUSH2 0x796 PUSH1 0x4 DUP1 CALLDATASIZE SUB DUP2 ADD SWAP1 PUSH2 0x791 SWAP2 SWAP1 PUSH2 0x5160 JUMP JUMPDEST PUSH2 0x1FAD JUMP JUMPDEST PUSH1 0x40 MLOAD PUSH2 0x7A3 SWAP2 SWAP1 PUSH2 0x44B4 JUMP JUMPDEST PUSH1 0x40 MLOAD DUP1 SWAP2 SUB SWAP1 RETURN JUMPDEST CALLVALUE DUP1 ISZERO PUSH2 0x7B8 JUMPI PUSH1 0x0 DUP1 REVERT JUMPDEST POP PUSH2 0x7C1 PUSH2 0x2041 JUMP JUMPDEST PUSH1 0x40 MLOAD PUSH2 0x7CE SWAP2 SWAP1 PUSH2 0x4625 JUMP JUMPDEST PUSH1 0x40 MLOAD DUP1 SWAP2 SUB SWAP1 RETURN JUMPDEST CALLVALUE DUP1 ISZERO PUSH2 0x7E3 JUMPI PUSH1 0x0 DUP1 REVERT JUMPDEST POP PUSH2 0x7EC PUSH2 0x2067 JUMP JUMPDEST PUSH1 0x40 MLOAD PUSH2 0x7F9 SWAP2 SWAP1 PUSH2 0x51A0 JUMP JUMPDEST PUSH1 0x40 MLOAD DUP1 SWAP2 SUB SWAP1 RETURN JUMPDEST CALLVALUE DUP1 ISZERO PUSH2 0x80E JUMPI PUSH1 0x0 DUP1 REVERT JUMPDEST POP PUSH2 0x829 PUSH1 0x4 DUP1 CALLDATASIZE SUB DUP2 ADD SWAP1 PUSH2 0x824 SWAP2 SWAP1 PUSH2 0x4A8C JUMP JUMPDEST PUSH2 0x2076 JUMP JUMPDEST STOP JUMPDEST CALLVALUE DUP1 ISZERO PUSH2 0x837 JUMPI PUSH1 0x0 DUP1 REVERT JUMPDEST POP PUSH2 0x852 PUSH1 0x4 DUP1 CALLDATASIZE SUB DUP2 ADD SWAP1 PUSH2 0x84D SWAP2 SWAP1 PUSH2 0x51BB JUMP JUMPDEST PUSH2 0x20FC JUMP JUMPDEST PUSH1 0x40 MLOAD PUSH2 0x85F SWAP2 SWAP1 PUSH2 0x46BB JUMP JUMPDEST PUSH1 0x40 MLOAD DUP1 SWAP2 SUB SWAP1 RETURN JUMPDEST PUSH1 0x0 PUSH2 0x873 DUP3 PUSH2 0x217B JUMP JUMPDEST SWAP1 POP SWAP2 SWAP1 POP JUMP JUMPDEST PUSH1 0x60 PUSH1 0x0 DUP1 SLOAD PUSH2 0x889 SWAP1 PUSH2 0x522A JUMP JUMPDEST DUP1 PUSH1 0x1F ADD PUSH1 0x20 DUP1 SWAP2 DIV MUL PUSH1 0x20 ADD PUSH1 0x40 MLOAD SWAP1 DUP2 ADD PUSH1 0x40 MSTORE DUP1 SWAP3 SWAP2 SWAP1 DUP2 DUP2 MSTORE PUSH1 0x20 ADD DUP3 DUP1 SLOAD PUSH2 0x8B5 SWAP1 PUSH2 0x522A JUMP JUMPDEST DUP1 ISZERO PUSH2 0x902 JUMPI DUP1 PUSH1 0x1F LT PUSH2 0x8D7 JUMPI PUSH2 0x100 DUP1 DUP4 SLOAD DIV MUL DUP4 MSTORE SWAP2 PUSH1 0x20 ADD SWAP2 PUSH2 0x902 JUMP JUMPDEST DUP3 ADD SWAP2 SWAP1 PUSH1 0x0 MSTORE PUSH1 0x20 PUSH1 0x0 KECCAK256 SWAP1 JUMPDEST DUP2 SLOAD DUP2 MSTORE SWAP1 PUSH1 0x1 ADD SWAP1 PUSH1 0x20 ADD DUP1 DUP4 GT PUSH2 0x8E5 JUMPI DUP3 SWAP1 SUB PUSH1 0x1F AND DUP3 ADD SWAP2 JUMPDEST POP POP POP POP POP SWAP1 POP SWAP1 JUMP JUMPDEST PUSH1 0x0 DUP1 TIMESTAMP SWAP1 POP PUSH1 0x0 JUMPDEST PUSH1 0x12 DUP1 SLOAD SWAP1 POP DUP2 LT ISZERO PUSH2 0x9FC JUMPI PUSH1 0x0 PUSH1 0x2 DUP2 GT ISZERO PUSH2 0x936 JUMPI PUSH2 0x935 PUSH2 0x46D6 JUMP JUMPDEST JUMPDEST PUSH1 0x12 DUP3 DUP2 SLOAD DUP2 LT PUSH2 0x94A JUMPI PUSH2 0x949 PUSH2 0x525B JUMP JUMPDEST JUMPDEST SWAP1 PUSH1 0x0 MSTORE PUSH1 0x20 PUSH1 0x0 KECCAK256 SWAP1 PUSH1 0x8 MUL ADD PUSH1 0x0 ADD PUSH1 0x0 SWAP1 SLOAD SWAP1 PUSH2 0x100 EXP SWAP1 DIV PUSH1 0xFF AND PUSH1 0x2 DUP2 GT ISZERO PUSH2 0x97B JUMPI PUSH2 0x97A PUSH2 0x46D6 JUMP JUMPDEST JUMPDEST EQ ISZERO DUP1 ISZERO PUSH2 0x9AE JUMPI POP PUSH1 0x12 DUP2 DUP2 SLOAD DUP2 LT PUSH2 0x998 JUMPI PUSH2 0x997 PUSH2 0x525B JUMP JUMPDEST JUMPDEST SWAP1 PUSH1 0x0 MSTORE PUSH1 0x20 PUSH1 0x0 KECCAK256 SWAP1 PUSH1 0x8 MUL ADD PUSH1 0x2 ADD SLOAD DUP3 LT ISZERO JUMPDEST DUP1 ISZERO PUSH2 0x9DF JUMPI POP PUSH1 0x12 DUP2 DUP2 SLOAD DUP2 LT PUSH2 0x9C9 JUMPI PUSH2 0x9C8 PUSH2 0x525B JUMP JUMPDEST JUMPDEST SWAP1 PUSH1 0x0 MSTORE PUSH1 0x20 PUSH1 0x0 KECCAK256 SWAP1 PUSH1 0x8 MUL ADD PUSH1 0x3 ADD SLOAD DUP3 GT ISZERO JUMPDEST ISZERO PUSH2 0x9EF JUMPI PUSH1 0x1 SWAP3 POP POP POP PUSH2 0xA03 JUMP JUMPDEST DUP1 DUP1 PUSH1 0x1 ADD SWAP2 POP POP PUSH2 0x915 JUMP JUMPDEST POP PUSH1 0x0 SWAP2 POP POP JUMPDEST SWAP1 JUMP JUMPDEST PUSH1 0x0 PUSH2 0xA11 DUP3 PUSH2 0x21F5 JUMP JUMPDEST POP PUSH2 0xA1B DUP3 PUSH2 0x227D JUMP JUMPDEST SWAP1 POP SWAP2 SWAP1 POP JUMP JUMPDEST PUSH2 0xA34 DUP3 DUP3 PUSH2 0xA2F PUSH2 0x22BA JUMP JUMPDEST PUSH2 0x22C2 JUMP JUMPDEST POP POP JUMP JUMPDEST PUSH1 0x0 PUSH1 0x8 DUP1 SLOAD SWAP1 POP SWAP1 POP SWAP1 JUMP JUMPDEST PUSH1 0x0 PUSH2 0xA4F PUSH2 0x43A6 JUMP JUMPDEST PUSH2 0xA57 PUSH2 0x22D4 JUMP JUMPDEST DUP1 PUSH1 0x40 MLOAD DUP1 PUSH2 0x100 ADD PUSH1 0x40 MSTORE SWAP1 DUP2 PUSH1 0x0 DUP3 ADD PUSH1 0x0 SWAP1 SLOAD SWAP1 PUSH2 0x100 EXP SWAP1 DIV PUSH1 0xFF AND PUSH1 0x2 DUP2 GT ISZERO PUSH2 0xA89 JUMPI PUSH2 0xA88 PUSH2 0x46D6 JUMP JUMPDEST JUMPDEST PUSH1 0x2 DUP2 GT ISZERO PUSH2 0xA9B JUMPI PUSH2 0xA9A PUSH2 0x46D6 JUMP JUMPDEST JUMPDEST DUP2 MSTORE PUSH1 0x20 ADD PUSH1 0x1 DUP3 ADD SLOAD DUP2 MSTORE PUSH1 0x20 ADD PUSH1 0x2 DUP3 ADD SLOAD DUP2 MSTORE PUSH1 0x20 ADD PUSH1 0x3 DUP3 ADD SLOAD DUP2 MSTORE PUSH1 0x20 ADD PUSH1 0x4 DUP3 ADD SLOAD DUP2 MSTORE PUSH1 0x20 ADD PUSH1 0x5 DUP3 ADD SLOAD DUP2 MSTORE PUSH1 0x20 ADD PUSH1 0x6 DUP3 ADD SLOAD DUP2 MSTORE PUSH1 0x20 ADD PUSH1 0x7 DUP3 ADD SLOAD DUP2 MSTORE POP POP SWAP1 POP SWAP2 POP SWAP2 POP SWAP1 SWAP2 JUMP JUMPDEST PUSH1 0x0 PUSH20 0xFFFFFFFFFFFFFFFFFFFFFFFFFFFFFFFFFFFFFFFF AND DUP3 PUSH20 0xFFFFFFFFFFFFFFFFFFFFFFFFFFFFFFFFFFFFFFFF AND SUB PUSH2 0xB61 JUMPI PUSH1 0x0 PUSH1 0x40 MLOAD PUSH32 0x64A0AE9200000000000000000000000000000000000000000000000000000000 DUP2 MSTORE PUSH1 0x4 ADD PUSH2 0xB58 SWAP2 SWAP1 PUSH2 0x4625 JUMP JUMPDEST PUSH1 0x40 MLOAD DUP1 SWAP2 SUB SWAP1 REVERT JUMPDEST PUSH1 0x0 PUSH2 0xB75 DUP4 DUP4 PUSH2 0xB70 PUSH2 0x22BA JUMP JUMPDEST PUSH2 0x2429 JUMP JUMPDEST SWAP1 POP DUP4 PUSH20 0xFFFFFFFFFFFFFFFFFFFFFFFFFFFFFFFFFFFFFFFF AND DUP2 PUSH20 0xFFFFFFFFFFFFFFFFFFFFFFFFFFFFFFFFFFFFFFFF AND EQ PUSH2 0xBEB JUMPI DUP4 DUP3 DUP3 PUSH1 0x40 MLOAD PUSH32 0x64283D7B00000000000000000000000000000000000000000000000000000000 DUP2 MSTORE PUSH1 0x4 ADD PUSH2 0xBE2 SWAP4 SWAP3 SWAP2 SWAP1 PUSH2 0x528A JUMP JUMPDEST PUSH1 0x40 MLOAD DUP1 SWAP2 SUB SWAP1 REVERT JUMPDEST POP POP POP POP JUMP JUMPDEST PUSH1 0x0 DUP1 PUSH1 0x0 PUSH1 0xC PUSH1 0x0 DUP7 DUP2 MSTORE PUSH1 0x20 ADD SWAP1 DUP2 MSTORE PUSH1 0x20 ADD PUSH1 0x0 KECCAK256 SWAP1 POP PUSH1 0x0 DUP2 PUSH1 0x0 ADD PUSH1 0x0 SWAP1 SLOAD SWAP1 PUSH2 0x100 EXP SWAP1 DIV PUSH20 0xFFFFFFFFFFFFFFFFFFFFFFFFFFFFFFFFFFFFFFFF AND SWAP1 POP PUSH1 0x0 DUP3 PUSH1 0x0 ADD PUSH1 0x14 SWAP1 SLOAD SWAP1 PUSH2 0x100 EXP SWAP1 DIV PUSH12 0xFFFFFFFFFFFFFFFFFFFFFFFF AND SWAP1 POP PUSH1 0x0 PUSH20 0xFFFFFFFFFFFFFFFFFFFFFFFFFFFFFFFFFFFFFFFF AND DUP3 PUSH20 0xFFFFFFFFFFFFFFFFFFFFFFFFFFFFFFFFFFFFFFFF AND SUB PUSH2 0xCD2 JUMPI PUSH1 0xB PUSH1 0x0 ADD PUSH1 0x0 SWAP1 SLOAD SWAP1 PUSH2 0x100 EXP SWAP1 DIV PUSH20 0xFFFFFFFFFFFFFFFFFFFFFFFFFFFFFFFFFFFFFFFF AND SWAP2 POP PUSH1 0xB PUSH1 0x0 ADD PUSH1 0x14 SWAP1 SLOAD SWAP1 PUSH2 0x100 EXP SWAP1 DIV PUSH12 0xFFFFFFFFFFFFFFFFFFFFFFFF AND SWAP1 POP JUMPDEST PUSH1 0x0 PUSH2 0xCDC PUSH2 0x243F JUMP JUMPDEST PUSH12 0xFFFFFFFFFFFFFFFFFFFFFFFF AND DUP3 PUSH12 0xFFFFFFFFFFFFFFFFFFFFFFFF AND DUP9 PUSH2 0xD04 SWAP2 SWAP1 PUSH2 0x52F0 JUMP JUMPDEST PUSH2 0xD0E SWAP2 SWAP1 PUSH2 0x5361 JUMP JUMPDEST SWAP1 POP DUP3 DUP2 SWAP6 POP SWAP6 POP POP POP POP POP SWAP3 POP SWAP3 SWAP1 POP JUMP JUMPDEST PUSH1 0x12 DUP2 DUP2 SLOAD DUP2 LT PUSH2 0xD31 JUMPI PUSH1 0x0 DUP1 REVERT JUMPDEST SWAP1 PUSH1 0x0 MSTORE PUSH1 0x20 PUSH1 0x0 KECCAK256 SWAP1 PUSH1 0x8 MUL ADD PUSH1 0x0 SWAP2 POP SWAP1 POP DUP1 PUSH1 0x0 ADD PUSH1 0x0 SWAP1 SLOAD SWAP1 PUSH2 0x100 EXP SWAP1 DIV PUSH1 0xFF AND SWAP1 DUP1 PUSH1 0x1 ADD SLOAD SWAP1 DUP1 PUSH1 0x2 ADD SLOAD SWAP1 DUP1 PUSH1 0x3 ADD SLOAD SWAP1 DUP1 PUSH1 0x4 ADD SLOAD SWAP1 DUP1 PUSH1 0x5 ADD SLOAD SWAP1 DUP1 PUSH1 0x6 ADD SLOAD SWAP1 DUP1 PUSH1 0x7 ADD SLOAD SWAP1 POP DUP9 JUMP JUMPDEST PUSH1 0x0 PUSH2 0xD91 DUP4 PUSH2 0x129E JUMP JUMPDEST DUP3 LT PUSH2 0xDD6 JUMPI DUP3 DUP3 PUSH1 0x40 MLOAD PUSH32 0xA57D13DC00000000000000000000000000000000000000000000000000000000 DUP2 MSTORE PUSH1 0x4 ADD PUSH2 0xDCD SWAP3 SWAP2 SWAP1 PUSH2 0x48D4 JUMP JUMPDEST PUSH1 0x40 MLOAD DUP1 SWAP2 SUB SWAP1 REVERT JUMPDEST PUSH1 0x6 PUSH1 0x0 DUP5 PUSH20 0xFFFFFFFFFFFFFFFFFFFFFFFFFFFFFFFFFFFFFFFF AND PUSH20 0xFFFFFFFFFFFFFFFFFFFFFFFFFFFFFFFFFFFFFFFF AND DUP2 MSTORE PUSH1 0x20 ADD SWAP1 DUP2 MSTORE PUSH1 0x20 ADD PUSH1 0x0 KECCAK256 PUSH1 0x0 DUP4 DUP2 MSTORE PUSH1 0x20 ADD SWAP1 DUP2 MSTORE PUSH1 0x20 ADD PUSH1 0x0 KECCAK256 SLOAD SWAP1 POP SWAP3 SWAP2 POP POP JUMP JUMPDEST PUSH2 0xE4A DUP4 DUP4 DUP4 PUSH1 0x40 MLOAD DUP1 PUSH1 0x20 ADD PUSH1 0x40 MSTORE DUP1 PUSH1 0x0 DUP2 MSTORE POP PUSH2 0x1F4B JUMP JUMPDEST POP POP POP JUMP JUMPDEST PUSH1 0x0 PUSH2 0xE59 PUSH2 0xA38 JUMP JUMPDEST DUP3 LT PUSH2 0xE9F JUMPI PUSH1 0x0 DUP3 PUSH1 0x40 MLOAD PUSH32 0xA57D13DC00000000000000000000000000000000000000000000000000000000 DUP2 MSTORE PUSH1 0x4 ADD PUSH2 0xE96 SWAP3 SWAP2 SWAP1 PUSH2 0x48D4 JUMP JUMPDEST PUSH1 0x40 MLOAD DUP1 SWAP2 SUB SWAP1 REVERT JUMPDEST PUSH1 0x8 DUP3 DUP2 SLOAD DUP2 LT PUSH2 0xEB3 JUMPI PUSH2 0xEB2 PUSH2 0x525B JUMP JUMPDEST JUMPDEST SWAP1 PUSH1 0x0 MSTORE PUSH1 0x20 PUSH1 0x0 KECCAK256 ADD SLOAD SWAP1 POP SWAP2 SWAP1 POP JUMP JUMPDEST PUSH2 0xECD PUSH2 0x2449 JUMP JUMPDEST DUP4 DUP6 LT PUSH2 0xF0F JUMPI PUSH1 0x40 MLOAD PUSH32 0x8C379A000000000000000000000000000000000000000000000000000000000 DUP2 MSTORE PUSH1 0x4 ADD PUSH2 0xF06 SWAP1 PUSH2 0x53DE JUMP JUMPDEST PUSH1 0x40 MLOAD DUP1 SWAP2 SUB SWAP1 REVERT JUMPDEST PUSH1 0x2 DUP1 DUP2 GT ISZERO PUSH2 0xF22 JUMPI PUSH2 0xF21 PUSH2 0x46D6 JUMP JUMPDEST JUMPDEST DUP8 PUSH1 0x2 DUP2 GT ISZERO PUSH2 0xF35 JUMPI PUSH2 0xF34 PUSH2 0x46D6 JUMP JUMPDEST JUMPDEST EQ PUSH2 0xFC3 JUMPI PUSH1 0x0 DUP3 GT PUSH2 0xF7D JUMPI PUSH1 0x40 MLOAD PUSH32 0x8C379A000000000000000000000000000000000000000000000000000000000 DUP2 MSTORE PUSH1 0x4 ADD PUSH2 0xF74 SWAP1 PUSH2 0x5470 JUMP JUMPDEST PUSH1 0x40 MLOAD DUP1 SWAP2 SUB SWAP1 REVERT JUMPDEST PUSH1 0x0 DUP1 SHL DUP2 SUB PUSH2 0xFC2 JUMPI PUSH1 0x40 MLOAD PUSH32 0x8C379A000000000000000000000000000000000000000000000000000000000 DUP2 MSTORE PUSH1 0x4 ADD PUSH2 0xFB9 SWAP1 PUSH2 0x5502 JUMP JUMPDEST PUSH1 0x40 MLOAD DUP1 SWAP2 SUB SWAP1 REVERT JUMPDEST JUMPDEST PUSH1 0x0 JUMPDEST PUSH1 0x12 DUP1 SLOAD SWAP1 POP DUP2 LT ISZERO PUSH2 0x1123 JUMPI PUSH1 0x0 PUSH1 0x12 DUP3 DUP2 SLOAD DUP2 LT PUSH2 0xFE9 JUMPI PUSH2 0xFE8 PUSH2 0x525B JUMP JUMPDEST JUMPDEST SWAP1 PUSH1 0x0 MSTORE PUSH1 0x20 PUSH1 0x0 KECCAK256 SWAP1 PUSH1 0x8 MUL ADD PUSH1 0x40 MLOAD DUP1 PUSH2 0x100 ADD PUSH1 0x40 MSTORE SWAP1 DUP2 PUSH1 0x0 DUP3 ADD PUSH1 0x0 SWAP1 SLOAD SWAP1 PUSH2 0x100 EXP SWAP1 DIV PUSH1 0xFF AND PUSH1 0x2 DUP2 GT ISZERO PUSH2 0x1028 JUMPI PUSH2 0x1027 PUSH2 0x46D6 JUMP JUMPDEST JUMPDEST PUSH1 0x2 DUP2 GT ISZERO PUSH2 0x103A JUMPI PUSH2 0x1039 PUSH2 0x46D6 JUMP JUMPDEST JUMPDEST DUP2 MSTORE PUSH1 0x20 ADD PUSH1 0x1 DUP3 ADD SLOAD DUP2 MSTORE PUSH1 0x20 ADD PUSH1 0x2 DUP3 ADD SLOAD DUP2 MSTORE PUSH1 0x20 ADD PUSH1 0x3 DUP3 ADD SLOAD DUP2 MSTORE PUSH1 0x20 ADD PUSH1 0x4 DUP3 ADD SLOAD DUP2 MSTORE PUSH1 0x20 ADD PUSH1 0x5 DUP3 ADD SLOAD DUP2 MSTORE PUSH1 0x20 ADD PUSH1 0x6 DUP3 ADD SLOAD DUP2 MSTORE PUSH1 0x20 ADD PUSH1 0x7 DUP3 ADD SLOAD DUP2 MSTORE POP POP SWAP1 POP PUSH1 0x0 PUSH1 0x2 DUP2 GT ISZERO PUSH2 0x109A JUMPI PUSH2 0x1099 PUSH2 0x46D6 JUMP JUMPDEST JUMPDEST DUP2 PUSH1 0x0 ADD MLOAD PUSH1 0x2 DUP2 GT ISZERO PUSH2 0x10B1 JUMPI PUSH2 0x10B0 PUSH2 0x46D6 JUMP JUMPDEST JUMPDEST SUB PUSH2 0x10BC JUMPI POP PUSH2 0x1116 JUMP JUMPDEST DUP1 PUSH1 0x60 ADD MLOAD DUP8 GT ISZERO DUP1 ISZERO PUSH2 0x10D4 JUMPI POP DUP1 PUSH1 0x40 ADD MLOAD DUP7 LT ISZERO JUMPDEST ISZERO PUSH2 0x1114 JUMPI PUSH1 0x40 MLOAD PUSH32 0x8C379A000000000000000000000000000000000000000000000000000000000 DUP2 MSTORE PUSH1 0x4 ADD PUSH2 0x110B SWAP1 PUSH2 0x5594 JUMP JUMPDEST PUSH1 0x40 MLOAD DUP1 SWAP2 SUB SWAP1 REVERT JUMPDEST POP JUMPDEST DUP1 DUP1 PUSH1 0x1 ADD SWAP2 POP POP PUSH2 0xFC6 JUMP JUMPDEST POP PUSH1 0x0 PUSH1 0x40 MLOAD DUP1 PUSH2 0x100 ADD PUSH1 0x40 MSTORE DUP1 DUP10 PUSH1 0x2 DUP2 GT ISZERO PUSH2 0x1145 JUMPI PUSH2 0x1144 PUSH2 0x46D6 JUMP JUMPDEST JUMPDEST DUP2 MSTORE PUSH1 0x20 ADD DUP9 DUP2 MSTORE PUSH1 0x20 ADD DUP8 DUP2 MSTORE PUSH1 0x20 ADD DUP7 DUP2 MSTORE PUSH1 0x20 ADD DUP6 DUP2 MSTORE PUSH1 0x20 ADD DUP5 DUP2 MSTORE PUSH1 0x20 ADD PUSH1 0x0 DUP2 MSTORE PUSH1 0x20 ADD DUP4 DUP2 MSTORE POP SWAP1 POP PUSH1 0x0 PUSH1 0x12 DUP1 SLOAD SWAP1 POP SWAP1 POP PUSH1 0x12 DUP3 SWAP1 DUP1 PUSH1 0x1 DUP2 SLOAD ADD DUP1 DUP3 SSTORE DUP1 SWAP2 POP POP PUSH1 0x1 SWAP1 SUB SWAP1 PUSH1 0x0 MSTORE PUSH1 0x20 PUSH1 0x0 KECCAK256 SWAP1 PUSH1 0x8 MUL ADD PUSH1 0x0 SWAP1 SWAP2 SWAP1 SWAP2 SWAP1 SWAP2 POP PUSH1 0x0 DUP3 ADD MLOAD DUP2 PUSH1 0x0 ADD PUSH1 0x0 PUSH2 0x100 EXP DUP2 SLOAD DUP2 PUSH1 0xFF MUL NOT AND SWAP1 DUP4 PUSH1 0x2 DUP2 GT ISZERO PUSH2 0x11D6 JUMPI PUSH2 0x11D5 PUSH2 0x46D6 JUMP JUMPDEST JUMPDEST MUL OR SWAP1 SSTORE POP PUSH1 0x20 DUP3 ADD MLOAD DUP2 PUSH1 0x1 ADD SSTORE PUSH1 0x40 DUP3 ADD MLOAD DUP2 PUSH1 0x2 ADD SSTORE PUSH1 0x60 DUP3 ADD MLOAD DUP2 PUSH1 0x3 ADD SSTORE PUSH1 0x80 DUP3 ADD MLOAD DUP2 PUSH1 0x4 ADD SSTORE PUSH1 0xA0 DUP3 ADD MLOAD DUP2 PUSH1 0x5 ADD SSTORE PUSH1 0xC0 DUP3 ADD MLOAD DUP2 PUSH1 0x6 ADD SSTORE PUSH1 0xE0 DUP3 ADD MLOAD DUP2 PUSH1 0x7 ADD SSTORE POP POP DUP1 PUSH32 0x7673E4939433531841B3EE155CFB41D74036F1741ED20BA7C3ED88D66A289551 DUP11 DUP11 PUSH1 0x40 MLOAD PUSH2 0x1255 SWAP3 SWAP2 SWAP1 PUSH2 0x55B4 JUMP JUMPDEST PUSH1 0x40 MLOAD DUP1 SWAP2 SUB SWAP1 LOG2 POP POP POP POP POP POP POP POP POP JUMP JUMPDEST PUSH1 0x0 PUSH2 0x1273 DUP3 PUSH2 0x21F5 JUMP JUMPDEST SWAP1 POP SWAP2 SWAP1 POP JUMP JUMPDEST PUSH32 0x0 DUP2 JUMP JUMPDEST PUSH1 0x0 DUP1 PUSH20 0xFFFFFFFFFFFFFFFFFFFFFFFFFFFFFFFFFFFFFFFF AND DUP3 PUSH20 0xFFFFFFFFFFFFFFFFFFFFFFFFFFFFFFFFFFFFFFFF AND SUB PUSH2 0x1311 JUMPI PUSH1 0x0 PUSH1 0x40 MLOAD PUSH32 0x89C62B6400000000000000000000000000000000000000000000000000000000 DUP2 MSTORE PUSH1 0x4 ADD PUSH2 0x1308 SWAP2 SWAP1 PUSH2 0x4625 JUMP JUMPDEST PUSH1 0x40 MLOAD DUP1 SWAP2 SUB SWAP1 REVERT JUMPDEST PUSH1 0x3 PUSH1 0x0 DUP4 PUSH20 0xFFFFFFFFFFFFFFFFFFFFFFFFFFFFFFFFFFFFFFFF AND PUSH20 0xFFFFFFFFFFFFFFFFFFFFFFFFFFFFFFFFFFFFFFFF AND DUP2 MSTORE PUSH1 0x20 ADD SWAP1 DUP2 MSTORE PUSH1 0x20 ADD PUSH1 0x0 KECCAK256 SLOAD SWAP1 POP SWAP2 SWAP1 POP JUMP JUMPDEST PUSH2 0x1360 PUSH2 0x2449 JUMP JUMPDEST PUSH2 0x136A PUSH1 0x0 PUSH2 0x24D0 JUMP JUMPDEST JUMP JUMPDEST PUSH2 0x1374 PUSH2 0x2449 JUMP JUMPDEST PUSH1 0x12 DUP1 SLOAD SWAP1 POP DUP9 LT PUSH2 0x13BB JUMPI PUSH1 0x40 MLOAD PUSH32 0x8C379A000000000000000000000000000000000000000000000000000000000 DUP2 MSTORE PUSH1 0x4 ADD PUSH2 0x13B2 SWAP1 PUSH2 0x5629 JUMP JUMPDEST PUSH1 0x40 MLOAD DUP1 SWAP2 SUB SWAP1 REVERT JUMPDEST DUP4 DUP6 LT PUSH2 0x13FD JUMPI PUSH1 0x40 MLOAD PUSH32 0x8C379A000000000000000000000000000000000000000000000000000000000 DUP2 MSTORE PUSH1 0x4 ADD PUSH2 0x13F4 SWAP1 PUSH2 0x53DE JUMP JUMPDEST PUSH1 0x40 MLOAD DUP1 SWAP2 SUB SWAP1 REVERT JUMPDEST PUSH1 0x2 DUP1 DUP2 GT ISZERO PUSH2 0x1410 JUMPI PUSH2 0x140F PUSH2 0x46D6 JUMP JUMPDEST JUMPDEST DUP8 PUSH1 0x2 DUP2 GT ISZERO PUSH2 0x1423 JUMPI PUSH2 0x1422 PUSH2 0x46D6 JUMP JUMPDEST JUMPDEST EQ PUSH2 0x14B1 JUMPI PUSH1 0x0 DUP3 GT PUSH2 0x146B JUMPI PUSH1 0x40 MLOAD PUSH32 0x8C379A000000000000000000000000000000000000000000000000000000000 DUP2 MSTORE PUSH1 0x4 ADD PUSH2 0x1462 SWAP1 PUSH2 0x5470 JUMP JUMPDEST PUSH1 0x40 MLOAD DUP1 SWAP2 SUB SWAP1 REVERT JUMPDEST PUSH1 0x0 DUP1 SHL DUP2 SUB PUSH2 0x14B0 JUMPI PUSH1 0x40 MLOAD PUSH32 0x8C379A000000000000000000000000000000000000000000000000000000000 DUP2 MSTORE PUSH1 0x4 ADD PUSH2 0x14A7 SWAP1 PUSH2 0x5502 JUMP JUMPDEST PUSH1 0x40 MLOAD DUP1 SWAP2 SUB SWAP1 REVERT JUMPDEST JUMPDEST PUSH1 0x0 JUMPDEST PUSH1 0x12 DUP1 SLOAD SWAP1 POP DUP2 LT ISZERO PUSH2 0x1619 JUMPI DUP9 DUP2 SUB ISZERO PUSH2 0x160C JUMPI PUSH1 0x0 PUSH1 0x12 DUP3 DUP2 SLOAD DUP2 LT PUSH2 0x14DF JUMPI PUSH2 0x14DE PUSH2 0x525B JUMP JUMPDEST JUMPDEST SWAP1 PUSH1 0x0 MSTORE PUSH1 0x20 PUSH1 0x0 KECCAK256 SWAP1 PUSH1 0x8 MUL ADD PUSH1 0x40 MLOAD DUP1 PUSH2 0x100 ADD PUSH1 0x40 MSTORE SWAP1 DUP2 PUSH1 0x0 DUP3 ADD PUSH1 0x0 SWAP1 SLOAD SWAP1 PUSH2 0x100 EXP SWAP1 DIV PUSH1 0xFF AND PUSH1 0x2 DUP2 GT ISZERO PUSH2 0x151E JUMPI PUSH2 0x151D PUSH2 0x46D6 JUMP JUMPDEST JUMPDEST PUSH1 0x2 DUP2 GT ISZERO PUSH2 0x1530 JUMPI PUSH2 0x152F PUSH2 0x46D6 JUMP JUMPDEST JUMPDEST DUP2 MSTORE PUSH1 0x20 ADD PUSH1 0x1 DUP3 ADD SLOAD DUP2 MSTORE PUSH1 0x20 ADD PUSH1 0x2 DUP3 ADD SLOAD DUP2 MSTORE PUSH1 0x20 ADD PUSH1 0x3 DUP3 ADD SLOAD DUP2 MSTORE PUSH1 0x20 ADD PUSH1 0x4 DUP3 ADD SLOAD DUP2 MSTORE PUSH1 0x20 ADD PUSH1 0x5 DUP3 ADD SLOAD DUP2 MSTORE PUSH1 0x20 ADD PUSH1 0x6 DUP3 ADD SLOAD DUP2 MSTORE PUSH1 0x20 ADD PUSH1 0x7 DUP3 ADD SLOAD DUP2 MSTORE POP POP SWAP1 POP PUSH1 0x0 PUSH1 0x2 DUP2 GT ISZERO PUSH2 0x1590 JUMPI PUSH2 0x158F PUSH2 0x46D6 JUMP JUMPDEST JUMPDEST DUP2 PUSH1 0x0 ADD MLOAD PUSH1 0x2 DUP2 GT ISZERO PUSH2 0x15A7 JUMPI PUSH2 0x15A6 PUSH2 0x46D6 JUMP JUMPDEST JUMPDEST SUB PUSH2 0x15B2 JUMPI POP PUSH2 0x160C JUMP JUMPDEST DUP1 PUSH1 0x60 ADD MLOAD DUP8 GT ISZERO DUP1 ISZERO PUSH2 0x15CA JUMPI POP DUP1 PUSH1 0x40 ADD MLOAD DUP7 LT ISZERO JUMPDEST ISZERO PUSH2 0x160A JUMPI PUSH1 0x40 MLOAD PUSH32 0x8C379A000000000000000000000000000000000000000000000000000000000 DUP2 MSTORE PUSH1 0x4 ADD PUSH2 0x1601 SWAP1 PUSH2 0x5594 JUMP JUMPDEST PUSH1 0x40 MLOAD DUP1 SWAP2 SUB SWAP1 REVERT JUMPDEST POP JUMPDEST DUP1 DUP1 PUSH1 0x1 ADD SWAP2 POP POP PUSH2 0x14B4 JUMP JUMPDEST POP DUP7 PUSH1 0x12 DUP10 DUP2 SLOAD DUP2 LT PUSH2 0x162F JUMPI PUSH2 0x162E PUSH2 0x525B JUMP JUMPDEST JUMPDEST SWAP1 PUSH1 0x0 MSTORE PUSH1 0x20 PUSH1 0x0 KECCAK256 SWAP1 PUSH1 0x8 MUL ADD PUSH1 0x0 ADD PUSH1 0x0 PUSH2 0x100 EXP DUP2 SLOAD DUP2 PUSH1 0xFF MUL NOT AND SWAP1 DUP4 PUSH1 0x2 DUP2 GT ISZERO PUSH2 0x1662 JUMPI PUSH2 0x1661 PUSH2 0x46D6 JUMP JUMPDEST JUMPDEST MUL OR SWAP1 SSTORE POP DUP6 PUSH1 0x12 DUP10 DUP2 SLOAD DUP2 LT PUSH2 0x167C JUMPI PUSH2 0x167B PUSH2 0x525B JUMP JUMPDEST JUMPDEST SWAP1 PUSH1 0x0 MSTORE PUSH1 0x20 PUSH1 0x0 KECCAK256 SWAP1 PUSH1 0x8 MUL ADD PUSH1 0x1 ADD DUP2 SWAP1 SSTORE POP DUP5 PUSH1 0x12 DUP10 DUP2 SLOAD DUP2 LT PUSH2 0x16A6 JUMPI PUSH2 0x16A5 PUSH2 0x525B JUMP JUMPDEST JUMPDEST SWAP1 PUSH1 0x0 MSTORE PUSH1 0x20 PUSH1 0x0 KECCAK256 SWAP1 PUSH1 0x8 MUL ADD PUSH1 0x2 ADD DUP2 SWAP1 SSTORE POP DUP4 PUSH1 0x12 DUP10 DUP2 SLOAD DUP2 LT PUSH2 0x16D0 JUMPI PUSH2 0x16CF PUSH2 0x525B JUMP JUMPDEST JUMPDEST SWAP1 PUSH1 0x0 MSTORE PUSH1 0x20 PUSH1 0x0 KECCAK256 SWAP1 PUSH1 0x8 MUL ADD PUSH1 0x3 ADD DUP2 SWAP1 SSTORE POP DUP3 PUSH1 0x12 DUP10 DUP2 SLOAD DUP2 LT PUSH2 0x16FA JUMPI PUSH2 0x16F9 PUSH2 0x525B JUMP JUMPDEST JUMPDEST SWAP1 PUSH1 0x0 MSTORE PUSH1 0x20 PUSH1 0x0 KECCAK256 SWAP1 PUSH1 0x8 MUL ADD PUSH1 0x4 ADD DUP2 SWAP1 SSTORE POP DUP2 PUSH1 0x12 DUP10 DUP2 SLOAD DUP2 LT PUSH2 0x1724 JUMPI PUSH2 0x1723 PUSH2 0x525B JUMP JUMPDEST JUMPDEST SWAP1 PUSH1 0x0 MSTORE PUSH1 0x20 PUSH1 0x0 KECCAK256 SWAP1 PUSH1 0x8 MUL ADD PUSH1 0x5 ADD DUP2 SWAP1 SSTORE POP DUP1 PUSH1 0x12 DUP10 DUP2 SLOAD DUP2 LT PUSH2 0x174E JUMPI PUSH2 0x174D PUSH2 0x525B JUMP JUMPDEST JUMPDEST SWAP1 PUSH1 0x0 MSTORE PUSH1 0x20 PUSH1 0x0 KECCAK256 SWAP1 PUSH1 0x8 MUL ADD PUSH1 0x7 ADD DUP2 SWAP1 SSTORE POP DUP8 PUSH32 0xF4D9A8D86574696337B045A92468004B95E2CB5CFF95AE009B645780626A50CC DUP9 DUP9 PUSH1 0x40 MLOAD PUSH2 0x1795 SWAP3 SWAP2 SWAP1 PUSH2 0x55B4 JUMP JUMPDEST PUSH1 0x40 MLOAD DUP1 SWAP2 SUB SWAP1 LOG2 POP POP POP POP POP POP POP POP JUMP JUMPDEST PUSH1 0x60 PUSH1 0x14 PUSH1 0x0 DUP4 PUSH20 0xFFFFFFFFFFFFFFFFFFFFFFFFFFFFFFFFFFFFFFFF AND PUSH20 0xFFFFFFFFFFFFFFFFFFFFFFFFFFFFFFFFFFFFFFFF AND DUP2 MSTORE PUSH1 0x20 ADD SWAP1 DUP2 MSTORE PUSH1 0x20 ADD PUSH1 0x0 KECCAK256 DUP1 SLOAD DUP1 PUSH1 0x20 MUL PUSH1 0x20 ADD PUSH1 0x40 MLOAD SWAP1 DUP2 ADD PUSH1 0x40 MSTORE DUP1 SWAP3 SWAP2 SWAP1 DUP2 DUP2 MSTORE PUSH1 0x20 ADD DUP3 DUP1 SLOAD DUP1 ISZERO PUSH2 0x1832 JUMPI PUSH1 0x20 MUL DUP3 ADD SWAP2 SWAP1 PUSH1 0x0 MSTORE PUSH1 0x20 PUSH1 0x0 KECCAK256 SWAP1 JUMPDEST DUP2 SLOAD DUP2 MSTORE PUSH1 0x20 ADD SWAP1 PUSH1 0x1 ADD SWAP1 DUP1 DUP4 GT PUSH2 0x181E JUMPI JUMPDEST POP POP POP POP POP SWAP1 POP SWAP2 SWAP1 POP JUMP JUMPDEST PUSH1 0x0 PUSH1 0x60 DUP1 PUSH1 0x0 DUP1 PUSH1 0x0 PUSH1 0x60 PUSH2 0x1852 PUSH2 0x2596 JUMP JUMPDEST PUSH2 0x185A PUSH2 0x25D1 JUMP JUMPDEST CHAINID ADDRESS PUSH1 0x0 DUP1 SHL PUSH1 0x0 PUSH8 0xFFFFFFFFFFFFFFFF DUP2 GT ISZERO PUSH2 0x187B JUMPI PUSH2 0x187A PUSH2 0x4F70 JUMP JUMPDEST JUMPDEST PUSH1 0x40 MLOAD SWAP1 DUP1 DUP3 MSTORE DUP1 PUSH1 0x20 MUL PUSH1 0x20 ADD DUP3 ADD PUSH1 0x40 MSTORE DUP1 ISZERO PUSH2 0x18A9 JUMPI DUP2 PUSH1 0x20 ADD PUSH1 0x20 DUP3 MUL DUP1 CALLDATASIZE DUP4 CALLDATACOPY DUP1 DUP3 ADD SWAP2 POP POP SWAP1 POP JUMPDEST POP PUSH32 0xF00000000000000000000000000000000000000000000000000000000000000 SWAP6 SWAP5 SWAP4 SWAP3 SWAP2 SWAP1 SWAP7 POP SWAP7 POP SWAP7 POP SWAP7 POP SWAP7 POP SWAP7 POP SWAP7 POP SWAP1 SWAP2 SWAP3 SWAP4 SWAP5 SWAP6 SWAP7 JUMP JUMPDEST PUSH1 0x0 PUSH1 0xD PUSH1 0x0 SWAP1 SLOAD SWAP1 PUSH2 0x100 EXP SWAP1 DIV PUSH20 0xFFFFFFFFFFFFFFFFFFFFFFFFFFFFFFFFFFFFFFFF AND SWAP1 POP SWAP1 JUMP JUMPDEST PUSH1 0x0 DUP1 PUSH2 0x191D PUSH2 0x22D4 JUMP JUMPDEST SWAP2 POP SWAP2 POP PUSH1 0x1 PUSH1 0x2 DUP2 GT ISZERO PUSH2 0x1935 JUMPI PUSH2 0x1934 PUSH2 0x46D6 JUMP JUMPDEST JUMPDEST DUP2 PUSH1 0x0 ADD PUSH1 0x0 SWAP1 SLOAD SWAP1 PUSH2 0x100 EXP SWAP1 DIV PUSH1 0xFF AND PUSH1 0x2 DUP2 GT ISZERO PUSH2 0x1959 JUMPI PUSH2 0x1958 PUSH2 0x46D6 JUMP JUMPDEST JUMPDEST SUB PUSH2 0x1A14 JUMPI PUSH2 0x19D4 DUP5 DUP5 DUP1 DUP1 PUSH1 0x20 MUL PUSH1 0x20 ADD PUSH1 0x40 MLOAD SWAP1 DUP2 ADD PUSH1 0x40 MSTORE DUP1 SWAP4 SWAP3 SWAP2 SWAP1 DUP2 DUP2 MSTORE PUSH1 0x20 ADD DUP4 DUP4 PUSH1 0x20 MUL DUP1 DUP3 DUP5 CALLDATACOPY PUSH1 0x0 DUP2 DUP5 ADD MSTORE PUSH1 0x1F NOT PUSH1 0x1F DUP3 ADD AND SWAP1 POP DUP1 DUP4 ADD SWAP3 POP POP POP POP POP POP POP DUP3 PUSH1 0x7 ADD SLOAD CALLER PUSH1 0x40 MLOAD PUSH1 0x20 ADD PUSH2 0x19B9 SWAP2 SWAP1 PUSH2 0x5691 JUMP JUMPDEST PUSH1 0x40 MLOAD PUSH1 0x20 DUP2 DUP4 SUB SUB DUP2 MSTORE SWAP1 PUSH1 0x40 MSTORE DUP1 MLOAD SWAP1 PUSH1 0x20 ADD KECCAK256 PUSH2 0x260C JUMP JUMPDEST PUSH2 0x1A13 JUMPI PUSH1 0x40 MLOAD PUSH32 0x8C379A000000000000000000000000000000000000000000000000000000000 DUP2 MSTORE PUSH1 0x4 ADD PUSH2 0x1A0A SWAP1 PUSH2 0x56F8 JUMP JUMPDEST PUSH1 0x40 MLOAD DUP1 SWAP2 SUB SWAP1 REVERT JUMPDEST JUMPDEST TIMESTAMP PUSH2 0xE10 DUP9 PUSH2 0x1A23 SWAP2 SWAP1 PUSH2 0x5718 JUMP JUMPDEST LT ISZERO DUP1 ISZERO PUSH2 0x1A31 JUMPI POP TIMESTAMP DUP8 GT ISZERO JUMPDEST PUSH2 0x1A70 JUMPI PUSH1 0x40 MLOAD PUSH32 0x8C379A000000000000000000000000000000000000000000000000000000000 DUP2 MSTORE PUSH1 0x4 ADD PUSH2 0x1A67 SWAP1 PUSH2 0x5798 JUMP JUMPDEST PUSH1 0x40 MLOAD DUP1 SWAP2 SUB SWAP1 REVERT JUMPDEST PUSH1 0x11 PUSH1 0x0 DUP10 DUP2 MSTORE PUSH1 0x20 ADD SWAP1 DUP2 MSTORE PUSH1 0x20 ADD PUSH1 0x0 KECCAK256 PUSH1 0x0 SWAP1 SLOAD SWAP1 PUSH2 0x100 EXP SWAP1 DIV PUSH1 0xFF AND ISZERO PUSH2 0x1AD1 JUMPI PUSH1 0x40 MLOAD PUSH32 0x8C379A000000000000000000000000000000000000000000000000000000000 DUP2 MSTORE PUSH1 0x4 ADD PUSH2 0x1AC8 SWAP1 PUSH2 0x5804 JUMP JUMPDEST PUSH1 0x40 MLOAD DUP1 SWAP2 SUB SWAP1 REVERT JUMPDEST PUSH1 0x0 PUSH32 0xBCD57119BF9B3F112B39ECFB926B57BABF8EA759EF8FB8F953EC0103B2A187F3 CALLER DUP14 DUP14 DUP14 PUSH1 0x40 MLOAD PUSH2 0x1B06 SWAP3 SWAP2 SWAP1 PUSH2 0x5854 JUMP JUMPDEST PUSH1 0x40 MLOAD DUP1 SWAP2 SUB SWAP1 KECCAK256 DUP6 PUSH1 0x1 ADD SLOAD DUP8 DUP15 DUP15 PUSH1 0x40 MLOAD PUSH1 0x20 ADD PUSH2 0x1B2D SWAP9 SWAP8 SWAP7 SWAP6 SWAP5 SWAP4 SWAP3 SWAP2 SWAP1 PUSH2 0x586D JUMP JUMPDEST PUSH1 0x40 MLOAD PUSH1 0x20 DUP2 DUP4 SUB SUB DUP2 MSTORE SWAP1 PUSH1 0x40 MSTORE DUP1 MLOAD SWAP1 PUSH1 0x20 ADD KECCAK256 SWAP1 POP PUSH32 0x0 PUSH20 0xFFFFFFFFFFFFFFFFFFFFFFFFFFFFFFFFFFFFFFFF AND PUSH2 0x1BDB DUP9 DUP9 DUP1 DUP1 PUSH1 0x1F ADD PUSH1 0x20 DUP1 SWAP2 DIV MUL PUSH1 0x20 ADD PUSH1 0x40 MLOAD SWAP1 DUP2 ADD PUSH1 0x40 MSTORE DUP1 SWAP4 SWAP3 SWAP2 SWAP1 DUP2 DUP2 MSTORE PUSH1 0x20 ADD DUP4 DUP4 DUP1 DUP3 DUP5 CALLDATACOPY PUSH1 0x0 DUP2 DUP5 ADD MSTORE PUSH1 0x1F NOT PUSH1 0x1F DUP3 ADD AND SWAP1 POP DUP1 DUP4 ADD SWAP3 POP POP POP POP POP POP POP PUSH2 0x1BCD DUP5 PUSH2 0x2623 JUMP JUMPDEST PUSH2 0x263D SWAP1 SWAP2 SWAP1 PUSH4 0xFFFFFFFF AND JUMP JUMPDEST PUSH20 0xFFFFFFFFFFFFFFFFFFFFFFFFFFFFFFFFFFFFFFFF AND EQ PUSH2 0x1C31 JUMPI PUSH1 0x40 MLOAD PUSH32 0x8C379A000000000000000000000000000000000000000000000000000000000 DUP2 MSTORE PUSH1 0x4 ADD PUSH2 0x1C28 SWAP1 PUSH2 0x5937 JUMP JUMPDEST PUSH1 0x40 MLOAD DUP1 SWAP2 SUB SWAP1 REVERT JUMPDEST DUP2 PUSH1 0x1 ADD SLOAD CALLVALUE EQ PUSH2 0x1C77 JUMPI PUSH1 0x40 MLOAD PUSH32 0x8C379A000000000000000000000000000000000000000000000000000000000 DUP2 MSTORE PUSH1 0x4 ADD PUSH2 0x1C6E SWAP1 PUSH2 0x59A3 JUMP JUMPDEST PUSH1 0x40 MLOAD DUP1 SWAP2 SUB SWAP1 REVERT JUMPDEST PUSH1 0x0 DUP3 PUSH1 0x4 ADD SLOAD EQ DUP1 PUSH2 0x1C91 JUMPI POP DUP2 PUSH1 0x4 ADD SLOAD DUP3 PUSH1 0x6 ADD SLOAD LT JUMPDEST PUSH2 0x1CD0 JUMPI PUSH1 0x40 MLOAD PUSH32 0x8C379A000000000000000000000000000000000000000000000000000000000 DUP2 MSTORE PUSH1 0x4 ADD PUSH2 0x1CC7 SWAP1 PUSH2 0x5A0F JUMP JUMPDEST PUSH1 0x40 MLOAD DUP1 SWAP2 SUB SWAP1 REVERT JUMPDEST PUSH1 0x2 DUP1 DUP2 GT ISZERO PUSH2 0x1CE3 JUMPI PUSH2 0x1CE2 PUSH2 0x46D6 JUMP JUMPDEST JUMPDEST DUP3 PUSH1 0x0 ADD PUSH1 0x0 SWAP1 SLOAD SWAP1 PUSH2 0x100 EXP SWAP1 DIV PUSH1 0xFF AND PUSH1 0x2 DUP2 GT ISZERO PUSH2 0x1D07 JUMPI PUSH2 0x1D06 PUSH2 0x46D6 JUMP JUMPDEST JUMPDEST EQ DUP1 ISZERO PUSH2 0x1D18 JUMPI POP PUSH1 0x0 DUP3 PUSH1 0x5 ADD SLOAD EQ JUMPDEST DUP1 PUSH2 0x1DAB JUMPI POP DUP2 PUSH1 0x5 ADD SLOAD PUSH1 0x13 PUSH1 0x0 CALLER PUSH20 0xFFFFFFFFFFFFFFFFFFFFFFFFFFFFFFFFFFFFFFFF AND PUSH20 0xFFFFFFFFFFFFFFFFFFFFFFFFFFFFFFFFFFFFFFFF AND DUP2 MSTORE PUSH1 0x20 ADD SWAP1 DUP2 MSTORE PUSH1 0x20 ADD PUSH1 0x0 KECCAK256 PUSH1 0x0 DUP5 PUSH1 0x0 ADD PUSH1 0x0 SWAP1 SLOAD SWAP1 PUSH2 0x100 EXP SWAP1 DIV PUSH1 0xFF AND PUSH1 0x2 DUP2 GT ISZERO PUSH2 0x1D88 JUMPI PUSH2 0x1D87 PUSH2 0x46D6 JUMP JUMPDEST JUMPDEST PUSH1 0x2 DUP2 GT ISZERO PUSH2 0x1D9A JUMPI PUSH2 0x1D99 PUSH2 0x46D6 JUMP JUMPDEST JUMPDEST DUP2 MSTORE PUSH1 0x20 ADD SWAP1 DUP2 MSTORE PUSH1 0x20 ADD PUSH1 0x0 KECCAK256 SLOAD LT JUMPDEST PUSH2 0x1DEA JUMPI PUSH1 0x40 MLOAD PUSH32 0x8C379A000000000000000000000000000000000000000000000000000000000 DUP2 MSTORE PUSH1 0x4 ADD PUSH2 0x1DE1 SWAP1 PUSH2 0x5AA1 JUMP JUMPDEST PUSH1 0x40 MLOAD DUP1 SWAP2 SUB SWAP1 REVERT JUMPDEST PUSH1 0x1 PUSH1 0x11 PUSH1 0x0 DUP12 DUP2 MSTORE PUSH1 0x20 ADD SWAP1 DUP2 MSTORE PUSH1 0x20 ADD PUSH1 0x0 KECCAK256 PUSH1 0x0 PUSH2 0x100 EXP DUP2 SLOAD DUP2 PUSH1 0xFF MUL NOT AND SWAP1 DUP4 ISZERO ISZERO MUL OR SWAP1 SSTORE POP PUSH2 0x1E1F CALLVALUE PUSH2 0x2669 JUMP JUMPDEST PUSH2 0x1E29 DUP3 CALLER PUSH2 0x285A JUMP JUMPDEST PUSH2 0x1E35 CALLER DUP14 DUP14 DUP14 PUSH2 0x2913 JUMP JUMPDEST CALLER PUSH20 0xFFFFFFFFFFFFFFFFFFFFFFFFFFFFFFFFFFFFFFFF AND DUP13 PUSH32 0x99F38CF3FEAAD38E0A2E22EF51BDD4FABA32B432520A951248D77057596A425A DUP5 PUSH1 0x0 ADD PUSH1 0x0 SWAP1 SLOAD SWAP1 PUSH2 0x100 EXP SWAP1 DIV PUSH1 0xFF AND PUSH1 0x40 MLOAD PUSH2 0x1E8D SWAP2 SWAP1 PUSH2 0x5AC1 JUMP JUMPDEST PUSH1 0x40 MLOAD DUP1 SWAP2 SUB SWAP1 LOG3 POP POP POP POP POP POP POP POP POP POP POP POP JUMP JUMPDEST PUSH1 0x60 PUSH1 0x1 DUP1 SLOAD PUSH2 0x1EB2 SWAP1 PUSH2 0x522A JUMP JUMPDEST DUP1 PUSH1 0x1F ADD PUSH1 0x20 DUP1 SWAP2 DIV MUL PUSH1 0x20 ADD PUSH1 0x40 MLOAD SWAP1 DUP2 ADD PUSH1 0x40 MSTORE DUP1 SWAP3 SWAP2 SWAP1 DUP2 DUP2 MSTORE PUSH1 0x20 ADD DUP3 DUP1 SLOAD PUSH2 0x1EDE SWAP1 PUSH2 0x522A JUMP JUMPDEST DUP1 ISZERO PUSH2 0x1F2B JUMPI DUP1 PUSH1 0x1F LT PUSH2 0x1F00 JUMPI PUSH2 0x100 DUP1 DUP4 SLOAD DIV MUL DUP4 MSTORE SWAP2 PUSH1 0x20 ADD SWAP2 PUSH2 0x1F2B JUMP JUMPDEST DUP3 ADD SWAP2 SWAP1 PUSH1 0x0 MSTORE PUSH1 0x20 PUSH1 0x0 KECCAK256 SWAP1 JUMPDEST DUP2 SLOAD DUP2 MSTORE SWAP1 PUSH1 0x1 ADD SWAP1 PUSH1 0x20 ADD DUP1 DUP4 GT PUSH2 0x1F0E JUMPI DUP3 SWAP1 SUB PUSH1 0x1F AND DUP3 ADD SWAP2 JUMPDEST POP POP POP POP POP SWAP1 POP SWAP1 JUMP JUMPDEST PUSH2 0x1F47 PUSH2 0x1F40 PUSH2 0x22BA JUMP JUMPDEST DUP4 DUP4 PUSH2 0x297E JUMP JUMPDEST POP POP JUMP JUMPDEST PUSH2 0x1F56 DUP5 DUP5 DUP5 PUSH2 0xAEF JUMP JUMPDEST PUSH2 0x1F6A PUSH2 0x1F61 PUSH2 0x22BA JUMP JUMPDEST DUP6 DUP6 DUP6 DUP6 PUSH2 0x2AED JUMP JUMPDEST POP POP POP POP JUMP JUMPDEST PUSH1 0x60 PUSH2 0x1F7B DUP3 PUSH2 0x2C9E JUMP JUMPDEST SWAP1 POP SWAP2 SWAP1 POP JUMP JUMPDEST PUSH1 0x15 PUSH1 0x0 SWAP1 SLOAD SWAP1 PUSH2 0x100 EXP SWAP1 DIV PUSH12 0xFFFFFFFFFFFFFFFFFFFFFFFF AND DUP2 JUMP JUMPDEST PUSH1 0x0 PUSH1 0x12 DUP1 SLOAD SWAP1 POP SWAP1 POP SWAP1 JUMP JUMPDEST PUSH1 0x0 PUSH1 0x5 PUSH1 0x0 DUP5 PUSH20 0xFFFFFFFFFFFFFFFFFFFFFFFFFFFFFFFFFFFFFFFF AND PUSH20 0xFFFFFFFFFFFFFFFFFFFFFFFFFFFFFFFFFFFFFFFF AND DUP2 MSTORE PUSH1 0x20 ADD SWAP1 DUP2 MSTORE PUSH1 0x20 ADD PUSH1 0x0 KECCAK256 PUSH1 0x0 DUP4 PUSH20 0xFFFFFFFFFFFFFFFFFFFFFFFFFFFFFFFFFFFFFFFF AND PUSH20 0xFFFFFFFFFFFFFFFFFFFFFFFFFFFFFFFFFFFFFFFF AND DUP2 MSTORE PUSH1 0x20 ADD SWAP1 DUP2 MSTORE PUSH1 0x20 ADD PUSH1 0x0 KECCAK256 PUSH1 0x0 SWAP1 SLOAD SWAP1 PUSH2 0x100 EXP SWAP1 DIV PUSH1 0xFF AND SWAP1 POP SWAP3 SWAP2 POP POP JUMP JUMPDEST PUSH1 0x15 PUSH1 0xC SWAP1 SLOAD SWAP1 PUSH2 0x100 EXP SWAP1 DIV PUSH20 0xFFFFFFFFFFFFFFFFFFFFFFFFFFFFFFFFFFFFFFFF AND DUP2 JUMP JUMPDEST PUSH1 0x0 PUSH2 0x2071 PUSH2 0x2DB1 JUMP JUMPDEST SWAP1 POP SWAP1 JUMP JUMPDEST PUSH2 0x207E PUSH2 0x2449 JUMP JUMPDEST PUSH1 0x0 PUSH20 0xFFFFFFFFFFFFFFFFFFFFFFFFFFFFFFFFFFFFFFFF AND DUP2 PUSH20 0xFFFFFFFFFFFFFFFFFFFFFFFFFFFFFFFFFFFFFFFF AND SUB PUSH2 0x20F0 JUMPI PUSH1 0x0 PUSH1 0x40 MLOAD PUSH32 0x1E4FBDF700000000000000000000000000000000000000000000000000000000 DUP2 MSTORE PUSH1 0x4 ADD PUSH2 0x20E7 SWAP2 SWAP1 PUSH2 0x4625 JUMP JUMPDEST PUSH1 0x40 MLOAD DUP1 SWAP2 SUB SWAP1 REVERT JUMPDEST PUSH2 0x20F9 DUP2 PUSH2 0x24D0 JUMP JUMPDEST POP JUMP JUMPDEST PUSH1 0x0 PUSH1 0x13 PUSH1 0x0 DUP5 PUSH20 0xFFFFFFFFFFFFFFFFFFFFFFFFFFFFFFFFFFFFFFFF AND PUSH20 0xFFFFFFFFFFFFFFFFFFFFFFFFFFFFFFFFFFFFFFFF AND DUP2 MSTORE PUSH1 0x20 ADD SWAP1 DUP2 MSTORE PUSH1 0x20 ADD PUSH1 0x0 KECCAK256 PUSH1 0x0 DUP4 PUSH1 0x2 DUP2 GT ISZERO PUSH2 0x2152 JUMPI PUSH2 0x2151 PUSH2 0x46D6 JUMP JUMPDEST JUMPDEST PUSH1 0x2 DUP2 GT ISZERO PUSH2 0x2164 JUMPI PUSH2 0x2163 PUSH2 0x46D6 JUMP JUMPDEST JUMPDEST DUP2 MSTORE PUSH1 0x20 ADD SWAP1 DUP2 MSTORE PUSH1 0x20 ADD PUSH1 0x0 KECCAK256 SLOAD SWAP1 POP SWAP3 SWAP2 POP POP JUMP JUMPDEST PUSH1 0x0 PUSH32 0x2A55205A00000000000000000000000000000000000000000000000000000000 PUSH28 0xFFFFFFFFFFFFFFFFFFFFFFFFFFFFFFFFFFFFFFFFFFFFFFFFFFFFFFFF NOT AND DUP3 PUSH28 0xFFFFFFFFFFFFFFFFFFFFFFFFFFFFFFFFFFFFFFFFFFFFFFFFFFFFFFFF NOT AND EQ DUP1 PUSH2 0x21EE JUMPI POP PUSH2 0x21ED DUP3 PUSH2 0x2E68 JUMP JUMPDEST JUMPDEST SWAP1 POP SWAP2 SWAP1 POP JUMP JUMPDEST PUSH1 0x0 DUP1 PUSH2 0x2201 DUP4 PUSH2 0x2EC9 JUMP JUMPDEST SWAP1 POP PUSH1 0x0 PUSH20 0xFFFFFFFFFFFFFFFFFFFFFFFFFFFFFFFFFFFFFFFF AND DUP2 PUSH20 0xFFFFFFFFFFFFFFFFFFFFFFFFFFFFFFFFFFFFFFFF AND SUB PUSH2 0x2274 JUMPI DUP3 PUSH1 0x40 MLOAD PUSH32 0x7E27328900000000000000000000000000000000000000000000000000000000 DUP2 MSTORE PUSH1 0x4 ADD PUSH2 0x226B SWAP2 SWAP1 PUSH2 0x46BB JUMP JUMPDEST PUSH1 0x40 MLOAD DUP1 SWAP2 SUB SWAP1 REVERT JUMPDEST DUP1 SWAP2 POP POP SWAP2 SWAP1 POP JUMP JUMPDEST PUSH1 0x0 PUSH1 0x4 PUSH1 0x0 DUP4 DUP2 MSTORE PUSH1 0x20 ADD SWAP1 DUP2 MSTORE PUSH1 0x20 ADD PUSH1 0x0 KECCAK256 PUSH1 0x0 SWAP1 SLOAD SWAP1 PUSH2 0x100 EXP SWAP1 DIV PUSH20 0xFFFFFFFFFFFFFFFFFFFFFFFFFFFFFFFFFFFFFFFF AND SWAP1 POP SWAP2 SWAP1 POP JUMP JUMPDEST PUSH1 0x0 CALLER SWAP1 POP SWAP1 JUMP JUMPDEST PUSH2 0x22CF DUP4 DUP4 DUP4 PUSH1 0x1 PUSH2 0x2F06 JUMP JUMPDEST POP POP POP JUMP JUMPDEST PUSH1 0x0 DUP1 PUSH1 0x0 TIMESTAMP SWAP1 POP PUSH1 0x0 JUMPDEST PUSH1 0x12 DUP1 SLOAD SWAP1 POP DUP2 LT ISZERO PUSH2 0x23E9 JUMPI PUSH1 0x0 PUSH1 0x2 DUP2 GT ISZERO PUSH2 0x2300 JUMPI PUSH2 0x22FF PUSH2 0x46D6 JUMP JUMPDEST JUMPDEST PUSH1 0x12 DUP3 DUP2 SLOAD DUP2 LT PUSH2 0x2314 JUMPI PUSH2 0x2313 PUSH2 0x525B JUMP JUMPDEST JUMPDEST SWAP1 PUSH1 0x0 MSTORE PUSH1 0x20 PUSH1 0x0 KECCAK256 SWAP1 PUSH1 0x8 MUL ADD PUSH1 0x0 ADD PUSH1 0x0 SWAP1 SLOAD SWAP1 PUSH2 0x100 EXP SWAP1 DIV PUSH1 0xFF AND PUSH1 0x2 DUP2 GT ISZERO PUSH2 0x2345 JUMPI PUSH2 0x2344 PUSH2 0x46D6 JUMP JUMPDEST JUMPDEST EQ ISZERO DUP1 ISZERO PUSH2 0x2378 JUMPI POP PUSH1 0x12 DUP2 DUP2 SLOAD DUP2 LT PUSH2 0x2362 JUMPI PUSH2 0x2361 PUSH2 0x525B JUMP JUMPDEST JUMPDEST SWAP1 PUSH1 0x0 MSTORE PUSH1 0x20 PUSH1 0x0 KECCAK256 SWAP1 PUSH1 0x8 MUL ADD PUSH1 0x2 ADD SLOAD DUP3 LT ISZERO JUMPDEST DUP1 ISZERO PUSH2 0x23A9 JUMPI POP PUSH1 0x12 DUP2 DUP2 SLOAD DUP2 LT PUSH2 0x2393 JUMPI PUSH2 0x2392 PUSH2 0x525B JUMP JUMPDEST JUMPDEST SWAP1 PUSH1 0x0 MSTORE PUSH1 0x20 PUSH1 0x0 KECCAK256 SWAP1 PUSH1 0x8 MUL ADD PUSH1 0x3 ADD SLOAD DUP3 GT ISZERO JUMPDEST ISZERO PUSH2 0x23DC JUMPI DUP1 PUSH1 0x12 DUP3 DUP2 SLOAD DUP2 LT PUSH2 0x23C3 JUMPI PUSH2 0x23C2 PUSH2 0x525B JUMP JUMPDEST JUMPDEST SWAP1 PUSH1 0x0 MSTORE PUSH1 0x20 PUSH1 0x0 KECCAK256 SWAP1 PUSH1 0x8 MUL ADD SWAP4 POP SWAP4 POP POP POP PUSH2 0x2425 JUMP JUMPDEST DUP1 DUP1 PUSH1 0x1 ADD SWAP2 POP POP PUSH2 0x22DF JUMP JUMPDEST POP PUSH1 0x40 MLOAD PUSH32 0x8C379A000000000000000000000000000000000000000000000000000000000 DUP2 MSTORE PUSH1 0x4 ADD PUSH2 0x241C SWAP1 PUSH2 0x5B28 JUMP JUMPDEST PUSH1 0x40 MLOAD DUP1 SWAP2 SUB SWAP1 REVERT JUMPDEST SWAP1 SWAP2 JUMP JUMPDEST PUSH1 0x0 PUSH2 0x2436 DUP5 DUP5 DUP5 PUSH2 0x30CB JUMP JUMPDEST SWAP1 POP SWAP4 SWAP3 POP POP POP JUMP JUMPDEST PUSH1 0x0 PUSH2 0x2710 SWAP1 POP SWAP1 JUMP JUMPDEST PUSH2 0x2451 PUSH2 0x22BA JUMP JUMPDEST PUSH20 0xFFFFFFFFFFFFFFFFFFFFFFFFFFFFFFFFFFFFFFFF AND PUSH2 0x246F PUSH2 0x18E8 JUMP JUMPDEST PUSH20 0xFFFFFFFFFFFFFFFFFFFFFFFFFFFFFFFFFFFFFFFF AND EQ PUSH2 0x24CE JUMPI PUSH2 0x2492 PUSH2 0x22BA JUMP JUMPDEST PUSH1 0x40 MLOAD PUSH32 0x118CDAA700000000000000000000000000000000000000000000000000000000 DUP2 MSTORE PUSH1 0x4 ADD PUSH2 0x24C5 SWAP2 SWAP1 PUSH2 0x4625 JUMP JUMPDEST PUSH1 0x40 MLOAD DUP1 SWAP2 SUB SWAP1 REVERT JUMPDEST JUMP JUMPDEST PUSH1 0x0 PUSH1 0xD PUSH1 0x0 SWAP1 SLOAD SWAP1 PUSH2 0x100 EXP SWAP1 DIV PUSH20 0xFFFFFFFFFFFFFFFFFFFFFFFFFFFFFFFFFFFFFFFF AND SWAP1 POP DUP2 PUSH1 0xD PUSH1 0x0 PUSH2 0x100 EXP DUP2 SLOAD DUP2 PUSH20 0xFFFFFFFFFFFFFFFFFFFFFFFFFFFFFFFFFFFFFFFF MUL NOT AND SWAP1 DUP4 PUSH20 0xFFFFFFFFFFFFFFFFFFFFFFFFFFFFFFFFFFFFFFFF AND MUL OR SWAP1 SSTORE POP DUP2 PUSH20 0xFFFFFFFFFFFFFFFFFFFFFFFFFFFFFFFFFFFFFFFF AND DUP2 PUSH20 0xFFFFFFFFFFFFFFFFFFFFFFFFFFFFFFFFFFFFFFFF AND PUSH32 0x8BE0079C531659141344CD1FD0A4F28419497F9722A3DAAFE3B4186F6B6457E0 PUSH1 0x40 MLOAD PUSH1 0x40 MLOAD DUP1 SWAP2 SUB SWAP1 LOG3 POP POP JUMP JUMPDEST PUSH1 0x60 PUSH2 0x25CC PUSH1 0xE PUSH32 0x0 PUSH2 0x31E8 SWAP1 SWAP2 SWAP1 PUSH4 0xFFFFFFFF AND JUMP JUMPDEST SWAP1 POP SWAP1 JUMP JUMPDEST PUSH1 0x60 PUSH2 0x2607 PUSH1 0xF PUSH32 0x0 PUSH2 0x31E8 SWAP1 SWAP2 SWAP1 PUSH4 0xFFFFFFFF AND JUMP JUMPDEST SWAP1 POP SWAP1 JUMP JUMPDEST PUSH1 0x0 DUP3 PUSH2 0x2619 DUP6 DUP5 PUSH2 0x3298 JUMP JUMPDEST EQ SWAP1 POP SWAP4 SWAP3 POP POP POP JUMP JUMPDEST PUSH1 0x0 PUSH2 0x2636 PUSH2 0x2630 PUSH2 0x2DB1 JUMP JUMPDEST DUP4 PUSH2 0x32E8 JUMP JUMPDEST SWAP1 POP SWAP2 SWAP1 POP JUMP JUMPDEST PUSH1 0x0 DUP1 PUSH1 0x0 DUP1 PUSH2 0x264D DUP7 DUP7 PUSH2 0x3329 JUMP JUMPDEST SWAP3 POP SWAP3 POP SWAP3 POP PUSH2 0x265D DUP3 DUP3 PUSH2 0x3385 JUMP JUMPDEST DUP3 SWAP4 POP POP POP POP SWAP3 SWAP2 POP POP JUMP JUMPDEST PUSH1 0x0 PUSH2 0x2710 PUSH1 0x15 PUSH1 0x0 SWAP1 SLOAD SWAP1 PUSH2 0x100 EXP SWAP1 DIV PUSH12 0xFFFFFFFFFFFFFFFFFFFFFFFF AND PUSH12 0xFFFFFFFFFFFFFFFFFFFFFFFF AND DUP4 PUSH2 0x26A2 SWAP2 SWAP1 PUSH2 0x52F0 JUMP JUMPDEST PUSH2 0x26AC SWAP2 SWAP1 PUSH2 0x5361 JUMP JUMPDEST SWAP1 POP PUSH1 0x0 DUP2 GT ISZERO PUSH2 0x2787 JUMPI PUSH1 0x0 PUSH1 0x15 PUSH1 0xC SWAP1 SLOAD SWAP1 PUSH2 0x100 EXP SWAP1 DIV PUSH20 0xFFFFFFFFFFFFFFFFFFFFFFFFFFFFFFFFFFFFFFFF AND PUSH20 0xFFFFFFFFFFFFFFFFFFFFFFFFFFFFFFFFFFFFFFFF AND DUP3 PUSH1 0x40 MLOAD PUSH2 0x26FF SWAP1 PUSH2 0x5B6E JUMP JUMPDEST PUSH1 0x0 PUSH1 0x40 MLOAD DUP1 DUP4 SUB DUP2 DUP6 DUP8 GAS CALL SWAP3 POP POP POP RETURNDATASIZE DUP1 PUSH1 0x0 DUP2 EQ PUSH2 0x273C JUMPI PUSH1 0x40 MLOAD SWAP2 POP PUSH1 0x1F NOT PUSH1 0x3F RETURNDATASIZE ADD AND DUP3 ADD PUSH1 0x40 MSTORE RETURNDATASIZE DUP3 MSTORE RETURNDATASIZE PUSH1 0x0 PUSH1 0x20 DUP5 ADD RETURNDATACOPY PUSH2 0x2741 JUMP JUMPDEST PUSH1 0x60 SWAP2 POP JUMPDEST POP POP SWAP1 POP DUP1 PUSH2 0x2785 JUMPI PUSH1 0x40 MLOAD PUSH32 0x8C379A000000000000000000000000000000000000000000000000000000000 DUP2 MSTORE PUSH1 0x4 ADD PUSH2 0x277C SWAP1 PUSH2 0x5BCF JUMP JUMPDEST PUSH1 0x40 MLOAD DUP1 SWAP2 SUB SWAP1 REVERT JUMPDEST POP JUMPDEST PUSH1 0x0 DUP2 DUP4 PUSH2 0x2795 SWAP2 SWAP1 PUSH2 0x5BEF JUMP JUMPDEST SWAP1 POP PUSH1 0x0 DUP2 GT ISZERO PUSH2 0x2855 JUMPI PUSH1 0x0 PUSH2 0x27AA PUSH2 0x18E8 JUMP JUMPDEST PUSH20 0xFFFFFFFFFFFFFFFFFFFFFFFFFFFFFFFFFFFFFFFF AND DUP3 PUSH1 0x40 MLOAD PUSH2 0x27CD SWAP1 PUSH2 0x5B6E JUMP JUMPDEST PUSH1 0x0 PUSH1 0x40 MLOAD DUP1 DUP4 SUB DUP2 DUP6 DUP8 GAS CALL SWAP3 POP POP POP RETURNDATASIZE DUP1 PUSH1 0x0 DUP2 EQ PUSH2 0x280A JUMPI PUSH1 0x40 MLOAD SWAP2 POP PUSH1 0x1F NOT PUSH1 0x3F RETURNDATASIZE ADD AND DUP3 ADD PUSH1 0x40 MSTORE RETURNDATASIZE DUP3 MSTORE RETURNDATASIZE PUSH1 0x0 PUSH1 0x20 DUP5 ADD RETURNDATACOPY PUSH2 0x280F JUMP JUMPDEST PUSH1 0x60 SWAP2 POP JUMPDEST POP POP SWAP1 POP DUP1 PUSH2 0x2853 JUMPI PUSH1 0x40 MLOAD PUSH32 0x8C379A000000000000000000000000000000000000000000000000000000000 DUP2 MSTORE PUSH1 0x4 ADD PUSH2 0x284A SWAP1 PUSH2 0x5C6F JUMP JUMPDEST PUSH1 0x40 MLOAD DUP1 SWAP2 SUB SWAP1 REVERT JUMPDEST POP JUMPDEST POP POP POP JUMP JUMPDEST DUP2 PUSH1 0x6 ADD PUSH1 0x0 DUP2 SLOAD DUP1 SWAP3 SWAP2 SWAP1 PUSH2 0x286F SWAP1 PUSH2 0x5C8F JUMP JUMPDEST SWAP2 SWAP1 POP SSTORE POP PUSH1 0x13 PUSH1 0x0 DUP3 PUSH20 0xFFFFFFFFFFFFFFFFFFFFFFFFFFFFFFFFFFFFFFFF AND PUSH20 0xFFFFFFFFFFFFFFFFFFFFFFFFFFFFFFFFFFFFFFFF AND DUP2 MSTORE PUSH1 0x20 ADD SWAP1 DUP2 MSTORE PUSH1 0x20 ADD PUSH1 0x0 KECCAK256 PUSH1 0x0 DUP4 PUSH1 0x0 ADD PUSH1 0x0 SWAP1 SLOAD SWAP1 PUSH2 0x100 EXP SWAP1 DIV PUSH1 0xFF AND PUSH1 0x2 DUP2 GT ISZERO PUSH2 0x28D9 JUMPI PUSH2 0x28D8 PUSH2 0x46D6 JUMP JUMPDEST JUMPDEST PUSH1 0x2 DUP2 GT ISZERO PUSH2 0x28EB JUMPI PUSH2 0x28EA PUSH2 0x46D6 JUMP JUMPDEST JUMPDEST DUP2 MSTORE PUSH1 0x20 ADD SWAP1 DUP2 MSTORE PUSH1 0x20 ADD PUSH1 0x0 KECCAK256 PUSH1 0x0 DUP2 SLOAD DUP1 SWAP3 SWAP2 SWAP1 PUSH2 0x290A SWAP1 PUSH2 0x5C8F JUMP JUMPDEST SWAP2 SWAP1 POP SSTORE POP POP POP JUMP JUMPDEST PUSH2 0x291D DUP5 DUP5 PUSH2 0x34E9 JUMP JUMPDEST PUSH1 0x0 DUP3 DUP3 SWAP1 POP GT ISZERO PUSH2 0x2978 JUMPI PUSH2 0x2977 DUP4 DUP4 DUP4 DUP1 DUP1 PUSH1 0x1F ADD PUSH1 0x20 DUP1 SWAP2 DIV MUL PUSH1 0x20 ADD PUSH1 0x40 MLOAD SWAP1 DUP2 ADD PUSH1 0x40 MSTORE DUP1 SWAP4 SWAP3 SWAP2 SWAP1 DUP2 DUP2 MSTORE PUSH1 0x20 ADD DUP4 DUP4 DUP1 DUP3 DUP5 CALLDATACOPY PUSH1 0x0 DUP2 DUP5 ADD MSTORE PUSH1 0x1F NOT PUSH1 0x1F DUP3 ADD AND SWAP1 POP DUP1 DUP4 ADD SWAP3 POP POP POP POP POP POP POP PUSH2 0x3507 JUMP JUMPDEST JUMPDEST POP POP POP POP JUMP JUMPDEST PUSH1 0x0 PUSH20 0xFFFFFFFFFFFFFFFFFFFFFFFFFFFFFFFFFFFFFFFF AND DUP3 PUSH20 0xFFFFFFFFFFFFFFFFFFFFFFFFFFFFFFFFFFFFFFFF AND SUB PUSH2 0x29EF JUMPI DUP2 PUSH1 0x40 MLOAD PUSH32 0x5B08BA1800000000000000000000000000000000000000000000000000000000 DUP2 MSTORE PUSH1 0x4 ADD PUSH2 0x29E6 SWAP2 SWAP1 PUSH2 0x4625 JUMP JUMPDEST PUSH1 0x40 MLOAD DUP1 SWAP2 SUB SWAP1 REVERT JUMPDEST DUP1 PUSH1 0x5 PUSH1 0x0 DUP6 PUSH20 0xFFFFFFFFFFFFFFFFFFFFFFFFFFFFFFFFFFFFFFFF AND PUSH20 0xFFFFFFFFFFFFFFFFFFFFFFFFFFFFFFFFFFFFFFFF AND DUP2 MSTORE PUSH1 0x20 ADD SWAP1 DUP2 MSTORE PUSH1 0x20 ADD PUSH1 0x0 KECCAK256 PUSH1 0x0 DUP5 PUSH20 0xFFFFFFFFFFFFFFFFFFFFFFFFFFFFFFFFFFFFFFFF AND PUSH20 0xFFFFFFFFFFFFFFFFFFFFFFFFFFFFFFFFFFFFFFFF AND DUP2 MSTORE PUSH1 0x20 ADD SWAP1 DUP2 MSTORE PUSH1 0x20 ADD PUSH1 0x0 KECCAK256 PUSH1 0x0 PUSH2 0x100 EXP DUP2 SLOAD DUP2 PUSH1 0xFF MUL NOT AND SWAP1 DUP4 ISZERO ISZERO MUL OR SWAP1 SSTORE POP DUP2 PUSH20 0xFFFFFFFFFFFFFFFFFFFFFFFFFFFFFFFFFFFFFFFF AND DUP4 PUSH20 0xFFFFFFFFFFFFFFFFFFFFFFFFFFFFFFFFFFFFFFFF AND PUSH32 0x17307EAB39AB6107E8899845AD3D59BD9653F200F220920489CA2B5937696C31 DUP4 PUSH1 0x40 MLOAD PUSH2 0x2AE0 SWAP2 SWAP1 PUSH2 0x44B4 JUMP JUMPDEST PUSH1 0x40 MLOAD DUP1 SWAP2 SUB SWAP1 LOG3 POP POP POP JUMP JUMPDEST PUSH1 0x0 DUP4 PUSH20 0xFFFFFFFFFFFFFFFFFFFFFFFFFFFFFFFFFFFFFFFF AND EXTCODESIZE GT ISZERO PUSH2 0x2C97 JUMPI DUP3 PUSH20 0xFFFFFFFFFFFFFFFFFFFFFFFFFFFFFFFFFFFFFFFF AND PUSH4 0x150B7A02 DUP7 DUP7 DUP6 DUP6 PUSH1 0x40 MLOAD DUP6 PUSH4 0xFFFFFFFF AND PUSH1 0xE0 SHL DUP2 MSTORE PUSH1 0x4 ADD PUSH2 0x2B4C SWAP5 SWAP4 SWAP3 SWAP2 SWAP1 PUSH2 0x5D2C JUMP JUMPDEST PUSH1 0x20 PUSH1 0x40 MLOAD DUP1 DUP4 SUB DUP2 PUSH1 0x0 DUP8 GAS CALL SWAP3 POP POP POP DUP1 ISZERO PUSH2 0x2B88 JUMPI POP PUSH1 0x40 MLOAD RETURNDATASIZE PUSH1 0x1F NOT PUSH1 0x1F DUP3 ADD AND DUP3 ADD DUP1 PUSH1 0x40 MSTORE POP DUP2 ADD SWAP1 PUSH2 0x2B85 SWAP2 SWAP1 PUSH2 0x5D8D JUMP JUMPDEST PUSH1 0x1 JUMPDEST PUSH2 0x2C0C JUMPI RETURNDATASIZE DUP1 PUSH1 0x0 DUP2 EQ PUSH2 0x2BB8 JUMPI PUSH1 0x40 MLOAD SWAP2 POP PUSH1 0x1F NOT PUSH1 0x3F RETURNDATASIZE ADD AND DUP3 ADD PUSH1 0x40 MSTORE RETURNDATASIZE DUP3 MSTORE RETURNDATASIZE PUSH1 0x0 PUSH1 0x20 DUP5 ADD RETURNDATACOPY PUSH2 0x2BBD JUMP JUMPDEST PUSH1 0x60 SWAP2 POP JUMPDEST POP PUSH1 0x0 DUP2 MLOAD SUB PUSH2 0x2C04 JUMPI DUP4 PUSH1 0x40 MLOAD PUSH32 0x64A0AE9200000000000000000000000000000000000000000000000000000000 DUP2 MSTORE PUSH1 0x4 ADD PUSH2 0x2BFB SWAP2 SWAP1 PUSH2 0x4625 JUMP JUMPDEST PUSH1 0x40 MLOAD DUP1 SWAP2 SUB SWAP1 REVERT JUMPDEST DUP1 MLOAD DUP2 PUSH1 0x20 ADD REVERT JUMPDEST PUSH4 0x150B7A02 PUSH1 0xE0 SHL PUSH28 0xFFFFFFFFFFFFFFFFFFFFFFFFFFFFFFFFFFFFFFFFFFFFFFFFFFFFFFFF NOT AND DUP2 PUSH28 0xFFFFFFFFFFFFFFFFFFFFFFFFFFFFFFFFFFFFFFFFFFFFFFFFFFFFFFFF NOT AND EQ PUSH2 0x2C95 JUMPI DUP4 PUSH1 0x40 MLOAD PUSH32 0x64A0AE9200000000000000000000000000000000000000000000000000000000 DUP2 MSTORE PUSH1 0x4 ADD PUSH2 0x2C8C SWAP2 SWAP1 PUSH2 0x4625 JUMP JUMPDEST PUSH1 0x40 MLOAD DUP1 SWAP2 SUB SWAP1 REVERT JUMPDEST POP JUMPDEST POP POP POP POP POP JUMP JUMPDEST PUSH1 0x60 PUSH2 0x2CA9 DUP3 PUSH2 0x21F5 JUMP JUMPDEST POP PUSH1 0x0 PUSH1 0xA PUSH1 0x0 DUP5 DUP2 MSTORE PUSH1 0x20 ADD SWAP1 DUP2 MSTORE PUSH1 0x20 ADD PUSH1 0x0 KECCAK256 DUP1 SLOAD PUSH2 0x2CCA SWAP1 PUSH2 0x522A JUMP JUMPDEST DUP1 PUSH1 0x1F ADD PUSH1 0x20 DUP1 SWAP2 DIV MUL PUSH1 0x20 ADD PUSH1 0x40 MLOAD SWAP1 DUP2 ADD PUSH1 0x40 MSTORE DUP1 SWAP3 SWAP2 SWAP1 DUP2 DUP2 MSTORE PUSH1 0x20 ADD DUP3 DUP1 SLOAD PUSH2 0x2CF6 SWAP1 PUSH2 0x522A JUMP JUMPDEST DUP1 ISZERO PUSH2 0x2D43 JUMPI DUP1 PUSH1 0x1F LT PUSH2 0x2D18 JUMPI PUSH2 0x100 DUP1 DUP4 SLOAD DIV MUL DUP4 MSTORE SWAP2 PUSH1 0x20 ADD SWAP2 PUSH2 0x2D43 JUMP JUMPDEST DUP3 ADD SWAP2 SWAP1 PUSH1 0x0 MSTORE PUSH1 0x20 PUSH1 0x0 KECCAK256 SWAP1 JUMPDEST DUP2 SLOAD DUP2 MSTORE SWAP1 PUSH1 0x1 ADD SWAP1 PUSH1 0x20 ADD DUP1 DUP4 GT PUSH2 0x2D26 JUMPI DUP3 SWAP1 SUB PUSH1 0x1F AND DUP3 ADD SWAP2 JUMPDEST POP POP POP POP POP SWAP1 POP PUSH1 0x0 PUSH2 0x2D54 PUSH2 0x3563 JUMP JUMPDEST SWAP1 POP PUSH1 0x0 DUP2 MLOAD SUB PUSH2 0x2D69 JUMPI DUP2 SWAP3 POP POP POP PUSH2 0x2DAC JUMP JUMPDEST PUSH1 0x0 DUP3 MLOAD GT ISZERO PUSH2 0x2D9E JUMPI DUP1 DUP3 PUSH1 0x40 MLOAD PUSH1 0x20 ADD PUSH2 0x2D86 SWAP3 SWAP2 SWAP1 PUSH2 0x5DF6 JUMP JUMPDEST PUSH1 0x40 MLOAD PUSH1 0x20 DUP2 DUP4 SUB SUB DUP2 MSTORE SWAP1 PUSH1 0x40 MSTORE SWAP3 POP POP POP PUSH2 0x2DAC JUMP JUMPDEST PUSH2 0x2DA7 DUP5 PUSH2 0x357A JUMP JUMPDEST SWAP3 POP POP POP JUMPDEST SWAP2 SWAP1 POP JUMP JUMPDEST PUSH1 0x0 PUSH32 0x0 PUSH20 0xFFFFFFFFFFFFFFFFFFFFFFFFFFFFFFFFFFFFFFFF AND ADDRESS PUSH20 0xFFFFFFFFFFFFFFFFFFFFFFFFFFFFFFFFFFFFFFFF AND EQ DUP1 ISZERO PUSH2 0x2E2D JUMPI POP PUSH32 0x0 CHAINID EQ JUMPDEST ISZERO PUSH2 0x2E5A JUMPI PUSH32 0x0 SWAP1 POP PUSH2 0x2E65 JUMP JUMPDEST PUSH2 0x2E62 PUSH2 0x35E3 JUMP JUMPDEST SWAP1 POP JUMPDEST SWAP1 JUMP JUMPDEST PUSH1 0x0 PUSH4 0x49064906 PUSH1 0xE0 SHL PUSH28 0xFFFFFFFFFFFFFFFFFFFFFFFFFFFFFFFFFFFFFFFFFFFFFFFFFFFFFFFF NOT AND DUP3 PUSH28 0xFFFFFFFFFFFFFFFFFFFFFFFFFFFFFFFFFFFFFFFFFFFFFFFFFFFFFFFF NOT AND EQ DUP1 PUSH2 0x2EC2 JUMPI POP PUSH2 0x2EC1 DUP3 PUSH2 0x3679 JUMP JUMPDEST JUMPDEST SWAP1 POP SWAP2 SWAP1 POP JUMP JUMPDEST PUSH1 0x0 PUSH1 0x2 PUSH1 0x0 DUP4 DUP2 MSTORE PUSH1 0x20 ADD SWAP1 DUP2 MSTORE PUSH1 0x20 ADD PUSH1 0x0 KECCAK256 PUSH1 0x0 SWAP1 SLOAD SWAP1 PUSH2 0x100 EXP SWAP1 DIV PUSH20 0xFFFFFFFFFFFFFFFFFFFFFFFFFFFFFFFFFFFFFFFF AND SWAP1 POP SWAP2 SWAP1 POP JUMP JUMPDEST DUP1 DUP1 PUSH2 0x2F3F JUMPI POP PUSH1 0x0 PUSH20 0xFFFFFFFFFFFFFFFFFFFFFFFFFFFFFFFFFFFFFFFF AND DUP3 PUSH20 0xFFFFFFFFFFFFFFFFFFFFFFFFFFFFFFFFFFFFFFFF AND EQ ISZERO JUMPDEST ISZERO PUSH2 0x3073 JUMPI PUSH1 0x0 PUSH2 0x2F4F DUP5 PUSH2 0x21F5 JUMP JUMPDEST SWAP1 POP PUSH1 0x0 PUSH20 0xFFFFFFFFFFFFFFFFFFFFFFFFFFFFFFFFFFFFFFFF AND DUP4 PUSH20 0xFFFFFFFFFFFFFFFFFFFFFFFFFFFFFFFFFFFFFFFF AND EQ ISZERO DUP1 ISZERO PUSH2 0x2FBA JUMPI POP DUP3 PUSH20 0xFFFFFFFFFFFFFFFFFFFFFFFFFFFFFFFFFFFFFFFF AND DUP2 PUSH20 0xFFFFFFFFFFFFFFFFFFFFFFFFFFFFFFFFFFFFFFFF AND EQ ISZERO JUMPDEST DUP1 ISZERO PUSH2 0x2FCD JUMPI POP PUSH2 0x2FCB DUP2 DUP5 PUSH2 0x1FAD JUMP JUMPDEST ISZERO JUMPDEST ISZERO PUSH2 0x300F JUMPI DUP3 PUSH1 0x40 MLOAD PUSH32 0xA9FBF51F00000000000000000000000000000000000000000000000000000000 DUP2 MSTORE PUSH1 0x4 ADD PUSH2 0x3006 SWAP2 SWAP1 PUSH2 0x4625 JUMP JUMPDEST PUSH1 0x40 MLOAD DUP1 SWAP2 SUB SWAP1 REVERT JUMPDEST DUP2 ISZERO PUSH2 0x3071 JUMPI DUP4 DUP6 PUSH20 0xFFFFFFFFFFFFFFFFFFFFFFFFFFFFFFFFFFFFFFFF AND DUP3 PUSH20 0xFFFFFFFFFFFFFFFFFFFFFFFFFFFFFFFFFFFFFFFF AND PUSH32 0x8C5BE1E5EBEC7D5BD14F71427D1E84F3DD0314C0F7B2291E5B200AC8C7C3B925 PUSH1 0x40 MLOAD PUSH1 0x40 MLOAD DUP1 SWAP2 SUB SWAP1 LOG4 JUMPDEST POP JUMPDEST DUP4 PUSH1 0x4 PUSH1 0x0 DUP6 DUP2 MSTORE PUSH1 0x20 ADD SWAP1 DUP2 MSTORE PUSH1 0x20 ADD PUSH1 0x0 KECCAK256 PUSH1 0x0 PUSH2 0x100 EXP DUP2 SLOAD DUP2 PUSH20 0xFFFFFFFFFFFFFFFFFFFFFFFFFFFFFFFFFFFFFFFF MUL NOT AND SWAP1 DUP4 PUSH20 0xFFFFFFFFFFFFFFFFFFFFFFFFFFFFFFFFFFFFFFFF AND MUL OR SWAP1 SSTORE POP POP POP POP POP JUMP JUMPDEST PUSH1 0x0 DUP1 PUSH2 0x30D9 DUP6 DUP6 DUP6 PUSH2 0x36F3 JUMP JUMPDEST SWAP1 POP PUSH1 0x0 PUSH20 0xFFFFFFFFFFFFFFFFFFFFFFFFFFFFFFFFFFFFFFFF AND DUP2 PUSH20 0xFFFFFFFFFFFFFFFFFFFFFFFFFFFFFFFFFFFFFFFF AND SUB PUSH2 0x311D JUMPI PUSH2 0x3118 DUP5 PUSH2 0x390D JUMP JUMPDEST PUSH2 0x315C JUMP JUMPDEST DUP5 PUSH20 0xFFFFFFFFFFFFFFFFFFFFFFFFFFFFFFFFFFFFFFFF AND DUP2 PUSH20 0xFFFFFFFFFFFFFFFFFFFFFFFFFFFFFFFFFFFFFFFF AND EQ PUSH2 0x315B JUMPI PUSH2 0x315A DUP2 DUP6 PUSH2 0x3956 JUMP JUMPDEST JUMPDEST JUMPDEST PUSH1 0x0 PUSH20 0xFFFFFFFFFFFFFFFFFFFFFFFFFFFFFFFFFFFFFFFF AND DUP6 PUSH20 0xFFFFFFFFFFFFFFFFFFFFFFFFFFFFFFFFFFFFFFFF AND SUB PUSH2 0x319E JUMPI PUSH2 0x3199 DUP5 PUSH2 0x3A41 JUMP JUMPDEST PUSH2 0x31DD JUMP JUMPDEST DUP5 PUSH20 0xFFFFFFFFFFFFFFFFFFFFFFFFFFFFFFFFFFFFFFFF AND DUP2 PUSH20 0xFFFFFFFFFFFFFFFFFFFFFFFFFFFFFFFFFFFFFFFF AND EQ PUSH2 0x31DC JUMPI PUSH2 0x31DB DUP6 DUP6 PUSH2 0x3B12 JUMP JUMPDEST JUMPDEST JUMPDEST DUP1 SWAP2 POP POP SWAP4 SWAP3 POP POP POP JUMP JUMPDEST PUSH1 0x60 PUSH1 0xFF PUSH1 0x0 SHL DUP4 EQ PUSH2 0x3205 JUMPI PUSH2 0x31FE DUP4 PUSH2 0x3B9D JUMP JUMPDEST SWAP1 POP PUSH2 0x3292 JUMP JUMPDEST DUP2 DUP1 SLOAD PUSH2 0x3211 SWAP1 PUSH2 0x522A JUMP JUMPDEST DUP1 PUSH1 0x1F ADD PUSH1 0x20 DUP1 SWAP2 DIV MUL PUSH1 0x20 ADD PUSH1 0x40 MLOAD SWAP1 DUP2 ADD PUSH1 0x40 MSTORE DUP1 SWAP3 SWAP2 SWAP1 DUP2 DUP2 MSTORE PUSH1 0x20 ADD DUP3 DUP1 SLOAD PUSH2 0x323D SWAP1 PUSH2 0x522A JUMP JUMPDEST DUP1 ISZERO PUSH2 0x328A JUMPI DUP1 PUSH1 0x1F LT PUSH2 0x325F JUMPI PUSH2 0x100 DUP1 DUP4 SLOAD DIV MUL DUP4 MSTORE SWAP2 PUSH1 0x20 ADD SWAP2 PUSH2 0x328A JUMP JUMPDEST DUP3 ADD SWAP2 SWAP1 PUSH1 0x0 MSTORE PUSH1 0x20 PUSH1 0x0 KECCAK256 SWAP1 JUMPDEST DUP2 SLOAD DUP2 MSTORE SWAP1 PUSH1 0x1 ADD SWAP1 PUSH1 0x20 ADD DUP1 DUP4 GT PUSH2 0x326D JUMPI DUP3 SWAP1 SUB PUSH1 0x1F AND DUP3 ADD SWAP2 JUMPDEST POP POP POP POP POP SWAP1 POP JUMPDEST SWAP3 SWAP2 POP POP JUMP JUMPDEST PUSH1 0x0 DUP1 DUP3 SWAP1 POP PUSH1 0x0 JUMPDEST DUP5 MLOAD DUP2 LT ISZERO PUSH2 0x32DD JUMPI PUSH2 0x32CE DUP3 DUP7 DUP4 DUP2 MLOAD DUP2 LT PUSH2 0x32C1 JUMPI PUSH2 0x32C0 PUSH2 0x525B JUMP JUMPDEST JUMPDEST PUSH1 0x20 MUL PUSH1 0x20 ADD ADD MLOAD PUSH2 0x3C11 JUMP JUMPDEST SWAP2 POP DUP1 DUP1 PUSH1 0x1 ADD SWAP2 POP POP PUSH2 0x32A1 JUMP JUMPDEST POP DUP1 SWAP2 POP POP SWAP3 SWAP2 POP POP JUMP JUMPDEST PUSH1 0x0 PUSH1 0x40 MLOAD PUSH32 0x1901000000000000000000000000000000000000000000000000000000000000 DUP2 MSTORE DUP4 PUSH1 0x2 DUP3 ADD MSTORE DUP3 PUSH1 0x22 DUP3 ADD MSTORE PUSH1 0x42 DUP2 KECCAK256 SWAP2 POP POP SWAP3 SWAP2 POP POP JUMP JUMPDEST PUSH1 0x0 DUP1 PUSH1 0x0 PUSH1 0x41 DUP5 MLOAD SUB PUSH2 0x336E JUMPI PUSH1 0x0 DUP1 PUSH1 0x0 PUSH1 0x20 DUP8 ADD MLOAD SWAP3 POP PUSH1 0x40 DUP8 ADD MLOAD SWAP2 POP PUSH1 0x60 DUP8 ADD MLOAD PUSH1 0x0 BYTE SWAP1 POP PUSH2 0x3360 DUP9 DUP3 DUP6 DUP6 PUSH2 0x3C3C JUMP JUMPDEST SWAP6 POP SWAP6 POP SWAP6 POP POP POP POP PUSH2 0x337E JUMP JUMPDEST PUSH1 0x0 PUSH1 0x2 DUP6 MLOAD PUSH1 0x0 SHL SWAP3 POP SWAP3 POP SWAP3 POP JUMPDEST SWAP3 POP SWAP3 POP SWAP3 JUMP JUMPDEST PUSH1 0x0 PUSH1 0x3 DUP2 GT ISZERO PUSH2 0x3399 JUMPI PUSH2 0x3398 PUSH2 0x46D6 JUMP JUMPDEST JUMPDEST DUP3 PUSH1 0x3 DUP2 GT ISZERO PUSH2 0x33AC JUMPI PUSH2 0x33AB PUSH2 0x46D6 JUMP JUMPDEST JUMPDEST SUB ISZERO PUSH2 0x34E5 JUMPI PUSH1 0x1 PUSH1 0x3 DUP2 GT ISZERO PUSH2 0x33C6 JUMPI PUSH2 0x33C5 PUSH2 0x46D6 JUMP JUMPDEST JUMPDEST DUP3 PUSH1 0x3 DUP2 GT ISZERO PUSH2 0x33D9 JUMPI PUSH2 0x33D8 PUSH2 0x46D6 JUMP JUMPDEST JUMPDEST SUB PUSH2 0x3410 JUMPI PUSH1 0x40 MLOAD PUSH32 0xF645EEDF00000000000000000000000000000000000000000000000000000000 DUP2 MSTORE PUSH1 0x4 ADD PUSH1 0x40 MLOAD DUP1 SWAP2 SUB SWAP1 REVERT JUMPDEST PUSH1 0x2 PUSH1 0x3 DUP2 GT ISZERO PUSH2 0x3424 JUMPI PUSH2 0x3423 PUSH2 0x46D6 JUMP JUMPDEST JUMPDEST DUP3 PUSH1 0x3 DUP2 GT ISZERO PUSH2 0x3437 JUMPI PUSH2 0x3436 PUSH2 0x46D6 JUMP JUMPDEST JUMPDEST SUB PUSH2 0x347C JUMPI DUP1 PUSH1 0x0 SHR PUSH1 0x40 MLOAD PUSH32 0xFCE698F700000000000000000000000000000000000000000000000000000000 DUP2 MSTORE PUSH1 0x4 ADD PUSH2 0x3473 SWAP2 SWAP1 PUSH2 0x46BB JUMP JUMPDEST PUSH1 0x40 MLOAD DUP1 SWAP2 SUB SWAP1 REVERT JUMPDEST PUSH1 0x3 DUP1 DUP2 GT ISZERO PUSH2 0x348F JUMPI PUSH2 0x348E PUSH2 0x46D6 JUMP JUMPDEST JUMPDEST DUP3 PUSH1 0x3 DUP2 GT ISZERO PUSH2 0x34A2 JUMPI PUSH2 0x34A1 PUSH2 0x46D6 JUMP JUMPDEST JUMPDEST SUB PUSH2 0x34E4 JUMPI DUP1 PUSH1 0x40 MLOAD PUSH32 0xD78BCE0C00000000000000000000000000000000000000000000000000000000 DUP2 MSTORE PUSH1 0x4 ADD PUSH2 0x34DB SWAP2 SWAP1 PUSH2 0x51A0 JUMP JUMPDEST PUSH1 0x40 MLOAD DUP1 SWAP2 SUB SWAP1 REVERT JUMPDEST JUMPDEST POP POP JUMP JUMPDEST PUSH2 0x3503 DUP3 DUP3 PUSH1 0x40 MLOAD DUP1 PUSH1 0x20 ADD PUSH1 0x40 MSTORE DUP1 PUSH1 0x0 DUP2 MSTORE POP PUSH2 0x3D30 JUMP JUMPDEST POP POP JUMP JUMPDEST DUP1 PUSH1 0xA PUSH1 0x0 DUP5 DUP2 MSTORE PUSH1 0x20 ADD SWAP1 DUP2 MSTORE PUSH1 0x20 ADD PUSH1 0x0 KECCAK256 SWAP1 DUP2 PUSH2 0x3527 SWAP2 SWAP1 PUSH2 0x5FC6 JUMP JUMPDEST POP PUSH32 0xF8E1A15ABA9398E019F0B49DF1A4FDE98EE17AE345CB5F6B5E2C27F5033E8CE7 DUP3 PUSH1 0x40 MLOAD PUSH2 0x3557 SWAP2 SWAP1 PUSH2 0x46BB JUMP JUMPDEST PUSH1 0x40 MLOAD DUP1 SWAP2 SUB SWAP1 LOG1 POP POP JUMP JUMPDEST PUSH1 0x60 PUSH1 0x40 MLOAD DUP1 PUSH1 0x20 ADD PUSH1 0x40 MSTORE DUP1 PUSH1 0x0 DUP2 MSTORE POP SWAP1 POP SWAP1 JUMP JUMPDEST PUSH1 0x60 PUSH2 0x3585 DUP3 PUSH2 0x21F5 JUMP JUMPDEST POP PUSH1 0x0 PUSH2 0x3590 PUSH2 0x3563 JUMP JUMPDEST SWAP1 POP PUSH1 0x0 DUP2 MLOAD GT PUSH2 0x35B0 JUMPI PUSH1 0x40 MLOAD DUP1 PUSH1 0x20 ADD PUSH1 0x40 MSTORE DUP1 PUSH1 0x0 DUP2 MSTORE POP PUSH2 0x35DB JUMP JUMPDEST DUP1 PUSH2 0x35BA DUP5 PUSH2 0x3D54 JUMP JUMPDEST PUSH1 0x40 MLOAD PUSH1 0x20 ADD PUSH2 0x35CB SWAP3 SWAP2 SWAP1 PUSH2 0x5DF6 JUMP JUMPDEST PUSH1 0x40 MLOAD PUSH1 0x20 DUP2 DUP4 SUB SUB DUP2 MSTORE SWAP1 PUSH1 0x40 MSTORE JUMPDEST SWAP2 POP POP SWAP2 SWAP1 POP JUMP JUMPDEST PUSH1 0x0 PUSH32 0x8B73C3C69BB8FE3D512ECC4CF759CC79239F7B179B0FFACAA9A75D522B39400F PUSH32 0x0 PUSH32 0x0 CHAINID ADDRESS PUSH1 0x40 MLOAD PUSH1 0x20 ADD PUSH2 0x365E SWAP6 SWAP5 SWAP4 SWAP3 SWAP2 SWAP1 PUSH2 0x6098 JUMP JUMPDEST PUSH1 0x40 MLOAD PUSH1 0x20 DUP2 DUP4 SUB SUB DUP2 MSTORE SWAP1 PUSH1 0x40 MSTORE DUP1 MLOAD SWAP1 PUSH1 0x20 ADD KECCAK256 SWAP1 POP SWAP1 JUMP JUMPDEST PUSH1 0x0 PUSH32 0x780E9D6300000000000000000000000000000000000000000000000000000000 PUSH28 0xFFFFFFFFFFFFFFFFFFFFFFFFFFFFFFFFFFFFFFFFFFFFFFFFFFFFFFFF NOT AND DUP3 PUSH28 0xFFFFFFFFFFFFFFFFFFFFFFFFFFFFFFFFFFFFFFFFFFFFFFFFFFFFFFFF NOT AND EQ DUP1 PUSH2 0x36EC JUMPI POP PUSH2 0x36EB DUP3 PUSH2 0x3E22 JUMP JUMPDEST JUMPDEST SWAP1 POP SWAP2 SWAP1 POP JUMP JUMPDEST PUSH1 0x0 DUP1 PUSH2 0x36FF DUP5 PUSH2 0x2EC9 JUMP JUMPDEST SWAP1 POP PUSH1 0x0 PUSH20 0xFFFFFFFFFFFFFFFFFFFFFFFFFFFFFFFFFFFFFFFF AND DUP4 PUSH20 0xFFFFFFFFFFFFFFFFFFFFFFFFFFFFFFFFFFFFFFFF AND EQ PUSH2 0x3741 JUMPI PUSH2 0x3740 DUP2 DUP5 DUP7 PUSH2 0x3F04 JUMP JUMPDEST JUMPDEST PUSH1 0x0 PUSH20 0xFFFFFFFFFFFFFFFFFFFFFFFFFFFFFFFFFFFFFFFF AND DUP2 PUSH20 0xFFFFFFFFFFFFFFFFFFFFFFFFFFFFFFFFFFFFFFFF AND EQ PUSH2 0x37D2 JUMPI PUSH2 0x3783 PUSH1 0x0 DUP6 PUSH1 0x0 DUP1 PUSH2 0x2F06 JUMP JUMPDEST PUSH1 0x1 PUSH1 0x3 PUSH1 0x0 DUP4 PUSH20 0xFFFFFFFFFFFFFFFFFFFFFFFFFFFFFFFFFFFFFFFF AND PUSH20 0xFFFFFFFFFFFFFFFFFFFFFFFFFFFFFFFFFFFFFFFF AND DUP2 MSTORE PUSH1 0x20 ADD SWAP1 DUP2 MSTORE PUSH1 0x20 ADD PUSH1 0x0 KECCAK256 PUSH1 0x0 DUP3 DUP3 SLOAD SUB SWAP3 POP POP DUP2 SWAP1 SSTORE POP JUMPDEST PUSH1 0x0 PUSH20 0xFFFFFFFFFFFFFFFFFFFFFFFFFFFFFFFFFFFFFFFF AND DUP6 PUSH20 0xFFFFFFFFFFFFFFFFFFFFFFFFFFFFFFFFFFFFFFFF AND EQ PUSH2 0x3855 JUMPI PUSH1 0x1 PUSH1 0x3 PUSH1 0x0 DUP8 PUSH20 0xFFFFFFFFFFFFFFFFFFFFFFFFFFFFFFFFFFFFFFFF AND PUSH20 0xFFFFFFFFFFFFFFFFFFFFFFFFFFFFFFFFFFFFFFFF AND DUP2 MSTORE PUSH1 0x20 ADD SWAP1 DUP2 MSTORE PUSH1 0x20 ADD PUSH1 0x0 KECCAK256 PUSH1 0x0 DUP3 DUP3 SLOAD ADD SWAP3 POP POP DUP2 SWAP1 SSTORE POP JUMPDEST DUP5 PUSH1 0x2 PUSH1 0x0 DUP7 DUP2 MSTORE PUSH1 0x20 ADD SWAP1 DUP2 MSTORE PUSH1 0x20 ADD PUSH1 0x0 KECCAK256 PUSH1 0x0 PUSH2 0x100 EXP DUP2 SLOAD DUP2 PUSH20 0xFFFFFFFFFFFFFFFFFFFFFFFFFFFFFFFFFFFFFFFF MUL NOT AND SWAP1 DUP4 PUSH20 0xFFFFFFFFFFFFFFFFFFFFFFFFFFFFFFFFFFFFFFFF AND MUL OR SWAP1 SSTORE POP DUP4 DUP6 PUSH20 0xFFFFFFFFFFFFFFFFFFFFFFFFFFFFFFFFFFFFFFFF AND DUP3 PUSH20 0xFFFFFFFFFFFFFFFFFFFFFFFFFFFFFFFFFFFFFFFF AND PUSH32 0xDDF252AD1BE2C89B69C2B068FC378DAA952BA7F163C4A11628F55A4DF523B3EF PUSH1 0x40 MLOAD PUSH1 0x40 MLOAD DUP1 SWAP2 SUB SWAP1 LOG4 DUP1 SWAP2 POP POP SWAP4 SWAP3 POP POP POP JUMP JUMPDEST PUSH1 0x8 DUP1 SLOAD SWAP1 POP PUSH1 0x9 PUSH1 0x0 DUP4 DUP2 MSTORE PUSH1 0x20 ADD SWAP1 DUP2 MSTORE PUSH1 0x20 ADD PUSH1 0x0 KECCAK256 DUP2 SWAP1 SSTORE POP PUSH1 0x8 DUP2 SWAP1 DUP1 PUSH1 0x1 DUP2 SLOAD ADD DUP1 DUP3 SSTORE DUP1 SWAP2 POP POP PUSH1 0x1 SWAP1 SUB SWAP1 PUSH1 0x0 MSTORE PUSH1 0x20 PUSH1 0x0 KECCAK256 ADD PUSH1 0x0 SWAP1 SWAP2 SWAP1 SWAP2 SWAP1 SWAP2 POP SSTORE POP JUMP JUMPDEST PUSH1 0x0 PUSH2 0x3961 DUP4 PUSH2 0x129E JUMP JUMPDEST SWAP1 POP PUSH1 0x0 PUSH1 0x7 PUSH1 0x0 DUP5 DUP2 MSTORE PUSH1 0x20 ADD SWAP1 DUP2 MSTORE PUSH1 0x20 ADD PUSH1 0x0 KECCAK256 SLOAD SWAP1 POP PUSH1 0x0 PUSH1 0x6 PUSH1 0x0 DUP7 PUSH20 0xFFFFFFFFFFFFFFFFFFFFFFFFFFFFFFFFFFFFFFFF AND PUSH20 0xFFFFFFFFFFFFFFFFFFFFFFFFFFFFFFFFFFFFFFFF AND DUP2 MSTORE PUSH1 0x20 ADD SWAP1 DUP2 MSTORE PUSH1 0x20 ADD PUSH1 0x0 KECCAK256 SWAP1 POP DUP3 DUP3 EQ PUSH2 0x3A0D JUMPI PUSH1 0x0 DUP2 PUSH1 0x0 DUP6 DUP2 MSTORE PUSH1 0x20 ADD SWAP1 DUP2 MSTORE PUSH1 0x20 ADD PUSH1 0x0 KECCAK256 SLOAD SWAP1 POP DUP1 DUP3 PUSH1 0x0 DUP6 DUP2 MSTORE PUSH1 0x20 ADD SWAP1 DUP2 MSTORE PUSH1 0x20 ADD PUSH1 0x0 KECCAK256 DUP2 SWAP1 SSTORE POP DUP3 PUSH1 0x7 PUSH1 0x0 DUP4 DUP2 MSTORE PUSH1 0x20 ADD SWAP1 DUP2 MSTORE PUSH1 0x20 ADD PUSH1 0x0 KECCAK256 DUP2 SWAP1 SSTORE POP POP JUMPDEST PUSH1 0x7 PUSH1 0x0 DUP6 DUP2 MSTORE PUSH1 0x20 ADD SWAP1 DUP2 MSTORE PUSH1 0x20 ADD PUSH1 0x0 KECCAK256 PUSH1 0x0 SWAP1 SSTORE DUP1 PUSH1 0x0 DUP5 DUP2 MSTORE PUSH1 0x20 ADD SWAP1 DUP2 MSTORE PUSH1 0x20 ADD PUSH1 0x0 KECCAK256 PUSH1 0x0 SWAP1 SSTORE POP POP POP POP POP JUMP JUMPDEST PUSH1 0x0 PUSH1 0x1 PUSH1 0x8 DUP1 SLOAD SWAP1 POP PUSH2 0x3A55 SWAP2 SWAP1 PUSH2 0x5BEF JUMP JUMPDEST SWAP1 POP PUSH1 0x0 PUSH1 0x9 PUSH1 0x0 DUP5 DUP2 MSTORE PUSH1 0x20 ADD SWAP1 DUP2 MSTORE PUSH1 0x20 ADD PUSH1 0x0 KECCAK256 SLOAD SWAP1 POP PUSH1 0x0 PUSH1 0x8 DUP4 DUP2 SLOAD DUP2 LT PUSH2 0x3A85 JUMPI PUSH2 0x3A84 PUSH2 0x525B JUMP JUMPDEST JUMPDEST SWAP1 PUSH1 0x0 MSTORE PUSH1 0x20 PUSH1 0x0 KECCAK256 ADD SLOAD SWAP1 POP DUP1 PUSH1 0x8 DUP4 DUP2 SLOAD DUP2 LT PUSH2 0x3AA7 JUMPI PUSH2 0x3AA6 PUSH2 0x525B JUMP JUMPDEST JUMPDEST SWAP1 PUSH1 0x0 MSTORE PUSH1 0x20 PUSH1 0x0 KECCAK256 ADD DUP2 SWAP1 SSTORE POP DUP2 PUSH1 0x9 PUSH1 0x0 DUP4 DUP2 MSTORE PUSH1 0x20 ADD SWAP1 DUP2 MSTORE PUSH1 0x20 ADD PUSH1 0x0 KECCAK256 DUP2 SWAP1 SSTORE POP PUSH1 0x9 PUSH1 0x0 DUP6 DUP2 MSTORE PUSH1 0x20 ADD SWAP1 DUP2 MSTORE PUSH1 0x20 ADD PUSH1 0x0 KECCAK256 PUSH1 0x0 SWAP1 SSTORE PUSH1 0x8 DUP1 SLOAD DUP1 PUSH2 0x3AF6 JUMPI PUSH2 0x3AF5 PUSH2 0x60EB JUMP JUMPDEST JUMPDEST PUSH1 0x1 SWAP1 SUB DUP2 DUP2 SWAP1 PUSH1 0x0 MSTORE PUSH1 0x20 PUSH1 0x0 KECCAK256 ADD PUSH1 0x0 SWAP1 SSTORE SWAP1 SSTORE POP POP POP POP JUMP JUMPDEST PUSH1 0x0 PUSH1 0x1 PUSH2 0x3B1F DUP5 PUSH2 0x129E JUMP JUMPDEST PUSH2 0x3B29 SWAP2 SWAP1 PUSH2 0x5BEF JUMP JUMPDEST SWAP1 POP DUP2 PUSH1 0x6 PUSH1 0x0 DUP6 PUSH20 0xFFFFFFFFFFFFFFFFFFFFFFFFFFFFFFFFFFFFFFFF AND PUSH20 0xFFFFFFFFFFFFFFFFFFFFFFFFFFFFFFFFFFFFFFFF AND DUP2 MSTORE PUSH1 0x20 ADD SWAP1 DUP2 MSTORE PUSH1 0x20 ADD PUSH1 0x0 KECCAK256 PUSH1 0x0 DUP4 DUP2 MSTORE PUSH1 0x20 ADD SWAP1 DUP2 MSTORE PUSH1 0x20 ADD PUSH1 0x0 KECCAK256 DUP2 SWAP1 SSTORE POP DUP1 PUSH1 0x7 PUSH1 0x0 DUP5 DUP2 MSTORE PUSH1 0x20 ADD SWAP1 DUP2 MSTORE PUSH1 0x20 ADD PUSH1 0x0 KECCAK256 DUP2 SWAP1 SSTORE POP POP POP POP JUMP JUMPDEST PUSH1 0x60 PUSH1 0x0 PUSH2 0x3BAA DUP4 PUSH2 0x3FC8 JUMP JUMPDEST SWAP1 POP PUSH1 0x0 PUSH1 0x20 PUSH8 0xFFFFFFFFFFFFFFFF DUP2 GT ISZERO PUSH2 0x3BC9 JUMPI PUSH2 0x3BC8 PUSH2 0x4F70 JUMP JUMPDEST JUMPDEST PUSH1 0x40 MLOAD SWAP1 DUP1 DUP3 MSTORE DUP1 PUSH1 0x1F ADD PUSH1 0x1F NOT AND PUSH1 0x20 ADD DUP3 ADD PUSH1 0x40 MSTORE DUP1 ISZERO PUSH2 0x3BFB JUMPI DUP2 PUSH1 0x20 ADD PUSH1 0x1 DUP3 MUL DUP1 CALLDATASIZE DUP4 CALLDATACOPY DUP1 DUP3 ADD SWAP2 POP POP SWAP1 POP JUMPDEST POP SWAP1 POP DUP2 DUP2 MSTORE DUP4 PUSH1 0x20 DUP3 ADD MSTORE DUP1 SWAP3 POP POP POP SWAP2 SWAP1 POP JUMP JUMPDEST PUSH1 0x0 DUP2 DUP4 LT PUSH2 0x3C29 JUMPI PUSH2 0x3C24 DUP3 DUP5 PUSH2 0x4018 JUMP JUMPDEST PUSH2 0x3C34 JUMP JUMPDEST PUSH2 0x3C33 DUP4 DUP4 PUSH2 0x4018 JUMP JUMPDEST JUMPDEST SWAP1 POP SWAP3 SWAP2 POP POP JUMP JUMPDEST PUSH1 0x0 DUP1 PUSH1 0x0 PUSH32 0x7FFFFFFFFFFFFFFFFFFFFFFFFFFFFFFF5D576E7357A4501DDFE92F46681B20A0 DUP5 PUSH1 0x0 SHR GT ISZERO PUSH2 0x3C7C JUMPI PUSH1 0x0 PUSH1 0x3 DUP6 SWAP3 POP SWAP3 POP SWAP3 POP PUSH2 0x3D26 JUMP JUMPDEST PUSH1 0x0 PUSH1 0x1 DUP9 DUP9 DUP9 DUP9 PUSH1 0x40 MLOAD PUSH1 0x0 DUP2 MSTORE PUSH1 0x20 ADD PUSH1 0x40 MSTORE PUSH1 0x40 MLOAD PUSH2 0x3CA1 SWAP5 SWAP4 SWAP3 SWAP2 SWAP1 PUSH2 0x6136 JUMP JUMPDEST PUSH1 0x20 PUSH1 0x40 MLOAD PUSH1 0x20 DUP2 SUB SWAP1 DUP1 DUP5 SUB SWAP1 DUP6 GAS STATICCALL ISZERO DUP1 ISZERO PUSH2 0x3CC3 JUMPI RETURNDATASIZE PUSH1 0x0 DUP1 RETURNDATACOPY RETURNDATASIZE PUSH1 0x0 REVERT JUMPDEST POP POP POP PUSH1 0x20 PUSH1 0x40 MLOAD SUB MLOAD SWAP1 POP PUSH1 0x0 PUSH20 0xFFFFFFFFFFFFFFFFFFFFFFFFFFFFFFFFFFFFFFFF AND DUP2 PUSH20 0xFFFFFFFFFFFFFFFFFFFFFFFFFFFFFFFFFFFFFFFF AND SUB PUSH2 0x3D17 JUMPI PUSH1 0x0 PUSH1 0x1 PUSH1 0x0 DUP1 SHL SWAP4 POP SWAP4 POP SWAP4 POP POP PUSH2 0x3D26 JUMP JUMPDEST DUP1 PUSH1 0x0 DUP1 PUSH1 0x0 SHL SWAP4 POP SWAP4 POP SWAP4 POP POP JUMPDEST SWAP5 POP SWAP5 POP SWAP5 SWAP2 POP POP JUMP JUMPDEST PUSH2 0x3D3A DUP4 DUP4 PUSH2 0x402F JUMP JUMPDEST PUSH2 0x3D4F PUSH2 0x3D45 PUSH2 0x22BA JUMP JUMPDEST PUSH1 0x0 DUP6 DUP6 DUP6 PUSH2 0x2AED JUMP JUMPDEST POP POP POP JUMP JUMPDEST PUSH1 0x60 PUSH1 0x0 PUSH1 0x1 PUSH2 0x3D63 DUP5 PUSH2 0x4128 JUMP JUMPDEST ADD SWAP1 POP PUSH1 0x0 DUP2 PUSH8 0xFFFFFFFFFFFFFFFF DUP2 GT ISZERO PUSH2 0x3D82 JUMPI PUSH2 0x3D81 PUSH2 0x4F70 JUMP JUMPDEST JUMPDEST PUSH1 0x40 MLOAD SWAP1 DUP1 DUP3 MSTORE DUP1 PUSH1 0x1F ADD PUSH1 0x1F NOT AND PUSH1 0x20 ADD DUP3 ADD PUSH1 0x40 MSTORE DUP1 ISZERO PUSH2 0x3DB4 JUMPI DUP2 PUSH1 0x20 ADD PUSH1 0x1 DUP3 MUL DUP1 CALLDATASIZE DUP4 CALLDATACOPY DUP1 DUP3 ADD SWAP2 POP POP SWAP1 POP JUMPDEST POP SWAP1 POP PUSH1 0x0 DUP3 PUSH1 0x20 ADD DUP3 ADD SWAP1 POP JUMPDEST PUSH1 0x1 ISZERO PUSH2 0x3E17 JUMPI DUP1 DUP1 PUSH1 0x1 SWAP1 SUB SWAP2 POP POP PUSH32 0x3031323334353637383961626364656600000000000000000000000000000000 PUSH1 0xA DUP7 MOD BYTE DUP2 MSTORE8 PUSH1 0xA DUP6 DUP2 PUSH2 0x3E0B JUMPI PUSH2 0x3E0A PUSH2 0x5332 JUMP JUMPDEST JUMPDEST DIV SWAP5 POP PUSH1 0x0 DUP6 SUB PUSH2 0x3DC2 JUMPI JUMPDEST DUP2 SWAP4 POP POP POP POP SWAP2 SWAP1 POP JUMP JUMPDEST PUSH1 0x0 PUSH32 0x80AC58CD00000000000000000000000000000000000000000000000000000000 PUSH28 0xFFFFFFFFFFFFFFFFFFFFFFFFFFFFFFFFFFFFFFFFFFFFFFFFFFFFFFFF NOT AND DUP3 PUSH28 0xFFFFFFFFFFFFFFFFFFFFFFFFFFFFFFFFFFFFFFFFFFFFFFFFFFFFFFFF NOT AND EQ DUP1 PUSH2 0x3EED JUMPI POP PUSH32 0x5B5E139F00000000000000000000000000000000000000000000000000000000 PUSH28 0xFFFFFFFFFFFFFFFFFFFFFFFFFFFFFFFFFFFFFFFFFFFFFFFFFFFFFFFF NOT AND DUP3 PUSH28 0xFFFFFFFFFFFFFFFFFFFFFFFFFFFFFFFFFFFFFFFFFFFFFFFFFFFFFFFF NOT AND EQ JUMPDEST DUP1 PUSH2 0x3EFD JUMPI POP PUSH2 0x3EFC DUP3 PUSH2 0x427B JUMP JUMPDEST JUMPDEST SWAP1 POP SWAP2 SWAP1 POP JUMP JUMPDEST PUSH2 0x3F0F DUP4 DUP4 DUP4 PUSH2 0x42E5 JUMP JUMPDEST PUSH2 0x3FC3 JUMPI PUSH1 0x0 PUSH20 0xFFFFFFFFFFFFFFFFFFFFFFFFFFFFFFFFFFFFFFFF AND DUP4 PUSH20 0xFFFFFFFFFFFFFFFFFFFFFFFFFFFFFFFFFFFFFFFF AND SUB PUSH2 0x3F84 JUMPI DUP1 PUSH1 0x40 MLOAD PUSH32 0x7E27328900000000000000000000000000000000000000000000000000000000 DUP2 MSTORE PUSH1 0x4 ADD PUSH2 0x3F7B SWAP2 SWAP1 PUSH2 0x46BB JUMP JUMPDEST PUSH1 0x40 MLOAD DUP1 SWAP2 SUB SWAP1 REVERT JUMPDEST DUP2 DUP2 PUSH1 0x40 MLOAD PUSH32 0x177E802F00000000000000000000000000000000000000000000000000000000 DUP2 MSTORE PUSH1 0x4 ADD PUSH2 0x3FBA SWAP3 SWAP2 SWAP1 PUSH2 0x48D4 JUMP JUMPDEST PUSH1 0x40 MLOAD DUP1 SWAP2 SUB SWAP1 REVERT JUMPDEST POP POP POP JUMP JUMPDEST PUSH1 0x0 DUP1 PUSH1 0xFF DUP4 PUSH1 0x0 SHR AND SWAP1 POP PUSH1 0x1F DUP2 GT ISZERO PUSH2 0x400F JUMPI PUSH1 0x40 MLOAD PUSH32 0xB3512B0C00000000000000000000000000000000000000000000000000000000 DUP2 MSTORE PUSH1 0x4 ADD PUSH1 0x40 MLOAD DUP1 SWAP2 SUB SWAP1 REVERT JUMPDEST DUP1 SWAP2 POP POP SWAP2 SWAP1 POP JUMP JUMPDEST PUSH1 0x0 DUP3 PUSH1 0x0 MSTORE DUP2 PUSH1 0x20 MSTORE PUSH1 0x40 PUSH1 0x0 KECCAK256 SWAP1 POP SWAP3 SWAP2 POP POP JUMP JUMPDEST PUSH1 0x0 PUSH20 0xFFFFFFFFFFFFFFFFFFFFFFFFFFFFFFFFFFFFFFFF AND DUP3 PUSH20 0xFFFFFFFFFFFFFFFFFFFFFFFFFFFFFFFFFFFFFFFF AND SUB PUSH2 0x40A1 JUMPI PUSH1 0x0 PUSH1 0x40 MLOAD PUSH32 0x64A0AE9200000000000000000000000000000000000000000000000000000000 DUP2 MSTORE PUSH1 0x4 ADD PUSH2 0x4098 SWAP2 SWAP1 PUSH2 0x4625 JUMP JUMPDEST PUSH1 0x40 MLOAD DUP1 SWAP2 SUB SWAP1 REVERT JUMPDEST PUSH1 0x0 PUSH2 0x40AF DUP4 DUP4 PUSH1 0x0 PUSH2 0x2429 JUMP JUMPDEST SWAP1 POP PUSH1 0x0 PUSH20 0xFFFFFFFFFFFFFFFFFFFFFFFFFFFFFFFFFFFFFFFF AND DUP2 PUSH20 0xFFFFFFFFFFFFFFFFFFFFFFFFFFFFFFFFFFFFFFFF AND EQ PUSH2 0x4123 JUMPI PUSH1 0x0 PUSH1 0x40 MLOAD PUSH32 0x73C6AC6E00000000000000000000000000000000000000000000000000000000 DUP2 MSTORE PUSH1 0x4 ADD PUSH2 0x411A SWAP2 SWAP1 PUSH2 0x4625 JUMP JUMPDEST PUSH1 0x40 MLOAD DUP1 SWAP2 SUB SWAP1 REVERT JUMPDEST POP POP POP JUMP JUMPDEST PUSH1 0x0 DUP1 PUSH1 0x0 SWAP1 POP PUSH27 0x184F03E93FF9F4DAA797ED6E38ED64BF6A1F010000000000000000 DUP4 LT PUSH2 0x4186 JUMPI PUSH27 0x184F03E93FF9F4DAA797ED6E38ED64BF6A1F010000000000000000 DUP4 DUP2 PUSH2 0x417C JUMPI PUSH2 0x417B PUSH2 0x5332 JUMP JUMPDEST JUMPDEST DIV SWAP3 POP PUSH1 0x40 DUP2 ADD SWAP1 POP JUMPDEST PUSH14 0x4EE2D6D415B85ACEF8100000000 DUP4 LT PUSH2 0x41C3 JUMPI PUSH14 0x4EE2D6D415B85ACEF8100000000 DUP4 DUP2 PUSH2 0x41B9 JUMPI PUSH2 0x41B8 PUSH2 0x5332 JUMP JUMPDEST JUMPDEST DIV SWAP3 POP PUSH1 0x20 DUP2 ADD SWAP1 POP JUMPDEST PUSH7 0x2386F26FC10000 DUP4 LT PUSH2 0x41F2 JUMPI PUSH7 0x2386F26FC10000 DUP4 DUP2 PUSH2 0x41E8 JUMPI PUSH2 0x41E7 PUSH2 0x5332 JUMP JUMPDEST JUMPDEST DIV SWAP3 POP PUSH1 0x10 DUP2 ADD SWAP1 POP JUMPDEST PUSH4 0x5F5E100 DUP4 LT PUSH2 0x421B JUMPI PUSH4 0x5F5E100 DUP4 DUP2 PUSH2 0x4211 JUMPI PUSH2 0x4210 PUSH2 0x5332 JUMP JUMPDEST JUMPDEST DIV SWAP3 POP PUSH1 0x8 DUP2 ADD SWAP1 POP JUMPDEST PUSH2 0x2710 DUP4 LT PUSH2 0x4240 JUMPI PUSH2 0x2710 DUP4 DUP2 PUSH2 0x4236 JUMPI PUSH2 0x4235 PUSH2 0x5332 JUMP JUMPDEST JUMPDEST DIV SWAP3 POP PUSH1 0x4 DUP2 ADD SWAP1 POP JUMPDEST PUSH1 0x64 DUP4 LT PUSH2 0x4263 JUMPI PUSH1 0x64 DUP4 DUP2 PUSH2 0x4259 JUMPI PUSH2 0x4258 PUSH2 0x5332 JUMP JUMPDEST JUMPDEST DIV SWAP3 POP PUSH1 0x2 DUP2 ADD SWAP1 POP JUMPDEST PUSH1 0xA DUP4 LT PUSH2 0x4272 JUMPI PUSH1 0x1 DUP2 ADD SWAP1 POP JUMPDEST DUP1 SWAP2 POP POP SWAP2 SWAP1 POP JUMP JUMPDEST PUSH1 0x0 PUSH32 0x1FFC9A700000000000000000000000000000000000000000000000000000000 PUSH28 0xFFFFFFFFFFFFFFFFFFFFFFFFFFFFFFFFFFFFFFFFFFFFFFFFFFFFFFFF NOT AND DUP3 PUSH28 0xFFFFFFFFFFFFFFFFFFFFFFFFFFFFFFFFFFFFFFFFFFFFFFFFFFFFFFFF NOT AND EQ SWAP1 POP SWAP2 SWAP1 POP JUMP JUMPDEST PUSH1 0x0 DUP1 PUSH20 0xFFFFFFFFFFFFFFFFFFFFFFFFFFFFFFFFFFFFFFFF AND DUP4 PUSH20 0xFFFFFFFFFFFFFFFFFFFFFFFFFFFFFFFFFFFFFFFF AND EQ ISZERO DUP1 ISZERO PUSH2 0x439D JUMPI POP DUP3 PUSH20 0xFFFFFFFFFFFFFFFFFFFFFFFFFFFFFFFFFFFFFFFF AND DUP5 PUSH20 0xFFFFFFFFFFFFFFFFFFFFFFFFFFFFFFFFFFFFFFFF AND EQ DUP1 PUSH2 0x435E JUMPI POP PUSH2 0x435D DUP5 DUP5 PUSH2 0x1FAD JUMP JUMPDEST JUMPDEST DUP1 PUSH2 0x439C JUMPI POP DUP3 PUSH20 0xFFFFFFFFFFFFFFFFFFFFFFFFFFFFFFFFFFFFFFFF AND PUSH2 0x4384 DUP4 PUSH2 0x227D JUMP JUMPDEST PUSH20 0xFFFFFFFFFFFFFFFFFFFFFFFFFFFFFFFFFFFFFFFF AND EQ JUMPDEST JUMPDEST SWAP1 POP SWAP4 SWAP3 POP POP POP JUMP JUMPDEST PUSH1 0x40 MLOAD DUP1 PUSH2 0x100 ADD PUSH1 0x40 MSTORE DUP1 PUSH1 0x0 PUSH1 0x2 DUP2 GT ISZERO PUSH2 0x43C6 JUMPI PUSH2 0x43C5 PUSH2 0x46D6 JUMP JUMPDEST JUMPDEST DUP2 MSTORE PUSH1 0x20 ADD PUSH1 0x0 DUP2 MSTORE PUSH1 0x20 ADD PUSH1 0x0 DUP2 MSTORE PUSH1 0x20 ADD PUSH1 0x0 DUP2 MSTORE PUSH1 0x20 ADD PUSH1 0x0 DUP2 MSTORE PUSH1 0x20 ADD PUSH1 0x0 DUP2 MSTORE PUSH1 0x20 ADD PUSH1 0x0 DUP2 MSTORE PUSH1 0x20 ADD PUSH1 0x0 DUP1 NOT AND DUP2 MSTORE POP SWAP1 JUMP JUMPDEST PUSH1 0x0 PUSH1 0x40 MLOAD SWAP1 POP SWAP1 JUMP JUMPDEST PUSH1 0x0 DUP1 REVERT JUMPDEST PUSH1 0x0 DUP1 REVERT JUMPDEST PUSH1 0x0 PUSH32 0xFFFFFFFF00000000000000000000000000000000000000000000000000000000 DUP3 AND SWAP1 POP SWAP2 SWAP1 POP JUMP JUMPDEST PUSH2 0x4449 DUP2 PUSH2 0x4414 JUMP JUMPDEST DUP2 EQ PUSH2 0x4454 JUMPI PUSH1 0x0 DUP1 REVERT JUMPDEST POP JUMP JUMPDEST PUSH1 0x0 DUP2 CALLDATALOAD SWAP1 POP PUSH2 0x4466 DUP2 PUSH2 0x4440 JUMP JUMPDEST SWAP3 SWAP2 POP POP JUMP JUMPDEST PUSH1 0x0 PUSH1 0x20 DUP3 DUP5 SUB SLT ISZERO PUSH2 0x4482 JUMPI PUSH2 0x4481 PUSH2 0x440A JUMP JUMPDEST JUMPDEST PUSH1 0x0 PUSH2 0x4490 DUP5 DUP3 DUP6 ADD PUSH2 0x4457 JUMP JUMPDEST SWAP2 POP POP SWAP3 SWAP2 POP POP JUMP JUMPDEST PUSH1 0x0 DUP2 ISZERO ISZERO SWAP1 POP SWAP2 SWAP1 POP JUMP JUMPDEST PUSH2 0x44AE DUP2 PUSH2 0x4499 JUMP JUMPDEST DUP3 MSTORE POP POP JUMP JUMPDEST PUSH1 0x0 PUSH1 0x20 DUP3 ADD SWAP1 POP PUSH2 0x44C9 PUSH1 0x0 DUP4 ADD DUP5 PUSH2 0x44A5 JUMP JUMPDEST SWAP3 SWAP2 POP POP JUMP JUMPDEST PUSH1 0x0 DUP2 MLOAD SWAP1 POP SWAP2 SWAP1 POP JUMP JUMPDEST PUSH1 0x0 DUP3 DUP3 MSTORE PUSH1 0x20 DUP3 ADD SWAP1 POP SWAP3 SWAP2 POP POP JUMP JUMPDEST PUSH1 0x0 JUMPDEST DUP4 DUP2 LT ISZERO PUSH2 0x4509 JUMPI DUP1 DUP3 ADD MLOAD DUP2 DUP5 ADD MSTORE PUSH1 0x20 DUP2 ADD SWAP1 POP PUSH2 0x44EE JUMP JUMPDEST PUSH1 0x0 DUP5 DUP5 ADD MSTORE POP POP POP POP JUMP JUMPDEST PUSH1 0x0 PUSH1 0x1F NOT PUSH1 0x1F DUP4 ADD AND SWAP1 POP SWAP2 SWAP1 POP JUMP JUMPDEST PUSH1 0x0 PUSH2 0x4531 DUP3 PUSH2 0x44CF JUMP JUMPDEST PUSH2 0x453B DUP2 DUP6 PUSH2 0x44DA JUMP JUMPDEST SWAP4 POP PUSH2 0x454B DUP2 DUP6 PUSH1 0x20 DUP7 ADD PUSH2 0x44EB JUMP JUMPDEST PUSH2 0x4554 DUP2 PUSH2 0x4515 JUMP JUMPDEST DUP5 ADD SWAP2 POP POP SWAP3 SWAP2 POP POP JUMP JUMPDEST PUSH1 0x0 PUSH1 0x20 DUP3 ADD SWAP1 POP DUP2 DUP2 SUB PUSH1 0x0 DUP4 ADD MSTORE PUSH2 0x4579 DUP2 DUP5 PUSH2 0x4526 JUMP JUMPDEST SWAP1 POP SWAP3 SWAP2 POP POP JUMP JUMPDEST PUSH1 0x0 DUP2 SWAP1 POP SWAP2 SWAP1 POP JUMP JUMPDEST PUSH2 0x4594 DUP2 PUSH2 0x4581 JUMP JUMPDEST DUP2 EQ PUSH2 0x459F JUMPI PUSH1 0x0 DUP1 REVERT JUMPDEST POP JUMP JUMPDEST PUSH1 0x0 DUP2 CALLDATALOAD SWAP1 POP PUSH2 0x45B1 DUP2 PUSH2 0x458B JUMP JUMPDEST SWAP3 SWAP2 POP POP JUMP JUMPDEST PUSH1 0x0 PUSH1 0x20 DUP3 DUP5 SUB SLT ISZERO PUSH2 0x45CD JUMPI PUSH2 0x45CC PUSH2 0x440A JUMP JUMPDEST JUMPDEST PUSH1 0x0 PUSH2 0x45DB DUP5 DUP3 DUP6 ADD PUSH2 0x45A2 JUMP JUMPDEST SWAP2 POP POP SWAP3 SWAP2 POP POP JUMP JUMPDEST PUSH1 0x0 PUSH20 0xFFFFFFFFFFFFFFFFFFFFFFFFFFFFFFFFFFFFFFFF DUP3 AND SWAP1 POP SWAP2 SWAP1 POP JUMP JUMPDEST PUSH1 0x0 PUSH2 0x460F DUP3 PUSH2 0x45E4 JUMP JUMPDEST SWAP1 POP SWAP2 SWAP1 POP JUMP JUMPDEST PUSH2 0x461F DUP2 PUSH2 0x4604 JUMP JUMPDEST DUP3 MSTORE POP POP JUMP JUMPDEST PUSH1 0x0 PUSH1 0x20 DUP3 ADD SWAP1 POP PUSH2 0x463A PUSH1 0x0 DUP4 ADD DUP5 PUSH2 0x4616 JUMP JUMPDEST SWAP3 SWAP2 POP POP JUMP JUMPDEST PUSH2 0x4649 DUP2 PUSH2 0x4604 JUMP JUMPDEST DUP2 EQ PUSH2 0x4654 JUMPI PUSH1 0x0 DUP1 REVERT JUMPDEST POP JUMP JUMPDEST PUSH1 0x0 DUP2 CALLDATALOAD SWAP1 POP PUSH2 0x4666 DUP2 PUSH2 0x4640 JUMP JUMPDEST SWAP3 SWAP2 POP POP JUMP JUMPDEST PUSH1 0x0 DUP1 PUSH1 0x40 DUP4 DUP6 SUB SLT ISZERO PUSH2 0x4683 JUMPI PUSH2 0x4682 PUSH2 0x440A JUMP JUMPDEST JUMPDEST PUSH1 0x0 PUSH2 0x4691 DUP6 DUP3 DUP7 ADD PUSH2 0x4657 JUMP JUMPDEST SWAP3 POP POP PUSH1 0x20 PUSH2 0x46A2 DUP6 DUP3 DUP7 ADD PUSH2 0x45A2 JUMP JUMPDEST SWAP2 POP POP SWAP3 POP SWAP3 SWAP1 POP JUMP JUMPDEST PUSH2 0x46B5 DUP2 PUSH2 0x4581 JUMP JUMPDEST DUP3 MSTORE POP POP JUMP JUMPDEST PUSH1 0x0 PUSH1 0x20 DUP3 ADD SWAP1 POP PUSH2 0x46D0 PUSH1 0x0 DUP4 ADD DUP5 PUSH2 0x46AC JUMP JUMPDEST SWAP3 SWAP2 POP POP JUMP JUMPDEST PUSH32 0x4E487B7100000000000000000000000000000000000000000000000000000000 PUSH1 0x0 MSTORE PUSH1 0x21 PUSH1 0x4 MSTORE PUSH1 0x24 PUSH1 0x0 REVERT JUMPDEST PUSH1 0x3 DUP2 LT PUSH2 0x4716 JUMPI PUSH2 0x4715 PUSH2 0x46D6 JUMP JUMPDEST JUMPDEST POP JUMP JUMPDEST PUSH1 0x0 DUP2 SWAP1 POP PUSH2 0x4727 DUP3 PUSH2 0x4705 JUMP JUMPDEST SWAP2 SWAP1 POP JUMP JUMPDEST PUSH1 0x0 PUSH2 0x4737 DUP3 PUSH2 0x4719 JUMP JUMPDEST SWAP1 POP SWAP2 SWAP1 POP JUMP JUMPDEST PUSH2 0x4747 DUP2 PUSH2 0x472C JUMP JUMPDEST DUP3 MSTORE POP POP JUMP JUMPDEST PUSH2 0x4756 DUP2 PUSH2 0x4581 JUMP JUMPDEST DUP3 MSTORE POP POP JUMP JUMPDEST PUSH1 0x0 DUP2 SWAP1 POP SWAP2 SWAP1 POP JUMP JUMPDEST PUSH2 0x476F DUP2 PUSH2 0x475C JUMP JUMPDEST DUP3 MSTORE POP POP JUMP JUMPDEST PUSH2 0x100 DUP3 ADD PUSH1 0x0 DUP3 ADD MLOAD PUSH2 0x478C PUSH1 0x0 DUP6 ADD DUP3 PUSH2 0x473E JUMP JUMPDEST POP PUSH1 0x20 DUP3 ADD MLOAD PUSH2 0x479F PUSH1 0x20 DUP6 ADD DUP3 PUSH2 0x474D JUMP JUMPDEST POP PUSH1 0x40 DUP3 ADD MLOAD PUSH2 0x47B2 PUSH1 0x40 DUP6 ADD DUP3 PUSH2 0x474D JUMP JUMPDEST POP PUSH1 0x60 DUP3 ADD MLOAD PUSH2 0x47C5 PUSH1 0x60 DUP6 ADD DUP3 PUSH2 0x474D JUMP JUMPDEST POP PUSH1 0x80 DUP3 ADD MLOAD PUSH2 0x47D8 PUSH1 0x80 DUP6 ADD DUP3 PUSH2 0x474D JUMP JUMPDEST POP PUSH1 0xA0 DUP3 ADD MLOAD PUSH2 0x47EB PUSH1 0xA0 DUP6 ADD DUP3 PUSH2 0x474D JUMP JUMPDEST POP PUSH1 0xC0 DUP3 ADD MLOAD PUSH2 0x47FE PUSH1 0xC0 DUP6 ADD DUP3 PUSH2 0x474D JUMP JUMPDEST POP PUSH1 0xE0 DUP3 ADD MLOAD PUSH2 0x4811 PUSH1 0xE0 DUP6 ADD DUP3 PUSH2 0x4766 JUMP JUMPDEST POP POP POP POP JUMP JUMPDEST PUSH1 0x0 PUSH2 0x120 DUP3 ADD SWAP1 POP PUSH2 0x482D PUSH1 0x0 DUP4 ADD DUP6 PUSH2 0x46AC JUMP JUMPDEST PUSH2 0x483A PUSH1 0x20 DUP4 ADD DUP5 PUSH2 0x4775 JUMP JUMPDEST SWAP4 SWAP3 POP POP POP JUMP JUMPDEST PUSH1 0x0 DUP1 PUSH1 0x0 PUSH1 0x60 DUP5 DUP7 SUB SLT ISZERO PUSH2 0x485A JUMPI PUSH2 0x4859 PUSH2 0x440A JUMP JUMPDEST JUMPDEST PUSH1 0x0 PUSH2 0x4868 DUP7 DUP3 DUP8 ADD PUSH2 0x4657 JUMP JUMPDEST SWAP4 POP POP PUSH1 0x20 PUSH2 0x4879 DUP7 DUP3 DUP8 ADD PUSH2 0x4657 JUMP JUMPDEST SWAP3 POP POP PUSH1 0x40 PUSH2 0x488A DUP7 DUP3 DUP8 ADD PUSH2 0x45A2 JUMP JUMPDEST SWAP2 POP POP SWAP3 POP SWAP3 POP SWAP3 JUMP JUMPDEST PUSH1 0x0 DUP1 PUSH1 0x40 DUP4 DUP6 SUB SLT ISZERO PUSH2 0x48AB JUMPI PUSH2 0x48AA PUSH2 0x440A JUMP JUMPDEST JUMPDEST PUSH1 0x0 PUSH2 0x48B9 DUP6 DUP3 DUP7 ADD PUSH2 0x45A2 JUMP JUMPDEST SWAP3 POP POP PUSH1 0x20 PUSH2 0x48CA DUP6 DUP3 DUP7 ADD PUSH2 0x45A2 JUMP JUMPDEST SWAP2 POP POP SWAP3 POP SWAP3 SWAP1 POP JUMP JUMPDEST PUSH1 0x0 PUSH1 0x40 DUP3 ADD SWAP1 POP PUSH2 0x48E9 PUSH1 0x0 DUP4 ADD DUP6 PUSH2 0x4616 JUMP JUMPDEST PUSH2 0x48F6 PUSH1 0x20 DUP4 ADD DUP5 PUSH2 0x46AC JUMP JUMPDEST SWAP4 SWAP3 POP POP POP JUMP JUMPDEST PUSH2 0x4906 DUP2 PUSH2 0x472C JUMP JUMPDEST DUP3 MSTORE POP POP JUMP JUMPDEST PUSH2 0x4915 DUP2 PUSH2 0x475C JUMP JUMPDEST DUP3 MSTORE POP POP JUMP JUMPDEST PUSH1 0x0 PUSH2 0x100 DUP3 ADD SWAP1 POP PUSH2 0x4931 PUSH1 0x0 DUP4 ADD DUP12 PUSH2 0x48FD JUMP JUMPDEST PUSH2 0x493E PUSH1 0x20 DUP4 ADD DUP11 PUSH2 0x46AC JUMP JUMPDEST PUSH2 0x494B PUSH1 0x40 DUP4 ADD DUP10 PUSH2 0x46AC JUMP JUMPDEST PUSH2 0x4958 PUSH1 0x60 DUP4 ADD DUP9 PUSH2 0x46AC JUMP JUMPDEST PUSH2 0x4965 PUSH1 0x80 DUP4 ADD DUP8 PUSH2 0x46AC JUMP JUMPDEST PUSH2 0x4972 PUSH1 0xA0 DUP4 ADD DUP7 PUSH2 0x46AC JUMP JUMPDEST PUSH2 0x497F PUSH1 0xC0 DUP4 ADD DUP6 PUSH2 0x46AC JUMP JUMPDEST PUSH2 0x498C PUSH1 0xE0 DUP4 ADD DUP5 PUSH2 0x490C JUMP JUMPDEST SWAP10 SWAP9 POP POP POP POP POP POP POP POP POP JUMP JUMPDEST PUSH1 0x3 DUP2 LT PUSH2 0x49A6 JUMPI PUSH1 0x0 DUP1 REVERT JUMPDEST POP JUMP JUMPDEST PUSH1 0x0 DUP2 CALLDATALOAD SWAP1 POP PUSH2 0x49B8 DUP2 PUSH2 0x4999 JUMP JUMPDEST SWAP3 SWAP2 POP POP JUMP JUMPDEST PUSH2 0x49C7 DUP2 PUSH2 0x475C JUMP JUMPDEST DUP2 EQ PUSH2 0x49D2 JUMPI PUSH1 0x0 DUP1 REVERT JUMPDEST POP JUMP JUMPDEST PUSH1 0x0 DUP2 CALLDATALOAD SWAP1 POP PUSH2 0x49E4 DUP2 PUSH2 0x49BE JUMP JUMPDEST SWAP3 SWAP2 POP POP JUMP JUMPDEST PUSH1 0x0 DUP1 PUSH1 0x0 DUP1 PUSH1 0x0 DUP1 PUSH1 0x0 PUSH1 0xE0 DUP9 DUP11 SUB SLT ISZERO PUSH2 0x4A09 JUMPI PUSH2 0x4A08 PUSH2 0x440A JUMP JUMPDEST JUMPDEST PUSH1 0x0 PUSH2 0x4A17 DUP11 DUP3 DUP12 ADD PUSH2 0x49A9 JUMP JUMPDEST SWAP8 POP POP PUSH1 0x20 PUSH2 0x4A28 DUP11 DUP3 DUP12 ADD PUSH2 0x45A2 JUMP JUMPDEST SWAP7 POP POP PUSH1 0x40 PUSH2 0x4A39 DUP11 DUP3 DUP12 ADD PUSH2 0x45A2 JUMP JUMPDEST SWAP6 POP POP PUSH1 0x60 PUSH2 0x4A4A DUP11 DUP3 DUP12 ADD PUSH2 0x45A2 JUMP JUMPDEST SWAP5 POP POP PUSH1 0x80 PUSH2 0x4A5B DUP11 DUP3 DUP12 ADD PUSH2 0x45A2 JUMP JUMPDEST SWAP4 POP POP PUSH1 0xA0 PUSH2 0x4A6C DUP11 DUP3 DUP12 ADD PUSH2 0x45A2 JUMP JUMPDEST SWAP3 POP POP PUSH1 0xC0 PUSH2 0x4A7D DUP11 DUP3 DUP12 ADD PUSH2 0x49D5 JUMP JUMPDEST SWAP2 POP POP SWAP3 SWAP6 SWAP9 SWAP2 SWAP5 SWAP8 POP SWAP3 SWAP6 POP JUMP JUMPDEST PUSH1 0x0 PUSH1 0x20 DUP3 DUP5 SUB SLT ISZERO PUSH2 0x4AA2 JUMPI PUSH2 0x4AA1 PUSH2 0x440A JUMP JUMPDEST JUMPDEST PUSH1 0x0 PUSH2 0x4AB0 DUP5 DUP3 DUP6 ADD PUSH2 0x4657 JUMP JUMPDEST SWAP2 POP POP SWAP3 SWAP2 POP POP JUMP JUMPDEST PUSH1 0x0 DUP1 PUSH1 0x0 DUP1 PUSH1 0x0 DUP1 PUSH1 0x0 DUP1 PUSH2 0x100 DUP10 DUP12 SUB SLT ISZERO PUSH2 0x4ADA JUMPI PUSH2 0x4AD9 PUSH2 0x440A JUMP JUMPDEST JUMPDEST PUSH1 0x0 PUSH2 0x4AE8 DUP12 DUP3 DUP13 ADD PUSH2 0x45A2 JUMP JUMPDEST SWAP9 POP POP PUSH1 0x20 PUSH2 0x4AF9 DUP12 DUP3 DUP13 ADD PUSH2 0x49A9 JUMP JUMPDEST SWAP8 POP POP PUSH1 0x40 PUSH2 0x4B0A DUP12 DUP3 DUP13 ADD PUSH2 0x45A2 JUMP JUMPDEST SWAP7 POP POP PUSH1 0x60 PUSH2 0x4B1B DUP12 DUP3 DUP13 ADD PUSH2 0x45A2 JUMP JUMPDEST SWAP6 POP POP PUSH1 0x80 PUSH2 0x4B2C DUP12 DUP3 DUP13 ADD PUSH2 0x45A2 JUMP JUMPDEST SWAP5 POP POP PUSH1 0xA0 PUSH2 0x4B3D DUP12 DUP3 DUP13 ADD PUSH2 0x45A2 JUMP JUMPDEST SWAP4 POP POP PUSH1 0xC0 PUSH2 0x4B4E DUP12 DUP3 DUP13 ADD PUSH2 0x45A2 JUMP JUMPDEST SWAP3 POP POP PUSH1 0xE0 PUSH2 0x4B5F DUP12 DUP3 DUP13 ADD PUSH2 0x49D5 JUMP JUMPDEST SWAP2 POP POP SWAP3 SWAP6 SWAP9 POP SWAP3 SWAP6 SWAP9 SWAP1 SWAP4 SWAP7 POP JUMP JUMPDEST PUSH1 0x0 DUP2 MLOAD SWAP1 POP SWAP2 SWAP1 POP JUMP JUMPDEST PUSH1 0x0 DUP3 DUP3 MSTORE PUSH1 0x20 DUP3 ADD SWAP1 POP SWAP3 SWAP2 POP POP JUMP JUMPDEST PUSH1 0x0 DUP2 SWAP1 POP PUSH1 0x20 DUP3 ADD SWAP1 POP SWAP2 SWAP1 POP JUMP JUMPDEST PUSH1 0x0 PUSH2 0x4BA7 DUP4 DUP4 PUSH2 0x474D JUMP JUMPDEST PUSH1 0x20 DUP4 ADD SWAP1 POP SWAP3 SWAP2 POP POP JUMP JUMPDEST PUSH1 0x0 PUSH1 0x20 DUP3 ADD SWAP1 POP SWAP2 SWAP1 POP JUMP JUMPDEST PUSH1 0x0 PUSH2 0x4BCB DUP3 PUSH2 0x4B6F JUMP JUMPDEST PUSH2 0x4BD5 DUP2 DUP6 PUSH2 0x4B7A JUMP JUMPDEST SWAP4 POP PUSH2 0x4BE0 DUP4 PUSH2 0x4B8B JUMP JUMPDEST DUP1 PUSH1 0x0 JUMPDEST DUP4 DUP2 LT ISZERO PUSH2 0x4C11 JUMPI DUP2 MLOAD PUSH2 0x4BF8 DUP9 DUP3 PUSH2 0x4B9B JUMP JUMPDEST SWAP8 POP PUSH2 0x4C03 DUP4 PUSH2 0x4BB3 JUMP JUMPDEST SWAP3 POP POP PUSH1 0x1 DUP2 ADD SWAP1 POP PUSH2 0x4BE4 JUMP JUMPDEST POP DUP6 SWAP4 POP POP POP POP SWAP3 SWAP2 POP POP JUMP JUMPDEST PUSH1 0x0 PUSH1 0x20 DUP3 ADD SWAP1 POP DUP2 DUP2 SUB PUSH1 0x0 DUP4 ADD MSTORE PUSH2 0x4C38 DUP2 DUP5 PUSH2 0x4BC0 JUMP JUMPDEST SWAP1 POP SWAP3 SWAP2 POP POP JUMP JUMPDEST PUSH1 0x0 PUSH32 0xFF00000000000000000000000000000000000000000000000000000000000000 DUP3 AND SWAP1 POP SWAP2 SWAP1 POP JUMP JUMPDEST PUSH2 0x4C75 DUP2 PUSH2 0x4C40 JUMP JUMPDEST DUP3 MSTORE POP POP JUMP JUMPDEST PUSH1 0x0 PUSH1 0xE0 DUP3 ADD SWAP1 POP PUSH2 0x4C90 PUSH1 0x0 DUP4 ADD DUP11 PUSH2 0x4C6C JUMP JUMPDEST DUP2 DUP2 SUB PUSH1 0x20 DUP4 ADD MSTORE PUSH2 0x4CA2 DUP2 DUP10 PUSH2 0x4526 JUMP JUMPDEST SWAP1 POP DUP2 DUP2 SUB PUSH1 0x40 DUP4 ADD MSTORE PUSH2 0x4CB6 DUP2 DUP9 PUSH2 0x4526 JUMP JUMPDEST SWAP1 POP PUSH2 0x4CC5 PUSH1 0x60 DUP4 ADD DUP8 PUSH2 0x46AC JUMP JUMPDEST PUSH2 0x4CD2 PUSH1 0x80 DUP4 ADD DUP7 PUSH2 0x4616 JUMP JUMPDEST PUSH2 0x4CDF PUSH1 0xA0 DUP4 ADD DUP6 PUSH2 0x490C JUMP JUMPDEST DUP2 DUP2 SUB PUSH1 0xC0 DUP4 ADD MSTORE PUSH2 0x4CF1 DUP2 DUP5 PUSH2 0x4BC0 JUMP JUMPDEST SWAP1 POP SWAP9 SWAP8 POP POP POP POP POP POP POP POP JUMP JUMPDEST PUSH1 0x0 DUP1 REVERT JUMPDEST PUSH1 0x0 DUP1 REVERT JUMPDEST PUSH1 0x0 DUP1 REVERT JUMPDEST PUSH1 0x0 DUP1 DUP4 PUSH1 0x1F DUP5 ADD SLT PUSH2 0x4D24 JUMPI PUSH2 0x4D23 PUSH2 0x4CFF JUMP JUMPDEST JUMPDEST DUP3 CALLDATALOAD SWAP1 POP PUSH8 0xFFFFFFFFFFFFFFFF DUP2 GT ISZERO PUSH2 0x4D41 JUMPI PUSH2 0x4D40 PUSH2 0x4D04 JUMP JUMPDEST JUMPDEST PUSH1 0x20 DUP4 ADD SWAP2 POP DUP4 PUSH1 0x1 DUP3 MUL DUP4 ADD GT ISZERO PUSH2 0x4D5D JUMPI PUSH2 0x4D5C PUSH2 0x4D09 JUMP JUMPDEST JUMPDEST SWAP3 POP SWAP3 SWAP1 POP JUMP JUMPDEST PUSH1 0x0 DUP1 DUP4 PUSH1 0x1F DUP5 ADD SLT PUSH2 0x4D7A JUMPI PUSH2 0x4D79 PUSH2 0x4CFF JUMP JUMPDEST JUMPDEST DUP3 CALLDATALOAD SWAP1 POP PUSH8 0xFFFFFFFFFFFFFFFF DUP2 GT ISZERO PUSH2 0x4D97 JUMPI PUSH2 0x4D96 PUSH2 0x4D04 JUMP JUMPDEST JUMPDEST PUSH1 0x20 DUP4 ADD SWAP2 POP DUP4 PUSH1 0x1 DUP3 MUL DUP4 ADD GT ISZERO PUSH2 0x4DB3 JUMPI PUSH2 0x4DB2 PUSH2 0x4D09 JUMP JUMPDEST JUMPDEST SWAP3 POP SWAP3 SWAP1 POP JUMP JUMPDEST PUSH1 0x0 DUP1 DUP4 PUSH1 0x1F DUP5 ADD SLT PUSH2 0x4DD0 JUMPI PUSH2 0x4DCF PUSH2 0x4CFF JUMP JUMPDEST JUMPDEST DUP3 CALLDATALOAD SWAP1 POP PUSH8 0xFFFFFFFFFFFFFFFF DUP2 GT ISZERO PUSH2 0x4DED JUMPI PUSH2 0x4DEC PUSH2 0x4D04 JUMP JUMPDEST JUMPDEST PUSH1 0x20 DUP4 ADD SWAP2 POP DUP4 PUSH1 0x20 DUP3 MUL DUP4 ADD GT ISZERO PUSH2 0x4E09 JUMPI PUSH2 0x4E08 PUSH2 0x4D09 JUMP JUMPDEST JUMPDEST SWAP3 POP SWAP3 SWAP1 POP JUMP JUMPDEST PUSH1 0x0 DUP1 PUSH1 0x0 DUP1 PUSH1 0x0 DUP1 PUSH1 0x0 DUP1 PUSH1 0x0 PUSH1 0xC0 DUP11 DUP13 SUB SLT ISZERO PUSH2 0x4E32 JUMPI PUSH2 0x4E31 PUSH2 0x440A JUMP JUMPDEST JUMPDEST PUSH1 0x0 PUSH2 0x4E40 DUP13 DUP3 DUP14 ADD PUSH2 0x45A2 JUMP JUMPDEST SWAP10 POP POP PUSH1 0x20 DUP11 ADD CALLDATALOAD PUSH8 0xFFFFFFFFFFFFFFFF DUP2 GT ISZERO PUSH2 0x4E61 JUMPI PUSH2 0x4E60 PUSH2 0x440F JUMP JUMPDEST JUMPDEST PUSH2 0x4E6D DUP13 DUP3 DUP14 ADD PUSH2 0x4D0E JUMP JUMPDEST SWAP9 POP SWAP9 POP POP PUSH1 0x40 PUSH2 0x4E80 DUP13 DUP3 DUP14 ADD PUSH2 0x49D5 JUMP JUMPDEST SWAP7 POP POP PUSH1 0x60 PUSH2 0x4E91 DUP13 DUP3 DUP14 ADD PUSH2 0x45A2 JUMP JUMPDEST SWAP6 POP POP PUSH1 0x80 DUP11 ADD CALLDATALOAD PUSH8 0xFFFFFFFFFFFFFFFF DUP2 GT ISZERO PUSH2 0x4EB2 JUMPI PUSH2 0x4EB1 PUSH2 0x440F JUMP JUMPDEST JUMPDEST PUSH2 0x4EBE DUP13 DUP3 DUP14 ADD PUSH2 0x4D64 JUMP JUMPDEST SWAP5 POP SWAP5 POP POP PUSH1 0xA0 DUP11 ADD CALLDATALOAD PUSH8 0xFFFFFFFFFFFFFFFF DUP2 GT ISZERO PUSH2 0x4EE1 JUMPI PUSH2 0x4EE0 PUSH2 0x440F JUMP JUMPDEST JUMPDEST PUSH2 0x4EED DUP13 DUP3 DUP14 ADD PUSH2 0x4DBA JUMP JUMPDEST SWAP3 POP SWAP3 POP POP SWAP3 SWAP6 SWAP9 POP SWAP3 SWAP6 SWAP9 POP SWAP3 SWAP6 SWAP9 JUMP JUMPDEST PUSH2 0x4F08 DUP2 PUSH2 0x4499 JUMP JUMPDEST DUP2 EQ PUSH2 0x4F13 JUMPI PUSH1 0x0 DUP1 REVERT JUMPDEST POP JUMP JUMPDEST PUSH1 0x0 DUP2 CALLDATALOAD SWAP1 POP PUSH2 0x4F25 DUP2 PUSH2 0x4EFF JUMP JUMPDEST SWAP3 SWAP2 POP POP JUMP JUMPDEST PUSH1 0x0 DUP1 PUSH1 0x40 DUP4 DUP6 SUB SLT ISZERO PUSH2 0x4F42 JUMPI PUSH2 0x4F41 PUSH2 0x440A JUMP JUMPDEST JUMPDEST PUSH1 0x0 PUSH2 0x4F50 DUP6 DUP3 DUP7 ADD PUSH2 0x4657 JUMP JUMPDEST SWAP3 POP POP PUSH1 0x20 PUSH2 0x4F61 DUP6 DUP3 DUP7 ADD PUSH2 0x4F16 JUMP JUMPDEST SWAP2 POP POP SWAP3 POP SWAP3 SWAP1 POP JUMP JUMPDEST PUSH1 0x0 DUP1 REVERT JUMPDEST PUSH32 0x4E487B7100000000000000000000000000000000000000000000000000000000 PUSH1 0x0 MSTORE PUSH1 0x41 PUSH1 0x4 MSTORE PUSH1 0x24 PUSH1 0x0 REVERT JUMPDEST PUSH2 0x4FA8 DUP3 PUSH2 0x4515 JUMP JUMPDEST DUP2 ADD DUP2 DUP2 LT PUSH8 0xFFFFFFFFFFFFFFFF DUP3 GT OR ISZERO PUSH2 0x4FC7 JUMPI PUSH2 0x4FC6 PUSH2 0x4F70 JUMP JUMPDEST JUMPDEST DUP1 PUSH1 0x40 MSTORE POP POP POP JUMP JUMPDEST PUSH1 0x0 PUSH2 0x4FDA PUSH2 0x4400 JUMP JUMPDEST SWAP1 POP PUSH2 0x4FE6 DUP3 DUP3 PUSH2 0x4F9F JUMP JUMPDEST SWAP2 SWAP1 POP JUMP JUMPDEST PUSH1 0x0 PUSH8 0xFFFFFFFFFFFFFFFF DUP3 GT ISZERO PUSH2 0x5006 JUMPI PUSH2 0x5005 PUSH2 0x4F70 JUMP JUMPDEST JUMPDEST PUSH2 0x500F DUP3 PUSH2 0x4515 JUMP JUMPDEST SWAP1 POP PUSH1 0x20 DUP2 ADD SWAP1 POP SWAP2 SWAP1 POP JUMP JUMPDEST DUP3 DUP2 DUP4 CALLDATACOPY PUSH1 0x0 DUP4 DUP4 ADD MSTORE POP POP POP JUMP JUMPDEST PUSH1 0x0 PUSH2 0x503E PUSH2 0x5039 DUP5 PUSH2 0x4FEB JUMP JUMPDEST PUSH2 0x4FD0 JUMP JUMPDEST SWAP1 POP DUP3 DUP2 MSTORE PUSH1 0x20 DUP2 ADD DUP5 DUP5 DUP5 ADD GT ISZERO PUSH2 0x505A JUMPI PUSH2 0x5059 PUSH2 0x4F6B JUMP JUMPDEST JUMPDEST PUSH2 0x5065 DUP5 DUP3 DUP6 PUSH2 0x501C JUMP JUMPDEST POP SWAP4 SWAP3 POP POP POP JUMP JUMPDEST PUSH1 0x0 DUP3 PUSH1 0x1F DUP4 ADD SLT PUSH2 0x5082 JUMPI PUSH2 0x5081 PUSH2 0x4CFF JUMP JUMPDEST JUMPDEST DUP2 CALLDATALOAD PUSH2 0x5092 DUP5 DUP3 PUSH1 0x20 DUP7 ADD PUSH2 0x502B JUMP JUMPDEST SWAP2 POP POP SWAP3 SWAP2 POP POP JUMP JUMPDEST PUSH1 0x0 DUP1 PUSH1 0x0 DUP1 PUSH1 0x80 DUP6 DUP8 SUB SLT ISZERO PUSH2 0x50B5 JUMPI PUSH2 0x50B4 PUSH2 0x440A JUMP JUMPDEST JUMPDEST PUSH1 0x0 PUSH2 0x50C3 DUP8 DUP3 DUP9 ADD PUSH2 0x4657 JUMP JUMPDEST SWAP5 POP POP PUSH1 0x20 PUSH2 0x50D4 DUP8 DUP3 DUP9 ADD PUSH2 0x4657 JUMP JUMPDEST SWAP4 POP POP PUSH1 0x40 PUSH2 0x50E5 DUP8 DUP3 DUP9 ADD PUSH2 0x45A2 JUMP JUMPDEST SWAP3 POP POP PUSH1 0x60 DUP6 ADD CALLDATALOAD PUSH8 0xFFFFFFFFFFFFFFFF DUP2 GT ISZERO PUSH2 0x5106 JUMPI PUSH2 0x5105 PUSH2 0x440F JUMP JUMPDEST JUMPDEST PUSH2 0x5112 DUP8 DUP3 DUP9 ADD PUSH2 0x506D JUMP JUMPDEST SWAP2 POP POP SWAP3 SWAP6 SWAP2 SWAP5 POP SWAP3 POP JUMP JUMPDEST PUSH1 0x0 PUSH12 0xFFFFFFFFFFFFFFFFFFFFFFFF DUP3 AND SWAP1 POP SWAP2 SWAP1 POP JUMP JUMPDEST PUSH2 0x513F DUP2 PUSH2 0x511E JUMP JUMPDEST DUP3 MSTORE POP POP JUMP JUMPDEST PUSH1 0x0 PUSH1 0x20 DUP3 ADD SWAP1 POP PUSH2 0x515A PUSH1 0x0 DUP4 ADD DUP5 PUSH2 0x5136 JUMP JUMPDEST SWAP3 SWAP2 POP POP JUMP JUMPDEST PUSH1 0x0 DUP1 PUSH1 0x40 DUP4 DUP6 SUB SLT ISZERO PUSH2 0x5177 JUMPI PUSH2 0x5176 PUSH2 0x440A JUMP JUMPDEST JUMPDEST PUSH1 0x0 PUSH2 0x5185 DUP6 DUP3 DUP7 ADD PUSH2 0x4657 JUMP JUMPDEST SWAP3 POP POP PUSH1 0x20 PUSH2 0x5196 DUP6 DUP3 DUP7 ADD PUSH2 0x4657 JUMP JUMPDEST SWAP2 POP POP SWAP3 POP SWAP3 SWAP1 POP JUMP JUMPDEST PUSH1 0x0 PUSH1 0x20 DUP3 ADD SWAP1 POP PUSH2 0x51B5 PUSH1 0x0 DUP4 ADD DUP5 PUSH2 0x490C JUMP JUMPDEST SWAP3 SWAP2 POP POP JUMP JUMPDEST PUSH1 0x0 DUP1 PUSH1 0x40 DUP4 DUP6 SUB SLT ISZERO PUSH2 0x51D2 JUMPI PUSH2 0x51D1 PUSH2 0x440A JUMP JUMPDEST JUMPDEST PUSH1 0x0 PUSH2 0x51E0 DUP6 DUP3 DUP7 ADD PUSH2 0x4657 JUMP JUMPDEST SWAP3 POP POP PUSH1 0x20 PUSH2 0x51F1 DUP6 DUP3 DUP7 ADD PUSH2 0x49A9 JUMP JUMPDEST SWAP2 POP POP SWAP3 POP SWAP3 SWAP1 POP JUMP JUMPDEST PUSH32 0x4E487B7100000000000000000000000000000000000000000000000000000000 PUSH1 0x0 MSTORE PUSH1 0x22 PUSH1 0x4 MSTORE PUSH1 0x24 PUSH1 0x0 REVERT JUMPDEST PUSH1 0x0 PUSH1 0x2 DUP3 DIV SWAP1 POP PUSH1 0x1 DUP3 AND DUP1 PUSH2 0x5242 JUMPI PUSH1 0x7F DUP3 AND SWAP2 POP JUMPDEST PUSH1 0x20 DUP3 LT DUP2 SUB PUSH2 0x5255 JUMPI PUSH2 0x5254 PUSH2 0x51FB JUMP JUMPDEST JUMPDEST POP SWAP2 SWAP1 POP JUMP JUMPDEST PUSH32 0x4E487B7100000000000000000000000000000000000000000000000000000000 PUSH1 0x0 MSTORE PUSH1 0x32 PUSH1 0x4 MSTORE PUSH1 0x24 PUSH1 0x0 REVERT JUMPDEST PUSH1 0x0 PUSH1 0x60 DUP3 ADD SWAP1 POP PUSH2 0x529F PUSH1 0x0 DUP4 ADD DUP7 PUSH2 0x4616 JUMP JUMPDEST PUSH2 0x52AC PUSH1 0x20 DUP4 ADD DUP6 PUSH2 0x46AC JUMP JUMPDEST PUSH2 0x52B9 PUSH1 0x40 DUP4 ADD DUP5 PUSH2 0x4616 JUMP JUMPDEST SWAP5 SWAP4 POP POP POP POP JUMP JUMPDEST PUSH32 0x4E487B7100000000000000000000000000000000000000000000000000000000 PUSH1 0x0 MSTORE PUSH1 0x11 PUSH1 0x4 MSTORE PUSH1 0x24 PUSH1 0x0 REVERT JUMPDEST PUSH1 0x0 PUSH2 0x52FB DUP3 PUSH2 0x4581 JUMP JUMPDEST SWAP2 POP PUSH2 0x5306 DUP4 PUSH2 0x4581 JUMP JUMPDEST SWAP3 POP DUP3 DUP3 MUL PUSH2 0x5314 DUP2 PUSH2 0x4581 JUMP JUMPDEST SWAP2 POP DUP3 DUP3 DIV DUP5 EQ DUP4 ISZERO OR PUSH2 0x532B JUMPI PUSH2 0x532A PUSH2 0x52C1 JUMP JUMPDEST JUMPDEST POP SWAP3 SWAP2 POP POP JUMP JUMPDEST PUSH32 0x4E487B7100000000000000000000000000000000000000000000000000000000 PUSH1 0x0 MSTORE PUSH1 0x12 PUSH1 0x4 MSTORE PUSH1 0x24 PUSH1 0x0 REVERT JUMPDEST PUSH1 0x0 PUSH2 0x536C DUP3 PUSH2 0x4581 JUMP JUMPDEST SWAP2 POP PUSH2 0x5377 DUP4 PUSH2 0x4581 JUMP JUMPDEST SWAP3 POP DUP3 PUSH2 0x5387 JUMPI PUSH2 0x5386 PUSH2 0x5332 JUMP JUMPDEST JUMPDEST DUP3 DUP3 DIV SWAP1 POP SWAP3 SWAP2 POP POP JUMP JUMPDEST PUSH32 0x496E76616C69642074696D652072616E67650000000000000000000000000000 PUSH1 0x0 DUP3 ADD MSTORE POP JUMP JUMPDEST PUSH1 0x0 PUSH2 0x53C8 PUSH1 0x12 DUP4 PUSH2 0x44DA JUMP JUMPDEST SWAP2 POP PUSH2 0x53D3 DUP3 PUSH2 0x5392 JUMP JUMPDEST PUSH1 0x20 DUP3 ADD SWAP1 POP SWAP2 SWAP1 POP JUMP JUMPDEST PUSH1 0x0 PUSH1 0x20 DUP3 ADD SWAP1 POP DUP2 DUP2 SUB PUSH1 0x0 DUP4 ADD MSTORE PUSH2 0x53F7 DUP2 PUSH2 0x53BB JUMP JUMPDEST SWAP1 POP SWAP2 SWAP1 POP JUMP JUMPDEST PUSH32 0x496E76616C6964206D6178207065722077616C6C657420666F72206E6F6E2D70 PUSH1 0x0 DUP3 ADD MSTORE PUSH32 0x75626C6963207068617365000000000000000000000000000000000000000000 PUSH1 0x20 DUP3 ADD MSTORE POP JUMP JUMPDEST PUSH1 0x0 PUSH2 0x545A PUSH1 0x2B DUP4 PUSH2 0x44DA JUMP JUMPDEST SWAP2 POP PUSH2 0x5465 DUP3 PUSH2 0x53FE JUMP JUMPDEST PUSH1 0x40 DUP3 ADD SWAP1 POP SWAP2 SWAP1 POP JUMP JUMPDEST PUSH1 0x0 PUSH1 0x20 DUP3 ADD SWAP1 POP DUP2 DUP2 SUB PUSH1 0x0 DUP4 ADD MSTORE PUSH2 0x5489 DUP2 PUSH2 0x544D JUMP JUMPDEST SWAP1 POP SWAP2 SWAP1 POP JUMP JUMPDEST PUSH32 0x4D65726B6C6520726F6F7420726571756972656420666F722077686974656C69 PUSH1 0x0 DUP3 ADD MSTORE PUSH32 0x7374207068617365000000000000000000000000000000000000000000000000 PUSH1 0x20 DUP3 ADD MSTORE POP JUMP JUMPDEST PUSH1 0x0 PUSH2 0x54EC PUSH1 0x28 DUP4 PUSH2 0x44DA JUMP JUMPDEST SWAP2 POP PUSH2 0x54F7 DUP3 PUSH2 0x5490 JUMP JUMPDEST PUSH1 0x40 DUP3 ADD SWAP1 POP SWAP2 SWAP1 POP JUMP JUMPDEST PUSH1 0x0 PUSH1 0x20 DUP3 ADD SWAP1 POP DUP2 DUP2 SUB PUSH1 0x0 DUP4 ADD MSTORE PUSH2 0x551B DUP2 PUSH2 0x54DF JUMP JUMPDEST SWAP1 POP SWAP2 SWAP1 POP JUMP JUMPDEST PUSH32 0x50686173652074696D65206F7665726C6170732077697468206578697374696E PUSH1 0x0 DUP3 ADD MSTORE PUSH32 0x6720706861736500000000000000000000000000000000000000000000000000 PUSH1 0x20 DUP3 ADD MSTORE POP JUMP JUMPDEST PUSH1 0x0 PUSH2 0x557E PUSH1 0x27 DUP4 PUSH2 0x44DA JUMP JUMPDEST SWAP2 POP PUSH2 0x5589 DUP3 PUSH2 0x5522 JUMP JUMPDEST PUSH1 0x40 DUP3 ADD SWAP1 POP SWAP2 SWAP1 POP JUMP JUMPDEST PUSH1 0x0 PUSH1 0x20 DUP3 ADD SWAP1 POP DUP2 DUP2 SUB PUSH1 0x0 DUP4 ADD MSTORE PUSH2 0x55AD DUP2 PUSH2 0x5571 JUMP JUMPDEST SWAP1 POP SWAP2 SWAP1 POP JUMP JUMPDEST PUSH1 0x0 PUSH1 0x40 DUP3 ADD SWAP1 POP PUSH2 0x55C9 PUSH1 0x0 DUP4 ADD DUP6 PUSH2 0x48FD JUMP JUMPDEST PUSH2 0x55D6 PUSH1 0x20 DUP4 ADD DUP5 PUSH2 0x46AC JUMP JUMPDEST SWAP4 SWAP3 POP POP POP JUMP JUMPDEST PUSH32 0x496E76616C696420706861736520696E64657800000000000000000000000000 PUSH1 0x0 DUP3 ADD MSTORE POP JUMP JUMPDEST PUSH1 0x0 PUSH2 0x5613 PUSH1 0x13 DUP4 PUSH2 0x44DA JUMP JUMPDEST SWAP2 POP PUSH2 0x561E DUP3 PUSH2 0x55DD JUMP JUMPDEST PUSH1 0x20 DUP3 ADD SWAP1 POP SWAP2 SWAP1 POP JUMP JUMPDEST PUSH1 0x0 PUSH1 0x20 DUP3 ADD SWAP1 POP DUP2 DUP2 SUB PUSH1 0x0 DUP4 ADD MSTORE PUSH2 0x5642 DUP2 PUSH2 0x5606 JUMP JUMPDEST SWAP1 POP SWAP2 SWAP1 POP JUMP JUMPDEST PUSH1 0x0 DUP2 PUSH1 0x60 SHL SWAP1 POP SWAP2 SWAP1 POP JUMP JUMPDEST PUSH1 0x0 PUSH2 0x5661 DUP3 PUSH2 0x5649 JUMP JUMPDEST SWAP1 POP SWAP2 SWAP1 POP JUMP JUMPDEST PUSH1 0x0 PUSH2 0x5673 DUP3 PUSH2 0x5656 JUMP JUMPDEST SWAP1 POP SWAP2 SWAP1 POP JUMP JUMPDEST PUSH2 0x568B PUSH2 0x5686 DUP3 PUSH2 0x4604 JUMP JUMPDEST PUSH2 0x5668 JUMP JUMPDEST DUP3 MSTORE POP POP JUMP JUMPDEST PUSH1 0x0 PUSH2 0x569D DUP3 DUP5 PUSH2 0x567A JUMP JUMPDEST PUSH1 0x14 DUP3 ADD SWAP2 POP DUP2 SWAP1 POP SWAP3 SWAP2 POP POP JUMP JUMPDEST PUSH32 0x4E6F742077686974656C697374656420666F7220746869732070686173650000 PUSH1 0x0 DUP3 ADD MSTORE POP JUMP JUMPDEST PUSH1 0x0 PUSH2 0x56E2 PUSH1 0x1E DUP4 PUSH2 0x44DA JUMP JUMPDEST SWAP2 POP PUSH2 0x56ED DUP3 PUSH2 0x56AC JUMP JUMPDEST PUSH1 0x20 DUP3 ADD SWAP1 POP SWAP2 SWAP1 POP JUMP JUMPDEST PUSH1 0x0 PUSH1 0x20 DUP3 ADD SWAP1 POP DUP2 DUP2 SUB PUSH1 0x0 DUP4 ADD MSTORE PUSH2 0x5711 DUP2 PUSH2 0x56D5 JUMP JUMPDEST SWAP1 POP SWAP2 SWAP1 POP JUMP JUMPDEST PUSH1 0x0 PUSH2 0x5723 DUP3 PUSH2 0x4581 JUMP JUMPDEST SWAP2 POP PUSH2 0x572E DUP4 PUSH2 0x4581 JUMP JUMPDEST SWAP3 POP DUP3 DUP3 ADD SWAP1 POP DUP1 DUP3 GT ISZERO PUSH2 0x5746 JUMPI PUSH2 0x5745 PUSH2 0x52C1 JUMP JUMPDEST JUMPDEST SWAP3 SWAP2 POP POP JUMP JUMPDEST PUSH32 0x5369676E61747572652065787069726564000000000000000000000000000000 PUSH1 0x0 DUP3 ADD MSTORE POP JUMP JUMPDEST PUSH1 0x0 PUSH2 0x5782 PUSH1 0x11 DUP4 PUSH2 0x44DA JUMP JUMPDEST SWAP2 POP PUSH2 0x578D DUP3 PUSH2 0x574C JUMP JUMPDEST PUSH1 0x20 DUP3 ADD SWAP1 POP SWAP2 SWAP1 POP JUMP JUMPDEST PUSH1 0x0 PUSH1 0x20 DUP3 ADD SWAP1 POP DUP2 DUP2 SUB PUSH1 0x0 DUP4 ADD MSTORE PUSH2 0x57B1 DUP2 PUSH2 0x5775 JUMP JUMPDEST SWAP1 POP SWAP2 SWAP1 POP JUMP JUMPDEST PUSH32 0x5369676E617475726520616C7265616479207573656400000000000000000000 PUSH1 0x0 DUP3 ADD MSTORE POP JUMP JUMPDEST PUSH1 0x0 PUSH2 0x57EE PUSH1 0x16 DUP4 PUSH2 0x44DA JUMP JUMPDEST SWAP2 POP PUSH2 0x57F9 DUP3 PUSH2 0x57B8 JUMP JUMPDEST PUSH1 0x20 DUP3 ADD SWAP1 POP SWAP2 SWAP1 POP JUMP JUMPDEST PUSH1 0x0 PUSH1 0x20 DUP3 ADD SWAP1 POP DUP2 DUP2 SUB PUSH1 0x0 DUP4 ADD MSTORE PUSH2 0x581D DUP2 PUSH2 0x57E1 JUMP JUMPDEST SWAP1 POP SWAP2 SWAP1 POP JUMP JUMPDEST PUSH1 0x0 DUP2 SWAP1 POP SWAP3 SWAP2 POP POP JUMP JUMPDEST PUSH1 0x0 PUSH2 0x583B DUP4 DUP6 PUSH2 0x5824 JUMP JUMPDEST SWAP4 POP PUSH2 0x5848 DUP4 DUP6 DUP5 PUSH2 0x501C JUMP JUMPDEST DUP3 DUP5 ADD SWAP1 POP SWAP4 SWAP3 POP POP POP JUMP JUMPDEST PUSH1 0x0 PUSH2 0x5861 DUP3 DUP5 DUP7 PUSH2 0x582F JUMP JUMPDEST SWAP2 POP DUP2 SWAP1 POP SWAP4 SWAP3 POP POP POP JUMP JUMPDEST PUSH1 0x0 PUSH2 0x100 DUP3 ADD SWAP1 POP PUSH2 0x5883 PUSH1 0x0 DUP4 ADD DUP12 PUSH2 0x490C JUMP JUMPDEST PUSH2 0x5890 PUSH1 0x20 DUP4 ADD DUP11 PUSH2 0x4616 JUMP JUMPDEST PUSH2 0x589D PUSH1 0x40 DUP4 ADD DUP10 PUSH2 0x46AC JUMP JUMPDEST PUSH2 0x58AA PUSH1 0x60 DUP4 ADD DUP9 PUSH2 0x490C JUMP JUMPDEST PUSH2 0x58B7 PUSH1 0x80 DUP4 ADD DUP8 PUSH2 0x46AC JUMP JUMPDEST PUSH2 0x58C4 PUSH1 0xA0 DUP4 ADD DUP7 PUSH2 0x46AC JUMP JUMPDEST PUSH2 0x58D1 PUSH1 0xC0 DUP4 ADD DUP6 PUSH2 0x490C JUMP JUMPDEST PUSH2 0x58DE PUSH1 0xE0 DUP4 ADD DUP5 PUSH2 0x46AC JUMP JUMPDEST SWAP10 SWAP9 POP POP POP POP POP POP POP POP POP JUMP JUMPDEST PUSH32 0x496E76616C6964207369676E6174757265000000000000000000000000000000 PUSH1 0x0 DUP3 ADD MSTORE POP JUMP JUMPDEST PUSH1 0x0 PUSH2 0x5921 PUSH1 0x11 DUP4 PUSH2 0x44DA JUMP JUMPDEST SWAP2 POP PUSH2 0x592C DUP3 PUSH2 0x58EB JUMP JUMPDEST PUSH1 0x20 DUP3 ADD SWAP1 POP SWAP2 SWAP1 POP JUMP JUMPDEST PUSH1 0x0 PUSH1 0x20 DUP3 ADD SWAP1 POP DUP2 DUP2 SUB PUSH1 0x0 DUP4 ADD MSTORE PUSH2 0x5950 DUP2 PUSH2 0x5914 JUMP JUMPDEST SWAP1 POP SWAP2 SWAP1 POP JUMP JUMPDEST PUSH32 0x496E636F7272656374207061796D656E7420616D6F756E740000000000000000 PUSH1 0x0 DUP3 ADD MSTORE POP JUMP JUMPDEST PUSH1 0x0 PUSH2 0x598D PUSH1 0x18 DUP4 PUSH2 0x44DA JUMP JUMPDEST SWAP2 POP PUSH2 0x5998 DUP3 PUSH2 0x5957 JUMP JUMPDEST PUSH1 0x20 DUP3 ADD SWAP1 POP SWAP2 SWAP1 POP JUMP JUMPDEST PUSH1 0x0 PUSH1 0x20 DUP3 ADD SWAP1 POP DUP2 DUP2 SUB PUSH1 0x0 DUP4 ADD MSTORE PUSH2 0x59BC DUP2 PUSH2 0x5980 JUMP JUMPDEST SWAP1 POP SWAP2 SWAP1 POP JUMP JUMPDEST PUSH32 0x506861736520737570706C79206C696D69742072656163686564000000000000 PUSH1 0x0 DUP3 ADD MSTORE POP JUMP JUMPDEST PUSH1 0x0 PUSH2 0x59F9 PUSH1 0x1A DUP4 PUSH2 0x44DA JUMP JUMPDEST SWAP2 POP PUSH2 0x5A04 DUP3 PUSH2 0x59C3 JUMP JUMPDEST PUSH1 0x20 DUP3 ADD SWAP1 POP SWAP2 SWAP1 POP JUMP JUMPDEST PUSH1 0x0 PUSH1 0x20 DUP3 ADD SWAP1 POP DUP2 DUP2 SUB PUSH1 0x0 DUP4 ADD MSTORE PUSH2 0x5A28 DUP2 PUSH2 0x59EC JUMP JUMPDEST SWAP1 POP SWAP2 SWAP1 POP JUMP JUMPDEST PUSH32 0x57616C6C6574206C696D6974207265616368656420666F722074686973207068 PUSH1 0x0 DUP3 ADD MSTORE PUSH32 0x6173650000000000000000000000000000000000000000000000000000000000 PUSH1 0x20 DUP3 ADD MSTORE POP JUMP JUMPDEST PUSH1 0x0 PUSH2 0x5A8B PUSH1 0x23 DUP4 PUSH2 0x44DA JUMP JUMPDEST SWAP2 POP PUSH2 0x5A96 DUP3 PUSH2 0x5A2F JUMP JUMPDEST PUSH1 0x40 DUP3 ADD SWAP1 POP SWAP2 SWAP1 POP JUMP JUMPDEST PUSH1 0x0 PUSH1 0x20 DUP3 ADD SWAP1 POP DUP2 DUP2 SUB PUSH1 0x0 DUP4 ADD MSTORE PUSH2 0x5ABA DUP2 PUSH2 0x5A7E JUMP JUMPDEST SWAP1 POP SWAP2 SWAP1 POP JUMP JUMPDEST PUSH1 0x0 PUSH1 0x20 DUP3 ADD SWAP1 POP PUSH2 0x5AD6 PUSH1 0x0 DUP4 ADD DUP5 PUSH2 0x48FD JUMP JUMPDEST SWAP3 SWAP2 POP POP JUMP JUMPDEST PUSH32 0x4E6F206163746976652070686173650000000000000000000000000000000000 PUSH1 0x0 DUP3 ADD MSTORE POP JUMP JUMPDEST PUSH1 0x0 PUSH2 0x5B12 PUSH1 0xF DUP4 PUSH2 0x44DA JUMP JUMPDEST SWAP2 POP PUSH2 0x5B1D DUP3 PUSH2 0x5ADC JUMP JUMPDEST PUSH1 0x20 DUP3 ADD SWAP1 POP SWAP2 SWAP1 POP JUMP JUMPDEST PUSH1 0x0 PUSH1 0x20 DUP3 ADD SWAP1 POP DUP2 DUP2 SUB PUSH1 0x0 DUP4 ADD MSTORE PUSH2 0x5B41 DUP2 PUSH2 0x5B05 JUMP JUMPDEST SWAP1 POP SWAP2 SWAP1 POP JUMP JUMPDEST POP JUMP JUMPDEST PUSH1 0x0 PUSH2 0x5B58 PUSH1 0x0 DUP4 PUSH2 0x5824 JUMP JUMPDEST SWAP2 POP PUSH2 0x5B63 DUP3 PUSH2 0x5B48 JUMP JUMPDEST PUSH1 0x0 DUP3 ADD SWAP1 POP SWAP2 SWAP1 POP JUMP JUMPDEST PUSH1 0x0 PUSH2 0x5B79 DUP3 PUSH2 0x5B4B JUMP JUMPDEST SWAP2 POP DUP2 SWAP1 POP SWAP2 SWAP1 POP JUMP JUMPDEST PUSH32 0x506C6174666F726D20666565207472616E73666572206661696C656400000000 PUSH1 0x0 DUP3 ADD MSTORE POP JUMP JUMPDEST PUSH1 0x0 PUSH2 0x5BB9 PUSH1 0x1C DUP4 PUSH2 0x44DA JUMP JUMPDEST SWAP2 POP PUSH2 0x5BC4 DUP3 PUSH2 0x5B83 JUMP JUMPDEST PUSH1 0x20 DUP3 ADD SWAP1 POP SWAP2 SWAP1 POP JUMP JUMPDEST PUSH1 0x0 PUSH1 0x20 DUP3 ADD SWAP1 POP DUP2 DUP2 SUB PUSH1 0x0 DUP4 ADD MSTORE PUSH2 0x5BE8 DUP2 PUSH2 0x5BAC JUMP JUMPDEST SWAP1 POP SWAP2 SWAP1 POP JUMP JUMPDEST PUSH1 0x0 PUSH2 0x5BFA DUP3 PUSH2 0x4581 JUMP JUMPDEST SWAP2 POP PUSH2 0x5C05 DUP4 PUSH2 0x4581 JUMP JUMPDEST SWAP3 POP DUP3 DUP3 SUB SWAP1 POP DUP2 DUP2 GT ISZERO PUSH2 0x5C1D JUMPI PUSH2 0x5C1C PUSH2 0x52C1 JUMP JUMPDEST JUMPDEST SWAP3 SWAP2 POP POP JUMP JUMPDEST PUSH32 0x4F776E657220666565207472616E73666572206661696C656400000000000000 PUSH1 0x0 DUP3 ADD MSTORE POP JUMP JUMPDEST PUSH1 0x0 PUSH2 0x5C59 PUSH1 0x19 DUP4 PUSH2 0x44DA JUMP JUMPDEST SWAP2 POP PUSH2 0x5C64 DUP3 PUSH2 0x5C23 JUMP JUMPDEST PUSH1 0x20 DUP3 ADD SWAP1 POP SWAP2 SWAP1 POP JUMP JUMPDEST PUSH1 0x0 PUSH1 0x20 DUP3 ADD SWAP1 POP DUP2 DUP2 SUB PUSH1 0x0 DUP4 ADD MSTORE PUSH2 0x5C88 DUP2 PUSH2 0x5C4C JUMP JUMPDEST SWAP1 POP SWAP2 SWAP1 POP JUMP JUMPDEST PUSH1 0x0 PUSH2 0x5C9A DUP3 PUSH2 0x4581 JUMP JUMPDEST SWAP2 POP PUSH32 0xFFFFFFFFFFFFFFFFFFFFFFFFFFFFFFFFFFFFFFFFFFFFFFFFFFFFFFFFFFFFFFFF DUP3 SUB PUSH2 0x5CCC JUMPI PUSH2 0x5CCB PUSH2 0x52C1 JUMP JUMPDEST JUMPDEST PUSH1 0x1 DUP3 ADD SWAP1 POP SWAP2 SWAP1 POP JUMP JUMPDEST PUSH1 0x0 DUP2 MLOAD SWAP1 POP SWAP2 SWAP1 POP JUMP JUMPDEST PUSH1 0x0 DUP3 DUP3 MSTORE PUSH1 0x20 DUP3 ADD SWAP1 POP SWAP3 SWAP2 POP POP JUMP JUMPDEST PUSH1 0x0 PUSH2 0x5CFE DUP3 PUSH2 0x5CD7 JUMP JUMPDEST PUSH2 0x5D08 DUP2 DUP6 PUSH2 0x5CE2 JUMP JUMPDEST SWAP4 POP PUSH2 0x5D18 DUP2 DUP6 PUSH1 0x20 DUP7 ADD PUSH2 0x44EB JUMP JUMPDEST PUSH2 0x5D21 DUP2 PUSH2 0x4515 JUMP JUMPDEST DUP5 ADD SWAP2 POP POP SWAP3 SWAP2 POP POP JUMP JUMPDEST PUSH1 0x0 PUSH1 0x80 DUP3 ADD SWAP1 POP PUSH2 0x5D41 PUSH1 0x0 DUP4 ADD DUP8 PUSH2 0x4616 JUMP JUMPDEST PUSH2 0x5D4E PUSH1 0x20 DUP4 ADD DUP7 PUSH2 0x4616 JUMP JUMPDEST PUSH2 0x5D5B PUSH1 0x40 DUP4 ADD DUP6 PUSH2 0x46AC JUMP JUMPDEST DUP2 DUP2 SUB PUSH1 0x60 DUP4 ADD MSTORE PUSH2 0x5D6D DUP2 DUP5 PUSH2 0x5CF3 JUMP JUMPDEST SWAP1 POP SWAP6 SWAP5 POP POP POP POP POP JUMP JUMPDEST PUSH1 0x0 DUP2 MLOAD SWAP1 POP PUSH2 0x5D87 DUP2 PUSH2 0x4440 JUMP JUMPDEST SWAP3 SWAP2 POP POP JUMP JUMPDEST PUSH1 0x0 PUSH1 0x20 DUP3 DUP5 SUB SLT ISZERO PUSH2 0x5DA3 JUMPI PUSH2 0x5DA2 PUSH2 0x440A JUMP JUMPDEST JUMPDEST PUSH1 0x0 PUSH2 0x5DB1 DUP5 DUP3 DUP6 ADD PUSH2 0x5D78 JUMP JUMPDEST SWAP2 POP POP SWAP3 SWAP2 POP POP JUMP JUMPDEST PUSH1 0x0 DUP2 SWAP1 POP SWAP3 SWAP2 POP POP JUMP JUMPDEST PUSH1 0x0 PUSH2 0x5DD0 DUP3 PUSH2 0x44CF JUMP JUMPDEST PUSH2 0x5DDA DUP2 DUP6 PUSH2 0x5DBA JUMP JUMPDEST SWAP4 POP PUSH2 0x5DEA DUP2 DUP6 PUSH1 0x20 DUP7 ADD PUSH2 0x44EB JUMP JUMPDEST DUP1 DUP5 ADD SWAP2 POP POP SWAP3 SWAP2 POP POP JUMP JUMPDEST PUSH1 0x0 PUSH2 0x5E02 DUP3 DUP6 PUSH2 0x5DC5 JUMP JUMPDEST SWAP2 POP PUSH2 0x5E0E DUP3 DUP5 PUSH2 0x5DC5 JUMP JUMPDEST SWAP2 POP DUP2 SWAP1 POP SWAP4 SWAP3 POP POP POP JUMP JUMPDEST PUSH1 0x0 DUP2 SWAP1 POP DUP2 PUSH1 0x0 MSTORE PUSH1 0x20 PUSH1 0x0 KECCAK256 SWAP1 POP SWAP2 SWAP1 POP JUMP JUMPDEST PUSH1 0x0 PUSH1 0x20 PUSH1 0x1F DUP4 ADD DIV SWAP1 POP SWAP2 SWAP1 POP JUMP JUMPDEST PUSH1 0x0 DUP3 DUP3 SHL SWAP1 POP SWAP3 SWAP2 POP POP JUMP JUMPDEST PUSH1 0x0 PUSH1 0x8 DUP4 MUL PUSH2 0x5E7C PUSH32 0xFFFFFFFFFFFFFFFFFFFFFFFFFFFFFFFFFFFFFFFFFFFFFFFFFFFFFFFFFFFFFFFF DUP3 PUSH2 0x5E3F JUMP JUMPDEST PUSH2 0x5E86 DUP7 DUP4 PUSH2 0x5E3F JUMP JUMPDEST SWAP6 POP DUP1 NOT DUP5 AND SWAP4 POP DUP1 DUP7 AND DUP5 OR SWAP3 POP POP POP SWAP4 SWAP3 POP POP POP JUMP JUMPDEST PUSH1 0x0 DUP2 SWAP1 POP SWAP2 SWAP1 POP JUMP JUMPDEST PUSH1 0x0 PUSH2 0x5EC3 PUSH2 0x5EBE PUSH2 0x5EB9 DUP5 PUSH2 0x4581 JUMP JUMPDEST PUSH2 0x5E9E JUMP JUMPDEST PUSH2 0x4581 JUMP JUMPDEST SWAP1 POP SWAP2 SWAP1 POP JUMP JUMPDEST PUSH1 0x0 DUP2 SWAP1 POP SWAP2 SWAP1 POP JUMP JUMPDEST PUSH2 0x5EDD DUP4 PUSH2 0x5EA8 JUMP JUMPDEST PUSH2 0x5EF1 PUSH2 0x5EE9 DUP3 PUSH2 0x5ECA JUMP JUMPDEST DUP5 DUP5 SLOAD PUSH2 0x5E4C JUMP JUMPDEST DUP3 SSTORE POP POP POP POP JUMP JUMPDEST PUSH1 0x0 SWAP1 JUMP JUMPDEST PUSH2 0x5F06 PUSH2 0x5EF9 JUMP JUMPDEST PUSH2 0x5F11 DUP2 DUP5 DUP5 PUSH2 0x5ED4 JUMP JUMPDEST POP POP POP JUMP JUMPDEST JUMPDEST DUP2 DUP2 LT ISZERO PUSH2 0x5F35 JUMPI PUSH2 0x5F2A PUSH1 0x0 DUP3 PUSH2 0x5EFE JUMP JUMPDEST PUSH1 0x1 DUP2 ADD SWAP1 POP PUSH2 0x5F17 JUMP JUMPDEST POP POP JUMP JUMPDEST PUSH1 0x1F DUP3 GT ISZERO PUSH2 0x5F7A JUMPI PUSH2 0x5F4B DUP2 PUSH2 0x5E1A JUMP JUMPDEST PUSH2 0x5F54 DUP5 PUSH2 0x5E2F JUMP JUMPDEST DUP2 ADD PUSH1 0x20 DUP6 LT ISZERO PUSH2 0x5F63 JUMPI DUP2 SWAP1 POP JUMPDEST PUSH2 0x5F77 PUSH2 0x5F6F DUP6 PUSH2 0x5E2F JUMP JUMPDEST DUP4 ADD DUP3 PUSH2 0x5F16 JUMP JUMPDEST POP POP JUMPDEST POP POP POP JUMP JUMPDEST PUSH1 0x0 DUP3 DUP3 SHR SWAP1 POP SWAP3 SWAP2 POP POP JUMP JUMPDEST PUSH1 0x0 PUSH2 0x5F9D PUSH1 0x0 NOT DUP5 PUSH1 0x8 MUL PUSH2 0x5F7F JUMP JUMPDEST NOT DUP1 DUP4 AND SWAP2 POP POP SWAP3 SWAP2 POP POP JUMP JUMPDEST PUSH1 0x0 PUSH2 0x5FB6 DUP4 DUP4 PUSH2 0x5F8C JUMP JUMPDEST SWAP2 POP DUP3 PUSH1 0x2 MUL DUP3 OR SWAP1 POP SWAP3 SWAP2 POP POP JUMP JUMPDEST PUSH2 0x5FCF DUP3 PUSH2 0x44CF JUMP JUMPDEST PUSH8 0xFFFFFFFFFFFFFFFF DUP2 GT ISZERO PUSH2 0x5FE8 JUMPI PUSH2 0x5FE7 PUSH2 0x4F70 JUMP JUMPDEST JUMPDEST PUSH2 0x5FF2 DUP3 SLOAD PUSH2 0x522A JUMP JUMPDEST PUSH2 0x5FFD DUP3 DUP3 DUP6 PUSH2 0x5F39 JUMP JUMPDEST PUSH1 0x0 PUSH1 0x20 SWAP1 POP PUSH1 0x1F DUP4 GT PUSH1 0x1 DUP2 EQ PUSH2 0x6030 JUMPI PUSH1 0x0 DUP5 ISZERO PUSH2 0x601E JUMPI DUP3 DUP8 ADD MLOAD SWAP1 POP JUMPDEST PUSH2 0x6028 DUP6 DUP3 PUSH2 0x5FAA JUMP JUMPDEST DUP7 SSTORE POP PUSH2 0x6090 JUMP JUMPDEST PUSH1 0x1F NOT DUP5 AND PUSH2 0x603E DUP7 PUSH2 0x5E1A JUMP JUMPDEST PUSH1 0x0 JUMPDEST DUP3 DUP2 LT ISZERO PUSH2 0x6066 JUMPI DUP5 DUP10 ADD MLOAD DUP3 SSTORE PUSH1 0x1 DUP3 ADD SWAP2 POP PUSH1 0x20 DUP6 ADD SWAP5 POP PUSH1 0x20 DUP2 ADD SWAP1 POP PUSH2 0x6041 JUMP JUMPDEST DUP7 DUP4 LT ISZERO PUSH2 0x6083 JUMPI DUP5 DUP10 ADD MLOAD PUSH2 0x607F PUSH1 0x1F DUP10 AND DUP3 PUSH2 0x5F8C JUMP JUMPDEST DUP4 SSTORE POP JUMPDEST PUSH1 0x1 PUSH1 0x2 DUP9 MUL ADD DUP9 SSTORE POP POP POP JUMPDEST POP POP POP POP POP POP JUMP JUMPDEST PUSH1 0x0 PUSH1 0xA0 DUP3 ADD SWAP1 POP PUSH2 0x60AD PUSH1 0x0 DUP4 ADD DUP9 PUSH2 0x490C JUMP JUMPDEST PUSH2 0x60BA PUSH1 0x20 DUP4 ADD DUP8 PUSH2 0x490C JUMP JUMPDEST PUSH2 0x60C7 PUSH1 0x40 DUP4 ADD DUP7 PUSH2 0x490C JUMP JUMPDEST PUSH2 0x60D4 PUSH1 0x60 DUP4 ADD DUP6 PUSH2 0x46AC JUMP JUMPDEST PUSH2 0x60E1 PUSH1 0x80 DUP4 ADD DUP5 PUSH2 0x4616 JUMP JUMPDEST SWAP7 SWAP6 POP POP POP POP POP POP JUMP JUMPDEST PUSH32 0x4E487B7100000000000000000000000000000000000000000000000000000000 PUSH1 0x0 MSTORE PUSH1 0x31 PUSH1 0x4 MSTORE PUSH1 0x24 PUSH1 0x0 REVERT JUMPDEST PUSH1 0x0 PUSH1 0xFF DUP3 AND SWAP1 POP SWAP2 SWAP1 POP JUMP JUMPDEST PUSH2 0x6130 DUP2 PUSH2 0x611A JUMP JUMPDEST DUP3 MSTORE POP POP JUMP JUMPDEST PUSH1 0x0 PUSH1 0x80 DUP3 ADD SWAP1 POP PUSH2 0x614B PUSH1 0x0 DUP4 ADD DUP8 PUSH2 0x490C JUMP JUMPDEST PUSH2 0x6158 PUSH1 0x20 DUP4 ADD DUP7 PUSH2 0x6127 JUMP JUMPDEST PUSH2 0x6165 PUSH1 0x40 DUP4 ADD DUP6 PUSH2 0x490C JUMP JUMPDEST PUSH2 0x6172 PUSH1 0x60 DUP4 ADD DUP5 PUSH2 0x490C JUMP JUMPDEST SWAP6 SWAP5 POP POP POP POP POP JUMP INVALID LOG2 PUSH5 0x6970667358 0x22 SLT KECCAK256 PUSH24 0x9A3F4ACE96A069F108E0D63001F388DA5E9D795E4EE4F2F2 0xE7 0xC1 0x2D 0xA7 ORIGIN CHAINID PREVRANDAO PUSH5 0x736F6C6343 STOP ADDMOD SHL STOP CALLER "},"methodIdentifiers":{"addPhase(uint8,uint256,uint256,uint256,uint256,uint256,bytes32)":"57036078","approve(address,uint256)":"095ea7b3","backendSigner()":"65d65e86","balanceOf(address)":"70a08231","eip712Domain()":"84b0196e","getActivePhase()":"1ce97fd1","getApproved(uint256)":"081812fc","getDomainSeparator()":"ed24911d","getMintedInPhase(address,uint8)":"f7330c2d","getPhaseCount()":"db5e0063","isActivePhasePresent()":"072a1319","isApprovedForAll(address,address)":"e985e9c5","mint(uint256,string,bytes32,uint256,bytes,bytes32[])":"8ff75e82","name()":"06fdde03","owner()":"8da5cb5b","ownerOf(uint256)":"6352211e","phases(uint256)":"2e37eef6","platformFeePercentage()":"cdd78cfc","platformFeeRecipient()":"eb13554f","renounceOwnership()":"715018a6","royaltyInfo(uint256,uint256)":"2a55205a","safeTransferFrom(address,address,uint256)":"42842e0e","safeTransferFrom(address,address,uint256,bytes)":"b88d4fde","setApprovalForAll(address,bool)":"a22cb465","supportsInterface(bytes4)":"01ffc9a7","symbol()":"95d89b41","tokenByIndex(uint256)":"4f6ccce7","tokenOfOwnerByIndex(address,uint256)":"2f745c59","tokenURI(uint256)":"c87b56dd","tokensOfOwner(address)":"8462151c","totalSupply()":"18160ddd","transferFrom(address,address,uint256)":"23b872dd","transferOwnership(address)":"f2fde38b","updatePhase(uint256,uint8,uint256,uint256,uint256,uint256,uint256,bytes32)":"76826a67"}}}}}