{"src/blockchain/evm/contracts/DirectMintNFTV2.sol":{"LaunchNFTV2":{"abi":[{"inputs":[{"internalType":"address","name":"initialOwner","type":"address"},{"internalType":"string","name":"name","type":"string"},{"internalType":"string","name":"symbol","type":"string"},{"internalType":"uint96","name":"_royaltyFee","type":"uint96"},{"internalType":"uint96","name":"_platformFee","type":"uint96"},{"internalType":"address","name":"_platformFeeRecipient","type":"address"},{"internalType":"address","name":"_backendSigner","type":"address"}],"stateMutability":"nonpayable","type":"constructor"},{"inputs":[],"name":"ECDSAInvalidSignature","type":"error"},{"inputs":[{"internalType":"uint256","name":"length","type":"uint256"}],"name":"ECDSAInvalidSignatureLength","type":"error"},{"inputs":[{"internalType":"bytes32","name":"s","type":"bytes32"}],"name":"ECDSAInvalidSignatureS","type":"error"},{"inputs":[{"internalType":"uint256","name":"numerator","type":"uint256"},{"internalType":"uint256","name":"denominator","type":"uint256"}],"name":"ERC2981InvalidDefaultRoyalty","type":"error"},{"inputs":[{"internalType":"address","name":"receiver","type":"address"}],"name":"ERC2981InvalidDefaultRoyaltyReceiver","type":"error"},{"inputs":[{"internalType":"uint256","name":"tokenId","type":"uint256"},{"internalType":"uint256","name":"numerator","type":"uint256"},{"internalType":"uint256","name":"denominator","type":"uint256"}],"name":"ERC2981InvalidTokenRoyalty","type":"error"},{"inputs":[{"internalType":"uint256","name":"tokenId","type":"uint256"},{"internalType":"address","name":"receiver","type":"address"}],"name":"ERC2981InvalidTokenRoyaltyReceiver","type":"error"},{"inputs":[],"name":"ERC721EnumerableForbiddenBatchMint","type":"error"},{"inputs":[{"internalType":"address","name":"sender","type":"address"},{"internalType":"uint256","name":"tokenId","type":"uint256"},{"internalType":"address","name":"owner","type":"address"}],"name":"ERC721IncorrectOwner","type":"error"},{"inputs":[{"internalType":"address","name":"operator","type":"address"},{"internalType":"uint256","name":"tokenId","type":"uint256"}],"name":"ERC721InsufficientApproval","type":"error"},{"inputs":[{"internalType":"address","name":"approver","type":"address"}],"name":"ERC721InvalidApprover","type":"error"},{"inputs":[{"internalType":"address","name":"operator","type":"address"}],"name":"ERC721InvalidOperator","type":"error"},{"inputs":[{"internalType":"address","name":"owner","type":"address"}],"name":"ERC721InvalidOwner","type":"error"},{"inputs":[{"internalType":"address","name":"receiver","type":"address"}],"name":"ERC721InvalidReceiver","type":"error"},{"inputs":[{"internalType":"address","name":"sender","type":"address"}],"name":"ERC721InvalidSender","type":"error"},{"inputs":[{"internalType":"uint256","name":"tokenId","type":"uint256"}],"name":"ERC721NonexistentToken","type":"error"},{"inputs":[{"internalType":"address","name":"owner","type":"address"},{"internalType":"uint256","name":"index","type":"uint256"}],"name":"ERC721OutOfBoundsIndex","type":"error"},{"inputs":[],"name":"InvalidShortString","type":"error"},{"inputs":[{"internalType":"address","name":"owner","type":"address"}],"name":"OwnableInvalidOwner","type":"error"},{"inputs":[{"internalType":"address","name":"account","type":"address"}],"name":"OwnableUnauthorizedAccount","type":"error"},{"inputs":[{"internalType":"string","name":"str","type":"string"}],"name":"StringTooLong","type":"error"},{"anonymous":false,"inputs":[{"indexed":true,"internalType":"address","name":"owner","type":"address"},{"indexed":true,"internalType":"address","name":"approved","type":"address"},{"indexed":true,"internalType":"uint256","name":"tokenId","type":"uint256"}],"name":"Approval","type":"event"},{"anonymous":false,"inputs":[{"indexed":true,"internalType":"address","name":"owner","type":"address"},{"indexed":true,"internalType":"address","name":"operator","type":"address"},{"indexed":false,"internalType":"bool","name":"approved","type":"bool"}],"name":"ApprovalForAll","type":"event"},{"anonymous":false,"inputs":[{"indexed":false,"internalType":"uint256","name":"_fromTokenId","type":"uint256"},{"indexed":false,"internalType":"uint256","name":"_toTokenId","type":"uint256"}],"name":"BatchMetadataUpdate","type":"event"},{"anonymous":false,"inputs":[],"name":"EIP712DomainChanged","type":"event"},{"anonymous":false,"inputs":[{"indexed":false,"internalType":"uint256","name":"_tokenId","type":"uint256"}],"name":"MetadataUpdate","type":"event"},{"anonymous":false,"inputs":[{"indexed":true,"internalType":"address","name":"previousOwner","type":"address"},{"indexed":true,"internalType":"address","name":"newOwner","type":"address"}],"name":"OwnershipTransferred","type":"event"},{"anonymous":false,"inputs":[{"indexed":true,"internalType":"uint256","name":"phaseIndex","type":"uint256"},{"indexed":false,"internalType":"enum LaunchNFTV2.PhaseType","name":"phaseType","type":"uint8"},{"indexed":false,"internalType":"uint256","name":"price","type":"uint256"}],"name":"PhaseAdded","type":"event"},{"anonymous":false,"inputs":[{"indexed":true,"internalType":"uint256","name":"phaseIndex","type":"uint256"},{"indexed":false,"internalType":"enum LaunchNFTV2.PhaseType","name":"phaseType","type":"uint8"},{"indexed":false,"internalType":"uint256","name":"price","type":"uint256"}],"name":"PhaseUpdated","type":"event"},{"anonymous":false,"inputs":[{"indexed":false,"internalType":"uint96","name":"newPercentage","type":"uint96"},{"indexed":false,"internalType":"address","name":"newRecipient","type":"address"}],"name":"PlatformFeeUpdated","type":"event"},{"anonymous":false,"inputs":[{"indexed":true,"internalType":"uint256","name":"tokenId","type":"uint256"},{"indexed":true,"internalType":"address","name":"recipient","type":"address"},{"indexed":false,"internalType":"enum LaunchNFTV2.PhaseType","name":"phaseType","type":"uint8"}],"name":"TokenMinted","type":"event"},{"anonymous":false,"inputs":[{"indexed":true,"internalType":"address","name":"from","type":"address"},{"indexed":true,"internalType":"address","name":"to","type":"address"},{"indexed":true,"internalType":"uint256","name":"tokenId","type":"uint256"}],"name":"Transfer","type":"event"},{"anonymous":false,"inputs":[{"indexed":true,"internalType":"address","name":"recipient","type":"address"},{"indexed":false,"internalType":"uint256","name":"amount","type":"uint256"}],"name":"WithdrawCompleted","type":"event"},{"inputs":[{"internalType":"enum LaunchNFTV2.PhaseType","name":"_phaseType","type":"uint8"},{"internalType":"uint256","name":"_price","type":"uint256"},{"internalType":"uint256","name":"_startTime","type":"uint256"},{"internalType":"uint256","name":"_endTime","type":"uint256"},{"internalType":"uint256","name":"_maxSupply","type":"uint256"},{"internalType":"uint256","name":"_maxPerWallet","type":"uint256"},{"internalType":"bytes32","name":"_merkleRoot","type":"bytes32"}],"name":"addPhase","outputs":[],"stateMutability":"nonpayable","type":"function"},{"inputs":[{"internalType":"address","name":"to","type":"address"},{"internalType":"uint256","name":"tokenId","type":"uint256"}],"name":"approve","outputs":[],"stateMutability":"nonpayable","type":"function"},{"inputs":[],"name":"backendSigner","outputs":[{"internalType":"address","name":"","type":"address"}],"stateMutability":"view","type":"function"},{"inputs":[{"internalType":"address","name":"owner","type":"address"}],"name":"balanceOf","outputs":[{"internalType":"uint256","name":"","type":"uint256"}],"stateMutability":"view","type":"function"},{"inputs":[],"name":"eip712Domain","outputs":[{"internalType":"bytes1","name":"fields","type":"bytes1"},{"internalType":"string","name":"name","type":"string"},{"internalType":"string","name":"version","type":"string"},{"internalType":"uint256","name":"chainId","type":"uint256"},{"internalType":"address","name":"verifyingContract","type":"address"},{"internalType":"bytes32","name":"salt","type":"bytes32"},{"internalType":"uint256[]","name":"extensions","type":"uint256[]"}],"stateMutability":"view","type":"function"},{"inputs":[],"name":"getActivePhase","outputs":[{"internalType":"uint256","name":"phaseIndex","type":"uint256"},{"components":[{"internalType":"enum LaunchNFTV2.PhaseType","name":"phaseType","type":"uint8"},{"internalType":"uint256","name":"price","type":"uint256"},{"internalType":"uint256","name":"startTime","type":"uint256"},{"internalType":"uint256","name":"endTime","type":"uint256"},{"internalType":"uint256","name":"maxSupply","type":"uint256"},{"internalType":"uint256","name":"maxPerWallet","type":"uint256"},{"internalType":"uint256","name":"mintedInPhase","type":"uint256"},{"internalType":"bytes32","name":"merkleRoot","type":"bytes32"}],"internalType":"struct LaunchNFTV2.Phase","name":"phase","type":"tuple"}],"stateMutability":"view","type":"function"},{"inputs":[{"internalType":"uint256","name":"tokenId","type":"uint256"}],"name":"getApproved","outputs":[{"internalType":"address","name":"","type":"address"}],"stateMutability":"view","type":"function"},{"inputs":[],"name":"getDomainSeparator","outputs":[{"internalType":"bytes32","name":"","type":"bytes32"}],"stateMutability":"view","type":"function"},{"inputs":[{"internalType":"address","name":"user","type":"address"},{"internalType":"enum LaunchNFTV2.PhaseType","name":"phaseType","type":"uint8"}],"name":"getMintedInPhase","outputs":[{"internalType":"uint256","name":"","type":"uint256"}],"stateMutability":"view","type":"function"},{"inputs":[],"name":"getPhaseCount","outputs":[{"internalType":"uint256","name":"","type":"uint256"}],"stateMutability":"view","type":"function"},{"inputs":[],"name":"isActivePhasePresent","outputs":[{"internalType":"bool","name":"","type":"bool"}],"stateMutability":"view","type":"function"},{"inputs":[{"internalType":"address","name":"owner","type":"address"},{"internalType":"address","name":"operator","type":"address"}],"name":"isApprovedForAll","outputs":[{"internalType":"bool","name":"","type":"bool"}],"stateMutability":"view","type":"function"},{"inputs":[{"internalType":"uint256","name":"tokenId","type":"uint256"},{"internalType":"string","name":"uri","type":"string"},{"internalType":"bytes32","name":"uniqueId","type":"bytes32"},{"internalType":"uint256","name":"timestamp","type":"uint256"},{"internalType":"bytes","name":"signature","type":"bytes"},{"internalType":"bytes32[]","name":"merkleProof","type":"bytes32[]"}],"name":"mint","outputs":[],"stateMutability":"payable","type":"function"},{"inputs":[],"name":"name","outputs":[{"internalType":"string","name":"","type":"string"}],"stateMutability":"view","type":"function"},{"inputs":[],"name":"owner","outputs":[{"internalType":"address","name":"","type":"address"}],"stateMutability":"view","type":"function"},{"inputs":[{"internalType":"uint256","name":"tokenId","type":"uint256"}],"name":"ownerOf","outputs":[{"internalType":"address","name":"","type":"address"}],"stateMutability":"view","type":"function"},{"inputs":[{"internalType":"uint256","name":"","type":"uint256"}],"name":"phases","outputs":[{"internalType":"enum LaunchNFTV2.PhaseType","name":"phaseType","type":"uint8"},{"internalType":"uint256","name":"price","type":"uint256"},{"internalType":"uint256","name":"startTime","type":"uint256"},{"internalType":"uint256","name":"endTime","type":"uint256"},{"internalType":"uint256","name":"maxSupply","type":"uint256"},{"internalType":"uint256","name":"maxPerWallet","type":"uint256"},{"internalType":"uint256","name":"mintedInPhase","type":"uint256"},{"internalType":"bytes32","name":"merkleRoot","type":"bytes32"}],"stateMutability":"view","type":"function"},{"inputs":[],"name":"platformFeePercentage","outputs":[{"internalType":"uint96","name":"","type":"uint96"}],"stateMutability":"view","type":"function"},{"inputs":[],"name":"platformFeeRecipient","outputs":[{"internalType":"address","name":"","type":"address"}],"stateMutability":"view","type":"function"},{"inputs":[],"name":"renounceOwnership","outputs":[],"stateMutability":"nonpayable","type":"function"},{"inputs":[{"internalType":"uint256","name":"tokenId","type":"uint256"},{"internalType":"uint256","name":"salePrice","type":"uint256"}],"name":"royaltyInfo","outputs":[{"internalType":"address","name":"receiver","type":"address"},{"internalType":"uint256","name":"amount","type":"uint256"}],"stateMutability":"view","type":"function"},{"inputs":[{"internalType":"address","name":"from","type":"address"},{"internalType":"address","name":"to","type":"address"},{"internalType":"uint256","name":"tokenId","type":"uint256"}],"name":"safeTransferFrom","outputs":[],"stateMutability":"nonpayable","type":"function"},{"inputs":[{"internalType":"address","name":"from","type":"address"},{"internalType":"address","name":"to","type":"address"},{"internalType":"uint256","name":"tokenId","type":"uint256"},{"internalType":"bytes","name":"data","type":"bytes"}],"name":"safeTransferFrom","outputs":[],"stateMutability":"nonpayable","type":"function"},{"inputs":[{"internalType":"address","name":"operator","type":"address"},{"internalType":"bool","name":"approved","type":"bool"}],"name":"setApprovalForAll","outputs":[],"stateMutability":"nonpayable","type":"function"},{"inputs":[{"internalType":"bytes4","name":"interfaceId","type":"bytes4"}],"name":"supportsInterface","outputs":[{"internalType":"bool","name":"","type":"bool"}],"stateMutability":"view","type":"function"},{"inputs":[],"name":"symbol","outputs":[{"internalType":"string","name":"","type":"string"}],"stateMutability":"view","type":"function"},{"inputs":[{"internalType":"uint256","name":"index","type":"uint256"}],"name":"tokenByIndex","outputs":[{"internalType":"uint256","name":"","type":"uint256"}],"stateMutability":"view","type":"function"},{"inputs":[{"internalType":"address","name":"owner","type":"address"},{"internalType":"uint256","name":"index","type":"uint256"}],"name":"tokenOfOwnerByIndex","outputs":[{"internalType":"uint256","name":"","type":"uint256"}],"stateMutability":"view","type":"function"},{"inputs":[{"internalType":"uint256","name":"tokenId","type":"uint256"}],"name":"tokenURI","outputs":[{"internalType":"string","name":"","type":"string"}],"stateMutability":"view","type":"function"},{"inputs":[{"internalType":"address","name":"owner","type":"address"}],"name":"tokensOfOwner","outputs":[{"internalType":"uint256[]","name":"","type":"uint256[]"}],"stateMutability":"view","type":"function"},{"inputs":[],"name":"totalSupply","outputs":[{"internalType":"uint256","name":"","type":"uint256"}],"stateMutability":"view","type":"function"},{"inputs":[{"internalType":"address","name":"from","type":"address"},{"internalType":"address","name":"to","type":"address"},{"internalType":"uint256","name":"tokenId","type":"uint256"}],"name":"transferFrom","outputs":[],"stateMutability":"nonpayable","type":"function"},{"inputs":[{"internalType":"address","name":"newOwner","type":"address"}],"name":"transferOwnership","outputs":[],"stateMutability":"nonpayable","type":"function"}],"evm":{"bytecode":{"linkReferences":{},"object":"6101a060405234801561001157600080fd5b50604051616cbd380380616cbd83398181016040528101906100339190610a2b565b6040518060400160405280600a81526020017f556e69666965644e4654000000000000000000000000000000000000000000008152506040518060400160405280600181526020017f310000000000000000000000000000000000000000000000000000000000000081525088888881600090816100b19190610d26565b5080600190816100c19190610d26565b505050600073ffffffffffffffffffffffffffffffffffffffff168173ffffffffffffffffffffffffffffffffffffffff16036101365760006040517f1e4fbdf700000000000000000000000000000000000000000000000000000000815260040161012d9190610e07565b60405180910390fd5b6101458161047f60201b60201c565b5061015a600e8361054560201b90919060201c565b6101208181525050610176600f8261054560201b90919060201c565b6101408181525050818051906020012060e08181525050808051906020012061010081815250504660a081815250506101b361059560201b60201c565b608081815250503073ffffffffffffffffffffffffffffffffffffffff1660c08173ffffffffffffffffffffffffffffffffffffffff168152505050506103e8846bffffffffffffffffffffffff161115801561022057506103e8836bffffffffffffffffffffffff1611155b80156102595750600073ffffffffffffffffffffffffffffffffffffffff168273ffffffffffffffffffffffffffffffffffffffff1614155b80156102925750600073ffffffffffffffffffffffffffffffffffffffff168173ffffffffffffffffffffffffffffffffffffffff1614155b61029b57600080fd5b8073ffffffffffffffffffffffffffffffffffffffff166101608173ffffffffffffffffffffffffffffffffffffffff1681525050836bffffffffffffffffffffffff16610180816bffffffffffffffffffffffff168152505082601560006101000a8154816bffffffffffffffffffffffff02191690836bffffffffffffffffffffffff160217905550816015600c6101000a81548173ffffffffffffffffffffffffffffffffffffffff021916908373ffffffffffffffffffffffffffffffffffffffff16021790555061037a87610180516105f060201b60201c565b60126040518061010001604052806000600281111561039c5761039b610e22565b5b81526020016000815260200160008152602001600081526020016000815260200160008152602001600081526020016000801b815250908060018154018082558091505060019003906000526020600020906008020160009091909190915060008201518160000160006101000a81548160ff0219169083600281111561042657610425610e22565b5b02179055506020820151816001015560408201518160020155606082015181600301556080820151816004015560a0820151816005015560c0820151816006015560e08201518160070155505050505050505050611029565b6000600d60009054906101000a900473ffffffffffffffffffffffffffffffffffffffff16905081600d60006101000a81548173ffffffffffffffffffffffffffffffffffffffff021916908373ffffffffffffffffffffffffffffffffffffffff1602179055508173ffffffffffffffffffffffffffffffffffffffff168173ffffffffffffffffffffffffffffffffffffffff167f8be0079c531659141344cd1fd0a4f28419497f9722a3daafe3b4186f6b6457e060405160405180910390a35050565b6000602083511015610567576105608361079860201b60201c565b905061058f565b826105778361080060201b60201c565b60000190816105869190610d26565b5060ff60001b90505b92915050565b60007f8b73c3c69bb8fe3d512ecc4cf759cc79239f7b179b0ffacaa9a75d522b39400f60e0516101005146306040516020016105d5959493929190610e79565b60405160208183030381529060405280519060200120905090565b600061060061080a60201b60201c565b6bffffffffffffffffffffffff16905080826bffffffffffffffffffffffff1611156106655781816040517f6f483d0900000000000000000000000000000000000000000000000000000000815260040161065c929190610efd565b60405180910390fd5b600073ffffffffffffffffffffffffffffffffffffffff168373ffffffffffffffffffffffffffffffffffffffff16036106d75760006040517fb6d9900a0000000000000000000000000000000000000000000000000000000081526004016106ce9190610e07565b60405180910390fd5b60405180604001604052808473ffffffffffffffffffffffffffffffffffffffff168152602001836bffffffffffffffffffffffff16815250600b60008201518160000160006101000a81548173ffffffffffffffffffffffffffffffffffffffff021916908373ffffffffffffffffffffffffffffffffffffffff16021790555060208201518160000160146101000a8154816bffffffffffffffffffffffff02191690836bffffffffffffffffffffffff160217905550905050505050565b600080829050601f815111156107e557826040517f305a27a90000000000000000000000000000000000000000000000000000000081526004016107dc9190610f70565b60405180910390fd5b8051816107f190610fc2565b60001c1760001b915050919050565b6000819050919050565b6000612710905090565b6000604051905090565b600080fd5b600080fd5b600073ffffffffffffffffffffffffffffffffffffffff82169050919050565b600061085382610828565b9050919050565b61086381610848565b811461086e57600080fd5b50565b6000815190506108808161085a565b92915050565b600080fd5b600080fd5b6000601f19601f8301169050919050565b7f4e487b7100000000000000000000000000000000000000000000000000000000600052604160045260246000fd5b6108d982610890565b810181811067ffffffffffffffff821117156108f8576108f76108a1565b5b80604052505050565b600061090b610814565b905061091782826108d0565b919050565b600067ffffffffffffffff821115610937576109366108a1565b5b61094082610890565b9050602081019050919050565b60005b8381101561096b578082015181840152602081019050610950565b60008484015250505050565b600061098a6109858461091c565b610901565b9050828152602081018484840111156109a6576109a561088b565b5b6109b184828561094d565b509392505050565b600082601f8301126109ce576109cd610886565b5b81516109de848260208601610977565b91505092915050565b60006bffffffffffffffffffffffff82169050919050565b610a08816109e7565b8114610a1357600080fd5b50565b600081519050610a25816109ff565b92915050565b600080600080600080600060e0888a031215610a4a57610a4961081e565b5b6000610a588a828b01610871565b975050602088015167ffffffffffffffff811115610a7957610a78610823565b5b610a858a828b016109b9565b965050604088015167ffffffffffffffff811115610aa657610aa5610823565b5b610ab28a828b016109b9565b9550506060610ac38a828b01610a16565b9450506080610ad48a828b01610a16565b93505060a0610ae58a828b01610871565b92505060c0610af68a828b01610871565b91505092959891949750929550565b600081519050919050565b7f4e487b7100000000000000000000000000000000000000000000000000000000600052602260045260246000fd5b60006002820490506001821680610b5757607f821691505b602082108103610b6a57610b69610b10565b5b50919050565b60008190508160005260206000209050919050565b60006020601f8301049050919050565b600082821b905092915050565b600060088302610bd27fffffffffffffffffffffffffffffffffffffffffffffffffffffffffffffffff82610b95565b610bdc8683610b95565b95508019841693508086168417925050509392505050565b6000819050919050565b6000819050919050565b6000610c23610c1e610c1984610bf4565b610bfe565b610bf4565b9050919050565b6000819050919050565b610c3d83610c08565b610c51610c4982610c2a565b848454610ba2565b825550505050565b600090565b610c66610c59565b610c71818484610c34565b505050565b5b81811015610c9557610c8a600082610c5e565b600181019050610c77565b5050565b601f821115610cda57610cab81610b70565b610cb484610b85565b81016020851015610cc3578190505b610cd7610ccf85610b85565b830182610c76565b50505b505050565b600082821c905092915050565b6000610cfd60001984600802610cdf565b1980831691505092915050565b6000610d168383610cec565b9150826002028217905092915050565b610d2f82610b05565b67ffffffffffffffff811115610d4857610d476108a1565b5b610d528254610b3f565b610d5d828285610c99565b600060209050601f831160018114610d905760008415610d7e578287015190505b610d888582610d0a565b865550610df0565b601f198416610d9e86610b70565b60005b82811015610dc657848901518255600182019150602085019450602081019050610da1565b86831015610de35784890151610ddf601f891682610cec565b8355505b6001600288020188555050505b505050505050565b610e0181610848565b82525050565b6000602082019050610e1c6000830184610df8565b92915050565b7f4e487b7100000000000000000000000000000000000000000000000000000000600052602160045260246000fd5b6000819050919050565b610e6481610e51565b82525050565b610e7381610bf4565b82525050565b600060a082019050610e8e6000830188610e5b565b610e9b6020830187610e5b565b610ea86040830186610e5b565b610eb56060830185610e6a565b610ec26080830184610df8565b9695505050505050565b6000610ee7610ee2610edd846109e7565b610bfe565b610bf4565b9050919050565b610ef781610ecc565b82525050565b6000604082019050610f126000830185610eee565b610f1f6020830184610e6a565b9392505050565b600082825260208201905092915050565b6000610f4282610b05565b610f4c8185610f26565b9350610f5c81856020860161094d565b610f6581610890565b840191505092915050565b60006020820190508181036000830152610f8a8184610f37565b905092915050565b600081519050919050565b6000819050602082019050919050565b6000610fb98251610e51565b80915050919050565b6000610fcd82610f92565b82610fd784610f9d565b9050610fe281610fad565b925060208210156110225761101d7fffffffffffffffffffffffffffffffffffffffffffffffffffffffffffffffff83602003600802610b95565b831692505b5050919050565b60805160a05160c05160e0516101005161012051610140516101605161018051615c2061109d600039600050506000818161124801526116d80152600061216b01526000612130015260006131ba01526000613199015260006129460152600061299c015260006129c50152615c206000f3fe6080604052600436106101ee5760003560e01c806370a082311161010d578063b88d4fde116100a0578063e985e9c51161006f578063e985e9c51461073b578063eb13554f14610778578063ed24911d146107a3578063f2fde38b146107ce578063f7330c2d146107f7576101ee565b8063b88d4fde1461067f578063c87b56dd146106a8578063cdd78cfc146106e5578063db5e006314610710576101ee565b80638da5cb5b116100dc5780638da5cb5b146105e45780638ff75e821461060f57806395d89b411461062b578063a22cb46514610656576101ee565b806370a0823114610522578063715018a61461055f5780638462151c1461057657806384b0196e146105b3576101ee565b80632a55205a116101855780634f6ccce7116101545780634f6ccce71461045457806357036078146104915780636352211e146104ba57806365d65e86146104f7576101ee565b80632a55205a1461036c5780632e37eef6146103aa5780632f745c59146103ee57806342842e0e1461042b576101ee565b8063095ea7b3116101c1578063095ea7b3146102c357806318160ddd146102ec5780631ce97fd11461031757806323b872dd14610343576101ee565b806301ffc9a7146101f357806306fdde0314610230578063072a13191461025b578063081812fc14610286575b600080fd5b3480156101ff57600080fd5b5061021a60048036038101906102159190613ffd565b610834565b6040516102279190614045565b60405180910390f35b34801561023c57600080fd5b50610245610846565b60405161025291906140f0565b60405180910390f35b34801561026757600080fd5b506102706108d8565b60405161027d9190614045565b60405180910390f35b34801561029257600080fd5b506102ad60048036038101906102a89190614148565b6109d2565b6040516102ba91906141b6565b60405180910390f35b3480156102cf57600080fd5b506102ea60048036038101906102e591906141fd565b6109ee565b005b3480156102f857600080fd5b50610301610a04565b60405161030e919061424c565b60405180910390f35b34801561032357600080fd5b5061032c610a11565b60405161033a9291906143a8565b60405180910390f35b34801561034f57600080fd5b5061036a600480360381019061036591906143d2565b610abb565b005b34801561037857600080fd5b50610393600480360381019061038e9190614425565b610bbd565b6040516103a1929190614465565b60405180910390f35b3480156103b657600080fd5b506103d160048036038101906103cc9190614148565b610ced565b6040516103e59897969594939291906144ac565b60405180910390f35b3480156103fa57600080fd5b50610415600480360381019061041091906141fd565b610d52565b604051610422919061424c565b60405180910390f35b34801561043757600080fd5b50610452600480360381019061044d91906143d2565b610dfb565b005b34801561046057600080fd5b5061047b60048036038101906104769190614148565b610e1b565b604051610488919061424c565b60405180910390f35b34801561049d57600080fd5b506104b860048036038101906104b3919061457b565b610e91565b005b3480156104c657600080fd5b506104e160048036038101906104dc9190614148565b611234565b6040516104ee91906141b6565b60405180910390f35b34801561050357600080fd5b5061050c611246565b60405161051991906141b6565b60405180910390f35b34801561052e57600080fd5b506105496004803603810190610544919061461d565b61126a565b604051610556919061424c565b60405180910390f35b34801561056b57600080fd5b50610574611324565b005b34801561058257600080fd5b5061059d6004803603810190610598919061461d565b611338565b6040516105aa91906146f9565b60405180910390f35b3480156105bf57600080fd5b506105c86113cf565b6040516105db9796959493929190614756565b60405180910390f35b3480156105f057600080fd5b506105f9611479565b60405161060691906141b6565b60405180910390f35b610629600480360381019061062491906148eb565b6114a3565b005b34801561063757600080fd5b50610640611a34565b60405161064d91906140f0565b60405180910390f35b34801561066257600080fd5b5061067d60048036038101906106789190614a06565b611ac6565b005b34801561068b57600080fd5b506106a660048036038101906106a19190614b76565b611adc565b005b3480156106b457600080fd5b506106cf60048036038101906106ca9190614148565b611b01565b6040516106dc91906140f0565b60405180910390f35b3480156106f157600080fd5b506106fa611b13565b6040516107079190614c20565b60405180910390f35b34801561071c57600080fd5b50610725611b31565b604051610732919061424c565b60405180910390f35b34801561074757600080fd5b50610762600480360381019061075d9190614c3b565b611b3e565b60405161076f9190614045565b60405180910390f35b34801561078457600080fd5b5061078d611bd2565b60405161079a91906141b6565b60405180910390f35b3480156107af57600080fd5b506107b8611bf8565b6040516107c59190614c7b565b60405180910390f35b3480156107da57600080fd5b506107f560048036038101906107f0919061461d565b611c07565b005b34801561080357600080fd5b5061081e60048036038101906108199190614c96565b611c8d565b60405161082b919061424c565b60405180910390f35b600061083f82611d0c565b9050919050565b60606000805461085590614d05565b80601f016020809104026020016040519081016040528092919081815260200182805461088190614d05565b80156108ce5780601f106108a3576101008083540402835291602001916108ce565b820191906000526020600020905b8154815290600101906020018083116108b157829003601f168201915b5050505050905090565b60008042905060005b6012805490508110156109c8576000600281111561090257610901614267565b5b6012828154811061091657610915614d36565b5b906000526020600020906008020160000160009054906101000a900460ff16600281111561094757610946614267565b5b1415801561097a57506012818154811061096457610963614d36565b5b9060005260206000209060080201600201548210155b80156109ab57506012818154811061099557610994614d36565b5b9060005260206000209060080201600301548211155b156109bb576001925050506109cf565b80806001019150506108e1565b5060009150505b90565b60006109dd82611d86565b506109e782611e0e565b9050919050565b610a0082826109fb611e4b565b611e53565b5050565b6000600880549050905090565b6000610a1b613f37565b610a23611e65565b80604051806101000160405290816000820160009054906101000a900460ff166002811115610a5557610a54614267565b5b6002811115610a6757610a66614267565b5b81526020016001820154815260200160028201548152602001600382015481526020016004820154815260200160058201548152602001600682015481526020016007820154815250509050915091509091565b600073ffffffffffffffffffffffffffffffffffffffff168273ffffffffffffffffffffffffffffffffffffffff1603610b2d5760006040517f64a0ae92000000000000000000000000000000000000000000000000000000008152600401610b2491906141b6565b60405180910390fd5b6000610b418383610b3c611e4b565b611fba565b90508373ffffffffffffffffffffffffffffffffffffffff168173ffffffffffffffffffffffffffffffffffffffff1614610bb7578382826040517f64283d7b000000000000000000000000000000000000000000000000000000008152600401610bae93929190614d65565b60405180910390fd5b50505050565b6000806000600c6000868152602001908152602001600020905060008160000160009054906101000a900473ffffffffffffffffffffffffffffffffffffffff16905060008260000160149054906101000a90046bffffffffffffffffffffffff169050600073ffffffffffffffffffffffffffffffffffffffff168273ffffffffffffffffffffffffffffffffffffffff1603610c9e57600b60000160009054906101000a900473ffffffffffffffffffffffffffffffffffffffff169150600b60000160149054906101000a90046bffffffffffffffffffffffff1690505b6000610ca8611fd0565b6bffffffffffffffffffffffff16826bffffffffffffffffffffffff1688610cd09190614dcb565b610cda9190614e3c565b9050828195509550505050509250929050565b60128181548110610cfd57600080fd5b90600052602060002090600802016000915090508060000160009054906101000a900460ff16908060010154908060020154908060030154908060040154908060050154908060060154908060070154905088565b6000610d5d8361126a565b8210610da25782826040517fa57d13dc000000000000000000000000000000000000000000000000000000008152600401610d99929190614465565b60405180910390fd5b600660008473ffffffffffffffffffffffffffffffffffffffff1673ffffffffffffffffffffffffffffffffffffffff168152602001908152602001600020600083815260200190815260200160002054905092915050565b610e1683838360405180602001604052806000815250611adc565b505050565b6000610e25610a04565b8210610e6b576000826040517fa57d13dc000000000000000000000000000000000000000000000000000000008152600401610e62929190614465565b60405180910390fd5b60088281548110610e7f57610e7e614d36565b5b90600052602060002001549050919050565b610e99611fda565b838510610edb576040517f08c379a0000000000000000000000000000000000000000000000000000000008152600401610ed290614eb9565b60405180910390fd5b600280811115610eee57610eed614267565b5b876002811115610f0157610f00614267565b5b14610f8f5760008211610f49576040517f08c379a0000000000000000000000000000000000000000000000000000000008152600401610f4090614f4b565b60405180910390fd5b6000801b8103610f8e576040517f08c379a0000000000000000000000000000000000000000000000000000000008152600401610f8590614fdd565b60405180910390fd5b5b60005b6012805490508110156110ef57600060128281548110610fb557610fb4614d36565b5b9060005260206000209060080201604051806101000160405290816000820160009054906101000a900460ff166002811115610ff457610ff3614267565b5b600281111561100657611005614267565b5b815260200160018201548152602001600282015481526020016003820154815260200160048201548152602001600582015481526020016006820154815260200160078201548152505090506000600281111561106657611065614267565b5b8160000151600281111561107d5761107c614267565b5b0361108857506110e2565b806060015187111580156110a0575080604001518610155b156110e0576040517f08c379a00000000000000000000000000000000000000000000000000000000081526004016110d79061506f565b60405180910390fd5b505b8080600101915050610f92565b50600060405180610100016040528089600281111561111157611110614267565b5b81526020018881526020018781526020018681526020018581526020018481526020016000815260200183815250905060006012805490509050601282908060018154018082558091505060019003906000526020600020906008020160009091909190915060008201518160000160006101000a81548160ff021916908360028111156111a2576111a1614267565b5b02179055506020820151816001015560408201518160020155606082015181600301556080820151816004015560a0820151816005015560c0820151816006015560e082015181600701555050807f7673e4939433531841b3ee155cfb41d74036f1741ed20ba7c3ed88d66a2895518a8a60405161122192919061508f565b60405180910390a2505050505050505050565b600061123f82611d86565b9050919050565b7f000000000000000000000000000000000000000000000000000000000000000081565b60008073ffffffffffffffffffffffffffffffffffffffff168273ffffffffffffffffffffffffffffffffffffffff16036112dd5760006040517f89c62b640000000000000000000000000000000000000000000000000000000081526004016112d491906141b6565b60405180910390fd5b600360008373ffffffffffffffffffffffffffffffffffffffff1673ffffffffffffffffffffffffffffffffffffffff168152602001908152602001600020549050919050565b61132c611fda565b6113366000612061565b565b6060601460008373ffffffffffffffffffffffffffffffffffffffff1673ffffffffffffffffffffffffffffffffffffffff1681526020019081526020016000208054806020026020016040519081016040528092919081815260200182805480156113c357602002820191906000526020600020905b8154815260200190600101908083116113af575b50505050509050919050565b6000606080600080600060606113e3612127565b6113eb612162565b46306000801b600067ffffffffffffffff81111561140c5761140b614a4b565b5b60405190808252806020026020018201604052801561143a5781602001602082028036833780820191505090505b507f0f00000000000000000000000000000000000000000000000000000000000000959493929190965096509650965096509650965090919293949596565b6000600d60009054906101000a900473ffffffffffffffffffffffffffffffffffffffff16905090565b6000806114ae611e65565b91509150600160028111156114c6576114c5614267565b5b8160000160009054906101000a900460ff1660028111156114ea576114e9614267565b5b036115a557611565848480806020026020016040519081016040528093929190818152602001838360200280828437600081840152601f19601f8201169050808301925050505050505082600701543360405160200161154a9190615100565b6040516020818303038152906040528051906020012061219d565b6115a4576040517f08c379a000000000000000000000000000000000000000000000000000000000815260040161159b90615167565b60405180910390fd5b5b42610e10886115b49190615187565b101580156115c25750428711155b611601576040517f08c379a00000000000000000000000000000000000000000000000000000000081526004016115f890615207565b60405180910390fd5b6011600089815260200190815260200160002060009054906101000a900460ff1615611662576040517f08c379a000000000000000000000000000000000000000000000000000000000815260040161165990615273565b60405180910390fd5b60007fbcd57119bf9b3f112b39ecfb926b57babf8ea759ef8fb8f953ec0103b2a187f3338d8d8d6040516116979291906152c3565b60405180910390208560010154878e8e6040516020016116be9897969594939291906152dc565b6040516020818303038152906040528051906020012090507f000000000000000000000000000000000000000000000000000000000000000073ffffffffffffffffffffffffffffffffffffffff1661176c88888080601f016020809104026020016040519081016040528093929190818152602001838380828437600081840152601f19601f8201169050808301925050505050505061175e846121b4565b6121ce90919063ffffffff16565b73ffffffffffffffffffffffffffffffffffffffff16146117c2576040517f08c379a00000000000000000000000000000000000000000000000000000000081526004016117b9906153a6565b60405180910390fd5b81600101543414611808576040517f08c379a00000000000000000000000000000000000000000000000000000000081526004016117ff90615412565b60405180910390fd5b600082600401541480611822575081600401548260060154105b611861576040517f08c379a00000000000000000000000000000000000000000000000000000000081526004016118589061547e565b60405180910390fd5b60028081111561187457611873614267565b5b8260000160009054906101000a900460ff16600281111561189857611897614267565b5b1480156118a9575060008260050154145b8061193c57508160050154601360003373ffffffffffffffffffffffffffffffffffffffff1673ffffffffffffffffffffffffffffffffffffffff16815260200190815260200160002060008460000160009054906101000a900460ff16600281111561191957611918614267565b5b600281111561192b5761192a614267565b5b815260200190815260200160002054105b61197b576040517f08c379a000000000000000000000000000000000000000000000000000000000815260040161197290615510565b60405180910390fd5b6001601160008b815260200190815260200160002060006101000a81548160ff0219169083151502179055506119b0346121fa565b6119ba82336123eb565b6119c6338d8d8d6124a4565b3373ffffffffffffffffffffffffffffffffffffffff168c7f99f38cf3feaad38e0a2e22ef51bdd4faba32b432520a951248d77057596a425a8460000160009054906101000a900460ff16604051611a1e9190615530565b60405180910390a3505050505050505050505050565b606060018054611a4390614d05565b80601f0160208091040260200160405190810160405280929190818152602001828054611a6f90614d05565b8015611abc5780601f10611a9157610100808354040283529160200191611abc565b820191906000526020600020905b815481529060010190602001808311611a9f57829003601f168201915b5050505050905090565b611ad8611ad1611e4b565b838361250f565b5050565b611ae7848484610abb565b611afb611af2611e4b565b8585858561267e565b50505050565b6060611b0c8261282f565b9050919050565b601560009054906101000a90046bffffffffffffffffffffffff1681565b6000601280549050905090565b6000600560008473ffffffffffffffffffffffffffffffffffffffff1673ffffffffffffffffffffffffffffffffffffffff16815260200190815260200160002060008373ffffffffffffffffffffffffffffffffffffffff1673ffffffffffffffffffffffffffffffffffffffff16815260200190815260200160002060009054906101000a900460ff16905092915050565b6015600c9054906101000a900473ffffffffffffffffffffffffffffffffffffffff1681565b6000611c02612942565b905090565b611c0f611fda565b600073ffffffffffffffffffffffffffffffffffffffff168173ffffffffffffffffffffffffffffffffffffffff1603611c815760006040517f1e4fbdf7000000000000000000000000000000000000000000000000000000008152600401611c7891906141b6565b60405180910390fd5b611c8a81612061565b50565b6000601360008473ffffffffffffffffffffffffffffffffffffffff1673ffffffffffffffffffffffffffffffffffffffff1681526020019081526020016000206000836002811115611ce357611ce2614267565b5b6002811115611cf557611cf4614267565b5b815260200190815260200160002054905092915050565b60007f2a55205a000000000000000000000000000000000000000000000000000000007bffffffffffffffffffffffffffffffffffffffffffffffffffffffff1916827bffffffffffffffffffffffffffffffffffffffffffffffffffffffff19161480611d7f5750611d7e826129f9565b5b9050919050565b600080611d9283612a5a565b9050600073ffffffffffffffffffffffffffffffffffffffff168173ffffffffffffffffffffffffffffffffffffffff1603611e0557826040517f7e273289000000000000000000000000000000000000000000000000000000008152600401611dfc919061424c565b60405180910390fd5b80915050919050565b60006004600083815260200190815260200160002060009054906101000a900473ffffffffffffffffffffffffffffffffffffffff169050919050565b600033905090565b611e608383836001612a97565b505050565b600080600042905060005b601280549050811015611f7a5760006002811115611e9157611e90614267565b5b60128281548110611ea557611ea4614d36565b5b906000526020600020906008020160000160009054906101000a900460ff166002811115611ed657611ed5614267565b5b14158015611f09575060128181548110611ef357611ef2614d36565b5b9060005260206000209060080201600201548210155b8015611f3a575060128181548110611f2457611f23614d36565b5b9060005260206000209060080201600301548211155b15611f6d578060128281548110611f5457611f53614d36565b5b9060005260206000209060080201935093505050611fb6565b8080600101915050611e70565b506040517f08c379a0000000000000000000000000000000000000000000000000000000008152600401611fad90615597565b60405180910390fd5b9091565b6000611fc7848484612c5c565b90509392505050565b6000612710905090565b611fe2611e4b565b73ffffffffffffffffffffffffffffffffffffffff16612000611479565b73ffffffffffffffffffffffffffffffffffffffff161461205f57612023611e4b565b6040517f118cdaa700000000000000000000000000000000000000000000000000000000815260040161205691906141b6565b60405180910390fd5b565b6000600d60009054906101000a900473ffffffffffffffffffffffffffffffffffffffff16905081600d60006101000a81548173ffffffffffffffffffffffffffffffffffffffff021916908373ffffffffffffffffffffffffffffffffffffffff1602179055508173ffffffffffffffffffffffffffffffffffffffff168173ffffffffffffffffffffffffffffffffffffffff167f8be0079c531659141344cd1fd0a4f28419497f9722a3daafe3b4186f6b6457e060405160405180910390a35050565b606061215d600e7f0000000000000000000000000000000000000000000000000000000000000000612d7990919063ffffffff16565b905090565b6060612198600f7f0000000000000000000000000000000000000000000000000000000000000000612d7990919063ffffffff16565b905090565b6000826121aa8584612e29565b1490509392505050565b60006121c76121c1612942565b83612e79565b9050919050565b6000806000806121de8686612eba565b9250925092506121ee8282612f16565b82935050505092915050565b6000612710601560009054906101000a90046bffffffffffffffffffffffff166bffffffffffffffffffffffff16836122339190614dcb565b61223d9190614e3c565b905060008111156123185760006015600c9054906101000a900473ffffffffffffffffffffffffffffffffffffffff1673ffffffffffffffffffffffffffffffffffffffff1682604051612290906155dd565b60006040518083038185875af1925050503d80600081146122cd576040519150601f19603f3d011682016040523d82523d6000602084013e6122d2565b606091505b5050905080612316576040517f08c379a000000000000000000000000000000000000000000000000000000000815260040161230d9061563e565b60405180910390fd5b505b60008183612326919061565e565b905060008111156123e657600061233b611479565b73ffffffffffffffffffffffffffffffffffffffff168260405161235e906155dd565b60006040518083038185875af1925050503d806000811461239b576040519150601f19603f3d011682016040523d82523d6000602084013e6123a0565b606091505b50509050806123e4576040517f08c379a00000000000000000000000000000000000000000000000000000000081526004016123db906156de565b60405180910390fd5b505b505050565b816006016000815480929190612400906156fe565b9190505550601360008273ffffffffffffffffffffffffffffffffffffffff1673ffffffffffffffffffffffffffffffffffffffff16815260200190815260200160002060008360000160009054906101000a900460ff16600281111561246a57612469614267565b5b600281111561247c5761247b614267565b5b8152602001908152602001600020600081548092919061249b906156fe565b91905055505050565b6124ae848461307a565b6000828290501115612509576125088383838080601f016020809104026020016040519081016040528093929190818152602001838380828437600081840152601f19601f82011690508083019250505050505050613098565b5b50505050565b600073ffffffffffffffffffffffffffffffffffffffff168273ffffffffffffffffffffffffffffffffffffffff160361258057816040517f5b08ba1800000000000000000000000000000000000000000000000000000000815260040161257791906141b6565b60405180910390fd5b80600560008573ffffffffffffffffffffffffffffffffffffffff1673ffffffffffffffffffffffffffffffffffffffff16815260200190815260200160002060008473ffffffffffffffffffffffffffffffffffffffff1673ffffffffffffffffffffffffffffffffffffffff16815260200190815260200160002060006101000a81548160ff0219169083151502179055508173ffffffffffffffffffffffffffffffffffffffff168373ffffffffffffffffffffffffffffffffffffffff167f17307eab39ab6107e8899845ad3d59bd9653f200f220920489ca2b5937696c31836040516126719190614045565b60405180910390a3505050565b60008373ffffffffffffffffffffffffffffffffffffffff163b1115612828578273ffffffffffffffffffffffffffffffffffffffff1663150b7a02868685856040518563ffffffff1660e01b81526004016126dd949392919061579b565b6020604051808303816000875af192505050801561271957506040513d601f19601f8201168201806040525081019061271691906157fc565b60015b61279d573d8060008114612749576040519150601f19603f3d011682016040523d82523d6000602084013e61274e565b606091505b50600081510361279557836040517f64a0ae9200000000000000000000000000000000000000000000000000000000815260040161278c91906141b6565b60405180910390fd5b805181602001fd5b63150b7a0260e01b7bffffffffffffffffffffffffffffffffffffffffffffffffffffffff1916817bffffffffffffffffffffffffffffffffffffffffffffffffffffffff19161461282657836040517f64a0ae9200000000000000000000000000000000000000000000000000000000815260040161281d91906141b6565b60405180910390fd5b505b5050505050565b606061283a82611d86565b506000600a6000848152602001908152602001600020805461285b90614d05565b80601f016020809104026020016040519081016040528092919081815260200182805461288790614d05565b80156128d45780601f106128a9576101008083540402835291602001916128d4565b820191906000526020600020905b8154815290600101906020018083116128b757829003601f168201915b5050505050905060006128e56130f4565b905060008151036128fa57819250505061293d565b60008251111561292f578082604051602001612917929190615865565b6040516020818303038152906040529250505061293d565b6129388461310b565b925050505b919050565b60007f000000000000000000000000000000000000000000000000000000000000000073ffffffffffffffffffffffffffffffffffffffff163073ffffffffffffffffffffffffffffffffffffffff161480156129be57507f000000000000000000000000000000000000000000000000000000000000000046145b156129eb577f000000000000000000000000000000000000000000000000000000000000000090506129f6565b6129f3613174565b90505b90565b6000634906490660e01b7bffffffffffffffffffffffffffffffffffffffffffffffffffffffff1916827bffffffffffffffffffffffffffffffffffffffffffffffffffffffff19161480612a535750612a528261320a565b5b9050919050565b60006002600083815260200190815260200160002060009054906101000a900473ffffffffffffffffffffffffffffffffffffffff169050919050565b8080612ad05750600073ffffffffffffffffffffffffffffffffffffffff168273ffffffffffffffffffffffffffffffffffffffff1614155b15612c04576000612ae084611d86565b9050600073ffffffffffffffffffffffffffffffffffffffff168373ffffffffffffffffffffffffffffffffffffffff1614158015612b4b57508273ffffffffffffffffffffffffffffffffffffffff168173ffffffffffffffffffffffffffffffffffffffff1614155b8015612b5e5750612b5c8184611b3e565b155b15612ba057826040517fa9fbf51f000000000000000000000000000000000000000000000000000000008152600401612b9791906141b6565b60405180910390fd5b8115612c0257838573ffffffffffffffffffffffffffffffffffffffff168273ffffffffffffffffffffffffffffffffffffffff167f8c5be1e5ebec7d5bd14f71427d1e84f3dd0314c0f7b2291e5b200ac8c7c3b92560405160405180910390a45b505b836004600085815260200190815260200160002060006101000a81548173ffffffffffffffffffffffffffffffffffffffff021916908373ffffffffffffffffffffffffffffffffffffffff16021790555050505050565b600080612c6a858585613284565b9050600073ffffffffffffffffffffffffffffffffffffffff168173ffffffffffffffffffffffffffffffffffffffff1603612cae57612ca98461349e565b612ced565b8473ffffffffffffffffffffffffffffffffffffffff168173ffffffffffffffffffffffffffffffffffffffff1614612cec57612ceb81856134e7565b5b5b600073ffffffffffffffffffffffffffffffffffffffff168573ffffffffffffffffffffffffffffffffffffffff1603612d2f57612d2a846135d2565b612d6e565b8473ffffffffffffffffffffffffffffffffffffffff168173ffffffffffffffffffffffffffffffffffffffff1614612d6d57612d6c85856136a3565b5b5b809150509392505050565b606060ff60001b8314612d9657612d8f8361372e565b9050612e23565b818054612da290614d05565b80601f0160208091040260200160405190810160405280929190818152602001828054612dce90614d05565b8015612e1b5780601f10612df057610100808354040283529160200191612e1b565b820191906000526020600020905b815481529060010190602001808311612dfe57829003601f168201915b505050505090505b92915050565b60008082905060005b8451811015612e6e57612e5f82868381518110612e5257612e51614d36565b5b60200260200101516137a2565b91508080600101915050612e32565b508091505092915050565b60006040517f190100000000000000000000000000000000000000000000000000000000000081528360028201528260228201526042812091505092915050565b60008060006041845103612eff5760008060006020870151925060408701519150606087015160001a9050612ef1888285856137cd565b955095509550505050612f0f565b60006002855160001b9250925092505b9250925092565b60006003811115612f2a57612f29614267565b5b826003811115612f3d57612f3c614267565b5b03156130765760016003811115612f5757612f56614267565b5b826003811115612f6a57612f69614267565b5b03612fa1576040517ff645eedf00000000000000000000000000000000000000000000000000000000815260040160405180910390fd5b60026003811115612fb557612fb4614267565b5b826003811115612fc857612fc7614267565b5b0361300d578060001c6040517ffce698f7000000000000000000000000000000000000000000000000000000008152600401613004919061424c565b60405180910390fd5b6003808111156130205761301f614267565b5b82600381111561303357613032614267565b5b0361307557806040517fd78bce0c00000000000000000000000000000000000000000000000000000000815260040161306c9190614c7b565b60405180910390fd5b5b5050565b6130948282604051806020016040528060008152506138c1565b5050565b80600a600084815260200190815260200160002090816130b89190615a35565b507ff8e1a15aba9398e019f0b49df1a4fde98ee17ae345cb5f6b5e2c27f5033e8ce7826040516130e8919061424c565b60405180910390a15050565b606060405180602001604052806000815250905090565b606061311682611d86565b5060006131216130f4565b90506000815111613141576040518060200160405280600081525061316c565b8061314b846138e5565b60405160200161315c929190615865565b6040516020818303038152906040525b915050919050565b60007f8b73c3c69bb8fe3d512ecc4cf759cc79239f7b179b0ffacaa9a75d522b39400f7f00000000000000000000000000000000000000000000000000000000000000007f000000000000000000000000000000000000000000000000000000000000000046306040516020016131ef959493929190615b07565b60405160208183030381529060405280519060200120905090565b60007f780e9d63000000000000000000000000000000000000000000000000000000007bffffffffffffffffffffffffffffffffffffffffffffffffffffffff1916827bffffffffffffffffffffffffffffffffffffffffffffffffffffffff1916148061327d575061327c826139b3565b5b9050919050565b60008061329084612a5a565b9050600073ffffffffffffffffffffffffffffffffffffffff168373ffffffffffffffffffffffffffffffffffffffff16146132d2576132d1818486613a95565b5b600073ffffffffffffffffffffffffffffffffffffffff168173ffffffffffffffffffffffffffffffffffffffff161461336357613314600085600080612a97565b6001600360008373ffffffffffffffffffffffffffffffffffffffff1673ffffffffffffffffffffffffffffffffffffffff168152602001908152602001600020600082825403925050819055505b600073ffffffffffffffffffffffffffffffffffffffff168573ffffffffffffffffffffffffffffffffffffffff16146133e6576001600360008773ffffffffffffffffffffffffffffffffffffffff1673ffffffffffffffffffffffffffffffffffffffff168152602001908152602001600020600082825401925050819055505b846002600086815260200190815260200160002060006101000a81548173ffffffffffffffffffffffffffffffffffffffff021916908373ffffffffffffffffffffffffffffffffffffffff160217905550838573ffffffffffffffffffffffffffffffffffffffff168273ffffffffffffffffffffffffffffffffffffffff167fddf252ad1be2c89b69c2b068fc378daa952ba7f163c4a11628f55a4df523b3ef60405160405180910390a4809150509392505050565b6008805490506009600083815260200190815260200160002081905550600881908060018154018082558091505060019003906000526020600020016000909190919091505550565b60006134f28361126a565b90506000600760008481526020019081526020016000205490506000600660008673ffffffffffffffffffffffffffffffffffffffff1673ffffffffffffffffffffffffffffffffffffffff168152602001908152602001600020905082821461359e5760008160008581526020019081526020016000205490508082600085815260200190815260200160002081905550826007600083815260200190815260200160002081905550505b6007600085815260200190815260200160002060009055806000848152602001908152602001600020600090555050505050565b600060016008805490506135e6919061565e565b905060006009600084815260200190815260200160002054905060006008838154811061361657613615614d36565b5b90600052602060002001549050806008838154811061363857613637614d36565b5b90600052602060002001819055508160096000838152602001908152602001600020819055506009600085815260200190815260200160002060009055600880548061368757613686615b5a565b5b6001900381819060005260206000200160009055905550505050565b600060016136b08461126a565b6136ba919061565e565b905081600660008573ffffffffffffffffffffffffffffffffffffffff1673ffffffffffffffffffffffffffffffffffffffff168152602001908152602001600020600083815260200190815260200160002081905550806007600084815260200190815260200160002081905550505050565b6060600061373b83613b59565b90506000602067ffffffffffffffff81111561375a57613759614a4b565b5b6040519080825280601f01601f19166020018201604052801561378c5781602001600182028036833780820191505090505b5090508181528360208201528092505050919050565b60008183106137ba576137b58284613ba9565b6137c5565b6137c48383613ba9565b5b905092915050565b60008060007f7fffffffffffffffffffffffffffffff5d576e7357a4501ddfe92f46681b20a08460001c111561380d5760006003859250925092506138b7565b6000600188888888604051600081526020016040526040516138329493929190615ba5565b6020604051602081039080840390855afa158015613854573d6000803e3d6000fd5b505050602060405103519050600073ffffffffffffffffffffffffffffffffffffffff168173ffffffffffffffffffffffffffffffffffffffff16036138a857600060016000801b935093509350506138b7565b8060008060001b935093509350505b9450945094915050565b6138cb8383613bc0565b6138e06138d6611e4b565b600085858561267e565b505050565b6060600060016138f484613cb9565b01905060008167ffffffffffffffff81111561391357613912614a4b565b5b6040519080825280601f01601f1916602001820160405280156139455781602001600182028036833780820191505090505b509050600082602001820190505b6001156139a8578080600190039150507f3031323334353637383961626364656600000000000000000000000000000000600a86061a8153600a858161399c5761399b614e0d565b5b04945060008503613953575b819350505050919050565b60007f80ac58cd000000000000000000000000000000000000000000000000000000007bffffffffffffffffffffffffffffffffffffffffffffffffffffffff1916827bffffffffffffffffffffffffffffffffffffffffffffffffffffffff19161480613a7e57507f5b5e139f000000000000000000000000000000000000000000000000000000007bffffffffffffffffffffffffffffffffffffffffffffffffffffffff1916827bffffffffffffffffffffffffffffffffffffffffffffffffffffffff1916145b80613a8e5750613a8d82613e0c565b5b9050919050565b613aa0838383613e76565b613b5457600073ffffffffffffffffffffffffffffffffffffffff168373ffffffffffffffffffffffffffffffffffffffff1603613b1557806040517f7e273289000000000000000000000000000000000000000000000000000000008152600401613b0c919061424c565b60405180910390fd5b81816040517f177e802f000000000000000000000000000000000000000000000000000000008152600401613b4b929190614465565b60405180910390fd5b505050565b60008060ff8360001c169050601f811115613ba0576040517fb3512b0c00000000000000000000000000000000000000000000000000000000815260040160405180910390fd5b80915050919050565b600082600052816020526040600020905092915050565b600073ffffffffffffffffffffffffffffffffffffffff168273ffffffffffffffffffffffffffffffffffffffff1603613c325760006040517f64a0ae92000000000000000000000000000000000000000000000000000000008152600401613c2991906141b6565b60405180910390fd5b6000613c4083836000611fba565b9050600073ffffffffffffffffffffffffffffffffffffffff168173ffffffffffffffffffffffffffffffffffffffff1614613cb45760006040517f73c6ac6e000000000000000000000000000000000000000000000000000000008152600401613cab91906141b6565b60405180910390fd5b505050565b600080600090507a184f03e93ff9f4daa797ed6e38ed64bf6a1f0100000000000000008310613d17577a184f03e93ff9f4daa797ed6e38ed64bf6a1f0100000000000000008381613d0d57613d0c614e0d565b5b0492506040810190505b6d04ee2d6d415b85acef81000000008310613d54576d04ee2d6d415b85acef81000000008381613d4a57613d49614e0d565b5b0492506020810190505b662386f26fc100008310613d8357662386f26fc100008381613d7957613d78614e0d565b5b0492506010810190505b6305f5e1008310613dac576305f5e1008381613da257613da1614e0d565b5b0492506008810190505b6127108310613dd1576127108381613dc757613dc6614e0d565b5b0492506004810190505b60648310613df45760648381613dea57613de9614e0d565b5b0492506002810190505b600a8310613e03576001810190505b80915050919050565b60007f01ffc9a7000000000000000000000000000000000000000000000000000000007bffffffffffffffffffffffffffffffffffffffffffffffffffffffff1916827bffffffffffffffffffffffffffffffffffffffffffffffffffffffff1916149050919050565b60008073ffffffffffffffffffffffffffffffffffffffff168373ffffffffffffffffffffffffffffffffffffffff1614158015613f2e57508273ffffffffffffffffffffffffffffffffffffffff168473ffffffffffffffffffffffffffffffffffffffff161480613eef5750613eee8484611b3e565b5b80613f2d57508273ffffffffffffffffffffffffffffffffffffffff16613f1583611e0e565b73ffffffffffffffffffffffffffffffffffffffff16145b5b90509392505050565b60405180610100016040528060006002811115613f5757613f56614267565b5b8152602001600081526020016000815260200160008152602001600081526020016000815260200160008152602001600080191681525090565b6000604051905090565b600080fd5b600080fd5b60007fffffffff0000000000000000000000000000000000000000000000000000000082169050919050565b613fda81613fa5565b8114613fe557600080fd5b50565b600081359050613ff781613fd1565b92915050565b60006020828403121561401357614012613f9b565b5b600061402184828501613fe8565b91505092915050565b60008115159050919050565b61403f8161402a565b82525050565b600060208201905061405a6000830184614036565b92915050565b600081519050919050565b600082825260208201905092915050565b60005b8381101561409a57808201518184015260208101905061407f565b60008484015250505050565b6000601f19601f8301169050919050565b60006140c282614060565b6140cc818561406b565b93506140dc81856020860161407c565b6140e5816140a6565b840191505092915050565b6000602082019050818103600083015261410a81846140b7565b905092915050565b6000819050919050565b61412581614112565b811461413057600080fd5b50565b6000813590506141428161411c565b92915050565b60006020828403121561415e5761415d613f9b565b5b600061416c84828501614133565b91505092915050565b600073ffffffffffffffffffffffffffffffffffffffff82169050919050565b60006141a082614175565b9050919050565b6141b081614195565b82525050565b60006020820190506141cb60008301846141a7565b92915050565b6141da81614195565b81146141e557600080fd5b50565b6000813590506141f7816141d1565b92915050565b6000806040838503121561421457614213613f9b565b5b6000614222858286016141e8565b925050602061423385828601614133565b9150509250929050565b61424681614112565b82525050565b6000602082019050614261600083018461423d565b92915050565b7f4e487b7100000000000000000000000000000000000000000000000000000000600052602160045260246000fd5b600381106142a7576142a6614267565b5b50565b60008190506142b882614296565b919050565b60006142c8826142aa565b9050919050565b6142d8816142bd565b82525050565b6142e781614112565b82525050565b6000819050919050565b614300816142ed565b82525050565b6101008201600082015161431d60008501826142cf565b50602082015161433060208501826142de565b50604082015161434360408501826142de565b50606082015161435660608501826142de565b50608082015161436960808501826142de565b5060a082015161437c60a08501826142de565b5060c082015161438f60c08501826142de565b5060e08201516143a260e08501826142f7565b50505050565b6000610120820190506143be600083018561423d565b6143cb6020830184614306565b9392505050565b6000806000606084860312156143eb576143ea613f9b565b5b60006143f9868287016141e8565b935050602061440a868287016141e8565b925050604061441b86828701614133565b9150509250925092565b6000806040838503121561443c5761443b613f9b565b5b600061444a85828601614133565b925050602061445b85828601614133565b9150509250929050565b600060408201905061447a60008301856141a7565b614487602083018461423d565b9392505050565b614497816142bd565b82525050565b6144a6816142ed565b82525050565b6000610100820190506144c2600083018b61448e565b6144cf602083018a61423d565b6144dc604083018961423d565b6144e9606083018861423d565b6144f6608083018761423d565b61450360a083018661423d565b61451060c083018561423d565b61451d60e083018461449d565b9998505050505050505050565b6003811061453757600080fd5b50565b6000813590506145498161452a565b92915050565b614558816142ed565b811461456357600080fd5b50565b6000813590506145758161454f565b92915050565b600080600080600080600060e0888a03121561459a57614599613f9b565b5b60006145a88a828b0161453a565b97505060206145b98a828b01614133565b96505060406145ca8a828b01614133565b95505060606145db8a828b01614133565b94505060806145ec8a828b01614133565b93505060a06145fd8a828b01614133565b92505060c061460e8a828b01614566565b91505092959891949750929550565b60006020828403121561463357614632613f9b565b5b6000614641848285016141e8565b91505092915050565b600081519050919050565b600082825260208201905092915050565b6000819050602082019050919050565b600061468283836142de565b60208301905092915050565b6000602082019050919050565b60006146a68261464a565b6146b08185614655565b93506146bb83614666565b8060005b838110156146ec5781516146d38882614676565b97506146de8361468e565b9250506001810190506146bf565b5085935050505092915050565b60006020820190508181036000830152614713818461469b565b905092915050565b60007fff0000000000000000000000000000000000000000000000000000000000000082169050919050565b6147508161471b565b82525050565b600060e08201905061476b600083018a614747565b818103602083015261477d81896140b7565b9050818103604083015261479181886140b7565b90506147a0606083018761423d565b6147ad60808301866141a7565b6147ba60a083018561449d565b81810360c08301526147cc818461469b565b905098975050505050505050565b600080fd5b600080fd5b600080fd5b60008083601f8401126147ff576147fe6147da565b5b8235905067ffffffffffffffff81111561481c5761481b6147df565b5b602083019150836001820283011115614838576148376147e4565b5b9250929050565b60008083601f840112614855576148546147da565b5b8235905067ffffffffffffffff811115614872576148716147df565b5b60208301915083600182028301111561488e5761488d6147e4565b5b9250929050565b60008083601f8401126148ab576148aa6147da565b5b8235905067ffffffffffffffff8111156148c8576148c76147df565b5b6020830191508360208202830111156148e4576148e36147e4565b5b9250929050565b600080600080600080600080600060c08a8c03121561490d5761490c613f9b565b5b600061491b8c828d01614133565b99505060208a013567ffffffffffffffff81111561493c5761493b613fa0565b5b6149488c828d016147e9565b9850985050604061495b8c828d01614566565b965050606061496c8c828d01614133565b95505060808a013567ffffffffffffffff81111561498d5761498c613fa0565b5b6149998c828d0161483f565b945094505060a08a013567ffffffffffffffff8111156149bc576149bb613fa0565b5b6149c88c828d01614895565b92509250509295985092959850929598565b6149e38161402a565b81146149ee57600080fd5b50565b600081359050614a00816149da565b92915050565b60008060408385031215614a1d57614a1c613f9b565b5b6000614a2b858286016141e8565b9250506020614a3c858286016149f1565b9150509250929050565b600080fd5b7f4e487b7100000000000000000000000000000000000000000000000000000000600052604160045260246000fd5b614a83826140a6565b810181811067ffffffffffffffff82111715614aa257614aa1614a4b565b5b80604052505050565b6000614ab5613f91565b9050614ac18282614a7a565b919050565b600067ffffffffffffffff821115614ae157614ae0614a4b565b5b614aea826140a6565b9050602081019050919050565b82818337600083830152505050565b6000614b19614b1484614ac6565b614aab565b905082815260208101848484011115614b3557614b34614a46565b5b614b40848285614af7565b509392505050565b600082601f830112614b5d57614b5c6147da565b5b8135614b6d848260208601614b06565b91505092915050565b60008060008060808587031215614b9057614b8f613f9b565b5b6000614b9e878288016141e8565b9450506020614baf878288016141e8565b9350506040614bc087828801614133565b925050606085013567ffffffffffffffff811115614be157614be0613fa0565b5b614bed87828801614b48565b91505092959194509250565b60006bffffffffffffffffffffffff82169050919050565b614c1a81614bf9565b82525050565b6000602082019050614c356000830184614c11565b92915050565b60008060408385031215614c5257614c51613f9b565b5b6000614c60858286016141e8565b9250506020614c71858286016141e8565b9150509250929050565b6000602082019050614c90600083018461449d565b92915050565b60008060408385031215614cad57614cac613f9b565b5b6000614cbb858286016141e8565b9250506020614ccc8582860161453a565b9150509250929050565b7f4e487b7100000000000000000000000000000000000000000000000000000000600052602260045260246000fd5b60006002820490506001821680614d1d57607f821691505b602082108103614d3057614d2f614cd6565b5b50919050565b7f4e487b7100000000000000000000000000000000000000000000000000000000600052603260045260246000fd5b6000606082019050614d7a60008301866141a7565b614d87602083018561423d565b614d9460408301846141a7565b949350505050565b7f4e487b7100000000000000000000000000000000000000000000000000000000600052601160045260246000fd5b6000614dd682614112565b9150614de183614112565b9250828202614def81614112565b91508282048414831517614e0657614e05614d9c565b5b5092915050565b7f4e487b7100000000000000000000000000000000000000000000000000000000600052601260045260246000fd5b6000614e4782614112565b9150614e5283614112565b925082614e6257614e61614e0d565b5b828204905092915050565b7f496e76616c69642074696d652072616e67650000000000000000000000000000600082015250565b6000614ea360128361406b565b9150614eae82614e6d565b602082019050919050565b60006020820190508181036000830152614ed281614e96565b9050919050565b7f496e76616c6964206d6178207065722077616c6c657420666f72206e6f6e2d7060008201527f75626c6963207068617365000000000000000000000000000000000000000000602082015250565b6000614f35602b8361406b565b9150614f4082614ed9565b604082019050919050565b60006020820190508181036000830152614f6481614f28565b9050919050565b7f4d65726b6c6520726f6f7420726571756972656420666f722077686974656c6960008201527f7374207068617365000000000000000000000000000000000000000000000000602082015250565b6000614fc760288361406b565b9150614fd282614f6b565b604082019050919050565b60006020820190508181036000830152614ff681614fba565b9050919050565b7f50686173652074696d65206f7665726c6170732077697468206578697374696e60008201527f6720706861736500000000000000000000000000000000000000000000000000602082015250565b600061505960278361406b565b915061506482614ffd565b604082019050919050565b600060208201905081810360008301526150888161504c565b9050919050565b60006040820190506150a4600083018561448e565b6150b1602083018461423d565b9392505050565b60008160601b9050919050565b60006150d0826150b8565b9050919050565b60006150e2826150c5565b9050919050565b6150fa6150f582614195565b6150d7565b82525050565b600061510c82846150e9565b60148201915081905092915050565b7f4e6f742077686974656c697374656420666f7220746869732070686173650000600082015250565b6000615151601e8361406b565b915061515c8261511b565b602082019050919050565b6000602082019050818103600083015261518081615144565b9050919050565b600061519282614112565b915061519d83614112565b92508282019050808211156151b5576151b4614d9c565b5b92915050565b7f5369676e61747572652065787069726564000000000000000000000000000000600082015250565b60006151f160118361406b565b91506151fc826151bb565b602082019050919050565b60006020820190508181036000830152615220816151e4565b9050919050565b7f5369676e617475726520616c7265616479207573656400000000000000000000600082015250565b600061525d60168361406b565b915061526882615227565b602082019050919050565b6000602082019050818103600083015261528c81615250565b9050919050565b600081905092915050565b60006152aa8385615293565b93506152b7838584614af7565b82840190509392505050565b60006152d082848661529e565b91508190509392505050565b6000610100820190506152f2600083018b61449d565b6152ff602083018a6141a7565b61530c604083018961423d565b615319606083018861449d565b615326608083018761423d565b61533360a083018661423d565b61534060c083018561449d565b61534d60e083018461423d565b9998505050505050505050565b7f496e76616c6964207369676e6174757265000000000000000000000000000000600082015250565b600061539060118361406b565b915061539b8261535a565b602082019050919050565b600060208201905081810360008301526153bf81615383565b9050919050565b7f496e636f7272656374207061796d656e7420616d6f756e740000000000000000600082015250565b60006153fc60188361406b565b9150615407826153c6565b602082019050919050565b6000602082019050818103600083015261542b816153ef565b9050919050565b7f506861736520737570706c79206c696d69742072656163686564000000000000600082015250565b6000615468601a8361406b565b915061547382615432565b602082019050919050565b600060208201905081810360008301526154978161545b565b9050919050565b7f57616c6c6574206c696d6974207265616368656420666f72207468697320706860008201527f6173650000000000000000000000000000000000000000000000000000000000602082015250565b60006154fa60238361406b565b91506155058261549e565b604082019050919050565b60006020820190508181036000830152615529816154ed565b9050919050565b6000602082019050615545600083018461448e565b92915050565b7f4e6f206163746976652070686173650000000000000000000000000000000000600082015250565b6000615581600f8361406b565b915061558c8261554b565b602082019050919050565b600060208201905081810360008301526155b081615574565b9050919050565b50565b60006155c7600083615293565b91506155d2826155b7565b600082019050919050565b60006155e8826155ba565b9150819050919050565b7f506c6174666f726d20666565207472616e73666572206661696c656400000000600082015250565b6000615628601c8361406b565b9150615633826155f2565b602082019050919050565b600060208201905081810360008301526156578161561b565b9050919050565b600061566982614112565b915061567483614112565b925082820390508181111561568c5761568b614d9c565b5b92915050565b7f4f776e657220666565207472616e73666572206661696c656400000000000000600082015250565b60006156c860198361406b565b91506156d382615692565b602082019050919050565b600060208201905081810360008301526156f7816156bb565b9050919050565b600061570982614112565b91507fffffffffffffffffffffffffffffffffffffffffffffffffffffffffffffffff820361573b5761573a614d9c565b5b600182019050919050565b600081519050919050565b600082825260208201905092915050565b600061576d82615746565b6157778185615751565b935061578781856020860161407c565b615790816140a6565b840191505092915050565b60006080820190506157b060008301876141a7565b6157bd60208301866141a7565b6157ca604083018561423d565b81810360608301526157dc8184615762565b905095945050505050565b6000815190506157f681613fd1565b92915050565b60006020828403121561581257615811613f9b565b5b6000615820848285016157e7565b91505092915050565b600081905092915050565b600061583f82614060565b6158498185615829565b935061585981856020860161407c565b80840191505092915050565b60006158718285615834565b915061587d8284615834565b91508190509392505050565b60008190508160005260206000209050919050565b60006020601f8301049050919050565b600082821b905092915050565b6000600883026158eb7fffffffffffffffffffffffffffffffffffffffffffffffffffffffffffffffff826158ae565b6158f586836158ae565b95508019841693508086168417925050509392505050565b6000819050919050565b600061593261592d61592884614112565b61590d565b614112565b9050919050565b6000819050919050565b61594c83615917565b61596061595882615939565b8484546158bb565b825550505050565b600090565b615975615968565b615980818484615943565b505050565b5b818110156159a45761599960008261596d565b600181019050615986565b5050565b601f8211156159e9576159ba81615889565b6159c38461589e565b810160208510156159d2578190505b6159e66159de8561589e565b830182615985565b50505b505050565b600082821c905092915050565b6000615a0c600019846008026159ee565b1980831691505092915050565b6000615a2583836159fb565b9150826002028217905092915050565b615a3e82614060565b67ffffffffffffffff811115615a5757615a56614a4b565b5b615a618254614d05565b615a6c8282856159a8565b600060209050601f831160018114615a9f5760008415615a8d578287015190505b615a978582615a19565b865550615aff565b601f198416615aad86615889565b60005b82811015615ad557848901518255600182019150602085019450602081019050615ab0565b86831015615af25784890151615aee601f8916826159fb565b8355505b6001600288020188555050505b505050505050565b600060a082019050615b1c600083018861449d565b615b29602083018761449d565b615b36604083018661449d565b615b43606083018561423d565b615b5060808301846141a7565b9695505050505050565b7f4e487b7100000000000000000000000000000000000000000000000000000000600052603160045260246000fd5b600060ff82169050919050565b615b9f81615b89565b82525050565b6000608082019050615bba600083018761449d565b615bc76020830186615b96565b615bd4604083018561449d565b615be1606083018461449d565b9594505050505056fea2646970667358221220dbfafb6d5b21c6d55884f3f9eec0721fb390457ecbc013851f401bcc873e1e9364736f6c634300081b0033","opcodes":"PUSH2 0x1A0 PUSH1 0x40 MSTORE CALLVALUE DUP1 ISZERO PUSH2 0x11 JUMPI PUSH1 0x0 DUP1 REVERT JUMPDEST POP PUSH1 0x40 MLOAD PUSH2 0x6CBD CODESIZE SUB DUP1 PUSH2 0x6CBD DUP4 CODECOPY DUP2 DUP2 ADD PUSH1 0x40 MSTORE DUP2 ADD SWAP1 PUSH2 0x33 SWAP2 SWAP1 PUSH2 0xA2B JUMP JUMPDEST PUSH1 0x40 MLOAD DUP1 PUSH1 0x40 ADD PUSH1 0x40 MSTORE DUP1 PUSH1 0xA DUP2 MSTORE PUSH1 0x20 ADD PUSH32 0x556E69666965644E465400000000000000000000000000000000000000000000 DUP2 MSTORE POP PUSH1 0x40 MLOAD DUP1 PUSH1 0x40 ADD PUSH1 0x40 MSTORE DUP1 PUSH1 0x1 DUP2 MSTORE PUSH1 0x20 ADD PUSH32 0x3100000000000000000000000000000000000000000000000000000000000000 DUP2 MSTORE POP DUP9 DUP9 DUP9 DUP2 PUSH1 0x0 SWAP1 DUP2 PUSH2 0xB1 SWAP2 SWAP1 PUSH2 0xD26 JUMP JUMPDEST POP DUP1 PUSH1 0x1 SWAP1 DUP2 PUSH2 0xC1 SWAP2 SWAP1 PUSH2 0xD26 JUMP JUMPDEST POP POP POP PUSH1 0x0 PUSH20 0xFFFFFFFFFFFFFFFFFFFFFFFFFFFFFFFFFFFFFFFF AND DUP2 PUSH20 0xFFFFFFFFFFFFFFFFFFFFFFFFFFFFFFFFFFFFFFFF AND SUB PUSH2 0x136 JUMPI PUSH1 0x0 PUSH1 0x40 MLOAD PUSH32 0x1E4FBDF700000000000000000000000000000000000000000000000000000000 DUP2 MSTORE PUSH1 0x4 ADD PUSH2 0x12D SWAP2 SWAP1 PUSH2 0xE07 JUMP JUMPDEST PUSH1 0x40 MLOAD DUP1 SWAP2 SUB SWAP1 REVERT JUMPDEST PUSH2 0x145 DUP2 PUSH2 0x47F PUSH1 0x20 SHL PUSH1 0x20 SHR JUMP JUMPDEST POP PUSH2 0x15A PUSH1 0xE DUP4 PUSH2 0x545 PUSH1 0x20 SHL SWAP1 SWAP2 SWAP1 PUSH1 0x20 SHR JUMP JUMPDEST PUSH2 0x120 DUP2 DUP2 MSTORE POP POP PUSH2 0x176 PUSH1 0xF DUP3 PUSH2 0x545 PUSH1 0x20 SHL SWAP1 SWAP2 SWAP1 PUSH1 0x20 SHR JUMP JUMPDEST PUSH2 0x140 DUP2 DUP2 MSTORE POP POP DUP2 DUP1 MLOAD SWAP1 PUSH1 0x20 ADD KECCAK256 PUSH1 0xE0 DUP2 DUP2 MSTORE POP POP DUP1 DUP1 MLOAD SWAP1 PUSH1 0x20 ADD KECCAK256 PUSH2 0x100 DUP2 DUP2 MSTORE POP POP CHAINID PUSH1 0xA0 DUP2 DUP2 MSTORE POP POP PUSH2 0x1B3 PUSH2 0x595 PUSH1 0x20 SHL PUSH1 0x20 SHR JUMP JUMPDEST PUSH1 0x80 DUP2 DUP2 MSTORE POP POP ADDRESS PUSH20 0xFFFFFFFFFFFFFFFFFFFFFFFFFFFFFFFFFFFFFFFF AND PUSH1 0xC0 DUP2 PUSH20 0xFFFFFFFFFFFFFFFFFFFFFFFFFFFFFFFFFFFFFFFF AND DUP2 MSTORE POP POP POP POP PUSH2 0x3E8 DUP5 PUSH12 0xFFFFFFFFFFFFFFFFFFFFFFFF AND GT ISZERO DUP1 ISZERO PUSH2 0x220 JUMPI POP PUSH2 0x3E8 DUP4 PUSH12 0xFFFFFFFFFFFFFFFFFFFFFFFF AND GT ISZERO JUMPDEST DUP1 ISZERO PUSH2 0x259 JUMPI POP PUSH1 0x0 PUSH20 0xFFFFFFFFFFFFFFFFFFFFFFFFFFFFFFFFFFFFFFFF AND DUP3 PUSH20 0xFFFFFFFFFFFFFFFFFFFFFFFFFFFFFFFFFFFFFFFF AND EQ ISZERO JUMPDEST DUP1 ISZERO PUSH2 0x292 JUMPI POP PUSH1 0x0 PUSH20 0xFFFFFFFFFFFFFFFFFFFFFFFFFFFFFFFFFFFFFFFF AND DUP2 PUSH20 0xFFFFFFFFFFFFFFFFFFFFFFFFFFFFFFFFFFFFFFFF AND EQ ISZERO JUMPDEST PUSH2 0x29B JUMPI PUSH1 0x0 DUP1 REVERT JUMPDEST DUP1 PUSH20 0xFFFFFFFFFFFFFFFFFFFFFFFFFFFFFFFFFFFFFFFF AND PUSH2 0x160 DUP2 PUSH20 0xFFFFFFFFFFFFFFFFFFFFFFFFFFFFFFFFFFFFFFFF AND DUP2 MSTORE POP POP DUP4 PUSH12 0xFFFFFFFFFFFFFFFFFFFFFFFF AND PUSH2 0x180 DUP2 PUSH12 0xFFFFFFFFFFFFFFFFFFFFFFFF AND DUP2 MSTORE POP POP DUP3 PUSH1 0x15 PUSH1 0x0 PUSH2 0x100 EXP DUP2 SLOAD DUP2 PUSH12 0xFFFFFFFFFFFFFFFFFFFFFFFF MUL NOT AND SWAP1 DUP4 PUSH12 0xFFFFFFFFFFFFFFFFFFFFFFFF AND MUL OR SWAP1 SSTORE POP DUP2 PUSH1 0x15 PUSH1 0xC PUSH2 0x100 EXP DUP2 SLOAD DUP2 PUSH20 0xFFFFFFFFFFFFFFFFFFFFFFFFFFFFFFFFFFFFFFFF MUL NOT AND SWAP1 DUP4 PUSH20 0xFFFFFFFFFFFFFFFFFFFFFFFFFFFFFFFFFFFFFFFF AND MUL OR SWAP1 SSTORE POP PUSH2 0x37A DUP8 PUSH2 0x180 MLOAD PUSH2 0x5F0 PUSH1 0x20 SHL PUSH1 0x20 SHR JUMP JUMPDEST PUSH1 0x12 PUSH1 0x40 MLOAD DUP1 PUSH2 0x100 ADD PUSH1 0x40 MSTORE DUP1 PUSH1 0x0 PUSH1 0x2 DUP2 GT ISZERO PUSH2 0x39C JUMPI PUSH2 0x39B PUSH2 0xE22 JUMP JUMPDEST JUMPDEST DUP2 MSTORE PUSH1 0x20 ADD PUSH1 0x0 DUP2 MSTORE PUSH1 0x20 ADD PUSH1 0x0 DUP2 MSTORE PUSH1 0x20 ADD PUSH1 0x0 DUP2 MSTORE PUSH1 0x20 ADD PUSH1 0x0 DUP2 MSTORE PUSH1 0x20 ADD PUSH1 0x0 DUP2 MSTORE PUSH1 0x20 ADD PUSH1 0x0 DUP2 MSTORE PUSH1 0x20 ADD PUSH1 0x0 DUP1 SHL DUP2 MSTORE POP SWAP1 DUP1 PUSH1 0x1 DUP2 SLOAD ADD DUP1 DUP3 SSTORE DUP1 SWAP2 POP POP PUSH1 0x1 SWAP1 SUB SWAP1 PUSH1 0x0 MSTORE PUSH1 0x20 PUSH1 0x0 KECCAK256 SWAP1 PUSH1 0x8 MUL ADD PUSH1 0x0 SWAP1 SWAP2 SWAP1 SWAP2 SWAP1 SWAP2 POP PUSH1 0x0 DUP3 ADD MLOAD DUP2 PUSH1 0x0 ADD PUSH1 0x0 PUSH2 0x100 EXP DUP2 SLOAD DUP2 PUSH1 0xFF MUL NOT AND SWAP1 DUP4 PUSH1 0x2 DUP2 GT ISZERO PUSH2 0x426 JUMPI PUSH2 0x425 PUSH2 0xE22 JUMP JUMPDEST JUMPDEST MUL OR SWAP1 SSTORE POP PUSH1 0x20 DUP3 ADD MLOAD DUP2 PUSH1 0x1 ADD SSTORE PUSH1 0x40 DUP3 ADD MLOAD DUP2 PUSH1 0x2 ADD SSTORE PUSH1 0x60 DUP3 ADD MLOAD DUP2 PUSH1 0x3 ADD SSTORE PUSH1 0x80 DUP3 ADD MLOAD DUP2 PUSH1 0x4 ADD SSTORE PUSH1 0xA0 DUP3 ADD MLOAD DUP2 PUSH1 0x5 ADD SSTORE PUSH1 0xC0 DUP3 ADD MLOAD DUP2 PUSH1 0x6 ADD SSTORE PUSH1 0xE0 DUP3 ADD MLOAD DUP2 PUSH1 0x7 ADD SSTORE POP POP POP POP POP POP POP POP POP PUSH2 0x1029 JUMP JUMPDEST PUSH1 0x0 PUSH1 0xD PUSH1 0x0 SWAP1 SLOAD SWAP1 PUSH2 0x100 EXP SWAP1 DIV PUSH20 0xFFFFFFFFFFFFFFFFFFFFFFFFFFFFFFFFFFFFFFFF AND SWAP1 POP DUP2 PUSH1 0xD PUSH1 0x0 PUSH2 0x100 EXP DUP2 SLOAD DUP2 PUSH20 0xFFFFFFFFFFFFFFFFFFFFFFFFFFFFFFFFFFFFFFFF MUL NOT AND SWAP1 DUP4 PUSH20 0xFFFFFFFFFFFFFFFFFFFFFFFFFFFFFFFFFFFFFFFF AND MUL OR SWAP1 SSTORE POP DUP2 PUSH20 0xFFFFFFFFFFFFFFFFFFFFFFFFFFFFFFFFFFFFFFFF AND DUP2 PUSH20 0xFFFFFFFFFFFFFFFFFFFFFFFFFFFFFFFFFFFFFFFF AND PUSH32 0x8BE0079C531659141344CD1FD0A4F28419497F9722A3DAAFE3B4186F6B6457E0 PUSH1 0x40 MLOAD PUSH1 0x40 MLOAD DUP1 SWAP2 SUB SWAP1 LOG3 POP POP JUMP JUMPDEST PUSH1 0x0 PUSH1 0x20 DUP4 MLOAD LT ISZERO PUSH2 0x567 JUMPI PUSH2 0x560 DUP4 PUSH2 0x798 PUSH1 0x20 SHL PUSH1 0x20 SHR JUMP JUMPDEST SWAP1 POP PUSH2 0x58F JUMP JUMPDEST DUP3 PUSH2 0x577 DUP4 PUSH2 0x800 PUSH1 0x20 SHL PUSH1 0x20 SHR JUMP JUMPDEST PUSH1 0x0 ADD SWAP1 DUP2 PUSH2 0x586 SWAP2 SWAP1 PUSH2 0xD26 JUMP JUMPDEST POP PUSH1 0xFF PUSH1 0x0 SHL SWAP1 POP JUMPDEST SWAP3 SWAP2 POP POP JUMP JUMPDEST PUSH1 0x0 PUSH32 0x8B73C3C69BB8FE3D512ECC4CF759CC79239F7B179B0FFACAA9A75D522B39400F PUSH1 0xE0 MLOAD PUSH2 0x100 MLOAD CHAINID ADDRESS PUSH1 0x40 MLOAD PUSH1 0x20 ADD PUSH2 0x5D5 SWAP6 SWAP5 SWAP4 SWAP3 SWAP2 SWAP1 PUSH2 0xE79 JUMP JUMPDEST PUSH1 0x40 MLOAD PUSH1 0x20 DUP2 DUP4 SUB SUB DUP2 MSTORE SWAP1 PUSH1 0x40 MSTORE DUP1 MLOAD SWAP1 PUSH1 0x20 ADD KECCAK256 SWAP1 POP SWAP1 JUMP JUMPDEST PUSH1 0x0 PUSH2 0x600 PUSH2 0x80A PUSH1 0x20 SHL PUSH1 0x20 SHR JUMP JUMPDEST PUSH12 0xFFFFFFFFFFFFFFFFFFFFFFFF AND SWAP1 POP DUP1 DUP3 PUSH12 0xFFFFFFFFFFFFFFFFFFFFFFFF AND GT ISZERO PUSH2 0x665 JUMPI DUP2 DUP2 PUSH1 0x40 MLOAD PUSH32 0x6F483D0900000000000000000000000000000000000000000000000000000000 DUP2 MSTORE PUSH1 0x4 ADD PUSH2 0x65C SWAP3 SWAP2 SWAP1 PUSH2 0xEFD JUMP JUMPDEST PUSH1 0x40 MLOAD DUP1 SWAP2 SUB SWAP1 REVERT JUMPDEST PUSH1 0x0 PUSH20 0xFFFFFFFFFFFFFFFFFFFFFFFFFFFFFFFFFFFFFFFF AND DUP4 PUSH20 0xFFFFFFFFFFFFFFFFFFFFFFFFFFFFFFFFFFFFFFFF AND SUB PUSH2 0x6D7 JUMPI PUSH1 0x0 PUSH1 0x40 MLOAD PUSH32 0xB6D9900A00000000000000000000000000000000000000000000000000000000 DUP2 MSTORE PUSH1 0x4 ADD PUSH2 0x6CE SWAP2 SWAP1 PUSH2 0xE07 JUMP JUMPDEST PUSH1 0x40 MLOAD DUP1 SWAP2 SUB SWAP1 REVERT JUMPDEST PUSH1 0x40 MLOAD DUP1 PUSH1 0x40 ADD PUSH1 0x40 MSTORE DUP1 DUP5 PUSH20 0xFFFFFFFFFFFFFFFFFFFFFFFFFFFFFFFFFFFFFFFF AND DUP2 MSTORE PUSH1 0x20 ADD DUP4 PUSH12 0xFFFFFFFFFFFFFFFFFFFFFFFF AND DUP2 MSTORE POP PUSH1 0xB PUSH1 0x0 DUP3 ADD MLOAD DUP2 PUSH1 0x0 ADD PUSH1 0x0 PUSH2 0x100 EXP DUP2 SLOAD DUP2 PUSH20 0xFFFFFFFFFFFFFFFFFFFFFFFFFFFFFFFFFFFFFFFF MUL NOT AND SWAP1 DUP4 PUSH20 0xFFFFFFFFFFFFFFFFFFFFFFFFFFFFFFFFFFFFFFFF AND MUL OR SWAP1 SSTORE POP PUSH1 0x20 DUP3 ADD MLOAD DUP2 PUSH1 0x0 ADD PUSH1 0x14 PUSH2 0x100 EXP DUP2 SLOAD DUP2 PUSH12 0xFFFFFFFFFFFFFFFFFFFFFFFF MUL NOT AND SWAP1 DUP4 PUSH12 0xFFFFFFFFFFFFFFFFFFFFFFFF AND MUL OR SWAP1 SSTORE POP SWAP1 POP POP POP POP POP JUMP JUMPDEST PUSH1 0x0 DUP1 DUP3 SWAP1 POP PUSH1 0x1F DUP2 MLOAD GT ISZERO PUSH2 0x7E5 JUMPI DUP3 PUSH1 0x40 MLOAD PUSH32 0x305A27A900000000000000000000000000000000000000000000000000000000 DUP2 MSTORE PUSH1 0x4 ADD PUSH2 0x7DC SWAP2 SWAP1 PUSH2 0xF70 JUMP JUMPDEST PUSH1 0x40 MLOAD DUP1 SWAP2 SUB SWAP1 REVERT JUMPDEST DUP1 MLOAD DUP2 PUSH2 0x7F1 SWAP1 PUSH2 0xFC2 JUMP JUMPDEST PUSH1 0x0 SHR OR PUSH1 0x0 SHL SWAP2 POP POP SWAP2 SWAP1 POP JUMP JUMPDEST PUSH1 0x0 DUP2 SWAP1 POP SWAP2 SWAP1 POP JUMP JUMPDEST PUSH1 0x0 PUSH2 0x2710 SWAP1 POP SWAP1 JUMP JUMPDEST PUSH1 0x0 PUSH1 0x40 MLOAD SWAP1 POP SWAP1 JUMP JUMPDEST PUSH1 0x0 DUP1 REVERT JUMPDEST PUSH1 0x0 DUP1 REVERT JUMPDEST PUSH1 0x0 PUSH20 0xFFFFFFFFFFFFFFFFFFFFFFFFFFFFFFFFFFFFFFFF DUP3 AND SWAP1 POP SWAP2 SWAP1 POP JUMP JUMPDEST PUSH1 0x0 PUSH2 0x853 DUP3 PUSH2 0x828 JUMP JUMPDEST SWAP1 POP SWAP2 SWAP1 POP JUMP JUMPDEST PUSH2 0x863 DUP2 PUSH2 0x848 JUMP JUMPDEST DUP2 EQ PUSH2 0x86E JUMPI PUSH1 0x0 DUP1 REVERT JUMPDEST POP JUMP JUMPDEST PUSH1 0x0 DUP2 MLOAD SWAP1 POP PUSH2 0x880 DUP2 PUSH2 0x85A JUMP JUMPDEST SWAP3 SWAP2 POP POP JUMP JUMPDEST PUSH1 0x0 DUP1 REVERT JUMPDEST PUSH1 0x0 DUP1 REVERT JUMPDEST PUSH1 0x0 PUSH1 0x1F NOT PUSH1 0x1F DUP4 ADD AND SWAP1 POP SWAP2 SWAP1 POP JUMP JUMPDEST PUSH32 0x4E487B7100000000000000000000000000000000000000000000000000000000 PUSH1 0x0 MSTORE PUSH1 0x41 PUSH1 0x4 MSTORE PUSH1 0x24 PUSH1 0x0 REVERT JUMPDEST PUSH2 0x8D9 DUP3 PUSH2 0x890 JUMP JUMPDEST DUP2 ADD DUP2 DUP2 LT PUSH8 0xFFFFFFFFFFFFFFFF DUP3 GT OR ISZERO PUSH2 0x8F8 JUMPI PUSH2 0x8F7 PUSH2 0x8A1 JUMP JUMPDEST JUMPDEST DUP1 PUSH1 0x40 MSTORE POP POP POP JUMP JUMPDEST PUSH1 0x0 PUSH2 0x90B PUSH2 0x814 JUMP JUMPDEST SWAP1 POP PUSH2 0x917 DUP3 DUP3 PUSH2 0x8D0 JUMP JUMPDEST SWAP2 SWAP1 POP JUMP JUMPDEST PUSH1 0x0 PUSH8 0xFFFFFFFFFFFFFFFF DUP3 GT ISZERO PUSH2 0x937 JUMPI PUSH2 0x936 PUSH2 0x8A1 JUMP JUMPDEST JUMPDEST PUSH2 0x940 DUP3 PUSH2 0x890 JUMP JUMPDEST SWAP1 POP PUSH1 0x20 DUP2 ADD SWAP1 POP SWAP2 SWAP1 POP JUMP JUMPDEST PUSH1 0x0 JUMPDEST DUP4 DUP2 LT ISZERO PUSH2 0x96B JUMPI DUP1 DUP3 ADD MLOAD DUP2 DUP5 ADD MSTORE PUSH1 0x20 DUP2 ADD SWAP1 POP PUSH2 0x950 JUMP JUMPDEST PUSH1 0x0 DUP5 DUP5 ADD MSTORE POP POP POP POP JUMP JUMPDEST PUSH1 0x0 PUSH2 0x98A PUSH2 0x985 DUP5 PUSH2 0x91C JUMP JUMPDEST PUSH2 0x901 JUMP JUMPDEST SWAP1 POP DUP3 DUP2 MSTORE PUSH1 0x20 DUP2 ADD DUP5 DUP5 DUP5 ADD GT ISZERO PUSH2 0x9A6 JUMPI PUSH2 0x9A5 PUSH2 0x88B JUMP JUMPDEST JUMPDEST PUSH2 0x9B1 DUP5 DUP3 DUP6 PUSH2 0x94D JUMP JUMPDEST POP SWAP4 SWAP3 POP POP POP JUMP JUMPDEST PUSH1 0x0 DUP3 PUSH1 0x1F DUP4 ADD SLT PUSH2 0x9CE JUMPI PUSH2 0x9CD PUSH2 0x886 JUMP JUMPDEST JUMPDEST DUP2 MLOAD PUSH2 0x9DE DUP5 DUP3 PUSH1 0x20 DUP7 ADD PUSH2 0x977 JUMP JUMPDEST SWAP2 POP POP SWAP3 SWAP2 POP POP JUMP JUMPDEST PUSH1 0x0 PUSH12 0xFFFFFFFFFFFFFFFFFFFFFFFF DUP3 AND SWAP1 POP SWAP2 SWAP1 POP JUMP JUMPDEST PUSH2 0xA08 DUP2 PUSH2 0x9E7 JUMP JUMPDEST DUP2 EQ PUSH2 0xA13 JUMPI PUSH1 0x0 DUP1 REVERT JUMPDEST POP JUMP JUMPDEST PUSH1 0x0 DUP2 MLOAD SWAP1 POP PUSH2 0xA25 DUP2 PUSH2 0x9FF JUMP JUMPDEST SWAP3 SWAP2 POP POP JUMP JUMPDEST PUSH1 0x0 DUP1 PUSH1 0x0 DUP1 PUSH1 0x0 DUP1 PUSH1 0x0 PUSH1 0xE0 DUP9 DUP11 SUB SLT ISZERO PUSH2 0xA4A JUMPI PUSH2 0xA49 PUSH2 0x81E JUMP JUMPDEST JUMPDEST PUSH1 0x0 PUSH2 0xA58 DUP11 DUP3 DUP12 ADD PUSH2 0x871 JUMP JUMPDEST SWAP8 POP POP PUSH1 0x20 DUP9 ADD MLOAD PUSH8 0xFFFFFFFFFFFFFFFF DUP2 GT ISZERO PUSH2 0xA79 JUMPI PUSH2 0xA78 PUSH2 0x823 JUMP JUMPDEST JUMPDEST PUSH2 0xA85 DUP11 DUP3 DUP12 ADD PUSH2 0x9B9 JUMP JUMPDEST SWAP7 POP POP PUSH1 0x40 DUP9 ADD MLOAD PUSH8 0xFFFFFFFFFFFFFFFF DUP2 GT ISZERO PUSH2 0xAA6 JUMPI PUSH2 0xAA5 PUSH2 0x823 JUMP JUMPDEST JUMPDEST PUSH2 0xAB2 DUP11 DUP3 DUP12 ADD PUSH2 0x9B9 JUMP JUMPDEST SWAP6 POP POP PUSH1 0x60 PUSH2 0xAC3 DUP11 DUP3 DUP12 ADD PUSH2 0xA16 JUMP JUMPDEST SWAP5 POP POP PUSH1 0x80 PUSH2 0xAD4 DUP11 DUP3 DUP12 ADD PUSH2 0xA16 JUMP JUMPDEST SWAP4 POP POP PUSH1 0xA0 PUSH2 0xAE5 DUP11 DUP3 DUP12 ADD PUSH2 0x871 JUMP JUMPDEST SWAP3 POP POP PUSH1 0xC0 PUSH2 0xAF6 DUP11 DUP3 DUP12 ADD PUSH2 0x871 JUMP JUMPDEST SWAP2 POP POP SWAP3 SWAP6 SWAP9 SWAP2 SWAP5 SWAP8 POP SWAP3 SWAP6 POP JUMP JUMPDEST PUSH1 0x0 DUP2 MLOAD SWAP1 POP SWAP2 SWAP1 POP JUMP JUMPDEST PUSH32 0x4E487B7100000000000000000000000000000000000000000000000000000000 PUSH1 0x0 MSTORE PUSH1 0x22 PUSH1 0x4 MSTORE PUSH1 0x24 PUSH1 0x0 REVERT JUMPDEST PUSH1 0x0 PUSH1 0x2 DUP3 DIV SWAP1 POP PUSH1 0x1 DUP3 AND DUP1 PUSH2 0xB57 JUMPI PUSH1 0x7F DUP3 AND SWAP2 POP JUMPDEST PUSH1 0x20 DUP3 LT DUP2 SUB PUSH2 0xB6A JUMPI PUSH2 0xB69 PUSH2 0xB10 JUMP JUMPDEST JUMPDEST POP SWAP2 SWAP1 POP JUMP JUMPDEST PUSH1 0x0 DUP2 SWAP1 POP DUP2 PUSH1 0x0 MSTORE PUSH1 0x20 PUSH1 0x0 KECCAK256 SWAP1 POP SWAP2 SWAP1 POP JUMP JUMPDEST PUSH1 0x0 PUSH1 0x20 PUSH1 0x1F DUP4 ADD DIV SWAP1 POP SWAP2 SWAP1 POP JUMP JUMPDEST PUSH1 0x0 DUP3 DUP3 SHL SWAP1 POP SWAP3 SWAP2 POP POP JUMP JUMPDEST PUSH1 0x0 PUSH1 0x8 DUP4 MUL PUSH2 0xBD2 PUSH32 0xFFFFFFFFFFFFFFFFFFFFFFFFFFFFFFFFFFFFFFFFFFFFFFFFFFFFFFFFFFFFFFFF DUP3 PUSH2 0xB95 JUMP JUMPDEST PUSH2 0xBDC DUP7 DUP4 PUSH2 0xB95 JUMP JUMPDEST SWAP6 POP DUP1 NOT DUP5 AND SWAP4 POP DUP1 DUP7 AND DUP5 OR SWAP3 POP POP POP SWAP4 SWAP3 POP POP POP JUMP JUMPDEST PUSH1 0x0 DUP2 SWAP1 POP SWAP2 SWAP1 POP JUMP JUMPDEST PUSH1 0x0 DUP2 SWAP1 POP SWAP2 SWAP1 POP JUMP JUMPDEST PUSH1 0x0 PUSH2 0xC23 PUSH2 0xC1E PUSH2 0xC19 DUP5 PUSH2 0xBF4 JUMP JUMPDEST PUSH2 0xBFE JUMP JUMPDEST PUSH2 0xBF4 JUMP JUMPDEST SWAP1 POP SWAP2 SWAP1 POP JUMP JUMPDEST PUSH1 0x0 DUP2 SWAP1 POP SWAP2 SWAP1 POP JUMP JUMPDEST PUSH2 0xC3D DUP4 PUSH2 0xC08 JUMP JUMPDEST PUSH2 0xC51 PUSH2 0xC49 DUP3 PUSH2 0xC2A JUMP JUMPDEST DUP5 DUP5 SLOAD PUSH2 0xBA2 JUMP JUMPDEST DUP3 SSTORE POP POP POP POP JUMP JUMPDEST PUSH1 0x0 SWAP1 JUMP JUMPDEST PUSH2 0xC66 PUSH2 0xC59 JUMP JUMPDEST PUSH2 0xC71 DUP2 DUP5 DUP5 PUSH2 0xC34 JUMP JUMPDEST POP POP POP JUMP JUMPDEST JUMPDEST DUP2 DUP2 LT ISZERO PUSH2 0xC95 JUMPI PUSH2 0xC8A PUSH1 0x0 DUP3 PUSH2 0xC5E JUMP JUMPDEST PUSH1 0x1 DUP2 ADD SWAP1 POP PUSH2 0xC77 JUMP JUMPDEST POP POP JUMP JUMPDEST PUSH1 0x1F DUP3 GT ISZERO PUSH2 0xCDA JUMPI PUSH2 0xCAB DUP2 PUSH2 0xB70 JUMP JUMPDEST PUSH2 0xCB4 DUP5 PUSH2 0xB85 JUMP JUMPDEST DUP2 ADD PUSH1 0x20 DUP6 LT ISZERO PUSH2 0xCC3 JUMPI DUP2 SWAP1 POP JUMPDEST PUSH2 0xCD7 PUSH2 0xCCF DUP6 PUSH2 0xB85 JUMP JUMPDEST DUP4 ADD DUP3 PUSH2 0xC76 JUMP JUMPDEST POP POP JUMPDEST POP POP POP JUMP JUMPDEST PUSH1 0x0 DUP3 DUP3 SHR SWAP1 POP SWAP3 SWAP2 POP POP JUMP JUMPDEST PUSH1 0x0 PUSH2 0xCFD PUSH1 0x0 NOT DUP5 PUSH1 0x8 MUL PUSH2 0xCDF JUMP JUMPDEST NOT DUP1 DUP4 AND SWAP2 POP POP SWAP3 SWAP2 POP POP JUMP JUMPDEST PUSH1 0x0 PUSH2 0xD16 DUP4 DUP4 PUSH2 0xCEC JUMP JUMPDEST SWAP2 POP DUP3 PUSH1 0x2 MUL DUP3 OR SWAP1 POP SWAP3 SWAP2 POP POP JUMP JUMPDEST PUSH2 0xD2F DUP3 PUSH2 0xB05 JUMP JUMPDEST PUSH8 0xFFFFFFFFFFFFFFFF DUP2 GT ISZERO PUSH2 0xD48 JUMPI PUSH2 0xD47 PUSH2 0x8A1 JUMP JUMPDEST JUMPDEST PUSH2 0xD52 DUP3 SLOAD PUSH2 0xB3F JUMP JUMPDEST PUSH2 0xD5D DUP3 DUP3 DUP6 PUSH2 0xC99 JUMP JUMPDEST PUSH1 0x0 PUSH1 0x20 SWAP1 POP PUSH1 0x1F DUP4 GT PUSH1 0x1 DUP2 EQ PUSH2 0xD90 JUMPI PUSH1 0x0 DUP5 ISZERO PUSH2 0xD7E JUMPI DUP3 DUP8 ADD MLOAD SWAP1 POP JUMPDEST PUSH2 0xD88 DUP6 DUP3 PUSH2 0xD0A JUMP JUMPDEST DUP7 SSTORE POP PUSH2 0xDF0 JUMP JUMPDEST PUSH1 0x1F NOT DUP5 AND PUSH2 0xD9E DUP7 PUSH2 0xB70 JUMP JUMPDEST PUSH1 0x0 JUMPDEST DUP3 DUP2 LT ISZERO PUSH2 0xDC6 JUMPI DUP5 DUP10 ADD MLOAD DUP3 SSTORE PUSH1 0x1 DUP3 ADD SWAP2 POP PUSH1 0x20 DUP6 ADD SWAP5 POP PUSH1 0x20 DUP2 ADD SWAP1 POP PUSH2 0xDA1 JUMP JUMPDEST DUP7 DUP4 LT ISZERO PUSH2 0xDE3 JUMPI DUP5 DUP10 ADD MLOAD PUSH2 0xDDF PUSH1 0x1F DUP10 AND DUP3 PUSH2 0xCEC JUMP JUMPDEST DUP4 SSTORE POP JUMPDEST PUSH1 0x1 PUSH1 0x2 DUP9 MUL ADD DUP9 SSTORE POP POP POP JUMPDEST POP POP POP POP POP POP JUMP JUMPDEST PUSH2 0xE01 DUP2 PUSH2 0x848 JUMP JUMPDEST DUP3 MSTORE POP POP JUMP JUMPDEST PUSH1 0x0 PUSH1 0x20 DUP3 ADD SWAP1 POP PUSH2 0xE1C PUSH1 0x0 DUP4 ADD DUP5 PUSH2 0xDF8 JUMP JUMPDEST SWAP3 SWAP2 POP POP JUMP JUMPDEST PUSH32 0x4E487B7100000000000000000000000000000000000000000000000000000000 PUSH1 0x0 MSTORE PUSH1 0x21 PUSH1 0x4 MSTORE PUSH1 0x24 PUSH1 0x0 REVERT JUMPDEST PUSH1 0x0 DUP2 SWAP1 POP SWAP2 SWAP1 POP JUMP JUMPDEST PUSH2 0xE64 DUP2 PUSH2 0xE51 JUMP JUMPDEST DUP3 MSTORE POP POP JUMP JUMPDEST PUSH2 0xE73 DUP2 PUSH2 0xBF4 JUMP JUMPDEST DUP3 MSTORE POP POP JUMP JUMPDEST PUSH1 0x0 PUSH1 0xA0 DUP3 ADD SWAP1 POP PUSH2 0xE8E PUSH1 0x0 DUP4 ADD DUP9 PUSH2 0xE5B JUMP JUMPDEST PUSH2 0xE9B PUSH1 0x20 DUP4 ADD DUP8 PUSH2 0xE5B JUMP JUMPDEST PUSH2 0xEA8 PUSH1 0x40 DUP4 ADD DUP7 PUSH2 0xE5B JUMP JUMPDEST PUSH2 0xEB5 PUSH1 0x60 DUP4 ADD DUP6 PUSH2 0xE6A JUMP JUMPDEST PUSH2 0xEC2 PUSH1 0x80 DUP4 ADD DUP5 PUSH2 0xDF8 JUMP JUMPDEST SWAP7 SWAP6 POP POP POP POP POP POP JUMP JUMPDEST PUSH1 0x0 PUSH2 0xEE7 PUSH2 0xEE2 PUSH2 0xEDD DUP5 PUSH2 0x9E7 JUMP JUMPDEST PUSH2 0xBFE JUMP JUMPDEST PUSH2 0xBF4 JUMP JUMPDEST SWAP1 POP SWAP2 SWAP1 POP JUMP JUMPDEST PUSH2 0xEF7 DUP2 PUSH2 0xECC JUMP JUMPDEST DUP3 MSTORE POP POP JUMP JUMPDEST PUSH1 0x0 PUSH1 0x40 DUP3 ADD SWAP1 POP PUSH2 0xF12 PUSH1 0x0 DUP4 ADD DUP6 PUSH2 0xEEE JUMP JUMPDEST PUSH2 0xF1F PUSH1 0x20 DUP4 ADD DUP5 PUSH2 0xE6A JUMP JUMPDEST SWAP4 SWAP3 POP POP POP JUMP JUMPDEST PUSH1 0x0 DUP3 DUP3 MSTORE PUSH1 0x20 DUP3 ADD SWAP1 POP SWAP3 SWAP2 POP POP JUMP JUMPDEST PUSH1 0x0 PUSH2 0xF42 DUP3 PUSH2 0xB05 JUMP JUMPDEST PUSH2 0xF4C DUP2 DUP6 PUSH2 0xF26 JUMP JUMPDEST SWAP4 POP PUSH2 0xF5C DUP2 DUP6 PUSH1 0x20 DUP7 ADD PUSH2 0x94D JUMP JUMPDEST PUSH2 0xF65 DUP2 PUSH2 0x890 JUMP JUMPDEST DUP5 ADD SWAP2 POP POP SWAP3 SWAP2 POP POP JUMP JUMPDEST PUSH1 0x0 PUSH1 0x20 DUP3 ADD SWAP1 POP DUP2 DUP2 SUB PUSH1 0x0 DUP4 ADD MSTORE PUSH2 0xF8A DUP2 DUP5 PUSH2 0xF37 JUMP JUMPDEST SWAP1 POP SWAP3 SWAP2 POP POP JUMP JUMPDEST PUSH1 0x0 DUP2 MLOAD SWAP1 POP SWAP2 SWAP1 POP JUMP JUMPDEST PUSH1 0x0 DUP2 SWAP1 POP PUSH1 0x20 DUP3 ADD SWAP1 POP SWAP2 SWAP1 POP JUMP JUMPDEST PUSH1 0x0 PUSH2 0xFB9 DUP3 MLOAD PUSH2 0xE51 JUMP JUMPDEST DUP1 SWAP2 POP POP SWAP2 SWAP1 POP JUMP JUMPDEST PUSH1 0x0 PUSH2 0xFCD DUP3 PUSH2 0xF92 JUMP JUMPDEST DUP3 PUSH2 0xFD7 DUP5 PUSH2 0xF9D JUMP JUMPDEST SWAP1 POP PUSH2 0xFE2 DUP2 PUSH2 0xFAD JUMP JUMPDEST SWAP3 POP PUSH1 0x20 DUP3 LT ISZERO PUSH2 0x1022 JUMPI PUSH2 0x101D PUSH32 0xFFFFFFFFFFFFFFFFFFFFFFFFFFFFFFFFFFFFFFFFFFFFFFFFFFFFFFFFFFFFFFFF DUP4 PUSH1 0x20 SUB PUSH1 0x8 MUL PUSH2 0xB95 JUMP JUMPDEST DUP4 AND SWAP3 POP JUMPDEST POP POP SWAP2 SWAP1 POP JUMP JUMPDEST PUSH1 0x80 MLOAD PUSH1 0xA0 MLOAD PUSH1 0xC0 MLOAD PUSH1 0xE0 MLOAD PUSH2 0x100 MLOAD PUSH2 0x120 MLOAD PUSH2 0x140 MLOAD PUSH2 0x160 MLOAD PUSH2 0x180 MLOAD PUSH2 0x5C20 PUSH2 0x109D PUSH1 0x0 CODECOPY PUSH1 0x0 POP POP PUSH1 0x0 DUP2 DUP2 PUSH2 0x1248 ADD MSTORE PUSH2 0x16D8 ADD MSTORE PUSH1 0x0 PUSH2 0x216B ADD MSTORE PUSH1 0x0 PUSH2 0x2130 ADD MSTORE PUSH1 0x0 PUSH2 0x31BA ADD MSTORE PUSH1 0x0 PUSH2 0x3199 ADD MSTORE PUSH1 0x0 PUSH2 0x2946 ADD MSTORE PUSH1 0x0 PUSH2 0x299C ADD MSTORE PUSH1 0x0 PUSH2 0x29C5 ADD MSTORE PUSH2 0x5C20 PUSH1 0x0 RETURN INVALID PUSH1 0x80 PUSH1 0x40 MSTORE PUSH1 0x4 CALLDATASIZE LT PUSH2 0x1EE JUMPI PUSH1 0x0 CALLDATALOAD PUSH1 0xE0 SHR DUP1 PUSH4 0x70A08231 GT PUSH2 0x10D JUMPI DUP1 PUSH4 0xB88D4FDE GT PUSH2 0xA0 JUMPI DUP1 PUSH4 0xE985E9C5 GT PUSH2 0x6F JUMPI DUP1 PUSH4 0xE985E9C5 EQ PUSH2 0x73B JUMPI DUP1 PUSH4 0xEB13554F EQ PUSH2 0x778 JUMPI DUP1 PUSH4 0xED24911D EQ PUSH2 0x7A3 JUMPI DUP1 PUSH4 0xF2FDE38B EQ PUSH2 0x7CE JUMPI DUP1 PUSH4 0xF7330C2D EQ PUSH2 0x7F7 JUMPI PUSH2 0x1EE JUMP JUMPDEST DUP1 PUSH4 0xB88D4FDE EQ PUSH2 0x67F JUMPI DUP1 PUSH4 0xC87B56DD EQ PUSH2 0x6A8 JUMPI DUP1 PUSH4 0xCDD78CFC EQ PUSH2 0x6E5 JUMPI DUP1 PUSH4 0xDB5E0063 EQ PUSH2 0x710 JUMPI PUSH2 0x1EE JUMP JUMPDEST DUP1 PUSH4 0x8DA5CB5B GT PUSH2 0xDC JUMPI DUP1 PUSH4 0x8DA5CB5B EQ PUSH2 0x5E4 JUMPI DUP1 PUSH4 0x8FF75E82 EQ PUSH2 0x60F JUMPI DUP1 PUSH4 0x95D89B41 EQ PUSH2 0x62B JUMPI DUP1 PUSH4 0xA22CB465 EQ PUSH2 0x656 JUMPI PUSH2 0x1EE JUMP JUMPDEST DUP1 PUSH4 0x70A08231 EQ PUSH2 0x522 JUMPI DUP1 PUSH4 0x715018A6 EQ PUSH2 0x55F JUMPI DUP1 PUSH4 0x8462151C EQ PUSH2 0x576 JUMPI DUP1 PUSH4 0x84B0196E EQ PUSH2 0x5B3 JUMPI PUSH2 0x1EE JUMP JUMPDEST DUP1 PUSH4 0x2A55205A GT PUSH2 0x185 JUMPI DUP1 PUSH4 0x4F6CCCE7 GT PUSH2 0x154 JUMPI DUP1 PUSH4 0x4F6CCCE7 EQ PUSH2 0x454 JUMPI DUP1 PUSH4 0x57036078 EQ PUSH2 0x491 JUMPI DUP1 PUSH4 0x6352211E EQ PUSH2 0x4BA JUMPI DUP1 PUSH4 0x65D65E86 EQ PUSH2 0x4F7 JUMPI PUSH2 0x1EE JUMP JUMPDEST DUP1 PUSH4 0x2A55205A EQ PUSH2 0x36C JUMPI DUP1 PUSH4 0x2E37EEF6 EQ PUSH2 0x3AA JUMPI DUP1 PUSH4 0x2F745C59 EQ PUSH2 0x3EE JUMPI DUP1 PUSH4 0x42842E0E EQ PUSH2 0x42B JUMPI PUSH2 0x1EE JUMP JUMPDEST DUP1 PUSH4 0x95EA7B3 GT PUSH2 0x1C1 JUMPI DUP1 PUSH4 0x95EA7B3 EQ PUSH2 0x2C3 JUMPI DUP1 PUSH4 0x18160DDD EQ PUSH2 0x2EC JUMPI DUP1 PUSH4 0x1CE97FD1 EQ PUSH2 0x317 JUMPI DUP1 PUSH4 0x23B872DD EQ PUSH2 0x343 JUMPI PUSH2 0x1EE JUMP JUMPDEST DUP1 PUSH4 0x1FFC9A7 EQ PUSH2 0x1F3 JUMPI DUP1 PUSH4 0x6FDDE03 EQ PUSH2 0x230 JUMPI DUP1 PUSH4 0x72A1319 EQ PUSH2 0x25B JUMPI DUP1 PUSH4 0x81812FC EQ PUSH2 0x286 JUMPI JUMPDEST PUSH1 0x0 DUP1 REVERT JUMPDEST CALLVALUE DUP1 ISZERO PUSH2 0x1FF JUMPI PUSH1 0x0 DUP1 REVERT JUMPDEST POP PUSH2 0x21A PUSH1 0x4 DUP1 CALLDATASIZE SUB DUP2 ADD SWAP1 PUSH2 0x215 SWAP2 SWAP1 PUSH2 0x3FFD JUMP JUMPDEST PUSH2 0x834 JUMP JUMPDEST PUSH1 0x40 MLOAD PUSH2 0x227 SWAP2 SWAP1 PUSH2 0x4045 JUMP JUMPDEST PUSH1 0x40 MLOAD DUP1 SWAP2 SUB SWAP1 RETURN JUMPDEST CALLVALUE DUP1 ISZERO PUSH2 0x23C JUMPI PUSH1 0x0 DUP1 REVERT JUMPDEST POP PUSH2 0x245 PUSH2 0x846 JUMP JUMPDEST PUSH1 0x40 MLOAD PUSH2 0x252 SWAP2 SWAP1 PUSH2 0x40F0 JUMP JUMPDEST PUSH1 0x40 MLOAD DUP1 SWAP2 SUB SWAP1 RETURN JUMPDEST CALLVALUE DUP1 ISZERO PUSH2 0x267 JUMPI PUSH1 0x0 DUP1 REVERT JUMPDEST POP PUSH2 0x270 PUSH2 0x8D8 JUMP JUMPDEST PUSH1 0x40 MLOAD PUSH2 0x27D SWAP2 SWAP1 PUSH2 0x4045 JUMP JUMPDEST PUSH1 0x40 MLOAD DUP1 SWAP2 SUB SWAP1 RETURN JUMPDEST CALLVALUE DUP1 ISZERO PUSH2 0x292 JUMPI PUSH1 0x0 DUP1 REVERT JUMPDEST POP PUSH2 0x2AD PUSH1 0x4 DUP1 CALLDATASIZE SUB DUP2 ADD SWAP1 PUSH2 0x2A8 SWAP2 SWAP1 PUSH2 0x4148 JUMP JUMPDEST PUSH2 0x9D2 JUMP JUMPDEST PUSH1 0x40 MLOAD PUSH2 0x2BA SWAP2 SWAP1 PUSH2 0x41B6 JUMP JUMPDEST PUSH1 0x40 MLOAD DUP1 SWAP2 SUB SWAP1 RETURN JUMPDEST CALLVALUE DUP1 ISZERO PUSH2 0x2CF JUMPI PUSH1 0x0 DUP1 REVERT JUMPDEST POP PUSH2 0x2EA PUSH1 0x4 DUP1 CALLDATASIZE SUB DUP2 ADD SWAP1 PUSH2 0x2E5 SWAP2 SWAP1 PUSH2 0x41FD JUMP JUMPDEST PUSH2 0x9EE JUMP JUMPDEST STOP JUMPDEST CALLVALUE DUP1 ISZERO PUSH2 0x2F8 JUMPI PUSH1 0x0 DUP1 REVERT JUMPDEST POP PUSH2 0x301 PUSH2 0xA04 JUMP JUMPDEST PUSH1 0x40 MLOAD PUSH2 0x30E SWAP2 SWAP1 PUSH2 0x424C JUMP JUMPDEST PUSH1 0x40 MLOAD DUP1 SWAP2 SUB SWAP1 RETURN JUMPDEST CALLVALUE DUP1 ISZERO PUSH2 0x323 JUMPI PUSH1 0x0 DUP1 REVERT JUMPDEST POP PUSH2 0x32C PUSH2 0xA11 JUMP JUMPDEST PUSH1 0x40 MLOAD PUSH2 0x33A SWAP3 SWAP2 SWAP1 PUSH2 0x43A8 JUMP JUMPDEST PUSH1 0x40 MLOAD DUP1 SWAP2 SUB SWAP1 RETURN JUMPDEST CALLVALUE DUP1 ISZERO PUSH2 0x34F JUMPI PUSH1 0x0 DUP1 REVERT JUMPDEST POP PUSH2 0x36A PUSH1 0x4 DUP1 CALLDATASIZE SUB DUP2 ADD SWAP1 PUSH2 0x365 SWAP2 SWAP1 PUSH2 0x43D2 JUMP JUMPDEST PUSH2 0xABB JUMP JUMPDEST STOP JUMPDEST CALLVALUE DUP1 ISZERO PUSH2 0x378 JUMPI PUSH1 0x0 DUP1 REVERT JUMPDEST POP PUSH2 0x393 PUSH1 0x4 DUP1 CALLDATASIZE SUB DUP2 ADD SWAP1 PUSH2 0x38E SWAP2 SWAP1 PUSH2 0x4425 JUMP JUMPDEST PUSH2 0xBBD JUMP JUMPDEST PUSH1 0x40 MLOAD PUSH2 0x3A1 SWAP3 SWAP2 SWAP1 PUSH2 0x4465 JUMP JUMPDEST PUSH1 0x40 MLOAD DUP1 SWAP2 SUB SWAP1 RETURN JUMPDEST CALLVALUE DUP1 ISZERO PUSH2 0x3B6 JUMPI PUSH1 0x0 DUP1 REVERT JUMPDEST POP PUSH2 0x3D1 PUSH1 0x4 DUP1 CALLDATASIZE SUB DUP2 ADD SWAP1 PUSH2 0x3CC SWAP2 SWAP1 PUSH2 0x4148 JUMP JUMPDEST PUSH2 0xCED JUMP JUMPDEST PUSH1 0x40 MLOAD PUSH2 0x3E5 SWAP9 SWAP8 SWAP7 SWAP6 SWAP5 SWAP4 SWAP3 SWAP2 SWAP1 PUSH2 0x44AC JUMP JUMPDEST PUSH1 0x40 MLOAD DUP1 SWAP2 SUB SWAP1 RETURN JUMPDEST CALLVALUE DUP1 ISZERO PUSH2 0x3FA JUMPI PUSH1 0x0 DUP1 REVERT JUMPDEST POP PUSH2 0x415 PUSH1 0x4 DUP1 CALLDATASIZE SUB DUP2 ADD SWAP1 PUSH2 0x410 SWAP2 SWAP1 PUSH2 0x41FD JUMP JUMPDEST PUSH2 0xD52 JUMP JUMPDEST PUSH1 0x40 MLOAD PUSH2 0x422 SWAP2 SWAP1 PUSH2 0x424C JUMP JUMPDEST PUSH1 0x40 MLOAD DUP1 SWAP2 SUB SWAP1 RETURN JUMPDEST CALLVALUE DUP1 ISZERO PUSH2 0x437 JUMPI PUSH1 0x0 DUP1 REVERT JUMPDEST POP PUSH2 0x452 PUSH1 0x4 DUP1 CALLDATASIZE SUB DUP2 ADD SWAP1 PUSH2 0x44D SWAP2 SWAP1 PUSH2 0x43D2 JUMP JUMPDEST PUSH2 0xDFB JUMP JUMPDEST STOP JUMPDEST CALLVALUE DUP1 ISZERO PUSH2 0x460 JUMPI PUSH1 0x0 DUP1 REVERT JUMPDEST POP PUSH2 0x47B PUSH1 0x4 DUP1 CALLDATASIZE SUB DUP2 ADD SWAP1 PUSH2 0x476 SWAP2 SWAP1 PUSH2 0x4148 JUMP JUMPDEST PUSH2 0xE1B JUMP JUMPDEST PUSH1 0x40 MLOAD PUSH2 0x488 SWAP2 SWAP1 PUSH2 0x424C JUMP JUMPDEST PUSH1 0x40 MLOAD DUP1 SWAP2 SUB SWAP1 RETURN JUMPDEST CALLVALUE DUP1 ISZERO PUSH2 0x49D JUMPI PUSH1 0x0 DUP1 REVERT JUMPDEST POP PUSH2 0x4B8 PUSH1 0x4 DUP1 CALLDATASIZE SUB DUP2 ADD SWAP1 PUSH2 0x4B3 SWAP2 SWAP1 PUSH2 0x457B JUMP JUMPDEST PUSH2 0xE91 JUMP JUMPDEST STOP JUMPDEST CALLVALUE DUP1 ISZERO PUSH2 0x4C6 JUMPI PUSH1 0x0 DUP1 REVERT JUMPDEST POP PUSH2 0x4E1 PUSH1 0x4 DUP1 CALLDATASIZE SUB DUP2 ADD SWAP1 PUSH2 0x4DC SWAP2 SWAP1 PUSH2 0x4148 JUMP JUMPDEST PUSH2 0x1234 JUMP JUMPDEST PUSH1 0x40 MLOAD PUSH2 0x4EE SWAP2 SWAP1 PUSH2 0x41B6 JUMP JUMPDEST PUSH1 0x40 MLOAD DUP1 SWAP2 SUB SWAP1 RETURN JUMPDEST CALLVALUE DUP1 ISZERO PUSH2 0x503 JUMPI PUSH1 0x0 DUP1 REVERT JUMPDEST POP PUSH2 0x50C PUSH2 0x1246 JUMP JUMPDEST PUSH1 0x40 MLOAD PUSH2 0x519 SWAP2 SWAP1 PUSH2 0x41B6 JUMP JUMPDEST PUSH1 0x40 MLOAD DUP1 SWAP2 SUB SWAP1 RETURN JUMPDEST CALLVALUE DUP1 ISZERO PUSH2 0x52E JUMPI PUSH1 0x0 DUP1 REVERT JUMPDEST POP PUSH2 0x549 PUSH1 0x4 DUP1 CALLDATASIZE SUB DUP2 ADD SWAP1 PUSH2 0x544 SWAP2 SWAP1 PUSH2 0x461D JUMP JUMPDEST PUSH2 0x126A JUMP JUMPDEST PUSH1 0x40 MLOAD PUSH2 0x556 SWAP2 SWAP1 PUSH2 0x424C JUMP JUMPDEST PUSH1 0x40 MLOAD DUP1 SWAP2 SUB SWAP1 RETURN JUMPDEST CALLVALUE DUP1 ISZERO PUSH2 0x56B JUMPI PUSH1 0x0 DUP1 REVERT JUMPDEST POP PUSH2 0x574 PUSH2 0x1324 JUMP JUMPDEST STOP JUMPDEST CALLVALUE DUP1 ISZERO PUSH2 0x582 JUMPI PUSH1 0x0 DUP1 REVERT JUMPDEST POP PUSH2 0x59D PUSH1 0x4 DUP1 CALLDATASIZE SUB DUP2 ADD SWAP1 PUSH2 0x598 SWAP2 SWAP1 PUSH2 0x461D JUMP JUMPDEST PUSH2 0x1338 JUMP JUMPDEST PUSH1 0x40 MLOAD PUSH2 0x5AA SWAP2 SWAP1 PUSH2 0x46F9 JUMP JUMPDEST PUSH1 0x40 MLOAD DUP1 SWAP2 SUB SWAP1 RETURN JUMPDEST CALLVALUE DUP1 ISZERO PUSH2 0x5BF JUMPI PUSH1 0x0 DUP1 REVERT JUMPDEST POP PUSH2 0x5C8 PUSH2 0x13CF JUMP JUMPDEST PUSH1 0x40 MLOAD PUSH2 0x5DB SWAP8 SWAP7 SWAP6 SWAP5 SWAP4 SWAP3 SWAP2 SWAP1 PUSH2 0x4756 JUMP JUMPDEST PUSH1 0x40 MLOAD DUP1 SWAP2 SUB SWAP1 RETURN JUMPDEST CALLVALUE DUP1 ISZERO PUSH2 0x5F0 JUMPI PUSH1 0x0 DUP1 REVERT JUMPDEST POP PUSH2 0x5F9 PUSH2 0x1479 JUMP JUMPDEST PUSH1 0x40 MLOAD PUSH2 0x606 SWAP2 SWAP1 PUSH2 0x41B6 JUMP JUMPDEST PUSH1 0x40 MLOAD DUP1 SWAP2 SUB SWAP1 RETURN JUMPDEST PUSH2 0x629 PUSH1 0x4 DUP1 CALLDATASIZE SUB DUP2 ADD SWAP1 PUSH2 0x624 SWAP2 SWAP1 PUSH2 0x48EB JUMP JUMPDEST PUSH2 0x14A3 JUMP JUMPDEST STOP JUMPDEST CALLVALUE DUP1 ISZERO PUSH2 0x637 JUMPI PUSH1 0x0 DUP1 REVERT JUMPDEST POP PUSH2 0x640 PUSH2 0x1A34 JUMP JUMPDEST PUSH1 0x40 MLOAD PUSH2 0x64D SWAP2 SWAP1 PUSH2 0x40F0 JUMP JUMPDEST PUSH1 0x40 MLOAD DUP1 SWAP2 SUB SWAP1 RETURN JUMPDEST CALLVALUE DUP1 ISZERO PUSH2 0x662 JUMPI PUSH1 0x0 DUP1 REVERT JUMPDEST POP PUSH2 0x67D PUSH1 0x4 DUP1 CALLDATASIZE SUB DUP2 ADD SWAP1 PUSH2 0x678 SWAP2 SWAP1 PUSH2 0x4A06 JUMP JUMPDEST PUSH2 0x1AC6 JUMP JUMPDEST STOP JUMPDEST CALLVALUE DUP1 ISZERO PUSH2 0x68B JUMPI PUSH1 0x0 DUP1 REVERT JUMPDEST POP PUSH2 0x6A6 PUSH1 0x4 DUP1 CALLDATASIZE SUB DUP2 ADD SWAP1 PUSH2 0x6A1 SWAP2 SWAP1 PUSH2 0x4B76 JUMP JUMPDEST PUSH2 0x1ADC JUMP JUMPDEST STOP JUMPDEST CALLVALUE DUP1 ISZERO PUSH2 0x6B4 JUMPI PUSH1 0x0 DUP1 REVERT JUMPDEST POP PUSH2 0x6CF PUSH1 0x4 DUP1 CALLDATASIZE SUB DUP2 ADD SWAP1 PUSH2 0x6CA SWAP2 SWAP1 PUSH2 0x4148 JUMP JUMPDEST PUSH2 0x1B01 JUMP JUMPDEST PUSH1 0x40 MLOAD PUSH2 0x6DC SWAP2 SWAP1 PUSH2 0x40F0 JUMP JUMPDEST PUSH1 0x40 MLOAD DUP1 SWAP2 SUB SWAP1 RETURN JUMPDEST CALLVALUE DUP1 ISZERO PUSH2 0x6F1 JUMPI PUSH1 0x0 DUP1 REVERT JUMPDEST POP PUSH2 0x6FA PUSH2 0x1B13 JUMP JUMPDEST PUSH1 0x40 MLOAD PUSH2 0x707 SWAP2 SWAP1 PUSH2 0x4C20 JUMP JUMPDEST PUSH1 0x40 MLOAD DUP1 SWAP2 SUB SWAP1 RETURN JUMPDEST CALLVALUE DUP1 ISZERO PUSH2 0x71C JUMPI PUSH1 0x0 DUP1 REVERT JUMPDEST POP PUSH2 0x725 PUSH2 0x1B31 JUMP JUMPDEST PUSH1 0x40 MLOAD PUSH2 0x732 SWAP2 SWAP1 PUSH2 0x424C JUMP JUMPDEST PUSH1 0x40 MLOAD DUP1 SWAP2 SUB SWAP1 RETURN JUMPDEST CALLVALUE DUP1 ISZERO PUSH2 0x747 JUMPI PUSH1 0x0 DUP1 REVERT JUMPDEST POP PUSH2 0x762 PUSH1 0x4 DUP1 CALLDATASIZE SUB DUP2 ADD SWAP1 PUSH2 0x75D SWAP2 SWAP1 PUSH2 0x4C3B JUMP JUMPDEST PUSH2 0x1B3E JUMP JUMPDEST PUSH1 0x40 MLOAD PUSH2 0x76F SWAP2 SWAP1 PUSH2 0x4045 JUMP JUMPDEST PUSH1 0x40 MLOAD DUP1 SWAP2 SUB SWAP1 RETURN JUMPDEST CALLVALUE DUP1 ISZERO PUSH2 0x784 JUMPI PUSH1 0x0 DUP1 REVERT JUMPDEST POP PUSH2 0x78D PUSH2 0x1BD2 JUMP JUMPDEST PUSH1 0x40 MLOAD PUSH2 0x79A SWAP2 SWAP1 PUSH2 0x41B6 JUMP JUMPDEST PUSH1 0x40 MLOAD DUP1 SWAP2 SUB SWAP1 RETURN JUMPDEST CALLVALUE DUP1 ISZERO PUSH2 0x7AF JUMPI PUSH1 0x0 DUP1 REVERT JUMPDEST POP PUSH2 0x7B8 PUSH2 0x1BF8 JUMP JUMPDEST PUSH1 0x40 MLOAD PUSH2 0x7C5 SWAP2 SWAP1 PUSH2 0x4C7B JUMP JUMPDEST PUSH1 0x40 MLOAD DUP1 SWAP2 SUB SWAP1 RETURN JUMPDEST CALLVALUE DUP1 ISZERO PUSH2 0x7DA JUMPI PUSH1 0x0 DUP1 REVERT JUMPDEST POP PUSH2 0x7F5 PUSH1 0x4 DUP1 CALLDATASIZE SUB DUP2 ADD SWAP1 PUSH2 0x7F0 SWAP2 SWAP1 PUSH2 0x461D JUMP JUMPDEST PUSH2 0x1C07 JUMP JUMPDEST STOP JUMPDEST CALLVALUE DUP1 ISZERO PUSH2 0x803 JUMPI PUSH1 0x0 DUP1 REVERT JUMPDEST POP PUSH2 0x81E PUSH1 0x4 DUP1 CALLDATASIZE SUB DUP2 ADD SWAP1 PUSH2 0x819 SWAP2 SWAP1 PUSH2 0x4C96 JUMP JUMPDEST PUSH2 0x1C8D JUMP JUMPDEST PUSH1 0x40 MLOAD PUSH2 0x82B SWAP2 SWAP1 PUSH2 0x424C JUMP JUMPDEST PUSH1 0x40 MLOAD DUP1 SWAP2 SUB SWAP1 RETURN JUMPDEST PUSH1 0x0 PUSH2 0x83F DUP3 PUSH2 0x1D0C JUMP JUMPDEST SWAP1 POP SWAP2 SWAP1 POP JUMP JUMPDEST PUSH1 0x60 PUSH1 0x0 DUP1 SLOAD PUSH2 0x855 SWAP1 PUSH2 0x4D05 JUMP JUMPDEST DUP1 PUSH1 0x1F ADD PUSH1 0x20 DUP1 SWAP2 DIV MUL PUSH1 0x20 ADD PUSH1 0x40 MLOAD SWAP1 DUP2 ADD PUSH1 0x40 MSTORE DUP1 SWAP3 SWAP2 SWAP1 DUP2 DUP2 MSTORE PUSH1 0x20 ADD DUP3 DUP1 SLOAD PUSH2 0x881 SWAP1 PUSH2 0x4D05 JUMP JUMPDEST DUP1 ISZERO PUSH2 0x8CE JUMPI DUP1 PUSH1 0x1F LT PUSH2 0x8A3 JUMPI PUSH2 0x100 DUP1 DUP4 SLOAD DIV MUL DUP4 MSTORE SWAP2 PUSH1 0x20 ADD SWAP2 PUSH2 0x8CE JUMP JUMPDEST DUP3 ADD SWAP2 SWAP1 PUSH1 0x0 MSTORE PUSH1 0x20 PUSH1 0x0 KECCAK256 SWAP1 JUMPDEST DUP2 SLOAD DUP2 MSTORE SWAP1 PUSH1 0x1 ADD SWAP1 PUSH1 0x20 ADD DUP1 DUP4 GT PUSH2 0x8B1 JUMPI DUP3 SWAP1 SUB PUSH1 0x1F AND DUP3 ADD SWAP2 JUMPDEST POP POP POP POP POP SWAP1 POP SWAP1 JUMP JUMPDEST PUSH1 0x0 DUP1 TIMESTAMP SWAP1 POP PUSH1 0x0 JUMPDEST PUSH1 0x12 DUP1 SLOAD SWAP1 POP DUP2 LT ISZERO PUSH2 0x9C8 JUMPI PUSH1 0x0 PUSH1 0x2 DUP2 GT ISZERO PUSH2 0x902 JUMPI PUSH2 0x901 PUSH2 0x4267 JUMP JUMPDEST JUMPDEST PUSH1 0x12 DUP3 DUP2 SLOAD DUP2 LT PUSH2 0x916 JUMPI PUSH2 0x915 PUSH2 0x4D36 JUMP JUMPDEST JUMPDEST SWAP1 PUSH1 0x0 MSTORE PUSH1 0x20 PUSH1 0x0 KECCAK256 SWAP1 PUSH1 0x8 MUL ADD PUSH1 0x0 ADD PUSH1 0x0 SWAP1 SLOAD SWAP1 PUSH2 0x100 EXP SWAP1 DIV PUSH1 0xFF AND PUSH1 0x2 DUP2 GT ISZERO PUSH2 0x947 JUMPI PUSH2 0x946 PUSH2 0x4267 JUMP JUMPDEST JUMPDEST EQ ISZERO DUP1 ISZERO PUSH2 0x97A JUMPI POP PUSH1 0x12 DUP2 DUP2 SLOAD DUP2 LT PUSH2 0x964 JUMPI PUSH2 0x963 PUSH2 0x4D36 JUMP JUMPDEST JUMPDEST SWAP1 PUSH1 0x0 MSTORE PUSH1 0x20 PUSH1 0x0 KECCAK256 SWAP1 PUSH1 0x8 MUL ADD PUSH1 0x2 ADD SLOAD DUP3 LT ISZERO JUMPDEST DUP1 ISZERO PUSH2 0x9AB JUMPI POP PUSH1 0x12 DUP2 DUP2 SLOAD DUP2 LT PUSH2 0x995 JUMPI PUSH2 0x994 PUSH2 0x4D36 JUMP JUMPDEST JUMPDEST SWAP1 PUSH1 0x0 MSTORE PUSH1 0x20 PUSH1 0x0 KECCAK256 SWAP1 PUSH1 0x8 MUL ADD PUSH1 0x3 ADD SLOAD DUP3 GT ISZERO JUMPDEST ISZERO PUSH2 0x9BB JUMPI PUSH1 0x1 SWAP3 POP POP POP PUSH2 0x9CF JUMP JUMPDEST DUP1 DUP1 PUSH1 0x1 ADD SWAP2 POP POP PUSH2 0x8E1 JUMP JUMPDEST POP PUSH1 0x0 SWAP2 POP POP JUMPDEST SWAP1 JUMP JUMPDEST PUSH1 0x0 PUSH2 0x9DD DUP3 PUSH2 0x1D86 JUMP JUMPDEST POP PUSH2 0x9E7 DUP3 PUSH2 0x1E0E JUMP JUMPDEST SWAP1 POP SWAP2 SWAP1 POP JUMP JUMPDEST PUSH2 0xA00 DUP3 DUP3 PUSH2 0x9FB PUSH2 0x1E4B JUMP JUMPDEST PUSH2 0x1E53 JUMP JUMPDEST POP POP JUMP JUMPDEST PUSH1 0x0 PUSH1 0x8 DUP1 SLOAD SWAP1 POP SWAP1 POP SWAP1 JUMP JUMPDEST PUSH1 0x0 PUSH2 0xA1B PUSH2 0x3F37 JUMP JUMPDEST PUSH2 0xA23 PUSH2 0x1E65 JUMP JUMPDEST DUP1 PUSH1 0x40 MLOAD DUP1 PUSH2 0x100 ADD PUSH1 0x40 MSTORE SWAP1 DUP2 PUSH1 0x0 DUP3 ADD PUSH1 0x0 SWAP1 SLOAD SWAP1 PUSH2 0x100 EXP SWAP1 DIV PUSH1 0xFF AND PUSH1 0x2 DUP2 GT ISZERO PUSH2 0xA55 JUMPI PUSH2 0xA54 PUSH2 0x4267 JUMP JUMPDEST JUMPDEST PUSH1 0x2 DUP2 GT ISZERO PUSH2 0xA67 JUMPI PUSH2 0xA66 PUSH2 0x4267 JUMP JUMPDEST JUMPDEST DUP2 MSTORE PUSH1 0x20 ADD PUSH1 0x1 DUP3 ADD SLOAD DUP2 MSTORE PUSH1 0x20 ADD PUSH1 0x2 DUP3 ADD SLOAD DUP2 MSTORE PUSH1 0x20 ADD PUSH1 0x3 DUP3 ADD SLOAD DUP2 MSTORE PUSH1 0x20 ADD PUSH1 0x4 DUP3 ADD SLOAD DUP2 MSTORE PUSH1 0x20 ADD PUSH1 0x5 DUP3 ADD SLOAD DUP2 MSTORE PUSH1 0x20 ADD PUSH1 0x6 DUP3 ADD SLOAD DUP2 MSTORE PUSH1 0x20 ADD PUSH1 0x7 DUP3 ADD SLOAD DUP2 MSTORE POP POP SWAP1 POP SWAP2 POP SWAP2 POP SWAP1 SWAP2 JUMP JUMPDEST PUSH1 0x0 PUSH20 0xFFFFFFFFFFFFFFFFFFFFFFFFFFFFFFFFFFFFFFFF AND DUP3 PUSH20 0xFFFFFFFFFFFFFFFFFFFFFFFFFFFFFFFFFFFFFFFF AND SUB PUSH2 0xB2D JUMPI PUSH1 0x0 PUSH1 0x40 MLOAD PUSH32 0x64A0AE9200000000000000000000000000000000000000000000000000000000 DUP2 MSTORE PUSH1 0x4 ADD PUSH2 0xB24 SWAP2 SWAP1 PUSH2 0x41B6 JUMP JUMPDEST PUSH1 0x40 MLOAD DUP1 SWAP2 SUB SWAP1 REVERT JUMPDEST PUSH1 0x0 PUSH2 0xB41 DUP4 DUP4 PUSH2 0xB3C PUSH2 0x1E4B JUMP JUMPDEST PUSH2 0x1FBA JUMP JUMPDEST SWAP1 POP DUP4 PUSH20 0xFFFFFFFFFFFFFFFFFFFFFFFFFFFFFFFFFFFFFFFF AND DUP2 PUSH20 0xFFFFFFFFFFFFFFFFFFFFFFFFFFFFFFFFFFFFFFFF AND EQ PUSH2 0xBB7 JUMPI DUP4 DUP3 DUP3 PUSH1 0x40 MLOAD PUSH32 0x64283D7B00000000000000000000000000000000000000000000000000000000 DUP2 MSTORE PUSH1 0x4 ADD PUSH2 0xBAE SWAP4 SWAP3 SWAP2 SWAP1 PUSH2 0x4D65 JUMP JUMPDEST PUSH1 0x40 MLOAD DUP1 SWAP2 SUB SWAP1 REVERT JUMPDEST POP POP POP POP JUMP JUMPDEST PUSH1 0x0 DUP1 PUSH1 0x0 PUSH1 0xC PUSH1 0x0 DUP7 DUP2 MSTORE PUSH1 0x20 ADD SWAP1 DUP2 MSTORE PUSH1 0x20 ADD PUSH1 0x0 KECCAK256 SWAP1 POP PUSH1 0x0 DUP2 PUSH1 0x0 ADD PUSH1 0x0 SWAP1 SLOAD SWAP1 PUSH2 0x100 EXP SWAP1 DIV PUSH20 0xFFFFFFFFFFFFFFFFFFFFFFFFFFFFFFFFFFFFFFFF AND SWAP1 POP PUSH1 0x0 DUP3 PUSH1 0x0 ADD PUSH1 0x14 SWAP1 SLOAD SWAP1 PUSH2 0x100 EXP SWAP1 DIV PUSH12 0xFFFFFFFFFFFFFFFFFFFFFFFF AND SWAP1 POP PUSH1 0x0 PUSH20 0xFFFFFFFFFFFFFFFFFFFFFFFFFFFFFFFFFFFFFFFF AND DUP3 PUSH20 0xFFFFFFFFFFFFFFFFFFFFFFFFFFFFFFFFFFFFFFFF AND SUB PUSH2 0xC9E JUMPI PUSH1 0xB PUSH1 0x0 ADD PUSH1 0x0 SWAP1 SLOAD SWAP1 PUSH2 0x100 EXP SWAP1 DIV PUSH20 0xFFFFFFFFFFFFFFFFFFFFFFFFFFFFFFFFFFFFFFFF AND SWAP2 POP PUSH1 0xB PUSH1 0x0 ADD PUSH1 0x14 SWAP1 SLOAD SWAP1 PUSH2 0x100 EXP SWAP1 DIV PUSH12 0xFFFFFFFFFFFFFFFFFFFFFFFF AND SWAP1 POP JUMPDEST PUSH1 0x0 PUSH2 0xCA8 PUSH2 0x1FD0 JUMP JUMPDEST PUSH12 0xFFFFFFFFFFFFFFFFFFFFFFFF AND DUP3 PUSH12 0xFFFFFFFFFFFFFFFFFFFFFFFF AND DUP9 PUSH2 0xCD0 SWAP2 SWAP1 PUSH2 0x4DCB JUMP JUMPDEST PUSH2 0xCDA SWAP2 SWAP1 PUSH2 0x4E3C JUMP JUMPDEST SWAP1 POP DUP3 DUP2 SWAP6 POP SWAP6 POP POP POP POP POP SWAP3 POP SWAP3 SWAP1 POP JUMP JUMPDEST PUSH1 0x12 DUP2 DUP2 SLOAD DUP2 LT PUSH2 0xCFD JUMPI PUSH1 0x0 DUP1 REVERT JUMPDEST SWAP1 PUSH1 0x0 MSTORE PUSH1 0x20 PUSH1 0x0 KECCAK256 SWAP1 PUSH1 0x8 MUL ADD PUSH1 0x0 SWAP2 POP SWAP1 POP DUP1 PUSH1 0x0 ADD PUSH1 0x0 SWAP1 SLOAD SWAP1 PUSH2 0x100 EXP SWAP1 DIV PUSH1 0xFF AND SWAP1 DUP1 PUSH1 0x1 ADD SLOAD SWAP1 DUP1 PUSH1 0x2 ADD SLOAD SWAP1 DUP1 PUSH1 0x3 ADD SLOAD SWAP1 DUP1 PUSH1 0x4 ADD SLOAD SWAP1 DUP1 PUSH1 0x5 ADD SLOAD SWAP1 DUP1 PUSH1 0x6 ADD SLOAD SWAP1 DUP1 PUSH1 0x7 ADD SLOAD SWAP1 POP DUP9 JUMP JUMPDEST PUSH1 0x0 PUSH2 0xD5D DUP4 PUSH2 0x126A JUMP JUMPDEST DUP3 LT PUSH2 0xDA2 JUMPI DUP3 DUP3 PUSH1 0x40 MLOAD PUSH32 0xA57D13DC00000000000000000000000000000000000000000000000000000000 DUP2 MSTORE PUSH1 0x4 ADD PUSH2 0xD99 SWAP3 SWAP2 SWAP1 PUSH2 0x4465 JUMP JUMPDEST PUSH1 0x40 MLOAD DUP1 SWAP2 SUB SWAP1 REVERT JUMPDEST PUSH1 0x6 PUSH1 0x0 DUP5 PUSH20 0xFFFFFFFFFFFFFFFFFFFFFFFFFFFFFFFFFFFFFFFF AND PUSH20 0xFFFFFFFFFFFFFFFFFFFFFFFFFFFFFFFFFFFFFFFF AND DUP2 MSTORE PUSH1 0x20 ADD SWAP1 DUP2 MSTORE PUSH1 0x20 ADD PUSH1 0x0 KECCAK256 PUSH1 0x0 DUP4 DUP2 MSTORE PUSH1 0x20 ADD SWAP1 DUP2 MSTORE PUSH1 0x20 ADD PUSH1 0x0 KECCAK256 SLOAD SWAP1 POP SWAP3 SWAP2 POP POP JUMP JUMPDEST PUSH2 0xE16 DUP4 DUP4 DUP4 PUSH1 0x40 MLOAD DUP1 PUSH1 0x20 ADD PUSH1 0x40 MSTORE DUP1 PUSH1 0x0 DUP2 MSTORE POP PUSH2 0x1ADC JUMP JUMPDEST POP POP POP JUMP JUMPDEST PUSH1 0x0 PUSH2 0xE25 PUSH2 0xA04 JUMP JUMPDEST DUP3 LT PUSH2 0xE6B JUMPI PUSH1 0x0 DUP3 PUSH1 0x40 MLOAD PUSH32 0xA57D13DC00000000000000000000000000000000000000000000000000000000 DUP2 MSTORE PUSH1 0x4 ADD PUSH2 0xE62 SWAP3 SWAP2 SWAP1 PUSH2 0x4465 JUMP JUMPDEST PUSH1 0x40 MLOAD DUP1 SWAP2 SUB SWAP1 REVERT JUMPDEST PUSH1 0x8 DUP3 DUP2 SLOAD DUP2 LT PUSH2 0xE7F JUMPI PUSH2 0xE7E PUSH2 0x4D36 JUMP JUMPDEST JUMPDEST SWAP1 PUSH1 0x0 MSTORE PUSH1 0x20 PUSH1 0x0 KECCAK256 ADD SLOAD SWAP1 POP SWAP2 SWAP1 POP JUMP JUMPDEST PUSH2 0xE99 PUSH2 0x1FDA JUMP JUMPDEST DUP4 DUP6 LT PUSH2 0xEDB JUMPI PUSH1 0x40 MLOAD PUSH32 0x8C379A000000000000000000000000000000000000000000000000000000000 DUP2 MSTORE PUSH1 0x4 ADD PUSH2 0xED2 SWAP1 PUSH2 0x4EB9 JUMP JUMPDEST PUSH1 0x40 MLOAD DUP1 SWAP2 SUB SWAP1 REVERT JUMPDEST PUSH1 0x2 DUP1 DUP2 GT ISZERO PUSH2 0xEEE JUMPI PUSH2 0xEED PUSH2 0x4267 JUMP JUMPDEST JUMPDEST DUP8 PUSH1 0x2 DUP2 GT ISZERO PUSH2 0xF01 JUMPI PUSH2 0xF00 PUSH2 0x4267 JUMP JUMPDEST JUMPDEST EQ PUSH2 0xF8F JUMPI PUSH1 0x0 DUP3 GT PUSH2 0xF49 JUMPI PUSH1 0x40 MLOAD PUSH32 0x8C379A000000000000000000000000000000000000000000000000000000000 DUP2 MSTORE PUSH1 0x4 ADD PUSH2 0xF40 SWAP1 PUSH2 0x4F4B JUMP JUMPDEST PUSH1 0x40 MLOAD DUP1 SWAP2 SUB SWAP1 REVERT JUMPDEST PUSH1 0x0 DUP1 SHL DUP2 SUB PUSH2 0xF8E JUMPI PUSH1 0x40 MLOAD PUSH32 0x8C379A000000000000000000000000000000000000000000000000000000000 DUP2 MSTORE PUSH1 0x4 ADD PUSH2 0xF85 SWAP1 PUSH2 0x4FDD JUMP JUMPDEST PUSH1 0x40 MLOAD DUP1 SWAP2 SUB SWAP1 REVERT JUMPDEST JUMPDEST PUSH1 0x0 JUMPDEST PUSH1 0x12 DUP1 SLOAD SWAP1 POP DUP2 LT ISZERO PUSH2 0x10EF JUMPI PUSH1 0x0 PUSH1 0x12 DUP3 DUP2 SLOAD DUP2 LT PUSH2 0xFB5 JUMPI PUSH2 0xFB4 PUSH2 0x4D36 JUMP JUMPDEST JUMPDEST SWAP1 PUSH1 0x0 MSTORE PUSH1 0x20 PUSH1 0x0 KECCAK256 SWAP1 PUSH1 0x8 MUL ADD PUSH1 0x40 MLOAD DUP1 PUSH2 0x100 ADD PUSH1 0x40 MSTORE SWAP1 DUP2 PUSH1 0x0 DUP3 ADD PUSH1 0x0 SWAP1 SLOAD SWAP1 PUSH2 0x100 EXP SWAP1 DIV PUSH1 0xFF AND PUSH1 0x2 DUP2 GT ISZERO PUSH2 0xFF4 JUMPI PUSH2 0xFF3 PUSH2 0x4267 JUMP JUMPDEST JUMPDEST PUSH1 0x2 DUP2 GT ISZERO PUSH2 0x1006 JUMPI PUSH2 0x1005 PUSH2 0x4267 JUMP JUMPDEST JUMPDEST DUP2 MSTORE PUSH1 0x20 ADD PUSH1 0x1 DUP3 ADD SLOAD DUP2 MSTORE PUSH1 0x20 ADD PUSH1 0x2 DUP3 ADD SLOAD DUP2 MSTORE PUSH1 0x20 ADD PUSH1 0x3 DUP3 ADD SLOAD DUP2 MSTORE PUSH1 0x20 ADD PUSH1 0x4 DUP3 ADD SLOAD DUP2 MSTORE PUSH1 0x20 ADD PUSH1 0x5 DUP3 ADD SLOAD DUP2 MSTORE PUSH1 0x20 ADD PUSH1 0x6 DUP3 ADD SLOAD DUP2 MSTORE PUSH1 0x20 ADD PUSH1 0x7 DUP3 ADD SLOAD DUP2 MSTORE POP POP SWAP1 POP PUSH1 0x0 PUSH1 0x2 DUP2 GT ISZERO PUSH2 0x1066 JUMPI PUSH2 0x1065 PUSH2 0x4267 JUMP JUMPDEST JUMPDEST DUP2 PUSH1 0x0 ADD MLOAD PUSH1 0x2 DUP2 GT ISZERO PUSH2 0x107D JUMPI PUSH2 0x107C PUSH2 0x4267 JUMP JUMPDEST JUMPDEST SUB PUSH2 0x1088 JUMPI POP PUSH2 0x10E2 JUMP JUMPDEST DUP1 PUSH1 0x60 ADD MLOAD DUP8 GT ISZERO DUP1 ISZERO PUSH2 0x10A0 JUMPI POP DUP1 PUSH1 0x40 ADD MLOAD DUP7 LT ISZERO JUMPDEST ISZERO PUSH2 0x10E0 JUMPI PUSH1 0x40 MLOAD PUSH32 0x8C379A000000000000000000000000000000000000000000000000000000000 DUP2 MSTORE PUSH1 0x4 ADD PUSH2 0x10D7 SWAP1 PUSH2 0x506F JUMP JUMPDEST PUSH1 0x40 MLOAD DUP1 SWAP2 SUB SWAP1 REVERT JUMPDEST POP JUMPDEST DUP1 DUP1 PUSH1 0x1 ADD SWAP2 POP POP PUSH2 0xF92 JUMP JUMPDEST POP PUSH1 0x0 PUSH1 0x40 MLOAD DUP1 PUSH2 0x100 ADD PUSH1 0x40 MSTORE DUP1 DUP10 PUSH1 0x2 DUP2 GT ISZERO PUSH2 0x1111 JUMPI PUSH2 0x1110 PUSH2 0x4267 JUMP JUMPDEST JUMPDEST DUP2 MSTORE PUSH1 0x20 ADD DUP9 DUP2 MSTORE PUSH1 0x20 ADD DUP8 DUP2 MSTORE PUSH1 0x20 ADD DUP7 DUP2 MSTORE PUSH1 0x20 ADD DUP6 DUP2 MSTORE PUSH1 0x20 ADD DUP5 DUP2 MSTORE PUSH1 0x20 ADD PUSH1 0x0 DUP2 MSTORE PUSH1 0x20 ADD DUP4 DUP2 MSTORE POP SWAP1 POP PUSH1 0x0 PUSH1 0x12 DUP1 SLOAD SWAP1 POP SWAP1 POP PUSH1 0x12 DUP3 SWAP1 DUP1 PUSH1 0x1 DUP2 SLOAD ADD DUP1 DUP3 SSTORE DUP1 SWAP2 POP POP PUSH1 0x1 SWAP1 SUB SWAP1 PUSH1 0x0 MSTORE PUSH1 0x20 PUSH1 0x0 KECCAK256 SWAP1 PUSH1 0x8 MUL ADD PUSH1 0x0 SWAP1 SWAP2 SWAP1 SWAP2 SWAP1 SWAP2 POP PUSH1 0x0 DUP3 ADD MLOAD DUP2 PUSH1 0x0 ADD PUSH1 0x0 PUSH2 0x100 EXP DUP2 SLOAD DUP2 PUSH1 0xFF MUL NOT AND SWAP1 DUP4 PUSH1 0x2 DUP2 GT ISZERO PUSH2 0x11A2 JUMPI PUSH2 0x11A1 PUSH2 0x4267 JUMP JUMPDEST JUMPDEST MUL OR SWAP1 SSTORE POP PUSH1 0x20 DUP3 ADD MLOAD DUP2 PUSH1 0x1 ADD SSTORE PUSH1 0x40 DUP3 ADD MLOAD DUP2 PUSH1 0x2 ADD SSTORE PUSH1 0x60 DUP3 ADD MLOAD DUP2 PUSH1 0x3 ADD SSTORE PUSH1 0x80 DUP3 ADD MLOAD DUP2 PUSH1 0x4 ADD SSTORE PUSH1 0xA0 DUP3 ADD MLOAD DUP2 PUSH1 0x5 ADD SSTORE PUSH1 0xC0 DUP3 ADD MLOAD DUP2 PUSH1 0x6 ADD SSTORE PUSH1 0xE0 DUP3 ADD MLOAD DUP2 PUSH1 0x7 ADD SSTORE POP POP DUP1 PUSH32 0x7673E4939433531841B3EE155CFB41D74036F1741ED20BA7C3ED88D66A289551 DUP11 DUP11 PUSH1 0x40 MLOAD PUSH2 0x1221 SWAP3 SWAP2 SWAP1 PUSH2 0x508F JUMP JUMPDEST PUSH1 0x40 MLOAD DUP1 SWAP2 SUB SWAP1 LOG2 POP POP POP POP POP POP POP POP POP JUMP JUMPDEST PUSH1 0x0 PUSH2 0x123F DUP3 PUSH2 0x1D86 JUMP JUMPDEST SWAP1 POP SWAP2 SWAP1 POP JUMP JUMPDEST PUSH32 0x0 DUP2 JUMP JUMPDEST PUSH1 0x0 DUP1 PUSH20 0xFFFFFFFFFFFFFFFFFFFFFFFFFFFFFFFFFFFFFFFF AND DUP3 PUSH20 0xFFFFFFFFFFFFFFFFFFFFFFFFFFFFFFFFFFFFFFFF AND SUB PUSH2 0x12DD JUMPI PUSH1 0x0 PUSH1 0x40 MLOAD PUSH32 0x89C62B6400000000000000000000000000000000000000000000000000000000 DUP2 MSTORE PUSH1 0x4 ADD PUSH2 0x12D4 SWAP2 SWAP1 PUSH2 0x41B6 JUMP JUMPDEST PUSH1 0x40 MLOAD DUP1 SWAP2 SUB SWAP1 REVERT JUMPDEST PUSH1 0x3 PUSH1 0x0 DUP4 PUSH20 0xFFFFFFFFFFFFFFFFFFFFFFFFFFFFFFFFFFFFFFFF AND PUSH20 0xFFFFFFFFFFFFFFFFFFFFFFFFFFFFFFFFFFFFFFFF AND DUP2 MSTORE PUSH1 0x20 ADD SWAP1 DUP2 MSTORE PUSH1 0x20 ADD PUSH1 0x0 KECCAK256 SLOAD SWAP1 POP SWAP2 SWAP1 POP JUMP JUMPDEST PUSH2 0x132C PUSH2 0x1FDA JUMP JUMPDEST PUSH2 0x1336 PUSH1 0x0 PUSH2 0x2061 JUMP JUMPDEST JUMP JUMPDEST PUSH1 0x60 PUSH1 0x14 PUSH1 0x0 DUP4 PUSH20 0xFFFFFFFFFFFFFFFFFFFFFFFFFFFFFFFFFFFFFFFF AND PUSH20 0xFFFFFFFFFFFFFFFFFFFFFFFFFFFFFFFFFFFFFFFF AND DUP2 MSTORE PUSH1 0x20 ADD SWAP1 DUP2 MSTORE PUSH1 0x20 ADD PUSH1 0x0 KECCAK256 DUP1 SLOAD DUP1 PUSH1 0x20 MUL PUSH1 0x20 ADD PUSH1 0x40 MLOAD SWAP1 DUP2 ADD PUSH1 0x40 MSTORE DUP1 SWAP3 SWAP2 SWAP1 DUP2 DUP2 MSTORE PUSH1 0x20 ADD DUP3 DUP1 SLOAD DUP1 ISZERO PUSH2 0x13C3 JUMPI PUSH1 0x20 MUL DUP3 ADD SWAP2 SWAP1 PUSH1 0x0 MSTORE PUSH1 0x20 PUSH1 0x0 KECCAK256 SWAP1 JUMPDEST DUP2 SLOAD DUP2 MSTORE PUSH1 0x20 ADD SWAP1 PUSH1 0x1 ADD SWAP1 DUP1 DUP4 GT PUSH2 0x13AF JUMPI JUMPDEST POP POP POP POP POP SWAP1 POP SWAP2 SWAP1 POP JUMP JUMPDEST PUSH1 0x0 PUSH1 0x60 DUP1 PUSH1 0x0 DUP1 PUSH1 0x0 PUSH1 0x60 PUSH2 0x13E3 PUSH2 0x2127 JUMP JUMPDEST PUSH2 0x13EB PUSH2 0x2162 JUMP JUMPDEST CHAINID ADDRESS PUSH1 0x0 DUP1 SHL PUSH1 0x0 PUSH8 0xFFFFFFFFFFFFFFFF DUP2 GT ISZERO PUSH2 0x140C JUMPI PUSH2 0x140B PUSH2 0x4A4B JUMP JUMPDEST JUMPDEST PUSH1 0x40 MLOAD SWAP1 DUP1 DUP3 MSTORE DUP1 PUSH1 0x20 MUL PUSH1 0x20 ADD DUP3 ADD PUSH1 0x40 MSTORE DUP1 ISZERO PUSH2 0x143A JUMPI DUP2 PUSH1 0x20 ADD PUSH1 0x20 DUP3 MUL DUP1 CALLDATASIZE DUP4 CALLDATACOPY DUP1 DUP3 ADD SWAP2 POP POP SWAP1 POP JUMPDEST POP PUSH32 0xF00000000000000000000000000000000000000000000000000000000000000 SWAP6 SWAP5 SWAP4 SWAP3 SWAP2 SWAP1 SWAP7 POP SWAP7 POP SWAP7 POP SWAP7 POP SWAP7 POP SWAP7 POP SWAP7 POP SWAP1 SWAP2 SWAP3 SWAP4 SWAP5 SWAP6 SWAP7 JUMP JUMPDEST PUSH1 0x0 PUSH1 0xD PUSH1 0x0 SWAP1 SLOAD SWAP1 PUSH2 0x100 EXP SWAP1 DIV PUSH20 0xFFFFFFFFFFFFFFFFFFFFFFFFFFFFFFFFFFFFFFFF AND SWAP1 POP SWAP1 JUMP JUMPDEST PUSH1 0x0 DUP1 PUSH2 0x14AE PUSH2 0x1E65 JUMP JUMPDEST SWAP2 POP SWAP2 POP PUSH1 0x1 PUSH1 0x2 DUP2 GT ISZERO PUSH2 0x14C6 JUMPI PUSH2 0x14C5 PUSH2 0x4267 JUMP JUMPDEST JUMPDEST DUP2 PUSH1 0x0 ADD PUSH1 0x0 SWAP1 SLOAD SWAP1 PUSH2 0x100 EXP SWAP1 DIV PUSH1 0xFF AND PUSH1 0x2 DUP2 GT ISZERO PUSH2 0x14EA JUMPI PUSH2 0x14E9 PUSH2 0x4267 JUMP JUMPDEST JUMPDEST SUB PUSH2 0x15A5 JUMPI PUSH2 0x1565 DUP5 DUP5 DUP1 DUP1 PUSH1 0x20 MUL PUSH1 0x20 ADD PUSH1 0x40 MLOAD SWAP1 DUP2 ADD PUSH1 0x40 MSTORE DUP1 SWAP4 SWAP3 SWAP2 SWAP1 DUP2 DUP2 MSTORE PUSH1 0x20 ADD DUP4 DUP4 PUSH1 0x20 MUL DUP1 DUP3 DUP5 CALLDATACOPY PUSH1 0x0 DUP2 DUP5 ADD MSTORE PUSH1 0x1F NOT PUSH1 0x1F DUP3 ADD AND SWAP1 POP DUP1 DUP4 ADD SWAP3 POP POP POP POP POP POP POP DUP3 PUSH1 0x7 ADD SLOAD CALLER PUSH1 0x40 MLOAD PUSH1 0x20 ADD PUSH2 0x154A SWAP2 SWAP1 PUSH2 0x5100 JUMP JUMPDEST PUSH1 0x40 MLOAD PUSH1 0x20 DUP2 DUP4 SUB SUB DUP2 MSTORE SWAP1 PUSH1 0x40 MSTORE DUP1 MLOAD SWAP1 PUSH1 0x20 ADD KECCAK256 PUSH2 0x219D JUMP JUMPDEST PUSH2 0x15A4 JUMPI PUSH1 0x40 MLOAD PUSH32 0x8C379A000000000000000000000000000000000000000000000000000000000 DUP2 MSTORE PUSH1 0x4 ADD PUSH2 0x159B SWAP1 PUSH2 0x5167 JUMP JUMPDEST PUSH1 0x40 MLOAD DUP1 SWAP2 SUB SWAP1 REVERT JUMPDEST JUMPDEST TIMESTAMP PUSH2 0xE10 DUP9 PUSH2 0x15B4 SWAP2 SWAP1 PUSH2 0x5187 JUMP JUMPDEST LT ISZERO DUP1 ISZERO PUSH2 0x15C2 JUMPI POP TIMESTAMP DUP8 GT ISZERO JUMPDEST PUSH2 0x1601 JUMPI PUSH1 0x40 MLOAD PUSH32 0x8C379A000000000000000000000000000000000000000000000000000000000 DUP2 MSTORE PUSH1 0x4 ADD PUSH2 0x15F8 SWAP1 PUSH2 0x5207 JUMP JUMPDEST PUSH1 0x40 MLOAD DUP1 SWAP2 SUB SWAP1 REVERT JUMPDEST PUSH1 0x11 PUSH1 0x0 DUP10 DUP2 MSTORE PUSH1 0x20 ADD SWAP1 DUP2 MSTORE PUSH1 0x20 ADD PUSH1 0x0 KECCAK256 PUSH1 0x0 SWAP1 SLOAD SWAP1 PUSH2 0x100 EXP SWAP1 DIV PUSH1 0xFF AND ISZERO PUSH2 0x1662 JUMPI PUSH1 0x40 MLOAD PUSH32 0x8C379A000000000000000000000000000000000000000000000000000000000 DUP2 MSTORE PUSH1 0x4 ADD PUSH2 0x1659 SWAP1 PUSH2 0x5273 JUMP JUMPDEST PUSH1 0x40 MLOAD DUP1 SWAP2 SUB SWAP1 REVERT JUMPDEST PUSH1 0x0 PUSH32 0xBCD57119BF9B3F112B39ECFB926B57BABF8EA759EF8FB8F953EC0103B2A187F3 CALLER DUP14 DUP14 DUP14 PUSH1 0x40 MLOAD PUSH2 0x1697 SWAP3 SWAP2 SWAP1 PUSH2 0x52C3 JUMP JUMPDEST PUSH1 0x40 MLOAD DUP1 SWAP2 SUB SWAP1 KECCAK256 DUP6 PUSH1 0x1 ADD SLOAD DUP8 DUP15 DUP15 PUSH1 0x40 MLOAD PUSH1 0x20 ADD PUSH2 0x16BE SWAP9 SWAP8 SWAP7 SWAP6 SWAP5 SWAP4 SWAP3 SWAP2 SWAP1 PUSH2 0x52DC JUMP JUMPDEST PUSH1 0x40 MLOAD PUSH1 0x20 DUP2 DUP4 SUB SUB DUP2 MSTORE SWAP1 PUSH1 0x40 MSTORE DUP1 MLOAD SWAP1 PUSH1 0x20 ADD KECCAK256 SWAP1 POP PUSH32 0x0 PUSH20 0xFFFFFFFFFFFFFFFFFFFFFFFFFFFFFFFFFFFFFFFF AND PUSH2 0x176C DUP9 DUP9 DUP1 DUP1 PUSH1 0x1F ADD PUSH1 0x20 DUP1 SWAP2 DIV MUL PUSH1 0x20 ADD PUSH1 0x40 MLOAD SWAP1 DUP2 ADD PUSH1 0x40 MSTORE DUP1 SWAP4 SWAP3 SWAP2 SWAP1 DUP2 DUP2 MSTORE PUSH1 0x20 ADD DUP4 DUP4 DUP1 DUP3 DUP5 CALLDATACOPY PUSH1 0x0 DUP2 DUP5 ADD MSTORE PUSH1 0x1F NOT PUSH1 0x1F DUP3 ADD AND SWAP1 POP DUP1 DUP4 ADD SWAP3 POP POP POP POP POP POP POP PUSH2 0x175E DUP5 PUSH2 0x21B4 JUMP JUMPDEST PUSH2 0x21CE SWAP1 SWAP2 SWAP1 PUSH4 0xFFFFFFFF AND JUMP JUMPDEST PUSH20 0xFFFFFFFFFFFFFFFFFFFFFFFFFFFFFFFFFFFFFFFF AND EQ PUSH2 0x17C2 JUMPI PUSH1 0x40 MLOAD PUSH32 0x8C379A000000000000000000000000000000000000000000000000000000000 DUP2 MSTORE PUSH1 0x4 ADD PUSH2 0x17B9 SWAP1 PUSH2 0x53A6 JUMP JUMPDEST PUSH1 0x40 MLOAD DUP1 SWAP2 SUB SWAP1 REVERT JUMPDEST DUP2 PUSH1 0x1 ADD SLOAD CALLVALUE EQ PUSH2 0x1808 JUMPI PUSH1 0x40 MLOAD PUSH32 0x8C379A000000000000000000000000000000000000000000000000000000000 DUP2 MSTORE PUSH1 0x4 ADD PUSH2 0x17FF SWAP1 PUSH2 0x5412 JUMP JUMPDEST PUSH1 0x40 MLOAD DUP1 SWAP2 SUB SWAP1 REVERT JUMPDEST PUSH1 0x0 DUP3 PUSH1 0x4 ADD SLOAD EQ DUP1 PUSH2 0x1822 JUMPI POP DUP2 PUSH1 0x4 ADD SLOAD DUP3 PUSH1 0x6 ADD SLOAD LT JUMPDEST PUSH2 0x1861 JUMPI PUSH1 0x40 MLOAD PUSH32 0x8C379A000000000000000000000000000000000000000000000000000000000 DUP2 MSTORE PUSH1 0x4 ADD PUSH2 0x1858 SWAP1 PUSH2 0x547E JUMP JUMPDEST PUSH1 0x40 MLOAD DUP1 SWAP2 SUB SWAP1 REVERT JUMPDEST PUSH1 0x2 DUP1 DUP2 GT ISZERO PUSH2 0x1874 JUMPI PUSH2 0x1873 PUSH2 0x4267 JUMP JUMPDEST JUMPDEST DUP3 PUSH1 0x0 ADD PUSH1 0x0 SWAP1 SLOAD SWAP1 PUSH2 0x100 EXP SWAP1 DIV PUSH1 0xFF AND PUSH1 0x2 DUP2 GT ISZERO PUSH2 0x1898 JUMPI PUSH2 0x1897 PUSH2 0x4267 JUMP JUMPDEST JUMPDEST EQ DUP1 ISZERO PUSH2 0x18A9 JUMPI POP PUSH1 0x0 DUP3 PUSH1 0x5 ADD SLOAD EQ JUMPDEST DUP1 PUSH2 0x193C JUMPI POP DUP2 PUSH1 0x5 ADD SLOAD PUSH1 0x13 PUSH1 0x0 CALLER PUSH20 0xFFFFFFFFFFFFFFFFFFFFFFFFFFFFFFFFFFFFFFFF AND PUSH20 0xFFFFFFFFFFFFFFFFFFFFFFFFFFFFFFFFFFFFFFFF AND DUP2 MSTORE PUSH1 0x20 ADD SWAP1 DUP2 MSTORE PUSH1 0x20 ADD PUSH1 0x0 KECCAK256 PUSH1 0x0 DUP5 PUSH1 0x0 ADD PUSH1 0x0 SWAP1 SLOAD SWAP1 PUSH2 0x100 EXP SWAP1 DIV PUSH1 0xFF AND PUSH1 0x2 DUP2 GT ISZERO PUSH2 0x1919 JUMPI PUSH2 0x1918 PUSH2 0x4267 JUMP JUMPDEST JUMPDEST PUSH1 0x2 DUP2 GT ISZERO PUSH2 0x192B JUMPI PUSH2 0x192A PUSH2 0x4267 JUMP JUMPDEST JUMPDEST DUP2 MSTORE PUSH1 0x20 ADD SWAP1 DUP2 MSTORE PUSH1 0x20 ADD PUSH1 0x0 KECCAK256 SLOAD LT JUMPDEST PUSH2 0x197B JUMPI PUSH1 0x40 MLOAD PUSH32 0x8C379A000000000000000000000000000000000000000000000000000000000 DUP2 MSTORE PUSH1 0x4 ADD PUSH2 0x1972 SWAP1 PUSH2 0x5510 JUMP JUMPDEST PUSH1 0x40 MLOAD DUP1 SWAP2 SUB SWAP1 REVERT JUMPDEST PUSH1 0x1 PUSH1 0x11 PUSH1 0x0 DUP12 DUP2 MSTORE PUSH1 0x20 ADD SWAP1 DUP2 MSTORE PUSH1 0x20 ADD PUSH1 0x0 KECCAK256 PUSH1 0x0 PUSH2 0x100 EXP DUP2 SLOAD DUP2 PUSH1 0xFF MUL NOT AND SWAP1 DUP4 ISZERO ISZERO MUL OR SWAP1 SSTORE POP PUSH2 0x19B0 CALLVALUE PUSH2 0x21FA JUMP JUMPDEST PUSH2 0x19BA DUP3 CALLER PUSH2 0x23EB JUMP JUMPDEST PUSH2 0x19C6 CALLER DUP14 DUP14 DUP14 PUSH2 0x24A4 JUMP JUMPDEST CALLER PUSH20 0xFFFFFFFFFFFFFFFFFFFFFFFFFFFFFFFFFFFFFFFF AND DUP13 PUSH32 0x99F38CF3FEAAD38E0A2E22EF51BDD4FABA32B432520A951248D77057596A425A DUP5 PUSH1 0x0 ADD PUSH1 0x0 SWAP1 SLOAD SWAP1 PUSH2 0x100 EXP SWAP1 DIV PUSH1 0xFF AND PUSH1 0x40 MLOAD PUSH2 0x1A1E SWAP2 SWAP1 PUSH2 0x5530 JUMP JUMPDEST PUSH1 0x40 MLOAD DUP1 SWAP2 SUB SWAP1 LOG3 POP POP POP POP POP POP POP POP POP POP POP POP JUMP JUMPDEST PUSH1 0x60 PUSH1 0x1 DUP1 SLOAD PUSH2 0x1A43 SWAP1 PUSH2 0x4D05 JUMP JUMPDEST DUP1 PUSH1 0x1F ADD PUSH1 0x20 DUP1 SWAP2 DIV MUL PUSH1 0x20 ADD PUSH1 0x40 MLOAD SWAP1 DUP2 ADD PUSH1 0x40 MSTORE DUP1 SWAP3 SWAP2 SWAP1 DUP2 DUP2 MSTORE PUSH1 0x20 ADD DUP3 DUP1 SLOAD PUSH2 0x1A6F SWAP1 PUSH2 0x4D05 JUMP JUMPDEST DUP1 ISZERO PUSH2 0x1ABC JUMPI DUP1 PUSH1 0x1F LT PUSH2 0x1A91 JUMPI PUSH2 0x100 DUP1 DUP4 SLOAD DIV MUL DUP4 MSTORE SWAP2 PUSH1 0x20 ADD SWAP2 PUSH2 0x1ABC JUMP JUMPDEST DUP3 ADD SWAP2 SWAP1 PUSH1 0x0 MSTORE PUSH1 0x20 PUSH1 0x0 KECCAK256 SWAP1 JUMPDEST DUP2 SLOAD DUP2 MSTORE SWAP1 PUSH1 0x1 ADD SWAP1 PUSH1 0x20 ADD DUP1 DUP4 GT PUSH2 0x1A9F JUMPI DUP3 SWAP1 SUB PUSH1 0x1F AND DUP3 ADD SWAP2 JUMPDEST POP POP POP POP POP SWAP1 POP SWAP1 JUMP JUMPDEST PUSH2 0x1AD8 PUSH2 0x1AD1 PUSH2 0x1E4B JUMP JUMPDEST DUP4 DUP4 PUSH2 0x250F JUMP JUMPDEST POP POP JUMP JUMPDEST PUSH2 0x1AE7 DUP5 DUP5 DUP5 PUSH2 0xABB JUMP JUMPDEST PUSH2 0x1AFB PUSH2 0x1AF2 PUSH2 0x1E4B JUMP JUMPDEST DUP6 DUP6 DUP6 DUP6 PUSH2 0x267E JUMP JUMPDEST POP POP POP POP JUMP JUMPDEST PUSH1 0x60 PUSH2 0x1B0C DUP3 PUSH2 0x282F JUMP JUMPDEST SWAP1 POP SWAP2 SWAP1 POP JUMP JUMPDEST PUSH1 0x15 PUSH1 0x0 SWAP1 SLOAD SWAP1 PUSH2 0x100 EXP SWAP1 DIV PUSH12 0xFFFFFFFFFFFFFFFFFFFFFFFF AND DUP2 JUMP JUMPDEST PUSH1 0x0 PUSH1 0x12 DUP1 SLOAD SWAP1 POP SWAP1 POP SWAP1 JUMP JUMPDEST PUSH1 0x0 PUSH1 0x5 PUSH1 0x0 DUP5 PUSH20 0xFFFFFFFFFFFFFFFFFFFFFFFFFFFFFFFFFFFFFFFF AND PUSH20 0xFFFFFFFFFFFFFFFFFFFFFFFFFFFFFFFFFFFFFFFF AND DUP2 MSTORE PUSH1 0x20 ADD SWAP1 DUP2 MSTORE PUSH1 0x20 ADD PUSH1 0x0 KECCAK256 PUSH1 0x0 DUP4 PUSH20 0xFFFFFFFFFFFFFFFFFFFFFFFFFFFFFFFFFFFFFFFF AND PUSH20 0xFFFFFFFFFFFFFFFFFFFFFFFFFFFFFFFFFFFFFFFF AND DUP2 MSTORE PUSH1 0x20 ADD SWAP1 DUP2 MSTORE PUSH1 0x20 ADD PUSH1 0x0 KECCAK256 PUSH1 0x0 SWAP1 SLOAD SWAP1 PUSH2 0x100 EXP SWAP1 DIV PUSH1 0xFF AND SWAP1 POP SWAP3 SWAP2 POP POP JUMP JUMPDEST PUSH1 0x15 PUSH1 0xC SWAP1 SLOAD SWAP1 PUSH2 0x100 EXP SWAP1 DIV PUSH20 0xFFFFFFFFFFFFFFFFFFFFFFFFFFFFFFFFFFFFFFFF AND DUP2 JUMP JUMPDEST PUSH1 0x0 PUSH2 0x1C02 PUSH2 0x2942 JUMP JUMPDEST SWAP1 POP SWAP1 JUMP JUMPDEST PUSH2 0x1C0F PUSH2 0x1FDA JUMP JUMPDEST PUSH1 0x0 PUSH20 0xFFFFFFFFFFFFFFFFFFFFFFFFFFFFFFFFFFFFFFFF AND DUP2 PUSH20 0xFFFFFFFFFFFFFFFFFFFFFFFFFFFFFFFFFFFFFFFF AND SUB PUSH2 0x1C81 JUMPI PUSH1 0x0 PUSH1 0x40 MLOAD PUSH32 0x1E4FBDF700000000000000000000000000000000000000000000000000000000 DUP2 MSTORE PUSH1 0x4 ADD PUSH2 0x1C78 SWAP2 SWAP1 PUSH2 0x41B6 JUMP JUMPDEST PUSH1 0x40 MLOAD DUP1 SWAP2 SUB SWAP1 REVERT JUMPDEST PUSH2 0x1C8A DUP2 PUSH2 0x2061 JUMP JUMPDEST POP JUMP JUMPDEST PUSH1 0x0 PUSH1 0x13 PUSH1 0x0 DUP5 PUSH20 0xFFFFFFFFFFFFFFFFFFFFFFFFFFFFFFFFFFFFFFFF AND PUSH20 0xFFFFFFFFFFFFFFFFFFFFFFFFFFFFFFFFFFFFFFFF AND DUP2 MSTORE PUSH1 0x20 ADD SWAP1 DUP2 MSTORE PUSH1 0x20 ADD PUSH1 0x0 KECCAK256 PUSH1 0x0 DUP4 PUSH1 0x2 DUP2 GT ISZERO PUSH2 0x1CE3 JUMPI PUSH2 0x1CE2 PUSH2 0x4267 JUMP JUMPDEST JUMPDEST PUSH1 0x2 DUP2 GT ISZERO PUSH2 0x1CF5 JUMPI PUSH2 0x1CF4 PUSH2 0x4267 JUMP JUMPDEST JUMPDEST DUP2 MSTORE PUSH1 0x20 ADD SWAP1 DUP2 MSTORE PUSH1 0x20 ADD PUSH1 0x0 KECCAK256 SLOAD SWAP1 POP SWAP3 SWAP2 POP POP JUMP JUMPDEST PUSH1 0x0 PUSH32 0x2A55205A00000000000000000000000000000000000000000000000000000000 PUSH28 0xFFFFFFFFFFFFFFFFFFFFFFFFFFFFFFFFFFFFFFFFFFFFFFFFFFFFFFFF NOT AND DUP3 PUSH28 0xFFFFFFFFFFFFFFFFFFFFFFFFFFFFFFFFFFFFFFFFFFFFFFFFFFFFFFFF NOT AND EQ DUP1 PUSH2 0x1D7F JUMPI POP PUSH2 0x1D7E DUP3 PUSH2 0x29F9 JUMP JUMPDEST JUMPDEST SWAP1 POP SWAP2 SWAP1 POP JUMP JUMPDEST PUSH1 0x0 DUP1 PUSH2 0x1D92 DUP4 PUSH2 0x2A5A JUMP JUMPDEST SWAP1 POP PUSH1 0x0 PUSH20 0xFFFFFFFFFFFFFFFFFFFFFFFFFFFFFFFFFFFFFFFF AND DUP2 PUSH20 0xFFFFFFFFFFFFFFFFFFFFFFFFFFFFFFFFFFFFFFFF AND SUB PUSH2 0x1E05 JUMPI DUP3 PUSH1 0x40 MLOAD PUSH32 0x7E27328900000000000000000000000000000000000000000000000000000000 DUP2 MSTORE PUSH1 0x4 ADD PUSH2 0x1DFC SWAP2 SWAP1 PUSH2 0x424C JUMP JUMPDEST PUSH1 0x40 MLOAD DUP1 SWAP2 SUB SWAP1 REVERT JUMPDEST DUP1 SWAP2 POP POP SWAP2 SWAP1 POP JUMP JUMPDEST PUSH1 0x0 PUSH1 0x4 PUSH1 0x0 DUP4 DUP2 MSTORE PUSH1 0x20 ADD SWAP1 DUP2 MSTORE PUSH1 0x20 ADD PUSH1 0x0 KECCAK256 PUSH1 0x0 SWAP1 SLOAD SWAP1 PUSH2 0x100 EXP SWAP1 DIV PUSH20 0xFFFFFFFFFFFFFFFFFFFFFFFFFFFFFFFFFFFFFFFF AND SWAP1 POP SWAP2 SWAP1 POP JUMP JUMPDEST PUSH1 0x0 CALLER SWAP1 POP SWAP1 JUMP JUMPDEST PUSH2 0x1E60 DUP4 DUP4 DUP4 PUSH1 0x1 PUSH2 0x2A97 JUMP JUMPDEST POP POP POP JUMP JUMPDEST PUSH1 0x0 DUP1 PUSH1 0x0 TIMESTAMP SWAP1 POP PUSH1 0x0 JUMPDEST PUSH1 0x12 DUP1 SLOAD SWAP1 POP DUP2 LT ISZERO PUSH2 0x1F7A JUMPI PUSH1 0x0 PUSH1 0x2 DUP2 GT ISZERO PUSH2 0x1E91 JUMPI PUSH2 0x1E90 PUSH2 0x4267 JUMP JUMPDEST JUMPDEST PUSH1 0x12 DUP3 DUP2 SLOAD DUP2 LT PUSH2 0x1EA5 JUMPI PUSH2 0x1EA4 PUSH2 0x4D36 JUMP JUMPDEST JUMPDEST SWAP1 PUSH1 0x0 MSTORE PUSH1 0x20 PUSH1 0x0 KECCAK256 SWAP1 PUSH1 0x8 MUL ADD PUSH1 0x0 ADD PUSH1 0x0 SWAP1 SLOAD SWAP1 PUSH2 0x100 EXP SWAP1 DIV PUSH1 0xFF AND PUSH1 0x2 DUP2 GT ISZERO PUSH2 0x1ED6 JUMPI PUSH2 0x1ED5 PUSH2 0x4267 JUMP JUMPDEST JUMPDEST EQ ISZERO DUP1 ISZERO PUSH2 0x1F09 JUMPI POP PUSH1 0x12 DUP2 DUP2 SLOAD DUP2 LT PUSH2 0x1EF3 JUMPI PUSH2 0x1EF2 PUSH2 0x4D36 JUMP JUMPDEST JUMPDEST SWAP1 PUSH1 0x0 MSTORE PUSH1 0x20 PUSH1 0x0 KECCAK256 SWAP1 PUSH1 0x8 MUL ADD PUSH1 0x2 ADD SLOAD DUP3 LT ISZERO JUMPDEST DUP1 ISZERO PUSH2 0x1F3A JUMPI POP PUSH1 0x12 DUP2 DUP2 SLOAD DUP2 LT PUSH2 0x1F24 JUMPI PUSH2 0x1F23 PUSH2 0x4D36 JUMP JUMPDEST JUMPDEST SWAP1 PUSH1 0x0 MSTORE PUSH1 0x20 PUSH1 0x0 KECCAK256 SWAP1 PUSH1 0x8 MUL ADD PUSH1 0x3 ADD SLOAD DUP3 GT ISZERO JUMPDEST ISZERO PUSH2 0x1F6D JUMPI DUP1 PUSH1 0x12 DUP3 DUP2 SLOAD DUP2 LT PUSH2 0x1F54 JUMPI PUSH2 0x1F53 PUSH2 0x4D36 JUMP JUMPDEST JUMPDEST SWAP1 PUSH1 0x0 MSTORE PUSH1 0x20 PUSH1 0x0 KECCAK256 SWAP1 PUSH1 0x8 MUL ADD SWAP4 POP SWAP4 POP POP POP PUSH2 0x1FB6 JUMP JUMPDEST DUP1 DUP1 PUSH1 0x1 ADD SWAP2 POP POP PUSH2 0x1E70 JUMP JUMPDEST POP PUSH1 0x40 MLOAD PUSH32 0x8C379A000000000000000000000000000000000000000000000000000000000 DUP2 MSTORE PUSH1 0x4 ADD PUSH2 0x1FAD SWAP1 PUSH2 0x5597 JUMP JUMPDEST PUSH1 0x40 MLOAD DUP1 SWAP2 SUB SWAP1 REVERT JUMPDEST SWAP1 SWAP2 JUMP JUMPDEST PUSH1 0x0 PUSH2 0x1FC7 DUP5 DUP5 DUP5 PUSH2 0x2C5C JUMP JUMPDEST SWAP1 POP SWAP4 SWAP3 POP POP POP JUMP JUMPDEST PUSH1 0x0 PUSH2 0x2710 SWAP1 POP SWAP1 JUMP JUMPDEST PUSH2 0x1FE2 PUSH2 0x1E4B JUMP JUMPDEST PUSH20 0xFFFFFFFFFFFFFFFFFFFFFFFFFFFFFFFFFFFFFFFF AND PUSH2 0x2000 PUSH2 0x1479 JUMP JUMPDEST PUSH20 0xFFFFFFFFFFFFFFFFFFFFFFFFFFFFFFFFFFFFFFFF AND EQ PUSH2 0x205F JUMPI PUSH2 0x2023 PUSH2 0x1E4B JUMP JUMPDEST PUSH1 0x40 MLOAD PUSH32 0x118CDAA700000000000000000000000000000000000000000000000000000000 DUP2 MSTORE PUSH1 0x4 ADD PUSH2 0x2056 SWAP2 SWAP1 PUSH2 0x41B6 JUMP JUMPDEST PUSH1 0x40 MLOAD DUP1 SWAP2 SUB SWAP1 REVERT JUMPDEST JUMP JUMPDEST PUSH1 0x0 PUSH1 0xD PUSH1 0x0 SWAP1 SLOAD SWAP1 PUSH2 0x100 EXP SWAP1 DIV PUSH20 0xFFFFFFFFFFFFFFFFFFFFFFFFFFFFFFFFFFFFFFFF AND SWAP1 POP DUP2 PUSH1 0xD PUSH1 0x0 PUSH2 0x100 EXP DUP2 SLOAD DUP2 PUSH20 0xFFFFFFFFFFFFFFFFFFFFFFFFFFFFFFFFFFFFFFFF MUL NOT AND SWAP1 DUP4 PUSH20 0xFFFFFFFFFFFFFFFFFFFFFFFFFFFFFFFFFFFFFFFF AND MUL OR SWAP1 SSTORE POP DUP2 PUSH20 0xFFFFFFFFFFFFFFFFFFFFFFFFFFFFFFFFFFFFFFFF AND DUP2 PUSH20 0xFFFFFFFFFFFFFFFFFFFFFFFFFFFFFFFFFFFFFFFF AND PUSH32 0x8BE0079C531659141344CD1FD0A4F28419497F9722A3DAAFE3B4186F6B6457E0 PUSH1 0x40 MLOAD PUSH1 0x40 MLOAD DUP1 SWAP2 SUB SWAP1 LOG3 POP POP JUMP JUMPDEST PUSH1 0x60 PUSH2 0x215D PUSH1 0xE PUSH32 0x0 PUSH2 0x2D79 SWAP1 SWAP2 SWAP1 PUSH4 0xFFFFFFFF AND JUMP JUMPDEST SWAP1 POP SWAP1 JUMP JUMPDEST PUSH1 0x60 PUSH2 0x2198 PUSH1 0xF PUSH32 0x0 PUSH2 0x2D79 SWAP1 SWAP2 SWAP1 PUSH4 0xFFFFFFFF AND JUMP JUMPDEST SWAP1 POP SWAP1 JUMP JUMPDEST PUSH1 0x0 DUP3 PUSH2 0x21AA DUP6 DUP5 PUSH2 0x2E29 JUMP JUMPDEST EQ SWAP1 POP SWAP4 SWAP3 POP POP POP JUMP JUMPDEST PUSH1 0x0 PUSH2 0x21C7 PUSH2 0x21C1 PUSH2 0x2942 JUMP JUMPDEST DUP4 PUSH2 0x2E79 JUMP JUMPDEST SWAP1 POP SWAP2 SWAP1 POP JUMP JUMPDEST PUSH1 0x0 DUP1 PUSH1 0x0 DUP1 PUSH2 0x21DE DUP7 DUP7 PUSH2 0x2EBA JUMP JUMPDEST SWAP3 POP SWAP3 POP SWAP3 POP PUSH2 0x21EE DUP3 DUP3 PUSH2 0x2F16 JUMP JUMPDEST DUP3 SWAP4 POP POP POP POP SWAP3 SWAP2 POP POP JUMP JUMPDEST PUSH1 0x0 PUSH2 0x2710 PUSH1 0x15 PUSH1 0x0 SWAP1 SLOAD SWAP1 PUSH2 0x100 EXP SWAP1 DIV PUSH12 0xFFFFFFFFFFFFFFFFFFFFFFFF AND PUSH12 0xFFFFFFFFFFFFFFFFFFFFFFFF AND DUP4 PUSH2 0x2233 SWAP2 SWAP1 PUSH2 0x4DCB JUMP JUMPDEST PUSH2 0x223D SWAP2 SWAP1 PUSH2 0x4E3C JUMP JUMPDEST SWAP1 POP PUSH1 0x0 DUP2 GT ISZERO PUSH2 0x2318 JUMPI PUSH1 0x0 PUSH1 0x15 PUSH1 0xC SWAP1 SLOAD SWAP1 PUSH2 0x100 EXP SWAP1 DIV PUSH20 0xFFFFFFFFFFFFFFFFFFFFFFFFFFFFFFFFFFFFFFFF AND PUSH20 0xFFFFFFFFFFFFFFFFFFFFFFFFFFFFFFFFFFFFFFFF AND DUP3 PUSH1 0x40 MLOAD PUSH2 0x2290 SWAP1 PUSH2 0x55DD JUMP JUMPDEST PUSH1 0x0 PUSH1 0x40 MLOAD DUP1 DUP4 SUB DUP2 DUP6 DUP8 GAS CALL SWAP3 POP POP POP RETURNDATASIZE DUP1 PUSH1 0x0 DUP2 EQ PUSH2 0x22CD JUMPI PUSH1 0x40 MLOAD SWAP2 POP PUSH1 0x1F NOT PUSH1 0x3F RETURNDATASIZE ADD AND DUP3 ADD PUSH1 0x40 MSTORE RETURNDATASIZE DUP3 MSTORE RETURNDATASIZE PUSH1 0x0 PUSH1 0x20 DUP5 ADD RETURNDATACOPY PUSH2 0x22D2 JUMP JUMPDEST PUSH1 0x60 SWAP2 POP JUMPDEST POP POP SWAP1 POP DUP1 PUSH2 0x2316 JUMPI PUSH1 0x40 MLOAD PUSH32 0x8C379A000000000000000000000000000000000000000000000000000000000 DUP2 MSTORE PUSH1 0x4 ADD PUSH2 0x230D SWAP1 PUSH2 0x563E JUMP JUMPDEST PUSH1 0x40 MLOAD DUP1 SWAP2 SUB SWAP1 REVERT JUMPDEST POP JUMPDEST PUSH1 0x0 DUP2 DUP4 PUSH2 0x2326 SWAP2 SWAP1 PUSH2 0x565E JUMP JUMPDEST SWAP1 POP PUSH1 0x0 DUP2 GT ISZERO PUSH2 0x23E6 JUMPI PUSH1 0x0 PUSH2 0x233B PUSH2 0x1479 JUMP JUMPDEST PUSH20 0xFFFFFFFFFFFFFFFFFFFFFFFFFFFFFFFFFFFFFFFF AND DUP3 PUSH1 0x40 MLOAD PUSH2 0x235E SWAP1 PUSH2 0x55DD JUMP JUMPDEST PUSH1 0x0 PUSH1 0x40 MLOAD DUP1 DUP4 SUB DUP2 DUP6 DUP8 GAS CALL SWAP3 POP POP POP RETURNDATASIZE DUP1 PUSH1 0x0 DUP2 EQ PUSH2 0x239B JUMPI PUSH1 0x40 MLOAD SWAP2 POP PUSH1 0x1F NOT PUSH1 0x3F RETURNDATASIZE ADD AND DUP3 ADD PUSH1 0x40 MSTORE RETURNDATASIZE DUP3 MSTORE RETURNDATASIZE PUSH1 0x0 PUSH1 0x20 DUP5 ADD RETURNDATACOPY PUSH2 0x23A0 JUMP JUMPDEST PUSH1 0x60 SWAP2 POP JUMPDEST POP POP SWAP1 POP DUP1 PUSH2 0x23E4 JUMPI PUSH1 0x40 MLOAD PUSH32 0x8C379A000000000000000000000000000000000000000000000000000000000 DUP2 MSTORE PUSH1 0x4 ADD PUSH2 0x23DB SWAP1 PUSH2 0x56DE JUMP JUMPDEST PUSH1 0x40 MLOAD DUP1 SWAP2 SUB SWAP1 REVERT JUMPDEST POP JUMPDEST POP POP POP JUMP JUMPDEST DUP2 PUSH1 0x6 ADD PUSH1 0x0 DUP2 SLOAD DUP1 SWAP3 SWAP2 SWAP1 PUSH2 0x2400 SWAP1 PUSH2 0x56FE JUMP JUMPDEST SWAP2 SWAP1 POP SSTORE POP PUSH1 0x13 PUSH1 0x0 DUP3 PUSH20 0xFFFFFFFFFFFFFFFFFFFFFFFFFFFFFFFFFFFFFFFF AND PUSH20 0xFFFFFFFFFFFFFFFFFFFFFFFFFFFFFFFFFFFFFFFF AND DUP2 MSTORE PUSH1 0x20 ADD SWAP1 DUP2 MSTORE PUSH1 0x20 ADD PUSH1 0x0 KECCAK256 PUSH1 0x0 DUP4 PUSH1 0x0 ADD PUSH1 0x0 SWAP1 SLOAD SWAP1 PUSH2 0x100 EXP SWAP1 DIV PUSH1 0xFF AND PUSH1 0x2 DUP2 GT ISZERO PUSH2 0x246A JUMPI PUSH2 0x2469 PUSH2 0x4267 JUMP JUMPDEST JUMPDEST PUSH1 0x2 DUP2 GT ISZERO PUSH2 0x247C JUMPI PUSH2 0x247B PUSH2 0x4267 JUMP JUMPDEST JUMPDEST DUP2 MSTORE PUSH1 0x20 ADD SWAP1 DUP2 MSTORE PUSH1 0x20 ADD PUSH1 0x0 KECCAK256 PUSH1 0x0 DUP2 SLOAD DUP1 SWAP3 SWAP2 SWAP1 PUSH2 0x249B SWAP1 PUSH2 0x56FE JUMP JUMPDEST SWAP2 SWAP1 POP SSTORE POP POP POP JUMP JUMPDEST PUSH2 0x24AE DUP5 DUP5 PUSH2 0x307A JUMP JUMPDEST PUSH1 0x0 DUP3 DUP3 SWAP1 POP GT ISZERO PUSH2 0x2509 JUMPI PUSH2 0x2508 DUP4 DUP4 DUP4 DUP1 DUP1 PUSH1 0x1F ADD PUSH1 0x20 DUP1 SWAP2 DIV MUL PUSH1 0x20 ADD PUSH1 0x40 MLOAD SWAP1 DUP2 ADD PUSH1 0x40 MSTORE DUP1 SWAP4 SWAP3 SWAP2 SWAP1 DUP2 DUP2 MSTORE PUSH1 0x20 ADD DUP4 DUP4 DUP1 DUP3 DUP5 CALLDATACOPY PUSH1 0x0 DUP2 DUP5 ADD MSTORE PUSH1 0x1F NOT PUSH1 0x1F DUP3 ADD AND SWAP1 POP DUP1 DUP4 ADD SWAP3 POP POP POP POP POP POP POP PUSH2 0x3098 JUMP JUMPDEST JUMPDEST POP POP POP POP JUMP JUMPDEST PUSH1 0x0 PUSH20 0xFFFFFFFFFFFFFFFFFFFFFFFFFFFFFFFFFFFFFFFF AND DUP3 PUSH20 0xFFFFFFFFFFFFFFFFFFFFFFFFFFFFFFFFFFFFFFFF AND SUB PUSH2 0x2580 JUMPI DUP2 PUSH1 0x40 MLOAD PUSH32 0x5B08BA1800000000000000000000000000000000000000000000000000000000 DUP2 MSTORE PUSH1 0x4 ADD PUSH2 0x2577 SWAP2 SWAP1 PUSH2 0x41B6 JUMP JUMPDEST PUSH1 0x40 MLOAD DUP1 SWAP2 SUB SWAP1 REVERT JUMPDEST DUP1 PUSH1 0x5 PUSH1 0x0 DUP6 PUSH20 0xFFFFFFFFFFFFFFFFFFFFFFFFFFFFFFFFFFFFFFFF AND PUSH20 0xFFFFFFFFFFFFFFFFFFFFFFFFFFFFFFFFFFFFFFFF AND DUP2 MSTORE PUSH1 0x20 ADD SWAP1 DUP2 MSTORE PUSH1 0x20 ADD PUSH1 0x0 KECCAK256 PUSH1 0x0 DUP5 PUSH20 0xFFFFFFFFFFFFFFFFFFFFFFFFFFFFFFFFFFFFFFFF AND PUSH20 0xFFFFFFFFFFFFFFFFFFFFFFFFFFFFFFFFFFFFFFFF AND DUP2 MSTORE PUSH1 0x20 ADD SWAP1 DUP2 MSTORE PUSH1 0x20 ADD PUSH1 0x0 KECCAK256 PUSH1 0x0 PUSH2 0x100 EXP DUP2 SLOAD DUP2 PUSH1 0xFF MUL NOT AND SWAP1 DUP4 ISZERO ISZERO MUL OR SWAP1 SSTORE POP DUP2 PUSH20 0xFFFFFFFFFFFFFFFFFFFFFFFFFFFFFFFFFFFFFFFF AND DUP4 PUSH20 0xFFFFFFFFFFFFFFFFFFFFFFFFFFFFFFFFFFFFFFFF AND PUSH32 0x17307EAB39AB6107E8899845AD3D59BD9653F200F220920489CA2B5937696C31 DUP4 PUSH1 0x40 MLOAD PUSH2 0x2671 SWAP2 SWAP1 PUSH2 0x4045 JUMP JUMPDEST PUSH1 0x40 MLOAD DUP1 SWAP2 SUB SWAP1 LOG3 POP POP POP JUMP JUMPDEST PUSH1 0x0 DUP4 PUSH20 0xFFFFFFFFFFFFFFFFFFFFFFFFFFFFFFFFFFFFFFFF AND EXTCODESIZE GT ISZERO PUSH2 0x2828 JUMPI DUP3 PUSH20 0xFFFFFFFFFFFFFFFFFFFFFFFFFFFFFFFFFFFFFFFF AND PUSH4 0x150B7A02 DUP7 DUP7 DUP6 DUP6 PUSH1 0x40 MLOAD DUP6 PUSH4 0xFFFFFFFF AND PUSH1 0xE0 SHL DUP2 MSTORE PUSH1 0x4 ADD PUSH2 0x26DD SWAP5 SWAP4 SWAP3 SWAP2 SWAP1 PUSH2 0x579B JUMP JUMPDEST PUSH1 0x20 PUSH1 0x40 MLOAD DUP1 DUP4 SUB DUP2 PUSH1 0x0 DUP8 GAS CALL SWAP3 POP POP POP DUP1 ISZERO PUSH2 0x2719 JUMPI POP PUSH1 0x40 MLOAD RETURNDATASIZE PUSH1 0x1F NOT PUSH1 0x1F DUP3 ADD AND DUP3 ADD DUP1 PUSH1 0x40 MSTORE POP DUP2 ADD SWAP1 PUSH2 0x2716 SWAP2 SWAP1 PUSH2 0x57FC JUMP JUMPDEST PUSH1 0x1 JUMPDEST PUSH2 0x279D JUMPI RETURNDATASIZE DUP1 PUSH1 0x0 DUP2 EQ PUSH2 0x2749 JUMPI PUSH1 0x40 MLOAD SWAP2 POP PUSH1 0x1F NOT PUSH1 0x3F RETURNDATASIZE ADD AND DUP3 ADD PUSH1 0x40 MSTORE RETURNDATASIZE DUP3 MSTORE RETURNDATASIZE PUSH1 0x0 PUSH1 0x20 DUP5 ADD RETURNDATACOPY PUSH2 0x274E JUMP JUMPDEST PUSH1 0x60 SWAP2 POP JUMPDEST POP PUSH1 0x0 DUP2 MLOAD SUB PUSH2 0x2795 JUMPI DUP4 PUSH1 0x40 MLOAD PUSH32 0x64A0AE9200000000000000000000000000000000000000000000000000000000 DUP2 MSTORE PUSH1 0x4 ADD PUSH2 0x278C SWAP2 SWAP1 PUSH2 0x41B6 JUMP JUMPDEST PUSH1 0x40 MLOAD DUP1 SWAP2 SUB SWAP1 REVERT JUMPDEST DUP1 MLOAD DUP2 PUSH1 0x20 ADD REVERT JUMPDEST PUSH4 0x150B7A02 PUSH1 0xE0 SHL PUSH28 0xFFFFFFFFFFFFFFFFFFFFFFFFFFFFFFFFFFFFFFFFFFFFFFFFFFFFFFFF NOT AND DUP2 PUSH28 0xFFFFFFFFFFFFFFFFFFFFFFFFFFFFFFFFFFFFFFFFFFFFFFFFFFFFFFFF NOT AND EQ PUSH2 0x2826 JUMPI DUP4 PUSH1 0x40 MLOAD PUSH32 0x64A0AE9200000000000000000000000000000000000000000000000000000000 DUP2 MSTORE PUSH1 0x4 ADD PUSH2 0x281D SWAP2 SWAP1 PUSH2 0x41B6 JUMP JUMPDEST PUSH1 0x40 MLOAD DUP1 SWAP2 SUB SWAP1 REVERT JUMPDEST POP JUMPDEST POP POP POP POP POP JUMP JUMPDEST PUSH1 0x60 PUSH2 0x283A DUP3 PUSH2 0x1D86 JUMP JUMPDEST POP PUSH1 0x0 PUSH1 0xA PUSH1 0x0 DUP5 DUP2 MSTORE PUSH1 0x20 ADD SWAP1 DUP2 MSTORE PUSH1 0x20 ADD PUSH1 0x0 KECCAK256 DUP1 SLOAD PUSH2 0x285B SWAP1 PUSH2 0x4D05 JUMP JUMPDEST DUP1 PUSH1 0x1F ADD PUSH1 0x20 DUP1 SWAP2 DIV MUL PUSH1 0x20 ADD PUSH1 0x40 MLOAD SWAP1 DUP2 ADD PUSH1 0x40 MSTORE DUP1 SWAP3 SWAP2 SWAP1 DUP2 DUP2 MSTORE PUSH1 0x20 ADD DUP3 DUP1 SLOAD PUSH2 0x2887 SWAP1 PUSH2 0x4D05 JUMP JUMPDEST DUP1 ISZERO PUSH2 0x28D4 JUMPI DUP1 PUSH1 0x1F LT PUSH2 0x28A9 JUMPI PUSH2 0x100 DUP1 DUP4 SLOAD DIV MUL DUP4 MSTORE SWAP2 PUSH1 0x20 ADD SWAP2 PUSH2 0x28D4 JUMP JUMPDEST DUP3 ADD SWAP2 SWAP1 PUSH1 0x0 MSTORE PUSH1 0x20 PUSH1 0x0 KECCAK256 SWAP1 JUMPDEST DUP2 SLOAD DUP2 MSTORE SWAP1 PUSH1 0x1 ADD SWAP1 PUSH1 0x20 ADD DUP1 DUP4 GT PUSH2 0x28B7 JUMPI DUP3 SWAP1 SUB PUSH1 0x1F AND DUP3 ADD SWAP2 JUMPDEST POP POP POP POP POP SWAP1 POP PUSH1 0x0 PUSH2 0x28E5 PUSH2 0x30F4 JUMP JUMPDEST SWAP1 POP PUSH1 0x0 DUP2 MLOAD SUB PUSH2 0x28FA JUMPI DUP2 SWAP3 POP POP POP PUSH2 0x293D JUMP JUMPDEST PUSH1 0x0 DUP3 MLOAD GT ISZERO PUSH2 0x292F JUMPI DUP1 DUP3 PUSH1 0x40 MLOAD PUSH1 0x20 ADD PUSH2 0x2917 SWAP3 SWAP2 SWAP1 PUSH2 0x5865 JUMP JUMPDEST PUSH1 0x40 MLOAD PUSH1 0x20 DUP2 DUP4 SUB SUB DUP2 MSTORE SWAP1 PUSH1 0x40 MSTORE SWAP3 POP POP POP PUSH2 0x293D JUMP JUMPDEST PUSH2 0x2938 DUP5 PUSH2 0x310B JUMP JUMPDEST SWAP3 POP POP POP JUMPDEST SWAP2 SWAP1 POP JUMP JUMPDEST PUSH1 0x0 PUSH32 0x0 PUSH20 0xFFFFFFFFFFFFFFFFFFFFFFFFFFFFFFFFFFFFFFFF AND ADDRESS PUSH20 0xFFFFFFFFFFFFFFFFFFFFFFFFFFFFFFFFFFFFFFFF AND EQ DUP1 ISZERO PUSH2 0x29BE JUMPI POP PUSH32 0x0 CHAINID EQ JUMPDEST ISZERO PUSH2 0x29EB JUMPI PUSH32 0x0 SWAP1 POP PUSH2 0x29F6 JUMP JUMPDEST PUSH2 0x29F3 PUSH2 0x3174 JUMP JUMPDEST SWAP1 POP JUMPDEST SWAP1 JUMP JUMPDEST PUSH1 0x0 PUSH4 0x49064906 PUSH1 0xE0 SHL PUSH28 0xFFFFFFFFFFFFFFFFFFFFFFFFFFFFFFFFFFFFFFFFFFFFFFFFFFFFFFFF NOT AND DUP3 PUSH28 0xFFFFFFFFFFFFFFFFFFFFFFFFFFFFFFFFFFFFFFFFFFFFFFFFFFFFFFFF NOT AND EQ DUP1 PUSH2 0x2A53 JUMPI POP PUSH2 0x2A52 DUP3 PUSH2 0x320A JUMP JUMPDEST JUMPDEST SWAP1 POP SWAP2 SWAP1 POP JUMP JUMPDEST PUSH1 0x0 PUSH1 0x2 PUSH1 0x0 DUP4 DUP2 MSTORE PUSH1 0x20 ADD SWAP1 DUP2 MSTORE PUSH1 0x20 ADD PUSH1 0x0 KECCAK256 PUSH1 0x0 SWAP1 SLOAD SWAP1 PUSH2 0x100 EXP SWAP1 DIV PUSH20 0xFFFFFFFFFFFFFFFFFFFFFFFFFFFFFFFFFFFFFFFF AND SWAP1 POP SWAP2 SWAP1 POP JUMP JUMPDEST DUP1 DUP1 PUSH2 0x2AD0 JUMPI POP PUSH1 0x0 PUSH20 0xFFFFFFFFFFFFFFFFFFFFFFFFFFFFFFFFFFFFFFFF AND DUP3 PUSH20 0xFFFFFFFFFFFFFFFFFFFFFFFFFFFFFFFFFFFFFFFF AND EQ ISZERO JUMPDEST ISZERO PUSH2 0x2C04 JUMPI PUSH1 0x0 PUSH2 0x2AE0 DUP5 PUSH2 0x1D86 JUMP JUMPDEST SWAP1 POP PUSH1 0x0 PUSH20 0xFFFFFFFFFFFFFFFFFFFFFFFFFFFFFFFFFFFFFFFF AND DUP4 PUSH20 0xFFFFFFFFFFFFFFFFFFFFFFFFFFFFFFFFFFFFFFFF AND EQ ISZERO DUP1 ISZERO PUSH2 0x2B4B JUMPI POP DUP3 PUSH20 0xFFFFFFFFFFFFFFFFFFFFFFFFFFFFFFFFFFFFFFFF AND DUP2 PUSH20 0xFFFFFFFFFFFFFFFFFFFFFFFFFFFFFFFFFFFFFFFF AND EQ ISZERO JUMPDEST DUP1 ISZERO PUSH2 0x2B5E JUMPI POP PUSH2 0x2B5C DUP2 DUP5 PUSH2 0x1B3E JUMP JUMPDEST ISZERO JUMPDEST ISZERO PUSH2 0x2BA0 JUMPI DUP3 PUSH1 0x40 MLOAD PUSH32 0xA9FBF51F00000000000000000000000000000000000000000000000000000000 DUP2 MSTORE PUSH1 0x4 ADD PUSH2 0x2B97 SWAP2 SWAP1 PUSH2 0x41B6 JUMP JUMPDEST PUSH1 0x40 MLOAD DUP1 SWAP2 SUB SWAP1 REVERT JUMPDEST DUP2 ISZERO PUSH2 0x2C02 JUMPI DUP4 DUP6 PUSH20 0xFFFFFFFFFFFFFFFFFFFFFFFFFFFFFFFFFFFFFFFF AND DUP3 PUSH20 0xFFFFFFFFFFFFFFFFFFFFFFFFFFFFFFFFFFFFFFFF AND PUSH32 0x8C5BE1E5EBEC7D5BD14F71427D1E84F3DD0314C0F7B2291E5B200AC8C7C3B925 PUSH1 0x40 MLOAD PUSH1 0x40 MLOAD DUP1 SWAP2 SUB SWAP1 LOG4 JUMPDEST POP JUMPDEST DUP4 PUSH1 0x4 PUSH1 0x0 DUP6 DUP2 MSTORE PUSH1 0x20 ADD SWAP1 DUP2 MSTORE PUSH1 0x20 ADD PUSH1 0x0 KECCAK256 PUSH1 0x0 PUSH2 0x100 EXP DUP2 SLOAD DUP2 PUSH20 0xFFFFFFFFFFFFFFFFFFFFFFFFFFFFFFFFFFFFFFFF MUL NOT AND SWAP1 DUP4 PUSH20 0xFFFFFFFFFFFFFFFFFFFFFFFFFFFFFFFFFFFFFFFF AND MUL OR SWAP1 SSTORE POP POP POP POP POP JUMP JUMPDEST PUSH1 0x0 DUP1 PUSH2 0x2C6A DUP6 DUP6 DUP6 PUSH2 0x3284 JUMP JUMPDEST SWAP1 POP PUSH1 0x0 PUSH20 0xFFFFFFFFFFFFFFFFFFFFFFFFFFFFFFFFFFFFFFFF AND DUP2 PUSH20 0xFFFFFFFFFFFFFFFFFFFFFFFFFFFFFFFFFFFFFFFF AND SUB PUSH2 0x2CAE JUMPI PUSH2 0x2CA9 DUP5 PUSH2 0x349E JUMP JUMPDEST PUSH2 0x2CED JUMP JUMPDEST DUP5 PUSH20 0xFFFFFFFFFFFFFFFFFFFFFFFFFFFFFFFFFFFFFFFF AND DUP2 PUSH20 0xFFFFFFFFFFFFFFFFFFFFFFFFFFFFFFFFFFFFFFFF AND EQ PUSH2 0x2CEC JUMPI PUSH2 0x2CEB DUP2 DUP6 PUSH2 0x34E7 JUMP JUMPDEST JUMPDEST JUMPDEST PUSH1 0x0 PUSH20 0xFFFFFFFFFFFFFFFFFFFFFFFFFFFFFFFFFFFFFFFF AND DUP6 PUSH20 0xFFFFFFFFFFFFFFFFFFFFFFFFFFFFFFFFFFFFFFFF AND SUB PUSH2 0x2D2F JUMPI PUSH2 0x2D2A DUP5 PUSH2 0x35D2 JUMP JUMPDEST PUSH2 0x2D6E JUMP JUMPDEST DUP5 PUSH20 0xFFFFFFFFFFFFFFFFFFFFFFFFFFFFFFFFFFFFFFFF AND DUP2 PUSH20 0xFFFFFFFFFFFFFFFFFFFFFFFFFFFFFFFFFFFFFFFF AND EQ PUSH2 0x2D6D JUMPI PUSH2 0x2D6C DUP6 DUP6 PUSH2 0x36A3 JUMP JUMPDEST JUMPDEST JUMPDEST DUP1 SWAP2 POP POP SWAP4 SWAP3 POP POP POP JUMP JUMPDEST PUSH1 0x60 PUSH1 0xFF PUSH1 0x0 SHL DUP4 EQ PUSH2 0x2D96 JUMPI PUSH2 0x2D8F DUP4 PUSH2 0x372E JUMP JUMPDEST SWAP1 POP PUSH2 0x2E23 JUMP JUMPDEST DUP2 DUP1 SLOAD PUSH2 0x2DA2 SWAP1 PUSH2 0x4D05 JUMP JUMPDEST DUP1 PUSH1 0x1F ADD PUSH1 0x20 DUP1 SWAP2 DIV MUL PUSH1 0x20 ADD PUSH1 0x40 MLOAD SWAP1 DUP2 ADD PUSH1 0x40 MSTORE DUP1 SWAP3 SWAP2 SWAP1 DUP2 DUP2 MSTORE PUSH1 0x20 ADD DUP3 DUP1 SLOAD PUSH2 0x2DCE SWAP1 PUSH2 0x4D05 JUMP JUMPDEST DUP1 ISZERO PUSH2 0x2E1B JUMPI DUP1 PUSH1 0x1F LT PUSH2 0x2DF0 JUMPI PUSH2 0x100 DUP1 DUP4 SLOAD DIV MUL DUP4 MSTORE SWAP2 PUSH1 0x20 ADD SWAP2 PUSH2 0x2E1B JUMP JUMPDEST DUP3 ADD SWAP2 SWAP1 PUSH1 0x0 MSTORE PUSH1 0x20 PUSH1 0x0 KECCAK256 SWAP1 JUMPDEST DUP2 SLOAD DUP2 MSTORE SWAP1 PUSH1 0x1 ADD SWAP1 PUSH1 0x20 ADD DUP1 DUP4 GT PUSH2 0x2DFE JUMPI DUP3 SWAP1 SUB PUSH1 0x1F AND DUP3 ADD SWAP2 JUMPDEST POP POP POP POP POP SWAP1 POP JUMPDEST SWAP3 SWAP2 POP POP JUMP JUMPDEST PUSH1 0x0 DUP1 DUP3 SWAP1 POP PUSH1 0x0 JUMPDEST DUP5 MLOAD DUP2 LT ISZERO PUSH2 0x2E6E JUMPI PUSH2 0x2E5F DUP3 DUP7 DUP4 DUP2 MLOAD DUP2 LT PUSH2 0x2E52 JUMPI PUSH2 0x2E51 PUSH2 0x4D36 JUMP JUMPDEST JUMPDEST PUSH1 0x20 MUL PUSH1 0x20 ADD ADD MLOAD PUSH2 0x37A2 JUMP JUMPDEST SWAP2 POP DUP1 DUP1 PUSH1 0x1 ADD SWAP2 POP POP PUSH2 0x2E32 JUMP JUMPDEST POP DUP1 SWAP2 POP POP SWAP3 SWAP2 POP POP JUMP JUMPDEST PUSH1 0x0 PUSH1 0x40 MLOAD PUSH32 0x1901000000000000000000000000000000000000000000000000000000000000 DUP2 MSTORE DUP4 PUSH1 0x2 DUP3 ADD MSTORE DUP3 PUSH1 0x22 DUP3 ADD MSTORE PUSH1 0x42 DUP2 KECCAK256 SWAP2 POP POP SWAP3 SWAP2 POP POP JUMP JUMPDEST PUSH1 0x0 DUP1 PUSH1 0x0 PUSH1 0x41 DUP5 MLOAD SUB PUSH2 0x2EFF JUMPI PUSH1 0x0 DUP1 PUSH1 0x0 PUSH1 0x20 DUP8 ADD MLOAD SWAP3 POP PUSH1 0x40 DUP8 ADD MLOAD SWAP2 POP PUSH1 0x60 DUP8 ADD MLOAD PUSH1 0x0 BYTE SWAP1 POP PUSH2 0x2EF1 DUP9 DUP3 DUP6 DUP6 PUSH2 0x37CD JUMP JUMPDEST SWAP6 POP SWAP6 POP SWAP6 POP POP POP POP PUSH2 0x2F0F JUMP JUMPDEST PUSH1 0x0 PUSH1 0x2 DUP6 MLOAD PUSH1 0x0 SHL SWAP3 POP SWAP3 POP SWAP3 POP JUMPDEST SWAP3 POP SWAP3 POP SWAP3 JUMP JUMPDEST PUSH1 0x0 PUSH1 0x3 DUP2 GT ISZERO PUSH2 0x2F2A JUMPI PUSH2 0x2F29 PUSH2 0x4267 JUMP JUMPDEST JUMPDEST DUP3 PUSH1 0x3 DUP2 GT ISZERO PUSH2 0x2F3D JUMPI PUSH2 0x2F3C PUSH2 0x4267 JUMP JUMPDEST JUMPDEST SUB ISZERO PUSH2 0x3076 JUMPI PUSH1 0x1 PUSH1 0x3 DUP2 GT ISZERO PUSH2 0x2F57 JUMPI PUSH2 0x2F56 PUSH2 0x4267 JUMP JUMPDEST JUMPDEST DUP3 PUSH1 0x3 DUP2 GT ISZERO PUSH2 0x2F6A JUMPI PUSH2 0x2F69 PUSH2 0x4267 JUMP JUMPDEST JUMPDEST SUB PUSH2 0x2FA1 JUMPI PUSH1 0x40 MLOAD PUSH32 0xF645EEDF00000000000000000000000000000000000000000000000000000000 DUP2 MSTORE PUSH1 0x4 ADD PUSH1 0x40 MLOAD DUP1 SWAP2 SUB SWAP1 REVERT JUMPDEST PUSH1 0x2 PUSH1 0x3 DUP2 GT ISZERO PUSH2 0x2FB5 JUMPI PUSH2 0x2FB4 PUSH2 0x4267 JUMP JUMPDEST JUMPDEST DUP3 PUSH1 0x3 DUP2 GT ISZERO PUSH2 0x2FC8 JUMPI PUSH2 0x2FC7 PUSH2 0x4267 JUMP JUMPDEST JUMPDEST SUB PUSH2 0x300D JUMPI DUP1 PUSH1 0x0 SHR PUSH1 0x40 MLOAD PUSH32 0xFCE698F700000000000000000000000000000000000000000000000000000000 DUP2 MSTORE PUSH1 0x4 ADD PUSH2 0x3004 SWAP2 SWAP1 PUSH2 0x424C JUMP JUMPDEST PUSH1 0x40 MLOAD DUP1 SWAP2 SUB SWAP1 REVERT JUMPDEST PUSH1 0x3 DUP1 DUP2 GT ISZERO PUSH2 0x3020 JUMPI PUSH2 0x301F PUSH2 0x4267 JUMP JUMPDEST JUMPDEST DUP3 PUSH1 0x3 DUP2 GT ISZERO PUSH2 0x3033 JUMPI PUSH2 0x3032 PUSH2 0x4267 JUMP JUMPDEST JUMPDEST SUB PUSH2 0x3075 JUMPI DUP1 PUSH1 0x40 MLOAD PUSH32 0xD78BCE0C00000000000000000000000000000000000000000000000000000000 DUP2 MSTORE PUSH1 0x4 ADD PUSH2 0x306C SWAP2 SWAP1 PUSH2 0x4C7B JUMP JUMPDEST PUSH1 0x40 MLOAD DUP1 SWAP2 SUB SWAP1 REVERT JUMPDEST JUMPDEST POP POP JUMP JUMPDEST PUSH2 0x3094 DUP3 DUP3 PUSH1 0x40 MLOAD DUP1 PUSH1 0x20 ADD PUSH1 0x40 MSTORE DUP1 PUSH1 0x0 DUP2 MSTORE POP PUSH2 0x38C1 JUMP JUMPDEST POP POP JUMP JUMPDEST DUP1 PUSH1 0xA PUSH1 0x0 DUP5 DUP2 MSTORE PUSH1 0x20 ADD SWAP1 DUP2 MSTORE PUSH1 0x20 ADD PUSH1 0x0 KECCAK256 SWAP1 DUP2 PUSH2 0x30B8 SWAP2 SWAP1 PUSH2 0x5A35 JUMP JUMPDEST POP PUSH32 0xF8E1A15ABA9398E019F0B49DF1A4FDE98EE17AE345CB5F6B5E2C27F5033E8CE7 DUP3 PUSH1 0x40 MLOAD PUSH2 0x30E8 SWAP2 SWAP1 PUSH2 0x424C JUMP JUMPDEST PUSH1 0x40 MLOAD DUP1 SWAP2 SUB SWAP1 LOG1 POP POP JUMP JUMPDEST PUSH1 0x60 PUSH1 0x40 MLOAD DUP1 PUSH1 0x20 ADD PUSH1 0x40 MSTORE DUP1 PUSH1 0x0 DUP2 MSTORE POP SWAP1 POP SWAP1 JUMP JUMPDEST PUSH1 0x60 PUSH2 0x3116 DUP3 PUSH2 0x1D86 JUMP JUMPDEST POP PUSH1 0x0 PUSH2 0x3121 PUSH2 0x30F4 JUMP JUMPDEST SWAP1 POP PUSH1 0x0 DUP2 MLOAD GT PUSH2 0x3141 JUMPI PUSH1 0x40 MLOAD DUP1 PUSH1 0x20 ADD PUSH1 0x40 MSTORE DUP1 PUSH1 0x0 DUP2 MSTORE POP PUSH2 0x316C JUMP JUMPDEST DUP1 PUSH2 0x314B DUP5 PUSH2 0x38E5 JUMP JUMPDEST PUSH1 0x40 MLOAD PUSH1 0x20 ADD PUSH2 0x315C SWAP3 SWAP2 SWAP1 PUSH2 0x5865 JUMP JUMPDEST PUSH1 0x40 MLOAD PUSH1 0x20 DUP2 DUP4 SUB SUB DUP2 MSTORE SWAP1 PUSH1 0x40 MSTORE JUMPDEST SWAP2 POP POP SWAP2 SWAP1 POP JUMP JUMPDEST PUSH1 0x0 PUSH32 0x8B73C3C69BB8FE3D512ECC4CF759CC79239F7B179B0FFACAA9A75D522B39400F PUSH32 0x0 PUSH32 0x0 CHAINID ADDRESS PUSH1 0x40 MLOAD PUSH1 0x20 ADD PUSH2 0x31EF SWAP6 SWAP5 SWAP4 SWAP3 SWAP2 SWAP1 PUSH2 0x5B07 JUMP JUMPDEST PUSH1 0x40 MLOAD PUSH1 0x20 DUP2 DUP4 SUB SUB DUP2 MSTORE SWAP1 PUSH1 0x40 MSTORE DUP1 MLOAD SWAP1 PUSH1 0x20 ADD KECCAK256 SWAP1 POP SWAP1 JUMP JUMPDEST PUSH1 0x0 PUSH32 0x780E9D6300000000000000000000000000000000000000000000000000000000 PUSH28 0xFFFFFFFFFFFFFFFFFFFFFFFFFFFFFFFFFFFFFFFFFFFFFFFFFFFFFFFF NOT AND DUP3 PUSH28 0xFFFFFFFFFFFFFFFFFFFFFFFFFFFFFFFFFFFFFFFFFFFFFFFFFFFFFFFF NOT AND EQ DUP1 PUSH2 0x327D JUMPI POP PUSH2 0x327C DUP3 PUSH2 0x39B3 JUMP JUMPDEST JUMPDEST SWAP1 POP SWAP2 SWAP1 POP JUMP JUMPDEST PUSH1 0x0 DUP1 PUSH2 0x3290 DUP5 PUSH2 0x2A5A JUMP JUMPDEST SWAP1 POP PUSH1 0x0 PUSH20 0xFFFFFFFFFFFFFFFFFFFFFFFFFFFFFFFFFFFFFFFF AND DUP4 PUSH20 0xFFFFFFFFFFFFFFFFFFFFFFFFFFFFFFFFFFFFFFFF AND EQ PUSH2 0x32D2 JUMPI PUSH2 0x32D1 DUP2 DUP5 DUP7 PUSH2 0x3A95 JUMP JUMPDEST JUMPDEST PUSH1 0x0 PUSH20 0xFFFFFFFFFFFFFFFFFFFFFFFFFFFFFFFFFFFFFFFF AND DUP2 PUSH20 0xFFFFFFFFFFFFFFFFFFFFFFFFFFFFFFFFFFFFFFFF AND EQ PUSH2 0x3363 JUMPI PUSH2 0x3314 PUSH1 0x0 DUP6 PUSH1 0x0 DUP1 PUSH2 0x2A97 JUMP JUMPDEST PUSH1 0x1 PUSH1 0x3 PUSH1 0x0 DUP4 PUSH20 0xFFFFFFFFFFFFFFFFFFFFFFFFFFFFFFFFFFFFFFFF AND PUSH20 0xFFFFFFFFFFFFFFFFFFFFFFFFFFFFFFFFFFFFFFFF AND DUP2 MSTORE PUSH1 0x20 ADD SWAP1 DUP2 MSTORE PUSH1 0x20 ADD PUSH1 0x0 KECCAK256 PUSH1 0x0 DUP3 DUP3 SLOAD SUB SWAP3 POP POP DUP2 SWAP1 SSTORE POP JUMPDEST PUSH1 0x0 PUSH20 0xFFFFFFFFFFFFFFFFFFFFFFFFFFFFFFFFFFFFFFFF AND DUP6 PUSH20 0xFFFFFFFFFFFFFFFFFFFFFFFFFFFFFFFFFFFFFFFF AND EQ PUSH2 0x33E6 JUMPI PUSH1 0x1 PUSH1 0x3 PUSH1 0x0 DUP8 PUSH20 0xFFFFFFFFFFFFFFFFFFFFFFFFFFFFFFFFFFFFFFFF AND PUSH20 0xFFFFFFFFFFFFFFFFFFFFFFFFFFFFFFFFFFFFFFFF AND DUP2 MSTORE PUSH1 0x20 ADD SWAP1 DUP2 MSTORE PUSH1 0x20 ADD PUSH1 0x0 KECCAK256 PUSH1 0x0 DUP3 DUP3 SLOAD ADD SWAP3 POP POP DUP2 SWAP1 SSTORE POP JUMPDEST DUP5 PUSH1 0x2 PUSH1 0x0 DUP7 DUP2 MSTORE PUSH1 0x20 ADD SWAP1 DUP2 MSTORE PUSH1 0x20 ADD PUSH1 0x0 KECCAK256 PUSH1 0x0 PUSH2 0x100 EXP DUP2 SLOAD DUP2 PUSH20 0xFFFFFFFFFFFFFFFFFFFFFFFFFFFFFFFFFFFFFFFF MUL NOT AND SWAP1 DUP4 PUSH20 0xFFFFFFFFFFFFFFFFFFFFFFFFFFFFFFFFFFFFFFFF AND MUL OR SWAP1 SSTORE POP DUP4 DUP6 PUSH20 0xFFFFFFFFFFFFFFFFFFFFFFFFFFFFFFFFFFFFFFFF AND DUP3 PUSH20 0xFFFFFFFFFFFFFFFFFFFFFFFFFFFFFFFFFFFFFFFF AND PUSH32 0xDDF252AD1BE2C89B69C2B068FC378DAA952BA7F163C4A11628F55A4DF523B3EF PUSH1 0x40 MLOAD PUSH1 0x40 MLOAD DUP1 SWAP2 SUB SWAP1 LOG4 DUP1 SWAP2 POP POP SWAP4 SWAP3 POP POP POP JUMP JUMPDEST PUSH1 0x8 DUP1 SLOAD SWAP1 POP PUSH1 0x9 PUSH1 0x0 DUP4 DUP2 MSTORE PUSH1 0x20 ADD SWAP1 DUP2 MSTORE PUSH1 0x20 ADD PUSH1 0x0 KECCAK256 DUP2 SWAP1 SSTORE POP PUSH1 0x8 DUP2 SWAP1 DUP1 PUSH1 0x1 DUP2 SLOAD ADD DUP1 DUP3 SSTORE DUP1 SWAP2 POP POP PUSH1 0x1 SWAP1 SUB SWAP1 PUSH1 0x0 MSTORE PUSH1 0x20 PUSH1 0x0 KECCAK256 ADD PUSH1 0x0 SWAP1 SWAP2 SWAP1 SWAP2 SWAP1 SWAP2 POP SSTORE POP JUMP JUMPDEST PUSH1 0x0 PUSH2 0x34F2 DUP4 PUSH2 0x126A JUMP JUMPDEST SWAP1 POP PUSH1 0x0 PUSH1 0x7 PUSH1 0x0 DUP5 DUP2 MSTORE PUSH1 0x20 ADD SWAP1 DUP2 MSTORE PUSH1 0x20 ADD PUSH1 0x0 KECCAK256 SLOAD SWAP1 POP PUSH1 0x0 PUSH1 0x6 PUSH1 0x0 DUP7 PUSH20 0xFFFFFFFFFFFFFFFFFFFFFFFFFFFFFFFFFFFFFFFF AND PUSH20 0xFFFFFFFFFFFFFFFFFFFFFFFFFFFFFFFFFFFFFFFF AND DUP2 MSTORE PUSH1 0x20 ADD SWAP1 DUP2 MSTORE PUSH1 0x20 ADD PUSH1 0x0 KECCAK256 SWAP1 POP DUP3 DUP3 EQ PUSH2 0x359E JUMPI PUSH1 0x0 DUP2 PUSH1 0x0 DUP6 DUP2 MSTORE PUSH1 0x20 ADD SWAP1 DUP2 MSTORE PUSH1 0x20 ADD PUSH1 0x0 KECCAK256 SLOAD SWAP1 POP DUP1 DUP3 PUSH1 0x0 DUP6 DUP2 MSTORE PUSH1 0x20 ADD SWAP1 DUP2 MSTORE PUSH1 0x20 ADD PUSH1 0x0 KECCAK256 DUP2 SWAP1 SSTORE POP DUP3 PUSH1 0x7 PUSH1 0x0 DUP4 DUP2 MSTORE PUSH1 0x20 ADD SWAP1 DUP2 MSTORE PUSH1 0x20 ADD PUSH1 0x0 KECCAK256 DUP2 SWAP1 SSTORE POP POP JUMPDEST PUSH1 0x7 PUSH1 0x0 DUP6 DUP2 MSTORE PUSH1 0x20 ADD SWAP1 DUP2 MSTORE PUSH1 0x20 ADD PUSH1 0x0 KECCAK256 PUSH1 0x0 SWAP1 SSTORE DUP1 PUSH1 0x0 DUP5 DUP2 MSTORE PUSH1 0x20 ADD SWAP1 DUP2 MSTORE PUSH1 0x20 ADD PUSH1 0x0 KECCAK256 PUSH1 0x0 SWAP1 SSTORE POP POP POP POP POP JUMP JUMPDEST PUSH1 0x0 PUSH1 0x1 PUSH1 0x8 DUP1 SLOAD SWAP1 POP PUSH2 0x35E6 SWAP2 SWAP1 PUSH2 0x565E JUMP JUMPDEST SWAP1 POP PUSH1 0x0 PUSH1 0x9 PUSH1 0x0 DUP5 DUP2 MSTORE PUSH1 0x20 ADD SWAP1 DUP2 MSTORE PUSH1 0x20 ADD PUSH1 0x0 KECCAK256 SLOAD SWAP1 POP PUSH1 0x0 PUSH1 0x8 DUP4 DUP2 SLOAD DUP2 LT PUSH2 0x3616 JUMPI PUSH2 0x3615 PUSH2 0x4D36 JUMP JUMPDEST JUMPDEST SWAP1 PUSH1 0x0 MSTORE PUSH1 0x20 PUSH1 0x0 KECCAK256 ADD SLOAD SWAP1 POP DUP1 PUSH1 0x8 DUP4 DUP2 SLOAD DUP2 LT PUSH2 0x3638 JUMPI PUSH2 0x3637 PUSH2 0x4D36 JUMP JUMPDEST JUMPDEST SWAP1 PUSH1 0x0 MSTORE PUSH1 0x20 PUSH1 0x0 KECCAK256 ADD DUP2 SWAP1 SSTORE POP DUP2 PUSH1 0x9 PUSH1 0x0 DUP4 DUP2 MSTORE PUSH1 0x20 ADD SWAP1 DUP2 MSTORE PUSH1 0x20 ADD PUSH1 0x0 KECCAK256 DUP2 SWAP1 SSTORE POP PUSH1 0x9 PUSH1 0x0 DUP6 DUP2 MSTORE PUSH1 0x20 ADD SWAP1 DUP2 MSTORE PUSH1 0x20 ADD PUSH1 0x0 KECCAK256 PUSH1 0x0 SWAP1 SSTORE PUSH1 0x8 DUP1 SLOAD DUP1 PUSH2 0x3687 JUMPI PUSH2 0x3686 PUSH2 0x5B5A JUMP JUMPDEST JUMPDEST PUSH1 0x1 SWAP1 SUB DUP2 DUP2 SWAP1 PUSH1 0x0 MSTORE PUSH1 0x20 PUSH1 0x0 KECCAK256 ADD PUSH1 0x0 SWAP1 SSTORE SWAP1 SSTORE POP POP POP POP JUMP JUMPDEST PUSH1 0x0 PUSH1 0x1 PUSH2 0x36B0 DUP5 PUSH2 0x126A JUMP JUMPDEST PUSH2 0x36BA SWAP2 SWAP1 PUSH2 0x565E JUMP JUMPDEST SWAP1 POP DUP2 PUSH1 0x6 PUSH1 0x0 DUP6 PUSH20 0xFFFFFFFFFFFFFFFFFFFFFFFFFFFFFFFFFFFFFFFF AND PUSH20 0xFFFFFFFFFFFFFFFFFFFFFFFFFFFFFFFFFFFFFFFF AND DUP2 MSTORE PUSH1 0x20 ADD SWAP1 DUP2 MSTORE PUSH1 0x20 ADD PUSH1 0x0 KECCAK256 PUSH1 0x0 DUP4 DUP2 MSTORE PUSH1 0x20 ADD SWAP1 DUP2 MSTORE PUSH1 0x20 ADD PUSH1 0x0 KECCAK256 DUP2 SWAP1 SSTORE POP DUP1 PUSH1 0x7 PUSH1 0x0 DUP5 DUP2 MSTORE PUSH1 0x20 ADD SWAP1 DUP2 MSTORE PUSH1 0x20 ADD PUSH1 0x0 KECCAK256 DUP2 SWAP1 SSTORE POP POP POP POP JUMP JUMPDEST PUSH1 0x60 PUSH1 0x0 PUSH2 0x373B DUP4 PUSH2 0x3B59 JUMP JUMPDEST SWAP1 POP PUSH1 0x0 PUSH1 0x20 PUSH8 0xFFFFFFFFFFFFFFFF DUP2 GT ISZERO PUSH2 0x375A JUMPI PUSH2 0x3759 PUSH2 0x4A4B JUMP JUMPDEST JUMPDEST PUSH1 0x40 MLOAD SWAP1 DUP1 DUP3 MSTORE DUP1 PUSH1 0x1F ADD PUSH1 0x1F NOT AND PUSH1 0x20 ADD DUP3 ADD PUSH1 0x40 MSTORE DUP1 ISZERO PUSH2 0x378C JUMPI DUP2 PUSH1 0x20 ADD PUSH1 0x1 DUP3 MUL DUP1 CALLDATASIZE DUP4 CALLDATACOPY DUP1 DUP3 ADD SWAP2 POP POP SWAP1 POP JUMPDEST POP SWAP1 POP DUP2 DUP2 MSTORE DUP4 PUSH1 0x20 DUP3 ADD MSTORE DUP1 SWAP3 POP POP POP SWAP2 SWAP1 POP JUMP JUMPDEST PUSH1 0x0 DUP2 DUP4 LT PUSH2 0x37BA JUMPI PUSH2 0x37B5 DUP3 DUP5 PUSH2 0x3BA9 JUMP JUMPDEST PUSH2 0x37C5 JUMP JUMPDEST PUSH2 0x37C4 DUP4 DUP4 PUSH2 0x3BA9 JUMP JUMPDEST JUMPDEST SWAP1 POP SWAP3 SWAP2 POP POP JUMP JUMPDEST PUSH1 0x0 DUP1 PUSH1 0x0 PUSH32 0x7FFFFFFFFFFFFFFFFFFFFFFFFFFFFFFF5D576E7357A4501DDFE92F46681B20A0 DUP5 PUSH1 0x0 SHR GT ISZERO PUSH2 0x380D JUMPI PUSH1 0x0 PUSH1 0x3 DUP6 SWAP3 POP SWAP3 POP SWAP3 POP PUSH2 0x38B7 JUMP JUMPDEST PUSH1 0x0 PUSH1 0x1 DUP9 DUP9 DUP9 DUP9 PUSH1 0x40 MLOAD PUSH1 0x0 DUP2 MSTORE PUSH1 0x20 ADD PUSH1 0x40 MSTORE PUSH1 0x40 MLOAD PUSH2 0x3832 SWAP5 SWAP4 SWAP3 SWAP2 SWAP1 PUSH2 0x5BA5 JUMP JUMPDEST PUSH1 0x20 PUSH1 0x40 MLOAD PUSH1 0x20 DUP2 SUB SWAP1 DUP1 DUP5 SUB SWAP1 DUP6 GAS STATICCALL ISZERO DUP1 ISZERO PUSH2 0x3854 JUMPI RETURNDATASIZE PUSH1 0x0 DUP1 RETURNDATACOPY RETURNDATASIZE PUSH1 0x0 REVERT JUMPDEST POP POP POP PUSH1 0x20 PUSH1 0x40 MLOAD SUB MLOAD SWAP1 POP PUSH1 0x0 PUSH20 0xFFFFFFFFFFFFFFFFFFFFFFFFFFFFFFFFFFFFFFFF AND DUP2 PUSH20 0xFFFFFFFFFFFFFFFFFFFFFFFFFFFFFFFFFFFFFFFF AND SUB PUSH2 0x38A8 JUMPI PUSH1 0x0 PUSH1 0x1 PUSH1 0x0 DUP1 SHL SWAP4 POP SWAP4 POP SWAP4 POP POP PUSH2 0x38B7 JUMP JUMPDEST DUP1 PUSH1 0x0 DUP1 PUSH1 0x0 SHL SWAP4 POP SWAP4 POP SWAP4 POP POP JUMPDEST SWAP5 POP SWAP5 POP SWAP5 SWAP2 POP POP JUMP JUMPDEST PUSH2 0x38CB DUP4 DUP4 PUSH2 0x3BC0 JUMP JUMPDEST PUSH2 0x38E0 PUSH2 0x38D6 PUSH2 0x1E4B JUMP JUMPDEST PUSH1 0x0 DUP6 DUP6 DUP6 PUSH2 0x267E JUMP JUMPDEST POP POP POP JUMP JUMPDEST PUSH1 0x60 PUSH1 0x0 PUSH1 0x1 PUSH2 0x38F4 DUP5 PUSH2 0x3CB9 JUMP JUMPDEST ADD SWAP1 POP PUSH1 0x0 DUP2 PUSH8 0xFFFFFFFFFFFFFFFF DUP2 GT ISZERO PUSH2 0x3913 JUMPI PUSH2 0x3912 PUSH2 0x4A4B JUMP JUMPDEST JUMPDEST PUSH1 0x40 MLOAD SWAP1 DUP1 DUP3 MSTORE DUP1 PUSH1 0x1F ADD PUSH1 0x1F NOT AND PUSH1 0x20 ADD DUP3 ADD PUSH1 0x40 MSTORE DUP1 ISZERO PUSH2 0x3945 JUMPI DUP2 PUSH1 0x20 ADD PUSH1 0x1 DUP3 MUL DUP1 CALLDATASIZE DUP4 CALLDATACOPY DUP1 DUP3 ADD SWAP2 POP POP SWAP1 POP JUMPDEST POP SWAP1 POP PUSH1 0x0 DUP3 PUSH1 0x20 ADD DUP3 ADD SWAP1 POP JUMPDEST PUSH1 0x1 ISZERO PUSH2 0x39A8 JUMPI DUP1 DUP1 PUSH1 0x1 SWAP1 SUB SWAP2 POP POP PUSH32 0x3031323334353637383961626364656600000000000000000000000000000000 PUSH1 0xA DUP7 MOD BYTE DUP2 MSTORE8 PUSH1 0xA DUP6 DUP2 PUSH2 0x399C JUMPI PUSH2 0x399B PUSH2 0x4E0D JUMP JUMPDEST JUMPDEST DIV SWAP5 POP PUSH1 0x0 DUP6 SUB PUSH2 0x3953 JUMPI JUMPDEST DUP2 SWAP4 POP POP POP POP SWAP2 SWAP1 POP JUMP JUMPDEST PUSH1 0x0 PUSH32 0x80AC58CD00000000000000000000000000000000000000000000000000000000 PUSH28 0xFFFFFFFFFFFFFFFFFFFFFFFFFFFFFFFFFFFFFFFFFFFFFFFFFFFFFFFF NOT AND DUP3 PUSH28 0xFFFFFFFFFFFFFFFFFFFFFFFFFFFFFFFFFFFFFFFFFFFFFFFFFFFFFFFF NOT AND EQ DUP1 PUSH2 0x3A7E JUMPI POP PUSH32 0x5B5E139F00000000000000000000000000000000000000000000000000000000 PUSH28 0xFFFFFFFFFFFFFFFFFFFFFFFFFFFFFFFFFFFFFFFFFFFFFFFFFFFFFFFF NOT AND DUP3 PUSH28 0xFFFFFFFFFFFFFFFFFFFFFFFFFFFFFFFFFFFFFFFFFFFFFFFFFFFFFFFF NOT AND EQ JUMPDEST DUP1 PUSH2 0x3A8E JUMPI POP PUSH2 0x3A8D DUP3 PUSH2 0x3E0C JUMP JUMPDEST JUMPDEST SWAP1 POP SWAP2 SWAP1 POP JUMP JUMPDEST PUSH2 0x3AA0 DUP4 DUP4 DUP4 PUSH2 0x3E76 JUMP JUMPDEST PUSH2 0x3B54 JUMPI PUSH1 0x0 PUSH20 0xFFFFFFFFFFFFFFFFFFFFFFFFFFFFFFFFFFFFFFFF AND DUP4 PUSH20 0xFFFFFFFFFFFFFFFFFFFFFFFFFFFFFFFFFFFFFFFF AND SUB PUSH2 0x3B15 JUMPI DUP1 PUSH1 0x40 MLOAD PUSH32 0x7E27328900000000000000000000000000000000000000000000000000000000 DUP2 MSTORE PUSH1 0x4 ADD PUSH2 0x3B0C SWAP2 SWAP1 PUSH2 0x424C JUMP JUMPDEST PUSH1 0x40 MLOAD DUP1 SWAP2 SUB SWAP1 REVERT JUMPDEST DUP2 DUP2 PUSH1 0x40 MLOAD PUSH32 0x177E802F00000000000000000000000000000000000000000000000000000000 DUP2 MSTORE PUSH1 0x4 ADD PUSH2 0x3B4B SWAP3 SWAP2 SWAP1 PUSH2 0x4465 JUMP JUMPDEST PUSH1 0x40 MLOAD DUP1 SWAP2 SUB SWAP1 REVERT JUMPDEST POP POP POP JUMP JUMPDEST PUSH1 0x0 DUP1 PUSH1 0xFF DUP4 PUSH1 0x0 SHR AND SWAP1 POP PUSH1 0x1F DUP2 GT ISZERO PUSH2 0x3BA0 JUMPI PUSH1 0x40 MLOAD PUSH32 0xB3512B0C00000000000000000000000000000000000000000000000000000000 DUP2 MSTORE PUSH1 0x4 ADD PUSH1 0x40 MLOAD DUP1 SWAP2 SUB SWAP1 REVERT JUMPDEST DUP1 SWAP2 POP POP SWAP2 SWAP1 POP JUMP JUMPDEST PUSH1 0x0 DUP3 PUSH1 0x0 MSTORE DUP2 PUSH1 0x20 MSTORE PUSH1 0x40 PUSH1 0x0 KECCAK256 SWAP1 POP SWAP3 SWAP2 POP POP JUMP JUMPDEST PUSH1 0x0 PUSH20 0xFFFFFFFFFFFFFFFFFFFFFFFFFFFFFFFFFFFFFFFF AND DUP3 PUSH20 0xFFFFFFFFFFFFFFFFFFFFFFFFFFFFFFFFFFFFFFFF AND SUB PUSH2 0x3C32 JUMPI PUSH1 0x0 PUSH1 0x40 MLOAD PUSH32 0x64A0AE9200000000000000000000000000000000000000000000000000000000 DUP2 MSTORE PUSH1 0x4 ADD PUSH2 0x3C29 SWAP2 SWAP1 PUSH2 0x41B6 JUMP JUMPDEST PUSH1 0x40 MLOAD DUP1 SWAP2 SUB SWAP1 REVERT JUMPDEST PUSH1 0x0 PUSH2 0x3C40 DUP4 DUP4 PUSH1 0x0 PUSH2 0x1FBA JUMP JUMPDEST SWAP1 POP PUSH1 0x0 PUSH20 0xFFFFFFFFFFFFFFFFFFFFFFFFFFFFFFFFFFFFFFFF AND DUP2 PUSH20 0xFFFFFFFFFFFFFFFFFFFFFFFFFFFFFFFFFFFFFFFF AND EQ PUSH2 0x3CB4 JUMPI PUSH1 0x0 PUSH1 0x40 MLOAD PUSH32 0x73C6AC6E00000000000000000000000000000000000000000000000000000000 DUP2 MSTORE PUSH1 0x4 ADD PUSH2 0x3CAB SWAP2 SWAP1 PUSH2 0x41B6 JUMP JUMPDEST PUSH1 0x40 MLOAD DUP1 SWAP2 SUB SWAP1 REVERT JUMPDEST POP POP POP JUMP JUMPDEST PUSH1 0x0 DUP1 PUSH1 0x0 SWAP1 POP PUSH27 0x184F03E93FF9F4DAA797ED6E38ED64BF6A1F010000000000000000 DUP4 LT PUSH2 0x3D17 JUMPI PUSH27 0x184F03E93FF9F4DAA797ED6E38ED64BF6A1F010000000000000000 DUP4 DUP2 PUSH2 0x3D0D JUMPI PUSH2 0x3D0C PUSH2 0x4E0D JUMP JUMPDEST JUMPDEST DIV SWAP3 POP PUSH1 0x40 DUP2 ADD SWAP1 POP JUMPDEST PUSH14 0x4EE2D6D415B85ACEF8100000000 DUP4 LT PUSH2 0x3D54 JUMPI PUSH14 0x4EE2D6D415B85ACEF8100000000 DUP4 DUP2 PUSH2 0x3D4A JUMPI PUSH2 0x3D49 PUSH2 0x4E0D JUMP JUMPDEST JUMPDEST DIV SWAP3 POP PUSH1 0x20 DUP2 ADD SWAP1 POP JUMPDEST PUSH7 0x2386F26FC10000 DUP4 LT PUSH2 0x3D83 JUMPI PUSH7 0x2386F26FC10000 DUP4 DUP2 PUSH2 0x3D79 JUMPI PUSH2 0x3D78 PUSH2 0x4E0D JUMP JUMPDEST JUMPDEST DIV SWAP3 POP PUSH1 0x10 DUP2 ADD SWAP1 POP JUMPDEST PUSH4 0x5F5E100 DUP4 LT PUSH2 0x3DAC JUMPI PUSH4 0x5F5E100 DUP4 DUP2 PUSH2 0x3DA2 JUMPI PUSH2 0x3DA1 PUSH2 0x4E0D JUMP JUMPDEST JUMPDEST DIV SWAP3 POP PUSH1 0x8 DUP2 ADD SWAP1 POP JUMPDEST PUSH2 0x2710 DUP4 LT PUSH2 0x3DD1 JUMPI PUSH2 0x2710 DUP4 DUP2 PUSH2 0x3DC7 JUMPI PUSH2 0x3DC6 PUSH2 0x4E0D JUMP JUMPDEST JUMPDEST DIV SWAP3 POP PUSH1 0x4 DUP2 ADD SWAP1 POP JUMPDEST PUSH1 0x64 DUP4 LT PUSH2 0x3DF4 JUMPI PUSH1 0x64 DUP4 DUP2 PUSH2 0x3DEA JUMPI PUSH2 0x3DE9 PUSH2 0x4E0D JUMP JUMPDEST JUMPDEST DIV SWAP3 POP PUSH1 0x2 DUP2 ADD SWAP1 POP JUMPDEST PUSH1 0xA DUP4 LT PUSH2 0x3E03 JUMPI PUSH1 0x1 DUP2 ADD SWAP1 POP JUMPDEST DUP1 SWAP2 POP POP SWAP2 SWAP1 POP JUMP JUMPDEST PUSH1 0x0 PUSH32 0x1FFC9A700000000000000000000000000000000000000000000000000000000 PUSH28 0xFFFFFFFFFFFFFFFFFFFFFFFFFFFFFFFFFFFFFFFFFFFFFFFFFFFFFFFF NOT AND DUP3 PUSH28 0xFFFFFFFFFFFFFFFFFFFFFFFFFFFFFFFFFFFFFFFFFFFFFFFFFFFFFFFF NOT AND EQ SWAP1 POP SWAP2 SWAP1 POP JUMP JUMPDEST PUSH1 0x0 DUP1 PUSH20 0xFFFFFFFFFFFFFFFFFFFFFFFFFFFFFFFFFFFFFFFF AND DUP4 PUSH20 0xFFFFFFFFFFFFFFFFFFFFFFFFFFFFFFFFFFFFFFFF AND EQ ISZERO DUP1 ISZERO PUSH2 0x3F2E JUMPI POP DUP3 PUSH20 0xFFFFFFFFFFFFFFFFFFFFFFFFFFFFFFFFFFFFFFFF AND DUP5 PUSH20 0xFFFFFFFFFFFFFFFFFFFFFFFFFFFFFFFFFFFFFFFF AND EQ DUP1 PUSH2 0x3EEF JUMPI POP PUSH2 0x3EEE DUP5 DUP5 PUSH2 0x1B3E JUMP JUMPDEST JUMPDEST DUP1 PUSH2 0x3F2D JUMPI POP DUP3 PUSH20 0xFFFFFFFFFFFFFFFFFFFFFFFFFFFFFFFFFFFFFFFF AND PUSH2 0x3F15 DUP4 PUSH2 0x1E0E JUMP JUMPDEST PUSH20 0xFFFFFFFFFFFFFFFFFFFFFFFFFFFFFFFFFFFFFFFF AND EQ JUMPDEST JUMPDEST SWAP1 POP SWAP4 SWAP3 POP POP POP JUMP JUMPDEST PUSH1 0x40 MLOAD DUP1 PUSH2 0x100 ADD PUSH1 0x40 MSTORE DUP1 PUSH1 0x0 PUSH1 0x2 DUP2 GT ISZERO PUSH2 0x3F57 JUMPI PUSH2 0x3F56 PUSH2 0x4267 JUMP JUMPDEST JUMPDEST DUP2 MSTORE PUSH1 0x20 ADD PUSH1 0x0 DUP2 MSTORE PUSH1 0x20 ADD PUSH1 0x0 DUP2 MSTORE PUSH1 0x20 ADD PUSH1 0x0 DUP2 MSTORE PUSH1 0x20 ADD PUSH1 0x0 DUP2 MSTORE PUSH1 0x20 ADD PUSH1 0x0 DUP2 MSTORE PUSH1 0x20 ADD PUSH1 0x0 DUP2 MSTORE PUSH1 0x20 ADD PUSH1 0x0 DUP1 NOT AND DUP2 MSTORE POP SWAP1 JUMP JUMPDEST PUSH1 0x0 PUSH1 0x40 MLOAD SWAP1 POP SWAP1 JUMP JUMPDEST PUSH1 0x0 DUP1 REVERT JUMPDEST PUSH1 0x0 DUP1 REVERT JUMPDEST PUSH1 0x0 PUSH32 0xFFFFFFFF00000000000000000000000000000000000000000000000000000000 DUP3 AND SWAP1 POP SWAP2 SWAP1 POP JUMP JUMPDEST PUSH2 0x3FDA DUP2 PUSH2 0x3FA5 JUMP JUMPDEST DUP2 EQ PUSH2 0x3FE5 JUMPI PUSH1 0x0 DUP1 REVERT JUMPDEST POP JUMP JUMPDEST PUSH1 0x0 DUP2 CALLDATALOAD SWAP1 POP PUSH2 0x3FF7 DUP2 PUSH2 0x3FD1 JUMP JUMPDEST SWAP3 SWAP2 POP POP JUMP JUMPDEST PUSH1 0x0 PUSH1 0x20 DUP3 DUP5 SUB SLT ISZERO PUSH2 0x4013 JUMPI PUSH2 0x4012 PUSH2 0x3F9B JUMP JUMPDEST JUMPDEST PUSH1 0x0 PUSH2 0x4021 DUP5 DUP3 DUP6 ADD PUSH2 0x3FE8 JUMP JUMPDEST SWAP2 POP POP SWAP3 SWAP2 POP POP JUMP JUMPDEST PUSH1 0x0 DUP2 ISZERO ISZERO SWAP1 POP SWAP2 SWAP1 POP JUMP JUMPDEST PUSH2 0x403F DUP2 PUSH2 0x402A JUMP JUMPDEST DUP3 MSTORE POP POP JUMP JUMPDEST PUSH1 0x0 PUSH1 0x20 DUP3 ADD SWAP1 POP PUSH2 0x405A PUSH1 0x0 DUP4 ADD DUP5 PUSH2 0x4036 JUMP JUMPDEST SWAP3 SWAP2 POP POP JUMP JUMPDEST PUSH1 0x0 DUP2 MLOAD SWAP1 POP SWAP2 SWAP1 POP JUMP JUMPDEST PUSH1 0x0 DUP3 DUP3 MSTORE PUSH1 0x20 DUP3 ADD SWAP1 POP SWAP3 SWAP2 POP POP JUMP JUMPDEST PUSH1 0x0 JUMPDEST DUP4 DUP2 LT ISZERO PUSH2 0x409A JUMPI DUP1 DUP3 ADD MLOAD DUP2 DUP5 ADD MSTORE PUSH1 0x20 DUP2 ADD SWAP1 POP PUSH2 0x407F JUMP JUMPDEST PUSH1 0x0 DUP5 DUP5 ADD MSTORE POP POP POP POP JUMP JUMPDEST PUSH1 0x0 PUSH1 0x1F NOT PUSH1 0x1F DUP4 ADD AND SWAP1 POP SWAP2 SWAP1 POP JUMP JUMPDEST PUSH1 0x0 PUSH2 0x40C2 DUP3 PUSH2 0x4060 JUMP JUMPDEST PUSH2 0x40CC DUP2 DUP6 PUSH2 0x406B JUMP JUMPDEST SWAP4 POP PUSH2 0x40DC DUP2 DUP6 PUSH1 0x20 DUP7 ADD PUSH2 0x407C JUMP JUMPDEST PUSH2 0x40E5 DUP2 PUSH2 0x40A6 JUMP JUMPDEST DUP5 ADD SWAP2 POP POP SWAP3 SWAP2 POP POP JUMP JUMPDEST PUSH1 0x0 PUSH1 0x20 DUP3 ADD SWAP1 POP DUP2 DUP2 SUB PUSH1 0x0 DUP4 ADD MSTORE PUSH2 0x410A DUP2 DUP5 PUSH2 0x40B7 JUMP JUMPDEST SWAP1 POP SWAP3 SWAP2 POP POP JUMP JUMPDEST PUSH1 0x0 DUP2 SWAP1 POP SWAP2 SWAP1 POP JUMP JUMPDEST PUSH2 0x4125 DUP2 PUSH2 0x4112 JUMP JUMPDEST DUP2 EQ PUSH2 0x4130 JUMPI PUSH1 0x0 DUP1 REVERT JUMPDEST POP JUMP JUMPDEST PUSH1 0x0 DUP2 CALLDATALOAD SWAP1 POP PUSH2 0x4142 DUP2 PUSH2 0x411C JUMP JUMPDEST SWAP3 SWAP2 POP POP JUMP JUMPDEST PUSH1 0x0 PUSH1 0x20 DUP3 DUP5 SUB SLT ISZERO PUSH2 0x415E JUMPI PUSH2 0x415D PUSH2 0x3F9B JUMP JUMPDEST JUMPDEST PUSH1 0x0 PUSH2 0x416C DUP5 DUP3 DUP6 ADD PUSH2 0x4133 JUMP JUMPDEST SWAP2 POP POP SWAP3 SWAP2 POP POP JUMP JUMPDEST PUSH1 0x0 PUSH20 0xFFFFFFFFFFFFFFFFFFFFFFFFFFFFFFFFFFFFFFFF DUP3 AND SWAP1 POP SWAP2 SWAP1 POP JUMP JUMPDEST PUSH1 0x0 PUSH2 0x41A0 DUP3 PUSH2 0x4175 JUMP JUMPDEST SWAP1 POP SWAP2 SWAP1 POP JUMP JUMPDEST PUSH2 0x41B0 DUP2 PUSH2 0x4195 JUMP JUMPDEST DUP3 MSTORE POP POP JUMP JUMPDEST PUSH1 0x0 PUSH1 0x20 DUP3 ADD SWAP1 POP PUSH2 0x41CB PUSH1 0x0 DUP4 ADD DUP5 PUSH2 0x41A7 JUMP JUMPDEST SWAP3 SWAP2 POP POP JUMP JUMPDEST PUSH2 0x41DA DUP2 PUSH2 0x4195 JUMP JUMPDEST DUP2 EQ PUSH2 0x41E5 JUMPI PUSH1 0x0 DUP1 REVERT JUMPDEST POP JUMP JUMPDEST PUSH1 0x0 DUP2 CALLDATALOAD SWAP1 POP PUSH2 0x41F7 DUP2 PUSH2 0x41D1 JUMP JUMPDEST SWAP3 SWAP2 POP POP JUMP JUMPDEST PUSH1 0x0 DUP1 PUSH1 0x40 DUP4 DUP6 SUB SLT ISZERO PUSH2 0x4214 JUMPI PUSH2 0x4213 PUSH2 0x3F9B JUMP JUMPDEST JUMPDEST PUSH1 0x0 PUSH2 0x4222 DUP6 DUP3 DUP7 ADD PUSH2 0x41E8 JUMP JUMPDEST SWAP3 POP POP PUSH1 0x20 PUSH2 0x4233 DUP6 DUP3 DUP7 ADD PUSH2 0x4133 JUMP JUMPDEST SWAP2 POP POP SWAP3 POP SWAP3 SWAP1 POP JUMP JUMPDEST PUSH2 0x4246 DUP2 PUSH2 0x4112 JUMP JUMPDEST DUP3 MSTORE POP POP JUMP JUMPDEST PUSH1 0x0 PUSH1 0x20 DUP3 ADD SWAP1 POP PUSH2 0x4261 PUSH1 0x0 DUP4 ADD DUP5 PUSH2 0x423D JUMP JUMPDEST SWAP3 SWAP2 POP POP JUMP JUMPDEST PUSH32 0x4E487B7100000000000000000000000000000000000000000000000000000000 PUSH1 0x0 MSTORE PUSH1 0x21 PUSH1 0x4 MSTORE PUSH1 0x24 PUSH1 0x0 REVERT JUMPDEST PUSH1 0x3 DUP2 LT PUSH2 0x42A7 JUMPI PUSH2 0x42A6 PUSH2 0x4267 JUMP JUMPDEST JUMPDEST POP JUMP JUMPDEST PUSH1 0x0 DUP2 SWAP1 POP PUSH2 0x42B8 DUP3 PUSH2 0x4296 JUMP JUMPDEST SWAP2 SWAP1 POP JUMP JUMPDEST PUSH1 0x0 PUSH2 0x42C8 DUP3 PUSH2 0x42AA JUMP JUMPDEST SWAP1 POP SWAP2 SWAP1 POP JUMP JUMPDEST PUSH2 0x42D8 DUP2 PUSH2 0x42BD JUMP JUMPDEST DUP3 MSTORE POP POP JUMP JUMPDEST PUSH2 0x42E7 DUP2 PUSH2 0x4112 JUMP JUMPDEST DUP3 MSTORE POP POP JUMP JUMPDEST PUSH1 0x0 DUP2 SWAP1 POP SWAP2 SWAP1 POP JUMP JUMPDEST PUSH2 0x4300 DUP2 PUSH2 0x42ED JUMP JUMPDEST DUP3 MSTORE POP POP JUMP JUMPDEST PUSH2 0x100 DUP3 ADD PUSH1 0x0 DUP3 ADD MLOAD PUSH2 0x431D PUSH1 0x0 DUP6 ADD DUP3 PUSH2 0x42CF JUMP JUMPDEST POP PUSH1 0x20 DUP3 ADD MLOAD PUSH2 0x4330 PUSH1 0x20 DUP6 ADD DUP3 PUSH2 0x42DE JUMP JUMPDEST POP PUSH1 0x40 DUP3 ADD MLOAD PUSH2 0x4343 PUSH1 0x40 DUP6 ADD DUP3 PUSH2 0x42DE JUMP JUMPDEST POP PUSH1 0x60 DUP3 ADD MLOAD PUSH2 0x4356 PUSH1 0x60 DUP6 ADD DUP3 PUSH2 0x42DE JUMP JUMPDEST POP PUSH1 0x80 DUP3 ADD MLOAD PUSH2 0x4369 PUSH1 0x80 DUP6 ADD DUP3 PUSH2 0x42DE JUMP JUMPDEST POP PUSH1 0xA0 DUP3 ADD MLOAD PUSH2 0x437C PUSH1 0xA0 DUP6 ADD DUP3 PUSH2 0x42DE JUMP JUMPDEST POP PUSH1 0xC0 DUP3 ADD MLOAD PUSH2 0x438F PUSH1 0xC0 DUP6 ADD DUP3 PUSH2 0x42DE JUMP JUMPDEST POP PUSH1 0xE0 DUP3 ADD MLOAD PUSH2 0x43A2 PUSH1 0xE0 DUP6 ADD DUP3 PUSH2 0x42F7 JUMP JUMPDEST POP POP POP POP JUMP JUMPDEST PUSH1 0x0 PUSH2 0x120 DUP3 ADD SWAP1 POP PUSH2 0x43BE PUSH1 0x0 DUP4 ADD DUP6 PUSH2 0x423D JUMP JUMPDEST PUSH2 0x43CB PUSH1 0x20 DUP4 ADD DUP5 PUSH2 0x4306 JUMP JUMPDEST SWAP4 SWAP3 POP POP POP JUMP JUMPDEST PUSH1 0x0 DUP1 PUSH1 0x0 PUSH1 0x60 DUP5 DUP7 SUB SLT ISZERO PUSH2 0x43EB JUMPI PUSH2 0x43EA PUSH2 0x3F9B JUMP JUMPDEST JUMPDEST PUSH1 0x0 PUSH2 0x43F9 DUP7 DUP3 DUP8 ADD PUSH2 0x41E8 JUMP JUMPDEST SWAP4 POP POP PUSH1 0x20 PUSH2 0x440A DUP7 DUP3 DUP8 ADD PUSH2 0x41E8 JUMP JUMPDEST SWAP3 POP POP PUSH1 0x40 PUSH2 0x441B DUP7 DUP3 DUP8 ADD PUSH2 0x4133 JUMP JUMPDEST SWAP2 POP POP SWAP3 POP SWAP3 POP SWAP3 JUMP JUMPDEST PUSH1 0x0 DUP1 PUSH1 0x40 DUP4 DUP6 SUB SLT ISZERO PUSH2 0x443C JUMPI PUSH2 0x443B PUSH2 0x3F9B JUMP JUMPDEST JUMPDEST PUSH1 0x0 PUSH2 0x444A DUP6 DUP3 DUP7 ADD PUSH2 0x4133 JUMP JUMPDEST SWAP3 POP POP PUSH1 0x20 PUSH2 0x445B DUP6 DUP3 DUP7 ADD PUSH2 0x4133 JUMP JUMPDEST SWAP2 POP POP SWAP3 POP SWAP3 SWAP1 POP JUMP JUMPDEST PUSH1 0x0 PUSH1 0x40 DUP3 ADD SWAP1 POP PUSH2 0x447A PUSH1 0x0 DUP4 ADD DUP6 PUSH2 0x41A7 JUMP JUMPDEST PUSH2 0x4487 PUSH1 0x20 DUP4 ADD DUP5 PUSH2 0x423D JUMP JUMPDEST SWAP4 SWAP3 POP POP POP JUMP JUMPDEST PUSH2 0x4497 DUP2 PUSH2 0x42BD JUMP JUMPDEST DUP3 MSTORE POP POP JUMP JUMPDEST PUSH2 0x44A6 DUP2 PUSH2 0x42ED JUMP JUMPDEST DUP3 MSTORE POP POP JUMP JUMPDEST PUSH1 0x0 PUSH2 0x100 DUP3 ADD SWAP1 POP PUSH2 0x44C2 PUSH1 0x0 DUP4 ADD DUP12 PUSH2 0x448E JUMP JUMPDEST PUSH2 0x44CF PUSH1 0x20 DUP4 ADD DUP11 PUSH2 0x423D JUMP JUMPDEST PUSH2 0x44DC PUSH1 0x40 DUP4 ADD DUP10 PUSH2 0x423D JUMP JUMPDEST PUSH2 0x44E9 PUSH1 0x60 DUP4 ADD DUP9 PUSH2 0x423D JUMP JUMPDEST PUSH2 0x44F6 PUSH1 0x80 DUP4 ADD DUP8 PUSH2 0x423D JUMP JUMPDEST PUSH2 0x4503 PUSH1 0xA0 DUP4 ADD DUP7 PUSH2 0x423D JUMP JUMPDEST PUSH2 0x4510 PUSH1 0xC0 DUP4 ADD DUP6 PUSH2 0x423D JUMP JUMPDEST PUSH2 0x451D PUSH1 0xE0 DUP4 ADD DUP5 PUSH2 0x449D JUMP JUMPDEST SWAP10 SWAP9 POP POP POP POP POP POP POP POP POP JUMP JUMPDEST PUSH1 0x3 DUP2 LT PUSH2 0x4537 JUMPI PUSH1 0x0 DUP1 REVERT JUMPDEST POP JUMP JUMPDEST PUSH1 0x0 DUP2 CALLDATALOAD SWAP1 POP PUSH2 0x4549 DUP2 PUSH2 0x452A JUMP JUMPDEST SWAP3 SWAP2 POP POP JUMP JUMPDEST PUSH2 0x4558 DUP2 PUSH2 0x42ED JUMP JUMPDEST DUP2 EQ PUSH2 0x4563 JUMPI PUSH1 0x0 DUP1 REVERT JUMPDEST POP JUMP JUMPDEST PUSH1 0x0 DUP2 CALLDATALOAD SWAP1 POP PUSH2 0x4575 DUP2 PUSH2 0x454F JUMP JUMPDEST SWAP3 SWAP2 POP POP JUMP JUMPDEST PUSH1 0x0 DUP1 PUSH1 0x0 DUP1 PUSH1 0x0 DUP1 PUSH1 0x0 PUSH1 0xE0 DUP9 DUP11 SUB SLT ISZERO PUSH2 0x459A JUMPI PUSH2 0x4599 PUSH2 0x3F9B JUMP JUMPDEST JUMPDEST PUSH1 0x0 PUSH2 0x45A8 DUP11 DUP3 DUP12 ADD PUSH2 0x453A JUMP JUMPDEST SWAP8 POP POP PUSH1 0x20 PUSH2 0x45B9 DUP11 DUP3 DUP12 ADD PUSH2 0x4133 JUMP JUMPDEST SWAP7 POP POP PUSH1 0x40 PUSH2 0x45CA DUP11 DUP3 DUP12 ADD PUSH2 0x4133 JUMP JUMPDEST SWAP6 POP POP PUSH1 0x60 PUSH2 0x45DB DUP11 DUP3 DUP12 ADD PUSH2 0x4133 JUMP JUMPDEST SWAP5 POP POP PUSH1 0x80 PUSH2 0x45EC DUP11 DUP3 DUP12 ADD PUSH2 0x4133 JUMP JUMPDEST SWAP4 POP POP PUSH1 0xA0 PUSH2 0x45FD DUP11 DUP3 DUP12 ADD PUSH2 0x4133 JUMP JUMPDEST SWAP3 POP POP PUSH1 0xC0 PUSH2 0x460E DUP11 DUP3 DUP12 ADD PUSH2 0x4566 JUMP JUMPDEST SWAP2 POP POP SWAP3 SWAP6 SWAP9 SWAP2 SWAP5 SWAP8 POP SWAP3 SWAP6 POP JUMP JUMPDEST PUSH1 0x0 PUSH1 0x20 DUP3 DUP5 SUB SLT ISZERO PUSH2 0x4633 JUMPI PUSH2 0x4632 PUSH2 0x3F9B JUMP JUMPDEST JUMPDEST PUSH1 0x0 PUSH2 0x4641 DUP5 DUP3 DUP6 ADD PUSH2 0x41E8 JUMP JUMPDEST SWAP2 POP POP SWAP3 SWAP2 POP POP JUMP JUMPDEST PUSH1 0x0 DUP2 MLOAD SWAP1 POP SWAP2 SWAP1 POP JUMP JUMPDEST PUSH1 0x0 DUP3 DUP3 MSTORE PUSH1 0x20 DUP3 ADD SWAP1 POP SWAP3 SWAP2 POP POP JUMP JUMPDEST PUSH1 0x0 DUP2 SWAP1 POP PUSH1 0x20 DUP3 ADD SWAP1 POP SWAP2 SWAP1 POP JUMP JUMPDEST PUSH1 0x0 PUSH2 0x4682 DUP4 DUP4 PUSH2 0x42DE JUMP JUMPDEST PUSH1 0x20 DUP4 ADD SWAP1 POP SWAP3 SWAP2 POP POP JUMP JUMPDEST PUSH1 0x0 PUSH1 0x20 DUP3 ADD SWAP1 POP SWAP2 SWAP1 POP JUMP JUMPDEST PUSH1 0x0 PUSH2 0x46A6 DUP3 PUSH2 0x464A JUMP JUMPDEST PUSH2 0x46B0 DUP2 DUP6 PUSH2 0x4655 JUMP JUMPDEST SWAP4 POP PUSH2 0x46BB DUP4 PUSH2 0x4666 JUMP JUMPDEST DUP1 PUSH1 0x0 JUMPDEST DUP4 DUP2 LT ISZERO PUSH2 0x46EC JUMPI DUP2 MLOAD PUSH2 0x46D3 DUP9 DUP3 PUSH2 0x4676 JUMP JUMPDEST SWAP8 POP PUSH2 0x46DE DUP4 PUSH2 0x468E JUMP JUMPDEST SWAP3 POP POP PUSH1 0x1 DUP2 ADD SWAP1 POP PUSH2 0x46BF JUMP JUMPDEST POP DUP6 SWAP4 POP POP POP POP SWAP3 SWAP2 POP POP JUMP JUMPDEST PUSH1 0x0 PUSH1 0x20 DUP3 ADD SWAP1 POP DUP2 DUP2 SUB PUSH1 0x0 DUP4 ADD MSTORE PUSH2 0x4713 DUP2 DUP5 PUSH2 0x469B JUMP JUMPDEST SWAP1 POP SWAP3 SWAP2 POP POP JUMP JUMPDEST PUSH1 0x0 PUSH32 0xFF00000000000000000000000000000000000000000000000000000000000000 DUP3 AND SWAP1 POP SWAP2 SWAP1 POP JUMP JUMPDEST PUSH2 0x4750 DUP2 PUSH2 0x471B JUMP JUMPDEST DUP3 MSTORE POP POP JUMP JUMPDEST PUSH1 0x0 PUSH1 0xE0 DUP3 ADD SWAP1 POP PUSH2 0x476B PUSH1 0x0 DUP4 ADD DUP11 PUSH2 0x4747 JUMP JUMPDEST DUP2 DUP2 SUB PUSH1 0x20 DUP4 ADD MSTORE PUSH2 0x477D DUP2 DUP10 PUSH2 0x40B7 JUMP JUMPDEST SWAP1 POP DUP2 DUP2 SUB PUSH1 0x40 DUP4 ADD MSTORE PUSH2 0x4791 DUP2 DUP9 PUSH2 0x40B7 JUMP JUMPDEST SWAP1 POP PUSH2 0x47A0 PUSH1 0x60 DUP4 ADD DUP8 PUSH2 0x423D JUMP JUMPDEST PUSH2 0x47AD PUSH1 0x80 DUP4 ADD DUP7 PUSH2 0x41A7 JUMP JUMPDEST PUSH2 0x47BA PUSH1 0xA0 DUP4 ADD DUP6 PUSH2 0x449D JUMP JUMPDEST DUP2 DUP2 SUB PUSH1 0xC0 DUP4 ADD MSTORE PUSH2 0x47CC DUP2 DUP5 PUSH2 0x469B JUMP JUMPDEST SWAP1 POP SWAP9 SWAP8 POP POP POP POP POP POP POP POP JUMP JUMPDEST PUSH1 0x0 DUP1 REVERT JUMPDEST PUSH1 0x0 DUP1 REVERT JUMPDEST PUSH1 0x0 DUP1 REVERT JUMPDEST PUSH1 0x0 DUP1 DUP4 PUSH1 0x1F DUP5 ADD SLT PUSH2 0x47FF JUMPI PUSH2 0x47FE PUSH2 0x47DA JUMP JUMPDEST JUMPDEST DUP3 CALLDATALOAD SWAP1 POP PUSH8 0xFFFFFFFFFFFFFFFF DUP2 GT ISZERO PUSH2 0x481C JUMPI PUSH2 0x481B PUSH2 0x47DF JUMP JUMPDEST JUMPDEST PUSH1 0x20 DUP4 ADD SWAP2 POP DUP4 PUSH1 0x1 DUP3 MUL DUP4 ADD GT ISZERO PUSH2 0x4838 JUMPI PUSH2 0x4837 PUSH2 0x47E4 JUMP JUMPDEST JUMPDEST SWAP3 POP SWAP3 SWAP1 POP JUMP JUMPDEST PUSH1 0x0 DUP1 DUP4 PUSH1 0x1F DUP5 ADD SLT PUSH2 0x4855 JUMPI PUSH2 0x4854 PUSH2 0x47DA JUMP JUMPDEST JUMPDEST DUP3 CALLDATALOAD SWAP1 POP PUSH8 0xFFFFFFFFFFFFFFFF DUP2 GT ISZERO PUSH2 0x4872 JUMPI PUSH2 0x4871 PUSH2 0x47DF JUMP JUMPDEST JUMPDEST PUSH1 0x20 DUP4 ADD SWAP2 POP DUP4 PUSH1 0x1 DUP3 MUL DUP4 ADD GT ISZERO PUSH2 0x488E JUMPI PUSH2 0x488D PUSH2 0x47E4 JUMP JUMPDEST JUMPDEST SWAP3 POP SWAP3 SWAP1 POP JUMP JUMPDEST PUSH1 0x0 DUP1 DUP4 PUSH1 0x1F DUP5 ADD SLT PUSH2 0x48AB JUMPI PUSH2 0x48AA PUSH2 0x47DA JUMP JUMPDEST JUMPDEST DUP3 CALLDATALOAD SWAP1 POP PUSH8 0xFFFFFFFFFFFFFFFF DUP2 GT ISZERO PUSH2 0x48C8 JUMPI PUSH2 0x48C7 PUSH2 0x47DF JUMP JUMPDEST JUMPDEST PUSH1 0x20 DUP4 ADD SWAP2 POP DUP4 PUSH1 0x20 DUP3 MUL DUP4 ADD GT ISZERO PUSH2 0x48E4 JUMPI PUSH2 0x48E3 PUSH2 0x47E4 JUMP JUMPDEST JUMPDEST SWAP3 POP SWAP3 SWAP1 POP JUMP JUMPDEST PUSH1 0x0 DUP1 PUSH1 0x0 DUP1 PUSH1 0x0 DUP1 PUSH1 0x0 DUP1 PUSH1 0x0 PUSH1 0xC0 DUP11 DUP13 SUB SLT ISZERO PUSH2 0x490D JUMPI PUSH2 0x490C PUSH2 0x3F9B JUMP JUMPDEST JUMPDEST PUSH1 0x0 PUSH2 0x491B DUP13 DUP3 DUP14 ADD PUSH2 0x4133 JUMP JUMPDEST SWAP10 POP POP PUSH1 0x20 DUP11 ADD CALLDATALOAD PUSH8 0xFFFFFFFFFFFFFFFF DUP2 GT ISZERO PUSH2 0x493C JUMPI PUSH2 0x493B PUSH2 0x3FA0 JUMP JUMPDEST JUMPDEST PUSH2 0x4948 DUP13 DUP3 DUP14 ADD PUSH2 0x47E9 JUMP JUMPDEST SWAP9 POP SWAP9 POP POP PUSH1 0x40 PUSH2 0x495B DUP13 DUP3 DUP14 ADD PUSH2 0x4566 JUMP JUMPDEST SWAP7 POP POP PUSH1 0x60 PUSH2 0x496C DUP13 DUP3 DUP14 ADD PUSH2 0x4133 JUMP JUMPDEST SWAP6 POP POP PUSH1 0x80 DUP11 ADD CALLDATALOAD PUSH8 0xFFFFFFFFFFFFFFFF DUP2 GT ISZERO PUSH2 0x498D JUMPI PUSH2 0x498C PUSH2 0x3FA0 JUMP JUMPDEST JUMPDEST PUSH2 0x4999 DUP13 DUP3 DUP14 ADD PUSH2 0x483F JUMP JUMPDEST SWAP5 POP SWAP5 POP POP PUSH1 0xA0 DUP11 ADD CALLDATALOAD PUSH8 0xFFFFFFFFFFFFFFFF DUP2 GT ISZERO PUSH2 0x49BC JUMPI PUSH2 0x49BB PUSH2 0x3FA0 JUMP JUMPDEST JUMPDEST PUSH2 0x49C8 DUP13 DUP3 DUP14 ADD PUSH2 0x4895 JUMP JUMPDEST SWAP3 POP SWAP3 POP POP SWAP3 SWAP6 SWAP9 POP SWAP3 SWAP6 SWAP9 POP SWAP3 SWAP6 SWAP9 JUMP JUMPDEST PUSH2 0x49E3 DUP2 PUSH2 0x402A JUMP JUMPDEST DUP2 EQ PUSH2 0x49EE JUMPI PUSH1 0x0 DUP1 REVERT JUMPDEST POP JUMP JUMPDEST PUSH1 0x0 DUP2 CALLDATALOAD SWAP1 POP PUSH2 0x4A00 DUP2 PUSH2 0x49DA JUMP JUMPDEST SWAP3 SWAP2 POP POP JUMP JUMPDEST PUSH1 0x0 DUP1 PUSH1 0x40 DUP4 DUP6 SUB SLT ISZERO PUSH2 0x4A1D JUMPI PUSH2 0x4A1C PUSH2 0x3F9B JUMP JUMPDEST JUMPDEST PUSH1 0x0 PUSH2 0x4A2B DUP6 DUP3 DUP7 ADD PUSH2 0x41E8 JUMP JUMPDEST SWAP3 POP POP PUSH1 0x20 PUSH2 0x4A3C DUP6 DUP3 DUP7 ADD PUSH2 0x49F1 JUMP JUMPDEST SWAP2 POP POP SWAP3 POP SWAP3 SWAP1 POP JUMP JUMPDEST PUSH1 0x0 DUP1 REVERT JUMPDEST PUSH32 0x4E487B7100000000000000000000000000000000000000000000000000000000 PUSH1 0x0 MSTORE PUSH1 0x41 PUSH1 0x4 MSTORE PUSH1 0x24 PUSH1 0x0 REVERT JUMPDEST PUSH2 0x4A83 DUP3 PUSH2 0x40A6 JUMP JUMPDEST DUP2 ADD DUP2 DUP2 LT PUSH8 0xFFFFFFFFFFFFFFFF DUP3 GT OR ISZERO PUSH2 0x4AA2 JUMPI PUSH2 0x4AA1 PUSH2 0x4A4B JUMP JUMPDEST JUMPDEST DUP1 PUSH1 0x40 MSTORE POP POP POP JUMP JUMPDEST PUSH1 0x0 PUSH2 0x4AB5 PUSH2 0x3F91 JUMP JUMPDEST SWAP1 POP PUSH2 0x4AC1 DUP3 DUP3 PUSH2 0x4A7A JUMP JUMPDEST SWAP2 SWAP1 POP JUMP JUMPDEST PUSH1 0x0 PUSH8 0xFFFFFFFFFFFFFFFF DUP3 GT ISZERO PUSH2 0x4AE1 JUMPI PUSH2 0x4AE0 PUSH2 0x4A4B JUMP JUMPDEST JUMPDEST PUSH2 0x4AEA DUP3 PUSH2 0x40A6 JUMP JUMPDEST SWAP1 POP PUSH1 0x20 DUP2 ADD SWAP1 POP SWAP2 SWAP1 POP JUMP JUMPDEST DUP3 DUP2 DUP4 CALLDATACOPY PUSH1 0x0 DUP4 DUP4 ADD MSTORE POP POP POP JUMP JUMPDEST PUSH1 0x0 PUSH2 0x4B19 PUSH2 0x4B14 DUP5 PUSH2 0x4AC6 JUMP JUMPDEST PUSH2 0x4AAB JUMP JUMPDEST SWAP1 POP DUP3 DUP2 MSTORE PUSH1 0x20 DUP2 ADD DUP5 DUP5 DUP5 ADD GT ISZERO PUSH2 0x4B35 JUMPI PUSH2 0x4B34 PUSH2 0x4A46 JUMP JUMPDEST JUMPDEST PUSH2 0x4B40 DUP5 DUP3 DUP6 PUSH2 0x4AF7 JUMP JUMPDEST POP SWAP4 SWAP3 POP POP POP JUMP JUMPDEST PUSH1 0x0 DUP3 PUSH1 0x1F DUP4 ADD SLT PUSH2 0x4B5D JUMPI PUSH2 0x4B5C PUSH2 0x47DA JUMP JUMPDEST JUMPDEST DUP2 CALLDATALOAD PUSH2 0x4B6D DUP5 DUP3 PUSH1 0x20 DUP7 ADD PUSH2 0x4B06 JUMP JUMPDEST SWAP2 POP POP SWAP3 SWAP2 POP POP JUMP JUMPDEST PUSH1 0x0 DUP1 PUSH1 0x0 DUP1 PUSH1 0x80 DUP6 DUP8 SUB SLT ISZERO PUSH2 0x4B90 JUMPI PUSH2 0x4B8F PUSH2 0x3F9B JUMP JUMPDEST JUMPDEST PUSH1 0x0 PUSH2 0x4B9E DUP8 DUP3 DUP9 ADD PUSH2 0x41E8 JUMP JUMPDEST SWAP5 POP POP PUSH1 0x20 PUSH2 0x4BAF DUP8 DUP3 DUP9 ADD PUSH2 0x41E8 JUMP JUMPDEST SWAP4 POP POP PUSH1 0x40 PUSH2 0x4BC0 DUP8 DUP3 DUP9 ADD PUSH2 0x4133 JUMP JUMPDEST SWAP3 POP POP PUSH1 0x60 DUP6 ADD CALLDATALOAD PUSH8 0xFFFFFFFFFFFFFFFF DUP2 GT ISZERO PUSH2 0x4BE1 JUMPI PUSH2 0x4BE0 PUSH2 0x3FA0 JUMP JUMPDEST JUMPDEST PUSH2 0x4BED DUP8 DUP3 DUP9 ADD PUSH2 0x4B48 JUMP JUMPDEST SWAP2 POP POP SWAP3 SWAP6 SWAP2 SWAP5 POP SWAP3 POP JUMP JUMPDEST PUSH1 0x0 PUSH12 0xFFFFFFFFFFFFFFFFFFFFFFFF DUP3 AND SWAP1 POP SWAP2 SWAP1 POP JUMP JUMPDEST PUSH2 0x4C1A DUP2 PUSH2 0x4BF9 JUMP JUMPDEST DUP3 MSTORE POP POP JUMP JUMPDEST PUSH1 0x0 PUSH1 0x20 DUP3 ADD SWAP1 POP PUSH2 0x4C35 PUSH1 0x0 DUP4 ADD DUP5 PUSH2 0x4C11 JUMP JUMPDEST SWAP3 SWAP2 POP POP JUMP JUMPDEST PUSH1 0x0 DUP1 PUSH1 0x40 DUP4 DUP6 SUB SLT ISZERO PUSH2 0x4C52 JUMPI PUSH2 0x4C51 PUSH2 0x3F9B JUMP JUMPDEST JUMPDEST PUSH1 0x0 PUSH2 0x4C60 DUP6 DUP3 DUP7 ADD PUSH2 0x41E8 JUMP JUMPDEST SWAP3 POP POP PUSH1 0x20 PUSH2 0x4C71 DUP6 DUP3 DUP7 ADD PUSH2 0x41E8 JUMP JUMPDEST SWAP2 POP POP SWAP3 POP SWAP3 SWAP1 POP JUMP JUMPDEST PUSH1 0x0 PUSH1 0x20 DUP3 ADD SWAP1 POP PUSH2 0x4C90 PUSH1 0x0 DUP4 ADD DUP5 PUSH2 0x449D JUMP JUMPDEST SWAP3 SWAP2 POP POP JUMP JUMPDEST PUSH1 0x0 DUP1 PUSH1 0x40 DUP4 DUP6 SUB SLT ISZERO PUSH2 0x4CAD JUMPI PUSH2 0x4CAC PUSH2 0x3F9B JUMP JUMPDEST JUMPDEST PUSH1 0x0 PUSH2 0x4CBB DUP6 DUP3 DUP7 ADD PUSH2 0x41E8 JUMP JUMPDEST SWAP3 POP POP PUSH1 0x20 PUSH2 0x4CCC DUP6 DUP3 DUP7 ADD PUSH2 0x453A JUMP JUMPDEST SWAP2 POP POP SWAP3 POP SWAP3 SWAP1 POP JUMP JUMPDEST PUSH32 0x4E487B7100000000000000000000000000000000000000000000000000000000 PUSH1 0x0 MSTORE PUSH1 0x22 PUSH1 0x4 MSTORE PUSH1 0x24 PUSH1 0x0 REVERT JUMPDEST PUSH1 0x0 PUSH1 0x2 DUP3 DIV SWAP1 POP PUSH1 0x1 DUP3 AND DUP1 PUSH2 0x4D1D JUMPI PUSH1 0x7F DUP3 AND SWAP2 POP JUMPDEST PUSH1 0x20 DUP3 LT DUP2 SUB PUSH2 0x4D30 JUMPI PUSH2 0x4D2F PUSH2 0x4CD6 JUMP JUMPDEST JUMPDEST POP SWAP2 SWAP1 POP JUMP JUMPDEST PUSH32 0x4E487B7100000000000000000000000000000000000000000000000000000000 PUSH1 0x0 MSTORE PUSH1 0x32 PUSH1 0x4 MSTORE PUSH1 0x24 PUSH1 0x0 REVERT JUMPDEST PUSH1 0x0 PUSH1 0x60 DUP3 ADD SWAP1 POP PUSH2 0x4D7A PUSH1 0x0 DUP4 ADD DUP7 PUSH2 0x41A7 JUMP JUMPDEST PUSH2 0x4D87 PUSH1 0x20 DUP4 ADD DUP6 PUSH2 0x423D JUMP JUMPDEST PUSH2 0x4D94 PUSH1 0x40 DUP4 ADD DUP5 PUSH2 0x41A7 JUMP JUMPDEST SWAP5 SWAP4 POP POP POP POP JUMP JUMPDEST PUSH32 0x4E487B7100000000000000000000000000000000000000000000000000000000 PUSH1 0x0 MSTORE PUSH1 0x11 PUSH1 0x4 MSTORE PUSH1 0x24 PUSH1 0x0 REVERT JUMPDEST PUSH1 0x0 PUSH2 0x4DD6 DUP3 PUSH2 0x4112 JUMP JUMPDEST SWAP2 POP PUSH2 0x4DE1 DUP4 PUSH2 0x4112 JUMP JUMPDEST SWAP3 POP DUP3 DUP3 MUL PUSH2 0x4DEF DUP2 PUSH2 0x4112 JUMP JUMPDEST SWAP2 POP DUP3 DUP3 DIV DUP5 EQ DUP4 ISZERO OR PUSH2 0x4E06 JUMPI PUSH2 0x4E05 PUSH2 0x4D9C JUMP JUMPDEST JUMPDEST POP SWAP3 SWAP2 POP POP JUMP JUMPDEST PUSH32 0x4E487B7100000000000000000000000000000000000000000000000000000000 PUSH1 0x0 MSTORE PUSH1 0x12 PUSH1 0x4 MSTORE PUSH1 0x24 PUSH1 0x0 REVERT JUMPDEST PUSH1 0x0 PUSH2 0x4E47 DUP3 PUSH2 0x4112 JUMP JUMPDEST SWAP2 POP PUSH2 0x4E52 DUP4 PUSH2 0x4112 JUMP JUMPDEST SWAP3 POP DUP3 PUSH2 0x4E62 JUMPI PUSH2 0x4E61 PUSH2 0x4E0D JUMP JUMPDEST JUMPDEST DUP3 DUP3 DIV SWAP1 POP SWAP3 SWAP2 POP POP JUMP JUMPDEST PUSH32 0x496E76616C69642074696D652072616E67650000000000000000000000000000 PUSH1 0x0 DUP3 ADD MSTORE POP JUMP JUMPDEST PUSH1 0x0 PUSH2 0x4EA3 PUSH1 0x12 DUP4 PUSH2 0x406B JUMP JUMPDEST SWAP2 POP PUSH2 0x4EAE DUP3 PUSH2 0x4E6D JUMP JUMPDEST PUSH1 0x20 DUP3 ADD SWAP1 POP SWAP2 SWAP1 POP JUMP JUMPDEST PUSH1 0x0 PUSH1 0x20 DUP3 ADD SWAP1 POP DUP2 DUP2 SUB PUSH1 0x0 DUP4 ADD MSTORE PUSH2 0x4ED2 DUP2 PUSH2 0x4E96 JUMP JUMPDEST SWAP1 POP SWAP2 SWAP1 POP JUMP JUMPDEST PUSH32 0x496E76616C6964206D6178207065722077616C6C657420666F72206E6F6E2D70 PUSH1 0x0 DUP3 ADD MSTORE PUSH32 0x75626C6963207068617365000000000000000000000000000000000000000000 PUSH1 0x20 DUP3 ADD MSTORE POP JUMP JUMPDEST PUSH1 0x0 PUSH2 0x4F35 PUSH1 0x2B DUP4 PUSH2 0x406B JUMP JUMPDEST SWAP2 POP PUSH2 0x4F40 DUP3 PUSH2 0x4ED9 JUMP JUMPDEST PUSH1 0x40 DUP3 ADD SWAP1 POP SWAP2 SWAP1 POP JUMP JUMPDEST PUSH1 0x0 PUSH1 0x20 DUP3 ADD SWAP1 POP DUP2 DUP2 SUB PUSH1 0x0 DUP4 ADD MSTORE PUSH2 0x4F64 DUP2 PUSH2 0x4F28 JUMP JUMPDEST SWAP1 POP SWAP2 SWAP1 POP JUMP JUMPDEST PUSH32 0x4D65726B6C6520726F6F7420726571756972656420666F722077686974656C69 PUSH1 0x0 DUP3 ADD MSTORE PUSH32 0x7374207068617365000000000000000000000000000000000000000000000000 PUSH1 0x20 DUP3 ADD MSTORE POP JUMP JUMPDEST PUSH1 0x0 PUSH2 0x4FC7 PUSH1 0x28 DUP4 PUSH2 0x406B JUMP JUMPDEST SWAP2 POP PUSH2 0x4FD2 DUP3 PUSH2 0x4F6B JUMP JUMPDEST PUSH1 0x40 DUP3 ADD SWAP1 POP SWAP2 SWAP1 POP JUMP JUMPDEST PUSH1 0x0 PUSH1 0x20 DUP3 ADD SWAP1 POP DUP2 DUP2 SUB PUSH1 0x0 DUP4 ADD MSTORE PUSH2 0x4FF6 DUP2 PUSH2 0x4FBA JUMP JUMPDEST SWAP1 POP SWAP2 SWAP1 POP JUMP JUMPDEST PUSH32 0x50686173652074696D65206F7665726C6170732077697468206578697374696E PUSH1 0x0 DUP3 ADD MSTORE PUSH32 0x6720706861736500000000000000000000000000000000000000000000000000 PUSH1 0x20 DUP3 ADD MSTORE POP JUMP JUMPDEST PUSH1 0x0 PUSH2 0x5059 PUSH1 0x27 DUP4 PUSH2 0x406B JUMP JUMPDEST SWAP2 POP PUSH2 0x5064 DUP3 PUSH2 0x4FFD JUMP JUMPDEST PUSH1 0x40 DUP3 ADD SWAP1 POP SWAP2 SWAP1 POP JUMP JUMPDEST PUSH1 0x0 PUSH1 0x20 DUP3 ADD SWAP1 POP DUP2 DUP2 SUB PUSH1 0x0 DUP4 ADD MSTORE PUSH2 0x5088 DUP2 PUSH2 0x504C JUMP JUMPDEST SWAP1 POP SWAP2 SWAP1 POP JUMP JUMPDEST PUSH1 0x0 PUSH1 0x40 DUP3 ADD SWAP1 POP PUSH2 0x50A4 PUSH1 0x0 DUP4 ADD DUP6 PUSH2 0x448E JUMP JUMPDEST PUSH2 0x50B1 PUSH1 0x20 DUP4 ADD DUP5 PUSH2 0x423D JUMP JUMPDEST SWAP4 SWAP3 POP POP POP JUMP JUMPDEST PUSH1 0x0 DUP2 PUSH1 0x60 SHL SWAP1 POP SWAP2 SWAP1 POP JUMP JUMPDEST PUSH1 0x0 PUSH2 0x50D0 DUP3 PUSH2 0x50B8 JUMP JUMPDEST SWAP1 POP SWAP2 SWAP1 POP JUMP JUMPDEST PUSH1 0x0 PUSH2 0x50E2 DUP3 PUSH2 0x50C5 JUMP JUMPDEST SWAP1 POP SWAP2 SWAP1 POP JUMP JUMPDEST PUSH2 0x50FA PUSH2 0x50F5 DUP3 PUSH2 0x4195 JUMP JUMPDEST PUSH2 0x50D7 JUMP JUMPDEST DUP3 MSTORE POP POP JUMP JUMPDEST PUSH1 0x0 PUSH2 0x510C DUP3 DUP5 PUSH2 0x50E9 JUMP JUMPDEST PUSH1 0x14 DUP3 ADD SWAP2 POP DUP2 SWAP1 POP SWAP3 SWAP2 POP POP JUMP JUMPDEST PUSH32 0x4E6F742077686974656C697374656420666F7220746869732070686173650000 PUSH1 0x0 DUP3 ADD MSTORE POP JUMP JUMPDEST PUSH1 0x0 PUSH2 0x5151 PUSH1 0x1E DUP4 PUSH2 0x406B JUMP JUMPDEST SWAP2 POP PUSH2 0x515C DUP3 PUSH2 0x511B JUMP JUMPDEST PUSH1 0x20 DUP3 ADD SWAP1 POP SWAP2 SWAP1 POP JUMP JUMPDEST PUSH1 0x0 PUSH1 0x20 DUP3 ADD SWAP1 POP DUP2 DUP2 SUB PUSH1 0x0 DUP4 ADD MSTORE PUSH2 0x5180 DUP2 PUSH2 0x5144 JUMP JUMPDEST SWAP1 POP SWAP2 SWAP1 POP JUMP JUMPDEST PUSH1 0x0 PUSH2 0x5192 DUP3 PUSH2 0x4112 JUMP JUMPDEST SWAP2 POP PUSH2 0x519D DUP4 PUSH2 0x4112 JUMP JUMPDEST SWAP3 POP DUP3 DUP3 ADD SWAP1 POP DUP1 DUP3 GT ISZERO PUSH2 0x51B5 JUMPI PUSH2 0x51B4 PUSH2 0x4D9C JUMP JUMPDEST JUMPDEST SWAP3 SWAP2 POP POP JUMP JUMPDEST PUSH32 0x5369676E61747572652065787069726564000000000000000000000000000000 PUSH1 0x0 DUP3 ADD MSTORE POP JUMP JUMPDEST PUSH1 0x0 PUSH2 0x51F1 PUSH1 0x11 DUP4 PUSH2 0x406B JUMP JUMPDEST SWAP2 POP PUSH2 0x51FC DUP3 PUSH2 0x51BB JUMP JUMPDEST PUSH1 0x20 DUP3 ADD SWAP1 POP SWAP2 SWAP1 POP JUMP JUMPDEST PUSH1 0x0 PUSH1 0x20 DUP3 ADD SWAP1 POP DUP2 DUP2 SUB PUSH1 0x0 DUP4 ADD MSTORE PUSH2 0x5220 DUP2 PUSH2 0x51E4 JUMP JUMPDEST SWAP1 POP SWAP2 SWAP1 POP JUMP JUMPDEST PUSH32 0x5369676E617475726520616C7265616479207573656400000000000000000000 PUSH1 0x0 DUP3 ADD MSTORE POP JUMP JUMPDEST PUSH1 0x0 PUSH2 0x525D PUSH1 0x16 DUP4 PUSH2 0x406B JUMP JUMPDEST SWAP2 POP PUSH2 0x5268 DUP3 PUSH2 0x5227 JUMP JUMPDEST PUSH1 0x20 DUP3 ADD SWAP1 POP SWAP2 SWAP1 POP JUMP JUMPDEST PUSH1 0x0 PUSH1 0x20 DUP3 ADD SWAP1 POP DUP2 DUP2 SUB PUSH1 0x0 DUP4 ADD MSTORE PUSH2 0x528C DUP2 PUSH2 0x5250 JUMP JUMPDEST SWAP1 POP SWAP2 SWAP1 POP JUMP JUMPDEST PUSH1 0x0 DUP2 SWAP1 POP SWAP3 SWAP2 POP POP JUMP JUMPDEST PUSH1 0x0 PUSH2 0x52AA DUP4 DUP6 PUSH2 0x5293 JUMP JUMPDEST SWAP4 POP PUSH2 0x52B7 DUP4 DUP6 DUP5 PUSH2 0x4AF7 JUMP JUMPDEST DUP3 DUP5 ADD SWAP1 POP SWAP4 SWAP3 POP POP POP JUMP JUMPDEST PUSH1 0x0 PUSH2 0x52D0 DUP3 DUP5 DUP7 PUSH2 0x529E JUMP JUMPDEST SWAP2 POP DUP2 SWAP1 POP SWAP4 SWAP3 POP POP POP JUMP JUMPDEST PUSH1 0x0 PUSH2 0x100 DUP3 ADD SWAP1 POP PUSH2 0x52F2 PUSH1 0x0 DUP4 ADD DUP12 PUSH2 0x449D JUMP JUMPDEST PUSH2 0x52FF PUSH1 0x20 DUP4 ADD DUP11 PUSH2 0x41A7 JUMP JUMPDEST PUSH2 0x530C PUSH1 0x40 DUP4 ADD DUP10 PUSH2 0x423D JUMP JUMPDEST PUSH2 0x5319 PUSH1 0x60 DUP4 ADD DUP9 PUSH2 0x449D JUMP JUMPDEST PUSH2 0x5326 PUSH1 0x80 DUP4 ADD DUP8 PUSH2 0x423D JUMP JUMPDEST PUSH2 0x5333 PUSH1 0xA0 DUP4 ADD DUP7 PUSH2 0x423D JUMP JUMPDEST PUSH2 0x5340 PUSH1 0xC0 DUP4 ADD DUP6 PUSH2 0x449D JUMP JUMPDEST PUSH2 0x534D PUSH1 0xE0 DUP4 ADD DUP5 PUSH2 0x423D JUMP JUMPDEST SWAP10 SWAP9 POP POP POP POP POP POP POP POP POP JUMP JUMPDEST PUSH32 0x496E76616C6964207369676E6174757265000000000000000000000000000000 PUSH1 0x0 DUP3 ADD MSTORE POP JUMP JUMPDEST PUSH1 0x0 PUSH2 0x5390 PUSH1 0x11 DUP4 PUSH2 0x406B JUMP JUMPDEST SWAP2 POP PUSH2 0x539B DUP3 PUSH2 0x535A JUMP JUMPDEST PUSH1 0x20 DUP3 ADD SWAP1 POP SWAP2 SWAP1 POP JUMP JUMPDEST PUSH1 0x0 PUSH1 0x20 DUP3 ADD SWAP1 POP DUP2 DUP2 SUB PUSH1 0x0 DUP4 ADD MSTORE PUSH2 0x53BF DUP2 PUSH2 0x5383 JUMP JUMPDEST SWAP1 POP SWAP2 SWAP1 POP JUMP JUMPDEST PUSH32 0x496E636F7272656374207061796D656E7420616D6F756E740000000000000000 PUSH1 0x0 DUP3 ADD MSTORE POP JUMP JUMPDEST PUSH1 0x0 PUSH2 0x53FC PUSH1 0x18 DUP4 PUSH2 0x406B JUMP JUMPDEST SWAP2 POP PUSH2 0x5407 DUP3 PUSH2 0x53C6 JUMP JUMPDEST PUSH1 0x20 DUP3 ADD SWAP1 POP SWAP2 SWAP1 POP JUMP JUMPDEST PUSH1 0x0 PUSH1 0x20 DUP3 ADD SWAP1 POP DUP2 DUP2 SUB PUSH1 0x0 DUP4 ADD MSTORE PUSH2 0x542B DUP2 PUSH2 0x53EF JUMP JUMPDEST SWAP1 POP SWAP2 SWAP1 POP JUMP JUMPDEST PUSH32 0x506861736520737570706C79206C696D69742072656163686564000000000000 PUSH1 0x0 DUP3 ADD MSTORE POP JUMP JUMPDEST PUSH1 0x0 PUSH2 0x5468 PUSH1 0x1A DUP4 PUSH2 0x406B JUMP JUMPDEST SWAP2 POP PUSH2 0x5473 DUP3 PUSH2 0x5432 JUMP JUMPDEST PUSH1 0x20 DUP3 ADD SWAP1 POP SWAP2 SWAP1 POP JUMP JUMPDEST PUSH1 0x0 PUSH1 0x20 DUP3 ADD SWAP1 POP DUP2 DUP2 SUB PUSH1 0x0 DUP4 ADD MSTORE PUSH2 0x5497 DUP2 PUSH2 0x545B JUMP JUMPDEST SWAP1 POP SWAP2 SWAP1 POP JUMP JUMPDEST PUSH32 0x57616C6C6574206C696D6974207265616368656420666F722074686973207068 PUSH1 0x0 DUP3 ADD MSTORE PUSH32 0x6173650000000000000000000000000000000000000000000000000000000000 PUSH1 0x20 DUP3 ADD MSTORE POP JUMP JUMPDEST PUSH1 0x0 PUSH2 0x54FA PUSH1 0x23 DUP4 PUSH2 0x406B JUMP JUMPDEST SWAP2 POP PUSH2 0x5505 DUP3 PUSH2 0x549E JUMP JUMPDEST PUSH1 0x40 DUP3 ADD SWAP1 POP SWAP2 SWAP1 POP JUMP JUMPDEST PUSH1 0x0 PUSH1 0x20 DUP3 ADD SWAP1 POP DUP2 DUP2 SUB PUSH1 0x0 DUP4 ADD MSTORE PUSH2 0x5529 DUP2 PUSH2 0x54ED JUMP JUMPDEST SWAP1 POP SWAP2 SWAP1 POP JUMP JUMPDEST PUSH1 0x0 PUSH1 0x20 DUP3 ADD SWAP1 POP PUSH2 0x5545 PUSH1 0x0 DUP4 ADD DUP5 PUSH2 0x448E JUMP JUMPDEST SWAP3 SWAP2 POP POP JUMP JUMPDEST PUSH32 0x4E6F206163746976652070686173650000000000000000000000000000000000 PUSH1 0x0 DUP3 ADD MSTORE POP JUMP JUMPDEST PUSH1 0x0 PUSH2 0x5581 PUSH1 0xF DUP4 PUSH2 0x406B JUMP JUMPDEST SWAP2 POP PUSH2 0x558C DUP3 PUSH2 0x554B JUMP JUMPDEST PUSH1 0x20 DUP3 ADD SWAP1 POP SWAP2 SWAP1 POP JUMP JUMPDEST PUSH1 0x0 PUSH1 0x20 DUP3 ADD SWAP1 POP DUP2 DUP2 SUB PUSH1 0x0 DUP4 ADD MSTORE PUSH2 0x55B0 DUP2 PUSH2 0x5574 JUMP JUMPDEST SWAP1 POP SWAP2 SWAP1 POP JUMP JUMPDEST POP JUMP JUMPDEST PUSH1 0x0 PUSH2 0x55C7 PUSH1 0x0 DUP4 PUSH2 0x5293 JUMP JUMPDEST SWAP2 POP PUSH2 0x55D2 DUP3 PUSH2 0x55B7 JUMP JUMPDEST PUSH1 0x0 DUP3 ADD SWAP1 POP SWAP2 SWAP1 POP JUMP JUMPDEST PUSH1 0x0 PUSH2 0x55E8 DUP3 PUSH2 0x55BA JUMP JUMPDEST SWAP2 POP DUP2 SWAP1 POP SWAP2 SWAP1 POP JUMP JUMPDEST PUSH32 0x506C6174666F726D20666565207472616E73666572206661696C656400000000 PUSH1 0x0 DUP3 ADD MSTORE POP JUMP JUMPDEST PUSH1 0x0 PUSH2 0x5628 PUSH1 0x1C DUP4 PUSH2 0x406B JUMP JUMPDEST SWAP2 POP PUSH2 0x5633 DUP3 PUSH2 0x55F2 JUMP JUMPDEST PUSH1 0x20 DUP3 ADD SWAP1 POP SWAP2 SWAP1 POP JUMP JUMPDEST PUSH1 0x0 PUSH1 0x20 DUP3 ADD SWAP1 POP DUP2 DUP2 SUB PUSH1 0x0 DUP4 ADD MSTORE PUSH2 0x5657 DUP2 PUSH2 0x561B JUMP JUMPDEST SWAP1 POP SWAP2 SWAP1 POP JUMP JUMPDEST PUSH1 0x0 PUSH2 0x5669 DUP3 PUSH2 0x4112 JUMP JUMPDEST SWAP2 POP PUSH2 0x5674 DUP4 PUSH2 0x4112 JUMP JUMPDEST SWAP3 POP DUP3 DUP3 SUB SWAP1 POP DUP2 DUP2 GT ISZERO PUSH2 0x568C JUMPI PUSH2 0x568B PUSH2 0x4D9C JUMP JUMPDEST JUMPDEST SWAP3 SWAP2 POP POP JUMP JUMPDEST PUSH32 0x4F776E657220666565207472616E73666572206661696C656400000000000000 PUSH1 0x0 DUP3 ADD MSTORE POP JUMP JUMPDEST PUSH1 0x0 PUSH2 0x56C8 PUSH1 0x19 DUP4 PUSH2 0x406B JUMP JUMPDEST SWAP2 POP PUSH2 0x56D3 DUP3 PUSH2 0x5692 JUMP JUMPDEST PUSH1 0x20 DUP3 ADD SWAP1 POP SWAP2 SWAP1 POP JUMP JUMPDEST PUSH1 0x0 PUSH1 0x20 DUP3 ADD SWAP1 POP DUP2 DUP2 SUB PUSH1 0x0 DUP4 ADD MSTORE PUSH2 0x56F7 DUP2 PUSH2 0x56BB JUMP JUMPDEST SWAP1 POP SWAP2 SWAP1 POP JUMP JUMPDEST PUSH1 0x0 PUSH2 0x5709 DUP3 PUSH2 0x4112 JUMP JUMPDEST SWAP2 POP PUSH32 0xFFFFFFFFFFFFFFFFFFFFFFFFFFFFFFFFFFFFFFFFFFFFFFFFFFFFFFFFFFFFFFFF DUP3 SUB PUSH2 0x573B JUMPI PUSH2 0x573A PUSH2 0x4D9C JUMP JUMPDEST JUMPDEST PUSH1 0x1 DUP3 ADD SWAP1 POP SWAP2 SWAP1 POP JUMP JUMPDEST PUSH1 0x0 DUP2 MLOAD SWAP1 POP SWAP2 SWAP1 POP JUMP JUMPDEST PUSH1 0x0 DUP3 DUP3 MSTORE PUSH1 0x20 DUP3 ADD SWAP1 POP SWAP3 SWAP2 POP POP JUMP JUMPDEST PUSH1 0x0 PUSH2 0x576D DUP3 PUSH2 0x5746 JUMP JUMPDEST PUSH2 0x5777 DUP2 DUP6 PUSH2 0x5751 JUMP JUMPDEST SWAP4 POP PUSH2 0x5787 DUP2 DUP6 PUSH1 0x20 DUP7 ADD PUSH2 0x407C JUMP JUMPDEST PUSH2 0x5790 DUP2 PUSH2 0x40A6 JUMP JUMPDEST DUP5 ADD SWAP2 POP POP SWAP3 SWAP2 POP POP JUMP JUMPDEST PUSH1 0x0 PUSH1 0x80 DUP3 ADD SWAP1 POP PUSH2 0x57B0 PUSH1 0x0 DUP4 ADD DUP8 PUSH2 0x41A7 JUMP JUMPDEST PUSH2 0x57BD PUSH1 0x20 DUP4 ADD DUP7 PUSH2 0x41A7 JUMP JUMPDEST PUSH2 0x57CA PUSH1 0x40 DUP4 ADD DUP6 PUSH2 0x423D JUMP JUMPDEST DUP2 DUP2 SUB PUSH1 0x60 DUP4 ADD MSTORE PUSH2 0x57DC DUP2 DUP5 PUSH2 0x5762 JUMP JUMPDEST SWAP1 POP SWAP6 SWAP5 POP POP POP POP POP JUMP JUMPDEST PUSH1 0x0 DUP2 MLOAD SWAP1 POP PUSH2 0x57F6 DUP2 PUSH2 0x3FD1 JUMP JUMPDEST SWAP3 SWAP2 POP POP JUMP JUMPDEST PUSH1 0x0 PUSH1 0x20 DUP3 DUP5 SUB SLT ISZERO PUSH2 0x5812 JUMPI PUSH2 0x5811 PUSH2 0x3F9B JUMP JUMPDEST JUMPDEST PUSH1 0x0 PUSH2 0x5820 DUP5 DUP3 DUP6 ADD PUSH2 0x57E7 JUMP JUMPDEST SWAP2 POP POP SWAP3 SWAP2 POP POP JUMP JUMPDEST PUSH1 0x0 DUP2 SWAP1 POP SWAP3 SWAP2 POP POP JUMP JUMPDEST PUSH1 0x0 PUSH2 0x583F DUP3 PUSH2 0x4060 JUMP JUMPDEST PUSH2 0x5849 DUP2 DUP6 PUSH2 0x5829 JUMP JUMPDEST SWAP4 POP PUSH2 0x5859 DUP2 DUP6 PUSH1 0x20 DUP7 ADD PUSH2 0x407C JUMP JUMPDEST DUP1 DUP5 ADD SWAP2 POP POP SWAP3 SWAP2 POP POP JUMP JUMPDEST PUSH1 0x0 PUSH2 0x5871 DUP3 DUP6 PUSH2 0x5834 JUMP JUMPDEST SWAP2 POP PUSH2 0x587D DUP3 DUP5 PUSH2 0x5834 JUMP JUMPDEST SWAP2 POP DUP2 SWAP1 POP SWAP4 SWAP3 POP POP POP JUMP JUMPDEST PUSH1 0x0 DUP2 SWAP1 POP DUP2 PUSH1 0x0 MSTORE PUSH1 0x20 PUSH1 0x0 KECCAK256 SWAP1 POP SWAP2 SWAP1 POP JUMP JUMPDEST PUSH1 0x0 PUSH1 0x20 PUSH1 0x1F DUP4 ADD DIV SWAP1 POP SWAP2 SWAP1 POP JUMP JUMPDEST PUSH1 0x0 DUP3 DUP3 SHL SWAP1 POP SWAP3 SWAP2 POP POP JUMP JUMPDEST PUSH1 0x0 PUSH1 0x8 DUP4 MUL PUSH2 0x58EB PUSH32 0xFFFFFFFFFFFFFFFFFFFFFFFFFFFFFFFFFFFFFFFFFFFFFFFFFFFFFFFFFFFFFFFF DUP3 PUSH2 0x58AE JUMP JUMPDEST PUSH2 0x58F5 DUP7 DUP4 PUSH2 0x58AE JUMP JUMPDEST SWAP6 POP DUP1 NOT DUP5 AND SWAP4 POP DUP1 DUP7 AND DUP5 OR SWAP3 POP POP POP SWAP4 SWAP3 POP POP POP JUMP JUMPDEST PUSH1 0x0 DUP2 SWAP1 POP SWAP2 SWAP1 POP JUMP JUMPDEST PUSH1 0x0 PUSH2 0x5932 PUSH2 0x592D PUSH2 0x5928 DUP5 PUSH2 0x4112 JUMP JUMPDEST PUSH2 0x590D JUMP JUMPDEST PUSH2 0x4112 JUMP JUMPDEST SWAP1 POP SWAP2 SWAP1 POP JUMP JUMPDEST PUSH1 0x0 DUP2 SWAP1 POP SWAP2 SWAP1 POP JUMP JUMPDEST PUSH2 0x594C DUP4 PUSH2 0x5917 JUMP JUMPDEST PUSH2 0x5960 PUSH2 0x5958 DUP3 PUSH2 0x5939 JUMP JUMPDEST DUP5 DUP5 SLOAD PUSH2 0x58BB JUMP JUMPDEST DUP3 SSTORE POP POP POP POP JUMP JUMPDEST PUSH1 0x0 SWAP1 JUMP JUMPDEST PUSH2 0x5975 PUSH2 0x5968 JUMP JUMPDEST PUSH2 0x5980 DUP2 DUP5 DUP5 PUSH2 0x5943 JUMP JUMPDEST POP POP POP JUMP JUMPDEST JUMPDEST DUP2 DUP2 LT ISZERO PUSH2 0x59A4 JUMPI PUSH2 0x5999 PUSH1 0x0 DUP3 PUSH2 0x596D JUMP JUMPDEST PUSH1 0x1 DUP2 ADD SWAP1 POP PUSH2 0x5986 JUMP JUMPDEST POP POP JUMP JUMPDEST PUSH1 0x1F DUP3 GT ISZERO PUSH2 0x59E9 JUMPI PUSH2 0x59BA DUP2 PUSH2 0x5889 JUMP JUMPDEST PUSH2 0x59C3 DUP5 PUSH2 0x589E JUMP JUMPDEST DUP2 ADD PUSH1 0x20 DUP6 LT ISZERO PUSH2 0x59D2 JUMPI DUP2 SWAP1 POP JUMPDEST PUSH2 0x59E6 PUSH2 0x59DE DUP6 PUSH2 0x589E JUMP JUMPDEST DUP4 ADD DUP3 PUSH2 0x5985 JUMP JUMPDEST POP POP JUMPDEST POP POP POP JUMP JUMPDEST PUSH1 0x0 DUP3 DUP3 SHR SWAP1 POP SWAP3 SWAP2 POP POP JUMP JUMPDEST PUSH1 0x0 PUSH2 0x5A0C PUSH1 0x0 NOT DUP5 PUSH1 0x8 MUL PUSH2 0x59EE JUMP JUMPDEST NOT DUP1 DUP4 AND SWAP2 POP POP SWAP3 SWAP2 POP POP JUMP JUMPDEST PUSH1 0x0 PUSH2 0x5A25 DUP4 DUP4 PUSH2 0x59FB JUMP JUMPDEST SWAP2 POP DUP3 PUSH1 0x2 MUL DUP3 OR SWAP1 POP SWAP3 SWAP2 POP POP JUMP JUMPDEST PUSH2 0x5A3E DUP3 PUSH2 0x4060 JUMP JUMPDEST PUSH8 0xFFFFFFFFFFFFFFFF DUP2 GT ISZERO PUSH2 0x5A57 JUMPI PUSH2 0x5A56 PUSH2 0x4A4B JUMP JUMPDEST JUMPDEST PUSH2 0x5A61 DUP3 SLOAD PUSH2 0x4D05 JUMP JUMPDEST PUSH2 0x5A6C DUP3 DUP3 DUP6 PUSH2 0x59A8 JUMP JUMPDEST PUSH1 0x0 PUSH1 0x20 SWAP1 POP PUSH1 0x1F DUP4 GT PUSH1 0x1 DUP2 EQ PUSH2 0x5A9F JUMPI PUSH1 0x0 DUP5 ISZERO PUSH2 0x5A8D JUMPI DUP3 DUP8 ADD MLOAD SWAP1 POP JUMPDEST PUSH2 0x5A97 DUP6 DUP3 PUSH2 0x5A19 JUMP JUMPDEST DUP7 SSTORE POP PUSH2 0x5AFF JUMP JUMPDEST PUSH1 0x1F NOT DUP5 AND PUSH2 0x5AAD DUP7 PUSH2 0x5889 JUMP JUMPDEST PUSH1 0x0 JUMPDEST DUP3 DUP2 LT ISZERO PUSH2 0x5AD5 JUMPI DUP5 DUP10 ADD MLOAD DUP3 SSTORE PUSH1 0x1 DUP3 ADD SWAP2 POP PUSH1 0x20 DUP6 ADD SWAP5 POP PUSH1 0x20 DUP2 ADD SWAP1 POP PUSH2 0x5AB0 JUMP JUMPDEST DUP7 DUP4 LT ISZERO PUSH2 0x5AF2 JUMPI DUP5 DUP10 ADD MLOAD PUSH2 0x5AEE PUSH1 0x1F DUP10 AND DUP3 PUSH2 0x59FB JUMP JUMPDEST DUP4 SSTORE POP JUMPDEST PUSH1 0x1 PUSH1 0x2 DUP9 MUL ADD DUP9 SSTORE POP POP POP JUMPDEST POP POP POP POP POP POP JUMP JUMPDEST PUSH1 0x0 PUSH1 0xA0 DUP3 ADD SWAP1 POP PUSH2 0x5B1C PUSH1 0x0 DUP4 ADD DUP9 PUSH2 0x449D JUMP JUMPDEST PUSH2 0x5B29 PUSH1 0x20 DUP4 ADD DUP8 PUSH2 0x449D JUMP JUMPDEST PUSH2 0x5B36 PUSH1 0x40 DUP4 ADD DUP7 PUSH2 0x449D JUMP JUMPDEST PUSH2 0x5B43 PUSH1 0x60 DUP4 ADD DUP6 PUSH2 0x423D JUMP JUMPDEST PUSH2 0x5B50 PUSH1 0x80 DUP4 ADD DUP5 PUSH2 0x41A7 JUMP JUMPDEST SWAP7 SWAP6 POP POP POP POP POP POP JUMP JUMPDEST PUSH32 0x4E487B7100000000000000000000000000000000000000000000000000000000 PUSH1 0x0 MSTORE PUSH1 0x31 PUSH1 0x4 MSTORE PUSH1 0x24 PUSH1 0x0 REVERT JUMPDEST PUSH1 0x0 PUSH1 0xFF DUP3 AND SWAP1 POP SWAP2 SWAP1 POP JUMP JUMPDEST PUSH2 0x5B9F DUP2 PUSH2 0x5B89 JUMP JUMPDEST DUP3 MSTORE POP POP JUMP JUMPDEST PUSH1 0x0 PUSH1 0x80 DUP3 ADD SWAP1 POP PUSH2 0x5BBA PUSH1 0x0 DUP4 ADD DUP8 PUSH2 0x449D JUMP JUMPDEST PUSH2 0x5BC7 PUSH1 0x20 DUP4 ADD DUP7 PUSH2 0x5B96 JUMP JUMPDEST PUSH2 0x5BD4 PUSH1 0x40 DUP4 ADD DUP6 PUSH2 0x449D JUMP JUMPDEST PUSH2 0x5BE1 PUSH1 0x60 DUP4 ADD DUP5 PUSH2 0x449D JUMP JUMPDEST SWAP6 SWAP5 POP POP POP POP POP JUMP INVALID LOG2 PUSH5 0x6970667358 0x22 SLT KECCAK256 0xDB STATICCALL 0xFB PUSH14 0x5B21C6D55884F3F9EEC0721FB390 GASLIMIT PUSH31 0xCBC013851F401BCC873E1E9364736F6C634300081B00330000000000000000 "},"methodIdentifiers":{"addPhase(uint8,uint256,uint256,uint256,uint256,uint256,bytes32)":"57036078","approve(address,uint256)":"095ea7b3","backendSigner()":"65d65e86","balanceOf(address)":"70a08231","eip712Domain()":"84b0196e","getActivePhase()":"1ce97fd1","getApproved(uint256)":"081812fc","getDomainSeparator()":"ed24911d","getMintedInPhase(address,uint8)":"f7330c2d","getPhaseCount()":"db5e0063","isActivePhasePresent()":"072a1319","isApprovedForAll(address,address)":"e985e9c5","mint(uint256,string,bytes32,uint256,bytes,bytes32[])":"8ff75e82","name()":"06fdde03","owner()":"8da5cb5b","ownerOf(uint256)":"6352211e","phases(uint256)":"2e37eef6","platformFeePercentage()":"cdd78cfc","platformFeeRecipient()":"eb13554f","renounceOwnership()":"715018a6","royaltyInfo(uint256,uint256)":"2a55205a","safeTransferFrom(address,address,uint256)":"42842e0e","safeTransferFrom(address,address,uint256,bytes)":"b88d4fde","setApprovalForAll(address,bool)":"a22cb465","supportsInterface(bytes4)":"01ffc9a7","symbol()":"95d89b41","tokenByIndex(uint256)":"4f6ccce7","tokenOfOwnerByIndex(address,uint256)":"2f745c59","tokenURI(uint256)":"c87b56dd","tokensOfOwner(address)":"8462151c","totalSupply()":"18160ddd","transferFrom(address,address,uint256)":"23b872dd","transferOwnership(address)":"f2fde38b"}}}}}