{"src/blockchain/evm/contracts/DirectMintNFTV2.sol":{"LaunchNFTV2":{"abi":[{"inputs":[{"internalType":"address","name":"initialOwner","type":"address"},{"internalType":"string","name":"name","type":"string"},{"internalType":"string","name":"symbol","type":"string"},{"internalType":"uint96","name":"_royaltyFee","type":"uint96"},{"internalType":"uint96","name":"_platformFee","type":"uint96"},{"internalType":"address","name":"_platformFeeRecipient","type":"address"},{"internalType":"address","name":"_backendSigner","type":"address"}],"stateMutability":"nonpayable","type":"constructor"},{"inputs":[],"name":"ECDSAInvalidSignature","type":"error"},{"inputs":[{"internalType":"uint256","name":"length","type":"uint256"}],"name":"ECDSAInvalidSignatureLength","type":"error"},{"inputs":[{"internalType":"bytes32","name":"s","type":"bytes32"}],"name":"ECDSAInvalidSignatureS","type":"error"},{"inputs":[{"internalType":"uint256","name":"numerator","type":"uint256"},{"internalType":"uint256","name":"denominator","type":"uint256"}],"name":"ERC2981InvalidDefaultRoyalty","type":"error"},{"inputs":[{"internalType":"address","name":"receiver","type":"address"}],"name":"ERC2981InvalidDefaultRoyaltyReceiver","type":"error"},{"inputs":[{"internalType":"uint256","name":"tokenId","type":"uint256"},{"internalType":"uint256","name":"numerator","type":"uint256"},{"internalType":"uint256","name":"denominator","type":"uint256"}],"name":"ERC2981InvalidTokenRoyalty","type":"error"},{"inputs":[{"internalType":"uint256","name":"tokenId","type":"uint256"},{"internalType":"address","name":"receiver","type":"address"}],"name":"ERC2981InvalidTokenRoyaltyReceiver","type":"error"},{"inputs":[],"name":"ERC721EnumerableForbiddenBatchMint","type":"error"},{"inputs":[{"internalType":"address","name":"sender","type":"address"},{"internalType":"uint256","name":"tokenId","type":"uint256"},{"internalType":"address","name":"owner","type":"address"}],"name":"ERC721IncorrectOwner","type":"error"},{"inputs":[{"internalType":"address","name":"operator","type":"address"},{"internalType":"uint256","name":"tokenId","type":"uint256"}],"name":"ERC721InsufficientApproval","type":"error"},{"inputs":[{"internalType":"address","name":"approver","type":"address"}],"name":"ERC721InvalidApprover","type":"error"},{"inputs":[{"internalType":"address","name":"operator","type":"address"}],"name":"ERC721InvalidOperator","type":"error"},{"inputs":[{"internalType":"address","name":"owner","type":"address"}],"name":"ERC721InvalidOwner","type":"error"},{"inputs":[{"internalType":"address","name":"receiver","type":"address"}],"name":"ERC721InvalidReceiver","type":"error"},{"inputs":[{"internalType":"address","name":"sender","type":"address"}],"name":"ERC721InvalidSender","type":"error"},{"inputs":[{"internalType":"uint256","name":"tokenId","type":"uint256"}],"name":"ERC721NonexistentToken","type":"error"},{"inputs":[{"internalType":"address","name":"owner","type":"address"},{"internalType":"uint256","name":"index","type":"uint256"}],"name":"ERC721OutOfBoundsIndex","type":"error"},{"inputs":[],"name":"ExceedsPhaseSupply","type":"error"},{"inputs":[],"name":"ExceedsWalletLimit","type":"error"},{"inputs":[],"name":"InsufficientPayment","type":"error"},{"inputs":[],"name":"InvalidMerkleProof","type":"error"},{"inputs":[],"name":"InvalidPhaseConfiguration","type":"error"},{"inputs":[],"name":"InvalidPhaseIndex","type":"error"},{"inputs":[],"name":"InvalidShortString","type":"error"},{"inputs":[],"name":"InvalidSignature","type":"error"},{"inputs":[],"name":"NoActivePhase","type":"error"},{"inputs":[],"name":"OverlappingPhases","type":"error"},{"inputs":[{"internalType":"address","name":"owner","type":"address"}],"name":"OwnableInvalidOwner","type":"error"},{"inputs":[{"internalType":"address","name":"account","type":"address"}],"name":"OwnableUnauthorizedAccount","type":"error"},{"inputs":[],"name":"PhaseNotActive","type":"error"},{"inputs":[],"name":"PriceMismatch","type":"error"},{"inputs":[],"name":"SignatureExpired","type":"error"},{"inputs":[{"internalType":"string","name":"str","type":"string"}],"name":"StringTooLong","type":"error"},{"inputs":[],"name":"TransferFailed","type":"error"},{"anonymous":false,"inputs":[{"indexed":true,"internalType":"address","name":"owner","type":"address"},{"indexed":true,"internalType":"address","name":"approved","type":"address"},{"indexed":true,"internalType":"uint256","name":"tokenId","type":"uint256"}],"name":"Approval","type":"event"},{"anonymous":false,"inputs":[{"indexed":true,"internalType":"address","name":"owner","type":"address"},{"indexed":true,"internalType":"address","name":"operator","type":"address"},{"indexed":false,"internalType":"bool","name":"approved","type":"bool"}],"name":"ApprovalForAll","type":"event"},{"anonymous":false,"inputs":[{"indexed":false,"internalType":"uint256","name":"_fromTokenId","type":"uint256"},{"indexed":false,"internalType":"uint256","name":"_toTokenId","type":"uint256"}],"name":"BatchMetadataUpdate","type":"event"},{"anonymous":false,"inputs":[],"name":"EIP712DomainChanged","type":"event"},{"anonymous":false,"inputs":[{"indexed":false,"internalType":"uint256","name":"_tokenId","type":"uint256"}],"name":"MetadataUpdate","type":"event"},{"anonymous":false,"inputs":[{"indexed":true,"internalType":"address","name":"previousOwner","type":"address"},{"indexed":true,"internalType":"address","name":"newOwner","type":"address"}],"name":"OwnershipTransferred","type":"event"},{"anonymous":false,"inputs":[{"indexed":true,"internalType":"uint256","name":"phaseIndex","type":"uint256"},{"indexed":false,"internalType":"enum LaunchNFTV2.PhaseType","name":"phaseType","type":"uint8"},{"indexed":false,"internalType":"uint256","name":"price","type":"uint256"}],"name":"PhaseAdded","type":"event"},{"anonymous":false,"inputs":[{"indexed":true,"internalType":"uint256","name":"phaseIndex","type":"uint256"},{"indexed":false,"internalType":"enum LaunchNFTV2.PhaseType","name":"phaseType","type":"uint8"},{"indexed":false,"internalType":"uint256","name":"price","type":"uint256"}],"name":"PhaseUpdated","type":"event"},{"anonymous":false,"inputs":[{"indexed":false,"internalType":"uint96","name":"newPercentage","type":"uint96"},{"indexed":false,"internalType":"address","name":"newRecipient","type":"address"}],"name":"PlatformFeeUpdated","type":"event"},{"anonymous":false,"inputs":[{"indexed":true,"internalType":"uint256","name":"tokenId","type":"uint256"},{"indexed":true,"internalType":"address","name":"recipient","type":"address"},{"indexed":false,"internalType":"enum LaunchNFTV2.PhaseType","name":"phaseType","type":"uint8"}],"name":"TokenMinted","type":"event"},{"anonymous":false,"inputs":[{"indexed":true,"internalType":"address","name":"from","type":"address"},{"indexed":true,"internalType":"address","name":"to","type":"address"},{"indexed":true,"internalType":"uint256","name":"tokenId","type":"uint256"}],"name":"Transfer","type":"event"},{"anonymous":false,"inputs":[{"indexed":true,"internalType":"address","name":"recipient","type":"address"},{"indexed":false,"internalType":"uint256","name":"amount","type":"uint256"}],"name":"WithdrawCompleted","type":"event"},{"inputs":[{"internalType":"enum LaunchNFTV2.PhaseType","name":"_phaseType","type":"uint8"},{"internalType":"uint256","name":"_price","type":"uint256"},{"internalType":"uint256","name":"_startTime","type":"uint256"},{"internalType":"uint256","name":"_endTime","type":"uint256"},{"internalType":"uint256","name":"_maxSupply","type":"uint256"},{"internalType":"uint256","name":"_maxPerWallet","type":"uint256"},{"internalType":"uint256","name":"_maxMintPerPhase","type":"uint256"},{"internalType":"bytes32","name":"_merkleRoot","type":"bytes32"}],"name":"addPhase","outputs":[],"stateMutability":"nonpayable","type":"function"},{"inputs":[{"internalType":"address","name":"to","type":"address"},{"internalType":"uint256","name":"tokenId","type":"uint256"}],"name":"approve","outputs":[],"stateMutability":"nonpayable","type":"function"},{"inputs":[],"name":"backendSigner","outputs":[{"internalType":"address","name":"","type":"address"}],"stateMutability":"view","type":"function"},{"inputs":[{"internalType":"address","name":"owner","type":"address"}],"name":"balanceOf","outputs":[{"internalType":"uint256","name":"","type":"uint256"}],"stateMutability":"view","type":"function"},{"inputs":[],"name":"eip712Domain","outputs":[{"internalType":"bytes1","name":"fields","type":"bytes1"},{"internalType":"string","name":"name","type":"string"},{"internalType":"string","name":"version","type":"string"},{"internalType":"uint256","name":"chainId","type":"uint256"},{"internalType":"address","name":"verifyingContract","type":"address"},{"internalType":"bytes32","name":"salt","type":"bytes32"},{"internalType":"uint256[]","name":"extensions","type":"uint256[]"}],"stateMutability":"view","type":"function"},{"inputs":[],"name":"getActivePhase","outputs":[{"internalType":"uint256","name":"phaseIndex","type":"uint256"},{"components":[{"internalType":"enum LaunchNFTV2.PhaseType","name":"phaseType","type":"uint8"},{"internalType":"uint256","name":"price","type":"uint256"},{"internalType":"uint256","name":"startTime","type":"uint256"},{"internalType":"uint256","name":"endTime","type":"uint256"},{"internalType":"uint256","name":"maxSupply","type":"uint256"},{"internalType":"uint256","name":"maxPerWallet","type":"uint256"},{"internalType":"uint256","name":"maxMintPerPhase","type":"uint256"},{"internalType":"uint256","name":"mintedInPhase","type":"uint256"},{"internalType":"bytes32","name":"merkleRoot","type":"bytes32"}],"internalType":"struct LaunchNFTV2.Phase","name":"phase","type":"tuple"}],"stateMutability":"view","type":"function"},{"inputs":[{"internalType":"uint256","name":"tokenId","type":"uint256"}],"name":"getApproved","outputs":[{"internalType":"address","name":"","type":"address"}],"stateMutability":"view","type":"function"},{"inputs":[],"name":"getDomainSeparator","outputs":[{"internalType":"bytes32","name":"","type":"bytes32"}],"stateMutability":"view","type":"function"},{"inputs":[{"internalType":"address","name":"user","type":"address"},{"internalType":"enum LaunchNFTV2.PhaseType","name":"phaseType","type":"uint8"}],"name":"getMintedInPhase","outputs":[{"internalType":"uint256","name":"","type":"uint256"}],"stateMutability":"view","type":"function"},{"inputs":[],"name":"getPhaseCount","outputs":[{"internalType":"uint256","name":"","type":"uint256"}],"stateMutability":"view","type":"function"},{"inputs":[],"name":"isActivePhasePresent","outputs":[{"internalType":"bool","name":"","type":"bool"}],"stateMutability":"view","type":"function"},{"inputs":[{"internalType":"address","name":"owner","type":"address"},{"internalType":"address","name":"operator","type":"address"}],"name":"isApprovedForAll","outputs":[{"internalType":"bool","name":"","type":"bool"}],"stateMutability":"view","type":"function"},{"inputs":[{"internalType":"uint256","name":"tokenId","type":"uint256"},{"internalType":"string","name":"uri","type":"string"},{"internalType":"bytes32","name":"uniqueId","type":"bytes32"},{"internalType":"uint256","name":"timestamp","type":"uint256"},{"internalType":"bytes","name":"signature","type":"bytes"},{"internalType":"bytes32[]","name":"merkleProof","type":"bytes32[]"}],"name":"mint","outputs":[],"stateMutability":"payable","type":"function"},{"inputs":[],"name":"name","outputs":[{"internalType":"string","name":"","type":"string"}],"stateMutability":"view","type":"function"},{"inputs":[],"name":"owner","outputs":[{"internalType":"address","name":"","type":"address"}],"stateMutability":"view","type":"function"},{"inputs":[{"internalType":"uint256","name":"tokenId","type":"uint256"}],"name":"ownerOf","outputs":[{"internalType":"address","name":"","type":"address"}],"stateMutability":"view","type":"function"},{"inputs":[{"internalType":"uint256","name":"","type":"uint256"}],"name":"phases","outputs":[{"internalType":"enum LaunchNFTV2.PhaseType","name":"phaseType","type":"uint8"},{"internalType":"uint256","name":"price","type":"uint256"},{"internalType":"uint256","name":"startTime","type":"uint256"},{"internalType":"uint256","name":"endTime","type":"uint256"},{"internalType":"uint256","name":"maxSupply","type":"uint256"},{"internalType":"uint256","name":"maxPerWallet","type":"uint256"},{"internalType":"uint256","name":"maxMintPerPhase","type":"uint256"},{"internalType":"uint256","name":"mintedInPhase","type":"uint256"},{"internalType":"bytes32","name":"merkleRoot","type":"bytes32"}],"stateMutability":"view","type":"function"},{"inputs":[],"name":"platformFeePercentage","outputs":[{"internalType":"uint96","name":"","type":"uint96"}],"stateMutability":"view","type":"function"},{"inputs":[],"name":"platformFeeRecipient","outputs":[{"internalType":"address","name":"","type":"address"}],"stateMutability":"view","type":"function"},{"inputs":[],"name":"renounceOwnership","outputs":[],"stateMutability":"nonpayable","type":"function"},{"inputs":[{"internalType":"uint256","name":"tokenId","type":"uint256"},{"internalType":"uint256","name":"salePrice","type":"uint256"}],"name":"royaltyInfo","outputs":[{"internalType":"address","name":"receiver","type":"address"},{"internalType":"uint256","name":"amount","type":"uint256"}],"stateMutability":"view","type":"function"},{"inputs":[{"internalType":"address","name":"from","type":"address"},{"internalType":"address","name":"to","type":"address"},{"internalType":"uint256","name":"tokenId","type":"uint256"}],"name":"safeTransferFrom","outputs":[],"stateMutability":"nonpayable","type":"function"},{"inputs":[{"internalType":"address","name":"from","type":"address"},{"internalType":"address","name":"to","type":"address"},{"internalType":"uint256","name":"tokenId","type":"uint256"},{"internalType":"bytes","name":"data","type":"bytes"}],"name":"safeTransferFrom","outputs":[],"stateMutability":"nonpayable","type":"function"},{"inputs":[{"internalType":"address","name":"operator","type":"address"},{"internalType":"bool","name":"approved","type":"bool"}],"name":"setApprovalForAll","outputs":[],"stateMutability":"nonpayable","type":"function"},{"inputs":[{"internalType":"bytes4","name":"interfaceId","type":"bytes4"}],"name":"supportsInterface","outputs":[{"internalType":"bool","name":"","type":"bool"}],"stateMutability":"view","type":"function"},{"inputs":[],"name":"symbol","outputs":[{"internalType":"string","name":"","type":"string"}],"stateMutability":"view","type":"function"},{"inputs":[{"internalType":"uint256","name":"index","type":"uint256"}],"name":"tokenByIndex","outputs":[{"internalType":"uint256","name":"","type":"uint256"}],"stateMutability":"view","type":"function"},{"inputs":[{"internalType":"address","name":"owner","type":"address"},{"internalType":"uint256","name":"index","type":"uint256"}],"name":"tokenOfOwnerByIndex","outputs":[{"internalType":"uint256","name":"","type":"uint256"}],"stateMutability":"view","type":"function"},{"inputs":[{"internalType":"uint256","name":"tokenId","type":"uint256"}],"name":"tokenURI","outputs":[{"internalType":"string","name":"","type":"string"}],"stateMutability":"view","type":"function"},{"inputs":[{"internalType":"address","name":"owner","type":"address"}],"name":"tokensOfOwner","outputs":[{"internalType":"uint256[]","name":"","type":"uint256[]"}],"stateMutability":"view","type":"function"},{"inputs":[],"name":"totalSupply","outputs":[{"internalType":"uint256","name":"","type":"uint256"}],"stateMutability":"view","type":"function"},{"inputs":[{"internalType":"address","name":"from","type":"address"},{"internalType":"address","name":"to","type":"address"},{"internalType":"uint256","name":"tokenId","type":"uint256"}],"name":"transferFrom","outputs":[],"stateMutability":"nonpayable","type":"function"},{"inputs":[{"internalType":"address","name":"newOwner","type":"address"}],"name":"transferOwnership","outputs":[],"stateMutability":"nonpayable","type":"function"}],"evm":{"bytecode":{"linkReferences":{},"object":"6101a060405234801561001157600080fd5b506040516168c43803806168c483398181016040528101906100339190610a3d565b6040518060400160405280600a81526020017f556e69666965644e4654000000000000000000000000000000000000000000008152506040518060400160405280600181526020017f310000000000000000000000000000000000000000000000000000000000000081525088888881600090816100b19190610d38565b5080600190816100c19190610d38565b505050600073ffffffffffffffffffffffffffffffffffffffff168173ffffffffffffffffffffffffffffffffffffffff16036101365760006040517f1e4fbdf700000000000000000000000000000000000000000000000000000000815260040161012d9190610e19565b60405180910390fd5b6101458161049160201b60201c565b5061015a600e8361055760201b90919060201c565b6101208181525050610176600f8261055760201b90919060201c565b6101408181525050818051906020012060e08181525050808051906020012061010081815250504660a081815250506101b36105a760201b60201c565b608081815250503073ffffffffffffffffffffffffffffffffffffffff1660c08173ffffffffffffffffffffffffffffffffffffffff168152505050506103e8846bffffffffffffffffffffffff161115801561022057506103e8836bffffffffffffffffffffffff1611155b80156102595750600073ffffffffffffffffffffffffffffffffffffffff168273ffffffffffffffffffffffffffffffffffffffff1614155b80156102925750600073ffffffffffffffffffffffffffffffffffffffff168173ffffffffffffffffffffffffffffffffffffffff1614155b61029b57600080fd5b8073ffffffffffffffffffffffffffffffffffffffff166101608173ffffffffffffffffffffffffffffffffffffffff1681525050836bffffffffffffffffffffffff16610180816bffffffffffffffffffffffff168152505082601560006101000a8154816bffffffffffffffffffffffff02191690836bffffffffffffffffffffffff160217905550816015600c6101000a81548173ffffffffffffffffffffffffffffffffffffffff021916908373ffffffffffffffffffffffffffffffffffffffff16021790555061037a876101805161060260201b60201c565b60126040518061012001604052806000600281111561039c5761039b610e34565b5b8152602001600081526020016000815260200160008152602001600081526020016000815260200160008152602001600081526020016000801b815250908060018154018082558091505060019003906000526020600020906009020160009091909190915060008201518160000160006101000a81548160ff0219169083600281111561042d5761042c610e34565b5b02179055506020820151816001015560408201518160020155606082015181600301556080820151816004015560a0820151816005015560c0820151816006015560e08201518160070155610100820151816008015550505050505050505061103b565b6000600d60009054906101000a900473ffffffffffffffffffffffffffffffffffffffff16905081600d60006101000a81548173ffffffffffffffffffffffffffffffffffffffff021916908373ffffffffffffffffffffffffffffffffffffffff1602179055508173ffffffffffffffffffffffffffffffffffffffff168173ffffffffffffffffffffffffffffffffffffffff167f8be0079c531659141344cd1fd0a4f28419497f9722a3daafe3b4186f6b6457e060405160405180910390a35050565b600060208351101561057957610572836107aa60201b60201c565b90506105a1565b826105898361081260201b60201c565b60000190816105989190610d38565b5060ff60001b90505b92915050565b60007f8b73c3c69bb8fe3d512ecc4cf759cc79239f7b179b0ffacaa9a75d522b39400f60e0516101005146306040516020016105e7959493929190610e8b565b60405160208183030381529060405280519060200120905090565b600061061261081c60201b60201c565b6bffffffffffffffffffffffff16905080826bffffffffffffffffffffffff1611156106775781816040517f6f483d0900000000000000000000000000000000000000000000000000000000815260040161066e929190610f0f565b60405180910390fd5b600073ffffffffffffffffffffffffffffffffffffffff168373ffffffffffffffffffffffffffffffffffffffff16036106e95760006040517fb6d9900a0000000000000000000000000000000000000000000000000000000081526004016106e09190610e19565b60405180910390fd5b60405180604001604052808473ffffffffffffffffffffffffffffffffffffffff168152602001836bffffffffffffffffffffffff16815250600b60008201518160000160006101000a81548173ffffffffffffffffffffffffffffffffffffffff021916908373ffffffffffffffffffffffffffffffffffffffff16021790555060208201518160000160146101000a8154816bffffffffffffffffffffffff02191690836bffffffffffffffffffffffff160217905550905050505050565b600080829050601f815111156107f757826040517f305a27a90000000000000000000000000000000000000000000000000000000081526004016107ee9190610f82565b60405180910390fd5b80518161080390610fd4565b60001c1760001b915050919050565b6000819050919050565b6000612710905090565b6000604051905090565b600080fd5b600080fd5b600073ffffffffffffffffffffffffffffffffffffffff82169050919050565b60006108658261083a565b9050919050565b6108758161085a565b811461088057600080fd5b50565b6000815190506108928161086c565b92915050565b600080fd5b600080fd5b6000601f19601f8301169050919050565b7f4e487b7100000000000000000000000000000000000000000000000000000000600052604160045260246000fd5b6108eb826108a2565b810181811067ffffffffffffffff8211171561090a576109096108b3565b5b80604052505050565b600061091d610826565b905061092982826108e2565b919050565b600067ffffffffffffffff821115610949576109486108b3565b5b610952826108a2565b9050602081019050919050565b60005b8381101561097d578082015181840152602081019050610962565b60008484015250505050565b600061099c6109978461092e565b610913565b9050828152602081018484840111156109b8576109b761089d565b5b6109c384828561095f565b509392505050565b600082601f8301126109e0576109df610898565b5b81516109f0848260208601610989565b91505092915050565b60006bffffffffffffffffffffffff82169050919050565b610a1a816109f9565b8114610a2557600080fd5b50565b600081519050610a3781610a11565b92915050565b600080600080600080600060e0888a031215610a5c57610a5b610830565b5b6000610a6a8a828b01610883565b975050602088015167ffffffffffffffff811115610a8b57610a8a610835565b5b610a978a828b016109cb565b965050604088015167ffffffffffffffff811115610ab857610ab7610835565b5b610ac48a828b016109cb565b9550506060610ad58a828b01610a28565b9450506080610ae68a828b01610a28565b93505060a0610af78a828b01610883565b92505060c0610b088a828b01610883565b91505092959891949750929550565b600081519050919050565b7f4e487b7100000000000000000000000000000000000000000000000000000000600052602260045260246000fd5b60006002820490506001821680610b6957607f821691505b602082108103610b7c57610b7b610b22565b5b50919050565b60008190508160005260206000209050919050565b60006020601f8301049050919050565b600082821b905092915050565b600060088302610be47fffffffffffffffffffffffffffffffffffffffffffffffffffffffffffffffff82610ba7565b610bee8683610ba7565b95508019841693508086168417925050509392505050565b6000819050919050565b6000819050919050565b6000610c35610c30610c2b84610c06565b610c10565b610c06565b9050919050565b6000819050919050565b610c4f83610c1a565b610c63610c5b82610c3c565b848454610bb4565b825550505050565b600090565b610c78610c6b565b610c83818484610c46565b505050565b5b81811015610ca757610c9c600082610c70565b600181019050610c89565b5050565b601f821115610cec57610cbd81610b82565b610cc684610b97565b81016020851015610cd5578190505b610ce9610ce185610b97565b830182610c88565b50505b505050565b600082821c905092915050565b6000610d0f60001984600802610cf1565b1980831691505092915050565b6000610d288383610cfe565b9150826002028217905092915050565b610d4182610b17565b67ffffffffffffffff811115610d5a57610d596108b3565b5b610d648254610b51565b610d6f828285610cab565b600060209050601f831160018114610da25760008415610d90578287015190505b610d9a8582610d1c565b865550610e02565b601f198416610db086610b82565b60005b82811015610dd857848901518255600182019150602085019450602081019050610db3565b86831015610df55784890151610df1601f891682610cfe565b8355505b6001600288020188555050505b505050505050565b610e138161085a565b82525050565b6000602082019050610e2e6000830184610e0a565b92915050565b7f4e487b7100000000000000000000000000000000000000000000000000000000600052602160045260246000fd5b6000819050919050565b610e7681610e63565b82525050565b610e8581610c06565b82525050565b600060a082019050610ea06000830188610e6d565b610ead6020830187610e6d565b610eba6040830186610e6d565b610ec76060830185610e7c565b610ed46080830184610e0a565b9695505050505050565b6000610ef9610ef4610eef846109f9565b610c10565b610c06565b9050919050565b610f0981610ede565b82525050565b6000604082019050610f246000830185610f00565b610f316020830184610e7c565b9392505050565b600082825260208201905092915050565b6000610f5482610b17565b610f5e8185610f38565b9350610f6e81856020860161095f565b610f77816108a2565b840191505092915050565b60006020820190508181036000830152610f9c8184610f49565b905092915050565b600081519050919050565b6000819050602082019050919050565b6000610fcb8251610e63565b80915050919050565b6000610fdf82610fa4565b82610fe984610faf565b9050610ff481610fbf565b925060208210156110345761102f7fffffffffffffffffffffffffffffffffffffffffffffffffffffffffffffffff83602003600802610ba7565b831692505b5050919050565b60805160a05160c05160e05161010051610120516101405161016051610180516158156110af6000396000505060008181610eb601526117230152600061219101526000612156015260006131ce015260006131ad0152600061295a015260006129b0015260006129d901526158156000f3fe6080604052600436106101ee5760003560e01c8063715018a61161010d578063b88d4fde116100a0578063e985e9c51161006f578063e985e9c51461073c578063eb13554f14610779578063ed24911d146107a4578063f2fde38b146107cf578063f7330c2d146107f8576101ee565b8063b88d4fde14610680578063c87b56dd146106a9578063cdd78cfc146106e6578063db5e006314610711576101ee565b80638da5cb5b116100dc5780638da5cb5b146105e55780638ff75e821461061057806395d89b411461062c578063a22cb46514610657576101ee565b8063715018a6146105375780637a9892811461054e5780638462151c1461057757806384b0196e146105b4576101ee565b80632a55205a116101855780634f6ccce7116101545780634f6ccce7146104555780636352211e1461049257806365d65e86146104cf57806370a08231146104fa576101ee565b80632a55205a1461036c5780632e37eef6146103aa5780632f745c59146103ef57806342842e0e1461042c576101ee565b8063095ea7b3116101c1578063095ea7b3146102c357806318160ddd146102ec5780631ce97fd11461031757806323b872dd14610343576101ee565b806301ffc9a7146101f357806306fdde0314610230578063072a13191461025b578063081812fc14610286575b600080fd5b3480156101ff57600080fd5b5061021a60048036038101906102159190614018565b610835565b6040516102279190614060565b60405180910390f35b34801561023c57600080fd5b50610245610847565b604051610252919061410b565b60405180910390f35b34801561026757600080fd5b506102706108d9565b60405161027d9190614060565b60405180910390f35b34801561029257600080fd5b506102ad60048036038101906102a89190614163565b6109d3565b6040516102ba91906141d1565b60405180910390f35b3480156102cf57600080fd5b506102ea60048036038101906102e59190614218565b6109ef565b005b3480156102f857600080fd5b50610301610a05565b60405161030e9190614267565b60405180910390f35b34801561032357600080fd5b5061032c610a12565b60405161033a9291906143d8565b60405180910390f35b34801561034f57600080fd5b5061036a60048036038101906103659190614402565b610ac6565b005b34801561037857600080fd5b50610393600480360381019061038e9190614455565b610bc8565b6040516103a1929190614495565b60405180910390f35b3480156103b657600080fd5b506103d160048036038101906103cc9190614163565b610cf8565b6040516103e6999897969594939291906144dc565b60405180910390f35b3480156103fb57600080fd5b5061041660048036038101906104119190614218565b610d63565b6040516104239190614267565b60405180910390f35b34801561043857600080fd5b50610453600480360381019061044e9190614402565b610e0c565b005b34801561046157600080fd5b5061047c60048036038101906104779190614163565b610e2c565b6040516104899190614267565b60405180910390f35b34801561049e57600080fd5b506104b960048036038101906104b49190614163565b610ea2565b6040516104c691906141d1565b60405180910390f35b3480156104db57600080fd5b506104e4610eb4565b6040516104f191906141d1565b60405180910390f35b34801561050657600080fd5b50610521600480360381019061051c9190614569565b610ed8565b60405161052e9190614267565b60405180910390f35b34801561054357600080fd5b5061054c610f92565b005b34801561055a57600080fd5b50610575600480360381019061057091906145e7565b610fa6565b005b34801561058357600080fd5b5061059e60048036038101906105999190614569565b6113a0565b6040516105ab919061474c565b60405180910390f35b3480156105c057600080fd5b506105c9611437565b6040516105dc97969594939291906147a9565b60405180910390f35b3480156105f157600080fd5b506105fa6114e1565b60405161060791906141d1565b60405180910390f35b61062a6004803603810190610625919061493e565b61150b565b005b34801561063857600080fd5b50610641611a63565b60405161064e919061410b565b60405180910390f35b34801561066357600080fd5b5061067e60048036038101906106799190614a59565b611af5565b005b34801561068c57600080fd5b506106a760048036038101906106a29190614bc9565b611b0b565b005b3480156106b557600080fd5b506106d060048036038101906106cb9190614163565b611b30565b6040516106dd919061410b565b60405180910390f35b3480156106f257600080fd5b506106fb611b42565b6040516107089190614c73565b60405180910390f35b34801561071d57600080fd5b50610726611b60565b6040516107339190614267565b60405180910390f35b34801561074857600080fd5b50610763600480360381019061075e9190614c8e565b611b6d565b6040516107709190614060565b60405180910390f35b34801561078557600080fd5b5061078e611c01565b60405161079b91906141d1565b60405180910390f35b3480156107b057600080fd5b506107b9611c27565b6040516107c69190614cce565b60405180910390f35b3480156107db57600080fd5b506107f660048036038101906107f19190614569565b611c36565b005b34801561080457600080fd5b5061081f600480360381019061081a9190614ce9565b611cbc565b60405161082c9190614267565b60405180910390f35b600061084082611d3b565b9050919050565b60606000805461085690614d58565b80601f016020809104026020016040519081016040528092919081815260200182805461088290614d58565b80156108cf5780601f106108a4576101008083540402835291602001916108cf565b820191906000526020600020905b8154815290600101906020018083116108b257829003601f168201915b5050505050905090565b60008042905060005b6012805490508110156109c9576000600281111561090357610902614282565b5b6012828154811061091757610916614d89565b5b906000526020600020906009020160000160009054906101000a900460ff16600281111561094857610947614282565b5b1415801561097b57506012818154811061096557610964614d89565b5b9060005260206000209060090201600201548210155b80156109ac57506012818154811061099657610995614d89565b5b9060005260206000209060090201600301548211155b156109bc576001925050506109d0565b80806001019150506108e2565b5060009150505b90565b60006109de82611db5565b506109e882611e3d565b9050919050565b610a0182826109fc611e7a565b611e82565b5050565b6000600880549050905090565b6000610a1c613f4b565b610a24611e94565b80604051806101200160405290816000820160009054906101000a900460ff166002811115610a5657610a55614282565b5b6002811115610a6857610a67614282565b5b8152602001600182015481526020016002820154815260200160038201548152602001600482015481526020016005820154815260200160068201548152602001600782015481526020016008820154815250509050915091509091565b600073ffffffffffffffffffffffffffffffffffffffff168273ffffffffffffffffffffffffffffffffffffffff1603610b385760006040517f64a0ae92000000000000000000000000000000000000000000000000000000008152600401610b2f91906141d1565b60405180910390fd5b6000610b4c8383610b47611e7a565b611fe0565b90508373ffffffffffffffffffffffffffffffffffffffff168173ffffffffffffffffffffffffffffffffffffffff1614610bc2578382826040517f64283d7b000000000000000000000000000000000000000000000000000000008152600401610bb993929190614db8565b60405180910390fd5b50505050565b6000806000600c6000868152602001908152602001600020905060008160000160009054906101000a900473ffffffffffffffffffffffffffffffffffffffff16905060008260000160149054906101000a90046bffffffffffffffffffffffff169050600073ffffffffffffffffffffffffffffffffffffffff168273ffffffffffffffffffffffffffffffffffffffff1603610ca957600b60000160009054906101000a900473ffffffffffffffffffffffffffffffffffffffff169150600b60000160149054906101000a90046bffffffffffffffffffffffff1690505b6000610cb3611ff6565b6bffffffffffffffffffffffff16826bffffffffffffffffffffffff1688610cdb9190614e1e565b610ce59190614e8f565b9050828195509550505050509250929050565b60128181548110610d0857600080fd5b90600052602060002090600902016000915090508060000160009054906101000a900460ff16908060010154908060020154908060030154908060040154908060050154908060060154908060070154908060080154905089565b6000610d6e83610ed8565b8210610db35782826040517fa57d13dc000000000000000000000000000000000000000000000000000000008152600401610daa929190614495565b60405180910390fd5b600660008473ffffffffffffffffffffffffffffffffffffffff1673ffffffffffffffffffffffffffffffffffffffff168152602001908152602001600020600083815260200190815260200160002054905092915050565b610e2783838360405180602001604052806000815250611b0b565b505050565b6000610e36610a05565b8210610e7c576000826040517fa57d13dc000000000000000000000000000000000000000000000000000000008152600401610e73929190614495565b60405180910390fd5b60088281548110610e9057610e8f614d89565b5b90600052602060002001549050919050565b6000610ead82611db5565b9050919050565b7f000000000000000000000000000000000000000000000000000000000000000081565b60008073ffffffffffffffffffffffffffffffffffffffff168273ffffffffffffffffffffffffffffffffffffffff1603610f4b5760006040517f89c62b64000000000000000000000000000000000000000000000000000000008152600401610f4291906141d1565b60405180910390fd5b600360008373ffffffffffffffffffffffffffffffffffffffff1673ffffffffffffffffffffffffffffffffffffffff168152602001908152602001600020549050919050565b610f9a612000565b610fa46000612087565b565b610fae612000565b848610610ff0576040517f08c379a0000000000000000000000000000000000000000000000000000000008152600401610fe790614f0c565b60405180910390fd5b60028081111561100357611002614282565b5b88600281111561101657611015614282565b5b03156110e8576000831161105f576040517f08c379a000000000000000000000000000000000000000000000000000000000815260040161105690614f9e565b60405180910390fd5b600082116110a2576040517f08c379a000000000000000000000000000000000000000000000000000000000815260040161109990615030565b60405180910390fd5b6000801b81036110e7576040517f08c379a00000000000000000000000000000000000000000000000000000000081526004016110de906150c2565b60405180910390fd5b5b60005b6012805490508110156112495760006012828154811061110e5761110d614d89565b5b9060005260206000209060090201604051806101200160405290816000820160009054906101000a900460ff16600281111561114d5761114c614282565b5b600281111561115f5761115e614282565b5b8152602001600182015481526020016002820154815260200160038201548152602001600482015481526020016005820154815260200160068201548152602001600782015481526020016008820154815250509050600060028111156111c9576111c8614282565b5b816000015160028111156111e0576111df614282565b5b036111eb575061123c565b80606001518811158015611203575080604001518710155b1561123a576040517f27fdfacf00000000000000000000000000000000000000000000000000000000815260040160405180910390fd5b505b80806001019150506110eb565b5060006040518061012001604052808a600281111561126b5761126a614282565b5b81526020018981526020018881526020018781526020018681526020018581526020018481526020016000815260200183815250905060006012805490509050601282908060018154018082558091505060019003906000526020600020906009020160009091909190915060008201518160000160006101000a81548160ff0219169083600281111561130257611301614282565b5b02179055506020820151816001015560408201518160020155606082015181600301556080820151816004015560a0820151816005015560c0820151816006015560e0820151816007015561010082015181600801555050807f7673e4939433531841b3ee155cfb41d74036f1741ed20ba7c3ed88d66a2895518b8b60405161138c9291906150e2565b60405180910390a250505050505050505050565b6060601460008373ffffffffffffffffffffffffffffffffffffffff1673ffffffffffffffffffffffffffffffffffffffff16815260200190815260200160002080548060200260200160405190810160405280929190818152602001828054801561142b57602002820191906000526020600020905b815481526020019060010190808311611417575b50505050509050919050565b60006060806000806000606061144b61214d565b611453612188565b46306000801b600067ffffffffffffffff81111561147457611473614a9e565b5b6040519080825280602002602001820160405280156114a25781602001602082028036833780820191505090505b507f0f00000000000000000000000000000000000000000000000000000000000000959493929190965096509650965096509650965090919293949596565b6000600d60009054906101000a900473ffffffffffffffffffffffffffffffffffffffff16905090565b600080611516611e94565b915091506001600281111561152e5761152d614282565b5b8160000160009054906101000a900460ff16600281111561155257611551614282565b5b03611604576115cd848480806020026020016040519081016040528093929190818152602001838360200280828437600081840152601f19601f820116905080830192505050505050508260080154336040516020016115b29190615153565b604051602081830303815290604052805190602001206121c3565b611603576040517fb05e92fa00000000000000000000000000000000000000000000000000000000815260040160405180910390fd5b5b42610e1088611613919061516e565b108061161e57504287115b15611655576040517f0819bdcd00000000000000000000000000000000000000000000000000000000815260040160405180910390fd5b6011600089815260200190815260200160002060009054906101000a900460ff16156116ad576040517f8baa579f00000000000000000000000000000000000000000000000000000000815260040160405180910390fd5b60007fbcd57119bf9b3f112b39ecfb926b57babf8ea759ef8fb8f953ec0103b2a187f3338d8d8d6040516116e29291906151d2565b60405180910390208560010154878e8e6040516020016117099897969594939291906151eb565b6040516020818303038152906040528051906020012090507f000000000000000000000000000000000000000000000000000000000000000073ffffffffffffffffffffffffffffffffffffffff166117b788888080601f016020809104026020016040519081016040528093929190818152602001838380828437600081840152601f19601f820116905080830192505050505050506117a9846121da565b6121f490919063ffffffff16565b73ffffffffffffffffffffffffffffffffffffffff1614611804576040517f8baa579f00000000000000000000000000000000000000000000000000000000815260040160405180910390fd5b81600101543414611841576040517f43a8b01000000000000000000000000000000000000000000000000000000000815260040160405180910390fd5b600082600401541415801561185e57508160040154826007015410155b15611895576040517f3e3f7e0d00000000000000000000000000000000000000000000000000000000815260040160405180910390fd5b6002808111156118a8576118a7614282565b5b8260000160009054906101000a900460ff1660028111156118cc576118cb614282565b5b1480156118dd575060008260050154145b15801561197357508160050154601360003373ffffffffffffffffffffffffffffffffffffffff1673ffffffffffffffffffffffffffffffffffffffff16815260200190815260200160002060008460000160009054906101000a900460ff16600281111561194f5761194e614282565b5b600281111561196157611960614282565b5b81526020019081526020016000205410155b156119aa576040517f5107dbe700000000000000000000000000000000000000000000000000000000815260040160405180910390fd5b6001601160008b815260200190815260200160002060006101000a81548160ff0219169083151502179055506119df34612220565b6119e982336123ff565b6119f5338d8d8d6124b8565b3373ffffffffffffffffffffffffffffffffffffffff168c7f99f38cf3feaad38e0a2e22ef51bdd4faba32b432520a951248d77057596a425a8460000160009054906101000a900460ff16604051611a4d9190615269565b60405180910390a3505050505050505050505050565b606060018054611a7290614d58565b80601f0160208091040260200160405190810160405280929190818152602001828054611a9e90614d58565b8015611aeb5780601f10611ac057610100808354040283529160200191611aeb565b820191906000526020600020905b815481529060010190602001808311611ace57829003601f168201915b5050505050905090565b611b07611b00611e7a565b8383612523565b5050565b611b16848484610ac6565b611b2a611b21611e7a565b85858585612692565b50505050565b6060611b3b82612843565b9050919050565b601560009054906101000a90046bffffffffffffffffffffffff1681565b6000601280549050905090565b6000600560008473ffffffffffffffffffffffffffffffffffffffff1673ffffffffffffffffffffffffffffffffffffffff16815260200190815260200160002060008373ffffffffffffffffffffffffffffffffffffffff1673ffffffffffffffffffffffffffffffffffffffff16815260200190815260200160002060009054906101000a900460ff16905092915050565b6015600c9054906101000a900473ffffffffffffffffffffffffffffffffffffffff1681565b6000611c31612956565b905090565b611c3e612000565b600073ffffffffffffffffffffffffffffffffffffffff168173ffffffffffffffffffffffffffffffffffffffff1603611cb05760006040517f1e4fbdf7000000000000000000000000000000000000000000000000000000008152600401611ca791906141d1565b60405180910390fd5b611cb981612087565b50565b6000601360008473ffffffffffffffffffffffffffffffffffffffff1673ffffffffffffffffffffffffffffffffffffffff1681526020019081526020016000206000836002811115611d1257611d11614282565b5b6002811115611d2457611d23614282565b5b815260200190815260200160002054905092915050565b60007f2a55205a000000000000000000000000000000000000000000000000000000007bffffffffffffffffffffffffffffffffffffffffffffffffffffffff1916827bffffffffffffffffffffffffffffffffffffffffffffffffffffffff19161480611dae5750611dad82612a0d565b5b9050919050565b600080611dc183612a6e565b9050600073ffffffffffffffffffffffffffffffffffffffff168173ffffffffffffffffffffffffffffffffffffffff1603611e3457826040517f7e273289000000000000000000000000000000000000000000000000000000008152600401611e2b9190614267565b60405180910390fd5b80915050919050565b60006004600083815260200190815260200160002060009054906101000a900473ffffffffffffffffffffffffffffffffffffffff169050919050565b600033905090565b611e8f8383836001612aab565b505050565b600080600042905060005b601280549050811015611fa95760006002811115611ec057611ebf614282565b5b60128281548110611ed457611ed3614d89565b5b906000526020600020906009020160000160009054906101000a900460ff166002811115611f0557611f04614282565b5b14158015611f38575060128181548110611f2257611f21614d89565b5b9060005260206000209060090201600201548210155b8015611f69575060128181548110611f5357611f52614d89565b5b9060005260206000209060090201600301548211155b15611f9c578060128281548110611f8357611f82614d89565b5b9060005260206000209060090201935093505050611fdc565b8080600101915050611e9f565b506040517fa9477e0900000000000000000000000000000000000000000000000000000000815260040160405180910390fd5b9091565b6000611fed848484612c70565b90509392505050565b6000612710905090565b612008611e7a565b73ffffffffffffffffffffffffffffffffffffffff166120266114e1565b73ffffffffffffffffffffffffffffffffffffffff161461208557612049611e7a565b6040517f118cdaa700000000000000000000000000000000000000000000000000000000815260040161207c91906141d1565b60405180910390fd5b565b6000600d60009054906101000a900473ffffffffffffffffffffffffffffffffffffffff16905081600d60006101000a81548173ffffffffffffffffffffffffffffffffffffffff021916908373ffffffffffffffffffffffffffffffffffffffff1602179055508173ffffffffffffffffffffffffffffffffffffffff168173ffffffffffffffffffffffffffffffffffffffff167f8be0079c531659141344cd1fd0a4f28419497f9722a3daafe3b4186f6b6457e060405160405180910390a35050565b6060612183600e7f0000000000000000000000000000000000000000000000000000000000000000612d8d90919063ffffffff16565b905090565b60606121be600f7f0000000000000000000000000000000000000000000000000000000000000000612d8d90919063ffffffff16565b905090565b6000826121d08584612e3d565b1490509392505050565b60006121ed6121e7612956565b83612e8d565b9050919050565b6000806000806122048686612ece565b9250925092506122148282612f2a565b82935050505092915050565b6000612710601560009054906101000a90046bffffffffffffffffffffffff166bffffffffffffffffffffffff16836122599190614e1e565b6122639190614e8f565b905060008111156123355760006015600c9054906101000a900473ffffffffffffffffffffffffffffffffffffffff1673ffffffffffffffffffffffffffffffffffffffff16826040516122b6906152aa565b60006040518083038185875af1925050503d80600081146122f3576040519150601f19603f3d011682016040523d82523d6000602084013e6122f8565b606091505b5050905080612333576040517f90b8ec1800000000000000000000000000000000000000000000000000000000815260040160405180910390fd5b505b6000818361234391906152bf565b905060008111156123fa5760006123586114e1565b73ffffffffffffffffffffffffffffffffffffffff168260405161237b906152aa565b60006040518083038185875af1925050503d80600081146123b8576040519150601f19603f3d011682016040523d82523d6000602084013e6123bd565b606091505b50509050806123f8576040517f90b8ec1800000000000000000000000000000000000000000000000000000000815260040160405180910390fd5b505b505050565b816007016000815480929190612414906152f3565b9190505550601360008273ffffffffffffffffffffffffffffffffffffffff1673ffffffffffffffffffffffffffffffffffffffff16815260200190815260200160002060008360000160009054906101000a900460ff16600281111561247e5761247d614282565b5b60028111156124905761248f614282565b5b815260200190815260200160002060008154809291906124af906152f3565b91905055505050565b6124c2848461308e565b600082829050111561251d5761251c8383838080601f016020809104026020016040519081016040528093929190818152602001838380828437600081840152601f19601f820116905080830192505050505050506130ac565b5b50505050565b600073ffffffffffffffffffffffffffffffffffffffff168273ffffffffffffffffffffffffffffffffffffffff160361259457816040517f5b08ba1800000000000000000000000000000000000000000000000000000000815260040161258b91906141d1565b60405180910390fd5b80600560008573ffffffffffffffffffffffffffffffffffffffff1673ffffffffffffffffffffffffffffffffffffffff16815260200190815260200160002060008473ffffffffffffffffffffffffffffffffffffffff1673ffffffffffffffffffffffffffffffffffffffff16815260200190815260200160002060006101000a81548160ff0219169083151502179055508173ffffffffffffffffffffffffffffffffffffffff168373ffffffffffffffffffffffffffffffffffffffff167f17307eab39ab6107e8899845ad3d59bd9653f200f220920489ca2b5937696c31836040516126859190614060565b60405180910390a3505050565b60008373ffffffffffffffffffffffffffffffffffffffff163b111561283c578273ffffffffffffffffffffffffffffffffffffffff1663150b7a02868685856040518563ffffffff1660e01b81526004016126f19493929190615390565b6020604051808303816000875af192505050801561272d57506040513d601f19601f8201168201806040525081019061272a91906153f1565b60015b6127b1573d806000811461275d576040519150601f19603f3d011682016040523d82523d6000602084013e612762565b606091505b5060008151036127a957836040517f64a0ae920000000000000000000000000000000000000000000000000000000081526004016127a091906141d1565b60405180910390fd5b805181602001fd5b63150b7a0260e01b7bffffffffffffffffffffffffffffffffffffffffffffffffffffffff1916817bffffffffffffffffffffffffffffffffffffffffffffffffffffffff19161461283a57836040517f64a0ae9200000000000000000000000000000000000000000000000000000000815260040161283191906141d1565b60405180910390fd5b505b5050505050565b606061284e82611db5565b506000600a6000848152602001908152602001600020805461286f90614d58565b80601f016020809104026020016040519081016040528092919081815260200182805461289b90614d58565b80156128e85780601f106128bd576101008083540402835291602001916128e8565b820191906000526020600020905b8154815290600101906020018083116128cb57829003601f168201915b5050505050905060006128f9613108565b9050600081510361290e578192505050612951565b60008251111561294357808260405160200161292b92919061545a565b60405160208183030381529060405292505050612951565b61294c8461311f565b925050505b919050565b60007f000000000000000000000000000000000000000000000000000000000000000073ffffffffffffffffffffffffffffffffffffffff163073ffffffffffffffffffffffffffffffffffffffff161480156129d257507f000000000000000000000000000000000000000000000000000000000000000046145b156129ff577f00000000000000000000000000000000000000000000000000000000000000009050612a0a565b612a07613188565b90505b90565b6000634906490660e01b7bffffffffffffffffffffffffffffffffffffffffffffffffffffffff1916827bffffffffffffffffffffffffffffffffffffffffffffffffffffffff19161480612a675750612a668261321e565b5b9050919050565b60006002600083815260200190815260200160002060009054906101000a900473ffffffffffffffffffffffffffffffffffffffff169050919050565b8080612ae45750600073ffffffffffffffffffffffffffffffffffffffff168273ffffffffffffffffffffffffffffffffffffffff1614155b15612c18576000612af484611db5565b9050600073ffffffffffffffffffffffffffffffffffffffff168373ffffffffffffffffffffffffffffffffffffffff1614158015612b5f57508273ffffffffffffffffffffffffffffffffffffffff168173ffffffffffffffffffffffffffffffffffffffff1614155b8015612b725750612b708184611b6d565b155b15612bb457826040517fa9fbf51f000000000000000000000000000000000000000000000000000000008152600401612bab91906141d1565b60405180910390fd5b8115612c1657838573ffffffffffffffffffffffffffffffffffffffff168273ffffffffffffffffffffffffffffffffffffffff167f8c5be1e5ebec7d5bd14f71427d1e84f3dd0314c0f7b2291e5b200ac8c7c3b92560405160405180910390a45b505b836004600085815260200190815260200160002060006101000a81548173ffffffffffffffffffffffffffffffffffffffff021916908373ffffffffffffffffffffffffffffffffffffffff16021790555050505050565b600080612c7e858585613298565b9050600073ffffffffffffffffffffffffffffffffffffffff168173ffffffffffffffffffffffffffffffffffffffff1603612cc257612cbd846134b2565b612d01565b8473ffffffffffffffffffffffffffffffffffffffff168173ffffffffffffffffffffffffffffffffffffffff1614612d0057612cff81856134fb565b5b5b600073ffffffffffffffffffffffffffffffffffffffff168573ffffffffffffffffffffffffffffffffffffffff1603612d4357612d3e846135e6565b612d82565b8473ffffffffffffffffffffffffffffffffffffffff168173ffffffffffffffffffffffffffffffffffffffff1614612d8157612d8085856136b7565b5b5b809150509392505050565b606060ff60001b8314612daa57612da383613742565b9050612e37565b818054612db690614d58565b80601f0160208091040260200160405190810160405280929190818152602001828054612de290614d58565b8015612e2f5780601f10612e0457610100808354040283529160200191612e2f565b820191906000526020600020905b815481529060010190602001808311612e1257829003601f168201915b505050505090505b92915050565b60008082905060005b8451811015612e8257612e7382868381518110612e6657612e65614d89565b5b60200260200101516137b6565b91508080600101915050612e46565b508091505092915050565b60006040517f190100000000000000000000000000000000000000000000000000000000000081528360028201528260228201526042812091505092915050565b60008060006041845103612f135760008060006020870151925060408701519150606087015160001a9050612f05888285856137e1565b955095509550505050612f23565b60006002855160001b9250925092505b9250925092565b60006003811115612f3e57612f3d614282565b5b826003811115612f5157612f50614282565b5b031561308a5760016003811115612f6b57612f6a614282565b5b826003811115612f7e57612f7d614282565b5b03612fb5576040517ff645eedf00000000000000000000000000000000000000000000000000000000815260040160405180910390fd5b60026003811115612fc957612fc8614282565b5b826003811115612fdc57612fdb614282565b5b03613021578060001c6040517ffce698f70000000000000000000000000000000000000000000000000000000081526004016130189190614267565b60405180910390fd5b60038081111561303457613033614282565b5b82600381111561304757613046614282565b5b0361308957806040517fd78bce0c0000000000000000000000000000000000000000000000000000000081526004016130809190614cce565b60405180910390fd5b5b5050565b6130a88282604051806020016040528060008152506138d5565b5050565b80600a600084815260200190815260200160002090816130cc919061562a565b507ff8e1a15aba9398e019f0b49df1a4fde98ee17ae345cb5f6b5e2c27f5033e8ce7826040516130fc9190614267565b60405180910390a15050565b606060405180602001604052806000815250905090565b606061312a82611db5565b506000613135613108565b905060008151116131555760405180602001604052806000815250613180565b8061315f846138f9565b60405160200161317092919061545a565b6040516020818303038152906040525b915050919050565b60007f8b73c3c69bb8fe3d512ecc4cf759cc79239f7b179b0ffacaa9a75d522b39400f7f00000000000000000000000000000000000000000000000000000000000000007f000000000000000000000000000000000000000000000000000000000000000046306040516020016132039594939291906156fc565b60405160208183030381529060405280519060200120905090565b60007f780e9d63000000000000000000000000000000000000000000000000000000007bffffffffffffffffffffffffffffffffffffffffffffffffffffffff1916827bffffffffffffffffffffffffffffffffffffffffffffffffffffffff191614806132915750613290826139c7565b5b9050919050565b6000806132a484612a6e565b9050600073ffffffffffffffffffffffffffffffffffffffff168373ffffffffffffffffffffffffffffffffffffffff16146132e6576132e5818486613aa9565b5b600073ffffffffffffffffffffffffffffffffffffffff168173ffffffffffffffffffffffffffffffffffffffff161461337757613328600085600080612aab565b6001600360008373ffffffffffffffffffffffffffffffffffffffff1673ffffffffffffffffffffffffffffffffffffffff168152602001908152602001600020600082825403925050819055505b600073ffffffffffffffffffffffffffffffffffffffff168573ffffffffffffffffffffffffffffffffffffffff16146133fa576001600360008773ffffffffffffffffffffffffffffffffffffffff1673ffffffffffffffffffffffffffffffffffffffff168152602001908152602001600020600082825401925050819055505b846002600086815260200190815260200160002060006101000a81548173ffffffffffffffffffffffffffffffffffffffff021916908373ffffffffffffffffffffffffffffffffffffffff160217905550838573ffffffffffffffffffffffffffffffffffffffff168273ffffffffffffffffffffffffffffffffffffffff167fddf252ad1be2c89b69c2b068fc378daa952ba7f163c4a11628f55a4df523b3ef60405160405180910390a4809150509392505050565b6008805490506009600083815260200190815260200160002081905550600881908060018154018082558091505060019003906000526020600020016000909190919091505550565b600061350683610ed8565b90506000600760008481526020019081526020016000205490506000600660008673ffffffffffffffffffffffffffffffffffffffff1673ffffffffffffffffffffffffffffffffffffffff16815260200190815260200160002090508282146135b25760008160008581526020019081526020016000205490508082600085815260200190815260200160002081905550826007600083815260200190815260200160002081905550505b6007600085815260200190815260200160002060009055806000848152602001908152602001600020600090555050505050565b600060016008805490506135fa91906152bf565b905060006009600084815260200190815260200160002054905060006008838154811061362a57613629614d89565b5b90600052602060002001549050806008838154811061364c5761364b614d89565b5b90600052602060002001819055508160096000838152602001908152602001600020819055506009600085815260200190815260200160002060009055600880548061369b5761369a61574f565b5b6001900381819060005260206000200160009055905550505050565b600060016136c484610ed8565b6136ce91906152bf565b905081600660008573ffffffffffffffffffffffffffffffffffffffff1673ffffffffffffffffffffffffffffffffffffffff168152602001908152602001600020600083815260200190815260200160002081905550806007600084815260200190815260200160002081905550505050565b6060600061374f83613b6d565b90506000602067ffffffffffffffff81111561376e5761376d614a9e565b5b6040519080825280601f01601f1916602001820160405280156137a05781602001600182028036833780820191505090505b5090508181528360208201528092505050919050565b60008183106137ce576137c98284613bbd565b6137d9565b6137d88383613bbd565b5b905092915050565b60008060007f7fffffffffffffffffffffffffffffff5d576e7357a4501ddfe92f46681b20a08460001c11156138215760006003859250925092506138cb565b600060018888888860405160008152602001604052604051613846949392919061579a565b6020604051602081039080840390855afa158015613868573d6000803e3d6000fd5b505050602060405103519050600073ffffffffffffffffffffffffffffffffffffffff168173ffffffffffffffffffffffffffffffffffffffff16036138bc57600060016000801b935093509350506138cb565b8060008060001b935093509350505b9450945094915050565b6138df8383613bd4565b6138f46138ea611e7a565b6000858585612692565b505050565b60606000600161390884613ccd565b01905060008167ffffffffffffffff81111561392757613926614a9e565b5b6040519080825280601f01601f1916602001820160405280156139595781602001600182028036833780820191505090505b509050600082602001820190505b6001156139bc578080600190039150507f3031323334353637383961626364656600000000000000000000000000000000600a86061a8153600a85816139b0576139af614e60565b5b04945060008503613967575b819350505050919050565b60007f80ac58cd000000000000000000000000000000000000000000000000000000007bffffffffffffffffffffffffffffffffffffffffffffffffffffffff1916827bffffffffffffffffffffffffffffffffffffffffffffffffffffffff19161480613a9257507f5b5e139f000000000000000000000000000000000000000000000000000000007bffffffffffffffffffffffffffffffffffffffffffffffffffffffff1916827bffffffffffffffffffffffffffffffffffffffffffffffffffffffff1916145b80613aa25750613aa182613e20565b5b9050919050565b613ab4838383613e8a565b613b6857600073ffffffffffffffffffffffffffffffffffffffff168373ffffffffffffffffffffffffffffffffffffffff1603613b2957806040517f7e273289000000000000000000000000000000000000000000000000000000008152600401613b209190614267565b60405180910390fd5b81816040517f177e802f000000000000000000000000000000000000000000000000000000008152600401613b5f929190614495565b60405180910390fd5b505050565b60008060ff8360001c169050601f811115613bb4576040517fb3512b0c00000000000000000000000000000000000000000000000000000000815260040160405180910390fd5b80915050919050565b600082600052816020526040600020905092915050565b600073ffffffffffffffffffffffffffffffffffffffff168273ffffffffffffffffffffffffffffffffffffffff1603613c465760006040517f64a0ae92000000000000000000000000000000000000000000000000000000008152600401613c3d91906141d1565b60405180910390fd5b6000613c5483836000611fe0565b9050600073ffffffffffffffffffffffffffffffffffffffff168173ffffffffffffffffffffffffffffffffffffffff1614613cc85760006040517f73c6ac6e000000000000000000000000000000000000000000000000000000008152600401613cbf91906141d1565b60405180910390fd5b505050565b600080600090507a184f03e93ff9f4daa797ed6e38ed64bf6a1f0100000000000000008310613d2b577a184f03e93ff9f4daa797ed6e38ed64bf6a1f0100000000000000008381613d2157613d20614e60565b5b0492506040810190505b6d04ee2d6d415b85acef81000000008310613d68576d04ee2d6d415b85acef81000000008381613d5e57613d5d614e60565b5b0492506020810190505b662386f26fc100008310613d9757662386f26fc100008381613d8d57613d8c614e60565b5b0492506010810190505b6305f5e1008310613dc0576305f5e1008381613db657613db5614e60565b5b0492506008810190505b6127108310613de5576127108381613ddb57613dda614e60565b5b0492506004810190505b60648310613e085760648381613dfe57613dfd614e60565b5b0492506002810190505b600a8310613e17576001810190505b80915050919050565b60007f01ffc9a7000000000000000000000000000000000000000000000000000000007bffffffffffffffffffffffffffffffffffffffffffffffffffffffff1916827bffffffffffffffffffffffffffffffffffffffffffffffffffffffff1916149050919050565b60008073ffffffffffffffffffffffffffffffffffffffff168373ffffffffffffffffffffffffffffffffffffffff1614158015613f4257508273ffffffffffffffffffffffffffffffffffffffff168473ffffffffffffffffffffffffffffffffffffffff161480613f035750613f028484611b6d565b5b80613f4157508273ffffffffffffffffffffffffffffffffffffffff16613f2983611e3d565b73ffffffffffffffffffffffffffffffffffffffff16145b5b90509392505050565b60405180610120016040528060006002811115613f6b57613f6a614282565b5b815260200160008152602001600081526020016000815260200160008152602001600081526020016000815260200160008152602001600080191681525090565b6000604051905090565b600080fd5b600080fd5b60007fffffffff0000000000000000000000000000000000000000000000000000000082169050919050565b613ff581613fc0565b811461400057600080fd5b50565b60008135905061401281613fec565b92915050565b60006020828403121561402e5761402d613fb6565b5b600061403c84828501614003565b91505092915050565b60008115159050919050565b61405a81614045565b82525050565b60006020820190506140756000830184614051565b92915050565b600081519050919050565b600082825260208201905092915050565b60005b838110156140b557808201518184015260208101905061409a565b60008484015250505050565b6000601f19601f8301169050919050565b60006140dd8261407b565b6140e78185614086565b93506140f7818560208601614097565b614100816140c1565b840191505092915050565b6000602082019050818103600083015261412581846140d2565b905092915050565b6000819050919050565b6141408161412d565b811461414b57600080fd5b50565b60008135905061415d81614137565b92915050565b60006020828403121561417957614178613fb6565b5b60006141878482850161414e565b91505092915050565b600073ffffffffffffffffffffffffffffffffffffffff82169050919050565b60006141bb82614190565b9050919050565b6141cb816141b0565b82525050565b60006020820190506141e660008301846141c2565b92915050565b6141f5816141b0565b811461420057600080fd5b50565b600081359050614212816141ec565b92915050565b6000806040838503121561422f5761422e613fb6565b5b600061423d85828601614203565b925050602061424e8582860161414e565b9150509250929050565b6142618161412d565b82525050565b600060208201905061427c6000830184614258565b92915050565b7f4e487b7100000000000000000000000000000000000000000000000000000000600052602160045260246000fd5b600381106142c2576142c1614282565b5b50565b60008190506142d3826142b1565b919050565b60006142e3826142c5565b9050919050565b6142f3816142d8565b82525050565b6143028161412d565b82525050565b6000819050919050565b61431b81614308565b82525050565b6101208201600082015161433860008501826142ea565b50602082015161434b60208501826142f9565b50604082015161435e60408501826142f9565b50606082015161437160608501826142f9565b50608082015161438460808501826142f9565b5060a082015161439760a08501826142f9565b5060c08201516143aa60c08501826142f9565b5060e08201516143bd60e08501826142f9565b506101008201516143d2610100850182614312565b50505050565b6000610140820190506143ee6000830185614258565b6143fb6020830184614321565b9392505050565b60008060006060848603121561441b5761441a613fb6565b5b600061442986828701614203565b935050602061443a86828701614203565b925050604061444b8682870161414e565b9150509250925092565b6000806040838503121561446c5761446b613fb6565b5b600061447a8582860161414e565b925050602061448b8582860161414e565b9150509250929050565b60006040820190506144aa60008301856141c2565b6144b76020830184614258565b9392505050565b6144c7816142d8565b82525050565b6144d681614308565b82525050565b6000610120820190506144f2600083018c6144be565b6144ff602083018b614258565b61450c604083018a614258565b6145196060830189614258565b6145266080830188614258565b61453360a0830187614258565b61454060c0830186614258565b61454d60e0830185614258565b61455b6101008301846144cd565b9a9950505050505050505050565b60006020828403121561457f5761457e613fb6565b5b600061458d84828501614203565b91505092915050565b600381106145a357600080fd5b50565b6000813590506145b581614596565b92915050565b6145c481614308565b81146145cf57600080fd5b50565b6000813590506145e1816145bb565b92915050565b600080600080600080600080610100898b03121561460857614607613fb6565b5b60006146168b828c016145a6565b98505060206146278b828c0161414e565b97505060406146388b828c0161414e565b96505060606146498b828c0161414e565b955050608061465a8b828c0161414e565b94505060a061466b8b828c0161414e565b93505060c061467c8b828c0161414e565b92505060e061468d8b828c016145d2565b9150509295985092959890939650565b600081519050919050565b600082825260208201905092915050565b6000819050602082019050919050565b60006146d583836142f9565b60208301905092915050565b6000602082019050919050565b60006146f98261469d565b61470381856146a8565b935061470e836146b9565b8060005b8381101561473f57815161472688826146c9565b9750614731836146e1565b925050600181019050614712565b5085935050505092915050565b6000602082019050818103600083015261476681846146ee565b905092915050565b60007fff0000000000000000000000000000000000000000000000000000000000000082169050919050565b6147a38161476e565b82525050565b600060e0820190506147be600083018a61479a565b81810360208301526147d081896140d2565b905081810360408301526147e481886140d2565b90506147f36060830187614258565b61480060808301866141c2565b61480d60a08301856144cd565b81810360c083015261481f81846146ee565b905098975050505050505050565b600080fd5b600080fd5b600080fd5b60008083601f8401126148525761485161482d565b5b8235905067ffffffffffffffff81111561486f5761486e614832565b5b60208301915083600182028301111561488b5761488a614837565b5b9250929050565b60008083601f8401126148a8576148a761482d565b5b8235905067ffffffffffffffff8111156148c5576148c4614832565b5b6020830191508360018202830111156148e1576148e0614837565b5b9250929050565b60008083601f8401126148fe576148fd61482d565b5b8235905067ffffffffffffffff81111561491b5761491a614832565b5b60208301915083602082028301111561493757614936614837565b5b9250929050565b600080600080600080600080600060c08a8c0312156149605761495f613fb6565b5b600061496e8c828d0161414e565b99505060208a013567ffffffffffffffff81111561498f5761498e613fbb565b5b61499b8c828d0161483c565b985098505060406149ae8c828d016145d2565b96505060606149bf8c828d0161414e565b95505060808a013567ffffffffffffffff8111156149e0576149df613fbb565b5b6149ec8c828d01614892565b945094505060a08a013567ffffffffffffffff811115614a0f57614a0e613fbb565b5b614a1b8c828d016148e8565b92509250509295985092959850929598565b614a3681614045565b8114614a4157600080fd5b50565b600081359050614a5381614a2d565b92915050565b60008060408385031215614a7057614a6f613fb6565b5b6000614a7e85828601614203565b9250506020614a8f85828601614a44565b9150509250929050565b600080fd5b7f4e487b7100000000000000000000000000000000000000000000000000000000600052604160045260246000fd5b614ad6826140c1565b810181811067ffffffffffffffff82111715614af557614af4614a9e565b5b80604052505050565b6000614b08613fac565b9050614b148282614acd565b919050565b600067ffffffffffffffff821115614b3457614b33614a9e565b5b614b3d826140c1565b9050602081019050919050565b82818337600083830152505050565b6000614b6c614b6784614b19565b614afe565b905082815260208101848484011115614b8857614b87614a99565b5b614b93848285614b4a565b509392505050565b600082601f830112614bb057614baf61482d565b5b8135614bc0848260208601614b59565b91505092915050565b60008060008060808587031215614be357614be2613fb6565b5b6000614bf187828801614203565b9450506020614c0287828801614203565b9350506040614c138782880161414e565b925050606085013567ffffffffffffffff811115614c3457614c33613fbb565b5b614c4087828801614b9b565b91505092959194509250565b60006bffffffffffffffffffffffff82169050919050565b614c6d81614c4c565b82525050565b6000602082019050614c886000830184614c64565b92915050565b60008060408385031215614ca557614ca4613fb6565b5b6000614cb385828601614203565b9250506020614cc485828601614203565b9150509250929050565b6000602082019050614ce360008301846144cd565b92915050565b60008060408385031215614d0057614cff613fb6565b5b6000614d0e85828601614203565b9250506020614d1f858286016145a6565b9150509250929050565b7f4e487b7100000000000000000000000000000000000000000000000000000000600052602260045260246000fd5b60006002820490506001821680614d7057607f821691505b602082108103614d8357614d82614d29565b5b50919050565b7f4e487b7100000000000000000000000000000000000000000000000000000000600052603260045260246000fd5b6000606082019050614dcd60008301866141c2565b614dda6020830185614258565b614de760408301846141c2565b949350505050565b7f4e487b7100000000000000000000000000000000000000000000000000000000600052601160045260246000fd5b6000614e298261412d565b9150614e348361412d565b9250828202614e428161412d565b91508282048414831517614e5957614e58614def565b5b5092915050565b7f4e487b7100000000000000000000000000000000000000000000000000000000600052601260045260246000fd5b6000614e9a8261412d565b9150614ea58361412d565b925082614eb557614eb4614e60565b5b828204905092915050565b7f496e76616c69642074696d652072616e67650000000000000000000000000000600082015250565b6000614ef6601283614086565b9150614f0182614ec0565b602082019050919050565b60006020820190508181036000830152614f2581614ee9565b9050919050565b7f496e76616c6964206d6178207065722077616c6c657420666f72206e6f6e2d7060008201527f75626c6963207068617365000000000000000000000000000000000000000000602082015250565b6000614f88602b83614086565b9150614f9382614f2c565b604082019050919050565b60006020820190508181036000830152614fb781614f7b565b9050919050565b7f496e76616c6964206d6178206d696e742070657220706861736520666f72206e60008201527f6f6e2d7075626c69632070686173650000000000000000000000000000000000602082015250565b600061501a602f83614086565b915061502582614fbe565b604082019050919050565b600060208201905081810360008301526150498161500d565b9050919050565b7f4d65726b6c6520726f6f7420726571756972656420666f722077686974656c6960008201527f7374207068617365000000000000000000000000000000000000000000000000602082015250565b60006150ac602883614086565b91506150b782615050565b604082019050919050565b600060208201905081810360008301526150db8161509f565b9050919050565b60006040820190506150f760008301856144be565b6151046020830184614258565b9392505050565b60008160601b9050919050565b60006151238261510b565b9050919050565b600061513582615118565b9050919050565b61514d615148826141b0565b61512a565b82525050565b600061515f828461513c565b60148201915081905092915050565b60006151798261412d565b91506151848361412d565b925082820190508082111561519c5761519b614def565b5b92915050565b600081905092915050565b60006151b983856151a2565b93506151c6838584614b4a565b82840190509392505050565b60006151df8284866151ad565b91508190509392505050565b600061010082019050615201600083018b6144cd565b61520e602083018a6141c2565b61521b6040830189614258565b61522860608301886144cd565b6152356080830187614258565b61524260a0830186614258565b61524f60c08301856144cd565b61525c60e0830184614258565b9998505050505050505050565b600060208201905061527e60008301846144be565b92915050565b50565b60006152946000836151a2565b915061529f82615284565b600082019050919050565b60006152b582615287565b9150819050919050565b60006152ca8261412d565b91506152d58361412d565b92508282039050818111156152ed576152ec614def565b5b92915050565b60006152fe8261412d565b91507fffffffffffffffffffffffffffffffffffffffffffffffffffffffffffffffff82036153305761532f614def565b5b600182019050919050565b600081519050919050565b600082825260208201905092915050565b60006153628261533b565b61536c8185615346565b935061537c818560208601614097565b615385816140c1565b840191505092915050565b60006080820190506153a560008301876141c2565b6153b260208301866141c2565b6153bf6040830185614258565b81810360608301526153d18184615357565b905095945050505050565b6000815190506153eb81613fec565b92915050565b60006020828403121561540757615406613fb6565b5b6000615415848285016153dc565b91505092915050565b600081905092915050565b60006154348261407b565b61543e818561541e565b935061544e818560208601614097565b80840191505092915050565b60006154668285615429565b91506154728284615429565b91508190509392505050565b60008190508160005260206000209050919050565b60006020601f8301049050919050565b600082821b905092915050565b6000600883026154e07fffffffffffffffffffffffffffffffffffffffffffffffffffffffffffffffff826154a3565b6154ea86836154a3565b95508019841693508086168417925050509392505050565b6000819050919050565b600061552761552261551d8461412d565b615502565b61412d565b9050919050565b6000819050919050565b6155418361550c565b61555561554d8261552e565b8484546154b0565b825550505050565b600090565b61556a61555d565b615575818484615538565b505050565b5b818110156155995761558e600082615562565b60018101905061557b565b5050565b601f8211156155de576155af8161547e565b6155b884615493565b810160208510156155c7578190505b6155db6155d385615493565b83018261557a565b50505b505050565b600082821c905092915050565b6000615601600019846008026155e3565b1980831691505092915050565b600061561a83836155f0565b9150826002028217905092915050565b6156338261407b565b67ffffffffffffffff81111561564c5761564b614a9e565b5b6156568254614d58565b61566182828561559d565b600060209050601f8311600181146156945760008415615682578287015190505b61568c858261560e565b8655506156f4565b601f1984166156a28661547e565b60005b828110156156ca578489015182556001820191506020850194506020810190506156a5565b868310156156e757848901516156e3601f8916826155f0565b8355505b6001600288020188555050505b505050505050565b600060a08201905061571160008301886144cd565b61571e60208301876144cd565b61572b60408301866144cd565b6157386060830185614258565b61574560808301846141c2565b9695505050505050565b7f4e487b7100000000000000000000000000000000000000000000000000000000600052603160045260246000fd5b600060ff82169050919050565b6157948161577e565b82525050565b60006080820190506157af60008301876144cd565b6157bc602083018661578b565b6157c960408301856144cd565b6157d660608301846144cd565b9594505050505056fea2646970667358221220d9df0a3ce372b759f5709ca309b1824dd5e6abb33f1130984b9450f11a45663364736f6c634300081b0033","opcodes":"PUSH2 0x1A0 PUSH1 0x40 MSTORE CALLVALUE DUP1 ISZERO PUSH2 0x11 JUMPI PUSH1 0x0 DUP1 REVERT JUMPDEST POP PUSH1 0x40 MLOAD PUSH2 0x68C4 CODESIZE SUB DUP1 PUSH2 0x68C4 DUP4 CODECOPY DUP2 DUP2 ADD PUSH1 0x40 MSTORE DUP2 ADD SWAP1 PUSH2 0x33 SWAP2 SWAP1 PUSH2 0xA3D JUMP JUMPDEST PUSH1 0x40 MLOAD DUP1 PUSH1 0x40 ADD PUSH1 0x40 MSTORE DUP1 PUSH1 0xA DUP2 MSTORE PUSH1 0x20 ADD PUSH32 0x556E69666965644E465400000000000000000000000000000000000000000000 DUP2 MSTORE POP PUSH1 0x40 MLOAD DUP1 PUSH1 0x40 ADD PUSH1 0x40 MSTORE DUP1 PUSH1 0x1 DUP2 MSTORE PUSH1 0x20 ADD PUSH32 0x3100000000000000000000000000000000000000000000000000000000000000 DUP2 MSTORE POP DUP9 DUP9 DUP9 DUP2 PUSH1 0x0 SWAP1 DUP2 PUSH2 0xB1 SWAP2 SWAP1 PUSH2 0xD38 JUMP JUMPDEST POP DUP1 PUSH1 0x1 SWAP1 DUP2 PUSH2 0xC1 SWAP2 SWAP1 PUSH2 0xD38 JUMP JUMPDEST POP POP POP PUSH1 0x0 PUSH20 0xFFFFFFFFFFFFFFFFFFFFFFFFFFFFFFFFFFFFFFFF AND DUP2 PUSH20 0xFFFFFFFFFFFFFFFFFFFFFFFFFFFFFFFFFFFFFFFF AND SUB PUSH2 0x136 JUMPI PUSH1 0x0 PUSH1 0x40 MLOAD PUSH32 0x1E4FBDF700000000000000000000000000000000000000000000000000000000 DUP2 MSTORE PUSH1 0x4 ADD PUSH2 0x12D SWAP2 SWAP1 PUSH2 0xE19 JUMP JUMPDEST PUSH1 0x40 MLOAD DUP1 SWAP2 SUB SWAP1 REVERT JUMPDEST PUSH2 0x145 DUP2 PUSH2 0x491 PUSH1 0x20 SHL PUSH1 0x20 SHR JUMP JUMPDEST POP PUSH2 0x15A PUSH1 0xE DUP4 PUSH2 0x557 PUSH1 0x20 SHL SWAP1 SWAP2 SWAP1 PUSH1 0x20 SHR JUMP JUMPDEST PUSH2 0x120 DUP2 DUP2 MSTORE POP POP PUSH2 0x176 PUSH1 0xF DUP3 PUSH2 0x557 PUSH1 0x20 SHL SWAP1 SWAP2 SWAP1 PUSH1 0x20 SHR JUMP JUMPDEST PUSH2 0x140 DUP2 DUP2 MSTORE POP POP DUP2 DUP1 MLOAD SWAP1 PUSH1 0x20 ADD KECCAK256 PUSH1 0xE0 DUP2 DUP2 MSTORE POP POP DUP1 DUP1 MLOAD SWAP1 PUSH1 0x20 ADD KECCAK256 PUSH2 0x100 DUP2 DUP2 MSTORE POP POP CHAINID PUSH1 0xA0 DUP2 DUP2 MSTORE POP POP PUSH2 0x1B3 PUSH2 0x5A7 PUSH1 0x20 SHL PUSH1 0x20 SHR JUMP JUMPDEST PUSH1 0x80 DUP2 DUP2 MSTORE POP POP ADDRESS PUSH20 0xFFFFFFFFFFFFFFFFFFFFFFFFFFFFFFFFFFFFFFFF AND PUSH1 0xC0 DUP2 PUSH20 0xFFFFFFFFFFFFFFFFFFFFFFFFFFFFFFFFFFFFFFFF AND DUP2 MSTORE POP POP POP POP PUSH2 0x3E8 DUP5 PUSH12 0xFFFFFFFFFFFFFFFFFFFFFFFF AND GT ISZERO DUP1 ISZERO PUSH2 0x220 JUMPI POP PUSH2 0x3E8 DUP4 PUSH12 0xFFFFFFFFFFFFFFFFFFFFFFFF AND GT ISZERO JUMPDEST DUP1 ISZERO PUSH2 0x259 JUMPI POP PUSH1 0x0 PUSH20 0xFFFFFFFFFFFFFFFFFFFFFFFFFFFFFFFFFFFFFFFF AND DUP3 PUSH20 0xFFFFFFFFFFFFFFFFFFFFFFFFFFFFFFFFFFFFFFFF AND EQ ISZERO JUMPDEST DUP1 ISZERO PUSH2 0x292 JUMPI POP PUSH1 0x0 PUSH20 0xFFFFFFFFFFFFFFFFFFFFFFFFFFFFFFFFFFFFFFFF AND DUP2 PUSH20 0xFFFFFFFFFFFFFFFFFFFFFFFFFFFFFFFFFFFFFFFF AND EQ ISZERO JUMPDEST PUSH2 0x29B JUMPI PUSH1 0x0 DUP1 REVERT JUMPDEST DUP1 PUSH20 0xFFFFFFFFFFFFFFFFFFFFFFFFFFFFFFFFFFFFFFFF AND PUSH2 0x160 DUP2 PUSH20 0xFFFFFFFFFFFFFFFFFFFFFFFFFFFFFFFFFFFFFFFF AND DUP2 MSTORE POP POP DUP4 PUSH12 0xFFFFFFFFFFFFFFFFFFFFFFFF AND PUSH2 0x180 DUP2 PUSH12 0xFFFFFFFFFFFFFFFFFFFFFFFF AND DUP2 MSTORE POP POP DUP3 PUSH1 0x15 PUSH1 0x0 PUSH2 0x100 EXP DUP2 SLOAD DUP2 PUSH12 0xFFFFFFFFFFFFFFFFFFFFFFFF MUL NOT AND SWAP1 DUP4 PUSH12 0xFFFFFFFFFFFFFFFFFFFFFFFF AND MUL OR SWAP1 SSTORE POP DUP2 PUSH1 0x15 PUSH1 0xC PUSH2 0x100 EXP DUP2 SLOAD DUP2 PUSH20 0xFFFFFFFFFFFFFFFFFFFFFFFFFFFFFFFFFFFFFFFF MUL NOT AND SWAP1 DUP4 PUSH20 0xFFFFFFFFFFFFFFFFFFFFFFFFFFFFFFFFFFFFFFFF AND MUL OR SWAP1 SSTORE POP PUSH2 0x37A DUP8 PUSH2 0x180 MLOAD PUSH2 0x602 PUSH1 0x20 SHL PUSH1 0x20 SHR JUMP JUMPDEST PUSH1 0x12 PUSH1 0x40 MLOAD DUP1 PUSH2 0x120 ADD PUSH1 0x40 MSTORE DUP1 PUSH1 0x0 PUSH1 0x2 DUP2 GT ISZERO PUSH2 0x39C JUMPI PUSH2 0x39B PUSH2 0xE34 JUMP JUMPDEST JUMPDEST DUP2 MSTORE PUSH1 0x20 ADD PUSH1 0x0 DUP2 MSTORE PUSH1 0x20 ADD PUSH1 0x0 DUP2 MSTORE PUSH1 0x20 ADD PUSH1 0x0 DUP2 MSTORE PUSH1 0x20 ADD PUSH1 0x0 DUP2 MSTORE PUSH1 0x20 ADD PUSH1 0x0 DUP2 MSTORE PUSH1 0x20 ADD PUSH1 0x0 DUP2 MSTORE PUSH1 0x20 ADD PUSH1 0x0 DUP2 MSTORE PUSH1 0x20 ADD PUSH1 0x0 DUP1 SHL DUP2 MSTORE POP SWAP1 DUP1 PUSH1 0x1 DUP2 SLOAD ADD DUP1 DUP3 SSTORE DUP1 SWAP2 POP POP PUSH1 0x1 SWAP1 SUB SWAP1 PUSH1 0x0 MSTORE PUSH1 0x20 PUSH1 0x0 KECCAK256 SWAP1 PUSH1 0x9 MUL ADD PUSH1 0x0 SWAP1 SWAP2 SWAP1 SWAP2 SWAP1 SWAP2 POP PUSH1 0x0 DUP3 ADD MLOAD DUP2 PUSH1 0x0 ADD PUSH1 0x0 PUSH2 0x100 EXP DUP2 SLOAD DUP2 PUSH1 0xFF MUL NOT AND SWAP1 DUP4 PUSH1 0x2 DUP2 GT ISZERO PUSH2 0x42D JUMPI PUSH2 0x42C PUSH2 0xE34 JUMP JUMPDEST JUMPDEST MUL OR SWAP1 SSTORE POP PUSH1 0x20 DUP3 ADD MLOAD DUP2 PUSH1 0x1 ADD SSTORE PUSH1 0x40 DUP3 ADD MLOAD DUP2 PUSH1 0x2 ADD SSTORE PUSH1 0x60 DUP3 ADD MLOAD DUP2 PUSH1 0x3 ADD SSTORE PUSH1 0x80 DUP3 ADD MLOAD DUP2 PUSH1 0x4 ADD SSTORE PUSH1 0xA0 DUP3 ADD MLOAD DUP2 PUSH1 0x5 ADD SSTORE PUSH1 0xC0 DUP3 ADD MLOAD DUP2 PUSH1 0x6 ADD SSTORE PUSH1 0xE0 DUP3 ADD MLOAD DUP2 PUSH1 0x7 ADD SSTORE PUSH2 0x100 DUP3 ADD MLOAD DUP2 PUSH1 0x8 ADD SSTORE POP POP POP POP POP POP POP POP POP PUSH2 0x103B JUMP JUMPDEST PUSH1 0x0 PUSH1 0xD PUSH1 0x0 SWAP1 SLOAD SWAP1 PUSH2 0x100 EXP SWAP1 DIV PUSH20 0xFFFFFFFFFFFFFFFFFFFFFFFFFFFFFFFFFFFFFFFF AND SWAP1 POP DUP2 PUSH1 0xD PUSH1 0x0 PUSH2 0x100 EXP DUP2 SLOAD DUP2 PUSH20 0xFFFFFFFFFFFFFFFFFFFFFFFFFFFFFFFFFFFFFFFF MUL NOT AND SWAP1 DUP4 PUSH20 0xFFFFFFFFFFFFFFFFFFFFFFFFFFFFFFFFFFFFFFFF AND MUL OR SWAP1 SSTORE POP DUP2 PUSH20 0xFFFFFFFFFFFFFFFFFFFFFFFFFFFFFFFFFFFFFFFF AND DUP2 PUSH20 0xFFFFFFFFFFFFFFFFFFFFFFFFFFFFFFFFFFFFFFFF AND PUSH32 0x8BE0079C531659141344CD1FD0A4F28419497F9722A3DAAFE3B4186F6B6457E0 PUSH1 0x40 MLOAD PUSH1 0x40 MLOAD DUP1 SWAP2 SUB SWAP1 LOG3 POP POP JUMP JUMPDEST PUSH1 0x0 PUSH1 0x20 DUP4 MLOAD LT ISZERO PUSH2 0x579 JUMPI PUSH2 0x572 DUP4 PUSH2 0x7AA PUSH1 0x20 SHL PUSH1 0x20 SHR JUMP JUMPDEST SWAP1 POP PUSH2 0x5A1 JUMP JUMPDEST DUP3 PUSH2 0x589 DUP4 PUSH2 0x812 PUSH1 0x20 SHL PUSH1 0x20 SHR JUMP JUMPDEST PUSH1 0x0 ADD SWAP1 DUP2 PUSH2 0x598 SWAP2 SWAP1 PUSH2 0xD38 JUMP JUMPDEST POP PUSH1 0xFF PUSH1 0x0 SHL SWAP1 POP JUMPDEST SWAP3 SWAP2 POP POP JUMP JUMPDEST PUSH1 0x0 PUSH32 0x8B73C3C69BB8FE3D512ECC4CF759CC79239F7B179B0FFACAA9A75D522B39400F PUSH1 0xE0 MLOAD PUSH2 0x100 MLOAD CHAINID ADDRESS PUSH1 0x40 MLOAD PUSH1 0x20 ADD PUSH2 0x5E7 SWAP6 SWAP5 SWAP4 SWAP3 SWAP2 SWAP1 PUSH2 0xE8B JUMP JUMPDEST PUSH1 0x40 MLOAD PUSH1 0x20 DUP2 DUP4 SUB SUB DUP2 MSTORE SWAP1 PUSH1 0x40 MSTORE DUP1 MLOAD SWAP1 PUSH1 0x20 ADD KECCAK256 SWAP1 POP SWAP1 JUMP JUMPDEST PUSH1 0x0 PUSH2 0x612 PUSH2 0x81C PUSH1 0x20 SHL PUSH1 0x20 SHR JUMP JUMPDEST PUSH12 0xFFFFFFFFFFFFFFFFFFFFFFFF AND SWAP1 POP DUP1 DUP3 PUSH12 0xFFFFFFFFFFFFFFFFFFFFFFFF AND GT ISZERO PUSH2 0x677 JUMPI DUP2 DUP2 PUSH1 0x40 MLOAD PUSH32 0x6F483D0900000000000000000000000000000000000000000000000000000000 DUP2 MSTORE PUSH1 0x4 ADD PUSH2 0x66E SWAP3 SWAP2 SWAP1 PUSH2 0xF0F JUMP JUMPDEST PUSH1 0x40 MLOAD DUP1 SWAP2 SUB SWAP1 REVERT JUMPDEST PUSH1 0x0 PUSH20 0xFFFFFFFFFFFFFFFFFFFFFFFFFFFFFFFFFFFFFFFF AND DUP4 PUSH20 0xFFFFFFFFFFFFFFFFFFFFFFFFFFFFFFFFFFFFFFFF AND SUB PUSH2 0x6E9 JUMPI PUSH1 0x0 PUSH1 0x40 MLOAD PUSH32 0xB6D9900A00000000000000000000000000000000000000000000000000000000 DUP2 MSTORE PUSH1 0x4 ADD PUSH2 0x6E0 SWAP2 SWAP1 PUSH2 0xE19 JUMP JUMPDEST PUSH1 0x40 MLOAD DUP1 SWAP2 SUB SWAP1 REVERT JUMPDEST PUSH1 0x40 MLOAD DUP1 PUSH1 0x40 ADD PUSH1 0x40 MSTORE DUP1 DUP5 PUSH20 0xFFFFFFFFFFFFFFFFFFFFFFFFFFFFFFFFFFFFFFFF AND DUP2 MSTORE PUSH1 0x20 ADD DUP4 PUSH12 0xFFFFFFFFFFFFFFFFFFFFFFFF AND DUP2 MSTORE POP PUSH1 0xB PUSH1 0x0 DUP3 ADD MLOAD DUP2 PUSH1 0x0 ADD PUSH1 0x0 PUSH2 0x100 EXP DUP2 SLOAD DUP2 PUSH20 0xFFFFFFFFFFFFFFFFFFFFFFFFFFFFFFFFFFFFFFFF MUL NOT AND SWAP1 DUP4 PUSH20 0xFFFFFFFFFFFFFFFFFFFFFFFFFFFFFFFFFFFFFFFF AND MUL OR SWAP1 SSTORE POP PUSH1 0x20 DUP3 ADD MLOAD DUP2 PUSH1 0x0 ADD PUSH1 0x14 PUSH2 0x100 EXP DUP2 SLOAD DUP2 PUSH12 0xFFFFFFFFFFFFFFFFFFFFFFFF MUL NOT AND SWAP1 DUP4 PUSH12 0xFFFFFFFFFFFFFFFFFFFFFFFF AND MUL OR SWAP1 SSTORE POP SWAP1 POP POP POP POP POP JUMP JUMPDEST PUSH1 0x0 DUP1 DUP3 SWAP1 POP PUSH1 0x1F DUP2 MLOAD GT ISZERO PUSH2 0x7F7 JUMPI DUP3 PUSH1 0x40 MLOAD PUSH32 0x305A27A900000000000000000000000000000000000000000000000000000000 DUP2 MSTORE PUSH1 0x4 ADD PUSH2 0x7EE SWAP2 SWAP1 PUSH2 0xF82 JUMP JUMPDEST PUSH1 0x40 MLOAD DUP1 SWAP2 SUB SWAP1 REVERT JUMPDEST DUP1 MLOAD DUP2 PUSH2 0x803 SWAP1 PUSH2 0xFD4 JUMP JUMPDEST PUSH1 0x0 SHR OR PUSH1 0x0 SHL SWAP2 POP POP SWAP2 SWAP1 POP JUMP JUMPDEST PUSH1 0x0 DUP2 SWAP1 POP SWAP2 SWAP1 POP JUMP JUMPDEST PUSH1 0x0 PUSH2 0x2710 SWAP1 POP SWAP1 JUMP JUMPDEST PUSH1 0x0 PUSH1 0x40 MLOAD SWAP1 POP SWAP1 JUMP JUMPDEST PUSH1 0x0 DUP1 REVERT JUMPDEST PUSH1 0x0 DUP1 REVERT JUMPDEST PUSH1 0x0 PUSH20 0xFFFFFFFFFFFFFFFFFFFFFFFFFFFFFFFFFFFFFFFF DUP3 AND SWAP1 POP SWAP2 SWAP1 POP JUMP JUMPDEST PUSH1 0x0 PUSH2 0x865 DUP3 PUSH2 0x83A JUMP JUMPDEST SWAP1 POP SWAP2 SWAP1 POP JUMP JUMPDEST PUSH2 0x875 DUP2 PUSH2 0x85A JUMP JUMPDEST DUP2 EQ PUSH2 0x880 JUMPI PUSH1 0x0 DUP1 REVERT JUMPDEST POP JUMP JUMPDEST PUSH1 0x0 DUP2 MLOAD SWAP1 POP PUSH2 0x892 DUP2 PUSH2 0x86C JUMP JUMPDEST SWAP3 SWAP2 POP POP JUMP JUMPDEST PUSH1 0x0 DUP1 REVERT JUMPDEST PUSH1 0x0 DUP1 REVERT JUMPDEST PUSH1 0x0 PUSH1 0x1F NOT PUSH1 0x1F DUP4 ADD AND SWAP1 POP SWAP2 SWAP1 POP JUMP JUMPDEST PUSH32 0x4E487B7100000000000000000000000000000000000000000000000000000000 PUSH1 0x0 MSTORE PUSH1 0x41 PUSH1 0x4 MSTORE PUSH1 0x24 PUSH1 0x0 REVERT JUMPDEST PUSH2 0x8EB DUP3 PUSH2 0x8A2 JUMP JUMPDEST DUP2 ADD DUP2 DUP2 LT PUSH8 0xFFFFFFFFFFFFFFFF DUP3 GT OR ISZERO PUSH2 0x90A JUMPI PUSH2 0x909 PUSH2 0x8B3 JUMP JUMPDEST JUMPDEST DUP1 PUSH1 0x40 MSTORE POP POP POP JUMP JUMPDEST PUSH1 0x0 PUSH2 0x91D PUSH2 0x826 JUMP JUMPDEST SWAP1 POP PUSH2 0x929 DUP3 DUP3 PUSH2 0x8E2 JUMP JUMPDEST SWAP2 SWAP1 POP JUMP JUMPDEST PUSH1 0x0 PUSH8 0xFFFFFFFFFFFFFFFF DUP3 GT ISZERO PUSH2 0x949 JUMPI PUSH2 0x948 PUSH2 0x8B3 JUMP JUMPDEST JUMPDEST PUSH2 0x952 DUP3 PUSH2 0x8A2 JUMP JUMPDEST SWAP1 POP PUSH1 0x20 DUP2 ADD SWAP1 POP SWAP2 SWAP1 POP JUMP JUMPDEST PUSH1 0x0 JUMPDEST DUP4 DUP2 LT ISZERO PUSH2 0x97D JUMPI DUP1 DUP3 ADD MLOAD DUP2 DUP5 ADD MSTORE PUSH1 0x20 DUP2 ADD SWAP1 POP PUSH2 0x962 JUMP JUMPDEST PUSH1 0x0 DUP5 DUP5 ADD MSTORE POP POP POP POP JUMP JUMPDEST PUSH1 0x0 PUSH2 0x99C PUSH2 0x997 DUP5 PUSH2 0x92E JUMP JUMPDEST PUSH2 0x913 JUMP JUMPDEST SWAP1 POP DUP3 DUP2 MSTORE PUSH1 0x20 DUP2 ADD DUP5 DUP5 DUP5 ADD GT ISZERO PUSH2 0x9B8 JUMPI PUSH2 0x9B7 PUSH2 0x89D JUMP JUMPDEST JUMPDEST PUSH2 0x9C3 DUP5 DUP3 DUP6 PUSH2 0x95F JUMP JUMPDEST POP SWAP4 SWAP3 POP POP POP JUMP JUMPDEST PUSH1 0x0 DUP3 PUSH1 0x1F DUP4 ADD SLT PUSH2 0x9E0 JUMPI PUSH2 0x9DF PUSH2 0x898 JUMP JUMPDEST JUMPDEST DUP2 MLOAD PUSH2 0x9F0 DUP5 DUP3 PUSH1 0x20 DUP7 ADD PUSH2 0x989 JUMP JUMPDEST SWAP2 POP POP SWAP3 SWAP2 POP POP JUMP JUMPDEST PUSH1 0x0 PUSH12 0xFFFFFFFFFFFFFFFFFFFFFFFF DUP3 AND SWAP1 POP SWAP2 SWAP1 POP JUMP JUMPDEST PUSH2 0xA1A DUP2 PUSH2 0x9F9 JUMP JUMPDEST DUP2 EQ PUSH2 0xA25 JUMPI PUSH1 0x0 DUP1 REVERT JUMPDEST POP JUMP JUMPDEST PUSH1 0x0 DUP2 MLOAD SWAP1 POP PUSH2 0xA37 DUP2 PUSH2 0xA11 JUMP JUMPDEST SWAP3 SWAP2 POP POP JUMP JUMPDEST PUSH1 0x0 DUP1 PUSH1 0x0 DUP1 PUSH1 0x0 DUP1 PUSH1 0x0 PUSH1 0xE0 DUP9 DUP11 SUB SLT ISZERO PUSH2 0xA5C JUMPI PUSH2 0xA5B PUSH2 0x830 JUMP JUMPDEST JUMPDEST PUSH1 0x0 PUSH2 0xA6A DUP11 DUP3 DUP12 ADD PUSH2 0x883 JUMP JUMPDEST SWAP8 POP POP PUSH1 0x20 DUP9 ADD MLOAD PUSH8 0xFFFFFFFFFFFFFFFF DUP2 GT ISZERO PUSH2 0xA8B JUMPI PUSH2 0xA8A PUSH2 0x835 JUMP JUMPDEST JUMPDEST PUSH2 0xA97 DUP11 DUP3 DUP12 ADD PUSH2 0x9CB JUMP JUMPDEST SWAP7 POP POP PUSH1 0x40 DUP9 ADD MLOAD PUSH8 0xFFFFFFFFFFFFFFFF DUP2 GT ISZERO PUSH2 0xAB8 JUMPI PUSH2 0xAB7 PUSH2 0x835 JUMP JUMPDEST JUMPDEST PUSH2 0xAC4 DUP11 DUP3 DUP12 ADD PUSH2 0x9CB JUMP JUMPDEST SWAP6 POP POP PUSH1 0x60 PUSH2 0xAD5 DUP11 DUP3 DUP12 ADD PUSH2 0xA28 JUMP JUMPDEST SWAP5 POP POP PUSH1 0x80 PUSH2 0xAE6 DUP11 DUP3 DUP12 ADD PUSH2 0xA28 JUMP JUMPDEST SWAP4 POP POP PUSH1 0xA0 PUSH2 0xAF7 DUP11 DUP3 DUP12 ADD PUSH2 0x883 JUMP JUMPDEST SWAP3 POP POP PUSH1 0xC0 PUSH2 0xB08 DUP11 DUP3 DUP12 ADD PUSH2 0x883 JUMP JUMPDEST SWAP2 POP POP SWAP3 SWAP6 SWAP9 SWAP2 SWAP5 SWAP8 POP SWAP3 SWAP6 POP JUMP JUMPDEST PUSH1 0x0 DUP2 MLOAD SWAP1 POP SWAP2 SWAP1 POP JUMP JUMPDEST PUSH32 0x4E487B7100000000000000000000000000000000000000000000000000000000 PUSH1 0x0 MSTORE PUSH1 0x22 PUSH1 0x4 MSTORE PUSH1 0x24 PUSH1 0x0 REVERT JUMPDEST PUSH1 0x0 PUSH1 0x2 DUP3 DIV SWAP1 POP PUSH1 0x1 DUP3 AND DUP1 PUSH2 0xB69 JUMPI PUSH1 0x7F DUP3 AND SWAP2 POP JUMPDEST PUSH1 0x20 DUP3 LT DUP2 SUB PUSH2 0xB7C JUMPI PUSH2 0xB7B PUSH2 0xB22 JUMP JUMPDEST JUMPDEST POP SWAP2 SWAP1 POP JUMP JUMPDEST PUSH1 0x0 DUP2 SWAP1 POP DUP2 PUSH1 0x0 MSTORE PUSH1 0x20 PUSH1 0x0 KECCAK256 SWAP1 POP SWAP2 SWAP1 POP JUMP JUMPDEST PUSH1 0x0 PUSH1 0x20 PUSH1 0x1F DUP4 ADD DIV SWAP1 POP SWAP2 SWAP1 POP JUMP JUMPDEST PUSH1 0x0 DUP3 DUP3 SHL SWAP1 POP SWAP3 SWAP2 POP POP JUMP JUMPDEST PUSH1 0x0 PUSH1 0x8 DUP4 MUL PUSH2 0xBE4 PUSH32 0xFFFFFFFFFFFFFFFFFFFFFFFFFFFFFFFFFFFFFFFFFFFFFFFFFFFFFFFFFFFFFFFF DUP3 PUSH2 0xBA7 JUMP JUMPDEST PUSH2 0xBEE DUP7 DUP4 PUSH2 0xBA7 JUMP JUMPDEST SWAP6 POP DUP1 NOT DUP5 AND SWAP4 POP DUP1 DUP7 AND DUP5 OR SWAP3 POP POP POP SWAP4 SWAP3 POP POP POP JUMP JUMPDEST PUSH1 0x0 DUP2 SWAP1 POP SWAP2 SWAP1 POP JUMP JUMPDEST PUSH1 0x0 DUP2 SWAP1 POP SWAP2 SWAP1 POP JUMP JUMPDEST PUSH1 0x0 PUSH2 0xC35 PUSH2 0xC30 PUSH2 0xC2B DUP5 PUSH2 0xC06 JUMP JUMPDEST PUSH2 0xC10 JUMP JUMPDEST PUSH2 0xC06 JUMP JUMPDEST SWAP1 POP SWAP2 SWAP1 POP JUMP JUMPDEST PUSH1 0x0 DUP2 SWAP1 POP SWAP2 SWAP1 POP JUMP JUMPDEST PUSH2 0xC4F DUP4 PUSH2 0xC1A JUMP JUMPDEST PUSH2 0xC63 PUSH2 0xC5B DUP3 PUSH2 0xC3C JUMP JUMPDEST DUP5 DUP5 SLOAD PUSH2 0xBB4 JUMP JUMPDEST DUP3 SSTORE POP POP POP POP JUMP JUMPDEST PUSH1 0x0 SWAP1 JUMP JUMPDEST PUSH2 0xC78 PUSH2 0xC6B JUMP JUMPDEST PUSH2 0xC83 DUP2 DUP5 DUP5 PUSH2 0xC46 JUMP JUMPDEST POP POP POP JUMP JUMPDEST JUMPDEST DUP2 DUP2 LT ISZERO PUSH2 0xCA7 JUMPI PUSH2 0xC9C PUSH1 0x0 DUP3 PUSH2 0xC70 JUMP JUMPDEST PUSH1 0x1 DUP2 ADD SWAP1 POP PUSH2 0xC89 JUMP JUMPDEST POP POP JUMP JUMPDEST PUSH1 0x1F DUP3 GT ISZERO PUSH2 0xCEC JUMPI PUSH2 0xCBD DUP2 PUSH2 0xB82 JUMP JUMPDEST PUSH2 0xCC6 DUP5 PUSH2 0xB97 JUMP JUMPDEST DUP2 ADD PUSH1 0x20 DUP6 LT ISZERO PUSH2 0xCD5 JUMPI DUP2 SWAP1 POP JUMPDEST PUSH2 0xCE9 PUSH2 0xCE1 DUP6 PUSH2 0xB97 JUMP JUMPDEST DUP4 ADD DUP3 PUSH2 0xC88 JUMP JUMPDEST POP POP JUMPDEST POP POP POP JUMP JUMPDEST PUSH1 0x0 DUP3 DUP3 SHR SWAP1 POP SWAP3 SWAP2 POP POP JUMP JUMPDEST PUSH1 0x0 PUSH2 0xD0F PUSH1 0x0 NOT DUP5 PUSH1 0x8 MUL PUSH2 0xCF1 JUMP JUMPDEST NOT DUP1 DUP4 AND SWAP2 POP POP SWAP3 SWAP2 POP POP JUMP JUMPDEST PUSH1 0x0 PUSH2 0xD28 DUP4 DUP4 PUSH2 0xCFE JUMP JUMPDEST SWAP2 POP DUP3 PUSH1 0x2 MUL DUP3 OR SWAP1 POP SWAP3 SWAP2 POP POP JUMP JUMPDEST PUSH2 0xD41 DUP3 PUSH2 0xB17 JUMP JUMPDEST PUSH8 0xFFFFFFFFFFFFFFFF DUP2 GT ISZERO PUSH2 0xD5A JUMPI PUSH2 0xD59 PUSH2 0x8B3 JUMP JUMPDEST JUMPDEST PUSH2 0xD64 DUP3 SLOAD PUSH2 0xB51 JUMP JUMPDEST PUSH2 0xD6F DUP3 DUP3 DUP6 PUSH2 0xCAB JUMP JUMPDEST PUSH1 0x0 PUSH1 0x20 SWAP1 POP PUSH1 0x1F DUP4 GT PUSH1 0x1 DUP2 EQ PUSH2 0xDA2 JUMPI PUSH1 0x0 DUP5 ISZERO PUSH2 0xD90 JUMPI DUP3 DUP8 ADD MLOAD SWAP1 POP JUMPDEST PUSH2 0xD9A DUP6 DUP3 PUSH2 0xD1C JUMP JUMPDEST DUP7 SSTORE POP PUSH2 0xE02 JUMP JUMPDEST PUSH1 0x1F NOT DUP5 AND PUSH2 0xDB0 DUP7 PUSH2 0xB82 JUMP JUMPDEST PUSH1 0x0 JUMPDEST DUP3 DUP2 LT ISZERO PUSH2 0xDD8 JUMPI DUP5 DUP10 ADD MLOAD DUP3 SSTORE PUSH1 0x1 DUP3 ADD SWAP2 POP PUSH1 0x20 DUP6 ADD SWAP5 POP PUSH1 0x20 DUP2 ADD SWAP1 POP PUSH2 0xDB3 JUMP JUMPDEST DUP7 DUP4 LT ISZERO PUSH2 0xDF5 JUMPI DUP5 DUP10 ADD MLOAD PUSH2 0xDF1 PUSH1 0x1F DUP10 AND DUP3 PUSH2 0xCFE JUMP JUMPDEST DUP4 SSTORE POP JUMPDEST PUSH1 0x1 PUSH1 0x2 DUP9 MUL ADD DUP9 SSTORE POP POP POP JUMPDEST POP POP POP POP POP POP JUMP JUMPDEST PUSH2 0xE13 DUP2 PUSH2 0x85A JUMP JUMPDEST DUP3 MSTORE POP POP JUMP JUMPDEST PUSH1 0x0 PUSH1 0x20 DUP3 ADD SWAP1 POP PUSH2 0xE2E PUSH1 0x0 DUP4 ADD DUP5 PUSH2 0xE0A JUMP JUMPDEST SWAP3 SWAP2 POP POP JUMP JUMPDEST PUSH32 0x4E487B7100000000000000000000000000000000000000000000000000000000 PUSH1 0x0 MSTORE PUSH1 0x21 PUSH1 0x4 MSTORE PUSH1 0x24 PUSH1 0x0 REVERT JUMPDEST PUSH1 0x0 DUP2 SWAP1 POP SWAP2 SWAP1 POP JUMP JUMPDEST PUSH2 0xE76 DUP2 PUSH2 0xE63 JUMP JUMPDEST DUP3 MSTORE POP POP JUMP JUMPDEST PUSH2 0xE85 DUP2 PUSH2 0xC06 JUMP JUMPDEST DUP3 MSTORE POP POP JUMP JUMPDEST PUSH1 0x0 PUSH1 0xA0 DUP3 ADD SWAP1 POP PUSH2 0xEA0 PUSH1 0x0 DUP4 ADD DUP9 PUSH2 0xE6D JUMP JUMPDEST PUSH2 0xEAD PUSH1 0x20 DUP4 ADD DUP8 PUSH2 0xE6D JUMP JUMPDEST PUSH2 0xEBA PUSH1 0x40 DUP4 ADD DUP7 PUSH2 0xE6D JUMP JUMPDEST PUSH2 0xEC7 PUSH1 0x60 DUP4 ADD DUP6 PUSH2 0xE7C JUMP JUMPDEST PUSH2 0xED4 PUSH1 0x80 DUP4 ADD DUP5 PUSH2 0xE0A JUMP JUMPDEST SWAP7 SWAP6 POP POP POP POP POP POP JUMP JUMPDEST PUSH1 0x0 PUSH2 0xEF9 PUSH2 0xEF4 PUSH2 0xEEF DUP5 PUSH2 0x9F9 JUMP JUMPDEST PUSH2 0xC10 JUMP JUMPDEST PUSH2 0xC06 JUMP JUMPDEST SWAP1 POP SWAP2 SWAP1 POP JUMP JUMPDEST PUSH2 0xF09 DUP2 PUSH2 0xEDE JUMP JUMPDEST DUP3 MSTORE POP POP JUMP JUMPDEST PUSH1 0x0 PUSH1 0x40 DUP3 ADD SWAP1 POP PUSH2 0xF24 PUSH1 0x0 DUP4 ADD DUP6 PUSH2 0xF00 JUMP JUMPDEST PUSH2 0xF31 PUSH1 0x20 DUP4 ADD DUP5 PUSH2 0xE7C JUMP JUMPDEST SWAP4 SWAP3 POP POP POP JUMP JUMPDEST PUSH1 0x0 DUP3 DUP3 MSTORE PUSH1 0x20 DUP3 ADD SWAP1 POP SWAP3 SWAP2 POP POP JUMP JUMPDEST PUSH1 0x0 PUSH2 0xF54 DUP3 PUSH2 0xB17 JUMP JUMPDEST PUSH2 0xF5E DUP2 DUP6 PUSH2 0xF38 JUMP JUMPDEST SWAP4 POP PUSH2 0xF6E DUP2 DUP6 PUSH1 0x20 DUP7 ADD PUSH2 0x95F JUMP JUMPDEST PUSH2 0xF77 DUP2 PUSH2 0x8A2 JUMP JUMPDEST DUP5 ADD SWAP2 POP POP SWAP3 SWAP2 POP POP JUMP JUMPDEST PUSH1 0x0 PUSH1 0x20 DUP3 ADD SWAP1 POP DUP2 DUP2 SUB PUSH1 0x0 DUP4 ADD MSTORE PUSH2 0xF9C DUP2 DUP5 PUSH2 0xF49 JUMP JUMPDEST SWAP1 POP SWAP3 SWAP2 POP POP JUMP JUMPDEST PUSH1 0x0 DUP2 MLOAD SWAP1 POP SWAP2 SWAP1 POP JUMP JUMPDEST PUSH1 0x0 DUP2 SWAP1 POP PUSH1 0x20 DUP3 ADD SWAP1 POP SWAP2 SWAP1 POP JUMP JUMPDEST PUSH1 0x0 PUSH2 0xFCB DUP3 MLOAD PUSH2 0xE63 JUMP JUMPDEST DUP1 SWAP2 POP POP SWAP2 SWAP1 POP JUMP JUMPDEST PUSH1 0x0 PUSH2 0xFDF DUP3 PUSH2 0xFA4 JUMP JUMPDEST DUP3 PUSH2 0xFE9 DUP5 PUSH2 0xFAF JUMP JUMPDEST SWAP1 POP PUSH2 0xFF4 DUP2 PUSH2 0xFBF JUMP JUMPDEST SWAP3 POP PUSH1 0x20 DUP3 LT ISZERO PUSH2 0x1034 JUMPI PUSH2 0x102F PUSH32 0xFFFFFFFFFFFFFFFFFFFFFFFFFFFFFFFFFFFFFFFFFFFFFFFFFFFFFFFFFFFFFFFF DUP4 PUSH1 0x20 SUB PUSH1 0x8 MUL PUSH2 0xBA7 JUMP JUMPDEST DUP4 AND SWAP3 POP JUMPDEST POP POP SWAP2 SWAP1 POP JUMP JUMPDEST PUSH1 0x80 MLOAD PUSH1 0xA0 MLOAD PUSH1 0xC0 MLOAD PUSH1 0xE0 MLOAD PUSH2 0x100 MLOAD PUSH2 0x120 MLOAD PUSH2 0x140 MLOAD PUSH2 0x160 MLOAD PUSH2 0x180 MLOAD PUSH2 0x5815 PUSH2 0x10AF PUSH1 0x0 CODECOPY PUSH1 0x0 POP POP PUSH1 0x0 DUP2 DUP2 PUSH2 0xEB6 ADD MSTORE PUSH2 0x1723 ADD MSTORE PUSH1 0x0 PUSH2 0x2191 ADD MSTORE PUSH1 0x0 PUSH2 0x2156 ADD MSTORE PUSH1 0x0 PUSH2 0x31CE ADD MSTORE PUSH1 0x0 PUSH2 0x31AD ADD MSTORE PUSH1 0x0 PUSH2 0x295A ADD MSTORE PUSH1 0x0 PUSH2 0x29B0 ADD MSTORE PUSH1 0x0 PUSH2 0x29D9 ADD MSTORE PUSH2 0x5815 PUSH1 0x0 RETURN INVALID PUSH1 0x80 PUSH1 0x40 MSTORE PUSH1 0x4 CALLDATASIZE LT PUSH2 0x1EE JUMPI PUSH1 0x0 CALLDATALOAD PUSH1 0xE0 SHR DUP1 PUSH4 0x715018A6 GT PUSH2 0x10D JUMPI DUP1 PUSH4 0xB88D4FDE GT PUSH2 0xA0 JUMPI DUP1 PUSH4 0xE985E9C5 GT PUSH2 0x6F JUMPI DUP1 PUSH4 0xE985E9C5 EQ PUSH2 0x73C JUMPI DUP1 PUSH4 0xEB13554F EQ PUSH2 0x779 JUMPI DUP1 PUSH4 0xED24911D EQ PUSH2 0x7A4 JUMPI DUP1 PUSH4 0xF2FDE38B EQ PUSH2 0x7CF JUMPI DUP1 PUSH4 0xF7330C2D EQ PUSH2 0x7F8 JUMPI PUSH2 0x1EE JUMP JUMPDEST DUP1 PUSH4 0xB88D4FDE EQ PUSH2 0x680 JUMPI DUP1 PUSH4 0xC87B56DD EQ PUSH2 0x6A9 JUMPI DUP1 PUSH4 0xCDD78CFC EQ PUSH2 0x6E6 JUMPI DUP1 PUSH4 0xDB5E0063 EQ PUSH2 0x711 JUMPI PUSH2 0x1EE JUMP JUMPDEST DUP1 PUSH4 0x8DA5CB5B GT PUSH2 0xDC JUMPI DUP1 PUSH4 0x8DA5CB5B EQ PUSH2 0x5E5 JUMPI DUP1 PUSH4 0x8FF75E82 EQ PUSH2 0x610 JUMPI DUP1 PUSH4 0x95D89B41 EQ PUSH2 0x62C JUMPI DUP1 PUSH4 0xA22CB465 EQ PUSH2 0x657 JUMPI PUSH2 0x1EE JUMP JUMPDEST DUP1 PUSH4 0x715018A6 EQ PUSH2 0x537 JUMPI DUP1 PUSH4 0x7A989281 EQ PUSH2 0x54E JUMPI DUP1 PUSH4 0x8462151C EQ PUSH2 0x577 JUMPI DUP1 PUSH4 0x84B0196E EQ PUSH2 0x5B4 JUMPI PUSH2 0x1EE JUMP JUMPDEST DUP1 PUSH4 0x2A55205A GT PUSH2 0x185 JUMPI DUP1 PUSH4 0x4F6CCCE7 GT PUSH2 0x154 JUMPI DUP1 PUSH4 0x4F6CCCE7 EQ PUSH2 0x455 JUMPI DUP1 PUSH4 0x6352211E EQ PUSH2 0x492 JUMPI DUP1 PUSH4 0x65D65E86 EQ PUSH2 0x4CF JUMPI DUP1 PUSH4 0x70A08231 EQ PUSH2 0x4FA JUMPI PUSH2 0x1EE JUMP JUMPDEST DUP1 PUSH4 0x2A55205A EQ PUSH2 0x36C JUMPI DUP1 PUSH4 0x2E37EEF6 EQ PUSH2 0x3AA JUMPI DUP1 PUSH4 0x2F745C59 EQ PUSH2 0x3EF JUMPI DUP1 PUSH4 0x42842E0E EQ PUSH2 0x42C JUMPI PUSH2 0x1EE JUMP JUMPDEST DUP1 PUSH4 0x95EA7B3 GT PUSH2 0x1C1 JUMPI DUP1 PUSH4 0x95EA7B3 EQ PUSH2 0x2C3 JUMPI DUP1 PUSH4 0x18160DDD EQ PUSH2 0x2EC JUMPI DUP1 PUSH4 0x1CE97FD1 EQ PUSH2 0x317 JUMPI DUP1 PUSH4 0x23B872DD EQ PUSH2 0x343 JUMPI PUSH2 0x1EE JUMP JUMPDEST DUP1 PUSH4 0x1FFC9A7 EQ PUSH2 0x1F3 JUMPI DUP1 PUSH4 0x6FDDE03 EQ PUSH2 0x230 JUMPI DUP1 PUSH4 0x72A1319 EQ PUSH2 0x25B JUMPI DUP1 PUSH4 0x81812FC EQ PUSH2 0x286 JUMPI JUMPDEST PUSH1 0x0 DUP1 REVERT JUMPDEST CALLVALUE DUP1 ISZERO PUSH2 0x1FF JUMPI PUSH1 0x0 DUP1 REVERT JUMPDEST POP PUSH2 0x21A PUSH1 0x4 DUP1 CALLDATASIZE SUB DUP2 ADD SWAP1 PUSH2 0x215 SWAP2 SWAP1 PUSH2 0x4018 JUMP JUMPDEST PUSH2 0x835 JUMP JUMPDEST PUSH1 0x40 MLOAD PUSH2 0x227 SWAP2 SWAP1 PUSH2 0x4060 JUMP JUMPDEST PUSH1 0x40 MLOAD DUP1 SWAP2 SUB SWAP1 RETURN JUMPDEST CALLVALUE DUP1 ISZERO PUSH2 0x23C JUMPI PUSH1 0x0 DUP1 REVERT JUMPDEST POP PUSH2 0x245 PUSH2 0x847 JUMP JUMPDEST PUSH1 0x40 MLOAD PUSH2 0x252 SWAP2 SWAP1 PUSH2 0x410B JUMP JUMPDEST PUSH1 0x40 MLOAD DUP1 SWAP2 SUB SWAP1 RETURN JUMPDEST CALLVALUE DUP1 ISZERO PUSH2 0x267 JUMPI PUSH1 0x0 DUP1 REVERT JUMPDEST POP PUSH2 0x270 PUSH2 0x8D9 JUMP JUMPDEST PUSH1 0x40 MLOAD PUSH2 0x27D SWAP2 SWAP1 PUSH2 0x4060 JUMP JUMPDEST PUSH1 0x40 MLOAD DUP1 SWAP2 SUB SWAP1 RETURN JUMPDEST CALLVALUE DUP1 ISZERO PUSH2 0x292 JUMPI PUSH1 0x0 DUP1 REVERT JUMPDEST POP PUSH2 0x2AD PUSH1 0x4 DUP1 CALLDATASIZE SUB DUP2 ADD SWAP1 PUSH2 0x2A8 SWAP2 SWAP1 PUSH2 0x4163 JUMP JUMPDEST PUSH2 0x9D3 JUMP JUMPDEST PUSH1 0x40 MLOAD PUSH2 0x2BA SWAP2 SWAP1 PUSH2 0x41D1 JUMP JUMPDEST PUSH1 0x40 MLOAD DUP1 SWAP2 SUB SWAP1 RETURN JUMPDEST CALLVALUE DUP1 ISZERO PUSH2 0x2CF JUMPI PUSH1 0x0 DUP1 REVERT JUMPDEST POP PUSH2 0x2EA PUSH1 0x4 DUP1 CALLDATASIZE SUB DUP2 ADD SWAP1 PUSH2 0x2E5 SWAP2 SWAP1 PUSH2 0x4218 JUMP JUMPDEST PUSH2 0x9EF JUMP JUMPDEST STOP JUMPDEST CALLVALUE DUP1 ISZERO PUSH2 0x2F8 JUMPI PUSH1 0x0 DUP1 REVERT JUMPDEST POP PUSH2 0x301 PUSH2 0xA05 JUMP JUMPDEST PUSH1 0x40 MLOAD PUSH2 0x30E SWAP2 SWAP1 PUSH2 0x4267 JUMP JUMPDEST PUSH1 0x40 MLOAD DUP1 SWAP2 SUB SWAP1 RETURN JUMPDEST CALLVALUE DUP1 ISZERO PUSH2 0x323 JUMPI PUSH1 0x0 DUP1 REVERT JUMPDEST POP PUSH2 0x32C PUSH2 0xA12 JUMP JUMPDEST PUSH1 0x40 MLOAD PUSH2 0x33A SWAP3 SWAP2 SWAP1 PUSH2 0x43D8 JUMP JUMPDEST PUSH1 0x40 MLOAD DUP1 SWAP2 SUB SWAP1 RETURN JUMPDEST CALLVALUE DUP1 ISZERO PUSH2 0x34F JUMPI PUSH1 0x0 DUP1 REVERT JUMPDEST POP PUSH2 0x36A PUSH1 0x4 DUP1 CALLDATASIZE SUB DUP2 ADD SWAP1 PUSH2 0x365 SWAP2 SWAP1 PUSH2 0x4402 JUMP JUMPDEST PUSH2 0xAC6 JUMP JUMPDEST STOP JUMPDEST CALLVALUE DUP1 ISZERO PUSH2 0x378 JUMPI PUSH1 0x0 DUP1 REVERT JUMPDEST POP PUSH2 0x393 PUSH1 0x4 DUP1 CALLDATASIZE SUB DUP2 ADD SWAP1 PUSH2 0x38E SWAP2 SWAP1 PUSH2 0x4455 JUMP JUMPDEST PUSH2 0xBC8 JUMP JUMPDEST PUSH1 0x40 MLOAD PUSH2 0x3A1 SWAP3 SWAP2 SWAP1 PUSH2 0x4495 JUMP JUMPDEST PUSH1 0x40 MLOAD DUP1 SWAP2 SUB SWAP1 RETURN JUMPDEST CALLVALUE DUP1 ISZERO PUSH2 0x3B6 JUMPI PUSH1 0x0 DUP1 REVERT JUMPDEST POP PUSH2 0x3D1 PUSH1 0x4 DUP1 CALLDATASIZE SUB DUP2 ADD SWAP1 PUSH2 0x3CC SWAP2 SWAP1 PUSH2 0x4163 JUMP JUMPDEST PUSH2 0xCF8 JUMP JUMPDEST PUSH1 0x40 MLOAD PUSH2 0x3E6 SWAP10 SWAP9 SWAP8 SWAP7 SWAP6 SWAP5 SWAP4 SWAP3 SWAP2 SWAP1 PUSH2 0x44DC JUMP JUMPDEST PUSH1 0x40 MLOAD DUP1 SWAP2 SUB SWAP1 RETURN JUMPDEST CALLVALUE DUP1 ISZERO PUSH2 0x3FB JUMPI PUSH1 0x0 DUP1 REVERT JUMPDEST POP PUSH2 0x416 PUSH1 0x4 DUP1 CALLDATASIZE SUB DUP2 ADD SWAP1 PUSH2 0x411 SWAP2 SWAP1 PUSH2 0x4218 JUMP JUMPDEST PUSH2 0xD63 JUMP JUMPDEST PUSH1 0x40 MLOAD PUSH2 0x423 SWAP2 SWAP1 PUSH2 0x4267 JUMP JUMPDEST PUSH1 0x40 MLOAD DUP1 SWAP2 SUB SWAP1 RETURN JUMPDEST CALLVALUE DUP1 ISZERO PUSH2 0x438 JUMPI PUSH1 0x0 DUP1 REVERT JUMPDEST POP PUSH2 0x453 PUSH1 0x4 DUP1 CALLDATASIZE SUB DUP2 ADD SWAP1 PUSH2 0x44E SWAP2 SWAP1 PUSH2 0x4402 JUMP JUMPDEST PUSH2 0xE0C JUMP JUMPDEST STOP JUMPDEST CALLVALUE DUP1 ISZERO PUSH2 0x461 JUMPI PUSH1 0x0 DUP1 REVERT JUMPDEST POP PUSH2 0x47C PUSH1 0x4 DUP1 CALLDATASIZE SUB DUP2 ADD SWAP1 PUSH2 0x477 SWAP2 SWAP1 PUSH2 0x4163 JUMP JUMPDEST PUSH2 0xE2C JUMP JUMPDEST PUSH1 0x40 MLOAD PUSH2 0x489 SWAP2 SWAP1 PUSH2 0x4267 JUMP JUMPDEST PUSH1 0x40 MLOAD DUP1 SWAP2 SUB SWAP1 RETURN JUMPDEST CALLVALUE DUP1 ISZERO PUSH2 0x49E JUMPI PUSH1 0x0 DUP1 REVERT JUMPDEST POP PUSH2 0x4B9 PUSH1 0x4 DUP1 CALLDATASIZE SUB DUP2 ADD SWAP1 PUSH2 0x4B4 SWAP2 SWAP1 PUSH2 0x4163 JUMP JUMPDEST PUSH2 0xEA2 JUMP JUMPDEST PUSH1 0x40 MLOAD PUSH2 0x4C6 SWAP2 SWAP1 PUSH2 0x41D1 JUMP JUMPDEST PUSH1 0x40 MLOAD DUP1 SWAP2 SUB SWAP1 RETURN JUMPDEST CALLVALUE DUP1 ISZERO PUSH2 0x4DB JUMPI PUSH1 0x0 DUP1 REVERT JUMPDEST POP PUSH2 0x4E4 PUSH2 0xEB4 JUMP JUMPDEST PUSH1 0x40 MLOAD PUSH2 0x4F1 SWAP2 SWAP1 PUSH2 0x41D1 JUMP JUMPDEST PUSH1 0x40 MLOAD DUP1 SWAP2 SUB SWAP1 RETURN JUMPDEST CALLVALUE DUP1 ISZERO PUSH2 0x506 JUMPI PUSH1 0x0 DUP1 REVERT JUMPDEST POP PUSH2 0x521 PUSH1 0x4 DUP1 CALLDATASIZE SUB DUP2 ADD SWAP1 PUSH2 0x51C SWAP2 SWAP1 PUSH2 0x4569 JUMP JUMPDEST PUSH2 0xED8 JUMP JUMPDEST PUSH1 0x40 MLOAD PUSH2 0x52E SWAP2 SWAP1 PUSH2 0x4267 JUMP JUMPDEST PUSH1 0x40 MLOAD DUP1 SWAP2 SUB SWAP1 RETURN JUMPDEST CALLVALUE DUP1 ISZERO PUSH2 0x543 JUMPI PUSH1 0x0 DUP1 REVERT JUMPDEST POP PUSH2 0x54C PUSH2 0xF92 JUMP JUMPDEST STOP JUMPDEST CALLVALUE DUP1 ISZERO PUSH2 0x55A JUMPI PUSH1 0x0 DUP1 REVERT JUMPDEST POP PUSH2 0x575 PUSH1 0x4 DUP1 CALLDATASIZE SUB DUP2 ADD SWAP1 PUSH2 0x570 SWAP2 SWAP1 PUSH2 0x45E7 JUMP JUMPDEST PUSH2 0xFA6 JUMP JUMPDEST STOP JUMPDEST CALLVALUE DUP1 ISZERO PUSH2 0x583 JUMPI PUSH1 0x0 DUP1 REVERT JUMPDEST POP PUSH2 0x59E PUSH1 0x4 DUP1 CALLDATASIZE SUB DUP2 ADD SWAP1 PUSH2 0x599 SWAP2 SWAP1 PUSH2 0x4569 JUMP JUMPDEST PUSH2 0x13A0 JUMP JUMPDEST PUSH1 0x40 MLOAD PUSH2 0x5AB SWAP2 SWAP1 PUSH2 0x474C JUMP JUMPDEST PUSH1 0x40 MLOAD DUP1 SWAP2 SUB SWAP1 RETURN JUMPDEST CALLVALUE DUP1 ISZERO PUSH2 0x5C0 JUMPI PUSH1 0x0 DUP1 REVERT JUMPDEST POP PUSH2 0x5C9 PUSH2 0x1437 JUMP JUMPDEST PUSH1 0x40 MLOAD PUSH2 0x5DC SWAP8 SWAP7 SWAP6 SWAP5 SWAP4 SWAP3 SWAP2 SWAP1 PUSH2 0x47A9 JUMP JUMPDEST PUSH1 0x40 MLOAD DUP1 SWAP2 SUB SWAP1 RETURN JUMPDEST CALLVALUE DUP1 ISZERO PUSH2 0x5F1 JUMPI PUSH1 0x0 DUP1 REVERT JUMPDEST POP PUSH2 0x5FA PUSH2 0x14E1 JUMP JUMPDEST PUSH1 0x40 MLOAD PUSH2 0x607 SWAP2 SWAP1 PUSH2 0x41D1 JUMP JUMPDEST PUSH1 0x40 MLOAD DUP1 SWAP2 SUB SWAP1 RETURN JUMPDEST PUSH2 0x62A PUSH1 0x4 DUP1 CALLDATASIZE SUB DUP2 ADD SWAP1 PUSH2 0x625 SWAP2 SWAP1 PUSH2 0x493E JUMP JUMPDEST PUSH2 0x150B JUMP JUMPDEST STOP JUMPDEST CALLVALUE DUP1 ISZERO PUSH2 0x638 JUMPI PUSH1 0x0 DUP1 REVERT JUMPDEST POP PUSH2 0x641 PUSH2 0x1A63 JUMP JUMPDEST PUSH1 0x40 MLOAD PUSH2 0x64E SWAP2 SWAP1 PUSH2 0x410B JUMP JUMPDEST PUSH1 0x40 MLOAD DUP1 SWAP2 SUB SWAP1 RETURN JUMPDEST CALLVALUE DUP1 ISZERO PUSH2 0x663 JUMPI PUSH1 0x0 DUP1 REVERT JUMPDEST POP PUSH2 0x67E PUSH1 0x4 DUP1 CALLDATASIZE SUB DUP2 ADD SWAP1 PUSH2 0x679 SWAP2 SWAP1 PUSH2 0x4A59 JUMP JUMPDEST PUSH2 0x1AF5 JUMP JUMPDEST STOP JUMPDEST CALLVALUE DUP1 ISZERO PUSH2 0x68C JUMPI PUSH1 0x0 DUP1 REVERT JUMPDEST POP PUSH2 0x6A7 PUSH1 0x4 DUP1 CALLDATASIZE SUB DUP2 ADD SWAP1 PUSH2 0x6A2 SWAP2 SWAP1 PUSH2 0x4BC9 JUMP JUMPDEST PUSH2 0x1B0B JUMP JUMPDEST STOP JUMPDEST CALLVALUE DUP1 ISZERO PUSH2 0x6B5 JUMPI PUSH1 0x0 DUP1 REVERT JUMPDEST POP PUSH2 0x6D0 PUSH1 0x4 DUP1 CALLDATASIZE SUB DUP2 ADD SWAP1 PUSH2 0x6CB SWAP2 SWAP1 PUSH2 0x4163 JUMP JUMPDEST PUSH2 0x1B30 JUMP JUMPDEST PUSH1 0x40 MLOAD PUSH2 0x6DD SWAP2 SWAP1 PUSH2 0x410B JUMP JUMPDEST PUSH1 0x40 MLOAD DUP1 SWAP2 SUB SWAP1 RETURN JUMPDEST CALLVALUE DUP1 ISZERO PUSH2 0x6F2 JUMPI PUSH1 0x0 DUP1 REVERT JUMPDEST POP PUSH2 0x6FB PUSH2 0x1B42 JUMP JUMPDEST PUSH1 0x40 MLOAD PUSH2 0x708 SWAP2 SWAP1 PUSH2 0x4C73 JUMP JUMPDEST PUSH1 0x40 MLOAD DUP1 SWAP2 SUB SWAP1 RETURN JUMPDEST CALLVALUE DUP1 ISZERO PUSH2 0x71D JUMPI PUSH1 0x0 DUP1 REVERT JUMPDEST POP PUSH2 0x726 PUSH2 0x1B60 JUMP JUMPDEST PUSH1 0x40 MLOAD PUSH2 0x733 SWAP2 SWAP1 PUSH2 0x4267 JUMP JUMPDEST PUSH1 0x40 MLOAD DUP1 SWAP2 SUB SWAP1 RETURN JUMPDEST CALLVALUE DUP1 ISZERO PUSH2 0x748 JUMPI PUSH1 0x0 DUP1 REVERT JUMPDEST POP PUSH2 0x763 PUSH1 0x4 DUP1 CALLDATASIZE SUB DUP2 ADD SWAP1 PUSH2 0x75E SWAP2 SWAP1 PUSH2 0x4C8E JUMP JUMPDEST PUSH2 0x1B6D JUMP JUMPDEST PUSH1 0x40 MLOAD PUSH2 0x770 SWAP2 SWAP1 PUSH2 0x4060 JUMP JUMPDEST PUSH1 0x40 MLOAD DUP1 SWAP2 SUB SWAP1 RETURN JUMPDEST CALLVALUE DUP1 ISZERO PUSH2 0x785 JUMPI PUSH1 0x0 DUP1 REVERT JUMPDEST POP PUSH2 0x78E PUSH2 0x1C01 JUMP JUMPDEST PUSH1 0x40 MLOAD PUSH2 0x79B SWAP2 SWAP1 PUSH2 0x41D1 JUMP JUMPDEST PUSH1 0x40 MLOAD DUP1 SWAP2 SUB SWAP1 RETURN JUMPDEST CALLVALUE DUP1 ISZERO PUSH2 0x7B0 JUMPI PUSH1 0x0 DUP1 REVERT JUMPDEST POP PUSH2 0x7B9 PUSH2 0x1C27 JUMP JUMPDEST PUSH1 0x40 MLOAD PUSH2 0x7C6 SWAP2 SWAP1 PUSH2 0x4CCE JUMP JUMPDEST PUSH1 0x40 MLOAD DUP1 SWAP2 SUB SWAP1 RETURN JUMPDEST CALLVALUE DUP1 ISZERO PUSH2 0x7DB JUMPI PUSH1 0x0 DUP1 REVERT JUMPDEST POP PUSH2 0x7F6 PUSH1 0x4 DUP1 CALLDATASIZE SUB DUP2 ADD SWAP1 PUSH2 0x7F1 SWAP2 SWAP1 PUSH2 0x4569 JUMP JUMPDEST PUSH2 0x1C36 JUMP JUMPDEST STOP JUMPDEST CALLVALUE DUP1 ISZERO PUSH2 0x804 JUMPI PUSH1 0x0 DUP1 REVERT JUMPDEST POP PUSH2 0x81F PUSH1 0x4 DUP1 CALLDATASIZE SUB DUP2 ADD SWAP1 PUSH2 0x81A SWAP2 SWAP1 PUSH2 0x4CE9 JUMP JUMPDEST PUSH2 0x1CBC JUMP JUMPDEST PUSH1 0x40 MLOAD PUSH2 0x82C SWAP2 SWAP1 PUSH2 0x4267 JUMP JUMPDEST PUSH1 0x40 MLOAD DUP1 SWAP2 SUB SWAP1 RETURN JUMPDEST PUSH1 0x0 PUSH2 0x840 DUP3 PUSH2 0x1D3B JUMP JUMPDEST SWAP1 POP SWAP2 SWAP1 POP JUMP JUMPDEST PUSH1 0x60 PUSH1 0x0 DUP1 SLOAD PUSH2 0x856 SWAP1 PUSH2 0x4D58 JUMP JUMPDEST DUP1 PUSH1 0x1F ADD PUSH1 0x20 DUP1 SWAP2 DIV MUL PUSH1 0x20 ADD PUSH1 0x40 MLOAD SWAP1 DUP2 ADD PUSH1 0x40 MSTORE DUP1 SWAP3 SWAP2 SWAP1 DUP2 DUP2 MSTORE PUSH1 0x20 ADD DUP3 DUP1 SLOAD PUSH2 0x882 SWAP1 PUSH2 0x4D58 JUMP JUMPDEST DUP1 ISZERO PUSH2 0x8CF JUMPI DUP1 PUSH1 0x1F LT PUSH2 0x8A4 JUMPI PUSH2 0x100 DUP1 DUP4 SLOAD DIV MUL DUP4 MSTORE SWAP2 PUSH1 0x20 ADD SWAP2 PUSH2 0x8CF JUMP JUMPDEST DUP3 ADD SWAP2 SWAP1 PUSH1 0x0 MSTORE PUSH1 0x20 PUSH1 0x0 KECCAK256 SWAP1 JUMPDEST DUP2 SLOAD DUP2 MSTORE SWAP1 PUSH1 0x1 ADD SWAP1 PUSH1 0x20 ADD DUP1 DUP4 GT PUSH2 0x8B2 JUMPI DUP3 SWAP1 SUB PUSH1 0x1F AND DUP3 ADD SWAP2 JUMPDEST POP POP POP POP POP SWAP1 POP SWAP1 JUMP JUMPDEST PUSH1 0x0 DUP1 TIMESTAMP SWAP1 POP PUSH1 0x0 JUMPDEST PUSH1 0x12 DUP1 SLOAD SWAP1 POP DUP2 LT ISZERO PUSH2 0x9C9 JUMPI PUSH1 0x0 PUSH1 0x2 DUP2 GT ISZERO PUSH2 0x903 JUMPI PUSH2 0x902 PUSH2 0x4282 JUMP JUMPDEST JUMPDEST PUSH1 0x12 DUP3 DUP2 SLOAD DUP2 LT PUSH2 0x917 JUMPI PUSH2 0x916 PUSH2 0x4D89 JUMP JUMPDEST JUMPDEST SWAP1 PUSH1 0x0 MSTORE PUSH1 0x20 PUSH1 0x0 KECCAK256 SWAP1 PUSH1 0x9 MUL ADD PUSH1 0x0 ADD PUSH1 0x0 SWAP1 SLOAD SWAP1 PUSH2 0x100 EXP SWAP1 DIV PUSH1 0xFF AND PUSH1 0x2 DUP2 GT ISZERO PUSH2 0x948 JUMPI PUSH2 0x947 PUSH2 0x4282 JUMP JUMPDEST JUMPDEST EQ ISZERO DUP1 ISZERO PUSH2 0x97B JUMPI POP PUSH1 0x12 DUP2 DUP2 SLOAD DUP2 LT PUSH2 0x965 JUMPI PUSH2 0x964 PUSH2 0x4D89 JUMP JUMPDEST JUMPDEST SWAP1 PUSH1 0x0 MSTORE PUSH1 0x20 PUSH1 0x0 KECCAK256 SWAP1 PUSH1 0x9 MUL ADD PUSH1 0x2 ADD SLOAD DUP3 LT ISZERO JUMPDEST DUP1 ISZERO PUSH2 0x9AC JUMPI POP PUSH1 0x12 DUP2 DUP2 SLOAD DUP2 LT PUSH2 0x996 JUMPI PUSH2 0x995 PUSH2 0x4D89 JUMP JUMPDEST JUMPDEST SWAP1 PUSH1 0x0 MSTORE PUSH1 0x20 PUSH1 0x0 KECCAK256 SWAP1 PUSH1 0x9 MUL ADD PUSH1 0x3 ADD SLOAD DUP3 GT ISZERO JUMPDEST ISZERO PUSH2 0x9BC JUMPI PUSH1 0x1 SWAP3 POP POP POP PUSH2 0x9D0 JUMP JUMPDEST DUP1 DUP1 PUSH1 0x1 ADD SWAP2 POP POP PUSH2 0x8E2 JUMP JUMPDEST POP PUSH1 0x0 SWAP2 POP POP JUMPDEST SWAP1 JUMP JUMPDEST PUSH1 0x0 PUSH2 0x9DE DUP3 PUSH2 0x1DB5 JUMP JUMPDEST POP PUSH2 0x9E8 DUP3 PUSH2 0x1E3D JUMP JUMPDEST SWAP1 POP SWAP2 SWAP1 POP JUMP JUMPDEST PUSH2 0xA01 DUP3 DUP3 PUSH2 0x9FC PUSH2 0x1E7A JUMP JUMPDEST PUSH2 0x1E82 JUMP JUMPDEST POP POP JUMP JUMPDEST PUSH1 0x0 PUSH1 0x8 DUP1 SLOAD SWAP1 POP SWAP1 POP SWAP1 JUMP JUMPDEST PUSH1 0x0 PUSH2 0xA1C PUSH2 0x3F4B JUMP JUMPDEST PUSH2 0xA24 PUSH2 0x1E94 JUMP JUMPDEST DUP1 PUSH1 0x40 MLOAD DUP1 PUSH2 0x120 ADD PUSH1 0x40 MSTORE SWAP1 DUP2 PUSH1 0x0 DUP3 ADD PUSH1 0x0 SWAP1 SLOAD SWAP1 PUSH2 0x100 EXP SWAP1 DIV PUSH1 0xFF AND PUSH1 0x2 DUP2 GT ISZERO PUSH2 0xA56 JUMPI PUSH2 0xA55 PUSH2 0x4282 JUMP JUMPDEST JUMPDEST PUSH1 0x2 DUP2 GT ISZERO PUSH2 0xA68 JUMPI PUSH2 0xA67 PUSH2 0x4282 JUMP JUMPDEST JUMPDEST DUP2 MSTORE PUSH1 0x20 ADD PUSH1 0x1 DUP3 ADD SLOAD DUP2 MSTORE PUSH1 0x20 ADD PUSH1 0x2 DUP3 ADD SLOAD DUP2 MSTORE PUSH1 0x20 ADD PUSH1 0x3 DUP3 ADD SLOAD DUP2 MSTORE PUSH1 0x20 ADD PUSH1 0x4 DUP3 ADD SLOAD DUP2 MSTORE PUSH1 0x20 ADD PUSH1 0x5 DUP3 ADD SLOAD DUP2 MSTORE PUSH1 0x20 ADD PUSH1 0x6 DUP3 ADD SLOAD DUP2 MSTORE PUSH1 0x20 ADD PUSH1 0x7 DUP3 ADD SLOAD DUP2 MSTORE PUSH1 0x20 ADD PUSH1 0x8 DUP3 ADD SLOAD DUP2 MSTORE POP POP SWAP1 POP SWAP2 POP SWAP2 POP SWAP1 SWAP2 JUMP JUMPDEST PUSH1 0x0 PUSH20 0xFFFFFFFFFFFFFFFFFFFFFFFFFFFFFFFFFFFFFFFF AND DUP3 PUSH20 0xFFFFFFFFFFFFFFFFFFFFFFFFFFFFFFFFFFFFFFFF AND SUB PUSH2 0xB38 JUMPI PUSH1 0x0 PUSH1 0x40 MLOAD PUSH32 0x64A0AE9200000000000000000000000000000000000000000000000000000000 DUP2 MSTORE PUSH1 0x4 ADD PUSH2 0xB2F SWAP2 SWAP1 PUSH2 0x41D1 JUMP JUMPDEST PUSH1 0x40 MLOAD DUP1 SWAP2 SUB SWAP1 REVERT JUMPDEST PUSH1 0x0 PUSH2 0xB4C DUP4 DUP4 PUSH2 0xB47 PUSH2 0x1E7A JUMP JUMPDEST PUSH2 0x1FE0 JUMP JUMPDEST SWAP1 POP DUP4 PUSH20 0xFFFFFFFFFFFFFFFFFFFFFFFFFFFFFFFFFFFFFFFF AND DUP2 PUSH20 0xFFFFFFFFFFFFFFFFFFFFFFFFFFFFFFFFFFFFFFFF AND EQ PUSH2 0xBC2 JUMPI DUP4 DUP3 DUP3 PUSH1 0x40 MLOAD PUSH32 0x64283D7B00000000000000000000000000000000000000000000000000000000 DUP2 MSTORE PUSH1 0x4 ADD PUSH2 0xBB9 SWAP4 SWAP3 SWAP2 SWAP1 PUSH2 0x4DB8 JUMP JUMPDEST PUSH1 0x40 MLOAD DUP1 SWAP2 SUB SWAP1 REVERT JUMPDEST POP POP POP POP JUMP JUMPDEST PUSH1 0x0 DUP1 PUSH1 0x0 PUSH1 0xC PUSH1 0x0 DUP7 DUP2 MSTORE PUSH1 0x20 ADD SWAP1 DUP2 MSTORE PUSH1 0x20 ADD PUSH1 0x0 KECCAK256 SWAP1 POP PUSH1 0x0 DUP2 PUSH1 0x0 ADD PUSH1 0x0 SWAP1 SLOAD SWAP1 PUSH2 0x100 EXP SWAP1 DIV PUSH20 0xFFFFFFFFFFFFFFFFFFFFFFFFFFFFFFFFFFFFFFFF AND SWAP1 POP PUSH1 0x0 DUP3 PUSH1 0x0 ADD PUSH1 0x14 SWAP1 SLOAD SWAP1 PUSH2 0x100 EXP SWAP1 DIV PUSH12 0xFFFFFFFFFFFFFFFFFFFFFFFF AND SWAP1 POP PUSH1 0x0 PUSH20 0xFFFFFFFFFFFFFFFFFFFFFFFFFFFFFFFFFFFFFFFF AND DUP3 PUSH20 0xFFFFFFFFFFFFFFFFFFFFFFFFFFFFFFFFFFFFFFFF AND SUB PUSH2 0xCA9 JUMPI PUSH1 0xB PUSH1 0x0 ADD PUSH1 0x0 SWAP1 SLOAD SWAP1 PUSH2 0x100 EXP SWAP1 DIV PUSH20 0xFFFFFFFFFFFFFFFFFFFFFFFFFFFFFFFFFFFFFFFF AND SWAP2 POP PUSH1 0xB PUSH1 0x0 ADD PUSH1 0x14 SWAP1 SLOAD SWAP1 PUSH2 0x100 EXP SWAP1 DIV PUSH12 0xFFFFFFFFFFFFFFFFFFFFFFFF AND SWAP1 POP JUMPDEST PUSH1 0x0 PUSH2 0xCB3 PUSH2 0x1FF6 JUMP JUMPDEST PUSH12 0xFFFFFFFFFFFFFFFFFFFFFFFF AND DUP3 PUSH12 0xFFFFFFFFFFFFFFFFFFFFFFFF AND DUP9 PUSH2 0xCDB SWAP2 SWAP1 PUSH2 0x4E1E JUMP JUMPDEST PUSH2 0xCE5 SWAP2 SWAP1 PUSH2 0x4E8F JUMP JUMPDEST SWAP1 POP DUP3 DUP2 SWAP6 POP SWAP6 POP POP POP POP POP SWAP3 POP SWAP3 SWAP1 POP JUMP JUMPDEST PUSH1 0x12 DUP2 DUP2 SLOAD DUP2 LT PUSH2 0xD08 JUMPI PUSH1 0x0 DUP1 REVERT JUMPDEST SWAP1 PUSH1 0x0 MSTORE PUSH1 0x20 PUSH1 0x0 KECCAK256 SWAP1 PUSH1 0x9 MUL ADD PUSH1 0x0 SWAP2 POP SWAP1 POP DUP1 PUSH1 0x0 ADD PUSH1 0x0 SWAP1 SLOAD SWAP1 PUSH2 0x100 EXP SWAP1 DIV PUSH1 0xFF AND SWAP1 DUP1 PUSH1 0x1 ADD SLOAD SWAP1 DUP1 PUSH1 0x2 ADD SLOAD SWAP1 DUP1 PUSH1 0x3 ADD SLOAD SWAP1 DUP1 PUSH1 0x4 ADD SLOAD SWAP1 DUP1 PUSH1 0x5 ADD SLOAD SWAP1 DUP1 PUSH1 0x6 ADD SLOAD SWAP1 DUP1 PUSH1 0x7 ADD SLOAD SWAP1 DUP1 PUSH1 0x8 ADD SLOAD SWAP1 POP DUP10 JUMP JUMPDEST PUSH1 0x0 PUSH2 0xD6E DUP4 PUSH2 0xED8 JUMP JUMPDEST DUP3 LT PUSH2 0xDB3 JUMPI DUP3 DUP3 PUSH1 0x40 MLOAD PUSH32 0xA57D13DC00000000000000000000000000000000000000000000000000000000 DUP2 MSTORE PUSH1 0x4 ADD PUSH2 0xDAA SWAP3 SWAP2 SWAP1 PUSH2 0x4495 JUMP JUMPDEST PUSH1 0x40 MLOAD DUP1 SWAP2 SUB SWAP1 REVERT JUMPDEST PUSH1 0x6 PUSH1 0x0 DUP5 PUSH20 0xFFFFFFFFFFFFFFFFFFFFFFFFFFFFFFFFFFFFFFFF AND PUSH20 0xFFFFFFFFFFFFFFFFFFFFFFFFFFFFFFFFFFFFFFFF AND DUP2 MSTORE PUSH1 0x20 ADD SWAP1 DUP2 MSTORE PUSH1 0x20 ADD PUSH1 0x0 KECCAK256 PUSH1 0x0 DUP4 DUP2 MSTORE PUSH1 0x20 ADD SWAP1 DUP2 MSTORE PUSH1 0x20 ADD PUSH1 0x0 KECCAK256 SLOAD SWAP1 POP SWAP3 SWAP2 POP POP JUMP JUMPDEST PUSH2 0xE27 DUP4 DUP4 DUP4 PUSH1 0x40 MLOAD DUP1 PUSH1 0x20 ADD PUSH1 0x40 MSTORE DUP1 PUSH1 0x0 DUP2 MSTORE POP PUSH2 0x1B0B JUMP JUMPDEST POP POP POP JUMP JUMPDEST PUSH1 0x0 PUSH2 0xE36 PUSH2 0xA05 JUMP JUMPDEST DUP3 LT PUSH2 0xE7C JUMPI PUSH1 0x0 DUP3 PUSH1 0x40 MLOAD PUSH32 0xA57D13DC00000000000000000000000000000000000000000000000000000000 DUP2 MSTORE PUSH1 0x4 ADD PUSH2 0xE73 SWAP3 SWAP2 SWAP1 PUSH2 0x4495 JUMP JUMPDEST PUSH1 0x40 MLOAD DUP1 SWAP2 SUB SWAP1 REVERT JUMPDEST PUSH1 0x8 DUP3 DUP2 SLOAD DUP2 LT PUSH2 0xE90 JUMPI PUSH2 0xE8F PUSH2 0x4D89 JUMP JUMPDEST JUMPDEST SWAP1 PUSH1 0x0 MSTORE PUSH1 0x20 PUSH1 0x0 KECCAK256 ADD SLOAD SWAP1 POP SWAP2 SWAP1 POP JUMP JUMPDEST PUSH1 0x0 PUSH2 0xEAD DUP3 PUSH2 0x1DB5 JUMP JUMPDEST SWAP1 POP SWAP2 SWAP1 POP JUMP JUMPDEST PUSH32 0x0 DUP2 JUMP JUMPDEST PUSH1 0x0 DUP1 PUSH20 0xFFFFFFFFFFFFFFFFFFFFFFFFFFFFFFFFFFFFFFFF AND DUP3 PUSH20 0xFFFFFFFFFFFFFFFFFFFFFFFFFFFFFFFFFFFFFFFF AND SUB PUSH2 0xF4B JUMPI PUSH1 0x0 PUSH1 0x40 MLOAD PUSH32 0x89C62B6400000000000000000000000000000000000000000000000000000000 DUP2 MSTORE PUSH1 0x4 ADD PUSH2 0xF42 SWAP2 SWAP1 PUSH2 0x41D1 JUMP JUMPDEST PUSH1 0x40 MLOAD DUP1 SWAP2 SUB SWAP1 REVERT JUMPDEST PUSH1 0x3 PUSH1 0x0 DUP4 PUSH20 0xFFFFFFFFFFFFFFFFFFFFFFFFFFFFFFFFFFFFFFFF AND PUSH20 0xFFFFFFFFFFFFFFFFFFFFFFFFFFFFFFFFFFFFFFFF AND DUP2 MSTORE PUSH1 0x20 ADD SWAP1 DUP2 MSTORE PUSH1 0x20 ADD PUSH1 0x0 KECCAK256 SLOAD SWAP1 POP SWAP2 SWAP1 POP JUMP JUMPDEST PUSH2 0xF9A PUSH2 0x2000 JUMP JUMPDEST PUSH2 0xFA4 PUSH1 0x0 PUSH2 0x2087 JUMP JUMPDEST JUMP JUMPDEST PUSH2 0xFAE PUSH2 0x2000 JUMP JUMPDEST DUP5 DUP7 LT PUSH2 0xFF0 JUMPI PUSH1 0x40 MLOAD PUSH32 0x8C379A000000000000000000000000000000000000000000000000000000000 DUP2 MSTORE PUSH1 0x4 ADD PUSH2 0xFE7 SWAP1 PUSH2 0x4F0C JUMP JUMPDEST PUSH1 0x40 MLOAD DUP1 SWAP2 SUB SWAP1 REVERT JUMPDEST PUSH1 0x2 DUP1 DUP2 GT ISZERO PUSH2 0x1003 JUMPI PUSH2 0x1002 PUSH2 0x4282 JUMP JUMPDEST JUMPDEST DUP9 PUSH1 0x2 DUP2 GT ISZERO PUSH2 0x1016 JUMPI PUSH2 0x1015 PUSH2 0x4282 JUMP JUMPDEST JUMPDEST SUB ISZERO PUSH2 0x10E8 JUMPI PUSH1 0x0 DUP4 GT PUSH2 0x105F JUMPI PUSH1 0x40 MLOAD PUSH32 0x8C379A000000000000000000000000000000000000000000000000000000000 DUP2 MSTORE PUSH1 0x4 ADD PUSH2 0x1056 SWAP1 PUSH2 0x4F9E JUMP JUMPDEST PUSH1 0x40 MLOAD DUP1 SWAP2 SUB SWAP1 REVERT JUMPDEST PUSH1 0x0 DUP3 GT PUSH2 0x10A2 JUMPI PUSH1 0x40 MLOAD PUSH32 0x8C379A000000000000000000000000000000000000000000000000000000000 DUP2 MSTORE PUSH1 0x4 ADD PUSH2 0x1099 SWAP1 PUSH2 0x5030 JUMP JUMPDEST PUSH1 0x40 MLOAD DUP1 SWAP2 SUB SWAP1 REVERT JUMPDEST PUSH1 0x0 DUP1 SHL DUP2 SUB PUSH2 0x10E7 JUMPI PUSH1 0x40 MLOAD PUSH32 0x8C379A000000000000000000000000000000000000000000000000000000000 DUP2 MSTORE PUSH1 0x4 ADD PUSH2 0x10DE SWAP1 PUSH2 0x50C2 JUMP JUMPDEST PUSH1 0x40 MLOAD DUP1 SWAP2 SUB SWAP1 REVERT JUMPDEST JUMPDEST PUSH1 0x0 JUMPDEST PUSH1 0x12 DUP1 SLOAD SWAP1 POP DUP2 LT ISZERO PUSH2 0x1249 JUMPI PUSH1 0x0 PUSH1 0x12 DUP3 DUP2 SLOAD DUP2 LT PUSH2 0x110E JUMPI PUSH2 0x110D PUSH2 0x4D89 JUMP JUMPDEST JUMPDEST SWAP1 PUSH1 0x0 MSTORE PUSH1 0x20 PUSH1 0x0 KECCAK256 SWAP1 PUSH1 0x9 MUL ADD PUSH1 0x40 MLOAD DUP1 PUSH2 0x120 ADD PUSH1 0x40 MSTORE SWAP1 DUP2 PUSH1 0x0 DUP3 ADD PUSH1 0x0 SWAP1 SLOAD SWAP1 PUSH2 0x100 EXP SWAP1 DIV PUSH1 0xFF AND PUSH1 0x2 DUP2 GT ISZERO PUSH2 0x114D JUMPI PUSH2 0x114C PUSH2 0x4282 JUMP JUMPDEST JUMPDEST PUSH1 0x2 DUP2 GT ISZERO PUSH2 0x115F JUMPI PUSH2 0x115E PUSH2 0x4282 JUMP JUMPDEST JUMPDEST DUP2 MSTORE PUSH1 0x20 ADD PUSH1 0x1 DUP3 ADD SLOAD DUP2 MSTORE PUSH1 0x20 ADD PUSH1 0x2 DUP3 ADD SLOAD DUP2 MSTORE PUSH1 0x20 ADD PUSH1 0x3 DUP3 ADD SLOAD DUP2 MSTORE PUSH1 0x20 ADD PUSH1 0x4 DUP3 ADD SLOAD DUP2 MSTORE PUSH1 0x20 ADD PUSH1 0x5 DUP3 ADD SLOAD DUP2 MSTORE PUSH1 0x20 ADD PUSH1 0x6 DUP3 ADD SLOAD DUP2 MSTORE PUSH1 0x20 ADD PUSH1 0x7 DUP3 ADD SLOAD DUP2 MSTORE PUSH1 0x20 ADD PUSH1 0x8 DUP3 ADD SLOAD DUP2 MSTORE POP POP SWAP1 POP PUSH1 0x0 PUSH1 0x2 DUP2 GT ISZERO PUSH2 0x11C9 JUMPI PUSH2 0x11C8 PUSH2 0x4282 JUMP JUMPDEST JUMPDEST DUP2 PUSH1 0x0 ADD MLOAD PUSH1 0x2 DUP2 GT ISZERO PUSH2 0x11E0 JUMPI PUSH2 0x11DF PUSH2 0x4282 JUMP JUMPDEST JUMPDEST SUB PUSH2 0x11EB JUMPI POP PUSH2 0x123C JUMP JUMPDEST DUP1 PUSH1 0x60 ADD MLOAD DUP9 GT ISZERO DUP1 ISZERO PUSH2 0x1203 JUMPI POP DUP1 PUSH1 0x40 ADD MLOAD DUP8 LT ISZERO JUMPDEST ISZERO PUSH2 0x123A JUMPI PUSH1 0x40 MLOAD PUSH32 0x27FDFACF00000000000000000000000000000000000000000000000000000000 DUP2 MSTORE PUSH1 0x4 ADD PUSH1 0x40 MLOAD DUP1 SWAP2 SUB SWAP1 REVERT JUMPDEST POP JUMPDEST DUP1 DUP1 PUSH1 0x1 ADD SWAP2 POP POP PUSH2 0x10EB JUMP JUMPDEST POP PUSH1 0x0 PUSH1 0x40 MLOAD DUP1 PUSH2 0x120 ADD PUSH1 0x40 MSTORE DUP1 DUP11 PUSH1 0x2 DUP2 GT ISZERO PUSH2 0x126B JUMPI PUSH2 0x126A PUSH2 0x4282 JUMP JUMPDEST JUMPDEST DUP2 MSTORE PUSH1 0x20 ADD DUP10 DUP2 MSTORE PUSH1 0x20 ADD DUP9 DUP2 MSTORE PUSH1 0x20 ADD DUP8 DUP2 MSTORE PUSH1 0x20 ADD DUP7 DUP2 MSTORE PUSH1 0x20 ADD DUP6 DUP2 MSTORE PUSH1 0x20 ADD DUP5 DUP2 MSTORE PUSH1 0x20 ADD PUSH1 0x0 DUP2 MSTORE PUSH1 0x20 ADD DUP4 DUP2 MSTORE POP SWAP1 POP PUSH1 0x0 PUSH1 0x12 DUP1 SLOAD SWAP1 POP SWAP1 POP PUSH1 0x12 DUP3 SWAP1 DUP1 PUSH1 0x1 DUP2 SLOAD ADD DUP1 DUP3 SSTORE DUP1 SWAP2 POP POP PUSH1 0x1 SWAP1 SUB SWAP1 PUSH1 0x0 MSTORE PUSH1 0x20 PUSH1 0x0 KECCAK256 SWAP1 PUSH1 0x9 MUL ADD PUSH1 0x0 SWAP1 SWAP2 SWAP1 SWAP2 SWAP1 SWAP2 POP PUSH1 0x0 DUP3 ADD MLOAD DUP2 PUSH1 0x0 ADD PUSH1 0x0 PUSH2 0x100 EXP DUP2 SLOAD DUP2 PUSH1 0xFF MUL NOT AND SWAP1 DUP4 PUSH1 0x2 DUP2 GT ISZERO PUSH2 0x1302 JUMPI PUSH2 0x1301 PUSH2 0x4282 JUMP JUMPDEST JUMPDEST MUL OR SWAP1 SSTORE POP PUSH1 0x20 DUP3 ADD MLOAD DUP2 PUSH1 0x1 ADD SSTORE PUSH1 0x40 DUP3 ADD MLOAD DUP2 PUSH1 0x2 ADD SSTORE PUSH1 0x60 DUP3 ADD MLOAD DUP2 PUSH1 0x3 ADD SSTORE PUSH1 0x80 DUP3 ADD MLOAD DUP2 PUSH1 0x4 ADD SSTORE PUSH1 0xA0 DUP3 ADD MLOAD DUP2 PUSH1 0x5 ADD SSTORE PUSH1 0xC0 DUP3 ADD MLOAD DUP2 PUSH1 0x6 ADD SSTORE PUSH1 0xE0 DUP3 ADD MLOAD DUP2 PUSH1 0x7 ADD SSTORE PUSH2 0x100 DUP3 ADD MLOAD DUP2 PUSH1 0x8 ADD SSTORE POP POP DUP1 PUSH32 0x7673E4939433531841B3EE155CFB41D74036F1741ED20BA7C3ED88D66A289551 DUP12 DUP12 PUSH1 0x40 MLOAD PUSH2 0x138C SWAP3 SWAP2 SWAP1 PUSH2 0x50E2 JUMP JUMPDEST PUSH1 0x40 MLOAD DUP1 SWAP2 SUB SWAP1 LOG2 POP POP POP POP POP POP POP POP POP POP JUMP JUMPDEST PUSH1 0x60 PUSH1 0x14 PUSH1 0x0 DUP4 PUSH20 0xFFFFFFFFFFFFFFFFFFFFFFFFFFFFFFFFFFFFFFFF AND PUSH20 0xFFFFFFFFFFFFFFFFFFFFFFFFFFFFFFFFFFFFFFFF AND DUP2 MSTORE PUSH1 0x20 ADD SWAP1 DUP2 MSTORE PUSH1 0x20 ADD PUSH1 0x0 KECCAK256 DUP1 SLOAD DUP1 PUSH1 0x20 MUL PUSH1 0x20 ADD PUSH1 0x40 MLOAD SWAP1 DUP2 ADD PUSH1 0x40 MSTORE DUP1 SWAP3 SWAP2 SWAP1 DUP2 DUP2 MSTORE PUSH1 0x20 ADD DUP3 DUP1 SLOAD DUP1 ISZERO PUSH2 0x142B JUMPI PUSH1 0x20 MUL DUP3 ADD SWAP2 SWAP1 PUSH1 0x0 MSTORE PUSH1 0x20 PUSH1 0x0 KECCAK256 SWAP1 JUMPDEST DUP2 SLOAD DUP2 MSTORE PUSH1 0x20 ADD SWAP1 PUSH1 0x1 ADD SWAP1 DUP1 DUP4 GT PUSH2 0x1417 JUMPI JUMPDEST POP POP POP POP POP SWAP1 POP SWAP2 SWAP1 POP JUMP JUMPDEST PUSH1 0x0 PUSH1 0x60 DUP1 PUSH1 0x0 DUP1 PUSH1 0x0 PUSH1 0x60 PUSH2 0x144B PUSH2 0x214D JUMP JUMPDEST PUSH2 0x1453 PUSH2 0x2188 JUMP JUMPDEST CHAINID ADDRESS PUSH1 0x0 DUP1 SHL PUSH1 0x0 PUSH8 0xFFFFFFFFFFFFFFFF DUP2 GT ISZERO PUSH2 0x1474 JUMPI PUSH2 0x1473 PUSH2 0x4A9E JUMP JUMPDEST JUMPDEST PUSH1 0x40 MLOAD SWAP1 DUP1 DUP3 MSTORE DUP1 PUSH1 0x20 MUL PUSH1 0x20 ADD DUP3 ADD PUSH1 0x40 MSTORE DUP1 ISZERO PUSH2 0x14A2 JUMPI DUP2 PUSH1 0x20 ADD PUSH1 0x20 DUP3 MUL DUP1 CALLDATASIZE DUP4 CALLDATACOPY DUP1 DUP3 ADD SWAP2 POP POP SWAP1 POP JUMPDEST POP PUSH32 0xF00000000000000000000000000000000000000000000000000000000000000 SWAP6 SWAP5 SWAP4 SWAP3 SWAP2 SWAP1 SWAP7 POP SWAP7 POP SWAP7 POP SWAP7 POP SWAP7 POP SWAP7 POP SWAP7 POP SWAP1 SWAP2 SWAP3 SWAP4 SWAP5 SWAP6 SWAP7 JUMP JUMPDEST PUSH1 0x0 PUSH1 0xD PUSH1 0x0 SWAP1 SLOAD SWAP1 PUSH2 0x100 EXP SWAP1 DIV PUSH20 0xFFFFFFFFFFFFFFFFFFFFFFFFFFFFFFFFFFFFFFFF AND SWAP1 POP SWAP1 JUMP JUMPDEST PUSH1 0x0 DUP1 PUSH2 0x1516 PUSH2 0x1E94 JUMP JUMPDEST SWAP2 POP SWAP2 POP PUSH1 0x1 PUSH1 0x2 DUP2 GT ISZERO PUSH2 0x152E JUMPI PUSH2 0x152D PUSH2 0x4282 JUMP JUMPDEST JUMPDEST DUP2 PUSH1 0x0 ADD PUSH1 0x0 SWAP1 SLOAD SWAP1 PUSH2 0x100 EXP SWAP1 DIV PUSH1 0xFF AND PUSH1 0x2 DUP2 GT ISZERO PUSH2 0x1552 JUMPI PUSH2 0x1551 PUSH2 0x4282 JUMP JUMPDEST JUMPDEST SUB PUSH2 0x1604 JUMPI PUSH2 0x15CD DUP5 DUP5 DUP1 DUP1 PUSH1 0x20 MUL PUSH1 0x20 ADD PUSH1 0x40 MLOAD SWAP1 DUP2 ADD PUSH1 0x40 MSTORE DUP1 SWAP4 SWAP3 SWAP2 SWAP1 DUP2 DUP2 MSTORE PUSH1 0x20 ADD DUP4 DUP4 PUSH1 0x20 MUL DUP1 DUP3 DUP5 CALLDATACOPY PUSH1 0x0 DUP2 DUP5 ADD MSTORE PUSH1 0x1F NOT PUSH1 0x1F DUP3 ADD AND SWAP1 POP DUP1 DUP4 ADD SWAP3 POP POP POP POP POP POP POP DUP3 PUSH1 0x8 ADD SLOAD CALLER PUSH1 0x40 MLOAD PUSH1 0x20 ADD PUSH2 0x15B2 SWAP2 SWAP1 PUSH2 0x5153 JUMP JUMPDEST PUSH1 0x40 MLOAD PUSH1 0x20 DUP2 DUP4 SUB SUB DUP2 MSTORE SWAP1 PUSH1 0x40 MSTORE DUP1 MLOAD SWAP1 PUSH1 0x20 ADD KECCAK256 PUSH2 0x21C3 JUMP JUMPDEST PUSH2 0x1603 JUMPI PUSH1 0x40 MLOAD PUSH32 0xB05E92FA00000000000000000000000000000000000000000000000000000000 DUP2 MSTORE PUSH1 0x4 ADD PUSH1 0x40 MLOAD DUP1 SWAP2 SUB SWAP1 REVERT JUMPDEST JUMPDEST TIMESTAMP PUSH2 0xE10 DUP9 PUSH2 0x1613 SWAP2 SWAP1 PUSH2 0x516E JUMP JUMPDEST LT DUP1 PUSH2 0x161E JUMPI POP TIMESTAMP DUP8 GT JUMPDEST ISZERO PUSH2 0x1655 JUMPI PUSH1 0x40 MLOAD PUSH32 0x819BDCD00000000000000000000000000000000000000000000000000000000 DUP2 MSTORE PUSH1 0x4 ADD PUSH1 0x40 MLOAD DUP1 SWAP2 SUB SWAP1 REVERT JUMPDEST PUSH1 0x11 PUSH1 0x0 DUP10 DUP2 MSTORE PUSH1 0x20 ADD SWAP1 DUP2 MSTORE PUSH1 0x20 ADD PUSH1 0x0 KECCAK256 PUSH1 0x0 SWAP1 SLOAD SWAP1 PUSH2 0x100 EXP SWAP1 DIV PUSH1 0xFF AND ISZERO PUSH2 0x16AD JUMPI PUSH1 0x40 MLOAD PUSH32 0x8BAA579F00000000000000000000000000000000000000000000000000000000 DUP2 MSTORE PUSH1 0x4 ADD PUSH1 0x40 MLOAD DUP1 SWAP2 SUB SWAP1 REVERT JUMPDEST PUSH1 0x0 PUSH32 0xBCD57119BF9B3F112B39ECFB926B57BABF8EA759EF8FB8F953EC0103B2A187F3 CALLER DUP14 DUP14 DUP14 PUSH1 0x40 MLOAD PUSH2 0x16E2 SWAP3 SWAP2 SWAP1 PUSH2 0x51D2 JUMP JUMPDEST PUSH1 0x40 MLOAD DUP1 SWAP2 SUB SWAP1 KECCAK256 DUP6 PUSH1 0x1 ADD SLOAD DUP8 DUP15 DUP15 PUSH1 0x40 MLOAD PUSH1 0x20 ADD PUSH2 0x1709 SWAP9 SWAP8 SWAP7 SWAP6 SWAP5 SWAP4 SWAP3 SWAP2 SWAP1 PUSH2 0x51EB JUMP JUMPDEST PUSH1 0x40 MLOAD PUSH1 0x20 DUP2 DUP4 SUB SUB DUP2 MSTORE SWAP1 PUSH1 0x40 MSTORE DUP1 MLOAD SWAP1 PUSH1 0x20 ADD KECCAK256 SWAP1 POP PUSH32 0x0 PUSH20 0xFFFFFFFFFFFFFFFFFFFFFFFFFFFFFFFFFFFFFFFF AND PUSH2 0x17B7 DUP9 DUP9 DUP1 DUP1 PUSH1 0x1F ADD PUSH1 0x20 DUP1 SWAP2 DIV MUL PUSH1 0x20 ADD PUSH1 0x40 MLOAD SWAP1 DUP2 ADD PUSH1 0x40 MSTORE DUP1 SWAP4 SWAP3 SWAP2 SWAP1 DUP2 DUP2 MSTORE PUSH1 0x20 ADD DUP4 DUP4 DUP1 DUP3 DUP5 CALLDATACOPY PUSH1 0x0 DUP2 DUP5 ADD MSTORE PUSH1 0x1F NOT PUSH1 0x1F DUP3 ADD AND SWAP1 POP DUP1 DUP4 ADD SWAP3 POP POP POP POP POP POP POP PUSH2 0x17A9 DUP5 PUSH2 0x21DA JUMP JUMPDEST PUSH2 0x21F4 SWAP1 SWAP2 SWAP1 PUSH4 0xFFFFFFFF AND JUMP JUMPDEST PUSH20 0xFFFFFFFFFFFFFFFFFFFFFFFFFFFFFFFFFFFFFFFF AND EQ PUSH2 0x1804 JUMPI PUSH1 0x40 MLOAD PUSH32 0x8BAA579F00000000000000000000000000000000000000000000000000000000 DUP2 MSTORE PUSH1 0x4 ADD PUSH1 0x40 MLOAD DUP1 SWAP2 SUB SWAP1 REVERT JUMPDEST DUP2 PUSH1 0x1 ADD SLOAD CALLVALUE EQ PUSH2 0x1841 JUMPI PUSH1 0x40 MLOAD PUSH32 0x43A8B01000000000000000000000000000000000000000000000000000000000 DUP2 MSTORE PUSH1 0x4 ADD PUSH1 0x40 MLOAD DUP1 SWAP2 SUB SWAP1 REVERT JUMPDEST PUSH1 0x0 DUP3 PUSH1 0x4 ADD SLOAD EQ ISZERO DUP1 ISZERO PUSH2 0x185E JUMPI POP DUP2 PUSH1 0x4 ADD SLOAD DUP3 PUSH1 0x7 ADD SLOAD LT ISZERO JUMPDEST ISZERO PUSH2 0x1895 JUMPI PUSH1 0x40 MLOAD PUSH32 0x3E3F7E0D00000000000000000000000000000000000000000000000000000000 DUP2 MSTORE PUSH1 0x4 ADD PUSH1 0x40 MLOAD DUP1 SWAP2 SUB SWAP1 REVERT JUMPDEST PUSH1 0x2 DUP1 DUP2 GT ISZERO PUSH2 0x18A8 JUMPI PUSH2 0x18A7 PUSH2 0x4282 JUMP JUMPDEST JUMPDEST DUP3 PUSH1 0x0 ADD PUSH1 0x0 SWAP1 SLOAD SWAP1 PUSH2 0x100 EXP SWAP1 DIV PUSH1 0xFF AND PUSH1 0x2 DUP2 GT ISZERO PUSH2 0x18CC JUMPI PUSH2 0x18CB PUSH2 0x4282 JUMP JUMPDEST JUMPDEST EQ DUP1 ISZERO PUSH2 0x18DD JUMPI POP PUSH1 0x0 DUP3 PUSH1 0x5 ADD SLOAD EQ JUMPDEST ISZERO DUP1 ISZERO PUSH2 0x1973 JUMPI POP DUP2 PUSH1 0x5 ADD SLOAD PUSH1 0x13 PUSH1 0x0 CALLER PUSH20 0xFFFFFFFFFFFFFFFFFFFFFFFFFFFFFFFFFFFFFFFF AND PUSH20 0xFFFFFFFFFFFFFFFFFFFFFFFFFFFFFFFFFFFFFFFF AND DUP2 MSTORE PUSH1 0x20 ADD SWAP1 DUP2 MSTORE PUSH1 0x20 ADD PUSH1 0x0 KECCAK256 PUSH1 0x0 DUP5 PUSH1 0x0 ADD PUSH1 0x0 SWAP1 SLOAD SWAP1 PUSH2 0x100 EXP SWAP1 DIV PUSH1 0xFF AND PUSH1 0x2 DUP2 GT ISZERO PUSH2 0x194F JUMPI PUSH2 0x194E PUSH2 0x4282 JUMP JUMPDEST JUMPDEST PUSH1 0x2 DUP2 GT ISZERO PUSH2 0x1961 JUMPI PUSH2 0x1960 PUSH2 0x4282 JUMP JUMPDEST JUMPDEST DUP2 MSTORE PUSH1 0x20 ADD SWAP1 DUP2 MSTORE PUSH1 0x20 ADD PUSH1 0x0 KECCAK256 SLOAD LT ISZERO JUMPDEST ISZERO PUSH2 0x19AA JUMPI PUSH1 0x40 MLOAD PUSH32 0x5107DBE700000000000000000000000000000000000000000000000000000000 DUP2 MSTORE PUSH1 0x4 ADD PUSH1 0x40 MLOAD DUP1 SWAP2 SUB SWAP1 REVERT JUMPDEST PUSH1 0x1 PUSH1 0x11 PUSH1 0x0 DUP12 DUP2 MSTORE PUSH1 0x20 ADD SWAP1 DUP2 MSTORE PUSH1 0x20 ADD PUSH1 0x0 KECCAK256 PUSH1 0x0 PUSH2 0x100 EXP DUP2 SLOAD DUP2 PUSH1 0xFF MUL NOT AND SWAP1 DUP4 ISZERO ISZERO MUL OR SWAP1 SSTORE POP PUSH2 0x19DF CALLVALUE PUSH2 0x2220 JUMP JUMPDEST PUSH2 0x19E9 DUP3 CALLER PUSH2 0x23FF JUMP JUMPDEST PUSH2 0x19F5 CALLER DUP14 DUP14 DUP14 PUSH2 0x24B8 JUMP JUMPDEST CALLER PUSH20 0xFFFFFFFFFFFFFFFFFFFFFFFFFFFFFFFFFFFFFFFF AND DUP13 PUSH32 0x99F38CF3FEAAD38E0A2E22EF51BDD4FABA32B432520A951248D77057596A425A DUP5 PUSH1 0x0 ADD PUSH1 0x0 SWAP1 SLOAD SWAP1 PUSH2 0x100 EXP SWAP1 DIV PUSH1 0xFF AND PUSH1 0x40 MLOAD PUSH2 0x1A4D SWAP2 SWAP1 PUSH2 0x5269 JUMP JUMPDEST PUSH1 0x40 MLOAD DUP1 SWAP2 SUB SWAP1 LOG3 POP POP POP POP POP POP POP POP POP POP POP POP JUMP JUMPDEST PUSH1 0x60 PUSH1 0x1 DUP1 SLOAD PUSH2 0x1A72 SWAP1 PUSH2 0x4D58 JUMP JUMPDEST DUP1 PUSH1 0x1F ADD PUSH1 0x20 DUP1 SWAP2 DIV MUL PUSH1 0x20 ADD PUSH1 0x40 MLOAD SWAP1 DUP2 ADD PUSH1 0x40 MSTORE DUP1 SWAP3 SWAP2 SWAP1 DUP2 DUP2 MSTORE PUSH1 0x20 ADD DUP3 DUP1 SLOAD PUSH2 0x1A9E SWAP1 PUSH2 0x4D58 JUMP JUMPDEST DUP1 ISZERO PUSH2 0x1AEB JUMPI DUP1 PUSH1 0x1F LT PUSH2 0x1AC0 JUMPI PUSH2 0x100 DUP1 DUP4 SLOAD DIV MUL DUP4 MSTORE SWAP2 PUSH1 0x20 ADD SWAP2 PUSH2 0x1AEB JUMP JUMPDEST DUP3 ADD SWAP2 SWAP1 PUSH1 0x0 MSTORE PUSH1 0x20 PUSH1 0x0 KECCAK256 SWAP1 JUMPDEST DUP2 SLOAD DUP2 MSTORE SWAP1 PUSH1 0x1 ADD SWAP1 PUSH1 0x20 ADD DUP1 DUP4 GT PUSH2 0x1ACE JUMPI DUP3 SWAP1 SUB PUSH1 0x1F AND DUP3 ADD SWAP2 JUMPDEST POP POP POP POP POP SWAP1 POP SWAP1 JUMP JUMPDEST PUSH2 0x1B07 PUSH2 0x1B00 PUSH2 0x1E7A JUMP JUMPDEST DUP4 DUP4 PUSH2 0x2523 JUMP JUMPDEST POP POP JUMP JUMPDEST PUSH2 0x1B16 DUP5 DUP5 DUP5 PUSH2 0xAC6 JUMP JUMPDEST PUSH2 0x1B2A PUSH2 0x1B21 PUSH2 0x1E7A JUMP JUMPDEST DUP6 DUP6 DUP6 DUP6 PUSH2 0x2692 JUMP JUMPDEST POP POP POP POP JUMP JUMPDEST PUSH1 0x60 PUSH2 0x1B3B DUP3 PUSH2 0x2843 JUMP JUMPDEST SWAP1 POP SWAP2 SWAP1 POP JUMP JUMPDEST PUSH1 0x15 PUSH1 0x0 SWAP1 SLOAD SWAP1 PUSH2 0x100 EXP SWAP1 DIV PUSH12 0xFFFFFFFFFFFFFFFFFFFFFFFF AND DUP2 JUMP JUMPDEST PUSH1 0x0 PUSH1 0x12 DUP1 SLOAD SWAP1 POP SWAP1 POP SWAP1 JUMP JUMPDEST PUSH1 0x0 PUSH1 0x5 PUSH1 0x0 DUP5 PUSH20 0xFFFFFFFFFFFFFFFFFFFFFFFFFFFFFFFFFFFFFFFF AND PUSH20 0xFFFFFFFFFFFFFFFFFFFFFFFFFFFFFFFFFFFFFFFF AND DUP2 MSTORE PUSH1 0x20 ADD SWAP1 DUP2 MSTORE PUSH1 0x20 ADD PUSH1 0x0 KECCAK256 PUSH1 0x0 DUP4 PUSH20 0xFFFFFFFFFFFFFFFFFFFFFFFFFFFFFFFFFFFFFFFF AND PUSH20 0xFFFFFFFFFFFFFFFFFFFFFFFFFFFFFFFFFFFFFFFF AND DUP2 MSTORE PUSH1 0x20 ADD SWAP1 DUP2 MSTORE PUSH1 0x20 ADD PUSH1 0x0 KECCAK256 PUSH1 0x0 SWAP1 SLOAD SWAP1 PUSH2 0x100 EXP SWAP1 DIV PUSH1 0xFF AND SWAP1 POP SWAP3 SWAP2 POP POP JUMP JUMPDEST PUSH1 0x15 PUSH1 0xC SWAP1 SLOAD SWAP1 PUSH2 0x100 EXP SWAP1 DIV PUSH20 0xFFFFFFFFFFFFFFFFFFFFFFFFFFFFFFFFFFFFFFFF AND DUP2 JUMP JUMPDEST PUSH1 0x0 PUSH2 0x1C31 PUSH2 0x2956 JUMP JUMPDEST SWAP1 POP SWAP1 JUMP JUMPDEST PUSH2 0x1C3E PUSH2 0x2000 JUMP JUMPDEST PUSH1 0x0 PUSH20 0xFFFFFFFFFFFFFFFFFFFFFFFFFFFFFFFFFFFFFFFF AND DUP2 PUSH20 0xFFFFFFFFFFFFFFFFFFFFFFFFFFFFFFFFFFFFFFFF AND SUB PUSH2 0x1CB0 JUMPI PUSH1 0x0 PUSH1 0x40 MLOAD PUSH32 0x1E4FBDF700000000000000000000000000000000000000000000000000000000 DUP2 MSTORE PUSH1 0x4 ADD PUSH2 0x1CA7 SWAP2 SWAP1 PUSH2 0x41D1 JUMP JUMPDEST PUSH1 0x40 MLOAD DUP1 SWAP2 SUB SWAP1 REVERT JUMPDEST PUSH2 0x1CB9 DUP2 PUSH2 0x2087 JUMP JUMPDEST POP JUMP JUMPDEST PUSH1 0x0 PUSH1 0x13 PUSH1 0x0 DUP5 PUSH20 0xFFFFFFFFFFFFFFFFFFFFFFFFFFFFFFFFFFFFFFFF AND PUSH20 0xFFFFFFFFFFFFFFFFFFFFFFFFFFFFFFFFFFFFFFFF AND DUP2 MSTORE PUSH1 0x20 ADD SWAP1 DUP2 MSTORE PUSH1 0x20 ADD PUSH1 0x0 KECCAK256 PUSH1 0x0 DUP4 PUSH1 0x2 DUP2 GT ISZERO PUSH2 0x1D12 JUMPI PUSH2 0x1D11 PUSH2 0x4282 JUMP JUMPDEST JUMPDEST PUSH1 0x2 DUP2 GT ISZERO PUSH2 0x1D24 JUMPI PUSH2 0x1D23 PUSH2 0x4282 JUMP JUMPDEST JUMPDEST DUP2 MSTORE PUSH1 0x20 ADD SWAP1 DUP2 MSTORE PUSH1 0x20 ADD PUSH1 0x0 KECCAK256 SLOAD SWAP1 POP SWAP3 SWAP2 POP POP JUMP JUMPDEST PUSH1 0x0 PUSH32 0x2A55205A00000000000000000000000000000000000000000000000000000000 PUSH28 0xFFFFFFFFFFFFFFFFFFFFFFFFFFFFFFFFFFFFFFFFFFFFFFFFFFFFFFFF NOT AND DUP3 PUSH28 0xFFFFFFFFFFFFFFFFFFFFFFFFFFFFFFFFFFFFFFFFFFFFFFFFFFFFFFFF NOT AND EQ DUP1 PUSH2 0x1DAE JUMPI POP PUSH2 0x1DAD DUP3 PUSH2 0x2A0D JUMP JUMPDEST JUMPDEST SWAP1 POP SWAP2 SWAP1 POP JUMP JUMPDEST PUSH1 0x0 DUP1 PUSH2 0x1DC1 DUP4 PUSH2 0x2A6E JUMP JUMPDEST SWAP1 POP PUSH1 0x0 PUSH20 0xFFFFFFFFFFFFFFFFFFFFFFFFFFFFFFFFFFFFFFFF AND DUP2 PUSH20 0xFFFFFFFFFFFFFFFFFFFFFFFFFFFFFFFFFFFFFFFF AND SUB PUSH2 0x1E34 JUMPI DUP3 PUSH1 0x40 MLOAD PUSH32 0x7E27328900000000000000000000000000000000000000000000000000000000 DUP2 MSTORE PUSH1 0x4 ADD PUSH2 0x1E2B SWAP2 SWAP1 PUSH2 0x4267 JUMP JUMPDEST PUSH1 0x40 MLOAD DUP1 SWAP2 SUB SWAP1 REVERT JUMPDEST DUP1 SWAP2 POP POP SWAP2 SWAP1 POP JUMP JUMPDEST PUSH1 0x0 PUSH1 0x4 PUSH1 0x0 DUP4 DUP2 MSTORE PUSH1 0x20 ADD SWAP1 DUP2 MSTORE PUSH1 0x20 ADD PUSH1 0x0 KECCAK256 PUSH1 0x0 SWAP1 SLOAD SWAP1 PUSH2 0x100 EXP SWAP1 DIV PUSH20 0xFFFFFFFFFFFFFFFFFFFFFFFFFFFFFFFFFFFFFFFF AND SWAP1 POP SWAP2 SWAP1 POP JUMP JUMPDEST PUSH1 0x0 CALLER SWAP1 POP SWAP1 JUMP JUMPDEST PUSH2 0x1E8F DUP4 DUP4 DUP4 PUSH1 0x1 PUSH2 0x2AAB JUMP JUMPDEST POP POP POP JUMP JUMPDEST PUSH1 0x0 DUP1 PUSH1 0x0 TIMESTAMP SWAP1 POP PUSH1 0x0 JUMPDEST PUSH1 0x12 DUP1 SLOAD SWAP1 POP DUP2 LT ISZERO PUSH2 0x1FA9 JUMPI PUSH1 0x0 PUSH1 0x2 DUP2 GT ISZERO PUSH2 0x1EC0 JUMPI PUSH2 0x1EBF PUSH2 0x4282 JUMP JUMPDEST JUMPDEST PUSH1 0x12 DUP3 DUP2 SLOAD DUP2 LT PUSH2 0x1ED4 JUMPI PUSH2 0x1ED3 PUSH2 0x4D89 JUMP JUMPDEST JUMPDEST SWAP1 PUSH1 0x0 MSTORE PUSH1 0x20 PUSH1 0x0 KECCAK256 SWAP1 PUSH1 0x9 MUL ADD PUSH1 0x0 ADD PUSH1 0x0 SWAP1 SLOAD SWAP1 PUSH2 0x100 EXP SWAP1 DIV PUSH1 0xFF AND PUSH1 0x2 DUP2 GT ISZERO PUSH2 0x1F05 JUMPI PUSH2 0x1F04 PUSH2 0x4282 JUMP JUMPDEST JUMPDEST EQ ISZERO DUP1 ISZERO PUSH2 0x1F38 JUMPI POP PUSH1 0x12 DUP2 DUP2 SLOAD DUP2 LT PUSH2 0x1F22 JUMPI PUSH2 0x1F21 PUSH2 0x4D89 JUMP JUMPDEST JUMPDEST SWAP1 PUSH1 0x0 MSTORE PUSH1 0x20 PUSH1 0x0 KECCAK256 SWAP1 PUSH1 0x9 MUL ADD PUSH1 0x2 ADD SLOAD DUP3 LT ISZERO JUMPDEST DUP1 ISZERO PUSH2 0x1F69 JUMPI POP PUSH1 0x12 DUP2 DUP2 SLOAD DUP2 LT PUSH2 0x1F53 JUMPI PUSH2 0x1F52 PUSH2 0x4D89 JUMP JUMPDEST JUMPDEST SWAP1 PUSH1 0x0 MSTORE PUSH1 0x20 PUSH1 0x0 KECCAK256 SWAP1 PUSH1 0x9 MUL ADD PUSH1 0x3 ADD SLOAD DUP3 GT ISZERO JUMPDEST ISZERO PUSH2 0x1F9C JUMPI DUP1 PUSH1 0x12 DUP3 DUP2 SLOAD DUP2 LT PUSH2 0x1F83 JUMPI PUSH2 0x1F82 PUSH2 0x4D89 JUMP JUMPDEST JUMPDEST SWAP1 PUSH1 0x0 MSTORE PUSH1 0x20 PUSH1 0x0 KECCAK256 SWAP1 PUSH1 0x9 MUL ADD SWAP4 POP SWAP4 POP POP POP PUSH2 0x1FDC JUMP JUMPDEST DUP1 DUP1 PUSH1 0x1 ADD SWAP2 POP POP PUSH2 0x1E9F JUMP JUMPDEST POP PUSH1 0x40 MLOAD PUSH32 0xA9477E0900000000000000000000000000000000000000000000000000000000 DUP2 MSTORE PUSH1 0x4 ADD PUSH1 0x40 MLOAD DUP1 SWAP2 SUB SWAP1 REVERT JUMPDEST SWAP1 SWAP2 JUMP JUMPDEST PUSH1 0x0 PUSH2 0x1FED DUP5 DUP5 DUP5 PUSH2 0x2C70 JUMP JUMPDEST SWAP1 POP SWAP4 SWAP3 POP POP POP JUMP JUMPDEST PUSH1 0x0 PUSH2 0x2710 SWAP1 POP SWAP1 JUMP JUMPDEST PUSH2 0x2008 PUSH2 0x1E7A JUMP JUMPDEST PUSH20 0xFFFFFFFFFFFFFFFFFFFFFFFFFFFFFFFFFFFFFFFF AND PUSH2 0x2026 PUSH2 0x14E1 JUMP JUMPDEST PUSH20 0xFFFFFFFFFFFFFFFFFFFFFFFFFFFFFFFFFFFFFFFF AND EQ PUSH2 0x2085 JUMPI PUSH2 0x2049 PUSH2 0x1E7A JUMP JUMPDEST PUSH1 0x40 MLOAD PUSH32 0x118CDAA700000000000000000000000000000000000000000000000000000000 DUP2 MSTORE PUSH1 0x4 ADD PUSH2 0x207C SWAP2 SWAP1 PUSH2 0x41D1 JUMP JUMPDEST PUSH1 0x40 MLOAD DUP1 SWAP2 SUB SWAP1 REVERT JUMPDEST JUMP JUMPDEST PUSH1 0x0 PUSH1 0xD PUSH1 0x0 SWAP1 SLOAD SWAP1 PUSH2 0x100 EXP SWAP1 DIV PUSH20 0xFFFFFFFFFFFFFFFFFFFFFFFFFFFFFFFFFFFFFFFF AND SWAP1 POP DUP2 PUSH1 0xD PUSH1 0x0 PUSH2 0x100 EXP DUP2 SLOAD DUP2 PUSH20 0xFFFFFFFFFFFFFFFFFFFFFFFFFFFFFFFFFFFFFFFF MUL NOT AND SWAP1 DUP4 PUSH20 0xFFFFFFFFFFFFFFFFFFFFFFFFFFFFFFFFFFFFFFFF AND MUL OR SWAP1 SSTORE POP DUP2 PUSH20 0xFFFFFFFFFFFFFFFFFFFFFFFFFFFFFFFFFFFFFFFF AND DUP2 PUSH20 0xFFFFFFFFFFFFFFFFFFFFFFFFFFFFFFFFFFFFFFFF AND PUSH32 0x8BE0079C531659141344CD1FD0A4F28419497F9722A3DAAFE3B4186F6B6457E0 PUSH1 0x40 MLOAD PUSH1 0x40 MLOAD DUP1 SWAP2 SUB SWAP1 LOG3 POP POP JUMP JUMPDEST PUSH1 0x60 PUSH2 0x2183 PUSH1 0xE PUSH32 0x0 PUSH2 0x2D8D SWAP1 SWAP2 SWAP1 PUSH4 0xFFFFFFFF AND JUMP JUMPDEST SWAP1 POP SWAP1 JUMP JUMPDEST PUSH1 0x60 PUSH2 0x21BE PUSH1 0xF PUSH32 0x0 PUSH2 0x2D8D SWAP1 SWAP2 SWAP1 PUSH4 0xFFFFFFFF AND JUMP JUMPDEST SWAP1 POP SWAP1 JUMP JUMPDEST PUSH1 0x0 DUP3 PUSH2 0x21D0 DUP6 DUP5 PUSH2 0x2E3D JUMP JUMPDEST EQ SWAP1 POP SWAP4 SWAP3 POP POP POP JUMP JUMPDEST PUSH1 0x0 PUSH2 0x21ED PUSH2 0x21E7 PUSH2 0x2956 JUMP JUMPDEST DUP4 PUSH2 0x2E8D JUMP JUMPDEST SWAP1 POP SWAP2 SWAP1 POP JUMP JUMPDEST PUSH1 0x0 DUP1 PUSH1 0x0 DUP1 PUSH2 0x2204 DUP7 DUP7 PUSH2 0x2ECE JUMP JUMPDEST SWAP3 POP SWAP3 POP SWAP3 POP PUSH2 0x2214 DUP3 DUP3 PUSH2 0x2F2A JUMP JUMPDEST DUP3 SWAP4 POP POP POP POP SWAP3 SWAP2 POP POP JUMP JUMPDEST PUSH1 0x0 PUSH2 0x2710 PUSH1 0x15 PUSH1 0x0 SWAP1 SLOAD SWAP1 PUSH2 0x100 EXP SWAP1 DIV PUSH12 0xFFFFFFFFFFFFFFFFFFFFFFFF AND PUSH12 0xFFFFFFFFFFFFFFFFFFFFFFFF AND DUP4 PUSH2 0x2259 SWAP2 SWAP1 PUSH2 0x4E1E JUMP JUMPDEST PUSH2 0x2263 SWAP2 SWAP1 PUSH2 0x4E8F JUMP JUMPDEST SWAP1 POP PUSH1 0x0 DUP2 GT ISZERO PUSH2 0x2335 JUMPI PUSH1 0x0 PUSH1 0x15 PUSH1 0xC SWAP1 SLOAD SWAP1 PUSH2 0x100 EXP SWAP1 DIV PUSH20 0xFFFFFFFFFFFFFFFFFFFFFFFFFFFFFFFFFFFFFFFF AND PUSH20 0xFFFFFFFFFFFFFFFFFFFFFFFFFFFFFFFFFFFFFFFF AND DUP3 PUSH1 0x40 MLOAD PUSH2 0x22B6 SWAP1 PUSH2 0x52AA JUMP JUMPDEST PUSH1 0x0 PUSH1 0x40 MLOAD DUP1 DUP4 SUB DUP2 DUP6 DUP8 GAS CALL SWAP3 POP POP POP RETURNDATASIZE DUP1 PUSH1 0x0 DUP2 EQ PUSH2 0x22F3 JUMPI PUSH1 0x40 MLOAD SWAP2 POP PUSH1 0x1F NOT PUSH1 0x3F RETURNDATASIZE ADD AND DUP3 ADD PUSH1 0x40 MSTORE RETURNDATASIZE DUP3 MSTORE RETURNDATASIZE PUSH1 0x0 PUSH1 0x20 DUP5 ADD RETURNDATACOPY PUSH2 0x22F8 JUMP JUMPDEST PUSH1 0x60 SWAP2 POP JUMPDEST POP POP SWAP1 POP DUP1 PUSH2 0x2333 JUMPI PUSH1 0x40 MLOAD PUSH32 0x90B8EC1800000000000000000000000000000000000000000000000000000000 DUP2 MSTORE PUSH1 0x4 ADD PUSH1 0x40 MLOAD DUP1 SWAP2 SUB SWAP1 REVERT JUMPDEST POP JUMPDEST PUSH1 0x0 DUP2 DUP4 PUSH2 0x2343 SWAP2 SWAP1 PUSH2 0x52BF JUMP JUMPDEST SWAP1 POP PUSH1 0x0 DUP2 GT ISZERO PUSH2 0x23FA JUMPI PUSH1 0x0 PUSH2 0x2358 PUSH2 0x14E1 JUMP JUMPDEST PUSH20 0xFFFFFFFFFFFFFFFFFFFFFFFFFFFFFFFFFFFFFFFF AND DUP3 PUSH1 0x40 MLOAD PUSH2 0x237B SWAP1 PUSH2 0x52AA JUMP JUMPDEST PUSH1 0x0 PUSH1 0x40 MLOAD DUP1 DUP4 SUB DUP2 DUP6 DUP8 GAS CALL SWAP3 POP POP POP RETURNDATASIZE DUP1 PUSH1 0x0 DUP2 EQ PUSH2 0x23B8 JUMPI PUSH1 0x40 MLOAD SWAP2 POP PUSH1 0x1F NOT PUSH1 0x3F RETURNDATASIZE ADD AND DUP3 ADD PUSH1 0x40 MSTORE RETURNDATASIZE DUP3 MSTORE RETURNDATASIZE PUSH1 0x0 PUSH1 0x20 DUP5 ADD RETURNDATACOPY PUSH2 0x23BD JUMP JUMPDEST PUSH1 0x60 SWAP2 POP JUMPDEST POP POP SWAP1 POP DUP1 PUSH2 0x23F8 JUMPI PUSH1 0x40 MLOAD PUSH32 0x90B8EC1800000000000000000000000000000000000000000000000000000000 DUP2 MSTORE PUSH1 0x4 ADD PUSH1 0x40 MLOAD DUP1 SWAP2 SUB SWAP1 REVERT JUMPDEST POP JUMPDEST POP POP POP JUMP JUMPDEST DUP2 PUSH1 0x7 ADD PUSH1 0x0 DUP2 SLOAD DUP1 SWAP3 SWAP2 SWAP1 PUSH2 0x2414 SWAP1 PUSH2 0x52F3 JUMP JUMPDEST SWAP2 SWAP1 POP SSTORE POP PUSH1 0x13 PUSH1 0x0 DUP3 PUSH20 0xFFFFFFFFFFFFFFFFFFFFFFFFFFFFFFFFFFFFFFFF AND PUSH20 0xFFFFFFFFFFFFFFFFFFFFFFFFFFFFFFFFFFFFFFFF AND DUP2 MSTORE PUSH1 0x20 ADD SWAP1 DUP2 MSTORE PUSH1 0x20 ADD PUSH1 0x0 KECCAK256 PUSH1 0x0 DUP4 PUSH1 0x0 ADD PUSH1 0x0 SWAP1 SLOAD SWAP1 PUSH2 0x100 EXP SWAP1 DIV PUSH1 0xFF AND PUSH1 0x2 DUP2 GT ISZERO PUSH2 0x247E JUMPI PUSH2 0x247D PUSH2 0x4282 JUMP JUMPDEST JUMPDEST PUSH1 0x2 DUP2 GT ISZERO PUSH2 0x2490 JUMPI PUSH2 0x248F PUSH2 0x4282 JUMP JUMPDEST JUMPDEST DUP2 MSTORE PUSH1 0x20 ADD SWAP1 DUP2 MSTORE PUSH1 0x20 ADD PUSH1 0x0 KECCAK256 PUSH1 0x0 DUP2 SLOAD DUP1 SWAP3 SWAP2 SWAP1 PUSH2 0x24AF SWAP1 PUSH2 0x52F3 JUMP JUMPDEST SWAP2 SWAP1 POP SSTORE POP POP POP JUMP JUMPDEST PUSH2 0x24C2 DUP5 DUP5 PUSH2 0x308E JUMP JUMPDEST PUSH1 0x0 DUP3 DUP3 SWAP1 POP GT ISZERO PUSH2 0x251D JUMPI PUSH2 0x251C DUP4 DUP4 DUP4 DUP1 DUP1 PUSH1 0x1F ADD PUSH1 0x20 DUP1 SWAP2 DIV MUL PUSH1 0x20 ADD PUSH1 0x40 MLOAD SWAP1 DUP2 ADD PUSH1 0x40 MSTORE DUP1 SWAP4 SWAP3 SWAP2 SWAP1 DUP2 DUP2 MSTORE PUSH1 0x20 ADD DUP4 DUP4 DUP1 DUP3 DUP5 CALLDATACOPY PUSH1 0x0 DUP2 DUP5 ADD MSTORE PUSH1 0x1F NOT PUSH1 0x1F DUP3 ADD AND SWAP1 POP DUP1 DUP4 ADD SWAP3 POP POP POP POP POP POP POP PUSH2 0x30AC JUMP JUMPDEST JUMPDEST POP POP POP POP JUMP JUMPDEST PUSH1 0x0 PUSH20 0xFFFFFFFFFFFFFFFFFFFFFFFFFFFFFFFFFFFFFFFF AND DUP3 PUSH20 0xFFFFFFFFFFFFFFFFFFFFFFFFFFFFFFFFFFFFFFFF AND SUB PUSH2 0x2594 JUMPI DUP2 PUSH1 0x40 MLOAD PUSH32 0x5B08BA1800000000000000000000000000000000000000000000000000000000 DUP2 MSTORE PUSH1 0x4 ADD PUSH2 0x258B SWAP2 SWAP1 PUSH2 0x41D1 JUMP JUMPDEST PUSH1 0x40 MLOAD DUP1 SWAP2 SUB SWAP1 REVERT JUMPDEST DUP1 PUSH1 0x5 PUSH1 0x0 DUP6 PUSH20 0xFFFFFFFFFFFFFFFFFFFFFFFFFFFFFFFFFFFFFFFF AND PUSH20 0xFFFFFFFFFFFFFFFFFFFFFFFFFFFFFFFFFFFFFFFF AND DUP2 MSTORE PUSH1 0x20 ADD SWAP1 DUP2 MSTORE PUSH1 0x20 ADD PUSH1 0x0 KECCAK256 PUSH1 0x0 DUP5 PUSH20 0xFFFFFFFFFFFFFFFFFFFFFFFFFFFFFFFFFFFFFFFF AND PUSH20 0xFFFFFFFFFFFFFFFFFFFFFFFFFFFFFFFFFFFFFFFF AND DUP2 MSTORE PUSH1 0x20 ADD SWAP1 DUP2 MSTORE PUSH1 0x20 ADD PUSH1 0x0 KECCAK256 PUSH1 0x0 PUSH2 0x100 EXP DUP2 SLOAD DUP2 PUSH1 0xFF MUL NOT AND SWAP1 DUP4 ISZERO ISZERO MUL OR SWAP1 SSTORE POP DUP2 PUSH20 0xFFFFFFFFFFFFFFFFFFFFFFFFFFFFFFFFFFFFFFFF AND DUP4 PUSH20 0xFFFFFFFFFFFFFFFFFFFFFFFFFFFFFFFFFFFFFFFF AND PUSH32 0x17307EAB39AB6107E8899845AD3D59BD9653F200F220920489CA2B5937696C31 DUP4 PUSH1 0x40 MLOAD PUSH2 0x2685 SWAP2 SWAP1 PUSH2 0x4060 JUMP JUMPDEST PUSH1 0x40 MLOAD DUP1 SWAP2 SUB SWAP1 LOG3 POP POP POP JUMP JUMPDEST PUSH1 0x0 DUP4 PUSH20 0xFFFFFFFFFFFFFFFFFFFFFFFFFFFFFFFFFFFFFFFF AND EXTCODESIZE GT ISZERO PUSH2 0x283C JUMPI DUP3 PUSH20 0xFFFFFFFFFFFFFFFFFFFFFFFFFFFFFFFFFFFFFFFF AND PUSH4 0x150B7A02 DUP7 DUP7 DUP6 DUP6 PUSH1 0x40 MLOAD DUP6 PUSH4 0xFFFFFFFF AND PUSH1 0xE0 SHL DUP2 MSTORE PUSH1 0x4 ADD PUSH2 0x26F1 SWAP5 SWAP4 SWAP3 SWAP2 SWAP1 PUSH2 0x5390 JUMP JUMPDEST PUSH1 0x20 PUSH1 0x40 MLOAD DUP1 DUP4 SUB DUP2 PUSH1 0x0 DUP8 GAS CALL SWAP3 POP POP POP DUP1 ISZERO PUSH2 0x272D JUMPI POP PUSH1 0x40 MLOAD RETURNDATASIZE PUSH1 0x1F NOT PUSH1 0x1F DUP3 ADD AND DUP3 ADD DUP1 PUSH1 0x40 MSTORE POP DUP2 ADD SWAP1 PUSH2 0x272A SWAP2 SWAP1 PUSH2 0x53F1 JUMP JUMPDEST PUSH1 0x1 JUMPDEST PUSH2 0x27B1 JUMPI RETURNDATASIZE DUP1 PUSH1 0x0 DUP2 EQ PUSH2 0x275D JUMPI PUSH1 0x40 MLOAD SWAP2 POP PUSH1 0x1F NOT PUSH1 0x3F RETURNDATASIZE ADD AND DUP3 ADD PUSH1 0x40 MSTORE RETURNDATASIZE DUP3 MSTORE RETURNDATASIZE PUSH1 0x0 PUSH1 0x20 DUP5 ADD RETURNDATACOPY PUSH2 0x2762 JUMP JUMPDEST PUSH1 0x60 SWAP2 POP JUMPDEST POP PUSH1 0x0 DUP2 MLOAD SUB PUSH2 0x27A9 JUMPI DUP4 PUSH1 0x40 MLOAD PUSH32 0x64A0AE9200000000000000000000000000000000000000000000000000000000 DUP2 MSTORE PUSH1 0x4 ADD PUSH2 0x27A0 SWAP2 SWAP1 PUSH2 0x41D1 JUMP JUMPDEST PUSH1 0x40 MLOAD DUP1 SWAP2 SUB SWAP1 REVERT JUMPDEST DUP1 MLOAD DUP2 PUSH1 0x20 ADD REVERT JUMPDEST PUSH4 0x150B7A02 PUSH1 0xE0 SHL PUSH28 0xFFFFFFFFFFFFFFFFFFFFFFFFFFFFFFFFFFFFFFFFFFFFFFFFFFFFFFFF NOT AND DUP2 PUSH28 0xFFFFFFFFFFFFFFFFFFFFFFFFFFFFFFFFFFFFFFFFFFFFFFFFFFFFFFFF NOT AND EQ PUSH2 0x283A JUMPI DUP4 PUSH1 0x40 MLOAD PUSH32 0x64A0AE9200000000000000000000000000000000000000000000000000000000 DUP2 MSTORE PUSH1 0x4 ADD PUSH2 0x2831 SWAP2 SWAP1 PUSH2 0x41D1 JUMP JUMPDEST PUSH1 0x40 MLOAD DUP1 SWAP2 SUB SWAP1 REVERT JUMPDEST POP JUMPDEST POP POP POP POP POP JUMP JUMPDEST PUSH1 0x60 PUSH2 0x284E DUP3 PUSH2 0x1DB5 JUMP JUMPDEST POP PUSH1 0x0 PUSH1 0xA PUSH1 0x0 DUP5 DUP2 MSTORE PUSH1 0x20 ADD SWAP1 DUP2 MSTORE PUSH1 0x20 ADD PUSH1 0x0 KECCAK256 DUP1 SLOAD PUSH2 0x286F SWAP1 PUSH2 0x4D58 JUMP JUMPDEST DUP1 PUSH1 0x1F ADD PUSH1 0x20 DUP1 SWAP2 DIV MUL PUSH1 0x20 ADD PUSH1 0x40 MLOAD SWAP1 DUP2 ADD PUSH1 0x40 MSTORE DUP1 SWAP3 SWAP2 SWAP1 DUP2 DUP2 MSTORE PUSH1 0x20 ADD DUP3 DUP1 SLOAD PUSH2 0x289B SWAP1 PUSH2 0x4D58 JUMP JUMPDEST DUP1 ISZERO PUSH2 0x28E8 JUMPI DUP1 PUSH1 0x1F LT PUSH2 0x28BD JUMPI PUSH2 0x100 DUP1 DUP4 SLOAD DIV MUL DUP4 MSTORE SWAP2 PUSH1 0x20 ADD SWAP2 PUSH2 0x28E8 JUMP JUMPDEST DUP3 ADD SWAP2 SWAP1 PUSH1 0x0 MSTORE PUSH1 0x20 PUSH1 0x0 KECCAK256 SWAP1 JUMPDEST DUP2 SLOAD DUP2 MSTORE SWAP1 PUSH1 0x1 ADD SWAP1 PUSH1 0x20 ADD DUP1 DUP4 GT PUSH2 0x28CB JUMPI DUP3 SWAP1 SUB PUSH1 0x1F AND DUP3 ADD SWAP2 JUMPDEST POP POP POP POP POP SWAP1 POP PUSH1 0x0 PUSH2 0x28F9 PUSH2 0x3108 JUMP JUMPDEST SWAP1 POP PUSH1 0x0 DUP2 MLOAD SUB PUSH2 0x290E JUMPI DUP2 SWAP3 POP POP POP PUSH2 0x2951 JUMP JUMPDEST PUSH1 0x0 DUP3 MLOAD GT ISZERO PUSH2 0x2943 JUMPI DUP1 DUP3 PUSH1 0x40 MLOAD PUSH1 0x20 ADD PUSH2 0x292B SWAP3 SWAP2 SWAP1 PUSH2 0x545A JUMP JUMPDEST PUSH1 0x40 MLOAD PUSH1 0x20 DUP2 DUP4 SUB SUB DUP2 MSTORE SWAP1 PUSH1 0x40 MSTORE SWAP3 POP POP POP PUSH2 0x2951 JUMP JUMPDEST PUSH2 0x294C DUP5 PUSH2 0x311F JUMP JUMPDEST SWAP3 POP POP POP JUMPDEST SWAP2 SWAP1 POP JUMP JUMPDEST PUSH1 0x0 PUSH32 0x0 PUSH20 0xFFFFFFFFFFFFFFFFFFFFFFFFFFFFFFFFFFFFFFFF AND ADDRESS PUSH20 0xFFFFFFFFFFFFFFFFFFFFFFFFFFFFFFFFFFFFFFFF AND EQ DUP1 ISZERO PUSH2 0x29D2 JUMPI POP PUSH32 0x0 CHAINID EQ JUMPDEST ISZERO PUSH2 0x29FF JUMPI PUSH32 0x0 SWAP1 POP PUSH2 0x2A0A JUMP JUMPDEST PUSH2 0x2A07 PUSH2 0x3188 JUMP JUMPDEST SWAP1 POP JUMPDEST SWAP1 JUMP JUMPDEST PUSH1 0x0 PUSH4 0x49064906 PUSH1 0xE0 SHL PUSH28 0xFFFFFFFFFFFFFFFFFFFFFFFFFFFFFFFFFFFFFFFFFFFFFFFFFFFFFFFF NOT AND DUP3 PUSH28 0xFFFFFFFFFFFFFFFFFFFFFFFFFFFFFFFFFFFFFFFFFFFFFFFFFFFFFFFF NOT AND EQ DUP1 PUSH2 0x2A67 JUMPI POP PUSH2 0x2A66 DUP3 PUSH2 0x321E JUMP JUMPDEST JUMPDEST SWAP1 POP SWAP2 SWAP1 POP JUMP JUMPDEST PUSH1 0x0 PUSH1 0x2 PUSH1 0x0 DUP4 DUP2 MSTORE PUSH1 0x20 ADD SWAP1 DUP2 MSTORE PUSH1 0x20 ADD PUSH1 0x0 KECCAK256 PUSH1 0x0 SWAP1 SLOAD SWAP1 PUSH2 0x100 EXP SWAP1 DIV PUSH20 0xFFFFFFFFFFFFFFFFFFFFFFFFFFFFFFFFFFFFFFFF AND SWAP1 POP SWAP2 SWAP1 POP JUMP JUMPDEST DUP1 DUP1 PUSH2 0x2AE4 JUMPI POP PUSH1 0x0 PUSH20 0xFFFFFFFFFFFFFFFFFFFFFFFFFFFFFFFFFFFFFFFF AND DUP3 PUSH20 0xFFFFFFFFFFFFFFFFFFFFFFFFFFFFFFFFFFFFFFFF AND EQ ISZERO JUMPDEST ISZERO PUSH2 0x2C18 JUMPI PUSH1 0x0 PUSH2 0x2AF4 DUP5 PUSH2 0x1DB5 JUMP JUMPDEST SWAP1 POP PUSH1 0x0 PUSH20 0xFFFFFFFFFFFFFFFFFFFFFFFFFFFFFFFFFFFFFFFF AND DUP4 PUSH20 0xFFFFFFFFFFFFFFFFFFFFFFFFFFFFFFFFFFFFFFFF AND EQ ISZERO DUP1 ISZERO PUSH2 0x2B5F JUMPI POP DUP3 PUSH20 0xFFFFFFFFFFFFFFFFFFFFFFFFFFFFFFFFFFFFFFFF AND DUP2 PUSH20 0xFFFFFFFFFFFFFFFFFFFFFFFFFFFFFFFFFFFFFFFF AND EQ ISZERO JUMPDEST DUP1 ISZERO PUSH2 0x2B72 JUMPI POP PUSH2 0x2B70 DUP2 DUP5 PUSH2 0x1B6D JUMP JUMPDEST ISZERO JUMPDEST ISZERO PUSH2 0x2BB4 JUMPI DUP3 PUSH1 0x40 MLOAD PUSH32 0xA9FBF51F00000000000000000000000000000000000000000000000000000000 DUP2 MSTORE PUSH1 0x4 ADD PUSH2 0x2BAB SWAP2 SWAP1 PUSH2 0x41D1 JUMP JUMPDEST PUSH1 0x40 MLOAD DUP1 SWAP2 SUB SWAP1 REVERT JUMPDEST DUP2 ISZERO PUSH2 0x2C16 JUMPI DUP4 DUP6 PUSH20 0xFFFFFFFFFFFFFFFFFFFFFFFFFFFFFFFFFFFFFFFF AND DUP3 PUSH20 0xFFFFFFFFFFFFFFFFFFFFFFFFFFFFFFFFFFFFFFFF AND PUSH32 0x8C5BE1E5EBEC7D5BD14F71427D1E84F3DD0314C0F7B2291E5B200AC8C7C3B925 PUSH1 0x40 MLOAD PUSH1 0x40 MLOAD DUP1 SWAP2 SUB SWAP1 LOG4 JUMPDEST POP JUMPDEST DUP4 PUSH1 0x4 PUSH1 0x0 DUP6 DUP2 MSTORE PUSH1 0x20 ADD SWAP1 DUP2 MSTORE PUSH1 0x20 ADD PUSH1 0x0 KECCAK256 PUSH1 0x0 PUSH2 0x100 EXP DUP2 SLOAD DUP2 PUSH20 0xFFFFFFFFFFFFFFFFFFFFFFFFFFFFFFFFFFFFFFFF MUL NOT AND SWAP1 DUP4 PUSH20 0xFFFFFFFFFFFFFFFFFFFFFFFFFFFFFFFFFFFFFFFF AND MUL OR SWAP1 SSTORE POP POP POP POP POP JUMP JUMPDEST PUSH1 0x0 DUP1 PUSH2 0x2C7E DUP6 DUP6 DUP6 PUSH2 0x3298 JUMP JUMPDEST SWAP1 POP PUSH1 0x0 PUSH20 0xFFFFFFFFFFFFFFFFFFFFFFFFFFFFFFFFFFFFFFFF AND DUP2 PUSH20 0xFFFFFFFFFFFFFFFFFFFFFFFFFFFFFFFFFFFFFFFF AND SUB PUSH2 0x2CC2 JUMPI PUSH2 0x2CBD DUP5 PUSH2 0x34B2 JUMP JUMPDEST PUSH2 0x2D01 JUMP JUMPDEST DUP5 PUSH20 0xFFFFFFFFFFFFFFFFFFFFFFFFFFFFFFFFFFFFFFFF AND DUP2 PUSH20 0xFFFFFFFFFFFFFFFFFFFFFFFFFFFFFFFFFFFFFFFF AND EQ PUSH2 0x2D00 JUMPI PUSH2 0x2CFF DUP2 DUP6 PUSH2 0x34FB JUMP JUMPDEST JUMPDEST JUMPDEST PUSH1 0x0 PUSH20 0xFFFFFFFFFFFFFFFFFFFFFFFFFFFFFFFFFFFFFFFF AND DUP6 PUSH20 0xFFFFFFFFFFFFFFFFFFFFFFFFFFFFFFFFFFFFFFFF AND SUB PUSH2 0x2D43 JUMPI PUSH2 0x2D3E DUP5 PUSH2 0x35E6 JUMP JUMPDEST PUSH2 0x2D82 JUMP JUMPDEST DUP5 PUSH20 0xFFFFFFFFFFFFFFFFFFFFFFFFFFFFFFFFFFFFFFFF AND DUP2 PUSH20 0xFFFFFFFFFFFFFFFFFFFFFFFFFFFFFFFFFFFFFFFF AND EQ PUSH2 0x2D81 JUMPI PUSH2 0x2D80 DUP6 DUP6 PUSH2 0x36B7 JUMP JUMPDEST JUMPDEST JUMPDEST DUP1 SWAP2 POP POP SWAP4 SWAP3 POP POP POP JUMP JUMPDEST PUSH1 0x60 PUSH1 0xFF PUSH1 0x0 SHL DUP4 EQ PUSH2 0x2DAA JUMPI PUSH2 0x2DA3 DUP4 PUSH2 0x3742 JUMP JUMPDEST SWAP1 POP PUSH2 0x2E37 JUMP JUMPDEST DUP2 DUP1 SLOAD PUSH2 0x2DB6 SWAP1 PUSH2 0x4D58 JUMP JUMPDEST DUP1 PUSH1 0x1F ADD PUSH1 0x20 DUP1 SWAP2 DIV MUL PUSH1 0x20 ADD PUSH1 0x40 MLOAD SWAP1 DUP2 ADD PUSH1 0x40 MSTORE DUP1 SWAP3 SWAP2 SWAP1 DUP2 DUP2 MSTORE PUSH1 0x20 ADD DUP3 DUP1 SLOAD PUSH2 0x2DE2 SWAP1 PUSH2 0x4D58 JUMP JUMPDEST DUP1 ISZERO PUSH2 0x2E2F JUMPI DUP1 PUSH1 0x1F LT PUSH2 0x2E04 JUMPI PUSH2 0x100 DUP1 DUP4 SLOAD DIV MUL DUP4 MSTORE SWAP2 PUSH1 0x20 ADD SWAP2 PUSH2 0x2E2F JUMP JUMPDEST DUP3 ADD SWAP2 SWAP1 PUSH1 0x0 MSTORE PUSH1 0x20 PUSH1 0x0 KECCAK256 SWAP1 JUMPDEST DUP2 SLOAD DUP2 MSTORE SWAP1 PUSH1 0x1 ADD SWAP1 PUSH1 0x20 ADD DUP1 DUP4 GT PUSH2 0x2E12 JUMPI DUP3 SWAP1 SUB PUSH1 0x1F AND DUP3 ADD SWAP2 JUMPDEST POP POP POP POP POP SWAP1 POP JUMPDEST SWAP3 SWAP2 POP POP JUMP JUMPDEST PUSH1 0x0 DUP1 DUP3 SWAP1 POP PUSH1 0x0 JUMPDEST DUP5 MLOAD DUP2 LT ISZERO PUSH2 0x2E82 JUMPI PUSH2 0x2E73 DUP3 DUP7 DUP4 DUP2 MLOAD DUP2 LT PUSH2 0x2E66 JUMPI PUSH2 0x2E65 PUSH2 0x4D89 JUMP JUMPDEST JUMPDEST PUSH1 0x20 MUL PUSH1 0x20 ADD ADD MLOAD PUSH2 0x37B6 JUMP JUMPDEST SWAP2 POP DUP1 DUP1 PUSH1 0x1 ADD SWAP2 POP POP PUSH2 0x2E46 JUMP JUMPDEST POP DUP1 SWAP2 POP POP SWAP3 SWAP2 POP POP JUMP JUMPDEST PUSH1 0x0 PUSH1 0x40 MLOAD PUSH32 0x1901000000000000000000000000000000000000000000000000000000000000 DUP2 MSTORE DUP4 PUSH1 0x2 DUP3 ADD MSTORE DUP3 PUSH1 0x22 DUP3 ADD MSTORE PUSH1 0x42 DUP2 KECCAK256 SWAP2 POP POP SWAP3 SWAP2 POP POP JUMP JUMPDEST PUSH1 0x0 DUP1 PUSH1 0x0 PUSH1 0x41 DUP5 MLOAD SUB PUSH2 0x2F13 JUMPI PUSH1 0x0 DUP1 PUSH1 0x0 PUSH1 0x20 DUP8 ADD MLOAD SWAP3 POP PUSH1 0x40 DUP8 ADD MLOAD SWAP2 POP PUSH1 0x60 DUP8 ADD MLOAD PUSH1 0x0 BYTE SWAP1 POP PUSH2 0x2F05 DUP9 DUP3 DUP6 DUP6 PUSH2 0x37E1 JUMP JUMPDEST SWAP6 POP SWAP6 POP SWAP6 POP POP POP POP PUSH2 0x2F23 JUMP JUMPDEST PUSH1 0x0 PUSH1 0x2 DUP6 MLOAD PUSH1 0x0 SHL SWAP3 POP SWAP3 POP SWAP3 POP JUMPDEST SWAP3 POP SWAP3 POP SWAP3 JUMP JUMPDEST PUSH1 0x0 PUSH1 0x3 DUP2 GT ISZERO PUSH2 0x2F3E JUMPI PUSH2 0x2F3D PUSH2 0x4282 JUMP JUMPDEST JUMPDEST DUP3 PUSH1 0x3 DUP2 GT ISZERO PUSH2 0x2F51 JUMPI PUSH2 0x2F50 PUSH2 0x4282 JUMP JUMPDEST JUMPDEST SUB ISZERO PUSH2 0x308A JUMPI PUSH1 0x1 PUSH1 0x3 DUP2 GT ISZERO PUSH2 0x2F6B JUMPI PUSH2 0x2F6A PUSH2 0x4282 JUMP JUMPDEST JUMPDEST DUP3 PUSH1 0x3 DUP2 GT ISZERO PUSH2 0x2F7E JUMPI PUSH2 0x2F7D PUSH2 0x4282 JUMP JUMPDEST JUMPDEST SUB PUSH2 0x2FB5 JUMPI PUSH1 0x40 MLOAD PUSH32 0xF645EEDF00000000000000000000000000000000000000000000000000000000 DUP2 MSTORE PUSH1 0x4 ADD PUSH1 0x40 MLOAD DUP1 SWAP2 SUB SWAP1 REVERT JUMPDEST PUSH1 0x2 PUSH1 0x3 DUP2 GT ISZERO PUSH2 0x2FC9 JUMPI PUSH2 0x2FC8 PUSH2 0x4282 JUMP JUMPDEST JUMPDEST DUP3 PUSH1 0x3 DUP2 GT ISZERO PUSH2 0x2FDC JUMPI PUSH2 0x2FDB PUSH2 0x4282 JUMP JUMPDEST JUMPDEST SUB PUSH2 0x3021 JUMPI DUP1 PUSH1 0x0 SHR PUSH1 0x40 MLOAD PUSH32 0xFCE698F700000000000000000000000000000000000000000000000000000000 DUP2 MSTORE PUSH1 0x4 ADD PUSH2 0x3018 SWAP2 SWAP1 PUSH2 0x4267 JUMP JUMPDEST PUSH1 0x40 MLOAD DUP1 SWAP2 SUB SWAP1 REVERT JUMPDEST PUSH1 0x3 DUP1 DUP2 GT ISZERO PUSH2 0x3034 JUMPI PUSH2 0x3033 PUSH2 0x4282 JUMP JUMPDEST JUMPDEST DUP3 PUSH1 0x3 DUP2 GT ISZERO PUSH2 0x3047 JUMPI PUSH2 0x3046 PUSH2 0x4282 JUMP JUMPDEST JUMPDEST SUB PUSH2 0x3089 JUMPI DUP1 PUSH1 0x40 MLOAD PUSH32 0xD78BCE0C00000000000000000000000000000000000000000000000000000000 DUP2 MSTORE PUSH1 0x4 ADD PUSH2 0x3080 SWAP2 SWAP1 PUSH2 0x4CCE JUMP JUMPDEST PUSH1 0x40 MLOAD DUP1 SWAP2 SUB SWAP1 REVERT JUMPDEST JUMPDEST POP POP JUMP JUMPDEST PUSH2 0x30A8 DUP3 DUP3 PUSH1 0x40 MLOAD DUP1 PUSH1 0x20 ADD PUSH1 0x40 MSTORE DUP1 PUSH1 0x0 DUP2 MSTORE POP PUSH2 0x38D5 JUMP JUMPDEST POP POP JUMP JUMPDEST DUP1 PUSH1 0xA PUSH1 0x0 DUP5 DUP2 MSTORE PUSH1 0x20 ADD SWAP1 DUP2 MSTORE PUSH1 0x20 ADD PUSH1 0x0 KECCAK256 SWAP1 DUP2 PUSH2 0x30CC SWAP2 SWAP1 PUSH2 0x562A JUMP JUMPDEST POP PUSH32 0xF8E1A15ABA9398E019F0B49DF1A4FDE98EE17AE345CB5F6B5E2C27F5033E8CE7 DUP3 PUSH1 0x40 MLOAD PUSH2 0x30FC SWAP2 SWAP1 PUSH2 0x4267 JUMP JUMPDEST PUSH1 0x40 MLOAD DUP1 SWAP2 SUB SWAP1 LOG1 POP POP JUMP JUMPDEST PUSH1 0x60 PUSH1 0x40 MLOAD DUP1 PUSH1 0x20 ADD PUSH1 0x40 MSTORE DUP1 PUSH1 0x0 DUP2 MSTORE POP SWAP1 POP SWAP1 JUMP JUMPDEST PUSH1 0x60 PUSH2 0x312A DUP3 PUSH2 0x1DB5 JUMP JUMPDEST POP PUSH1 0x0 PUSH2 0x3135 PUSH2 0x3108 JUMP JUMPDEST SWAP1 POP PUSH1 0x0 DUP2 MLOAD GT PUSH2 0x3155 JUMPI PUSH1 0x40 MLOAD DUP1 PUSH1 0x20 ADD PUSH1 0x40 MSTORE DUP1 PUSH1 0x0 DUP2 MSTORE POP PUSH2 0x3180 JUMP JUMPDEST DUP1 PUSH2 0x315F DUP5 PUSH2 0x38F9 JUMP JUMPDEST PUSH1 0x40 MLOAD PUSH1 0x20 ADD PUSH2 0x3170 SWAP3 SWAP2 SWAP1 PUSH2 0x545A JUMP JUMPDEST PUSH1 0x40 MLOAD PUSH1 0x20 DUP2 DUP4 SUB SUB DUP2 MSTORE SWAP1 PUSH1 0x40 MSTORE JUMPDEST SWAP2 POP POP SWAP2 SWAP1 POP JUMP JUMPDEST PUSH1 0x0 PUSH32 0x8B73C3C69BB8FE3D512ECC4CF759CC79239F7B179B0FFACAA9A75D522B39400F PUSH32 0x0 PUSH32 0x0 CHAINID ADDRESS PUSH1 0x40 MLOAD PUSH1 0x20 ADD PUSH2 0x3203 SWAP6 SWAP5 SWAP4 SWAP3 SWAP2 SWAP1 PUSH2 0x56FC JUMP JUMPDEST PUSH1 0x40 MLOAD PUSH1 0x20 DUP2 DUP4 SUB SUB DUP2 MSTORE SWAP1 PUSH1 0x40 MSTORE DUP1 MLOAD SWAP1 PUSH1 0x20 ADD KECCAK256 SWAP1 POP SWAP1 JUMP JUMPDEST PUSH1 0x0 PUSH32 0x780E9D6300000000000000000000000000000000000000000000000000000000 PUSH28 0xFFFFFFFFFFFFFFFFFFFFFFFFFFFFFFFFFFFFFFFFFFFFFFFFFFFFFFFF NOT AND DUP3 PUSH28 0xFFFFFFFFFFFFFFFFFFFFFFFFFFFFFFFFFFFFFFFFFFFFFFFFFFFFFFFF NOT AND EQ DUP1 PUSH2 0x3291 JUMPI POP PUSH2 0x3290 DUP3 PUSH2 0x39C7 JUMP JUMPDEST JUMPDEST SWAP1 POP SWAP2 SWAP1 POP JUMP JUMPDEST PUSH1 0x0 DUP1 PUSH2 0x32A4 DUP5 PUSH2 0x2A6E JUMP JUMPDEST SWAP1 POP PUSH1 0x0 PUSH20 0xFFFFFFFFFFFFFFFFFFFFFFFFFFFFFFFFFFFFFFFF AND DUP4 PUSH20 0xFFFFFFFFFFFFFFFFFFFFFFFFFFFFFFFFFFFFFFFF AND EQ PUSH2 0x32E6 JUMPI PUSH2 0x32E5 DUP2 DUP5 DUP7 PUSH2 0x3AA9 JUMP JUMPDEST JUMPDEST PUSH1 0x0 PUSH20 0xFFFFFFFFFFFFFFFFFFFFFFFFFFFFFFFFFFFFFFFF AND DUP2 PUSH20 0xFFFFFFFFFFFFFFFFFFFFFFFFFFFFFFFFFFFFFFFF AND EQ PUSH2 0x3377 JUMPI PUSH2 0x3328 PUSH1 0x0 DUP6 PUSH1 0x0 DUP1 PUSH2 0x2AAB JUMP JUMPDEST PUSH1 0x1 PUSH1 0x3 PUSH1 0x0 DUP4 PUSH20 0xFFFFFFFFFFFFFFFFFFFFFFFFFFFFFFFFFFFFFFFF AND PUSH20 0xFFFFFFFFFFFFFFFFFFFFFFFFFFFFFFFFFFFFFFFF AND DUP2 MSTORE PUSH1 0x20 ADD SWAP1 DUP2 MSTORE PUSH1 0x20 ADD PUSH1 0x0 KECCAK256 PUSH1 0x0 DUP3 DUP3 SLOAD SUB SWAP3 POP POP DUP2 SWAP1 SSTORE POP JUMPDEST PUSH1 0x0 PUSH20 0xFFFFFFFFFFFFFFFFFFFFFFFFFFFFFFFFFFFFFFFF AND DUP6 PUSH20 0xFFFFFFFFFFFFFFFFFFFFFFFFFFFFFFFFFFFFFFFF AND EQ PUSH2 0x33FA JUMPI PUSH1 0x1 PUSH1 0x3 PUSH1 0x0 DUP8 PUSH20 0xFFFFFFFFFFFFFFFFFFFFFFFFFFFFFFFFFFFFFFFF AND PUSH20 0xFFFFFFFFFFFFFFFFFFFFFFFFFFFFFFFFFFFFFFFF AND DUP2 MSTORE PUSH1 0x20 ADD SWAP1 DUP2 MSTORE PUSH1 0x20 ADD PUSH1 0x0 KECCAK256 PUSH1 0x0 DUP3 DUP3 SLOAD ADD SWAP3 POP POP DUP2 SWAP1 SSTORE POP JUMPDEST DUP5 PUSH1 0x2 PUSH1 0x0 DUP7 DUP2 MSTORE PUSH1 0x20 ADD SWAP1 DUP2 MSTORE PUSH1 0x20 ADD PUSH1 0x0 KECCAK256 PUSH1 0x0 PUSH2 0x100 EXP DUP2 SLOAD DUP2 PUSH20 0xFFFFFFFFFFFFFFFFFFFFFFFFFFFFFFFFFFFFFFFF MUL NOT AND SWAP1 DUP4 PUSH20 0xFFFFFFFFFFFFFFFFFFFFFFFFFFFFFFFFFFFFFFFF AND MUL OR SWAP1 SSTORE POP DUP4 DUP6 PUSH20 0xFFFFFFFFFFFFFFFFFFFFFFFFFFFFFFFFFFFFFFFF AND DUP3 PUSH20 0xFFFFFFFFFFFFFFFFFFFFFFFFFFFFFFFFFFFFFFFF AND PUSH32 0xDDF252AD1BE2C89B69C2B068FC378DAA952BA7F163C4A11628F55A4DF523B3EF PUSH1 0x40 MLOAD PUSH1 0x40 MLOAD DUP1 SWAP2 SUB SWAP1 LOG4 DUP1 SWAP2 POP POP SWAP4 SWAP3 POP POP POP JUMP JUMPDEST PUSH1 0x8 DUP1 SLOAD SWAP1 POP PUSH1 0x9 PUSH1 0x0 DUP4 DUP2 MSTORE PUSH1 0x20 ADD SWAP1 DUP2 MSTORE PUSH1 0x20 ADD PUSH1 0x0 KECCAK256 DUP2 SWAP1 SSTORE POP PUSH1 0x8 DUP2 SWAP1 DUP1 PUSH1 0x1 DUP2 SLOAD ADD DUP1 DUP3 SSTORE DUP1 SWAP2 POP POP PUSH1 0x1 SWAP1 SUB SWAP1 PUSH1 0x0 MSTORE PUSH1 0x20 PUSH1 0x0 KECCAK256 ADD PUSH1 0x0 SWAP1 SWAP2 SWAP1 SWAP2 SWAP1 SWAP2 POP SSTORE POP JUMP JUMPDEST PUSH1 0x0 PUSH2 0x3506 DUP4 PUSH2 0xED8 JUMP JUMPDEST SWAP1 POP PUSH1 0x0 PUSH1 0x7 PUSH1 0x0 DUP5 DUP2 MSTORE PUSH1 0x20 ADD SWAP1 DUP2 MSTORE PUSH1 0x20 ADD PUSH1 0x0 KECCAK256 SLOAD SWAP1 POP PUSH1 0x0 PUSH1 0x6 PUSH1 0x0 DUP7 PUSH20 0xFFFFFFFFFFFFFFFFFFFFFFFFFFFFFFFFFFFFFFFF AND PUSH20 0xFFFFFFFFFFFFFFFFFFFFFFFFFFFFFFFFFFFFFFFF AND DUP2 MSTORE PUSH1 0x20 ADD SWAP1 DUP2 MSTORE PUSH1 0x20 ADD PUSH1 0x0 KECCAK256 SWAP1 POP DUP3 DUP3 EQ PUSH2 0x35B2 JUMPI PUSH1 0x0 DUP2 PUSH1 0x0 DUP6 DUP2 MSTORE PUSH1 0x20 ADD SWAP1 DUP2 MSTORE PUSH1 0x20 ADD PUSH1 0x0 KECCAK256 SLOAD SWAP1 POP DUP1 DUP3 PUSH1 0x0 DUP6 DUP2 MSTORE PUSH1 0x20 ADD SWAP1 DUP2 MSTORE PUSH1 0x20 ADD PUSH1 0x0 KECCAK256 DUP2 SWAP1 SSTORE POP DUP3 PUSH1 0x7 PUSH1 0x0 DUP4 DUP2 MSTORE PUSH1 0x20 ADD SWAP1 DUP2 MSTORE PUSH1 0x20 ADD PUSH1 0x0 KECCAK256 DUP2 SWAP1 SSTORE POP POP JUMPDEST PUSH1 0x7 PUSH1 0x0 DUP6 DUP2 MSTORE PUSH1 0x20 ADD SWAP1 DUP2 MSTORE PUSH1 0x20 ADD PUSH1 0x0 KECCAK256 PUSH1 0x0 SWAP1 SSTORE DUP1 PUSH1 0x0 DUP5 DUP2 MSTORE PUSH1 0x20 ADD SWAP1 DUP2 MSTORE PUSH1 0x20 ADD PUSH1 0x0 KECCAK256 PUSH1 0x0 SWAP1 SSTORE POP POP POP POP POP JUMP JUMPDEST PUSH1 0x0 PUSH1 0x1 PUSH1 0x8 DUP1 SLOAD SWAP1 POP PUSH2 0x35FA SWAP2 SWAP1 PUSH2 0x52BF JUMP JUMPDEST SWAP1 POP PUSH1 0x0 PUSH1 0x9 PUSH1 0x0 DUP5 DUP2 MSTORE PUSH1 0x20 ADD SWAP1 DUP2 MSTORE PUSH1 0x20 ADD PUSH1 0x0 KECCAK256 SLOAD SWAP1 POP PUSH1 0x0 PUSH1 0x8 DUP4 DUP2 SLOAD DUP2 LT PUSH2 0x362A JUMPI PUSH2 0x3629 PUSH2 0x4D89 JUMP JUMPDEST JUMPDEST SWAP1 PUSH1 0x0 MSTORE PUSH1 0x20 PUSH1 0x0 KECCAK256 ADD SLOAD SWAP1 POP DUP1 PUSH1 0x8 DUP4 DUP2 SLOAD DUP2 LT PUSH2 0x364C JUMPI PUSH2 0x364B PUSH2 0x4D89 JUMP JUMPDEST JUMPDEST SWAP1 PUSH1 0x0 MSTORE PUSH1 0x20 PUSH1 0x0 KECCAK256 ADD DUP2 SWAP1 SSTORE POP DUP2 PUSH1 0x9 PUSH1 0x0 DUP4 DUP2 MSTORE PUSH1 0x20 ADD SWAP1 DUP2 MSTORE PUSH1 0x20 ADD PUSH1 0x0 KECCAK256 DUP2 SWAP1 SSTORE POP PUSH1 0x9 PUSH1 0x0 DUP6 DUP2 MSTORE PUSH1 0x20 ADD SWAP1 DUP2 MSTORE PUSH1 0x20 ADD PUSH1 0x0 KECCAK256 PUSH1 0x0 SWAP1 SSTORE PUSH1 0x8 DUP1 SLOAD DUP1 PUSH2 0x369B JUMPI PUSH2 0x369A PUSH2 0x574F JUMP JUMPDEST JUMPDEST PUSH1 0x1 SWAP1 SUB DUP2 DUP2 SWAP1 PUSH1 0x0 MSTORE PUSH1 0x20 PUSH1 0x0 KECCAK256 ADD PUSH1 0x0 SWAP1 SSTORE SWAP1 SSTORE POP POP POP POP JUMP JUMPDEST PUSH1 0x0 PUSH1 0x1 PUSH2 0x36C4 DUP5 PUSH2 0xED8 JUMP JUMPDEST PUSH2 0x36CE SWAP2 SWAP1 PUSH2 0x52BF JUMP JUMPDEST SWAP1 POP DUP2 PUSH1 0x6 PUSH1 0x0 DUP6 PUSH20 0xFFFFFFFFFFFFFFFFFFFFFFFFFFFFFFFFFFFFFFFF AND PUSH20 0xFFFFFFFFFFFFFFFFFFFFFFFFFFFFFFFFFFFFFFFF AND DUP2 MSTORE PUSH1 0x20 ADD SWAP1 DUP2 MSTORE PUSH1 0x20 ADD PUSH1 0x0 KECCAK256 PUSH1 0x0 DUP4 DUP2 MSTORE PUSH1 0x20 ADD SWAP1 DUP2 MSTORE PUSH1 0x20 ADD PUSH1 0x0 KECCAK256 DUP2 SWAP1 SSTORE POP DUP1 PUSH1 0x7 PUSH1 0x0 DUP5 DUP2 MSTORE PUSH1 0x20 ADD SWAP1 DUP2 MSTORE PUSH1 0x20 ADD PUSH1 0x0 KECCAK256 DUP2 SWAP1 SSTORE POP POP POP POP JUMP JUMPDEST PUSH1 0x60 PUSH1 0x0 PUSH2 0x374F DUP4 PUSH2 0x3B6D JUMP JUMPDEST SWAP1 POP PUSH1 0x0 PUSH1 0x20 PUSH8 0xFFFFFFFFFFFFFFFF DUP2 GT ISZERO PUSH2 0x376E JUMPI PUSH2 0x376D PUSH2 0x4A9E JUMP JUMPDEST JUMPDEST PUSH1 0x40 MLOAD SWAP1 DUP1 DUP3 MSTORE DUP1 PUSH1 0x1F ADD PUSH1 0x1F NOT AND PUSH1 0x20 ADD DUP3 ADD PUSH1 0x40 MSTORE DUP1 ISZERO PUSH2 0x37A0 JUMPI DUP2 PUSH1 0x20 ADD PUSH1 0x1 DUP3 MUL DUP1 CALLDATASIZE DUP4 CALLDATACOPY DUP1 DUP3 ADD SWAP2 POP POP SWAP1 POP JUMPDEST POP SWAP1 POP DUP2 DUP2 MSTORE DUP4 PUSH1 0x20 DUP3 ADD MSTORE DUP1 SWAP3 POP POP POP SWAP2 SWAP1 POP JUMP JUMPDEST PUSH1 0x0 DUP2 DUP4 LT PUSH2 0x37CE JUMPI PUSH2 0x37C9 DUP3 DUP5 PUSH2 0x3BBD JUMP JUMPDEST PUSH2 0x37D9 JUMP JUMPDEST PUSH2 0x37D8 DUP4 DUP4 PUSH2 0x3BBD JUMP JUMPDEST JUMPDEST SWAP1 POP SWAP3 SWAP2 POP POP JUMP JUMPDEST PUSH1 0x0 DUP1 PUSH1 0x0 PUSH32 0x7FFFFFFFFFFFFFFFFFFFFFFFFFFFFFFF5D576E7357A4501DDFE92F46681B20A0 DUP5 PUSH1 0x0 SHR GT ISZERO PUSH2 0x3821 JUMPI PUSH1 0x0 PUSH1 0x3 DUP6 SWAP3 POP SWAP3 POP SWAP3 POP PUSH2 0x38CB JUMP JUMPDEST PUSH1 0x0 PUSH1 0x1 DUP9 DUP9 DUP9 DUP9 PUSH1 0x40 MLOAD PUSH1 0x0 DUP2 MSTORE PUSH1 0x20 ADD PUSH1 0x40 MSTORE PUSH1 0x40 MLOAD PUSH2 0x3846 SWAP5 SWAP4 SWAP3 SWAP2 SWAP1 PUSH2 0x579A JUMP JUMPDEST PUSH1 0x20 PUSH1 0x40 MLOAD PUSH1 0x20 DUP2 SUB SWAP1 DUP1 DUP5 SUB SWAP1 DUP6 GAS STATICCALL ISZERO DUP1 ISZERO PUSH2 0x3868 JUMPI RETURNDATASIZE PUSH1 0x0 DUP1 RETURNDATACOPY RETURNDATASIZE PUSH1 0x0 REVERT JUMPDEST POP POP POP PUSH1 0x20 PUSH1 0x40 MLOAD SUB MLOAD SWAP1 POP PUSH1 0x0 PUSH20 0xFFFFFFFFFFFFFFFFFFFFFFFFFFFFFFFFFFFFFFFF AND DUP2 PUSH20 0xFFFFFFFFFFFFFFFFFFFFFFFFFFFFFFFFFFFFFFFF AND SUB PUSH2 0x38BC JUMPI PUSH1 0x0 PUSH1 0x1 PUSH1 0x0 DUP1 SHL SWAP4 POP SWAP4 POP SWAP4 POP POP PUSH2 0x38CB JUMP JUMPDEST DUP1 PUSH1 0x0 DUP1 PUSH1 0x0 SHL SWAP4 POP SWAP4 POP SWAP4 POP POP JUMPDEST SWAP5 POP SWAP5 POP SWAP5 SWAP2 POP POP JUMP JUMPDEST PUSH2 0x38DF DUP4 DUP4 PUSH2 0x3BD4 JUMP JUMPDEST PUSH2 0x38F4 PUSH2 0x38EA PUSH2 0x1E7A JUMP JUMPDEST PUSH1 0x0 DUP6 DUP6 DUP6 PUSH2 0x2692 JUMP JUMPDEST POP POP POP JUMP JUMPDEST PUSH1 0x60 PUSH1 0x0 PUSH1 0x1 PUSH2 0x3908 DUP5 PUSH2 0x3CCD JUMP JUMPDEST ADD SWAP1 POP PUSH1 0x0 DUP2 PUSH8 0xFFFFFFFFFFFFFFFF DUP2 GT ISZERO PUSH2 0x3927 JUMPI PUSH2 0x3926 PUSH2 0x4A9E JUMP JUMPDEST JUMPDEST PUSH1 0x40 MLOAD SWAP1 DUP1 DUP3 MSTORE DUP1 PUSH1 0x1F ADD PUSH1 0x1F NOT AND PUSH1 0x20 ADD DUP3 ADD PUSH1 0x40 MSTORE DUP1 ISZERO PUSH2 0x3959 JUMPI DUP2 PUSH1 0x20 ADD PUSH1 0x1 DUP3 MUL DUP1 CALLDATASIZE DUP4 CALLDATACOPY DUP1 DUP3 ADD SWAP2 POP POP SWAP1 POP JUMPDEST POP SWAP1 POP PUSH1 0x0 DUP3 PUSH1 0x20 ADD DUP3 ADD SWAP1 POP JUMPDEST PUSH1 0x1 ISZERO PUSH2 0x39BC JUMPI DUP1 DUP1 PUSH1 0x1 SWAP1 SUB SWAP2 POP POP PUSH32 0x3031323334353637383961626364656600000000000000000000000000000000 PUSH1 0xA DUP7 MOD BYTE DUP2 MSTORE8 PUSH1 0xA DUP6 DUP2 PUSH2 0x39B0 JUMPI PUSH2 0x39AF PUSH2 0x4E60 JUMP JUMPDEST JUMPDEST DIV SWAP5 POP PUSH1 0x0 DUP6 SUB PUSH2 0x3967 JUMPI JUMPDEST DUP2 SWAP4 POP POP POP POP SWAP2 SWAP1 POP JUMP JUMPDEST PUSH1 0x0 PUSH32 0x80AC58CD00000000000000000000000000000000000000000000000000000000 PUSH28 0xFFFFFFFFFFFFFFFFFFFFFFFFFFFFFFFFFFFFFFFFFFFFFFFFFFFFFFFF NOT AND DUP3 PUSH28 0xFFFFFFFFFFFFFFFFFFFFFFFFFFFFFFFFFFFFFFFFFFFFFFFFFFFFFFFF NOT AND EQ DUP1 PUSH2 0x3A92 JUMPI POP PUSH32 0x5B5E139F00000000000000000000000000000000000000000000000000000000 PUSH28 0xFFFFFFFFFFFFFFFFFFFFFFFFFFFFFFFFFFFFFFFFFFFFFFFFFFFFFFFF NOT AND DUP3 PUSH28 0xFFFFFFFFFFFFFFFFFFFFFFFFFFFFFFFFFFFFFFFFFFFFFFFFFFFFFFFF NOT AND EQ JUMPDEST DUP1 PUSH2 0x3AA2 JUMPI POP PUSH2 0x3AA1 DUP3 PUSH2 0x3E20 JUMP JUMPDEST JUMPDEST SWAP1 POP SWAP2 SWAP1 POP JUMP JUMPDEST PUSH2 0x3AB4 DUP4 DUP4 DUP4 PUSH2 0x3E8A JUMP JUMPDEST PUSH2 0x3B68 JUMPI PUSH1 0x0 PUSH20 0xFFFFFFFFFFFFFFFFFFFFFFFFFFFFFFFFFFFFFFFF AND DUP4 PUSH20 0xFFFFFFFFFFFFFFFFFFFFFFFFFFFFFFFFFFFFFFFF AND SUB PUSH2 0x3B29 JUMPI DUP1 PUSH1 0x40 MLOAD PUSH32 0x7E27328900000000000000000000000000000000000000000000000000000000 DUP2 MSTORE PUSH1 0x4 ADD PUSH2 0x3B20 SWAP2 SWAP1 PUSH2 0x4267 JUMP JUMPDEST PUSH1 0x40 MLOAD DUP1 SWAP2 SUB SWAP1 REVERT JUMPDEST DUP2 DUP2 PUSH1 0x40 MLOAD PUSH32 0x177E802F00000000000000000000000000000000000000000000000000000000 DUP2 MSTORE PUSH1 0x4 ADD PUSH2 0x3B5F SWAP3 SWAP2 SWAP1 PUSH2 0x4495 JUMP JUMPDEST PUSH1 0x40 MLOAD DUP1 SWAP2 SUB SWAP1 REVERT JUMPDEST POP POP POP JUMP JUMPDEST PUSH1 0x0 DUP1 PUSH1 0xFF DUP4 PUSH1 0x0 SHR AND SWAP1 POP PUSH1 0x1F DUP2 GT ISZERO PUSH2 0x3BB4 JUMPI PUSH1 0x40 MLOAD PUSH32 0xB3512B0C00000000000000000000000000000000000000000000000000000000 DUP2 MSTORE PUSH1 0x4 ADD PUSH1 0x40 MLOAD DUP1 SWAP2 SUB SWAP1 REVERT JUMPDEST DUP1 SWAP2 POP POP SWAP2 SWAP1 POP JUMP JUMPDEST PUSH1 0x0 DUP3 PUSH1 0x0 MSTORE DUP2 PUSH1 0x20 MSTORE PUSH1 0x40 PUSH1 0x0 KECCAK256 SWAP1 POP SWAP3 SWAP2 POP POP JUMP JUMPDEST PUSH1 0x0 PUSH20 0xFFFFFFFFFFFFFFFFFFFFFFFFFFFFFFFFFFFFFFFF AND DUP3 PUSH20 0xFFFFFFFFFFFFFFFFFFFFFFFFFFFFFFFFFFFFFFFF AND SUB PUSH2 0x3C46 JUMPI PUSH1 0x0 PUSH1 0x40 MLOAD PUSH32 0x64A0AE9200000000000000000000000000000000000000000000000000000000 DUP2 MSTORE PUSH1 0x4 ADD PUSH2 0x3C3D SWAP2 SWAP1 PUSH2 0x41D1 JUMP JUMPDEST PUSH1 0x40 MLOAD DUP1 SWAP2 SUB SWAP1 REVERT JUMPDEST PUSH1 0x0 PUSH2 0x3C54 DUP4 DUP4 PUSH1 0x0 PUSH2 0x1FE0 JUMP JUMPDEST SWAP1 POP PUSH1 0x0 PUSH20 0xFFFFFFFFFFFFFFFFFFFFFFFFFFFFFFFFFFFFFFFF AND DUP2 PUSH20 0xFFFFFFFFFFFFFFFFFFFFFFFFFFFFFFFFFFFFFFFF AND EQ PUSH2 0x3CC8 JUMPI PUSH1 0x0 PUSH1 0x40 MLOAD PUSH32 0x73C6AC6E00000000000000000000000000000000000000000000000000000000 DUP2 MSTORE PUSH1 0x4 ADD PUSH2 0x3CBF SWAP2 SWAP1 PUSH2 0x41D1 JUMP JUMPDEST PUSH1 0x40 MLOAD DUP1 SWAP2 SUB SWAP1 REVERT JUMPDEST POP POP POP JUMP JUMPDEST PUSH1 0x0 DUP1 PUSH1 0x0 SWAP1 POP PUSH27 0x184F03E93FF9F4DAA797ED6E38ED64BF6A1F010000000000000000 DUP4 LT PUSH2 0x3D2B JUMPI PUSH27 0x184F03E93FF9F4DAA797ED6E38ED64BF6A1F010000000000000000 DUP4 DUP2 PUSH2 0x3D21 JUMPI PUSH2 0x3D20 PUSH2 0x4E60 JUMP JUMPDEST JUMPDEST DIV SWAP3 POP PUSH1 0x40 DUP2 ADD SWAP1 POP JUMPDEST PUSH14 0x4EE2D6D415B85ACEF8100000000 DUP4 LT PUSH2 0x3D68 JUMPI PUSH14 0x4EE2D6D415B85ACEF8100000000 DUP4 DUP2 PUSH2 0x3D5E JUMPI PUSH2 0x3D5D PUSH2 0x4E60 JUMP JUMPDEST JUMPDEST DIV SWAP3 POP PUSH1 0x20 DUP2 ADD SWAP1 POP JUMPDEST PUSH7 0x2386F26FC10000 DUP4 LT PUSH2 0x3D97 JUMPI PUSH7 0x2386F26FC10000 DUP4 DUP2 PUSH2 0x3D8D JUMPI PUSH2 0x3D8C PUSH2 0x4E60 JUMP JUMPDEST JUMPDEST DIV SWAP3 POP PUSH1 0x10 DUP2 ADD SWAP1 POP JUMPDEST PUSH4 0x5F5E100 DUP4 LT PUSH2 0x3DC0 JUMPI PUSH4 0x5F5E100 DUP4 DUP2 PUSH2 0x3DB6 JUMPI PUSH2 0x3DB5 PUSH2 0x4E60 JUMP JUMPDEST JUMPDEST DIV SWAP3 POP PUSH1 0x8 DUP2 ADD SWAP1 POP JUMPDEST PUSH2 0x2710 DUP4 LT PUSH2 0x3DE5 JUMPI PUSH2 0x2710 DUP4 DUP2 PUSH2 0x3DDB JUMPI PUSH2 0x3DDA PUSH2 0x4E60 JUMP JUMPDEST JUMPDEST DIV SWAP3 POP PUSH1 0x4 DUP2 ADD SWAP1 POP JUMPDEST PUSH1 0x64 DUP4 LT PUSH2 0x3E08 JUMPI PUSH1 0x64 DUP4 DUP2 PUSH2 0x3DFE JUMPI PUSH2 0x3DFD PUSH2 0x4E60 JUMP JUMPDEST JUMPDEST DIV SWAP3 POP PUSH1 0x2 DUP2 ADD SWAP1 POP JUMPDEST PUSH1 0xA DUP4 LT PUSH2 0x3E17 JUMPI PUSH1 0x1 DUP2 ADD SWAP1 POP JUMPDEST DUP1 SWAP2 POP POP SWAP2 SWAP1 POP JUMP JUMPDEST PUSH1 0x0 PUSH32 0x1FFC9A700000000000000000000000000000000000000000000000000000000 PUSH28 0xFFFFFFFFFFFFFFFFFFFFFFFFFFFFFFFFFFFFFFFFFFFFFFFFFFFFFFFF NOT AND DUP3 PUSH28 0xFFFFFFFFFFFFFFFFFFFFFFFFFFFFFFFFFFFFFFFFFFFFFFFFFFFFFFFF NOT AND EQ SWAP1 POP SWAP2 SWAP1 POP JUMP JUMPDEST PUSH1 0x0 DUP1 PUSH20 0xFFFFFFFFFFFFFFFFFFFFFFFFFFFFFFFFFFFFFFFF AND DUP4 PUSH20 0xFFFFFFFFFFFFFFFFFFFFFFFFFFFFFFFFFFFFFFFF AND EQ ISZERO DUP1 ISZERO PUSH2 0x3F42 JUMPI POP DUP3 PUSH20 0xFFFFFFFFFFFFFFFFFFFFFFFFFFFFFFFFFFFFFFFF AND DUP5 PUSH20 0xFFFFFFFFFFFFFFFFFFFFFFFFFFFFFFFFFFFFFFFF AND EQ DUP1 PUSH2 0x3F03 JUMPI POP PUSH2 0x3F02 DUP5 DUP5 PUSH2 0x1B6D JUMP JUMPDEST JUMPDEST DUP1 PUSH2 0x3F41 JUMPI POP DUP3 PUSH20 0xFFFFFFFFFFFFFFFFFFFFFFFFFFFFFFFFFFFFFFFF AND PUSH2 0x3F29 DUP4 PUSH2 0x1E3D JUMP JUMPDEST PUSH20 0xFFFFFFFFFFFFFFFFFFFFFFFFFFFFFFFFFFFFFFFF AND EQ JUMPDEST JUMPDEST SWAP1 POP SWAP4 SWAP3 POP POP POP JUMP JUMPDEST PUSH1 0x40 MLOAD DUP1 PUSH2 0x120 ADD PUSH1 0x40 MSTORE DUP1 PUSH1 0x0 PUSH1 0x2 DUP2 GT ISZERO PUSH2 0x3F6B JUMPI PUSH2 0x3F6A PUSH2 0x4282 JUMP JUMPDEST JUMPDEST DUP2 MSTORE PUSH1 0x20 ADD PUSH1 0x0 DUP2 MSTORE PUSH1 0x20 ADD PUSH1 0x0 DUP2 MSTORE PUSH1 0x20 ADD PUSH1 0x0 DUP2 MSTORE PUSH1 0x20 ADD PUSH1 0x0 DUP2 MSTORE PUSH1 0x20 ADD PUSH1 0x0 DUP2 MSTORE PUSH1 0x20 ADD PUSH1 0x0 DUP2 MSTORE PUSH1 0x20 ADD PUSH1 0x0 DUP2 MSTORE PUSH1 0x20 ADD PUSH1 0x0 DUP1 NOT AND DUP2 MSTORE POP SWAP1 JUMP JUMPDEST PUSH1 0x0 PUSH1 0x40 MLOAD SWAP1 POP SWAP1 JUMP JUMPDEST PUSH1 0x0 DUP1 REVERT JUMPDEST PUSH1 0x0 DUP1 REVERT JUMPDEST PUSH1 0x0 PUSH32 0xFFFFFFFF00000000000000000000000000000000000000000000000000000000 DUP3 AND SWAP1 POP SWAP2 SWAP1 POP JUMP JUMPDEST PUSH2 0x3FF5 DUP2 PUSH2 0x3FC0 JUMP JUMPDEST DUP2 EQ PUSH2 0x4000 JUMPI PUSH1 0x0 DUP1 REVERT JUMPDEST POP JUMP JUMPDEST PUSH1 0x0 DUP2 CALLDATALOAD SWAP1 POP PUSH2 0x4012 DUP2 PUSH2 0x3FEC JUMP JUMPDEST SWAP3 SWAP2 POP POP JUMP JUMPDEST PUSH1 0x0 PUSH1 0x20 DUP3 DUP5 SUB SLT ISZERO PUSH2 0x402E JUMPI PUSH2 0x402D PUSH2 0x3FB6 JUMP JUMPDEST JUMPDEST PUSH1 0x0 PUSH2 0x403C DUP5 DUP3 DUP6 ADD PUSH2 0x4003 JUMP JUMPDEST SWAP2 POP POP SWAP3 SWAP2 POP POP JUMP JUMPDEST PUSH1 0x0 DUP2 ISZERO ISZERO SWAP1 POP SWAP2 SWAP1 POP JUMP JUMPDEST PUSH2 0x405A DUP2 PUSH2 0x4045 JUMP JUMPDEST DUP3 MSTORE POP POP JUMP JUMPDEST PUSH1 0x0 PUSH1 0x20 DUP3 ADD SWAP1 POP PUSH2 0x4075 PUSH1 0x0 DUP4 ADD DUP5 PUSH2 0x4051 JUMP JUMPDEST SWAP3 SWAP2 POP POP JUMP JUMPDEST PUSH1 0x0 DUP2 MLOAD SWAP1 POP SWAP2 SWAP1 POP JUMP JUMPDEST PUSH1 0x0 DUP3 DUP3 MSTORE PUSH1 0x20 DUP3 ADD SWAP1 POP SWAP3 SWAP2 POP POP JUMP JUMPDEST PUSH1 0x0 JUMPDEST DUP4 DUP2 LT ISZERO PUSH2 0x40B5 JUMPI DUP1 DUP3 ADD MLOAD DUP2 DUP5 ADD MSTORE PUSH1 0x20 DUP2 ADD SWAP1 POP PUSH2 0x409A JUMP JUMPDEST PUSH1 0x0 DUP5 DUP5 ADD MSTORE POP POP POP POP JUMP JUMPDEST PUSH1 0x0 PUSH1 0x1F NOT PUSH1 0x1F DUP4 ADD AND SWAP1 POP SWAP2 SWAP1 POP JUMP JUMPDEST PUSH1 0x0 PUSH2 0x40DD DUP3 PUSH2 0x407B JUMP JUMPDEST PUSH2 0x40E7 DUP2 DUP6 PUSH2 0x4086 JUMP JUMPDEST SWAP4 POP PUSH2 0x40F7 DUP2 DUP6 PUSH1 0x20 DUP7 ADD PUSH2 0x4097 JUMP JUMPDEST PUSH2 0x4100 DUP2 PUSH2 0x40C1 JUMP JUMPDEST DUP5 ADD SWAP2 POP POP SWAP3 SWAP2 POP POP JUMP JUMPDEST PUSH1 0x0 PUSH1 0x20 DUP3 ADD SWAP1 POP DUP2 DUP2 SUB PUSH1 0x0 DUP4 ADD MSTORE PUSH2 0x4125 DUP2 DUP5 PUSH2 0x40D2 JUMP JUMPDEST SWAP1 POP SWAP3 SWAP2 POP POP JUMP JUMPDEST PUSH1 0x0 DUP2 SWAP1 POP SWAP2 SWAP1 POP JUMP JUMPDEST PUSH2 0x4140 DUP2 PUSH2 0x412D JUMP JUMPDEST DUP2 EQ PUSH2 0x414B JUMPI PUSH1 0x0 DUP1 REVERT JUMPDEST POP JUMP JUMPDEST PUSH1 0x0 DUP2 CALLDATALOAD SWAP1 POP PUSH2 0x415D DUP2 PUSH2 0x4137 JUMP JUMPDEST SWAP3 SWAP2 POP POP JUMP JUMPDEST PUSH1 0x0 PUSH1 0x20 DUP3 DUP5 SUB SLT ISZERO PUSH2 0x4179 JUMPI PUSH2 0x4178 PUSH2 0x3FB6 JUMP JUMPDEST JUMPDEST PUSH1 0x0 PUSH2 0x4187 DUP5 DUP3 DUP6 ADD PUSH2 0x414E JUMP JUMPDEST SWAP2 POP POP SWAP3 SWAP2 POP POP JUMP JUMPDEST PUSH1 0x0 PUSH20 0xFFFFFFFFFFFFFFFFFFFFFFFFFFFFFFFFFFFFFFFF DUP3 AND SWAP1 POP SWAP2 SWAP1 POP JUMP JUMPDEST PUSH1 0x0 PUSH2 0x41BB DUP3 PUSH2 0x4190 JUMP JUMPDEST SWAP1 POP SWAP2 SWAP1 POP JUMP JUMPDEST PUSH2 0x41CB DUP2 PUSH2 0x41B0 JUMP JUMPDEST DUP3 MSTORE POP POP JUMP JUMPDEST PUSH1 0x0 PUSH1 0x20 DUP3 ADD SWAP1 POP PUSH2 0x41E6 PUSH1 0x0 DUP4 ADD DUP5 PUSH2 0x41C2 JUMP JUMPDEST SWAP3 SWAP2 POP POP JUMP JUMPDEST PUSH2 0x41F5 DUP2 PUSH2 0x41B0 JUMP JUMPDEST DUP2 EQ PUSH2 0x4200 JUMPI PUSH1 0x0 DUP1 REVERT JUMPDEST POP JUMP JUMPDEST PUSH1 0x0 DUP2 CALLDATALOAD SWAP1 POP PUSH2 0x4212 DUP2 PUSH2 0x41EC JUMP JUMPDEST SWAP3 SWAP2 POP POP JUMP JUMPDEST PUSH1 0x0 DUP1 PUSH1 0x40 DUP4 DUP6 SUB SLT ISZERO PUSH2 0x422F JUMPI PUSH2 0x422E PUSH2 0x3FB6 JUMP JUMPDEST JUMPDEST PUSH1 0x0 PUSH2 0x423D DUP6 DUP3 DUP7 ADD PUSH2 0x4203 JUMP JUMPDEST SWAP3 POP POP PUSH1 0x20 PUSH2 0x424E DUP6 DUP3 DUP7 ADD PUSH2 0x414E JUMP JUMPDEST SWAP2 POP POP SWAP3 POP SWAP3 SWAP1 POP JUMP JUMPDEST PUSH2 0x4261 DUP2 PUSH2 0x412D JUMP JUMPDEST DUP3 MSTORE POP POP JUMP JUMPDEST PUSH1 0x0 PUSH1 0x20 DUP3 ADD SWAP1 POP PUSH2 0x427C PUSH1 0x0 DUP4 ADD DUP5 PUSH2 0x4258 JUMP JUMPDEST SWAP3 SWAP2 POP POP JUMP JUMPDEST PUSH32 0x4E487B7100000000000000000000000000000000000000000000000000000000 PUSH1 0x0 MSTORE PUSH1 0x21 PUSH1 0x4 MSTORE PUSH1 0x24 PUSH1 0x0 REVERT JUMPDEST PUSH1 0x3 DUP2 LT PUSH2 0x42C2 JUMPI PUSH2 0x42C1 PUSH2 0x4282 JUMP JUMPDEST JUMPDEST POP JUMP JUMPDEST PUSH1 0x0 DUP2 SWAP1 POP PUSH2 0x42D3 DUP3 PUSH2 0x42B1 JUMP JUMPDEST SWAP2 SWAP1 POP JUMP JUMPDEST PUSH1 0x0 PUSH2 0x42E3 DUP3 PUSH2 0x42C5 JUMP JUMPDEST SWAP1 POP SWAP2 SWAP1 POP JUMP JUMPDEST PUSH2 0x42F3 DUP2 PUSH2 0x42D8 JUMP JUMPDEST DUP3 MSTORE POP POP JUMP JUMPDEST PUSH2 0x4302 DUP2 PUSH2 0x412D JUMP JUMPDEST DUP3 MSTORE POP POP JUMP JUMPDEST PUSH1 0x0 DUP2 SWAP1 POP SWAP2 SWAP1 POP JUMP JUMPDEST PUSH2 0x431B DUP2 PUSH2 0x4308 JUMP JUMPDEST DUP3 MSTORE POP POP JUMP JUMPDEST PUSH2 0x120 DUP3 ADD PUSH1 0x0 DUP3 ADD MLOAD PUSH2 0x4338 PUSH1 0x0 DUP6 ADD DUP3 PUSH2 0x42EA JUMP JUMPDEST POP PUSH1 0x20 DUP3 ADD MLOAD PUSH2 0x434B PUSH1 0x20 DUP6 ADD DUP3 PUSH2 0x42F9 JUMP JUMPDEST POP PUSH1 0x40 DUP3 ADD MLOAD PUSH2 0x435E PUSH1 0x40 DUP6 ADD DUP3 PUSH2 0x42F9 JUMP JUMPDEST POP PUSH1 0x60 DUP3 ADD MLOAD PUSH2 0x4371 PUSH1 0x60 DUP6 ADD DUP3 PUSH2 0x42F9 JUMP JUMPDEST POP PUSH1 0x80 DUP3 ADD MLOAD PUSH2 0x4384 PUSH1 0x80 DUP6 ADD DUP3 PUSH2 0x42F9 JUMP JUMPDEST POP PUSH1 0xA0 DUP3 ADD MLOAD PUSH2 0x4397 PUSH1 0xA0 DUP6 ADD DUP3 PUSH2 0x42F9 JUMP JUMPDEST POP PUSH1 0xC0 DUP3 ADD MLOAD PUSH2 0x43AA PUSH1 0xC0 DUP6 ADD DUP3 PUSH2 0x42F9 JUMP JUMPDEST POP PUSH1 0xE0 DUP3 ADD MLOAD PUSH2 0x43BD PUSH1 0xE0 DUP6 ADD DUP3 PUSH2 0x42F9 JUMP JUMPDEST POP PUSH2 0x100 DUP3 ADD MLOAD PUSH2 0x43D2 PUSH2 0x100 DUP6 ADD DUP3 PUSH2 0x4312 JUMP JUMPDEST POP POP POP POP JUMP JUMPDEST PUSH1 0x0 PUSH2 0x140 DUP3 ADD SWAP1 POP PUSH2 0x43EE PUSH1 0x0 DUP4 ADD DUP6 PUSH2 0x4258 JUMP JUMPDEST PUSH2 0x43FB PUSH1 0x20 DUP4 ADD DUP5 PUSH2 0x4321 JUMP JUMPDEST SWAP4 SWAP3 POP POP POP JUMP JUMPDEST PUSH1 0x0 DUP1 PUSH1 0x0 PUSH1 0x60 DUP5 DUP7 SUB SLT ISZERO PUSH2 0x441B JUMPI PUSH2 0x441A PUSH2 0x3FB6 JUMP JUMPDEST JUMPDEST PUSH1 0x0 PUSH2 0x4429 DUP7 DUP3 DUP8 ADD PUSH2 0x4203 JUMP JUMPDEST SWAP4 POP POP PUSH1 0x20 PUSH2 0x443A DUP7 DUP3 DUP8 ADD PUSH2 0x4203 JUMP JUMPDEST SWAP3 POP POP PUSH1 0x40 PUSH2 0x444B DUP7 DUP3 DUP8 ADD PUSH2 0x414E JUMP JUMPDEST SWAP2 POP POP SWAP3 POP SWAP3 POP SWAP3 JUMP JUMPDEST PUSH1 0x0 DUP1 PUSH1 0x40 DUP4 DUP6 SUB SLT ISZERO PUSH2 0x446C JUMPI PUSH2 0x446B PUSH2 0x3FB6 JUMP JUMPDEST JUMPDEST PUSH1 0x0 PUSH2 0x447A DUP6 DUP3 DUP7 ADD PUSH2 0x414E JUMP JUMPDEST SWAP3 POP POP PUSH1 0x20 PUSH2 0x448B DUP6 DUP3 DUP7 ADD PUSH2 0x414E JUMP JUMPDEST SWAP2 POP POP SWAP3 POP SWAP3 SWAP1 POP JUMP JUMPDEST PUSH1 0x0 PUSH1 0x40 DUP3 ADD SWAP1 POP PUSH2 0x44AA PUSH1 0x0 DUP4 ADD DUP6 PUSH2 0x41C2 JUMP JUMPDEST PUSH2 0x44B7 PUSH1 0x20 DUP4 ADD DUP5 PUSH2 0x4258 JUMP JUMPDEST SWAP4 SWAP3 POP POP POP JUMP JUMPDEST PUSH2 0x44C7 DUP2 PUSH2 0x42D8 JUMP JUMPDEST DUP3 MSTORE POP POP JUMP JUMPDEST PUSH2 0x44D6 DUP2 PUSH2 0x4308 JUMP JUMPDEST DUP3 MSTORE POP POP JUMP JUMPDEST PUSH1 0x0 PUSH2 0x120 DUP3 ADD SWAP1 POP PUSH2 0x44F2 PUSH1 0x0 DUP4 ADD DUP13 PUSH2 0x44BE JUMP JUMPDEST PUSH2 0x44FF PUSH1 0x20 DUP4 ADD DUP12 PUSH2 0x4258 JUMP JUMPDEST PUSH2 0x450C PUSH1 0x40 DUP4 ADD DUP11 PUSH2 0x4258 JUMP JUMPDEST PUSH2 0x4519 PUSH1 0x60 DUP4 ADD DUP10 PUSH2 0x4258 JUMP JUMPDEST PUSH2 0x4526 PUSH1 0x80 DUP4 ADD DUP9 PUSH2 0x4258 JUMP JUMPDEST PUSH2 0x4533 PUSH1 0xA0 DUP4 ADD DUP8 PUSH2 0x4258 JUMP JUMPDEST PUSH2 0x4540 PUSH1 0xC0 DUP4 ADD DUP7 PUSH2 0x4258 JUMP JUMPDEST PUSH2 0x454D PUSH1 0xE0 DUP4 ADD DUP6 PUSH2 0x4258 JUMP JUMPDEST PUSH2 0x455B PUSH2 0x100 DUP4 ADD DUP5 PUSH2 0x44CD JUMP JUMPDEST SWAP11 SWAP10 POP POP POP POP POP POP POP POP POP POP JUMP JUMPDEST PUSH1 0x0 PUSH1 0x20 DUP3 DUP5 SUB SLT ISZERO PUSH2 0x457F JUMPI PUSH2 0x457E PUSH2 0x3FB6 JUMP JUMPDEST JUMPDEST PUSH1 0x0 PUSH2 0x458D DUP5 DUP3 DUP6 ADD PUSH2 0x4203 JUMP JUMPDEST SWAP2 POP POP SWAP3 SWAP2 POP POP JUMP JUMPDEST PUSH1 0x3 DUP2 LT PUSH2 0x45A3 JUMPI PUSH1 0x0 DUP1 REVERT JUMPDEST POP JUMP JUMPDEST PUSH1 0x0 DUP2 CALLDATALOAD SWAP1 POP PUSH2 0x45B5 DUP2 PUSH2 0x4596 JUMP JUMPDEST SWAP3 SWAP2 POP POP JUMP JUMPDEST PUSH2 0x45C4 DUP2 PUSH2 0x4308 JUMP JUMPDEST DUP2 EQ PUSH2 0x45CF JUMPI PUSH1 0x0 DUP1 REVERT JUMPDEST POP JUMP JUMPDEST PUSH1 0x0 DUP2 CALLDATALOAD SWAP1 POP PUSH2 0x45E1 DUP2 PUSH2 0x45BB JUMP JUMPDEST SWAP3 SWAP2 POP POP JUMP JUMPDEST PUSH1 0x0 DUP1 PUSH1 0x0 DUP1 PUSH1 0x0 DUP1 PUSH1 0x0 DUP1 PUSH2 0x100 DUP10 DUP12 SUB SLT ISZERO PUSH2 0x4608 JUMPI PUSH2 0x4607 PUSH2 0x3FB6 JUMP JUMPDEST JUMPDEST PUSH1 0x0 PUSH2 0x4616 DUP12 DUP3 DUP13 ADD PUSH2 0x45A6 JUMP JUMPDEST SWAP9 POP POP PUSH1 0x20 PUSH2 0x4627 DUP12 DUP3 DUP13 ADD PUSH2 0x414E JUMP JUMPDEST SWAP8 POP POP PUSH1 0x40 PUSH2 0x4638 DUP12 DUP3 DUP13 ADD PUSH2 0x414E JUMP JUMPDEST SWAP7 POP POP PUSH1 0x60 PUSH2 0x4649 DUP12 DUP3 DUP13 ADD PUSH2 0x414E JUMP JUMPDEST SWAP6 POP POP PUSH1 0x80 PUSH2 0x465A DUP12 DUP3 DUP13 ADD PUSH2 0x414E JUMP JUMPDEST SWAP5 POP POP PUSH1 0xA0 PUSH2 0x466B DUP12 DUP3 DUP13 ADD PUSH2 0x414E JUMP JUMPDEST SWAP4 POP POP PUSH1 0xC0 PUSH2 0x467C DUP12 DUP3 DUP13 ADD PUSH2 0x414E JUMP JUMPDEST SWAP3 POP POP PUSH1 0xE0 PUSH2 0x468D DUP12 DUP3 DUP13 ADD PUSH2 0x45D2 JUMP JUMPDEST SWAP2 POP POP SWAP3 SWAP6 SWAP9 POP SWAP3 SWAP6 SWAP9 SWAP1 SWAP4 SWAP7 POP JUMP JUMPDEST PUSH1 0x0 DUP2 MLOAD SWAP1 POP SWAP2 SWAP1 POP JUMP JUMPDEST PUSH1 0x0 DUP3 DUP3 MSTORE PUSH1 0x20 DUP3 ADD SWAP1 POP SWAP3 SWAP2 POP POP JUMP JUMPDEST PUSH1 0x0 DUP2 SWAP1 POP PUSH1 0x20 DUP3 ADD SWAP1 POP SWAP2 SWAP1 POP JUMP JUMPDEST PUSH1 0x0 PUSH2 0x46D5 DUP4 DUP4 PUSH2 0x42F9 JUMP JUMPDEST PUSH1 0x20 DUP4 ADD SWAP1 POP SWAP3 SWAP2 POP POP JUMP JUMPDEST PUSH1 0x0 PUSH1 0x20 DUP3 ADD SWAP1 POP SWAP2 SWAP1 POP JUMP JUMPDEST PUSH1 0x0 PUSH2 0x46F9 DUP3 PUSH2 0x469D JUMP JUMPDEST PUSH2 0x4703 DUP2 DUP6 PUSH2 0x46A8 JUMP JUMPDEST SWAP4 POP PUSH2 0x470E DUP4 PUSH2 0x46B9 JUMP JUMPDEST DUP1 PUSH1 0x0 JUMPDEST DUP4 DUP2 LT ISZERO PUSH2 0x473F JUMPI DUP2 MLOAD PUSH2 0x4726 DUP9 DUP3 PUSH2 0x46C9 JUMP JUMPDEST SWAP8 POP PUSH2 0x4731 DUP4 PUSH2 0x46E1 JUMP JUMPDEST SWAP3 POP POP PUSH1 0x1 DUP2 ADD SWAP1 POP PUSH2 0x4712 JUMP JUMPDEST POP DUP6 SWAP4 POP POP POP POP SWAP3 SWAP2 POP POP JUMP JUMPDEST PUSH1 0x0 PUSH1 0x20 DUP3 ADD SWAP1 POP DUP2 DUP2 SUB PUSH1 0x0 DUP4 ADD MSTORE PUSH2 0x4766 DUP2 DUP5 PUSH2 0x46EE JUMP JUMPDEST SWAP1 POP SWAP3 SWAP2 POP POP JUMP JUMPDEST PUSH1 0x0 PUSH32 0xFF00000000000000000000000000000000000000000000000000000000000000 DUP3 AND SWAP1 POP SWAP2 SWAP1 POP JUMP JUMPDEST PUSH2 0x47A3 DUP2 PUSH2 0x476E JUMP JUMPDEST DUP3 MSTORE POP POP JUMP JUMPDEST PUSH1 0x0 PUSH1 0xE0 DUP3 ADD SWAP1 POP PUSH2 0x47BE PUSH1 0x0 DUP4 ADD DUP11 PUSH2 0x479A JUMP JUMPDEST DUP2 DUP2 SUB PUSH1 0x20 DUP4 ADD MSTORE PUSH2 0x47D0 DUP2 DUP10 PUSH2 0x40D2 JUMP JUMPDEST SWAP1 POP DUP2 DUP2 SUB PUSH1 0x40 DUP4 ADD MSTORE PUSH2 0x47E4 DUP2 DUP9 PUSH2 0x40D2 JUMP JUMPDEST SWAP1 POP PUSH2 0x47F3 PUSH1 0x60 DUP4 ADD DUP8 PUSH2 0x4258 JUMP JUMPDEST PUSH2 0x4800 PUSH1 0x80 DUP4 ADD DUP7 PUSH2 0x41C2 JUMP JUMPDEST PUSH2 0x480D PUSH1 0xA0 DUP4 ADD DUP6 PUSH2 0x44CD JUMP JUMPDEST DUP2 DUP2 SUB PUSH1 0xC0 DUP4 ADD MSTORE PUSH2 0x481F DUP2 DUP5 PUSH2 0x46EE JUMP JUMPDEST SWAP1 POP SWAP9 SWAP8 POP POP POP POP POP POP POP POP JUMP JUMPDEST PUSH1 0x0 DUP1 REVERT JUMPDEST PUSH1 0x0 DUP1 REVERT JUMPDEST PUSH1 0x0 DUP1 REVERT JUMPDEST PUSH1 0x0 DUP1 DUP4 PUSH1 0x1F DUP5 ADD SLT PUSH2 0x4852 JUMPI PUSH2 0x4851 PUSH2 0x482D JUMP JUMPDEST JUMPDEST DUP3 CALLDATALOAD SWAP1 POP PUSH8 0xFFFFFFFFFFFFFFFF DUP2 GT ISZERO PUSH2 0x486F JUMPI PUSH2 0x486E PUSH2 0x4832 JUMP JUMPDEST JUMPDEST PUSH1 0x20 DUP4 ADD SWAP2 POP DUP4 PUSH1 0x1 DUP3 MUL DUP4 ADD GT ISZERO PUSH2 0x488B JUMPI PUSH2 0x488A PUSH2 0x4837 JUMP JUMPDEST JUMPDEST SWAP3 POP SWAP3 SWAP1 POP JUMP JUMPDEST PUSH1 0x0 DUP1 DUP4 PUSH1 0x1F DUP5 ADD SLT PUSH2 0x48A8 JUMPI PUSH2 0x48A7 PUSH2 0x482D JUMP JUMPDEST JUMPDEST DUP3 CALLDATALOAD SWAP1 POP PUSH8 0xFFFFFFFFFFFFFFFF DUP2 GT ISZERO PUSH2 0x48C5 JUMPI PUSH2 0x48C4 PUSH2 0x4832 JUMP JUMPDEST JUMPDEST PUSH1 0x20 DUP4 ADD SWAP2 POP DUP4 PUSH1 0x1 DUP3 MUL DUP4 ADD GT ISZERO PUSH2 0x48E1 JUMPI PUSH2 0x48E0 PUSH2 0x4837 JUMP JUMPDEST JUMPDEST SWAP3 POP SWAP3 SWAP1 POP JUMP JUMPDEST PUSH1 0x0 DUP1 DUP4 PUSH1 0x1F DUP5 ADD SLT PUSH2 0x48FE JUMPI PUSH2 0x48FD PUSH2 0x482D JUMP JUMPDEST JUMPDEST DUP3 CALLDATALOAD SWAP1 POP PUSH8 0xFFFFFFFFFFFFFFFF DUP2 GT ISZERO PUSH2 0x491B JUMPI PUSH2 0x491A PUSH2 0x4832 JUMP JUMPDEST JUMPDEST PUSH1 0x20 DUP4 ADD SWAP2 POP DUP4 PUSH1 0x20 DUP3 MUL DUP4 ADD GT ISZERO PUSH2 0x4937 JUMPI PUSH2 0x4936 PUSH2 0x4837 JUMP JUMPDEST JUMPDEST SWAP3 POP SWAP3 SWAP1 POP JUMP JUMPDEST PUSH1 0x0 DUP1 PUSH1 0x0 DUP1 PUSH1 0x0 DUP1 PUSH1 0x0 DUP1 PUSH1 0x0 PUSH1 0xC0 DUP11 DUP13 SUB SLT ISZERO PUSH2 0x4960 JUMPI PUSH2 0x495F PUSH2 0x3FB6 JUMP JUMPDEST JUMPDEST PUSH1 0x0 PUSH2 0x496E DUP13 DUP3 DUP14 ADD PUSH2 0x414E JUMP JUMPDEST SWAP10 POP POP PUSH1 0x20 DUP11 ADD CALLDATALOAD PUSH8 0xFFFFFFFFFFFFFFFF DUP2 GT ISZERO PUSH2 0x498F JUMPI PUSH2 0x498E PUSH2 0x3FBB JUMP JUMPDEST JUMPDEST PUSH2 0x499B DUP13 DUP3 DUP14 ADD PUSH2 0x483C JUMP JUMPDEST SWAP9 POP SWAP9 POP POP PUSH1 0x40 PUSH2 0x49AE DUP13 DUP3 DUP14 ADD PUSH2 0x45D2 JUMP JUMPDEST SWAP7 POP POP PUSH1 0x60 PUSH2 0x49BF DUP13 DUP3 DUP14 ADD PUSH2 0x414E JUMP JUMPDEST SWAP6 POP POP PUSH1 0x80 DUP11 ADD CALLDATALOAD PUSH8 0xFFFFFFFFFFFFFFFF DUP2 GT ISZERO PUSH2 0x49E0 JUMPI PUSH2 0x49DF PUSH2 0x3FBB JUMP JUMPDEST JUMPDEST PUSH2 0x49EC DUP13 DUP3 DUP14 ADD PUSH2 0x4892 JUMP JUMPDEST SWAP5 POP SWAP5 POP POP PUSH1 0xA0 DUP11 ADD CALLDATALOAD PUSH8 0xFFFFFFFFFFFFFFFF DUP2 GT ISZERO PUSH2 0x4A0F JUMPI PUSH2 0x4A0E PUSH2 0x3FBB JUMP JUMPDEST JUMPDEST PUSH2 0x4A1B DUP13 DUP3 DUP14 ADD PUSH2 0x48E8 JUMP JUMPDEST SWAP3 POP SWAP3 POP POP SWAP3 SWAP6 SWAP9 POP SWAP3 SWAP6 SWAP9 POP SWAP3 SWAP6 SWAP9 JUMP JUMPDEST PUSH2 0x4A36 DUP2 PUSH2 0x4045 JUMP JUMPDEST DUP2 EQ PUSH2 0x4A41 JUMPI PUSH1 0x0 DUP1 REVERT JUMPDEST POP JUMP JUMPDEST PUSH1 0x0 DUP2 CALLDATALOAD SWAP1 POP PUSH2 0x4A53 DUP2 PUSH2 0x4A2D JUMP JUMPDEST SWAP3 SWAP2 POP POP JUMP JUMPDEST PUSH1 0x0 DUP1 PUSH1 0x40 DUP4 DUP6 SUB SLT ISZERO PUSH2 0x4A70 JUMPI PUSH2 0x4A6F PUSH2 0x3FB6 JUMP JUMPDEST JUMPDEST PUSH1 0x0 PUSH2 0x4A7E DUP6 DUP3 DUP7 ADD PUSH2 0x4203 JUMP JUMPDEST SWAP3 POP POP PUSH1 0x20 PUSH2 0x4A8F DUP6 DUP3 DUP7 ADD PUSH2 0x4A44 JUMP JUMPDEST SWAP2 POP POP SWAP3 POP SWAP3 SWAP1 POP JUMP JUMPDEST PUSH1 0x0 DUP1 REVERT JUMPDEST PUSH32 0x4E487B7100000000000000000000000000000000000000000000000000000000 PUSH1 0x0 MSTORE PUSH1 0x41 PUSH1 0x4 MSTORE PUSH1 0x24 PUSH1 0x0 REVERT JUMPDEST PUSH2 0x4AD6 DUP3 PUSH2 0x40C1 JUMP JUMPDEST DUP2 ADD DUP2 DUP2 LT PUSH8 0xFFFFFFFFFFFFFFFF DUP3 GT OR ISZERO PUSH2 0x4AF5 JUMPI PUSH2 0x4AF4 PUSH2 0x4A9E JUMP JUMPDEST JUMPDEST DUP1 PUSH1 0x40 MSTORE POP POP POP JUMP JUMPDEST PUSH1 0x0 PUSH2 0x4B08 PUSH2 0x3FAC JUMP JUMPDEST SWAP1 POP PUSH2 0x4B14 DUP3 DUP3 PUSH2 0x4ACD JUMP JUMPDEST SWAP2 SWAP1 POP JUMP JUMPDEST PUSH1 0x0 PUSH8 0xFFFFFFFFFFFFFFFF DUP3 GT ISZERO PUSH2 0x4B34 JUMPI PUSH2 0x4B33 PUSH2 0x4A9E JUMP JUMPDEST JUMPDEST PUSH2 0x4B3D DUP3 PUSH2 0x40C1 JUMP JUMPDEST SWAP1 POP PUSH1 0x20 DUP2 ADD SWAP1 POP SWAP2 SWAP1 POP JUMP JUMPDEST DUP3 DUP2 DUP4 CALLDATACOPY PUSH1 0x0 DUP4 DUP4 ADD MSTORE POP POP POP JUMP JUMPDEST PUSH1 0x0 PUSH2 0x4B6C PUSH2 0x4B67 DUP5 PUSH2 0x4B19 JUMP JUMPDEST PUSH2 0x4AFE JUMP JUMPDEST SWAP1 POP DUP3 DUP2 MSTORE PUSH1 0x20 DUP2 ADD DUP5 DUP5 DUP5 ADD GT ISZERO PUSH2 0x4B88 JUMPI PUSH2 0x4B87 PUSH2 0x4A99 JUMP JUMPDEST JUMPDEST PUSH2 0x4B93 DUP5 DUP3 DUP6 PUSH2 0x4B4A JUMP JUMPDEST POP SWAP4 SWAP3 POP POP POP JUMP JUMPDEST PUSH1 0x0 DUP3 PUSH1 0x1F DUP4 ADD SLT PUSH2 0x4BB0 JUMPI PUSH2 0x4BAF PUSH2 0x482D JUMP JUMPDEST JUMPDEST DUP2 CALLDATALOAD PUSH2 0x4BC0 DUP5 DUP3 PUSH1 0x20 DUP7 ADD PUSH2 0x4B59 JUMP JUMPDEST SWAP2 POP POP SWAP3 SWAP2 POP POP JUMP JUMPDEST PUSH1 0x0 DUP1 PUSH1 0x0 DUP1 PUSH1 0x80 DUP6 DUP8 SUB SLT ISZERO PUSH2 0x4BE3 JUMPI PUSH2 0x4BE2 PUSH2 0x3FB6 JUMP JUMPDEST JUMPDEST PUSH1 0x0 PUSH2 0x4BF1 DUP8 DUP3 DUP9 ADD PUSH2 0x4203 JUMP JUMPDEST SWAP5 POP POP PUSH1 0x20 PUSH2 0x4C02 DUP8 DUP3 DUP9 ADD PUSH2 0x4203 JUMP JUMPDEST SWAP4 POP POP PUSH1 0x40 PUSH2 0x4C13 DUP8 DUP3 DUP9 ADD PUSH2 0x414E JUMP JUMPDEST SWAP3 POP POP PUSH1 0x60 DUP6 ADD CALLDATALOAD PUSH8 0xFFFFFFFFFFFFFFFF DUP2 GT ISZERO PUSH2 0x4C34 JUMPI PUSH2 0x4C33 PUSH2 0x3FBB JUMP JUMPDEST JUMPDEST PUSH2 0x4C40 DUP8 DUP3 DUP9 ADD PUSH2 0x4B9B JUMP JUMPDEST SWAP2 POP POP SWAP3 SWAP6 SWAP2 SWAP5 POP SWAP3 POP JUMP JUMPDEST PUSH1 0x0 PUSH12 0xFFFFFFFFFFFFFFFFFFFFFFFF DUP3 AND SWAP1 POP SWAP2 SWAP1 POP JUMP JUMPDEST PUSH2 0x4C6D DUP2 PUSH2 0x4C4C JUMP JUMPDEST DUP3 MSTORE POP POP JUMP JUMPDEST PUSH1 0x0 PUSH1 0x20 DUP3 ADD SWAP1 POP PUSH2 0x4C88 PUSH1 0x0 DUP4 ADD DUP5 PUSH2 0x4C64 JUMP JUMPDEST SWAP3 SWAP2 POP POP JUMP JUMPDEST PUSH1 0x0 DUP1 PUSH1 0x40 DUP4 DUP6 SUB SLT ISZERO PUSH2 0x4CA5 JUMPI PUSH2 0x4CA4 PUSH2 0x3FB6 JUMP JUMPDEST JUMPDEST PUSH1 0x0 PUSH2 0x4CB3 DUP6 DUP3 DUP7 ADD PUSH2 0x4203 JUMP JUMPDEST SWAP3 POP POP PUSH1 0x20 PUSH2 0x4CC4 DUP6 DUP3 DUP7 ADD PUSH2 0x4203 JUMP JUMPDEST SWAP2 POP POP SWAP3 POP SWAP3 SWAP1 POP JUMP JUMPDEST PUSH1 0x0 PUSH1 0x20 DUP3 ADD SWAP1 POP PUSH2 0x4CE3 PUSH1 0x0 DUP4 ADD DUP5 PUSH2 0x44CD JUMP JUMPDEST SWAP3 SWAP2 POP POP JUMP JUMPDEST PUSH1 0x0 DUP1 PUSH1 0x40 DUP4 DUP6 SUB SLT ISZERO PUSH2 0x4D00 JUMPI PUSH2 0x4CFF PUSH2 0x3FB6 JUMP JUMPDEST JUMPDEST PUSH1 0x0 PUSH2 0x4D0E DUP6 DUP3 DUP7 ADD PUSH2 0x4203 JUMP JUMPDEST SWAP3 POP POP PUSH1 0x20 PUSH2 0x4D1F DUP6 DUP3 DUP7 ADD PUSH2 0x45A6 JUMP JUMPDEST SWAP2 POP POP SWAP3 POP SWAP3 SWAP1 POP JUMP JUMPDEST PUSH32 0x4E487B7100000000000000000000000000000000000000000000000000000000 PUSH1 0x0 MSTORE PUSH1 0x22 PUSH1 0x4 MSTORE PUSH1 0x24 PUSH1 0x0 REVERT JUMPDEST PUSH1 0x0 PUSH1 0x2 DUP3 DIV SWAP1 POP PUSH1 0x1 DUP3 AND DUP1 PUSH2 0x4D70 JUMPI PUSH1 0x7F DUP3 AND SWAP2 POP JUMPDEST PUSH1 0x20 DUP3 LT DUP2 SUB PUSH2 0x4D83 JUMPI PUSH2 0x4D82 PUSH2 0x4D29 JUMP JUMPDEST JUMPDEST POP SWAP2 SWAP1 POP JUMP JUMPDEST PUSH32 0x4E487B7100000000000000000000000000000000000000000000000000000000 PUSH1 0x0 MSTORE PUSH1 0x32 PUSH1 0x4 MSTORE PUSH1 0x24 PUSH1 0x0 REVERT JUMPDEST PUSH1 0x0 PUSH1 0x60 DUP3 ADD SWAP1 POP PUSH2 0x4DCD PUSH1 0x0 DUP4 ADD DUP7 PUSH2 0x41C2 JUMP JUMPDEST PUSH2 0x4DDA PUSH1 0x20 DUP4 ADD DUP6 PUSH2 0x4258 JUMP JUMPDEST PUSH2 0x4DE7 PUSH1 0x40 DUP4 ADD DUP5 PUSH2 0x41C2 JUMP JUMPDEST SWAP5 SWAP4 POP POP POP POP JUMP JUMPDEST PUSH32 0x4E487B7100000000000000000000000000000000000000000000000000000000 PUSH1 0x0 MSTORE PUSH1 0x11 PUSH1 0x4 MSTORE PUSH1 0x24 PUSH1 0x0 REVERT JUMPDEST PUSH1 0x0 PUSH2 0x4E29 DUP3 PUSH2 0x412D JUMP JUMPDEST SWAP2 POP PUSH2 0x4E34 DUP4 PUSH2 0x412D JUMP JUMPDEST SWAP3 POP DUP3 DUP3 MUL PUSH2 0x4E42 DUP2 PUSH2 0x412D JUMP JUMPDEST SWAP2 POP DUP3 DUP3 DIV DUP5 EQ DUP4 ISZERO OR PUSH2 0x4E59 JUMPI PUSH2 0x4E58 PUSH2 0x4DEF JUMP JUMPDEST JUMPDEST POP SWAP3 SWAP2 POP POP JUMP JUMPDEST PUSH32 0x4E487B7100000000000000000000000000000000000000000000000000000000 PUSH1 0x0 MSTORE PUSH1 0x12 PUSH1 0x4 MSTORE PUSH1 0x24 PUSH1 0x0 REVERT JUMPDEST PUSH1 0x0 PUSH2 0x4E9A DUP3 PUSH2 0x412D JUMP JUMPDEST SWAP2 POP PUSH2 0x4EA5 DUP4 PUSH2 0x412D JUMP JUMPDEST SWAP3 POP DUP3 PUSH2 0x4EB5 JUMPI PUSH2 0x4EB4 PUSH2 0x4E60 JUMP JUMPDEST JUMPDEST DUP3 DUP3 DIV SWAP1 POP SWAP3 SWAP2 POP POP JUMP JUMPDEST PUSH32 0x496E76616C69642074696D652072616E67650000000000000000000000000000 PUSH1 0x0 DUP3 ADD MSTORE POP JUMP JUMPDEST PUSH1 0x0 PUSH2 0x4EF6 PUSH1 0x12 DUP4 PUSH2 0x4086 JUMP JUMPDEST SWAP2 POP PUSH2 0x4F01 DUP3 PUSH2 0x4EC0 JUMP JUMPDEST PUSH1 0x20 DUP3 ADD SWAP1 POP SWAP2 SWAP1 POP JUMP JUMPDEST PUSH1 0x0 PUSH1 0x20 DUP3 ADD SWAP1 POP DUP2 DUP2 SUB PUSH1 0x0 DUP4 ADD MSTORE PUSH2 0x4F25 DUP2 PUSH2 0x4EE9 JUMP JUMPDEST SWAP1 POP SWAP2 SWAP1 POP JUMP JUMPDEST PUSH32 0x496E76616C6964206D6178207065722077616C6C657420666F72206E6F6E2D70 PUSH1 0x0 DUP3 ADD MSTORE PUSH32 0x75626C6963207068617365000000000000000000000000000000000000000000 PUSH1 0x20 DUP3 ADD MSTORE POP JUMP JUMPDEST PUSH1 0x0 PUSH2 0x4F88 PUSH1 0x2B DUP4 PUSH2 0x4086 JUMP JUMPDEST SWAP2 POP PUSH2 0x4F93 DUP3 PUSH2 0x4F2C JUMP JUMPDEST PUSH1 0x40 DUP3 ADD SWAP1 POP SWAP2 SWAP1 POP JUMP JUMPDEST PUSH1 0x0 PUSH1 0x20 DUP3 ADD SWAP1 POP DUP2 DUP2 SUB PUSH1 0x0 DUP4 ADD MSTORE PUSH2 0x4FB7 DUP2 PUSH2 0x4F7B JUMP JUMPDEST SWAP1 POP SWAP2 SWAP1 POP JUMP JUMPDEST PUSH32 0x496E76616C6964206D6178206D696E742070657220706861736520666F72206E PUSH1 0x0 DUP3 ADD MSTORE PUSH32 0x6F6E2D7075626C69632070686173650000000000000000000000000000000000 PUSH1 0x20 DUP3 ADD MSTORE POP JUMP JUMPDEST PUSH1 0x0 PUSH2 0x501A PUSH1 0x2F DUP4 PUSH2 0x4086 JUMP JUMPDEST SWAP2 POP PUSH2 0x5025 DUP3 PUSH2 0x4FBE JUMP JUMPDEST PUSH1 0x40 DUP3 ADD SWAP1 POP SWAP2 SWAP1 POP JUMP JUMPDEST PUSH1 0x0 PUSH1 0x20 DUP3 ADD SWAP1 POP DUP2 DUP2 SUB PUSH1 0x0 DUP4 ADD MSTORE PUSH2 0x5049 DUP2 PUSH2 0x500D JUMP JUMPDEST SWAP1 POP SWAP2 SWAP1 POP JUMP JUMPDEST PUSH32 0x4D65726B6C6520726F6F7420726571756972656420666F722077686974656C69 PUSH1 0x0 DUP3 ADD MSTORE PUSH32 0x7374207068617365000000000000000000000000000000000000000000000000 PUSH1 0x20 DUP3 ADD MSTORE POP JUMP JUMPDEST PUSH1 0x0 PUSH2 0x50AC PUSH1 0x28 DUP4 PUSH2 0x4086 JUMP JUMPDEST SWAP2 POP PUSH2 0x50B7 DUP3 PUSH2 0x5050 JUMP JUMPDEST PUSH1 0x40 DUP3 ADD SWAP1 POP SWAP2 SWAP1 POP JUMP JUMPDEST PUSH1 0x0 PUSH1 0x20 DUP3 ADD SWAP1 POP DUP2 DUP2 SUB PUSH1 0x0 DUP4 ADD MSTORE PUSH2 0x50DB DUP2 PUSH2 0x509F JUMP JUMPDEST SWAP1 POP SWAP2 SWAP1 POP JUMP JUMPDEST PUSH1 0x0 PUSH1 0x40 DUP3 ADD SWAP1 POP PUSH2 0x50F7 PUSH1 0x0 DUP4 ADD DUP6 PUSH2 0x44BE JUMP JUMPDEST PUSH2 0x5104 PUSH1 0x20 DUP4 ADD DUP5 PUSH2 0x4258 JUMP JUMPDEST SWAP4 SWAP3 POP POP POP JUMP JUMPDEST PUSH1 0x0 DUP2 PUSH1 0x60 SHL SWAP1 POP SWAP2 SWAP1 POP JUMP JUMPDEST PUSH1 0x0 PUSH2 0x5123 DUP3 PUSH2 0x510B JUMP JUMPDEST SWAP1 POP SWAP2 SWAP1 POP JUMP JUMPDEST PUSH1 0x0 PUSH2 0x5135 DUP3 PUSH2 0x5118 JUMP JUMPDEST SWAP1 POP SWAP2 SWAP1 POP JUMP JUMPDEST PUSH2 0x514D PUSH2 0x5148 DUP3 PUSH2 0x41B0 JUMP JUMPDEST PUSH2 0x512A JUMP JUMPDEST DUP3 MSTORE POP POP JUMP JUMPDEST PUSH1 0x0 PUSH2 0x515F DUP3 DUP5 PUSH2 0x513C JUMP JUMPDEST PUSH1 0x14 DUP3 ADD SWAP2 POP DUP2 SWAP1 POP SWAP3 SWAP2 POP POP JUMP JUMPDEST PUSH1 0x0 PUSH2 0x5179 DUP3 PUSH2 0x412D JUMP JUMPDEST SWAP2 POP PUSH2 0x5184 DUP4 PUSH2 0x412D JUMP JUMPDEST SWAP3 POP DUP3 DUP3 ADD SWAP1 POP DUP1 DUP3 GT ISZERO PUSH2 0x519C JUMPI PUSH2 0x519B PUSH2 0x4DEF JUMP JUMPDEST JUMPDEST SWAP3 SWAP2 POP POP JUMP JUMPDEST PUSH1 0x0 DUP2 SWAP1 POP SWAP3 SWAP2 POP POP JUMP JUMPDEST PUSH1 0x0 PUSH2 0x51B9 DUP4 DUP6 PUSH2 0x51A2 JUMP JUMPDEST SWAP4 POP PUSH2 0x51C6 DUP4 DUP6 DUP5 PUSH2 0x4B4A JUMP JUMPDEST DUP3 DUP5 ADD SWAP1 POP SWAP4 SWAP3 POP POP POP JUMP JUMPDEST PUSH1 0x0 PUSH2 0x51DF DUP3 DUP5 DUP7 PUSH2 0x51AD JUMP JUMPDEST SWAP2 POP DUP2 SWAP1 POP SWAP4 SWAP3 POP POP POP JUMP JUMPDEST PUSH1 0x0 PUSH2 0x100 DUP3 ADD SWAP1 POP PUSH2 0x5201 PUSH1 0x0 DUP4 ADD DUP12 PUSH2 0x44CD JUMP JUMPDEST PUSH2 0x520E PUSH1 0x20 DUP4 ADD DUP11 PUSH2 0x41C2 JUMP JUMPDEST PUSH2 0x521B PUSH1 0x40 DUP4 ADD DUP10 PUSH2 0x4258 JUMP JUMPDEST PUSH2 0x5228 PUSH1 0x60 DUP4 ADD DUP9 PUSH2 0x44CD JUMP JUMPDEST PUSH2 0x5235 PUSH1 0x80 DUP4 ADD DUP8 PUSH2 0x4258 JUMP JUMPDEST PUSH2 0x5242 PUSH1 0xA0 DUP4 ADD DUP7 PUSH2 0x4258 JUMP JUMPDEST PUSH2 0x524F PUSH1 0xC0 DUP4 ADD DUP6 PUSH2 0x44CD JUMP JUMPDEST PUSH2 0x525C PUSH1 0xE0 DUP4 ADD DUP5 PUSH2 0x4258 JUMP JUMPDEST SWAP10 SWAP9 POP POP POP POP POP POP POP POP POP JUMP JUMPDEST PUSH1 0x0 PUSH1 0x20 DUP3 ADD SWAP1 POP PUSH2 0x527E PUSH1 0x0 DUP4 ADD DUP5 PUSH2 0x44BE JUMP JUMPDEST SWAP3 SWAP2 POP POP JUMP JUMPDEST POP JUMP JUMPDEST PUSH1 0x0 PUSH2 0x5294 PUSH1 0x0 DUP4 PUSH2 0x51A2 JUMP JUMPDEST SWAP2 POP PUSH2 0x529F DUP3 PUSH2 0x5284 JUMP JUMPDEST PUSH1 0x0 DUP3 ADD SWAP1 POP SWAP2 SWAP1 POP JUMP JUMPDEST PUSH1 0x0 PUSH2 0x52B5 DUP3 PUSH2 0x5287 JUMP JUMPDEST SWAP2 POP DUP2 SWAP1 POP SWAP2 SWAP1 POP JUMP JUMPDEST PUSH1 0x0 PUSH2 0x52CA DUP3 PUSH2 0x412D JUMP JUMPDEST SWAP2 POP PUSH2 0x52D5 DUP4 PUSH2 0x412D JUMP JUMPDEST SWAP3 POP DUP3 DUP3 SUB SWAP1 POP DUP2 DUP2 GT ISZERO PUSH2 0x52ED JUMPI PUSH2 0x52EC PUSH2 0x4DEF JUMP JUMPDEST JUMPDEST SWAP3 SWAP2 POP POP JUMP JUMPDEST PUSH1 0x0 PUSH2 0x52FE DUP3 PUSH2 0x412D JUMP JUMPDEST SWAP2 POP PUSH32 0xFFFFFFFFFFFFFFFFFFFFFFFFFFFFFFFFFFFFFFFFFFFFFFFFFFFFFFFFFFFFFFFF DUP3 SUB PUSH2 0x5330 JUMPI PUSH2 0x532F PUSH2 0x4DEF JUMP JUMPDEST JUMPDEST PUSH1 0x1 DUP3 ADD SWAP1 POP SWAP2 SWAP1 POP JUMP JUMPDEST PUSH1 0x0 DUP2 MLOAD SWAP1 POP SWAP2 SWAP1 POP JUMP JUMPDEST PUSH1 0x0 DUP3 DUP3 MSTORE PUSH1 0x20 DUP3 ADD SWAP1 POP SWAP3 SWAP2 POP POP JUMP JUMPDEST PUSH1 0x0 PUSH2 0x5362 DUP3 PUSH2 0x533B JUMP JUMPDEST PUSH2 0x536C DUP2 DUP6 PUSH2 0x5346 JUMP JUMPDEST SWAP4 POP PUSH2 0x537C DUP2 DUP6 PUSH1 0x20 DUP7 ADD PUSH2 0x4097 JUMP JUMPDEST PUSH2 0x5385 DUP2 PUSH2 0x40C1 JUMP JUMPDEST DUP5 ADD SWAP2 POP POP SWAP3 SWAP2 POP POP JUMP JUMPDEST PUSH1 0x0 PUSH1 0x80 DUP3 ADD SWAP1 POP PUSH2 0x53A5 PUSH1 0x0 DUP4 ADD DUP8 PUSH2 0x41C2 JUMP JUMPDEST PUSH2 0x53B2 PUSH1 0x20 DUP4 ADD DUP7 PUSH2 0x41C2 JUMP JUMPDEST PUSH2 0x53BF PUSH1 0x40 DUP4 ADD DUP6 PUSH2 0x4258 JUMP JUMPDEST DUP2 DUP2 SUB PUSH1 0x60 DUP4 ADD MSTORE PUSH2 0x53D1 DUP2 DUP5 PUSH2 0x5357 JUMP JUMPDEST SWAP1 POP SWAP6 SWAP5 POP POP POP POP POP JUMP JUMPDEST PUSH1 0x0 DUP2 MLOAD SWAP1 POP PUSH2 0x53EB DUP2 PUSH2 0x3FEC JUMP JUMPDEST SWAP3 SWAP2 POP POP JUMP JUMPDEST PUSH1 0x0 PUSH1 0x20 DUP3 DUP5 SUB SLT ISZERO PUSH2 0x5407 JUMPI PUSH2 0x5406 PUSH2 0x3FB6 JUMP JUMPDEST JUMPDEST PUSH1 0x0 PUSH2 0x5415 DUP5 DUP3 DUP6 ADD PUSH2 0x53DC JUMP JUMPDEST SWAP2 POP POP SWAP3 SWAP2 POP POP JUMP JUMPDEST PUSH1 0x0 DUP2 SWAP1 POP SWAP3 SWAP2 POP POP JUMP JUMPDEST PUSH1 0x0 PUSH2 0x5434 DUP3 PUSH2 0x407B JUMP JUMPDEST PUSH2 0x543E DUP2 DUP6 PUSH2 0x541E JUMP JUMPDEST SWAP4 POP PUSH2 0x544E DUP2 DUP6 PUSH1 0x20 DUP7 ADD PUSH2 0x4097 JUMP JUMPDEST DUP1 DUP5 ADD SWAP2 POP POP SWAP3 SWAP2 POP POP JUMP JUMPDEST PUSH1 0x0 PUSH2 0x5466 DUP3 DUP6 PUSH2 0x5429 JUMP JUMPDEST SWAP2 POP PUSH2 0x5472 DUP3 DUP5 PUSH2 0x5429 JUMP JUMPDEST SWAP2 POP DUP2 SWAP1 POP SWAP4 SWAP3 POP POP POP JUMP JUMPDEST PUSH1 0x0 DUP2 SWAP1 POP DUP2 PUSH1 0x0 MSTORE PUSH1 0x20 PUSH1 0x0 KECCAK256 SWAP1 POP SWAP2 SWAP1 POP JUMP JUMPDEST PUSH1 0x0 PUSH1 0x20 PUSH1 0x1F DUP4 ADD DIV SWAP1 POP SWAP2 SWAP1 POP JUMP JUMPDEST PUSH1 0x0 DUP3 DUP3 SHL SWAP1 POP SWAP3 SWAP2 POP POP JUMP JUMPDEST PUSH1 0x0 PUSH1 0x8 DUP4 MUL PUSH2 0x54E0 PUSH32 0xFFFFFFFFFFFFFFFFFFFFFFFFFFFFFFFFFFFFFFFFFFFFFFFFFFFFFFFFFFFFFFFF DUP3 PUSH2 0x54A3 JUMP JUMPDEST PUSH2 0x54EA DUP7 DUP4 PUSH2 0x54A3 JUMP JUMPDEST SWAP6 POP DUP1 NOT DUP5 AND SWAP4 POP DUP1 DUP7 AND DUP5 OR SWAP3 POP POP POP SWAP4 SWAP3 POP POP POP JUMP JUMPDEST PUSH1 0x0 DUP2 SWAP1 POP SWAP2 SWAP1 POP JUMP JUMPDEST PUSH1 0x0 PUSH2 0x5527 PUSH2 0x5522 PUSH2 0x551D DUP5 PUSH2 0x412D JUMP JUMPDEST PUSH2 0x5502 JUMP JUMPDEST PUSH2 0x412D JUMP JUMPDEST SWAP1 POP SWAP2 SWAP1 POP JUMP JUMPDEST PUSH1 0x0 DUP2 SWAP1 POP SWAP2 SWAP1 POP JUMP JUMPDEST PUSH2 0x5541 DUP4 PUSH2 0x550C JUMP JUMPDEST PUSH2 0x5555 PUSH2 0x554D DUP3 PUSH2 0x552E JUMP JUMPDEST DUP5 DUP5 SLOAD PUSH2 0x54B0 JUMP JUMPDEST DUP3 SSTORE POP POP POP POP JUMP JUMPDEST PUSH1 0x0 SWAP1 JUMP JUMPDEST PUSH2 0x556A PUSH2 0x555D JUMP JUMPDEST PUSH2 0x5575 DUP2 DUP5 DUP5 PUSH2 0x5538 JUMP JUMPDEST POP POP POP JUMP JUMPDEST JUMPDEST DUP2 DUP2 LT ISZERO PUSH2 0x5599 JUMPI PUSH2 0x558E PUSH1 0x0 DUP3 PUSH2 0x5562 JUMP JUMPDEST PUSH1 0x1 DUP2 ADD SWAP1 POP PUSH2 0x557B JUMP JUMPDEST POP POP JUMP JUMPDEST PUSH1 0x1F DUP3 GT ISZERO PUSH2 0x55DE JUMPI PUSH2 0x55AF DUP2 PUSH2 0x547E JUMP JUMPDEST PUSH2 0x55B8 DUP5 PUSH2 0x5493 JUMP JUMPDEST DUP2 ADD PUSH1 0x20 DUP6 LT ISZERO PUSH2 0x55C7 JUMPI DUP2 SWAP1 POP JUMPDEST PUSH2 0x55DB PUSH2 0x55D3 DUP6 PUSH2 0x5493 JUMP JUMPDEST DUP4 ADD DUP3 PUSH2 0x557A JUMP JUMPDEST POP POP JUMPDEST POP POP POP JUMP JUMPDEST PUSH1 0x0 DUP3 DUP3 SHR SWAP1 POP SWAP3 SWAP2 POP POP JUMP JUMPDEST PUSH1 0x0 PUSH2 0x5601 PUSH1 0x0 NOT DUP5 PUSH1 0x8 MUL PUSH2 0x55E3 JUMP JUMPDEST NOT DUP1 DUP4 AND SWAP2 POP POP SWAP3 SWAP2 POP POP JUMP JUMPDEST PUSH1 0x0 PUSH2 0x561A DUP4 DUP4 PUSH2 0x55F0 JUMP JUMPDEST SWAP2 POP DUP3 PUSH1 0x2 MUL DUP3 OR SWAP1 POP SWAP3 SWAP2 POP POP JUMP JUMPDEST PUSH2 0x5633 DUP3 PUSH2 0x407B JUMP JUMPDEST PUSH8 0xFFFFFFFFFFFFFFFF DUP2 GT ISZERO PUSH2 0x564C JUMPI PUSH2 0x564B PUSH2 0x4A9E JUMP JUMPDEST JUMPDEST PUSH2 0x5656 DUP3 SLOAD PUSH2 0x4D58 JUMP JUMPDEST PUSH2 0x5661 DUP3 DUP3 DUP6 PUSH2 0x559D JUMP JUMPDEST PUSH1 0x0 PUSH1 0x20 SWAP1 POP PUSH1 0x1F DUP4 GT PUSH1 0x1 DUP2 EQ PUSH2 0x5694 JUMPI PUSH1 0x0 DUP5 ISZERO PUSH2 0x5682 JUMPI DUP3 DUP8 ADD MLOAD SWAP1 POP JUMPDEST PUSH2 0x568C DUP6 DUP3 PUSH2 0x560E JUMP JUMPDEST DUP7 SSTORE POP PUSH2 0x56F4 JUMP JUMPDEST PUSH1 0x1F NOT DUP5 AND PUSH2 0x56A2 DUP7 PUSH2 0x547E JUMP JUMPDEST PUSH1 0x0 JUMPDEST DUP3 DUP2 LT ISZERO PUSH2 0x56CA JUMPI DUP5 DUP10 ADD MLOAD DUP3 SSTORE PUSH1 0x1 DUP3 ADD SWAP2 POP PUSH1 0x20 DUP6 ADD SWAP5 POP PUSH1 0x20 DUP2 ADD SWAP1 POP PUSH2 0x56A5 JUMP JUMPDEST DUP7 DUP4 LT ISZERO PUSH2 0x56E7 JUMPI DUP5 DUP10 ADD MLOAD PUSH2 0x56E3 PUSH1 0x1F DUP10 AND DUP3 PUSH2 0x55F0 JUMP JUMPDEST DUP4 SSTORE POP JUMPDEST PUSH1 0x1 PUSH1 0x2 DUP9 MUL ADD DUP9 SSTORE POP POP POP JUMPDEST POP POP POP POP POP POP JUMP JUMPDEST PUSH1 0x0 PUSH1 0xA0 DUP3 ADD SWAP1 POP PUSH2 0x5711 PUSH1 0x0 DUP4 ADD DUP9 PUSH2 0x44CD JUMP JUMPDEST PUSH2 0x571E PUSH1 0x20 DUP4 ADD DUP8 PUSH2 0x44CD JUMP JUMPDEST PUSH2 0x572B PUSH1 0x40 DUP4 ADD DUP7 PUSH2 0x44CD JUMP JUMPDEST PUSH2 0x5738 PUSH1 0x60 DUP4 ADD DUP6 PUSH2 0x4258 JUMP JUMPDEST PUSH2 0x5745 PUSH1 0x80 DUP4 ADD DUP5 PUSH2 0x41C2 JUMP JUMPDEST SWAP7 SWAP6 POP POP POP POP POP POP JUMP JUMPDEST PUSH32 0x4E487B7100000000000000000000000000000000000000000000000000000000 PUSH1 0x0 MSTORE PUSH1 0x31 PUSH1 0x4 MSTORE PUSH1 0x24 PUSH1 0x0 REVERT JUMPDEST PUSH1 0x0 PUSH1 0xFF DUP3 AND SWAP1 POP SWAP2 SWAP1 POP JUMP JUMPDEST PUSH2 0x5794 DUP2 PUSH2 0x577E JUMP JUMPDEST DUP3 MSTORE POP POP JUMP JUMPDEST PUSH1 0x0 PUSH1 0x80 DUP3 ADD SWAP1 POP PUSH2 0x57AF PUSH1 0x0 DUP4 ADD DUP8 PUSH2 0x44CD JUMP JUMPDEST PUSH2 0x57BC PUSH1 0x20 DUP4 ADD DUP7 PUSH2 0x578B JUMP JUMPDEST PUSH2 0x57C9 PUSH1 0x40 DUP4 ADD DUP6 PUSH2 0x44CD JUMP JUMPDEST PUSH2 0x57D6 PUSH1 0x60 DUP4 ADD DUP5 PUSH2 0x44CD JUMP JUMPDEST SWAP6 SWAP5 POP POP POP POP POP JUMP INVALID LOG2 PUSH5 0x6970667358 0x22 SLT KECCAK256 0xD9 0xDF EXP EXTCODECOPY 0xE3 PUSH19 0xB759F5709CA309B1824DD5E6ABB33F1130984B SWAP5 POP CALL BYTE GASLIMIT PUSH7 0x3364736F6C6343 STOP ADDMOD SHL STOP CALLER "},"methodIdentifiers":{"addPhase(uint8,uint256,uint256,uint256,uint256,uint256,uint256,bytes32)":"7a989281","approve(address,uint256)":"095ea7b3","backendSigner()":"65d65e86","balanceOf(address)":"70a08231","eip712Domain()":"84b0196e","getActivePhase()":"1ce97fd1","getApproved(uint256)":"081812fc","getDomainSeparator()":"ed24911d","getMintedInPhase(address,uint8)":"f7330c2d","getPhaseCount()":"db5e0063","isActivePhasePresent()":"072a1319","isApprovedForAll(address,address)":"e985e9c5","mint(uint256,string,bytes32,uint256,bytes,bytes32[])":"8ff75e82","name()":"06fdde03","owner()":"8da5cb5b","ownerOf(uint256)":"6352211e","phases(uint256)":"2e37eef6","platformFeePercentage()":"cdd78cfc","platformFeeRecipient()":"eb13554f","renounceOwnership()":"715018a6","royaltyInfo(uint256,uint256)":"2a55205a","safeTransferFrom(address,address,uint256)":"42842e0e","safeTransferFrom(address,address,uint256,bytes)":"b88d4fde","setApprovalForAll(address,bool)":"a22cb465","supportsInterface(bytes4)":"01ffc9a7","symbol()":"95d89b41","tokenByIndex(uint256)":"4f6ccce7","tokenOfOwnerByIndex(address,uint256)":"2f745c59","tokenURI(uint256)":"c87b56dd","tokensOfOwner(address)":"8462151c","totalSupply()":"18160ddd","transferFrom(address,address,uint256)":"23b872dd","transferOwnership(address)":"f2fde38b"}}}}}